{
  "_format": "hh-sol-artifact-1",
  "contractName": "CampaignGlobalParameters",
  "sourceName": "contracts/CampaignGlobalParameters.sol",
  "abi": [
    {
      "inputs": [
        {
          "internalType": "address",
          "name": "protocolAdmin_",
          "type": "address"
        }
      ],
      "stateMutability": "nonpayable",
      "type": "constructor"
    },
    {
      "anonymous": false,
      "inputs": [
        {
          "indexed": true,
          "internalType": "address",
          "name": "previousOwner",
          "type": "address"
        },
        {
          "indexed": true,
          "internalType": "address",
          "name": "newOwner",
          "type": "address"
        }
      ],
      "name": "OwnershipTransferred",
      "type": "event"
    },
    {
      "inputs": [],
      "name": "denominator",
      "outputs": [
        {
          "internalType": "uint256",
          "name": "",
          "type": "uint256"
        }
      ],
      "stateMutability": "view",
      "type": "function"
    },
    {
      "inputs": [],
      "name": "owner",
      "outputs": [
        {
          "internalType": "address",
          "name": "",
          "type": "address"
        }
      ],
      "stateMutability": "view",
      "type": "function"
    },
    {
      "inputs": [],
      "name": "percentDivider",
      "outputs": [
        {
          "internalType": "uint256",
          "name": "",
          "type": "uint256"
        }
      ],
      "stateMutability": "pure",
      "type": "function"
    },
    {
      "inputs": [
        {
          "internalType": "bytes32",
          "name": "platformHex",
          "type": "bytes32"
        }
      ],
      "name": "platformAdmin",
      "outputs": [
        {
          "internalType": "address",
          "name": "",
          "type": "address"
        }
      ],
      "stateMutability": "view",
      "type": "function"
    },
    {
      "inputs": [],
      "name": "platformTotalFeePercent",
      "outputs": [
        {
          "internalType": "uint256",
          "name": "",
          "type": "uint256"
        }
      ],
      "stateMutability": "view",
      "type": "function"
    },
    {
      "inputs": [],
      "name": "protocolAdmin",
      "outputs": [
        {
          "internalType": "address",
          "name": "",
          "type": "address"
        }
      ],
      "stateMutability": "view",
      "type": "function"
    },
    {
      "inputs": [],
      "name": "renounceOwnership",
      "outputs": [],
      "stateMutability": "nonpayable",
      "type": "function"
    },
    {
      "inputs": [],
      "name": "rewardPlatformFeePercent",
      "outputs": [
        {
          "internalType": "uint256",
          "name": "",
          "type": "uint256"
        }
      ],
      "stateMutability": "view",
      "type": "function"
    },
    {
      "inputs": [],
      "name": "rewardedPlatform",
      "outputs": [
        {
          "internalType": "bytes32",
          "name": "",
          "type": "bytes32"
        }
      ],
      "stateMutability": "view",
      "type": "function"
    },
    {
      "inputs": [
        {
          "internalType": "uint256",
          "name": "denominator_",
          "type": "uint256"
        }
      ],
      "name": "setDenominator",
      "outputs": [],
      "stateMutability": "nonpayable",
      "type": "function"
    },
    {
      "inputs": [
        {
          "internalType": "bytes32",
          "name": "platformHex_",
          "type": "bytes32"
        },
        {
          "internalType": "address",
          "name": "platformAdmin_",
          "type": "address"
        }
      ],
      "name": "setPlatformAdmin",
      "outputs": [],
      "stateMutability": "nonpayable",
      "type": "function"
    },
    {
      "inputs": [
        {
          "internalType": "uint256",
          "name": "platformTotalFeePercent_",
          "type": "uint256"
        }
      ],
      "name": "setPlatformTotalFeePercent",
      "outputs": [],
      "stateMutability": "nonpayable",
      "type": "function"
    },
    {
      "inputs": [
        {
          "internalType": "uint256",
          "name": "rewardPlatformFeePercent_",
          "type": "uint256"
        }
      ],
      "name": "setRewardPlatformFeePercent",
      "outputs": [],
      "stateMutability": "nonpayable",
      "type": "function"
    },
    {
      "inputs": [
        {
          "internalType": "bytes32",
          "name": "rewardedPlatform_",
          "type": "bytes32"
        }
      ],
      "name": "setRewardedPlatform",
      "outputs": [],
      "stateMutability": "nonpayable",
      "type": "function"
    },
    {
      "inputs": [
        {
          "internalType": "uint256",
          "name": "specifiedTime_",
          "type": "uint256"
        }
      ],
      "name": "setSpecifiedTime",
      "outputs": [],
      "stateMutability": "nonpayable",
      "type": "function"
    },
    {
      "inputs": [],
      "name": "specifiedTime",
      "outputs": [
        {
          "internalType": "uint256",
          "name": "",
          "type": "uint256"
        }
      ],
      "stateMutability": "view",
      "type": "function"
    },
    {
      "inputs": [
        {
          "internalType": "address",
          "name": "newOwner",
          "type": "address"
        }
      ],
      "name": "transferOwnership",
      "outputs": [],
      "stateMutability": "nonpayable",
      "type": "function"
    }
  ],
  "bytecode": "0x608060405260026001553480156200001657600080fd5b5060405162000e7038038062000e7083398181016040528101906200003c91906200035e565b6200005c62000050620000d760201b60201c565b620000df60201b60201c565b80600660006101000a81548173ffffffffffffffffffffffffffffffffffffffff021916908373ffffffffffffffffffffffffffffffffffffffff160217905550620000d0600660009054906101000a900473ffffffffffffffffffffffffffffffffffffffff16620001a360201b60201c565b50620004ab565b600033905090565b60008060009054906101000a900473ffffffffffffffffffffffffffffffffffffffff169050816000806101000a81548173ffffffffffffffffffffffffffffffffffffffff021916908373ffffffffffffffffffffffffffffffffffffffff1602179055508173ffffffffffffffffffffffffffffffffffffffff168173ffffffffffffffffffffffffffffffffffffffff167f8be0079c531659141344cd1fd0a4f28419497f9722a3daafe3b4186f6b6457e060405160405180910390a35050565b620001b36200023a60201b60201c565b600073ffffffffffffffffffffffffffffffffffffffff168173ffffffffffffffffffffffffffffffffffffffff16141562000226576040517f08c379a00000000000000000000000000000000000000000000000000000000081526004016200021d9062000417565b60405180910390fd5b6200023781620000df60201b60201c565b50565b6200024a620000d760201b60201c565b73ffffffffffffffffffffffffffffffffffffffff1662000270620002cb60201b60201c565b73ffffffffffffffffffffffffffffffffffffffff1614620002c9576040517f08c379a0000000000000000000000000000000000000000000000000000000008152600401620002c09062000489565b60405180910390fd5b565b60008060009054906101000a900473ffffffffffffffffffffffffffffffffffffffff16905090565b600080fd5b600073ffffffffffffffffffffffffffffffffffffffff82169050919050565b60006200032682620002f9565b9050919050565b620003388162000319565b81146200034457600080fd5b50565b60008151905062000358816200032d565b92915050565b600060208284031215620003775762000376620002f4565b5b6000620003878482850162000347565b91505092915050565b600082825260208201905092915050565b7f4f776e61626c653a206e6577206f776e657220697320746865207a65726f206160008201527f6464726573730000000000000000000000000000000000000000000000000000602082015250565b6000620003ff60268362000390565b91506200040c82620003a1565b604082019050919050565b600060208201905081810360008301526200043281620003f0565b9050919050565b7f4f776e61626c653a2063616c6c6572206973206e6f7420746865206f776e6572600082015250565b60006200047160208362000390565b91506200047e8262000439565b602082019050919050565b60006020820190508181036000830152620004a48162000462565b9050919050565b6109b580620004bb6000396000f3fe608060405234801561001057600080fd5b506004361061010b5760003560e01c80637bec349d116100a2578063a27a8eed11610071578063a27a8eed1461025c578063a5d9099314610278578063f2fde38b146102a8578063fe421d0a146102c4578063fe6f1b05146102e05761010b565b80637bec349d146101e45780638274f2d6146102025780638da5cb5b1461022057806396ce07951461023e5761010b565b80636cec0ceb116100de5780636cec0ceb14610184578063715018a6146101a0578063725d88ca146101aa5780637712b172146101c65761010b565b80630f79c84114610110578063195761241461012c5780632dafd2261461014a578063420f686114610166575b600080fd5b61012a600480360381019061012591906106f5565b6102fe565b005b610134610354565b6040516101419190610744565b60405180910390f35b610164600480360381019061015f9190610795565b61035e565b005b61016e610370565b60405161017b91906107d1565b60405180910390f35b61019e60048036038101906101999190610795565b61039a565b005b6101a86103ac565b005b6101c460048036038101906101bf9190610795565b6103c0565b005b6101ce6103d2565b6040516101db91906107fb565b60405180910390f35b6101ec6103dc565b6040516101f991906107fb565b60405180910390f35b61020a6103e6565b60405161021791906107fb565b60405180910390f35b6102286103f0565b60405161023591906107d1565b60405180910390f35b610246610419565b60405161025391906107fb565b60405180910390f35b61027660048036038101906102719190610795565b610423565b005b610292600480360381019061028d9190610816565b610435565b60405161029f91906107d1565b60405180910390f35b6102c260048036038101906102bd9190610843565b610472565b005b6102de60048036038101906102d99190610816565b6104f6565b005b6102e8610508565b6040516102f591906107fb565b60405180910390f35b806007600084815260200190815260200160002060006101000a81548173ffffffffffffffffffffffffffffffffffffffff021916908373ffffffffffffffffffffffffffffffffffffffff1602179055505050565b6000600254905090565b610366610512565b8060048190555050565b6000600660009054906101000a900473ffffffffffffffffffffffffffffffffffffffff16905090565b6103a2610512565b8060018190555050565b6103b4610512565b6103be6000610590565b565b6103c8610512565b8060058190555050565b6000600554905090565b6000600454905090565b6000600354905090565b60008060009054906101000a900473ffffffffffffffffffffffffffffffffffffffff16905090565b6000600154905090565b61042b610512565b8060038190555050565b60006007600083815260200190815260200160002060009054906101000a900473ffffffffffffffffffffffffffffffffffffffff169050919050565b61047a610512565b600073ffffffffffffffffffffffffffffffffffffffff168173ffffffffffffffffffffffffffffffffffffffff1614156104ea576040517f08c379a00000000000000000000000000000000000000000000000000000000081526004016104e1906108f3565b60405180910390fd5b6104f381610590565b50565b6104fe610512565b8060028190555050565b6000612710905090565b61051a610654565b73ffffffffffffffffffffffffffffffffffffffff166105386103f0565b73ffffffffffffffffffffffffffffffffffffffff161461058e576040517f08c379a00000000000000000000000000000000000000000000000000000000081526004016105859061095f565b60405180910390fd5b565b60008060009054906101000a900473ffffffffffffffffffffffffffffffffffffffff169050816000806101000a81548173ffffffffffffffffffffffffffffffffffffffff021916908373ffffffffffffffffffffffffffffffffffffffff1602179055508173ffffffffffffffffffffffffffffffffffffffff168173ffffffffffffffffffffffffffffffffffffffff167f8be0079c531659141344cd1fd0a4f28419497f9722a3daafe3b4186f6b6457e060405160405180910390a35050565b600033905090565b600080fd5b6000819050919050565b61067481610661565b811461067f57600080fd5b50565b6000813590506106918161066b565b92915050565b600073ffffffffffffffffffffffffffffffffffffffff82169050919050565b60006106c282610697565b9050919050565b6106d2816106b7565b81146106dd57600080fd5b50565b6000813590506106ef816106c9565b92915050565b6000806040838503121561070c5761070b61065c565b5b600061071a85828601610682565b925050602061072b858286016106e0565b9150509250929050565b61073e81610661565b82525050565b60006020820190506107596000830184610735565b92915050565b6000819050919050565b6107728161075f565b811461077d57600080fd5b50565b60008135905061078f81610769565b92915050565b6000602082840312156107ab576107aa61065c565b5b60006107b984828501610780565b91505092915050565b6107cb816106b7565b82525050565b60006020820190506107e660008301846107c2565b92915050565b6107f58161075f565b82525050565b600060208201905061081060008301846107ec565b92915050565b60006020828403121561082c5761082b61065c565b5b600061083a84828501610682565b91505092915050565b6000602082840312156108595761085861065c565b5b6000610867848285016106e0565b91505092915050565b600082825260208201905092915050565b7f4f776e61626c653a206e6577206f776e657220697320746865207a65726f206160008201527f6464726573730000000000000000000000000000000000000000000000000000602082015250565b60006108dd602683610870565b91506108e882610881565b604082019050919050565b6000602082019050818103600083015261090c816108d0565b9050919050565b7f4f776e61626c653a2063616c6c6572206973206e6f7420746865206f776e6572600082015250565b6000610949602083610870565b915061095482610913565b602082019050919050565b600060208201905081810360008301526109788161093c565b905091905056fea2646970667358221220192a2d4e3410e96f3355824bef3dfe8898a147950625fab082dd61ab3c3671f164736f6c63430008090033",
  "linkReferences": {},
  "deployedLinkReferences": {}
}