{
  "_format": "hh-sol-artifact-1",
  "contractName": "CampaignGlobalParameters",
  "sourceName": "contracts/CampaignGlobalParameters.sol",
  "abi": [
    {
      "anonymous": false,
      "inputs": [
        {
          "indexed": true,
          "internalType": "address",
          "name": "previousOwner",
          "type": "address"
        },
        {
          "indexed": true,
          "internalType": "address",
          "name": "newOwner",
          "type": "address"
        }
      ],
      "name": "OwnershipTransferred",
      "type": "event"
    },
    {
      "inputs": [],
      "name": "denominator",
      "outputs": [
        {
          "internalType": "uint256",
          "name": "",
          "type": "uint256"
        }
      ],
      "stateMutability": "view",
      "type": "function"
    },
    {
      "inputs": [],
      "name": "owner",
      "outputs": [
        {
          "internalType": "address",
          "name": "",
          "type": "address"
        }
      ],
      "stateMutability": "view",
      "type": "function"
    },
    {
      "inputs": [],
      "name": "percentDivider",
      "outputs": [
        {
          "internalType": "uint256",
          "name": "",
          "type": "uint256"
        }
      ],
      "stateMutability": "pure",
      "type": "function"
    },
    {
      "inputs": [],
      "name": "platformTotalFeePercent",
      "outputs": [
        {
          "internalType": "uint256",
          "name": "",
          "type": "uint256"
        }
      ],
      "stateMutability": "view",
      "type": "function"
    },
    {
      "inputs": [],
      "name": "renounceOwnership",
      "outputs": [],
      "stateMutability": "nonpayable",
      "type": "function"
    },
    {
      "inputs": [],
      "name": "rewardPlatformFeePercent",
      "outputs": [
        {
          "internalType": "uint256",
          "name": "",
          "type": "uint256"
        }
      ],
      "stateMutability": "view",
      "type": "function"
    },
    {
      "inputs": [],
      "name": "rewardedPlatform",
      "outputs": [
        {
          "internalType": "bytes32",
          "name": "",
          "type": "bytes32"
        }
      ],
      "stateMutability": "view",
      "type": "function"
    },
    {
      "inputs": [
        {
          "internalType": "uint256",
          "name": "denominator",
          "type": "uint256"
        }
      ],
      "name": "setDenominator",
      "outputs": [],
      "stateMutability": "nonpayable",
      "type": "function"
    },
    {
      "inputs": [
        {
          "internalType": "uint256",
          "name": "platformTotalFeePercent",
          "type": "uint256"
        }
      ],
      "name": "setPlatformTotalFeePercent",
      "outputs": [],
      "stateMutability": "nonpayable",
      "type": "function"
    },
    {
      "inputs": [
        {
          "internalType": "uint256",
          "name": "rewardPlatformFeePercent",
          "type": "uint256"
        }
      ],
      "name": "setRewardPlatformFeePercent",
      "outputs": [],
      "stateMutability": "nonpayable",
      "type": "function"
    },
    {
      "inputs": [
        {
          "internalType": "bytes32",
          "name": "rewardedPlatform",
          "type": "bytes32"
        }
      ],
      "name": "setRewardedPlatform",
      "outputs": [],
      "stateMutability": "nonpayable",
      "type": "function"
    },
    {
      "inputs": [
        {
          "internalType": "uint256",
          "name": "specifiedTime",
          "type": "uint256"
        }
      ],
      "name": "setSpecifiedTime",
      "outputs": [],
      "stateMutability": "nonpayable",
      "type": "function"
    },
    {
      "inputs": [],
      "name": "specifiedTime",
      "outputs": [
        {
          "internalType": "uint256",
          "name": "",
          "type": "uint256"
        }
      ],
      "stateMutability": "view",
      "type": "function"
    },
    {
      "inputs": [
        {
          "internalType": "address",
          "name": "newOwner",
          "type": "address"
        }
      ],
      "name": "transferOwnership",
      "outputs": [],
      "stateMutability": "nonpayable",
      "type": "function"
    }
  ],
  "bytecode": "0x6080604052600260015534801561001557600080fd5b5061003261002761003760201b60201c565b61003f60201b60201c565b610103565b600033905090565b60008060009054906101000a900473ffffffffffffffffffffffffffffffffffffffff169050816000806101000a81548173ffffffffffffffffffffffffffffffffffffffff021916908373ffffffffffffffffffffffffffffffffffffffff1602179055508173ffffffffffffffffffffffffffffffffffffffff168173ffffffffffffffffffffffffffffffffffffffff167f8be0079c531659141344cd1fd0a4f28419497f9722a3daafe3b4186f6b6457e060405160405180910390a35050565b61082d806101126000396000f3fe608060405234801561001057600080fd5b50600436106100ea5760003560e01c80638274f2d61161008c578063a27a8eed11610066578063a27a8eed14610201578063f2fde38b1461021d578063fe421d0a14610239578063fe6f1b0514610255576100ea565b80638274f2d6146101a75780638da5cb5b146101c557806396ce0795146101e3576100ea565b8063715018a6116100c8578063715018a614610145578063725d88ca1461014f5780637712b1721461016b5780637bec349d14610189576100ea565b806319576124146100ef5780632dafd2261461010d5780636cec0ceb14610129575b600080fd5b6100f7610273565b604051610104919061052d565b60405180910390f35b61012760048036038101906101229190610583565b61027d565b005b610143600480360381019061013e9190610583565b61028f565b005b61014d6102a1565b005b61016960048036038101906101649190610583565b6102b5565b005b6101736102c7565b60405161018091906105bf565b60405180910390f35b6101916102d1565b60405161019e91906105bf565b60405180910390f35b6101af6102db565b6040516101bc91906105bf565b60405180910390f35b6101cd6102e5565b6040516101da919061061b565b60405180910390f35b6101eb61030e565b6040516101f891906105bf565b60405180910390f35b61021b60048036038101906102169190610583565b610318565b005b61023760048036038101906102329190610662565b61032a565b005b610253600480360381019061024e91906106bb565b6103ae565b005b61025d6103c0565b60405161026a91906105bf565b60405180910390f35b6000600254905090565b6102856103ca565b8060048190555050565b6102976103ca565b8060018190555050565b6102a96103ca565b6102b36000610448565b565b6102bd6103ca565b8060058190555050565b6000600554905090565b6000600454905090565b6000600354905090565b60008060009054906101000a900473ffffffffffffffffffffffffffffffffffffffff16905090565b6000600154905090565b6103206103ca565b8060038190555050565b6103326103ca565b600073ffffffffffffffffffffffffffffffffffffffff168173ffffffffffffffffffffffffffffffffffffffff1614156103a2576040517f08c379a00000000000000000000000000000000000000000000000000000000081526004016103999061076b565b60405180910390fd5b6103ab81610448565b50565b6103b66103ca565b8060028190555050565b6000612710905090565b6103d261050c565b73ffffffffffffffffffffffffffffffffffffffff166103f06102e5565b73ffffffffffffffffffffffffffffffffffffffff1614610446576040517f08c379a000000000000000000000000000000000000000000000000000000000815260040161043d906107d7565b60405180910390fd5b565b60008060009054906101000a900473ffffffffffffffffffffffffffffffffffffffff169050816000806101000a81548173ffffffffffffffffffffffffffffffffffffffff021916908373ffffffffffffffffffffffffffffffffffffffff1602179055508173ffffffffffffffffffffffffffffffffffffffff168173ffffffffffffffffffffffffffffffffffffffff167f8be0079c531659141344cd1fd0a4f28419497f9722a3daafe3b4186f6b6457e060405160405180910390a35050565b600033905090565b6000819050919050565b61052781610514565b82525050565b6000602082019050610542600083018461051e565b92915050565b600080fd5b6000819050919050565b6105608161054d565b811461056b57600080fd5b50565b60008135905061057d81610557565b92915050565b60006020828403121561059957610598610548565b5b60006105a78482850161056e565b91505092915050565b6105b98161054d565b82525050565b60006020820190506105d460008301846105b0565b92915050565b600073ffffffffffffffffffffffffffffffffffffffff82169050919050565b6000610605826105da565b9050919050565b610615816105fa565b82525050565b6000602082019050610630600083018461060c565b92915050565b61063f816105fa565b811461064a57600080fd5b50565b60008135905061065c81610636565b92915050565b60006020828403121561067857610677610548565b5b60006106868482850161064d565b91505092915050565b61069881610514565b81146106a357600080fd5b50565b6000813590506106b58161068f565b92915050565b6000602082840312156106d1576106d0610548565b5b60006106df848285016106a6565b91505092915050565b600082825260208201905092915050565b7f4f776e61626c653a206e6577206f776e657220697320746865207a65726f206160008201527f6464726573730000000000000000000000000000000000000000000000000000602082015250565b60006107556026836106e8565b9150610760826106f9565b604082019050919050565b6000602082019050818103600083015261078481610748565b9050919050565b7f4f776e61626c653a2063616c6c6572206973206e6f7420746865206f776e6572600082015250565b60006107c16020836106e8565b91506107cc8261078b565b602082019050919050565b600060208201905081810360008301526107f0816107b4565b905091905056fea2646970667358221220057eb60c72ab2c4bb278b105ca284c8f7ca3ff8ed409f41268ee3e50904bb44564736f6c63430008090033",
  "linkReferences": {},
  "deployedLinkReferences": {}
}