{
  "_format": "hh-sol-artifact-1",
  "contractName": "CampaignFeeSplitter",
  "sourceName": "contracts/CampaignFeeSplitter.sol",
  "abi": [
    {
      "inputs": [
        {
          "internalType": "uint256",
          "name": "feePercent",
          "type": "uint256"
        },
        {
          "internalType": "uint256",
          "name": "percentDivider",
          "type": "uint256"
        },
        {
          "internalType": "uint256[]",
          "name": "pledgedAmountByPlatforms",
          "type": "uint256[]"
        }
      ],
      "name": "getFeeSplitsProportionately",
      "outputs": [
        {
          "internalType": "uint256[]",
          "name": "",
          "type": "uint256[]"
        }
      ],
      "stateMutability": "pure",
      "type": "function"
    },
    {
      "inputs": [
        {
          "internalType": "uint256",
          "name": "totalFeePercent",
          "type": "uint256"
        },
        {
          "internalType": "uint256",
          "name": "percentDivider",
          "type": "uint256"
        },
        {
          "internalType": "uint256",
          "name": "platformRewardPercent",
          "type": "uint256"
        },
        {
          "internalType": "uint256",
          "name": "pledgedAmountByOrigin",
          "type": "uint256"
        },
        {
          "internalType": "uint256[]",
          "name": "pledgedAmountsByReach",
          "type": "uint256[]"
        }
      ],
      "name": "getFeeSplitsProportionatelyWithPlatformReward",
      "outputs": [
        {
          "internalType": "uint256",
          "name": "",
          "type": "uint256"
        },
        {
          "internalType": "uint256[]",
          "name": "",
          "type": "uint256[]"
        }
      ],
      "stateMutability": "pure",
      "type": "function"
    }
  ],
  "bytecode": "0x608060405234801561001057600080fd5b506107c9806100206000396000f3fe608060405234801561001057600080fd5b50600436106100365760003560e01c8063bdec30ba1461003b578063e14f84c21461006b575b600080fd5b61005560048036038101906100509190610383565b61009c565b60405161006291906104b0565b60405180910390f35b610085600480360381019061008091906104d2565b61016c565b604051610093929190610578565b60405180910390f35b606060008251905060008167ffffffffffffffff8111156100c0576100bf610240565b5b6040519080825280602002602001820160405280156100ee5781602001602082028036833780820191505090505b50905060005b8281101561015f578587868381518110610111576101106105a8565b5b60200260200101516101239190610606565b61012d919061068f565b8282815181106101405761013f6105a8565b5b6020026020010181815250508080610157906106c0565b9150506100f4565b5080925050509392505050565b6000606060008351905060006001826101859190610709565b878a610191919061075f565b61019b919061068f565b905060008882896101ac9190610709565b886101b79190610606565b6101c1919061068f565b9050806101cf838b8961009c565b945094505050509550959350505050565b6000604051905090565b600080fd5b600080fd5b6000819050919050565b610207816101f4565b811461021257600080fd5b50565b600081359050610224816101fe565b92915050565b600080fd5b6000601f19601f8301169050919050565b7f4e487b7100000000000000000000000000000000000000000000000000000000600052604160045260246000fd5b6102788261022f565b810181811067ffffffffffffffff8211171561029757610296610240565b5b80604052505050565b60006102aa6101e0565b90506102b6828261026f565b919050565b600067ffffffffffffffff8211156102d6576102d5610240565b5b602082029050602081019050919050565b600080fd5b60006102ff6102fa846102bb565b6102a0565b90508083825260208201905060208402830185811115610322576103216102e7565b5b835b8181101561034b57806103378882610215565b845260208401935050602081019050610324565b5050509392505050565b600082601f83011261036a5761036961022a565b5b813561037a8482602086016102ec565b91505092915050565b60008060006060848603121561039c5761039b6101ea565b5b60006103aa86828701610215565b93505060206103bb86828701610215565b925050604084013567ffffffffffffffff8111156103dc576103db6101ef565b5b6103e886828701610355565b9150509250925092565b600081519050919050565b600082825260208201905092915050565b6000819050602082019050919050565b610427816101f4565b82525050565b6000610439838361041e565b60208301905092915050565b6000602082019050919050565b600061045d826103f2565b61046781856103fd565b93506104728361040e565b8060005b838110156104a357815161048a888261042d565b975061049583610445565b925050600181019050610476565b5085935050505092915050565b600060208201905081810360008301526104ca8184610452565b905092915050565b600080600080600060a086880312156104ee576104ed6101ea565b5b60006104fc88828901610215565b955050602061050d88828901610215565b945050604061051e88828901610215565b935050606061052f88828901610215565b925050608086013567ffffffffffffffff8111156105505761054f6101ef565b5b61055c88828901610355565b9150509295509295909350565b610572816101f4565b82525050565b600060408201905061058d6000830185610569565b818103602083015261059f8184610452565b90509392505050565b7f4e487b7100000000000000000000000000000000000000000000000000000000600052603260045260246000fd5b7f4e487b7100000000000000000000000000000000000000000000000000000000600052601160045260246000fd5b6000610611826101f4565b915061061c836101f4565b9250817fffffffffffffffffffffffffffffffffffffffffffffffffffffffffffffffff0483118215151615610655576106546105d7565b5b828202905092915050565b7f4e487b7100000000000000000000000000000000000000000000000000000000600052601260045260246000fd5b600061069a826101f4565b91506106a5836101f4565b9250826106b5576106b4610660565b5b828204905092915050565b60006106cb826101f4565b91507fffffffffffffffffffffffffffffffffffffffffffffffffffffffffffffffff8214156106fe576106fd6105d7565b5b600182019050919050565b6000610714826101f4565b915061071f836101f4565b9250827fffffffffffffffffffffffffffffffffffffffffffffffffffffffffffffffff03821115610754576107536105d7565b5b828201905092915050565b600061076a826101f4565b9150610775836101f4565b925082821015610788576107876105d7565b5b82820390509291505056fea2646970667358221220880d9457419f266a3899a18c9e30e4632724c4b147d0003de944e4a90b5bb9b764736f6c63430008090033",
  "linkReferences": {},
  "deployedLinkReferences": {}
}