{"contracts/Aggregator/Aggregator.sol":{"Aggregator":{"abi":[{"inputs":[{"internalType":"address","name":"campaignInfo","type":"address"},{"internalType":"string","name":"_itemId","type":"string"},{"internalType":"string","name":"_description","type":"string"}],"name":"addItem","outputs":[],"stateMutability":"nonpayable","type":"function"},{"inputs":[{"internalType":"address","name":"campaignInfo","type":"address"},{"internalType":"string[]","name":"itemName","type":"string[]"},{"internalType":"string[]","name":"description","type":"string[]"},{"internalType":"string","name":"rewardName","type":"string"},{"internalType":"uint256","name":"rewardValue","type":"uint256"},{"internalType":"uint256[]","name":"itemQuantity","type":"uint256[]"}],"name":"addItemAndReward","outputs":[],"stateMutability":"nonpayable","type":"function"},{"inputs":[{"internalType":"address","name":"campaignInfo","type":"address"},{"internalType":"string[]","name":"_itemId","type":"string[]"},{"internalType":"string[]","name":"_description","type":"string[]"}],"name":"addItems","outputs":[],"stateMutability":"nonpayable","type":"function"},{"inputs":[{"internalType":"address","name":"campaignInfo","type":"address"},{"internalType":"string","name":"name","type":"string"},{"internalType":"uint256","name":"rewardValue","type":"uint256"},{"internalType":"string[]","name":"itemName","type":"string[]"},{"internalType":"uint256[]","name":"itemQuantity","type":"uint256[]"}],"name":"addReward","outputs":[],"stateMutability":"nonpayable","type":"function"},{"inputs":[{"internalType":"address","name":"_creator","type":"address"},{"internalType":"string","name":"_identifier","type":"string"},{"internalType":"bytes32","name":"_originPlatform","type":"bytes32"},{"internalType":"string","name":"_creatorUrl","type":"string"},{"internalType":"bytes32[]","name":"_reachPlatform","type":"bytes32[]"},{"internalType":"uint256","name":"_earlyPledgeAmount","type":"uint256"}],"name":"createCampaign","outputs":[],"stateMutability":"nonpayable","type":"function"},{"inputs":[{"internalType":"address","name":"_campaignInfoFactory","type":"address"},{"internalType":"address","name":"_campaignRegisty","type":"address"}],"name":"initialize","outputs":[],"stateMutability":"nonpayable","type":"function"},{"inputs":[{"internalType":"address","name":"campaignInfo","type":"address"},{"internalType":"uint256","name":"launchTime","type":"uint256"},{"internalType":"uint256","name":"deadline","type":"uint256"},{"internalType":"uint256","name":"goalAmount","type":"uint256"},{"internalType":"bool","name":"enableLatePledge","type":"bool"}],"name":"setLaunch","outputs":[],"stateMutability":"nonpayable","type":"function"},{"inputs":[{"internalType":"address","name":"campaignInfo","type":"address"},{"internalType":"bytes32","name":"platform","type":"bytes32"},{"internalType":"address","name":"platformWallet","type":"address"},{"internalType":"address","name":"token","type":"address"}],"name":"setTreasury","outputs":[],"stateMutability":"nonpayable","type":"function"}],"evm":{"bytecode":{"linkReferences":{},"object":"608060405234801561001057600080fd5b50612a5d806100206000396000f3fe60806040523480156200001157600080fd5b5060043610620000945760003560e01c8063ab4d9b5f1162000063578063ab4d9b5f1462000119578063c77e6f651462000139578063d3caea4f1462000159578063fbe121fa14620001795762000094565b80632c6ba152146200009957806333d556d714620000b9578063485cc95514620000d95780637351e1ab14620000f9575b600080fd5b620000b76004803603810190620000b1919062000dc6565b62000199565b005b620000d76004803603810190620000d1919062000ea5565b6200033a565b005b620000f76004803603810190620000f1919062000f17565b62000515565b005b62000117600480360381019062000111919062001163565b6200059b565b005b62000137600480360381019062000131919062001448565b620007b9565b005b62000157600480360381019062000151919062001606565b620008d1565b005b620001776004803603810190620001719190620016ff565b62000aa7565b005b620001976004803603810190620001919190620017e0565b62000bbc565b005b843373ffffffffffffffffffffffffffffffffffffffff166000808373ffffffffffffffffffffffffffffffffffffffff1673ffffffffffffffffffffffffffffffffffffffff16815260200190815260200160002060009054906101000a900473ffffffffffffffffffffffffffffffffffffffff1673ffffffffffffffffffffffffffffffffffffffff16146200023157600080fd5b60008585905090508084849050146200024957600080fd5b60005b8181101562000330578773ffffffffffffffffffffffffffffffffffffffff16637ed8a71988888481811062000287576200028662001868565b5b90506020028101906200029b9190620018a6565b888886818110620002b157620002b062001868565b5b9050602002810190620002c59190620018a6565b6040518563ffffffff1660e01b8152600401620002e6949392919062001956565b600060405180830381600087803b1580156200030157600080fd5b505af115801562000316573d6000803e3d6000fd5b5050505080806200032790620019c4565b9150506200024c565b5050505050505050565b833373ffffffffffffffffffffffffffffffffffffffff166000808373ffffffffffffffffffffffffffffffffffffffff1673ffffffffffffffffffffffffffffffffffffffff16815260200190815260200160002060009054906101000a900473ffffffffffffffffffffffffffffffffffffffff1673ffffffffffffffffffffffffffffffffffffffff1614620003d257600080fd5b600260009054906101000a900473ffffffffffffffffffffffffffffffffffffffff168585604051620004059062000cd1565b620004139392919062001a34565b604051809103906000f08015801562000430573d6000803e3d6000fd5b50600360006101000a81548173ffffffffffffffffffffffffffffffffffffffff021916908373ffffffffffffffffffffffffffffffffffffffff1602179055506000600360009054906101000a900473ffffffffffffffffffffffffffffffffffffffff1690508573ffffffffffffffffffffffffffffffffffffffff1663deaaf241868684876040518563ffffffff1660e01b8152600401620004d9949392919062001a71565b600060405180830381600087803b158015620004f457600080fd5b505af115801562000509573d6000803e3d6000fd5b50505050505050505050565b81600160006101000a81548173ffffffffffffffffffffffffffffffffffffffff021916908373ffffffffffffffffffffffffffffffffffffffff16021790555080600260006101000a81548173ffffffffffffffffffffffffffffffffffffffff021916908373ffffffffffffffffffffffffffffffffffffffff1602179055505050565b883373ffffffffffffffffffffffffffffffffffffffff166000808373ffffffffffffffffffffffffffffffffffffffff1673ffffffffffffffffffffffffffffffffffffffff16815260200190815260200160002060009054906101000a900473ffffffffffffffffffffffffffffffffffffffff1673ffffffffffffffffffffffffffffffffffffffff16146200063357600080fd5b60008989905090508088889050146200064b57600080fd5b60005b8181101562000732578b73ffffffffffffffffffffffffffffffffffffffff16637ed8a7198c8c8481811062000689576200068862001868565b5b90506020028101906200069d9190620018a6565b8c8c86818110620006b357620006b262001868565b5b9050602002810190620006c79190620018a6565b6040518563ffffffff1660e01b8152600401620006e8949392919062001956565b600060405180830381600087803b1580156200070357600080fd5b505af115801562000718573d6000803e3d6000fd5b5050505080806200072990620019c4565b9150506200064e565b508a73ffffffffffffffffffffffffffffffffffffffff166319188bd88787878e8e896040518763ffffffff1660e01b8152600401620007789695949392919062001d1e565b600060405180830381600087803b1580156200079357600080fd5b505af1158015620007a8573d6000803e3d6000fd5b505050505050505050505050505050565b853373ffffffffffffffffffffffffffffffffffffffff166000808373ffffffffffffffffffffffffffffffffffffffff1673ffffffffffffffffffffffffffffffffffffffff16815260200190815260200160002060009054906101000a900473ffffffffffffffffffffffffffffffffffffffff1673ffffffffffffffffffffffffffffffffffffffff16146200085157600080fd5b8673ffffffffffffffffffffffffffffffffffffffff166319188bd887878787876040518663ffffffff1660e01b81526004016200089495949392919062001ec5565b600060405180830381600087803b158015620008af57600080fd5b505af1158015620008c4573d6000803e3d6000fd5b5050505050505050505050565b600160009054906101000a900473ffffffffffffffffffffffffffffffffffffffff1673ffffffffffffffffffffffffffffffffffffffff1663c77e6f653087878787876040518763ffffffff1660e01b8152600401620009389695949392919062002038565b600060405180830381600087803b1580156200095357600080fd5b505af115801562000968573d6000803e3d6000fd5b505050506000600260009054906101000a900473ffffffffffffffffffffffffffffffffffffffff1673ffffffffffffffffffffffffffffffffffffffff1663939f3130876040518263ffffffff1660e01b8152600401620009cb9190620020ba565b60206040518083038186803b158015620009e457600080fd5b505afa158015620009f9573d6000803e3d6000fd5b505050506040513d601f19601f8201168201806040525081019062000a1f9190620020f5565b9050866000808373ffffffffffffffffffffffffffffffffffffffff1673ffffffffffffffffffffffffffffffffffffffff16815260200190815260200160002060006101000a81548173ffffffffffffffffffffffffffffffffffffffff021916908373ffffffffffffffffffffffffffffffffffffffff16021790555050505050505050565b843373ffffffffffffffffffffffffffffffffffffffff166000808373ffffffffffffffffffffffffffffffffffffffff1673ffffffffffffffffffffffffffffffffffffffff16815260200190815260200160002060009054906101000a900473ffffffffffffffffffffffffffffffffffffffff1673ffffffffffffffffffffffffffffffffffffffff161462000b3f57600080fd5b8573ffffffffffffffffffffffffffffffffffffffff16637ed8a719868686866040518563ffffffff1660e01b815260040162000b80949392919062001956565b600060405180830381600087803b15801562000b9b57600080fd5b505af115801562000bb0573d6000803e3d6000fd5b50505050505050505050565b843373ffffffffffffffffffffffffffffffffffffffff166000808373ffffffffffffffffffffffffffffffffffffffff1673ffffffffffffffffffffffffffffffffffffffff16815260200190815260200160002060009054906101000a900473ffffffffffffffffffffffffffffffffffffffff1673ffffffffffffffffffffffffffffffffffffffff161462000c5457600080fd5b8573ffffffffffffffffffffffffffffffffffffffff1663695c27c2868686866040518563ffffffff1660e01b815260040162000c95949392919062002138565b600060405180830381600087803b15801562000cb057600080fd5b505af115801562000cc5573d6000803e3d6000fd5b50505050505050505050565b6108a2806200218683390190565b6000604051905090565b600080fd5b600080fd5b600073ffffffffffffffffffffffffffffffffffffffff82169050919050565b600062000d208262000cf3565b9050919050565b62000d328162000d13565b811462000d3e57600080fd5b50565b60008135905062000d528162000d27565b92915050565b600080fd5b600080fd5b600080fd5b60008083601f84011262000d805762000d7f62000d58565b5b8235905067ffffffffffffffff81111562000da05762000d9f62000d5d565b5b60208301915083602082028301111562000dbf5762000dbe62000d62565b5b9250929050565b60008060008060006060868803121562000de55762000de462000ce9565b5b600062000df58882890162000d41565b955050602086013567ffffffffffffffff81111562000e195762000e1862000cee565b5b62000e278882890162000d67565b9450945050604086013567ffffffffffffffff81111562000e4d5762000e4c62000cee565b5b62000e5b8882890162000d67565b92509250509295509295909350565b6000819050919050565b62000e7f8162000e6a565b811462000e8b57600080fd5b50565b60008135905062000e9f8162000e74565b92915050565b6000806000806080858703121562000ec25762000ec162000ce9565b5b600062000ed28782880162000d41565b945050602062000ee58782880162000e8e565b935050604062000ef88782880162000d41565b925050606062000f0b8782880162000d41565b91505092959194509250565b6000806040838503121562000f315762000f3062000ce9565b5b600062000f418582860162000d41565b925050602062000f548582860162000d41565b9150509250929050565b60008083601f84011262000f775762000f7662000d58565b5b8235905067ffffffffffffffff81111562000f975762000f9662000d5d565b5b60208301915083600182028301111562000fb65762000fb562000d62565b5b9250929050565b6000819050919050565b62000fd28162000fbd565b811462000fde57600080fd5b50565b60008135905062000ff28162000fc7565b92915050565b6000601f19601f8301169050919050565b7f4e487b7100000000000000000000000000000000000000000000000000000000600052604160045260246000fd5b620010438262000ff8565b810181811067ffffffffffffffff8211171562001065576200106462001009565b5b80604052505050565b60006200107a62000cdf565b905062001088828262001038565b919050565b600067ffffffffffffffff821115620010ab57620010aa62001009565b5b602082029050602081019050919050565b6000620010d3620010cd846200108d565b6200106e565b90508083825260208201905060208402830185811115620010f957620010f862000d62565b5b835b8181101562001126578062001111888262000fe1565b845260208401935050602081019050620010fb565b5050509392505050565b600082601f83011262001148576200114762000d58565b5b81356200115a848260208601620010bc565b91505092915050565b600080600080600080600080600060c08a8c03121562001188576200118762000ce9565b5b6000620011988c828d0162000d41565b99505060208a013567ffffffffffffffff811115620011bc57620011bb62000cee565b5b620011ca8c828d0162000d67565b985098505060408a013567ffffffffffffffff811115620011f057620011ef62000cee565b5b620011fe8c828d0162000d67565b965096505060608a013567ffffffffffffffff81111562001224576200122362000cee565b5b620012328c828d0162000f5e565b94509450506080620012478c828d0162000fe1565b92505060a08a013567ffffffffffffffff8111156200126b576200126a62000cee565b5b620012798c828d0162001130565b9150509295985092959850929598565b600067ffffffffffffffff821115620012a757620012a662001009565b5b602082029050602081019050919050565b600080fd5b600067ffffffffffffffff821115620012db57620012da62001009565b5b620012e68262000ff8565b9050602081019050919050565b82818337600083830152505050565b6000620013196200131384620012bd565b6200106e565b905082815260208101848484011115620013385762001337620012b8565b5b62001345848285620012f3565b509392505050565b600082601f83011262001365576200136462000d58565b5b81356200137784826020860162001302565b91505092915050565b600062001397620013918462001289565b6200106e565b90508083825260208201905060208402830185811115620013bd57620013bc62000d62565b5b835b818110156200140b57803567ffffffffffffffff811115620013e657620013e562000d58565b5b808601620013f589826200134d565b85526020850194505050602081019050620013bf565b5050509392505050565b600082601f8301126200142d576200142c62000d58565b5b81356200143f84826020860162001380565b91505092915050565b60008060008060008060a0878903121562001468576200146762000ce9565b5b60006200147889828a0162000d41565b965050602087013567ffffffffffffffff8111156200149c576200149b62000cee565b5b620014aa89828a0162000f5e565b95509550506040620014bf89828a0162000fe1565b935050606087013567ffffffffffffffff811115620014e357620014e262000cee565b5b620014f189828a0162001415565b925050608087013567ffffffffffffffff81111562001515576200151462000cee565b5b6200152389828a0162001130565b9150509295509295509295565b600067ffffffffffffffff8211156200154e576200154d62001009565b5b602082029050602081019050919050565b600062001576620015708462001530565b6200106e565b905080838252602082019050602084028301858111156200159c576200159b62000d62565b5b835b81811015620015c95780620015b4888262000e8e565b8452602084019350506020810190506200159e565b5050509392505050565b600082601f830112620015eb57620015ea62000d58565b5b8135620015fd8482602086016200155f565b91505092915050565b60008060008060008060c0878903121562001626576200162562000ce9565b5b60006200163689828a0162000d41565b965050602087013567ffffffffffffffff8111156200165a576200165962000cee565b5b6200166889828a016200134d565b95505060406200167b89828a0162000e8e565b945050606087013567ffffffffffffffff8111156200169f576200169e62000cee565b5b620016ad89828a016200134d565b935050608087013567ffffffffffffffff811115620016d157620016d062000cee565b5b620016df89828a01620015d3565b92505060a0620016f289828a0162000fe1565b9150509295509295509295565b6000806000806000606086880312156200171e576200171d62000ce9565b5b60006200172e8882890162000d41565b955050602086013567ffffffffffffffff81111562001752576200175162000cee565b5b620017608882890162000f5e565b9450945050604086013567ffffffffffffffff81111562001786576200178562000cee565b5b620017948882890162000f5e565b92509250509295509295909350565b60008115159050919050565b620017ba81620017a3565b8114620017c657600080fd5b50565b600081359050620017da81620017af565b92915050565b600080600080600060a08688031215620017ff57620017fe62000ce9565b5b60006200180f8882890162000d41565b9550506020620018228882890162000fe1565b9450506040620018358882890162000fe1565b9350506060620018488882890162000fe1565b92505060806200185b88828901620017c9565b9150509295509295909350565b7f4e487b7100000000000000000000000000000000000000000000000000000000600052603260045260246000fd5b600080fd5b600080fd5b600080fd5b60008083356001602003843603038112620018c657620018c562001897565b5b80840192508235915067ffffffffffffffff821115620018eb57620018ea6200189c565b5b6020830192506001820236038313156200190a5762001909620018a1565b5b509250929050565b600082825260208201905092915050565b600062001931838562001912565b935062001940838584620012f3565b6200194b8362000ff8565b840190509392505050565b600060408201905081810360008301526200197381868862001923565b905081810360208301526200198a81848662001923565b905095945050505050565b7f4e487b7100000000000000000000000000000000000000000000000000000000600052601160045260246000fd5b6000620019d18262000fbd565b91507fffffffffffffffffffffffffffffffffffffffffffffffffffffffffffffffff82141562001a075762001a0662001995565b5b600182019050919050565b62001a1d8162000d13565b82525050565b62001a2e8162000e6a565b82525050565b600060608201905062001a4b600083018662001a12565b62001a5a602083018562001a12565b62001a69604083018462001a23565b949350505050565b600060808201905062001a88600083018762001a23565b62001a97602083018662001a12565b62001aa6604083018562001a12565b62001ab5606083018462001a12565b95945050505050565b62001ac98162000fbd565b82525050565b600082825260208201905092915050565b6000819050919050565b600082825260208201905092915050565b600062001b09838562001aea565b935062001b18838584620012f3565b62001b238362000ff8565b840190509392505050565b600062001b3d84848462001afb565b90509392505050565b600080fd5b600080fd5b600080fd5b6000808335600160200384360303811262001b755762001b7462001b50565b5b83810192508235915060208301925067ffffffffffffffff82111562001ba05762001b9f62001b46565b5b60018202360384131562001bb95762001bb862001b4b565b5b509250929050565b6000602082019050919050565b600062001bdc838562001acf565b93508360208402850162001bf08462001ae0565b8060005b8781101562001c3e57848403895262001c0e828462001b55565b62001c1b86828462001b2e565b955062001c288462001bc1565b935060208b019a50505060018101905062001bf4565b50829750879450505050509392505050565b600081519050919050565b600082825260208201905092915050565b6000819050602082019050919050565b62001c878162000fbd565b82525050565b600062001c9b838362001c7c565b60208301905092915050565b6000602082019050919050565b600062001cc18262001c50565b62001ccd818562001c5b565b935062001cda8362001c6c565b8060005b8381101562001d1157815162001cf5888262001c8d565b975062001d028362001ca7565b92505060018101905062001cde565b5085935050505092915050565b6000608082019050818103600083015262001d3b81888a62001923565b905062001d4c602083018762001abe565b818103604083015262001d6181858762001bce565b9050818103606083015262001d77818462001cb4565b9050979650505050505050565b600081519050919050565b6000819050602082019050919050565b600081519050919050565b60005b8381101562001dca57808201518184015260208101905062001dad565b8381111562001dda576000848401525b50505050565b600062001ded8262001d9f565b62001df9818562001aea565b935062001e0b81856020860162001daa565b62001e168162000ff8565b840191505092915050565b600062001e2f838362001de0565b905092915050565b6000602082019050919050565b600062001e518262001d84565b62001e5d818562001acf565b93508360208202850162001e718562001d8f565b8060005b8581101562001eb3578484038952815162001e91858262001e21565b945062001e9e8362001e37565b925060208a0199505060018101905062001e75565b50829750879550505050505092915050565b6000608082019050818103600083015262001ee281878962001923565b905062001ef3602083018662001abe565b818103604083015262001f07818562001e44565b9050818103606083015262001f1d818462001cb4565b90509695505050505050565b600062001f368262001d9f565b62001f42818562001912565b935062001f5481856020860162001daa565b62001f5f8162000ff8565b840191505092915050565b600081519050919050565b600082825260208201905092915050565b6000819050602082019050919050565b62001fa18162000e6a565b82525050565b600062001fb5838362001f96565b60208301905092915050565b6000602082019050919050565b600062001fdb8262001f6a565b62001fe7818562001f75565b935062001ff48362001f86565b8060005b838110156200202b5781516200200f888262001fa7565b97506200201c8362001fc1565b92505060018101905062001ff8565b5085935050505092915050565b600060c0820190506200204f600083018962001a12565b818103602083015262002063818862001f29565b905062002074604083018762001a23565b818103606083015262002088818662001f29565b905081810360808301526200209e818562001fce565b9050620020af60a083018462001abe565b979650505050505050565b60006020820190508181036000830152620020d6818462001f29565b905092915050565b600081519050620020ef8162000d27565b92915050565b6000602082840312156200210e576200210d62000ce9565b5b60006200211e84828501620020de565b91505092915050565b6200213281620017a3565b82525050565b60006080820190506200214f600083018762001abe565b6200215e602083018662001abe565b6200216d604083018562001abe565b6200217c606083018462002127565b9594505050505056fe608060405234801561001057600080fd5b506040516108a23803806108a28339818101604052810190610032919061015b565b826000806101000a81548173ffffffffffffffffffffffffffffffffffffffff021916908373ffffffffffffffffffffffffffffffffffffffff16021790555081600160006101000a81548173ffffffffffffffffffffffffffffffffffffffff021916908373ffffffffffffffffffffffffffffffffffffffff160217905550806002819055505050506101ae565b600080fd5b600073ffffffffffffffffffffffffffffffffffffffff82169050919050565b60006100f2826100c7565b9050919050565b610102816100e7565b811461010d57600080fd5b50565b60008151905061011f816100f9565b92915050565b6000819050919050565b61013881610125565b811461014357600080fd5b50565b6000815190506101558161012f565b92915050565b600080600060608486031215610174576101736100c2565b5b600061018286828701610110565b935050602061019386828701610110565b92505060406101a486828701610146565b9150509250925092565b6106e5806101bd6000396000f3fe608060405234801561001057600080fd5b506004361061007d5760003560e01c80634f15fc061161005b5780634f15fc06146100dc57806360a56b3a146100fa5780636cccbe5e146101165780638f94b8c2146101345761007d565b8063186bc549146100825780634575d5c5146100a05780634b1d123b146100be575b600080fd5b61008a610150565b60405161009791906102f4565b60405180910390f35b6100a861015a565b6040516100b59190610328565b60405180910390f35b6100c6610164565b6040516100d391906102f4565b60405180910390f35b6100e4610180565b6040516100f191906102f4565b60405180910390f35b610114600480360381019061010f91906103d2565b61018a565b005b61011e6102ad565b60405161012b91906102f4565b60405180910390f35b61014e60048036038101906101499190610425565b6102d1565b005b6000600354905090565b6000600254905090565b600061016e6102ad565b60035461017b9190610481565b905090565b6000600454905090565b600160009054906101000a900473ffffffffffffffffffffffffffffffffffffffff1673ffffffffffffffffffffffffffffffffffffffff163373ffffffffffffffffffffffffffffffffffffffff161461021a576040517f08c379a000000000000000000000000000000000000000000000000000000000815260040161021190610538565b60405180910390fd5b8173ffffffffffffffffffffffffffffffffffffffff1663a9059cbb84836040518363ffffffff1660e01b8152600401610255929190610567565b602060405180830381600087803b15801561026f57600080fd5b505af1158015610283573d6000803e3d6000fd5b505050506040513d601f19601f820116820180604052508101906102a791906105c8565b50505050565b60006127106004546003546102c291906105f5565b6102cc919061067e565b905090565b8060048190555050565b6000819050919050565b6102ee816102db565b82525050565b600060208201905061030960008301846102e5565b92915050565b6000819050919050565b6103228161030f565b82525050565b600060208201905061033d6000830184610319565b92915050565b600080fd5b600073ffffffffffffffffffffffffffffffffffffffff82169050919050565b600061037382610348565b9050919050565b61038381610368565b811461038e57600080fd5b50565b6000813590506103a08161037a565b92915050565b6103af816102db565b81146103ba57600080fd5b50565b6000813590506103cc816103a6565b92915050565b6000806000606084860312156103eb576103ea610343565b5b60006103f986828701610391565b935050602061040a86828701610391565b925050604061041b868287016103bd565b9150509250925092565b60006020828403121561043b5761043a610343565b5b6000610449848285016103bd565b91505092915050565b7f4e487b7100000000000000000000000000000000000000000000000000000000600052601160045260246000fd5b600061048c826102db565b9150610497836102db565b9250828210156104aa576104a9610452565b5b828203905092915050565b600082825260208201905092915050565b7f43616d706169676e54726561737572793a2043616c6c6572206973206e6f742060008201527f43616d706169676e496e666f20636f6e74726163740000000000000000000000602082015250565b60006105226035836104b5565b915061052d826104c6565b604082019050919050565b6000602082019050818103600083015261055181610515565b9050919050565b61056181610368565b82525050565b600060408201905061057c6000830185610558565b61058960208301846102e5565b9392505050565b60008115159050919050565b6105a581610590565b81146105b057600080fd5b50565b6000815190506105c28161059c565b92915050565b6000602082840312156105de576105dd610343565b5b60006105ec848285016105b3565b91505092915050565b6000610600826102db565b915061060b836102db565b9250817fffffffffffffffffffffffffffffffffffffffffffffffffffffffffffffffff048311821515161561064457610643610452565b5b828202905092915050565b7f4e487b7100000000000000000000000000000000000000000000000000000000600052601260045260246000fd5b6000610689826102db565b9150610694836102db565b9250826106a4576106a361064f565b5b82820490509291505056fea2646970667358221220d9ac9e43927bae7cc90a0fbddeebe859351f54203e5f4f5bcbeb43a454538c8164736f6c63430008090033a26469706673582212201e2bce2a21335db0489936daf3670678d2db07c094c73bc3384e16ca804921c164736f6c63430008090033","opcodes":"PUSH1 0x80 PUSH1 0x40 MSTORE CALLVALUE DUP1 ISZERO PUSH2 0x10 JUMPI PUSH1 0x0 DUP1 REVERT JUMPDEST POP PUSH2 0x2A5D DUP1 PUSH2 0x20 PUSH1 0x0 CODECOPY PUSH1 0x0 RETURN INVALID PUSH1 0x80 PUSH1 0x40 MSTORE CALLVALUE DUP1 ISZERO PUSH3 0x11 JUMPI PUSH1 0x0 DUP1 REVERT JUMPDEST POP PUSH1 0x4 CALLDATASIZE LT PUSH3 0x94 JUMPI PUSH1 0x0 CALLDATALOAD PUSH1 0xE0 SHR DUP1 PUSH4 0xAB4D9B5F GT PUSH3 0x63 JUMPI DUP1 PUSH4 0xAB4D9B5F EQ PUSH3 0x119 JUMPI DUP1 PUSH4 0xC77E6F65 EQ PUSH3 0x139 JUMPI DUP1 PUSH4 0xD3CAEA4F EQ PUSH3 0x159 JUMPI DUP1 PUSH4 0xFBE121FA EQ PUSH3 0x179 JUMPI PUSH3 0x94 JUMP JUMPDEST DUP1 PUSH4 0x2C6BA152 EQ PUSH3 0x99 JUMPI DUP1 PUSH4 0x33D556D7 EQ PUSH3 0xB9 JUMPI DUP1 PUSH4 0x485CC955 EQ PUSH3 0xD9 JUMPI DUP1 PUSH4 0x7351E1AB EQ PUSH3 0xF9 JUMPI JUMPDEST PUSH1 0x0 DUP1 REVERT JUMPDEST PUSH3 0xB7 PUSH1 0x4 DUP1 CALLDATASIZE SUB DUP2 ADD SWAP1 PUSH3 0xB1 SWAP2 SWAP1 PUSH3 0xDC6 JUMP JUMPDEST PUSH3 0x199 JUMP JUMPDEST STOP JUMPDEST PUSH3 0xD7 PUSH1 0x4 DUP1 CALLDATASIZE SUB DUP2 ADD SWAP1 PUSH3 0xD1 SWAP2 SWAP1 PUSH3 0xEA5 JUMP JUMPDEST PUSH3 0x33A JUMP JUMPDEST STOP JUMPDEST PUSH3 0xF7 PUSH1 0x4 DUP1 CALLDATASIZE SUB DUP2 ADD SWAP1 PUSH3 0xF1 SWAP2 SWAP1 PUSH3 0xF17 JUMP JUMPDEST PUSH3 0x515 JUMP JUMPDEST STOP JUMPDEST PUSH3 0x117 PUSH1 0x4 DUP1 CALLDATASIZE SUB DUP2 ADD SWAP1 PUSH3 0x111 SWAP2 SWAP1 PUSH3 0x1163 JUMP JUMPDEST PUSH3 0x59B JUMP JUMPDEST STOP JUMPDEST PUSH3 0x137 PUSH1 0x4 DUP1 CALLDATASIZE SUB DUP2 ADD SWAP1 PUSH3 0x131 SWAP2 SWAP1 PUSH3 0x1448 JUMP JUMPDEST PUSH3 0x7B9 JUMP JUMPDEST STOP JUMPDEST PUSH3 0x157 PUSH1 0x4 DUP1 CALLDATASIZE SUB DUP2 ADD SWAP1 PUSH3 0x151 SWAP2 SWAP1 PUSH3 0x1606 JUMP JUMPDEST PUSH3 0x8D1 JUMP JUMPDEST STOP JUMPDEST PUSH3 0x177 PUSH1 0x4 DUP1 CALLDATASIZE SUB DUP2 ADD SWAP1 PUSH3 0x171 SWAP2 SWAP1 PUSH3 0x16FF JUMP JUMPDEST PUSH3 0xAA7 JUMP JUMPDEST STOP JUMPDEST PUSH3 0x197 PUSH1 0x4 DUP1 CALLDATASIZE SUB DUP2 ADD SWAP1 PUSH3 0x191 SWAP2 SWAP1 PUSH3 0x17E0 JUMP JUMPDEST PUSH3 0xBBC JUMP JUMPDEST STOP JUMPDEST DUP5 CALLER PUSH20 0xFFFFFFFFFFFFFFFFFFFFFFFFFFFFFFFFFFFFFFFF AND PUSH1 0x0 DUP1 DUP4 PUSH20 0xFFFFFFFFFFFFFFFFFFFFFFFFFFFFFFFFFFFFFFFF AND PUSH20 0xFFFFFFFFFFFFFFFFFFFFFFFFFFFFFFFFFFFFFFFF AND DUP2 MSTORE PUSH1 0x20 ADD SWAP1 DUP2 MSTORE PUSH1 0x20 ADD PUSH1 0x0 KECCAK256 PUSH1 0x0 SWAP1 SLOAD SWAP1 PUSH2 0x100 EXP SWAP1 DIV PUSH20 0xFFFFFFFFFFFFFFFFFFFFFFFFFFFFFFFFFFFFFFFF AND PUSH20 0xFFFFFFFFFFFFFFFFFFFFFFFFFFFFFFFFFFFFFFFF AND EQ PUSH3 0x231 JUMPI PUSH1 0x0 DUP1 REVERT JUMPDEST PUSH1 0x0 DUP6 DUP6 SWAP1 POP SWAP1 POP DUP1 DUP5 DUP5 SWAP1 POP EQ PUSH3 0x249 JUMPI PUSH1 0x0 DUP1 REVERT JUMPDEST PUSH1 0x0 JUMPDEST DUP2 DUP2 LT ISZERO PUSH3 0x330 JUMPI DUP8 PUSH20 0xFFFFFFFFFFFFFFFFFFFFFFFFFFFFFFFFFFFFFFFF AND PUSH4 0x7ED8A719 DUP9 DUP9 DUP5 DUP2 DUP2 LT PUSH3 0x287 JUMPI PUSH3 0x286 PUSH3 0x1868 JUMP JUMPDEST JUMPDEST SWAP1 POP PUSH1 0x20 MUL DUP2 ADD SWAP1 PUSH3 0x29B SWAP2 SWAP1 PUSH3 0x18A6 JUMP JUMPDEST DUP9 DUP9 DUP7 DUP2 DUP2 LT PUSH3 0x2B1 JUMPI PUSH3 0x2B0 PUSH3 0x1868 JUMP JUMPDEST JUMPDEST SWAP1 POP PUSH1 0x20 MUL DUP2 ADD SWAP1 PUSH3 0x2C5 SWAP2 SWAP1 PUSH3 0x18A6 JUMP JUMPDEST PUSH1 0x40 MLOAD DUP6 PUSH4 0xFFFFFFFF AND PUSH1 0xE0 SHL DUP2 MSTORE PUSH1 0x4 ADD PUSH3 0x2E6 SWAP5 SWAP4 SWAP3 SWAP2 SWAP1 PUSH3 0x1956 JUMP JUMPDEST PUSH1 0x0 PUSH1 0x40 MLOAD DUP1 DUP4 SUB DUP2 PUSH1 0x0 DUP8 DUP1 EXTCODESIZE ISZERO DUP1 ISZERO PUSH3 0x301 JUMPI PUSH1 0x0 DUP1 REVERT JUMPDEST POP GAS CALL ISZERO DUP1 ISZERO PUSH3 0x316 JUMPI RETURNDATASIZE PUSH1 0x0 DUP1 RETURNDATACOPY RETURNDATASIZE PUSH1 0x0 REVERT JUMPDEST POP POP POP POP DUP1 DUP1 PUSH3 0x327 SWAP1 PUSH3 0x19C4 JUMP JUMPDEST SWAP2 POP POP PUSH3 0x24C JUMP JUMPDEST POP POP POP POP POP POP POP POP JUMP JUMPDEST DUP4 CALLER PUSH20 0xFFFFFFFFFFFFFFFFFFFFFFFFFFFFFFFFFFFFFFFF AND PUSH1 0x0 DUP1 DUP4 PUSH20 0xFFFFFFFFFFFFFFFFFFFFFFFFFFFFFFFFFFFFFFFF AND PUSH20 0xFFFFFFFFFFFFFFFFFFFFFFFFFFFFFFFFFFFFFFFF AND DUP2 MSTORE PUSH1 0x20 ADD SWAP1 DUP2 MSTORE PUSH1 0x20 ADD PUSH1 0x0 KECCAK256 PUSH1 0x0 SWAP1 SLOAD SWAP1 PUSH2 0x100 EXP SWAP1 DIV PUSH20 0xFFFFFFFFFFFFFFFFFFFFFFFFFFFFFFFFFFFFFFFF AND PUSH20 0xFFFFFFFFFFFFFFFFFFFFFFFFFFFFFFFFFFFFFFFF AND EQ PUSH3 0x3D2 JUMPI PUSH1 0x0 DUP1 REVERT JUMPDEST PUSH1 0x2 PUSH1 0x0 SWAP1 SLOAD SWAP1 PUSH2 0x100 EXP SWAP1 DIV PUSH20 0xFFFFFFFFFFFFFFFFFFFFFFFFFFFFFFFFFFFFFFFF AND DUP6 DUP6 PUSH1 0x40 MLOAD PUSH3 0x405 SWAP1 PUSH3 0xCD1 JUMP JUMPDEST PUSH3 0x413 SWAP4 SWAP3 SWAP2 SWAP1 PUSH3 0x1A34 JUMP JUMPDEST PUSH1 0x40 MLOAD DUP1 SWAP2 SUB SWAP1 PUSH1 0x0 CREATE DUP1 ISZERO DUP1 ISZERO PUSH3 0x430 JUMPI RETURNDATASIZE PUSH1 0x0 DUP1 RETURNDATACOPY RETURNDATASIZE PUSH1 0x0 REVERT JUMPDEST POP PUSH1 0x3 PUSH1 0x0 PUSH2 0x100 EXP DUP2 SLOAD DUP2 PUSH20 0xFFFFFFFFFFFFFFFFFFFFFFFFFFFFFFFFFFFFFFFF MUL NOT AND SWAP1 DUP4 PUSH20 0xFFFFFFFFFFFFFFFFFFFFFFFFFFFFFFFFFFFFFFFF AND MUL OR SWAP1 SSTORE POP PUSH1 0x0 PUSH1 0x3 PUSH1 0x0 SWAP1 SLOAD SWAP1 PUSH2 0x100 EXP SWAP1 DIV PUSH20 0xFFFFFFFFFFFFFFFFFFFFFFFFFFFFFFFFFFFFFFFF AND SWAP1 POP DUP6 PUSH20 0xFFFFFFFFFFFFFFFFFFFFFFFFFFFFFFFFFFFFFFFF AND PUSH4 0xDEAAF241 DUP7 DUP7 DUP5 DUP8 PUSH1 0x40 MLOAD DUP6 PUSH4 0xFFFFFFFF AND PUSH1 0xE0 SHL DUP2 MSTORE PUSH1 0x4 ADD PUSH3 0x4D9 SWAP5 SWAP4 SWAP3 SWAP2 SWAP1 PUSH3 0x1A71 JUMP JUMPDEST PUSH1 0x0 PUSH1 0x40 MLOAD DUP1 DUP4 SUB DUP2 PUSH1 0x0 DUP8 DUP1 EXTCODESIZE ISZERO DUP1 ISZERO PUSH3 0x4F4 JUMPI PUSH1 0x0 DUP1 REVERT JUMPDEST POP GAS CALL ISZERO DUP1 ISZERO PUSH3 0x509 JUMPI RETURNDATASIZE PUSH1 0x0 DUP1 RETURNDATACOPY RETURNDATASIZE PUSH1 0x0 REVERT JUMPDEST POP POP POP POP POP POP POP POP POP POP JUMP JUMPDEST DUP2 PUSH1 0x1 PUSH1 0x0 PUSH2 0x100 EXP DUP2 SLOAD DUP2 PUSH20 0xFFFFFFFFFFFFFFFFFFFFFFFFFFFFFFFFFFFFFFFF MUL NOT AND SWAP1 DUP4 PUSH20 0xFFFFFFFFFFFFFFFFFFFFFFFFFFFFFFFFFFFFFFFF AND MUL OR SWAP1 SSTORE POP DUP1 PUSH1 0x2 PUSH1 0x0 PUSH2 0x100 EXP DUP2 SLOAD DUP2 PUSH20 0xFFFFFFFFFFFFFFFFFFFFFFFFFFFFFFFFFFFFFFFF MUL NOT AND SWAP1 DUP4 PUSH20 0xFFFFFFFFFFFFFFFFFFFFFFFFFFFFFFFFFFFFFFFF AND MUL OR SWAP1 SSTORE POP POP POP JUMP JUMPDEST DUP9 CALLER PUSH20 0xFFFFFFFFFFFFFFFFFFFFFFFFFFFFFFFFFFFFFFFF AND PUSH1 0x0 DUP1 DUP4 PUSH20 0xFFFFFFFFFFFFFFFFFFFFFFFFFFFFFFFFFFFFFFFF AND PUSH20 0xFFFFFFFFFFFFFFFFFFFFFFFFFFFFFFFFFFFFFFFF AND DUP2 MSTORE PUSH1 0x20 ADD SWAP1 DUP2 MSTORE PUSH1 0x20 ADD PUSH1 0x0 KECCAK256 PUSH1 0x0 SWAP1 SLOAD SWAP1 PUSH2 0x100 EXP SWAP1 DIV PUSH20 0xFFFFFFFFFFFFFFFFFFFFFFFFFFFFFFFFFFFFFFFF AND PUSH20 0xFFFFFFFFFFFFFFFFFFFFFFFFFFFFFFFFFFFFFFFF AND EQ PUSH3 0x633 JUMPI PUSH1 0x0 DUP1 REVERT JUMPDEST PUSH1 0x0 DUP10 DUP10 SWAP1 POP SWAP1 POP DUP1 DUP9 DUP9 SWAP1 POP EQ PUSH3 0x64B JUMPI PUSH1 0x0 DUP1 REVERT JUMPDEST PUSH1 0x0 JUMPDEST DUP2 DUP2 LT ISZERO PUSH3 0x732 JUMPI DUP12 PUSH20 0xFFFFFFFFFFFFFFFFFFFFFFFFFFFFFFFFFFFFFFFF AND PUSH4 0x7ED8A719 DUP13 DUP13 DUP5 DUP2 DUP2 LT PUSH3 0x689 JUMPI PUSH3 0x688 PUSH3 0x1868 JUMP JUMPDEST JUMPDEST SWAP1 POP PUSH1 0x20 MUL DUP2 ADD SWAP1 PUSH3 0x69D SWAP2 SWAP1 PUSH3 0x18A6 JUMP JUMPDEST DUP13 DUP13 DUP7 DUP2 DUP2 LT PUSH3 0x6B3 JUMPI PUSH3 0x6B2 PUSH3 0x1868 JUMP JUMPDEST JUMPDEST SWAP1 POP PUSH1 0x20 MUL DUP2 ADD SWAP1 PUSH3 0x6C7 SWAP2 SWAP1 PUSH3 0x18A6 JUMP JUMPDEST PUSH1 0x40 MLOAD DUP6 PUSH4 0xFFFFFFFF AND PUSH1 0xE0 SHL DUP2 MSTORE PUSH1 0x4 ADD PUSH3 0x6E8 SWAP5 SWAP4 SWAP3 SWAP2 SWAP1 PUSH3 0x1956 JUMP JUMPDEST PUSH1 0x0 PUSH1 0x40 MLOAD DUP1 DUP4 SUB DUP2 PUSH1 0x0 DUP8 DUP1 EXTCODESIZE ISZERO DUP1 ISZERO PUSH3 0x703 JUMPI PUSH1 0x0 DUP1 REVERT JUMPDEST POP GAS CALL ISZERO DUP1 ISZERO PUSH3 0x718 JUMPI RETURNDATASIZE PUSH1 0x0 DUP1 RETURNDATACOPY RETURNDATASIZE PUSH1 0x0 REVERT JUMPDEST POP POP POP POP DUP1 DUP1 PUSH3 0x729 SWAP1 PUSH3 0x19C4 JUMP JUMPDEST SWAP2 POP POP PUSH3 0x64E JUMP JUMPDEST POP DUP11 PUSH20 0xFFFFFFFFFFFFFFFFFFFFFFFFFFFFFFFFFFFFFFFF AND PUSH4 0x19188BD8 DUP8 DUP8 DUP8 DUP15 DUP15 DUP10 PUSH1 0x40 MLOAD DUP8 PUSH4 0xFFFFFFFF AND PUSH1 0xE0 SHL DUP2 MSTORE PUSH1 0x4 ADD PUSH3 0x778 SWAP7 SWAP6 SWAP5 SWAP4 SWAP3 SWAP2 SWAP1 PUSH3 0x1D1E JUMP JUMPDEST PUSH1 0x0 PUSH1 0x40 MLOAD DUP1 DUP4 SUB DUP2 PUSH1 0x0 DUP8 DUP1 EXTCODESIZE ISZERO DUP1 ISZERO PUSH3 0x793 JUMPI PUSH1 0x0 DUP1 REVERT JUMPDEST POP GAS CALL ISZERO DUP1 ISZERO PUSH3 0x7A8 JUMPI RETURNDATASIZE PUSH1 0x0 DUP1 RETURNDATACOPY RETURNDATASIZE PUSH1 0x0 REVERT JUMPDEST POP POP POP POP POP POP POP POP POP POP POP POP POP POP POP JUMP JUMPDEST DUP6 CALLER PUSH20 0xFFFFFFFFFFFFFFFFFFFFFFFFFFFFFFFFFFFFFFFF AND PUSH1 0x0 DUP1 DUP4 PUSH20 0xFFFFFFFFFFFFFFFFFFFFFFFFFFFFFFFFFFFFFFFF AND PUSH20 0xFFFFFFFFFFFFFFFFFFFFFFFFFFFFFFFFFFFFFFFF AND DUP2 MSTORE PUSH1 0x20 ADD SWAP1 DUP2 MSTORE PUSH1 0x20 ADD PUSH1 0x0 KECCAK256 PUSH1 0x0 SWAP1 SLOAD SWAP1 PUSH2 0x100 EXP SWAP1 DIV PUSH20 0xFFFFFFFFFFFFFFFFFFFFFFFFFFFFFFFFFFFFFFFF AND PUSH20 0xFFFFFFFFFFFFFFFFFFFFFFFFFFFFFFFFFFFFFFFF AND EQ PUSH3 0x851 JUMPI PUSH1 0x0 DUP1 REVERT JUMPDEST DUP7 PUSH20 0xFFFFFFFFFFFFFFFFFFFFFFFFFFFFFFFFFFFFFFFF AND PUSH4 0x19188BD8 DUP8 DUP8 DUP8 DUP8 DUP8 PUSH1 0x40 MLOAD DUP7 PUSH4 0xFFFFFFFF AND PUSH1 0xE0 SHL DUP2 MSTORE PUSH1 0x4 ADD PUSH3 0x894 SWAP6 SWAP5 SWAP4 SWAP3 SWAP2 SWAP1 PUSH3 0x1EC5 JUMP JUMPDEST PUSH1 0x0 PUSH1 0x40 MLOAD DUP1 DUP4 SUB DUP2 PUSH1 0x0 DUP8 DUP1 EXTCODESIZE ISZERO DUP1 ISZERO PUSH3 0x8AF JUMPI PUSH1 0x0 DUP1 REVERT JUMPDEST POP GAS CALL ISZERO DUP1 ISZERO PUSH3 0x8C4 JUMPI RETURNDATASIZE PUSH1 0x0 DUP1 RETURNDATACOPY RETURNDATASIZE PUSH1 0x0 REVERT JUMPDEST POP POP POP POP POP POP POP POP POP POP POP JUMP JUMPDEST PUSH1 0x1 PUSH1 0x0 SWAP1 SLOAD SWAP1 PUSH2 0x100 EXP SWAP1 DIV PUSH20 0xFFFFFFFFFFFFFFFFFFFFFFFFFFFFFFFFFFFFFFFF AND PUSH20 0xFFFFFFFFFFFFFFFFFFFFFFFFFFFFFFFFFFFFFFFF AND PUSH4 0xC77E6F65 ADDRESS DUP8 DUP8 DUP8 DUP8 DUP8 PUSH1 0x40 MLOAD DUP8 PUSH4 0xFFFFFFFF AND PUSH1 0xE0 SHL DUP2 MSTORE PUSH1 0x4 ADD PUSH3 0x938 SWAP7 SWAP6 SWAP5 SWAP4 SWAP3 SWAP2 SWAP1 PUSH3 0x2038 JUMP JUMPDEST PUSH1 0x0 PUSH1 0x40 MLOAD DUP1 DUP4 SUB DUP2 PUSH1 0x0 DUP8 DUP1 EXTCODESIZE ISZERO DUP1 ISZERO PUSH3 0x953 JUMPI PUSH1 0x0 DUP1 REVERT JUMPDEST POP GAS CALL ISZERO DUP1 ISZERO PUSH3 0x968 JUMPI RETURNDATASIZE PUSH1 0x0 DUP1 RETURNDATACOPY RETURNDATASIZE PUSH1 0x0 REVERT JUMPDEST POP POP POP POP PUSH1 0x0 PUSH1 0x2 PUSH1 0x0 SWAP1 SLOAD SWAP1 PUSH2 0x100 EXP SWAP1 DIV PUSH20 0xFFFFFFFFFFFFFFFFFFFFFFFFFFFFFFFFFFFFFFFF AND PUSH20 0xFFFFFFFFFFFFFFFFFFFFFFFFFFFFFFFFFFFFFFFF AND PUSH4 0x939F3130 DUP8 PUSH1 0x40 MLOAD DUP3 PUSH4 0xFFFFFFFF AND PUSH1 0xE0 SHL DUP2 MSTORE PUSH1 0x4 ADD PUSH3 0x9CB SWAP2 SWAP1 PUSH3 0x20BA JUMP JUMPDEST PUSH1 0x20 PUSH1 0x40 MLOAD DUP1 DUP4 SUB DUP2 DUP7 DUP1 EXTCODESIZE ISZERO DUP1 ISZERO PUSH3 0x9E4 JUMPI PUSH1 0x0 DUP1 REVERT JUMPDEST POP GAS STATICCALL ISZERO DUP1 ISZERO PUSH3 0x9F9 JUMPI RETURNDATASIZE PUSH1 0x0 DUP1 RETURNDATACOPY RETURNDATASIZE PUSH1 0x0 REVERT JUMPDEST POP POP POP POP PUSH1 0x40 MLOAD RETURNDATASIZE PUSH1 0x1F NOT PUSH1 0x1F DUP3 ADD AND DUP3 ADD DUP1 PUSH1 0x40 MSTORE POP DUP2 ADD SWAP1 PUSH3 0xA1F SWAP2 SWAP1 PUSH3 0x20F5 JUMP JUMPDEST SWAP1 POP DUP7 PUSH1 0x0 DUP1 DUP4 PUSH20 0xFFFFFFFFFFFFFFFFFFFFFFFFFFFFFFFFFFFFFFFF AND PUSH20 0xFFFFFFFFFFFFFFFFFFFFFFFFFFFFFFFFFFFFFFFF AND DUP2 MSTORE PUSH1 0x20 ADD SWAP1 DUP2 MSTORE PUSH1 0x20 ADD PUSH1 0x0 KECCAK256 PUSH1 0x0 PUSH2 0x100 EXP DUP2 SLOAD DUP2 PUSH20 0xFFFFFFFFFFFFFFFFFFFFFFFFFFFFFFFFFFFFFFFF MUL NOT AND SWAP1 DUP4 PUSH20 0xFFFFFFFFFFFFFFFFFFFFFFFFFFFFFFFFFFFFFFFF AND MUL OR SWAP1 SSTORE POP POP POP POP POP POP POP POP JUMP JUMPDEST DUP5 CALLER PUSH20 0xFFFFFFFFFFFFFFFFFFFFFFFFFFFFFFFFFFFFFFFF AND PUSH1 0x0 DUP1 DUP4 PUSH20 0xFFFFFFFFFFFFFFFFFFFFFFFFFFFFFFFFFFFFFFFF AND PUSH20 0xFFFFFFFFFFFFFFFFFFFFFFFFFFFFFFFFFFFFFFFF AND DUP2 MSTORE PUSH1 0x20 ADD SWAP1 DUP2 MSTORE PUSH1 0x20 ADD PUSH1 0x0 KECCAK256 PUSH1 0x0 SWAP1 SLOAD SWAP1 PUSH2 0x100 EXP SWAP1 DIV PUSH20 0xFFFFFFFFFFFFFFFFFFFFFFFFFFFFFFFFFFFFFFFF AND PUSH20 0xFFFFFFFFFFFFFFFFFFFFFFFFFFFFFFFFFFFFFFFF AND EQ PUSH3 0xB3F JUMPI PUSH1 0x0 DUP1 REVERT JUMPDEST DUP6 PUSH20 0xFFFFFFFFFFFFFFFFFFFFFFFFFFFFFFFFFFFFFFFF AND PUSH4 0x7ED8A719 DUP7 DUP7 DUP7 DUP7 PUSH1 0x40 MLOAD DUP6 PUSH4 0xFFFFFFFF AND PUSH1 0xE0 SHL DUP2 MSTORE PUSH1 0x4 ADD PUSH3 0xB80 SWAP5 SWAP4 SWAP3 SWAP2 SWAP1 PUSH3 0x1956 JUMP JUMPDEST PUSH1 0x0 PUSH1 0x40 MLOAD DUP1 DUP4 SUB DUP2 PUSH1 0x0 DUP8 DUP1 EXTCODESIZE ISZERO DUP1 ISZERO PUSH3 0xB9B JUMPI PUSH1 0x0 DUP1 REVERT JUMPDEST POP GAS CALL ISZERO DUP1 ISZERO PUSH3 0xBB0 JUMPI RETURNDATASIZE PUSH1 0x0 DUP1 RETURNDATACOPY RETURNDATASIZE PUSH1 0x0 REVERT JUMPDEST POP POP POP POP POP POP POP POP POP POP JUMP JUMPDEST DUP5 CALLER PUSH20 0xFFFFFFFFFFFFFFFFFFFFFFFFFFFFFFFFFFFFFFFF AND PUSH1 0x0 DUP1 DUP4 PUSH20 0xFFFFFFFFFFFFFFFFFFFFFFFFFFFFFFFFFFFFFFFF AND PUSH20 0xFFFFFFFFFFFFFFFFFFFFFFFFFFFFFFFFFFFFFFFF AND DUP2 MSTORE PUSH1 0x20 ADD SWAP1 DUP2 MSTORE PUSH1 0x20 ADD PUSH1 0x0 KECCAK256 PUSH1 0x0 SWAP1 SLOAD SWAP1 PUSH2 0x100 EXP SWAP1 DIV PUSH20 0xFFFFFFFFFFFFFFFFFFFFFFFFFFFFFFFFFFFFFFFF AND PUSH20 0xFFFFFFFFFFFFFFFFFFFFFFFFFFFFFFFFFFFFFFFF AND EQ PUSH3 0xC54 JUMPI PUSH1 0x0 DUP1 REVERT JUMPDEST DUP6 PUSH20 0xFFFFFFFFFFFFFFFFFFFFFFFFFFFFFFFFFFFFFFFF AND PUSH4 0x695C27C2 DUP7 DUP7 DUP7 DUP7 PUSH1 0x40 MLOAD DUP6 PUSH4 0xFFFFFFFF AND PUSH1 0xE0 SHL DUP2 MSTORE PUSH1 0x4 ADD PUSH3 0xC95 SWAP5 SWAP4 SWAP3 SWAP2 SWAP1 PUSH3 0x2138 JUMP JUMPDEST PUSH1 0x0 PUSH1 0x40 MLOAD DUP1 DUP4 SUB DUP2 PUSH1 0x0 DUP8 DUP1 EXTCODESIZE ISZERO DUP1 ISZERO PUSH3 0xCB0 JUMPI PUSH1 0x0 DUP1 REVERT JUMPDEST POP GAS CALL ISZERO DUP1 ISZERO PUSH3 0xCC5 JUMPI RETURNDATASIZE PUSH1 0x0 DUP1 RETURNDATACOPY RETURNDATASIZE PUSH1 0x0 REVERT JUMPDEST POP POP POP POP POP POP POP POP POP POP JUMP JUMPDEST PUSH2 0x8A2 DUP1 PUSH3 0x2186 DUP4 CODECOPY ADD SWAP1 JUMP JUMPDEST PUSH1 0x0 PUSH1 0x40 MLOAD SWAP1 POP SWAP1 JUMP JUMPDEST PUSH1 0x0 DUP1 REVERT JUMPDEST PUSH1 0x0 DUP1 REVERT JUMPDEST PUSH1 0x0 PUSH20 0xFFFFFFFFFFFFFFFFFFFFFFFFFFFFFFFFFFFFFFFF DUP3 AND SWAP1 POP SWAP2 SWAP1 POP JUMP JUMPDEST PUSH1 0x0 PUSH3 0xD20 DUP3 PUSH3 0xCF3 JUMP JUMPDEST SWAP1 POP SWAP2 SWAP1 POP JUMP JUMPDEST PUSH3 0xD32 DUP2 PUSH3 0xD13 JUMP JUMPDEST DUP2 EQ PUSH3 0xD3E JUMPI PUSH1 0x0 DUP1 REVERT JUMPDEST POP JUMP JUMPDEST PUSH1 0x0 DUP2 CALLDATALOAD SWAP1 POP PUSH3 0xD52 DUP2 PUSH3 0xD27 JUMP JUMPDEST SWAP3 SWAP2 POP POP JUMP JUMPDEST PUSH1 0x0 DUP1 REVERT JUMPDEST PUSH1 0x0 DUP1 REVERT JUMPDEST PUSH1 0x0 DUP1 REVERT JUMPDEST PUSH1 0x0 DUP1 DUP4 PUSH1 0x1F DUP5 ADD SLT PUSH3 0xD80 JUMPI PUSH3 0xD7F PUSH3 0xD58 JUMP JUMPDEST JUMPDEST DUP3 CALLDATALOAD SWAP1 POP PUSH8 0xFFFFFFFFFFFFFFFF DUP2 GT ISZERO PUSH3 0xDA0 JUMPI PUSH3 0xD9F PUSH3 0xD5D JUMP JUMPDEST JUMPDEST PUSH1 0x20 DUP4 ADD SWAP2 POP DUP4 PUSH1 0x20 DUP3 MUL DUP4 ADD GT ISZERO PUSH3 0xDBF JUMPI PUSH3 0xDBE PUSH3 0xD62 JUMP JUMPDEST JUMPDEST SWAP3 POP SWAP3 SWAP1 POP JUMP JUMPDEST PUSH1 0x0 DUP1 PUSH1 0x0 DUP1 PUSH1 0x0 PUSH1 0x60 DUP7 DUP9 SUB SLT ISZERO PUSH3 0xDE5 JUMPI PUSH3 0xDE4 PUSH3 0xCE9 JUMP JUMPDEST JUMPDEST PUSH1 0x0 PUSH3 0xDF5 DUP9 DUP3 DUP10 ADD PUSH3 0xD41 JUMP JUMPDEST SWAP6 POP POP PUSH1 0x20 DUP7 ADD CALLDATALOAD PUSH8 0xFFFFFFFFFFFFFFFF DUP2 GT ISZERO PUSH3 0xE19 JUMPI PUSH3 0xE18 PUSH3 0xCEE JUMP JUMPDEST JUMPDEST PUSH3 0xE27 DUP9 DUP3 DUP10 ADD PUSH3 0xD67 JUMP JUMPDEST SWAP5 POP SWAP5 POP POP PUSH1 0x40 DUP7 ADD CALLDATALOAD PUSH8 0xFFFFFFFFFFFFFFFF DUP2 GT ISZERO PUSH3 0xE4D JUMPI PUSH3 0xE4C PUSH3 0xCEE JUMP JUMPDEST JUMPDEST PUSH3 0xE5B DUP9 DUP3 DUP10 ADD PUSH3 0xD67 JUMP JUMPDEST SWAP3 POP SWAP3 POP POP SWAP3 SWAP6 POP SWAP3 SWAP6 SWAP1 SWAP4 POP JUMP JUMPDEST PUSH1 0x0 DUP2 SWAP1 POP SWAP2 SWAP1 POP JUMP JUMPDEST PUSH3 0xE7F DUP2 PUSH3 0xE6A JUMP JUMPDEST DUP2 EQ PUSH3 0xE8B JUMPI PUSH1 0x0 DUP1 REVERT JUMPDEST POP JUMP JUMPDEST PUSH1 0x0 DUP2 CALLDATALOAD SWAP1 POP PUSH3 0xE9F DUP2 PUSH3 0xE74 JUMP JUMPDEST SWAP3 SWAP2 POP POP JUMP JUMPDEST PUSH1 0x0 DUP1 PUSH1 0x0 DUP1 PUSH1 0x80 DUP6 DUP8 SUB SLT ISZERO PUSH3 0xEC2 JUMPI PUSH3 0xEC1 PUSH3 0xCE9 JUMP JUMPDEST JUMPDEST PUSH1 0x0 PUSH3 0xED2 DUP8 DUP3 DUP9 ADD PUSH3 0xD41 JUMP JUMPDEST SWAP5 POP POP PUSH1 0x20 PUSH3 0xEE5 DUP8 DUP3 DUP9 ADD PUSH3 0xE8E JUMP JUMPDEST SWAP4 POP POP PUSH1 0x40 PUSH3 0xEF8 DUP8 DUP3 DUP9 ADD PUSH3 0xD41 JUMP JUMPDEST SWAP3 POP POP PUSH1 0x60 PUSH3 0xF0B DUP8 DUP3 DUP9 ADD PUSH3 0xD41 JUMP JUMPDEST SWAP2 POP POP SWAP3 SWAP6 SWAP2 SWAP5 POP SWAP3 POP JUMP JUMPDEST PUSH1 0x0 DUP1 PUSH1 0x40 DUP4 DUP6 SUB SLT ISZERO PUSH3 0xF31 JUMPI PUSH3 0xF30 PUSH3 0xCE9 JUMP JUMPDEST JUMPDEST PUSH1 0x0 PUSH3 0xF41 DUP6 DUP3 DUP7 ADD PUSH3 0xD41 JUMP JUMPDEST SWAP3 POP POP PUSH1 0x20 PUSH3 0xF54 DUP6 DUP3 DUP7 ADD PUSH3 0xD41 JUMP JUMPDEST SWAP2 POP POP SWAP3 POP SWAP3 SWAP1 POP JUMP JUMPDEST PUSH1 0x0 DUP1 DUP4 PUSH1 0x1F DUP5 ADD SLT PUSH3 0xF77 JUMPI PUSH3 0xF76 PUSH3 0xD58 JUMP JUMPDEST JUMPDEST DUP3 CALLDATALOAD SWAP1 POP PUSH8 0xFFFFFFFFFFFFFFFF DUP2 GT ISZERO PUSH3 0xF97 JUMPI PUSH3 0xF96 PUSH3 0xD5D JUMP JUMPDEST JUMPDEST PUSH1 0x20 DUP4 ADD SWAP2 POP DUP4 PUSH1 0x1 DUP3 MUL DUP4 ADD GT ISZERO PUSH3 0xFB6 JUMPI PUSH3 0xFB5 PUSH3 0xD62 JUMP JUMPDEST JUMPDEST SWAP3 POP SWAP3 SWAP1 POP JUMP JUMPDEST PUSH1 0x0 DUP2 SWAP1 POP SWAP2 SWAP1 POP JUMP JUMPDEST PUSH3 0xFD2 DUP2 PUSH3 0xFBD JUMP JUMPDEST DUP2 EQ PUSH3 0xFDE JUMPI PUSH1 0x0 DUP1 REVERT JUMPDEST POP JUMP JUMPDEST PUSH1 0x0 DUP2 CALLDATALOAD SWAP1 POP PUSH3 0xFF2 DUP2 PUSH3 0xFC7 JUMP JUMPDEST SWAP3 SWAP2 POP POP JUMP JUMPDEST PUSH1 0x0 PUSH1 0x1F NOT PUSH1 0x1F DUP4 ADD AND SWAP1 POP SWAP2 SWAP1 POP JUMP JUMPDEST PUSH32 0x4E487B7100000000000000000000000000000000000000000000000000000000 PUSH1 0x0 MSTORE PUSH1 0x41 PUSH1 0x4 MSTORE PUSH1 0x24 PUSH1 0x0 REVERT JUMPDEST PUSH3 0x1043 DUP3 PUSH3 0xFF8 JUMP JUMPDEST DUP2 ADD DUP2 DUP2 LT PUSH8 0xFFFFFFFFFFFFFFFF DUP3 GT OR ISZERO PUSH3 0x1065 JUMPI PUSH3 0x1064 PUSH3 0x1009 JUMP JUMPDEST JUMPDEST DUP1 PUSH1 0x40 MSTORE POP POP POP JUMP JUMPDEST PUSH1 0x0 PUSH3 0x107A PUSH3 0xCDF JUMP JUMPDEST SWAP1 POP PUSH3 0x1088 DUP3 DUP3 PUSH3 0x1038 JUMP JUMPDEST SWAP2 SWAP1 POP JUMP JUMPDEST PUSH1 0x0 PUSH8 0xFFFFFFFFFFFFFFFF DUP3 GT ISZERO PUSH3 0x10AB JUMPI PUSH3 0x10AA PUSH3 0x1009 JUMP JUMPDEST JUMPDEST PUSH1 0x20 DUP3 MUL SWAP1 POP PUSH1 0x20 DUP2 ADD SWAP1 POP SWAP2 SWAP1 POP JUMP JUMPDEST PUSH1 0x0 PUSH3 0x10D3 PUSH3 0x10CD DUP5 PUSH3 0x108D JUMP JUMPDEST PUSH3 0x106E JUMP JUMPDEST SWAP1 POP DUP1 DUP4 DUP3 MSTORE PUSH1 0x20 DUP3 ADD SWAP1 POP PUSH1 0x20 DUP5 MUL DUP4 ADD DUP6 DUP2 GT ISZERO PUSH3 0x10F9 JUMPI PUSH3 0x10F8 PUSH3 0xD62 JUMP JUMPDEST JUMPDEST DUP4 JUMPDEST DUP2 DUP2 LT ISZERO PUSH3 0x1126 JUMPI DUP1 PUSH3 0x1111 DUP9 DUP3 PUSH3 0xFE1 JUMP JUMPDEST DUP5 MSTORE PUSH1 0x20 DUP5 ADD SWAP4 POP POP PUSH1 0x20 DUP2 ADD SWAP1 POP PUSH3 0x10FB JUMP JUMPDEST POP POP POP SWAP4 SWAP3 POP POP POP JUMP JUMPDEST PUSH1 0x0 DUP3 PUSH1 0x1F DUP4 ADD SLT PUSH3 0x1148 JUMPI PUSH3 0x1147 PUSH3 0xD58 JUMP JUMPDEST JUMPDEST DUP2 CALLDATALOAD PUSH3 0x115A DUP5 DUP3 PUSH1 0x20 DUP7 ADD PUSH3 0x10BC JUMP JUMPDEST SWAP2 POP POP SWAP3 SWAP2 POP POP JUMP JUMPDEST PUSH1 0x0 DUP1 PUSH1 0x0 DUP1 PUSH1 0x0 DUP1 PUSH1 0x0 DUP1 PUSH1 0x0 PUSH1 0xC0 DUP11 DUP13 SUB SLT ISZERO PUSH3 0x1188 JUMPI PUSH3 0x1187 PUSH3 0xCE9 JUMP JUMPDEST JUMPDEST PUSH1 0x0 PUSH3 0x1198 DUP13 DUP3 DUP14 ADD PUSH3 0xD41 JUMP JUMPDEST SWAP10 POP POP PUSH1 0x20 DUP11 ADD CALLDATALOAD PUSH8 0xFFFFFFFFFFFFFFFF DUP2 GT ISZERO PUSH3 0x11BC JUMPI PUSH3 0x11BB PUSH3 0xCEE JUMP JUMPDEST JUMPDEST PUSH3 0x11CA DUP13 DUP3 DUP14 ADD PUSH3 0xD67 JUMP JUMPDEST SWAP9 POP SWAP9 POP POP PUSH1 0x40 DUP11 ADD CALLDATALOAD PUSH8 0xFFFFFFFFFFFFFFFF DUP2 GT ISZERO PUSH3 0x11F0 JUMPI PUSH3 0x11EF PUSH3 0xCEE JUMP JUMPDEST JUMPDEST PUSH3 0x11FE DUP13 DUP3 DUP14 ADD PUSH3 0xD67 JUMP JUMPDEST SWAP7 POP SWAP7 POP POP PUSH1 0x60 DUP11 ADD CALLDATALOAD PUSH8 0xFFFFFFFFFFFFFFFF DUP2 GT ISZERO PUSH3 0x1224 JUMPI PUSH3 0x1223 PUSH3 0xCEE JUMP JUMPDEST JUMPDEST PUSH3 0x1232 DUP13 DUP3 DUP14 ADD PUSH3 0xF5E JUMP JUMPDEST SWAP5 POP SWAP5 POP POP PUSH1 0x80 PUSH3 0x1247 DUP13 DUP3 DUP14 ADD PUSH3 0xFE1 JUMP JUMPDEST SWAP3 POP POP PUSH1 0xA0 DUP11 ADD CALLDATALOAD PUSH8 0xFFFFFFFFFFFFFFFF DUP2 GT ISZERO PUSH3 0x126B JUMPI PUSH3 0x126A PUSH3 0xCEE JUMP JUMPDEST JUMPDEST PUSH3 0x1279 DUP13 DUP3 DUP14 ADD PUSH3 0x1130 JUMP JUMPDEST SWAP2 POP POP SWAP3 SWAP6 SWAP9 POP SWAP3 SWAP6 SWAP9 POP SWAP3 SWAP6 SWAP9 JUMP JUMPDEST PUSH1 0x0 PUSH8 0xFFFFFFFFFFFFFFFF DUP3 GT ISZERO PUSH3 0x12A7 JUMPI PUSH3 0x12A6 PUSH3 0x1009 JUMP JUMPDEST JUMPDEST PUSH1 0x20 DUP3 MUL SWAP1 POP PUSH1 0x20 DUP2 ADD SWAP1 POP SWAP2 SWAP1 POP JUMP JUMPDEST PUSH1 0x0 DUP1 REVERT JUMPDEST PUSH1 0x0 PUSH8 0xFFFFFFFFFFFFFFFF DUP3 GT ISZERO PUSH3 0x12DB JUMPI PUSH3 0x12DA PUSH3 0x1009 JUMP JUMPDEST JUMPDEST PUSH3 0x12E6 DUP3 PUSH3 0xFF8 JUMP JUMPDEST SWAP1 POP PUSH1 0x20 DUP2 ADD SWAP1 POP SWAP2 SWAP1 POP JUMP JUMPDEST DUP3 DUP2 DUP4 CALLDATACOPY PUSH1 0x0 DUP4 DUP4 ADD MSTORE POP POP POP JUMP JUMPDEST PUSH1 0x0 PUSH3 0x1319 PUSH3 0x1313 DUP5 PUSH3 0x12BD JUMP JUMPDEST PUSH3 0x106E JUMP JUMPDEST SWAP1 POP DUP3 DUP2 MSTORE PUSH1 0x20 DUP2 ADD DUP5 DUP5 DUP5 ADD GT ISZERO PUSH3 0x1338 JUMPI PUSH3 0x1337 PUSH3 0x12B8 JUMP JUMPDEST JUMPDEST PUSH3 0x1345 DUP5 DUP3 DUP6 PUSH3 0x12F3 JUMP JUMPDEST POP SWAP4 SWAP3 POP POP POP JUMP JUMPDEST PUSH1 0x0 DUP3 PUSH1 0x1F DUP4 ADD SLT PUSH3 0x1365 JUMPI PUSH3 0x1364 PUSH3 0xD58 JUMP JUMPDEST JUMPDEST DUP2 CALLDATALOAD PUSH3 0x1377 DUP5 DUP3 PUSH1 0x20 DUP7 ADD PUSH3 0x1302 JUMP JUMPDEST SWAP2 POP POP SWAP3 SWAP2 POP POP JUMP JUMPDEST PUSH1 0x0 PUSH3 0x1397 PUSH3 0x1391 DUP5 PUSH3 0x1289 JUMP JUMPDEST PUSH3 0x106E JUMP JUMPDEST SWAP1 POP DUP1 DUP4 DUP3 MSTORE PUSH1 0x20 DUP3 ADD SWAP1 POP PUSH1 0x20 DUP5 MUL DUP4 ADD DUP6 DUP2 GT ISZERO PUSH3 0x13BD JUMPI PUSH3 0x13BC PUSH3 0xD62 JUMP JUMPDEST JUMPDEST DUP4 JUMPDEST DUP2 DUP2 LT ISZERO PUSH3 0x140B JUMPI DUP1 CALLDATALOAD PUSH8 0xFFFFFFFFFFFFFFFF DUP2 GT ISZERO PUSH3 0x13E6 JUMPI PUSH3 0x13E5 PUSH3 0xD58 JUMP JUMPDEST JUMPDEST DUP1 DUP7 ADD PUSH3 0x13F5 DUP10 DUP3 PUSH3 0x134D JUMP JUMPDEST DUP6 MSTORE PUSH1 0x20 DUP6 ADD SWAP5 POP POP POP PUSH1 0x20 DUP2 ADD SWAP1 POP PUSH3 0x13BF JUMP JUMPDEST POP POP POP SWAP4 SWAP3 POP POP POP JUMP JUMPDEST PUSH1 0x0 DUP3 PUSH1 0x1F DUP4 ADD SLT PUSH3 0x142D JUMPI PUSH3 0x142C PUSH3 0xD58 JUMP JUMPDEST JUMPDEST DUP2 CALLDATALOAD PUSH3 0x143F DUP5 DUP3 PUSH1 0x20 DUP7 ADD PUSH3 0x1380 JUMP JUMPDEST SWAP2 POP POP SWAP3 SWAP2 POP POP JUMP JUMPDEST PUSH1 0x0 DUP1 PUSH1 0x0 DUP1 PUSH1 0x0 DUP1 PUSH1 0xA0 DUP8 DUP10 SUB SLT ISZERO PUSH3 0x1468 JUMPI PUSH3 0x1467 PUSH3 0xCE9 JUMP JUMPDEST JUMPDEST PUSH1 0x0 PUSH3 0x1478 DUP10 DUP3 DUP11 ADD PUSH3 0xD41 JUMP JUMPDEST SWAP7 POP POP PUSH1 0x20 DUP8 ADD CALLDATALOAD PUSH8 0xFFFFFFFFFFFFFFFF DUP2 GT ISZERO PUSH3 0x149C JUMPI PUSH3 0x149B PUSH3 0xCEE JUMP JUMPDEST JUMPDEST PUSH3 0x14AA DUP10 DUP3 DUP11 ADD PUSH3 0xF5E JUMP JUMPDEST SWAP6 POP SWAP6 POP POP PUSH1 0x40 PUSH3 0x14BF DUP10 DUP3 DUP11 ADD PUSH3 0xFE1 JUMP JUMPDEST SWAP4 POP POP PUSH1 0x60 DUP8 ADD CALLDATALOAD PUSH8 0xFFFFFFFFFFFFFFFF DUP2 GT ISZERO PUSH3 0x14E3 JUMPI PUSH3 0x14E2 PUSH3 0xCEE JUMP JUMPDEST JUMPDEST PUSH3 0x14F1 DUP10 DUP3 DUP11 ADD PUSH3 0x1415 JUMP JUMPDEST SWAP3 POP POP PUSH1 0x80 DUP8 ADD CALLDATALOAD PUSH8 0xFFFFFFFFFFFFFFFF DUP2 GT ISZERO PUSH3 0x1515 JUMPI PUSH3 0x1514 PUSH3 0xCEE JUMP JUMPDEST JUMPDEST PUSH3 0x1523 DUP10 DUP3 DUP11 ADD PUSH3 0x1130 JUMP JUMPDEST SWAP2 POP POP SWAP3 SWAP6 POP SWAP3 SWAP6 POP SWAP3 SWAP6 JUMP JUMPDEST PUSH1 0x0 PUSH8 0xFFFFFFFFFFFFFFFF DUP3 GT ISZERO PUSH3 0x154E JUMPI PUSH3 0x154D PUSH3 0x1009 JUMP JUMPDEST JUMPDEST PUSH1 0x20 DUP3 MUL SWAP1 POP PUSH1 0x20 DUP2 ADD SWAP1 POP SWAP2 SWAP1 POP JUMP JUMPDEST PUSH1 0x0 PUSH3 0x1576 PUSH3 0x1570 DUP5 PUSH3 0x1530 JUMP JUMPDEST PUSH3 0x106E JUMP JUMPDEST SWAP1 POP DUP1 DUP4 DUP3 MSTORE PUSH1 0x20 DUP3 ADD SWAP1 POP PUSH1 0x20 DUP5 MUL DUP4 ADD DUP6 DUP2 GT ISZERO PUSH3 0x159C JUMPI PUSH3 0x159B PUSH3 0xD62 JUMP JUMPDEST JUMPDEST DUP4 JUMPDEST DUP2 DUP2 LT ISZERO PUSH3 0x15C9 JUMPI DUP1 PUSH3 0x15B4 DUP9 DUP3 PUSH3 0xE8E JUMP JUMPDEST DUP5 MSTORE PUSH1 0x20 DUP5 ADD SWAP4 POP POP PUSH1 0x20 DUP2 ADD SWAP1 POP PUSH3 0x159E JUMP JUMPDEST POP POP POP SWAP4 SWAP3 POP POP POP JUMP JUMPDEST PUSH1 0x0 DUP3 PUSH1 0x1F DUP4 ADD SLT PUSH3 0x15EB JUMPI PUSH3 0x15EA PUSH3 0xD58 JUMP JUMPDEST JUMPDEST DUP2 CALLDATALOAD PUSH3 0x15FD DUP5 DUP3 PUSH1 0x20 DUP7 ADD PUSH3 0x155F JUMP JUMPDEST SWAP2 POP POP SWAP3 SWAP2 POP POP JUMP JUMPDEST PUSH1 0x0 DUP1 PUSH1 0x0 DUP1 PUSH1 0x0 DUP1 PUSH1 0xC0 DUP8 DUP10 SUB SLT ISZERO PUSH3 0x1626 JUMPI PUSH3 0x1625 PUSH3 0xCE9 JUMP JUMPDEST JUMPDEST PUSH1 0x0 PUSH3 0x1636 DUP10 DUP3 DUP11 ADD PUSH3 0xD41 JUMP JUMPDEST SWAP7 POP POP PUSH1 0x20 DUP8 ADD CALLDATALOAD PUSH8 0xFFFFFFFFFFFFFFFF DUP2 GT ISZERO PUSH3 0x165A JUMPI PUSH3 0x1659 PUSH3 0xCEE JUMP JUMPDEST JUMPDEST PUSH3 0x1668 DUP10 DUP3 DUP11 ADD PUSH3 0x134D JUMP JUMPDEST SWAP6 POP POP PUSH1 0x40 PUSH3 0x167B DUP10 DUP3 DUP11 ADD PUSH3 0xE8E JUMP JUMPDEST SWAP5 POP POP PUSH1 0x60 DUP8 ADD CALLDATALOAD PUSH8 0xFFFFFFFFFFFFFFFF DUP2 GT ISZERO PUSH3 0x169F JUMPI PUSH3 0x169E PUSH3 0xCEE JUMP JUMPDEST JUMPDEST PUSH3 0x16AD DUP10 DUP3 DUP11 ADD PUSH3 0x134D JUMP JUMPDEST SWAP4 POP POP PUSH1 0x80 DUP8 ADD CALLDATALOAD PUSH8 0xFFFFFFFFFFFFFFFF DUP2 GT ISZERO PUSH3 0x16D1 JUMPI PUSH3 0x16D0 PUSH3 0xCEE JUMP JUMPDEST JUMPDEST PUSH3 0x16DF DUP10 DUP3 DUP11 ADD PUSH3 0x15D3 JUMP JUMPDEST SWAP3 POP POP PUSH1 0xA0 PUSH3 0x16F2 DUP10 DUP3 DUP11 ADD PUSH3 0xFE1 JUMP JUMPDEST SWAP2 POP POP SWAP3 SWAP6 POP SWAP3 SWAP6 POP SWAP3 SWAP6 JUMP JUMPDEST PUSH1 0x0 DUP1 PUSH1 0x0 DUP1 PUSH1 0x0 PUSH1 0x60 DUP7 DUP9 SUB SLT ISZERO PUSH3 0x171E JUMPI PUSH3 0x171D PUSH3 0xCE9 JUMP JUMPDEST JUMPDEST PUSH1 0x0 PUSH3 0x172E DUP9 DUP3 DUP10 ADD PUSH3 0xD41 JUMP JUMPDEST SWAP6 POP POP PUSH1 0x20 DUP7 ADD CALLDATALOAD PUSH8 0xFFFFFFFFFFFFFFFF DUP2 GT ISZERO PUSH3 0x1752 JUMPI PUSH3 0x1751 PUSH3 0xCEE JUMP JUMPDEST JUMPDEST PUSH3 0x1760 DUP9 DUP3 DUP10 ADD PUSH3 0xF5E JUMP JUMPDEST SWAP5 POP SWAP5 POP POP PUSH1 0x40 DUP7 ADD CALLDATALOAD PUSH8 0xFFFFFFFFFFFFFFFF DUP2 GT ISZERO PUSH3 0x1786 JUMPI PUSH3 0x1785 PUSH3 0xCEE JUMP JUMPDEST JUMPDEST PUSH3 0x1794 DUP9 DUP3 DUP10 ADD PUSH3 0xF5E JUMP JUMPDEST SWAP3 POP SWAP3 POP POP SWAP3 SWAP6 POP SWAP3 SWAP6 SWAP1 SWAP4 POP JUMP JUMPDEST PUSH1 0x0 DUP2 ISZERO ISZERO SWAP1 POP SWAP2 SWAP1 POP JUMP JUMPDEST PUSH3 0x17BA DUP2 PUSH3 0x17A3 JUMP JUMPDEST DUP2 EQ PUSH3 0x17C6 JUMPI PUSH1 0x0 DUP1 REVERT JUMPDEST POP JUMP JUMPDEST PUSH1 0x0 DUP2 CALLDATALOAD SWAP1 POP PUSH3 0x17DA DUP2 PUSH3 0x17AF JUMP JUMPDEST SWAP3 SWAP2 POP POP JUMP JUMPDEST PUSH1 0x0 DUP1 PUSH1 0x0 DUP1 PUSH1 0x0 PUSH1 0xA0 DUP7 DUP9 SUB SLT ISZERO PUSH3 0x17FF JUMPI PUSH3 0x17FE PUSH3 0xCE9 JUMP JUMPDEST JUMPDEST PUSH1 0x0 PUSH3 0x180F DUP9 DUP3 DUP10 ADD PUSH3 0xD41 JUMP JUMPDEST SWAP6 POP POP PUSH1 0x20 PUSH3 0x1822 DUP9 DUP3 DUP10 ADD PUSH3 0xFE1 JUMP JUMPDEST SWAP5 POP POP PUSH1 0x40 PUSH3 0x1835 DUP9 DUP3 DUP10 ADD PUSH3 0xFE1 JUMP JUMPDEST SWAP4 POP POP PUSH1 0x60 PUSH3 0x1848 DUP9 DUP3 DUP10 ADD PUSH3 0xFE1 JUMP JUMPDEST SWAP3 POP POP PUSH1 0x80 PUSH3 0x185B DUP9 DUP3 DUP10 ADD PUSH3 0x17C9 JUMP JUMPDEST SWAP2 POP POP SWAP3 SWAP6 POP SWAP3 SWAP6 SWAP1 SWAP4 POP JUMP JUMPDEST PUSH32 0x4E487B7100000000000000000000000000000000000000000000000000000000 PUSH1 0x0 MSTORE PUSH1 0x32 PUSH1 0x4 MSTORE PUSH1 0x24 PUSH1 0x0 REVERT JUMPDEST PUSH1 0x0 DUP1 REVERT JUMPDEST PUSH1 0x0 DUP1 REVERT JUMPDEST PUSH1 0x0 DUP1 REVERT JUMPDEST PUSH1 0x0 DUP1 DUP4 CALLDATALOAD PUSH1 0x1 PUSH1 0x20 SUB DUP5 CALLDATASIZE SUB SUB DUP2 SLT PUSH3 0x18C6 JUMPI PUSH3 0x18C5 PUSH3 0x1897 JUMP JUMPDEST JUMPDEST DUP1 DUP5 ADD SWAP3 POP DUP3 CALLDATALOAD SWAP2 POP PUSH8 0xFFFFFFFFFFFFFFFF DUP3 GT ISZERO PUSH3 0x18EB JUMPI PUSH3 0x18EA PUSH3 0x189C JUMP JUMPDEST JUMPDEST PUSH1 0x20 DUP4 ADD SWAP3 POP PUSH1 0x1 DUP3 MUL CALLDATASIZE SUB DUP4 SGT ISZERO PUSH3 0x190A JUMPI PUSH3 0x1909 PUSH3 0x18A1 JUMP JUMPDEST JUMPDEST POP SWAP3 POP SWAP3 SWAP1 POP JUMP JUMPDEST PUSH1 0x0 DUP3 DUP3 MSTORE PUSH1 0x20 DUP3 ADD SWAP1 POP SWAP3 SWAP2 POP POP JUMP JUMPDEST PUSH1 0x0 PUSH3 0x1931 DUP4 DUP6 PUSH3 0x1912 JUMP JUMPDEST SWAP4 POP PUSH3 0x1940 DUP4 DUP6 DUP5 PUSH3 0x12F3 JUMP JUMPDEST PUSH3 0x194B DUP4 PUSH3 0xFF8 JUMP JUMPDEST DUP5 ADD SWAP1 POP SWAP4 SWAP3 POP POP POP JUMP JUMPDEST PUSH1 0x0 PUSH1 0x40 DUP3 ADD SWAP1 POP DUP2 DUP2 SUB PUSH1 0x0 DUP4 ADD MSTORE PUSH3 0x1973 DUP2 DUP7 DUP9 PUSH3 0x1923 JUMP JUMPDEST SWAP1 POP DUP2 DUP2 SUB PUSH1 0x20 DUP4 ADD MSTORE PUSH3 0x198A DUP2 DUP5 DUP7 PUSH3 0x1923 JUMP JUMPDEST SWAP1 POP SWAP6 SWAP5 POP POP POP POP POP JUMP JUMPDEST PUSH32 0x4E487B7100000000000000000000000000000000000000000000000000000000 PUSH1 0x0 MSTORE PUSH1 0x11 PUSH1 0x4 MSTORE PUSH1 0x24 PUSH1 0x0 REVERT JUMPDEST PUSH1 0x0 PUSH3 0x19D1 DUP3 PUSH3 0xFBD JUMP JUMPDEST SWAP2 POP PUSH32 0xFFFFFFFFFFFFFFFFFFFFFFFFFFFFFFFFFFFFFFFFFFFFFFFFFFFFFFFFFFFFFFFF DUP3 EQ ISZERO PUSH3 0x1A07 JUMPI PUSH3 0x1A06 PUSH3 0x1995 JUMP JUMPDEST JUMPDEST PUSH1 0x1 DUP3 ADD SWAP1 POP SWAP2 SWAP1 POP JUMP JUMPDEST PUSH3 0x1A1D DUP2 PUSH3 0xD13 JUMP JUMPDEST DUP3 MSTORE POP POP JUMP JUMPDEST PUSH3 0x1A2E DUP2 PUSH3 0xE6A JUMP JUMPDEST DUP3 MSTORE POP POP JUMP JUMPDEST PUSH1 0x0 PUSH1 0x60 DUP3 ADD SWAP1 POP PUSH3 0x1A4B PUSH1 0x0 DUP4 ADD DUP7 PUSH3 0x1A12 JUMP JUMPDEST PUSH3 0x1A5A PUSH1 0x20 DUP4 ADD DUP6 PUSH3 0x1A12 JUMP JUMPDEST PUSH3 0x1A69 PUSH1 0x40 DUP4 ADD DUP5 PUSH3 0x1A23 JUMP JUMPDEST SWAP5 SWAP4 POP POP POP POP JUMP JUMPDEST PUSH1 0x0 PUSH1 0x80 DUP3 ADD SWAP1 POP PUSH3 0x1A88 PUSH1 0x0 DUP4 ADD DUP8 PUSH3 0x1A23 JUMP JUMPDEST PUSH3 0x1A97 PUSH1 0x20 DUP4 ADD DUP7 PUSH3 0x1A12 JUMP JUMPDEST PUSH3 0x1AA6 PUSH1 0x40 DUP4 ADD DUP6 PUSH3 0x1A12 JUMP JUMPDEST PUSH3 0x1AB5 PUSH1 0x60 DUP4 ADD DUP5 PUSH3 0x1A12 JUMP JUMPDEST SWAP6 SWAP5 POP POP POP POP POP JUMP JUMPDEST PUSH3 0x1AC9 DUP2 PUSH3 0xFBD JUMP JUMPDEST DUP3 MSTORE POP POP JUMP JUMPDEST PUSH1 0x0 DUP3 DUP3 MSTORE PUSH1 0x20 DUP3 ADD SWAP1 POP SWAP3 SWAP2 POP POP JUMP JUMPDEST PUSH1 0x0 DUP2 SWAP1 POP SWAP2 SWAP1 POP JUMP JUMPDEST PUSH1 0x0 DUP3 DUP3 MSTORE PUSH1 0x20 DUP3 ADD SWAP1 POP SWAP3 SWAP2 POP POP JUMP JUMPDEST PUSH1 0x0 PUSH3 0x1B09 DUP4 DUP6 PUSH3 0x1AEA JUMP JUMPDEST SWAP4 POP PUSH3 0x1B18 DUP4 DUP6 DUP5 PUSH3 0x12F3 JUMP JUMPDEST PUSH3 0x1B23 DUP4 PUSH3 0xFF8 JUMP JUMPDEST DUP5 ADD SWAP1 POP SWAP4 SWAP3 POP POP POP JUMP JUMPDEST PUSH1 0x0 PUSH3 0x1B3D DUP5 DUP5 DUP5 PUSH3 0x1AFB JUMP JUMPDEST SWAP1 POP SWAP4 SWAP3 POP POP POP JUMP JUMPDEST PUSH1 0x0 DUP1 REVERT JUMPDEST PUSH1 0x0 DUP1 REVERT JUMPDEST PUSH1 0x0 DUP1 REVERT JUMPDEST PUSH1 0x0 DUP1 DUP4 CALLDATALOAD PUSH1 0x1 PUSH1 0x20 SUB DUP5 CALLDATASIZE SUB SUB DUP2 SLT PUSH3 0x1B75 JUMPI PUSH3 0x1B74 PUSH3 0x1B50 JUMP JUMPDEST JUMPDEST DUP4 DUP2 ADD SWAP3 POP DUP3 CALLDATALOAD SWAP2 POP PUSH1 0x20 DUP4 ADD SWAP3 POP PUSH8 0xFFFFFFFFFFFFFFFF DUP3 GT ISZERO PUSH3 0x1BA0 JUMPI PUSH3 0x1B9F PUSH3 0x1B46 JUMP JUMPDEST JUMPDEST PUSH1 0x1 DUP3 MUL CALLDATASIZE SUB DUP5 SGT ISZERO PUSH3 0x1BB9 JUMPI PUSH3 0x1BB8 PUSH3 0x1B4B JUMP JUMPDEST JUMPDEST POP SWAP3 POP SWAP3 SWAP1 POP JUMP JUMPDEST PUSH1 0x0 PUSH1 0x20 DUP3 ADD SWAP1 POP SWAP2 SWAP1 POP JUMP JUMPDEST PUSH1 0x0 PUSH3 0x1BDC DUP4 DUP6 PUSH3 0x1ACF JUMP JUMPDEST SWAP4 POP DUP4 PUSH1 0x20 DUP5 MUL DUP6 ADD PUSH3 0x1BF0 DUP5 PUSH3 0x1AE0 JUMP JUMPDEST DUP1 PUSH1 0x0 JUMPDEST DUP8 DUP2 LT ISZERO PUSH3 0x1C3E JUMPI DUP5 DUP5 SUB DUP10 MSTORE PUSH3 0x1C0E DUP3 DUP5 PUSH3 0x1B55 JUMP JUMPDEST PUSH3 0x1C1B DUP7 DUP3 DUP5 PUSH3 0x1B2E JUMP JUMPDEST SWAP6 POP PUSH3 0x1C28 DUP5 PUSH3 0x1BC1 JUMP JUMPDEST SWAP4 POP PUSH1 0x20 DUP12 ADD SWAP11 POP POP POP PUSH1 0x1 DUP2 ADD SWAP1 POP PUSH3 0x1BF4 JUMP JUMPDEST POP DUP3 SWAP8 POP DUP8 SWAP5 POP POP POP POP POP SWAP4 SWAP3 POP POP POP JUMP JUMPDEST PUSH1 0x0 DUP2 MLOAD SWAP1 POP SWAP2 SWAP1 POP JUMP JUMPDEST PUSH1 0x0 DUP3 DUP3 MSTORE PUSH1 0x20 DUP3 ADD SWAP1 POP SWAP3 SWAP2 POP POP JUMP JUMPDEST PUSH1 0x0 DUP2 SWAP1 POP PUSH1 0x20 DUP3 ADD SWAP1 POP SWAP2 SWAP1 POP JUMP JUMPDEST PUSH3 0x1C87 DUP2 PUSH3 0xFBD JUMP JUMPDEST DUP3 MSTORE POP POP JUMP JUMPDEST PUSH1 0x0 PUSH3 0x1C9B DUP4 DUP4 PUSH3 0x1C7C JUMP JUMPDEST PUSH1 0x20 DUP4 ADD SWAP1 POP SWAP3 SWAP2 POP POP JUMP JUMPDEST PUSH1 0x0 PUSH1 0x20 DUP3 ADD SWAP1 POP SWAP2 SWAP1 POP JUMP JUMPDEST PUSH1 0x0 PUSH3 0x1CC1 DUP3 PUSH3 0x1C50 JUMP JUMPDEST PUSH3 0x1CCD DUP2 DUP6 PUSH3 0x1C5B JUMP JUMPDEST SWAP4 POP PUSH3 0x1CDA DUP4 PUSH3 0x1C6C JUMP JUMPDEST DUP1 PUSH1 0x0 JUMPDEST DUP4 DUP2 LT ISZERO PUSH3 0x1D11 JUMPI DUP2 MLOAD PUSH3 0x1CF5 DUP9 DUP3 PUSH3 0x1C8D JUMP JUMPDEST SWAP8 POP PUSH3 0x1D02 DUP4 PUSH3 0x1CA7 JUMP JUMPDEST SWAP3 POP POP PUSH1 0x1 DUP2 ADD SWAP1 POP PUSH3 0x1CDE JUMP JUMPDEST POP DUP6 SWAP4 POP POP POP POP SWAP3 SWAP2 POP POP JUMP JUMPDEST PUSH1 0x0 PUSH1 0x80 DUP3 ADD SWAP1 POP DUP2 DUP2 SUB PUSH1 0x0 DUP4 ADD MSTORE PUSH3 0x1D3B DUP2 DUP9 DUP11 PUSH3 0x1923 JUMP JUMPDEST SWAP1 POP PUSH3 0x1D4C PUSH1 0x20 DUP4 ADD DUP8 PUSH3 0x1ABE JUMP JUMPDEST DUP2 DUP2 SUB PUSH1 0x40 DUP4 ADD MSTORE PUSH3 0x1D61 DUP2 DUP6 DUP8 PUSH3 0x1BCE JUMP JUMPDEST SWAP1 POP DUP2 DUP2 SUB PUSH1 0x60 DUP4 ADD MSTORE PUSH3 0x1D77 DUP2 DUP5 PUSH3 0x1CB4 JUMP JUMPDEST SWAP1 POP SWAP8 SWAP7 POP POP POP POP POP POP POP JUMP JUMPDEST PUSH1 0x0 DUP2 MLOAD SWAP1 POP SWAP2 SWAP1 POP JUMP JUMPDEST PUSH1 0x0 DUP2 SWAP1 POP PUSH1 0x20 DUP3 ADD SWAP1 POP SWAP2 SWAP1 POP JUMP JUMPDEST PUSH1 0x0 DUP2 MLOAD SWAP1 POP SWAP2 SWAP1 POP JUMP JUMPDEST PUSH1 0x0 JUMPDEST DUP4 DUP2 LT ISZERO PUSH3 0x1DCA JUMPI DUP1 DUP3 ADD MLOAD DUP2 DUP5 ADD MSTORE PUSH1 0x20 DUP2 ADD SWAP1 POP PUSH3 0x1DAD JUMP JUMPDEST DUP4 DUP2 GT ISZERO PUSH3 0x1DDA JUMPI PUSH1 0x0 DUP5 DUP5 ADD MSTORE JUMPDEST POP POP POP POP JUMP JUMPDEST PUSH1 0x0 PUSH3 0x1DED DUP3 PUSH3 0x1D9F JUMP JUMPDEST PUSH3 0x1DF9 DUP2 DUP6 PUSH3 0x1AEA JUMP JUMPDEST SWAP4 POP PUSH3 0x1E0B DUP2 DUP6 PUSH1 0x20 DUP7 ADD PUSH3 0x1DAA JUMP JUMPDEST PUSH3 0x1E16 DUP2 PUSH3 0xFF8 JUMP JUMPDEST DUP5 ADD SWAP2 POP POP SWAP3 SWAP2 POP POP JUMP JUMPDEST PUSH1 0x0 PUSH3 0x1E2F DUP4 DUP4 PUSH3 0x1DE0 JUMP JUMPDEST SWAP1 POP SWAP3 SWAP2 POP POP JUMP JUMPDEST PUSH1 0x0 PUSH1 0x20 DUP3 ADD SWAP1 POP SWAP2 SWAP1 POP JUMP JUMPDEST PUSH1 0x0 PUSH3 0x1E51 DUP3 PUSH3 0x1D84 JUMP JUMPDEST PUSH3 0x1E5D DUP2 DUP6 PUSH3 0x1ACF JUMP JUMPDEST SWAP4 POP DUP4 PUSH1 0x20 DUP3 MUL DUP6 ADD PUSH3 0x1E71 DUP6 PUSH3 0x1D8F JUMP JUMPDEST DUP1 PUSH1 0x0 JUMPDEST DUP6 DUP2 LT ISZERO PUSH3 0x1EB3 JUMPI DUP5 DUP5 SUB DUP10 MSTORE DUP2 MLOAD PUSH3 0x1E91 DUP6 DUP3 PUSH3 0x1E21 JUMP JUMPDEST SWAP5 POP PUSH3 0x1E9E DUP4 PUSH3 0x1E37 JUMP JUMPDEST SWAP3 POP PUSH1 0x20 DUP11 ADD SWAP10 POP POP PUSH1 0x1 DUP2 ADD SWAP1 POP PUSH3 0x1E75 JUMP JUMPDEST POP DUP3 SWAP8 POP DUP8 SWAP6 POP POP POP POP POP POP SWAP3 SWAP2 POP POP JUMP JUMPDEST PUSH1 0x0 PUSH1 0x80 DUP3 ADD SWAP1 POP DUP2 DUP2 SUB PUSH1 0x0 DUP4 ADD MSTORE PUSH3 0x1EE2 DUP2 DUP8 DUP10 PUSH3 0x1923 JUMP JUMPDEST SWAP1 POP PUSH3 0x1EF3 PUSH1 0x20 DUP4 ADD DUP7 PUSH3 0x1ABE JUMP JUMPDEST DUP2 DUP2 SUB PUSH1 0x40 DUP4 ADD MSTORE PUSH3 0x1F07 DUP2 DUP6 PUSH3 0x1E44 JUMP JUMPDEST SWAP1 POP DUP2 DUP2 SUB PUSH1 0x60 DUP4 ADD MSTORE PUSH3 0x1F1D DUP2 DUP5 PUSH3 0x1CB4 JUMP JUMPDEST SWAP1 POP SWAP7 SWAP6 POP POP POP POP POP POP JUMP JUMPDEST PUSH1 0x0 PUSH3 0x1F36 DUP3 PUSH3 0x1D9F JUMP JUMPDEST PUSH3 0x1F42 DUP2 DUP6 PUSH3 0x1912 JUMP JUMPDEST SWAP4 POP PUSH3 0x1F54 DUP2 DUP6 PUSH1 0x20 DUP7 ADD PUSH3 0x1DAA JUMP JUMPDEST PUSH3 0x1F5F DUP2 PUSH3 0xFF8 JUMP JUMPDEST DUP5 ADD SWAP2 POP POP SWAP3 SWAP2 POP POP JUMP JUMPDEST PUSH1 0x0 DUP2 MLOAD SWAP1 POP SWAP2 SWAP1 POP JUMP JUMPDEST PUSH1 0x0 DUP3 DUP3 MSTORE PUSH1 0x20 DUP3 ADD SWAP1 POP SWAP3 SWAP2 POP POP JUMP JUMPDEST PUSH1 0x0 DUP2 SWAP1 POP PUSH1 0x20 DUP3 ADD SWAP1 POP SWAP2 SWAP1 POP JUMP JUMPDEST PUSH3 0x1FA1 DUP2 PUSH3 0xE6A JUMP JUMPDEST DUP3 MSTORE POP POP JUMP JUMPDEST PUSH1 0x0 PUSH3 0x1FB5 DUP4 DUP4 PUSH3 0x1F96 JUMP JUMPDEST PUSH1 0x20 DUP4 ADD SWAP1 POP SWAP3 SWAP2 POP POP JUMP JUMPDEST PUSH1 0x0 PUSH1 0x20 DUP3 ADD SWAP1 POP SWAP2 SWAP1 POP JUMP JUMPDEST PUSH1 0x0 PUSH3 0x1FDB DUP3 PUSH3 0x1F6A JUMP JUMPDEST PUSH3 0x1FE7 DUP2 DUP6 PUSH3 0x1F75 JUMP JUMPDEST SWAP4 POP PUSH3 0x1FF4 DUP4 PUSH3 0x1F86 JUMP JUMPDEST DUP1 PUSH1 0x0 JUMPDEST DUP4 DUP2 LT ISZERO PUSH3 0x202B JUMPI DUP2 MLOAD PUSH3 0x200F DUP9 DUP3 PUSH3 0x1FA7 JUMP JUMPDEST SWAP8 POP PUSH3 0x201C DUP4 PUSH3 0x1FC1 JUMP JUMPDEST SWAP3 POP POP PUSH1 0x1 DUP2 ADD SWAP1 POP PUSH3 0x1FF8 JUMP JUMPDEST POP DUP6 SWAP4 POP POP POP POP SWAP3 SWAP2 POP POP JUMP JUMPDEST PUSH1 0x0 PUSH1 0xC0 DUP3 ADD SWAP1 POP PUSH3 0x204F PUSH1 0x0 DUP4 ADD DUP10 PUSH3 0x1A12 JUMP JUMPDEST DUP2 DUP2 SUB PUSH1 0x20 DUP4 ADD MSTORE PUSH3 0x2063 DUP2 DUP9 PUSH3 0x1F29 JUMP JUMPDEST SWAP1 POP PUSH3 0x2074 PUSH1 0x40 DUP4 ADD DUP8 PUSH3 0x1A23 JUMP JUMPDEST DUP2 DUP2 SUB PUSH1 0x60 DUP4 ADD MSTORE PUSH3 0x2088 DUP2 DUP7 PUSH3 0x1F29 JUMP JUMPDEST SWAP1 POP DUP2 DUP2 SUB PUSH1 0x80 DUP4 ADD MSTORE PUSH3 0x209E DUP2 DUP6 PUSH3 0x1FCE JUMP JUMPDEST SWAP1 POP PUSH3 0x20AF PUSH1 0xA0 DUP4 ADD DUP5 PUSH3 0x1ABE JUMP JUMPDEST SWAP8 SWAP7 POP POP POP POP POP POP POP JUMP JUMPDEST PUSH1 0x0 PUSH1 0x20 DUP3 ADD SWAP1 POP DUP2 DUP2 SUB PUSH1 0x0 DUP4 ADD MSTORE PUSH3 0x20D6 DUP2 DUP5 PUSH3 0x1F29 JUMP JUMPDEST SWAP1 POP SWAP3 SWAP2 POP POP JUMP JUMPDEST PUSH1 0x0 DUP2 MLOAD SWAP1 POP PUSH3 0x20EF DUP2 PUSH3 0xD27 JUMP JUMPDEST SWAP3 SWAP2 POP POP JUMP JUMPDEST PUSH1 0x0 PUSH1 0x20 DUP3 DUP5 SUB SLT ISZERO PUSH3 0x210E JUMPI PUSH3 0x210D PUSH3 0xCE9 JUMP JUMPDEST JUMPDEST PUSH1 0x0 PUSH3 0x211E DUP5 DUP3 DUP6 ADD PUSH3 0x20DE JUMP JUMPDEST SWAP2 POP POP SWAP3 SWAP2 POP POP JUMP JUMPDEST PUSH3 0x2132 DUP2 PUSH3 0x17A3 JUMP JUMPDEST DUP3 MSTORE POP POP JUMP JUMPDEST PUSH1 0x0 PUSH1 0x80 DUP3 ADD SWAP1 POP PUSH3 0x214F PUSH1 0x0 DUP4 ADD DUP8 PUSH3 0x1ABE JUMP JUMPDEST PUSH3 0x215E PUSH1 0x20 DUP4 ADD DUP7 PUSH3 0x1ABE JUMP JUMPDEST PUSH3 0x216D PUSH1 0x40 DUP4 ADD DUP6 PUSH3 0x1ABE JUMP JUMPDEST PUSH3 0x217C PUSH1 0x60 DUP4 ADD DUP5 PUSH3 0x2127 JUMP JUMPDEST SWAP6 SWAP5 POP POP POP POP POP JUMP INVALID PUSH1 0x80 PUSH1 0x40 MSTORE CALLVALUE DUP1 ISZERO PUSH2 0x10 JUMPI PUSH1 0x0 DUP1 REVERT JUMPDEST POP PUSH1 0x40 MLOAD PUSH2 0x8A2 CODESIZE SUB DUP1 PUSH2 0x8A2 DUP4 CODECOPY DUP2 DUP2 ADD PUSH1 0x40 MSTORE DUP2 ADD SWAP1 PUSH2 0x32 SWAP2 SWAP1 PUSH2 0x15B JUMP JUMPDEST DUP3 PUSH1 0x0 DUP1 PUSH2 0x100 EXP DUP2 SLOAD DUP2 PUSH20 0xFFFFFFFFFFFFFFFFFFFFFFFFFFFFFFFFFFFFFFFF MUL NOT AND SWAP1 DUP4 PUSH20 0xFFFFFFFFFFFFFFFFFFFFFFFFFFFFFFFFFFFFFFFF AND MUL OR SWAP1 SSTORE POP DUP2 PUSH1 0x1 PUSH1 0x0 PUSH2 0x100 EXP DUP2 SLOAD DUP2 PUSH20 0xFFFFFFFFFFFFFFFFFFFFFFFFFFFFFFFFFFFFFFFF MUL NOT AND SWAP1 DUP4 PUSH20 0xFFFFFFFFFFFFFFFFFFFFFFFFFFFFFFFFFFFFFFFF AND MUL OR SWAP1 SSTORE POP DUP1 PUSH1 0x2 DUP2 SWAP1 SSTORE POP POP POP POP PUSH2 0x1AE JUMP JUMPDEST PUSH1 0x0 DUP1 REVERT JUMPDEST PUSH1 0x0 PUSH20 0xFFFFFFFFFFFFFFFFFFFFFFFFFFFFFFFFFFFFFFFF DUP3 AND SWAP1 POP SWAP2 SWAP1 POP JUMP JUMPDEST PUSH1 0x0 PUSH2 0xF2 DUP3 PUSH2 0xC7 JUMP JUMPDEST SWAP1 POP SWAP2 SWAP1 POP JUMP JUMPDEST PUSH2 0x102 DUP2 PUSH2 0xE7 JUMP JUMPDEST DUP2 EQ PUSH2 0x10D JUMPI PUSH1 0x0 DUP1 REVERT JUMPDEST POP JUMP JUMPDEST PUSH1 0x0 DUP2 MLOAD SWAP1 POP PUSH2 0x11F DUP2 PUSH2 0xF9 JUMP JUMPDEST SWAP3 SWAP2 POP POP JUMP JUMPDEST PUSH1 0x0 DUP2 SWAP1 POP SWAP2 SWAP1 POP JUMP JUMPDEST PUSH2 0x138 DUP2 PUSH2 0x125 JUMP JUMPDEST DUP2 EQ PUSH2 0x143 JUMPI PUSH1 0x0 DUP1 REVERT JUMPDEST POP JUMP JUMPDEST PUSH1 0x0 DUP2 MLOAD SWAP1 POP PUSH2 0x155 DUP2 PUSH2 0x12F JUMP JUMPDEST SWAP3 SWAP2 POP POP JUMP JUMPDEST PUSH1 0x0 DUP1 PUSH1 0x0 PUSH1 0x60 DUP5 DUP7 SUB SLT ISZERO PUSH2 0x174 JUMPI PUSH2 0x173 PUSH2 0xC2 JUMP JUMPDEST JUMPDEST PUSH1 0x0 PUSH2 0x182 DUP7 DUP3 DUP8 ADD PUSH2 0x110 JUMP JUMPDEST SWAP4 POP POP PUSH1 0x20 PUSH2 0x193 DUP7 DUP3 DUP8 ADD PUSH2 0x110 JUMP JUMPDEST SWAP3 POP POP PUSH1 0x40 PUSH2 0x1A4 DUP7 DUP3 DUP8 ADD PUSH2 0x146 JUMP JUMPDEST SWAP2 POP POP SWAP3 POP SWAP3 POP SWAP3 JUMP JUMPDEST PUSH2 0x6E5 DUP1 PUSH2 0x1BD PUSH1 0x0 CODECOPY PUSH1 0x0 RETURN INVALID PUSH1 0x80 PUSH1 0x40 MSTORE CALLVALUE DUP1 ISZERO PUSH2 0x10 JUMPI PUSH1 0x0 DUP1 REVERT JUMPDEST POP PUSH1 0x4 CALLDATASIZE LT PUSH2 0x7D JUMPI PUSH1 0x0 CALLDATALOAD PUSH1 0xE0 SHR DUP1 PUSH4 0x4F15FC06 GT PUSH2 0x5B JUMPI DUP1 PUSH4 0x4F15FC06 EQ PUSH2 0xDC JUMPI DUP1 PUSH4 0x60A56B3A EQ PUSH2 0xFA JUMPI DUP1 PUSH4 0x6CCCBE5E EQ PUSH2 0x116 JUMPI DUP1 PUSH4 0x8F94B8C2 EQ PUSH2 0x134 JUMPI PUSH2 0x7D JUMP JUMPDEST DUP1 PUSH4 0x186BC549 EQ PUSH2 0x82 JUMPI DUP1 PUSH4 0x4575D5C5 EQ PUSH2 0xA0 JUMPI DUP1 PUSH4 0x4B1D123B EQ PUSH2 0xBE JUMPI JUMPDEST PUSH1 0x0 DUP1 REVERT JUMPDEST PUSH2 0x8A PUSH2 0x150 JUMP JUMPDEST PUSH1 0x40 MLOAD PUSH2 0x97 SWAP2 SWAP1 PUSH2 0x2F4 JUMP JUMPDEST PUSH1 0x40 MLOAD DUP1 SWAP2 SUB SWAP1 RETURN JUMPDEST PUSH2 0xA8 PUSH2 0x15A JUMP JUMPDEST PUSH1 0x40 MLOAD PUSH2 0xB5 SWAP2 SWAP1 PUSH2 0x328 JUMP JUMPDEST PUSH1 0x40 MLOAD DUP1 SWAP2 SUB SWAP1 RETURN JUMPDEST PUSH2 0xC6 PUSH2 0x164 JUMP JUMPDEST PUSH1 0x40 MLOAD PUSH2 0xD3 SWAP2 SWAP1 PUSH2 0x2F4 JUMP JUMPDEST PUSH1 0x40 MLOAD DUP1 SWAP2 SUB SWAP1 RETURN JUMPDEST PUSH2 0xE4 PUSH2 0x180 JUMP JUMPDEST PUSH1 0x40 MLOAD PUSH2 0xF1 SWAP2 SWAP1 PUSH2 0x2F4 JUMP JUMPDEST PUSH1 0x40 MLOAD DUP1 SWAP2 SUB SWAP1 RETURN JUMPDEST PUSH2 0x114 PUSH1 0x4 DUP1 CALLDATASIZE SUB DUP2 ADD SWAP1 PUSH2 0x10F SWAP2 SWAP1 PUSH2 0x3D2 JUMP JUMPDEST PUSH2 0x18A JUMP JUMPDEST STOP JUMPDEST PUSH2 0x11E PUSH2 0x2AD JUMP JUMPDEST PUSH1 0x40 MLOAD PUSH2 0x12B SWAP2 SWAP1 PUSH2 0x2F4 JUMP JUMPDEST PUSH1 0x40 MLOAD DUP1 SWAP2 SUB SWAP1 RETURN JUMPDEST PUSH2 0x14E PUSH1 0x4 DUP1 CALLDATASIZE SUB DUP2 ADD SWAP1 PUSH2 0x149 SWAP2 SWAP1 PUSH2 0x425 JUMP JUMPDEST PUSH2 0x2D1 JUMP JUMPDEST STOP JUMPDEST PUSH1 0x0 PUSH1 0x3 SLOAD SWAP1 POP SWAP1 JUMP JUMPDEST PUSH1 0x0 PUSH1 0x2 SLOAD SWAP1 POP SWAP1 JUMP JUMPDEST PUSH1 0x0 PUSH2 0x16E PUSH2 0x2AD JUMP JUMPDEST PUSH1 0x3 SLOAD PUSH2 0x17B SWAP2 SWAP1 PUSH2 0x481 JUMP JUMPDEST SWAP1 POP SWAP1 JUMP JUMPDEST PUSH1 0x0 PUSH1 0x4 SLOAD SWAP1 POP SWAP1 JUMP JUMPDEST PUSH1 0x1 PUSH1 0x0 SWAP1 SLOAD SWAP1 PUSH2 0x100 EXP SWAP1 DIV PUSH20 0xFFFFFFFFFFFFFFFFFFFFFFFFFFFFFFFFFFFFFFFF AND PUSH20 0xFFFFFFFFFFFFFFFFFFFFFFFFFFFFFFFFFFFFFFFF AND CALLER PUSH20 0xFFFFFFFFFFFFFFFFFFFFFFFFFFFFFFFFFFFFFFFF AND EQ PUSH2 0x21A JUMPI PUSH1 0x40 MLOAD PUSH32 0x8C379A000000000000000000000000000000000000000000000000000000000 DUP2 MSTORE PUSH1 0x4 ADD PUSH2 0x211 SWAP1 PUSH2 0x538 JUMP JUMPDEST PUSH1 0x40 MLOAD DUP1 SWAP2 SUB SWAP1 REVERT JUMPDEST DUP2 PUSH20 0xFFFFFFFFFFFFFFFFFFFFFFFFFFFFFFFFFFFFFFFF AND PUSH4 0xA9059CBB DUP5 DUP4 PUSH1 0x40 MLOAD DUP4 PUSH4 0xFFFFFFFF AND PUSH1 0xE0 SHL DUP2 MSTORE PUSH1 0x4 ADD PUSH2 0x255 SWAP3 SWAP2 SWAP1 PUSH2 0x567 JUMP JUMPDEST PUSH1 0x20 PUSH1 0x40 MLOAD DUP1 DUP4 SUB DUP2 PUSH1 0x0 DUP8 DUP1 EXTCODESIZE ISZERO DUP1 ISZERO PUSH2 0x26F JUMPI PUSH1 0x0 DUP1 REVERT JUMPDEST POP GAS CALL ISZERO DUP1 ISZERO PUSH2 0x283 JUMPI RETURNDATASIZE PUSH1 0x0 DUP1 RETURNDATACOPY RETURNDATASIZE PUSH1 0x0 REVERT JUMPDEST POP POP POP POP PUSH1 0x40 MLOAD RETURNDATASIZE PUSH1 0x1F NOT PUSH1 0x1F DUP3 ADD AND DUP3 ADD DUP1 PUSH1 0x40 MSTORE POP DUP2 ADD SWAP1 PUSH2 0x2A7 SWAP2 SWAP1 PUSH2 0x5C8 JUMP JUMPDEST POP POP POP POP JUMP JUMPDEST PUSH1 0x0 PUSH2 0x2710 PUSH1 0x4 SLOAD PUSH1 0x3 SLOAD PUSH2 0x2C2 SWAP2 SWAP1 PUSH2 0x5F5 JUMP JUMPDEST PUSH2 0x2CC SWAP2 SWAP1 PUSH2 0x67E JUMP JUMPDEST SWAP1 POP SWAP1 JUMP JUMPDEST DUP1 PUSH1 0x4 DUP2 SWAP1 SSTORE POP POP JUMP JUMPDEST PUSH1 0x0 DUP2 SWAP1 POP SWAP2 SWAP1 POP JUMP JUMPDEST PUSH2 0x2EE DUP2 PUSH2 0x2DB JUMP JUMPDEST DUP3 MSTORE POP POP JUMP JUMPDEST PUSH1 0x0 PUSH1 0x20 DUP3 ADD SWAP1 POP PUSH2 0x309 PUSH1 0x0 DUP4 ADD DUP5 PUSH2 0x2E5 JUMP JUMPDEST SWAP3 SWAP2 POP POP JUMP JUMPDEST PUSH1 0x0 DUP2 SWAP1 POP SWAP2 SWAP1 POP JUMP JUMPDEST PUSH2 0x322 DUP2 PUSH2 0x30F JUMP JUMPDEST DUP3 MSTORE POP POP JUMP JUMPDEST PUSH1 0x0 PUSH1 0x20 DUP3 ADD SWAP1 POP PUSH2 0x33D PUSH1 0x0 DUP4 ADD DUP5 PUSH2 0x319 JUMP JUMPDEST SWAP3 SWAP2 POP POP JUMP JUMPDEST PUSH1 0x0 DUP1 REVERT JUMPDEST PUSH1 0x0 PUSH20 0xFFFFFFFFFFFFFFFFFFFFFFFFFFFFFFFFFFFFFFFF DUP3 AND SWAP1 POP SWAP2 SWAP1 POP JUMP JUMPDEST PUSH1 0x0 PUSH2 0x373 DUP3 PUSH2 0x348 JUMP JUMPDEST SWAP1 POP SWAP2 SWAP1 POP JUMP JUMPDEST PUSH2 0x383 DUP2 PUSH2 0x368 JUMP JUMPDEST DUP2 EQ PUSH2 0x38E JUMPI PUSH1 0x0 DUP1 REVERT JUMPDEST POP JUMP JUMPDEST PUSH1 0x0 DUP2 CALLDATALOAD SWAP1 POP PUSH2 0x3A0 DUP2 PUSH2 0x37A JUMP JUMPDEST SWAP3 SWAP2 POP POP JUMP JUMPDEST PUSH2 0x3AF DUP2 PUSH2 0x2DB JUMP JUMPDEST DUP2 EQ PUSH2 0x3BA JUMPI PUSH1 0x0 DUP1 REVERT JUMPDEST POP JUMP JUMPDEST PUSH1 0x0 DUP2 CALLDATALOAD SWAP1 POP PUSH2 0x3CC DUP2 PUSH2 0x3A6 JUMP JUMPDEST SWAP3 SWAP2 POP POP JUMP JUMPDEST PUSH1 0x0 DUP1 PUSH1 0x0 PUSH1 0x60 DUP5 DUP7 SUB SLT ISZERO PUSH2 0x3EB JUMPI PUSH2 0x3EA PUSH2 0x343 JUMP JUMPDEST JUMPDEST PUSH1 0x0 PUSH2 0x3F9 DUP7 DUP3 DUP8 ADD PUSH2 0x391 JUMP JUMPDEST SWAP4 POP POP PUSH1 0x20 PUSH2 0x40A DUP7 DUP3 DUP8 ADD PUSH2 0x391 JUMP JUMPDEST SWAP3 POP POP PUSH1 0x40 PUSH2 0x41B DUP7 DUP3 DUP8 ADD PUSH2 0x3BD JUMP JUMPDEST SWAP2 POP POP SWAP3 POP SWAP3 POP SWAP3 JUMP JUMPDEST PUSH1 0x0 PUSH1 0x20 DUP3 DUP5 SUB SLT ISZERO PUSH2 0x43B JUMPI PUSH2 0x43A PUSH2 0x343 JUMP JUMPDEST JUMPDEST PUSH1 0x0 PUSH2 0x449 DUP5 DUP3 DUP6 ADD PUSH2 0x3BD JUMP JUMPDEST SWAP2 POP POP SWAP3 SWAP2 POP POP JUMP JUMPDEST PUSH32 0x4E487B7100000000000000000000000000000000000000000000000000000000 PUSH1 0x0 MSTORE PUSH1 0x11 PUSH1 0x4 MSTORE PUSH1 0x24 PUSH1 0x0 REVERT JUMPDEST PUSH1 0x0 PUSH2 0x48C DUP3 PUSH2 0x2DB JUMP JUMPDEST SWAP2 POP PUSH2 0x497 DUP4 PUSH2 0x2DB JUMP JUMPDEST SWAP3 POP DUP3 DUP3 LT ISZERO PUSH2 0x4AA JUMPI PUSH2 0x4A9 PUSH2 0x452 JUMP JUMPDEST JUMPDEST DUP3 DUP3 SUB SWAP1 POP SWAP3 SWAP2 POP POP JUMP JUMPDEST PUSH1 0x0 DUP3 DUP3 MSTORE PUSH1 0x20 DUP3 ADD SWAP1 POP SWAP3 SWAP2 POP POP JUMP JUMPDEST PUSH32 0x43616D706169676E54726561737572793A2043616C6C6572206973206E6F7420 PUSH1 0x0 DUP3 ADD MSTORE PUSH32 0x43616D706169676E496E666F20636F6E74726163740000000000000000000000 PUSH1 0x20 DUP3 ADD MSTORE POP JUMP JUMPDEST PUSH1 0x0 PUSH2 0x522 PUSH1 0x35 DUP4 PUSH2 0x4B5 JUMP JUMPDEST SWAP2 POP PUSH2 0x52D DUP3 PUSH2 0x4C6 JUMP JUMPDEST PUSH1 0x40 DUP3 ADD SWAP1 POP SWAP2 SWAP1 POP JUMP JUMPDEST PUSH1 0x0 PUSH1 0x20 DUP3 ADD SWAP1 POP DUP2 DUP2 SUB PUSH1 0x0 DUP4 ADD MSTORE PUSH2 0x551 DUP2 PUSH2 0x515 JUMP JUMPDEST SWAP1 POP SWAP2 SWAP1 POP JUMP JUMPDEST PUSH2 0x561 DUP2 PUSH2 0x368 JUMP JUMPDEST DUP3 MSTORE POP POP JUMP JUMPDEST PUSH1 0x0 PUSH1 0x40 DUP3 ADD SWAP1 POP PUSH2 0x57C PUSH1 0x0 DUP4 ADD DUP6 PUSH2 0x558 JUMP JUMPDEST PUSH2 0x589 PUSH1 0x20 DUP4 ADD DUP5 PUSH2 0x2E5 JUMP JUMPDEST SWAP4 SWAP3 POP POP POP JUMP JUMPDEST PUSH1 0x0 DUP2 ISZERO ISZERO SWAP1 POP SWAP2 SWAP1 POP JUMP JUMPDEST PUSH2 0x5A5 DUP2 PUSH2 0x590 JUMP JUMPDEST DUP2 EQ PUSH2 0x5B0 JUMPI PUSH1 0x0 DUP1 REVERT JUMPDEST POP JUMP JUMPDEST PUSH1 0x0 DUP2 MLOAD SWAP1 POP PUSH2 0x5C2 DUP2 PUSH2 0x59C JUMP JUMPDEST SWAP3 SWAP2 POP POP JUMP JUMPDEST PUSH1 0x0 PUSH1 0x20 DUP3 DUP5 SUB SLT ISZERO PUSH2 0x5DE JUMPI PUSH2 0x5DD PUSH2 0x343 JUMP JUMPDEST JUMPDEST PUSH1 0x0 PUSH2 0x5EC DUP5 DUP3 DUP6 ADD PUSH2 0x5B3 JUMP JUMPDEST SWAP2 POP POP SWAP3 SWAP2 POP POP JUMP JUMPDEST PUSH1 0x0 PUSH2 0x600 DUP3 PUSH2 0x2DB JUMP JUMPDEST SWAP2 POP PUSH2 0x60B DUP4 PUSH2 0x2DB JUMP JUMPDEST SWAP3 POP DUP2 PUSH32 0xFFFFFFFFFFFFFFFFFFFFFFFFFFFFFFFFFFFFFFFFFFFFFFFFFFFFFFFFFFFFFFFF DIV DUP4 GT DUP3 ISZERO ISZERO AND ISZERO PUSH2 0x644 JUMPI PUSH2 0x643 PUSH2 0x452 JUMP JUMPDEST JUMPDEST DUP3 DUP3 MUL SWAP1 POP SWAP3 SWAP2 POP POP JUMP JUMPDEST PUSH32 0x4E487B7100000000000000000000000000000000000000000000000000000000 PUSH1 0x0 MSTORE PUSH1 0x12 PUSH1 0x4 MSTORE PUSH1 0x24 PUSH1 0x0 REVERT JUMPDEST PUSH1 0x0 PUSH2 0x689 DUP3 PUSH2 0x2DB JUMP JUMPDEST SWAP2 POP PUSH2 0x694 DUP4 PUSH2 0x2DB JUMP JUMPDEST SWAP3 POP DUP3 PUSH2 0x6A4 JUMPI PUSH2 0x6A3 PUSH2 0x64F JUMP JUMPDEST JUMPDEST DUP3 DUP3 DIV SWAP1 POP SWAP3 SWAP2 POP POP JUMP INVALID LOG2 PUSH5 0x6970667358 0x22 SLT KECCAK256 0xD9 0xAC SWAP15 NUMBER SWAP3 PUSH28 0xAE7CC90A0FBDDEEBE859351F54203E5F4F5BCBEB43A454538C816473 PUSH16 0x6C63430008090033A264697066735822 SLT KECCAK256 0x1E 0x2B 0xCE 0x2A 0x21 CALLER 0x5D 0xB0 BASEFEE SWAP10 CALLDATASIZE 0xDA RETURN PUSH8 0x678D2DB07C094C7 EXTCODESIZE 0xC3 CODESIZE 0x4E AND 0xCA DUP1 0x49 0x21 0xC1 PUSH5 0x736F6C6343 STOP ADDMOD MULMOD STOP CALLER "},"methodIdentifiers":{"addItem(address,string,string)":"d3caea4f","addItemAndReward(address,string[],string[],string,uint256,uint256[])":"7351e1ab","addItems(address,string[],string[])":"2c6ba152","addReward(address,string,uint256,string[],uint256[])":"ab4d9b5f","createCampaign(address,string,bytes32,string,bytes32[],uint256)":"c77e6f65","initialize(address,address)":"485cc955","setLaunch(address,uint256,uint256,uint256,bool)":"fbe121fa","setTreasury(address,bytes32,address,address)":"33d556d7"}}}}}