{"contracts/CampaignInfoFactory.sol":{"CampaignInfoFactory":{"abi":[{"anonymous":false,"inputs":[{"indexed":true,"internalType":"address","name":"previousOwner","type":"address"},{"indexed":true,"internalType":"address","name":"newOwner","type":"address"}],"name":"OwnershipTransferred","type":"event"},{"anonymous":false,"inputs":[{"indexed":false,"internalType":"string","name":"identifier","type":"string"},{"indexed":true,"internalType":"address","name":"campaignInfoAddress","type":"address"}],"name":"campaignCreation","type":"event"},{"inputs":[{"internalType":"string","name":"_identifier","type":"string"},{"internalType":"bytes32","name":"_originPlatform","type":"bytes32"},{"internalType":"uint256","name":"_goalAmount","type":"uint256"},{"internalType":"uint256","name":"_launchTime","type":"uint256"},{"internalType":"uint256","name":"_deadline","type":"uint256"},{"internalType":"uint256","name":"_platformTotalFeePercent","type":"uint256"},{"internalType":"uint256","name":"_rewardPlatformFeePercent","type":"uint256"},{"internalType":"string","name":"_creatorUrl","type":"string"},{"internalType":"bytes32[]","name":"_reachPlatform","type":"bytes32[]"}],"name":"createCampaign","outputs":[],"stateMutability":"nonpayable","type":"function"},{"inputs":[],"name":"owner","outputs":[{"internalType":"address","name":"","type":"address"}],"stateMutability":"view","type":"function"},{"inputs":[],"name":"renounceOwnership","outputs":[],"stateMutability":"nonpayable","type":"function"},{"inputs":[{"internalType":"address","name":"_campaignRegistry","type":"address"}],"name":"setRegistry","outputs":[],"stateMutability":"nonpayable","type":"function"},{"inputs":[{"internalType":"address","name":"newOwner","type":"address"}],"name":"transferOwnership","outputs":[],"stateMutability":"nonpayable","type":"function"}],"evm":{"bytecode":{"linkReferences":{},"object":"608060405234801561001057600080fd5b5061002d61002261003260201b60201c565b61003a60201b60201c565b6100fe565b600033905090565b60008060009054906101000a900473ffffffffffffffffffffffffffffffffffffffff169050816000806101000a81548173ffffffffffffffffffffffffffffffffffffffff021916908373ffffffffffffffffffffffffffffffffffffffff1602179055508173ffffffffffffffffffffffffffffffffffffffff168173ffffffffffffffffffffffffffffffffffffffff167f8be0079c531659141344cd1fd0a4f28419497f9722a3daafe3b4186f6b6457e060405160405180910390a35050565b6151288061010d6000396000f3fe60806040523480156200001157600080fd5b50600436106200005e5760003560e01c8063537d148a1462000063578063715018a614620000835780638da5cb5b146200008f578063a91ee0dc14620000b1578063f2fde38b14620000d1575b600080fd5b6200008160048036038101906200007b919062000890565b620000f1565b005b6200008d62000335565b005b620000996200034d565b604051620000a8919062000a11565b60405180910390f35b620000cf6004803603810190620000c9919062000a5f565b62000376565b005b620000ef6004803603810190620000e9919062000a5f565b620003df565b005b620000fb6200046a565b600260149054906101000a900460ff166200011557600080fd5b888888888888888888600260009054906101000a900473ffffffffffffffffffffffffffffffffffffffff166040516200014f90620005bb565b620001649a9998979695949392919062000c14565b604051809103906000f08015801562000181573d6000803e3d6000fd5b50600160006101000a81548173ffffffffffffffffffffffffffffffffffffffff021916908373ffffffffffffffffffffffffffffffffffffffff160217905550600073ffffffffffffffffffffffffffffffffffffffff16600160009054906101000a900473ffffffffffffffffffffffffffffffffffffffff1673ffffffffffffffffffffffffffffffffffffffff1614156200021f57600080fd5b6000600160009054906101000a900473ffffffffffffffffffffffffffffffffffffffff169050600260009054906101000a900473ffffffffffffffffffffffffffffffffffffffff1673ffffffffffffffffffffffffffffffffffffffff16632c64ba158b836040518363ffffffff1660e01b8152600401620002a592919062000cd9565b600060405180830381600087803b158015620002c057600080fd5b505af1158015620002d5573d6000803e3d6000fd5b505050508073ffffffffffffffffffffffffffffffffffffffff167ff4d491a6f1d235565138b729aec590f73a429a7debf862af41af0d001ab8da378b60405162000321919062000d0d565b60405180910390a250505050505050505050565b6200033f6200046a565b6200034b6000620004ef565b565b60008060009054906101000a900473ffffffffffffffffffffffffffffffffffffffff16905090565b620003806200046a565b80600260006101000a81548173ffffffffffffffffffffffffffffffffffffffff021916908373ffffffffffffffffffffffffffffffffffffffff1602179055506001600260146101000a81548160ff02191690831515021790555050565b620003e96200046a565b600073ffffffffffffffffffffffffffffffffffffffff168173ffffffffffffffffffffffffffffffffffffffff1614156200045c576040517f08c379a0000000000000000000000000000000000000000000000000000000008152600401620004539062000da7565b60405180910390fd5b6200046781620004ef565b50565b62000474620005b3565b73ffffffffffffffffffffffffffffffffffffffff16620004946200034d565b73ffffffffffffffffffffffffffffffffffffffff1614620004ed576040517f08c379a0000000000000000000000000000000000000000000000000000000008152600401620004e49062000e19565b60405180910390fd5b565b60008060009054906101000a900473ffffffffffffffffffffffffffffffffffffffff169050816000806101000a81548173ffffffffffffffffffffffffffffffffffffffff021916908373ffffffffffffffffffffffffffffffffffffffff1602179055508173ffffffffffffffffffffffffffffffffffffffff168173ffffffffffffffffffffffffffffffffffffffff167f8be0079c531659141344cd1fd0a4f28419497f9722a3daafe3b4186f6b6457e060405160405180910390a35050565b600033905090565b6142b78062000e3c83390190565b6000604051905090565b600080fd5b600080fd5b600080fd5b600080fd5b6000601f19601f8301169050919050565b7f4e487b7100000000000000000000000000000000000000000000000000000000600052604160045260246000fd5b6200063282620005e7565b810181811067ffffffffffffffff82111715620006545762000653620005f8565b5b80604052505050565b600062000669620005c9565b905062000677828262000627565b919050565b600067ffffffffffffffff8211156200069a5762000699620005f8565b5b620006a582620005e7565b9050602081019050919050565b82818337600083830152505050565b6000620006d8620006d2846200067c565b6200065d565b905082815260208101848484011115620006f757620006f6620005e2565b5b62000704848285620006b2565b509392505050565b600082601f830112620007245762000723620005dd565b5b813562000736848260208601620006c1565b91505092915050565b6000819050919050565b62000754816200073f565b81146200076057600080fd5b50565b600081359050620007748162000749565b92915050565b6000819050919050565b6200078f816200077a565b81146200079b57600080fd5b50565b600081359050620007af8162000784565b92915050565b600067ffffffffffffffff821115620007d357620007d2620005f8565b5b602082029050602081019050919050565b600080fd5b600062000800620007fa84620007b5565b6200065d565b90508083825260208201905060208402830185811115620008265762000825620007e4565b5b835b818110156200085357806200083e888262000763565b84526020840193505060208101905062000828565b5050509392505050565b600082601f830112620008755762000874620005dd565b5b813562000887848260208601620007e9565b91505092915050565b60008060008060008060008060006101208a8c031215620008b657620008b5620005d3565b5b60008a013567ffffffffffffffff811115620008d757620008d6620005d8565b5b620008e58c828d016200070c565b9950506020620008f88c828d0162000763565b98505060406200090b8c828d016200079e565b97505060606200091e8c828d016200079e565b9650506080620009318c828d016200079e565b95505060a0620009448c828d016200079e565b94505060c0620009578c828d016200079e565b93505060e08a013567ffffffffffffffff8111156200097b576200097a620005d8565b5b620009898c828d016200070c565b9250506101008a013567ffffffffffffffff811115620009ae57620009ad620005d8565b5b620009bc8c828d016200085d565b9150509295985092959850929598565b600073ffffffffffffffffffffffffffffffffffffffff82169050919050565b6000620009f982620009cc565b9050919050565b62000a0b81620009ec565b82525050565b600060208201905062000a28600083018462000a00565b92915050565b62000a3981620009ec565b811462000a4557600080fd5b50565b60008135905062000a598162000a2e565b92915050565b60006020828403121562000a785762000a77620005d3565b5b600062000a888482850162000a48565b91505092915050565b600081519050919050565b600082825260208201905092915050565b60005b8381101562000acd57808201518184015260208101905062000ab0565b8381111562000add576000848401525b50505050565b600062000af08262000a91565b62000afc818562000a9c565b935062000b0e81856020860162000aad565b62000b1981620005e7565b840191505092915050565b62000b2f816200073f565b82525050565b62000b40816200077a565b82525050565b600081519050919050565b600082825260208201905092915050565b6000819050602082019050919050565b62000b7d816200073f565b82525050565b600062000b91838362000b72565b60208301905092915050565b6000602082019050919050565b600062000bb78262000b46565b62000bc3818562000b51565b935062000bd08362000b62565b8060005b8381101562000c0757815162000beb888262000b83565b975062000bf88362000b9d565b92505060018101905062000bd4565b5085935050505092915050565b600061014082019050818103600083015262000c31818d62000ae3565b905062000c42602083018c62000b24565b62000c51604083018b62000b35565b62000c60606083018a62000b35565b62000c6f608083018962000b35565b62000c7e60a083018862000b35565b62000c8d60c083018762000b35565b81810360e083015262000ca1818662000ae3565b905081810361010083015262000cb8818562000baa565b905062000cca61012083018462000a00565b9b9a5050505050505050505050565b6000604082019050818103600083015262000cf5818562000ae3565b905062000d06602083018462000a00565b9392505050565b6000602082019050818103600083015262000d29818462000ae3565b905092915050565b7f4f776e61626c653a206e6577206f776e657220697320746865207a65726f206160008201527f6464726573730000000000000000000000000000000000000000000000000000602082015250565b600062000d8f60268362000a9c565b915062000d9c8262000d31565b604082019050919050565b6000602082019050818103600083015262000dc28162000d80565b9050919050565b7f4f776e61626c653a2063616c6c6572206973206e6f7420746865206f776e6572600082015250565b600062000e0160208362000a9c565b915062000e0e8262000dc9565b602082019050919050565b6000602082019050818103600083015262000e348162000df2565b905091905056fe60806040526002600b553480156200001657600080fd5b50604051620042b7380380620042b783398181016040528101906200003c9190620006f5565b6200005c62000050620001b560201b60201c565b620001bd60201b60201c565b60008060146101000a81548160ff02191690831515021790555085600a548862000087919062000877565b10620000ca576040517f08c379a0000000000000000000000000000000000000000000000000000000008152600401620000c1906200095b565b60405180910390fd5b8960016000019080519060200190620000e592919062000281565b508860018001819055508760016002018190555086600160030181905550426001600401819055508560016005018190555082600160060190805190602001906200013292919062000281565b5081600160070190805190602001906200014e92919062000312565b5080600960016101000a81548173ffffffffffffffffffffffffffffffffffffffff021916908373ffffffffffffffffffffffffffffffffffffffff16021790555042600f8190555084600d8190555083600e8190555050505050505050505050620009e2565b600033905090565b60008060009054906101000a900473ffffffffffffffffffffffffffffffffffffffff169050816000806101000a81548173ffffffffffffffffffffffffffffffffffffffff021916908373ffffffffffffffffffffffffffffffffffffffff1602179055508173ffffffffffffffffffffffffffffffffffffffff168173ffffffffffffffffffffffffffffffffffffffff167f8be0079c531659141344cd1fd0a4f28419497f9722a3daafe3b4186f6b6457e060405160405180910390a35050565b8280546200028f90620009ac565b90600052602060002090601f016020900481019282620002b35760008555620002ff565b82601f10620002ce57805160ff1916838001178555620002ff565b82800160010185558215620002ff579182015b82811115620002fe578251825591602001919060010190620002e1565b5b5090506200030e919062000364565b5090565b82805482825590600052602060002090810192821562000351579160200282015b828111156200035057825182559160200191906001019062000333565b5b50905062000360919062000383565b5090565b5b808211156200037f57600081600090555060010162000365565b5090565b5b808211156200039e57600081600090555060010162000384565b5090565b6000604051905090565b600080fd5b600080fd5b600080fd5b600080fd5b6000601f19601f8301169050919050565b7f4e487b7100000000000000000000000000000000000000000000000000000000600052604160045260246000fd5b6200040b82620003c0565b810181811067ffffffffffffffff821117156200042d576200042c620003d1565b5b80604052505050565b600062000442620003a2565b905062000450828262000400565b919050565b600067ffffffffffffffff821115620004735762000472620003d1565b5b6200047e82620003c0565b9050602081019050919050565b60005b83811015620004ab5780820151818401526020810190506200048e565b83811115620004bb576000848401525b50505050565b6000620004d8620004d28462000455565b62000436565b905082815260208101848484011115620004f757620004f6620003bb565b5b620005048482856200048b565b509392505050565b600082601f830112620005245762000523620003b6565b5b815162000536848260208601620004c1565b91505092915050565b6000819050919050565b62000554816200053f565b81146200056057600080fd5b50565b600081519050620005748162000549565b92915050565b6000819050919050565b6200058f816200057a565b81146200059b57600080fd5b50565b600081519050620005af8162000584565b92915050565b600067ffffffffffffffff821115620005d357620005d2620003d1565b5b602082029050602081019050919050565b600080fd5b600062000600620005fa84620005b5565b62000436565b90508083825260208201905060208402830185811115620006265762000625620005e4565b5b835b818110156200065357806200063e888262000563565b84526020840193505060208101905062000628565b5050509392505050565b600082601f830112620006755762000674620003b6565b5b815162000687848260208601620005e9565b91505092915050565b600073ffffffffffffffffffffffffffffffffffffffff82169050919050565b6000620006bd8262000690565b9050919050565b620006cf81620006b0565b8114620006db57600080fd5b50565b600081519050620006ef81620006c4565b92915050565b6000806000806000806000806000806101408b8d0312156200071c576200071b620003ac565b5b60008b015167ffffffffffffffff8111156200073d576200073c620003b1565b5b6200074b8d828e016200050c565b9a505060206200075e8d828e0162000563565b9950506040620007718d828e016200059e565b9850506060620007848d828e016200059e565b9750506080620007978d828e016200059e565b96505060a0620007aa8d828e016200059e565b95505060c0620007bd8d828e016200059e565b94505060e08b015167ffffffffffffffff811115620007e157620007e0620003b1565b5b620007ef8d828e016200050c565b9350506101008b015167ffffffffffffffff811115620008145762000813620003b1565b5b620008228d828e016200065d565b925050610120620008368d828e01620006de565b9150509295989b9194979a5092959850565b7f4e487b7100000000000000000000000000000000000000000000000000000000600052601160045260246000fd5b600062000884826200057a565b915062000891836200057a565b9250827fffffffffffffffffffffffffffffffffffffffffffffffffffffffffffffffff03821115620008c957620008c862000848565b5b828201905092915050565b600082825260208201905092915050565b7f43616d706169676e496e666f3a204d696e696d756d2063616d706169676e206460008201527f7561726174696f6e206e6f74206d657400000000000000000000000000000000602082015250565b600062000943603083620008d4565b91506200095082620008e5565b604082019050919050565b60006020820190508181036000830152620009768162000934565b9050919050565b7f4e487b7100000000000000000000000000000000000000000000000000000000600052602260045260246000fd5b60006002820490506001821680620009c557607f821691505b60208210811415620009dc57620009db6200097d565b5b50919050565b6138c580620009f26000396000f3fe608060405234801561001057600080fd5b50600436106101c45760003560e01c806383d23ab3116100f9578063c417633811610097578063f2fde38b11610071578063f2fde38b14610475578063f6b854ff14610491578063f8403676146104ad578063fb7846df146104cb576101c4565b8063c417633814610406578063e12900f214610429578063f18f409f14610459576101c4565b80638da5cb5b116100d35780638da5cb5b146103a45780639bd4dd3c146103c2578063a0797f75146103de578063b0e10c61146103fc576101c4565b806383d23ab31461034e5780638456cb591461036a57806384ea5c7414610374576101c4565b806349867312116101665780635c975abb116101405780635c975abb1461030057806360f67bc81461031e578063715018a61461033a5780637568173b14610344576101c4565b806349867312146102be5780634da7f432146102da57806355bf3112146102f6576101c4565b806330c00b00116101a257806330c00b001461023557806332a8e0341461026557806333a06c81146102965780633f4ba83a146102b4576101c4565b8063026d7cfd146101c95780632e162db6146101e75780632ee8ebf714610205575b600080fd5b6101d16104fb565b6040516101de919061294a565b60405180910390f35b6101ef610500565b6040516101fc9190612a2d565b60405180910390f35b61021f600480360381019061021a9190612be8565b61055b565b60405161022c9190612d02565b60405180910390f35b61024f600480360381019061024a9190612d50565b61062c565b60405161025c919061294a565b60405180910390f35b61027f600480360381019061027a9190612d7d565b6107c9565b60405161028d929190612e00565b60405180910390f35b61029e61083d565b6040516102ab919061294a565b60405180910390f35b6102bc610b06565b005b6102d860048036038101906102d39190612e8e565b610be7565b005b6102f460048036038101906102ef9190612ef5565b610dba565b005b6102fe610ebc565b005b6103086111ee565b6040516103159190612f3d565b60405180910390f35b61033860048036038101906103339190612f58565b611204565b005b6103426113c9565b005b61034c6113dd565b005b61036860048036038101906103639190612d50565b6115f7565b005b6103726116fd565b005b61038e60048036038101906103899190612d50565b6117de565b60405161039b9190612fba565b60405180910390f35b6103ac6118c0565b6040516103b99190612fba565b60405180910390f35b6103dc60048036038101906103d79190612ef5565b6118e9565b005b6103e66119eb565b6040516103f39190612fe4565b60405180910390f35b6104046119f7565b005b61040e611d29565b60405161042096959493929190613087565b60405180910390f35b610443600480360381019061043e91906130f6565b611e81565b604051610450919061294a565b60405180910390f35b610473600480360381019061046e9190612ef5565b611edc565b005b61048f600480360381019061048a9190613136565b611fc0565b005b6104ab60048036038101906104a69190613163565b612044565b005b6104b56121c6565b6040516104c2919061294a565b60405180910390f35b6104e560048036038101906104e09190612d50565b61252f565b6040516104f2919061294a565b60405180910390f35b600090565b6060600160070180548060200260200160405190810160405280929190818152602001828054801561055157602002820191906000526020600020905b81548152602001906001019080831161053d575b5050505050905090565b606060008251905060008167ffffffffffffffff81111561057f5761057e612aa5565b5b6040519080825280602002602001820160405280156105ad5781602001602082028036833780820191505090505b50905060005b8281101561062057612710868683815181106105d2576105d16131a3565b5b60200260200101516105e49190613201565b6105ee919061328a565b828281518110610601576106006131a3565b5b6020026020010181815250508080610618906132bb565b9150506105b3565b50809250505092915050565b600081600073ffffffffffffffffffffffffffffffffffffffff166010600083815260200190815260200160002060009054906101000a900473ffffffffffffffffffffffffffffffffffffffff1673ffffffffffffffffffffffffffffffffffffffff1614156106d2576040517f08c379a00000000000000000000000000000000000000000000000000000000081526004016106c990613376565b60405180910390fd5b6011600084815260200190815260200160002060009054906101000a900473ffffffffffffffffffffffffffffffffffffffff1673ffffffffffffffffffffffffffffffffffffffff166370a082316010600086815260200190815260200160002060009054906101000a900473ffffffffffffffffffffffffffffffffffffffff166040518263ffffffff1660e01b81526004016107719190612fba565b60206040518083038186803b15801561078957600080fd5b505afa15801561079d573d6000803e3d6000fd5b505050506040513d601f19601f820116820180604052508101906107c191906133ab565b915050919050565b6000606060008351905060006001826107e291906133d8565b87896107ee919061342e565b6107f8919061328a565b90506000612710828961080b91906133d8565b886108169190613201565b610820919061328a565b90508061082d838861055b565b9450945050505094509492505050565b600080601060006001800154815260200190815260200160002060009054906101000a900473ffffffffffffffffffffffffffffffffffffffff169050600073ffffffffffffffffffffffffffffffffffffffff168173ffffffffffffffffffffffffffffffffffffffff1614156108ea576040517f08c379a00000000000000000000000000000000000000000000000000000000081526004016108e1906134d4565b60405180910390fd5b6000600160070180548060200260200160405190810160405280929190818152602001828054801561093b57602002820191906000526020600020905b815481526020019060010190808311610927575b5050505050905060008151905060008373ffffffffffffffffffffffffffffffffffffffff1663186bc5496040518163ffffffff1660e01b815260040160206040518083038186803b15801561099057600080fd5b505afa1580156109a4573d6000803e3d6000fd5b505050506040513d601f19601f820116820180604052508101906109c891906133ab565b905060005b82811015610afb576000601060008684815181106109ee576109ed6131a3565b5b6020026020010151815260200190815260200160002060009054906101000a900473ffffffffffffffffffffffffffffffffffffffff169050600073ffffffffffffffffffffffffffffffffffffffff168173ffffffffffffffffffffffffffffffffffffffff1614610ae7578073ffffffffffffffffffffffffffffffffffffffff1663186bc5496040518163ffffffff1660e01b815260040160206040518083038186803b158015610aa157600080fd5b505afa158015610ab5573d6000803e3d6000fd5b505050506040513d601f19601f82011682018060405250810190610ad991906133ab565b83610ae491906133d8565b92505b508080610af3906132bb565b9150506109cd565b508094505050505090565b600960019054906101000a900473ffffffffffffffffffffffffffffffffffffffff1673ffffffffffffffffffffffffffffffffffffffff16638da5cb5b6040518163ffffffff1660e01b815260040160206040518083038186803b158015610b6e57600080fd5b505afa158015610b82573d6000803e3d6000fd5b505050506040513d601f19601f82011682018060405250810190610ba69190613509565b73ffffffffffffffffffffffffffffffffffffffff163373ffffffffffffffffffffffffffffffffffffffff1614610bdd57600080fd5b610be5612627565b565b600960019054906101000a900473ffffffffffffffffffffffffffffffffffffffff1673ffffffffffffffffffffffffffffffffffffffff16638da5cb5b6040518163ffffffff1660e01b815260040160206040518083038186803b158015610c4f57600080fd5b505afa158015610c63573d6000803e3d6000fd5b505050506040513d601f19601f82011682018060405250810190610c879190613509565b73ffffffffffffffffffffffffffffffffffffffff163373ffffffffffffffffffffffffffffffffffffffff1614610cbe57600080fd5b826012600086815260200190815260200160002060006101000a81548173ffffffffffffffffffffffffffffffffffffffff021916908373ffffffffffffffffffffffffffffffffffffffff160217905550816010600086815260200190815260200160002060006101000a81548173ffffffffffffffffffffffffffffffffffffffff021916908373ffffffffffffffffffffffffffffffffffffffff160217905550806011600086815260200190815260200160002060006101000a81548173ffffffffffffffffffffffffffffffffffffffff021916908373ffffffffffffffffffffffffffffffffffffffff16021790555050505050565b600960019054906101000a900473ffffffffffffffffffffffffffffffffffffffff1673ffffffffffffffffffffffffffffffffffffffff16638da5cb5b6040518163ffffffff1660e01b815260040160206040518083038186803b158015610e2257600080fd5b505afa158015610e36573d6000803e3d6000fd5b505050506040513d601f19601f82011682018060405250810190610e5a9190613509565b73ffffffffffffffffffffffffffffffffffffffff163373ffffffffffffffffffffffffffffffffffffffff1614610e9157600080fd5b600160050154600a5482610ea591906133d8565b10610eaf57600080fd5b8060016003018190555050565b600960159054906101000a900460ff16610f0b576040517f08c379a0000000000000000000000000000000000000000000000000000000008152600401610f02906135a8565b60405180910390fd5b6000600d5490506000600e5490506000610f26600c5461062c565b905060006001600701805480602002602001604051908101604052809291908181526020018280548015610f7957602002820191906000526020600020905b815481526020019060010190808311610f65575b505050505090506000815167ffffffffffffffff811115610f9d57610f9c612aa5565b5b604051908082528060200260200182016040528015610fcb5781602001602082028036833780820191505090505b5090506000600180015490506000835167ffffffffffffffff811115610ff457610ff3612aa5565b5b6040519080825280602002602001820160405280156110225781602001602082028036833780820191505090505b50905081600c5414156110965760005b84518110156110905761105e858281518110611051576110506131a3565b5b602002602001015161062c565b848281518110611071576110706131a3565b5b6020026020010181815250508080611088906132bb565b915050611032565b506111ba565b60006110a18361062c565b8482815181106110b4576110b36131a3565b5b602002602001018181525050828282815181106110d4576110d36131a3565b5b602002602001018181525050600190505b845181116111b857600c54856001836110fe919061342e565b8151811061110f5761110e6131a3565b5b6020026020010151146111a5578460018261112a919061342e565b8151811061113b5761113a6131a3565b5b6020026020010151828281518110611156576111556131a3565b5b602002602001018181525050611185858281518110611178576111776131a3565b5b602002602001015161062c565b848281518110611198576111976131a3565b5b6020026020010181815250505b80806111b0906132bb565b9150506110e5565b505b6000806111c9898989886107c9565b915091506111d9600c5483612044565b6111e38382612689565b505050505050505050565b60008060149054906101000a900460ff16905090565b61120c6126f1565b600960159054906101000a900460ff161580156112435750600b54600160020154611237919061328a565b6112408461062c565b10155b80156112515750600f544210155b15611279576001600960156101000a81548160ff02191690831515021790555082600c819055505b6011600084815260200190815260200160002060009054906101000a900473ffffffffffffffffffffffffffffffffffffffff1673ffffffffffffffffffffffffffffffffffffffff166323b872dd836010600087815260200190815260200160002060009054906101000a900473ffffffffffffffffffffffffffffffffffffffff16846040518463ffffffff1660e01b815260040161131c939291906135c8565b602060405180830381600087803b15801561133657600080fd5b505af115801561134a573d6000803e3d6000fd5b505050506040513d601f19601f8201168201806040525081019061136e919061362b565b5080601360008473ffffffffffffffffffffffffffffffffffffffff1673ffffffffffffffffffffffffffffffffffffffff168152602001908152602001600020600085815260200190815260200160002081905550505050565b6113d161273b565b6113db60006127b9565b565b6000600160070180548060200260200160405190810160405280929190818152602001828054801561142e57602002820191906000526020600020905b81548152602001906001019080831161141a575b5050505050905060006001825161144591906133d8565b67ffffffffffffffff81111561145e5761145d612aa5565b5b60405190808252806020026020018201604052801561148c5781602001602082028036833780820191505090505b50905060006001835161149f91906133d8565b67ffffffffffffffff8111156114b8576114b7612aa5565b5b6040519080825280602002602001820160405280156114e65781602001602082028036833780820191505090505b50905060005b835181101561158457838181518110611508576115076131a3565b5b6020026020010151838281518110611523576115226131a3565b5b602002602001018181525050611552848281518110611545576115446131a3565b5b602002602001015161062c565b828281518110611565576115646131a3565b5b602002602001018181525050808061157c906132bb565b9150506114ec565b5060018001548284518151811061159e5761159d6131a3565b5b6020026020010181815250506115b7600180015461062c565b818451815181106115cb576115ca6131a3565b5b60200260200101818152505060006115e5600d548361055b565b90506115f18382612689565b50505050565b600960019054906101000a900473ffffffffffffffffffffffffffffffffffffffff1673ffffffffffffffffffffffffffffffffffffffff16638da5cb5b6040518163ffffffff1660e01b815260040160206040518083038186803b15801561165f57600080fd5b505afa158015611673573d6000803e3d6000fd5b505050506040513d601f19601f820116820180604052508101906116979190613509565b73ffffffffffffffffffffffffffffffffffffffff163373ffffffffffffffffffffffffffffffffffffffff16146116ce57600080fd5b600160070181908060018154018082558091505060019003906000526020600020016000909190919091505550565b600960019054906101000a900473ffffffffffffffffffffffffffffffffffffffff1673ffffffffffffffffffffffffffffffffffffffff16638da5cb5b6040518163ffffffff1660e01b815260040160206040518083038186803b15801561176557600080fd5b505afa158015611779573d6000803e3d6000fd5b505050506040513d601f19601f8201168201806040525081019061179d9190613509565b73ffffffffffffffffffffffffffffffffffffffff163373ffffffffffffffffffffffffffffffffffffffff16146117d457600080fd5b6117dc61287d565b565b600081600073ffffffffffffffffffffffffffffffffffffffff166010600083815260200190815260200160002060009054906101000a900473ffffffffffffffffffffffffffffffffffffffff1673ffffffffffffffffffffffffffffffffffffffff161415611884576040517f08c379a000000000000000000000000000000000000000000000000000000000815260040161187b90613376565b60405180910390fd5b6010600084815260200190815260200160002060009054906101000a900473ffffffffffffffffffffffffffffffffffffffff16915050919050565b60008060009054906101000a900473ffffffffffffffffffffffffffffffffffffffff16905090565b600960019054906101000a900473ffffffffffffffffffffffffffffffffffffffff1673ffffffffffffffffffffffffffffffffffffffff16638da5cb5b6040518163ffffffff1660e01b815260040160206040518083038186803b15801561195157600080fd5b505afa158015611965573d6000803e3d6000fd5b505050506040513d601f19601f820116820180604052508101906119899190613509565b73ffffffffffffffffffffffffffffffffffffffff163373ffffffffffffffffffffffffffffffffffffffff16146119c057600080fd5b80600a546001600301546119d491906133d8565b106119de57600080fd5b8060016005018190555050565b60006001800154905090565b600960159054906101000a900460ff16611a46576040517f08c379a0000000000000000000000000000000000000000000000000000000008152600401611a3d906135a8565b60405180910390fd5b6000600d5490506000600e5490506000611a61600c5461062c565b905060006001600701805480602002602001604051908101604052809291908181526020018280548015611ab457602002820191906000526020600020905b815481526020019060010190808311611aa0575b505050505090506000815167ffffffffffffffff811115611ad857611ad7612aa5565b5b604051908082528060200260200182016040528015611b065781602001602082028036833780820191505090505b5090506000600180015490506000835167ffffffffffffffff811115611b2f57611b2e612aa5565b5b604051908082528060200260200182016040528015611b5d5781602001602082028036833780820191505090505b50905081600c541415611bd15760005b8451811015611bcb57611b99858281518110611b8c57611b8b6131a3565b5b602002602001015161062c565b848281518110611bac57611bab6131a3565b5b6020026020010181815250508080611bc3906132bb565b915050611b6d565b50611cf5565b6000611bdc8361062c565b848281518110611bef57611bee6131a3565b5b60200260200101818152505082828281518110611c0f57611c0e6131a3565b5b602002602001018181525050600190505b84518111611cf357600c5485600183611c39919061342e565b81518110611c4a57611c496131a3565b5b602002602001015114611ce05784600182611c65919061342e565b81518110611c7657611c756131a3565b5b6020026020010151828281518110611c9157611c906131a3565b5b602002602001018181525050611cc0858281518110611cb357611cb26131a3565b5b602002602001015161062c565b848281518110611cd357611cd26131a3565b5b6020026020010181815250505b8080611ceb906132bb565b915050611c20565b505b600080611d04898989886107c9565b91509150611d14600c5483612044565b611d1e8382612689565b505050505050505050565b6060600080600080606060016000016001600201546001600301546001600401546001600501546001600601858054611d6190613687565b80601f0160208091040260200160405190810160405280929190818152602001828054611d8d90613687565b8015611dda5780601f10611daf57610100808354040283529160200191611dda565b820191906000526020600020905b815481529060010190602001808311611dbd57829003601f168201915b50505050509550808054611ded90613687565b80601f0160208091040260200160405190810160405280929190818152602001828054611e1990613687565b8015611e665780601f10611e3b57610100808354040283529160200191611e66565b820191906000526020600020905b815481529060010190602001808311611e4957829003601f168201915b50505050509050955095509550955095509550909192939495565b6000601360008473ffffffffffffffffffffffffffffffffffffffff1673ffffffffffffffffffffffffffffffffffffffff168152602001908152602001600020600083815260200190815260200160002054905092915050565b600960019054906101000a900473ffffffffffffffffffffffffffffffffffffffff1673ffffffffffffffffffffffffffffffffffffffff16638da5cb5b6040518163ffffffff1660e01b815260040160206040518083038186803b158015611f4457600080fd5b505afa158015611f58573d6000803e3d6000fd5b505050506040513d601f19601f82011682018060405250810190611f7c9190613509565b73ffffffffffffffffffffffffffffffffffffffff163373ffffffffffffffffffffffffffffffffffffffff1614611fb357600080fd5b8060016002018190555050565b611fc861273b565b600073ffffffffffffffffffffffffffffffffffffffff168173ffffffffffffffffffffffffffffffffffffffff161415612038576040517f08c379a000000000000000000000000000000000000000000000000000000000815260040161202f9061372b565b60405180910390fd5b612041816127b9565b50565b6000811180156120b45750600073ffffffffffffffffffffffffffffffffffffffff166010600084815260200190815260200160002060009054906101000a900473ffffffffffffffffffffffffffffffffffffffff1673ffffffffffffffffffffffffffffffffffffffff1614155b156121c2576010600083815260200190815260200160002060009054906101000a900473ffffffffffffffffffffffffffffffffffffffff1673ffffffffffffffffffffffffffffffffffffffff166360a56b3a6012600085815260200190815260200160002060009054906101000a900473ffffffffffffffffffffffffffffffffffffffff166011600086815260200190815260200160002060009054906101000a900473ffffffffffffffffffffffffffffffffffffffff16846040518463ffffffff1660e01b815260040161218f939291906135c8565b600060405180830381600087803b1580156121a957600080fd5b505af11580156121bd573d6000803e3d6000fd5b505050505b5050565b600080601060006001800154815260200190815260200160002060009054906101000a900473ffffffffffffffffffffffffffffffffffffffff169050600073ffffffffffffffffffffffffffffffffffffffff168173ffffffffffffffffffffffffffffffffffffffff161415612273576040517f08c379a000000000000000000000000000000000000000000000000000000000815260040161226a906134d4565b60405180910390fd5b600060016007018054806020026020016040519081016040528092919081815260200182805480156122c457602002820191906000526020600020905b8154815260200190600101908083116122b0575b505050505090506000815190506000601160006001800154815260200190815260200160002060009054906101000a900473ffffffffffffffffffffffffffffffffffffffff1673ffffffffffffffffffffffffffffffffffffffff166370a08231856040518263ffffffff1660e01b81526004016123439190612fba565b60206040518083038186803b15801561235b57600080fd5b505afa15801561236f573d6000803e3d6000fd5b505050506040513d601f19601f8201168201806040525081019061239391906133ab565b905060005b82811015612524576000601060008684815181106123b9576123b86131a3565b5b6020026020010151815260200190815260200160002060009054906101000a900473ffffffffffffffffffffffffffffffffffffffff16905060006011600087858151811061240b5761240a6131a3565b5b6020026020010151815260200190815260200160002060009054906101000a900473ffffffffffffffffffffffffffffffffffffffff169050600073ffffffffffffffffffffffffffffffffffffffff168273ffffffffffffffffffffffffffffffffffffffff161461250f578073ffffffffffffffffffffffffffffffffffffffff166370a08231836040518263ffffffff1660e01b81526004016124b19190612fba565b60206040518083038186803b1580156124c957600080fd5b505afa1580156124dd573d6000803e3d6000fd5b505050506040513d601f19601f8201168201806040525081019061250191906133ab565b8461250c91906133d8565b93505b5050808061251c906132bb565b915050612398565b508094505050505090565b60006011600083815260200190815260200160002060009054906101000a900473ffffffffffffffffffffffffffffffffffffffff1673ffffffffffffffffffffffffffffffffffffffff166370a082316010600085815260200190815260200160002060009054906101000a900473ffffffffffffffffffffffffffffffffffffffff166040518263ffffffff1660e01b81526004016125d09190612fba565b60206040518083038186803b1580156125e857600080fd5b505afa1580156125fc573d6000803e3d6000fd5b505050506040513d601f19601f8201168201806040525081019061262091906133ab565b9050919050565b61262f6128e0565b60008060146101000a81548160ff0219169083151502179055507f5db9ee0a495bf2e6ff9c91a7834c1ba4fdd244a5e8aa4e537bd38aeae4b073aa612672612929565b60405161267f9190612fba565b60405180910390a1565b60008251905060005b818110156126eb576126d88482815181106126b0576126af6131a3565b5b60200260200101518483815181106126cb576126ca6131a3565b5b6020026020010151612044565b80806126e3906132bb565b915050612692565b50505050565b6126f96111ee565b15612739576040517f08c379a000000000000000000000000000000000000000000000000000000000815260040161273090613797565b60405180910390fd5b565b612743612929565b73ffffffffffffffffffffffffffffffffffffffff166127616118c0565b73ffffffffffffffffffffffffffffffffffffffff16146127b7576040517f08c379a00000000000000000000000000000000000000000000000000000000081526004016127ae90613803565b60405180910390fd5b565b60008060009054906101000a900473ffffffffffffffffffffffffffffffffffffffff169050816000806101000a81548173ffffffffffffffffffffffffffffffffffffffff021916908373ffffffffffffffffffffffffffffffffffffffff1602179055508173ffffffffffffffffffffffffffffffffffffffff168173ffffffffffffffffffffffffffffffffffffffff167f8be0079c531659141344cd1fd0a4f28419497f9722a3daafe3b4186f6b6457e060405160405180910390a35050565b6128856126f1565b6001600060146101000a81548160ff0219169083151502179055507f62e78cea01bee320cd4e420270b5ea74000d11b0c9f74754ebdbfc544b05a2586128c9612929565b6040516128d69190612fba565b60405180910390a1565b6128e86111ee565b612927576040517f08c379a000000000000000000000000000000000000000000000000000000000815260040161291e9061386f565b60405180910390fd5b565b600033905090565b6000819050919050565b61294481612931565b82525050565b600060208201905061295f600083018461293b565b92915050565b600081519050919050565b600082825260208201905092915050565b6000819050602082019050919050565b6000819050919050565b6129a481612991565b82525050565b60006129b6838361299b565b60208301905092915050565b6000602082019050919050565b60006129da82612965565b6129e48185612970565b93506129ef83612981565b8060005b83811015612a20578151612a0788826129aa565b9750612a12836129c2565b9250506001810190506129f3565b5085935050505092915050565b60006020820190508181036000830152612a4781846129cf565b905092915050565b6000604051905090565b600080fd5b600080fd5b612a6c81612931565b8114612a7757600080fd5b50565b600081359050612a8981612a63565b92915050565b600080fd5b6000601f19601f8301169050919050565b7f4e487b7100000000000000000000000000000000000000000000000000000000600052604160045260246000fd5b612add82612a94565b810181811067ffffffffffffffff82111715612afc57612afb612aa5565b5b80604052505050565b6000612b0f612a4f565b9050612b1b8282612ad4565b919050565b600067ffffffffffffffff821115612b3b57612b3a612aa5565b5b602082029050602081019050919050565b600080fd5b6000612b64612b5f84612b20565b612b05565b90508083825260208201905060208402830185811115612b8757612b86612b4c565b5b835b81811015612bb05780612b9c8882612a7a565b845260208401935050602081019050612b89565b5050509392505050565b600082601f830112612bcf57612bce612a8f565b5b8135612bdf848260208601612b51565b91505092915050565b60008060408385031215612bff57612bfe612a59565b5b6000612c0d85828601612a7a565b925050602083013567ffffffffffffffff811115612c2e57612c2d612a5e565b5b612c3a85828601612bba565b9150509250929050565b600081519050919050565b600082825260208201905092915050565b6000819050602082019050919050565b612c7981612931565b82525050565b6000612c8b8383612c70565b60208301905092915050565b6000602082019050919050565b6000612caf82612c44565b612cb98185612c4f565b9350612cc483612c60565b8060005b83811015612cf5578151612cdc8882612c7f565b9750612ce783612c97565b925050600181019050612cc8565b5085935050505092915050565b60006020820190508181036000830152612d1c8184612ca4565b905092915050565b612d2d81612991565b8114612d3857600080fd5b50565b600081359050612d4a81612d24565b92915050565b600060208284031215612d6657612d65612a59565b5b6000612d7484828501612d3b565b91505092915050565b60008060008060808587031215612d9757612d96612a59565b5b6000612da587828801612a7a565b9450506020612db687828801612a7a565b9350506040612dc787828801612a7a565b925050606085013567ffffffffffffffff811115612de857612de7612a5e565b5b612df487828801612bba565b91505092959194509250565b6000604082019050612e15600083018561293b565b8181036020830152612e278184612ca4565b90509392505050565b600073ffffffffffffffffffffffffffffffffffffffff82169050919050565b6000612e5b82612e30565b9050919050565b612e6b81612e50565b8114612e7657600080fd5b50565b600081359050612e8881612e62565b92915050565b60008060008060808587031215612ea857612ea7612a59565b5b6000612eb687828801612d3b565b9450506020612ec787828801612e79565b9350506040612ed887828801612e79565b9250506060612ee987828801612e79565b91505092959194509250565b600060208284031215612f0b57612f0a612a59565b5b6000612f1984828501612a7a565b91505092915050565b60008115159050919050565b612f3781612f22565b82525050565b6000602082019050612f526000830184612f2e565b92915050565b600080600060608486031215612f7157612f70612a59565b5b6000612f7f86828701612d3b565b9350506020612f9086828701612e79565b9250506040612fa186828701612a7a565b9150509250925092565b612fb481612e50565b82525050565b6000602082019050612fcf6000830184612fab565b92915050565b612fde81612991565b82525050565b6000602082019050612ff96000830184612fd5565b92915050565b600081519050919050565b600082825260208201905092915050565b60005b8381101561303957808201518184015260208101905061301e565b83811115613048576000848401525b50505050565b600061305982612fff565b613063818561300a565b935061307381856020860161301b565b61307c81612a94565b840191505092915050565b600060c08201905081810360008301526130a1818961304e565b90506130b0602083018861293b565b6130bd604083018761293b565b6130ca606083018661293b565b6130d7608083018561293b565b81810360a08301526130e9818461304e565b9050979650505050505050565b6000806040838503121561310d5761310c612a59565b5b600061311b85828601612e79565b925050602061312c85828601612d3b565b9150509250929050565b60006020828403121561314c5761314b612a59565b5b600061315a84828501612e79565b91505092915050565b6000806040838503121561317a57613179612a59565b5b600061318885828601612d3b565b925050602061319985828601612a7a565b9150509250929050565b7f4e487b7100000000000000000000000000000000000000000000000000000000600052603260045260246000fd5b7f4e487b7100000000000000000000000000000000000000000000000000000000600052601160045260246000fd5b600061320c82612931565b915061321783612931565b9250817fffffffffffffffffffffffffffffffffffffffffffffffffffffffffffffffff04831182151516156132505761324f6131d2565b5b828202905092915050565b7f4e487b7100000000000000000000000000000000000000000000000000000000600052601260045260246000fd5b600061329582612931565b91506132a083612931565b9250826132b0576132af61325b565b5b828204905092915050565b60006132c682612931565b91507fffffffffffffffffffffffffffffffffffffffffffffffffffffffffffffffff8214156132f9576132f86131d2565b5b600182019050919050565b7f43616d706169676e496e666f3a2054726561737572792061646472657373206660008201527f6f7220706c6174666f726d206973206e6f742073657400000000000000000000602082015250565b600061336060368361300a565b915061336b82613304565b604082019050919050565b6000602082019050818103600083015261338f81613353565b9050919050565b6000815190506133a581612a63565b92915050565b6000602082840312156133c1576133c0612a59565b5b60006133cf84828501613396565b91505092915050565b60006133e382612931565b91506133ee83612931565b9250827fffffffffffffffffffffffffffffffffffffffffffffffffffffffffffffffff03821115613423576134226131d2565b5b828201905092915050565b600061343982612931565b915061344483612931565b925082821015613457576134566131d2565b5b828203905092915050565b7f43616d706169676e496e666f3a204f726967696e20706c6174666f726d20747260008201527f656173757279206e6f7420736574207965740000000000000000000000000000602082015250565b60006134be60328361300a565b91506134c982613462565b604082019050919050565b600060208201905081810360008301526134ed816134b1565b9050919050565b60008151905061350381612e62565b92915050565b60006020828403121561351f5761351e612a59565b5b600061352d848285016134f4565b91505092915050565b7f43616d706169676e496e666f3a2052657761726420706c6174666f726d206e6f60008201527f7420736574207965740000000000000000000000000000000000000000000000602082015250565b600061359260298361300a565b915061359d82613536565b604082019050919050565b600060208201905081810360008301526135c181613585565b9050919050565b60006060820190506135dd6000830186612fab565b6135ea6020830185612fab565b6135f7604083018461293b565b949350505050565b61360881612f22565b811461361357600080fd5b50565b600081519050613625816135ff565b92915050565b60006020828403121561364157613640612a59565b5b600061364f84828501613616565b91505092915050565b7f4e487b7100000000000000000000000000000000000000000000000000000000600052602260045260246000fd5b6000600282049050600182168061369f57607f821691505b602082108114156136b3576136b2613658565b5b50919050565b7f4f776e61626c653a206e6577206f776e657220697320746865207a65726f206160008201527f6464726573730000000000000000000000000000000000000000000000000000602082015250565b600061371560268361300a565b9150613720826136b9565b604082019050919050565b6000602082019050818103600083015261374481613708565b9050919050565b7f5061757361626c653a2070617573656400000000000000000000000000000000600082015250565b600061378160108361300a565b915061378c8261374b565b602082019050919050565b600060208201905081810360008301526137b081613774565b9050919050565b7f4f776e61626c653a2063616c6c6572206973206e6f7420746865206f776e6572600082015250565b60006137ed60208361300a565b91506137f8826137b7565b602082019050919050565b6000602082019050818103600083015261381c816137e0565b9050919050565b7f5061757361626c653a206e6f7420706175736564000000000000000000000000600082015250565b600061385960148361300a565b915061386482613823565b602082019050919050565b600060208201905081810360008301526138888161384c565b905091905056fea2646970667358221220eb0ec322d6794b6724fecc9e451dac8e2a6d0b0790dcfa30dbeb91c2b5a7655264736f6c63430008090033a26469706673582212204a9323e10400940ebcec1e46e43216a3d2791b36f736aede5c38d912ae795b0f64736f6c63430008090033","opcodes":"PUSH1 0x80 PUSH1 0x40 MSTORE CALLVALUE DUP1 ISZERO PUSH2 0x10 JUMPI PUSH1 0x0 DUP1 REVERT JUMPDEST POP PUSH2 0x2D PUSH2 0x22 PUSH2 0x32 PUSH1 0x20 SHL PUSH1 0x20 SHR JUMP JUMPDEST PUSH2 0x3A PUSH1 0x20 SHL PUSH1 0x20 SHR JUMP JUMPDEST PUSH2 0xFE JUMP JUMPDEST PUSH1 0x0 CALLER SWAP1 POP SWAP1 JUMP JUMPDEST PUSH1 0x0 DUP1 PUSH1 0x0 SWAP1 SLOAD SWAP1 PUSH2 0x100 EXP SWAP1 DIV PUSH20 0xFFFFFFFFFFFFFFFFFFFFFFFFFFFFFFFFFFFFFFFF AND SWAP1 POP DUP2 PUSH1 0x0 DUP1 PUSH2 0x100 EXP DUP2 SLOAD DUP2 PUSH20 0xFFFFFFFFFFFFFFFFFFFFFFFFFFFFFFFFFFFFFFFF MUL NOT AND SWAP1 DUP4 PUSH20 0xFFFFFFFFFFFFFFFFFFFFFFFFFFFFFFFFFFFFFFFF AND MUL OR SWAP1 SSTORE POP DUP2 PUSH20 0xFFFFFFFFFFFFFFFFFFFFFFFFFFFFFFFFFFFFFFFF AND DUP2 PUSH20 0xFFFFFFFFFFFFFFFFFFFFFFFFFFFFFFFFFFFFFFFF AND PUSH32 0x8BE0079C531659141344CD1FD0A4F28419497F9722A3DAAFE3B4186F6B6457E0 PUSH1 0x40 MLOAD PUSH1 0x40 MLOAD DUP1 SWAP2 SUB SWAP1 LOG3 POP POP JUMP JUMPDEST PUSH2 0x5128 DUP1 PUSH2 0x10D PUSH1 0x0 CODECOPY PUSH1 0x0 RETURN INVALID PUSH1 0x80 PUSH1 0x40 MSTORE CALLVALUE DUP1 ISZERO PUSH3 0x11 JUMPI PUSH1 0x0 DUP1 REVERT JUMPDEST POP PUSH1 0x4 CALLDATASIZE LT PUSH3 0x5E JUMPI PUSH1 0x0 CALLDATALOAD PUSH1 0xE0 SHR DUP1 PUSH4 0x537D148A EQ PUSH3 0x63 JUMPI DUP1 PUSH4 0x715018A6 EQ PUSH3 0x83 JUMPI DUP1 PUSH4 0x8DA5CB5B EQ PUSH3 0x8F JUMPI DUP1 PUSH4 0xA91EE0DC EQ PUSH3 0xB1 JUMPI DUP1 PUSH4 0xF2FDE38B EQ PUSH3 0xD1 JUMPI JUMPDEST PUSH1 0x0 DUP1 REVERT JUMPDEST PUSH3 0x81 PUSH1 0x4 DUP1 CALLDATASIZE SUB DUP2 ADD SWAP1 PUSH3 0x7B SWAP2 SWAP1 PUSH3 0x890 JUMP JUMPDEST PUSH3 0xF1 JUMP JUMPDEST STOP JUMPDEST PUSH3 0x8D PUSH3 0x335 JUMP JUMPDEST STOP JUMPDEST PUSH3 0x99 PUSH3 0x34D JUMP JUMPDEST PUSH1 0x40 MLOAD PUSH3 0xA8 SWAP2 SWAP1 PUSH3 0xA11 JUMP JUMPDEST PUSH1 0x40 MLOAD DUP1 SWAP2 SUB SWAP1 RETURN JUMPDEST PUSH3 0xCF PUSH1 0x4 DUP1 CALLDATASIZE SUB DUP2 ADD SWAP1 PUSH3 0xC9 SWAP2 SWAP1 PUSH3 0xA5F JUMP JUMPDEST PUSH3 0x376 JUMP JUMPDEST STOP JUMPDEST PUSH3 0xEF PUSH1 0x4 DUP1 CALLDATASIZE SUB DUP2 ADD SWAP1 PUSH3 0xE9 SWAP2 SWAP1 PUSH3 0xA5F JUMP JUMPDEST PUSH3 0x3DF JUMP JUMPDEST STOP JUMPDEST PUSH3 0xFB PUSH3 0x46A JUMP JUMPDEST PUSH1 0x2 PUSH1 0x14 SWAP1 SLOAD SWAP1 PUSH2 0x100 EXP SWAP1 DIV PUSH1 0xFF AND PUSH3 0x115 JUMPI PUSH1 0x0 DUP1 REVERT JUMPDEST DUP9 DUP9 DUP9 DUP9 DUP9 DUP9 DUP9 DUP9 DUP9 PUSH1 0x2 PUSH1 0x0 SWAP1 SLOAD SWAP1 PUSH2 0x100 EXP SWAP1 DIV PUSH20 0xFFFFFFFFFFFFFFFFFFFFFFFFFFFFFFFFFFFFFFFF AND PUSH1 0x40 MLOAD PUSH3 0x14F SWAP1 PUSH3 0x5BB JUMP JUMPDEST PUSH3 0x164 SWAP11 SWAP10 SWAP9 SWAP8 SWAP7 SWAP6 SWAP5 SWAP4 SWAP3 SWAP2 SWAP1 PUSH3 0xC14 JUMP JUMPDEST PUSH1 0x40 MLOAD DUP1 SWAP2 SUB SWAP1 PUSH1 0x0 CREATE DUP1 ISZERO DUP1 ISZERO PUSH3 0x181 JUMPI RETURNDATASIZE PUSH1 0x0 DUP1 RETURNDATACOPY RETURNDATASIZE PUSH1 0x0 REVERT JUMPDEST POP PUSH1 0x1 PUSH1 0x0 PUSH2 0x100 EXP DUP2 SLOAD DUP2 PUSH20 0xFFFFFFFFFFFFFFFFFFFFFFFFFFFFFFFFFFFFFFFF MUL NOT AND SWAP1 DUP4 PUSH20 0xFFFFFFFFFFFFFFFFFFFFFFFFFFFFFFFFFFFFFFFF AND MUL OR SWAP1 SSTORE POP PUSH1 0x0 PUSH20 0xFFFFFFFFFFFFFFFFFFFFFFFFFFFFFFFFFFFFFFFF AND PUSH1 0x1 PUSH1 0x0 SWAP1 SLOAD SWAP1 PUSH2 0x100 EXP SWAP1 DIV PUSH20 0xFFFFFFFFFFFFFFFFFFFFFFFFFFFFFFFFFFFFFFFF AND PUSH20 0xFFFFFFFFFFFFFFFFFFFFFFFFFFFFFFFFFFFFFFFF AND EQ ISZERO PUSH3 0x21F JUMPI PUSH1 0x0 DUP1 REVERT JUMPDEST PUSH1 0x0 PUSH1 0x1 PUSH1 0x0 SWAP1 SLOAD SWAP1 PUSH2 0x100 EXP SWAP1 DIV PUSH20 0xFFFFFFFFFFFFFFFFFFFFFFFFFFFFFFFFFFFFFFFF AND SWAP1 POP PUSH1 0x2 PUSH1 0x0 SWAP1 SLOAD SWAP1 PUSH2 0x100 EXP SWAP1 DIV PUSH20 0xFFFFFFFFFFFFFFFFFFFFFFFFFFFFFFFFFFFFFFFF AND PUSH20 0xFFFFFFFFFFFFFFFFFFFFFFFFFFFFFFFFFFFFFFFF AND PUSH4 0x2C64BA15 DUP12 DUP4 PUSH1 0x40 MLOAD DUP4 PUSH4 0xFFFFFFFF AND PUSH1 0xE0 SHL DUP2 MSTORE PUSH1 0x4 ADD PUSH3 0x2A5 SWAP3 SWAP2 SWAP1 PUSH3 0xCD9 JUMP JUMPDEST PUSH1 0x0 PUSH1 0x40 MLOAD DUP1 DUP4 SUB DUP2 PUSH1 0x0 DUP8 DUP1 EXTCODESIZE ISZERO DUP1 ISZERO PUSH3 0x2C0 JUMPI PUSH1 0x0 DUP1 REVERT JUMPDEST POP GAS CALL ISZERO DUP1 ISZERO PUSH3 0x2D5 JUMPI RETURNDATASIZE PUSH1 0x0 DUP1 RETURNDATACOPY RETURNDATASIZE PUSH1 0x0 REVERT JUMPDEST POP POP POP POP DUP1 PUSH20 0xFFFFFFFFFFFFFFFFFFFFFFFFFFFFFFFFFFFFFFFF AND PUSH32 0xF4D491A6F1D235565138B729AEC590F73A429A7DEBF862AF41AF0D001AB8DA37 DUP12 PUSH1 0x40 MLOAD PUSH3 0x321 SWAP2 SWAP1 PUSH3 0xD0D JUMP JUMPDEST PUSH1 0x40 MLOAD DUP1 SWAP2 SUB SWAP1 LOG2 POP POP POP POP POP POP POP POP POP POP JUMP JUMPDEST PUSH3 0x33F PUSH3 0x46A JUMP JUMPDEST PUSH3 0x34B PUSH1 0x0 PUSH3 0x4EF JUMP JUMPDEST JUMP JUMPDEST PUSH1 0x0 DUP1 PUSH1 0x0 SWAP1 SLOAD SWAP1 PUSH2 0x100 EXP SWAP1 DIV PUSH20 0xFFFFFFFFFFFFFFFFFFFFFFFFFFFFFFFFFFFFFFFF AND SWAP1 POP SWAP1 JUMP JUMPDEST PUSH3 0x380 PUSH3 0x46A JUMP JUMPDEST DUP1 PUSH1 0x2 PUSH1 0x0 PUSH2 0x100 EXP DUP2 SLOAD DUP2 PUSH20 0xFFFFFFFFFFFFFFFFFFFFFFFFFFFFFFFFFFFFFFFF MUL NOT AND SWAP1 DUP4 PUSH20 0xFFFFFFFFFFFFFFFFFFFFFFFFFFFFFFFFFFFFFFFF AND MUL OR SWAP1 SSTORE POP PUSH1 0x1 PUSH1 0x2 PUSH1 0x14 PUSH2 0x100 EXP DUP2 SLOAD DUP2 PUSH1 0xFF MUL NOT AND SWAP1 DUP4 ISZERO ISZERO MUL OR SWAP1 SSTORE POP POP JUMP JUMPDEST PUSH3 0x3E9 PUSH3 0x46A JUMP JUMPDEST PUSH1 0x0 PUSH20 0xFFFFFFFFFFFFFFFFFFFFFFFFFFFFFFFFFFFFFFFF AND DUP2 PUSH20 0xFFFFFFFFFFFFFFFFFFFFFFFFFFFFFFFFFFFFFFFF AND EQ ISZERO PUSH3 0x45C JUMPI PUSH1 0x40 MLOAD PUSH32 0x8C379A000000000000000000000000000000000000000000000000000000000 DUP2 MSTORE PUSH1 0x4 ADD PUSH3 0x453 SWAP1 PUSH3 0xDA7 JUMP JUMPDEST PUSH1 0x40 MLOAD DUP1 SWAP2 SUB SWAP1 REVERT JUMPDEST PUSH3 0x467 DUP2 PUSH3 0x4EF JUMP JUMPDEST POP JUMP JUMPDEST PUSH3 0x474 PUSH3 0x5B3 JUMP JUMPDEST PUSH20 0xFFFFFFFFFFFFFFFFFFFFFFFFFFFFFFFFFFFFFFFF AND PUSH3 0x494 PUSH3 0x34D JUMP JUMPDEST PUSH20 0xFFFFFFFFFFFFFFFFFFFFFFFFFFFFFFFFFFFFFFFF AND EQ PUSH3 0x4ED JUMPI PUSH1 0x40 MLOAD PUSH32 0x8C379A000000000000000000000000000000000000000000000000000000000 DUP2 MSTORE PUSH1 0x4 ADD PUSH3 0x4E4 SWAP1 PUSH3 0xE19 JUMP JUMPDEST PUSH1 0x40 MLOAD DUP1 SWAP2 SUB SWAP1 REVERT JUMPDEST JUMP JUMPDEST PUSH1 0x0 DUP1 PUSH1 0x0 SWAP1 SLOAD SWAP1 PUSH2 0x100 EXP SWAP1 DIV PUSH20 0xFFFFFFFFFFFFFFFFFFFFFFFFFFFFFFFFFFFFFFFF AND SWAP1 POP DUP2 PUSH1 0x0 DUP1 PUSH2 0x100 EXP DUP2 SLOAD DUP2 PUSH20 0xFFFFFFFFFFFFFFFFFFFFFFFFFFFFFFFFFFFFFFFF MUL NOT AND SWAP1 DUP4 PUSH20 0xFFFFFFFFFFFFFFFFFFFFFFFFFFFFFFFFFFFFFFFF AND MUL OR SWAP1 SSTORE POP DUP2 PUSH20 0xFFFFFFFFFFFFFFFFFFFFFFFFFFFFFFFFFFFFFFFF AND DUP2 PUSH20 0xFFFFFFFFFFFFFFFFFFFFFFFFFFFFFFFFFFFFFFFF AND PUSH32 0x8BE0079C531659141344CD1FD0A4F28419497F9722A3DAAFE3B4186F6B6457E0 PUSH1 0x40 MLOAD PUSH1 0x40 MLOAD DUP1 SWAP2 SUB SWAP1 LOG3 POP POP JUMP JUMPDEST PUSH1 0x0 CALLER SWAP1 POP SWAP1 JUMP JUMPDEST PUSH2 0x42B7 DUP1 PUSH3 0xE3C DUP4 CODECOPY ADD SWAP1 JUMP JUMPDEST PUSH1 0x0 PUSH1 0x40 MLOAD SWAP1 POP SWAP1 JUMP JUMPDEST PUSH1 0x0 DUP1 REVERT JUMPDEST PUSH1 0x0 DUP1 REVERT JUMPDEST PUSH1 0x0 DUP1 REVERT JUMPDEST PUSH1 0x0 DUP1 REVERT JUMPDEST PUSH1 0x0 PUSH1 0x1F NOT PUSH1 0x1F DUP4 ADD AND SWAP1 POP SWAP2 SWAP1 POP JUMP JUMPDEST PUSH32 0x4E487B7100000000000000000000000000000000000000000000000000000000 PUSH1 0x0 MSTORE PUSH1 0x41 PUSH1 0x4 MSTORE PUSH1 0x24 PUSH1 0x0 REVERT JUMPDEST PUSH3 0x632 DUP3 PUSH3 0x5E7 JUMP JUMPDEST DUP2 ADD DUP2 DUP2 LT PUSH8 0xFFFFFFFFFFFFFFFF DUP3 GT OR ISZERO PUSH3 0x654 JUMPI PUSH3 0x653 PUSH3 0x5F8 JUMP JUMPDEST JUMPDEST DUP1 PUSH1 0x40 MSTORE POP POP POP JUMP JUMPDEST PUSH1 0x0 PUSH3 0x669 PUSH3 0x5C9 JUMP JUMPDEST SWAP1 POP PUSH3 0x677 DUP3 DUP3 PUSH3 0x627 JUMP JUMPDEST SWAP2 SWAP1 POP JUMP JUMPDEST PUSH1 0x0 PUSH8 0xFFFFFFFFFFFFFFFF DUP3 GT ISZERO PUSH3 0x69A JUMPI PUSH3 0x699 PUSH3 0x5F8 JUMP JUMPDEST JUMPDEST PUSH3 0x6A5 DUP3 PUSH3 0x5E7 JUMP JUMPDEST SWAP1 POP PUSH1 0x20 DUP2 ADD SWAP1 POP SWAP2 SWAP1 POP JUMP JUMPDEST DUP3 DUP2 DUP4 CALLDATACOPY PUSH1 0x0 DUP4 DUP4 ADD MSTORE POP POP POP JUMP JUMPDEST PUSH1 0x0 PUSH3 0x6D8 PUSH3 0x6D2 DUP5 PUSH3 0x67C JUMP JUMPDEST PUSH3 0x65D JUMP JUMPDEST SWAP1 POP DUP3 DUP2 MSTORE PUSH1 0x20 DUP2 ADD DUP5 DUP5 DUP5 ADD GT ISZERO PUSH3 0x6F7 JUMPI PUSH3 0x6F6 PUSH3 0x5E2 JUMP JUMPDEST JUMPDEST PUSH3 0x704 DUP5 DUP3 DUP6 PUSH3 0x6B2 JUMP JUMPDEST POP SWAP4 SWAP3 POP POP POP JUMP JUMPDEST PUSH1 0x0 DUP3 PUSH1 0x1F DUP4 ADD SLT PUSH3 0x724 JUMPI PUSH3 0x723 PUSH3 0x5DD JUMP JUMPDEST JUMPDEST DUP2 CALLDATALOAD PUSH3 0x736 DUP5 DUP3 PUSH1 0x20 DUP7 ADD PUSH3 0x6C1 JUMP JUMPDEST SWAP2 POP POP SWAP3 SWAP2 POP POP JUMP JUMPDEST PUSH1 0x0 DUP2 SWAP1 POP SWAP2 SWAP1 POP JUMP JUMPDEST PUSH3 0x754 DUP2 PUSH3 0x73F JUMP JUMPDEST DUP2 EQ PUSH3 0x760 JUMPI PUSH1 0x0 DUP1 REVERT JUMPDEST POP JUMP JUMPDEST PUSH1 0x0 DUP2 CALLDATALOAD SWAP1 POP PUSH3 0x774 DUP2 PUSH3 0x749 JUMP JUMPDEST SWAP3 SWAP2 POP POP JUMP JUMPDEST PUSH1 0x0 DUP2 SWAP1 POP SWAP2 SWAP1 POP JUMP JUMPDEST PUSH3 0x78F DUP2 PUSH3 0x77A JUMP JUMPDEST DUP2 EQ PUSH3 0x79B JUMPI PUSH1 0x0 DUP1 REVERT JUMPDEST POP JUMP JUMPDEST PUSH1 0x0 DUP2 CALLDATALOAD SWAP1 POP PUSH3 0x7AF DUP2 PUSH3 0x784 JUMP JUMPDEST SWAP3 SWAP2 POP POP JUMP JUMPDEST PUSH1 0x0 PUSH8 0xFFFFFFFFFFFFFFFF DUP3 GT ISZERO PUSH3 0x7D3 JUMPI PUSH3 0x7D2 PUSH3 0x5F8 JUMP JUMPDEST JUMPDEST PUSH1 0x20 DUP3 MUL SWAP1 POP PUSH1 0x20 DUP2 ADD SWAP1 POP SWAP2 SWAP1 POP JUMP JUMPDEST PUSH1 0x0 DUP1 REVERT JUMPDEST PUSH1 0x0 PUSH3 0x800 PUSH3 0x7FA DUP5 PUSH3 0x7B5 JUMP JUMPDEST PUSH3 0x65D JUMP JUMPDEST SWAP1 POP DUP1 DUP4 DUP3 MSTORE PUSH1 0x20 DUP3 ADD SWAP1 POP PUSH1 0x20 DUP5 MUL DUP4 ADD DUP6 DUP2 GT ISZERO PUSH3 0x826 JUMPI PUSH3 0x825 PUSH3 0x7E4 JUMP JUMPDEST JUMPDEST DUP4 JUMPDEST DUP2 DUP2 LT ISZERO PUSH3 0x853 JUMPI DUP1 PUSH3 0x83E DUP9 DUP3 PUSH3 0x763 JUMP JUMPDEST DUP5 MSTORE PUSH1 0x20 DUP5 ADD SWAP4 POP POP PUSH1 0x20 DUP2 ADD SWAP1 POP PUSH3 0x828 JUMP JUMPDEST POP POP POP SWAP4 SWAP3 POP POP POP JUMP JUMPDEST PUSH1 0x0 DUP3 PUSH1 0x1F DUP4 ADD SLT PUSH3 0x875 JUMPI PUSH3 0x874 PUSH3 0x5DD JUMP JUMPDEST JUMPDEST DUP2 CALLDATALOAD PUSH3 0x887 DUP5 DUP3 PUSH1 0x20 DUP7 ADD PUSH3 0x7E9 JUMP JUMPDEST SWAP2 POP POP SWAP3 SWAP2 POP POP JUMP JUMPDEST PUSH1 0x0 DUP1 PUSH1 0x0 DUP1 PUSH1 0x0 DUP1 PUSH1 0x0 DUP1 PUSH1 0x0 PUSH2 0x120 DUP11 DUP13 SUB SLT ISZERO PUSH3 0x8B6 JUMPI PUSH3 0x8B5 PUSH3 0x5D3 JUMP JUMPDEST JUMPDEST PUSH1 0x0 DUP11 ADD CALLDATALOAD PUSH8 0xFFFFFFFFFFFFFFFF DUP2 GT ISZERO PUSH3 0x8D7 JUMPI PUSH3 0x8D6 PUSH3 0x5D8 JUMP JUMPDEST JUMPDEST PUSH3 0x8E5 DUP13 DUP3 DUP14 ADD PUSH3 0x70C JUMP JUMPDEST SWAP10 POP POP PUSH1 0x20 PUSH3 0x8F8 DUP13 DUP3 DUP14 ADD PUSH3 0x763 JUMP JUMPDEST SWAP9 POP POP PUSH1 0x40 PUSH3 0x90B DUP13 DUP3 DUP14 ADD PUSH3 0x79E JUMP JUMPDEST SWAP8 POP POP PUSH1 0x60 PUSH3 0x91E DUP13 DUP3 DUP14 ADD PUSH3 0x79E JUMP JUMPDEST SWAP7 POP POP PUSH1 0x80 PUSH3 0x931 DUP13 DUP3 DUP14 ADD PUSH3 0x79E JUMP JUMPDEST SWAP6 POP POP PUSH1 0xA0 PUSH3 0x944 DUP13 DUP3 DUP14 ADD PUSH3 0x79E JUMP JUMPDEST SWAP5 POP POP PUSH1 0xC0 PUSH3 0x957 DUP13 DUP3 DUP14 ADD PUSH3 0x79E JUMP JUMPDEST SWAP4 POP POP PUSH1 0xE0 DUP11 ADD CALLDATALOAD PUSH8 0xFFFFFFFFFFFFFFFF DUP2 GT ISZERO PUSH3 0x97B JUMPI PUSH3 0x97A PUSH3 0x5D8 JUMP JUMPDEST JUMPDEST PUSH3 0x989 DUP13 DUP3 DUP14 ADD PUSH3 0x70C JUMP JUMPDEST SWAP3 POP POP PUSH2 0x100 DUP11 ADD CALLDATALOAD PUSH8 0xFFFFFFFFFFFFFFFF DUP2 GT ISZERO PUSH3 0x9AE JUMPI PUSH3 0x9AD PUSH3 0x5D8 JUMP JUMPDEST JUMPDEST PUSH3 0x9BC DUP13 DUP3 DUP14 ADD PUSH3 0x85D JUMP JUMPDEST SWAP2 POP POP SWAP3 SWAP6 SWAP9 POP SWAP3 SWAP6 SWAP9 POP SWAP3 SWAP6 SWAP9 JUMP JUMPDEST PUSH1 0x0 PUSH20 0xFFFFFFFFFFFFFFFFFFFFFFFFFFFFFFFFFFFFFFFF DUP3 AND SWAP1 POP SWAP2 SWAP1 POP JUMP JUMPDEST PUSH1 0x0 PUSH3 0x9F9 DUP3 PUSH3 0x9CC JUMP JUMPDEST SWAP1 POP SWAP2 SWAP1 POP JUMP JUMPDEST PUSH3 0xA0B DUP2 PUSH3 0x9EC JUMP JUMPDEST DUP3 MSTORE POP POP JUMP JUMPDEST PUSH1 0x0 PUSH1 0x20 DUP3 ADD SWAP1 POP PUSH3 0xA28 PUSH1 0x0 DUP4 ADD DUP5 PUSH3 0xA00 JUMP JUMPDEST SWAP3 SWAP2 POP POP JUMP JUMPDEST PUSH3 0xA39 DUP2 PUSH3 0x9EC JUMP JUMPDEST DUP2 EQ PUSH3 0xA45 JUMPI PUSH1 0x0 DUP1 REVERT JUMPDEST POP JUMP JUMPDEST PUSH1 0x0 DUP2 CALLDATALOAD SWAP1 POP PUSH3 0xA59 DUP2 PUSH3 0xA2E JUMP JUMPDEST SWAP3 SWAP2 POP POP JUMP JUMPDEST PUSH1 0x0 PUSH1 0x20 DUP3 DUP5 SUB SLT ISZERO PUSH3 0xA78 JUMPI PUSH3 0xA77 PUSH3 0x5D3 JUMP JUMPDEST JUMPDEST PUSH1 0x0 PUSH3 0xA88 DUP5 DUP3 DUP6 ADD PUSH3 0xA48 JUMP JUMPDEST SWAP2 POP POP SWAP3 SWAP2 POP POP JUMP JUMPDEST PUSH1 0x0 DUP2 MLOAD SWAP1 POP SWAP2 SWAP1 POP JUMP JUMPDEST PUSH1 0x0 DUP3 DUP3 MSTORE PUSH1 0x20 DUP3 ADD SWAP1 POP SWAP3 SWAP2 POP POP JUMP JUMPDEST PUSH1 0x0 JUMPDEST DUP4 DUP2 LT ISZERO PUSH3 0xACD JUMPI DUP1 DUP3 ADD MLOAD DUP2 DUP5 ADD MSTORE PUSH1 0x20 DUP2 ADD SWAP1 POP PUSH3 0xAB0 JUMP JUMPDEST DUP4 DUP2 GT ISZERO PUSH3 0xADD JUMPI PUSH1 0x0 DUP5 DUP5 ADD MSTORE JUMPDEST POP POP POP POP JUMP JUMPDEST PUSH1 0x0 PUSH3 0xAF0 DUP3 PUSH3 0xA91 JUMP JUMPDEST PUSH3 0xAFC DUP2 DUP6 PUSH3 0xA9C JUMP JUMPDEST SWAP4 POP PUSH3 0xB0E DUP2 DUP6 PUSH1 0x20 DUP7 ADD PUSH3 0xAAD JUMP JUMPDEST PUSH3 0xB19 DUP2 PUSH3 0x5E7 JUMP JUMPDEST DUP5 ADD SWAP2 POP POP SWAP3 SWAP2 POP POP JUMP JUMPDEST PUSH3 0xB2F DUP2 PUSH3 0x73F JUMP JUMPDEST DUP3 MSTORE POP POP JUMP JUMPDEST PUSH3 0xB40 DUP2 PUSH3 0x77A JUMP JUMPDEST DUP3 MSTORE POP POP JUMP JUMPDEST PUSH1 0x0 DUP2 MLOAD SWAP1 POP SWAP2 SWAP1 POP JUMP JUMPDEST PUSH1 0x0 DUP3 DUP3 MSTORE PUSH1 0x20 DUP3 ADD SWAP1 POP SWAP3 SWAP2 POP POP JUMP JUMPDEST PUSH1 0x0 DUP2 SWAP1 POP PUSH1 0x20 DUP3 ADD SWAP1 POP SWAP2 SWAP1 POP JUMP JUMPDEST PUSH3 0xB7D DUP2 PUSH3 0x73F JUMP JUMPDEST DUP3 MSTORE POP POP JUMP JUMPDEST PUSH1 0x0 PUSH3 0xB91 DUP4 DUP4 PUSH3 0xB72 JUMP JUMPDEST PUSH1 0x20 DUP4 ADD SWAP1 POP SWAP3 SWAP2 POP POP JUMP JUMPDEST PUSH1 0x0 PUSH1 0x20 DUP3 ADD SWAP1 POP SWAP2 SWAP1 POP JUMP JUMPDEST PUSH1 0x0 PUSH3 0xBB7 DUP3 PUSH3 0xB46 JUMP JUMPDEST PUSH3 0xBC3 DUP2 DUP6 PUSH3 0xB51 JUMP JUMPDEST SWAP4 POP PUSH3 0xBD0 DUP4 PUSH3 0xB62 JUMP JUMPDEST DUP1 PUSH1 0x0 JUMPDEST DUP4 DUP2 LT ISZERO PUSH3 0xC07 JUMPI DUP2 MLOAD PUSH3 0xBEB DUP9 DUP3 PUSH3 0xB83 JUMP JUMPDEST SWAP8 POP PUSH3 0xBF8 DUP4 PUSH3 0xB9D JUMP JUMPDEST SWAP3 POP POP PUSH1 0x1 DUP2 ADD SWAP1 POP PUSH3 0xBD4 JUMP JUMPDEST POP DUP6 SWAP4 POP POP POP POP SWAP3 SWAP2 POP POP JUMP JUMPDEST PUSH1 0x0 PUSH2 0x140 DUP3 ADD SWAP1 POP DUP2 DUP2 SUB PUSH1 0x0 DUP4 ADD MSTORE PUSH3 0xC31 DUP2 DUP14 PUSH3 0xAE3 JUMP JUMPDEST SWAP1 POP PUSH3 0xC42 PUSH1 0x20 DUP4 ADD DUP13 PUSH3 0xB24 JUMP JUMPDEST PUSH3 0xC51 PUSH1 0x40 DUP4 ADD DUP12 PUSH3 0xB35 JUMP JUMPDEST PUSH3 0xC60 PUSH1 0x60 DUP4 ADD DUP11 PUSH3 0xB35 JUMP JUMPDEST PUSH3 0xC6F PUSH1 0x80 DUP4 ADD DUP10 PUSH3 0xB35 JUMP JUMPDEST PUSH3 0xC7E PUSH1 0xA0 DUP4 ADD DUP9 PUSH3 0xB35 JUMP JUMPDEST PUSH3 0xC8D PUSH1 0xC0 DUP4 ADD DUP8 PUSH3 0xB35 JUMP JUMPDEST DUP2 DUP2 SUB PUSH1 0xE0 DUP4 ADD MSTORE PUSH3 0xCA1 DUP2 DUP7 PUSH3 0xAE3 JUMP JUMPDEST SWAP1 POP DUP2 DUP2 SUB PUSH2 0x100 DUP4 ADD MSTORE PUSH3 0xCB8 DUP2 DUP6 PUSH3 0xBAA JUMP JUMPDEST SWAP1 POP PUSH3 0xCCA PUSH2 0x120 DUP4 ADD DUP5 PUSH3 0xA00 JUMP JUMPDEST SWAP12 SWAP11 POP POP POP POP POP POP POP POP POP POP POP JUMP JUMPDEST PUSH1 0x0 PUSH1 0x40 DUP3 ADD SWAP1 POP DUP2 DUP2 SUB PUSH1 0x0 DUP4 ADD MSTORE PUSH3 0xCF5 DUP2 DUP6 PUSH3 0xAE3 JUMP JUMPDEST SWAP1 POP PUSH3 0xD06 PUSH1 0x20 DUP4 ADD DUP5 PUSH3 0xA00 JUMP JUMPDEST SWAP4 SWAP3 POP POP POP JUMP JUMPDEST PUSH1 0x0 PUSH1 0x20 DUP3 ADD SWAP1 POP DUP2 DUP2 SUB PUSH1 0x0 DUP4 ADD MSTORE PUSH3 0xD29 DUP2 DUP5 PUSH3 0xAE3 JUMP JUMPDEST SWAP1 POP SWAP3 SWAP2 POP POP JUMP JUMPDEST PUSH32 0x4F776E61626C653A206E6577206F776E657220697320746865207A65726F2061 PUSH1 0x0 DUP3 ADD MSTORE PUSH32 0x6464726573730000000000000000000000000000000000000000000000000000 PUSH1 0x20 DUP3 ADD MSTORE POP JUMP JUMPDEST PUSH1 0x0 PUSH3 0xD8F PUSH1 0x26 DUP4 PUSH3 0xA9C JUMP JUMPDEST SWAP2 POP PUSH3 0xD9C DUP3 PUSH3 0xD31 JUMP JUMPDEST PUSH1 0x40 DUP3 ADD SWAP1 POP SWAP2 SWAP1 POP JUMP JUMPDEST PUSH1 0x0 PUSH1 0x20 DUP3 ADD SWAP1 POP DUP2 DUP2 SUB PUSH1 0x0 DUP4 ADD MSTORE PUSH3 0xDC2 DUP2 PUSH3 0xD80 JUMP JUMPDEST SWAP1 POP SWAP2 SWAP1 POP JUMP JUMPDEST PUSH32 0x4F776E61626C653A2063616C6C6572206973206E6F7420746865206F776E6572 PUSH1 0x0 DUP3 ADD MSTORE POP JUMP JUMPDEST PUSH1 0x0 PUSH3 0xE01 PUSH1 0x20 DUP4 PUSH3 0xA9C JUMP JUMPDEST SWAP2 POP PUSH3 0xE0E DUP3 PUSH3 0xDC9 JUMP JUMPDEST PUSH1 0x20 DUP3 ADD SWAP1 POP SWAP2 SWAP1 POP JUMP JUMPDEST PUSH1 0x0 PUSH1 0x20 DUP3 ADD SWAP1 POP DUP2 DUP2 SUB PUSH1 0x0 DUP4 ADD MSTORE PUSH3 0xE34 DUP2 PUSH3 0xDF2 JUMP JUMPDEST SWAP1 POP SWAP2 SWAP1 POP JUMP INVALID PUSH1 0x80 PUSH1 0x40 MSTORE PUSH1 0x2 PUSH1 0xB SSTORE CALLVALUE DUP1 ISZERO PUSH3 0x16 JUMPI PUSH1 0x0 DUP1 REVERT JUMPDEST POP PUSH1 0x40 MLOAD PUSH3 0x42B7 CODESIZE SUB DUP1 PUSH3 0x42B7 DUP4 CODECOPY DUP2 DUP2 ADD PUSH1 0x40 MSTORE DUP2 ADD SWAP1 PUSH3 0x3C SWAP2 SWAP1 PUSH3 0x6F5 JUMP JUMPDEST PUSH3 0x5C PUSH3 0x50 PUSH3 0x1B5 PUSH1 0x20 SHL PUSH1 0x20 SHR JUMP JUMPDEST PUSH3 0x1BD PUSH1 0x20 SHL PUSH1 0x20 SHR JUMP JUMPDEST PUSH1 0x0 DUP1 PUSH1 0x14 PUSH2 0x100 EXP DUP2 SLOAD DUP2 PUSH1 0xFF MUL NOT AND SWAP1 DUP4 ISZERO ISZERO MUL OR SWAP1 SSTORE POP DUP6 PUSH1 0xA SLOAD DUP9 PUSH3 0x87 SWAP2 SWAP1 PUSH3 0x877 JUMP JUMPDEST LT PUSH3 0xCA JUMPI PUSH1 0x40 MLOAD PUSH32 0x8C379A000000000000000000000000000000000000000000000000000000000 DUP2 MSTORE PUSH1 0x4 ADD PUSH3 0xC1 SWAP1 PUSH3 0x95B JUMP JUMPDEST PUSH1 0x40 MLOAD DUP1 SWAP2 SUB SWAP1 REVERT JUMPDEST DUP10 PUSH1 0x1 PUSH1 0x0 ADD SWAP1 DUP1 MLOAD SWAP1 PUSH1 0x20 ADD SWAP1 PUSH3 0xE5 SWAP3 SWAP2 SWAP1 PUSH3 0x281 JUMP JUMPDEST POP DUP9 PUSH1 0x1 DUP1 ADD DUP2 SWAP1 SSTORE POP DUP8 PUSH1 0x1 PUSH1 0x2 ADD DUP2 SWAP1 SSTORE POP DUP7 PUSH1 0x1 PUSH1 0x3 ADD DUP2 SWAP1 SSTORE POP TIMESTAMP PUSH1 0x1 PUSH1 0x4 ADD DUP2 SWAP1 SSTORE POP DUP6 PUSH1 0x1 PUSH1 0x5 ADD DUP2 SWAP1 SSTORE POP DUP3 PUSH1 0x1 PUSH1 0x6 ADD SWAP1 DUP1 MLOAD SWAP1 PUSH1 0x20 ADD SWAP1 PUSH3 0x132 SWAP3 SWAP2 SWAP1 PUSH3 0x281 JUMP JUMPDEST POP DUP2 PUSH1 0x1 PUSH1 0x7 ADD SWAP1 DUP1 MLOAD SWAP1 PUSH1 0x20 ADD SWAP1 PUSH3 0x14E SWAP3 SWAP2 SWAP1 PUSH3 0x312 JUMP JUMPDEST POP DUP1 PUSH1 0x9 PUSH1 0x1 PUSH2 0x100 EXP DUP2 SLOAD DUP2 PUSH20 0xFFFFFFFFFFFFFFFFFFFFFFFFFFFFFFFFFFFFFFFF MUL NOT AND SWAP1 DUP4 PUSH20 0xFFFFFFFFFFFFFFFFFFFFFFFFFFFFFFFFFFFFFFFF AND MUL OR SWAP1 SSTORE POP TIMESTAMP PUSH1 0xF DUP2 SWAP1 SSTORE POP DUP5 PUSH1 0xD DUP2 SWAP1 SSTORE POP DUP4 PUSH1 0xE DUP2 SWAP1 SSTORE POP POP POP POP POP POP POP POP POP POP POP PUSH3 0x9E2 JUMP JUMPDEST PUSH1 0x0 CALLER SWAP1 POP SWAP1 JUMP JUMPDEST PUSH1 0x0 DUP1 PUSH1 0x0 SWAP1 SLOAD SWAP1 PUSH2 0x100 EXP SWAP1 DIV PUSH20 0xFFFFFFFFFFFFFFFFFFFFFFFFFFFFFFFFFFFFFFFF AND SWAP1 POP DUP2 PUSH1 0x0 DUP1 PUSH2 0x100 EXP DUP2 SLOAD DUP2 PUSH20 0xFFFFFFFFFFFFFFFFFFFFFFFFFFFFFFFFFFFFFFFF MUL NOT AND SWAP1 DUP4 PUSH20 0xFFFFFFFFFFFFFFFFFFFFFFFFFFFFFFFFFFFFFFFF AND MUL OR SWAP1 SSTORE POP DUP2 PUSH20 0xFFFFFFFFFFFFFFFFFFFFFFFFFFFFFFFFFFFFFFFF AND DUP2 PUSH20 0xFFFFFFFFFFFFFFFFFFFFFFFFFFFFFFFFFFFFFFFF AND PUSH32 0x8BE0079C531659141344CD1FD0A4F28419497F9722A3DAAFE3B4186F6B6457E0 PUSH1 0x40 MLOAD PUSH1 0x40 MLOAD DUP1 SWAP2 SUB SWAP1 LOG3 POP POP JUMP JUMPDEST DUP3 DUP1 SLOAD PUSH3 0x28F SWAP1 PUSH3 0x9AC JUMP JUMPDEST SWAP1 PUSH1 0x0 MSTORE PUSH1 0x20 PUSH1 0x0 KECCAK256 SWAP1 PUSH1 0x1F ADD PUSH1 0x20 SWAP1 DIV DUP2 ADD SWAP3 DUP3 PUSH3 0x2B3 JUMPI PUSH1 0x0 DUP6 SSTORE PUSH3 0x2FF JUMP JUMPDEST DUP3 PUSH1 0x1F LT PUSH3 0x2CE JUMPI DUP1 MLOAD PUSH1 0xFF NOT AND DUP4 DUP1 ADD OR DUP6 SSTORE PUSH3 0x2FF JUMP JUMPDEST DUP3 DUP1 ADD PUSH1 0x1 ADD DUP6 SSTORE DUP3 ISZERO PUSH3 0x2FF JUMPI SWAP2 DUP3 ADD JUMPDEST DUP3 DUP2 GT ISZERO PUSH3 0x2FE JUMPI DUP3 MLOAD DUP3 SSTORE SWAP2 PUSH1 0x20 ADD SWAP2 SWAP1 PUSH1 0x1 ADD SWAP1 PUSH3 0x2E1 JUMP JUMPDEST JUMPDEST POP SWAP1 POP PUSH3 0x30E SWAP2 SWAP1 PUSH3 0x364 JUMP JUMPDEST POP SWAP1 JUMP JUMPDEST DUP3 DUP1 SLOAD DUP3 DUP3 SSTORE SWAP1 PUSH1 0x0 MSTORE PUSH1 0x20 PUSH1 0x0 KECCAK256 SWAP1 DUP2 ADD SWAP3 DUP3 ISZERO PUSH3 0x351 JUMPI SWAP2 PUSH1 0x20 MUL DUP3 ADD JUMPDEST DUP3 DUP2 GT ISZERO PUSH3 0x350 JUMPI DUP3 MLOAD DUP3 SSTORE SWAP2 PUSH1 0x20 ADD SWAP2 SWAP1 PUSH1 0x1 ADD SWAP1 PUSH3 0x333 JUMP JUMPDEST JUMPDEST POP SWAP1 POP PUSH3 0x360 SWAP2 SWAP1 PUSH3 0x383 JUMP JUMPDEST POP SWAP1 JUMP JUMPDEST JUMPDEST DUP1 DUP3 GT ISZERO PUSH3 0x37F JUMPI PUSH1 0x0 DUP2 PUSH1 0x0 SWAP1 SSTORE POP PUSH1 0x1 ADD PUSH3 0x365 JUMP JUMPDEST POP SWAP1 JUMP JUMPDEST JUMPDEST DUP1 DUP3 GT ISZERO PUSH3 0x39E JUMPI PUSH1 0x0 DUP2 PUSH1 0x0 SWAP1 SSTORE POP PUSH1 0x1 ADD PUSH3 0x384 JUMP JUMPDEST POP SWAP1 JUMP JUMPDEST PUSH1 0x0 PUSH1 0x40 MLOAD SWAP1 POP SWAP1 JUMP JUMPDEST PUSH1 0x0 DUP1 REVERT JUMPDEST PUSH1 0x0 DUP1 REVERT JUMPDEST PUSH1 0x0 DUP1 REVERT JUMPDEST PUSH1 0x0 DUP1 REVERT JUMPDEST PUSH1 0x0 PUSH1 0x1F NOT PUSH1 0x1F DUP4 ADD AND SWAP1 POP SWAP2 SWAP1 POP JUMP JUMPDEST PUSH32 0x4E487B7100000000000000000000000000000000000000000000000000000000 PUSH1 0x0 MSTORE PUSH1 0x41 PUSH1 0x4 MSTORE PUSH1 0x24 PUSH1 0x0 REVERT JUMPDEST PUSH3 0x40B DUP3 PUSH3 0x3C0 JUMP JUMPDEST DUP2 ADD DUP2 DUP2 LT PUSH8 0xFFFFFFFFFFFFFFFF DUP3 GT OR ISZERO PUSH3 0x42D JUMPI PUSH3 0x42C PUSH3 0x3D1 JUMP JUMPDEST JUMPDEST DUP1 PUSH1 0x40 MSTORE POP POP POP JUMP JUMPDEST PUSH1 0x0 PUSH3 0x442 PUSH3 0x3A2 JUMP JUMPDEST SWAP1 POP PUSH3 0x450 DUP3 DUP3 PUSH3 0x400 JUMP JUMPDEST SWAP2 SWAP1 POP JUMP JUMPDEST PUSH1 0x0 PUSH8 0xFFFFFFFFFFFFFFFF DUP3 GT ISZERO PUSH3 0x473 JUMPI PUSH3 0x472 PUSH3 0x3D1 JUMP JUMPDEST JUMPDEST PUSH3 0x47E DUP3 PUSH3 0x3C0 JUMP JUMPDEST SWAP1 POP PUSH1 0x20 DUP2 ADD SWAP1 POP SWAP2 SWAP1 POP JUMP JUMPDEST PUSH1 0x0 JUMPDEST DUP4 DUP2 LT ISZERO PUSH3 0x4AB JUMPI DUP1 DUP3 ADD MLOAD DUP2 DUP5 ADD MSTORE PUSH1 0x20 DUP2 ADD SWAP1 POP PUSH3 0x48E JUMP JUMPDEST DUP4 DUP2 GT ISZERO PUSH3 0x4BB JUMPI PUSH1 0x0 DUP5 DUP5 ADD MSTORE JUMPDEST POP POP POP POP JUMP JUMPDEST PUSH1 0x0 PUSH3 0x4D8 PUSH3 0x4D2 DUP5 PUSH3 0x455 JUMP JUMPDEST PUSH3 0x436 JUMP JUMPDEST SWAP1 POP DUP3 DUP2 MSTORE PUSH1 0x20 DUP2 ADD DUP5 DUP5 DUP5 ADD GT ISZERO PUSH3 0x4F7 JUMPI PUSH3 0x4F6 PUSH3 0x3BB JUMP JUMPDEST JUMPDEST PUSH3 0x504 DUP5 DUP3 DUP6 PUSH3 0x48B JUMP JUMPDEST POP SWAP4 SWAP3 POP POP POP JUMP JUMPDEST PUSH1 0x0 DUP3 PUSH1 0x1F DUP4 ADD SLT PUSH3 0x524 JUMPI PUSH3 0x523 PUSH3 0x3B6 JUMP JUMPDEST JUMPDEST DUP2 MLOAD PUSH3 0x536 DUP5 DUP3 PUSH1 0x20 DUP7 ADD PUSH3 0x4C1 JUMP JUMPDEST SWAP2 POP POP SWAP3 SWAP2 POP POP JUMP JUMPDEST PUSH1 0x0 DUP2 SWAP1 POP SWAP2 SWAP1 POP JUMP JUMPDEST PUSH3 0x554 DUP2 PUSH3 0x53F JUMP JUMPDEST DUP2 EQ PUSH3 0x560 JUMPI PUSH1 0x0 DUP1 REVERT JUMPDEST POP JUMP JUMPDEST PUSH1 0x0 DUP2 MLOAD SWAP1 POP PUSH3 0x574 DUP2 PUSH3 0x549 JUMP JUMPDEST SWAP3 SWAP2 POP POP JUMP JUMPDEST PUSH1 0x0 DUP2 SWAP1 POP SWAP2 SWAP1 POP JUMP JUMPDEST PUSH3 0x58F DUP2 PUSH3 0x57A JUMP JUMPDEST DUP2 EQ PUSH3 0x59B JUMPI PUSH1 0x0 DUP1 REVERT JUMPDEST POP JUMP JUMPDEST PUSH1 0x0 DUP2 MLOAD SWAP1 POP PUSH3 0x5AF DUP2 PUSH3 0x584 JUMP JUMPDEST SWAP3 SWAP2 POP POP JUMP JUMPDEST PUSH1 0x0 PUSH8 0xFFFFFFFFFFFFFFFF DUP3 GT ISZERO PUSH3 0x5D3 JUMPI PUSH3 0x5D2 PUSH3 0x3D1 JUMP JUMPDEST JUMPDEST PUSH1 0x20 DUP3 MUL SWAP1 POP PUSH1 0x20 DUP2 ADD SWAP1 POP SWAP2 SWAP1 POP JUMP JUMPDEST PUSH1 0x0 DUP1 REVERT JUMPDEST PUSH1 0x0 PUSH3 0x600 PUSH3 0x5FA DUP5 PUSH3 0x5B5 JUMP JUMPDEST PUSH3 0x436 JUMP JUMPDEST SWAP1 POP DUP1 DUP4 DUP3 MSTORE PUSH1 0x20 DUP3 ADD SWAP1 POP PUSH1 0x20 DUP5 MUL DUP4 ADD DUP6 DUP2 GT ISZERO PUSH3 0x626 JUMPI PUSH3 0x625 PUSH3 0x5E4 JUMP JUMPDEST JUMPDEST DUP4 JUMPDEST DUP2 DUP2 LT ISZERO PUSH3 0x653 JUMPI DUP1 PUSH3 0x63E DUP9 DUP3 PUSH3 0x563 JUMP JUMPDEST DUP5 MSTORE PUSH1 0x20 DUP5 ADD SWAP4 POP POP PUSH1 0x20 DUP2 ADD SWAP1 POP PUSH3 0x628 JUMP JUMPDEST POP POP POP SWAP4 SWAP3 POP POP POP JUMP JUMPDEST PUSH1 0x0 DUP3 PUSH1 0x1F DUP4 ADD SLT PUSH3 0x675 JUMPI PUSH3 0x674 PUSH3 0x3B6 JUMP JUMPDEST JUMPDEST DUP2 MLOAD PUSH3 0x687 DUP5 DUP3 PUSH1 0x20 DUP7 ADD PUSH3 0x5E9 JUMP JUMPDEST SWAP2 POP POP SWAP3 SWAP2 POP POP JUMP JUMPDEST PUSH1 0x0 PUSH20 0xFFFFFFFFFFFFFFFFFFFFFFFFFFFFFFFFFFFFFFFF DUP3 AND SWAP1 POP SWAP2 SWAP1 POP JUMP JUMPDEST PUSH1 0x0 PUSH3 0x6BD DUP3 PUSH3 0x690 JUMP JUMPDEST SWAP1 POP SWAP2 SWAP1 POP JUMP JUMPDEST PUSH3 0x6CF DUP2 PUSH3 0x6B0 JUMP JUMPDEST DUP2 EQ PUSH3 0x6DB JUMPI PUSH1 0x0 DUP1 REVERT JUMPDEST POP JUMP JUMPDEST PUSH1 0x0 DUP2 MLOAD SWAP1 POP PUSH3 0x6EF DUP2 PUSH3 0x6C4 JUMP JUMPDEST SWAP3 SWAP2 POP POP JUMP JUMPDEST PUSH1 0x0 DUP1 PUSH1 0x0 DUP1 PUSH1 0x0 DUP1 PUSH1 0x0 DUP1 PUSH1 0x0 DUP1 PUSH2 0x140 DUP12 DUP14 SUB SLT ISZERO PUSH3 0x71C JUMPI PUSH3 0x71B PUSH3 0x3AC JUMP JUMPDEST JUMPDEST PUSH1 0x0 DUP12 ADD MLOAD PUSH8 0xFFFFFFFFFFFFFFFF DUP2 GT ISZERO PUSH3 0x73D JUMPI PUSH3 0x73C PUSH3 0x3B1 JUMP JUMPDEST JUMPDEST PUSH3 0x74B DUP14 DUP3 DUP15 ADD PUSH3 0x50C JUMP JUMPDEST SWAP11 POP POP PUSH1 0x20 PUSH3 0x75E DUP14 DUP3 DUP15 ADD PUSH3 0x563 JUMP JUMPDEST SWAP10 POP POP PUSH1 0x40 PUSH3 0x771 DUP14 DUP3 DUP15 ADD PUSH3 0x59E JUMP JUMPDEST SWAP9 POP POP PUSH1 0x60 PUSH3 0x784 DUP14 DUP3 DUP15 ADD PUSH3 0x59E JUMP JUMPDEST SWAP8 POP POP PUSH1 0x80 PUSH3 0x797 DUP14 DUP3 DUP15 ADD PUSH3 0x59E JUMP JUMPDEST SWAP7 POP POP PUSH1 0xA0 PUSH3 0x7AA DUP14 DUP3 DUP15 ADD PUSH3 0x59E JUMP JUMPDEST SWAP6 POP POP PUSH1 0xC0 PUSH3 0x7BD DUP14 DUP3 DUP15 ADD PUSH3 0x59E JUMP JUMPDEST SWAP5 POP POP PUSH1 0xE0 DUP12 ADD MLOAD PUSH8 0xFFFFFFFFFFFFFFFF DUP2 GT ISZERO PUSH3 0x7E1 JUMPI PUSH3 0x7E0 PUSH3 0x3B1 JUMP JUMPDEST JUMPDEST PUSH3 0x7EF DUP14 DUP3 DUP15 ADD PUSH3 0x50C JUMP JUMPDEST SWAP4 POP POP PUSH2 0x100 DUP12 ADD MLOAD PUSH8 0xFFFFFFFFFFFFFFFF DUP2 GT ISZERO PUSH3 0x814 JUMPI PUSH3 0x813 PUSH3 0x3B1 JUMP JUMPDEST JUMPDEST PUSH3 0x822 DUP14 DUP3 DUP15 ADD PUSH3 0x65D JUMP JUMPDEST SWAP3 POP POP PUSH2 0x120 PUSH3 0x836 DUP14 DUP3 DUP15 ADD PUSH3 0x6DE JUMP JUMPDEST SWAP2 POP POP SWAP3 SWAP6 SWAP9 SWAP12 SWAP2 SWAP5 SWAP8 SWAP11 POP SWAP3 SWAP6 SWAP9 POP JUMP JUMPDEST PUSH32 0x4E487B7100000000000000000000000000000000000000000000000000000000 PUSH1 0x0 MSTORE PUSH1 0x11 PUSH1 0x4 MSTORE PUSH1 0x24 PUSH1 0x0 REVERT JUMPDEST PUSH1 0x0 PUSH3 0x884 DUP3 PUSH3 0x57A JUMP JUMPDEST SWAP2 POP PUSH3 0x891 DUP4 PUSH3 0x57A JUMP JUMPDEST SWAP3 POP DUP3 PUSH32 0xFFFFFFFFFFFFFFFFFFFFFFFFFFFFFFFFFFFFFFFFFFFFFFFFFFFFFFFFFFFFFFFF SUB DUP3 GT ISZERO PUSH3 0x8C9 JUMPI PUSH3 0x8C8 PUSH3 0x848 JUMP JUMPDEST JUMPDEST DUP3 DUP3 ADD SWAP1 POP SWAP3 SWAP2 POP POP JUMP JUMPDEST PUSH1 0x0 DUP3 DUP3 MSTORE PUSH1 0x20 DUP3 ADD SWAP1 POP SWAP3 SWAP2 POP POP JUMP JUMPDEST PUSH32 0x43616D706169676E496E666F3A204D696E696D756D2063616D706169676E2064 PUSH1 0x0 DUP3 ADD MSTORE PUSH32 0x7561726174696F6E206E6F74206D657400000000000000000000000000000000 PUSH1 0x20 DUP3 ADD MSTORE POP JUMP JUMPDEST PUSH1 0x0 PUSH3 0x943 PUSH1 0x30 DUP4 PUSH3 0x8D4 JUMP JUMPDEST SWAP2 POP PUSH3 0x950 DUP3 PUSH3 0x8E5 JUMP JUMPDEST PUSH1 0x40 DUP3 ADD SWAP1 POP SWAP2 SWAP1 POP JUMP JUMPDEST PUSH1 0x0 PUSH1 0x20 DUP3 ADD SWAP1 POP DUP2 DUP2 SUB PUSH1 0x0 DUP4 ADD MSTORE PUSH3 0x976 DUP2 PUSH3 0x934 JUMP JUMPDEST SWAP1 POP SWAP2 SWAP1 POP JUMP JUMPDEST PUSH32 0x4E487B7100000000000000000000000000000000000000000000000000000000 PUSH1 0x0 MSTORE PUSH1 0x22 PUSH1 0x4 MSTORE PUSH1 0x24 PUSH1 0x0 REVERT JUMPDEST PUSH1 0x0 PUSH1 0x2 DUP3 DIV SWAP1 POP PUSH1 0x1 DUP3 AND DUP1 PUSH3 0x9C5 JUMPI PUSH1 0x7F DUP3 AND SWAP2 POP JUMPDEST PUSH1 0x20 DUP3 LT DUP2 EQ ISZERO PUSH3 0x9DC JUMPI PUSH3 0x9DB PUSH3 0x97D JUMP JUMPDEST JUMPDEST POP SWAP2 SWAP1 POP JUMP JUMPDEST PUSH2 0x38C5 DUP1 PUSH3 0x9F2 PUSH1 0x0 CODECOPY PUSH1 0x0 RETURN INVALID PUSH1 0x80 PUSH1 0x40 MSTORE CALLVALUE DUP1 ISZERO PUSH2 0x10 JUMPI PUSH1 0x0 DUP1 REVERT JUMPDEST POP PUSH1 0x4 CALLDATASIZE LT PUSH2 0x1C4 JUMPI PUSH1 0x0 CALLDATALOAD PUSH1 0xE0 SHR DUP1 PUSH4 0x83D23AB3 GT PUSH2 0xF9 JUMPI DUP1 PUSH4 0xC4176338 GT PUSH2 0x97 JUMPI DUP1 PUSH4 0xF2FDE38B GT PUSH2 0x71 JUMPI DUP1 PUSH4 0xF2FDE38B EQ PUSH2 0x475 JUMPI DUP1 PUSH4 0xF6B854FF EQ PUSH2 0x491 JUMPI DUP1 PUSH4 0xF8403676 EQ PUSH2 0x4AD JUMPI DUP1 PUSH4 0xFB7846DF EQ PUSH2 0x4CB JUMPI PUSH2 0x1C4 JUMP JUMPDEST DUP1 PUSH4 0xC4176338 EQ PUSH2 0x406 JUMPI DUP1 PUSH4 0xE12900F2 EQ PUSH2 0x429 JUMPI DUP1 PUSH4 0xF18F409F EQ PUSH2 0x459 JUMPI PUSH2 0x1C4 JUMP JUMPDEST DUP1 PUSH4 0x8DA5CB5B GT PUSH2 0xD3 JUMPI DUP1 PUSH4 0x8DA5CB5B EQ PUSH2 0x3A4 JUMPI DUP1 PUSH4 0x9BD4DD3C EQ PUSH2 0x3C2 JUMPI DUP1 PUSH4 0xA0797F75 EQ PUSH2 0x3DE JUMPI DUP1 PUSH4 0xB0E10C61 EQ PUSH2 0x3FC JUMPI PUSH2 0x1C4 JUMP JUMPDEST DUP1 PUSH4 0x83D23AB3 EQ PUSH2 0x34E JUMPI DUP1 PUSH4 0x8456CB59 EQ PUSH2 0x36A JUMPI DUP1 PUSH4 0x84EA5C74 EQ PUSH2 0x374 JUMPI PUSH2 0x1C4 JUMP JUMPDEST DUP1 PUSH4 0x49867312 GT PUSH2 0x166 JUMPI DUP1 PUSH4 0x5C975ABB GT PUSH2 0x140 JUMPI DUP1 PUSH4 0x5C975ABB EQ PUSH2 0x300 JUMPI DUP1 PUSH4 0x60F67BC8 EQ PUSH2 0x31E JUMPI DUP1 PUSH4 0x715018A6 EQ PUSH2 0x33A JUMPI DUP1 PUSH4 0x7568173B EQ PUSH2 0x344 JUMPI PUSH2 0x1C4 JUMP JUMPDEST DUP1 PUSH4 0x49867312 EQ PUSH2 0x2BE JUMPI DUP1 PUSH4 0x4DA7F432 EQ PUSH2 0x2DA JUMPI DUP1 PUSH4 0x55BF3112 EQ PUSH2 0x2F6 JUMPI PUSH2 0x1C4 JUMP JUMPDEST DUP1 PUSH4 0x30C00B00 GT PUSH2 0x1A2 JUMPI DUP1 PUSH4 0x30C00B00 EQ PUSH2 0x235 JUMPI DUP1 PUSH4 0x32A8E034 EQ PUSH2 0x265 JUMPI DUP1 PUSH4 0x33A06C81 EQ PUSH2 0x296 JUMPI DUP1 PUSH4 0x3F4BA83A EQ PUSH2 0x2B4 JUMPI PUSH2 0x1C4 JUMP JUMPDEST DUP1 PUSH4 0x26D7CFD EQ PUSH2 0x1C9 JUMPI DUP1 PUSH4 0x2E162DB6 EQ PUSH2 0x1E7 JUMPI DUP1 PUSH4 0x2EE8EBF7 EQ PUSH2 0x205 JUMPI JUMPDEST PUSH1 0x0 DUP1 REVERT JUMPDEST PUSH2 0x1D1 PUSH2 0x4FB JUMP JUMPDEST PUSH1 0x40 MLOAD PUSH2 0x1DE SWAP2 SWAP1 PUSH2 0x294A JUMP JUMPDEST PUSH1 0x40 MLOAD DUP1 SWAP2 SUB SWAP1 RETURN JUMPDEST PUSH2 0x1EF PUSH2 0x500 JUMP JUMPDEST PUSH1 0x40 MLOAD PUSH2 0x1FC SWAP2 SWAP1 PUSH2 0x2A2D JUMP JUMPDEST PUSH1 0x40 MLOAD DUP1 SWAP2 SUB SWAP1 RETURN JUMPDEST PUSH2 0x21F PUSH1 0x4 DUP1 CALLDATASIZE SUB DUP2 ADD SWAP1 PUSH2 0x21A SWAP2 SWAP1 PUSH2 0x2BE8 JUMP JUMPDEST PUSH2 0x55B JUMP JUMPDEST PUSH1 0x40 MLOAD PUSH2 0x22C SWAP2 SWAP1 PUSH2 0x2D02 JUMP JUMPDEST PUSH1 0x40 MLOAD DUP1 SWAP2 SUB SWAP1 RETURN JUMPDEST PUSH2 0x24F PUSH1 0x4 DUP1 CALLDATASIZE SUB DUP2 ADD SWAP1 PUSH2 0x24A SWAP2 SWAP1 PUSH2 0x2D50 JUMP JUMPDEST PUSH2 0x62C JUMP JUMPDEST PUSH1 0x40 MLOAD PUSH2 0x25C SWAP2 SWAP1 PUSH2 0x294A JUMP JUMPDEST PUSH1 0x40 MLOAD DUP1 SWAP2 SUB SWAP1 RETURN JUMPDEST PUSH2 0x27F PUSH1 0x4 DUP1 CALLDATASIZE SUB DUP2 ADD SWAP1 PUSH2 0x27A SWAP2 SWAP1 PUSH2 0x2D7D JUMP JUMPDEST PUSH2 0x7C9 JUMP JUMPDEST PUSH1 0x40 MLOAD PUSH2 0x28D SWAP3 SWAP2 SWAP1 PUSH2 0x2E00 JUMP JUMPDEST PUSH1 0x40 MLOAD DUP1 SWAP2 SUB SWAP1 RETURN JUMPDEST PUSH2 0x29E PUSH2 0x83D JUMP JUMPDEST PUSH1 0x40 MLOAD PUSH2 0x2AB SWAP2 SWAP1 PUSH2 0x294A JUMP JUMPDEST PUSH1 0x40 MLOAD DUP1 SWAP2 SUB SWAP1 RETURN JUMPDEST PUSH2 0x2BC PUSH2 0xB06 JUMP JUMPDEST STOP JUMPDEST PUSH2 0x2D8 PUSH1 0x4 DUP1 CALLDATASIZE SUB DUP2 ADD SWAP1 PUSH2 0x2D3 SWAP2 SWAP1 PUSH2 0x2E8E JUMP JUMPDEST PUSH2 0xBE7 JUMP JUMPDEST STOP JUMPDEST PUSH2 0x2F4 PUSH1 0x4 DUP1 CALLDATASIZE SUB DUP2 ADD SWAP1 PUSH2 0x2EF SWAP2 SWAP1 PUSH2 0x2EF5 JUMP JUMPDEST PUSH2 0xDBA JUMP JUMPDEST STOP JUMPDEST PUSH2 0x2FE PUSH2 0xEBC JUMP JUMPDEST STOP JUMPDEST PUSH2 0x308 PUSH2 0x11EE JUMP JUMPDEST PUSH1 0x40 MLOAD PUSH2 0x315 SWAP2 SWAP1 PUSH2 0x2F3D JUMP JUMPDEST PUSH1 0x40 MLOAD DUP1 SWAP2 SUB SWAP1 RETURN JUMPDEST PUSH2 0x338 PUSH1 0x4 DUP1 CALLDATASIZE SUB DUP2 ADD SWAP1 PUSH2 0x333 SWAP2 SWAP1 PUSH2 0x2F58 JUMP JUMPDEST PUSH2 0x1204 JUMP JUMPDEST STOP JUMPDEST PUSH2 0x342 PUSH2 0x13C9 JUMP JUMPDEST STOP JUMPDEST PUSH2 0x34C PUSH2 0x13DD JUMP JUMPDEST STOP JUMPDEST PUSH2 0x368 PUSH1 0x4 DUP1 CALLDATASIZE SUB DUP2 ADD SWAP1 PUSH2 0x363 SWAP2 SWAP1 PUSH2 0x2D50 JUMP JUMPDEST PUSH2 0x15F7 JUMP JUMPDEST STOP JUMPDEST PUSH2 0x372 PUSH2 0x16FD JUMP JUMPDEST STOP JUMPDEST PUSH2 0x38E PUSH1 0x4 DUP1 CALLDATASIZE SUB DUP2 ADD SWAP1 PUSH2 0x389 SWAP2 SWAP1 PUSH2 0x2D50 JUMP JUMPDEST PUSH2 0x17DE JUMP JUMPDEST PUSH1 0x40 MLOAD PUSH2 0x39B SWAP2 SWAP1 PUSH2 0x2FBA JUMP JUMPDEST PUSH1 0x40 MLOAD DUP1 SWAP2 SUB SWAP1 RETURN JUMPDEST PUSH2 0x3AC PUSH2 0x18C0 JUMP JUMPDEST PUSH1 0x40 MLOAD PUSH2 0x3B9 SWAP2 SWAP1 PUSH2 0x2FBA JUMP JUMPDEST PUSH1 0x40 MLOAD DUP1 SWAP2 SUB SWAP1 RETURN JUMPDEST PUSH2 0x3DC PUSH1 0x4 DUP1 CALLDATASIZE SUB DUP2 ADD SWAP1 PUSH2 0x3D7 SWAP2 SWAP1 PUSH2 0x2EF5 JUMP JUMPDEST PUSH2 0x18E9 JUMP JUMPDEST STOP JUMPDEST PUSH2 0x3E6 PUSH2 0x19EB JUMP JUMPDEST PUSH1 0x40 MLOAD PUSH2 0x3F3 SWAP2 SWAP1 PUSH2 0x2FE4 JUMP JUMPDEST PUSH1 0x40 MLOAD DUP1 SWAP2 SUB SWAP1 RETURN JUMPDEST PUSH2 0x404 PUSH2 0x19F7 JUMP JUMPDEST STOP JUMPDEST PUSH2 0x40E PUSH2 0x1D29 JUMP JUMPDEST PUSH1 0x40 MLOAD PUSH2 0x420 SWAP7 SWAP6 SWAP5 SWAP4 SWAP3 SWAP2 SWAP1 PUSH2 0x3087 JUMP JUMPDEST PUSH1 0x40 MLOAD DUP1 SWAP2 SUB SWAP1 RETURN JUMPDEST PUSH2 0x443 PUSH1 0x4 DUP1 CALLDATASIZE SUB DUP2 ADD SWAP1 PUSH2 0x43E SWAP2 SWAP1 PUSH2 0x30F6 JUMP JUMPDEST PUSH2 0x1E81 JUMP JUMPDEST PUSH1 0x40 MLOAD PUSH2 0x450 SWAP2 SWAP1 PUSH2 0x294A JUMP JUMPDEST PUSH1 0x40 MLOAD DUP1 SWAP2 SUB SWAP1 RETURN JUMPDEST PUSH2 0x473 PUSH1 0x4 DUP1 CALLDATASIZE SUB DUP2 ADD SWAP1 PUSH2 0x46E SWAP2 SWAP1 PUSH2 0x2EF5 JUMP JUMPDEST PUSH2 0x1EDC JUMP JUMPDEST STOP JUMPDEST PUSH2 0x48F PUSH1 0x4 DUP1 CALLDATASIZE SUB DUP2 ADD SWAP1 PUSH2 0x48A SWAP2 SWAP1 PUSH2 0x3136 JUMP JUMPDEST PUSH2 0x1FC0 JUMP JUMPDEST STOP JUMPDEST PUSH2 0x4AB PUSH1 0x4 DUP1 CALLDATASIZE SUB DUP2 ADD SWAP1 PUSH2 0x4A6 SWAP2 SWAP1 PUSH2 0x3163 JUMP JUMPDEST PUSH2 0x2044 JUMP JUMPDEST STOP JUMPDEST PUSH2 0x4B5 PUSH2 0x21C6 JUMP JUMPDEST PUSH1 0x40 MLOAD PUSH2 0x4C2 SWAP2 SWAP1 PUSH2 0x294A JUMP JUMPDEST PUSH1 0x40 MLOAD DUP1 SWAP2 SUB SWAP1 RETURN JUMPDEST PUSH2 0x4E5 PUSH1 0x4 DUP1 CALLDATASIZE SUB DUP2 ADD SWAP1 PUSH2 0x4E0 SWAP2 SWAP1 PUSH2 0x2D50 JUMP JUMPDEST PUSH2 0x252F JUMP JUMPDEST PUSH1 0x40 MLOAD PUSH2 0x4F2 SWAP2 SWAP1 PUSH2 0x294A JUMP JUMPDEST PUSH1 0x40 MLOAD DUP1 SWAP2 SUB SWAP1 RETURN JUMPDEST PUSH1 0x0 SWAP1 JUMP JUMPDEST PUSH1 0x60 PUSH1 0x1 PUSH1 0x7 ADD DUP1 SLOAD DUP1 PUSH1 0x20 MUL PUSH1 0x20 ADD PUSH1 0x40 MLOAD SWAP1 DUP2 ADD PUSH1 0x40 MSTORE DUP1 SWAP3 SWAP2 SWAP1 DUP2 DUP2 MSTORE PUSH1 0x20 ADD DUP3 DUP1 SLOAD DUP1 ISZERO PUSH2 0x551 JUMPI PUSH1 0x20 MUL DUP3 ADD SWAP2 SWAP1 PUSH1 0x0 MSTORE PUSH1 0x20 PUSH1 0x0 KECCAK256 SWAP1 JUMPDEST DUP2 SLOAD DUP2 MSTORE PUSH1 0x20 ADD SWAP1 PUSH1 0x1 ADD SWAP1 DUP1 DUP4 GT PUSH2 0x53D JUMPI JUMPDEST POP POP POP POP POP SWAP1 POP SWAP1 JUMP JUMPDEST PUSH1 0x60 PUSH1 0x0 DUP3 MLOAD SWAP1 POP PUSH1 0x0 DUP2 PUSH8 0xFFFFFFFFFFFFFFFF DUP2 GT ISZERO PUSH2 0x57F JUMPI PUSH2 0x57E PUSH2 0x2AA5 JUMP JUMPDEST JUMPDEST PUSH1 0x40 MLOAD SWAP1 DUP1 DUP3 MSTORE DUP1 PUSH1 0x20 MUL PUSH1 0x20 ADD DUP3 ADD PUSH1 0x40 MSTORE DUP1 ISZERO PUSH2 0x5AD JUMPI DUP2 PUSH1 0x20 ADD PUSH1 0x20 DUP3 MUL DUP1 CALLDATASIZE DUP4 CALLDATACOPY DUP1 DUP3 ADD SWAP2 POP POP SWAP1 POP JUMPDEST POP SWAP1 POP PUSH1 0x0 JUMPDEST DUP3 DUP2 LT ISZERO PUSH2 0x620 JUMPI PUSH2 0x2710 DUP7 DUP7 DUP4 DUP2 MLOAD DUP2 LT PUSH2 0x5D2 JUMPI PUSH2 0x5D1 PUSH2 0x31A3 JUMP JUMPDEST JUMPDEST PUSH1 0x20 MUL PUSH1 0x20 ADD ADD MLOAD PUSH2 0x5E4 SWAP2 SWAP1 PUSH2 0x3201 JUMP JUMPDEST PUSH2 0x5EE SWAP2 SWAP1 PUSH2 0x328A JUMP JUMPDEST DUP3 DUP3 DUP2 MLOAD DUP2 LT PUSH2 0x601 JUMPI PUSH2 0x600 PUSH2 0x31A3 JUMP JUMPDEST JUMPDEST PUSH1 0x20 MUL PUSH1 0x20 ADD ADD DUP2 DUP2 MSTORE POP POP DUP1 DUP1 PUSH2 0x618 SWAP1 PUSH2 0x32BB JUMP JUMPDEST SWAP2 POP POP PUSH2 0x5B3 JUMP JUMPDEST POP DUP1 SWAP3 POP POP POP SWAP3 SWAP2 POP POP JUMP JUMPDEST PUSH1 0x0 DUP2 PUSH1 0x0 PUSH20 0xFFFFFFFFFFFFFFFFFFFFFFFFFFFFFFFFFFFFFFFF AND PUSH1 0x10 PUSH1 0x0 DUP4 DUP2 MSTORE PUSH1 0x20 ADD SWAP1 DUP2 MSTORE PUSH1 0x20 ADD PUSH1 0x0 KECCAK256 PUSH1 0x0 SWAP1 SLOAD SWAP1 PUSH2 0x100 EXP SWAP1 DIV PUSH20 0xFFFFFFFFFFFFFFFFFFFFFFFFFFFFFFFFFFFFFFFF AND PUSH20 0xFFFFFFFFFFFFFFFFFFFFFFFFFFFFFFFFFFFFFFFF AND EQ ISZERO PUSH2 0x6D2 JUMPI PUSH1 0x40 MLOAD PUSH32 0x8C379A000000000000000000000000000000000000000000000000000000000 DUP2 MSTORE PUSH1 0x4 ADD PUSH2 0x6C9 SWAP1 PUSH2 0x3376 JUMP JUMPDEST PUSH1 0x40 MLOAD DUP1 SWAP2 SUB SWAP1 REVERT JUMPDEST PUSH1 0x11 PUSH1 0x0 DUP5 DUP2 MSTORE PUSH1 0x20 ADD SWAP1 DUP2 MSTORE PUSH1 0x20 ADD PUSH1 0x0 KECCAK256 PUSH1 0x0 SWAP1 SLOAD SWAP1 PUSH2 0x100 EXP SWAP1 DIV PUSH20 0xFFFFFFFFFFFFFFFFFFFFFFFFFFFFFFFFFFFFFFFF AND PUSH20 0xFFFFFFFFFFFFFFFFFFFFFFFFFFFFFFFFFFFFFFFF AND PUSH4 0x70A08231 PUSH1 0x10 PUSH1 0x0 DUP7 DUP2 MSTORE PUSH1 0x20 ADD SWAP1 DUP2 MSTORE PUSH1 0x20 ADD PUSH1 0x0 KECCAK256 PUSH1 0x0 SWAP1 SLOAD SWAP1 PUSH2 0x100 EXP SWAP1 DIV PUSH20 0xFFFFFFFFFFFFFFFFFFFFFFFFFFFFFFFFFFFFFFFF AND PUSH1 0x40 MLOAD DUP3 PUSH4 0xFFFFFFFF AND PUSH1 0xE0 SHL DUP2 MSTORE PUSH1 0x4 ADD PUSH2 0x771 SWAP2 SWAP1 PUSH2 0x2FBA JUMP JUMPDEST PUSH1 0x20 PUSH1 0x40 MLOAD DUP1 DUP4 SUB DUP2 DUP7 DUP1 EXTCODESIZE ISZERO DUP1 ISZERO PUSH2 0x789 JUMPI PUSH1 0x0 DUP1 REVERT JUMPDEST POP GAS STATICCALL ISZERO DUP1 ISZERO PUSH2 0x79D JUMPI RETURNDATASIZE PUSH1 0x0 DUP1 RETURNDATACOPY RETURNDATASIZE PUSH1 0x0 REVERT JUMPDEST POP POP POP POP PUSH1 0x40 MLOAD RETURNDATASIZE PUSH1 0x1F NOT PUSH1 0x1F DUP3 ADD AND DUP3 ADD DUP1 PUSH1 0x40 MSTORE POP DUP2 ADD SWAP1 PUSH2 0x7C1 SWAP2 SWAP1 PUSH2 0x33AB JUMP JUMPDEST SWAP2 POP POP SWAP2 SWAP1 POP JUMP JUMPDEST PUSH1 0x0 PUSH1 0x60 PUSH1 0x0 DUP4 MLOAD SWAP1 POP PUSH1 0x0 PUSH1 0x1 DUP3 PUSH2 0x7E2 SWAP2 SWAP1 PUSH2 0x33D8 JUMP JUMPDEST DUP8 DUP10 PUSH2 0x7EE SWAP2 SWAP1 PUSH2 0x342E JUMP JUMPDEST PUSH2 0x7F8 SWAP2 SWAP1 PUSH2 0x328A JUMP JUMPDEST SWAP1 POP PUSH1 0x0 PUSH2 0x2710 DUP3 DUP10 PUSH2 0x80B SWAP2 SWAP1 PUSH2 0x33D8 JUMP JUMPDEST DUP9 PUSH2 0x816 SWAP2 SWAP1 PUSH2 0x3201 JUMP JUMPDEST PUSH2 0x820 SWAP2 SWAP1 PUSH2 0x328A JUMP JUMPDEST SWAP1 POP DUP1 PUSH2 0x82D DUP4 DUP9 PUSH2 0x55B JUMP JUMPDEST SWAP5 POP SWAP5 POP POP POP POP SWAP5 POP SWAP5 SWAP3 POP POP POP JUMP JUMPDEST PUSH1 0x0 DUP1 PUSH1 0x10 PUSH1 0x0 PUSH1 0x1 DUP1 ADD SLOAD DUP2 MSTORE PUSH1 0x20 ADD SWAP1 DUP2 MSTORE PUSH1 0x20 ADD PUSH1 0x0 KECCAK256 PUSH1 0x0 SWAP1 SLOAD SWAP1 PUSH2 0x100 EXP SWAP1 DIV PUSH20 0xFFFFFFFFFFFFFFFFFFFFFFFFFFFFFFFFFFFFFFFF AND SWAP1 POP PUSH1 0x0 PUSH20 0xFFFFFFFFFFFFFFFFFFFFFFFFFFFFFFFFFFFFFFFF AND DUP2 PUSH20 0xFFFFFFFFFFFFFFFFFFFFFFFFFFFFFFFFFFFFFFFF AND EQ ISZERO PUSH2 0x8EA JUMPI PUSH1 0x40 MLOAD PUSH32 0x8C379A000000000000000000000000000000000000000000000000000000000 DUP2 MSTORE PUSH1 0x4 ADD PUSH2 0x8E1 SWAP1 PUSH2 0x34D4 JUMP JUMPDEST PUSH1 0x40 MLOAD DUP1 SWAP2 SUB SWAP1 REVERT JUMPDEST PUSH1 0x0 PUSH1 0x1 PUSH1 0x7 ADD DUP1 SLOAD DUP1 PUSH1 0x20 MUL PUSH1 0x20 ADD PUSH1 0x40 MLOAD SWAP1 DUP2 ADD PUSH1 0x40 MSTORE DUP1 SWAP3 SWAP2 SWAP1 DUP2 DUP2 MSTORE PUSH1 0x20 ADD DUP3 DUP1 SLOAD DUP1 ISZERO PUSH2 0x93B JUMPI PUSH1 0x20 MUL DUP3 ADD SWAP2 SWAP1 PUSH1 0x0 MSTORE PUSH1 0x20 PUSH1 0x0 KECCAK256 SWAP1 JUMPDEST DUP2 SLOAD DUP2 MSTORE PUSH1 0x20 ADD SWAP1 PUSH1 0x1 ADD SWAP1 DUP1 DUP4 GT PUSH2 0x927 JUMPI JUMPDEST POP POP POP POP POP SWAP1 POP PUSH1 0x0 DUP2 MLOAD SWAP1 POP PUSH1 0x0 DUP4 PUSH20 0xFFFFFFFFFFFFFFFFFFFFFFFFFFFFFFFFFFFFFFFF AND PUSH4 0x186BC549 PUSH1 0x40 MLOAD DUP2 PUSH4 0xFFFFFFFF AND PUSH1 0xE0 SHL DUP2 MSTORE PUSH1 0x4 ADD PUSH1 0x20 PUSH1 0x40 MLOAD DUP1 DUP4 SUB DUP2 DUP7 DUP1 EXTCODESIZE ISZERO DUP1 ISZERO PUSH2 0x990 JUMPI PUSH1 0x0 DUP1 REVERT JUMPDEST POP GAS STATICCALL ISZERO DUP1 ISZERO PUSH2 0x9A4 JUMPI RETURNDATASIZE PUSH1 0x0 DUP1 RETURNDATACOPY RETURNDATASIZE PUSH1 0x0 REVERT JUMPDEST POP POP POP POP PUSH1 0x40 MLOAD RETURNDATASIZE PUSH1 0x1F NOT PUSH1 0x1F DUP3 ADD AND DUP3 ADD DUP1 PUSH1 0x40 MSTORE POP DUP2 ADD SWAP1 PUSH2 0x9C8 SWAP2 SWAP1 PUSH2 0x33AB JUMP JUMPDEST SWAP1 POP PUSH1 0x0 JUMPDEST DUP3 DUP2 LT ISZERO PUSH2 0xAFB JUMPI PUSH1 0x0 PUSH1 0x10 PUSH1 0x0 DUP7 DUP5 DUP2 MLOAD DUP2 LT PUSH2 0x9EE JUMPI PUSH2 0x9ED PUSH2 0x31A3 JUMP JUMPDEST JUMPDEST PUSH1 0x20 MUL PUSH1 0x20 ADD ADD MLOAD DUP2 MSTORE PUSH1 0x20 ADD SWAP1 DUP2 MSTORE PUSH1 0x20 ADD PUSH1 0x0 KECCAK256 PUSH1 0x0 SWAP1 SLOAD SWAP1 PUSH2 0x100 EXP SWAP1 DIV PUSH20 0xFFFFFFFFFFFFFFFFFFFFFFFFFFFFFFFFFFFFFFFF AND SWAP1 POP PUSH1 0x0 PUSH20 0xFFFFFFFFFFFFFFFFFFFFFFFFFFFFFFFFFFFFFFFF AND DUP2 PUSH20 0xFFFFFFFFFFFFFFFFFFFFFFFFFFFFFFFFFFFFFFFF AND EQ PUSH2 0xAE7 JUMPI DUP1 PUSH20 0xFFFFFFFFFFFFFFFFFFFFFFFFFFFFFFFFFFFFFFFF AND PUSH4 0x186BC549 PUSH1 0x40 MLOAD DUP2 PUSH4 0xFFFFFFFF AND PUSH1 0xE0 SHL DUP2 MSTORE PUSH1 0x4 ADD PUSH1 0x20 PUSH1 0x40 MLOAD DUP1 DUP4 SUB DUP2 DUP7 DUP1 EXTCODESIZE ISZERO DUP1 ISZERO PUSH2 0xAA1 JUMPI PUSH1 0x0 DUP1 REVERT JUMPDEST POP GAS STATICCALL ISZERO DUP1 ISZERO PUSH2 0xAB5 JUMPI RETURNDATASIZE PUSH1 0x0 DUP1 RETURNDATACOPY RETURNDATASIZE PUSH1 0x0 REVERT JUMPDEST POP POP POP POP PUSH1 0x40 MLOAD RETURNDATASIZE PUSH1 0x1F NOT PUSH1 0x1F DUP3 ADD AND DUP3 ADD DUP1 PUSH1 0x40 MSTORE POP DUP2 ADD SWAP1 PUSH2 0xAD9 SWAP2 SWAP1 PUSH2 0x33AB JUMP JUMPDEST DUP4 PUSH2 0xAE4 SWAP2 SWAP1 PUSH2 0x33D8 JUMP JUMPDEST SWAP3 POP JUMPDEST POP DUP1 DUP1 PUSH2 0xAF3 SWAP1 PUSH2 0x32BB JUMP JUMPDEST SWAP2 POP POP PUSH2 0x9CD JUMP JUMPDEST POP DUP1 SWAP5 POP POP POP POP POP SWAP1 JUMP JUMPDEST PUSH1 0x9 PUSH1 0x1 SWAP1 SLOAD SWAP1 PUSH2 0x100 EXP SWAP1 DIV PUSH20 0xFFFFFFFFFFFFFFFFFFFFFFFFFFFFFFFFFFFFFFFF AND PUSH20 0xFFFFFFFFFFFFFFFFFFFFFFFFFFFFFFFFFFFFFFFF AND PUSH4 0x8DA5CB5B PUSH1 0x40 MLOAD DUP2 PUSH4 0xFFFFFFFF AND PUSH1 0xE0 SHL DUP2 MSTORE PUSH1 0x4 ADD PUSH1 0x20 PUSH1 0x40 MLOAD DUP1 DUP4 SUB DUP2 DUP7 DUP1 EXTCODESIZE ISZERO DUP1 ISZERO PUSH2 0xB6E JUMPI PUSH1 0x0 DUP1 REVERT JUMPDEST POP GAS STATICCALL ISZERO DUP1 ISZERO PUSH2 0xB82 JUMPI RETURNDATASIZE PUSH1 0x0 DUP1 RETURNDATACOPY RETURNDATASIZE PUSH1 0x0 REVERT JUMPDEST POP POP POP POP PUSH1 0x40 MLOAD RETURNDATASIZE PUSH1 0x1F NOT PUSH1 0x1F DUP3 ADD AND DUP3 ADD DUP1 PUSH1 0x40 MSTORE POP DUP2 ADD SWAP1 PUSH2 0xBA6 SWAP2 SWAP1 PUSH2 0x3509 JUMP JUMPDEST PUSH20 0xFFFFFFFFFFFFFFFFFFFFFFFFFFFFFFFFFFFFFFFF AND CALLER PUSH20 0xFFFFFFFFFFFFFFFFFFFFFFFFFFFFFFFFFFFFFFFF AND EQ PUSH2 0xBDD JUMPI PUSH1 0x0 DUP1 REVERT JUMPDEST PUSH2 0xBE5 PUSH2 0x2627 JUMP JUMPDEST JUMP JUMPDEST PUSH1 0x9 PUSH1 0x1 SWAP1 SLOAD SWAP1 PUSH2 0x100 EXP SWAP1 DIV PUSH20 0xFFFFFFFFFFFFFFFFFFFFFFFFFFFFFFFFFFFFFFFF AND PUSH20 0xFFFFFFFFFFFFFFFFFFFFFFFFFFFFFFFFFFFFFFFF AND PUSH4 0x8DA5CB5B PUSH1 0x40 MLOAD DUP2 PUSH4 0xFFFFFFFF AND PUSH1 0xE0 SHL DUP2 MSTORE PUSH1 0x4 ADD PUSH1 0x20 PUSH1 0x40 MLOAD DUP1 DUP4 SUB DUP2 DUP7 DUP1 EXTCODESIZE ISZERO DUP1 ISZERO PUSH2 0xC4F JUMPI PUSH1 0x0 DUP1 REVERT JUMPDEST POP GAS STATICCALL ISZERO DUP1 ISZERO PUSH2 0xC63 JUMPI RETURNDATASIZE PUSH1 0x0 DUP1 RETURNDATACOPY RETURNDATASIZE PUSH1 0x0 REVERT JUMPDEST POP POP POP POP PUSH1 0x40 MLOAD RETURNDATASIZE PUSH1 0x1F NOT PUSH1 0x1F DUP3 ADD AND DUP3 ADD DUP1 PUSH1 0x40 MSTORE POP DUP2 ADD SWAP1 PUSH2 0xC87 SWAP2 SWAP1 PUSH2 0x3509 JUMP JUMPDEST PUSH20 0xFFFFFFFFFFFFFFFFFFFFFFFFFFFFFFFFFFFFFFFF AND CALLER PUSH20 0xFFFFFFFFFFFFFFFFFFFFFFFFFFFFFFFFFFFFFFFF AND EQ PUSH2 0xCBE JUMPI PUSH1 0x0 DUP1 REVERT JUMPDEST DUP3 PUSH1 0x12 PUSH1 0x0 DUP7 DUP2 MSTORE PUSH1 0x20 ADD SWAP1 DUP2 MSTORE PUSH1 0x20 ADD PUSH1 0x0 KECCAK256 PUSH1 0x0 PUSH2 0x100 EXP DUP2 SLOAD DUP2 PUSH20 0xFFFFFFFFFFFFFFFFFFFFFFFFFFFFFFFFFFFFFFFF MUL NOT AND SWAP1 DUP4 PUSH20 0xFFFFFFFFFFFFFFFFFFFFFFFFFFFFFFFFFFFFFFFF AND MUL OR SWAP1 SSTORE POP DUP2 PUSH1 0x10 PUSH1 0x0 DUP7 DUP2 MSTORE PUSH1 0x20 ADD SWAP1 DUP2 MSTORE PUSH1 0x20 ADD PUSH1 0x0 KECCAK256 PUSH1 0x0 PUSH2 0x100 EXP DUP2 SLOAD DUP2 PUSH20 0xFFFFFFFFFFFFFFFFFFFFFFFFFFFFFFFFFFFFFFFF MUL NOT AND SWAP1 DUP4 PUSH20 0xFFFFFFFFFFFFFFFFFFFFFFFFFFFFFFFFFFFFFFFF AND MUL OR SWAP1 SSTORE POP DUP1 PUSH1 0x11 PUSH1 0x0 DUP7 DUP2 MSTORE PUSH1 0x20 ADD SWAP1 DUP2 MSTORE PUSH1 0x20 ADD PUSH1 0x0 KECCAK256 PUSH1 0x0 PUSH2 0x100 EXP DUP2 SLOAD DUP2 PUSH20 0xFFFFFFFFFFFFFFFFFFFFFFFFFFFFFFFFFFFFFFFF MUL NOT AND SWAP1 DUP4 PUSH20 0xFFFFFFFFFFFFFFFFFFFFFFFFFFFFFFFFFFFFFFFF AND MUL OR SWAP1 SSTORE POP POP POP POP POP JUMP JUMPDEST PUSH1 0x9 PUSH1 0x1 SWAP1 SLOAD SWAP1 PUSH2 0x100 EXP SWAP1 DIV PUSH20 0xFFFFFFFFFFFFFFFFFFFFFFFFFFFFFFFFFFFFFFFF AND PUSH20 0xFFFFFFFFFFFFFFFFFFFFFFFFFFFFFFFFFFFFFFFF AND PUSH4 0x8DA5CB5B PUSH1 0x40 MLOAD DUP2 PUSH4 0xFFFFFFFF AND PUSH1 0xE0 SHL DUP2 MSTORE PUSH1 0x4 ADD PUSH1 0x20 PUSH1 0x40 MLOAD DUP1 DUP4 SUB DUP2 DUP7 DUP1 EXTCODESIZE ISZERO DUP1 ISZERO PUSH2 0xE22 JUMPI PUSH1 0x0 DUP1 REVERT JUMPDEST POP GAS STATICCALL ISZERO DUP1 ISZERO PUSH2 0xE36 JUMPI RETURNDATASIZE PUSH1 0x0 DUP1 RETURNDATACOPY RETURNDATASIZE PUSH1 0x0 REVERT JUMPDEST POP POP POP POP PUSH1 0x40 MLOAD RETURNDATASIZE PUSH1 0x1F NOT PUSH1 0x1F DUP3 ADD AND DUP3 ADD DUP1 PUSH1 0x40 MSTORE POP DUP2 ADD SWAP1 PUSH2 0xE5A SWAP2 SWAP1 PUSH2 0x3509 JUMP JUMPDEST PUSH20 0xFFFFFFFFFFFFFFFFFFFFFFFFFFFFFFFFFFFFFFFF AND CALLER PUSH20 0xFFFFFFFFFFFFFFFFFFFFFFFFFFFFFFFFFFFFFFFF AND EQ PUSH2 0xE91 JUMPI PUSH1 0x0 DUP1 REVERT JUMPDEST PUSH1 0x1 PUSH1 0x5 ADD SLOAD PUSH1 0xA SLOAD DUP3 PUSH2 0xEA5 SWAP2 SWAP1 PUSH2 0x33D8 JUMP JUMPDEST LT PUSH2 0xEAF JUMPI PUSH1 0x0 DUP1 REVERT JUMPDEST DUP1 PUSH1 0x1 PUSH1 0x3 ADD DUP2 SWAP1 SSTORE POP POP JUMP JUMPDEST PUSH1 0x9 PUSH1 0x15 SWAP1 SLOAD SWAP1 PUSH2 0x100 EXP SWAP1 DIV PUSH1 0xFF AND PUSH2 0xF0B JUMPI PUSH1 0x40 MLOAD PUSH32 0x8C379A000000000000000000000000000000000000000000000000000000000 DUP2 MSTORE PUSH1 0x4 ADD PUSH2 0xF02 SWAP1 PUSH2 0x35A8 JUMP JUMPDEST PUSH1 0x40 MLOAD DUP1 SWAP2 SUB SWAP1 REVERT JUMPDEST PUSH1 0x0 PUSH1 0xD SLOAD SWAP1 POP PUSH1 0x0 PUSH1 0xE SLOAD SWAP1 POP PUSH1 0x0 PUSH2 0xF26 PUSH1 0xC SLOAD PUSH2 0x62C JUMP JUMPDEST SWAP1 POP PUSH1 0x0 PUSH1 0x1 PUSH1 0x7 ADD DUP1 SLOAD DUP1 PUSH1 0x20 MUL PUSH1 0x20 ADD PUSH1 0x40 MLOAD SWAP1 DUP2 ADD PUSH1 0x40 MSTORE DUP1 SWAP3 SWAP2 SWAP1 DUP2 DUP2 MSTORE PUSH1 0x20 ADD DUP3 DUP1 SLOAD DUP1 ISZERO PUSH2 0xF79 JUMPI PUSH1 0x20 MUL DUP3 ADD SWAP2 SWAP1 PUSH1 0x0 MSTORE PUSH1 0x20 PUSH1 0x0 KECCAK256 SWAP1 JUMPDEST DUP2 SLOAD DUP2 MSTORE PUSH1 0x20 ADD SWAP1 PUSH1 0x1 ADD SWAP1 DUP1 DUP4 GT PUSH2 0xF65 JUMPI JUMPDEST POP POP POP POP POP SWAP1 POP PUSH1 0x0 DUP2 MLOAD PUSH8 0xFFFFFFFFFFFFFFFF DUP2 GT ISZERO PUSH2 0xF9D JUMPI PUSH2 0xF9C PUSH2 0x2AA5 JUMP JUMPDEST JUMPDEST PUSH1 0x40 MLOAD SWAP1 DUP1 DUP3 MSTORE DUP1 PUSH1 0x20 MUL PUSH1 0x20 ADD DUP3 ADD PUSH1 0x40 MSTORE DUP1 ISZERO PUSH2 0xFCB JUMPI DUP2 PUSH1 0x20 ADD PUSH1 0x20 DUP3 MUL DUP1 CALLDATASIZE DUP4 CALLDATACOPY DUP1 DUP3 ADD SWAP2 POP POP SWAP1 POP JUMPDEST POP SWAP1 POP PUSH1 0x0 PUSH1 0x1 DUP1 ADD SLOAD SWAP1 POP PUSH1 0x0 DUP4 MLOAD PUSH8 0xFFFFFFFFFFFFFFFF DUP2 GT ISZERO PUSH2 0xFF4 JUMPI PUSH2 0xFF3 PUSH2 0x2AA5 JUMP JUMPDEST JUMPDEST PUSH1 0x40 MLOAD SWAP1 DUP1 DUP3 MSTORE DUP1 PUSH1 0x20 MUL PUSH1 0x20 ADD DUP3 ADD PUSH1 0x40 MSTORE DUP1 ISZERO PUSH2 0x1022 JUMPI DUP2 PUSH1 0x20 ADD PUSH1 0x20 DUP3 MUL DUP1 CALLDATASIZE DUP4 CALLDATACOPY DUP1 DUP3 ADD SWAP2 POP POP SWAP1 POP JUMPDEST POP SWAP1 POP DUP2 PUSH1 0xC SLOAD EQ ISZERO PUSH2 0x1096 JUMPI PUSH1 0x0 JUMPDEST DUP5 MLOAD DUP2 LT ISZERO PUSH2 0x1090 JUMPI PUSH2 0x105E DUP6 DUP3 DUP2 MLOAD DUP2 LT PUSH2 0x1051 JUMPI PUSH2 0x1050 PUSH2 0x31A3 JUMP JUMPDEST JUMPDEST PUSH1 0x20 MUL PUSH1 0x20 ADD ADD MLOAD PUSH2 0x62C JUMP JUMPDEST DUP5 DUP3 DUP2 MLOAD DUP2 LT PUSH2 0x1071 JUMPI PUSH2 0x1070 PUSH2 0x31A3 JUMP JUMPDEST JUMPDEST PUSH1 0x20 MUL PUSH1 0x20 ADD ADD DUP2 DUP2 MSTORE POP POP DUP1 DUP1 PUSH2 0x1088 SWAP1 PUSH2 0x32BB JUMP JUMPDEST SWAP2 POP POP PUSH2 0x1032 JUMP JUMPDEST POP PUSH2 0x11BA JUMP JUMPDEST PUSH1 0x0 PUSH2 0x10A1 DUP4 PUSH2 0x62C JUMP JUMPDEST DUP5 DUP3 DUP2 MLOAD DUP2 LT PUSH2 0x10B4 JUMPI PUSH2 0x10B3 PUSH2 0x31A3 JUMP JUMPDEST JUMPDEST PUSH1 0x20 MUL PUSH1 0x20 ADD ADD DUP2 DUP2 MSTORE POP POP DUP3 DUP3 DUP3 DUP2 MLOAD DUP2 LT PUSH2 0x10D4 JUMPI PUSH2 0x10D3 PUSH2 0x31A3 JUMP JUMPDEST JUMPDEST PUSH1 0x20 MUL PUSH1 0x20 ADD ADD DUP2 DUP2 MSTORE POP POP PUSH1 0x1 SWAP1 POP JUMPDEST DUP5 MLOAD DUP2 GT PUSH2 0x11B8 JUMPI PUSH1 0xC SLOAD DUP6 PUSH1 0x1 DUP4 PUSH2 0x10FE SWAP2 SWAP1 PUSH2 0x342E JUMP JUMPDEST DUP2 MLOAD DUP2 LT PUSH2 0x110F JUMPI PUSH2 0x110E PUSH2 0x31A3 JUMP JUMPDEST JUMPDEST PUSH1 0x20 MUL PUSH1 0x20 ADD ADD MLOAD EQ PUSH2 0x11A5 JUMPI DUP5 PUSH1 0x1 DUP3 PUSH2 0x112A SWAP2 SWAP1 PUSH2 0x342E JUMP JUMPDEST DUP2 MLOAD DUP2 LT PUSH2 0x113B JUMPI PUSH2 0x113A PUSH2 0x31A3 JUMP JUMPDEST JUMPDEST PUSH1 0x20 MUL PUSH1 0x20 ADD ADD MLOAD DUP3 DUP3 DUP2 MLOAD DUP2 LT PUSH2 0x1156 JUMPI PUSH2 0x1155 PUSH2 0x31A3 JUMP JUMPDEST JUMPDEST PUSH1 0x20 MUL PUSH1 0x20 ADD ADD DUP2 DUP2 MSTORE POP POP PUSH2 0x1185 DUP6 DUP3 DUP2 MLOAD DUP2 LT PUSH2 0x1178 JUMPI PUSH2 0x1177 PUSH2 0x31A3 JUMP JUMPDEST JUMPDEST PUSH1 0x20 MUL PUSH1 0x20 ADD ADD MLOAD PUSH2 0x62C JUMP JUMPDEST DUP5 DUP3 DUP2 MLOAD DUP2 LT PUSH2 0x1198 JUMPI PUSH2 0x1197 PUSH2 0x31A3 JUMP JUMPDEST JUMPDEST PUSH1 0x20 MUL PUSH1 0x20 ADD ADD DUP2 DUP2 MSTORE POP POP JUMPDEST DUP1 DUP1 PUSH2 0x11B0 SWAP1 PUSH2 0x32BB JUMP JUMPDEST SWAP2 POP POP PUSH2 0x10E5 JUMP JUMPDEST POP JUMPDEST PUSH1 0x0 DUP1 PUSH2 0x11C9 DUP10 DUP10 DUP10 DUP9 PUSH2 0x7C9 JUMP JUMPDEST SWAP2 POP SWAP2 POP PUSH2 0x11D9 PUSH1 0xC SLOAD DUP4 PUSH2 0x2044 JUMP JUMPDEST PUSH2 0x11E3 DUP4 DUP3 PUSH2 0x2689 JUMP JUMPDEST POP POP POP POP POP POP POP POP POP JUMP JUMPDEST PUSH1 0x0 DUP1 PUSH1 0x14 SWAP1 SLOAD SWAP1 PUSH2 0x100 EXP SWAP1 DIV PUSH1 0xFF AND SWAP1 POP SWAP1 JUMP JUMPDEST PUSH2 0x120C PUSH2 0x26F1 JUMP JUMPDEST PUSH1 0x9 PUSH1 0x15 SWAP1 SLOAD SWAP1 PUSH2 0x100 EXP SWAP1 DIV PUSH1 0xFF AND ISZERO DUP1 ISZERO PUSH2 0x1243 JUMPI POP PUSH1 0xB SLOAD PUSH1 0x1 PUSH1 0x2 ADD SLOAD PUSH2 0x1237 SWAP2 SWAP1 PUSH2 0x328A JUMP JUMPDEST PUSH2 0x1240 DUP5 PUSH2 0x62C JUMP JUMPDEST LT ISZERO JUMPDEST DUP1 ISZERO PUSH2 0x1251 JUMPI POP PUSH1 0xF SLOAD TIMESTAMP LT ISZERO JUMPDEST ISZERO PUSH2 0x1279 JUMPI PUSH1 0x1 PUSH1 0x9 PUSH1 0x15 PUSH2 0x100 EXP DUP2 SLOAD DUP2 PUSH1 0xFF MUL NOT AND SWAP1 DUP4 ISZERO ISZERO MUL OR SWAP1 SSTORE POP DUP3 PUSH1 0xC DUP2 SWAP1 SSTORE POP JUMPDEST PUSH1 0x11 PUSH1 0x0 DUP5 DUP2 MSTORE PUSH1 0x20 ADD SWAP1 DUP2 MSTORE PUSH1 0x20 ADD PUSH1 0x0 KECCAK256 PUSH1 0x0 SWAP1 SLOAD SWAP1 PUSH2 0x100 EXP SWAP1 DIV PUSH20 0xFFFFFFFFFFFFFFFFFFFFFFFFFFFFFFFFFFFFFFFF AND PUSH20 0xFFFFFFFFFFFFFFFFFFFFFFFFFFFFFFFFFFFFFFFF AND PUSH4 0x23B872DD DUP4 PUSH1 0x10 PUSH1 0x0 DUP8 DUP2 MSTORE PUSH1 0x20 ADD SWAP1 DUP2 MSTORE PUSH1 0x20 ADD PUSH1 0x0 KECCAK256 PUSH1 0x0 SWAP1 SLOAD SWAP1 PUSH2 0x100 EXP SWAP1 DIV PUSH20 0xFFFFFFFFFFFFFFFFFFFFFFFFFFFFFFFFFFFFFFFF AND DUP5 PUSH1 0x40 MLOAD DUP5 PUSH4 0xFFFFFFFF AND PUSH1 0xE0 SHL DUP2 MSTORE PUSH1 0x4 ADD PUSH2 0x131C SWAP4 SWAP3 SWAP2 SWAP1 PUSH2 0x35C8 JUMP JUMPDEST PUSH1 0x20 PUSH1 0x40 MLOAD DUP1 DUP4 SUB DUP2 PUSH1 0x0 DUP8 DUP1 EXTCODESIZE ISZERO DUP1 ISZERO PUSH2 0x1336 JUMPI PUSH1 0x0 DUP1 REVERT JUMPDEST POP GAS CALL ISZERO DUP1 ISZERO PUSH2 0x134A JUMPI RETURNDATASIZE PUSH1 0x0 DUP1 RETURNDATACOPY RETURNDATASIZE PUSH1 0x0 REVERT JUMPDEST POP POP POP POP PUSH1 0x40 MLOAD RETURNDATASIZE PUSH1 0x1F NOT PUSH1 0x1F DUP3 ADD AND DUP3 ADD DUP1 PUSH1 0x40 MSTORE POP DUP2 ADD SWAP1 PUSH2 0x136E SWAP2 SWAP1 PUSH2 0x362B JUMP JUMPDEST POP DUP1 PUSH1 0x13 PUSH1 0x0 DUP5 PUSH20 0xFFFFFFFFFFFFFFFFFFFFFFFFFFFFFFFFFFFFFFFF AND PUSH20 0xFFFFFFFFFFFFFFFFFFFFFFFFFFFFFFFFFFFFFFFF AND DUP2 MSTORE PUSH1 0x20 ADD SWAP1 DUP2 MSTORE PUSH1 0x20 ADD PUSH1 0x0 KECCAK256 PUSH1 0x0 DUP6 DUP2 MSTORE PUSH1 0x20 ADD SWAP1 DUP2 MSTORE PUSH1 0x20 ADD PUSH1 0x0 KECCAK256 DUP2 SWAP1 SSTORE POP POP POP POP JUMP JUMPDEST PUSH2 0x13D1 PUSH2 0x273B JUMP JUMPDEST PUSH2 0x13DB PUSH1 0x0 PUSH2 0x27B9 JUMP JUMPDEST JUMP JUMPDEST PUSH1 0x0 PUSH1 0x1 PUSH1 0x7 ADD DUP1 SLOAD DUP1 PUSH1 0x20 MUL PUSH1 0x20 ADD PUSH1 0x40 MLOAD SWAP1 DUP2 ADD PUSH1 0x40 MSTORE DUP1 SWAP3 SWAP2 SWAP1 DUP2 DUP2 MSTORE PUSH1 0x20 ADD DUP3 DUP1 SLOAD DUP1 ISZERO PUSH2 0x142E JUMPI PUSH1 0x20 MUL DUP3 ADD SWAP2 SWAP1 PUSH1 0x0 MSTORE PUSH1 0x20 PUSH1 0x0 KECCAK256 SWAP1 JUMPDEST DUP2 SLOAD DUP2 MSTORE PUSH1 0x20 ADD SWAP1 PUSH1 0x1 ADD SWAP1 DUP1 DUP4 GT PUSH2 0x141A JUMPI JUMPDEST POP POP POP POP POP SWAP1 POP PUSH1 0x0 PUSH1 0x1 DUP3 MLOAD PUSH2 0x1445 SWAP2 SWAP1 PUSH2 0x33D8 JUMP JUMPDEST PUSH8 0xFFFFFFFFFFFFFFFF DUP2 GT ISZERO PUSH2 0x145E JUMPI PUSH2 0x145D PUSH2 0x2AA5 JUMP JUMPDEST JUMPDEST PUSH1 0x40 MLOAD SWAP1 DUP1 DUP3 MSTORE DUP1 PUSH1 0x20 MUL PUSH1 0x20 ADD DUP3 ADD PUSH1 0x40 MSTORE DUP1 ISZERO PUSH2 0x148C JUMPI DUP2 PUSH1 0x20 ADD PUSH1 0x20 DUP3 MUL DUP1 CALLDATASIZE DUP4 CALLDATACOPY DUP1 DUP3 ADD SWAP2 POP POP SWAP1 POP JUMPDEST POP SWAP1 POP PUSH1 0x0 PUSH1 0x1 DUP4 MLOAD PUSH2 0x149F SWAP2 SWAP1 PUSH2 0x33D8 JUMP JUMPDEST PUSH8 0xFFFFFFFFFFFFFFFF DUP2 GT ISZERO PUSH2 0x14B8 JUMPI PUSH2 0x14B7 PUSH2 0x2AA5 JUMP JUMPDEST JUMPDEST PUSH1 0x40 MLOAD SWAP1 DUP1 DUP3 MSTORE DUP1 PUSH1 0x20 MUL PUSH1 0x20 ADD DUP3 ADD PUSH1 0x40 MSTORE DUP1 ISZERO PUSH2 0x14E6 JUMPI DUP2 PUSH1 0x20 ADD PUSH1 0x20 DUP3 MUL DUP1 CALLDATASIZE DUP4 CALLDATACOPY DUP1 DUP3 ADD SWAP2 POP POP SWAP1 POP JUMPDEST POP SWAP1 POP PUSH1 0x0 JUMPDEST DUP4 MLOAD DUP2 LT ISZERO PUSH2 0x1584 JUMPI DUP4 DUP2 DUP2 MLOAD DUP2 LT PUSH2 0x1508 JUMPI PUSH2 0x1507 PUSH2 0x31A3 JUMP JUMPDEST JUMPDEST PUSH1 0x20 MUL PUSH1 0x20 ADD ADD MLOAD DUP4 DUP3 DUP2 MLOAD DUP2 LT PUSH2 0x1523 JUMPI PUSH2 0x1522 PUSH2 0x31A3 JUMP JUMPDEST JUMPDEST PUSH1 0x20 MUL PUSH1 0x20 ADD ADD DUP2 DUP2 MSTORE POP POP PUSH2 0x1552 DUP5 DUP3 DUP2 MLOAD DUP2 LT PUSH2 0x1545 JUMPI PUSH2 0x1544 PUSH2 0x31A3 JUMP JUMPDEST JUMPDEST PUSH1 0x20 MUL PUSH1 0x20 ADD ADD MLOAD PUSH2 0x62C JUMP JUMPDEST DUP3 DUP3 DUP2 MLOAD DUP2 LT PUSH2 0x1565 JUMPI PUSH2 0x1564 PUSH2 0x31A3 JUMP JUMPDEST JUMPDEST PUSH1 0x20 MUL PUSH1 0x20 ADD ADD DUP2 DUP2 MSTORE POP POP DUP1 DUP1 PUSH2 0x157C SWAP1 PUSH2 0x32BB JUMP JUMPDEST SWAP2 POP POP PUSH2 0x14EC JUMP JUMPDEST POP PUSH1 0x1 DUP1 ADD SLOAD DUP3 DUP5 MLOAD DUP2 MLOAD DUP2 LT PUSH2 0x159E JUMPI PUSH2 0x159D PUSH2 0x31A3 JUMP JUMPDEST JUMPDEST PUSH1 0x20 MUL PUSH1 0x20 ADD ADD DUP2 DUP2 MSTORE POP POP PUSH2 0x15B7 PUSH1 0x1 DUP1 ADD SLOAD PUSH2 0x62C JUMP JUMPDEST DUP2 DUP5 MLOAD DUP2 MLOAD DUP2 LT PUSH2 0x15CB JUMPI PUSH2 0x15CA PUSH2 0x31A3 JUMP JUMPDEST JUMPDEST PUSH1 0x20 MUL PUSH1 0x20 ADD ADD DUP2 DUP2 MSTORE POP POP PUSH1 0x0 PUSH2 0x15E5 PUSH1 0xD SLOAD DUP4 PUSH2 0x55B JUMP JUMPDEST SWAP1 POP PUSH2 0x15F1 DUP4 DUP3 PUSH2 0x2689 JUMP JUMPDEST POP POP POP POP JUMP JUMPDEST PUSH1 0x9 PUSH1 0x1 SWAP1 SLOAD SWAP1 PUSH2 0x100 EXP SWAP1 DIV PUSH20 0xFFFFFFFFFFFFFFFFFFFFFFFFFFFFFFFFFFFFFFFF AND PUSH20 0xFFFFFFFFFFFFFFFFFFFFFFFFFFFFFFFFFFFFFFFF AND PUSH4 0x8DA5CB5B PUSH1 0x40 MLOAD DUP2 PUSH4 0xFFFFFFFF AND PUSH1 0xE0 SHL DUP2 MSTORE PUSH1 0x4 ADD PUSH1 0x20 PUSH1 0x40 MLOAD DUP1 DUP4 SUB DUP2 DUP7 DUP1 EXTCODESIZE ISZERO DUP1 ISZERO PUSH2 0x165F JUMPI PUSH1 0x0 DUP1 REVERT JUMPDEST POP GAS STATICCALL ISZERO DUP1 ISZERO PUSH2 0x1673 JUMPI RETURNDATASIZE PUSH1 0x0 DUP1 RETURNDATACOPY RETURNDATASIZE PUSH1 0x0 REVERT JUMPDEST POP POP POP POP PUSH1 0x40 MLOAD RETURNDATASIZE PUSH1 0x1F NOT PUSH1 0x1F DUP3 ADD AND DUP3 ADD DUP1 PUSH1 0x40 MSTORE POP DUP2 ADD SWAP1 PUSH2 0x1697 SWAP2 SWAP1 PUSH2 0x3509 JUMP JUMPDEST PUSH20 0xFFFFFFFFFFFFFFFFFFFFFFFFFFFFFFFFFFFFFFFF AND CALLER PUSH20 0xFFFFFFFFFFFFFFFFFFFFFFFFFFFFFFFFFFFFFFFF AND EQ PUSH2 0x16CE JUMPI PUSH1 0x0 DUP1 REVERT JUMPDEST PUSH1 0x1 PUSH1 0x7 ADD DUP2 SWAP1 DUP1 PUSH1 0x1 DUP2 SLOAD ADD DUP1 DUP3 SSTORE DUP1 SWAP2 POP POP PUSH1 0x1 SWAP1 SUB SWAP1 PUSH1 0x0 MSTORE PUSH1 0x20 PUSH1 0x0 KECCAK256 ADD PUSH1 0x0 SWAP1 SWAP2 SWAP1 SWAP2 SWAP1 SWAP2 POP SSTORE POP JUMP JUMPDEST PUSH1 0x9 PUSH1 0x1 SWAP1 SLOAD SWAP1 PUSH2 0x100 EXP SWAP1 DIV PUSH20 0xFFFFFFFFFFFFFFFFFFFFFFFFFFFFFFFFFFFFFFFF AND PUSH20 0xFFFFFFFFFFFFFFFFFFFFFFFFFFFFFFFFFFFFFFFF AND PUSH4 0x8DA5CB5B PUSH1 0x40 MLOAD DUP2 PUSH4 0xFFFFFFFF AND PUSH1 0xE0 SHL DUP2 MSTORE PUSH1 0x4 ADD PUSH1 0x20 PUSH1 0x40 MLOAD DUP1 DUP4 SUB DUP2 DUP7 DUP1 EXTCODESIZE ISZERO DUP1 ISZERO PUSH2 0x1765 JUMPI PUSH1 0x0 DUP1 REVERT JUMPDEST POP GAS STATICCALL ISZERO DUP1 ISZERO PUSH2 0x1779 JUMPI RETURNDATASIZE PUSH1 0x0 DUP1 RETURNDATACOPY RETURNDATASIZE PUSH1 0x0 REVERT JUMPDEST POP POP POP POP PUSH1 0x40 MLOAD RETURNDATASIZE PUSH1 0x1F NOT PUSH1 0x1F DUP3 ADD AND DUP3 ADD DUP1 PUSH1 0x40 MSTORE POP DUP2 ADD SWAP1 PUSH2 0x179D SWAP2 SWAP1 PUSH2 0x3509 JUMP JUMPDEST PUSH20 0xFFFFFFFFFFFFFFFFFFFFFFFFFFFFFFFFFFFFFFFF AND CALLER PUSH20 0xFFFFFFFFFFFFFFFFFFFFFFFFFFFFFFFFFFFFFFFF AND EQ PUSH2 0x17D4 JUMPI PUSH1 0x0 DUP1 REVERT JUMPDEST PUSH2 0x17DC PUSH2 0x287D JUMP JUMPDEST JUMP JUMPDEST PUSH1 0x0 DUP2 PUSH1 0x0 PUSH20 0xFFFFFFFFFFFFFFFFFFFFFFFFFFFFFFFFFFFFFFFF AND PUSH1 0x10 PUSH1 0x0 DUP4 DUP2 MSTORE PUSH1 0x20 ADD SWAP1 DUP2 MSTORE PUSH1 0x20 ADD PUSH1 0x0 KECCAK256 PUSH1 0x0 SWAP1 SLOAD SWAP1 PUSH2 0x100 EXP SWAP1 DIV PUSH20 0xFFFFFFFFFFFFFFFFFFFFFFFFFFFFFFFFFFFFFFFF AND PUSH20 0xFFFFFFFFFFFFFFFFFFFFFFFFFFFFFFFFFFFFFFFF AND EQ ISZERO PUSH2 0x1884 JUMPI PUSH1 0x40 MLOAD PUSH32 0x8C379A000000000000000000000000000000000000000000000000000000000 DUP2 MSTORE PUSH1 0x4 ADD PUSH2 0x187B SWAP1 PUSH2 0x3376 JUMP JUMPDEST PUSH1 0x40 MLOAD DUP1 SWAP2 SUB SWAP1 REVERT JUMPDEST PUSH1 0x10 PUSH1 0x0 DUP5 DUP2 MSTORE PUSH1 0x20 ADD SWAP1 DUP2 MSTORE PUSH1 0x20 ADD PUSH1 0x0 KECCAK256 PUSH1 0x0 SWAP1 SLOAD SWAP1 PUSH2 0x100 EXP SWAP1 DIV PUSH20 0xFFFFFFFFFFFFFFFFFFFFFFFFFFFFFFFFFFFFFFFF AND SWAP2 POP POP SWAP2 SWAP1 POP JUMP JUMPDEST PUSH1 0x0 DUP1 PUSH1 0x0 SWAP1 SLOAD SWAP1 PUSH2 0x100 EXP SWAP1 DIV PUSH20 0xFFFFFFFFFFFFFFFFFFFFFFFFFFFFFFFFFFFFFFFF AND SWAP1 POP SWAP1 JUMP JUMPDEST PUSH1 0x9 PUSH1 0x1 SWAP1 SLOAD SWAP1 PUSH2 0x100 EXP SWAP1 DIV PUSH20 0xFFFFFFFFFFFFFFFFFFFFFFFFFFFFFFFFFFFFFFFF AND PUSH20 0xFFFFFFFFFFFFFFFFFFFFFFFFFFFFFFFFFFFFFFFF AND PUSH4 0x8DA5CB5B PUSH1 0x40 MLOAD DUP2 PUSH4 0xFFFFFFFF AND PUSH1 0xE0 SHL DUP2 MSTORE PUSH1 0x4 ADD PUSH1 0x20 PUSH1 0x40 MLOAD DUP1 DUP4 SUB DUP2 DUP7 DUP1 EXTCODESIZE ISZERO DUP1 ISZERO PUSH2 0x1951 JUMPI PUSH1 0x0 DUP1 REVERT JUMPDEST POP GAS STATICCALL ISZERO DUP1 ISZERO PUSH2 0x1965 JUMPI RETURNDATASIZE PUSH1 0x0 DUP1 RETURNDATACOPY RETURNDATASIZE PUSH1 0x0 REVERT JUMPDEST POP POP POP POP PUSH1 0x40 MLOAD RETURNDATASIZE PUSH1 0x1F NOT PUSH1 0x1F DUP3 ADD AND DUP3 ADD DUP1 PUSH1 0x40 MSTORE POP DUP2 ADD SWAP1 PUSH2 0x1989 SWAP2 SWAP1 PUSH2 0x3509 JUMP JUMPDEST PUSH20 0xFFFFFFFFFFFFFFFFFFFFFFFFFFFFFFFFFFFFFFFF AND CALLER PUSH20 0xFFFFFFFFFFFFFFFFFFFFFFFFFFFFFFFFFFFFFFFF AND EQ PUSH2 0x19C0 JUMPI PUSH1 0x0 DUP1 REVERT JUMPDEST DUP1 PUSH1 0xA SLOAD PUSH1 0x1 PUSH1 0x3 ADD SLOAD PUSH2 0x19D4 SWAP2 SWAP1 PUSH2 0x33D8 JUMP JUMPDEST LT PUSH2 0x19DE JUMPI PUSH1 0x0 DUP1 REVERT JUMPDEST DUP1 PUSH1 0x1 PUSH1 0x5 ADD DUP2 SWAP1 SSTORE POP POP JUMP JUMPDEST PUSH1 0x0 PUSH1 0x1 DUP1 ADD SLOAD SWAP1 POP SWAP1 JUMP JUMPDEST PUSH1 0x9 PUSH1 0x15 SWAP1 SLOAD SWAP1 PUSH2 0x100 EXP SWAP1 DIV PUSH1 0xFF AND PUSH2 0x1A46 JUMPI PUSH1 0x40 MLOAD PUSH32 0x8C379A000000000000000000000000000000000000000000000000000000000 DUP2 MSTORE PUSH1 0x4 ADD PUSH2 0x1A3D SWAP1 PUSH2 0x35A8 JUMP JUMPDEST PUSH1 0x40 MLOAD DUP1 SWAP2 SUB SWAP1 REVERT JUMPDEST PUSH1 0x0 PUSH1 0xD SLOAD SWAP1 POP PUSH1 0x0 PUSH1 0xE SLOAD SWAP1 POP PUSH1 0x0 PUSH2 0x1A61 PUSH1 0xC SLOAD PUSH2 0x62C JUMP JUMPDEST SWAP1 POP PUSH1 0x0 PUSH1 0x1 PUSH1 0x7 ADD DUP1 SLOAD DUP1 PUSH1 0x20 MUL PUSH1 0x20 ADD PUSH1 0x40 MLOAD SWAP1 DUP2 ADD PUSH1 0x40 MSTORE DUP1 SWAP3 SWAP2 SWAP1 DUP2 DUP2 MSTORE PUSH1 0x20 ADD DUP3 DUP1 SLOAD DUP1 ISZERO PUSH2 0x1AB4 JUMPI PUSH1 0x20 MUL DUP3 ADD SWAP2 SWAP1 PUSH1 0x0 MSTORE PUSH1 0x20 PUSH1 0x0 KECCAK256 SWAP1 JUMPDEST DUP2 SLOAD DUP2 MSTORE PUSH1 0x20 ADD SWAP1 PUSH1 0x1 ADD SWAP1 DUP1 DUP4 GT PUSH2 0x1AA0 JUMPI JUMPDEST POP POP POP POP POP SWAP1 POP PUSH1 0x0 DUP2 MLOAD PUSH8 0xFFFFFFFFFFFFFFFF DUP2 GT ISZERO PUSH2 0x1AD8 JUMPI PUSH2 0x1AD7 PUSH2 0x2AA5 JUMP JUMPDEST JUMPDEST PUSH1 0x40 MLOAD SWAP1 DUP1 DUP3 MSTORE DUP1 PUSH1 0x20 MUL PUSH1 0x20 ADD DUP3 ADD PUSH1 0x40 MSTORE DUP1 ISZERO PUSH2 0x1B06 JUMPI DUP2 PUSH1 0x20 ADD PUSH1 0x20 DUP3 MUL DUP1 CALLDATASIZE DUP4 CALLDATACOPY DUP1 DUP3 ADD SWAP2 POP POP SWAP1 POP JUMPDEST POP SWAP1 POP PUSH1 0x0 PUSH1 0x1 DUP1 ADD SLOAD SWAP1 POP PUSH1 0x0 DUP4 MLOAD PUSH8 0xFFFFFFFFFFFFFFFF DUP2 GT ISZERO PUSH2 0x1B2F JUMPI PUSH2 0x1B2E PUSH2 0x2AA5 JUMP JUMPDEST JUMPDEST PUSH1 0x40 MLOAD SWAP1 DUP1 DUP3 MSTORE DUP1 PUSH1 0x20 MUL PUSH1 0x20 ADD DUP3 ADD PUSH1 0x40 MSTORE DUP1 ISZERO PUSH2 0x1B5D JUMPI DUP2 PUSH1 0x20 ADD PUSH1 0x20 DUP3 MUL DUP1 CALLDATASIZE DUP4 CALLDATACOPY DUP1 DUP3 ADD SWAP2 POP POP SWAP1 POP JUMPDEST POP SWAP1 POP DUP2 PUSH1 0xC SLOAD EQ ISZERO PUSH2 0x1BD1 JUMPI PUSH1 0x0 JUMPDEST DUP5 MLOAD DUP2 LT ISZERO PUSH2 0x1BCB JUMPI PUSH2 0x1B99 DUP6 DUP3 DUP2 MLOAD DUP2 LT PUSH2 0x1B8C JUMPI PUSH2 0x1B8B PUSH2 0x31A3 JUMP JUMPDEST JUMPDEST PUSH1 0x20 MUL PUSH1 0x20 ADD ADD MLOAD PUSH2 0x62C JUMP JUMPDEST DUP5 DUP3 DUP2 MLOAD DUP2 LT PUSH2 0x1BAC JUMPI PUSH2 0x1BAB PUSH2 0x31A3 JUMP JUMPDEST JUMPDEST PUSH1 0x20 MUL PUSH1 0x20 ADD ADD DUP2 DUP2 MSTORE POP POP DUP1 DUP1 PUSH2 0x1BC3 SWAP1 PUSH2 0x32BB JUMP JUMPDEST SWAP2 POP POP PUSH2 0x1B6D JUMP JUMPDEST POP PUSH2 0x1CF5 JUMP JUMPDEST PUSH1 0x0 PUSH2 0x1BDC DUP4 PUSH2 0x62C JUMP JUMPDEST DUP5 DUP3 DUP2 MLOAD DUP2 LT PUSH2 0x1BEF JUMPI PUSH2 0x1BEE PUSH2 0x31A3 JUMP JUMPDEST JUMPDEST PUSH1 0x20 MUL PUSH1 0x20 ADD ADD DUP2 DUP2 MSTORE POP POP DUP3 DUP3 DUP3 DUP2 MLOAD DUP2 LT PUSH2 0x1C0F JUMPI PUSH2 0x1C0E PUSH2 0x31A3 JUMP JUMPDEST JUMPDEST PUSH1 0x20 MUL PUSH1 0x20 ADD ADD DUP2 DUP2 MSTORE POP POP PUSH1 0x1 SWAP1 POP JUMPDEST DUP5 MLOAD DUP2 GT PUSH2 0x1CF3 JUMPI PUSH1 0xC SLOAD DUP6 PUSH1 0x1 DUP4 PUSH2 0x1C39 SWAP2 SWAP1 PUSH2 0x342E JUMP JUMPDEST DUP2 MLOAD DUP2 LT PUSH2 0x1C4A JUMPI PUSH2 0x1C49 PUSH2 0x31A3 JUMP JUMPDEST JUMPDEST PUSH1 0x20 MUL PUSH1 0x20 ADD ADD MLOAD EQ PUSH2 0x1CE0 JUMPI DUP5 PUSH1 0x1 DUP3 PUSH2 0x1C65 SWAP2 SWAP1 PUSH2 0x342E JUMP JUMPDEST DUP2 MLOAD DUP2 LT PUSH2 0x1C76 JUMPI PUSH2 0x1C75 PUSH2 0x31A3 JUMP JUMPDEST JUMPDEST PUSH1 0x20 MUL PUSH1 0x20 ADD ADD MLOAD DUP3 DUP3 DUP2 MLOAD DUP2 LT PUSH2 0x1C91 JUMPI PUSH2 0x1C90 PUSH2 0x31A3 JUMP JUMPDEST JUMPDEST PUSH1 0x20 MUL PUSH1 0x20 ADD ADD DUP2 DUP2 MSTORE POP POP PUSH2 0x1CC0 DUP6 DUP3 DUP2 MLOAD DUP2 LT PUSH2 0x1CB3 JUMPI PUSH2 0x1CB2 PUSH2 0x31A3 JUMP JUMPDEST JUMPDEST PUSH1 0x20 MUL PUSH1 0x20 ADD ADD MLOAD PUSH2 0x62C JUMP JUMPDEST DUP5 DUP3 DUP2 MLOAD DUP2 LT PUSH2 0x1CD3 JUMPI PUSH2 0x1CD2 PUSH2 0x31A3 JUMP JUMPDEST JUMPDEST PUSH1 0x20 MUL PUSH1 0x20 ADD ADD DUP2 DUP2 MSTORE POP POP JUMPDEST DUP1 DUP1 PUSH2 0x1CEB SWAP1 PUSH2 0x32BB JUMP JUMPDEST SWAP2 POP POP PUSH2 0x1C20 JUMP JUMPDEST POP JUMPDEST PUSH1 0x0 DUP1 PUSH2 0x1D04 DUP10 DUP10 DUP10 DUP9 PUSH2 0x7C9 JUMP JUMPDEST SWAP2 POP SWAP2 POP PUSH2 0x1D14 PUSH1 0xC SLOAD DUP4 PUSH2 0x2044 JUMP JUMPDEST PUSH2 0x1D1E DUP4 DUP3 PUSH2 0x2689 JUMP JUMPDEST POP POP POP POP POP POP POP POP POP JUMP JUMPDEST PUSH1 0x60 PUSH1 0x0 DUP1 PUSH1 0x0 DUP1 PUSH1 0x60 PUSH1 0x1 PUSH1 0x0 ADD PUSH1 0x1 PUSH1 0x2 ADD SLOAD PUSH1 0x1 PUSH1 0x3 ADD SLOAD PUSH1 0x1 PUSH1 0x4 ADD SLOAD PUSH1 0x1 PUSH1 0x5 ADD SLOAD PUSH1 0x1 PUSH1 0x6 ADD DUP6 DUP1 SLOAD PUSH2 0x1D61 SWAP1 PUSH2 0x3687 JUMP JUMPDEST DUP1 PUSH1 0x1F ADD PUSH1 0x20 DUP1 SWAP2 DIV MUL PUSH1 0x20 ADD PUSH1 0x40 MLOAD SWAP1 DUP2 ADD PUSH1 0x40 MSTORE DUP1 SWAP3 SWAP2 SWAP1 DUP2 DUP2 MSTORE PUSH1 0x20 ADD DUP3 DUP1 SLOAD PUSH2 0x1D8D SWAP1 PUSH2 0x3687 JUMP JUMPDEST DUP1 ISZERO PUSH2 0x1DDA JUMPI DUP1 PUSH1 0x1F LT PUSH2 0x1DAF JUMPI PUSH2 0x100 DUP1 DUP4 SLOAD DIV MUL DUP4 MSTORE SWAP2 PUSH1 0x20 ADD SWAP2 PUSH2 0x1DDA JUMP JUMPDEST DUP3 ADD SWAP2 SWAP1 PUSH1 0x0 MSTORE PUSH1 0x20 PUSH1 0x0 KECCAK256 SWAP1 JUMPDEST DUP2 SLOAD DUP2 MSTORE SWAP1 PUSH1 0x1 ADD SWAP1 PUSH1 0x20 ADD DUP1 DUP4 GT PUSH2 0x1DBD JUMPI DUP3 SWAP1 SUB PUSH1 0x1F AND DUP3 ADD SWAP2 JUMPDEST POP POP POP POP POP SWAP6 POP DUP1 DUP1 SLOAD PUSH2 0x1DED SWAP1 PUSH2 0x3687 JUMP JUMPDEST DUP1 PUSH1 0x1F ADD PUSH1 0x20 DUP1 SWAP2 DIV MUL PUSH1 0x20 ADD PUSH1 0x40 MLOAD SWAP1 DUP2 ADD PUSH1 0x40 MSTORE DUP1 SWAP3 SWAP2 SWAP1 DUP2 DUP2 MSTORE PUSH1 0x20 ADD DUP3 DUP1 SLOAD PUSH2 0x1E19 SWAP1 PUSH2 0x3687 JUMP JUMPDEST DUP1 ISZERO PUSH2 0x1E66 JUMPI DUP1 PUSH1 0x1F LT PUSH2 0x1E3B JUMPI PUSH2 0x100 DUP1 DUP4 SLOAD DIV MUL DUP4 MSTORE SWAP2 PUSH1 0x20 ADD SWAP2 PUSH2 0x1E66 JUMP JUMPDEST DUP3 ADD SWAP2 SWAP1 PUSH1 0x0 MSTORE PUSH1 0x20 PUSH1 0x0 KECCAK256 SWAP1 JUMPDEST DUP2 SLOAD DUP2 MSTORE SWAP1 PUSH1 0x1 ADD SWAP1 PUSH1 0x20 ADD DUP1 DUP4 GT PUSH2 0x1E49 JUMPI DUP3 SWAP1 SUB PUSH1 0x1F AND DUP3 ADD SWAP2 JUMPDEST POP POP POP POP POP SWAP1 POP SWAP6 POP SWAP6 POP SWAP6 POP SWAP6 POP SWAP6 POP SWAP6 POP SWAP1 SWAP2 SWAP3 SWAP4 SWAP5 SWAP6 JUMP JUMPDEST PUSH1 0x0 PUSH1 0x13 PUSH1 0x0 DUP5 PUSH20 0xFFFFFFFFFFFFFFFFFFFFFFFFFFFFFFFFFFFFFFFF AND PUSH20 0xFFFFFFFFFFFFFFFFFFFFFFFFFFFFFFFFFFFFFFFF AND DUP2 MSTORE PUSH1 0x20 ADD SWAP1 DUP2 MSTORE PUSH1 0x20 ADD PUSH1 0x0 KECCAK256 PUSH1 0x0 DUP4 DUP2 MSTORE PUSH1 0x20 ADD SWAP1 DUP2 MSTORE PUSH1 0x20 ADD PUSH1 0x0 KECCAK256 SLOAD SWAP1 POP SWAP3 SWAP2 POP POP JUMP JUMPDEST PUSH1 0x9 PUSH1 0x1 SWAP1 SLOAD SWAP1 PUSH2 0x100 EXP SWAP1 DIV PUSH20 0xFFFFFFFFFFFFFFFFFFFFFFFFFFFFFFFFFFFFFFFF AND PUSH20 0xFFFFFFFFFFFFFFFFFFFFFFFFFFFFFFFFFFFFFFFF AND PUSH4 0x8DA5CB5B PUSH1 0x40 MLOAD DUP2 PUSH4 0xFFFFFFFF AND PUSH1 0xE0 SHL DUP2 MSTORE PUSH1 0x4 ADD PUSH1 0x20 PUSH1 0x40 MLOAD DUP1 DUP4 SUB DUP2 DUP7 DUP1 EXTCODESIZE ISZERO DUP1 ISZERO PUSH2 0x1F44 JUMPI PUSH1 0x0 DUP1 REVERT JUMPDEST POP GAS STATICCALL ISZERO DUP1 ISZERO PUSH2 0x1F58 JUMPI RETURNDATASIZE PUSH1 0x0 DUP1 RETURNDATACOPY RETURNDATASIZE PUSH1 0x0 REVERT JUMPDEST POP POP POP POP PUSH1 0x40 MLOAD RETURNDATASIZE PUSH1 0x1F NOT PUSH1 0x1F DUP3 ADD AND DUP3 ADD DUP1 PUSH1 0x40 MSTORE POP DUP2 ADD SWAP1 PUSH2 0x1F7C SWAP2 SWAP1 PUSH2 0x3509 JUMP JUMPDEST PUSH20 0xFFFFFFFFFFFFFFFFFFFFFFFFFFFFFFFFFFFFFFFF AND CALLER PUSH20 0xFFFFFFFFFFFFFFFFFFFFFFFFFFFFFFFFFFFFFFFF AND EQ PUSH2 0x1FB3 JUMPI PUSH1 0x0 DUP1 REVERT JUMPDEST DUP1 PUSH1 0x1 PUSH1 0x2 ADD DUP2 SWAP1 SSTORE POP POP JUMP JUMPDEST PUSH2 0x1FC8 PUSH2 0x273B JUMP JUMPDEST PUSH1 0x0 PUSH20 0xFFFFFFFFFFFFFFFFFFFFFFFFFFFFFFFFFFFFFFFF AND DUP2 PUSH20 0xFFFFFFFFFFFFFFFFFFFFFFFFFFFFFFFFFFFFFFFF AND EQ ISZERO PUSH2 0x2038 JUMPI PUSH1 0x40 MLOAD PUSH32 0x8C379A000000000000000000000000000000000000000000000000000000000 DUP2 MSTORE PUSH1 0x4 ADD PUSH2 0x202F SWAP1 PUSH2 0x372B JUMP JUMPDEST PUSH1 0x40 MLOAD DUP1 SWAP2 SUB SWAP1 REVERT JUMPDEST PUSH2 0x2041 DUP2 PUSH2 0x27B9 JUMP JUMPDEST POP JUMP JUMPDEST PUSH1 0x0 DUP2 GT DUP1 ISZERO PUSH2 0x20B4 JUMPI POP PUSH1 0x0 PUSH20 0xFFFFFFFFFFFFFFFFFFFFFFFFFFFFFFFFFFFFFFFF AND PUSH1 0x10 PUSH1 0x0 DUP5 DUP2 MSTORE PUSH1 0x20 ADD SWAP1 DUP2 MSTORE PUSH1 0x20 ADD PUSH1 0x0 KECCAK256 PUSH1 0x0 SWAP1 SLOAD SWAP1 PUSH2 0x100 EXP SWAP1 DIV PUSH20 0xFFFFFFFFFFFFFFFFFFFFFFFFFFFFFFFFFFFFFFFF AND PUSH20 0xFFFFFFFFFFFFFFFFFFFFFFFFFFFFFFFFFFFFFFFF AND EQ ISZERO JUMPDEST ISZERO PUSH2 0x21C2 JUMPI PUSH1 0x10 PUSH1 0x0 DUP4 DUP2 MSTORE PUSH1 0x20 ADD SWAP1 DUP2 MSTORE PUSH1 0x20 ADD PUSH1 0x0 KECCAK256 PUSH1 0x0 SWAP1 SLOAD SWAP1 PUSH2 0x100 EXP SWAP1 DIV PUSH20 0xFFFFFFFFFFFFFFFFFFFFFFFFFFFFFFFFFFFFFFFF AND PUSH20 0xFFFFFFFFFFFFFFFFFFFFFFFFFFFFFFFFFFFFFFFF AND PUSH4 0x60A56B3A PUSH1 0x12 PUSH1 0x0 DUP6 DUP2 MSTORE PUSH1 0x20 ADD SWAP1 DUP2 MSTORE PUSH1 0x20 ADD PUSH1 0x0 KECCAK256 PUSH1 0x0 SWAP1 SLOAD SWAP1 PUSH2 0x100 EXP SWAP1 DIV PUSH20 0xFFFFFFFFFFFFFFFFFFFFFFFFFFFFFFFFFFFFFFFF AND PUSH1 0x11 PUSH1 0x0 DUP7 DUP2 MSTORE PUSH1 0x20 ADD SWAP1 DUP2 MSTORE PUSH1 0x20 ADD PUSH1 0x0 KECCAK256 PUSH1 0x0 SWAP1 SLOAD SWAP1 PUSH2 0x100 EXP SWAP1 DIV PUSH20 0xFFFFFFFFFFFFFFFFFFFFFFFFFFFFFFFFFFFFFFFF AND DUP5 PUSH1 0x40 MLOAD DUP5 PUSH4 0xFFFFFFFF AND PUSH1 0xE0 SHL DUP2 MSTORE PUSH1 0x4 ADD PUSH2 0x218F SWAP4 SWAP3 SWAP2 SWAP1 PUSH2 0x35C8 JUMP JUMPDEST PUSH1 0x0 PUSH1 0x40 MLOAD DUP1 DUP4 SUB DUP2 PUSH1 0x0 DUP8 DUP1 EXTCODESIZE ISZERO DUP1 ISZERO PUSH2 0x21A9 JUMPI PUSH1 0x0 DUP1 REVERT JUMPDEST POP GAS CALL ISZERO DUP1 ISZERO PUSH2 0x21BD JUMPI RETURNDATASIZE PUSH1 0x0 DUP1 RETURNDATACOPY RETURNDATASIZE PUSH1 0x0 REVERT JUMPDEST POP POP POP POP JUMPDEST POP POP JUMP JUMPDEST PUSH1 0x0 DUP1 PUSH1 0x10 PUSH1 0x0 PUSH1 0x1 DUP1 ADD SLOAD DUP2 MSTORE PUSH1 0x20 ADD SWAP1 DUP2 MSTORE PUSH1 0x20 ADD PUSH1 0x0 KECCAK256 PUSH1 0x0 SWAP1 SLOAD SWAP1 PUSH2 0x100 EXP SWAP1 DIV PUSH20 0xFFFFFFFFFFFFFFFFFFFFFFFFFFFFFFFFFFFFFFFF AND SWAP1 POP PUSH1 0x0 PUSH20 0xFFFFFFFFFFFFFFFFFFFFFFFFFFFFFFFFFFFFFFFF AND DUP2 PUSH20 0xFFFFFFFFFFFFFFFFFFFFFFFFFFFFFFFFFFFFFFFF AND EQ ISZERO PUSH2 0x2273 JUMPI PUSH1 0x40 MLOAD PUSH32 0x8C379A000000000000000000000000000000000000000000000000000000000 DUP2 MSTORE PUSH1 0x4 ADD PUSH2 0x226A SWAP1 PUSH2 0x34D4 JUMP JUMPDEST PUSH1 0x40 MLOAD DUP1 SWAP2 SUB SWAP1 REVERT JUMPDEST PUSH1 0x0 PUSH1 0x1 PUSH1 0x7 ADD DUP1 SLOAD DUP1 PUSH1 0x20 MUL PUSH1 0x20 ADD PUSH1 0x40 MLOAD SWAP1 DUP2 ADD PUSH1 0x40 MSTORE DUP1 SWAP3 SWAP2 SWAP1 DUP2 DUP2 MSTORE PUSH1 0x20 ADD DUP3 DUP1 SLOAD DUP1 ISZERO PUSH2 0x22C4 JUMPI PUSH1 0x20 MUL DUP3 ADD SWAP2 SWAP1 PUSH1 0x0 MSTORE PUSH1 0x20 PUSH1 0x0 KECCAK256 SWAP1 JUMPDEST DUP2 SLOAD DUP2 MSTORE PUSH1 0x20 ADD SWAP1 PUSH1 0x1 ADD SWAP1 DUP1 DUP4 GT PUSH2 0x22B0 JUMPI JUMPDEST POP POP POP POP POP SWAP1 POP PUSH1 0x0 DUP2 MLOAD SWAP1 POP PUSH1 0x0 PUSH1 0x11 PUSH1 0x0 PUSH1 0x1 DUP1 ADD SLOAD DUP2 MSTORE PUSH1 0x20 ADD SWAP1 DUP2 MSTORE PUSH1 0x20 ADD PUSH1 0x0 KECCAK256 PUSH1 0x0 SWAP1 SLOAD SWAP1 PUSH2 0x100 EXP SWAP1 DIV PUSH20 0xFFFFFFFFFFFFFFFFFFFFFFFFFFFFFFFFFFFFFFFF AND PUSH20 0xFFFFFFFFFFFFFFFFFFFFFFFFFFFFFFFFFFFFFFFF AND PUSH4 0x70A08231 DUP6 PUSH1 0x40 MLOAD DUP3 PUSH4 0xFFFFFFFF AND PUSH1 0xE0 SHL DUP2 MSTORE PUSH1 0x4 ADD PUSH2 0x2343 SWAP2 SWAP1 PUSH2 0x2FBA JUMP JUMPDEST PUSH1 0x20 PUSH1 0x40 MLOAD DUP1 DUP4 SUB DUP2 DUP7 DUP1 EXTCODESIZE ISZERO DUP1 ISZERO PUSH2 0x235B JUMPI PUSH1 0x0 DUP1 REVERT JUMPDEST POP GAS STATICCALL ISZERO DUP1 ISZERO PUSH2 0x236F JUMPI RETURNDATASIZE PUSH1 0x0 DUP1 RETURNDATACOPY RETURNDATASIZE PUSH1 0x0 REVERT JUMPDEST POP POP POP POP PUSH1 0x40 MLOAD RETURNDATASIZE PUSH1 0x1F NOT PUSH1 0x1F DUP3 ADD AND DUP3 ADD DUP1 PUSH1 0x40 MSTORE POP DUP2 ADD SWAP1 PUSH2 0x2393 SWAP2 SWAP1 PUSH2 0x33AB JUMP JUMPDEST SWAP1 POP PUSH1 0x0 JUMPDEST DUP3 DUP2 LT ISZERO PUSH2 0x2524 JUMPI PUSH1 0x0 PUSH1 0x10 PUSH1 0x0 DUP7 DUP5 DUP2 MLOAD DUP2 LT PUSH2 0x23B9 JUMPI PUSH2 0x23B8 PUSH2 0x31A3 JUMP JUMPDEST JUMPDEST PUSH1 0x20 MUL PUSH1 0x20 ADD ADD MLOAD DUP2 MSTORE PUSH1 0x20 ADD SWAP1 DUP2 MSTORE PUSH1 0x20 ADD PUSH1 0x0 KECCAK256 PUSH1 0x0 SWAP1 SLOAD SWAP1 PUSH2 0x100 EXP SWAP1 DIV PUSH20 0xFFFFFFFFFFFFFFFFFFFFFFFFFFFFFFFFFFFFFFFF AND SWAP1 POP PUSH1 0x0 PUSH1 0x11 PUSH1 0x0 DUP8 DUP6 DUP2 MLOAD DUP2 LT PUSH2 0x240B JUMPI PUSH2 0x240A PUSH2 0x31A3 JUMP JUMPDEST JUMPDEST PUSH1 0x20 MUL PUSH1 0x20 ADD ADD MLOAD DUP2 MSTORE PUSH1 0x20 ADD SWAP1 DUP2 MSTORE PUSH1 0x20 ADD PUSH1 0x0 KECCAK256 PUSH1 0x0 SWAP1 SLOAD SWAP1 PUSH2 0x100 EXP SWAP1 DIV PUSH20 0xFFFFFFFFFFFFFFFFFFFFFFFFFFFFFFFFFFFFFFFF AND SWAP1 POP PUSH1 0x0 PUSH20 0xFFFFFFFFFFFFFFFFFFFFFFFFFFFFFFFFFFFFFFFF AND DUP3 PUSH20 0xFFFFFFFFFFFFFFFFFFFFFFFFFFFFFFFFFFFFFFFF AND EQ PUSH2 0x250F JUMPI DUP1 PUSH20 0xFFFFFFFFFFFFFFFFFFFFFFFFFFFFFFFFFFFFFFFF AND PUSH4 0x70A08231 DUP4 PUSH1 0x40 MLOAD DUP3 PUSH4 0xFFFFFFFF AND PUSH1 0xE0 SHL DUP2 MSTORE PUSH1 0x4 ADD PUSH2 0x24B1 SWAP2 SWAP1 PUSH2 0x2FBA JUMP JUMPDEST PUSH1 0x20 PUSH1 0x40 MLOAD DUP1 DUP4 SUB DUP2 DUP7 DUP1 EXTCODESIZE ISZERO DUP1 ISZERO PUSH2 0x24C9 JUMPI PUSH1 0x0 DUP1 REVERT JUMPDEST POP GAS STATICCALL ISZERO DUP1 ISZERO PUSH2 0x24DD JUMPI RETURNDATASIZE PUSH1 0x0 DUP1 RETURNDATACOPY RETURNDATASIZE PUSH1 0x0 REVERT JUMPDEST POP POP POP POP PUSH1 0x40 MLOAD RETURNDATASIZE PUSH1 0x1F NOT PUSH1 0x1F DUP3 ADD AND DUP3 ADD DUP1 PUSH1 0x40 MSTORE POP DUP2 ADD SWAP1 PUSH2 0x2501 SWAP2 SWAP1 PUSH2 0x33AB JUMP JUMPDEST DUP5 PUSH2 0x250C SWAP2 SWAP1 PUSH2 0x33D8 JUMP JUMPDEST SWAP4 POP JUMPDEST POP POP DUP1 DUP1 PUSH2 0x251C SWAP1 PUSH2 0x32BB JUMP JUMPDEST SWAP2 POP POP PUSH2 0x2398 JUMP JUMPDEST POP DUP1 SWAP5 POP POP POP POP POP SWAP1 JUMP JUMPDEST PUSH1 0x0 PUSH1 0x11 PUSH1 0x0 DUP4 DUP2 MSTORE PUSH1 0x20 ADD SWAP1 DUP2 MSTORE PUSH1 0x20 ADD PUSH1 0x0 KECCAK256 PUSH1 0x0 SWAP1 SLOAD SWAP1 PUSH2 0x100 EXP SWAP1 DIV PUSH20 0xFFFFFFFFFFFFFFFFFFFFFFFFFFFFFFFFFFFFFFFF AND PUSH20 0xFFFFFFFFFFFFFFFFFFFFFFFFFFFFFFFFFFFFFFFF AND PUSH4 0x70A08231 PUSH1 0x10 PUSH1 0x0 DUP6 DUP2 MSTORE PUSH1 0x20 ADD SWAP1 DUP2 MSTORE PUSH1 0x20 ADD PUSH1 0x0 KECCAK256 PUSH1 0x0 SWAP1 SLOAD SWAP1 PUSH2 0x100 EXP SWAP1 DIV PUSH20 0xFFFFFFFFFFFFFFFFFFFFFFFFFFFFFFFFFFFFFFFF AND PUSH1 0x40 MLOAD DUP3 PUSH4 0xFFFFFFFF AND PUSH1 0xE0 SHL DUP2 MSTORE PUSH1 0x4 ADD PUSH2 0x25D0 SWAP2 SWAP1 PUSH2 0x2FBA JUMP JUMPDEST PUSH1 0x20 PUSH1 0x40 MLOAD DUP1 DUP4 SUB DUP2 DUP7 DUP1 EXTCODESIZE ISZERO DUP1 ISZERO PUSH2 0x25E8 JUMPI PUSH1 0x0 DUP1 REVERT JUMPDEST POP GAS STATICCALL ISZERO DUP1 ISZERO PUSH2 0x25FC JUMPI RETURNDATASIZE PUSH1 0x0 DUP1 RETURNDATACOPY RETURNDATASIZE PUSH1 0x0 REVERT JUMPDEST POP POP POP POP PUSH1 0x40 MLOAD RETURNDATASIZE PUSH1 0x1F NOT PUSH1 0x1F DUP3 ADD AND DUP3 ADD DUP1 PUSH1 0x40 MSTORE POP DUP2 ADD SWAP1 PUSH2 0x2620 SWAP2 SWAP1 PUSH2 0x33AB JUMP JUMPDEST SWAP1 POP SWAP2 SWAP1 POP JUMP JUMPDEST PUSH2 0x262F PUSH2 0x28E0 JUMP JUMPDEST PUSH1 0x0 DUP1 PUSH1 0x14 PUSH2 0x100 EXP DUP2 SLOAD DUP2 PUSH1 0xFF MUL NOT AND SWAP1 DUP4 ISZERO ISZERO MUL OR SWAP1 SSTORE POP PUSH32 0x5DB9EE0A495BF2E6FF9C91A7834C1BA4FDD244A5E8AA4E537BD38AEAE4B073AA PUSH2 0x2672 PUSH2 0x2929 JUMP JUMPDEST PUSH1 0x40 MLOAD PUSH2 0x267F SWAP2 SWAP1 PUSH2 0x2FBA JUMP JUMPDEST PUSH1 0x40 MLOAD DUP1 SWAP2 SUB SWAP1 LOG1 JUMP JUMPDEST PUSH1 0x0 DUP3 MLOAD SWAP1 POP PUSH1 0x0 JUMPDEST DUP2 DUP2 LT ISZERO PUSH2 0x26EB JUMPI PUSH2 0x26D8 DUP5 DUP3 DUP2 MLOAD DUP2 LT PUSH2 0x26B0 JUMPI PUSH2 0x26AF PUSH2 0x31A3 JUMP JUMPDEST JUMPDEST PUSH1 0x20 MUL PUSH1 0x20 ADD ADD MLOAD DUP5 DUP4 DUP2 MLOAD DUP2 LT PUSH2 0x26CB JUMPI PUSH2 0x26CA PUSH2 0x31A3 JUMP JUMPDEST JUMPDEST PUSH1 0x20 MUL PUSH1 0x20 ADD ADD MLOAD PUSH2 0x2044 JUMP JUMPDEST DUP1 DUP1 PUSH2 0x26E3 SWAP1 PUSH2 0x32BB JUMP JUMPDEST SWAP2 POP POP PUSH2 0x2692 JUMP JUMPDEST POP POP POP POP JUMP JUMPDEST PUSH2 0x26F9 PUSH2 0x11EE JUMP JUMPDEST ISZERO PUSH2 0x2739 JUMPI PUSH1 0x40 MLOAD PUSH32 0x8C379A000000000000000000000000000000000000000000000000000000000 DUP2 MSTORE PUSH1 0x4 ADD PUSH2 0x2730 SWAP1 PUSH2 0x3797 JUMP JUMPDEST PUSH1 0x40 MLOAD DUP1 SWAP2 SUB SWAP1 REVERT JUMPDEST JUMP JUMPDEST PUSH2 0x2743 PUSH2 0x2929 JUMP JUMPDEST PUSH20 0xFFFFFFFFFFFFFFFFFFFFFFFFFFFFFFFFFFFFFFFF AND PUSH2 0x2761 PUSH2 0x18C0 JUMP JUMPDEST PUSH20 0xFFFFFFFFFFFFFFFFFFFFFFFFFFFFFFFFFFFFFFFF AND EQ PUSH2 0x27B7 JUMPI PUSH1 0x40 MLOAD PUSH32 0x8C379A000000000000000000000000000000000000000000000000000000000 DUP2 MSTORE PUSH1 0x4 ADD PUSH2 0x27AE SWAP1 PUSH2 0x3803 JUMP JUMPDEST PUSH1 0x40 MLOAD DUP1 SWAP2 SUB SWAP1 REVERT JUMPDEST JUMP JUMPDEST PUSH1 0x0 DUP1 PUSH1 0x0 SWAP1 SLOAD SWAP1 PUSH2 0x100 EXP SWAP1 DIV PUSH20 0xFFFFFFFFFFFFFFFFFFFFFFFFFFFFFFFFFFFFFFFF AND SWAP1 POP DUP2 PUSH1 0x0 DUP1 PUSH2 0x100 EXP DUP2 SLOAD DUP2 PUSH20 0xFFFFFFFFFFFFFFFFFFFFFFFFFFFFFFFFFFFFFFFF MUL NOT AND SWAP1 DUP4 PUSH20 0xFFFFFFFFFFFFFFFFFFFFFFFFFFFFFFFFFFFFFFFF AND MUL OR SWAP1 SSTORE POP DUP2 PUSH20 0xFFFFFFFFFFFFFFFFFFFFFFFFFFFFFFFFFFFFFFFF AND DUP2 PUSH20 0xFFFFFFFFFFFFFFFFFFFFFFFFFFFFFFFFFFFFFFFF AND PUSH32 0x8BE0079C531659141344CD1FD0A4F28419497F9722A3DAAFE3B4186F6B6457E0 PUSH1 0x40 MLOAD PUSH1 0x40 MLOAD DUP1 SWAP2 SUB SWAP1 LOG3 POP POP JUMP JUMPDEST PUSH2 0x2885 PUSH2 0x26F1 JUMP JUMPDEST PUSH1 0x1 PUSH1 0x0 PUSH1 0x14 PUSH2 0x100 EXP DUP2 SLOAD DUP2 PUSH1 0xFF MUL NOT AND SWAP1 DUP4 ISZERO ISZERO MUL OR SWAP1 SSTORE POP PUSH32 0x62E78CEA01BEE320CD4E420270B5EA74000D11B0C9F74754EBDBFC544B05A258 PUSH2 0x28C9 PUSH2 0x2929 JUMP JUMPDEST PUSH1 0x40 MLOAD PUSH2 0x28D6 SWAP2 SWAP1 PUSH2 0x2FBA JUMP JUMPDEST PUSH1 0x40 MLOAD DUP1 SWAP2 SUB SWAP1 LOG1 JUMP JUMPDEST PUSH2 0x28E8 PUSH2 0x11EE JUMP JUMPDEST PUSH2 0x2927 JUMPI PUSH1 0x40 MLOAD PUSH32 0x8C379A000000000000000000000000000000000000000000000000000000000 DUP2 MSTORE PUSH1 0x4 ADD PUSH2 0x291E SWAP1 PUSH2 0x386F JUMP JUMPDEST PUSH1 0x40 MLOAD DUP1 SWAP2 SUB SWAP1 REVERT JUMPDEST JUMP JUMPDEST PUSH1 0x0 CALLER SWAP1 POP SWAP1 JUMP JUMPDEST PUSH1 0x0 DUP2 SWAP1 POP SWAP2 SWAP1 POP JUMP JUMPDEST PUSH2 0x2944 DUP2 PUSH2 0x2931 JUMP JUMPDEST DUP3 MSTORE POP POP JUMP JUMPDEST PUSH1 0x0 PUSH1 0x20 DUP3 ADD SWAP1 POP PUSH2 0x295F PUSH1 0x0 DUP4 ADD DUP5 PUSH2 0x293B JUMP JUMPDEST SWAP3 SWAP2 POP POP JUMP JUMPDEST PUSH1 0x0 DUP2 MLOAD SWAP1 POP SWAP2 SWAP1 POP JUMP JUMPDEST PUSH1 0x0 DUP3 DUP3 MSTORE PUSH1 0x20 DUP3 ADD SWAP1 POP SWAP3 SWAP2 POP POP JUMP JUMPDEST PUSH1 0x0 DUP2 SWAP1 POP PUSH1 0x20 DUP3 ADD SWAP1 POP SWAP2 SWAP1 POP JUMP JUMPDEST PUSH1 0x0 DUP2 SWAP1 POP SWAP2 SWAP1 POP JUMP JUMPDEST PUSH2 0x29A4 DUP2 PUSH2 0x2991 JUMP JUMPDEST DUP3 MSTORE POP POP JUMP JUMPDEST PUSH1 0x0 PUSH2 0x29B6 DUP4 DUP4 PUSH2 0x299B JUMP JUMPDEST PUSH1 0x20 DUP4 ADD SWAP1 POP SWAP3 SWAP2 POP POP JUMP JUMPDEST PUSH1 0x0 PUSH1 0x20 DUP3 ADD SWAP1 POP SWAP2 SWAP1 POP JUMP JUMPDEST PUSH1 0x0 PUSH2 0x29DA DUP3 PUSH2 0x2965 JUMP JUMPDEST PUSH2 0x29E4 DUP2 DUP6 PUSH2 0x2970 JUMP JUMPDEST SWAP4 POP PUSH2 0x29EF DUP4 PUSH2 0x2981 JUMP JUMPDEST DUP1 PUSH1 0x0 JUMPDEST DUP4 DUP2 LT ISZERO PUSH2 0x2A20 JUMPI DUP2 MLOAD PUSH2 0x2A07 DUP9 DUP3 PUSH2 0x29AA JUMP JUMPDEST SWAP8 POP PUSH2 0x2A12 DUP4 PUSH2 0x29C2 JUMP JUMPDEST SWAP3 POP POP PUSH1 0x1 DUP2 ADD SWAP1 POP PUSH2 0x29F3 JUMP JUMPDEST POP DUP6 SWAP4 POP POP POP POP SWAP3 SWAP2 POP POP JUMP JUMPDEST PUSH1 0x0 PUSH1 0x20 DUP3 ADD SWAP1 POP DUP2 DUP2 SUB PUSH1 0x0 DUP4 ADD MSTORE PUSH2 0x2A47 DUP2 DUP5 PUSH2 0x29CF JUMP JUMPDEST SWAP1 POP SWAP3 SWAP2 POP POP JUMP JUMPDEST PUSH1 0x0 PUSH1 0x40 MLOAD SWAP1 POP SWAP1 JUMP JUMPDEST PUSH1 0x0 DUP1 REVERT JUMPDEST PUSH1 0x0 DUP1 REVERT JUMPDEST PUSH2 0x2A6C DUP2 PUSH2 0x2931 JUMP JUMPDEST DUP2 EQ PUSH2 0x2A77 JUMPI PUSH1 0x0 DUP1 REVERT JUMPDEST POP JUMP JUMPDEST PUSH1 0x0 DUP2 CALLDATALOAD SWAP1 POP PUSH2 0x2A89 DUP2 PUSH2 0x2A63 JUMP JUMPDEST SWAP3 SWAP2 POP POP JUMP JUMPDEST PUSH1 0x0 DUP1 REVERT JUMPDEST PUSH1 0x0 PUSH1 0x1F NOT PUSH1 0x1F DUP4 ADD AND SWAP1 POP SWAP2 SWAP1 POP JUMP JUMPDEST PUSH32 0x4E487B7100000000000000000000000000000000000000000000000000000000 PUSH1 0x0 MSTORE PUSH1 0x41 PUSH1 0x4 MSTORE PUSH1 0x24 PUSH1 0x0 REVERT JUMPDEST PUSH2 0x2ADD DUP3 PUSH2 0x2A94 JUMP JUMPDEST DUP2 ADD DUP2 DUP2 LT PUSH8 0xFFFFFFFFFFFFFFFF DUP3 GT OR ISZERO PUSH2 0x2AFC JUMPI PUSH2 0x2AFB PUSH2 0x2AA5 JUMP JUMPDEST JUMPDEST DUP1 PUSH1 0x40 MSTORE POP POP POP JUMP JUMPDEST PUSH1 0x0 PUSH2 0x2B0F PUSH2 0x2A4F JUMP JUMPDEST SWAP1 POP PUSH2 0x2B1B DUP3 DUP3 PUSH2 0x2AD4 JUMP JUMPDEST SWAP2 SWAP1 POP JUMP JUMPDEST PUSH1 0x0 PUSH8 0xFFFFFFFFFFFFFFFF DUP3 GT ISZERO PUSH2 0x2B3B JUMPI PUSH2 0x2B3A PUSH2 0x2AA5 JUMP JUMPDEST JUMPDEST PUSH1 0x20 DUP3 MUL SWAP1 POP PUSH1 0x20 DUP2 ADD SWAP1 POP SWAP2 SWAP1 POP JUMP JUMPDEST PUSH1 0x0 DUP1 REVERT JUMPDEST PUSH1 0x0 PUSH2 0x2B64 PUSH2 0x2B5F DUP5 PUSH2 0x2B20 JUMP JUMPDEST PUSH2 0x2B05 JUMP JUMPDEST SWAP1 POP DUP1 DUP4 DUP3 MSTORE PUSH1 0x20 DUP3 ADD SWAP1 POP PUSH1 0x20 DUP5 MUL DUP4 ADD DUP6 DUP2 GT ISZERO PUSH2 0x2B87 JUMPI PUSH2 0x2B86 PUSH2 0x2B4C JUMP JUMPDEST JUMPDEST DUP4 JUMPDEST DUP2 DUP2 LT ISZERO PUSH2 0x2BB0 JUMPI DUP1 PUSH2 0x2B9C DUP9 DUP3 PUSH2 0x2A7A JUMP JUMPDEST DUP5 MSTORE PUSH1 0x20 DUP5 ADD SWAP4 POP POP PUSH1 0x20 DUP2 ADD SWAP1 POP PUSH2 0x2B89 JUMP JUMPDEST POP POP POP SWAP4 SWAP3 POP POP POP JUMP JUMPDEST PUSH1 0x0 DUP3 PUSH1 0x1F DUP4 ADD SLT PUSH2 0x2BCF JUMPI PUSH2 0x2BCE PUSH2 0x2A8F JUMP JUMPDEST JUMPDEST DUP2 CALLDATALOAD PUSH2 0x2BDF DUP5 DUP3 PUSH1 0x20 DUP7 ADD PUSH2 0x2B51 JUMP JUMPDEST SWAP2 POP POP SWAP3 SWAP2 POP POP JUMP JUMPDEST PUSH1 0x0 DUP1 PUSH1 0x40 DUP4 DUP6 SUB SLT ISZERO PUSH2 0x2BFF JUMPI PUSH2 0x2BFE PUSH2 0x2A59 JUMP JUMPDEST JUMPDEST PUSH1 0x0 PUSH2 0x2C0D DUP6 DUP3 DUP7 ADD PUSH2 0x2A7A JUMP JUMPDEST SWAP3 POP POP PUSH1 0x20 DUP4 ADD CALLDATALOAD PUSH8 0xFFFFFFFFFFFFFFFF DUP2 GT ISZERO PUSH2 0x2C2E JUMPI PUSH2 0x2C2D PUSH2 0x2A5E JUMP JUMPDEST JUMPDEST PUSH2 0x2C3A DUP6 DUP3 DUP7 ADD PUSH2 0x2BBA JUMP JUMPDEST SWAP2 POP POP SWAP3 POP SWAP3 SWAP1 POP JUMP JUMPDEST PUSH1 0x0 DUP2 MLOAD SWAP1 POP SWAP2 SWAP1 POP JUMP JUMPDEST PUSH1 0x0 DUP3 DUP3 MSTORE PUSH1 0x20 DUP3 ADD SWAP1 POP SWAP3 SWAP2 POP POP JUMP JUMPDEST PUSH1 0x0 DUP2 SWAP1 POP PUSH1 0x20 DUP3 ADD SWAP1 POP SWAP2 SWAP1 POP JUMP JUMPDEST PUSH2 0x2C79 DUP2 PUSH2 0x2931 JUMP JUMPDEST DUP3 MSTORE POP POP JUMP JUMPDEST PUSH1 0x0 PUSH2 0x2C8B DUP4 DUP4 PUSH2 0x2C70 JUMP JUMPDEST PUSH1 0x20 DUP4 ADD SWAP1 POP SWAP3 SWAP2 POP POP JUMP JUMPDEST PUSH1 0x0 PUSH1 0x20 DUP3 ADD SWAP1 POP SWAP2 SWAP1 POP JUMP JUMPDEST PUSH1 0x0 PUSH2 0x2CAF DUP3 PUSH2 0x2C44 JUMP JUMPDEST PUSH2 0x2CB9 DUP2 DUP6 PUSH2 0x2C4F JUMP JUMPDEST SWAP4 POP PUSH2 0x2CC4 DUP4 PUSH2 0x2C60 JUMP JUMPDEST DUP1 PUSH1 0x0 JUMPDEST DUP4 DUP2 LT ISZERO PUSH2 0x2CF5 JUMPI DUP2 MLOAD PUSH2 0x2CDC DUP9 DUP3 PUSH2 0x2C7F JUMP JUMPDEST SWAP8 POP PUSH2 0x2CE7 DUP4 PUSH2 0x2C97 JUMP JUMPDEST SWAP3 POP POP PUSH1 0x1 DUP2 ADD SWAP1 POP PUSH2 0x2CC8 JUMP JUMPDEST POP DUP6 SWAP4 POP POP POP POP SWAP3 SWAP2 POP POP JUMP JUMPDEST PUSH1 0x0 PUSH1 0x20 DUP3 ADD SWAP1 POP DUP2 DUP2 SUB PUSH1 0x0 DUP4 ADD MSTORE PUSH2 0x2D1C DUP2 DUP5 PUSH2 0x2CA4 JUMP JUMPDEST SWAP1 POP SWAP3 SWAP2 POP POP JUMP JUMPDEST PUSH2 0x2D2D DUP2 PUSH2 0x2991 JUMP JUMPDEST DUP2 EQ PUSH2 0x2D38 JUMPI PUSH1 0x0 DUP1 REVERT JUMPDEST POP JUMP JUMPDEST PUSH1 0x0 DUP2 CALLDATALOAD SWAP1 POP PUSH2 0x2D4A DUP2 PUSH2 0x2D24 JUMP JUMPDEST SWAP3 SWAP2 POP POP JUMP JUMPDEST PUSH1 0x0 PUSH1 0x20 DUP3 DUP5 SUB SLT ISZERO PUSH2 0x2D66 JUMPI PUSH2 0x2D65 PUSH2 0x2A59 JUMP JUMPDEST JUMPDEST PUSH1 0x0 PUSH2 0x2D74 DUP5 DUP3 DUP6 ADD PUSH2 0x2D3B JUMP JUMPDEST SWAP2 POP POP SWAP3 SWAP2 POP POP JUMP JUMPDEST PUSH1 0x0 DUP1 PUSH1 0x0 DUP1 PUSH1 0x80 DUP6 DUP8 SUB SLT ISZERO PUSH2 0x2D97 JUMPI PUSH2 0x2D96 PUSH2 0x2A59 JUMP JUMPDEST JUMPDEST PUSH1 0x0 PUSH2 0x2DA5 DUP8 DUP3 DUP9 ADD PUSH2 0x2A7A JUMP JUMPDEST SWAP5 POP POP PUSH1 0x20 PUSH2 0x2DB6 DUP8 DUP3 DUP9 ADD PUSH2 0x2A7A JUMP JUMPDEST SWAP4 POP POP PUSH1 0x40 PUSH2 0x2DC7 DUP8 DUP3 DUP9 ADD PUSH2 0x2A7A JUMP JUMPDEST SWAP3 POP POP PUSH1 0x60 DUP6 ADD CALLDATALOAD PUSH8 0xFFFFFFFFFFFFFFFF DUP2 GT ISZERO PUSH2 0x2DE8 JUMPI PUSH2 0x2DE7 PUSH2 0x2A5E JUMP JUMPDEST JUMPDEST PUSH2 0x2DF4 DUP8 DUP3 DUP9 ADD PUSH2 0x2BBA JUMP JUMPDEST SWAP2 POP POP SWAP3 SWAP6 SWAP2 SWAP5 POP SWAP3 POP JUMP JUMPDEST PUSH1 0x0 PUSH1 0x40 DUP3 ADD SWAP1 POP PUSH2 0x2E15 PUSH1 0x0 DUP4 ADD DUP6 PUSH2 0x293B JUMP JUMPDEST DUP2 DUP2 SUB PUSH1 0x20 DUP4 ADD MSTORE PUSH2 0x2E27 DUP2 DUP5 PUSH2 0x2CA4 JUMP JUMPDEST SWAP1 POP SWAP4 SWAP3 POP POP POP JUMP JUMPDEST PUSH1 0x0 PUSH20 0xFFFFFFFFFFFFFFFFFFFFFFFFFFFFFFFFFFFFFFFF DUP3 AND SWAP1 POP SWAP2 SWAP1 POP JUMP JUMPDEST PUSH1 0x0 PUSH2 0x2E5B DUP3 PUSH2 0x2E30 JUMP JUMPDEST SWAP1 POP SWAP2 SWAP1 POP JUMP JUMPDEST PUSH2 0x2E6B DUP2 PUSH2 0x2E50 JUMP JUMPDEST DUP2 EQ PUSH2 0x2E76 JUMPI PUSH1 0x0 DUP1 REVERT JUMPDEST POP JUMP JUMPDEST PUSH1 0x0 DUP2 CALLDATALOAD SWAP1 POP PUSH2 0x2E88 DUP2 PUSH2 0x2E62 JUMP JUMPDEST SWAP3 SWAP2 POP POP JUMP JUMPDEST PUSH1 0x0 DUP1 PUSH1 0x0 DUP1 PUSH1 0x80 DUP6 DUP8 SUB SLT ISZERO PUSH2 0x2EA8 JUMPI PUSH2 0x2EA7 PUSH2 0x2A59 JUMP JUMPDEST JUMPDEST PUSH1 0x0 PUSH2 0x2EB6 DUP8 DUP3 DUP9 ADD PUSH2 0x2D3B JUMP JUMPDEST SWAP5 POP POP PUSH1 0x20 PUSH2 0x2EC7 DUP8 DUP3 DUP9 ADD PUSH2 0x2E79 JUMP JUMPDEST SWAP4 POP POP PUSH1 0x40 PUSH2 0x2ED8 DUP8 DUP3 DUP9 ADD PUSH2 0x2E79 JUMP JUMPDEST SWAP3 POP POP PUSH1 0x60 PUSH2 0x2EE9 DUP8 DUP3 DUP9 ADD PUSH2 0x2E79 JUMP JUMPDEST SWAP2 POP POP SWAP3 SWAP6 SWAP2 SWAP5 POP SWAP3 POP JUMP JUMPDEST PUSH1 0x0 PUSH1 0x20 DUP3 DUP5 SUB SLT ISZERO PUSH2 0x2F0B JUMPI PUSH2 0x2F0A PUSH2 0x2A59 JUMP JUMPDEST JUMPDEST PUSH1 0x0 PUSH2 0x2F19 DUP5 DUP3 DUP6 ADD PUSH2 0x2A7A JUMP JUMPDEST SWAP2 POP POP SWAP3 SWAP2 POP POP JUMP JUMPDEST PUSH1 0x0 DUP2 ISZERO ISZERO SWAP1 POP SWAP2 SWAP1 POP JUMP JUMPDEST PUSH2 0x2F37 DUP2 PUSH2 0x2F22 JUMP JUMPDEST DUP3 MSTORE POP POP JUMP JUMPDEST PUSH1 0x0 PUSH1 0x20 DUP3 ADD SWAP1 POP PUSH2 0x2F52 PUSH1 0x0 DUP4 ADD DUP5 PUSH2 0x2F2E JUMP JUMPDEST SWAP3 SWAP2 POP POP JUMP JUMPDEST PUSH1 0x0 DUP1 PUSH1 0x0 PUSH1 0x60 DUP5 DUP7 SUB SLT ISZERO PUSH2 0x2F71 JUMPI PUSH2 0x2F70 PUSH2 0x2A59 JUMP JUMPDEST JUMPDEST PUSH1 0x0 PUSH2 0x2F7F DUP7 DUP3 DUP8 ADD PUSH2 0x2D3B JUMP JUMPDEST SWAP4 POP POP PUSH1 0x20 PUSH2 0x2F90 DUP7 DUP3 DUP8 ADD PUSH2 0x2E79 JUMP JUMPDEST SWAP3 POP POP PUSH1 0x40 PUSH2 0x2FA1 DUP7 DUP3 DUP8 ADD PUSH2 0x2A7A JUMP JUMPDEST SWAP2 POP POP SWAP3 POP SWAP3 POP SWAP3 JUMP JUMPDEST PUSH2 0x2FB4 DUP2 PUSH2 0x2E50 JUMP JUMPDEST DUP3 MSTORE POP POP JUMP JUMPDEST PUSH1 0x0 PUSH1 0x20 DUP3 ADD SWAP1 POP PUSH2 0x2FCF PUSH1 0x0 DUP4 ADD DUP5 PUSH2 0x2FAB JUMP JUMPDEST SWAP3 SWAP2 POP POP JUMP JUMPDEST PUSH2 0x2FDE DUP2 PUSH2 0x2991 JUMP JUMPDEST DUP3 MSTORE POP POP JUMP JUMPDEST PUSH1 0x0 PUSH1 0x20 DUP3 ADD SWAP1 POP PUSH2 0x2FF9 PUSH1 0x0 DUP4 ADD DUP5 PUSH2 0x2FD5 JUMP JUMPDEST SWAP3 SWAP2 POP POP JUMP JUMPDEST PUSH1 0x0 DUP2 MLOAD SWAP1 POP SWAP2 SWAP1 POP JUMP JUMPDEST PUSH1 0x0 DUP3 DUP3 MSTORE PUSH1 0x20 DUP3 ADD SWAP1 POP SWAP3 SWAP2 POP POP JUMP JUMPDEST PUSH1 0x0 JUMPDEST DUP4 DUP2 LT ISZERO PUSH2 0x3039 JUMPI DUP1 DUP3 ADD MLOAD DUP2 DUP5 ADD MSTORE PUSH1 0x20 DUP2 ADD SWAP1 POP PUSH2 0x301E JUMP JUMPDEST DUP4 DUP2 GT ISZERO PUSH2 0x3048 JUMPI PUSH1 0x0 DUP5 DUP5 ADD MSTORE JUMPDEST POP POP POP POP JUMP JUMPDEST PUSH1 0x0 PUSH2 0x3059 DUP3 PUSH2 0x2FFF JUMP JUMPDEST PUSH2 0x3063 DUP2 DUP6 PUSH2 0x300A JUMP JUMPDEST SWAP4 POP PUSH2 0x3073 DUP2 DUP6 PUSH1 0x20 DUP7 ADD PUSH2 0x301B JUMP JUMPDEST PUSH2 0x307C DUP2 PUSH2 0x2A94 JUMP JUMPDEST DUP5 ADD SWAP2 POP POP SWAP3 SWAP2 POP POP JUMP JUMPDEST PUSH1 0x0 PUSH1 0xC0 DUP3 ADD SWAP1 POP DUP2 DUP2 SUB PUSH1 0x0 DUP4 ADD MSTORE PUSH2 0x30A1 DUP2 DUP10 PUSH2 0x304E JUMP JUMPDEST SWAP1 POP PUSH2 0x30B0 PUSH1 0x20 DUP4 ADD DUP9 PUSH2 0x293B JUMP JUMPDEST PUSH2 0x30BD PUSH1 0x40 DUP4 ADD DUP8 PUSH2 0x293B JUMP JUMPDEST PUSH2 0x30CA PUSH1 0x60 DUP4 ADD DUP7 PUSH2 0x293B JUMP JUMPDEST PUSH2 0x30D7 PUSH1 0x80 DUP4 ADD DUP6 PUSH2 0x293B JUMP JUMPDEST DUP2 DUP2 SUB PUSH1 0xA0 DUP4 ADD MSTORE PUSH2 0x30E9 DUP2 DUP5 PUSH2 0x304E JUMP JUMPDEST SWAP1 POP SWAP8 SWAP7 POP POP POP POP POP POP POP JUMP JUMPDEST PUSH1 0x0 DUP1 PUSH1 0x40 DUP4 DUP6 SUB SLT ISZERO PUSH2 0x310D JUMPI PUSH2 0x310C PUSH2 0x2A59 JUMP JUMPDEST JUMPDEST PUSH1 0x0 PUSH2 0x311B DUP6 DUP3 DUP7 ADD PUSH2 0x2E79 JUMP JUMPDEST SWAP3 POP POP PUSH1 0x20 PUSH2 0x312C DUP6 DUP3 DUP7 ADD PUSH2 0x2D3B JUMP JUMPDEST SWAP2 POP POP SWAP3 POP SWAP3 SWAP1 POP JUMP JUMPDEST PUSH1 0x0 PUSH1 0x20 DUP3 DUP5 SUB SLT ISZERO PUSH2 0x314C JUMPI PUSH2 0x314B PUSH2 0x2A59 JUMP JUMPDEST JUMPDEST PUSH1 0x0 PUSH2 0x315A DUP5 DUP3 DUP6 ADD PUSH2 0x2E79 JUMP JUMPDEST SWAP2 POP POP SWAP3 SWAP2 POP POP JUMP JUMPDEST PUSH1 0x0 DUP1 PUSH1 0x40 DUP4 DUP6 SUB SLT ISZERO PUSH2 0x317A JUMPI PUSH2 0x3179 PUSH2 0x2A59 JUMP JUMPDEST JUMPDEST PUSH1 0x0 PUSH2 0x3188 DUP6 DUP3 DUP7 ADD PUSH2 0x2D3B JUMP JUMPDEST SWAP3 POP POP PUSH1 0x20 PUSH2 0x3199 DUP6 DUP3 DUP7 ADD PUSH2 0x2A7A JUMP JUMPDEST SWAP2 POP POP SWAP3 POP SWAP3 SWAP1 POP JUMP JUMPDEST PUSH32 0x4E487B7100000000000000000000000000000000000000000000000000000000 PUSH1 0x0 MSTORE PUSH1 0x32 PUSH1 0x4 MSTORE PUSH1 0x24 PUSH1 0x0 REVERT JUMPDEST PUSH32 0x4E487B7100000000000000000000000000000000000000000000000000000000 PUSH1 0x0 MSTORE PUSH1 0x11 PUSH1 0x4 MSTORE PUSH1 0x24 PUSH1 0x0 REVERT JUMPDEST PUSH1 0x0 PUSH2 0x320C DUP3 PUSH2 0x2931 JUMP JUMPDEST SWAP2 POP PUSH2 0x3217 DUP4 PUSH2 0x2931 JUMP JUMPDEST SWAP3 POP DUP2 PUSH32 0xFFFFFFFFFFFFFFFFFFFFFFFFFFFFFFFFFFFFFFFFFFFFFFFFFFFFFFFFFFFFFFFF DIV DUP4 GT DUP3 ISZERO ISZERO AND ISZERO PUSH2 0x3250 JUMPI PUSH2 0x324F PUSH2 0x31D2 JUMP JUMPDEST JUMPDEST DUP3 DUP3 MUL SWAP1 POP SWAP3 SWAP2 POP POP JUMP JUMPDEST PUSH32 0x4E487B7100000000000000000000000000000000000000000000000000000000 PUSH1 0x0 MSTORE PUSH1 0x12 PUSH1 0x4 MSTORE PUSH1 0x24 PUSH1 0x0 REVERT JUMPDEST PUSH1 0x0 PUSH2 0x3295 DUP3 PUSH2 0x2931 JUMP JUMPDEST SWAP2 POP PUSH2 0x32A0 DUP4 PUSH2 0x2931 JUMP JUMPDEST SWAP3 POP DUP3 PUSH2 0x32B0 JUMPI PUSH2 0x32AF PUSH2 0x325B JUMP JUMPDEST JUMPDEST DUP3 DUP3 DIV SWAP1 POP SWAP3 SWAP2 POP POP JUMP JUMPDEST PUSH1 0x0 PUSH2 0x32C6 DUP3 PUSH2 0x2931 JUMP JUMPDEST SWAP2 POP PUSH32 0xFFFFFFFFFFFFFFFFFFFFFFFFFFFFFFFFFFFFFFFFFFFFFFFFFFFFFFFFFFFFFFFF DUP3 EQ ISZERO PUSH2 0x32F9 JUMPI PUSH2 0x32F8 PUSH2 0x31D2 JUMP JUMPDEST JUMPDEST PUSH1 0x1 DUP3 ADD SWAP1 POP SWAP2 SWAP1 POP JUMP JUMPDEST PUSH32 0x43616D706169676E496E666F3A20547265617375727920616464726573732066 PUSH1 0x0 DUP3 ADD MSTORE PUSH32 0x6F7220706C6174666F726D206973206E6F742073657400000000000000000000 PUSH1 0x20 DUP3 ADD MSTORE POP JUMP JUMPDEST PUSH1 0x0 PUSH2 0x3360 PUSH1 0x36 DUP4 PUSH2 0x300A JUMP JUMPDEST SWAP2 POP PUSH2 0x336B DUP3 PUSH2 0x3304 JUMP JUMPDEST PUSH1 0x40 DUP3 ADD SWAP1 POP SWAP2 SWAP1 POP JUMP JUMPDEST PUSH1 0x0 PUSH1 0x20 DUP3 ADD SWAP1 POP DUP2 DUP2 SUB PUSH1 0x0 DUP4 ADD MSTORE PUSH2 0x338F DUP2 PUSH2 0x3353 JUMP JUMPDEST SWAP1 POP SWAP2 SWAP1 POP JUMP JUMPDEST PUSH1 0x0 DUP2 MLOAD SWAP1 POP PUSH2 0x33A5 DUP2 PUSH2 0x2A63 JUMP JUMPDEST SWAP3 SWAP2 POP POP JUMP JUMPDEST PUSH1 0x0 PUSH1 0x20 DUP3 DUP5 SUB SLT ISZERO PUSH2 0x33C1 JUMPI PUSH2 0x33C0 PUSH2 0x2A59 JUMP JUMPDEST JUMPDEST PUSH1 0x0 PUSH2 0x33CF DUP5 DUP3 DUP6 ADD PUSH2 0x3396 JUMP JUMPDEST SWAP2 POP POP SWAP3 SWAP2 POP POP JUMP JUMPDEST PUSH1 0x0 PUSH2 0x33E3 DUP3 PUSH2 0x2931 JUMP JUMPDEST SWAP2 POP PUSH2 0x33EE DUP4 PUSH2 0x2931 JUMP JUMPDEST SWAP3 POP DUP3 PUSH32 0xFFFFFFFFFFFFFFFFFFFFFFFFFFFFFFFFFFFFFFFFFFFFFFFFFFFFFFFFFFFFFFFF SUB DUP3 GT ISZERO PUSH2 0x3423 JUMPI PUSH2 0x3422 PUSH2 0x31D2 JUMP JUMPDEST JUMPDEST DUP3 DUP3 ADD SWAP1 POP SWAP3 SWAP2 POP POP JUMP JUMPDEST PUSH1 0x0 PUSH2 0x3439 DUP3 PUSH2 0x2931 JUMP JUMPDEST SWAP2 POP PUSH2 0x3444 DUP4 PUSH2 0x2931 JUMP JUMPDEST SWAP3 POP DUP3 DUP3 LT ISZERO PUSH2 0x3457 JUMPI PUSH2 0x3456 PUSH2 0x31D2 JUMP JUMPDEST JUMPDEST DUP3 DUP3 SUB SWAP1 POP SWAP3 SWAP2 POP POP JUMP JUMPDEST PUSH32 0x43616D706169676E496E666F3A204F726967696E20706C6174666F726D207472 PUSH1 0x0 DUP3 ADD MSTORE PUSH32 0x656173757279206E6F7420736574207965740000000000000000000000000000 PUSH1 0x20 DUP3 ADD MSTORE POP JUMP JUMPDEST PUSH1 0x0 PUSH2 0x34BE PUSH1 0x32 DUP4 PUSH2 0x300A JUMP JUMPDEST SWAP2 POP PUSH2 0x34C9 DUP3 PUSH2 0x3462 JUMP JUMPDEST PUSH1 0x40 DUP3 ADD SWAP1 POP SWAP2 SWAP1 POP JUMP JUMPDEST PUSH1 0x0 PUSH1 0x20 DUP3 ADD SWAP1 POP DUP2 DUP2 SUB PUSH1 0x0 DUP4 ADD MSTORE PUSH2 0x34ED DUP2 PUSH2 0x34B1 JUMP JUMPDEST SWAP1 POP SWAP2 SWAP1 POP JUMP JUMPDEST PUSH1 0x0 DUP2 MLOAD SWAP1 POP PUSH2 0x3503 DUP2 PUSH2 0x2E62 JUMP JUMPDEST SWAP3 SWAP2 POP POP JUMP JUMPDEST PUSH1 0x0 PUSH1 0x20 DUP3 DUP5 SUB SLT ISZERO PUSH2 0x351F JUMPI PUSH2 0x351E PUSH2 0x2A59 JUMP JUMPDEST JUMPDEST PUSH1 0x0 PUSH2 0x352D DUP5 DUP3 DUP6 ADD PUSH2 0x34F4 JUMP JUMPDEST SWAP2 POP POP SWAP3 SWAP2 POP POP JUMP JUMPDEST PUSH32 0x43616D706169676E496E666F3A2052657761726420706C6174666F726D206E6F PUSH1 0x0 DUP3 ADD MSTORE PUSH32 0x7420736574207965740000000000000000000000000000000000000000000000 PUSH1 0x20 DUP3 ADD MSTORE POP JUMP JUMPDEST PUSH1 0x0 PUSH2 0x3592 PUSH1 0x29 DUP4 PUSH2 0x300A JUMP JUMPDEST SWAP2 POP PUSH2 0x359D DUP3 PUSH2 0x3536 JUMP JUMPDEST PUSH1 0x40 DUP3 ADD SWAP1 POP SWAP2 SWAP1 POP JUMP JUMPDEST PUSH1 0x0 PUSH1 0x20 DUP3 ADD SWAP1 POP DUP2 DUP2 SUB PUSH1 0x0 DUP4 ADD MSTORE PUSH2 0x35C1 DUP2 PUSH2 0x3585 JUMP JUMPDEST SWAP1 POP SWAP2 SWAP1 POP JUMP JUMPDEST PUSH1 0x0 PUSH1 0x60 DUP3 ADD SWAP1 POP PUSH2 0x35DD PUSH1 0x0 DUP4 ADD DUP7 PUSH2 0x2FAB JUMP JUMPDEST PUSH2 0x35EA PUSH1 0x20 DUP4 ADD DUP6 PUSH2 0x2FAB JUMP JUMPDEST PUSH2 0x35F7 PUSH1 0x40 DUP4 ADD DUP5 PUSH2 0x293B JUMP JUMPDEST SWAP5 SWAP4 POP POP POP POP JUMP JUMPDEST PUSH2 0x3608 DUP2 PUSH2 0x2F22 JUMP JUMPDEST DUP2 EQ PUSH2 0x3613 JUMPI PUSH1 0x0 DUP1 REVERT JUMPDEST POP JUMP JUMPDEST PUSH1 0x0 DUP2 MLOAD SWAP1 POP PUSH2 0x3625 DUP2 PUSH2 0x35FF JUMP JUMPDEST SWAP3 SWAP2 POP POP JUMP JUMPDEST PUSH1 0x0 PUSH1 0x20 DUP3 DUP5 SUB SLT ISZERO PUSH2 0x3641 JUMPI PUSH2 0x3640 PUSH2 0x2A59 JUMP JUMPDEST JUMPDEST PUSH1 0x0 PUSH2 0x364F DUP5 DUP3 DUP6 ADD PUSH2 0x3616 JUMP JUMPDEST SWAP2 POP POP SWAP3 SWAP2 POP POP JUMP JUMPDEST PUSH32 0x4E487B7100000000000000000000000000000000000000000000000000000000 PUSH1 0x0 MSTORE PUSH1 0x22 PUSH1 0x4 MSTORE PUSH1 0x24 PUSH1 0x0 REVERT JUMPDEST PUSH1 0x0 PUSH1 0x2 DUP3 DIV SWAP1 POP PUSH1 0x1 DUP3 AND DUP1 PUSH2 0x369F JUMPI PUSH1 0x7F DUP3 AND SWAP2 POP JUMPDEST PUSH1 0x20 DUP3 LT DUP2 EQ ISZERO PUSH2 0x36B3 JUMPI PUSH2 0x36B2 PUSH2 0x3658 JUMP JUMPDEST JUMPDEST POP SWAP2 SWAP1 POP JUMP JUMPDEST PUSH32 0x4F776E61626C653A206E6577206F776E657220697320746865207A65726F2061 PUSH1 0x0 DUP3 ADD MSTORE PUSH32 0x6464726573730000000000000000000000000000000000000000000000000000 PUSH1 0x20 DUP3 ADD MSTORE POP JUMP JUMPDEST PUSH1 0x0 PUSH2 0x3715 PUSH1 0x26 DUP4 PUSH2 0x300A JUMP JUMPDEST SWAP2 POP PUSH2 0x3720 DUP3 PUSH2 0x36B9 JUMP JUMPDEST PUSH1 0x40 DUP3 ADD SWAP1 POP SWAP2 SWAP1 POP JUMP JUMPDEST PUSH1 0x0 PUSH1 0x20 DUP3 ADD SWAP1 POP DUP2 DUP2 SUB PUSH1 0x0 DUP4 ADD MSTORE PUSH2 0x3744 DUP2 PUSH2 0x3708 JUMP JUMPDEST SWAP1 POP SWAP2 SWAP1 POP JUMP JUMPDEST PUSH32 0x5061757361626C653A2070617573656400000000000000000000000000000000 PUSH1 0x0 DUP3 ADD MSTORE POP JUMP JUMPDEST PUSH1 0x0 PUSH2 0x3781 PUSH1 0x10 DUP4 PUSH2 0x300A JUMP JUMPDEST SWAP2 POP PUSH2 0x378C DUP3 PUSH2 0x374B JUMP JUMPDEST PUSH1 0x20 DUP3 ADD SWAP1 POP SWAP2 SWAP1 POP JUMP JUMPDEST PUSH1 0x0 PUSH1 0x20 DUP3 ADD SWAP1 POP DUP2 DUP2 SUB PUSH1 0x0 DUP4 ADD MSTORE PUSH2 0x37B0 DUP2 PUSH2 0x3774 JUMP JUMPDEST SWAP1 POP SWAP2 SWAP1 POP JUMP JUMPDEST PUSH32 0x4F776E61626C653A2063616C6C6572206973206E6F7420746865206F776E6572 PUSH1 0x0 DUP3 ADD MSTORE POP JUMP JUMPDEST PUSH1 0x0 PUSH2 0x37ED PUSH1 0x20 DUP4 PUSH2 0x300A JUMP JUMPDEST SWAP2 POP PUSH2 0x37F8 DUP3 PUSH2 0x37B7 JUMP JUMPDEST PUSH1 0x20 DUP3 ADD SWAP1 POP SWAP2 SWAP1 POP JUMP JUMPDEST PUSH1 0x0 PUSH1 0x20 DUP3 ADD SWAP1 POP DUP2 DUP2 SUB PUSH1 0x0 DUP4 ADD MSTORE PUSH2 0x381C DUP2 PUSH2 0x37E0 JUMP JUMPDEST SWAP1 POP SWAP2 SWAP1 POP JUMP JUMPDEST PUSH32 0x5061757361626C653A206E6F7420706175736564000000000000000000000000 PUSH1 0x0 DUP3 ADD MSTORE POP JUMP JUMPDEST PUSH1 0x0 PUSH2 0x3859 PUSH1 0x14 DUP4 PUSH2 0x300A JUMP JUMPDEST SWAP2 POP PUSH2 0x3864 DUP3 PUSH2 0x3823 JUMP JUMPDEST PUSH1 0x20 DUP3 ADD SWAP1 POP SWAP2 SWAP1 POP JUMP JUMPDEST PUSH1 0x0 PUSH1 0x20 DUP3 ADD SWAP1 POP DUP2 DUP2 SUB PUSH1 0x0 DUP4 ADD MSTORE PUSH2 0x3888 DUP2 PUSH2 0x384C JUMP JUMPDEST SWAP1 POP SWAP2 SWAP1 POP JUMP INVALID LOG2 PUSH5 0x6970667358 0x22 SLT KECCAK256 0xEB 0xE 0xC3 0x22 0xD6 PUSH26 0x4B6724FECC9E451DAC8E2A6D0B0790DCFA30DBEB91C2B5A76552 PUSH5 0x736F6C6343 STOP ADDMOD MULMOD STOP CALLER LOG2 PUSH5 0x6970667358 0x22 SLT KECCAK256 0x4A SWAP4 0x23 0xE1 DIV STOP SWAP5 0xE 0xBC 0xEC 0x1E CHAINID 0xE4 ORIGIN AND LOG3 0xD2 PUSH26 0x1B36F736AEDE5C38D912AE795B0F64736F6C6343000809003300 "},"methodIdentifiers":{"createCampaign(string,bytes32,uint256,uint256,uint256,uint256,uint256,string,bytes32[])":"537d148a","owner()":"8da5cb5b","renounceOwnership()":"715018a6","setRegistry(address)":"a91ee0dc","transferOwnership(address)":"f2fde38b"}}}}}