{"contracts/Aggregator/Aggregator.sol":{"Aggregator":{"abi":[{"inputs":[{"internalType":"address","name":"campaignInfo","type":"address"},{"internalType":"string","name":"_itemId","type":"string"},{"internalType":"string","name":"_description","type":"string"}],"name":"addItem","outputs":[],"stateMutability":"nonpayable","type":"function"},{"inputs":[{"internalType":"address","name":"campaignInfo","type":"address"},{"internalType":"string","name":"itemId","type":"string"},{"internalType":"string","name":"description","type":"string"},{"internalType":"string","name":"name","type":"string"},{"internalType":"uint256","name":"rewardValue","type":"uint256"},{"internalType":"string[]","name":"itemName","type":"string[]"},{"internalType":"uint256[]","name":"itemQuantity","type":"uint256[]"}],"name":"addItemAndReward","outputs":[],"stateMutability":"nonpayable","type":"function"},{"inputs":[{"internalType":"address","name":"campaignInfo","type":"address"},{"internalType":"string[]","name":"_itemId","type":"string[]"},{"internalType":"string[]","name":"_description","type":"string[]"}],"name":"addItems","outputs":[],"stateMutability":"nonpayable","type":"function"},{"inputs":[{"internalType":"address","name":"campaignInfo","type":"address"},{"internalType":"string","name":"name","type":"string"},{"internalType":"uint256","name":"rewardValue","type":"uint256"},{"internalType":"string[]","name":"itemName","type":"string[]"},{"internalType":"uint256[]","name":"itemQuantity","type":"uint256[]"}],"name":"addReward","outputs":[],"stateMutability":"nonpayable","type":"function"},{"inputs":[{"internalType":"address","name":"_creator","type":"address"},{"internalType":"string","name":"_identifier","type":"string"},{"internalType":"bytes32","name":"_originPlatform","type":"bytes32"},{"internalType":"string","name":"_creatorUrl","type":"string"},{"internalType":"bytes32[]","name":"_reachPlatform","type":"bytes32[]"},{"internalType":"uint256","name":"_earlyPledgeAmount","type":"uint256"}],"name":"createCampaign","outputs":[],"stateMutability":"nonpayable","type":"function"},{"inputs":[{"internalType":"address","name":"_campaignInfoFactory","type":"address"},{"internalType":"address","name":"_campaignRegisty","type":"address"}],"name":"initialize","outputs":[],"stateMutability":"nonpayable","type":"function"},{"inputs":[{"internalType":"address","name":"campaignInfo","type":"address"},{"internalType":"uint256","name":"launchTime","type":"uint256"},{"internalType":"uint256","name":"deadline","type":"uint256"},{"internalType":"uint256","name":"goalAmount","type":"uint256"},{"internalType":"bool","name":"enableLatePledge","type":"bool"}],"name":"setLaunch","outputs":[],"stateMutability":"nonpayable","type":"function"},{"inputs":[{"internalType":"address","name":"campaignInfo","type":"address"},{"internalType":"bytes32","name":"platform","type":"bytes32"},{"internalType":"address","name":"platformWallet","type":"address"},{"internalType":"address","name":"token","type":"address"}],"name":"setTreasury","outputs":[],"stateMutability":"nonpayable","type":"function"}],"evm":{"bytecode":{"linkReferences":{},"object":"608060405234801561001057600080fd5b50612840806100206000396000f3fe60806040523480156200001157600080fd5b5060043610620000945760003560e01c8063ab4d9b5f1162000063578063ab4d9b5f1462000119578063c77e6f651462000139578063d3caea4f1462000159578063fbe121fa14620001795762000094565b80632c6ba152146200009957806333d556d714620000b9578063485cc95514620000d9578063a909bb3314620000f9575b600080fd5b620000b76004803603810190620000b1919062000d39565b62000199565b005b620000d76004803603810190620000d1919062000e18565b6200033a565b005b620000f76004803603810190620000f1919062000e8a565b62000515565b005b62000117600480360381019062000111919062001295565b6200059b565b005b620001376004803603810190620001319190620013f0565b6200072c565b005b620001576004803603810190620001519190620015ae565b62000844565b005b620001776004803603810190620001719190620016a7565b62000a1a565b005b62000197600480360381019062000191919062001788565b62000b2f565b005b843373ffffffffffffffffffffffffffffffffffffffff166000808373ffffffffffffffffffffffffffffffffffffffff1673ffffffffffffffffffffffffffffffffffffffff16815260200190815260200160002060009054906101000a900473ffffffffffffffffffffffffffffffffffffffff1673ffffffffffffffffffffffffffffffffffffffff16146200023157600080fd5b60008585905090508084849050146200024957600080fd5b60005b8181101562000330578773ffffffffffffffffffffffffffffffffffffffff16637ed8a71988888481811062000287576200028662001810565b5b90506020028101906200029b91906200184e565b888886818110620002b157620002b062001810565b5b9050602002810190620002c591906200184e565b6040518563ffffffff1660e01b8152600401620002e69493929190620018fe565b600060405180830381600087803b1580156200030157600080fd5b505af115801562000316573d6000803e3d6000fd5b50505050808062000327906200196c565b9150506200024c565b5050505050505050565b833373ffffffffffffffffffffffffffffffffffffffff166000808373ffffffffffffffffffffffffffffffffffffffff1673ffffffffffffffffffffffffffffffffffffffff16815260200190815260200160002060009054906101000a900473ffffffffffffffffffffffffffffffffffffffff1673ffffffffffffffffffffffffffffffffffffffff1614620003d257600080fd5b600260009054906101000a900473ffffffffffffffffffffffffffffffffffffffff168585604051620004059062000c44565b6200041393929190620019dc565b604051809103906000f08015801562000430573d6000803e3d6000fd5b50600360006101000a81548173ffffffffffffffffffffffffffffffffffffffff021916908373ffffffffffffffffffffffffffffffffffffffff1602179055506000600360009054906101000a900473ffffffffffffffffffffffffffffffffffffffff1690508573ffffffffffffffffffffffffffffffffffffffff1663deaaf241868684876040518563ffffffff1660e01b8152600401620004d9949392919062001a19565b600060405180830381600087803b158015620004f457600080fd5b505af115801562000509573d6000803e3d6000fd5b50505050505050505050565b81600160006101000a81548173ffffffffffffffffffffffffffffffffffffffff021916908373ffffffffffffffffffffffffffffffffffffffff16021790555080600260006101000a81548173ffffffffffffffffffffffffffffffffffffffff021916908373ffffffffffffffffffffffffffffffffffffffff1602179055505050565b893373ffffffffffffffffffffffffffffffffffffffff166000808373ffffffffffffffffffffffffffffffffffffffff1673ffffffffffffffffffffffffffffffffffffffff16815260200190815260200160002060009054906101000a900473ffffffffffffffffffffffffffffffffffffffff1673ffffffffffffffffffffffffffffffffffffffff16146200063357600080fd5b8a73ffffffffffffffffffffffffffffffffffffffff16637ed8a7198b8b8b8b6040518563ffffffff1660e01b8152600401620006749493929190620018fe565b600060405180830381600087803b1580156200068f57600080fd5b505af1158015620006a4573d6000803e3d6000fd5b505050508a73ffffffffffffffffffffffffffffffffffffffff166319188bd887878787876040518663ffffffff1660e01b8152600401620006eb95949392919062001ca8565b600060405180830381600087803b1580156200070657600080fd5b505af11580156200071b573d6000803e3d6000fd5b505050505050505050505050505050565b853373ffffffffffffffffffffffffffffffffffffffff166000808373ffffffffffffffffffffffffffffffffffffffff1673ffffffffffffffffffffffffffffffffffffffff16815260200190815260200160002060009054906101000a900473ffffffffffffffffffffffffffffffffffffffff1673ffffffffffffffffffffffffffffffffffffffff1614620007c457600080fd5b8673ffffffffffffffffffffffffffffffffffffffff166319188bd887878787876040518663ffffffff1660e01b81526004016200080795949392919062001ca8565b600060405180830381600087803b1580156200082257600080fd5b505af115801562000837573d6000803e3d6000fd5b5050505050505050505050565b600160009054906101000a900473ffffffffffffffffffffffffffffffffffffffff1673ffffffffffffffffffffffffffffffffffffffff1663c77e6f653087878787876040518763ffffffff1660e01b8152600401620008ab9695949392919062001e1b565b600060405180830381600087803b158015620008c657600080fd5b505af1158015620008db573d6000803e3d6000fd5b505050506000600260009054906101000a900473ffffffffffffffffffffffffffffffffffffffff1673ffffffffffffffffffffffffffffffffffffffff1663939f3130876040518263ffffffff1660e01b81526004016200093e919062001e9d565b60206040518083038186803b1580156200095757600080fd5b505afa1580156200096c573d6000803e3d6000fd5b505050506040513d601f19601f8201168201806040525081019062000992919062001ed8565b9050866000808373ffffffffffffffffffffffffffffffffffffffff1673ffffffffffffffffffffffffffffffffffffffff16815260200190815260200160002060006101000a81548173ffffffffffffffffffffffffffffffffffffffff021916908373ffffffffffffffffffffffffffffffffffffffff16021790555050505050505050565b843373ffffffffffffffffffffffffffffffffffffffff166000808373ffffffffffffffffffffffffffffffffffffffff1673ffffffffffffffffffffffffffffffffffffffff16815260200190815260200160002060009054906101000a900473ffffffffffffffffffffffffffffffffffffffff1673ffffffffffffffffffffffffffffffffffffffff161462000ab257600080fd5b8573ffffffffffffffffffffffffffffffffffffffff16637ed8a719868686866040518563ffffffff1660e01b815260040162000af39493929190620018fe565b600060405180830381600087803b15801562000b0e57600080fd5b505af115801562000b23573d6000803e3d6000fd5b50505050505050505050565b843373ffffffffffffffffffffffffffffffffffffffff166000808373ffffffffffffffffffffffffffffffffffffffff1673ffffffffffffffffffffffffffffffffffffffff16815260200190815260200160002060009054906101000a900473ffffffffffffffffffffffffffffffffffffffff1673ffffffffffffffffffffffffffffffffffffffff161462000bc757600080fd5b8573ffffffffffffffffffffffffffffffffffffffff1663695c27c2868686866040518563ffffffff1660e01b815260040162000c08949392919062001f1b565b600060405180830381600087803b15801562000c2357600080fd5b505af115801562000c38573d6000803e3d6000fd5b50505050505050505050565b6108a28062001f6983390190565b6000604051905090565b600080fd5b600080fd5b600073ffffffffffffffffffffffffffffffffffffffff82169050919050565b600062000c938262000c66565b9050919050565b62000ca58162000c86565b811462000cb157600080fd5b50565b60008135905062000cc58162000c9a565b92915050565b600080fd5b600080fd5b600080fd5b60008083601f84011262000cf35762000cf262000ccb565b5b8235905067ffffffffffffffff81111562000d135762000d1262000cd0565b5b60208301915083602082028301111562000d325762000d3162000cd5565b5b9250929050565b60008060008060006060868803121562000d585762000d5762000c5c565b5b600062000d688882890162000cb4565b955050602086013567ffffffffffffffff81111562000d8c5762000d8b62000c61565b5b62000d9a8882890162000cda565b9450945050604086013567ffffffffffffffff81111562000dc05762000dbf62000c61565b5b62000dce8882890162000cda565b92509250509295509295909350565b6000819050919050565b62000df28162000ddd565b811462000dfe57600080fd5b50565b60008135905062000e128162000de7565b92915050565b6000806000806080858703121562000e355762000e3462000c5c565b5b600062000e458782880162000cb4565b945050602062000e588782880162000e01565b935050604062000e6b8782880162000cb4565b925050606062000e7e8782880162000cb4565b91505092959194509250565b6000806040838503121562000ea45762000ea362000c5c565b5b600062000eb48582860162000cb4565b925050602062000ec78582860162000cb4565b9150509250929050565b60008083601f84011262000eea5762000ee962000ccb565b5b8235905067ffffffffffffffff81111562000f0a5762000f0962000cd0565b5b60208301915083600182028301111562000f295762000f2862000cd5565b5b9250929050565b6000819050919050565b62000f458162000f30565b811462000f5157600080fd5b50565b60008135905062000f658162000f3a565b92915050565b6000601f19601f8301169050919050565b7f4e487b7100000000000000000000000000000000000000000000000000000000600052604160045260246000fd5b62000fb68262000f6b565b810181811067ffffffffffffffff8211171562000fd85762000fd762000f7c565b5b80604052505050565b600062000fed62000c52565b905062000ffb828262000fab565b919050565b600067ffffffffffffffff8211156200101e576200101d62000f7c565b5b602082029050602081019050919050565b600080fd5b600067ffffffffffffffff82111562001052576200105162000f7c565b5b6200105d8262000f6b565b9050602081019050919050565b82818337600083830152505050565b6000620010906200108a8462001034565b62000fe1565b905082815260208101848484011115620010af57620010ae6200102f565b5b620010bc8482856200106a565b509392505050565b600082601f830112620010dc57620010db62000ccb565b5b8135620010ee84826020860162001079565b91505092915050565b60006200110e620011088462001000565b62000fe1565b9050808382526020820190506020840283018581111562001134576200113362000cd5565b5b835b818110156200118257803567ffffffffffffffff8111156200115d576200115c62000ccb565b5b8086016200116c8982620010c4565b8552602085019450505060208101905062001136565b5050509392505050565b600082601f830112620011a457620011a362000ccb565b5b8135620011b6848260208601620010f7565b91505092915050565b600067ffffffffffffffff821115620011dd57620011dc62000f7c565b5b602082029050602081019050919050565b600062001205620011ff84620011bf565b62000fe1565b905080838252602082019050602084028301858111156200122b576200122a62000cd5565b5b835b8181101562001258578062001243888262000f54565b8452602084019350506020810190506200122d565b5050509392505050565b600082601f8301126200127a576200127962000ccb565b5b81356200128c848260208601620011ee565b91505092915050565b60008060008060008060008060008060e08b8d031215620012bb57620012ba62000c5c565b5b6000620012cb8d828e0162000cb4565b9a505060208b013567ffffffffffffffff811115620012ef57620012ee62000c61565b5b620012fd8d828e0162000ed1565b995099505060408b013567ffffffffffffffff81111562001323576200132262000c61565b5b620013318d828e0162000ed1565b975097505060608b013567ffffffffffffffff81111562001357576200135662000c61565b5b620013658d828e0162000ed1565b955095505060806200137a8d828e0162000f54565b93505060a08b013567ffffffffffffffff8111156200139e576200139d62000c61565b5b620013ac8d828e016200118c565b92505060c08b013567ffffffffffffffff811115620013d057620013cf62000c61565b5b620013de8d828e0162001262565b9150509295989b9194979a5092959850565b60008060008060008060a0878903121562001410576200140f62000c5c565b5b60006200142089828a0162000cb4565b965050602087013567ffffffffffffffff81111562001444576200144362000c61565b5b6200145289828a0162000ed1565b955095505060406200146789828a0162000f54565b935050606087013567ffffffffffffffff8111156200148b576200148a62000c61565b5b6200149989828a016200118c565b925050608087013567ffffffffffffffff811115620014bd57620014bc62000c61565b5b620014cb89828a0162001262565b9150509295509295509295565b600067ffffffffffffffff821115620014f657620014f562000f7c565b5b602082029050602081019050919050565b60006200151e6200151884620014d8565b62000fe1565b9050808382526020820190506020840283018581111562001544576200154362000cd5565b5b835b818110156200157157806200155c888262000e01565b84526020840193505060208101905062001546565b5050509392505050565b600082601f83011262001593576200159262000ccb565b5b8135620015a584826020860162001507565b91505092915050565b60008060008060008060c08789031215620015ce57620015cd62000c5c565b5b6000620015de89828a0162000cb4565b965050602087013567ffffffffffffffff81111562001602576200160162000c61565b5b6200161089828a01620010c4565b95505060406200162389828a0162000e01565b945050606087013567ffffffffffffffff81111562001647576200164662000c61565b5b6200165589828a01620010c4565b935050608087013567ffffffffffffffff81111562001679576200167862000c61565b5b6200168789828a016200157b565b92505060a06200169a89828a0162000f54565b9150509295509295509295565b600080600080600060608688031215620016c657620016c562000c5c565b5b6000620016d68882890162000cb4565b955050602086013567ffffffffffffffff811115620016fa57620016f962000c61565b5b620017088882890162000ed1565b9450945050604086013567ffffffffffffffff8111156200172e576200172d62000c61565b5b6200173c8882890162000ed1565b92509250509295509295909350565b60008115159050919050565b62001762816200174b565b81146200176e57600080fd5b50565b600081359050620017828162001757565b92915050565b600080600080600060a08688031215620017a757620017a662000c5c565b5b6000620017b78882890162000cb4565b9550506020620017ca8882890162000f54565b9450506040620017dd8882890162000f54565b9350506060620017f08882890162000f54565b9250506080620018038882890162001771565b9150509295509295909350565b7f4e487b7100000000000000000000000000000000000000000000000000000000600052603260045260246000fd5b600080fd5b600080fd5b600080fd5b600080833560016020038436030381126200186e576200186d6200183f565b5b80840192508235915067ffffffffffffffff82111562001893576200189262001844565b5b602083019250600182023603831315620018b257620018b162001849565b5b509250929050565b600082825260208201905092915050565b6000620018d98385620018ba565b9350620018e88385846200106a565b620018f38362000f6b565b840190509392505050565b600060408201905081810360008301526200191b818688620018cb565b9050818103602083015262001932818486620018cb565b905095945050505050565b7f4e487b7100000000000000000000000000000000000000000000000000000000600052601160045260246000fd5b6000620019798262000f30565b91507fffffffffffffffffffffffffffffffffffffffffffffffffffffffffffffffff821415620019af57620019ae6200193d565b5b600182019050919050565b620019c58162000c86565b82525050565b620019d68162000ddd565b82525050565b6000606082019050620019f36000830186620019ba565b62001a026020830185620019ba565b62001a116040830184620019cb565b949350505050565b600060808201905062001a306000830187620019cb565b62001a3f6020830186620019ba565b62001a4e6040830185620019ba565b62001a5d6060830184620019ba565b95945050505050565b62001a718162000f30565b82525050565b600081519050919050565b600082825260208201905092915050565b6000819050602082019050919050565b600081519050919050565b600082825260208201905092915050565b60005b8381101562001adf57808201518184015260208101905062001ac2565b8381111562001aef576000848401525b50505050565b600062001b028262001aa3565b62001b0e818562001aae565b935062001b2081856020860162001abf565b62001b2b8162000f6b565b840191505092915050565b600062001b44838362001af5565b905092915050565b6000602082019050919050565b600062001b668262001a77565b62001b72818562001a82565b93508360208202850162001b868562001a93565b8060005b8581101562001bc8578484038952815162001ba6858262001b36565b945062001bb38362001b4c565b925060208a0199505060018101905062001b8a565b50829750879550505050505092915050565b600081519050919050565b600082825260208201905092915050565b6000819050602082019050919050565b62001c118162000f30565b82525050565b600062001c25838362001c06565b60208301905092915050565b6000602082019050919050565b600062001c4b8262001bda565b62001c57818562001be5565b935062001c648362001bf6565b8060005b8381101562001c9b57815162001c7f888262001c17565b975062001c8c8362001c31565b92505060018101905062001c68565b5085935050505092915050565b6000608082019050818103600083015262001cc5818789620018cb565b905062001cd6602083018662001a66565b818103604083015262001cea818562001b59565b9050818103606083015262001d00818462001c3e565b90509695505050505050565b600062001d198262001aa3565b62001d258185620018ba565b935062001d3781856020860162001abf565b62001d428162000f6b565b840191505092915050565b600081519050919050565b600082825260208201905092915050565b6000819050602082019050919050565b62001d848162000ddd565b82525050565b600062001d98838362001d79565b60208301905092915050565b6000602082019050919050565b600062001dbe8262001d4d565b62001dca818562001d58565b935062001dd78362001d69565b8060005b8381101562001e0e57815162001df2888262001d8a565b975062001dff8362001da4565b92505060018101905062001ddb565b5085935050505092915050565b600060c08201905062001e326000830189620019ba565b818103602083015262001e46818862001d0c565b905062001e576040830187620019cb565b818103606083015262001e6b818662001d0c565b9050818103608083015262001e81818562001db1565b905062001e9260a083018462001a66565b979650505050505050565b6000602082019050818103600083015262001eb9818462001d0c565b905092915050565b60008151905062001ed28162000c9a565b92915050565b60006020828403121562001ef15762001ef062000c5c565b5b600062001f018482850162001ec1565b91505092915050565b62001f15816200174b565b82525050565b600060808201905062001f32600083018762001a66565b62001f41602083018662001a66565b62001f50604083018562001a66565b62001f5f606083018462001f0a565b9594505050505056fe608060405234801561001057600080fd5b506040516108a23803806108a28339818101604052810190610032919061015b565b826000806101000a81548173ffffffffffffffffffffffffffffffffffffffff021916908373ffffffffffffffffffffffffffffffffffffffff16021790555081600160006101000a81548173ffffffffffffffffffffffffffffffffffffffff021916908373ffffffffffffffffffffffffffffffffffffffff160217905550806002819055505050506101ae565b600080fd5b600073ffffffffffffffffffffffffffffffffffffffff82169050919050565b60006100f2826100c7565b9050919050565b610102816100e7565b811461010d57600080fd5b50565b60008151905061011f816100f9565b92915050565b6000819050919050565b61013881610125565b811461014357600080fd5b50565b6000815190506101558161012f565b92915050565b600080600060608486031215610174576101736100c2565b5b600061018286828701610110565b935050602061019386828701610110565b92505060406101a486828701610146565b9150509250925092565b6106e5806101bd6000396000f3fe608060405234801561001057600080fd5b506004361061007d5760003560e01c80634f15fc061161005b5780634f15fc06146100dc57806360a56b3a146100fa5780636cccbe5e146101165780638f94b8c2146101345761007d565b8063186bc549146100825780634575d5c5146100a05780634b1d123b146100be575b600080fd5b61008a610150565b60405161009791906102f4565b60405180910390f35b6100a861015a565b6040516100b59190610328565b60405180910390f35b6100c6610164565b6040516100d391906102f4565b60405180910390f35b6100e4610180565b6040516100f191906102f4565b60405180910390f35b610114600480360381019061010f91906103d2565b61018a565b005b61011e6102ad565b60405161012b91906102f4565b60405180910390f35b61014e60048036038101906101499190610425565b6102d1565b005b6000600354905090565b6000600254905090565b600061016e6102ad565b60035461017b9190610481565b905090565b6000600454905090565b600160009054906101000a900473ffffffffffffffffffffffffffffffffffffffff1673ffffffffffffffffffffffffffffffffffffffff163373ffffffffffffffffffffffffffffffffffffffff161461021a576040517f08c379a000000000000000000000000000000000000000000000000000000000815260040161021190610538565b60405180910390fd5b8173ffffffffffffffffffffffffffffffffffffffff1663a9059cbb84836040518363ffffffff1660e01b8152600401610255929190610567565b602060405180830381600087803b15801561026f57600080fd5b505af1158015610283573d6000803e3d6000fd5b505050506040513d601f19601f820116820180604052508101906102a791906105c8565b50505050565b60006127106004546003546102c291906105f5565b6102cc919061067e565b905090565b8060048190555050565b6000819050919050565b6102ee816102db565b82525050565b600060208201905061030960008301846102e5565b92915050565b6000819050919050565b6103228161030f565b82525050565b600060208201905061033d6000830184610319565b92915050565b600080fd5b600073ffffffffffffffffffffffffffffffffffffffff82169050919050565b600061037382610348565b9050919050565b61038381610368565b811461038e57600080fd5b50565b6000813590506103a08161037a565b92915050565b6103af816102db565b81146103ba57600080fd5b50565b6000813590506103cc816103a6565b92915050565b6000806000606084860312156103eb576103ea610343565b5b60006103f986828701610391565b935050602061040a86828701610391565b925050604061041b868287016103bd565b9150509250925092565b60006020828403121561043b5761043a610343565b5b6000610449848285016103bd565b91505092915050565b7f4e487b7100000000000000000000000000000000000000000000000000000000600052601160045260246000fd5b600061048c826102db565b9150610497836102db565b9250828210156104aa576104a9610452565b5b828203905092915050565b600082825260208201905092915050565b7f43616d706169676e54726561737572793a2043616c6c6572206973206e6f742060008201527f43616d706169676e496e666f20636f6e74726163740000000000000000000000602082015250565b60006105226035836104b5565b915061052d826104c6565b604082019050919050565b6000602082019050818103600083015261055181610515565b9050919050565b61056181610368565b82525050565b600060408201905061057c6000830185610558565b61058960208301846102e5565b9392505050565b60008115159050919050565b6105a581610590565b81146105b057600080fd5b50565b6000815190506105c28161059c565b92915050565b6000602082840312156105de576105dd610343565b5b60006105ec848285016105b3565b91505092915050565b6000610600826102db565b915061060b836102db565b9250817fffffffffffffffffffffffffffffffffffffffffffffffffffffffffffffffff048311821515161561064457610643610452565b5b828202905092915050565b7f4e487b7100000000000000000000000000000000000000000000000000000000600052601260045260246000fd5b6000610689826102db565b9150610694836102db565b9250826106a4576106a361064f565b5b82820490509291505056fea2646970667358221220d9ac9e43927bae7cc90a0fbddeebe859351f54203e5f4f5bcbeb43a454538c8164736f6c63430008090033a26469706673582212202c647a71a58e3ce0482ad8b39353b819be66af7d3007429cc2c9af84e16df8fb64736f6c63430008090033","opcodes":"PUSH1 0x80 PUSH1 0x40 MSTORE CALLVALUE DUP1 ISZERO PUSH2 0x10 JUMPI PUSH1 0x0 DUP1 REVERT JUMPDEST POP PUSH2 0x2840 DUP1 PUSH2 0x20 PUSH1 0x0 CODECOPY PUSH1 0x0 RETURN INVALID PUSH1 0x80 PUSH1 0x40 MSTORE CALLVALUE DUP1 ISZERO PUSH3 0x11 JUMPI PUSH1 0x0 DUP1 REVERT JUMPDEST POP PUSH1 0x4 CALLDATASIZE LT PUSH3 0x94 JUMPI PUSH1 0x0 CALLDATALOAD PUSH1 0xE0 SHR DUP1 PUSH4 0xAB4D9B5F GT PUSH3 0x63 JUMPI DUP1 PUSH4 0xAB4D9B5F EQ PUSH3 0x119 JUMPI DUP1 PUSH4 0xC77E6F65 EQ PUSH3 0x139 JUMPI DUP1 PUSH4 0xD3CAEA4F EQ PUSH3 0x159 JUMPI DUP1 PUSH4 0xFBE121FA EQ PUSH3 0x179 JUMPI PUSH3 0x94 JUMP JUMPDEST DUP1 PUSH4 0x2C6BA152 EQ PUSH3 0x99 JUMPI DUP1 PUSH4 0x33D556D7 EQ PUSH3 0xB9 JUMPI DUP1 PUSH4 0x485CC955 EQ PUSH3 0xD9 JUMPI DUP1 PUSH4 0xA909BB33 EQ PUSH3 0xF9 JUMPI JUMPDEST PUSH1 0x0 DUP1 REVERT JUMPDEST PUSH3 0xB7 PUSH1 0x4 DUP1 CALLDATASIZE SUB DUP2 ADD SWAP1 PUSH3 0xB1 SWAP2 SWAP1 PUSH3 0xD39 JUMP JUMPDEST PUSH3 0x199 JUMP JUMPDEST STOP JUMPDEST PUSH3 0xD7 PUSH1 0x4 DUP1 CALLDATASIZE SUB DUP2 ADD SWAP1 PUSH3 0xD1 SWAP2 SWAP1 PUSH3 0xE18 JUMP JUMPDEST PUSH3 0x33A JUMP JUMPDEST STOP JUMPDEST PUSH3 0xF7 PUSH1 0x4 DUP1 CALLDATASIZE SUB DUP2 ADD SWAP1 PUSH3 0xF1 SWAP2 SWAP1 PUSH3 0xE8A JUMP JUMPDEST PUSH3 0x515 JUMP JUMPDEST STOP JUMPDEST PUSH3 0x117 PUSH1 0x4 DUP1 CALLDATASIZE SUB DUP2 ADD SWAP1 PUSH3 0x111 SWAP2 SWAP1 PUSH3 0x1295 JUMP JUMPDEST PUSH3 0x59B JUMP JUMPDEST STOP JUMPDEST PUSH3 0x137 PUSH1 0x4 DUP1 CALLDATASIZE SUB DUP2 ADD SWAP1 PUSH3 0x131 SWAP2 SWAP1 PUSH3 0x13F0 JUMP JUMPDEST PUSH3 0x72C JUMP JUMPDEST STOP JUMPDEST PUSH3 0x157 PUSH1 0x4 DUP1 CALLDATASIZE SUB DUP2 ADD SWAP1 PUSH3 0x151 SWAP2 SWAP1 PUSH3 0x15AE JUMP JUMPDEST PUSH3 0x844 JUMP JUMPDEST STOP JUMPDEST PUSH3 0x177 PUSH1 0x4 DUP1 CALLDATASIZE SUB DUP2 ADD SWAP1 PUSH3 0x171 SWAP2 SWAP1 PUSH3 0x16A7 JUMP JUMPDEST PUSH3 0xA1A JUMP JUMPDEST STOP JUMPDEST PUSH3 0x197 PUSH1 0x4 DUP1 CALLDATASIZE SUB DUP2 ADD SWAP1 PUSH3 0x191 SWAP2 SWAP1 PUSH3 0x1788 JUMP JUMPDEST PUSH3 0xB2F JUMP JUMPDEST STOP JUMPDEST DUP5 CALLER PUSH20 0xFFFFFFFFFFFFFFFFFFFFFFFFFFFFFFFFFFFFFFFF AND PUSH1 0x0 DUP1 DUP4 PUSH20 0xFFFFFFFFFFFFFFFFFFFFFFFFFFFFFFFFFFFFFFFF AND PUSH20 0xFFFFFFFFFFFFFFFFFFFFFFFFFFFFFFFFFFFFFFFF AND DUP2 MSTORE PUSH1 0x20 ADD SWAP1 DUP2 MSTORE PUSH1 0x20 ADD PUSH1 0x0 KECCAK256 PUSH1 0x0 SWAP1 SLOAD SWAP1 PUSH2 0x100 EXP SWAP1 DIV PUSH20 0xFFFFFFFFFFFFFFFFFFFFFFFFFFFFFFFFFFFFFFFF AND PUSH20 0xFFFFFFFFFFFFFFFFFFFFFFFFFFFFFFFFFFFFFFFF AND EQ PUSH3 0x231 JUMPI PUSH1 0x0 DUP1 REVERT JUMPDEST PUSH1 0x0 DUP6 DUP6 SWAP1 POP SWAP1 POP DUP1 DUP5 DUP5 SWAP1 POP EQ PUSH3 0x249 JUMPI PUSH1 0x0 DUP1 REVERT JUMPDEST PUSH1 0x0 JUMPDEST DUP2 DUP2 LT ISZERO PUSH3 0x330 JUMPI DUP8 PUSH20 0xFFFFFFFFFFFFFFFFFFFFFFFFFFFFFFFFFFFFFFFF AND PUSH4 0x7ED8A719 DUP9 DUP9 DUP5 DUP2 DUP2 LT PUSH3 0x287 JUMPI PUSH3 0x286 PUSH3 0x1810 JUMP JUMPDEST JUMPDEST SWAP1 POP PUSH1 0x20 MUL DUP2 ADD SWAP1 PUSH3 0x29B SWAP2 SWAP1 PUSH3 0x184E JUMP JUMPDEST DUP9 DUP9 DUP7 DUP2 DUP2 LT PUSH3 0x2B1 JUMPI PUSH3 0x2B0 PUSH3 0x1810 JUMP JUMPDEST JUMPDEST SWAP1 POP PUSH1 0x20 MUL DUP2 ADD SWAP1 PUSH3 0x2C5 SWAP2 SWAP1 PUSH3 0x184E JUMP JUMPDEST PUSH1 0x40 MLOAD DUP6 PUSH4 0xFFFFFFFF AND PUSH1 0xE0 SHL DUP2 MSTORE PUSH1 0x4 ADD PUSH3 0x2E6 SWAP5 SWAP4 SWAP3 SWAP2 SWAP1 PUSH3 0x18FE JUMP JUMPDEST PUSH1 0x0 PUSH1 0x40 MLOAD DUP1 DUP4 SUB DUP2 PUSH1 0x0 DUP8 DUP1 EXTCODESIZE ISZERO DUP1 ISZERO PUSH3 0x301 JUMPI PUSH1 0x0 DUP1 REVERT JUMPDEST POP GAS CALL ISZERO DUP1 ISZERO PUSH3 0x316 JUMPI RETURNDATASIZE PUSH1 0x0 DUP1 RETURNDATACOPY RETURNDATASIZE PUSH1 0x0 REVERT JUMPDEST POP POP POP POP DUP1 DUP1 PUSH3 0x327 SWAP1 PUSH3 0x196C JUMP JUMPDEST SWAP2 POP POP PUSH3 0x24C JUMP JUMPDEST POP POP POP POP POP POP POP POP JUMP JUMPDEST DUP4 CALLER PUSH20 0xFFFFFFFFFFFFFFFFFFFFFFFFFFFFFFFFFFFFFFFF AND PUSH1 0x0 DUP1 DUP4 PUSH20 0xFFFFFFFFFFFFFFFFFFFFFFFFFFFFFFFFFFFFFFFF AND PUSH20 0xFFFFFFFFFFFFFFFFFFFFFFFFFFFFFFFFFFFFFFFF AND DUP2 MSTORE PUSH1 0x20 ADD SWAP1 DUP2 MSTORE PUSH1 0x20 ADD PUSH1 0x0 KECCAK256 PUSH1 0x0 SWAP1 SLOAD SWAP1 PUSH2 0x100 EXP SWAP1 DIV PUSH20 0xFFFFFFFFFFFFFFFFFFFFFFFFFFFFFFFFFFFFFFFF AND PUSH20 0xFFFFFFFFFFFFFFFFFFFFFFFFFFFFFFFFFFFFFFFF AND EQ PUSH3 0x3D2 JUMPI PUSH1 0x0 DUP1 REVERT JUMPDEST PUSH1 0x2 PUSH1 0x0 SWAP1 SLOAD SWAP1 PUSH2 0x100 EXP SWAP1 DIV PUSH20 0xFFFFFFFFFFFFFFFFFFFFFFFFFFFFFFFFFFFFFFFF AND DUP6 DUP6 PUSH1 0x40 MLOAD PUSH3 0x405 SWAP1 PUSH3 0xC44 JUMP JUMPDEST PUSH3 0x413 SWAP4 SWAP3 SWAP2 SWAP1 PUSH3 0x19DC JUMP JUMPDEST PUSH1 0x40 MLOAD DUP1 SWAP2 SUB SWAP1 PUSH1 0x0 CREATE DUP1 ISZERO DUP1 ISZERO PUSH3 0x430 JUMPI RETURNDATASIZE PUSH1 0x0 DUP1 RETURNDATACOPY RETURNDATASIZE PUSH1 0x0 REVERT JUMPDEST POP PUSH1 0x3 PUSH1 0x0 PUSH2 0x100 EXP DUP2 SLOAD DUP2 PUSH20 0xFFFFFFFFFFFFFFFFFFFFFFFFFFFFFFFFFFFFFFFF MUL NOT AND SWAP1 DUP4 PUSH20 0xFFFFFFFFFFFFFFFFFFFFFFFFFFFFFFFFFFFFFFFF AND MUL OR SWAP1 SSTORE POP PUSH1 0x0 PUSH1 0x3 PUSH1 0x0 SWAP1 SLOAD SWAP1 PUSH2 0x100 EXP SWAP1 DIV PUSH20 0xFFFFFFFFFFFFFFFFFFFFFFFFFFFFFFFFFFFFFFFF AND SWAP1 POP DUP6 PUSH20 0xFFFFFFFFFFFFFFFFFFFFFFFFFFFFFFFFFFFFFFFF AND PUSH4 0xDEAAF241 DUP7 DUP7 DUP5 DUP8 PUSH1 0x40 MLOAD DUP6 PUSH4 0xFFFFFFFF AND PUSH1 0xE0 SHL DUP2 MSTORE PUSH1 0x4 ADD PUSH3 0x4D9 SWAP5 SWAP4 SWAP3 SWAP2 SWAP1 PUSH3 0x1A19 JUMP JUMPDEST PUSH1 0x0 PUSH1 0x40 MLOAD DUP1 DUP4 SUB DUP2 PUSH1 0x0 DUP8 DUP1 EXTCODESIZE ISZERO DUP1 ISZERO PUSH3 0x4F4 JUMPI PUSH1 0x0 DUP1 REVERT JUMPDEST POP GAS CALL ISZERO DUP1 ISZERO PUSH3 0x509 JUMPI RETURNDATASIZE PUSH1 0x0 DUP1 RETURNDATACOPY RETURNDATASIZE PUSH1 0x0 REVERT JUMPDEST POP POP POP POP POP POP POP POP POP POP JUMP JUMPDEST DUP2 PUSH1 0x1 PUSH1 0x0 PUSH2 0x100 EXP DUP2 SLOAD DUP2 PUSH20 0xFFFFFFFFFFFFFFFFFFFFFFFFFFFFFFFFFFFFFFFF MUL NOT AND SWAP1 DUP4 PUSH20 0xFFFFFFFFFFFFFFFFFFFFFFFFFFFFFFFFFFFFFFFF AND MUL OR SWAP1 SSTORE POP DUP1 PUSH1 0x2 PUSH1 0x0 PUSH2 0x100 EXP DUP2 SLOAD DUP2 PUSH20 0xFFFFFFFFFFFFFFFFFFFFFFFFFFFFFFFFFFFFFFFF MUL NOT AND SWAP1 DUP4 PUSH20 0xFFFFFFFFFFFFFFFFFFFFFFFFFFFFFFFFFFFFFFFF AND MUL OR SWAP1 SSTORE POP POP POP JUMP JUMPDEST DUP10 CALLER PUSH20 0xFFFFFFFFFFFFFFFFFFFFFFFFFFFFFFFFFFFFFFFF AND PUSH1 0x0 DUP1 DUP4 PUSH20 0xFFFFFFFFFFFFFFFFFFFFFFFFFFFFFFFFFFFFFFFF AND PUSH20 0xFFFFFFFFFFFFFFFFFFFFFFFFFFFFFFFFFFFFFFFF AND DUP2 MSTORE PUSH1 0x20 ADD SWAP1 DUP2 MSTORE PUSH1 0x20 ADD PUSH1 0x0 KECCAK256 PUSH1 0x0 SWAP1 SLOAD SWAP1 PUSH2 0x100 EXP SWAP1 DIV PUSH20 0xFFFFFFFFFFFFFFFFFFFFFFFFFFFFFFFFFFFFFFFF AND PUSH20 0xFFFFFFFFFFFFFFFFFFFFFFFFFFFFFFFFFFFFFFFF AND EQ PUSH3 0x633 JUMPI PUSH1 0x0 DUP1 REVERT JUMPDEST DUP11 PUSH20 0xFFFFFFFFFFFFFFFFFFFFFFFFFFFFFFFFFFFFFFFF AND PUSH4 0x7ED8A719 DUP12 DUP12 DUP12 DUP12 PUSH1 0x40 MLOAD DUP6 PUSH4 0xFFFFFFFF AND PUSH1 0xE0 SHL DUP2 MSTORE PUSH1 0x4 ADD PUSH3 0x674 SWAP5 SWAP4 SWAP3 SWAP2 SWAP1 PUSH3 0x18FE JUMP JUMPDEST PUSH1 0x0 PUSH1 0x40 MLOAD DUP1 DUP4 SUB DUP2 PUSH1 0x0 DUP8 DUP1 EXTCODESIZE ISZERO DUP1 ISZERO PUSH3 0x68F JUMPI PUSH1 0x0 DUP1 REVERT JUMPDEST POP GAS CALL ISZERO DUP1 ISZERO PUSH3 0x6A4 JUMPI RETURNDATASIZE PUSH1 0x0 DUP1 RETURNDATACOPY RETURNDATASIZE PUSH1 0x0 REVERT JUMPDEST POP POP POP POP DUP11 PUSH20 0xFFFFFFFFFFFFFFFFFFFFFFFFFFFFFFFFFFFFFFFF AND PUSH4 0x19188BD8 DUP8 DUP8 DUP8 DUP8 DUP8 PUSH1 0x40 MLOAD DUP7 PUSH4 0xFFFFFFFF AND PUSH1 0xE0 SHL DUP2 MSTORE PUSH1 0x4 ADD PUSH3 0x6EB SWAP6 SWAP5 SWAP4 SWAP3 SWAP2 SWAP1 PUSH3 0x1CA8 JUMP JUMPDEST PUSH1 0x0 PUSH1 0x40 MLOAD DUP1 DUP4 SUB DUP2 PUSH1 0x0 DUP8 DUP1 EXTCODESIZE ISZERO DUP1 ISZERO PUSH3 0x706 JUMPI PUSH1 0x0 DUP1 REVERT JUMPDEST POP GAS CALL ISZERO DUP1 ISZERO PUSH3 0x71B JUMPI RETURNDATASIZE PUSH1 0x0 DUP1 RETURNDATACOPY RETURNDATASIZE PUSH1 0x0 REVERT JUMPDEST POP POP POP POP POP POP POP POP POP POP POP POP POP POP POP JUMP JUMPDEST DUP6 CALLER PUSH20 0xFFFFFFFFFFFFFFFFFFFFFFFFFFFFFFFFFFFFFFFF AND PUSH1 0x0 DUP1 DUP4 PUSH20 0xFFFFFFFFFFFFFFFFFFFFFFFFFFFFFFFFFFFFFFFF AND PUSH20 0xFFFFFFFFFFFFFFFFFFFFFFFFFFFFFFFFFFFFFFFF AND DUP2 MSTORE PUSH1 0x20 ADD SWAP1 DUP2 MSTORE PUSH1 0x20 ADD PUSH1 0x0 KECCAK256 PUSH1 0x0 SWAP1 SLOAD SWAP1 PUSH2 0x100 EXP SWAP1 DIV PUSH20 0xFFFFFFFFFFFFFFFFFFFFFFFFFFFFFFFFFFFFFFFF AND PUSH20 0xFFFFFFFFFFFFFFFFFFFFFFFFFFFFFFFFFFFFFFFF AND EQ PUSH3 0x7C4 JUMPI PUSH1 0x0 DUP1 REVERT JUMPDEST DUP7 PUSH20 0xFFFFFFFFFFFFFFFFFFFFFFFFFFFFFFFFFFFFFFFF AND PUSH4 0x19188BD8 DUP8 DUP8 DUP8 DUP8 DUP8 PUSH1 0x40 MLOAD DUP7 PUSH4 0xFFFFFFFF AND PUSH1 0xE0 SHL DUP2 MSTORE PUSH1 0x4 ADD PUSH3 0x807 SWAP6 SWAP5 SWAP4 SWAP3 SWAP2 SWAP1 PUSH3 0x1CA8 JUMP JUMPDEST PUSH1 0x0 PUSH1 0x40 MLOAD DUP1 DUP4 SUB DUP2 PUSH1 0x0 DUP8 DUP1 EXTCODESIZE ISZERO DUP1 ISZERO PUSH3 0x822 JUMPI PUSH1 0x0 DUP1 REVERT JUMPDEST POP GAS CALL ISZERO DUP1 ISZERO PUSH3 0x837 JUMPI RETURNDATASIZE PUSH1 0x0 DUP1 RETURNDATACOPY RETURNDATASIZE PUSH1 0x0 REVERT JUMPDEST POP POP POP POP POP POP POP POP POP POP POP JUMP JUMPDEST PUSH1 0x1 PUSH1 0x0 SWAP1 SLOAD SWAP1 PUSH2 0x100 EXP SWAP1 DIV PUSH20 0xFFFFFFFFFFFFFFFFFFFFFFFFFFFFFFFFFFFFFFFF AND PUSH20 0xFFFFFFFFFFFFFFFFFFFFFFFFFFFFFFFFFFFFFFFF AND PUSH4 0xC77E6F65 ADDRESS DUP8 DUP8 DUP8 DUP8 DUP8 PUSH1 0x40 MLOAD DUP8 PUSH4 0xFFFFFFFF AND PUSH1 0xE0 SHL DUP2 MSTORE PUSH1 0x4 ADD PUSH3 0x8AB SWAP7 SWAP6 SWAP5 SWAP4 SWAP3 SWAP2 SWAP1 PUSH3 0x1E1B JUMP JUMPDEST PUSH1 0x0 PUSH1 0x40 MLOAD DUP1 DUP4 SUB DUP2 PUSH1 0x0 DUP8 DUP1 EXTCODESIZE ISZERO DUP1 ISZERO PUSH3 0x8C6 JUMPI PUSH1 0x0 DUP1 REVERT JUMPDEST POP GAS CALL ISZERO DUP1 ISZERO PUSH3 0x8DB JUMPI RETURNDATASIZE PUSH1 0x0 DUP1 RETURNDATACOPY RETURNDATASIZE PUSH1 0x0 REVERT JUMPDEST POP POP POP POP PUSH1 0x0 PUSH1 0x2 PUSH1 0x0 SWAP1 SLOAD SWAP1 PUSH2 0x100 EXP SWAP1 DIV PUSH20 0xFFFFFFFFFFFFFFFFFFFFFFFFFFFFFFFFFFFFFFFF AND PUSH20 0xFFFFFFFFFFFFFFFFFFFFFFFFFFFFFFFFFFFFFFFF AND PUSH4 0x939F3130 DUP8 PUSH1 0x40 MLOAD DUP3 PUSH4 0xFFFFFFFF AND PUSH1 0xE0 SHL DUP2 MSTORE PUSH1 0x4 ADD PUSH3 0x93E SWAP2 SWAP1 PUSH3 0x1E9D JUMP JUMPDEST PUSH1 0x20 PUSH1 0x40 MLOAD DUP1 DUP4 SUB DUP2 DUP7 DUP1 EXTCODESIZE ISZERO DUP1 ISZERO PUSH3 0x957 JUMPI PUSH1 0x0 DUP1 REVERT JUMPDEST POP GAS STATICCALL ISZERO DUP1 ISZERO PUSH3 0x96C JUMPI RETURNDATASIZE PUSH1 0x0 DUP1 RETURNDATACOPY RETURNDATASIZE PUSH1 0x0 REVERT JUMPDEST POP POP POP POP PUSH1 0x40 MLOAD RETURNDATASIZE PUSH1 0x1F NOT PUSH1 0x1F DUP3 ADD AND DUP3 ADD DUP1 PUSH1 0x40 MSTORE POP DUP2 ADD SWAP1 PUSH3 0x992 SWAP2 SWAP1 PUSH3 0x1ED8 JUMP JUMPDEST SWAP1 POP DUP7 PUSH1 0x0 DUP1 DUP4 PUSH20 0xFFFFFFFFFFFFFFFFFFFFFFFFFFFFFFFFFFFFFFFF AND PUSH20 0xFFFFFFFFFFFFFFFFFFFFFFFFFFFFFFFFFFFFFFFF AND DUP2 MSTORE PUSH1 0x20 ADD SWAP1 DUP2 MSTORE PUSH1 0x20 ADD PUSH1 0x0 KECCAK256 PUSH1 0x0 PUSH2 0x100 EXP DUP2 SLOAD DUP2 PUSH20 0xFFFFFFFFFFFFFFFFFFFFFFFFFFFFFFFFFFFFFFFF MUL NOT AND SWAP1 DUP4 PUSH20 0xFFFFFFFFFFFFFFFFFFFFFFFFFFFFFFFFFFFFFFFF AND MUL OR SWAP1 SSTORE POP POP POP POP POP POP POP POP JUMP JUMPDEST DUP5 CALLER PUSH20 0xFFFFFFFFFFFFFFFFFFFFFFFFFFFFFFFFFFFFFFFF AND PUSH1 0x0 DUP1 DUP4 PUSH20 0xFFFFFFFFFFFFFFFFFFFFFFFFFFFFFFFFFFFFFFFF AND PUSH20 0xFFFFFFFFFFFFFFFFFFFFFFFFFFFFFFFFFFFFFFFF AND DUP2 MSTORE PUSH1 0x20 ADD SWAP1 DUP2 MSTORE PUSH1 0x20 ADD PUSH1 0x0 KECCAK256 PUSH1 0x0 SWAP1 SLOAD SWAP1 PUSH2 0x100 EXP SWAP1 DIV PUSH20 0xFFFFFFFFFFFFFFFFFFFFFFFFFFFFFFFFFFFFFFFF AND PUSH20 0xFFFFFFFFFFFFFFFFFFFFFFFFFFFFFFFFFFFFFFFF AND EQ PUSH3 0xAB2 JUMPI PUSH1 0x0 DUP1 REVERT JUMPDEST DUP6 PUSH20 0xFFFFFFFFFFFFFFFFFFFFFFFFFFFFFFFFFFFFFFFF AND PUSH4 0x7ED8A719 DUP7 DUP7 DUP7 DUP7 PUSH1 0x40 MLOAD DUP6 PUSH4 0xFFFFFFFF AND PUSH1 0xE0 SHL DUP2 MSTORE PUSH1 0x4 ADD PUSH3 0xAF3 SWAP5 SWAP4 SWAP3 SWAP2 SWAP1 PUSH3 0x18FE JUMP JUMPDEST PUSH1 0x0 PUSH1 0x40 MLOAD DUP1 DUP4 SUB DUP2 PUSH1 0x0 DUP8 DUP1 EXTCODESIZE ISZERO DUP1 ISZERO PUSH3 0xB0E JUMPI PUSH1 0x0 DUP1 REVERT JUMPDEST POP GAS CALL ISZERO DUP1 ISZERO PUSH3 0xB23 JUMPI RETURNDATASIZE PUSH1 0x0 DUP1 RETURNDATACOPY RETURNDATASIZE PUSH1 0x0 REVERT JUMPDEST POP POP POP POP POP POP POP POP POP POP JUMP JUMPDEST DUP5 CALLER PUSH20 0xFFFFFFFFFFFFFFFFFFFFFFFFFFFFFFFFFFFFFFFF AND PUSH1 0x0 DUP1 DUP4 PUSH20 0xFFFFFFFFFFFFFFFFFFFFFFFFFFFFFFFFFFFFFFFF AND PUSH20 0xFFFFFFFFFFFFFFFFFFFFFFFFFFFFFFFFFFFFFFFF AND DUP2 MSTORE PUSH1 0x20 ADD SWAP1 DUP2 MSTORE PUSH1 0x20 ADD PUSH1 0x0 KECCAK256 PUSH1 0x0 SWAP1 SLOAD SWAP1 PUSH2 0x100 EXP SWAP1 DIV PUSH20 0xFFFFFFFFFFFFFFFFFFFFFFFFFFFFFFFFFFFFFFFF AND PUSH20 0xFFFFFFFFFFFFFFFFFFFFFFFFFFFFFFFFFFFFFFFF AND EQ PUSH3 0xBC7 JUMPI PUSH1 0x0 DUP1 REVERT JUMPDEST DUP6 PUSH20 0xFFFFFFFFFFFFFFFFFFFFFFFFFFFFFFFFFFFFFFFF AND PUSH4 0x695C27C2 DUP7 DUP7 DUP7 DUP7 PUSH1 0x40 MLOAD DUP6 PUSH4 0xFFFFFFFF AND PUSH1 0xE0 SHL DUP2 MSTORE PUSH1 0x4 ADD PUSH3 0xC08 SWAP5 SWAP4 SWAP3 SWAP2 SWAP1 PUSH3 0x1F1B JUMP JUMPDEST PUSH1 0x0 PUSH1 0x40 MLOAD DUP1 DUP4 SUB DUP2 PUSH1 0x0 DUP8 DUP1 EXTCODESIZE ISZERO DUP1 ISZERO PUSH3 0xC23 JUMPI PUSH1 0x0 DUP1 REVERT JUMPDEST POP GAS CALL ISZERO DUP1 ISZERO PUSH3 0xC38 JUMPI RETURNDATASIZE PUSH1 0x0 DUP1 RETURNDATACOPY RETURNDATASIZE PUSH1 0x0 REVERT JUMPDEST POP POP POP POP POP POP POP POP POP POP JUMP JUMPDEST PUSH2 0x8A2 DUP1 PUSH3 0x1F69 DUP4 CODECOPY ADD SWAP1 JUMP JUMPDEST PUSH1 0x0 PUSH1 0x40 MLOAD SWAP1 POP SWAP1 JUMP JUMPDEST PUSH1 0x0 DUP1 REVERT JUMPDEST PUSH1 0x0 DUP1 REVERT JUMPDEST PUSH1 0x0 PUSH20 0xFFFFFFFFFFFFFFFFFFFFFFFFFFFFFFFFFFFFFFFF DUP3 AND SWAP1 POP SWAP2 SWAP1 POP JUMP JUMPDEST PUSH1 0x0 PUSH3 0xC93 DUP3 PUSH3 0xC66 JUMP JUMPDEST SWAP1 POP SWAP2 SWAP1 POP JUMP JUMPDEST PUSH3 0xCA5 DUP2 PUSH3 0xC86 JUMP JUMPDEST DUP2 EQ PUSH3 0xCB1 JUMPI PUSH1 0x0 DUP1 REVERT JUMPDEST POP JUMP JUMPDEST PUSH1 0x0 DUP2 CALLDATALOAD SWAP1 POP PUSH3 0xCC5 DUP2 PUSH3 0xC9A JUMP JUMPDEST SWAP3 SWAP2 POP POP JUMP JUMPDEST PUSH1 0x0 DUP1 REVERT JUMPDEST PUSH1 0x0 DUP1 REVERT JUMPDEST PUSH1 0x0 DUP1 REVERT JUMPDEST PUSH1 0x0 DUP1 DUP4 PUSH1 0x1F DUP5 ADD SLT PUSH3 0xCF3 JUMPI PUSH3 0xCF2 PUSH3 0xCCB JUMP JUMPDEST JUMPDEST DUP3 CALLDATALOAD SWAP1 POP PUSH8 0xFFFFFFFFFFFFFFFF DUP2 GT ISZERO PUSH3 0xD13 JUMPI PUSH3 0xD12 PUSH3 0xCD0 JUMP JUMPDEST JUMPDEST PUSH1 0x20 DUP4 ADD SWAP2 POP DUP4 PUSH1 0x20 DUP3 MUL DUP4 ADD GT ISZERO PUSH3 0xD32 JUMPI PUSH3 0xD31 PUSH3 0xCD5 JUMP JUMPDEST JUMPDEST SWAP3 POP SWAP3 SWAP1 POP JUMP JUMPDEST PUSH1 0x0 DUP1 PUSH1 0x0 DUP1 PUSH1 0x0 PUSH1 0x60 DUP7 DUP9 SUB SLT ISZERO PUSH3 0xD58 JUMPI PUSH3 0xD57 PUSH3 0xC5C JUMP JUMPDEST JUMPDEST PUSH1 0x0 PUSH3 0xD68 DUP9 DUP3 DUP10 ADD PUSH3 0xCB4 JUMP JUMPDEST SWAP6 POP POP PUSH1 0x20 DUP7 ADD CALLDATALOAD PUSH8 0xFFFFFFFFFFFFFFFF DUP2 GT ISZERO PUSH3 0xD8C JUMPI PUSH3 0xD8B PUSH3 0xC61 JUMP JUMPDEST JUMPDEST PUSH3 0xD9A DUP9 DUP3 DUP10 ADD PUSH3 0xCDA JUMP JUMPDEST SWAP5 POP SWAP5 POP POP PUSH1 0x40 DUP7 ADD CALLDATALOAD PUSH8 0xFFFFFFFFFFFFFFFF DUP2 GT ISZERO PUSH3 0xDC0 JUMPI PUSH3 0xDBF PUSH3 0xC61 JUMP JUMPDEST JUMPDEST PUSH3 0xDCE DUP9 DUP3 DUP10 ADD PUSH3 0xCDA JUMP JUMPDEST SWAP3 POP SWAP3 POP POP SWAP3 SWAP6 POP SWAP3 SWAP6 SWAP1 SWAP4 POP JUMP JUMPDEST PUSH1 0x0 DUP2 SWAP1 POP SWAP2 SWAP1 POP JUMP JUMPDEST PUSH3 0xDF2 DUP2 PUSH3 0xDDD JUMP JUMPDEST DUP2 EQ PUSH3 0xDFE JUMPI PUSH1 0x0 DUP1 REVERT JUMPDEST POP JUMP JUMPDEST PUSH1 0x0 DUP2 CALLDATALOAD SWAP1 POP PUSH3 0xE12 DUP2 PUSH3 0xDE7 JUMP JUMPDEST SWAP3 SWAP2 POP POP JUMP JUMPDEST PUSH1 0x0 DUP1 PUSH1 0x0 DUP1 PUSH1 0x80 DUP6 DUP8 SUB SLT ISZERO PUSH3 0xE35 JUMPI PUSH3 0xE34 PUSH3 0xC5C JUMP JUMPDEST JUMPDEST PUSH1 0x0 PUSH3 0xE45 DUP8 DUP3 DUP9 ADD PUSH3 0xCB4 JUMP JUMPDEST SWAP5 POP POP PUSH1 0x20 PUSH3 0xE58 DUP8 DUP3 DUP9 ADD PUSH3 0xE01 JUMP JUMPDEST SWAP4 POP POP PUSH1 0x40 PUSH3 0xE6B DUP8 DUP3 DUP9 ADD PUSH3 0xCB4 JUMP JUMPDEST SWAP3 POP POP PUSH1 0x60 PUSH3 0xE7E DUP8 DUP3 DUP9 ADD PUSH3 0xCB4 JUMP JUMPDEST SWAP2 POP POP SWAP3 SWAP6 SWAP2 SWAP5 POP SWAP3 POP JUMP JUMPDEST PUSH1 0x0 DUP1 PUSH1 0x40 DUP4 DUP6 SUB SLT ISZERO PUSH3 0xEA4 JUMPI PUSH3 0xEA3 PUSH3 0xC5C JUMP JUMPDEST JUMPDEST PUSH1 0x0 PUSH3 0xEB4 DUP6 DUP3 DUP7 ADD PUSH3 0xCB4 JUMP JUMPDEST SWAP3 POP POP PUSH1 0x20 PUSH3 0xEC7 DUP6 DUP3 DUP7 ADD PUSH3 0xCB4 JUMP JUMPDEST SWAP2 POP POP SWAP3 POP SWAP3 SWAP1 POP JUMP JUMPDEST PUSH1 0x0 DUP1 DUP4 PUSH1 0x1F DUP5 ADD SLT PUSH3 0xEEA JUMPI PUSH3 0xEE9 PUSH3 0xCCB JUMP JUMPDEST JUMPDEST DUP3 CALLDATALOAD SWAP1 POP PUSH8 0xFFFFFFFFFFFFFFFF DUP2 GT ISZERO PUSH3 0xF0A JUMPI PUSH3 0xF09 PUSH3 0xCD0 JUMP JUMPDEST JUMPDEST PUSH1 0x20 DUP4 ADD SWAP2 POP DUP4 PUSH1 0x1 DUP3 MUL DUP4 ADD GT ISZERO PUSH3 0xF29 JUMPI PUSH3 0xF28 PUSH3 0xCD5 JUMP JUMPDEST JUMPDEST SWAP3 POP SWAP3 SWAP1 POP JUMP JUMPDEST PUSH1 0x0 DUP2 SWAP1 POP SWAP2 SWAP1 POP JUMP JUMPDEST PUSH3 0xF45 DUP2 PUSH3 0xF30 JUMP JUMPDEST DUP2 EQ PUSH3 0xF51 JUMPI PUSH1 0x0 DUP1 REVERT JUMPDEST POP JUMP JUMPDEST PUSH1 0x0 DUP2 CALLDATALOAD SWAP1 POP PUSH3 0xF65 DUP2 PUSH3 0xF3A JUMP JUMPDEST SWAP3 SWAP2 POP POP JUMP JUMPDEST PUSH1 0x0 PUSH1 0x1F NOT PUSH1 0x1F DUP4 ADD AND SWAP1 POP SWAP2 SWAP1 POP JUMP JUMPDEST PUSH32 0x4E487B7100000000000000000000000000000000000000000000000000000000 PUSH1 0x0 MSTORE PUSH1 0x41 PUSH1 0x4 MSTORE PUSH1 0x24 PUSH1 0x0 REVERT JUMPDEST PUSH3 0xFB6 DUP3 PUSH3 0xF6B JUMP JUMPDEST DUP2 ADD DUP2 DUP2 LT PUSH8 0xFFFFFFFFFFFFFFFF DUP3 GT OR ISZERO PUSH3 0xFD8 JUMPI PUSH3 0xFD7 PUSH3 0xF7C JUMP JUMPDEST JUMPDEST DUP1 PUSH1 0x40 MSTORE POP POP POP JUMP JUMPDEST PUSH1 0x0 PUSH3 0xFED PUSH3 0xC52 JUMP JUMPDEST SWAP1 POP PUSH3 0xFFB DUP3 DUP3 PUSH3 0xFAB JUMP JUMPDEST SWAP2 SWAP1 POP JUMP JUMPDEST PUSH1 0x0 PUSH8 0xFFFFFFFFFFFFFFFF DUP3 GT ISZERO PUSH3 0x101E JUMPI PUSH3 0x101D PUSH3 0xF7C JUMP JUMPDEST JUMPDEST PUSH1 0x20 DUP3 MUL SWAP1 POP PUSH1 0x20 DUP2 ADD SWAP1 POP SWAP2 SWAP1 POP JUMP JUMPDEST PUSH1 0x0 DUP1 REVERT JUMPDEST PUSH1 0x0 PUSH8 0xFFFFFFFFFFFFFFFF DUP3 GT ISZERO PUSH3 0x1052 JUMPI PUSH3 0x1051 PUSH3 0xF7C JUMP JUMPDEST JUMPDEST PUSH3 0x105D DUP3 PUSH3 0xF6B JUMP JUMPDEST SWAP1 POP PUSH1 0x20 DUP2 ADD SWAP1 POP SWAP2 SWAP1 POP JUMP JUMPDEST DUP3 DUP2 DUP4 CALLDATACOPY PUSH1 0x0 DUP4 DUP4 ADD MSTORE POP POP POP JUMP JUMPDEST PUSH1 0x0 PUSH3 0x1090 PUSH3 0x108A DUP5 PUSH3 0x1034 JUMP JUMPDEST PUSH3 0xFE1 JUMP JUMPDEST SWAP1 POP DUP3 DUP2 MSTORE PUSH1 0x20 DUP2 ADD DUP5 DUP5 DUP5 ADD GT ISZERO PUSH3 0x10AF JUMPI PUSH3 0x10AE PUSH3 0x102F JUMP JUMPDEST JUMPDEST PUSH3 0x10BC DUP5 DUP3 DUP6 PUSH3 0x106A JUMP JUMPDEST POP SWAP4 SWAP3 POP POP POP JUMP JUMPDEST PUSH1 0x0 DUP3 PUSH1 0x1F DUP4 ADD SLT PUSH3 0x10DC JUMPI PUSH3 0x10DB PUSH3 0xCCB JUMP JUMPDEST JUMPDEST DUP2 CALLDATALOAD PUSH3 0x10EE DUP5 DUP3 PUSH1 0x20 DUP7 ADD PUSH3 0x1079 JUMP JUMPDEST SWAP2 POP POP SWAP3 SWAP2 POP POP JUMP JUMPDEST PUSH1 0x0 PUSH3 0x110E PUSH3 0x1108 DUP5 PUSH3 0x1000 JUMP JUMPDEST PUSH3 0xFE1 JUMP JUMPDEST SWAP1 POP DUP1 DUP4 DUP3 MSTORE PUSH1 0x20 DUP3 ADD SWAP1 POP PUSH1 0x20 DUP5 MUL DUP4 ADD DUP6 DUP2 GT ISZERO PUSH3 0x1134 JUMPI PUSH3 0x1133 PUSH3 0xCD5 JUMP JUMPDEST JUMPDEST DUP4 JUMPDEST DUP2 DUP2 LT ISZERO PUSH3 0x1182 JUMPI DUP1 CALLDATALOAD PUSH8 0xFFFFFFFFFFFFFFFF DUP2 GT ISZERO PUSH3 0x115D JUMPI PUSH3 0x115C PUSH3 0xCCB JUMP JUMPDEST JUMPDEST DUP1 DUP7 ADD PUSH3 0x116C DUP10 DUP3 PUSH3 0x10C4 JUMP JUMPDEST DUP6 MSTORE PUSH1 0x20 DUP6 ADD SWAP5 POP POP POP PUSH1 0x20 DUP2 ADD SWAP1 POP PUSH3 0x1136 JUMP JUMPDEST POP POP POP SWAP4 SWAP3 POP POP POP JUMP JUMPDEST PUSH1 0x0 DUP3 PUSH1 0x1F DUP4 ADD SLT PUSH3 0x11A4 JUMPI PUSH3 0x11A3 PUSH3 0xCCB JUMP JUMPDEST JUMPDEST DUP2 CALLDATALOAD PUSH3 0x11B6 DUP5 DUP3 PUSH1 0x20 DUP7 ADD PUSH3 0x10F7 JUMP JUMPDEST SWAP2 POP POP SWAP3 SWAP2 POP POP JUMP JUMPDEST PUSH1 0x0 PUSH8 0xFFFFFFFFFFFFFFFF DUP3 GT ISZERO PUSH3 0x11DD JUMPI PUSH3 0x11DC PUSH3 0xF7C JUMP JUMPDEST JUMPDEST PUSH1 0x20 DUP3 MUL SWAP1 POP PUSH1 0x20 DUP2 ADD SWAP1 POP SWAP2 SWAP1 POP JUMP JUMPDEST PUSH1 0x0 PUSH3 0x1205 PUSH3 0x11FF DUP5 PUSH3 0x11BF JUMP JUMPDEST PUSH3 0xFE1 JUMP JUMPDEST SWAP1 POP DUP1 DUP4 DUP3 MSTORE PUSH1 0x20 DUP3 ADD SWAP1 POP PUSH1 0x20 DUP5 MUL DUP4 ADD DUP6 DUP2 GT ISZERO PUSH3 0x122B JUMPI PUSH3 0x122A PUSH3 0xCD5 JUMP JUMPDEST JUMPDEST DUP4 JUMPDEST DUP2 DUP2 LT ISZERO PUSH3 0x1258 JUMPI DUP1 PUSH3 0x1243 DUP9 DUP3 PUSH3 0xF54 JUMP JUMPDEST DUP5 MSTORE PUSH1 0x20 DUP5 ADD SWAP4 POP POP PUSH1 0x20 DUP2 ADD SWAP1 POP PUSH3 0x122D JUMP JUMPDEST POP POP POP SWAP4 SWAP3 POP POP POP JUMP JUMPDEST PUSH1 0x0 DUP3 PUSH1 0x1F DUP4 ADD SLT PUSH3 0x127A JUMPI PUSH3 0x1279 PUSH3 0xCCB JUMP JUMPDEST JUMPDEST DUP2 CALLDATALOAD PUSH3 0x128C DUP5 DUP3 PUSH1 0x20 DUP7 ADD PUSH3 0x11EE JUMP JUMPDEST SWAP2 POP POP SWAP3 SWAP2 POP POP JUMP JUMPDEST PUSH1 0x0 DUP1 PUSH1 0x0 DUP1 PUSH1 0x0 DUP1 PUSH1 0x0 DUP1 PUSH1 0x0 DUP1 PUSH1 0xE0 DUP12 DUP14 SUB SLT ISZERO PUSH3 0x12BB JUMPI PUSH3 0x12BA PUSH3 0xC5C JUMP JUMPDEST JUMPDEST PUSH1 0x0 PUSH3 0x12CB DUP14 DUP3 DUP15 ADD PUSH3 0xCB4 JUMP JUMPDEST SWAP11 POP POP PUSH1 0x20 DUP12 ADD CALLDATALOAD PUSH8 0xFFFFFFFFFFFFFFFF DUP2 GT ISZERO PUSH3 0x12EF JUMPI PUSH3 0x12EE PUSH3 0xC61 JUMP JUMPDEST JUMPDEST PUSH3 0x12FD DUP14 DUP3 DUP15 ADD PUSH3 0xED1 JUMP JUMPDEST SWAP10 POP SWAP10 POP POP PUSH1 0x40 DUP12 ADD CALLDATALOAD PUSH8 0xFFFFFFFFFFFFFFFF DUP2 GT ISZERO PUSH3 0x1323 JUMPI PUSH3 0x1322 PUSH3 0xC61 JUMP JUMPDEST JUMPDEST PUSH3 0x1331 DUP14 DUP3 DUP15 ADD PUSH3 0xED1 JUMP JUMPDEST SWAP8 POP SWAP8 POP POP PUSH1 0x60 DUP12 ADD CALLDATALOAD PUSH8 0xFFFFFFFFFFFFFFFF DUP2 GT ISZERO PUSH3 0x1357 JUMPI PUSH3 0x1356 PUSH3 0xC61 JUMP JUMPDEST JUMPDEST PUSH3 0x1365 DUP14 DUP3 DUP15 ADD PUSH3 0xED1 JUMP JUMPDEST SWAP6 POP SWAP6 POP POP PUSH1 0x80 PUSH3 0x137A DUP14 DUP3 DUP15 ADD PUSH3 0xF54 JUMP JUMPDEST SWAP4 POP POP PUSH1 0xA0 DUP12 ADD CALLDATALOAD PUSH8 0xFFFFFFFFFFFFFFFF DUP2 GT ISZERO PUSH3 0x139E JUMPI PUSH3 0x139D PUSH3 0xC61 JUMP JUMPDEST JUMPDEST PUSH3 0x13AC DUP14 DUP3 DUP15 ADD PUSH3 0x118C JUMP JUMPDEST SWAP3 POP POP PUSH1 0xC0 DUP12 ADD CALLDATALOAD PUSH8 0xFFFFFFFFFFFFFFFF DUP2 GT ISZERO PUSH3 0x13D0 JUMPI PUSH3 0x13CF PUSH3 0xC61 JUMP JUMPDEST JUMPDEST PUSH3 0x13DE DUP14 DUP3 DUP15 ADD PUSH3 0x1262 JUMP JUMPDEST SWAP2 POP POP SWAP3 SWAP6 SWAP9 SWAP12 SWAP2 SWAP5 SWAP8 SWAP11 POP SWAP3 SWAP6 SWAP9 POP JUMP JUMPDEST PUSH1 0x0 DUP1 PUSH1 0x0 DUP1 PUSH1 0x0 DUP1 PUSH1 0xA0 DUP8 DUP10 SUB SLT ISZERO PUSH3 0x1410 JUMPI PUSH3 0x140F PUSH3 0xC5C JUMP JUMPDEST JUMPDEST PUSH1 0x0 PUSH3 0x1420 DUP10 DUP3 DUP11 ADD PUSH3 0xCB4 JUMP JUMPDEST SWAP7 POP POP PUSH1 0x20 DUP8 ADD CALLDATALOAD PUSH8 0xFFFFFFFFFFFFFFFF DUP2 GT ISZERO PUSH3 0x1444 JUMPI PUSH3 0x1443 PUSH3 0xC61 JUMP JUMPDEST JUMPDEST PUSH3 0x1452 DUP10 DUP3 DUP11 ADD PUSH3 0xED1 JUMP JUMPDEST SWAP6 POP SWAP6 POP POP PUSH1 0x40 PUSH3 0x1467 DUP10 DUP3 DUP11 ADD PUSH3 0xF54 JUMP JUMPDEST SWAP4 POP POP PUSH1 0x60 DUP8 ADD CALLDATALOAD PUSH8 0xFFFFFFFFFFFFFFFF DUP2 GT ISZERO PUSH3 0x148B JUMPI PUSH3 0x148A PUSH3 0xC61 JUMP JUMPDEST JUMPDEST PUSH3 0x1499 DUP10 DUP3 DUP11 ADD PUSH3 0x118C JUMP JUMPDEST SWAP3 POP POP PUSH1 0x80 DUP8 ADD CALLDATALOAD PUSH8 0xFFFFFFFFFFFFFFFF DUP2 GT ISZERO PUSH3 0x14BD JUMPI PUSH3 0x14BC PUSH3 0xC61 JUMP JUMPDEST JUMPDEST PUSH3 0x14CB DUP10 DUP3 DUP11 ADD PUSH3 0x1262 JUMP JUMPDEST SWAP2 POP POP SWAP3 SWAP6 POP SWAP3 SWAP6 POP SWAP3 SWAP6 JUMP JUMPDEST PUSH1 0x0 PUSH8 0xFFFFFFFFFFFFFFFF DUP3 GT ISZERO PUSH3 0x14F6 JUMPI PUSH3 0x14F5 PUSH3 0xF7C JUMP JUMPDEST JUMPDEST PUSH1 0x20 DUP3 MUL SWAP1 POP PUSH1 0x20 DUP2 ADD SWAP1 POP SWAP2 SWAP1 POP JUMP JUMPDEST PUSH1 0x0 PUSH3 0x151E PUSH3 0x1518 DUP5 PUSH3 0x14D8 JUMP JUMPDEST PUSH3 0xFE1 JUMP JUMPDEST SWAP1 POP DUP1 DUP4 DUP3 MSTORE PUSH1 0x20 DUP3 ADD SWAP1 POP PUSH1 0x20 DUP5 MUL DUP4 ADD DUP6 DUP2 GT ISZERO PUSH3 0x1544 JUMPI PUSH3 0x1543 PUSH3 0xCD5 JUMP JUMPDEST JUMPDEST DUP4 JUMPDEST DUP2 DUP2 LT ISZERO PUSH3 0x1571 JUMPI DUP1 PUSH3 0x155C DUP9 DUP3 PUSH3 0xE01 JUMP JUMPDEST DUP5 MSTORE PUSH1 0x20 DUP5 ADD SWAP4 POP POP PUSH1 0x20 DUP2 ADD SWAP1 POP PUSH3 0x1546 JUMP JUMPDEST POP POP POP SWAP4 SWAP3 POP POP POP JUMP JUMPDEST PUSH1 0x0 DUP3 PUSH1 0x1F DUP4 ADD SLT PUSH3 0x1593 JUMPI PUSH3 0x1592 PUSH3 0xCCB JUMP JUMPDEST JUMPDEST DUP2 CALLDATALOAD PUSH3 0x15A5 DUP5 DUP3 PUSH1 0x20 DUP7 ADD PUSH3 0x1507 JUMP JUMPDEST SWAP2 POP POP SWAP3 SWAP2 POP POP JUMP JUMPDEST PUSH1 0x0 DUP1 PUSH1 0x0 DUP1 PUSH1 0x0 DUP1 PUSH1 0xC0 DUP8 DUP10 SUB SLT ISZERO PUSH3 0x15CE JUMPI PUSH3 0x15CD PUSH3 0xC5C JUMP JUMPDEST JUMPDEST PUSH1 0x0 PUSH3 0x15DE DUP10 DUP3 DUP11 ADD PUSH3 0xCB4 JUMP JUMPDEST SWAP7 POP POP PUSH1 0x20 DUP8 ADD CALLDATALOAD PUSH8 0xFFFFFFFFFFFFFFFF DUP2 GT ISZERO PUSH3 0x1602 JUMPI PUSH3 0x1601 PUSH3 0xC61 JUMP JUMPDEST JUMPDEST PUSH3 0x1610 DUP10 DUP3 DUP11 ADD PUSH3 0x10C4 JUMP JUMPDEST SWAP6 POP POP PUSH1 0x40 PUSH3 0x1623 DUP10 DUP3 DUP11 ADD PUSH3 0xE01 JUMP JUMPDEST SWAP5 POP POP PUSH1 0x60 DUP8 ADD CALLDATALOAD PUSH8 0xFFFFFFFFFFFFFFFF DUP2 GT ISZERO PUSH3 0x1647 JUMPI PUSH3 0x1646 PUSH3 0xC61 JUMP JUMPDEST JUMPDEST PUSH3 0x1655 DUP10 DUP3 DUP11 ADD PUSH3 0x10C4 JUMP JUMPDEST SWAP4 POP POP PUSH1 0x80 DUP8 ADD CALLDATALOAD PUSH8 0xFFFFFFFFFFFFFFFF DUP2 GT ISZERO PUSH3 0x1679 JUMPI PUSH3 0x1678 PUSH3 0xC61 JUMP JUMPDEST JUMPDEST PUSH3 0x1687 DUP10 DUP3 DUP11 ADD PUSH3 0x157B JUMP JUMPDEST SWAP3 POP POP PUSH1 0xA0 PUSH3 0x169A DUP10 DUP3 DUP11 ADD PUSH3 0xF54 JUMP JUMPDEST SWAP2 POP POP SWAP3 SWAP6 POP SWAP3 SWAP6 POP SWAP3 SWAP6 JUMP JUMPDEST PUSH1 0x0 DUP1 PUSH1 0x0 DUP1 PUSH1 0x0 PUSH1 0x60 DUP7 DUP9 SUB SLT ISZERO PUSH3 0x16C6 JUMPI PUSH3 0x16C5 PUSH3 0xC5C JUMP JUMPDEST JUMPDEST PUSH1 0x0 PUSH3 0x16D6 DUP9 DUP3 DUP10 ADD PUSH3 0xCB4 JUMP JUMPDEST SWAP6 POP POP PUSH1 0x20 DUP7 ADD CALLDATALOAD PUSH8 0xFFFFFFFFFFFFFFFF DUP2 GT ISZERO PUSH3 0x16FA JUMPI PUSH3 0x16F9 PUSH3 0xC61 JUMP JUMPDEST JUMPDEST PUSH3 0x1708 DUP9 DUP3 DUP10 ADD PUSH3 0xED1 JUMP JUMPDEST SWAP5 POP SWAP5 POP POP PUSH1 0x40 DUP7 ADD CALLDATALOAD PUSH8 0xFFFFFFFFFFFFFFFF DUP2 GT ISZERO PUSH3 0x172E JUMPI PUSH3 0x172D PUSH3 0xC61 JUMP JUMPDEST JUMPDEST PUSH3 0x173C DUP9 DUP3 DUP10 ADD PUSH3 0xED1 JUMP JUMPDEST SWAP3 POP SWAP3 POP POP SWAP3 SWAP6 POP SWAP3 SWAP6 SWAP1 SWAP4 POP JUMP JUMPDEST PUSH1 0x0 DUP2 ISZERO ISZERO SWAP1 POP SWAP2 SWAP1 POP JUMP JUMPDEST PUSH3 0x1762 DUP2 PUSH3 0x174B JUMP JUMPDEST DUP2 EQ PUSH3 0x176E JUMPI PUSH1 0x0 DUP1 REVERT JUMPDEST POP JUMP JUMPDEST PUSH1 0x0 DUP2 CALLDATALOAD SWAP1 POP PUSH3 0x1782 DUP2 PUSH3 0x1757 JUMP JUMPDEST SWAP3 SWAP2 POP POP JUMP JUMPDEST PUSH1 0x0 DUP1 PUSH1 0x0 DUP1 PUSH1 0x0 PUSH1 0xA0 DUP7 DUP9 SUB SLT ISZERO PUSH3 0x17A7 JUMPI PUSH3 0x17A6 PUSH3 0xC5C JUMP JUMPDEST JUMPDEST PUSH1 0x0 PUSH3 0x17B7 DUP9 DUP3 DUP10 ADD PUSH3 0xCB4 JUMP JUMPDEST SWAP6 POP POP PUSH1 0x20 PUSH3 0x17CA DUP9 DUP3 DUP10 ADD PUSH3 0xF54 JUMP JUMPDEST SWAP5 POP POP PUSH1 0x40 PUSH3 0x17DD DUP9 DUP3 DUP10 ADD PUSH3 0xF54 JUMP JUMPDEST SWAP4 POP POP PUSH1 0x60 PUSH3 0x17F0 DUP9 DUP3 DUP10 ADD PUSH3 0xF54 JUMP JUMPDEST SWAP3 POP POP PUSH1 0x80 PUSH3 0x1803 DUP9 DUP3 DUP10 ADD PUSH3 0x1771 JUMP JUMPDEST SWAP2 POP POP SWAP3 SWAP6 POP SWAP3 SWAP6 SWAP1 SWAP4 POP JUMP JUMPDEST PUSH32 0x4E487B7100000000000000000000000000000000000000000000000000000000 PUSH1 0x0 MSTORE PUSH1 0x32 PUSH1 0x4 MSTORE PUSH1 0x24 PUSH1 0x0 REVERT JUMPDEST PUSH1 0x0 DUP1 REVERT JUMPDEST PUSH1 0x0 DUP1 REVERT JUMPDEST PUSH1 0x0 DUP1 REVERT JUMPDEST PUSH1 0x0 DUP1 DUP4 CALLDATALOAD PUSH1 0x1 PUSH1 0x20 SUB DUP5 CALLDATASIZE SUB SUB DUP2 SLT PUSH3 0x186E JUMPI PUSH3 0x186D PUSH3 0x183F JUMP JUMPDEST JUMPDEST DUP1 DUP5 ADD SWAP3 POP DUP3 CALLDATALOAD SWAP2 POP PUSH8 0xFFFFFFFFFFFFFFFF DUP3 GT ISZERO PUSH3 0x1893 JUMPI PUSH3 0x1892 PUSH3 0x1844 JUMP JUMPDEST JUMPDEST PUSH1 0x20 DUP4 ADD SWAP3 POP PUSH1 0x1 DUP3 MUL CALLDATASIZE SUB DUP4 SGT ISZERO PUSH3 0x18B2 JUMPI PUSH3 0x18B1 PUSH3 0x1849 JUMP JUMPDEST JUMPDEST POP SWAP3 POP SWAP3 SWAP1 POP JUMP JUMPDEST PUSH1 0x0 DUP3 DUP3 MSTORE PUSH1 0x20 DUP3 ADD SWAP1 POP SWAP3 SWAP2 POP POP JUMP JUMPDEST PUSH1 0x0 PUSH3 0x18D9 DUP4 DUP6 PUSH3 0x18BA JUMP JUMPDEST SWAP4 POP PUSH3 0x18E8 DUP4 DUP6 DUP5 PUSH3 0x106A JUMP JUMPDEST PUSH3 0x18F3 DUP4 PUSH3 0xF6B JUMP JUMPDEST DUP5 ADD SWAP1 POP SWAP4 SWAP3 POP POP POP JUMP JUMPDEST PUSH1 0x0 PUSH1 0x40 DUP3 ADD SWAP1 POP DUP2 DUP2 SUB PUSH1 0x0 DUP4 ADD MSTORE PUSH3 0x191B DUP2 DUP7 DUP9 PUSH3 0x18CB JUMP JUMPDEST SWAP1 POP DUP2 DUP2 SUB PUSH1 0x20 DUP4 ADD MSTORE PUSH3 0x1932 DUP2 DUP5 DUP7 PUSH3 0x18CB JUMP JUMPDEST SWAP1 POP SWAP6 SWAP5 POP POP POP POP POP JUMP JUMPDEST PUSH32 0x4E487B7100000000000000000000000000000000000000000000000000000000 PUSH1 0x0 MSTORE PUSH1 0x11 PUSH1 0x4 MSTORE PUSH1 0x24 PUSH1 0x0 REVERT JUMPDEST PUSH1 0x0 PUSH3 0x1979 DUP3 PUSH3 0xF30 JUMP JUMPDEST SWAP2 POP PUSH32 0xFFFFFFFFFFFFFFFFFFFFFFFFFFFFFFFFFFFFFFFFFFFFFFFFFFFFFFFFFFFFFFFF DUP3 EQ ISZERO PUSH3 0x19AF JUMPI PUSH3 0x19AE PUSH3 0x193D JUMP JUMPDEST JUMPDEST PUSH1 0x1 DUP3 ADD SWAP1 POP SWAP2 SWAP1 POP JUMP JUMPDEST PUSH3 0x19C5 DUP2 PUSH3 0xC86 JUMP JUMPDEST DUP3 MSTORE POP POP JUMP JUMPDEST PUSH3 0x19D6 DUP2 PUSH3 0xDDD JUMP JUMPDEST DUP3 MSTORE POP POP JUMP JUMPDEST PUSH1 0x0 PUSH1 0x60 DUP3 ADD SWAP1 POP PUSH3 0x19F3 PUSH1 0x0 DUP4 ADD DUP7 PUSH3 0x19BA JUMP JUMPDEST PUSH3 0x1A02 PUSH1 0x20 DUP4 ADD DUP6 PUSH3 0x19BA JUMP JUMPDEST PUSH3 0x1A11 PUSH1 0x40 DUP4 ADD DUP5 PUSH3 0x19CB JUMP JUMPDEST SWAP5 SWAP4 POP POP POP POP JUMP JUMPDEST PUSH1 0x0 PUSH1 0x80 DUP3 ADD SWAP1 POP PUSH3 0x1A30 PUSH1 0x0 DUP4 ADD DUP8 PUSH3 0x19CB JUMP JUMPDEST PUSH3 0x1A3F PUSH1 0x20 DUP4 ADD DUP7 PUSH3 0x19BA JUMP JUMPDEST PUSH3 0x1A4E PUSH1 0x40 DUP4 ADD DUP6 PUSH3 0x19BA JUMP JUMPDEST PUSH3 0x1A5D PUSH1 0x60 DUP4 ADD DUP5 PUSH3 0x19BA JUMP JUMPDEST SWAP6 SWAP5 POP POP POP POP POP JUMP JUMPDEST PUSH3 0x1A71 DUP2 PUSH3 0xF30 JUMP JUMPDEST DUP3 MSTORE POP POP JUMP JUMPDEST PUSH1 0x0 DUP2 MLOAD SWAP1 POP SWAP2 SWAP1 POP JUMP JUMPDEST PUSH1 0x0 DUP3 DUP3 MSTORE PUSH1 0x20 DUP3 ADD SWAP1 POP SWAP3 SWAP2 POP POP JUMP JUMPDEST PUSH1 0x0 DUP2 SWAP1 POP PUSH1 0x20 DUP3 ADD SWAP1 POP SWAP2 SWAP1 POP JUMP JUMPDEST PUSH1 0x0 DUP2 MLOAD SWAP1 POP SWAP2 SWAP1 POP JUMP JUMPDEST PUSH1 0x0 DUP3 DUP3 MSTORE PUSH1 0x20 DUP3 ADD SWAP1 POP SWAP3 SWAP2 POP POP JUMP JUMPDEST PUSH1 0x0 JUMPDEST DUP4 DUP2 LT ISZERO PUSH3 0x1ADF JUMPI DUP1 DUP3 ADD MLOAD DUP2 DUP5 ADD MSTORE PUSH1 0x20 DUP2 ADD SWAP1 POP PUSH3 0x1AC2 JUMP JUMPDEST DUP4 DUP2 GT ISZERO PUSH3 0x1AEF JUMPI PUSH1 0x0 DUP5 DUP5 ADD MSTORE JUMPDEST POP POP POP POP JUMP JUMPDEST PUSH1 0x0 PUSH3 0x1B02 DUP3 PUSH3 0x1AA3 JUMP JUMPDEST PUSH3 0x1B0E DUP2 DUP6 PUSH3 0x1AAE JUMP JUMPDEST SWAP4 POP PUSH3 0x1B20 DUP2 DUP6 PUSH1 0x20 DUP7 ADD PUSH3 0x1ABF JUMP JUMPDEST PUSH3 0x1B2B DUP2 PUSH3 0xF6B JUMP JUMPDEST DUP5 ADD SWAP2 POP POP SWAP3 SWAP2 POP POP JUMP JUMPDEST PUSH1 0x0 PUSH3 0x1B44 DUP4 DUP4 PUSH3 0x1AF5 JUMP JUMPDEST SWAP1 POP SWAP3 SWAP2 POP POP JUMP JUMPDEST PUSH1 0x0 PUSH1 0x20 DUP3 ADD SWAP1 POP SWAP2 SWAP1 POP JUMP JUMPDEST PUSH1 0x0 PUSH3 0x1B66 DUP3 PUSH3 0x1A77 JUMP JUMPDEST PUSH3 0x1B72 DUP2 DUP6 PUSH3 0x1A82 JUMP JUMPDEST SWAP4 POP DUP4 PUSH1 0x20 DUP3 MUL DUP6 ADD PUSH3 0x1B86 DUP6 PUSH3 0x1A93 JUMP JUMPDEST DUP1 PUSH1 0x0 JUMPDEST DUP6 DUP2 LT ISZERO PUSH3 0x1BC8 JUMPI DUP5 DUP5 SUB DUP10 MSTORE DUP2 MLOAD PUSH3 0x1BA6 DUP6 DUP3 PUSH3 0x1B36 JUMP JUMPDEST SWAP5 POP PUSH3 0x1BB3 DUP4 PUSH3 0x1B4C JUMP JUMPDEST SWAP3 POP PUSH1 0x20 DUP11 ADD SWAP10 POP POP PUSH1 0x1 DUP2 ADD SWAP1 POP PUSH3 0x1B8A JUMP JUMPDEST POP DUP3 SWAP8 POP DUP8 SWAP6 POP POP POP POP POP POP SWAP3 SWAP2 POP POP JUMP JUMPDEST PUSH1 0x0 DUP2 MLOAD SWAP1 POP SWAP2 SWAP1 POP JUMP JUMPDEST PUSH1 0x0 DUP3 DUP3 MSTORE PUSH1 0x20 DUP3 ADD SWAP1 POP SWAP3 SWAP2 POP POP JUMP JUMPDEST PUSH1 0x0 DUP2 SWAP1 POP PUSH1 0x20 DUP3 ADD SWAP1 POP SWAP2 SWAP1 POP JUMP JUMPDEST PUSH3 0x1C11 DUP2 PUSH3 0xF30 JUMP JUMPDEST DUP3 MSTORE POP POP JUMP JUMPDEST PUSH1 0x0 PUSH3 0x1C25 DUP4 DUP4 PUSH3 0x1C06 JUMP JUMPDEST PUSH1 0x20 DUP4 ADD SWAP1 POP SWAP3 SWAP2 POP POP JUMP JUMPDEST PUSH1 0x0 PUSH1 0x20 DUP3 ADD SWAP1 POP SWAP2 SWAP1 POP JUMP JUMPDEST PUSH1 0x0 PUSH3 0x1C4B DUP3 PUSH3 0x1BDA JUMP JUMPDEST PUSH3 0x1C57 DUP2 DUP6 PUSH3 0x1BE5 JUMP JUMPDEST SWAP4 POP PUSH3 0x1C64 DUP4 PUSH3 0x1BF6 JUMP JUMPDEST DUP1 PUSH1 0x0 JUMPDEST DUP4 DUP2 LT ISZERO PUSH3 0x1C9B JUMPI DUP2 MLOAD PUSH3 0x1C7F DUP9 DUP3 PUSH3 0x1C17 JUMP JUMPDEST SWAP8 POP PUSH3 0x1C8C DUP4 PUSH3 0x1C31 JUMP JUMPDEST SWAP3 POP POP PUSH1 0x1 DUP2 ADD SWAP1 POP PUSH3 0x1C68 JUMP JUMPDEST POP DUP6 SWAP4 POP POP POP POP SWAP3 SWAP2 POP POP JUMP JUMPDEST PUSH1 0x0 PUSH1 0x80 DUP3 ADD SWAP1 POP DUP2 DUP2 SUB PUSH1 0x0 DUP4 ADD MSTORE PUSH3 0x1CC5 DUP2 DUP8 DUP10 PUSH3 0x18CB JUMP JUMPDEST SWAP1 POP PUSH3 0x1CD6 PUSH1 0x20 DUP4 ADD DUP7 PUSH3 0x1A66 JUMP JUMPDEST DUP2 DUP2 SUB PUSH1 0x40 DUP4 ADD MSTORE PUSH3 0x1CEA DUP2 DUP6 PUSH3 0x1B59 JUMP JUMPDEST SWAP1 POP DUP2 DUP2 SUB PUSH1 0x60 DUP4 ADD MSTORE PUSH3 0x1D00 DUP2 DUP5 PUSH3 0x1C3E JUMP JUMPDEST SWAP1 POP SWAP7 SWAP6 POP POP POP POP POP POP JUMP JUMPDEST PUSH1 0x0 PUSH3 0x1D19 DUP3 PUSH3 0x1AA3 JUMP JUMPDEST PUSH3 0x1D25 DUP2 DUP6 PUSH3 0x18BA JUMP JUMPDEST SWAP4 POP PUSH3 0x1D37 DUP2 DUP6 PUSH1 0x20 DUP7 ADD PUSH3 0x1ABF JUMP JUMPDEST PUSH3 0x1D42 DUP2 PUSH3 0xF6B JUMP JUMPDEST DUP5 ADD SWAP2 POP POP SWAP3 SWAP2 POP POP JUMP JUMPDEST PUSH1 0x0 DUP2 MLOAD SWAP1 POP SWAP2 SWAP1 POP JUMP JUMPDEST PUSH1 0x0 DUP3 DUP3 MSTORE PUSH1 0x20 DUP3 ADD SWAP1 POP SWAP3 SWAP2 POP POP JUMP JUMPDEST PUSH1 0x0 DUP2 SWAP1 POP PUSH1 0x20 DUP3 ADD SWAP1 POP SWAP2 SWAP1 POP JUMP JUMPDEST PUSH3 0x1D84 DUP2 PUSH3 0xDDD JUMP JUMPDEST DUP3 MSTORE POP POP JUMP JUMPDEST PUSH1 0x0 PUSH3 0x1D98 DUP4 DUP4 PUSH3 0x1D79 JUMP JUMPDEST PUSH1 0x20 DUP4 ADD SWAP1 POP SWAP3 SWAP2 POP POP JUMP JUMPDEST PUSH1 0x0 PUSH1 0x20 DUP3 ADD SWAP1 POP SWAP2 SWAP1 POP JUMP JUMPDEST PUSH1 0x0 PUSH3 0x1DBE DUP3 PUSH3 0x1D4D JUMP JUMPDEST PUSH3 0x1DCA DUP2 DUP6 PUSH3 0x1D58 JUMP JUMPDEST SWAP4 POP PUSH3 0x1DD7 DUP4 PUSH3 0x1D69 JUMP JUMPDEST DUP1 PUSH1 0x0 JUMPDEST DUP4 DUP2 LT ISZERO PUSH3 0x1E0E JUMPI DUP2 MLOAD PUSH3 0x1DF2 DUP9 DUP3 PUSH3 0x1D8A JUMP JUMPDEST SWAP8 POP PUSH3 0x1DFF DUP4 PUSH3 0x1DA4 JUMP JUMPDEST SWAP3 POP POP PUSH1 0x1 DUP2 ADD SWAP1 POP PUSH3 0x1DDB JUMP JUMPDEST POP DUP6 SWAP4 POP POP POP POP SWAP3 SWAP2 POP POP JUMP JUMPDEST PUSH1 0x0 PUSH1 0xC0 DUP3 ADD SWAP1 POP PUSH3 0x1E32 PUSH1 0x0 DUP4 ADD DUP10 PUSH3 0x19BA JUMP JUMPDEST DUP2 DUP2 SUB PUSH1 0x20 DUP4 ADD MSTORE PUSH3 0x1E46 DUP2 DUP9 PUSH3 0x1D0C JUMP JUMPDEST SWAP1 POP PUSH3 0x1E57 PUSH1 0x40 DUP4 ADD DUP8 PUSH3 0x19CB JUMP JUMPDEST DUP2 DUP2 SUB PUSH1 0x60 DUP4 ADD MSTORE PUSH3 0x1E6B DUP2 DUP7 PUSH3 0x1D0C JUMP JUMPDEST SWAP1 POP DUP2 DUP2 SUB PUSH1 0x80 DUP4 ADD MSTORE PUSH3 0x1E81 DUP2 DUP6 PUSH3 0x1DB1 JUMP JUMPDEST SWAP1 POP PUSH3 0x1E92 PUSH1 0xA0 DUP4 ADD DUP5 PUSH3 0x1A66 JUMP JUMPDEST SWAP8 SWAP7 POP POP POP POP POP POP POP JUMP JUMPDEST PUSH1 0x0 PUSH1 0x20 DUP3 ADD SWAP1 POP DUP2 DUP2 SUB PUSH1 0x0 DUP4 ADD MSTORE PUSH3 0x1EB9 DUP2 DUP5 PUSH3 0x1D0C JUMP JUMPDEST SWAP1 POP SWAP3 SWAP2 POP POP JUMP JUMPDEST PUSH1 0x0 DUP2 MLOAD SWAP1 POP PUSH3 0x1ED2 DUP2 PUSH3 0xC9A JUMP JUMPDEST SWAP3 SWAP2 POP POP JUMP JUMPDEST PUSH1 0x0 PUSH1 0x20 DUP3 DUP5 SUB SLT ISZERO PUSH3 0x1EF1 JUMPI PUSH3 0x1EF0 PUSH3 0xC5C JUMP JUMPDEST JUMPDEST PUSH1 0x0 PUSH3 0x1F01 DUP5 DUP3 DUP6 ADD PUSH3 0x1EC1 JUMP JUMPDEST SWAP2 POP POP SWAP3 SWAP2 POP POP JUMP JUMPDEST PUSH3 0x1F15 DUP2 PUSH3 0x174B JUMP JUMPDEST DUP3 MSTORE POP POP JUMP JUMPDEST PUSH1 0x0 PUSH1 0x80 DUP3 ADD SWAP1 POP PUSH3 0x1F32 PUSH1 0x0 DUP4 ADD DUP8 PUSH3 0x1A66 JUMP JUMPDEST PUSH3 0x1F41 PUSH1 0x20 DUP4 ADD DUP7 PUSH3 0x1A66 JUMP JUMPDEST PUSH3 0x1F50 PUSH1 0x40 DUP4 ADD DUP6 PUSH3 0x1A66 JUMP JUMPDEST PUSH3 0x1F5F PUSH1 0x60 DUP4 ADD DUP5 PUSH3 0x1F0A JUMP JUMPDEST SWAP6 SWAP5 POP POP POP POP POP JUMP INVALID PUSH1 0x80 PUSH1 0x40 MSTORE CALLVALUE DUP1 ISZERO PUSH2 0x10 JUMPI PUSH1 0x0 DUP1 REVERT JUMPDEST POP PUSH1 0x40 MLOAD PUSH2 0x8A2 CODESIZE SUB DUP1 PUSH2 0x8A2 DUP4 CODECOPY DUP2 DUP2 ADD PUSH1 0x40 MSTORE DUP2 ADD SWAP1 PUSH2 0x32 SWAP2 SWAP1 PUSH2 0x15B JUMP JUMPDEST DUP3 PUSH1 0x0 DUP1 PUSH2 0x100 EXP DUP2 SLOAD DUP2 PUSH20 0xFFFFFFFFFFFFFFFFFFFFFFFFFFFFFFFFFFFFFFFF MUL NOT AND SWAP1 DUP4 PUSH20 0xFFFFFFFFFFFFFFFFFFFFFFFFFFFFFFFFFFFFFFFF AND MUL OR SWAP1 SSTORE POP DUP2 PUSH1 0x1 PUSH1 0x0 PUSH2 0x100 EXP DUP2 SLOAD DUP2 PUSH20 0xFFFFFFFFFFFFFFFFFFFFFFFFFFFFFFFFFFFFFFFF MUL NOT AND SWAP1 DUP4 PUSH20 0xFFFFFFFFFFFFFFFFFFFFFFFFFFFFFFFFFFFFFFFF AND MUL OR SWAP1 SSTORE POP DUP1 PUSH1 0x2 DUP2 SWAP1 SSTORE POP POP POP POP PUSH2 0x1AE JUMP JUMPDEST PUSH1 0x0 DUP1 REVERT JUMPDEST PUSH1 0x0 PUSH20 0xFFFFFFFFFFFFFFFFFFFFFFFFFFFFFFFFFFFFFFFF DUP3 AND SWAP1 POP SWAP2 SWAP1 POP JUMP JUMPDEST PUSH1 0x0 PUSH2 0xF2 DUP3 PUSH2 0xC7 JUMP JUMPDEST SWAP1 POP SWAP2 SWAP1 POP JUMP JUMPDEST PUSH2 0x102 DUP2 PUSH2 0xE7 JUMP JUMPDEST DUP2 EQ PUSH2 0x10D JUMPI PUSH1 0x0 DUP1 REVERT JUMPDEST POP JUMP JUMPDEST PUSH1 0x0 DUP2 MLOAD SWAP1 POP PUSH2 0x11F DUP2 PUSH2 0xF9 JUMP JUMPDEST SWAP3 SWAP2 POP POP JUMP JUMPDEST PUSH1 0x0 DUP2 SWAP1 POP SWAP2 SWAP1 POP JUMP JUMPDEST PUSH2 0x138 DUP2 PUSH2 0x125 JUMP JUMPDEST DUP2 EQ PUSH2 0x143 JUMPI PUSH1 0x0 DUP1 REVERT JUMPDEST POP JUMP JUMPDEST PUSH1 0x0 DUP2 MLOAD SWAP1 POP PUSH2 0x155 DUP2 PUSH2 0x12F JUMP JUMPDEST SWAP3 SWAP2 POP POP JUMP JUMPDEST PUSH1 0x0 DUP1 PUSH1 0x0 PUSH1 0x60 DUP5 DUP7 SUB SLT ISZERO PUSH2 0x174 JUMPI PUSH2 0x173 PUSH2 0xC2 JUMP JUMPDEST JUMPDEST PUSH1 0x0 PUSH2 0x182 DUP7 DUP3 DUP8 ADD PUSH2 0x110 JUMP JUMPDEST SWAP4 POP POP PUSH1 0x20 PUSH2 0x193 DUP7 DUP3 DUP8 ADD PUSH2 0x110 JUMP JUMPDEST SWAP3 POP POP PUSH1 0x40 PUSH2 0x1A4 DUP7 DUP3 DUP8 ADD PUSH2 0x146 JUMP JUMPDEST SWAP2 POP POP SWAP3 POP SWAP3 POP SWAP3 JUMP JUMPDEST PUSH2 0x6E5 DUP1 PUSH2 0x1BD PUSH1 0x0 CODECOPY PUSH1 0x0 RETURN INVALID PUSH1 0x80 PUSH1 0x40 MSTORE CALLVALUE DUP1 ISZERO PUSH2 0x10 JUMPI PUSH1 0x0 DUP1 REVERT JUMPDEST POP PUSH1 0x4 CALLDATASIZE LT PUSH2 0x7D JUMPI PUSH1 0x0 CALLDATALOAD PUSH1 0xE0 SHR DUP1 PUSH4 0x4F15FC06 GT PUSH2 0x5B JUMPI DUP1 PUSH4 0x4F15FC06 EQ PUSH2 0xDC JUMPI DUP1 PUSH4 0x60A56B3A EQ PUSH2 0xFA JUMPI DUP1 PUSH4 0x6CCCBE5E EQ PUSH2 0x116 JUMPI DUP1 PUSH4 0x8F94B8C2 EQ PUSH2 0x134 JUMPI PUSH2 0x7D JUMP JUMPDEST DUP1 PUSH4 0x186BC549 EQ PUSH2 0x82 JUMPI DUP1 PUSH4 0x4575D5C5 EQ PUSH2 0xA0 JUMPI DUP1 PUSH4 0x4B1D123B EQ PUSH2 0xBE JUMPI JUMPDEST PUSH1 0x0 DUP1 REVERT JUMPDEST PUSH2 0x8A PUSH2 0x150 JUMP JUMPDEST PUSH1 0x40 MLOAD PUSH2 0x97 SWAP2 SWAP1 PUSH2 0x2F4 JUMP JUMPDEST PUSH1 0x40 MLOAD DUP1 SWAP2 SUB SWAP1 RETURN JUMPDEST PUSH2 0xA8 PUSH2 0x15A JUMP JUMPDEST PUSH1 0x40 MLOAD PUSH2 0xB5 SWAP2 SWAP1 PUSH2 0x328 JUMP JUMPDEST PUSH1 0x40 MLOAD DUP1 SWAP2 SUB SWAP1 RETURN JUMPDEST PUSH2 0xC6 PUSH2 0x164 JUMP JUMPDEST PUSH1 0x40 MLOAD PUSH2 0xD3 SWAP2 SWAP1 PUSH2 0x2F4 JUMP JUMPDEST PUSH1 0x40 MLOAD DUP1 SWAP2 SUB SWAP1 RETURN JUMPDEST PUSH2 0xE4 PUSH2 0x180 JUMP JUMPDEST PUSH1 0x40 MLOAD PUSH2 0xF1 SWAP2 SWAP1 PUSH2 0x2F4 JUMP JUMPDEST PUSH1 0x40 MLOAD DUP1 SWAP2 SUB SWAP1 RETURN JUMPDEST PUSH2 0x114 PUSH1 0x4 DUP1 CALLDATASIZE SUB DUP2 ADD SWAP1 PUSH2 0x10F SWAP2 SWAP1 PUSH2 0x3D2 JUMP JUMPDEST PUSH2 0x18A JUMP JUMPDEST STOP JUMPDEST PUSH2 0x11E PUSH2 0x2AD JUMP JUMPDEST PUSH1 0x40 MLOAD PUSH2 0x12B SWAP2 SWAP1 PUSH2 0x2F4 JUMP JUMPDEST PUSH1 0x40 MLOAD DUP1 SWAP2 SUB SWAP1 RETURN JUMPDEST PUSH2 0x14E PUSH1 0x4 DUP1 CALLDATASIZE SUB DUP2 ADD SWAP1 PUSH2 0x149 SWAP2 SWAP1 PUSH2 0x425 JUMP JUMPDEST PUSH2 0x2D1 JUMP JUMPDEST STOP JUMPDEST PUSH1 0x0 PUSH1 0x3 SLOAD SWAP1 POP SWAP1 JUMP JUMPDEST PUSH1 0x0 PUSH1 0x2 SLOAD SWAP1 POP SWAP1 JUMP JUMPDEST PUSH1 0x0 PUSH2 0x16E PUSH2 0x2AD JUMP JUMPDEST PUSH1 0x3 SLOAD PUSH2 0x17B SWAP2 SWAP1 PUSH2 0x481 JUMP JUMPDEST SWAP1 POP SWAP1 JUMP JUMPDEST PUSH1 0x0 PUSH1 0x4 SLOAD SWAP1 POP SWAP1 JUMP JUMPDEST PUSH1 0x1 PUSH1 0x0 SWAP1 SLOAD SWAP1 PUSH2 0x100 EXP SWAP1 DIV PUSH20 0xFFFFFFFFFFFFFFFFFFFFFFFFFFFFFFFFFFFFFFFF AND PUSH20 0xFFFFFFFFFFFFFFFFFFFFFFFFFFFFFFFFFFFFFFFF AND CALLER PUSH20 0xFFFFFFFFFFFFFFFFFFFFFFFFFFFFFFFFFFFFFFFF AND EQ PUSH2 0x21A JUMPI PUSH1 0x40 MLOAD PUSH32 0x8C379A000000000000000000000000000000000000000000000000000000000 DUP2 MSTORE PUSH1 0x4 ADD PUSH2 0x211 SWAP1 PUSH2 0x538 JUMP JUMPDEST PUSH1 0x40 MLOAD DUP1 SWAP2 SUB SWAP1 REVERT JUMPDEST DUP2 PUSH20 0xFFFFFFFFFFFFFFFFFFFFFFFFFFFFFFFFFFFFFFFF AND PUSH4 0xA9059CBB DUP5 DUP4 PUSH1 0x40 MLOAD DUP4 PUSH4 0xFFFFFFFF AND PUSH1 0xE0 SHL DUP2 MSTORE PUSH1 0x4 ADD PUSH2 0x255 SWAP3 SWAP2 SWAP1 PUSH2 0x567 JUMP JUMPDEST PUSH1 0x20 PUSH1 0x40 MLOAD DUP1 DUP4 SUB DUP2 PUSH1 0x0 DUP8 DUP1 EXTCODESIZE ISZERO DUP1 ISZERO PUSH2 0x26F JUMPI PUSH1 0x0 DUP1 REVERT JUMPDEST POP GAS CALL ISZERO DUP1 ISZERO PUSH2 0x283 JUMPI RETURNDATASIZE PUSH1 0x0 DUP1 RETURNDATACOPY RETURNDATASIZE PUSH1 0x0 REVERT JUMPDEST POP POP POP POP PUSH1 0x40 MLOAD RETURNDATASIZE PUSH1 0x1F NOT PUSH1 0x1F DUP3 ADD AND DUP3 ADD DUP1 PUSH1 0x40 MSTORE POP DUP2 ADD SWAP1 PUSH2 0x2A7 SWAP2 SWAP1 PUSH2 0x5C8 JUMP JUMPDEST POP POP POP POP JUMP JUMPDEST PUSH1 0x0 PUSH2 0x2710 PUSH1 0x4 SLOAD PUSH1 0x3 SLOAD PUSH2 0x2C2 SWAP2 SWAP1 PUSH2 0x5F5 JUMP JUMPDEST PUSH2 0x2CC SWAP2 SWAP1 PUSH2 0x67E JUMP JUMPDEST SWAP1 POP SWAP1 JUMP JUMPDEST DUP1 PUSH1 0x4 DUP2 SWAP1 SSTORE POP POP JUMP JUMPDEST PUSH1 0x0 DUP2 SWAP1 POP SWAP2 SWAP1 POP JUMP JUMPDEST PUSH2 0x2EE DUP2 PUSH2 0x2DB JUMP JUMPDEST DUP3 MSTORE POP POP JUMP JUMPDEST PUSH1 0x0 PUSH1 0x20 DUP3 ADD SWAP1 POP PUSH2 0x309 PUSH1 0x0 DUP4 ADD DUP5 PUSH2 0x2E5 JUMP JUMPDEST SWAP3 SWAP2 POP POP JUMP JUMPDEST PUSH1 0x0 DUP2 SWAP1 POP SWAP2 SWAP1 POP JUMP JUMPDEST PUSH2 0x322 DUP2 PUSH2 0x30F JUMP JUMPDEST DUP3 MSTORE POP POP JUMP JUMPDEST PUSH1 0x0 PUSH1 0x20 DUP3 ADD SWAP1 POP PUSH2 0x33D PUSH1 0x0 DUP4 ADD DUP5 PUSH2 0x319 JUMP JUMPDEST SWAP3 SWAP2 POP POP JUMP JUMPDEST PUSH1 0x0 DUP1 REVERT JUMPDEST PUSH1 0x0 PUSH20 0xFFFFFFFFFFFFFFFFFFFFFFFFFFFFFFFFFFFFFFFF DUP3 AND SWAP1 POP SWAP2 SWAP1 POP JUMP JUMPDEST PUSH1 0x0 PUSH2 0x373 DUP3 PUSH2 0x348 JUMP JUMPDEST SWAP1 POP SWAP2 SWAP1 POP JUMP JUMPDEST PUSH2 0x383 DUP2 PUSH2 0x368 JUMP JUMPDEST DUP2 EQ PUSH2 0x38E JUMPI PUSH1 0x0 DUP1 REVERT JUMPDEST POP JUMP JUMPDEST PUSH1 0x0 DUP2 CALLDATALOAD SWAP1 POP PUSH2 0x3A0 DUP2 PUSH2 0x37A JUMP JUMPDEST SWAP3 SWAP2 POP POP JUMP JUMPDEST PUSH2 0x3AF DUP2 PUSH2 0x2DB JUMP JUMPDEST DUP2 EQ PUSH2 0x3BA JUMPI PUSH1 0x0 DUP1 REVERT JUMPDEST POP JUMP JUMPDEST PUSH1 0x0 DUP2 CALLDATALOAD SWAP1 POP PUSH2 0x3CC DUP2 PUSH2 0x3A6 JUMP JUMPDEST SWAP3 SWAP2 POP POP JUMP JUMPDEST PUSH1 0x0 DUP1 PUSH1 0x0 PUSH1 0x60 DUP5 DUP7 SUB SLT ISZERO PUSH2 0x3EB JUMPI PUSH2 0x3EA PUSH2 0x343 JUMP JUMPDEST JUMPDEST PUSH1 0x0 PUSH2 0x3F9 DUP7 DUP3 DUP8 ADD PUSH2 0x391 JUMP JUMPDEST SWAP4 POP POP PUSH1 0x20 PUSH2 0x40A DUP7 DUP3 DUP8 ADD PUSH2 0x391 JUMP JUMPDEST SWAP3 POP POP PUSH1 0x40 PUSH2 0x41B DUP7 DUP3 DUP8 ADD PUSH2 0x3BD JUMP JUMPDEST SWAP2 POP POP SWAP3 POP SWAP3 POP SWAP3 JUMP JUMPDEST PUSH1 0x0 PUSH1 0x20 DUP3 DUP5 SUB SLT ISZERO PUSH2 0x43B JUMPI PUSH2 0x43A PUSH2 0x343 JUMP JUMPDEST JUMPDEST PUSH1 0x0 PUSH2 0x449 DUP5 DUP3 DUP6 ADD PUSH2 0x3BD JUMP JUMPDEST SWAP2 POP POP SWAP3 SWAP2 POP POP JUMP JUMPDEST PUSH32 0x4E487B7100000000000000000000000000000000000000000000000000000000 PUSH1 0x0 MSTORE PUSH1 0x11 PUSH1 0x4 MSTORE PUSH1 0x24 PUSH1 0x0 REVERT JUMPDEST PUSH1 0x0 PUSH2 0x48C DUP3 PUSH2 0x2DB JUMP JUMPDEST SWAP2 POP PUSH2 0x497 DUP4 PUSH2 0x2DB JUMP JUMPDEST SWAP3 POP DUP3 DUP3 LT ISZERO PUSH2 0x4AA JUMPI PUSH2 0x4A9 PUSH2 0x452 JUMP JUMPDEST JUMPDEST DUP3 DUP3 SUB SWAP1 POP SWAP3 SWAP2 POP POP JUMP JUMPDEST PUSH1 0x0 DUP3 DUP3 MSTORE PUSH1 0x20 DUP3 ADD SWAP1 POP SWAP3 SWAP2 POP POP JUMP JUMPDEST PUSH32 0x43616D706169676E54726561737572793A2043616C6C6572206973206E6F7420 PUSH1 0x0 DUP3 ADD MSTORE PUSH32 0x43616D706169676E496E666F20636F6E74726163740000000000000000000000 PUSH1 0x20 DUP3 ADD MSTORE POP JUMP JUMPDEST PUSH1 0x0 PUSH2 0x522 PUSH1 0x35 DUP4 PUSH2 0x4B5 JUMP JUMPDEST SWAP2 POP PUSH2 0x52D DUP3 PUSH2 0x4C6 JUMP JUMPDEST PUSH1 0x40 DUP3 ADD SWAP1 POP SWAP2 SWAP1 POP JUMP JUMPDEST PUSH1 0x0 PUSH1 0x20 DUP3 ADD SWAP1 POP DUP2 DUP2 SUB PUSH1 0x0 DUP4 ADD MSTORE PUSH2 0x551 DUP2 PUSH2 0x515 JUMP JUMPDEST SWAP1 POP SWAP2 SWAP1 POP JUMP JUMPDEST PUSH2 0x561 DUP2 PUSH2 0x368 JUMP JUMPDEST DUP3 MSTORE POP POP JUMP JUMPDEST PUSH1 0x0 PUSH1 0x40 DUP3 ADD SWAP1 POP PUSH2 0x57C PUSH1 0x0 DUP4 ADD DUP6 PUSH2 0x558 JUMP JUMPDEST PUSH2 0x589 PUSH1 0x20 DUP4 ADD DUP5 PUSH2 0x2E5 JUMP JUMPDEST SWAP4 SWAP3 POP POP POP JUMP JUMPDEST PUSH1 0x0 DUP2 ISZERO ISZERO SWAP1 POP SWAP2 SWAP1 POP JUMP JUMPDEST PUSH2 0x5A5 DUP2 PUSH2 0x590 JUMP JUMPDEST DUP2 EQ PUSH2 0x5B0 JUMPI PUSH1 0x0 DUP1 REVERT JUMPDEST POP JUMP JUMPDEST PUSH1 0x0 DUP2 MLOAD SWAP1 POP PUSH2 0x5C2 DUP2 PUSH2 0x59C JUMP JUMPDEST SWAP3 SWAP2 POP POP JUMP JUMPDEST PUSH1 0x0 PUSH1 0x20 DUP3 DUP5 SUB SLT ISZERO PUSH2 0x5DE JUMPI PUSH2 0x5DD PUSH2 0x343 JUMP JUMPDEST JUMPDEST PUSH1 0x0 PUSH2 0x5EC DUP5 DUP3 DUP6 ADD PUSH2 0x5B3 JUMP JUMPDEST SWAP2 POP POP SWAP3 SWAP2 POP POP JUMP JUMPDEST PUSH1 0x0 PUSH2 0x600 DUP3 PUSH2 0x2DB JUMP JUMPDEST SWAP2 POP PUSH2 0x60B DUP4 PUSH2 0x2DB JUMP JUMPDEST SWAP3 POP DUP2 PUSH32 0xFFFFFFFFFFFFFFFFFFFFFFFFFFFFFFFFFFFFFFFFFFFFFFFFFFFFFFFFFFFFFFFF DIV DUP4 GT DUP3 ISZERO ISZERO AND ISZERO PUSH2 0x644 JUMPI PUSH2 0x643 PUSH2 0x452 JUMP JUMPDEST JUMPDEST DUP3 DUP3 MUL SWAP1 POP SWAP3 SWAP2 POP POP JUMP JUMPDEST PUSH32 0x4E487B7100000000000000000000000000000000000000000000000000000000 PUSH1 0x0 MSTORE PUSH1 0x12 PUSH1 0x4 MSTORE PUSH1 0x24 PUSH1 0x0 REVERT JUMPDEST PUSH1 0x0 PUSH2 0x689 DUP3 PUSH2 0x2DB JUMP JUMPDEST SWAP2 POP PUSH2 0x694 DUP4 PUSH2 0x2DB JUMP JUMPDEST SWAP3 POP DUP3 PUSH2 0x6A4 JUMPI PUSH2 0x6A3 PUSH2 0x64F JUMP JUMPDEST JUMPDEST DUP3 DUP3 DIV SWAP1 POP SWAP3 SWAP2 POP POP JUMP INVALID LOG2 PUSH5 0x6970667358 0x22 SLT KECCAK256 0xD9 0xAC SWAP15 NUMBER SWAP3 PUSH28 0xAE7CC90A0FBDDEEBE859351F54203E5F4F5BCBEB43A454538C816473 PUSH16 0x6C63430008090033A264697066735822 SLT KECCAK256 0x2C PUSH5 0x7A71A58E3C 0xE0 BASEFEE 0x2A 0xD8 0xB3 SWAP4 MSTORE8 0xB8 NOT 0xBE PUSH7 0xAF7D3007429CC2 0xC9 0xAF DUP5 0xE1 PUSH14 0xF8FB64736F6C6343000809003300 "},"methodIdentifiers":{"addItem(address,string,string)":"d3caea4f","addItemAndReward(address,string,string,string,uint256,string[],uint256[])":"a909bb33","addItems(address,string[],string[])":"2c6ba152","addReward(address,string,uint256,string[],uint256[])":"ab4d9b5f","createCampaign(address,string,bytes32,string,bytes32[],uint256)":"c77e6f65","initialize(address,address)":"485cc955","setLaunch(address,uint256,uint256,uint256,bool)":"fbe121fa","setTreasury(address,bytes32,address,address)":"33d556d7"}}}}}