{"contracts/CampaignContainers.sol":{"CampaignContainers":{"abi":[{"inputs":[{"internalType":"address","name":"creator","type":"address"},{"internalType":"bytes32","name":"id","type":"bytes32"},{"components":[{"internalType":"uint256[]","name":"items","type":"uint256[]"},{"internalType":"uint256[]","name":"itemQuantity","type":"uint256[]"},{"internalType":"uint256","name":"value","type":"uint256"},{"internalType":"bool","name":"isRewardTier","type":"bool"}],"internalType":"struct CampaignContainers.Container","name":"container","type":"tuple"}],"name":"addContainer","outputs":[],"stateMutability":"nonpayable","type":"function"},{"inputs":[{"internalType":"address","name":"","type":"address"},{"internalType":"bytes32","name":"","type":"bytes32"}],"name":"containers","outputs":[{"internalType":"uint256","name":"value","type":"uint256"},{"internalType":"bool","name":"isRewardTier","type":"bool"}],"stateMutability":"view","type":"function"}],"evm":{"bytecode":{"linkReferences":{},"object":"608060405234801561001057600080fd5b50610641806100206000396000f3fe608060405234801561001057600080fd5b50600436106100365760003560e01c8063259bd58a1461003b5780636e014fc014610057575b600080fd5b61005560048036038101906100509190610515565b610088565b005b610071600480360381019061006c9190610584565b610144565b60405161007f9291906105e2565b60405180910390f35b806000808573ffffffffffffffffffffffffffffffffffffffff1673ffffffffffffffffffffffffffffffffffffffff168152602001908152602001600020600084815260200190815260200160002060008201518160000190805190602001906100f4929190610182565b506020820151816001019080519060200190610111929190610182565b506040820151816002015560608201518160030160006101000a81548160ff021916908315150217905550905050505050565b6000602052816000526040600020602052806000526040600020600091509150508060020154908060030160009054906101000a900460ff16905082565b8280548282559060005260206000209081019282156101be579160200282015b828111156101bd5782518255916020019190600101906101a2565b5b5090506101cb91906101cf565b5090565b5b808211156101e85760008160009055506001016101d0565b5090565b6000604051905090565b600080fd5b600080fd5b600073ffffffffffffffffffffffffffffffffffffffff82169050919050565b600061022b82610200565b9050919050565b61023b81610220565b811461024657600080fd5b50565b60008135905061025881610232565b92915050565b6000819050919050565b6102718161025e565b811461027c57600080fd5b50565b60008135905061028e81610268565b92915050565b600080fd5b6000601f19601f8301169050919050565b7f4e487b7100000000000000000000000000000000000000000000000000000000600052604160045260246000fd5b6102e282610299565b810181811067ffffffffffffffff82111715610301576103006102aa565b5b80604052505050565b60006103146101ec565b905061032082826102d9565b919050565b600080fd5b600080fd5b600067ffffffffffffffff82111561034a576103496102aa565b5b602082029050602081019050919050565b600080fd5b6000819050919050565b61037381610360565b811461037e57600080fd5b50565b6000813590506103908161036a565b92915050565b60006103a96103a48461032f565b61030a565b905080838252602082019050602084028301858111156103cc576103cb61035b565b5b835b818110156103f557806103e18882610381565b8452602084019350506020810190506103ce565b5050509392505050565b600082601f8301126104145761041361032a565b5b8135610424848260208601610396565b91505092915050565b60008115159050919050565b6104428161042d565b811461044d57600080fd5b50565b60008135905061045f81610439565b92915050565b60006080828403121561047b5761047a610294565b5b610485608061030a565b9050600082013567ffffffffffffffff8111156104a5576104a4610325565b5b6104b1848285016103ff565b600083015250602082013567ffffffffffffffff8111156104d5576104d4610325565b5b6104e1848285016103ff565b60208301525060406104f584828501610381565b604083015250606061050984828501610450565b60608301525092915050565b60008060006060848603121561052e5761052d6101f6565b5b600061053c86828701610249565b935050602061054d8682870161027f565b925050604084013567ffffffffffffffff81111561056e5761056d6101fb565b5b61057a86828701610465565b9150509250925092565b6000806040838503121561059b5761059a6101f6565b5b60006105a985828601610249565b92505060206105ba8582860161027f565b9150509250929050565b6105cd81610360565b82525050565b6105dc8161042d565b82525050565b60006040820190506105f760008301856105c4565b61060460208301846105d3565b939250505056fea2646970667358221220caabada3f185cb07bb54201bf350903dcc1d78fffa4c5a2b492af04211f9499e64736f6c63430008090033","opcodes":"PUSH1 0x80 PUSH1 0x40 MSTORE CALLVALUE DUP1 ISZERO PUSH2 0x10 JUMPI PUSH1 0x0 DUP1 REVERT JUMPDEST POP PUSH2 0x641 DUP1 PUSH2 0x20 PUSH1 0x0 CODECOPY PUSH1 0x0 RETURN INVALID PUSH1 0x80 PUSH1 0x40 MSTORE CALLVALUE DUP1 ISZERO PUSH2 0x10 JUMPI PUSH1 0x0 DUP1 REVERT JUMPDEST POP PUSH1 0x4 CALLDATASIZE LT PUSH2 0x36 JUMPI PUSH1 0x0 CALLDATALOAD PUSH1 0xE0 SHR DUP1 PUSH4 0x259BD58A EQ PUSH2 0x3B JUMPI DUP1 PUSH4 0x6E014FC0 EQ PUSH2 0x57 JUMPI JUMPDEST PUSH1 0x0 DUP1 REVERT JUMPDEST PUSH2 0x55 PUSH1 0x4 DUP1 CALLDATASIZE SUB DUP2 ADD SWAP1 PUSH2 0x50 SWAP2 SWAP1 PUSH2 0x515 JUMP JUMPDEST PUSH2 0x88 JUMP JUMPDEST STOP JUMPDEST PUSH2 0x71 PUSH1 0x4 DUP1 CALLDATASIZE SUB DUP2 ADD SWAP1 PUSH2 0x6C SWAP2 SWAP1 PUSH2 0x584 JUMP JUMPDEST PUSH2 0x144 JUMP JUMPDEST PUSH1 0x40 MLOAD PUSH2 0x7F SWAP3 SWAP2 SWAP1 PUSH2 0x5E2 JUMP JUMPDEST PUSH1 0x40 MLOAD DUP1 SWAP2 SUB SWAP1 RETURN JUMPDEST DUP1 PUSH1 0x0 DUP1 DUP6 PUSH20 0xFFFFFFFFFFFFFFFFFFFFFFFFFFFFFFFFFFFFFFFF AND PUSH20 0xFFFFFFFFFFFFFFFFFFFFFFFFFFFFFFFFFFFFFFFF AND DUP2 MSTORE PUSH1 0x20 ADD SWAP1 DUP2 MSTORE PUSH1 0x20 ADD PUSH1 0x0 KECCAK256 PUSH1 0x0 DUP5 DUP2 MSTORE PUSH1 0x20 ADD SWAP1 DUP2 MSTORE PUSH1 0x20 ADD PUSH1 0x0 KECCAK256 PUSH1 0x0 DUP3 ADD MLOAD DUP2 PUSH1 0x0 ADD SWAP1 DUP1 MLOAD SWAP1 PUSH1 0x20 ADD SWAP1 PUSH2 0xF4 SWAP3 SWAP2 SWAP1 PUSH2 0x182 JUMP JUMPDEST POP PUSH1 0x20 DUP3 ADD MLOAD DUP2 PUSH1 0x1 ADD SWAP1 DUP1 MLOAD SWAP1 PUSH1 0x20 ADD SWAP1 PUSH2 0x111 SWAP3 SWAP2 SWAP1 PUSH2 0x182 JUMP JUMPDEST POP PUSH1 0x40 DUP3 ADD MLOAD DUP2 PUSH1 0x2 ADD SSTORE PUSH1 0x60 DUP3 ADD MLOAD DUP2 PUSH1 0x3 ADD PUSH1 0x0 PUSH2 0x100 EXP DUP2 SLOAD DUP2 PUSH1 0xFF MUL NOT AND SWAP1 DUP4 ISZERO ISZERO MUL OR SWAP1 SSTORE POP SWAP1 POP POP POP POP POP JUMP JUMPDEST PUSH1 0x0 PUSH1 0x20 MSTORE DUP2 PUSH1 0x0 MSTORE PUSH1 0x40 PUSH1 0x0 KECCAK256 PUSH1 0x20 MSTORE DUP1 PUSH1 0x0 MSTORE PUSH1 0x40 PUSH1 0x0 KECCAK256 PUSH1 0x0 SWAP2 POP SWAP2 POP POP DUP1 PUSH1 0x2 ADD SLOAD SWAP1 DUP1 PUSH1 0x3 ADD PUSH1 0x0 SWAP1 SLOAD SWAP1 PUSH2 0x100 EXP SWAP1 DIV PUSH1 0xFF AND SWAP1 POP DUP3 JUMP JUMPDEST DUP3 DUP1 SLOAD DUP3 DUP3 SSTORE SWAP1 PUSH1 0x0 MSTORE PUSH1 0x20 PUSH1 0x0 KECCAK256 SWAP1 DUP2 ADD SWAP3 DUP3 ISZERO PUSH2 0x1BE JUMPI SWAP2 PUSH1 0x20 MUL DUP3 ADD JUMPDEST DUP3 DUP2 GT ISZERO PUSH2 0x1BD JUMPI DUP3 MLOAD DUP3 SSTORE SWAP2 PUSH1 0x20 ADD SWAP2 SWAP1 PUSH1 0x1 ADD SWAP1 PUSH2 0x1A2 JUMP JUMPDEST JUMPDEST POP SWAP1 POP PUSH2 0x1CB SWAP2 SWAP1 PUSH2 0x1CF JUMP JUMPDEST POP SWAP1 JUMP JUMPDEST JUMPDEST DUP1 DUP3 GT ISZERO PUSH2 0x1E8 JUMPI PUSH1 0x0 DUP2 PUSH1 0x0 SWAP1 SSTORE POP PUSH1 0x1 ADD PUSH2 0x1D0 JUMP JUMPDEST POP SWAP1 JUMP JUMPDEST PUSH1 0x0 PUSH1 0x40 MLOAD SWAP1 POP SWAP1 JUMP JUMPDEST PUSH1 0x0 DUP1 REVERT JUMPDEST PUSH1 0x0 DUP1 REVERT JUMPDEST PUSH1 0x0 PUSH20 0xFFFFFFFFFFFFFFFFFFFFFFFFFFFFFFFFFFFFFFFF DUP3 AND SWAP1 POP SWAP2 SWAP1 POP JUMP JUMPDEST PUSH1 0x0 PUSH2 0x22B DUP3 PUSH2 0x200 JUMP JUMPDEST SWAP1 POP SWAP2 SWAP1 POP JUMP JUMPDEST PUSH2 0x23B DUP2 PUSH2 0x220 JUMP JUMPDEST DUP2 EQ PUSH2 0x246 JUMPI PUSH1 0x0 DUP1 REVERT JUMPDEST POP JUMP JUMPDEST PUSH1 0x0 DUP2 CALLDATALOAD SWAP1 POP PUSH2 0x258 DUP2 PUSH2 0x232 JUMP JUMPDEST SWAP3 SWAP2 POP POP JUMP JUMPDEST PUSH1 0x0 DUP2 SWAP1 POP SWAP2 SWAP1 POP JUMP JUMPDEST PUSH2 0x271 DUP2 PUSH2 0x25E JUMP JUMPDEST DUP2 EQ PUSH2 0x27C JUMPI PUSH1 0x0 DUP1 REVERT JUMPDEST POP JUMP JUMPDEST PUSH1 0x0 DUP2 CALLDATALOAD SWAP1 POP PUSH2 0x28E DUP2 PUSH2 0x268 JUMP JUMPDEST SWAP3 SWAP2 POP POP JUMP JUMPDEST PUSH1 0x0 DUP1 REVERT JUMPDEST PUSH1 0x0 PUSH1 0x1F NOT PUSH1 0x1F DUP4 ADD AND SWAP1 POP SWAP2 SWAP1 POP JUMP JUMPDEST PUSH32 0x4E487B7100000000000000000000000000000000000000000000000000000000 PUSH1 0x0 MSTORE PUSH1 0x41 PUSH1 0x4 MSTORE PUSH1 0x24 PUSH1 0x0 REVERT JUMPDEST PUSH2 0x2E2 DUP3 PUSH2 0x299 JUMP JUMPDEST DUP2 ADD DUP2 DUP2 LT PUSH8 0xFFFFFFFFFFFFFFFF DUP3 GT OR ISZERO PUSH2 0x301 JUMPI PUSH2 0x300 PUSH2 0x2AA JUMP JUMPDEST JUMPDEST DUP1 PUSH1 0x40 MSTORE POP POP POP JUMP JUMPDEST PUSH1 0x0 PUSH2 0x314 PUSH2 0x1EC JUMP JUMPDEST SWAP1 POP PUSH2 0x320 DUP3 DUP3 PUSH2 0x2D9 JUMP JUMPDEST SWAP2 SWAP1 POP JUMP JUMPDEST PUSH1 0x0 DUP1 REVERT JUMPDEST PUSH1 0x0 DUP1 REVERT JUMPDEST PUSH1 0x0 PUSH8 0xFFFFFFFFFFFFFFFF DUP3 GT ISZERO PUSH2 0x34A JUMPI PUSH2 0x349 PUSH2 0x2AA JUMP JUMPDEST JUMPDEST PUSH1 0x20 DUP3 MUL SWAP1 POP PUSH1 0x20 DUP2 ADD SWAP1 POP SWAP2 SWAP1 POP JUMP JUMPDEST PUSH1 0x0 DUP1 REVERT JUMPDEST PUSH1 0x0 DUP2 SWAP1 POP SWAP2 SWAP1 POP JUMP JUMPDEST PUSH2 0x373 DUP2 PUSH2 0x360 JUMP JUMPDEST DUP2 EQ PUSH2 0x37E JUMPI PUSH1 0x0 DUP1 REVERT JUMPDEST POP JUMP JUMPDEST PUSH1 0x0 DUP2 CALLDATALOAD SWAP1 POP PUSH2 0x390 DUP2 PUSH2 0x36A JUMP JUMPDEST SWAP3 SWAP2 POP POP JUMP JUMPDEST PUSH1 0x0 PUSH2 0x3A9 PUSH2 0x3A4 DUP5 PUSH2 0x32F JUMP JUMPDEST PUSH2 0x30A JUMP JUMPDEST SWAP1 POP DUP1 DUP4 DUP3 MSTORE PUSH1 0x20 DUP3 ADD SWAP1 POP PUSH1 0x20 DUP5 MUL DUP4 ADD DUP6 DUP2 GT ISZERO PUSH2 0x3CC JUMPI PUSH2 0x3CB PUSH2 0x35B JUMP JUMPDEST JUMPDEST DUP4 JUMPDEST DUP2 DUP2 LT ISZERO PUSH2 0x3F5 JUMPI DUP1 PUSH2 0x3E1 DUP9 DUP3 PUSH2 0x381 JUMP JUMPDEST DUP5 MSTORE PUSH1 0x20 DUP5 ADD SWAP4 POP POP PUSH1 0x20 DUP2 ADD SWAP1 POP PUSH2 0x3CE JUMP JUMPDEST POP POP POP SWAP4 SWAP3 POP POP POP JUMP JUMPDEST PUSH1 0x0 DUP3 PUSH1 0x1F DUP4 ADD SLT PUSH2 0x414 JUMPI PUSH2 0x413 PUSH2 0x32A JUMP JUMPDEST JUMPDEST DUP2 CALLDATALOAD PUSH2 0x424 DUP5 DUP3 PUSH1 0x20 DUP7 ADD PUSH2 0x396 JUMP JUMPDEST SWAP2 POP POP SWAP3 SWAP2 POP POP JUMP JUMPDEST PUSH1 0x0 DUP2 ISZERO ISZERO SWAP1 POP SWAP2 SWAP1 POP JUMP JUMPDEST PUSH2 0x442 DUP2 PUSH2 0x42D JUMP JUMPDEST DUP2 EQ PUSH2 0x44D JUMPI PUSH1 0x0 DUP1 REVERT JUMPDEST POP JUMP JUMPDEST PUSH1 0x0 DUP2 CALLDATALOAD SWAP1 POP PUSH2 0x45F DUP2 PUSH2 0x439 JUMP JUMPDEST SWAP3 SWAP2 POP POP JUMP JUMPDEST PUSH1 0x0 PUSH1 0x80 DUP3 DUP5 SUB SLT ISZERO PUSH2 0x47B JUMPI PUSH2 0x47A PUSH2 0x294 JUMP JUMPDEST JUMPDEST PUSH2 0x485 PUSH1 0x80 PUSH2 0x30A JUMP JUMPDEST SWAP1 POP PUSH1 0x0 DUP3 ADD CALLDATALOAD PUSH8 0xFFFFFFFFFFFFFFFF DUP2 GT ISZERO PUSH2 0x4A5 JUMPI PUSH2 0x4A4 PUSH2 0x325 JUMP JUMPDEST JUMPDEST PUSH2 0x4B1 DUP5 DUP3 DUP6 ADD PUSH2 0x3FF JUMP JUMPDEST PUSH1 0x0 DUP4 ADD MSTORE POP PUSH1 0x20 DUP3 ADD CALLDATALOAD PUSH8 0xFFFFFFFFFFFFFFFF DUP2 GT ISZERO PUSH2 0x4D5 JUMPI PUSH2 0x4D4 PUSH2 0x325 JUMP JUMPDEST JUMPDEST PUSH2 0x4E1 DUP5 DUP3 DUP6 ADD PUSH2 0x3FF JUMP JUMPDEST PUSH1 0x20 DUP4 ADD MSTORE POP PUSH1 0x40 PUSH2 0x4F5 DUP5 DUP3 DUP6 ADD PUSH2 0x381 JUMP JUMPDEST PUSH1 0x40 DUP4 ADD MSTORE POP PUSH1 0x60 PUSH2 0x509 DUP5 DUP3 DUP6 ADD PUSH2 0x450 JUMP JUMPDEST PUSH1 0x60 DUP4 ADD MSTORE POP SWAP3 SWAP2 POP POP JUMP JUMPDEST PUSH1 0x0 DUP1 PUSH1 0x0 PUSH1 0x60 DUP5 DUP7 SUB SLT ISZERO PUSH2 0x52E JUMPI PUSH2 0x52D PUSH2 0x1F6 JUMP JUMPDEST JUMPDEST PUSH1 0x0 PUSH2 0x53C DUP7 DUP3 DUP8 ADD PUSH2 0x249 JUMP JUMPDEST SWAP4 POP POP PUSH1 0x20 PUSH2 0x54D DUP7 DUP3 DUP8 ADD PUSH2 0x27F JUMP JUMPDEST SWAP3 POP POP PUSH1 0x40 DUP5 ADD CALLDATALOAD PUSH8 0xFFFFFFFFFFFFFFFF DUP2 GT ISZERO PUSH2 0x56E JUMPI PUSH2 0x56D PUSH2 0x1FB JUMP JUMPDEST JUMPDEST PUSH2 0x57A DUP7 DUP3 DUP8 ADD PUSH2 0x465 JUMP JUMPDEST SWAP2 POP POP SWAP3 POP SWAP3 POP SWAP3 JUMP JUMPDEST PUSH1 0x0 DUP1 PUSH1 0x40 DUP4 DUP6 SUB SLT ISZERO PUSH2 0x59B JUMPI PUSH2 0x59A PUSH2 0x1F6 JUMP JUMPDEST JUMPDEST PUSH1 0x0 PUSH2 0x5A9 DUP6 DUP3 DUP7 ADD PUSH2 0x249 JUMP JUMPDEST SWAP3 POP POP PUSH1 0x20 PUSH2 0x5BA DUP6 DUP3 DUP7 ADD PUSH2 0x27F JUMP JUMPDEST SWAP2 POP POP SWAP3 POP SWAP3 SWAP1 POP JUMP JUMPDEST PUSH2 0x5CD DUP2 PUSH2 0x360 JUMP JUMPDEST DUP3 MSTORE POP POP JUMP JUMPDEST PUSH2 0x5DC DUP2 PUSH2 0x42D JUMP JUMPDEST DUP3 MSTORE POP POP JUMP JUMPDEST PUSH1 0x0 PUSH1 0x40 DUP3 ADD SWAP1 POP PUSH2 0x5F7 PUSH1 0x0 DUP4 ADD DUP6 PUSH2 0x5C4 JUMP JUMPDEST PUSH2 0x604 PUSH1 0x20 DUP4 ADD DUP5 PUSH2 0x5D3 JUMP JUMPDEST SWAP4 SWAP3 POP POP POP JUMP INVALID LOG2 PUSH5 0x6970667358 0x22 SLT KECCAK256 0xCA 0xAB 0xAD LOG3 CALL DUP6 0xCB SMOD 0xBB SLOAD KECCAK256 SHL RETURN POP SWAP1 RETURNDATASIZE 0xCC SAR PUSH25 0xFFFA4C5A2B492AF04211F9499E64736F6C6343000809003300 "},"methodIdentifiers":{"addContainer(address,bytes32,(uint256[],uint256[],uint256,bool))":"259bd58a","containers(address,bytes32)":"6e014fc0"}}}}}