{"contracts/CampaignTreasury.sol":{"CampaignTreasury":{"abi":[{"inputs":[{"internalType":"address","name":"_registryAddress","type":"address"},{"internalType":"address","name":"_infoAddress","type":"address"},{"internalType":"bytes32","name":"_platformId","type":"bytes32"}],"stateMutability":"nonpayable","type":"constructor"},{"inputs":[{"internalType":"address","name":"_platform","type":"address"},{"internalType":"address","name":"_token","type":"address"},{"internalType":"uint256","name":"_amount","type":"uint256"}],"name":"disburseFeeToPlatform","outputs":[],"stateMutability":"nonpayable","type":"function"},{"inputs":[],"name":"getPledgedAmount","outputs":[{"internalType":"uint256","name":"","type":"uint256"}],"stateMutability":"view","type":"function"},{"inputs":[],"name":"getTotalCollectableByCreator","outputs":[{"internalType":"uint256","name":"","type":"uint256"}],"stateMutability":"view","type":"function"},{"inputs":[],"name":"getplatformFee","outputs":[{"internalType":"uint256","name":"","type":"uint256"}],"stateMutability":"view","type":"function"},{"inputs":[],"name":"getplatformFeePercent","outputs":[{"internalType":"uint256","name":"","type":"uint256"}],"stateMutability":"view","type":"function"},{"inputs":[],"name":"getplatformId","outputs":[{"internalType":"bytes32","name":"","type":"bytes32"}],"stateMutability":"view","type":"function"},{"inputs":[{"internalType":"uint256","name":"_platformFeePercent","type":"uint256"}],"name":"setplatformFeePercent","outputs":[],"stateMutability":"nonpayable","type":"function"}],"evm":{"bytecode":{"linkReferences":{},"object":"608060405234801561001057600080fd5b506040516108a23803806108a28339818101604052810190610032919061015b565b826000806101000a81548173ffffffffffffffffffffffffffffffffffffffff021916908373ffffffffffffffffffffffffffffffffffffffff16021790555081600160006101000a81548173ffffffffffffffffffffffffffffffffffffffff021916908373ffffffffffffffffffffffffffffffffffffffff160217905550806002819055505050506101ae565b600080fd5b600073ffffffffffffffffffffffffffffffffffffffff82169050919050565b60006100f2826100c7565b9050919050565b610102816100e7565b811461010d57600080fd5b50565b60008151905061011f816100f9565b92915050565b6000819050919050565b61013881610125565b811461014357600080fd5b50565b6000815190506101558161012f565b92915050565b600080600060608486031215610174576101736100c2565b5b600061018286828701610110565b935050602061019386828701610110565b92505060406101a486828701610146565b9150509250925092565b6106e5806101bd6000396000f3fe608060405234801561001057600080fd5b506004361061007d5760003560e01c80634f15fc061161005b5780634f15fc06146100dc57806360a56b3a146100fa5780636cccbe5e146101165780638f94b8c2146101345761007d565b8063186bc549146100825780634575d5c5146100a05780634b1d123b146100be575b600080fd5b61008a610150565b60405161009791906102f4565b60405180910390f35b6100a861015a565b6040516100b59190610328565b60405180910390f35b6100c6610164565b6040516100d391906102f4565b60405180910390f35b6100e4610180565b6040516100f191906102f4565b60405180910390f35b610114600480360381019061010f91906103d2565b61018a565b005b61011e6102ad565b60405161012b91906102f4565b60405180910390f35b61014e60048036038101906101499190610425565b6102d1565b005b6000600354905090565b6000600254905090565b600061016e6102ad565b60035461017b9190610481565b905090565b6000600454905090565b600160009054906101000a900473ffffffffffffffffffffffffffffffffffffffff1673ffffffffffffffffffffffffffffffffffffffff163373ffffffffffffffffffffffffffffffffffffffff161461021a576040517f08c379a000000000000000000000000000000000000000000000000000000000815260040161021190610538565b60405180910390fd5b8173ffffffffffffffffffffffffffffffffffffffff1663a9059cbb84836040518363ffffffff1660e01b8152600401610255929190610567565b602060405180830381600087803b15801561026f57600080fd5b505af1158015610283573d6000803e3d6000fd5b505050506040513d601f19601f820116820180604052508101906102a791906105c8565b50505050565b60006127106004546003546102c291906105f5565b6102cc919061067e565b905090565b8060048190555050565b6000819050919050565b6102ee816102db565b82525050565b600060208201905061030960008301846102e5565b92915050565b6000819050919050565b6103228161030f565b82525050565b600060208201905061033d6000830184610319565b92915050565b600080fd5b600073ffffffffffffffffffffffffffffffffffffffff82169050919050565b600061037382610348565b9050919050565b61038381610368565b811461038e57600080fd5b50565b6000813590506103a08161037a565b92915050565b6103af816102db565b81146103ba57600080fd5b50565b6000813590506103cc816103a6565b92915050565b6000806000606084860312156103eb576103ea610343565b5b60006103f986828701610391565b935050602061040a86828701610391565b925050604061041b868287016103bd565b9150509250925092565b60006020828403121561043b5761043a610343565b5b6000610449848285016103bd565b91505092915050565b7f4e487b7100000000000000000000000000000000000000000000000000000000600052601160045260246000fd5b600061048c826102db565b9150610497836102db565b9250828210156104aa576104a9610452565b5b828203905092915050565b600082825260208201905092915050565b7f43616d706169676e54726561737572793a2043616c6c6572206973206e6f742060008201527f43616d706169676e496e666f20636f6e74726163740000000000000000000000602082015250565b60006105226035836104b5565b915061052d826104c6565b604082019050919050565b6000602082019050818103600083015261055181610515565b9050919050565b61056181610368565b82525050565b600060408201905061057c6000830185610558565b61058960208301846102e5565b9392505050565b60008115159050919050565b6105a581610590565b81146105b057600080fd5b50565b6000815190506105c28161059c565b92915050565b6000602082840312156105de576105dd610343565b5b60006105ec848285016105b3565b91505092915050565b6000610600826102db565b915061060b836102db565b9250817fffffffffffffffffffffffffffffffffffffffffffffffffffffffffffffffff048311821515161561064457610643610452565b5b828202905092915050565b7f4e487b7100000000000000000000000000000000000000000000000000000000600052601260045260246000fd5b6000610689826102db565b9150610694836102db565b9250826106a4576106a361064f565b5b82820490509291505056fea2646970667358221220d9ac9e43927bae7cc90a0fbddeebe859351f54203e5f4f5bcbeb43a454538c8164736f6c63430008090033","opcodes":"PUSH1 0x80 PUSH1 0x40 MSTORE CALLVALUE DUP1 ISZERO PUSH2 0x10 JUMPI PUSH1 0x0 DUP1 REVERT JUMPDEST POP PUSH1 0x40 MLOAD PUSH2 0x8A2 CODESIZE SUB DUP1 PUSH2 0x8A2 DUP4 CODECOPY DUP2 DUP2 ADD PUSH1 0x40 MSTORE DUP2 ADD SWAP1 PUSH2 0x32 SWAP2 SWAP1 PUSH2 0x15B JUMP JUMPDEST DUP3 PUSH1 0x0 DUP1 PUSH2 0x100 EXP DUP2 SLOAD DUP2 PUSH20 0xFFFFFFFFFFFFFFFFFFFFFFFFFFFFFFFFFFFFFFFF MUL NOT AND SWAP1 DUP4 PUSH20 0xFFFFFFFFFFFFFFFFFFFFFFFFFFFFFFFFFFFFFFFF AND MUL OR SWAP1 SSTORE POP DUP2 PUSH1 0x1 PUSH1 0x0 PUSH2 0x100 EXP DUP2 SLOAD DUP2 PUSH20 0xFFFFFFFFFFFFFFFFFFFFFFFFFFFFFFFFFFFFFFFF MUL NOT AND SWAP1 DUP4 PUSH20 0xFFFFFFFFFFFFFFFFFFFFFFFFFFFFFFFFFFFFFFFF AND MUL OR SWAP1 SSTORE POP DUP1 PUSH1 0x2 DUP2 SWAP1 SSTORE POP POP POP POP PUSH2 0x1AE JUMP JUMPDEST PUSH1 0x0 DUP1 REVERT JUMPDEST PUSH1 0x0 PUSH20 0xFFFFFFFFFFFFFFFFFFFFFFFFFFFFFFFFFFFFFFFF DUP3 AND SWAP1 POP SWAP2 SWAP1 POP JUMP JUMPDEST PUSH1 0x0 PUSH2 0xF2 DUP3 PUSH2 0xC7 JUMP JUMPDEST SWAP1 POP SWAP2 SWAP1 POP JUMP JUMPDEST PUSH2 0x102 DUP2 PUSH2 0xE7 JUMP JUMPDEST DUP2 EQ PUSH2 0x10D JUMPI PUSH1 0x0 DUP1 REVERT JUMPDEST POP JUMP JUMPDEST PUSH1 0x0 DUP2 MLOAD SWAP1 POP PUSH2 0x11F DUP2 PUSH2 0xF9 JUMP JUMPDEST SWAP3 SWAP2 POP POP JUMP JUMPDEST PUSH1 0x0 DUP2 SWAP1 POP SWAP2 SWAP1 POP JUMP JUMPDEST PUSH2 0x138 DUP2 PUSH2 0x125 JUMP JUMPDEST DUP2 EQ PUSH2 0x143 JUMPI PUSH1 0x0 DUP1 REVERT JUMPDEST POP JUMP JUMPDEST PUSH1 0x0 DUP2 MLOAD SWAP1 POP PUSH2 0x155 DUP2 PUSH2 0x12F JUMP JUMPDEST SWAP3 SWAP2 POP POP JUMP JUMPDEST PUSH1 0x0 DUP1 PUSH1 0x0 PUSH1 0x60 DUP5 DUP7 SUB SLT ISZERO PUSH2 0x174 JUMPI PUSH2 0x173 PUSH2 0xC2 JUMP JUMPDEST JUMPDEST PUSH1 0x0 PUSH2 0x182 DUP7 DUP3 DUP8 ADD PUSH2 0x110 JUMP JUMPDEST SWAP4 POP POP PUSH1 0x20 PUSH2 0x193 DUP7 DUP3 DUP8 ADD PUSH2 0x110 JUMP JUMPDEST SWAP3 POP POP PUSH1 0x40 PUSH2 0x1A4 DUP7 DUP3 DUP8 ADD PUSH2 0x146 JUMP JUMPDEST SWAP2 POP POP SWAP3 POP SWAP3 POP SWAP3 JUMP JUMPDEST PUSH2 0x6E5 DUP1 PUSH2 0x1BD PUSH1 0x0 CODECOPY PUSH1 0x0 RETURN INVALID PUSH1 0x80 PUSH1 0x40 MSTORE CALLVALUE DUP1 ISZERO PUSH2 0x10 JUMPI PUSH1 0x0 DUP1 REVERT JUMPDEST POP PUSH1 0x4 CALLDATASIZE LT PUSH2 0x7D JUMPI PUSH1 0x0 CALLDATALOAD PUSH1 0xE0 SHR DUP1 PUSH4 0x4F15FC06 GT PUSH2 0x5B JUMPI DUP1 PUSH4 0x4F15FC06 EQ PUSH2 0xDC JUMPI DUP1 PUSH4 0x60A56B3A EQ PUSH2 0xFA JUMPI DUP1 PUSH4 0x6CCCBE5E EQ PUSH2 0x116 JUMPI DUP1 PUSH4 0x8F94B8C2 EQ PUSH2 0x134 JUMPI PUSH2 0x7D JUMP JUMPDEST DUP1 PUSH4 0x186BC549 EQ PUSH2 0x82 JUMPI DUP1 PUSH4 0x4575D5C5 EQ PUSH2 0xA0 JUMPI DUP1 PUSH4 0x4B1D123B EQ PUSH2 0xBE JUMPI JUMPDEST PUSH1 0x0 DUP1 REVERT JUMPDEST PUSH2 0x8A PUSH2 0x150 JUMP JUMPDEST PUSH1 0x40 MLOAD PUSH2 0x97 SWAP2 SWAP1 PUSH2 0x2F4 JUMP JUMPDEST PUSH1 0x40 MLOAD DUP1 SWAP2 SUB SWAP1 RETURN JUMPDEST PUSH2 0xA8 PUSH2 0x15A JUMP JUMPDEST PUSH1 0x40 MLOAD PUSH2 0xB5 SWAP2 SWAP1 PUSH2 0x328 JUMP JUMPDEST PUSH1 0x40 MLOAD DUP1 SWAP2 SUB SWAP1 RETURN JUMPDEST PUSH2 0xC6 PUSH2 0x164 JUMP JUMPDEST PUSH1 0x40 MLOAD PUSH2 0xD3 SWAP2 SWAP1 PUSH2 0x2F4 JUMP JUMPDEST PUSH1 0x40 MLOAD DUP1 SWAP2 SUB SWAP1 RETURN JUMPDEST PUSH2 0xE4 PUSH2 0x180 JUMP JUMPDEST PUSH1 0x40 MLOAD PUSH2 0xF1 SWAP2 SWAP1 PUSH2 0x2F4 JUMP JUMPDEST PUSH1 0x40 MLOAD DUP1 SWAP2 SUB SWAP1 RETURN JUMPDEST PUSH2 0x114 PUSH1 0x4 DUP1 CALLDATASIZE SUB DUP2 ADD SWAP1 PUSH2 0x10F SWAP2 SWAP1 PUSH2 0x3D2 JUMP JUMPDEST PUSH2 0x18A JUMP JUMPDEST STOP JUMPDEST PUSH2 0x11E PUSH2 0x2AD JUMP JUMPDEST PUSH1 0x40 MLOAD PUSH2 0x12B SWAP2 SWAP1 PUSH2 0x2F4 JUMP JUMPDEST PUSH1 0x40 MLOAD DUP1 SWAP2 SUB SWAP1 RETURN JUMPDEST PUSH2 0x14E PUSH1 0x4 DUP1 CALLDATASIZE SUB DUP2 ADD SWAP1 PUSH2 0x149 SWAP2 SWAP1 PUSH2 0x425 JUMP JUMPDEST PUSH2 0x2D1 JUMP JUMPDEST STOP JUMPDEST PUSH1 0x0 PUSH1 0x3 SLOAD SWAP1 POP SWAP1 JUMP JUMPDEST PUSH1 0x0 PUSH1 0x2 SLOAD SWAP1 POP SWAP1 JUMP JUMPDEST PUSH1 0x0 PUSH2 0x16E PUSH2 0x2AD JUMP JUMPDEST PUSH1 0x3 SLOAD PUSH2 0x17B SWAP2 SWAP1 PUSH2 0x481 JUMP JUMPDEST SWAP1 POP SWAP1 JUMP JUMPDEST PUSH1 0x0 PUSH1 0x4 SLOAD SWAP1 POP SWAP1 JUMP JUMPDEST PUSH1 0x1 PUSH1 0x0 SWAP1 SLOAD SWAP1 PUSH2 0x100 EXP SWAP1 DIV PUSH20 0xFFFFFFFFFFFFFFFFFFFFFFFFFFFFFFFFFFFFFFFF AND PUSH20 0xFFFFFFFFFFFFFFFFFFFFFFFFFFFFFFFFFFFFFFFF AND CALLER PUSH20 0xFFFFFFFFFFFFFFFFFFFFFFFFFFFFFFFFFFFFFFFF AND EQ PUSH2 0x21A JUMPI PUSH1 0x40 MLOAD PUSH32 0x8C379A000000000000000000000000000000000000000000000000000000000 DUP2 MSTORE PUSH1 0x4 ADD PUSH2 0x211 SWAP1 PUSH2 0x538 JUMP JUMPDEST PUSH1 0x40 MLOAD DUP1 SWAP2 SUB SWAP1 REVERT JUMPDEST DUP2 PUSH20 0xFFFFFFFFFFFFFFFFFFFFFFFFFFFFFFFFFFFFFFFF AND PUSH4 0xA9059CBB DUP5 DUP4 PUSH1 0x40 MLOAD DUP4 PUSH4 0xFFFFFFFF AND PUSH1 0xE0 SHL DUP2 MSTORE PUSH1 0x4 ADD PUSH2 0x255 SWAP3 SWAP2 SWAP1 PUSH2 0x567 JUMP JUMPDEST PUSH1 0x20 PUSH1 0x40 MLOAD DUP1 DUP4 SUB DUP2 PUSH1 0x0 DUP8 DUP1 EXTCODESIZE ISZERO DUP1 ISZERO PUSH2 0x26F JUMPI PUSH1 0x0 DUP1 REVERT JUMPDEST POP GAS CALL ISZERO DUP1 ISZERO PUSH2 0x283 JUMPI RETURNDATASIZE PUSH1 0x0 DUP1 RETURNDATACOPY RETURNDATASIZE PUSH1 0x0 REVERT JUMPDEST POP POP POP POP PUSH1 0x40 MLOAD RETURNDATASIZE PUSH1 0x1F NOT PUSH1 0x1F DUP3 ADD AND DUP3 ADD DUP1 PUSH1 0x40 MSTORE POP DUP2 ADD SWAP1 PUSH2 0x2A7 SWAP2 SWAP1 PUSH2 0x5C8 JUMP JUMPDEST POP POP POP POP JUMP JUMPDEST PUSH1 0x0 PUSH2 0x2710 PUSH1 0x4 SLOAD PUSH1 0x3 SLOAD PUSH2 0x2C2 SWAP2 SWAP1 PUSH2 0x5F5 JUMP JUMPDEST PUSH2 0x2CC SWAP2 SWAP1 PUSH2 0x67E JUMP JUMPDEST SWAP1 POP SWAP1 JUMP JUMPDEST DUP1 PUSH1 0x4 DUP2 SWAP1 SSTORE POP POP JUMP JUMPDEST PUSH1 0x0 DUP2 SWAP1 POP SWAP2 SWAP1 POP JUMP JUMPDEST PUSH2 0x2EE DUP2 PUSH2 0x2DB JUMP JUMPDEST DUP3 MSTORE POP POP JUMP JUMPDEST PUSH1 0x0 PUSH1 0x20 DUP3 ADD SWAP1 POP PUSH2 0x309 PUSH1 0x0 DUP4 ADD DUP5 PUSH2 0x2E5 JUMP JUMPDEST SWAP3 SWAP2 POP POP JUMP JUMPDEST PUSH1 0x0 DUP2 SWAP1 POP SWAP2 SWAP1 POP JUMP JUMPDEST PUSH2 0x322 DUP2 PUSH2 0x30F JUMP JUMPDEST DUP3 MSTORE POP POP JUMP JUMPDEST PUSH1 0x0 PUSH1 0x20 DUP3 ADD SWAP1 POP PUSH2 0x33D PUSH1 0x0 DUP4 ADD DUP5 PUSH2 0x319 JUMP JUMPDEST SWAP3 SWAP2 POP POP JUMP JUMPDEST PUSH1 0x0 DUP1 REVERT JUMPDEST PUSH1 0x0 PUSH20 0xFFFFFFFFFFFFFFFFFFFFFFFFFFFFFFFFFFFFFFFF DUP3 AND SWAP1 POP SWAP2 SWAP1 POP JUMP JUMPDEST PUSH1 0x0 PUSH2 0x373 DUP3 PUSH2 0x348 JUMP JUMPDEST SWAP1 POP SWAP2 SWAP1 POP JUMP JUMPDEST PUSH2 0x383 DUP2 PUSH2 0x368 JUMP JUMPDEST DUP2 EQ PUSH2 0x38E JUMPI PUSH1 0x0 DUP1 REVERT JUMPDEST POP JUMP JUMPDEST PUSH1 0x0 DUP2 CALLDATALOAD SWAP1 POP PUSH2 0x3A0 DUP2 PUSH2 0x37A JUMP JUMPDEST SWAP3 SWAP2 POP POP JUMP JUMPDEST PUSH2 0x3AF DUP2 PUSH2 0x2DB JUMP JUMPDEST DUP2 EQ PUSH2 0x3BA JUMPI PUSH1 0x0 DUP1 REVERT JUMPDEST POP JUMP JUMPDEST PUSH1 0x0 DUP2 CALLDATALOAD SWAP1 POP PUSH2 0x3CC DUP2 PUSH2 0x3A6 JUMP JUMPDEST SWAP3 SWAP2 POP POP JUMP JUMPDEST PUSH1 0x0 DUP1 PUSH1 0x0 PUSH1 0x60 DUP5 DUP7 SUB SLT ISZERO PUSH2 0x3EB JUMPI PUSH2 0x3EA PUSH2 0x343 JUMP JUMPDEST JUMPDEST PUSH1 0x0 PUSH2 0x3F9 DUP7 DUP3 DUP8 ADD PUSH2 0x391 JUMP JUMPDEST SWAP4 POP POP PUSH1 0x20 PUSH2 0x40A DUP7 DUP3 DUP8 ADD PUSH2 0x391 JUMP JUMPDEST SWAP3 POP POP PUSH1 0x40 PUSH2 0x41B DUP7 DUP3 DUP8 ADD PUSH2 0x3BD JUMP JUMPDEST SWAP2 POP POP SWAP3 POP SWAP3 POP SWAP3 JUMP JUMPDEST PUSH1 0x0 PUSH1 0x20 DUP3 DUP5 SUB SLT ISZERO PUSH2 0x43B JUMPI PUSH2 0x43A PUSH2 0x343 JUMP JUMPDEST JUMPDEST PUSH1 0x0 PUSH2 0x449 DUP5 DUP3 DUP6 ADD PUSH2 0x3BD JUMP JUMPDEST SWAP2 POP POP SWAP3 SWAP2 POP POP JUMP JUMPDEST PUSH32 0x4E487B7100000000000000000000000000000000000000000000000000000000 PUSH1 0x0 MSTORE PUSH1 0x11 PUSH1 0x4 MSTORE PUSH1 0x24 PUSH1 0x0 REVERT JUMPDEST PUSH1 0x0 PUSH2 0x48C DUP3 PUSH2 0x2DB JUMP JUMPDEST SWAP2 POP PUSH2 0x497 DUP4 PUSH2 0x2DB JUMP JUMPDEST SWAP3 POP DUP3 DUP3 LT ISZERO PUSH2 0x4AA JUMPI PUSH2 0x4A9 PUSH2 0x452 JUMP JUMPDEST JUMPDEST DUP3 DUP3 SUB SWAP1 POP SWAP3 SWAP2 POP POP JUMP JUMPDEST PUSH1 0x0 DUP3 DUP3 MSTORE PUSH1 0x20 DUP3 ADD SWAP1 POP SWAP3 SWAP2 POP POP JUMP JUMPDEST PUSH32 0x43616D706169676E54726561737572793A2043616C6C6572206973206E6F7420 PUSH1 0x0 DUP3 ADD MSTORE PUSH32 0x43616D706169676E496E666F20636F6E74726163740000000000000000000000 PUSH1 0x20 DUP3 ADD MSTORE POP JUMP JUMPDEST PUSH1 0x0 PUSH2 0x522 PUSH1 0x35 DUP4 PUSH2 0x4B5 JUMP JUMPDEST SWAP2 POP PUSH2 0x52D DUP3 PUSH2 0x4C6 JUMP JUMPDEST PUSH1 0x40 DUP3 ADD SWAP1 POP SWAP2 SWAP1 POP JUMP JUMPDEST PUSH1 0x0 PUSH1 0x20 DUP3 ADD SWAP1 POP DUP2 DUP2 SUB PUSH1 0x0 DUP4 ADD MSTORE PUSH2 0x551 DUP2 PUSH2 0x515 JUMP JUMPDEST SWAP1 POP SWAP2 SWAP1 POP JUMP JUMPDEST PUSH2 0x561 DUP2 PUSH2 0x368 JUMP JUMPDEST DUP3 MSTORE POP POP JUMP JUMPDEST PUSH1 0x0 PUSH1 0x40 DUP3 ADD SWAP1 POP PUSH2 0x57C PUSH1 0x0 DUP4 ADD DUP6 PUSH2 0x558 JUMP JUMPDEST PUSH2 0x589 PUSH1 0x20 DUP4 ADD DUP5 PUSH2 0x2E5 JUMP JUMPDEST SWAP4 SWAP3 POP POP POP JUMP JUMPDEST PUSH1 0x0 DUP2 ISZERO ISZERO SWAP1 POP SWAP2 SWAP1 POP JUMP JUMPDEST PUSH2 0x5A5 DUP2 PUSH2 0x590 JUMP JUMPDEST DUP2 EQ PUSH2 0x5B0 JUMPI PUSH1 0x0 DUP1 REVERT JUMPDEST POP JUMP JUMPDEST PUSH1 0x0 DUP2 MLOAD SWAP1 POP PUSH2 0x5C2 DUP2 PUSH2 0x59C JUMP JUMPDEST SWAP3 SWAP2 POP POP JUMP JUMPDEST PUSH1 0x0 PUSH1 0x20 DUP3 DUP5 SUB SLT ISZERO PUSH2 0x5DE JUMPI PUSH2 0x5DD PUSH2 0x343 JUMP JUMPDEST JUMPDEST PUSH1 0x0 PUSH2 0x5EC DUP5 DUP3 DUP6 ADD PUSH2 0x5B3 JUMP JUMPDEST SWAP2 POP POP SWAP3 SWAP2 POP POP JUMP JUMPDEST PUSH1 0x0 PUSH2 0x600 DUP3 PUSH2 0x2DB JUMP JUMPDEST SWAP2 POP PUSH2 0x60B DUP4 PUSH2 0x2DB JUMP JUMPDEST SWAP3 POP DUP2 PUSH32 0xFFFFFFFFFFFFFFFFFFFFFFFFFFFFFFFFFFFFFFFFFFFFFFFFFFFFFFFFFFFFFFFF DIV DUP4 GT DUP3 ISZERO ISZERO AND ISZERO PUSH2 0x644 JUMPI PUSH2 0x643 PUSH2 0x452 JUMP JUMPDEST JUMPDEST DUP3 DUP3 MUL SWAP1 POP SWAP3 SWAP2 POP POP JUMP JUMPDEST PUSH32 0x4E487B7100000000000000000000000000000000000000000000000000000000 PUSH1 0x0 MSTORE PUSH1 0x12 PUSH1 0x4 MSTORE PUSH1 0x24 PUSH1 0x0 REVERT JUMPDEST PUSH1 0x0 PUSH2 0x689 DUP3 PUSH2 0x2DB JUMP JUMPDEST SWAP2 POP PUSH2 0x694 DUP4 PUSH2 0x2DB JUMP JUMPDEST SWAP3 POP DUP3 PUSH2 0x6A4 JUMPI PUSH2 0x6A3 PUSH2 0x64F JUMP JUMPDEST JUMPDEST DUP3 DUP3 DIV SWAP1 POP SWAP3 SWAP2 POP POP JUMP INVALID LOG2 PUSH5 0x6970667358 0x22 SLT KECCAK256 0xD9 0xAC SWAP15 NUMBER SWAP3 PUSH28 0xAE7CC90A0FBDDEEBE859351F54203E5F4F5BCBEB43A454538C816473 PUSH16 0x6C634300080900330000000000000000 "},"methodIdentifiers":{"disburseFeeToPlatform(address,address,uint256)":"60a56b3a","getPledgedAmount()":"186bc549","getTotalCollectableByCreator()":"4b1d123b","getplatformFee()":"6cccbe5e","getplatformFeePercent()":"4f15fc06","getplatformId()":"4575d5c5","setplatformFeePercent(uint256)":"8f94b8c2"}}}}}