{"contracts/Aggregator/Aggregator.sol":{"Aggregator":{"abi":[{"inputs":[{"internalType":"address","name":"campaignInfo","type":"address"},{"internalType":"string","name":"_itemId","type":"string"},{"internalType":"string","name":"_description","type":"string"}],"name":"addItem","outputs":[],"stateMutability":"nonpayable","type":"function"},{"inputs":[{"internalType":"address","name":"campaignInfo","type":"address"},{"internalType":"string","name":"itemId","type":"string"},{"internalType":"string","name":"description","type":"string"},{"internalType":"string","name":"name","type":"string"},{"internalType":"uint256","name":"rewardValue","type":"uint256"},{"internalType":"string[]","name":"itemName","type":"string[]"},{"internalType":"uint256[]","name":"itemQuantity","type":"uint256[]"}],"name":"addItemAndReward","outputs":[],"stateMutability":"nonpayable","type":"function"},{"inputs":[{"internalType":"address","name":"campaignInfo","type":"address"},{"internalType":"string","name":"name","type":"string"},{"internalType":"uint256","name":"rewardValue","type":"uint256"},{"internalType":"string[]","name":"itemName","type":"string[]"},{"internalType":"uint256[]","name":"itemQuantity","type":"uint256[]"}],"name":"addReward","outputs":[],"stateMutability":"nonpayable","type":"function"},{"inputs":[{"internalType":"address","name":"_creator","type":"address"},{"internalType":"string","name":"_identifier","type":"string"},{"internalType":"bytes32","name":"_originPlatform","type":"bytes32"},{"internalType":"string","name":"_creatorUrl","type":"string"},{"internalType":"bytes32[]","name":"_reachPlatform","type":"bytes32[]"},{"internalType":"uint256","name":"_earlyPledgeAmount","type":"uint256"}],"name":"createCampaign","outputs":[],"stateMutability":"nonpayable","type":"function"},{"inputs":[{"internalType":"address","name":"_campaignInfoFactory","type":"address"},{"internalType":"address","name":"_campaignRegisty","type":"address"}],"name":"initialize","outputs":[],"stateMutability":"nonpayable","type":"function"},{"inputs":[{"internalType":"address","name":"campaignInfo","type":"address"},{"internalType":"uint256","name":"launchTime","type":"uint256"},{"internalType":"uint256","name":"deadline","type":"uint256"},{"internalType":"uint256","name":"goalAmount","type":"uint256"},{"internalType":"bool","name":"enableLatePledge","type":"bool"}],"name":"setLaunch","outputs":[],"stateMutability":"nonpayable","type":"function"},{"inputs":[{"internalType":"address","name":"campaignInfo","type":"address"},{"internalType":"bytes32","name":"platform","type":"bytes32"},{"internalType":"address","name":"platformWallet","type":"address"},{"internalType":"address","name":"token","type":"address"}],"name":"setTreasury","outputs":[],"stateMutability":"nonpayable","type":"function"}],"evm":{"bytecode":{"linkReferences":{},"object":"608060405234801561001057600080fd5b50612449806100206000396000f3fe60806040523480156200001157600080fd5b5060043610620000885760003560e01c8063ab4d9b5f1162000063578063ab4d9b5f14620000ed578063c77e6f65146200010d578063d3caea4f146200012d578063fbe121fa146200014d5762000088565b806333d556d7146200008d578063485cc95514620000ad578063a909bb3314620000cd575b600080fd5b620000ab6004803603810190620000a5919062000b39565b6200016d565b005b620000cb6004803603810190620000c5919062000bab565b62000348565b005b620000eb6004803603810190620000e5919062000fc5565b620003ce565b005b6200010b600480360381019062000105919062001120565b6200055f565b005b6200012b6004803603810190620001259190620012de565b62000677565b005b6200014b6004803603810190620001459190620013d7565b6200084d565b005b6200016b6004803603810190620001659190620014b8565b62000962565b005b833373ffffffffffffffffffffffffffffffffffffffff166000808373ffffffffffffffffffffffffffffffffffffffff1673ffffffffffffffffffffffffffffffffffffffff16815260200190815260200160002060009054906101000a900473ffffffffffffffffffffffffffffffffffffffff1673ffffffffffffffffffffffffffffffffffffffff16146200020557600080fd5b600260009054906101000a900473ffffffffffffffffffffffffffffffffffffffff168585604051620002389062000a77565b620002469392919062001562565b604051809103906000f08015801562000263573d6000803e3d6000fd5b50600360006101000a81548173ffffffffffffffffffffffffffffffffffffffff021916908373ffffffffffffffffffffffffffffffffffffffff1602179055506000600360009054906101000a900473ffffffffffffffffffffffffffffffffffffffff1690508573ffffffffffffffffffffffffffffffffffffffff1663deaaf241868684876040518563ffffffff1660e01b81526004016200030c94939291906200159f565b600060405180830381600087803b1580156200032757600080fd5b505af11580156200033c573d6000803e3d6000fd5b50505050505050505050565b81600160006101000a81548173ffffffffffffffffffffffffffffffffffffffff021916908373ffffffffffffffffffffffffffffffffffffffff16021790555080600260006101000a81548173ffffffffffffffffffffffffffffffffffffffff021916908373ffffffffffffffffffffffffffffffffffffffff1602179055505050565b893373ffffffffffffffffffffffffffffffffffffffff166000808373ffffffffffffffffffffffffffffffffffffffff1673ffffffffffffffffffffffffffffffffffffffff16815260200190815260200160002060009054906101000a900473ffffffffffffffffffffffffffffffffffffffff1673ffffffffffffffffffffffffffffffffffffffff16146200046657600080fd5b8a73ffffffffffffffffffffffffffffffffffffffff16637ed8a7198b8b8b8b6040518563ffffffff1660e01b8152600401620004a7949392919062001630565b600060405180830381600087803b158015620004c257600080fd5b505af1158015620004d7573d6000803e3d6000fd5b505050508a73ffffffffffffffffffffffffffffffffffffffff166319188bd887878787876040518663ffffffff1660e01b81526004016200051e959493929190620018b1565b600060405180830381600087803b1580156200053957600080fd5b505af11580156200054e573d6000803e3d6000fd5b505050505050505050505050505050565b853373ffffffffffffffffffffffffffffffffffffffff166000808373ffffffffffffffffffffffffffffffffffffffff1673ffffffffffffffffffffffffffffffffffffffff16815260200190815260200160002060009054906101000a900473ffffffffffffffffffffffffffffffffffffffff1673ffffffffffffffffffffffffffffffffffffffff1614620005f757600080fd5b8673ffffffffffffffffffffffffffffffffffffffff166319188bd887878787876040518663ffffffff1660e01b81526004016200063a959493929190620018b1565b600060405180830381600087803b1580156200065557600080fd5b505af11580156200066a573d6000803e3d6000fd5b5050505050505050505050565b600160009054906101000a900473ffffffffffffffffffffffffffffffffffffffff1673ffffffffffffffffffffffffffffffffffffffff1663c77e6f653087878787876040518763ffffffff1660e01b8152600401620006de9695949392919062001a24565b600060405180830381600087803b158015620006f957600080fd5b505af11580156200070e573d6000803e3d6000fd5b505050506000600260009054906101000a900473ffffffffffffffffffffffffffffffffffffffff1673ffffffffffffffffffffffffffffffffffffffff1663939f3130876040518263ffffffff1660e01b815260040162000771919062001aa6565b60206040518083038186803b1580156200078a57600080fd5b505afa1580156200079f573d6000803e3d6000fd5b505050506040513d601f19601f82011682018060405250810190620007c5919062001ae1565b9050866000808373ffffffffffffffffffffffffffffffffffffffff1673ffffffffffffffffffffffffffffffffffffffff16815260200190815260200160002060006101000a81548173ffffffffffffffffffffffffffffffffffffffff021916908373ffffffffffffffffffffffffffffffffffffffff16021790555050505050505050565b843373ffffffffffffffffffffffffffffffffffffffff166000808373ffffffffffffffffffffffffffffffffffffffff1673ffffffffffffffffffffffffffffffffffffffff16815260200190815260200160002060009054906101000a900473ffffffffffffffffffffffffffffffffffffffff1673ffffffffffffffffffffffffffffffffffffffff1614620008e557600080fd5b8573ffffffffffffffffffffffffffffffffffffffff16637ed8a719868686866040518563ffffffff1660e01b815260040162000926949392919062001630565b600060405180830381600087803b1580156200094157600080fd5b505af115801562000956573d6000803e3d6000fd5b50505050505050505050565b843373ffffffffffffffffffffffffffffffffffffffff166000808373ffffffffffffffffffffffffffffffffffffffff1673ffffffffffffffffffffffffffffffffffffffff16815260200190815260200160002060009054906101000a900473ffffffffffffffffffffffffffffffffffffffff1673ffffffffffffffffffffffffffffffffffffffff1614620009fa57600080fd5b8573ffffffffffffffffffffffffffffffffffffffff1663695c27c2868686866040518563ffffffff1660e01b815260040162000a3b949392919062001b24565b600060405180830381600087803b15801562000a5657600080fd5b505af115801562000a6b573d6000803e3d6000fd5b50505050505050505050565b6108a28062001b7283390190565b6000604051905090565b600080fd5b600080fd5b600073ffffffffffffffffffffffffffffffffffffffff82169050919050565b600062000ac68262000a99565b9050919050565b62000ad88162000ab9565b811462000ae457600080fd5b50565b60008135905062000af88162000acd565b92915050565b6000819050919050565b62000b138162000afe565b811462000b1f57600080fd5b50565b60008135905062000b338162000b08565b92915050565b6000806000806080858703121562000b565762000b5562000a8f565b5b600062000b668782880162000ae7565b945050602062000b798782880162000b22565b935050604062000b8c8782880162000ae7565b925050606062000b9f8782880162000ae7565b91505092959194509250565b6000806040838503121562000bc55762000bc462000a8f565b5b600062000bd58582860162000ae7565b925050602062000be88582860162000ae7565b9150509250929050565b600080fd5b600080fd5b600080fd5b60008083601f84011262000c1a5762000c1962000bf2565b5b8235905067ffffffffffffffff81111562000c3a5762000c3962000bf7565b5b60208301915083600182028301111562000c595762000c5862000bfc565b5b9250929050565b6000819050919050565b62000c758162000c60565b811462000c8157600080fd5b50565b60008135905062000c958162000c6a565b92915050565b6000601f19601f8301169050919050565b7f4e487b7100000000000000000000000000000000000000000000000000000000600052604160045260246000fd5b62000ce68262000c9b565b810181811067ffffffffffffffff8211171562000d085762000d0762000cac565b5b80604052505050565b600062000d1d62000a85565b905062000d2b828262000cdb565b919050565b600067ffffffffffffffff82111562000d4e5762000d4d62000cac565b5b602082029050602081019050919050565b600080fd5b600067ffffffffffffffff82111562000d825762000d8162000cac565b5b62000d8d8262000c9b565b9050602081019050919050565b82818337600083830152505050565b600062000dc062000dba8462000d64565b62000d11565b90508281526020810184848401111562000ddf5762000dde62000d5f565b5b62000dec84828562000d9a565b509392505050565b600082601f83011262000e0c5762000e0b62000bf2565b5b813562000e1e84826020860162000da9565b91505092915050565b600062000e3e62000e388462000d30565b62000d11565b9050808382526020820190506020840283018581111562000e645762000e6362000bfc565b5b835b8181101562000eb257803567ffffffffffffffff81111562000e8d5762000e8c62000bf2565b5b80860162000e9c898262000df4565b8552602085019450505060208101905062000e66565b5050509392505050565b600082601f83011262000ed45762000ed362000bf2565b5b813562000ee684826020860162000e27565b91505092915050565b600067ffffffffffffffff82111562000f0d5762000f0c62000cac565b5b602082029050602081019050919050565b600062000f3562000f2f8462000eef565b62000d11565b9050808382526020820190506020840283018581111562000f5b5762000f5a62000bfc565b5b835b8181101562000f88578062000f73888262000c84565b84526020840193505060208101905062000f5d565b5050509392505050565b600082601f83011262000faa5762000fa962000bf2565b5b813562000fbc84826020860162000f1e565b91505092915050565b60008060008060008060008060008060e08b8d03121562000feb5762000fea62000a8f565b5b600062000ffb8d828e0162000ae7565b9a505060208b013567ffffffffffffffff8111156200101f576200101e62000a94565b5b6200102d8d828e0162000c01565b995099505060408b013567ffffffffffffffff81111562001053576200105262000a94565b5b620010618d828e0162000c01565b975097505060608b013567ffffffffffffffff81111562001087576200108662000a94565b5b620010958d828e0162000c01565b95509550506080620010aa8d828e0162000c84565b93505060a08b013567ffffffffffffffff811115620010ce57620010cd62000a94565b5b620010dc8d828e0162000ebc565b92505060c08b013567ffffffffffffffff8111156200110057620010ff62000a94565b5b6200110e8d828e0162000f92565b9150509295989b9194979a5092959850565b60008060008060008060a0878903121562001140576200113f62000a8f565b5b60006200115089828a0162000ae7565b965050602087013567ffffffffffffffff81111562001174576200117362000a94565b5b6200118289828a0162000c01565b955095505060406200119789828a0162000c84565b935050606087013567ffffffffffffffff811115620011bb57620011ba62000a94565b5b620011c989828a0162000ebc565b925050608087013567ffffffffffffffff811115620011ed57620011ec62000a94565b5b620011fb89828a0162000f92565b9150509295509295509295565b600067ffffffffffffffff82111562001226576200122562000cac565b5b602082029050602081019050919050565b60006200124e620012488462001208565b62000d11565b9050808382526020820190506020840283018581111562001274576200127362000bfc565b5b835b81811015620012a157806200128c888262000b22565b84526020840193505060208101905062001276565b5050509392505050565b600082601f830112620012c357620012c262000bf2565b5b8135620012d584826020860162001237565b91505092915050565b60008060008060008060c08789031215620012fe57620012fd62000a8f565b5b60006200130e89828a0162000ae7565b965050602087013567ffffffffffffffff81111562001332576200133162000a94565b5b6200134089828a0162000df4565b95505060406200135389828a0162000b22565b945050606087013567ffffffffffffffff81111562001377576200137662000a94565b5b6200138589828a0162000df4565b935050608087013567ffffffffffffffff811115620013a957620013a862000a94565b5b620013b789828a01620012ab565b92505060a0620013ca89828a0162000c84565b9150509295509295509295565b600080600080600060608688031215620013f657620013f562000a8f565b5b6000620014068882890162000ae7565b955050602086013567ffffffffffffffff8111156200142a576200142962000a94565b5b620014388882890162000c01565b9450945050604086013567ffffffffffffffff8111156200145e576200145d62000a94565b5b6200146c8882890162000c01565b92509250509295509295909350565b60008115159050919050565b62001492816200147b565b81146200149e57600080fd5b50565b600081359050620014b28162001487565b92915050565b600080600080600060a08688031215620014d757620014d662000a8f565b5b6000620014e78882890162000ae7565b9550506020620014fa8882890162000c84565b94505060406200150d8882890162000c84565b9350506060620015208882890162000c84565b92505060806200153388828901620014a1565b9150509295509295909350565b6200154b8162000ab9565b82525050565b6200155c8162000afe565b82525050565b600060608201905062001579600083018662001540565b62001588602083018562001540565b62001597604083018462001551565b949350505050565b6000608082019050620015b6600083018762001551565b620015c5602083018662001540565b620015d4604083018562001540565b620015e3606083018462001540565b95945050505050565b600082825260208201905092915050565b60006200160b8385620015ec565b93506200161a83858462000d9a565b620016258362000c9b565b840190509392505050565b600060408201905081810360008301526200164d818688620015fd565b9050818103602083015262001664818486620015fd565b905095945050505050565b6200167a8162000c60565b82525050565b600081519050919050565b600082825260208201905092915050565b6000819050602082019050919050565b600081519050919050565b600082825260208201905092915050565b60005b83811015620016e8578082015181840152602081019050620016cb565b83811115620016f8576000848401525b50505050565b60006200170b82620016ac565b620017178185620016b7565b935062001729818560208601620016c8565b620017348162000c9b565b840191505092915050565b60006200174d8383620016fe565b905092915050565b6000602082019050919050565b60006200176f8262001680565b6200177b81856200168b565b9350836020820285016200178f856200169c565b8060005b85811015620017d15784840389528151620017af85826200173f565b9450620017bc8362001755565b925060208a0199505060018101905062001793565b50829750879550505050505092915050565b600081519050919050565b600082825260208201905092915050565b6000819050602082019050919050565b6200181a8162000c60565b82525050565b60006200182e83836200180f565b60208301905092915050565b6000602082019050919050565b60006200185482620017e3565b620018608185620017ee565b93506200186d83620017ff565b8060005b83811015620018a457815162001888888262001820565b975062001895836200183a565b92505060018101905062001871565b5085935050505092915050565b60006080820190508181036000830152620018ce818789620015fd565b9050620018df60208301866200166f565b8181036040830152620018f3818562001762565b9050818103606083015262001909818462001847565b90509695505050505050565b60006200192282620016ac565b6200192e8185620015ec565b935062001940818560208601620016c8565b6200194b8162000c9b565b840191505092915050565b600081519050919050565b600082825260208201905092915050565b6000819050602082019050919050565b6200198d8162000afe565b82525050565b6000620019a1838362001982565b60208301905092915050565b6000602082019050919050565b6000620019c78262001956565b620019d3818562001961565b9350620019e08362001972565b8060005b8381101562001a17578151620019fb888262001993565b975062001a0883620019ad565b925050600181019050620019e4565b5085935050505092915050565b600060c08201905062001a3b600083018962001540565b818103602083015262001a4f818862001915565b905062001a60604083018762001551565b818103606083015262001a74818662001915565b9050818103608083015262001a8a8185620019ba565b905062001a9b60a08301846200166f565b979650505050505050565b6000602082019050818103600083015262001ac2818462001915565b905092915050565b60008151905062001adb8162000acd565b92915050565b60006020828403121562001afa5762001af962000a8f565b5b600062001b0a8482850162001aca565b91505092915050565b62001b1e816200147b565b82525050565b600060808201905062001b3b60008301876200166f565b62001b4a60208301866200166f565b62001b5960408301856200166f565b62001b68606083018462001b13565b9594505050505056fe608060405234801561001057600080fd5b506040516108a23803806108a28339818101604052810190610032919061015b565b826000806101000a81548173ffffffffffffffffffffffffffffffffffffffff021916908373ffffffffffffffffffffffffffffffffffffffff16021790555081600160006101000a81548173ffffffffffffffffffffffffffffffffffffffff021916908373ffffffffffffffffffffffffffffffffffffffff160217905550806002819055505050506101ae565b600080fd5b600073ffffffffffffffffffffffffffffffffffffffff82169050919050565b60006100f2826100c7565b9050919050565b610102816100e7565b811461010d57600080fd5b50565b60008151905061011f816100f9565b92915050565b6000819050919050565b61013881610125565b811461014357600080fd5b50565b6000815190506101558161012f565b92915050565b600080600060608486031215610174576101736100c2565b5b600061018286828701610110565b935050602061019386828701610110565b92505060406101a486828701610146565b9150509250925092565b6106e5806101bd6000396000f3fe608060405234801561001057600080fd5b506004361061007d5760003560e01c80634f15fc061161005b5780634f15fc06146100dc57806360a56b3a146100fa5780636cccbe5e146101165780638f94b8c2146101345761007d565b8063186bc549146100825780634575d5c5146100a05780634b1d123b146100be575b600080fd5b61008a610150565b60405161009791906102f4565b60405180910390f35b6100a861015a565b6040516100b59190610328565b60405180910390f35b6100c6610164565b6040516100d391906102f4565b60405180910390f35b6100e4610180565b6040516100f191906102f4565b60405180910390f35b610114600480360381019061010f91906103d2565b61018a565b005b61011e6102ad565b60405161012b91906102f4565b60405180910390f35b61014e60048036038101906101499190610425565b6102d1565b005b6000600354905090565b6000600254905090565b600061016e6102ad565b60035461017b9190610481565b905090565b6000600454905090565b600160009054906101000a900473ffffffffffffffffffffffffffffffffffffffff1673ffffffffffffffffffffffffffffffffffffffff163373ffffffffffffffffffffffffffffffffffffffff161461021a576040517f08c379a000000000000000000000000000000000000000000000000000000000815260040161021190610538565b60405180910390fd5b8173ffffffffffffffffffffffffffffffffffffffff1663a9059cbb84836040518363ffffffff1660e01b8152600401610255929190610567565b602060405180830381600087803b15801561026f57600080fd5b505af1158015610283573d6000803e3d6000fd5b505050506040513d601f19601f820116820180604052508101906102a791906105c8565b50505050565b60006127106004546003546102c291906105f5565b6102cc919061067e565b905090565b8060048190555050565b6000819050919050565b6102ee816102db565b82525050565b600060208201905061030960008301846102e5565b92915050565b6000819050919050565b6103228161030f565b82525050565b600060208201905061033d6000830184610319565b92915050565b600080fd5b600073ffffffffffffffffffffffffffffffffffffffff82169050919050565b600061037382610348565b9050919050565b61038381610368565b811461038e57600080fd5b50565b6000813590506103a08161037a565b92915050565b6103af816102db565b81146103ba57600080fd5b50565b6000813590506103cc816103a6565b92915050565b6000806000606084860312156103eb576103ea610343565b5b60006103f986828701610391565b935050602061040a86828701610391565b925050604061041b868287016103bd565b9150509250925092565b60006020828403121561043b5761043a610343565b5b6000610449848285016103bd565b91505092915050565b7f4e487b7100000000000000000000000000000000000000000000000000000000600052601160045260246000fd5b600061048c826102db565b9150610497836102db565b9250828210156104aa576104a9610452565b5b828203905092915050565b600082825260208201905092915050565b7f43616d706169676e54726561737572793a2043616c6c6572206973206e6f742060008201527f43616d706169676e496e666f20636f6e74726163740000000000000000000000602082015250565b60006105226035836104b5565b915061052d826104c6565b604082019050919050565b6000602082019050818103600083015261055181610515565b9050919050565b61056181610368565b82525050565b600060408201905061057c6000830185610558565b61058960208301846102e5565b9392505050565b60008115159050919050565b6105a581610590565b81146105b057600080fd5b50565b6000815190506105c28161059c565b92915050565b6000602082840312156105de576105dd610343565b5b60006105ec848285016105b3565b91505092915050565b6000610600826102db565b915061060b836102db565b9250817fffffffffffffffffffffffffffffffffffffffffffffffffffffffffffffffff048311821515161561064457610643610452565b5b828202905092915050565b7f4e487b7100000000000000000000000000000000000000000000000000000000600052601260045260246000fd5b6000610689826102db565b9150610694836102db565b9250826106a4576106a361064f565b5b82820490509291505056fea2646970667358221220d9ac9e43927bae7cc90a0fbddeebe859351f54203e5f4f5bcbeb43a454538c8164736f6c63430008090033a264697066735822122023e2deb9cbb0f3977f35d56a749fe2e90da9bed31554553c2a055b9a56cd988c64736f6c63430008090033","opcodes":"PUSH1 0x80 PUSH1 0x40 MSTORE CALLVALUE DUP1 ISZERO PUSH2 0x10 JUMPI PUSH1 0x0 DUP1 REVERT JUMPDEST POP PUSH2 0x2449 DUP1 PUSH2 0x20 PUSH1 0x0 CODECOPY PUSH1 0x0 RETURN INVALID PUSH1 0x80 PUSH1 0x40 MSTORE CALLVALUE DUP1 ISZERO PUSH3 0x11 JUMPI PUSH1 0x0 DUP1 REVERT JUMPDEST POP PUSH1 0x4 CALLDATASIZE LT PUSH3 0x88 JUMPI PUSH1 0x0 CALLDATALOAD PUSH1 0xE0 SHR DUP1 PUSH4 0xAB4D9B5F GT PUSH3 0x63 JUMPI DUP1 PUSH4 0xAB4D9B5F EQ PUSH3 0xED JUMPI DUP1 PUSH4 0xC77E6F65 EQ PUSH3 0x10D JUMPI DUP1 PUSH4 0xD3CAEA4F EQ PUSH3 0x12D JUMPI DUP1 PUSH4 0xFBE121FA EQ PUSH3 0x14D JUMPI PUSH3 0x88 JUMP JUMPDEST DUP1 PUSH4 0x33D556D7 EQ PUSH3 0x8D JUMPI DUP1 PUSH4 0x485CC955 EQ PUSH3 0xAD JUMPI DUP1 PUSH4 0xA909BB33 EQ PUSH3 0xCD JUMPI JUMPDEST PUSH1 0x0 DUP1 REVERT JUMPDEST PUSH3 0xAB PUSH1 0x4 DUP1 CALLDATASIZE SUB DUP2 ADD SWAP1 PUSH3 0xA5 SWAP2 SWAP1 PUSH3 0xB39 JUMP JUMPDEST PUSH3 0x16D JUMP JUMPDEST STOP JUMPDEST PUSH3 0xCB PUSH1 0x4 DUP1 CALLDATASIZE SUB DUP2 ADD SWAP1 PUSH3 0xC5 SWAP2 SWAP1 PUSH3 0xBAB JUMP JUMPDEST PUSH3 0x348 JUMP JUMPDEST STOP JUMPDEST PUSH3 0xEB PUSH1 0x4 DUP1 CALLDATASIZE SUB DUP2 ADD SWAP1 PUSH3 0xE5 SWAP2 SWAP1 PUSH3 0xFC5 JUMP JUMPDEST PUSH3 0x3CE JUMP JUMPDEST STOP JUMPDEST PUSH3 0x10B PUSH1 0x4 DUP1 CALLDATASIZE SUB DUP2 ADD SWAP1 PUSH3 0x105 SWAP2 SWAP1 PUSH3 0x1120 JUMP JUMPDEST PUSH3 0x55F JUMP JUMPDEST STOP JUMPDEST PUSH3 0x12B PUSH1 0x4 DUP1 CALLDATASIZE SUB DUP2 ADD SWAP1 PUSH3 0x125 SWAP2 SWAP1 PUSH3 0x12DE JUMP JUMPDEST PUSH3 0x677 JUMP JUMPDEST STOP JUMPDEST PUSH3 0x14B PUSH1 0x4 DUP1 CALLDATASIZE SUB DUP2 ADD SWAP1 PUSH3 0x145 SWAP2 SWAP1 PUSH3 0x13D7 JUMP JUMPDEST PUSH3 0x84D JUMP JUMPDEST STOP JUMPDEST PUSH3 0x16B PUSH1 0x4 DUP1 CALLDATASIZE SUB DUP2 ADD SWAP1 PUSH3 0x165 SWAP2 SWAP1 PUSH3 0x14B8 JUMP JUMPDEST PUSH3 0x962 JUMP JUMPDEST STOP JUMPDEST DUP4 CALLER PUSH20 0xFFFFFFFFFFFFFFFFFFFFFFFFFFFFFFFFFFFFFFFF AND PUSH1 0x0 DUP1 DUP4 PUSH20 0xFFFFFFFFFFFFFFFFFFFFFFFFFFFFFFFFFFFFFFFF AND PUSH20 0xFFFFFFFFFFFFFFFFFFFFFFFFFFFFFFFFFFFFFFFF AND DUP2 MSTORE PUSH1 0x20 ADD SWAP1 DUP2 MSTORE PUSH1 0x20 ADD PUSH1 0x0 KECCAK256 PUSH1 0x0 SWAP1 SLOAD SWAP1 PUSH2 0x100 EXP SWAP1 DIV PUSH20 0xFFFFFFFFFFFFFFFFFFFFFFFFFFFFFFFFFFFFFFFF AND PUSH20 0xFFFFFFFFFFFFFFFFFFFFFFFFFFFFFFFFFFFFFFFF AND EQ PUSH3 0x205 JUMPI PUSH1 0x0 DUP1 REVERT JUMPDEST PUSH1 0x2 PUSH1 0x0 SWAP1 SLOAD SWAP1 PUSH2 0x100 EXP SWAP1 DIV PUSH20 0xFFFFFFFFFFFFFFFFFFFFFFFFFFFFFFFFFFFFFFFF AND DUP6 DUP6 PUSH1 0x40 MLOAD PUSH3 0x238 SWAP1 PUSH3 0xA77 JUMP JUMPDEST PUSH3 0x246 SWAP4 SWAP3 SWAP2 SWAP1 PUSH3 0x1562 JUMP JUMPDEST PUSH1 0x40 MLOAD DUP1 SWAP2 SUB SWAP1 PUSH1 0x0 CREATE DUP1 ISZERO DUP1 ISZERO PUSH3 0x263 JUMPI RETURNDATASIZE PUSH1 0x0 DUP1 RETURNDATACOPY RETURNDATASIZE PUSH1 0x0 REVERT JUMPDEST POP PUSH1 0x3 PUSH1 0x0 PUSH2 0x100 EXP DUP2 SLOAD DUP2 PUSH20 0xFFFFFFFFFFFFFFFFFFFFFFFFFFFFFFFFFFFFFFFF MUL NOT AND SWAP1 DUP4 PUSH20 0xFFFFFFFFFFFFFFFFFFFFFFFFFFFFFFFFFFFFFFFF AND MUL OR SWAP1 SSTORE POP PUSH1 0x0 PUSH1 0x3 PUSH1 0x0 SWAP1 SLOAD SWAP1 PUSH2 0x100 EXP SWAP1 DIV PUSH20 0xFFFFFFFFFFFFFFFFFFFFFFFFFFFFFFFFFFFFFFFF AND SWAP1 POP DUP6 PUSH20 0xFFFFFFFFFFFFFFFFFFFFFFFFFFFFFFFFFFFFFFFF AND PUSH4 0xDEAAF241 DUP7 DUP7 DUP5 DUP8 PUSH1 0x40 MLOAD DUP6 PUSH4 0xFFFFFFFF AND PUSH1 0xE0 SHL DUP2 MSTORE PUSH1 0x4 ADD PUSH3 0x30C SWAP5 SWAP4 SWAP3 SWAP2 SWAP1 PUSH3 0x159F JUMP JUMPDEST PUSH1 0x0 PUSH1 0x40 MLOAD DUP1 DUP4 SUB DUP2 PUSH1 0x0 DUP8 DUP1 EXTCODESIZE ISZERO DUP1 ISZERO PUSH3 0x327 JUMPI PUSH1 0x0 DUP1 REVERT JUMPDEST POP GAS CALL ISZERO DUP1 ISZERO PUSH3 0x33C JUMPI RETURNDATASIZE PUSH1 0x0 DUP1 RETURNDATACOPY RETURNDATASIZE PUSH1 0x0 REVERT JUMPDEST POP POP POP POP POP POP POP POP POP POP JUMP JUMPDEST DUP2 PUSH1 0x1 PUSH1 0x0 PUSH2 0x100 EXP DUP2 SLOAD DUP2 PUSH20 0xFFFFFFFFFFFFFFFFFFFFFFFFFFFFFFFFFFFFFFFF MUL NOT AND SWAP1 DUP4 PUSH20 0xFFFFFFFFFFFFFFFFFFFFFFFFFFFFFFFFFFFFFFFF AND MUL OR SWAP1 SSTORE POP DUP1 PUSH1 0x2 PUSH1 0x0 PUSH2 0x100 EXP DUP2 SLOAD DUP2 PUSH20 0xFFFFFFFFFFFFFFFFFFFFFFFFFFFFFFFFFFFFFFFF MUL NOT AND SWAP1 DUP4 PUSH20 0xFFFFFFFFFFFFFFFFFFFFFFFFFFFFFFFFFFFFFFFF AND MUL OR SWAP1 SSTORE POP POP POP JUMP JUMPDEST DUP10 CALLER PUSH20 0xFFFFFFFFFFFFFFFFFFFFFFFFFFFFFFFFFFFFFFFF AND PUSH1 0x0 DUP1 DUP4 PUSH20 0xFFFFFFFFFFFFFFFFFFFFFFFFFFFFFFFFFFFFFFFF AND PUSH20 0xFFFFFFFFFFFFFFFFFFFFFFFFFFFFFFFFFFFFFFFF AND DUP2 MSTORE PUSH1 0x20 ADD SWAP1 DUP2 MSTORE PUSH1 0x20 ADD PUSH1 0x0 KECCAK256 PUSH1 0x0 SWAP1 SLOAD SWAP1 PUSH2 0x100 EXP SWAP1 DIV PUSH20 0xFFFFFFFFFFFFFFFFFFFFFFFFFFFFFFFFFFFFFFFF AND PUSH20 0xFFFFFFFFFFFFFFFFFFFFFFFFFFFFFFFFFFFFFFFF AND EQ PUSH3 0x466 JUMPI PUSH1 0x0 DUP1 REVERT JUMPDEST DUP11 PUSH20 0xFFFFFFFFFFFFFFFFFFFFFFFFFFFFFFFFFFFFFFFF AND PUSH4 0x7ED8A719 DUP12 DUP12 DUP12 DUP12 PUSH1 0x40 MLOAD DUP6 PUSH4 0xFFFFFFFF AND PUSH1 0xE0 SHL DUP2 MSTORE PUSH1 0x4 ADD PUSH3 0x4A7 SWAP5 SWAP4 SWAP3 SWAP2 SWAP1 PUSH3 0x1630 JUMP JUMPDEST PUSH1 0x0 PUSH1 0x40 MLOAD DUP1 DUP4 SUB DUP2 PUSH1 0x0 DUP8 DUP1 EXTCODESIZE ISZERO DUP1 ISZERO PUSH3 0x4C2 JUMPI PUSH1 0x0 DUP1 REVERT JUMPDEST POP GAS CALL ISZERO DUP1 ISZERO PUSH3 0x4D7 JUMPI RETURNDATASIZE PUSH1 0x0 DUP1 RETURNDATACOPY RETURNDATASIZE PUSH1 0x0 REVERT JUMPDEST POP POP POP POP DUP11 PUSH20 0xFFFFFFFFFFFFFFFFFFFFFFFFFFFFFFFFFFFFFFFF AND PUSH4 0x19188BD8 DUP8 DUP8 DUP8 DUP8 DUP8 PUSH1 0x40 MLOAD DUP7 PUSH4 0xFFFFFFFF AND PUSH1 0xE0 SHL DUP2 MSTORE PUSH1 0x4 ADD PUSH3 0x51E SWAP6 SWAP5 SWAP4 SWAP3 SWAP2 SWAP1 PUSH3 0x18B1 JUMP JUMPDEST PUSH1 0x0 PUSH1 0x40 MLOAD DUP1 DUP4 SUB DUP2 PUSH1 0x0 DUP8 DUP1 EXTCODESIZE ISZERO DUP1 ISZERO PUSH3 0x539 JUMPI PUSH1 0x0 DUP1 REVERT JUMPDEST POP GAS CALL ISZERO DUP1 ISZERO PUSH3 0x54E JUMPI RETURNDATASIZE PUSH1 0x0 DUP1 RETURNDATACOPY RETURNDATASIZE PUSH1 0x0 REVERT JUMPDEST POP POP POP POP POP POP POP POP POP POP POP POP POP POP POP JUMP JUMPDEST DUP6 CALLER PUSH20 0xFFFFFFFFFFFFFFFFFFFFFFFFFFFFFFFFFFFFFFFF AND PUSH1 0x0 DUP1 DUP4 PUSH20 0xFFFFFFFFFFFFFFFFFFFFFFFFFFFFFFFFFFFFFFFF AND PUSH20 0xFFFFFFFFFFFFFFFFFFFFFFFFFFFFFFFFFFFFFFFF AND DUP2 MSTORE PUSH1 0x20 ADD SWAP1 DUP2 MSTORE PUSH1 0x20 ADD PUSH1 0x0 KECCAK256 PUSH1 0x0 SWAP1 SLOAD SWAP1 PUSH2 0x100 EXP SWAP1 DIV PUSH20 0xFFFFFFFFFFFFFFFFFFFFFFFFFFFFFFFFFFFFFFFF AND PUSH20 0xFFFFFFFFFFFFFFFFFFFFFFFFFFFFFFFFFFFFFFFF AND EQ PUSH3 0x5F7 JUMPI PUSH1 0x0 DUP1 REVERT JUMPDEST DUP7 PUSH20 0xFFFFFFFFFFFFFFFFFFFFFFFFFFFFFFFFFFFFFFFF AND PUSH4 0x19188BD8 DUP8 DUP8 DUP8 DUP8 DUP8 PUSH1 0x40 MLOAD DUP7 PUSH4 0xFFFFFFFF AND PUSH1 0xE0 SHL DUP2 MSTORE PUSH1 0x4 ADD PUSH3 0x63A SWAP6 SWAP5 SWAP4 SWAP3 SWAP2 SWAP1 PUSH3 0x18B1 JUMP JUMPDEST PUSH1 0x0 PUSH1 0x40 MLOAD DUP1 DUP4 SUB DUP2 PUSH1 0x0 DUP8 DUP1 EXTCODESIZE ISZERO DUP1 ISZERO PUSH3 0x655 JUMPI PUSH1 0x0 DUP1 REVERT JUMPDEST POP GAS CALL ISZERO DUP1 ISZERO PUSH3 0x66A JUMPI RETURNDATASIZE PUSH1 0x0 DUP1 RETURNDATACOPY RETURNDATASIZE PUSH1 0x0 REVERT JUMPDEST POP POP POP POP POP POP POP POP POP POP POP JUMP JUMPDEST PUSH1 0x1 PUSH1 0x0 SWAP1 SLOAD SWAP1 PUSH2 0x100 EXP SWAP1 DIV PUSH20 0xFFFFFFFFFFFFFFFFFFFFFFFFFFFFFFFFFFFFFFFF AND PUSH20 0xFFFFFFFFFFFFFFFFFFFFFFFFFFFFFFFFFFFFFFFF AND PUSH4 0xC77E6F65 ADDRESS DUP8 DUP8 DUP8 DUP8 DUP8 PUSH1 0x40 MLOAD DUP8 PUSH4 0xFFFFFFFF AND PUSH1 0xE0 SHL DUP2 MSTORE PUSH1 0x4 ADD PUSH3 0x6DE SWAP7 SWAP6 SWAP5 SWAP4 SWAP3 SWAP2 SWAP1 PUSH3 0x1A24 JUMP JUMPDEST PUSH1 0x0 PUSH1 0x40 MLOAD DUP1 DUP4 SUB DUP2 PUSH1 0x0 DUP8 DUP1 EXTCODESIZE ISZERO DUP1 ISZERO PUSH3 0x6F9 JUMPI PUSH1 0x0 DUP1 REVERT JUMPDEST POP GAS CALL ISZERO DUP1 ISZERO PUSH3 0x70E JUMPI RETURNDATASIZE PUSH1 0x0 DUP1 RETURNDATACOPY RETURNDATASIZE PUSH1 0x0 REVERT JUMPDEST POP POP POP POP PUSH1 0x0 PUSH1 0x2 PUSH1 0x0 SWAP1 SLOAD SWAP1 PUSH2 0x100 EXP SWAP1 DIV PUSH20 0xFFFFFFFFFFFFFFFFFFFFFFFFFFFFFFFFFFFFFFFF AND PUSH20 0xFFFFFFFFFFFFFFFFFFFFFFFFFFFFFFFFFFFFFFFF AND PUSH4 0x939F3130 DUP8 PUSH1 0x40 MLOAD DUP3 PUSH4 0xFFFFFFFF AND PUSH1 0xE0 SHL DUP2 MSTORE PUSH1 0x4 ADD PUSH3 0x771 SWAP2 SWAP1 PUSH3 0x1AA6 JUMP JUMPDEST PUSH1 0x20 PUSH1 0x40 MLOAD DUP1 DUP4 SUB DUP2 DUP7 DUP1 EXTCODESIZE ISZERO DUP1 ISZERO PUSH3 0x78A JUMPI PUSH1 0x0 DUP1 REVERT JUMPDEST POP GAS STATICCALL ISZERO DUP1 ISZERO PUSH3 0x79F JUMPI RETURNDATASIZE PUSH1 0x0 DUP1 RETURNDATACOPY RETURNDATASIZE PUSH1 0x0 REVERT JUMPDEST POP POP POP POP PUSH1 0x40 MLOAD RETURNDATASIZE PUSH1 0x1F NOT PUSH1 0x1F DUP3 ADD AND DUP3 ADD DUP1 PUSH1 0x40 MSTORE POP DUP2 ADD SWAP1 PUSH3 0x7C5 SWAP2 SWAP1 PUSH3 0x1AE1 JUMP JUMPDEST SWAP1 POP DUP7 PUSH1 0x0 DUP1 DUP4 PUSH20 0xFFFFFFFFFFFFFFFFFFFFFFFFFFFFFFFFFFFFFFFF AND PUSH20 0xFFFFFFFFFFFFFFFFFFFFFFFFFFFFFFFFFFFFFFFF AND DUP2 MSTORE PUSH1 0x20 ADD SWAP1 DUP2 MSTORE PUSH1 0x20 ADD PUSH1 0x0 KECCAK256 PUSH1 0x0 PUSH2 0x100 EXP DUP2 SLOAD DUP2 PUSH20 0xFFFFFFFFFFFFFFFFFFFFFFFFFFFFFFFFFFFFFFFF MUL NOT AND SWAP1 DUP4 PUSH20 0xFFFFFFFFFFFFFFFFFFFFFFFFFFFFFFFFFFFFFFFF AND MUL OR SWAP1 SSTORE POP POP POP POP POP POP POP POP JUMP JUMPDEST DUP5 CALLER PUSH20 0xFFFFFFFFFFFFFFFFFFFFFFFFFFFFFFFFFFFFFFFF AND PUSH1 0x0 DUP1 DUP4 PUSH20 0xFFFFFFFFFFFFFFFFFFFFFFFFFFFFFFFFFFFFFFFF AND PUSH20 0xFFFFFFFFFFFFFFFFFFFFFFFFFFFFFFFFFFFFFFFF AND DUP2 MSTORE PUSH1 0x20 ADD SWAP1 DUP2 MSTORE PUSH1 0x20 ADD PUSH1 0x0 KECCAK256 PUSH1 0x0 SWAP1 SLOAD SWAP1 PUSH2 0x100 EXP SWAP1 DIV PUSH20 0xFFFFFFFFFFFFFFFFFFFFFFFFFFFFFFFFFFFFFFFF AND PUSH20 0xFFFFFFFFFFFFFFFFFFFFFFFFFFFFFFFFFFFFFFFF AND EQ PUSH3 0x8E5 JUMPI PUSH1 0x0 DUP1 REVERT JUMPDEST DUP6 PUSH20 0xFFFFFFFFFFFFFFFFFFFFFFFFFFFFFFFFFFFFFFFF AND PUSH4 0x7ED8A719 DUP7 DUP7 DUP7 DUP7 PUSH1 0x40 MLOAD DUP6 PUSH4 0xFFFFFFFF AND PUSH1 0xE0 SHL DUP2 MSTORE PUSH1 0x4 ADD PUSH3 0x926 SWAP5 SWAP4 SWAP3 SWAP2 SWAP1 PUSH3 0x1630 JUMP JUMPDEST PUSH1 0x0 PUSH1 0x40 MLOAD DUP1 DUP4 SUB DUP2 PUSH1 0x0 DUP8 DUP1 EXTCODESIZE ISZERO DUP1 ISZERO PUSH3 0x941 JUMPI PUSH1 0x0 DUP1 REVERT JUMPDEST POP GAS CALL ISZERO DUP1 ISZERO PUSH3 0x956 JUMPI RETURNDATASIZE PUSH1 0x0 DUP1 RETURNDATACOPY RETURNDATASIZE PUSH1 0x0 REVERT JUMPDEST POP POP POP POP POP POP POP POP POP POP JUMP JUMPDEST DUP5 CALLER PUSH20 0xFFFFFFFFFFFFFFFFFFFFFFFFFFFFFFFFFFFFFFFF AND PUSH1 0x0 DUP1 DUP4 PUSH20 0xFFFFFFFFFFFFFFFFFFFFFFFFFFFFFFFFFFFFFFFF AND PUSH20 0xFFFFFFFFFFFFFFFFFFFFFFFFFFFFFFFFFFFFFFFF AND DUP2 MSTORE PUSH1 0x20 ADD SWAP1 DUP2 MSTORE PUSH1 0x20 ADD PUSH1 0x0 KECCAK256 PUSH1 0x0 SWAP1 SLOAD SWAP1 PUSH2 0x100 EXP SWAP1 DIV PUSH20 0xFFFFFFFFFFFFFFFFFFFFFFFFFFFFFFFFFFFFFFFF AND PUSH20 0xFFFFFFFFFFFFFFFFFFFFFFFFFFFFFFFFFFFFFFFF AND EQ PUSH3 0x9FA JUMPI PUSH1 0x0 DUP1 REVERT JUMPDEST DUP6 PUSH20 0xFFFFFFFFFFFFFFFFFFFFFFFFFFFFFFFFFFFFFFFF AND PUSH4 0x695C27C2 DUP7 DUP7 DUP7 DUP7 PUSH1 0x40 MLOAD DUP6 PUSH4 0xFFFFFFFF AND PUSH1 0xE0 SHL DUP2 MSTORE PUSH1 0x4 ADD PUSH3 0xA3B SWAP5 SWAP4 SWAP3 SWAP2 SWAP1 PUSH3 0x1B24 JUMP JUMPDEST PUSH1 0x0 PUSH1 0x40 MLOAD DUP1 DUP4 SUB DUP2 PUSH1 0x0 DUP8 DUP1 EXTCODESIZE ISZERO DUP1 ISZERO PUSH3 0xA56 JUMPI PUSH1 0x0 DUP1 REVERT JUMPDEST POP GAS CALL ISZERO DUP1 ISZERO PUSH3 0xA6B JUMPI RETURNDATASIZE PUSH1 0x0 DUP1 RETURNDATACOPY RETURNDATASIZE PUSH1 0x0 REVERT JUMPDEST POP POP POP POP POP POP POP POP POP POP JUMP JUMPDEST PUSH2 0x8A2 DUP1 PUSH3 0x1B72 DUP4 CODECOPY ADD SWAP1 JUMP JUMPDEST PUSH1 0x0 PUSH1 0x40 MLOAD SWAP1 POP SWAP1 JUMP JUMPDEST PUSH1 0x0 DUP1 REVERT JUMPDEST PUSH1 0x0 DUP1 REVERT JUMPDEST PUSH1 0x0 PUSH20 0xFFFFFFFFFFFFFFFFFFFFFFFFFFFFFFFFFFFFFFFF DUP3 AND SWAP1 POP SWAP2 SWAP1 POP JUMP JUMPDEST PUSH1 0x0 PUSH3 0xAC6 DUP3 PUSH3 0xA99 JUMP JUMPDEST SWAP1 POP SWAP2 SWAP1 POP JUMP JUMPDEST PUSH3 0xAD8 DUP2 PUSH3 0xAB9 JUMP JUMPDEST DUP2 EQ PUSH3 0xAE4 JUMPI PUSH1 0x0 DUP1 REVERT JUMPDEST POP JUMP JUMPDEST PUSH1 0x0 DUP2 CALLDATALOAD SWAP1 POP PUSH3 0xAF8 DUP2 PUSH3 0xACD JUMP JUMPDEST SWAP3 SWAP2 POP POP JUMP JUMPDEST PUSH1 0x0 DUP2 SWAP1 POP SWAP2 SWAP1 POP JUMP JUMPDEST PUSH3 0xB13 DUP2 PUSH3 0xAFE JUMP JUMPDEST DUP2 EQ PUSH3 0xB1F JUMPI PUSH1 0x0 DUP1 REVERT JUMPDEST POP JUMP JUMPDEST PUSH1 0x0 DUP2 CALLDATALOAD SWAP1 POP PUSH3 0xB33 DUP2 PUSH3 0xB08 JUMP JUMPDEST SWAP3 SWAP2 POP POP JUMP JUMPDEST PUSH1 0x0 DUP1 PUSH1 0x0 DUP1 PUSH1 0x80 DUP6 DUP8 SUB SLT ISZERO PUSH3 0xB56 JUMPI PUSH3 0xB55 PUSH3 0xA8F JUMP JUMPDEST JUMPDEST PUSH1 0x0 PUSH3 0xB66 DUP8 DUP3 DUP9 ADD PUSH3 0xAE7 JUMP JUMPDEST SWAP5 POP POP PUSH1 0x20 PUSH3 0xB79 DUP8 DUP3 DUP9 ADD PUSH3 0xB22 JUMP JUMPDEST SWAP4 POP POP PUSH1 0x40 PUSH3 0xB8C DUP8 DUP3 DUP9 ADD PUSH3 0xAE7 JUMP JUMPDEST SWAP3 POP POP PUSH1 0x60 PUSH3 0xB9F DUP8 DUP3 DUP9 ADD PUSH3 0xAE7 JUMP JUMPDEST SWAP2 POP POP SWAP3 SWAP6 SWAP2 SWAP5 POP SWAP3 POP JUMP JUMPDEST PUSH1 0x0 DUP1 PUSH1 0x40 DUP4 DUP6 SUB SLT ISZERO PUSH3 0xBC5 JUMPI PUSH3 0xBC4 PUSH3 0xA8F JUMP JUMPDEST JUMPDEST PUSH1 0x0 PUSH3 0xBD5 DUP6 DUP3 DUP7 ADD PUSH3 0xAE7 JUMP JUMPDEST SWAP3 POP POP PUSH1 0x20 PUSH3 0xBE8 DUP6 DUP3 DUP7 ADD PUSH3 0xAE7 JUMP JUMPDEST SWAP2 POP POP SWAP3 POP SWAP3 SWAP1 POP JUMP JUMPDEST PUSH1 0x0 DUP1 REVERT JUMPDEST PUSH1 0x0 DUP1 REVERT JUMPDEST PUSH1 0x0 DUP1 REVERT JUMPDEST PUSH1 0x0 DUP1 DUP4 PUSH1 0x1F DUP5 ADD SLT PUSH3 0xC1A JUMPI PUSH3 0xC19 PUSH3 0xBF2 JUMP JUMPDEST JUMPDEST DUP3 CALLDATALOAD SWAP1 POP PUSH8 0xFFFFFFFFFFFFFFFF DUP2 GT ISZERO PUSH3 0xC3A JUMPI PUSH3 0xC39 PUSH3 0xBF7 JUMP JUMPDEST JUMPDEST PUSH1 0x20 DUP4 ADD SWAP2 POP DUP4 PUSH1 0x1 DUP3 MUL DUP4 ADD GT ISZERO PUSH3 0xC59 JUMPI PUSH3 0xC58 PUSH3 0xBFC JUMP JUMPDEST JUMPDEST SWAP3 POP SWAP3 SWAP1 POP JUMP JUMPDEST PUSH1 0x0 DUP2 SWAP1 POP SWAP2 SWAP1 POP JUMP JUMPDEST PUSH3 0xC75 DUP2 PUSH3 0xC60 JUMP JUMPDEST DUP2 EQ PUSH3 0xC81 JUMPI PUSH1 0x0 DUP1 REVERT JUMPDEST POP JUMP JUMPDEST PUSH1 0x0 DUP2 CALLDATALOAD SWAP1 POP PUSH3 0xC95 DUP2 PUSH3 0xC6A JUMP JUMPDEST SWAP3 SWAP2 POP POP JUMP JUMPDEST PUSH1 0x0 PUSH1 0x1F NOT PUSH1 0x1F DUP4 ADD AND SWAP1 POP SWAP2 SWAP1 POP JUMP JUMPDEST PUSH32 0x4E487B7100000000000000000000000000000000000000000000000000000000 PUSH1 0x0 MSTORE PUSH1 0x41 PUSH1 0x4 MSTORE PUSH1 0x24 PUSH1 0x0 REVERT JUMPDEST PUSH3 0xCE6 DUP3 PUSH3 0xC9B JUMP JUMPDEST DUP2 ADD DUP2 DUP2 LT PUSH8 0xFFFFFFFFFFFFFFFF DUP3 GT OR ISZERO PUSH3 0xD08 JUMPI PUSH3 0xD07 PUSH3 0xCAC JUMP JUMPDEST JUMPDEST DUP1 PUSH1 0x40 MSTORE POP POP POP JUMP JUMPDEST PUSH1 0x0 PUSH3 0xD1D PUSH3 0xA85 JUMP JUMPDEST SWAP1 POP PUSH3 0xD2B DUP3 DUP3 PUSH3 0xCDB JUMP JUMPDEST SWAP2 SWAP1 POP JUMP JUMPDEST PUSH1 0x0 PUSH8 0xFFFFFFFFFFFFFFFF DUP3 GT ISZERO PUSH3 0xD4E JUMPI PUSH3 0xD4D PUSH3 0xCAC JUMP JUMPDEST JUMPDEST PUSH1 0x20 DUP3 MUL SWAP1 POP PUSH1 0x20 DUP2 ADD SWAP1 POP SWAP2 SWAP1 POP JUMP JUMPDEST PUSH1 0x0 DUP1 REVERT JUMPDEST PUSH1 0x0 PUSH8 0xFFFFFFFFFFFFFFFF DUP3 GT ISZERO PUSH3 0xD82 JUMPI PUSH3 0xD81 PUSH3 0xCAC JUMP JUMPDEST JUMPDEST PUSH3 0xD8D DUP3 PUSH3 0xC9B JUMP JUMPDEST SWAP1 POP PUSH1 0x20 DUP2 ADD SWAP1 POP SWAP2 SWAP1 POP JUMP JUMPDEST DUP3 DUP2 DUP4 CALLDATACOPY PUSH1 0x0 DUP4 DUP4 ADD MSTORE POP POP POP JUMP JUMPDEST PUSH1 0x0 PUSH3 0xDC0 PUSH3 0xDBA DUP5 PUSH3 0xD64 JUMP JUMPDEST PUSH3 0xD11 JUMP JUMPDEST SWAP1 POP DUP3 DUP2 MSTORE PUSH1 0x20 DUP2 ADD DUP5 DUP5 DUP5 ADD GT ISZERO PUSH3 0xDDF JUMPI PUSH3 0xDDE PUSH3 0xD5F JUMP JUMPDEST JUMPDEST PUSH3 0xDEC DUP5 DUP3 DUP6 PUSH3 0xD9A JUMP JUMPDEST POP SWAP4 SWAP3 POP POP POP JUMP JUMPDEST PUSH1 0x0 DUP3 PUSH1 0x1F DUP4 ADD SLT PUSH3 0xE0C JUMPI PUSH3 0xE0B PUSH3 0xBF2 JUMP JUMPDEST JUMPDEST DUP2 CALLDATALOAD PUSH3 0xE1E DUP5 DUP3 PUSH1 0x20 DUP7 ADD PUSH3 0xDA9 JUMP JUMPDEST SWAP2 POP POP SWAP3 SWAP2 POP POP JUMP JUMPDEST PUSH1 0x0 PUSH3 0xE3E PUSH3 0xE38 DUP5 PUSH3 0xD30 JUMP JUMPDEST PUSH3 0xD11 JUMP JUMPDEST SWAP1 POP DUP1 DUP4 DUP3 MSTORE PUSH1 0x20 DUP3 ADD SWAP1 POP PUSH1 0x20 DUP5 MUL DUP4 ADD DUP6 DUP2 GT ISZERO PUSH3 0xE64 JUMPI PUSH3 0xE63 PUSH3 0xBFC JUMP JUMPDEST JUMPDEST DUP4 JUMPDEST DUP2 DUP2 LT ISZERO PUSH3 0xEB2 JUMPI DUP1 CALLDATALOAD PUSH8 0xFFFFFFFFFFFFFFFF DUP2 GT ISZERO PUSH3 0xE8D JUMPI PUSH3 0xE8C PUSH3 0xBF2 JUMP JUMPDEST JUMPDEST DUP1 DUP7 ADD PUSH3 0xE9C DUP10 DUP3 PUSH3 0xDF4 JUMP JUMPDEST DUP6 MSTORE PUSH1 0x20 DUP6 ADD SWAP5 POP POP POP PUSH1 0x20 DUP2 ADD SWAP1 POP PUSH3 0xE66 JUMP JUMPDEST POP POP POP SWAP4 SWAP3 POP POP POP JUMP JUMPDEST PUSH1 0x0 DUP3 PUSH1 0x1F DUP4 ADD SLT PUSH3 0xED4 JUMPI PUSH3 0xED3 PUSH3 0xBF2 JUMP JUMPDEST JUMPDEST DUP2 CALLDATALOAD PUSH3 0xEE6 DUP5 DUP3 PUSH1 0x20 DUP7 ADD PUSH3 0xE27 JUMP JUMPDEST SWAP2 POP POP SWAP3 SWAP2 POP POP JUMP JUMPDEST PUSH1 0x0 PUSH8 0xFFFFFFFFFFFFFFFF DUP3 GT ISZERO PUSH3 0xF0D JUMPI PUSH3 0xF0C PUSH3 0xCAC JUMP JUMPDEST JUMPDEST PUSH1 0x20 DUP3 MUL SWAP1 POP PUSH1 0x20 DUP2 ADD SWAP1 POP SWAP2 SWAP1 POP JUMP JUMPDEST PUSH1 0x0 PUSH3 0xF35 PUSH3 0xF2F DUP5 PUSH3 0xEEF JUMP JUMPDEST PUSH3 0xD11 JUMP JUMPDEST SWAP1 POP DUP1 DUP4 DUP3 MSTORE PUSH1 0x20 DUP3 ADD SWAP1 POP PUSH1 0x20 DUP5 MUL DUP4 ADD DUP6 DUP2 GT ISZERO PUSH3 0xF5B JUMPI PUSH3 0xF5A PUSH3 0xBFC JUMP JUMPDEST JUMPDEST DUP4 JUMPDEST DUP2 DUP2 LT ISZERO PUSH3 0xF88 JUMPI DUP1 PUSH3 0xF73 DUP9 DUP3 PUSH3 0xC84 JUMP JUMPDEST DUP5 MSTORE PUSH1 0x20 DUP5 ADD SWAP4 POP POP PUSH1 0x20 DUP2 ADD SWAP1 POP PUSH3 0xF5D JUMP JUMPDEST POP POP POP SWAP4 SWAP3 POP POP POP JUMP JUMPDEST PUSH1 0x0 DUP3 PUSH1 0x1F DUP4 ADD SLT PUSH3 0xFAA JUMPI PUSH3 0xFA9 PUSH3 0xBF2 JUMP JUMPDEST JUMPDEST DUP2 CALLDATALOAD PUSH3 0xFBC DUP5 DUP3 PUSH1 0x20 DUP7 ADD PUSH3 0xF1E JUMP JUMPDEST SWAP2 POP POP SWAP3 SWAP2 POP POP JUMP JUMPDEST PUSH1 0x0 DUP1 PUSH1 0x0 DUP1 PUSH1 0x0 DUP1 PUSH1 0x0 DUP1 PUSH1 0x0 DUP1 PUSH1 0xE0 DUP12 DUP14 SUB SLT ISZERO PUSH3 0xFEB JUMPI PUSH3 0xFEA PUSH3 0xA8F JUMP JUMPDEST JUMPDEST PUSH1 0x0 PUSH3 0xFFB DUP14 DUP3 DUP15 ADD PUSH3 0xAE7 JUMP JUMPDEST SWAP11 POP POP PUSH1 0x20 DUP12 ADD CALLDATALOAD PUSH8 0xFFFFFFFFFFFFFFFF DUP2 GT ISZERO PUSH3 0x101F JUMPI PUSH3 0x101E PUSH3 0xA94 JUMP JUMPDEST JUMPDEST PUSH3 0x102D DUP14 DUP3 DUP15 ADD PUSH3 0xC01 JUMP JUMPDEST SWAP10 POP SWAP10 POP POP PUSH1 0x40 DUP12 ADD CALLDATALOAD PUSH8 0xFFFFFFFFFFFFFFFF DUP2 GT ISZERO PUSH3 0x1053 JUMPI PUSH3 0x1052 PUSH3 0xA94 JUMP JUMPDEST JUMPDEST PUSH3 0x1061 DUP14 DUP3 DUP15 ADD PUSH3 0xC01 JUMP JUMPDEST SWAP8 POP SWAP8 POP POP PUSH1 0x60 DUP12 ADD CALLDATALOAD PUSH8 0xFFFFFFFFFFFFFFFF DUP2 GT ISZERO PUSH3 0x1087 JUMPI PUSH3 0x1086 PUSH3 0xA94 JUMP JUMPDEST JUMPDEST PUSH3 0x1095 DUP14 DUP3 DUP15 ADD PUSH3 0xC01 JUMP JUMPDEST SWAP6 POP SWAP6 POP POP PUSH1 0x80 PUSH3 0x10AA DUP14 DUP3 DUP15 ADD PUSH3 0xC84 JUMP JUMPDEST SWAP4 POP POP PUSH1 0xA0 DUP12 ADD CALLDATALOAD PUSH8 0xFFFFFFFFFFFFFFFF DUP2 GT ISZERO PUSH3 0x10CE JUMPI PUSH3 0x10CD PUSH3 0xA94 JUMP JUMPDEST JUMPDEST PUSH3 0x10DC DUP14 DUP3 DUP15 ADD PUSH3 0xEBC JUMP JUMPDEST SWAP3 POP POP PUSH1 0xC0 DUP12 ADD CALLDATALOAD PUSH8 0xFFFFFFFFFFFFFFFF DUP2 GT ISZERO PUSH3 0x1100 JUMPI PUSH3 0x10FF PUSH3 0xA94 JUMP JUMPDEST JUMPDEST PUSH3 0x110E DUP14 DUP3 DUP15 ADD PUSH3 0xF92 JUMP JUMPDEST SWAP2 POP POP SWAP3 SWAP6 SWAP9 SWAP12 SWAP2 SWAP5 SWAP8 SWAP11 POP SWAP3 SWAP6 SWAP9 POP JUMP JUMPDEST PUSH1 0x0 DUP1 PUSH1 0x0 DUP1 PUSH1 0x0 DUP1 PUSH1 0xA0 DUP8 DUP10 SUB SLT ISZERO PUSH3 0x1140 JUMPI PUSH3 0x113F PUSH3 0xA8F JUMP JUMPDEST JUMPDEST PUSH1 0x0 PUSH3 0x1150 DUP10 DUP3 DUP11 ADD PUSH3 0xAE7 JUMP JUMPDEST SWAP7 POP POP PUSH1 0x20 DUP8 ADD CALLDATALOAD PUSH8 0xFFFFFFFFFFFFFFFF DUP2 GT ISZERO PUSH3 0x1174 JUMPI PUSH3 0x1173 PUSH3 0xA94 JUMP JUMPDEST JUMPDEST PUSH3 0x1182 DUP10 DUP3 DUP11 ADD PUSH3 0xC01 JUMP JUMPDEST SWAP6 POP SWAP6 POP POP PUSH1 0x40 PUSH3 0x1197 DUP10 DUP3 DUP11 ADD PUSH3 0xC84 JUMP JUMPDEST SWAP4 POP POP PUSH1 0x60 DUP8 ADD CALLDATALOAD PUSH8 0xFFFFFFFFFFFFFFFF DUP2 GT ISZERO PUSH3 0x11BB JUMPI PUSH3 0x11BA PUSH3 0xA94 JUMP JUMPDEST JUMPDEST PUSH3 0x11C9 DUP10 DUP3 DUP11 ADD PUSH3 0xEBC JUMP JUMPDEST SWAP3 POP POP PUSH1 0x80 DUP8 ADD CALLDATALOAD PUSH8 0xFFFFFFFFFFFFFFFF DUP2 GT ISZERO PUSH3 0x11ED JUMPI PUSH3 0x11EC PUSH3 0xA94 JUMP JUMPDEST JUMPDEST PUSH3 0x11FB DUP10 DUP3 DUP11 ADD PUSH3 0xF92 JUMP JUMPDEST SWAP2 POP POP SWAP3 SWAP6 POP SWAP3 SWAP6 POP SWAP3 SWAP6 JUMP JUMPDEST PUSH1 0x0 PUSH8 0xFFFFFFFFFFFFFFFF DUP3 GT ISZERO PUSH3 0x1226 JUMPI PUSH3 0x1225 PUSH3 0xCAC JUMP JUMPDEST JUMPDEST PUSH1 0x20 DUP3 MUL SWAP1 POP PUSH1 0x20 DUP2 ADD SWAP1 POP SWAP2 SWAP1 POP JUMP JUMPDEST PUSH1 0x0 PUSH3 0x124E PUSH3 0x1248 DUP5 PUSH3 0x1208 JUMP JUMPDEST PUSH3 0xD11 JUMP JUMPDEST SWAP1 POP DUP1 DUP4 DUP3 MSTORE PUSH1 0x20 DUP3 ADD SWAP1 POP PUSH1 0x20 DUP5 MUL DUP4 ADD DUP6 DUP2 GT ISZERO PUSH3 0x1274 JUMPI PUSH3 0x1273 PUSH3 0xBFC JUMP JUMPDEST JUMPDEST DUP4 JUMPDEST DUP2 DUP2 LT ISZERO PUSH3 0x12A1 JUMPI DUP1 PUSH3 0x128C DUP9 DUP3 PUSH3 0xB22 JUMP JUMPDEST DUP5 MSTORE PUSH1 0x20 DUP5 ADD SWAP4 POP POP PUSH1 0x20 DUP2 ADD SWAP1 POP PUSH3 0x1276 JUMP JUMPDEST POP POP POP SWAP4 SWAP3 POP POP POP JUMP JUMPDEST PUSH1 0x0 DUP3 PUSH1 0x1F DUP4 ADD SLT PUSH3 0x12C3 JUMPI PUSH3 0x12C2 PUSH3 0xBF2 JUMP JUMPDEST JUMPDEST DUP2 CALLDATALOAD PUSH3 0x12D5 DUP5 DUP3 PUSH1 0x20 DUP7 ADD PUSH3 0x1237 JUMP JUMPDEST SWAP2 POP POP SWAP3 SWAP2 POP POP JUMP JUMPDEST PUSH1 0x0 DUP1 PUSH1 0x0 DUP1 PUSH1 0x0 DUP1 PUSH1 0xC0 DUP8 DUP10 SUB SLT ISZERO PUSH3 0x12FE JUMPI PUSH3 0x12FD PUSH3 0xA8F JUMP JUMPDEST JUMPDEST PUSH1 0x0 PUSH3 0x130E DUP10 DUP3 DUP11 ADD PUSH3 0xAE7 JUMP JUMPDEST SWAP7 POP POP PUSH1 0x20 DUP8 ADD CALLDATALOAD PUSH8 0xFFFFFFFFFFFFFFFF DUP2 GT ISZERO PUSH3 0x1332 JUMPI PUSH3 0x1331 PUSH3 0xA94 JUMP JUMPDEST JUMPDEST PUSH3 0x1340 DUP10 DUP3 DUP11 ADD PUSH3 0xDF4 JUMP JUMPDEST SWAP6 POP POP PUSH1 0x40 PUSH3 0x1353 DUP10 DUP3 DUP11 ADD PUSH3 0xB22 JUMP JUMPDEST SWAP5 POP POP PUSH1 0x60 DUP8 ADD CALLDATALOAD PUSH8 0xFFFFFFFFFFFFFFFF DUP2 GT ISZERO PUSH3 0x1377 JUMPI PUSH3 0x1376 PUSH3 0xA94 JUMP JUMPDEST JUMPDEST PUSH3 0x1385 DUP10 DUP3 DUP11 ADD PUSH3 0xDF4 JUMP JUMPDEST SWAP4 POP POP PUSH1 0x80 DUP8 ADD CALLDATALOAD PUSH8 0xFFFFFFFFFFFFFFFF DUP2 GT ISZERO PUSH3 0x13A9 JUMPI PUSH3 0x13A8 PUSH3 0xA94 JUMP JUMPDEST JUMPDEST PUSH3 0x13B7 DUP10 DUP3 DUP11 ADD PUSH3 0x12AB JUMP JUMPDEST SWAP3 POP POP PUSH1 0xA0 PUSH3 0x13CA DUP10 DUP3 DUP11 ADD PUSH3 0xC84 JUMP JUMPDEST SWAP2 POP POP SWAP3 SWAP6 POP SWAP3 SWAP6 POP SWAP3 SWAP6 JUMP JUMPDEST PUSH1 0x0 DUP1 PUSH1 0x0 DUP1 PUSH1 0x0 PUSH1 0x60 DUP7 DUP9 SUB SLT ISZERO PUSH3 0x13F6 JUMPI PUSH3 0x13F5 PUSH3 0xA8F JUMP JUMPDEST JUMPDEST PUSH1 0x0 PUSH3 0x1406 DUP9 DUP3 DUP10 ADD PUSH3 0xAE7 JUMP JUMPDEST SWAP6 POP POP PUSH1 0x20 DUP7 ADD CALLDATALOAD PUSH8 0xFFFFFFFFFFFFFFFF DUP2 GT ISZERO PUSH3 0x142A JUMPI PUSH3 0x1429 PUSH3 0xA94 JUMP JUMPDEST JUMPDEST PUSH3 0x1438 DUP9 DUP3 DUP10 ADD PUSH3 0xC01 JUMP JUMPDEST SWAP5 POP SWAP5 POP POP PUSH1 0x40 DUP7 ADD CALLDATALOAD PUSH8 0xFFFFFFFFFFFFFFFF DUP2 GT ISZERO PUSH3 0x145E JUMPI PUSH3 0x145D PUSH3 0xA94 JUMP JUMPDEST JUMPDEST PUSH3 0x146C DUP9 DUP3 DUP10 ADD PUSH3 0xC01 JUMP JUMPDEST SWAP3 POP SWAP3 POP POP SWAP3 SWAP6 POP SWAP3 SWAP6 SWAP1 SWAP4 POP JUMP JUMPDEST PUSH1 0x0 DUP2 ISZERO ISZERO SWAP1 POP SWAP2 SWAP1 POP JUMP JUMPDEST PUSH3 0x1492 DUP2 PUSH3 0x147B JUMP JUMPDEST DUP2 EQ PUSH3 0x149E JUMPI PUSH1 0x0 DUP1 REVERT JUMPDEST POP JUMP JUMPDEST PUSH1 0x0 DUP2 CALLDATALOAD SWAP1 POP PUSH3 0x14B2 DUP2 PUSH3 0x1487 JUMP JUMPDEST SWAP3 SWAP2 POP POP JUMP JUMPDEST PUSH1 0x0 DUP1 PUSH1 0x0 DUP1 PUSH1 0x0 PUSH1 0xA0 DUP7 DUP9 SUB SLT ISZERO PUSH3 0x14D7 JUMPI PUSH3 0x14D6 PUSH3 0xA8F JUMP JUMPDEST JUMPDEST PUSH1 0x0 PUSH3 0x14E7 DUP9 DUP3 DUP10 ADD PUSH3 0xAE7 JUMP JUMPDEST SWAP6 POP POP PUSH1 0x20 PUSH3 0x14FA DUP9 DUP3 DUP10 ADD PUSH3 0xC84 JUMP JUMPDEST SWAP5 POP POP PUSH1 0x40 PUSH3 0x150D DUP9 DUP3 DUP10 ADD PUSH3 0xC84 JUMP JUMPDEST SWAP4 POP POP PUSH1 0x60 PUSH3 0x1520 DUP9 DUP3 DUP10 ADD PUSH3 0xC84 JUMP JUMPDEST SWAP3 POP POP PUSH1 0x80 PUSH3 0x1533 DUP9 DUP3 DUP10 ADD PUSH3 0x14A1 JUMP JUMPDEST SWAP2 POP POP SWAP3 SWAP6 POP SWAP3 SWAP6 SWAP1 SWAP4 POP JUMP JUMPDEST PUSH3 0x154B DUP2 PUSH3 0xAB9 JUMP JUMPDEST DUP3 MSTORE POP POP JUMP JUMPDEST PUSH3 0x155C DUP2 PUSH3 0xAFE JUMP JUMPDEST DUP3 MSTORE POP POP JUMP JUMPDEST PUSH1 0x0 PUSH1 0x60 DUP3 ADD SWAP1 POP PUSH3 0x1579 PUSH1 0x0 DUP4 ADD DUP7 PUSH3 0x1540 JUMP JUMPDEST PUSH3 0x1588 PUSH1 0x20 DUP4 ADD DUP6 PUSH3 0x1540 JUMP JUMPDEST PUSH3 0x1597 PUSH1 0x40 DUP4 ADD DUP5 PUSH3 0x1551 JUMP JUMPDEST SWAP5 SWAP4 POP POP POP POP JUMP JUMPDEST PUSH1 0x0 PUSH1 0x80 DUP3 ADD SWAP1 POP PUSH3 0x15B6 PUSH1 0x0 DUP4 ADD DUP8 PUSH3 0x1551 JUMP JUMPDEST PUSH3 0x15C5 PUSH1 0x20 DUP4 ADD DUP7 PUSH3 0x1540 JUMP JUMPDEST PUSH3 0x15D4 PUSH1 0x40 DUP4 ADD DUP6 PUSH3 0x1540 JUMP JUMPDEST PUSH3 0x15E3 PUSH1 0x60 DUP4 ADD DUP5 PUSH3 0x1540 JUMP JUMPDEST SWAP6 SWAP5 POP POP POP POP POP JUMP JUMPDEST PUSH1 0x0 DUP3 DUP3 MSTORE PUSH1 0x20 DUP3 ADD SWAP1 POP SWAP3 SWAP2 POP POP JUMP JUMPDEST PUSH1 0x0 PUSH3 0x160B DUP4 DUP6 PUSH3 0x15EC JUMP JUMPDEST SWAP4 POP PUSH3 0x161A DUP4 DUP6 DUP5 PUSH3 0xD9A JUMP JUMPDEST PUSH3 0x1625 DUP4 PUSH3 0xC9B JUMP JUMPDEST DUP5 ADD SWAP1 POP SWAP4 SWAP3 POP POP POP JUMP JUMPDEST PUSH1 0x0 PUSH1 0x40 DUP3 ADD SWAP1 POP DUP2 DUP2 SUB PUSH1 0x0 DUP4 ADD MSTORE PUSH3 0x164D DUP2 DUP7 DUP9 PUSH3 0x15FD JUMP JUMPDEST SWAP1 POP DUP2 DUP2 SUB PUSH1 0x20 DUP4 ADD MSTORE PUSH3 0x1664 DUP2 DUP5 DUP7 PUSH3 0x15FD JUMP JUMPDEST SWAP1 POP SWAP6 SWAP5 POP POP POP POP POP JUMP JUMPDEST PUSH3 0x167A DUP2 PUSH3 0xC60 JUMP JUMPDEST DUP3 MSTORE POP POP JUMP JUMPDEST PUSH1 0x0 DUP2 MLOAD SWAP1 POP SWAP2 SWAP1 POP JUMP JUMPDEST PUSH1 0x0 DUP3 DUP3 MSTORE PUSH1 0x20 DUP3 ADD SWAP1 POP SWAP3 SWAP2 POP POP JUMP JUMPDEST PUSH1 0x0 DUP2 SWAP1 POP PUSH1 0x20 DUP3 ADD SWAP1 POP SWAP2 SWAP1 POP JUMP JUMPDEST PUSH1 0x0 DUP2 MLOAD SWAP1 POP SWAP2 SWAP1 POP JUMP JUMPDEST PUSH1 0x0 DUP3 DUP3 MSTORE PUSH1 0x20 DUP3 ADD SWAP1 POP SWAP3 SWAP2 POP POP JUMP JUMPDEST PUSH1 0x0 JUMPDEST DUP4 DUP2 LT ISZERO PUSH3 0x16E8 JUMPI DUP1 DUP3 ADD MLOAD DUP2 DUP5 ADD MSTORE PUSH1 0x20 DUP2 ADD SWAP1 POP PUSH3 0x16CB JUMP JUMPDEST DUP4 DUP2 GT ISZERO PUSH3 0x16F8 JUMPI PUSH1 0x0 DUP5 DUP5 ADD MSTORE JUMPDEST POP POP POP POP JUMP JUMPDEST PUSH1 0x0 PUSH3 0x170B DUP3 PUSH3 0x16AC JUMP JUMPDEST PUSH3 0x1717 DUP2 DUP6 PUSH3 0x16B7 JUMP JUMPDEST SWAP4 POP PUSH3 0x1729 DUP2 DUP6 PUSH1 0x20 DUP7 ADD PUSH3 0x16C8 JUMP JUMPDEST PUSH3 0x1734 DUP2 PUSH3 0xC9B JUMP JUMPDEST DUP5 ADD SWAP2 POP POP SWAP3 SWAP2 POP POP JUMP JUMPDEST PUSH1 0x0 PUSH3 0x174D DUP4 DUP4 PUSH3 0x16FE JUMP JUMPDEST SWAP1 POP SWAP3 SWAP2 POP POP JUMP JUMPDEST PUSH1 0x0 PUSH1 0x20 DUP3 ADD SWAP1 POP SWAP2 SWAP1 POP JUMP JUMPDEST PUSH1 0x0 PUSH3 0x176F DUP3 PUSH3 0x1680 JUMP JUMPDEST PUSH3 0x177B DUP2 DUP6 PUSH3 0x168B JUMP JUMPDEST SWAP4 POP DUP4 PUSH1 0x20 DUP3 MUL DUP6 ADD PUSH3 0x178F DUP6 PUSH3 0x169C JUMP JUMPDEST DUP1 PUSH1 0x0 JUMPDEST DUP6 DUP2 LT ISZERO PUSH3 0x17D1 JUMPI DUP5 DUP5 SUB DUP10 MSTORE DUP2 MLOAD PUSH3 0x17AF DUP6 DUP3 PUSH3 0x173F JUMP JUMPDEST SWAP5 POP PUSH3 0x17BC DUP4 PUSH3 0x1755 JUMP JUMPDEST SWAP3 POP PUSH1 0x20 DUP11 ADD SWAP10 POP POP PUSH1 0x1 DUP2 ADD SWAP1 POP PUSH3 0x1793 JUMP JUMPDEST POP DUP3 SWAP8 POP DUP8 SWAP6 POP POP POP POP POP POP SWAP3 SWAP2 POP POP JUMP JUMPDEST PUSH1 0x0 DUP2 MLOAD SWAP1 POP SWAP2 SWAP1 POP JUMP JUMPDEST PUSH1 0x0 DUP3 DUP3 MSTORE PUSH1 0x20 DUP3 ADD SWAP1 POP SWAP3 SWAP2 POP POP JUMP JUMPDEST PUSH1 0x0 DUP2 SWAP1 POP PUSH1 0x20 DUP3 ADD SWAP1 POP SWAP2 SWAP1 POP JUMP JUMPDEST PUSH3 0x181A DUP2 PUSH3 0xC60 JUMP JUMPDEST DUP3 MSTORE POP POP JUMP JUMPDEST PUSH1 0x0 PUSH3 0x182E DUP4 DUP4 PUSH3 0x180F JUMP JUMPDEST PUSH1 0x20 DUP4 ADD SWAP1 POP SWAP3 SWAP2 POP POP JUMP JUMPDEST PUSH1 0x0 PUSH1 0x20 DUP3 ADD SWAP1 POP SWAP2 SWAP1 POP JUMP JUMPDEST PUSH1 0x0 PUSH3 0x1854 DUP3 PUSH3 0x17E3 JUMP JUMPDEST PUSH3 0x1860 DUP2 DUP6 PUSH3 0x17EE JUMP JUMPDEST SWAP4 POP PUSH3 0x186D DUP4 PUSH3 0x17FF JUMP JUMPDEST DUP1 PUSH1 0x0 JUMPDEST DUP4 DUP2 LT ISZERO PUSH3 0x18A4 JUMPI DUP2 MLOAD PUSH3 0x1888 DUP9 DUP3 PUSH3 0x1820 JUMP JUMPDEST SWAP8 POP PUSH3 0x1895 DUP4 PUSH3 0x183A JUMP JUMPDEST SWAP3 POP POP PUSH1 0x1 DUP2 ADD SWAP1 POP PUSH3 0x1871 JUMP JUMPDEST POP DUP6 SWAP4 POP POP POP POP SWAP3 SWAP2 POP POP JUMP JUMPDEST PUSH1 0x0 PUSH1 0x80 DUP3 ADD SWAP1 POP DUP2 DUP2 SUB PUSH1 0x0 DUP4 ADD MSTORE PUSH3 0x18CE DUP2 DUP8 DUP10 PUSH3 0x15FD JUMP JUMPDEST SWAP1 POP PUSH3 0x18DF PUSH1 0x20 DUP4 ADD DUP7 PUSH3 0x166F JUMP JUMPDEST DUP2 DUP2 SUB PUSH1 0x40 DUP4 ADD MSTORE PUSH3 0x18F3 DUP2 DUP6 PUSH3 0x1762 JUMP JUMPDEST SWAP1 POP DUP2 DUP2 SUB PUSH1 0x60 DUP4 ADD MSTORE PUSH3 0x1909 DUP2 DUP5 PUSH3 0x1847 JUMP JUMPDEST SWAP1 POP SWAP7 SWAP6 POP POP POP POP POP POP JUMP JUMPDEST PUSH1 0x0 PUSH3 0x1922 DUP3 PUSH3 0x16AC JUMP JUMPDEST PUSH3 0x192E DUP2 DUP6 PUSH3 0x15EC JUMP JUMPDEST SWAP4 POP PUSH3 0x1940 DUP2 DUP6 PUSH1 0x20 DUP7 ADD PUSH3 0x16C8 JUMP JUMPDEST PUSH3 0x194B DUP2 PUSH3 0xC9B JUMP JUMPDEST DUP5 ADD SWAP2 POP POP SWAP3 SWAP2 POP POP JUMP JUMPDEST PUSH1 0x0 DUP2 MLOAD SWAP1 POP SWAP2 SWAP1 POP JUMP JUMPDEST PUSH1 0x0 DUP3 DUP3 MSTORE PUSH1 0x20 DUP3 ADD SWAP1 POP SWAP3 SWAP2 POP POP JUMP JUMPDEST PUSH1 0x0 DUP2 SWAP1 POP PUSH1 0x20 DUP3 ADD SWAP1 POP SWAP2 SWAP1 POP JUMP JUMPDEST PUSH3 0x198D DUP2 PUSH3 0xAFE JUMP JUMPDEST DUP3 MSTORE POP POP JUMP JUMPDEST PUSH1 0x0 PUSH3 0x19A1 DUP4 DUP4 PUSH3 0x1982 JUMP JUMPDEST PUSH1 0x20 DUP4 ADD SWAP1 POP SWAP3 SWAP2 POP POP JUMP JUMPDEST PUSH1 0x0 PUSH1 0x20 DUP3 ADD SWAP1 POP SWAP2 SWAP1 POP JUMP JUMPDEST PUSH1 0x0 PUSH3 0x19C7 DUP3 PUSH3 0x1956 JUMP JUMPDEST PUSH3 0x19D3 DUP2 DUP6 PUSH3 0x1961 JUMP JUMPDEST SWAP4 POP PUSH3 0x19E0 DUP4 PUSH3 0x1972 JUMP JUMPDEST DUP1 PUSH1 0x0 JUMPDEST DUP4 DUP2 LT ISZERO PUSH3 0x1A17 JUMPI DUP2 MLOAD PUSH3 0x19FB DUP9 DUP3 PUSH3 0x1993 JUMP JUMPDEST SWAP8 POP PUSH3 0x1A08 DUP4 PUSH3 0x19AD JUMP JUMPDEST SWAP3 POP POP PUSH1 0x1 DUP2 ADD SWAP1 POP PUSH3 0x19E4 JUMP JUMPDEST POP DUP6 SWAP4 POP POP POP POP SWAP3 SWAP2 POP POP JUMP JUMPDEST PUSH1 0x0 PUSH1 0xC0 DUP3 ADD SWAP1 POP PUSH3 0x1A3B PUSH1 0x0 DUP4 ADD DUP10 PUSH3 0x1540 JUMP JUMPDEST DUP2 DUP2 SUB PUSH1 0x20 DUP4 ADD MSTORE PUSH3 0x1A4F DUP2 DUP9 PUSH3 0x1915 JUMP JUMPDEST SWAP1 POP PUSH3 0x1A60 PUSH1 0x40 DUP4 ADD DUP8 PUSH3 0x1551 JUMP JUMPDEST DUP2 DUP2 SUB PUSH1 0x60 DUP4 ADD MSTORE PUSH3 0x1A74 DUP2 DUP7 PUSH3 0x1915 JUMP JUMPDEST SWAP1 POP DUP2 DUP2 SUB PUSH1 0x80 DUP4 ADD MSTORE PUSH3 0x1A8A DUP2 DUP6 PUSH3 0x19BA JUMP JUMPDEST SWAP1 POP PUSH3 0x1A9B PUSH1 0xA0 DUP4 ADD DUP5 PUSH3 0x166F JUMP JUMPDEST SWAP8 SWAP7 POP POP POP POP POP POP POP JUMP JUMPDEST PUSH1 0x0 PUSH1 0x20 DUP3 ADD SWAP1 POP DUP2 DUP2 SUB PUSH1 0x0 DUP4 ADD MSTORE PUSH3 0x1AC2 DUP2 DUP5 PUSH3 0x1915 JUMP JUMPDEST SWAP1 POP SWAP3 SWAP2 POP POP JUMP JUMPDEST PUSH1 0x0 DUP2 MLOAD SWAP1 POP PUSH3 0x1ADB DUP2 PUSH3 0xACD JUMP JUMPDEST SWAP3 SWAP2 POP POP JUMP JUMPDEST PUSH1 0x0 PUSH1 0x20 DUP3 DUP5 SUB SLT ISZERO PUSH3 0x1AFA JUMPI PUSH3 0x1AF9 PUSH3 0xA8F JUMP JUMPDEST JUMPDEST PUSH1 0x0 PUSH3 0x1B0A DUP5 DUP3 DUP6 ADD PUSH3 0x1ACA JUMP JUMPDEST SWAP2 POP POP SWAP3 SWAP2 POP POP JUMP JUMPDEST PUSH3 0x1B1E DUP2 PUSH3 0x147B JUMP JUMPDEST DUP3 MSTORE POP POP JUMP JUMPDEST PUSH1 0x0 PUSH1 0x80 DUP3 ADD SWAP1 POP PUSH3 0x1B3B PUSH1 0x0 DUP4 ADD DUP8 PUSH3 0x166F JUMP JUMPDEST PUSH3 0x1B4A PUSH1 0x20 DUP4 ADD DUP7 PUSH3 0x166F JUMP JUMPDEST PUSH3 0x1B59 PUSH1 0x40 DUP4 ADD DUP6 PUSH3 0x166F JUMP JUMPDEST PUSH3 0x1B68 PUSH1 0x60 DUP4 ADD DUP5 PUSH3 0x1B13 JUMP JUMPDEST SWAP6 SWAP5 POP POP POP POP POP JUMP INVALID PUSH1 0x80 PUSH1 0x40 MSTORE CALLVALUE DUP1 ISZERO PUSH2 0x10 JUMPI PUSH1 0x0 DUP1 REVERT JUMPDEST POP PUSH1 0x40 MLOAD PUSH2 0x8A2 CODESIZE SUB DUP1 PUSH2 0x8A2 DUP4 CODECOPY DUP2 DUP2 ADD PUSH1 0x40 MSTORE DUP2 ADD SWAP1 PUSH2 0x32 SWAP2 SWAP1 PUSH2 0x15B JUMP JUMPDEST DUP3 PUSH1 0x0 DUP1 PUSH2 0x100 EXP DUP2 SLOAD DUP2 PUSH20 0xFFFFFFFFFFFFFFFFFFFFFFFFFFFFFFFFFFFFFFFF MUL NOT AND SWAP1 DUP4 PUSH20 0xFFFFFFFFFFFFFFFFFFFFFFFFFFFFFFFFFFFFFFFF AND MUL OR SWAP1 SSTORE POP DUP2 PUSH1 0x1 PUSH1 0x0 PUSH2 0x100 EXP DUP2 SLOAD DUP2 PUSH20 0xFFFFFFFFFFFFFFFFFFFFFFFFFFFFFFFFFFFFFFFF MUL NOT AND SWAP1 DUP4 PUSH20 0xFFFFFFFFFFFFFFFFFFFFFFFFFFFFFFFFFFFFFFFF AND MUL OR SWAP1 SSTORE POP DUP1 PUSH1 0x2 DUP2 SWAP1 SSTORE POP POP POP POP PUSH2 0x1AE JUMP JUMPDEST PUSH1 0x0 DUP1 REVERT JUMPDEST PUSH1 0x0 PUSH20 0xFFFFFFFFFFFFFFFFFFFFFFFFFFFFFFFFFFFFFFFF DUP3 AND SWAP1 POP SWAP2 SWAP1 POP JUMP JUMPDEST PUSH1 0x0 PUSH2 0xF2 DUP3 PUSH2 0xC7 JUMP JUMPDEST SWAP1 POP SWAP2 SWAP1 POP JUMP JUMPDEST PUSH2 0x102 DUP2 PUSH2 0xE7 JUMP JUMPDEST DUP2 EQ PUSH2 0x10D JUMPI PUSH1 0x0 DUP1 REVERT JUMPDEST POP JUMP JUMPDEST PUSH1 0x0 DUP2 MLOAD SWAP1 POP PUSH2 0x11F DUP2 PUSH2 0xF9 JUMP JUMPDEST SWAP3 SWAP2 POP POP JUMP JUMPDEST PUSH1 0x0 DUP2 SWAP1 POP SWAP2 SWAP1 POP JUMP JUMPDEST PUSH2 0x138 DUP2 PUSH2 0x125 JUMP JUMPDEST DUP2 EQ PUSH2 0x143 JUMPI PUSH1 0x0 DUP1 REVERT JUMPDEST POP JUMP JUMPDEST PUSH1 0x0 DUP2 MLOAD SWAP1 POP PUSH2 0x155 DUP2 PUSH2 0x12F JUMP JUMPDEST SWAP3 SWAP2 POP POP JUMP JUMPDEST PUSH1 0x0 DUP1 PUSH1 0x0 PUSH1 0x60 DUP5 DUP7 SUB SLT ISZERO PUSH2 0x174 JUMPI PUSH2 0x173 PUSH2 0xC2 JUMP JUMPDEST JUMPDEST PUSH1 0x0 PUSH2 0x182 DUP7 DUP3 DUP8 ADD PUSH2 0x110 JUMP JUMPDEST SWAP4 POP POP PUSH1 0x20 PUSH2 0x193 DUP7 DUP3 DUP8 ADD PUSH2 0x110 JUMP JUMPDEST SWAP3 POP POP PUSH1 0x40 PUSH2 0x1A4 DUP7 DUP3 DUP8 ADD PUSH2 0x146 JUMP JUMPDEST SWAP2 POP POP SWAP3 POP SWAP3 POP SWAP3 JUMP JUMPDEST PUSH2 0x6E5 DUP1 PUSH2 0x1BD PUSH1 0x0 CODECOPY PUSH1 0x0 RETURN INVALID PUSH1 0x80 PUSH1 0x40 MSTORE CALLVALUE DUP1 ISZERO PUSH2 0x10 JUMPI PUSH1 0x0 DUP1 REVERT JUMPDEST POP PUSH1 0x4 CALLDATASIZE LT PUSH2 0x7D JUMPI PUSH1 0x0 CALLDATALOAD PUSH1 0xE0 SHR DUP1 PUSH4 0x4F15FC06 GT PUSH2 0x5B JUMPI DUP1 PUSH4 0x4F15FC06 EQ PUSH2 0xDC JUMPI DUP1 PUSH4 0x60A56B3A EQ PUSH2 0xFA JUMPI DUP1 PUSH4 0x6CCCBE5E EQ PUSH2 0x116 JUMPI DUP1 PUSH4 0x8F94B8C2 EQ PUSH2 0x134 JUMPI PUSH2 0x7D JUMP JUMPDEST DUP1 PUSH4 0x186BC549 EQ PUSH2 0x82 JUMPI DUP1 PUSH4 0x4575D5C5 EQ PUSH2 0xA0 JUMPI DUP1 PUSH4 0x4B1D123B EQ PUSH2 0xBE JUMPI JUMPDEST PUSH1 0x0 DUP1 REVERT JUMPDEST PUSH2 0x8A PUSH2 0x150 JUMP JUMPDEST PUSH1 0x40 MLOAD PUSH2 0x97 SWAP2 SWAP1 PUSH2 0x2F4 JUMP JUMPDEST PUSH1 0x40 MLOAD DUP1 SWAP2 SUB SWAP1 RETURN JUMPDEST PUSH2 0xA8 PUSH2 0x15A JUMP JUMPDEST PUSH1 0x40 MLOAD PUSH2 0xB5 SWAP2 SWAP1 PUSH2 0x328 JUMP JUMPDEST PUSH1 0x40 MLOAD DUP1 SWAP2 SUB SWAP1 RETURN JUMPDEST PUSH2 0xC6 PUSH2 0x164 JUMP JUMPDEST PUSH1 0x40 MLOAD PUSH2 0xD3 SWAP2 SWAP1 PUSH2 0x2F4 JUMP JUMPDEST PUSH1 0x40 MLOAD DUP1 SWAP2 SUB SWAP1 RETURN JUMPDEST PUSH2 0xE4 PUSH2 0x180 JUMP JUMPDEST PUSH1 0x40 MLOAD PUSH2 0xF1 SWAP2 SWAP1 PUSH2 0x2F4 JUMP JUMPDEST PUSH1 0x40 MLOAD DUP1 SWAP2 SUB SWAP1 RETURN JUMPDEST PUSH2 0x114 PUSH1 0x4 DUP1 CALLDATASIZE SUB DUP2 ADD SWAP1 PUSH2 0x10F SWAP2 SWAP1 PUSH2 0x3D2 JUMP JUMPDEST PUSH2 0x18A JUMP JUMPDEST STOP JUMPDEST PUSH2 0x11E PUSH2 0x2AD JUMP JUMPDEST PUSH1 0x40 MLOAD PUSH2 0x12B SWAP2 SWAP1 PUSH2 0x2F4 JUMP JUMPDEST PUSH1 0x40 MLOAD DUP1 SWAP2 SUB SWAP1 RETURN JUMPDEST PUSH2 0x14E PUSH1 0x4 DUP1 CALLDATASIZE SUB DUP2 ADD SWAP1 PUSH2 0x149 SWAP2 SWAP1 PUSH2 0x425 JUMP JUMPDEST PUSH2 0x2D1 JUMP JUMPDEST STOP JUMPDEST PUSH1 0x0 PUSH1 0x3 SLOAD SWAP1 POP SWAP1 JUMP JUMPDEST PUSH1 0x0 PUSH1 0x2 SLOAD SWAP1 POP SWAP1 JUMP JUMPDEST PUSH1 0x0 PUSH2 0x16E PUSH2 0x2AD JUMP JUMPDEST PUSH1 0x3 SLOAD PUSH2 0x17B SWAP2 SWAP1 PUSH2 0x481 JUMP JUMPDEST SWAP1 POP SWAP1 JUMP JUMPDEST PUSH1 0x0 PUSH1 0x4 SLOAD SWAP1 POP SWAP1 JUMP JUMPDEST PUSH1 0x1 PUSH1 0x0 SWAP1 SLOAD SWAP1 PUSH2 0x100 EXP SWAP1 DIV PUSH20 0xFFFFFFFFFFFFFFFFFFFFFFFFFFFFFFFFFFFFFFFF AND PUSH20 0xFFFFFFFFFFFFFFFFFFFFFFFFFFFFFFFFFFFFFFFF AND CALLER PUSH20 0xFFFFFFFFFFFFFFFFFFFFFFFFFFFFFFFFFFFFFFFF AND EQ PUSH2 0x21A JUMPI PUSH1 0x40 MLOAD PUSH32 0x8C379A000000000000000000000000000000000000000000000000000000000 DUP2 MSTORE PUSH1 0x4 ADD PUSH2 0x211 SWAP1 PUSH2 0x538 JUMP JUMPDEST PUSH1 0x40 MLOAD DUP1 SWAP2 SUB SWAP1 REVERT JUMPDEST DUP2 PUSH20 0xFFFFFFFFFFFFFFFFFFFFFFFFFFFFFFFFFFFFFFFF AND PUSH4 0xA9059CBB DUP5 DUP4 PUSH1 0x40 MLOAD DUP4 PUSH4 0xFFFFFFFF AND PUSH1 0xE0 SHL DUP2 MSTORE PUSH1 0x4 ADD PUSH2 0x255 SWAP3 SWAP2 SWAP1 PUSH2 0x567 JUMP JUMPDEST PUSH1 0x20 PUSH1 0x40 MLOAD DUP1 DUP4 SUB DUP2 PUSH1 0x0 DUP8 DUP1 EXTCODESIZE ISZERO DUP1 ISZERO PUSH2 0x26F JUMPI PUSH1 0x0 DUP1 REVERT JUMPDEST POP GAS CALL ISZERO DUP1 ISZERO PUSH2 0x283 JUMPI RETURNDATASIZE PUSH1 0x0 DUP1 RETURNDATACOPY RETURNDATASIZE PUSH1 0x0 REVERT JUMPDEST POP POP POP POP PUSH1 0x40 MLOAD RETURNDATASIZE PUSH1 0x1F NOT PUSH1 0x1F DUP3 ADD AND DUP3 ADD DUP1 PUSH1 0x40 MSTORE POP DUP2 ADD SWAP1 PUSH2 0x2A7 SWAP2 SWAP1 PUSH2 0x5C8 JUMP JUMPDEST POP POP POP POP JUMP JUMPDEST PUSH1 0x0 PUSH2 0x2710 PUSH1 0x4 SLOAD PUSH1 0x3 SLOAD PUSH2 0x2C2 SWAP2 SWAP1 PUSH2 0x5F5 JUMP JUMPDEST PUSH2 0x2CC SWAP2 SWAP1 PUSH2 0x67E JUMP JUMPDEST SWAP1 POP SWAP1 JUMP JUMPDEST DUP1 PUSH1 0x4 DUP2 SWAP1 SSTORE POP POP JUMP JUMPDEST PUSH1 0x0 DUP2 SWAP1 POP SWAP2 SWAP1 POP JUMP JUMPDEST PUSH2 0x2EE DUP2 PUSH2 0x2DB JUMP JUMPDEST DUP3 MSTORE POP POP JUMP JUMPDEST PUSH1 0x0 PUSH1 0x20 DUP3 ADD SWAP1 POP PUSH2 0x309 PUSH1 0x0 DUP4 ADD DUP5 PUSH2 0x2E5 JUMP JUMPDEST SWAP3 SWAP2 POP POP JUMP JUMPDEST PUSH1 0x0 DUP2 SWAP1 POP SWAP2 SWAP1 POP JUMP JUMPDEST PUSH2 0x322 DUP2 PUSH2 0x30F JUMP JUMPDEST DUP3 MSTORE POP POP JUMP JUMPDEST PUSH1 0x0 PUSH1 0x20 DUP3 ADD SWAP1 POP PUSH2 0x33D PUSH1 0x0 DUP4 ADD DUP5 PUSH2 0x319 JUMP JUMPDEST SWAP3 SWAP2 POP POP JUMP JUMPDEST PUSH1 0x0 DUP1 REVERT JUMPDEST PUSH1 0x0 PUSH20 0xFFFFFFFFFFFFFFFFFFFFFFFFFFFFFFFFFFFFFFFF DUP3 AND SWAP1 POP SWAP2 SWAP1 POP JUMP JUMPDEST PUSH1 0x0 PUSH2 0x373 DUP3 PUSH2 0x348 JUMP JUMPDEST SWAP1 POP SWAP2 SWAP1 POP JUMP JUMPDEST PUSH2 0x383 DUP2 PUSH2 0x368 JUMP JUMPDEST DUP2 EQ PUSH2 0x38E JUMPI PUSH1 0x0 DUP1 REVERT JUMPDEST POP JUMP JUMPDEST PUSH1 0x0 DUP2 CALLDATALOAD SWAP1 POP PUSH2 0x3A0 DUP2 PUSH2 0x37A JUMP JUMPDEST SWAP3 SWAP2 POP POP JUMP JUMPDEST PUSH2 0x3AF DUP2 PUSH2 0x2DB JUMP JUMPDEST DUP2 EQ PUSH2 0x3BA JUMPI PUSH1 0x0 DUP1 REVERT JUMPDEST POP JUMP JUMPDEST PUSH1 0x0 DUP2 CALLDATALOAD SWAP1 POP PUSH2 0x3CC DUP2 PUSH2 0x3A6 JUMP JUMPDEST SWAP3 SWAP2 POP POP JUMP JUMPDEST PUSH1 0x0 DUP1 PUSH1 0x0 PUSH1 0x60 DUP5 DUP7 SUB SLT ISZERO PUSH2 0x3EB JUMPI PUSH2 0x3EA PUSH2 0x343 JUMP JUMPDEST JUMPDEST PUSH1 0x0 PUSH2 0x3F9 DUP7 DUP3 DUP8 ADD PUSH2 0x391 JUMP JUMPDEST SWAP4 POP POP PUSH1 0x20 PUSH2 0x40A DUP7 DUP3 DUP8 ADD PUSH2 0x391 JUMP JUMPDEST SWAP3 POP POP PUSH1 0x40 PUSH2 0x41B DUP7 DUP3 DUP8 ADD PUSH2 0x3BD JUMP JUMPDEST SWAP2 POP POP SWAP3 POP SWAP3 POP SWAP3 JUMP JUMPDEST PUSH1 0x0 PUSH1 0x20 DUP3 DUP5 SUB SLT ISZERO PUSH2 0x43B JUMPI PUSH2 0x43A PUSH2 0x343 JUMP JUMPDEST JUMPDEST PUSH1 0x0 PUSH2 0x449 DUP5 DUP3 DUP6 ADD PUSH2 0x3BD JUMP JUMPDEST SWAP2 POP POP SWAP3 SWAP2 POP POP JUMP JUMPDEST PUSH32 0x4E487B7100000000000000000000000000000000000000000000000000000000 PUSH1 0x0 MSTORE PUSH1 0x11 PUSH1 0x4 MSTORE PUSH1 0x24 PUSH1 0x0 REVERT JUMPDEST PUSH1 0x0 PUSH2 0x48C DUP3 PUSH2 0x2DB JUMP JUMPDEST SWAP2 POP PUSH2 0x497 DUP4 PUSH2 0x2DB JUMP JUMPDEST SWAP3 POP DUP3 DUP3 LT ISZERO PUSH2 0x4AA JUMPI PUSH2 0x4A9 PUSH2 0x452 JUMP JUMPDEST JUMPDEST DUP3 DUP3 SUB SWAP1 POP SWAP3 SWAP2 POP POP JUMP JUMPDEST PUSH1 0x0 DUP3 DUP3 MSTORE PUSH1 0x20 DUP3 ADD SWAP1 POP SWAP3 SWAP2 POP POP JUMP JUMPDEST PUSH32 0x43616D706169676E54726561737572793A2043616C6C6572206973206E6F7420 PUSH1 0x0 DUP3 ADD MSTORE PUSH32 0x43616D706169676E496E666F20636F6E74726163740000000000000000000000 PUSH1 0x20 DUP3 ADD MSTORE POP JUMP JUMPDEST PUSH1 0x0 PUSH2 0x522 PUSH1 0x35 DUP4 PUSH2 0x4B5 JUMP JUMPDEST SWAP2 POP PUSH2 0x52D DUP3 PUSH2 0x4C6 JUMP JUMPDEST PUSH1 0x40 DUP3 ADD SWAP1 POP SWAP2 SWAP1 POP JUMP JUMPDEST PUSH1 0x0 PUSH1 0x20 DUP3 ADD SWAP1 POP DUP2 DUP2 SUB PUSH1 0x0 DUP4 ADD MSTORE PUSH2 0x551 DUP2 PUSH2 0x515 JUMP JUMPDEST SWAP1 POP SWAP2 SWAP1 POP JUMP JUMPDEST PUSH2 0x561 DUP2 PUSH2 0x368 JUMP JUMPDEST DUP3 MSTORE POP POP JUMP JUMPDEST PUSH1 0x0 PUSH1 0x40 DUP3 ADD SWAP1 POP PUSH2 0x57C PUSH1 0x0 DUP4 ADD DUP6 PUSH2 0x558 JUMP JUMPDEST PUSH2 0x589 PUSH1 0x20 DUP4 ADD DUP5 PUSH2 0x2E5 JUMP JUMPDEST SWAP4 SWAP3 POP POP POP JUMP JUMPDEST PUSH1 0x0 DUP2 ISZERO ISZERO SWAP1 POP SWAP2 SWAP1 POP JUMP JUMPDEST PUSH2 0x5A5 DUP2 PUSH2 0x590 JUMP JUMPDEST DUP2 EQ PUSH2 0x5B0 JUMPI PUSH1 0x0 DUP1 REVERT JUMPDEST POP JUMP JUMPDEST PUSH1 0x0 DUP2 MLOAD SWAP1 POP PUSH2 0x5C2 DUP2 PUSH2 0x59C JUMP JUMPDEST SWAP3 SWAP2 POP POP JUMP JUMPDEST PUSH1 0x0 PUSH1 0x20 DUP3 DUP5 SUB SLT ISZERO PUSH2 0x5DE JUMPI PUSH2 0x5DD PUSH2 0x343 JUMP JUMPDEST JUMPDEST PUSH1 0x0 PUSH2 0x5EC DUP5 DUP3 DUP6 ADD PUSH2 0x5B3 JUMP JUMPDEST SWAP2 POP POP SWAP3 SWAP2 POP POP JUMP JUMPDEST PUSH1 0x0 PUSH2 0x600 DUP3 PUSH2 0x2DB JUMP JUMPDEST SWAP2 POP PUSH2 0x60B DUP4 PUSH2 0x2DB JUMP JUMPDEST SWAP3 POP DUP2 PUSH32 0xFFFFFFFFFFFFFFFFFFFFFFFFFFFFFFFFFFFFFFFFFFFFFFFFFFFFFFFFFFFFFFFF DIV DUP4 GT DUP3 ISZERO ISZERO AND ISZERO PUSH2 0x644 JUMPI PUSH2 0x643 PUSH2 0x452 JUMP JUMPDEST JUMPDEST DUP3 DUP3 MUL SWAP1 POP SWAP3 SWAP2 POP POP JUMP JUMPDEST PUSH32 0x4E487B7100000000000000000000000000000000000000000000000000000000 PUSH1 0x0 MSTORE PUSH1 0x12 PUSH1 0x4 MSTORE PUSH1 0x24 PUSH1 0x0 REVERT JUMPDEST PUSH1 0x0 PUSH2 0x689 DUP3 PUSH2 0x2DB JUMP JUMPDEST SWAP2 POP PUSH2 0x694 DUP4 PUSH2 0x2DB JUMP JUMPDEST SWAP3 POP DUP3 PUSH2 0x6A4 JUMPI PUSH2 0x6A3 PUSH2 0x64F JUMP JUMPDEST JUMPDEST DUP3 DUP3 DIV SWAP1 POP SWAP3 SWAP2 POP POP JUMP INVALID LOG2 PUSH5 0x6970667358 0x22 SLT KECCAK256 0xD9 0xAC SWAP15 NUMBER SWAP3 PUSH28 0xAE7CC90A0FBDDEEBE859351F54203E5F4F5BCBEB43A454538C816473 PUSH16 0x6C63430008090033A264697066735822 SLT KECCAK256 0x23 0xE2 0xDE 0xB9 0xCB 0xB0 RETURN SWAP8 PUSH32 0x35D56A749FE2E90DA9BED31554553C2A055B9A56CD988C64736F6C6343000809 STOP CALLER "},"methodIdentifiers":{"addItem(address,string,string)":"d3caea4f","addItemAndReward(address,string,string,string,uint256,string[],uint256[])":"a909bb33","addReward(address,string,uint256,string[],uint256[])":"ab4d9b5f","createCampaign(address,string,bytes32,string,bytes32[],uint256)":"c77e6f65","initialize(address,address)":"485cc955","setLaunch(address,uint256,uint256,uint256,bool)":"fbe121fa","setTreasury(address,bytes32,address,address)":"33d556d7"}}}}}