{"contracts/CampaignInfoFactory.sol":{"CampaignInfoFactory":{"abi":[{"anonymous":false,"inputs":[{"indexed":true,"internalType":"address","name":"previousOwner","type":"address"},{"indexed":true,"internalType":"address","name":"newOwner","type":"address"}],"name":"OwnershipTransferred","type":"event"},{"anonymous":false,"inputs":[{"indexed":false,"internalType":"string","name":"identifier","type":"string"},{"indexed":true,"internalType":"address","name":"campaignInfoAddress","type":"address"}],"name":"campaignCreation","type":"event"},{"inputs":[{"internalType":"string","name":"_identifier","type":"string"},{"internalType":"bytes32","name":"_originPlatform","type":"bytes32"},{"internalType":"uint256","name":"_goalAmount","type":"uint256"},{"internalType":"uint256","name":"_launchTime","type":"uint256"},{"internalType":"uint256","name":"_deadline","type":"uint256"},{"internalType":"uint256","name":"_platformTotalFeePercent","type":"uint256"},{"internalType":"uint256","name":"_rewardPlatformFeePercent","type":"uint256"},{"internalType":"string","name":"_creatorUrl","type":"string"},{"internalType":"bytes32[]","name":"_reachPlatform","type":"bytes32[]"}],"name":"createCampaign","outputs":[],"stateMutability":"nonpayable","type":"function"},{"inputs":[],"name":"owner","outputs":[{"internalType":"address","name":"","type":"address"}],"stateMutability":"view","type":"function"},{"inputs":[],"name":"renounceOwnership","outputs":[],"stateMutability":"nonpayable","type":"function"},{"inputs":[{"internalType":"address","name":"_campaignRegistry","type":"address"}],"name":"setRegistry","outputs":[],"stateMutability":"nonpayable","type":"function"},{"inputs":[{"internalType":"address","name":"newOwner","type":"address"}],"name":"transferOwnership","outputs":[],"stateMutability":"nonpayable","type":"function"}],"evm":{"bytecode":{"linkReferences":{},"object":"608060405234801561001057600080fd5b5061002d61002261003260201b60201c565b61003a60201b60201c565b6100fe565b600033905090565b60008060009054906101000a900473ffffffffffffffffffffffffffffffffffffffff169050816000806101000a81548173ffffffffffffffffffffffffffffffffffffffff021916908373ffffffffffffffffffffffffffffffffffffffff1602179055508173ffffffffffffffffffffffffffffffffffffffff168173ffffffffffffffffffffffffffffffffffffffff167f8be0079c531659141344cd1fd0a4f28419497f9722a3daafe3b4186f6b6457e060405160405180910390a35050565b6158588061010d6000396000f3fe60806040523480156200001157600080fd5b50600436106200005e5760003560e01c8063537d148a1462000063578063715018a614620000835780638da5cb5b146200008f578063a91ee0dc14620000b1578063f2fde38b14620000d1575b600080fd5b6200008160048036038101906200007b919062000890565b620000f1565b005b6200008d62000335565b005b620000996200034d565b604051620000a8919062000a11565b60405180910390f35b620000cf6004803603810190620000c9919062000a5f565b62000376565b005b620000ef6004803603810190620000e9919062000a5f565b620003df565b005b620000fb6200046a565b600260149054906101000a900460ff166200011557600080fd5b888888888888888888600260009054906101000a900473ffffffffffffffffffffffffffffffffffffffff166040516200014f90620005bb565b620001649a9998979695949392919062000c14565b604051809103906000f08015801562000181573d6000803e3d6000fd5b50600160006101000a81548173ffffffffffffffffffffffffffffffffffffffff021916908373ffffffffffffffffffffffffffffffffffffffff160217905550600073ffffffffffffffffffffffffffffffffffffffff16600160009054906101000a900473ffffffffffffffffffffffffffffffffffffffff1673ffffffffffffffffffffffffffffffffffffffff1614156200021f57600080fd5b6000600160009054906101000a900473ffffffffffffffffffffffffffffffffffffffff169050600260009054906101000a900473ffffffffffffffffffffffffffffffffffffffff1673ffffffffffffffffffffffffffffffffffffffff16632c64ba158b836040518363ffffffff1660e01b8152600401620002a592919062000cd9565b600060405180830381600087803b158015620002c057600080fd5b505af1158015620002d5573d6000803e3d6000fd5b505050508073ffffffffffffffffffffffffffffffffffffffff167ff4d491a6f1d235565138b729aec590f73a429a7debf862af41af0d001ab8da378b60405162000321919062000d0d565b60405180910390a250505050505050505050565b6200033f6200046a565b6200034b6000620004ef565b565b60008060009054906101000a900473ffffffffffffffffffffffffffffffffffffffff16905090565b620003806200046a565b80600260006101000a81548173ffffffffffffffffffffffffffffffffffffffff021916908373ffffffffffffffffffffffffffffffffffffffff1602179055506001600260146101000a81548160ff02191690831515021790555050565b620003e96200046a565b600073ffffffffffffffffffffffffffffffffffffffff168173ffffffffffffffffffffffffffffffffffffffff1614156200045c576040517f08c379a0000000000000000000000000000000000000000000000000000000008152600401620004539062000da7565b60405180910390fd5b6200046781620004ef565b50565b62000474620005b3565b73ffffffffffffffffffffffffffffffffffffffff16620004946200034d565b73ffffffffffffffffffffffffffffffffffffffff1614620004ed576040517f08c379a0000000000000000000000000000000000000000000000000000000008152600401620004e49062000e19565b60405180910390fd5b565b60008060009054906101000a900473ffffffffffffffffffffffffffffffffffffffff169050816000806101000a81548173ffffffffffffffffffffffffffffffffffffffff021916908373ffffffffffffffffffffffffffffffffffffffff1602179055508173ffffffffffffffffffffffffffffffffffffffff168173ffffffffffffffffffffffffffffffffffffffff167f8be0079c531659141344cd1fd0a4f28419497f9722a3daafe3b4186f6b6457e060405160405180910390a35050565b600033905090565b6149e78062000e3c83390190565b6000604051905090565b600080fd5b600080fd5b600080fd5b600080fd5b6000601f19601f8301169050919050565b7f4e487b7100000000000000000000000000000000000000000000000000000000600052604160045260246000fd5b6200063282620005e7565b810181811067ffffffffffffffff82111715620006545762000653620005f8565b5b80604052505050565b600062000669620005c9565b905062000677828262000627565b919050565b600067ffffffffffffffff8211156200069a5762000699620005f8565b5b620006a582620005e7565b9050602081019050919050565b82818337600083830152505050565b6000620006d8620006d2846200067c565b6200065d565b905082815260208101848484011115620006f757620006f6620005e2565b5b62000704848285620006b2565b509392505050565b600082601f830112620007245762000723620005dd565b5b813562000736848260208601620006c1565b91505092915050565b6000819050919050565b62000754816200073f565b81146200076057600080fd5b50565b600081359050620007748162000749565b92915050565b6000819050919050565b6200078f816200077a565b81146200079b57600080fd5b50565b600081359050620007af8162000784565b92915050565b600067ffffffffffffffff821115620007d357620007d2620005f8565b5b602082029050602081019050919050565b600080fd5b600062000800620007fa84620007b5565b6200065d565b90508083825260208201905060208402830185811115620008265762000825620007e4565b5b835b818110156200085357806200083e888262000763565b84526020840193505060208101905062000828565b5050509392505050565b600082601f830112620008755762000874620005dd565b5b813562000887848260208601620007e9565b91505092915050565b60008060008060008060008060006101208a8c031215620008b657620008b5620005d3565b5b60008a013567ffffffffffffffff811115620008d757620008d6620005d8565b5b620008e58c828d016200070c565b9950506020620008f88c828d0162000763565b98505060406200090b8c828d016200079e565b97505060606200091e8c828d016200079e565b9650506080620009318c828d016200079e565b95505060a0620009448c828d016200079e565b94505060c0620009578c828d016200079e565b93505060e08a013567ffffffffffffffff8111156200097b576200097a620005d8565b5b620009898c828d016200070c565b9250506101008a013567ffffffffffffffff811115620009ae57620009ad620005d8565b5b620009bc8c828d016200085d565b9150509295985092959850929598565b600073ffffffffffffffffffffffffffffffffffffffff82169050919050565b6000620009f982620009cc565b9050919050565b62000a0b81620009ec565b82525050565b600060208201905062000a28600083018462000a00565b92915050565b62000a3981620009ec565b811462000a4557600080fd5b50565b60008135905062000a598162000a2e565b92915050565b60006020828403121562000a785762000a77620005d3565b5b600062000a888482850162000a48565b91505092915050565b600081519050919050565b600082825260208201905092915050565b60005b8381101562000acd57808201518184015260208101905062000ab0565b8381111562000add576000848401525b50505050565b600062000af08262000a91565b62000afc818562000a9c565b935062000b0e81856020860162000aad565b62000b1981620005e7565b840191505092915050565b62000b2f816200073f565b82525050565b62000b40816200077a565b82525050565b600081519050919050565b600082825260208201905092915050565b6000819050602082019050919050565b62000b7d816200073f565b82525050565b600062000b91838362000b72565b60208301905092915050565b6000602082019050919050565b600062000bb78262000b46565b62000bc3818562000b51565b935062000bd08362000b62565b8060005b8381101562000c0757815162000beb888262000b83565b975062000bf88362000b9d565b92505060018101905062000bd4565b5085935050505092915050565b600061014082019050818103600083015262000c31818d62000ae3565b905062000c42602083018c62000b24565b62000c51604083018b62000b35565b62000c60606083018a62000b35565b62000c6f608083018962000b35565b62000c7e60a083018862000b35565b62000c8d60c083018762000b35565b81810360e083015262000ca1818662000ae3565b905081810361010083015262000cb8818562000baa565b905062000cca61012083018462000a00565b9b9a5050505050505050505050565b6000604082019050818103600083015262000cf5818562000ae3565b905062000d06602083018462000a00565b9392505050565b6000602082019050818103600083015262000d29818462000ae3565b905092915050565b7f4f776e61626c653a206e6577206f776e657220697320746865207a65726f206160008201527f6464726573730000000000000000000000000000000000000000000000000000602082015250565b600062000d8f60268362000a9c565b915062000d9c8262000d31565b604082019050919050565b6000602082019050818103600083015262000dc28162000d80565b9050919050565b7f4f776e61626c653a2063616c6c6572206973206e6f7420746865206f776e6572600082015250565b600062000e0160208362000a9c565b915062000e0e8262000dc9565b602082019050919050565b6000602082019050818103600083015262000e348162000df2565b905091905056fe60806040526002600b553480156200001657600080fd5b50604051620049e7380380620049e783398181016040528101906200003c9190620006f5565b6200005c62000050620001b560201b60201c565b620001bd60201b60201c565b60008060146101000a81548160ff02191690831515021790555085600a548862000087919062000877565b10620000ca576040517f08c379a0000000000000000000000000000000000000000000000000000000008152600401620000c1906200095b565b60405180910390fd5b8960016000019080519060200190620000e592919062000281565b508860018001819055508760016002018190555086600160030181905550426001600401819055508560016005018190555082600160060190805190602001906200013292919062000281565b5081600160070190805190602001906200014e92919062000312565b5080600960006101000a81548173ffffffffffffffffffffffffffffffffffffffff021916908373ffffffffffffffffffffffffffffffffffffffff16021790555042600f8190555084600d8190555083600e8190555050505050505050505050620009e2565b600033905090565b60008060009054906101000a900473ffffffffffffffffffffffffffffffffffffffff169050816000806101000a81548173ffffffffffffffffffffffffffffffffffffffff021916908373ffffffffffffffffffffffffffffffffffffffff1602179055508173ffffffffffffffffffffffffffffffffffffffff168173ffffffffffffffffffffffffffffffffffffffff167f8be0079c531659141344cd1fd0a4f28419497f9722a3daafe3b4186f6b6457e060405160405180910390a35050565b8280546200028f90620009ac565b90600052602060002090601f016020900481019282620002b35760008555620002ff565b82601f10620002ce57805160ff1916838001178555620002ff565b82800160010185558215620002ff579182015b82811115620002fe578251825591602001919060010190620002e1565b5b5090506200030e919062000364565b5090565b82805482825590600052602060002090810192821562000351579160200282015b828111156200035057825182559160200191906001019062000333565b5b50905062000360919062000383565b5090565b5b808211156200037f57600081600090555060010162000365565b5090565b5b808211156200039e57600081600090555060010162000384565b5090565b6000604051905090565b600080fd5b600080fd5b600080fd5b600080fd5b6000601f19601f8301169050919050565b7f4e487b7100000000000000000000000000000000000000000000000000000000600052604160045260246000fd5b6200040b82620003c0565b810181811067ffffffffffffffff821117156200042d576200042c620003d1565b5b80604052505050565b600062000442620003a2565b905062000450828262000400565b919050565b600067ffffffffffffffff821115620004735762000472620003d1565b5b6200047e82620003c0565b9050602081019050919050565b60005b83811015620004ab5780820151818401526020810190506200048e565b83811115620004bb576000848401525b50505050565b6000620004d8620004d28462000455565b62000436565b905082815260208101848484011115620004f757620004f6620003bb565b5b620005048482856200048b565b509392505050565b600082601f830112620005245762000523620003b6565b5b815162000536848260208601620004c1565b91505092915050565b6000819050919050565b62000554816200053f565b81146200056057600080fd5b50565b600081519050620005748162000549565b92915050565b6000819050919050565b6200058f816200057a565b81146200059b57600080fd5b50565b600081519050620005af8162000584565b92915050565b600067ffffffffffffffff821115620005d357620005d2620003d1565b5b602082029050602081019050919050565b600080fd5b600062000600620005fa84620005b5565b62000436565b90508083825260208201905060208402830185811115620006265762000625620005e4565b5b835b818110156200065357806200063e888262000563565b84526020840193505060208101905062000628565b5050509392505050565b600082601f830112620006755762000674620003b6565b5b815162000687848260208601620005e9565b91505092915050565b600073ffffffffffffffffffffffffffffffffffffffff82169050919050565b6000620006bd8262000690565b9050919050565b620006cf81620006b0565b8114620006db57600080fd5b50565b600081519050620006ef81620006c4565b92915050565b6000806000806000806000806000806101408b8d0312156200071c576200071b620003ac565b5b60008b015167ffffffffffffffff8111156200073d576200073c620003b1565b5b6200074b8d828e016200050c565b9a505060206200075e8d828e0162000563565b9950506040620007718d828e016200059e565b9850506060620007848d828e016200059e565b9750506080620007978d828e016200059e565b96505060a0620007aa8d828e016200059e565b95505060c0620007bd8d828e016200059e565b94505060e08b015167ffffffffffffffff811115620007e157620007e0620003b1565b5b620007ef8d828e016200050c565b9350506101008b015167ffffffffffffffff811115620008145762000813620003b1565b5b620008228d828e016200065d565b925050610120620008368d828e01620006de565b9150509295989b9194979a5092959850565b7f4e487b7100000000000000000000000000000000000000000000000000000000600052601160045260246000fd5b600062000884826200057a565b915062000891836200057a565b9250827fffffffffffffffffffffffffffffffffffffffffffffffffffffffffffffffff03821115620008c957620008c862000848565b5b828201905092915050565b600082825260208201905092915050565b7f43616d706169676e496e666f3a204d696e696d756d2063616d706169676e206460008201527f7561726174696f6e206e6f74206d657400000000000000000000000000000000602082015250565b600062000943603083620008d4565b91506200095082620008e5565b604082019050919050565b60006020820190508181036000830152620009768162000934565b9050919050565b7f4e487b7100000000000000000000000000000000000000000000000000000000600052602260045260246000fd5b60006002820490506001821680620009c557607f821691505b60208210811415620009dc57620009db6200097d565b5b50919050565b613ff580620009f26000396000f3fe608060405234801561001057600080fd5b50600436106101cf5760003560e01c80638456cb5911610104578063deaaf241116100a2578063f2fde38b11610071578063f2fde38b1461048a578063f6b854ff146104a6578063f8403676146104c2578063fb7846df146104e0576101cf565b8063deaaf24114610418578063e12900f214610434578063efbe1c1c14610464578063f18f409f1461046e576101cf565b80639bd4dd3c116100de5780639bd4dd3c146103b1578063a0797f75146103cd578063b0e10c61146103eb578063c4176338146103f5576101cf565b80638456cb591461035957806384ea5c74146103635780638da5cb5b14610393576101cf565b80634da7f4321161017157806360f67bc81161014b57806360f67bc81461030d578063715018a6146103295780637568173b1461033357806383d23ab31461033d576101cf565b80634da7f432146102c957806355bf3112146102e55780635c975abb146102ef576101cf565b806330c00b00116101ad57806330c00b001461024057806332a8e0341461027057806333a06c81146102a15780633f4ba83a146102bf576101cf565b8063026d7cfd146101d45780632e162db6146101f25780632ee8ebf714610210575b600080fd5b6101dc610510565b6040516101e99190612fa2565b60405180910390f35b6101fa610515565b6040516102079190613085565b60405180910390f35b61022a60048036038101906102259190613240565b610570565b604051610237919061335a565b60405180910390f35b61025a600480360381019061025591906133a8565b610641565b6040516102679190612fa2565b60405180910390f35b61028a600480360381019061028591906133d5565b6107de565b604051610298929190613458565b60405180910390f35b6102a9610852565b6040516102b69190612fa2565b60405180910390f35b6102c7610b1b565b005b6102e360048036038101906102de9190613488565b610c93565b005b6102ed610e2c565b005b6102f761115e565b60405161030491906134d0565b60405180910390f35b61032760048036038101906103229190613549565b611174565b005b6103316113d0565b005b61033b6113e4565b005b610357600480360381019061035291906133a8565b6115fe565b005b61036161179b565b005b61037d600480360381019061037891906133a8565b611913565b60405161038a91906135ab565b60405180910390f35b61039b6119f5565b6040516103a891906135ab565b60405180910390f35b6103cb60048036038101906103c69190613488565b611a1e565b005b6103d5611bb7565b6040516103e291906135d5565b60405180910390f35b6103f3611bc3565b005b6103fd611ef5565b60405161040f96959493929190613678565b60405180910390f35b610432600480360381019061042d91906136e7565b61204d565b005b61044e6004803603810190610449919061374e565b6122b7565b60405161045b9190612fa2565b60405180910390f35b61046c612312565b005b61048860048036038101906104839190613488565b61249d565b005b6104a4600480360381019061049f919061378e565b612618565b005b6104c060048036038101906104bb91906137bb565b61269c565b005b6104ca61281e565b6040516104d79190612fa2565b60405180910390f35b6104fa60048036038101906104f591906133a8565b612b87565b6040516105079190612fa2565b60405180910390f35b600090565b6060600160070180548060200260200160405190810160405280929190818152602001828054801561056657602002820191906000526020600020905b815481526020019060010190808311610552575b5050505050905090565b606060008251905060008167ffffffffffffffff811115610594576105936130fd565b5b6040519080825280602002602001820160405280156105c25781602001602082028036833780820191505090505b50905060005b8281101561063557612710868683815181106105e7576105e66137fb565b5b60200260200101516105f99190613859565b61060391906138e2565b828281518110610616576106156137fb565b5b602002602001018181525050808061062d90613913565b9150506105c8565b50809250505092915050565b600081600073ffffffffffffffffffffffffffffffffffffffff166010600083815260200190815260200160002060009054906101000a900473ffffffffffffffffffffffffffffffffffffffff1673ffffffffffffffffffffffffffffffffffffffff1614156106e7576040517f08c379a00000000000000000000000000000000000000000000000000000000081526004016106de906139ce565b60405180910390fd5b6011600084815260200190815260200160002060009054906101000a900473ffffffffffffffffffffffffffffffffffffffff1673ffffffffffffffffffffffffffffffffffffffff166370a082316010600086815260200190815260200160002060009054906101000a900473ffffffffffffffffffffffffffffffffffffffff166040518263ffffffff1660e01b815260040161078691906135ab565b60206040518083038186803b15801561079e57600080fd5b505afa1580156107b2573d6000803e3d6000fd5b505050506040513d601f19601f820116820180604052508101906107d69190613a03565b915050919050565b6000606060008351905060006001826107f79190613a30565b87896108039190613a86565b61080d91906138e2565b9050600061271082896108209190613a30565b8861082b9190613859565b61083591906138e2565b9050806108428388610570565b9450945050505094509492505050565b600080601060006001800154815260200190815260200160002060009054906101000a900473ffffffffffffffffffffffffffffffffffffffff169050600073ffffffffffffffffffffffffffffffffffffffff168173ffffffffffffffffffffffffffffffffffffffff1614156108ff576040517f08c379a00000000000000000000000000000000000000000000000000000000081526004016108f690613b2c565b60405180910390fd5b6000600160070180548060200260200160405190810160405280929190818152602001828054801561095057602002820191906000526020600020905b81548152602001906001019080831161093c575b5050505050905060008151905060008373ffffffffffffffffffffffffffffffffffffffff1663186bc5496040518163ffffffff1660e01b815260040160206040518083038186803b1580156109a557600080fd5b505afa1580156109b9573d6000803e3d6000fd5b505050506040513d601f19601f820116820180604052508101906109dd9190613a03565b905060005b82811015610b1057600060106000868481518110610a0357610a026137fb565b5b6020026020010151815260200190815260200160002060009054906101000a900473ffffffffffffffffffffffffffffffffffffffff169050600073ffffffffffffffffffffffffffffffffffffffff168173ffffffffffffffffffffffffffffffffffffffff1614610afc578073ffffffffffffffffffffffffffffffffffffffff1663186bc5496040518163ffffffff1660e01b815260040160206040518083038186803b158015610ab657600080fd5b505afa158015610aca573d6000803e3d6000fd5b505050506040513d601f19601f82011682018060405250810190610aee9190613a03565b83610af99190613a30565b92505b508080610b0890613913565b9150506109e2565b508094505050505090565b600960159054906101000a900460ff1615610b6b576040517f08c379a0000000000000000000000000000000000000000000000000000000008152600401610b6290613b98565b60405180910390fd5b6001600501544210610bb2576040517f08c379a0000000000000000000000000000000000000000000000000000000008152600401610ba990613c04565b60405180910390fd5b600960009054906101000a900473ffffffffffffffffffffffffffffffffffffffff1673ffffffffffffffffffffffffffffffffffffffff16638da5cb5b6040518163ffffffff1660e01b815260040160206040518083038186803b158015610c1a57600080fd5b505afa158015610c2e573d6000803e3d6000fd5b505050506040513d601f19601f82011682018060405250810190610c529190613c39565b73ffffffffffffffffffffffffffffffffffffffff163373ffffffffffffffffffffffffffffffffffffffff1614610c8957600080fd5b610c91612c7f565b565b600960159054906101000a900460ff1615610ce3576040517f08c379a0000000000000000000000000000000000000000000000000000000008152600401610cda90613b98565b60405180910390fd5b6001600501544210610d2a576040517f08c379a0000000000000000000000000000000000000000000000000000000008152600401610d2190613c04565b60405180910390fd5b600960009054906101000a900473ffffffffffffffffffffffffffffffffffffffff1673ffffffffffffffffffffffffffffffffffffffff16638da5cb5b6040518163ffffffff1660e01b815260040160206040518083038186803b158015610d9257600080fd5b505afa158015610da6573d6000803e3d6000fd5b505050506040513d601f19601f82011682018060405250810190610dca9190613c39565b73ffffffffffffffffffffffffffffffffffffffff163373ffffffffffffffffffffffffffffffffffffffff1614610e0157600080fd5b600160050154600a5482610e159190613a30565b10610e1f57600080fd5b8060016003018190555050565b600960149054906101000a900460ff16610e7b576040517f08c379a0000000000000000000000000000000000000000000000000000000008152600401610e7290613cd8565b60405180910390fd5b6000600d5490506000600e5490506000610e96600c54610641565b905060006001600701805480602002602001604051908101604052809291908181526020018280548015610ee957602002820191906000526020600020905b815481526020019060010190808311610ed5575b505050505090506000815167ffffffffffffffff811115610f0d57610f0c6130fd565b5b604051908082528060200260200182016040528015610f3b5781602001602082028036833780820191505090505b5090506000600180015490506000835167ffffffffffffffff811115610f6457610f636130fd565b5b604051908082528060200260200182016040528015610f925781602001602082028036833780820191505090505b50905081600c5414156110065760005b845181101561100057610fce858281518110610fc157610fc06137fb565b5b6020026020010151610641565b848281518110610fe157610fe06137fb565b5b6020026020010181815250508080610ff890613913565b915050610fa2565b5061112a565b600061101183610641565b848281518110611024576110236137fb565b5b60200260200101818152505082828281518110611044576110436137fb565b5b602002602001018181525050600190505b8451811161112857600c548560018361106e9190613a86565b8151811061107f5761107e6137fb565b5b602002602001015114611115578460018261109a9190613a86565b815181106110ab576110aa6137fb565b5b60200260200101518282815181106110c6576110c56137fb565b5b6020026020010181815250506110f58582815181106110e8576110e76137fb565b5b6020026020010151610641565b848281518110611108576111076137fb565b5b6020026020010181815250505b808061112090613913565b915050611055565b505b600080611139898989886107de565b91509150611149600c548361269c565b6111538382612ce1565b505050505050505050565b60008060149054906101000a900460ff16905090565b600960159054906101000a900460ff16156111c4576040517f08c379a00000000000000000000000000000000000000000000000000000000081526004016111bb90613b98565b60405180910390fd5b600160050154421061120b576040517f08c379a000000000000000000000000000000000000000000000000000000000815260040161120290613c04565b60405180910390fd5b611213612d49565b600960149054906101000a900460ff1615801561124a5750600b5460016002015461123e91906138e2565b61124784610641565b10155b80156112585750600f544210155b15611280576001600960146101000a81548160ff02191690831515021790555082600c819055505b6011600084815260200190815260200160002060009054906101000a900473ffffffffffffffffffffffffffffffffffffffff1673ffffffffffffffffffffffffffffffffffffffff166323b872dd836010600087815260200190815260200160002060009054906101000a900473ffffffffffffffffffffffffffffffffffffffff16846040518463ffffffff1660e01b815260040161132393929190613cf8565b602060405180830381600087803b15801561133d57600080fd5b505af1158015611351573d6000803e3d6000fd5b505050506040513d601f19601f820116820180604052508101906113759190613d5b565b5080601360008473ffffffffffffffffffffffffffffffffffffffff1673ffffffffffffffffffffffffffffffffffffffff168152602001908152602001600020600085815260200190815260200160002081905550505050565b6113d8612d93565b6113e26000612e11565b565b6000600160070180548060200260200160405190810160405280929190818152602001828054801561143557602002820191906000526020600020905b815481526020019060010190808311611421575b5050505050905060006001825161144c9190613a30565b67ffffffffffffffff811115611465576114646130fd565b5b6040519080825280602002602001820160405280156114935781602001602082028036833780820191505090505b5090506000600183516114a69190613a30565b67ffffffffffffffff8111156114bf576114be6130fd565b5b6040519080825280602002602001820160405280156114ed5781602001602082028036833780820191505090505b50905060005b835181101561158b5783818151811061150f5761150e6137fb565b5b602002602001015183828151811061152a576115296137fb565b5b60200260200101818152505061155984828151811061154c5761154b6137fb565b5b6020026020010151610641565b82828151811061156c5761156b6137fb565b5b602002602001018181525050808061158390613913565b9150506114f3565b506001800154828451815181106115a5576115a46137fb565b5b6020026020010181815250506115be6001800154610641565b818451815181106115d2576115d16137fb565b5b60200260200101818152505060006115ec600d5483610570565b90506115f88382612ce1565b50505050565b600960159054906101000a900460ff161561164e576040517f08c379a000000000000000000000000000000000000000000000000000000000815260040161164590613b98565b60405180910390fd5b6001600501544210611695576040517f08c379a000000000000000000000000000000000000000000000000000000000815260040161168c90613c04565b60405180910390fd5b600960009054906101000a900473ffffffffffffffffffffffffffffffffffffffff1673ffffffffffffffffffffffffffffffffffffffff16638da5cb5b6040518163ffffffff1660e01b815260040160206040518083038186803b1580156116fd57600080fd5b505afa158015611711573d6000803e3d6000fd5b505050506040513d601f19601f820116820180604052508101906117359190613c39565b73ffffffffffffffffffffffffffffffffffffffff163373ffffffffffffffffffffffffffffffffffffffff161461176c57600080fd5b600160070181908060018154018082558091505060019003906000526020600020016000909190919091505550565b600960159054906101000a900460ff16156117eb576040517f08c379a00000000000000000000000000000000000000000000000000000000081526004016117e290613b98565b60405180910390fd5b6001600501544210611832576040517f08c379a000000000000000000000000000000000000000000000000000000000815260040161182990613c04565b60405180910390fd5b600960009054906101000a900473ffffffffffffffffffffffffffffffffffffffff1673ffffffffffffffffffffffffffffffffffffffff16638da5cb5b6040518163ffffffff1660e01b815260040160206040518083038186803b15801561189a57600080fd5b505afa1580156118ae573d6000803e3d6000fd5b505050506040513d601f19601f820116820180604052508101906118d29190613c39565b73ffffffffffffffffffffffffffffffffffffffff163373ffffffffffffffffffffffffffffffffffffffff161461190957600080fd5b611911612ed5565b565b600081600073ffffffffffffffffffffffffffffffffffffffff166010600083815260200190815260200160002060009054906101000a900473ffffffffffffffffffffffffffffffffffffffff1673ffffffffffffffffffffffffffffffffffffffff1614156119b9576040517f08c379a00000000000000000000000000000000000000000000000000000000081526004016119b0906139ce565b60405180910390fd5b6010600084815260200190815260200160002060009054906101000a900473ffffffffffffffffffffffffffffffffffffffff16915050919050565b60008060009054906101000a900473ffffffffffffffffffffffffffffffffffffffff16905090565b600960159054906101000a900460ff1615611a6e576040517f08c379a0000000000000000000000000000000000000000000000000000000008152600401611a6590613b98565b60405180910390fd5b6001600501544210611ab5576040517f08c379a0000000000000000000000000000000000000000000000000000000008152600401611aac90613c04565b60405180910390fd5b600960009054906101000a900473ffffffffffffffffffffffffffffffffffffffff1673ffffffffffffffffffffffffffffffffffffffff16638da5cb5b6040518163ffffffff1660e01b815260040160206040518083038186803b158015611b1d57600080fd5b505afa158015611b31573d6000803e3d6000fd5b505050506040513d601f19601f82011682018060405250810190611b559190613c39565b73ffffffffffffffffffffffffffffffffffffffff163373ffffffffffffffffffffffffffffffffffffffff1614611b8c57600080fd5b80600a54600160030154611ba09190613a30565b10611baa57600080fd5b8060016005018190555050565b60006001800154905090565b600960149054906101000a900460ff16611c12576040517f08c379a0000000000000000000000000000000000000000000000000000000008152600401611c0990613cd8565b60405180910390fd5b6000600d5490506000600e5490506000611c2d600c54610641565b905060006001600701805480602002602001604051908101604052809291908181526020018280548015611c8057602002820191906000526020600020905b815481526020019060010190808311611c6c575b505050505090506000815167ffffffffffffffff811115611ca457611ca36130fd565b5b604051908082528060200260200182016040528015611cd25781602001602082028036833780820191505090505b5090506000600180015490506000835167ffffffffffffffff811115611cfb57611cfa6130fd565b5b604051908082528060200260200182016040528015611d295781602001602082028036833780820191505090505b50905081600c541415611d9d5760005b8451811015611d9757611d65858281518110611d5857611d576137fb565b5b6020026020010151610641565b848281518110611d7857611d776137fb565b5b6020026020010181815250508080611d8f90613913565b915050611d39565b50611ec1565b6000611da883610641565b848281518110611dbb57611dba6137fb565b5b60200260200101818152505082828281518110611ddb57611dda6137fb565b5b602002602001018181525050600190505b84518111611ebf57600c5485600183611e059190613a86565b81518110611e1657611e156137fb565b5b602002602001015114611eac5784600182611e319190613a86565b81518110611e4257611e416137fb565b5b6020026020010151828281518110611e5d57611e5c6137fb565b5b602002602001018181525050611e8c858281518110611e7f57611e7e6137fb565b5b6020026020010151610641565b848281518110611e9f57611e9e6137fb565b5b6020026020010181815250505b8080611eb790613913565b915050611dec565b505b600080611ed0898989886107de565b91509150611ee0600c548361269c565b611eea8382612ce1565b505050505050505050565b6060600080600080606060016000016001600201546001600301546001600401546001600501546001600601858054611f2d90613db7565b80601f0160208091040260200160405190810160405280929190818152602001828054611f5990613db7565b8015611fa65780601f10611f7b57610100808354040283529160200191611fa6565b820191906000526020600020905b815481529060010190602001808311611f8957829003601f168201915b50505050509550808054611fb990613db7565b80601f0160208091040260200160405190810160405280929190818152602001828054611fe590613db7565b80156120325780601f1061200757610100808354040283529160200191612032565b820191906000526020600020905b81548152906001019060200180831161201557829003601f168201915b50505050509050955095509550955095509550909192939495565b600960159054906101000a900460ff161561209d576040517f08c379a000000000000000000000000000000000000000000000000000000000815260040161209490613b98565b60405180910390fd5b60016005015442106120e4576040517f08c379a00000000000000000000000000000000000000000000000000000000081526004016120db90613c04565b60405180910390fd5b600960009054906101000a900473ffffffffffffffffffffffffffffffffffffffff1673ffffffffffffffffffffffffffffffffffffffff16638da5cb5b6040518163ffffffff1660e01b815260040160206040518083038186803b15801561214c57600080fd5b505afa158015612160573d6000803e3d6000fd5b505050506040513d601f19601f820116820180604052508101906121849190613c39565b73ffffffffffffffffffffffffffffffffffffffff163373ffffffffffffffffffffffffffffffffffffffff16146121bb57600080fd5b826012600086815260200190815260200160002060006101000a81548173ffffffffffffffffffffffffffffffffffffffff021916908373ffffffffffffffffffffffffffffffffffffffff160217905550816010600086815260200190815260200160002060006101000a81548173ffffffffffffffffffffffffffffffffffffffff021916908373ffffffffffffffffffffffffffffffffffffffff160217905550806011600086815260200190815260200160002060006101000a81548173ffffffffffffffffffffffffffffffffffffffff021916908373ffffffffffffffffffffffffffffffffffffffff16021790555050505050565b6000601360008473ffffffffffffffffffffffffffffffffffffffff1673ffffffffffffffffffffffffffffffffffffffff168152602001908152602001600020600083815260200190815260200160002054905092915050565b600960159054906101000a900460ff1615612362576040517f08c379a000000000000000000000000000000000000000000000000000000000815260040161235990613b98565b60405180910390fd5b60016005015442106123a9576040517f08c379a00000000000000000000000000000000000000000000000000000000081526004016123a090613c04565b60405180910390fd5b600960009054906101000a900473ffffffffffffffffffffffffffffffffffffffff1673ffffffffffffffffffffffffffffffffffffffff16638da5cb5b6040518163ffffffff1660e01b815260040160206040518083038186803b15801561241157600080fd5b505afa158015612425573d6000803e3d6000fd5b505050506040513d601f19601f820116820180604052508101906124499190613c39565b73ffffffffffffffffffffffffffffffffffffffff163373ffffffffffffffffffffffffffffffffffffffff161461248057600080fd5b6001600960156101000a81548160ff021916908315150217905550565b600960159054906101000a900460ff16156124ed576040517f08c379a00000000000000000000000000000000000000000000000000000000081526004016124e490613b98565b60405180910390fd5b6001600501544210612534576040517f08c379a000000000000000000000000000000000000000000000000000000000815260040161252b90613c04565b60405180910390fd5b600960009054906101000a900473ffffffffffffffffffffffffffffffffffffffff1673ffffffffffffffffffffffffffffffffffffffff16638da5cb5b6040518163ffffffff1660e01b815260040160206040518083038186803b15801561259c57600080fd5b505afa1580156125b0573d6000803e3d6000fd5b505050506040513d601f19601f820116820180604052508101906125d49190613c39565b73ffffffffffffffffffffffffffffffffffffffff163373ffffffffffffffffffffffffffffffffffffffff161461260b57600080fd5b8060016002018190555050565b612620612d93565b600073ffffffffffffffffffffffffffffffffffffffff168173ffffffffffffffffffffffffffffffffffffffff161415612690576040517f08c379a000000000000000000000000000000000000000000000000000000000815260040161268790613e5b565b60405180910390fd5b61269981612e11565b50565b60008111801561270c5750600073ffffffffffffffffffffffffffffffffffffffff166010600084815260200190815260200160002060009054906101000a900473ffffffffffffffffffffffffffffffffffffffff1673ffffffffffffffffffffffffffffffffffffffff1614155b1561281a576010600083815260200190815260200160002060009054906101000a900473ffffffffffffffffffffffffffffffffffffffff1673ffffffffffffffffffffffffffffffffffffffff166360a56b3a6012600085815260200190815260200160002060009054906101000a900473ffffffffffffffffffffffffffffffffffffffff166011600086815260200190815260200160002060009054906101000a900473ffffffffffffffffffffffffffffffffffffffff16846040518463ffffffff1660e01b81526004016127e793929190613cf8565b600060405180830381600087803b15801561280157600080fd5b505af1158015612815573d6000803e3d6000fd5b505050505b5050565b600080601060006001800154815260200190815260200160002060009054906101000a900473ffffffffffffffffffffffffffffffffffffffff169050600073ffffffffffffffffffffffffffffffffffffffff168173ffffffffffffffffffffffffffffffffffffffff1614156128cb576040517f08c379a00000000000000000000000000000000000000000000000000000000081526004016128c290613b2c565b60405180910390fd5b6000600160070180548060200260200160405190810160405280929190818152602001828054801561291c57602002820191906000526020600020905b815481526020019060010190808311612908575b505050505090506000815190506000601160006001800154815260200190815260200160002060009054906101000a900473ffffffffffffffffffffffffffffffffffffffff1673ffffffffffffffffffffffffffffffffffffffff166370a08231856040518263ffffffff1660e01b815260040161299b91906135ab565b60206040518083038186803b1580156129b357600080fd5b505afa1580156129c7573d6000803e3d6000fd5b505050506040513d601f19601f820116820180604052508101906129eb9190613a03565b905060005b82811015612b7c57600060106000868481518110612a1157612a106137fb565b5b6020026020010151815260200190815260200160002060009054906101000a900473ffffffffffffffffffffffffffffffffffffffff169050600060116000878581518110612a6357612a626137fb565b5b6020026020010151815260200190815260200160002060009054906101000a900473ffffffffffffffffffffffffffffffffffffffff169050600073ffffffffffffffffffffffffffffffffffffffff168273ffffffffffffffffffffffffffffffffffffffff1614612b67578073ffffffffffffffffffffffffffffffffffffffff166370a08231836040518263ffffffff1660e01b8152600401612b0991906135ab565b60206040518083038186803b158015612b2157600080fd5b505afa158015612b35573d6000803e3d6000fd5b505050506040513d601f19601f82011682018060405250810190612b599190613a03565b84612b649190613a30565b93505b50508080612b7490613913565b9150506129f0565b508094505050505090565b60006011600083815260200190815260200160002060009054906101000a900473ffffffffffffffffffffffffffffffffffffffff1673ffffffffffffffffffffffffffffffffffffffff166370a082316010600085815260200190815260200160002060009054906101000a900473ffffffffffffffffffffffffffffffffffffffff166040518263ffffffff1660e01b8152600401612c2891906135ab565b60206040518083038186803b158015612c4057600080fd5b505afa158015612c54573d6000803e3d6000fd5b505050506040513d601f19601f82011682018060405250810190612c789190613a03565b9050919050565b612c87612f38565b60008060146101000a81548160ff0219169083151502179055507f5db9ee0a495bf2e6ff9c91a7834c1ba4fdd244a5e8aa4e537bd38aeae4b073aa612cca612f81565b604051612cd791906135ab565b60405180910390a1565b60008251905060005b81811015612d4357612d30848281518110612d0857612d076137fb565b5b6020026020010151848381518110612d2357612d226137fb565b5b602002602001015161269c565b8080612d3b90613913565b915050612cea565b50505050565b612d5161115e565b15612d91576040517f08c379a0000000000000000000000000000000000000000000000000000000008152600401612d8890613ec7565b60405180910390fd5b565b612d9b612f81565b73ffffffffffffffffffffffffffffffffffffffff16612db96119f5565b73ffffffffffffffffffffffffffffffffffffffff1614612e0f576040517f08c379a0000000000000000000000000000000000000000000000000000000008152600401612e0690613f33565b60405180910390fd5b565b60008060009054906101000a900473ffffffffffffffffffffffffffffffffffffffff169050816000806101000a81548173ffffffffffffffffffffffffffffffffffffffff021916908373ffffffffffffffffffffffffffffffffffffffff1602179055508173ffffffffffffffffffffffffffffffffffffffff168173ffffffffffffffffffffffffffffffffffffffff167f8be0079c531659141344cd1fd0a4f28419497f9722a3daafe3b4186f6b6457e060405160405180910390a35050565b612edd612d49565b6001600060146101000a81548160ff0219169083151502179055507f62e78cea01bee320cd4e420270b5ea74000d11b0c9f74754ebdbfc544b05a258612f21612f81565b604051612f2e91906135ab565b60405180910390a1565b612f4061115e565b612f7f576040517f08c379a0000000000000000000000000000000000000000000000000000000008152600401612f7690613f9f565b60405180910390fd5b565b600033905090565b6000819050919050565b612f9c81612f89565b82525050565b6000602082019050612fb76000830184612f93565b92915050565b600081519050919050565b600082825260208201905092915050565b6000819050602082019050919050565b6000819050919050565b612ffc81612fe9565b82525050565b600061300e8383612ff3565b60208301905092915050565b6000602082019050919050565b600061303282612fbd565b61303c8185612fc8565b935061304783612fd9565b8060005b8381101561307857815161305f8882613002565b975061306a8361301a565b92505060018101905061304b565b5085935050505092915050565b6000602082019050818103600083015261309f8184613027565b905092915050565b6000604051905090565b600080fd5b600080fd5b6130c481612f89565b81146130cf57600080fd5b50565b6000813590506130e1816130bb565b92915050565b600080fd5b6000601f19601f8301169050919050565b7f4e487b7100000000000000000000000000000000000000000000000000000000600052604160045260246000fd5b613135826130ec565b810181811067ffffffffffffffff82111715613154576131536130fd565b5b80604052505050565b60006131676130a7565b9050613173828261312c565b919050565b600067ffffffffffffffff821115613193576131926130fd565b5b602082029050602081019050919050565b600080fd5b60006131bc6131b784613178565b61315d565b905080838252602082019050602084028301858111156131df576131de6131a4565b5b835b8181101561320857806131f488826130d2565b8452602084019350506020810190506131e1565b5050509392505050565b600082601f830112613227576132266130e7565b5b81356132378482602086016131a9565b91505092915050565b60008060408385031215613257576132566130b1565b5b6000613265858286016130d2565b925050602083013567ffffffffffffffff811115613286576132856130b6565b5b61329285828601613212565b9150509250929050565b600081519050919050565b600082825260208201905092915050565b6000819050602082019050919050565b6132d181612f89565b82525050565b60006132e383836132c8565b60208301905092915050565b6000602082019050919050565b60006133078261329c565b61331181856132a7565b935061331c836132b8565b8060005b8381101561334d57815161333488826132d7565b975061333f836132ef565b925050600181019050613320565b5085935050505092915050565b6000602082019050818103600083015261337481846132fc565b905092915050565b61338581612fe9565b811461339057600080fd5b50565b6000813590506133a28161337c565b92915050565b6000602082840312156133be576133bd6130b1565b5b60006133cc84828501613393565b91505092915050565b600080600080608085870312156133ef576133ee6130b1565b5b60006133fd878288016130d2565b945050602061340e878288016130d2565b935050604061341f878288016130d2565b925050606085013567ffffffffffffffff8111156134405761343f6130b6565b5b61344c87828801613212565b91505092959194509250565b600060408201905061346d6000830185612f93565b818103602083015261347f81846132fc565b90509392505050565b60006020828403121561349e5761349d6130b1565b5b60006134ac848285016130d2565b91505092915050565b60008115159050919050565b6134ca816134b5565b82525050565b60006020820190506134e560008301846134c1565b92915050565b600073ffffffffffffffffffffffffffffffffffffffff82169050919050565b6000613516826134eb565b9050919050565b6135268161350b565b811461353157600080fd5b50565b6000813590506135438161351d565b92915050565b600080600060608486031215613562576135616130b1565b5b600061357086828701613393565b935050602061358186828701613534565b9250506040613592868287016130d2565b9150509250925092565b6135a58161350b565b82525050565b60006020820190506135c0600083018461359c565b92915050565b6135cf81612fe9565b82525050565b60006020820190506135ea60008301846135c6565b92915050565b600081519050919050565b600082825260208201905092915050565b60005b8381101561362a57808201518184015260208101905061360f565b83811115613639576000848401525b50505050565b600061364a826135f0565b61365481856135fb565b935061366481856020860161360c565b61366d816130ec565b840191505092915050565b600060c0820190508181036000830152613692818961363f565b90506136a16020830188612f93565b6136ae6040830187612f93565b6136bb6060830186612f93565b6136c86080830185612f93565b81810360a08301526136da818461363f565b9050979650505050505050565b60008060008060808587031215613701576137006130b1565b5b600061370f87828801613393565b945050602061372087828801613534565b935050604061373187828801613534565b925050606061374287828801613534565b91505092959194509250565b60008060408385031215613765576137646130b1565b5b600061377385828601613534565b925050602061378485828601613393565b9150509250929050565b6000602082840312156137a4576137a36130b1565b5b60006137b284828501613534565b91505092915050565b600080604083850312156137d2576137d16130b1565b5b60006137e085828601613393565b92505060206137f1858286016130d2565b9150509250929050565b7f4e487b7100000000000000000000000000000000000000000000000000000000600052603260045260246000fd5b7f4e487b7100000000000000000000000000000000000000000000000000000000600052601160045260246000fd5b600061386482612f89565b915061386f83612f89565b9250817fffffffffffffffffffffffffffffffffffffffffffffffffffffffffffffffff04831182151516156138a8576138a761382a565b5b828202905092915050565b7f4e487b7100000000000000000000000000000000000000000000000000000000600052601260045260246000fd5b60006138ed82612f89565b91506138f883612f89565b925082613908576139076138b3565b5b828204905092915050565b600061391e82612f89565b91507fffffffffffffffffffffffffffffffffffffffffffffffffffffffffffffffff8214156139515761395061382a565b5b600182019050919050565b7f43616d706169676e496e666f3a2054726561737572792061646472657373206660008201527f6f7220706c6174666f726d206973206e6f742073657400000000000000000000602082015250565b60006139b86036836135fb565b91506139c38261395c565b604082019050919050565b600060208201905081810360008301526139e7816139ab565b9050919050565b6000815190506139fd816130bb565b92915050565b600060208284031215613a1957613a186130b1565b5b6000613a27848285016139ee565b91505092915050565b6000613a3b82612f89565b9150613a4683612f89565b9250827fffffffffffffffffffffffffffffffffffffffffffffffffffffffffffffffff03821115613a7b57613a7a61382a565b5b828201905092915050565b6000613a9182612f89565b9150613a9c83612f89565b925082821015613aaf57613aae61382a565b5b828203905092915050565b7f43616d706169676e496e666f3a204f726967696e20706c6174666f726d20747260008201527f656173757279206e6f7420736574207965740000000000000000000000000000602082015250565b6000613b166032836135fb565b9150613b2182613aba565b604082019050919050565b60006020820190508181036000830152613b4581613b09565b9050919050565b7f43616d706169676e496e666f3a2043616d706169676e20656e64656400000000600082015250565b6000613b82601c836135fb565b9150613b8d82613b4c565b602082019050919050565b60006020820190508181036000830152613bb181613b75565b9050919050565b7f43616d706169676e496e666f3a2043616d706169676e206f7665720000000000600082015250565b6000613bee601b836135fb565b9150613bf982613bb8565b602082019050919050565b60006020820190508181036000830152613c1d81613be1565b9050919050565b600081519050613c338161351d565b92915050565b600060208284031215613c4f57613c4e6130b1565b5b6000613c5d84828501613c24565b91505092915050565b7f43616d706169676e496e666f3a2052657761726420706c6174666f726d206e6f60008201527f7420736574207965740000000000000000000000000000000000000000000000602082015250565b6000613cc26029836135fb565b9150613ccd82613c66565b604082019050919050565b60006020820190508181036000830152613cf181613cb5565b9050919050565b6000606082019050613d0d600083018661359c565b613d1a602083018561359c565b613d276040830184612f93565b949350505050565b613d38816134b5565b8114613d4357600080fd5b50565b600081519050613d5581613d2f565b92915050565b600060208284031215613d7157613d706130b1565b5b6000613d7f84828501613d46565b91505092915050565b7f4e487b7100000000000000000000000000000000000000000000000000000000600052602260045260246000fd5b60006002820490506001821680613dcf57607f821691505b60208210811415613de357613de2613d88565b5b50919050565b7f4f776e61626c653a206e6577206f776e657220697320746865207a65726f206160008201527f6464726573730000000000000000000000000000000000000000000000000000602082015250565b6000613e456026836135fb565b9150613e5082613de9565b604082019050919050565b60006020820190508181036000830152613e7481613e38565b9050919050565b7f5061757361626c653a2070617573656400000000000000000000000000000000600082015250565b6000613eb16010836135fb565b9150613ebc82613e7b565b602082019050919050565b60006020820190508181036000830152613ee081613ea4565b9050919050565b7f4f776e61626c653a2063616c6c6572206973206e6f7420746865206f776e6572600082015250565b6000613f1d6020836135fb565b9150613f2882613ee7565b602082019050919050565b60006020820190508181036000830152613f4c81613f10565b9050919050565b7f5061757361626c653a206e6f7420706175736564000000000000000000000000600082015250565b6000613f896014836135fb565b9150613f9482613f53565b602082019050919050565b60006020820190508181036000830152613fb881613f7c565b905091905056fea26469706673582212207578858548d577b47e479c4aac3fa485dab3cfd3c4267fc5ee7ee0b244c6c29564736f6c63430008090033a26469706673582212203e4328cefebe0a348503fcffe1b47b0e2b46623db89855f0166d6db9473ffd4d64736f6c63430008090033","opcodes":"PUSH1 0x80 PUSH1 0x40 MSTORE CALLVALUE DUP1 ISZERO PUSH2 0x10 JUMPI PUSH1 0x0 DUP1 REVERT JUMPDEST POP PUSH2 0x2D PUSH2 0x22 PUSH2 0x32 PUSH1 0x20 SHL PUSH1 0x20 SHR JUMP JUMPDEST PUSH2 0x3A PUSH1 0x20 SHL PUSH1 0x20 SHR JUMP JUMPDEST PUSH2 0xFE JUMP JUMPDEST PUSH1 0x0 CALLER SWAP1 POP SWAP1 JUMP JUMPDEST PUSH1 0x0 DUP1 PUSH1 0x0 SWAP1 SLOAD SWAP1 PUSH2 0x100 EXP SWAP1 DIV PUSH20 0xFFFFFFFFFFFFFFFFFFFFFFFFFFFFFFFFFFFFFFFF AND SWAP1 POP DUP2 PUSH1 0x0 DUP1 PUSH2 0x100 EXP DUP2 SLOAD DUP2 PUSH20 0xFFFFFFFFFFFFFFFFFFFFFFFFFFFFFFFFFFFFFFFF MUL NOT AND SWAP1 DUP4 PUSH20 0xFFFFFFFFFFFFFFFFFFFFFFFFFFFFFFFFFFFFFFFF AND MUL OR SWAP1 SSTORE POP DUP2 PUSH20 0xFFFFFFFFFFFFFFFFFFFFFFFFFFFFFFFFFFFFFFFF AND DUP2 PUSH20 0xFFFFFFFFFFFFFFFFFFFFFFFFFFFFFFFFFFFFFFFF AND PUSH32 0x8BE0079C531659141344CD1FD0A4F28419497F9722A3DAAFE3B4186F6B6457E0 PUSH1 0x40 MLOAD PUSH1 0x40 MLOAD DUP1 SWAP2 SUB SWAP1 LOG3 POP POP JUMP JUMPDEST PUSH2 0x5858 DUP1 PUSH2 0x10D PUSH1 0x0 CODECOPY PUSH1 0x0 RETURN INVALID PUSH1 0x80 PUSH1 0x40 MSTORE CALLVALUE DUP1 ISZERO PUSH3 0x11 JUMPI PUSH1 0x0 DUP1 REVERT JUMPDEST POP PUSH1 0x4 CALLDATASIZE LT PUSH3 0x5E JUMPI PUSH1 0x0 CALLDATALOAD PUSH1 0xE0 SHR DUP1 PUSH4 0x537D148A EQ PUSH3 0x63 JUMPI DUP1 PUSH4 0x715018A6 EQ PUSH3 0x83 JUMPI DUP1 PUSH4 0x8DA5CB5B EQ PUSH3 0x8F JUMPI DUP1 PUSH4 0xA91EE0DC EQ PUSH3 0xB1 JUMPI DUP1 PUSH4 0xF2FDE38B EQ PUSH3 0xD1 JUMPI JUMPDEST PUSH1 0x0 DUP1 REVERT JUMPDEST PUSH3 0x81 PUSH1 0x4 DUP1 CALLDATASIZE SUB DUP2 ADD SWAP1 PUSH3 0x7B SWAP2 SWAP1 PUSH3 0x890 JUMP JUMPDEST PUSH3 0xF1 JUMP JUMPDEST STOP JUMPDEST PUSH3 0x8D PUSH3 0x335 JUMP JUMPDEST STOP JUMPDEST PUSH3 0x99 PUSH3 0x34D JUMP JUMPDEST PUSH1 0x40 MLOAD PUSH3 0xA8 SWAP2 SWAP1 PUSH3 0xA11 JUMP JUMPDEST PUSH1 0x40 MLOAD DUP1 SWAP2 SUB SWAP1 RETURN JUMPDEST PUSH3 0xCF PUSH1 0x4 DUP1 CALLDATASIZE SUB DUP2 ADD SWAP1 PUSH3 0xC9 SWAP2 SWAP1 PUSH3 0xA5F JUMP JUMPDEST PUSH3 0x376 JUMP JUMPDEST STOP JUMPDEST PUSH3 0xEF PUSH1 0x4 DUP1 CALLDATASIZE SUB DUP2 ADD SWAP1 PUSH3 0xE9 SWAP2 SWAP1 PUSH3 0xA5F JUMP JUMPDEST PUSH3 0x3DF JUMP JUMPDEST STOP JUMPDEST PUSH3 0xFB PUSH3 0x46A JUMP JUMPDEST PUSH1 0x2 PUSH1 0x14 SWAP1 SLOAD SWAP1 PUSH2 0x100 EXP SWAP1 DIV PUSH1 0xFF AND PUSH3 0x115 JUMPI PUSH1 0x0 DUP1 REVERT JUMPDEST DUP9 DUP9 DUP9 DUP9 DUP9 DUP9 DUP9 DUP9 DUP9 PUSH1 0x2 PUSH1 0x0 SWAP1 SLOAD SWAP1 PUSH2 0x100 EXP SWAP1 DIV PUSH20 0xFFFFFFFFFFFFFFFFFFFFFFFFFFFFFFFFFFFFFFFF AND PUSH1 0x40 MLOAD PUSH3 0x14F SWAP1 PUSH3 0x5BB JUMP JUMPDEST PUSH3 0x164 SWAP11 SWAP10 SWAP9 SWAP8 SWAP7 SWAP6 SWAP5 SWAP4 SWAP3 SWAP2 SWAP1 PUSH3 0xC14 JUMP JUMPDEST PUSH1 0x40 MLOAD DUP1 SWAP2 SUB SWAP1 PUSH1 0x0 CREATE DUP1 ISZERO DUP1 ISZERO PUSH3 0x181 JUMPI RETURNDATASIZE PUSH1 0x0 DUP1 RETURNDATACOPY RETURNDATASIZE PUSH1 0x0 REVERT JUMPDEST POP PUSH1 0x1 PUSH1 0x0 PUSH2 0x100 EXP DUP2 SLOAD DUP2 PUSH20 0xFFFFFFFFFFFFFFFFFFFFFFFFFFFFFFFFFFFFFFFF MUL NOT AND SWAP1 DUP4 PUSH20 0xFFFFFFFFFFFFFFFFFFFFFFFFFFFFFFFFFFFFFFFF AND MUL OR SWAP1 SSTORE POP PUSH1 0x0 PUSH20 0xFFFFFFFFFFFFFFFFFFFFFFFFFFFFFFFFFFFFFFFF AND PUSH1 0x1 PUSH1 0x0 SWAP1 SLOAD SWAP1 PUSH2 0x100 EXP SWAP1 DIV PUSH20 0xFFFFFFFFFFFFFFFFFFFFFFFFFFFFFFFFFFFFFFFF AND PUSH20 0xFFFFFFFFFFFFFFFFFFFFFFFFFFFFFFFFFFFFFFFF AND EQ ISZERO PUSH3 0x21F JUMPI PUSH1 0x0 DUP1 REVERT JUMPDEST PUSH1 0x0 PUSH1 0x1 PUSH1 0x0 SWAP1 SLOAD SWAP1 PUSH2 0x100 EXP SWAP1 DIV PUSH20 0xFFFFFFFFFFFFFFFFFFFFFFFFFFFFFFFFFFFFFFFF AND SWAP1 POP PUSH1 0x2 PUSH1 0x0 SWAP1 SLOAD SWAP1 PUSH2 0x100 EXP SWAP1 DIV PUSH20 0xFFFFFFFFFFFFFFFFFFFFFFFFFFFFFFFFFFFFFFFF AND PUSH20 0xFFFFFFFFFFFFFFFFFFFFFFFFFFFFFFFFFFFFFFFF AND PUSH4 0x2C64BA15 DUP12 DUP4 PUSH1 0x40 MLOAD DUP4 PUSH4 0xFFFFFFFF AND PUSH1 0xE0 SHL DUP2 MSTORE PUSH1 0x4 ADD PUSH3 0x2A5 SWAP3 SWAP2 SWAP1 PUSH3 0xCD9 JUMP JUMPDEST PUSH1 0x0 PUSH1 0x40 MLOAD DUP1 DUP4 SUB DUP2 PUSH1 0x0 DUP8 DUP1 EXTCODESIZE ISZERO DUP1 ISZERO PUSH3 0x2C0 JUMPI PUSH1 0x0 DUP1 REVERT JUMPDEST POP GAS CALL ISZERO DUP1 ISZERO PUSH3 0x2D5 JUMPI RETURNDATASIZE PUSH1 0x0 DUP1 RETURNDATACOPY RETURNDATASIZE PUSH1 0x0 REVERT JUMPDEST POP POP POP POP DUP1 PUSH20 0xFFFFFFFFFFFFFFFFFFFFFFFFFFFFFFFFFFFFFFFF AND PUSH32 0xF4D491A6F1D235565138B729AEC590F73A429A7DEBF862AF41AF0D001AB8DA37 DUP12 PUSH1 0x40 MLOAD PUSH3 0x321 SWAP2 SWAP1 PUSH3 0xD0D JUMP JUMPDEST PUSH1 0x40 MLOAD DUP1 SWAP2 SUB SWAP1 LOG2 POP POP POP POP POP POP POP POP POP POP JUMP JUMPDEST PUSH3 0x33F PUSH3 0x46A JUMP JUMPDEST PUSH3 0x34B PUSH1 0x0 PUSH3 0x4EF JUMP JUMPDEST JUMP JUMPDEST PUSH1 0x0 DUP1 PUSH1 0x0 SWAP1 SLOAD SWAP1 PUSH2 0x100 EXP SWAP1 DIV PUSH20 0xFFFFFFFFFFFFFFFFFFFFFFFFFFFFFFFFFFFFFFFF AND SWAP1 POP SWAP1 JUMP JUMPDEST PUSH3 0x380 PUSH3 0x46A JUMP JUMPDEST DUP1 PUSH1 0x2 PUSH1 0x0 PUSH2 0x100 EXP DUP2 SLOAD DUP2 PUSH20 0xFFFFFFFFFFFFFFFFFFFFFFFFFFFFFFFFFFFFFFFF MUL NOT AND SWAP1 DUP4 PUSH20 0xFFFFFFFFFFFFFFFFFFFFFFFFFFFFFFFFFFFFFFFF AND MUL OR SWAP1 SSTORE POP PUSH1 0x1 PUSH1 0x2 PUSH1 0x14 PUSH2 0x100 EXP DUP2 SLOAD DUP2 PUSH1 0xFF MUL NOT AND SWAP1 DUP4 ISZERO ISZERO MUL OR SWAP1 SSTORE POP POP JUMP JUMPDEST PUSH3 0x3E9 PUSH3 0x46A JUMP JUMPDEST PUSH1 0x0 PUSH20 0xFFFFFFFFFFFFFFFFFFFFFFFFFFFFFFFFFFFFFFFF AND DUP2 PUSH20 0xFFFFFFFFFFFFFFFFFFFFFFFFFFFFFFFFFFFFFFFF AND EQ ISZERO PUSH3 0x45C JUMPI PUSH1 0x40 MLOAD PUSH32 0x8C379A000000000000000000000000000000000000000000000000000000000 DUP2 MSTORE PUSH1 0x4 ADD PUSH3 0x453 SWAP1 PUSH3 0xDA7 JUMP JUMPDEST PUSH1 0x40 MLOAD DUP1 SWAP2 SUB SWAP1 REVERT JUMPDEST PUSH3 0x467 DUP2 PUSH3 0x4EF JUMP JUMPDEST POP JUMP JUMPDEST PUSH3 0x474 PUSH3 0x5B3 JUMP JUMPDEST PUSH20 0xFFFFFFFFFFFFFFFFFFFFFFFFFFFFFFFFFFFFFFFF AND PUSH3 0x494 PUSH3 0x34D JUMP JUMPDEST PUSH20 0xFFFFFFFFFFFFFFFFFFFFFFFFFFFFFFFFFFFFFFFF AND EQ PUSH3 0x4ED JUMPI PUSH1 0x40 MLOAD PUSH32 0x8C379A000000000000000000000000000000000000000000000000000000000 DUP2 MSTORE PUSH1 0x4 ADD PUSH3 0x4E4 SWAP1 PUSH3 0xE19 JUMP JUMPDEST PUSH1 0x40 MLOAD DUP1 SWAP2 SUB SWAP1 REVERT JUMPDEST JUMP JUMPDEST PUSH1 0x0 DUP1 PUSH1 0x0 SWAP1 SLOAD SWAP1 PUSH2 0x100 EXP SWAP1 DIV PUSH20 0xFFFFFFFFFFFFFFFFFFFFFFFFFFFFFFFFFFFFFFFF AND SWAP1 POP DUP2 PUSH1 0x0 DUP1 PUSH2 0x100 EXP DUP2 SLOAD DUP2 PUSH20 0xFFFFFFFFFFFFFFFFFFFFFFFFFFFFFFFFFFFFFFFF MUL NOT AND SWAP1 DUP4 PUSH20 0xFFFFFFFFFFFFFFFFFFFFFFFFFFFFFFFFFFFFFFFF AND MUL OR SWAP1 SSTORE POP DUP2 PUSH20 0xFFFFFFFFFFFFFFFFFFFFFFFFFFFFFFFFFFFFFFFF AND DUP2 PUSH20 0xFFFFFFFFFFFFFFFFFFFFFFFFFFFFFFFFFFFFFFFF AND PUSH32 0x8BE0079C531659141344CD1FD0A4F28419497F9722A3DAAFE3B4186F6B6457E0 PUSH1 0x40 MLOAD PUSH1 0x40 MLOAD DUP1 SWAP2 SUB SWAP1 LOG3 POP POP JUMP JUMPDEST PUSH1 0x0 CALLER SWAP1 POP SWAP1 JUMP JUMPDEST PUSH2 0x49E7 DUP1 PUSH3 0xE3C DUP4 CODECOPY ADD SWAP1 JUMP JUMPDEST PUSH1 0x0 PUSH1 0x40 MLOAD SWAP1 POP SWAP1 JUMP JUMPDEST PUSH1 0x0 DUP1 REVERT JUMPDEST PUSH1 0x0 DUP1 REVERT JUMPDEST PUSH1 0x0 DUP1 REVERT JUMPDEST PUSH1 0x0 DUP1 REVERT JUMPDEST PUSH1 0x0 PUSH1 0x1F NOT PUSH1 0x1F DUP4 ADD AND SWAP1 POP SWAP2 SWAP1 POP JUMP JUMPDEST PUSH32 0x4E487B7100000000000000000000000000000000000000000000000000000000 PUSH1 0x0 MSTORE PUSH1 0x41 PUSH1 0x4 MSTORE PUSH1 0x24 PUSH1 0x0 REVERT JUMPDEST PUSH3 0x632 DUP3 PUSH3 0x5E7 JUMP JUMPDEST DUP2 ADD DUP2 DUP2 LT PUSH8 0xFFFFFFFFFFFFFFFF DUP3 GT OR ISZERO PUSH3 0x654 JUMPI PUSH3 0x653 PUSH3 0x5F8 JUMP JUMPDEST JUMPDEST DUP1 PUSH1 0x40 MSTORE POP POP POP JUMP JUMPDEST PUSH1 0x0 PUSH3 0x669 PUSH3 0x5C9 JUMP JUMPDEST SWAP1 POP PUSH3 0x677 DUP3 DUP3 PUSH3 0x627 JUMP JUMPDEST SWAP2 SWAP1 POP JUMP JUMPDEST PUSH1 0x0 PUSH8 0xFFFFFFFFFFFFFFFF DUP3 GT ISZERO PUSH3 0x69A JUMPI PUSH3 0x699 PUSH3 0x5F8 JUMP JUMPDEST JUMPDEST PUSH3 0x6A5 DUP3 PUSH3 0x5E7 JUMP JUMPDEST SWAP1 POP PUSH1 0x20 DUP2 ADD SWAP1 POP SWAP2 SWAP1 POP JUMP JUMPDEST DUP3 DUP2 DUP4 CALLDATACOPY PUSH1 0x0 DUP4 DUP4 ADD MSTORE POP POP POP JUMP JUMPDEST PUSH1 0x0 PUSH3 0x6D8 PUSH3 0x6D2 DUP5 PUSH3 0x67C JUMP JUMPDEST PUSH3 0x65D JUMP JUMPDEST SWAP1 POP DUP3 DUP2 MSTORE PUSH1 0x20 DUP2 ADD DUP5 DUP5 DUP5 ADD GT ISZERO PUSH3 0x6F7 JUMPI PUSH3 0x6F6 PUSH3 0x5E2 JUMP JUMPDEST JUMPDEST PUSH3 0x704 DUP5 DUP3 DUP6 PUSH3 0x6B2 JUMP JUMPDEST POP SWAP4 SWAP3 POP POP POP JUMP JUMPDEST PUSH1 0x0 DUP3 PUSH1 0x1F DUP4 ADD SLT PUSH3 0x724 JUMPI PUSH3 0x723 PUSH3 0x5DD JUMP JUMPDEST JUMPDEST DUP2 CALLDATALOAD PUSH3 0x736 DUP5 DUP3 PUSH1 0x20 DUP7 ADD PUSH3 0x6C1 JUMP JUMPDEST SWAP2 POP POP SWAP3 SWAP2 POP POP JUMP JUMPDEST PUSH1 0x0 DUP2 SWAP1 POP SWAP2 SWAP1 POP JUMP JUMPDEST PUSH3 0x754 DUP2 PUSH3 0x73F JUMP JUMPDEST DUP2 EQ PUSH3 0x760 JUMPI PUSH1 0x0 DUP1 REVERT JUMPDEST POP JUMP JUMPDEST PUSH1 0x0 DUP2 CALLDATALOAD SWAP1 POP PUSH3 0x774 DUP2 PUSH3 0x749 JUMP JUMPDEST SWAP3 SWAP2 POP POP JUMP JUMPDEST PUSH1 0x0 DUP2 SWAP1 POP SWAP2 SWAP1 POP JUMP JUMPDEST PUSH3 0x78F DUP2 PUSH3 0x77A JUMP JUMPDEST DUP2 EQ PUSH3 0x79B JUMPI PUSH1 0x0 DUP1 REVERT JUMPDEST POP JUMP JUMPDEST PUSH1 0x0 DUP2 CALLDATALOAD SWAP1 POP PUSH3 0x7AF DUP2 PUSH3 0x784 JUMP JUMPDEST SWAP3 SWAP2 POP POP JUMP JUMPDEST PUSH1 0x0 PUSH8 0xFFFFFFFFFFFFFFFF DUP3 GT ISZERO PUSH3 0x7D3 JUMPI PUSH3 0x7D2 PUSH3 0x5F8 JUMP JUMPDEST JUMPDEST PUSH1 0x20 DUP3 MUL SWAP1 POP PUSH1 0x20 DUP2 ADD SWAP1 POP SWAP2 SWAP1 POP JUMP JUMPDEST PUSH1 0x0 DUP1 REVERT JUMPDEST PUSH1 0x0 PUSH3 0x800 PUSH3 0x7FA DUP5 PUSH3 0x7B5 JUMP JUMPDEST PUSH3 0x65D JUMP JUMPDEST SWAP1 POP DUP1 DUP4 DUP3 MSTORE PUSH1 0x20 DUP3 ADD SWAP1 POP PUSH1 0x20 DUP5 MUL DUP4 ADD DUP6 DUP2 GT ISZERO PUSH3 0x826 JUMPI PUSH3 0x825 PUSH3 0x7E4 JUMP JUMPDEST JUMPDEST DUP4 JUMPDEST DUP2 DUP2 LT ISZERO PUSH3 0x853 JUMPI DUP1 PUSH3 0x83E DUP9 DUP3 PUSH3 0x763 JUMP JUMPDEST DUP5 MSTORE PUSH1 0x20 DUP5 ADD SWAP4 POP POP PUSH1 0x20 DUP2 ADD SWAP1 POP PUSH3 0x828 JUMP JUMPDEST POP POP POP SWAP4 SWAP3 POP POP POP JUMP JUMPDEST PUSH1 0x0 DUP3 PUSH1 0x1F DUP4 ADD SLT PUSH3 0x875 JUMPI PUSH3 0x874 PUSH3 0x5DD JUMP JUMPDEST JUMPDEST DUP2 CALLDATALOAD PUSH3 0x887 DUP5 DUP3 PUSH1 0x20 DUP7 ADD PUSH3 0x7E9 JUMP JUMPDEST SWAP2 POP POP SWAP3 SWAP2 POP POP JUMP JUMPDEST PUSH1 0x0 DUP1 PUSH1 0x0 DUP1 PUSH1 0x0 DUP1 PUSH1 0x0 DUP1 PUSH1 0x0 PUSH2 0x120 DUP11 DUP13 SUB SLT ISZERO PUSH3 0x8B6 JUMPI PUSH3 0x8B5 PUSH3 0x5D3 JUMP JUMPDEST JUMPDEST PUSH1 0x0 DUP11 ADD CALLDATALOAD PUSH8 0xFFFFFFFFFFFFFFFF DUP2 GT ISZERO PUSH3 0x8D7 JUMPI PUSH3 0x8D6 PUSH3 0x5D8 JUMP JUMPDEST JUMPDEST PUSH3 0x8E5 DUP13 DUP3 DUP14 ADD PUSH3 0x70C JUMP JUMPDEST SWAP10 POP POP PUSH1 0x20 PUSH3 0x8F8 DUP13 DUP3 DUP14 ADD PUSH3 0x763 JUMP JUMPDEST SWAP9 POP POP PUSH1 0x40 PUSH3 0x90B DUP13 DUP3 DUP14 ADD PUSH3 0x79E JUMP JUMPDEST SWAP8 POP POP PUSH1 0x60 PUSH3 0x91E DUP13 DUP3 DUP14 ADD PUSH3 0x79E JUMP JUMPDEST SWAP7 POP POP PUSH1 0x80 PUSH3 0x931 DUP13 DUP3 DUP14 ADD PUSH3 0x79E JUMP JUMPDEST SWAP6 POP POP PUSH1 0xA0 PUSH3 0x944 DUP13 DUP3 DUP14 ADD PUSH3 0x79E JUMP JUMPDEST SWAP5 POP POP PUSH1 0xC0 PUSH3 0x957 DUP13 DUP3 DUP14 ADD PUSH3 0x79E JUMP JUMPDEST SWAP4 POP POP PUSH1 0xE0 DUP11 ADD CALLDATALOAD PUSH8 0xFFFFFFFFFFFFFFFF DUP2 GT ISZERO PUSH3 0x97B JUMPI PUSH3 0x97A PUSH3 0x5D8 JUMP JUMPDEST JUMPDEST PUSH3 0x989 DUP13 DUP3 DUP14 ADD PUSH3 0x70C JUMP JUMPDEST SWAP3 POP POP PUSH2 0x100 DUP11 ADD CALLDATALOAD PUSH8 0xFFFFFFFFFFFFFFFF DUP2 GT ISZERO PUSH3 0x9AE JUMPI PUSH3 0x9AD PUSH3 0x5D8 JUMP JUMPDEST JUMPDEST PUSH3 0x9BC DUP13 DUP3 DUP14 ADD PUSH3 0x85D JUMP JUMPDEST SWAP2 POP POP SWAP3 SWAP6 SWAP9 POP SWAP3 SWAP6 SWAP9 POP SWAP3 SWAP6 SWAP9 JUMP JUMPDEST PUSH1 0x0 PUSH20 0xFFFFFFFFFFFFFFFFFFFFFFFFFFFFFFFFFFFFFFFF DUP3 AND SWAP1 POP SWAP2 SWAP1 POP JUMP JUMPDEST PUSH1 0x0 PUSH3 0x9F9 DUP3 PUSH3 0x9CC JUMP JUMPDEST SWAP1 POP SWAP2 SWAP1 POP JUMP JUMPDEST PUSH3 0xA0B DUP2 PUSH3 0x9EC JUMP JUMPDEST DUP3 MSTORE POP POP JUMP JUMPDEST PUSH1 0x0 PUSH1 0x20 DUP3 ADD SWAP1 POP PUSH3 0xA28 PUSH1 0x0 DUP4 ADD DUP5 PUSH3 0xA00 JUMP JUMPDEST SWAP3 SWAP2 POP POP JUMP JUMPDEST PUSH3 0xA39 DUP2 PUSH3 0x9EC JUMP JUMPDEST DUP2 EQ PUSH3 0xA45 JUMPI PUSH1 0x0 DUP1 REVERT JUMPDEST POP JUMP JUMPDEST PUSH1 0x0 DUP2 CALLDATALOAD SWAP1 POP PUSH3 0xA59 DUP2 PUSH3 0xA2E JUMP JUMPDEST SWAP3 SWAP2 POP POP JUMP JUMPDEST PUSH1 0x0 PUSH1 0x20 DUP3 DUP5 SUB SLT ISZERO PUSH3 0xA78 JUMPI PUSH3 0xA77 PUSH3 0x5D3 JUMP JUMPDEST JUMPDEST PUSH1 0x0 PUSH3 0xA88 DUP5 DUP3 DUP6 ADD PUSH3 0xA48 JUMP JUMPDEST SWAP2 POP POP SWAP3 SWAP2 POP POP JUMP JUMPDEST PUSH1 0x0 DUP2 MLOAD SWAP1 POP SWAP2 SWAP1 POP JUMP JUMPDEST PUSH1 0x0 DUP3 DUP3 MSTORE PUSH1 0x20 DUP3 ADD SWAP1 POP SWAP3 SWAP2 POP POP JUMP JUMPDEST PUSH1 0x0 JUMPDEST DUP4 DUP2 LT ISZERO PUSH3 0xACD JUMPI DUP1 DUP3 ADD MLOAD DUP2 DUP5 ADD MSTORE PUSH1 0x20 DUP2 ADD SWAP1 POP PUSH3 0xAB0 JUMP JUMPDEST DUP4 DUP2 GT ISZERO PUSH3 0xADD JUMPI PUSH1 0x0 DUP5 DUP5 ADD MSTORE JUMPDEST POP POP POP POP JUMP JUMPDEST PUSH1 0x0 PUSH3 0xAF0 DUP3 PUSH3 0xA91 JUMP JUMPDEST PUSH3 0xAFC DUP2 DUP6 PUSH3 0xA9C JUMP JUMPDEST SWAP4 POP PUSH3 0xB0E DUP2 DUP6 PUSH1 0x20 DUP7 ADD PUSH3 0xAAD JUMP JUMPDEST PUSH3 0xB19 DUP2 PUSH3 0x5E7 JUMP JUMPDEST DUP5 ADD SWAP2 POP POP SWAP3 SWAP2 POP POP JUMP JUMPDEST PUSH3 0xB2F DUP2 PUSH3 0x73F JUMP JUMPDEST DUP3 MSTORE POP POP JUMP JUMPDEST PUSH3 0xB40 DUP2 PUSH3 0x77A JUMP JUMPDEST DUP3 MSTORE POP POP JUMP JUMPDEST PUSH1 0x0 DUP2 MLOAD SWAP1 POP SWAP2 SWAP1 POP JUMP JUMPDEST PUSH1 0x0 DUP3 DUP3 MSTORE PUSH1 0x20 DUP3 ADD SWAP1 POP SWAP3 SWAP2 POP POP JUMP JUMPDEST PUSH1 0x0 DUP2 SWAP1 POP PUSH1 0x20 DUP3 ADD SWAP1 POP SWAP2 SWAP1 POP JUMP JUMPDEST PUSH3 0xB7D DUP2 PUSH3 0x73F JUMP JUMPDEST DUP3 MSTORE POP POP JUMP JUMPDEST PUSH1 0x0 PUSH3 0xB91 DUP4 DUP4 PUSH3 0xB72 JUMP JUMPDEST PUSH1 0x20 DUP4 ADD SWAP1 POP SWAP3 SWAP2 POP POP JUMP JUMPDEST PUSH1 0x0 PUSH1 0x20 DUP3 ADD SWAP1 POP SWAP2 SWAP1 POP JUMP JUMPDEST PUSH1 0x0 PUSH3 0xBB7 DUP3 PUSH3 0xB46 JUMP JUMPDEST PUSH3 0xBC3 DUP2 DUP6 PUSH3 0xB51 JUMP JUMPDEST SWAP4 POP PUSH3 0xBD0 DUP4 PUSH3 0xB62 JUMP JUMPDEST DUP1 PUSH1 0x0 JUMPDEST DUP4 DUP2 LT ISZERO PUSH3 0xC07 JUMPI DUP2 MLOAD PUSH3 0xBEB DUP9 DUP3 PUSH3 0xB83 JUMP JUMPDEST SWAP8 POP PUSH3 0xBF8 DUP4 PUSH3 0xB9D JUMP JUMPDEST SWAP3 POP POP PUSH1 0x1 DUP2 ADD SWAP1 POP PUSH3 0xBD4 JUMP JUMPDEST POP DUP6 SWAP4 POP POP POP POP SWAP3 SWAP2 POP POP JUMP JUMPDEST PUSH1 0x0 PUSH2 0x140 DUP3 ADD SWAP1 POP DUP2 DUP2 SUB PUSH1 0x0 DUP4 ADD MSTORE PUSH3 0xC31 DUP2 DUP14 PUSH3 0xAE3 JUMP JUMPDEST SWAP1 POP PUSH3 0xC42 PUSH1 0x20 DUP4 ADD DUP13 PUSH3 0xB24 JUMP JUMPDEST PUSH3 0xC51 PUSH1 0x40 DUP4 ADD DUP12 PUSH3 0xB35 JUMP JUMPDEST PUSH3 0xC60 PUSH1 0x60 DUP4 ADD DUP11 PUSH3 0xB35 JUMP JUMPDEST PUSH3 0xC6F PUSH1 0x80 DUP4 ADD DUP10 PUSH3 0xB35 JUMP JUMPDEST PUSH3 0xC7E PUSH1 0xA0 DUP4 ADD DUP9 PUSH3 0xB35 JUMP JUMPDEST PUSH3 0xC8D PUSH1 0xC0 DUP4 ADD DUP8 PUSH3 0xB35 JUMP JUMPDEST DUP2 DUP2 SUB PUSH1 0xE0 DUP4 ADD MSTORE PUSH3 0xCA1 DUP2 DUP7 PUSH3 0xAE3 JUMP JUMPDEST SWAP1 POP DUP2 DUP2 SUB PUSH2 0x100 DUP4 ADD MSTORE PUSH3 0xCB8 DUP2 DUP6 PUSH3 0xBAA JUMP JUMPDEST SWAP1 POP PUSH3 0xCCA PUSH2 0x120 DUP4 ADD DUP5 PUSH3 0xA00 JUMP JUMPDEST SWAP12 SWAP11 POP POP POP POP POP POP POP POP POP POP POP JUMP JUMPDEST PUSH1 0x0 PUSH1 0x40 DUP3 ADD SWAP1 POP DUP2 DUP2 SUB PUSH1 0x0 DUP4 ADD MSTORE PUSH3 0xCF5 DUP2 DUP6 PUSH3 0xAE3 JUMP JUMPDEST SWAP1 POP PUSH3 0xD06 PUSH1 0x20 DUP4 ADD DUP5 PUSH3 0xA00 JUMP JUMPDEST SWAP4 SWAP3 POP POP POP JUMP JUMPDEST PUSH1 0x0 PUSH1 0x20 DUP3 ADD SWAP1 POP DUP2 DUP2 SUB PUSH1 0x0 DUP4 ADD MSTORE PUSH3 0xD29 DUP2 DUP5 PUSH3 0xAE3 JUMP JUMPDEST SWAP1 POP SWAP3 SWAP2 POP POP JUMP JUMPDEST PUSH32 0x4F776E61626C653A206E6577206F776E657220697320746865207A65726F2061 PUSH1 0x0 DUP3 ADD MSTORE PUSH32 0x6464726573730000000000000000000000000000000000000000000000000000 PUSH1 0x20 DUP3 ADD MSTORE POP JUMP JUMPDEST PUSH1 0x0 PUSH3 0xD8F PUSH1 0x26 DUP4 PUSH3 0xA9C JUMP JUMPDEST SWAP2 POP PUSH3 0xD9C DUP3 PUSH3 0xD31 JUMP JUMPDEST PUSH1 0x40 DUP3 ADD SWAP1 POP SWAP2 SWAP1 POP JUMP JUMPDEST PUSH1 0x0 PUSH1 0x20 DUP3 ADD SWAP1 POP DUP2 DUP2 SUB PUSH1 0x0 DUP4 ADD MSTORE PUSH3 0xDC2 DUP2 PUSH3 0xD80 JUMP JUMPDEST SWAP1 POP SWAP2 SWAP1 POP JUMP JUMPDEST PUSH32 0x4F776E61626C653A2063616C6C6572206973206E6F7420746865206F776E6572 PUSH1 0x0 DUP3 ADD MSTORE POP JUMP JUMPDEST PUSH1 0x0 PUSH3 0xE01 PUSH1 0x20 DUP4 PUSH3 0xA9C JUMP JUMPDEST SWAP2 POP PUSH3 0xE0E DUP3 PUSH3 0xDC9 JUMP JUMPDEST PUSH1 0x20 DUP3 ADD SWAP1 POP SWAP2 SWAP1 POP JUMP JUMPDEST PUSH1 0x0 PUSH1 0x20 DUP3 ADD SWAP1 POP DUP2 DUP2 SUB PUSH1 0x0 DUP4 ADD MSTORE PUSH3 0xE34 DUP2 PUSH3 0xDF2 JUMP JUMPDEST SWAP1 POP SWAP2 SWAP1 POP JUMP INVALID PUSH1 0x80 PUSH1 0x40 MSTORE PUSH1 0x2 PUSH1 0xB SSTORE CALLVALUE DUP1 ISZERO PUSH3 0x16 JUMPI PUSH1 0x0 DUP1 REVERT JUMPDEST POP PUSH1 0x40 MLOAD PUSH3 0x49E7 CODESIZE SUB DUP1 PUSH3 0x49E7 DUP4 CODECOPY DUP2 DUP2 ADD PUSH1 0x40 MSTORE DUP2 ADD SWAP1 PUSH3 0x3C SWAP2 SWAP1 PUSH3 0x6F5 JUMP JUMPDEST PUSH3 0x5C PUSH3 0x50 PUSH3 0x1B5 PUSH1 0x20 SHL PUSH1 0x20 SHR JUMP JUMPDEST PUSH3 0x1BD PUSH1 0x20 SHL PUSH1 0x20 SHR JUMP JUMPDEST PUSH1 0x0 DUP1 PUSH1 0x14 PUSH2 0x100 EXP DUP2 SLOAD DUP2 PUSH1 0xFF MUL NOT AND SWAP1 DUP4 ISZERO ISZERO MUL OR SWAP1 SSTORE POP DUP6 PUSH1 0xA SLOAD DUP9 PUSH3 0x87 SWAP2 SWAP1 PUSH3 0x877 JUMP JUMPDEST LT PUSH3 0xCA JUMPI PUSH1 0x40 MLOAD PUSH32 0x8C379A000000000000000000000000000000000000000000000000000000000 DUP2 MSTORE PUSH1 0x4 ADD PUSH3 0xC1 SWAP1 PUSH3 0x95B JUMP JUMPDEST PUSH1 0x40 MLOAD DUP1 SWAP2 SUB SWAP1 REVERT JUMPDEST DUP10 PUSH1 0x1 PUSH1 0x0 ADD SWAP1 DUP1 MLOAD SWAP1 PUSH1 0x20 ADD SWAP1 PUSH3 0xE5 SWAP3 SWAP2 SWAP1 PUSH3 0x281 JUMP JUMPDEST POP DUP9 PUSH1 0x1 DUP1 ADD DUP2 SWAP1 SSTORE POP DUP8 PUSH1 0x1 PUSH1 0x2 ADD DUP2 SWAP1 SSTORE POP DUP7 PUSH1 0x1 PUSH1 0x3 ADD DUP2 SWAP1 SSTORE POP TIMESTAMP PUSH1 0x1 PUSH1 0x4 ADD DUP2 SWAP1 SSTORE POP DUP6 PUSH1 0x1 PUSH1 0x5 ADD DUP2 SWAP1 SSTORE POP DUP3 PUSH1 0x1 PUSH1 0x6 ADD SWAP1 DUP1 MLOAD SWAP1 PUSH1 0x20 ADD SWAP1 PUSH3 0x132 SWAP3 SWAP2 SWAP1 PUSH3 0x281 JUMP JUMPDEST POP DUP2 PUSH1 0x1 PUSH1 0x7 ADD SWAP1 DUP1 MLOAD SWAP1 PUSH1 0x20 ADD SWAP1 PUSH3 0x14E SWAP3 SWAP2 SWAP1 PUSH3 0x312 JUMP JUMPDEST POP DUP1 PUSH1 0x9 PUSH1 0x0 PUSH2 0x100 EXP DUP2 SLOAD DUP2 PUSH20 0xFFFFFFFFFFFFFFFFFFFFFFFFFFFFFFFFFFFFFFFF MUL NOT AND SWAP1 DUP4 PUSH20 0xFFFFFFFFFFFFFFFFFFFFFFFFFFFFFFFFFFFFFFFF AND MUL OR SWAP1 SSTORE POP TIMESTAMP PUSH1 0xF DUP2 SWAP1 SSTORE POP DUP5 PUSH1 0xD DUP2 SWAP1 SSTORE POP DUP4 PUSH1 0xE DUP2 SWAP1 SSTORE POP POP POP POP POP POP POP POP POP POP POP PUSH3 0x9E2 JUMP JUMPDEST PUSH1 0x0 CALLER SWAP1 POP SWAP1 JUMP JUMPDEST PUSH1 0x0 DUP1 PUSH1 0x0 SWAP1 SLOAD SWAP1 PUSH2 0x100 EXP SWAP1 DIV PUSH20 0xFFFFFFFFFFFFFFFFFFFFFFFFFFFFFFFFFFFFFFFF AND SWAP1 POP DUP2 PUSH1 0x0 DUP1 PUSH2 0x100 EXP DUP2 SLOAD DUP2 PUSH20 0xFFFFFFFFFFFFFFFFFFFFFFFFFFFFFFFFFFFFFFFF MUL NOT AND SWAP1 DUP4 PUSH20 0xFFFFFFFFFFFFFFFFFFFFFFFFFFFFFFFFFFFFFFFF AND MUL OR SWAP1 SSTORE POP DUP2 PUSH20 0xFFFFFFFFFFFFFFFFFFFFFFFFFFFFFFFFFFFFFFFF AND DUP2 PUSH20 0xFFFFFFFFFFFFFFFFFFFFFFFFFFFFFFFFFFFFFFFF AND PUSH32 0x8BE0079C531659141344CD1FD0A4F28419497F9722A3DAAFE3B4186F6B6457E0 PUSH1 0x40 MLOAD PUSH1 0x40 MLOAD DUP1 SWAP2 SUB SWAP1 LOG3 POP POP JUMP JUMPDEST DUP3 DUP1 SLOAD PUSH3 0x28F SWAP1 PUSH3 0x9AC JUMP JUMPDEST SWAP1 PUSH1 0x0 MSTORE PUSH1 0x20 PUSH1 0x0 KECCAK256 SWAP1 PUSH1 0x1F ADD PUSH1 0x20 SWAP1 DIV DUP2 ADD SWAP3 DUP3 PUSH3 0x2B3 JUMPI PUSH1 0x0 DUP6 SSTORE PUSH3 0x2FF JUMP JUMPDEST DUP3 PUSH1 0x1F LT PUSH3 0x2CE JUMPI DUP1 MLOAD PUSH1 0xFF NOT AND DUP4 DUP1 ADD OR DUP6 SSTORE PUSH3 0x2FF JUMP JUMPDEST DUP3 DUP1 ADD PUSH1 0x1 ADD DUP6 SSTORE DUP3 ISZERO PUSH3 0x2FF JUMPI SWAP2 DUP3 ADD JUMPDEST DUP3 DUP2 GT ISZERO PUSH3 0x2FE JUMPI DUP3 MLOAD DUP3 SSTORE SWAP2 PUSH1 0x20 ADD SWAP2 SWAP1 PUSH1 0x1 ADD SWAP1 PUSH3 0x2E1 JUMP JUMPDEST JUMPDEST POP SWAP1 POP PUSH3 0x30E SWAP2 SWAP1 PUSH3 0x364 JUMP JUMPDEST POP SWAP1 JUMP JUMPDEST DUP3 DUP1 SLOAD DUP3 DUP3 SSTORE SWAP1 PUSH1 0x0 MSTORE PUSH1 0x20 PUSH1 0x0 KECCAK256 SWAP1 DUP2 ADD SWAP3 DUP3 ISZERO PUSH3 0x351 JUMPI SWAP2 PUSH1 0x20 MUL DUP3 ADD JUMPDEST DUP3 DUP2 GT ISZERO PUSH3 0x350 JUMPI DUP3 MLOAD DUP3 SSTORE SWAP2 PUSH1 0x20 ADD SWAP2 SWAP1 PUSH1 0x1 ADD SWAP1 PUSH3 0x333 JUMP JUMPDEST JUMPDEST POP SWAP1 POP PUSH3 0x360 SWAP2 SWAP1 PUSH3 0x383 JUMP JUMPDEST POP SWAP1 JUMP JUMPDEST JUMPDEST DUP1 DUP3 GT ISZERO PUSH3 0x37F JUMPI PUSH1 0x0 DUP2 PUSH1 0x0 SWAP1 SSTORE POP PUSH1 0x1 ADD PUSH3 0x365 JUMP JUMPDEST POP SWAP1 JUMP JUMPDEST JUMPDEST DUP1 DUP3 GT ISZERO PUSH3 0x39E JUMPI PUSH1 0x0 DUP2 PUSH1 0x0 SWAP1 SSTORE POP PUSH1 0x1 ADD PUSH3 0x384 JUMP JUMPDEST POP SWAP1 JUMP JUMPDEST PUSH1 0x0 PUSH1 0x40 MLOAD SWAP1 POP SWAP1 JUMP JUMPDEST PUSH1 0x0 DUP1 REVERT JUMPDEST PUSH1 0x0 DUP1 REVERT JUMPDEST PUSH1 0x0 DUP1 REVERT JUMPDEST PUSH1 0x0 DUP1 REVERT JUMPDEST PUSH1 0x0 PUSH1 0x1F NOT PUSH1 0x1F DUP4 ADD AND SWAP1 POP SWAP2 SWAP1 POP JUMP JUMPDEST PUSH32 0x4E487B7100000000000000000000000000000000000000000000000000000000 PUSH1 0x0 MSTORE PUSH1 0x41 PUSH1 0x4 MSTORE PUSH1 0x24 PUSH1 0x0 REVERT JUMPDEST PUSH3 0x40B DUP3 PUSH3 0x3C0 JUMP JUMPDEST DUP2 ADD DUP2 DUP2 LT PUSH8 0xFFFFFFFFFFFFFFFF DUP3 GT OR ISZERO PUSH3 0x42D JUMPI PUSH3 0x42C PUSH3 0x3D1 JUMP JUMPDEST JUMPDEST DUP1 PUSH1 0x40 MSTORE POP POP POP JUMP JUMPDEST PUSH1 0x0 PUSH3 0x442 PUSH3 0x3A2 JUMP JUMPDEST SWAP1 POP PUSH3 0x450 DUP3 DUP3 PUSH3 0x400 JUMP JUMPDEST SWAP2 SWAP1 POP JUMP JUMPDEST PUSH1 0x0 PUSH8 0xFFFFFFFFFFFFFFFF DUP3 GT ISZERO PUSH3 0x473 JUMPI PUSH3 0x472 PUSH3 0x3D1 JUMP JUMPDEST JUMPDEST PUSH3 0x47E DUP3 PUSH3 0x3C0 JUMP JUMPDEST SWAP1 POP PUSH1 0x20 DUP2 ADD SWAP1 POP SWAP2 SWAP1 POP JUMP JUMPDEST PUSH1 0x0 JUMPDEST DUP4 DUP2 LT ISZERO PUSH3 0x4AB JUMPI DUP1 DUP3 ADD MLOAD DUP2 DUP5 ADD MSTORE PUSH1 0x20 DUP2 ADD SWAP1 POP PUSH3 0x48E JUMP JUMPDEST DUP4 DUP2 GT ISZERO PUSH3 0x4BB JUMPI PUSH1 0x0 DUP5 DUP5 ADD MSTORE JUMPDEST POP POP POP POP JUMP JUMPDEST PUSH1 0x0 PUSH3 0x4D8 PUSH3 0x4D2 DUP5 PUSH3 0x455 JUMP JUMPDEST PUSH3 0x436 JUMP JUMPDEST SWAP1 POP DUP3 DUP2 MSTORE PUSH1 0x20 DUP2 ADD DUP5 DUP5 DUP5 ADD GT ISZERO PUSH3 0x4F7 JUMPI PUSH3 0x4F6 PUSH3 0x3BB JUMP JUMPDEST JUMPDEST PUSH3 0x504 DUP5 DUP3 DUP6 PUSH3 0x48B JUMP JUMPDEST POP SWAP4 SWAP3 POP POP POP JUMP JUMPDEST PUSH1 0x0 DUP3 PUSH1 0x1F DUP4 ADD SLT PUSH3 0x524 JUMPI PUSH3 0x523 PUSH3 0x3B6 JUMP JUMPDEST JUMPDEST DUP2 MLOAD PUSH3 0x536 DUP5 DUP3 PUSH1 0x20 DUP7 ADD PUSH3 0x4C1 JUMP JUMPDEST SWAP2 POP POP SWAP3 SWAP2 POP POP JUMP JUMPDEST PUSH1 0x0 DUP2 SWAP1 POP SWAP2 SWAP1 POP JUMP JUMPDEST PUSH3 0x554 DUP2 PUSH3 0x53F JUMP JUMPDEST DUP2 EQ PUSH3 0x560 JUMPI PUSH1 0x0 DUP1 REVERT JUMPDEST POP JUMP JUMPDEST PUSH1 0x0 DUP2 MLOAD SWAP1 POP PUSH3 0x574 DUP2 PUSH3 0x549 JUMP JUMPDEST SWAP3 SWAP2 POP POP JUMP JUMPDEST PUSH1 0x0 DUP2 SWAP1 POP SWAP2 SWAP1 POP JUMP JUMPDEST PUSH3 0x58F DUP2 PUSH3 0x57A JUMP JUMPDEST DUP2 EQ PUSH3 0x59B JUMPI PUSH1 0x0 DUP1 REVERT JUMPDEST POP JUMP JUMPDEST PUSH1 0x0 DUP2 MLOAD SWAP1 POP PUSH3 0x5AF DUP2 PUSH3 0x584 JUMP JUMPDEST SWAP3 SWAP2 POP POP JUMP JUMPDEST PUSH1 0x0 PUSH8 0xFFFFFFFFFFFFFFFF DUP3 GT ISZERO PUSH3 0x5D3 JUMPI PUSH3 0x5D2 PUSH3 0x3D1 JUMP JUMPDEST JUMPDEST PUSH1 0x20 DUP3 MUL SWAP1 POP PUSH1 0x20 DUP2 ADD SWAP1 POP SWAP2 SWAP1 POP JUMP JUMPDEST PUSH1 0x0 DUP1 REVERT JUMPDEST PUSH1 0x0 PUSH3 0x600 PUSH3 0x5FA DUP5 PUSH3 0x5B5 JUMP JUMPDEST PUSH3 0x436 JUMP JUMPDEST SWAP1 POP DUP1 DUP4 DUP3 MSTORE PUSH1 0x20 DUP3 ADD SWAP1 POP PUSH1 0x20 DUP5 MUL DUP4 ADD DUP6 DUP2 GT ISZERO PUSH3 0x626 JUMPI PUSH3 0x625 PUSH3 0x5E4 JUMP JUMPDEST JUMPDEST DUP4 JUMPDEST DUP2 DUP2 LT ISZERO PUSH3 0x653 JUMPI DUP1 PUSH3 0x63E DUP9 DUP3 PUSH3 0x563 JUMP JUMPDEST DUP5 MSTORE PUSH1 0x20 DUP5 ADD SWAP4 POP POP PUSH1 0x20 DUP2 ADD SWAP1 POP PUSH3 0x628 JUMP JUMPDEST POP POP POP SWAP4 SWAP3 POP POP POP JUMP JUMPDEST PUSH1 0x0 DUP3 PUSH1 0x1F DUP4 ADD SLT PUSH3 0x675 JUMPI PUSH3 0x674 PUSH3 0x3B6 JUMP JUMPDEST JUMPDEST DUP2 MLOAD PUSH3 0x687 DUP5 DUP3 PUSH1 0x20 DUP7 ADD PUSH3 0x5E9 JUMP JUMPDEST SWAP2 POP POP SWAP3 SWAP2 POP POP JUMP JUMPDEST PUSH1 0x0 PUSH20 0xFFFFFFFFFFFFFFFFFFFFFFFFFFFFFFFFFFFFFFFF DUP3 AND SWAP1 POP SWAP2 SWAP1 POP JUMP JUMPDEST PUSH1 0x0 PUSH3 0x6BD DUP3 PUSH3 0x690 JUMP JUMPDEST SWAP1 POP SWAP2 SWAP1 POP JUMP JUMPDEST PUSH3 0x6CF DUP2 PUSH3 0x6B0 JUMP JUMPDEST DUP2 EQ PUSH3 0x6DB JUMPI PUSH1 0x0 DUP1 REVERT JUMPDEST POP JUMP JUMPDEST PUSH1 0x0 DUP2 MLOAD SWAP1 POP PUSH3 0x6EF DUP2 PUSH3 0x6C4 JUMP JUMPDEST SWAP3 SWAP2 POP POP JUMP JUMPDEST PUSH1 0x0 DUP1 PUSH1 0x0 DUP1 PUSH1 0x0 DUP1 PUSH1 0x0 DUP1 PUSH1 0x0 DUP1 PUSH2 0x140 DUP12 DUP14 SUB SLT ISZERO PUSH3 0x71C JUMPI PUSH3 0x71B PUSH3 0x3AC JUMP JUMPDEST JUMPDEST PUSH1 0x0 DUP12 ADD MLOAD PUSH8 0xFFFFFFFFFFFFFFFF DUP2 GT ISZERO PUSH3 0x73D JUMPI PUSH3 0x73C PUSH3 0x3B1 JUMP JUMPDEST JUMPDEST PUSH3 0x74B DUP14 DUP3 DUP15 ADD PUSH3 0x50C JUMP JUMPDEST SWAP11 POP POP PUSH1 0x20 PUSH3 0x75E DUP14 DUP3 DUP15 ADD PUSH3 0x563 JUMP JUMPDEST SWAP10 POP POP PUSH1 0x40 PUSH3 0x771 DUP14 DUP3 DUP15 ADD PUSH3 0x59E JUMP JUMPDEST SWAP9 POP POP PUSH1 0x60 PUSH3 0x784 DUP14 DUP3 DUP15 ADD PUSH3 0x59E JUMP JUMPDEST SWAP8 POP POP PUSH1 0x80 PUSH3 0x797 DUP14 DUP3 DUP15 ADD PUSH3 0x59E JUMP JUMPDEST SWAP7 POP POP PUSH1 0xA0 PUSH3 0x7AA DUP14 DUP3 DUP15 ADD PUSH3 0x59E JUMP JUMPDEST SWAP6 POP POP PUSH1 0xC0 PUSH3 0x7BD DUP14 DUP3 DUP15 ADD PUSH3 0x59E JUMP JUMPDEST SWAP5 POP POP PUSH1 0xE0 DUP12 ADD MLOAD PUSH8 0xFFFFFFFFFFFFFFFF DUP2 GT ISZERO PUSH3 0x7E1 JUMPI PUSH3 0x7E0 PUSH3 0x3B1 JUMP JUMPDEST JUMPDEST PUSH3 0x7EF DUP14 DUP3 DUP15 ADD PUSH3 0x50C JUMP JUMPDEST SWAP4 POP POP PUSH2 0x100 DUP12 ADD MLOAD PUSH8 0xFFFFFFFFFFFFFFFF DUP2 GT ISZERO PUSH3 0x814 JUMPI PUSH3 0x813 PUSH3 0x3B1 JUMP JUMPDEST JUMPDEST PUSH3 0x822 DUP14 DUP3 DUP15 ADD PUSH3 0x65D JUMP JUMPDEST SWAP3 POP POP PUSH2 0x120 PUSH3 0x836 DUP14 DUP3 DUP15 ADD PUSH3 0x6DE JUMP JUMPDEST SWAP2 POP POP SWAP3 SWAP6 SWAP9 SWAP12 SWAP2 SWAP5 SWAP8 SWAP11 POP SWAP3 SWAP6 SWAP9 POP JUMP JUMPDEST PUSH32 0x4E487B7100000000000000000000000000000000000000000000000000000000 PUSH1 0x0 MSTORE PUSH1 0x11 PUSH1 0x4 MSTORE PUSH1 0x24 PUSH1 0x0 REVERT JUMPDEST PUSH1 0x0 PUSH3 0x884 DUP3 PUSH3 0x57A JUMP JUMPDEST SWAP2 POP PUSH3 0x891 DUP4 PUSH3 0x57A JUMP JUMPDEST SWAP3 POP DUP3 PUSH32 0xFFFFFFFFFFFFFFFFFFFFFFFFFFFFFFFFFFFFFFFFFFFFFFFFFFFFFFFFFFFFFFFF SUB DUP3 GT ISZERO PUSH3 0x8C9 JUMPI PUSH3 0x8C8 PUSH3 0x848 JUMP JUMPDEST JUMPDEST DUP3 DUP3 ADD SWAP1 POP SWAP3 SWAP2 POP POP JUMP JUMPDEST PUSH1 0x0 DUP3 DUP3 MSTORE PUSH1 0x20 DUP3 ADD SWAP1 POP SWAP3 SWAP2 POP POP JUMP JUMPDEST PUSH32 0x43616D706169676E496E666F3A204D696E696D756D2063616D706169676E2064 PUSH1 0x0 DUP3 ADD MSTORE PUSH32 0x7561726174696F6E206E6F74206D657400000000000000000000000000000000 PUSH1 0x20 DUP3 ADD MSTORE POP JUMP JUMPDEST PUSH1 0x0 PUSH3 0x943 PUSH1 0x30 DUP4 PUSH3 0x8D4 JUMP JUMPDEST SWAP2 POP PUSH3 0x950 DUP3 PUSH3 0x8E5 JUMP JUMPDEST PUSH1 0x40 DUP3 ADD SWAP1 POP SWAP2 SWAP1 POP JUMP JUMPDEST PUSH1 0x0 PUSH1 0x20 DUP3 ADD SWAP1 POP DUP2 DUP2 SUB PUSH1 0x0 DUP4 ADD MSTORE PUSH3 0x976 DUP2 PUSH3 0x934 JUMP JUMPDEST SWAP1 POP SWAP2 SWAP1 POP JUMP JUMPDEST PUSH32 0x4E487B7100000000000000000000000000000000000000000000000000000000 PUSH1 0x0 MSTORE PUSH1 0x22 PUSH1 0x4 MSTORE PUSH1 0x24 PUSH1 0x0 REVERT JUMPDEST PUSH1 0x0 PUSH1 0x2 DUP3 DIV SWAP1 POP PUSH1 0x1 DUP3 AND DUP1 PUSH3 0x9C5 JUMPI PUSH1 0x7F DUP3 AND SWAP2 POP JUMPDEST PUSH1 0x20 DUP3 LT DUP2 EQ ISZERO PUSH3 0x9DC JUMPI PUSH3 0x9DB PUSH3 0x97D JUMP JUMPDEST JUMPDEST POP SWAP2 SWAP1 POP JUMP JUMPDEST PUSH2 0x3FF5 DUP1 PUSH3 0x9F2 PUSH1 0x0 CODECOPY PUSH1 0x0 RETURN INVALID PUSH1 0x80 PUSH1 0x40 MSTORE CALLVALUE DUP1 ISZERO PUSH2 0x10 JUMPI PUSH1 0x0 DUP1 REVERT JUMPDEST POP PUSH1 0x4 CALLDATASIZE LT PUSH2 0x1CF JUMPI PUSH1 0x0 CALLDATALOAD PUSH1 0xE0 SHR DUP1 PUSH4 0x8456CB59 GT PUSH2 0x104 JUMPI DUP1 PUSH4 0xDEAAF241 GT PUSH2 0xA2 JUMPI DUP1 PUSH4 0xF2FDE38B GT PUSH2 0x71 JUMPI DUP1 PUSH4 0xF2FDE38B EQ PUSH2 0x48A JUMPI DUP1 PUSH4 0xF6B854FF EQ PUSH2 0x4A6 JUMPI DUP1 PUSH4 0xF8403676 EQ PUSH2 0x4C2 JUMPI DUP1 PUSH4 0xFB7846DF EQ PUSH2 0x4E0 JUMPI PUSH2 0x1CF JUMP JUMPDEST DUP1 PUSH4 0xDEAAF241 EQ PUSH2 0x418 JUMPI DUP1 PUSH4 0xE12900F2 EQ PUSH2 0x434 JUMPI DUP1 PUSH4 0xEFBE1C1C EQ PUSH2 0x464 JUMPI DUP1 PUSH4 0xF18F409F EQ PUSH2 0x46E JUMPI PUSH2 0x1CF JUMP JUMPDEST DUP1 PUSH4 0x9BD4DD3C GT PUSH2 0xDE JUMPI DUP1 PUSH4 0x9BD4DD3C EQ PUSH2 0x3B1 JUMPI DUP1 PUSH4 0xA0797F75 EQ PUSH2 0x3CD JUMPI DUP1 PUSH4 0xB0E10C61 EQ PUSH2 0x3EB JUMPI DUP1 PUSH4 0xC4176338 EQ PUSH2 0x3F5 JUMPI PUSH2 0x1CF JUMP JUMPDEST DUP1 PUSH4 0x8456CB59 EQ PUSH2 0x359 JUMPI DUP1 PUSH4 0x84EA5C74 EQ PUSH2 0x363 JUMPI DUP1 PUSH4 0x8DA5CB5B EQ PUSH2 0x393 JUMPI PUSH2 0x1CF JUMP JUMPDEST DUP1 PUSH4 0x4DA7F432 GT PUSH2 0x171 JUMPI DUP1 PUSH4 0x60F67BC8 GT PUSH2 0x14B JUMPI DUP1 PUSH4 0x60F67BC8 EQ PUSH2 0x30D JUMPI DUP1 PUSH4 0x715018A6 EQ PUSH2 0x329 JUMPI DUP1 PUSH4 0x7568173B EQ PUSH2 0x333 JUMPI DUP1 PUSH4 0x83D23AB3 EQ PUSH2 0x33D JUMPI PUSH2 0x1CF JUMP JUMPDEST DUP1 PUSH4 0x4DA7F432 EQ PUSH2 0x2C9 JUMPI DUP1 PUSH4 0x55BF3112 EQ PUSH2 0x2E5 JUMPI DUP1 PUSH4 0x5C975ABB EQ PUSH2 0x2EF JUMPI PUSH2 0x1CF JUMP JUMPDEST DUP1 PUSH4 0x30C00B00 GT PUSH2 0x1AD JUMPI DUP1 PUSH4 0x30C00B00 EQ PUSH2 0x240 JUMPI DUP1 PUSH4 0x32A8E034 EQ PUSH2 0x270 JUMPI DUP1 PUSH4 0x33A06C81 EQ PUSH2 0x2A1 JUMPI DUP1 PUSH4 0x3F4BA83A EQ PUSH2 0x2BF JUMPI PUSH2 0x1CF JUMP JUMPDEST DUP1 PUSH4 0x26D7CFD EQ PUSH2 0x1D4 JUMPI DUP1 PUSH4 0x2E162DB6 EQ PUSH2 0x1F2 JUMPI DUP1 PUSH4 0x2EE8EBF7 EQ PUSH2 0x210 JUMPI JUMPDEST PUSH1 0x0 DUP1 REVERT JUMPDEST PUSH2 0x1DC PUSH2 0x510 JUMP JUMPDEST PUSH1 0x40 MLOAD PUSH2 0x1E9 SWAP2 SWAP1 PUSH2 0x2FA2 JUMP JUMPDEST PUSH1 0x40 MLOAD DUP1 SWAP2 SUB SWAP1 RETURN JUMPDEST PUSH2 0x1FA PUSH2 0x515 JUMP JUMPDEST PUSH1 0x40 MLOAD PUSH2 0x207 SWAP2 SWAP1 PUSH2 0x3085 JUMP JUMPDEST PUSH1 0x40 MLOAD DUP1 SWAP2 SUB SWAP1 RETURN JUMPDEST PUSH2 0x22A PUSH1 0x4 DUP1 CALLDATASIZE SUB DUP2 ADD SWAP1 PUSH2 0x225 SWAP2 SWAP1 PUSH2 0x3240 JUMP JUMPDEST PUSH2 0x570 JUMP JUMPDEST PUSH1 0x40 MLOAD PUSH2 0x237 SWAP2 SWAP1 PUSH2 0x335A JUMP JUMPDEST PUSH1 0x40 MLOAD DUP1 SWAP2 SUB SWAP1 RETURN JUMPDEST PUSH2 0x25A PUSH1 0x4 DUP1 CALLDATASIZE SUB DUP2 ADD SWAP1 PUSH2 0x255 SWAP2 SWAP1 PUSH2 0x33A8 JUMP JUMPDEST PUSH2 0x641 JUMP JUMPDEST PUSH1 0x40 MLOAD PUSH2 0x267 SWAP2 SWAP1 PUSH2 0x2FA2 JUMP JUMPDEST PUSH1 0x40 MLOAD DUP1 SWAP2 SUB SWAP1 RETURN JUMPDEST PUSH2 0x28A PUSH1 0x4 DUP1 CALLDATASIZE SUB DUP2 ADD SWAP1 PUSH2 0x285 SWAP2 SWAP1 PUSH2 0x33D5 JUMP JUMPDEST PUSH2 0x7DE JUMP JUMPDEST PUSH1 0x40 MLOAD PUSH2 0x298 SWAP3 SWAP2 SWAP1 PUSH2 0x3458 JUMP JUMPDEST PUSH1 0x40 MLOAD DUP1 SWAP2 SUB SWAP1 RETURN JUMPDEST PUSH2 0x2A9 PUSH2 0x852 JUMP JUMPDEST PUSH1 0x40 MLOAD PUSH2 0x2B6 SWAP2 SWAP1 PUSH2 0x2FA2 JUMP JUMPDEST PUSH1 0x40 MLOAD DUP1 SWAP2 SUB SWAP1 RETURN JUMPDEST PUSH2 0x2C7 PUSH2 0xB1B JUMP JUMPDEST STOP JUMPDEST PUSH2 0x2E3 PUSH1 0x4 DUP1 CALLDATASIZE SUB DUP2 ADD SWAP1 PUSH2 0x2DE SWAP2 SWAP1 PUSH2 0x3488 JUMP JUMPDEST PUSH2 0xC93 JUMP JUMPDEST STOP JUMPDEST PUSH2 0x2ED PUSH2 0xE2C JUMP JUMPDEST STOP JUMPDEST PUSH2 0x2F7 PUSH2 0x115E JUMP JUMPDEST PUSH1 0x40 MLOAD PUSH2 0x304 SWAP2 SWAP1 PUSH2 0x34D0 JUMP JUMPDEST PUSH1 0x40 MLOAD DUP1 SWAP2 SUB SWAP1 RETURN JUMPDEST PUSH2 0x327 PUSH1 0x4 DUP1 CALLDATASIZE SUB DUP2 ADD SWAP1 PUSH2 0x322 SWAP2 SWAP1 PUSH2 0x3549 JUMP JUMPDEST PUSH2 0x1174 JUMP JUMPDEST STOP JUMPDEST PUSH2 0x331 PUSH2 0x13D0 JUMP JUMPDEST STOP JUMPDEST PUSH2 0x33B PUSH2 0x13E4 JUMP JUMPDEST STOP JUMPDEST PUSH2 0x357 PUSH1 0x4 DUP1 CALLDATASIZE SUB DUP2 ADD SWAP1 PUSH2 0x352 SWAP2 SWAP1 PUSH2 0x33A8 JUMP JUMPDEST PUSH2 0x15FE JUMP JUMPDEST STOP JUMPDEST PUSH2 0x361 PUSH2 0x179B JUMP JUMPDEST STOP JUMPDEST PUSH2 0x37D PUSH1 0x4 DUP1 CALLDATASIZE SUB DUP2 ADD SWAP1 PUSH2 0x378 SWAP2 SWAP1 PUSH2 0x33A8 JUMP JUMPDEST PUSH2 0x1913 JUMP JUMPDEST PUSH1 0x40 MLOAD PUSH2 0x38A SWAP2 SWAP1 PUSH2 0x35AB JUMP JUMPDEST PUSH1 0x40 MLOAD DUP1 SWAP2 SUB SWAP1 RETURN JUMPDEST PUSH2 0x39B PUSH2 0x19F5 JUMP JUMPDEST PUSH1 0x40 MLOAD PUSH2 0x3A8 SWAP2 SWAP1 PUSH2 0x35AB JUMP JUMPDEST PUSH1 0x40 MLOAD DUP1 SWAP2 SUB SWAP1 RETURN JUMPDEST PUSH2 0x3CB PUSH1 0x4 DUP1 CALLDATASIZE SUB DUP2 ADD SWAP1 PUSH2 0x3C6 SWAP2 SWAP1 PUSH2 0x3488 JUMP JUMPDEST PUSH2 0x1A1E JUMP JUMPDEST STOP JUMPDEST PUSH2 0x3D5 PUSH2 0x1BB7 JUMP JUMPDEST PUSH1 0x40 MLOAD PUSH2 0x3E2 SWAP2 SWAP1 PUSH2 0x35D5 JUMP JUMPDEST PUSH1 0x40 MLOAD DUP1 SWAP2 SUB SWAP1 RETURN JUMPDEST PUSH2 0x3F3 PUSH2 0x1BC3 JUMP JUMPDEST STOP JUMPDEST PUSH2 0x3FD PUSH2 0x1EF5 JUMP JUMPDEST PUSH1 0x40 MLOAD PUSH2 0x40F SWAP7 SWAP6 SWAP5 SWAP4 SWAP3 SWAP2 SWAP1 PUSH2 0x3678 JUMP JUMPDEST PUSH1 0x40 MLOAD DUP1 SWAP2 SUB SWAP1 RETURN JUMPDEST PUSH2 0x432 PUSH1 0x4 DUP1 CALLDATASIZE SUB DUP2 ADD SWAP1 PUSH2 0x42D SWAP2 SWAP1 PUSH2 0x36E7 JUMP JUMPDEST PUSH2 0x204D JUMP JUMPDEST STOP JUMPDEST PUSH2 0x44E PUSH1 0x4 DUP1 CALLDATASIZE SUB DUP2 ADD SWAP1 PUSH2 0x449 SWAP2 SWAP1 PUSH2 0x374E JUMP JUMPDEST PUSH2 0x22B7 JUMP JUMPDEST PUSH1 0x40 MLOAD PUSH2 0x45B SWAP2 SWAP1 PUSH2 0x2FA2 JUMP JUMPDEST PUSH1 0x40 MLOAD DUP1 SWAP2 SUB SWAP1 RETURN JUMPDEST PUSH2 0x46C PUSH2 0x2312 JUMP JUMPDEST STOP JUMPDEST PUSH2 0x488 PUSH1 0x4 DUP1 CALLDATASIZE SUB DUP2 ADD SWAP1 PUSH2 0x483 SWAP2 SWAP1 PUSH2 0x3488 JUMP JUMPDEST PUSH2 0x249D JUMP JUMPDEST STOP JUMPDEST PUSH2 0x4A4 PUSH1 0x4 DUP1 CALLDATASIZE SUB DUP2 ADD SWAP1 PUSH2 0x49F SWAP2 SWAP1 PUSH2 0x378E JUMP JUMPDEST PUSH2 0x2618 JUMP JUMPDEST STOP JUMPDEST PUSH2 0x4C0 PUSH1 0x4 DUP1 CALLDATASIZE SUB DUP2 ADD SWAP1 PUSH2 0x4BB SWAP2 SWAP1 PUSH2 0x37BB JUMP JUMPDEST PUSH2 0x269C JUMP JUMPDEST STOP JUMPDEST PUSH2 0x4CA PUSH2 0x281E JUMP JUMPDEST PUSH1 0x40 MLOAD PUSH2 0x4D7 SWAP2 SWAP1 PUSH2 0x2FA2 JUMP JUMPDEST PUSH1 0x40 MLOAD DUP1 SWAP2 SUB SWAP1 RETURN JUMPDEST PUSH2 0x4FA PUSH1 0x4 DUP1 CALLDATASIZE SUB DUP2 ADD SWAP1 PUSH2 0x4F5 SWAP2 SWAP1 PUSH2 0x33A8 JUMP JUMPDEST PUSH2 0x2B87 JUMP JUMPDEST PUSH1 0x40 MLOAD PUSH2 0x507 SWAP2 SWAP1 PUSH2 0x2FA2 JUMP JUMPDEST PUSH1 0x40 MLOAD DUP1 SWAP2 SUB SWAP1 RETURN JUMPDEST PUSH1 0x0 SWAP1 JUMP JUMPDEST PUSH1 0x60 PUSH1 0x1 PUSH1 0x7 ADD DUP1 SLOAD DUP1 PUSH1 0x20 MUL PUSH1 0x20 ADD PUSH1 0x40 MLOAD SWAP1 DUP2 ADD PUSH1 0x40 MSTORE DUP1 SWAP3 SWAP2 SWAP1 DUP2 DUP2 MSTORE PUSH1 0x20 ADD DUP3 DUP1 SLOAD DUP1 ISZERO PUSH2 0x566 JUMPI PUSH1 0x20 MUL DUP3 ADD SWAP2 SWAP1 PUSH1 0x0 MSTORE PUSH1 0x20 PUSH1 0x0 KECCAK256 SWAP1 JUMPDEST DUP2 SLOAD DUP2 MSTORE PUSH1 0x20 ADD SWAP1 PUSH1 0x1 ADD SWAP1 DUP1 DUP4 GT PUSH2 0x552 JUMPI JUMPDEST POP POP POP POP POP SWAP1 POP SWAP1 JUMP JUMPDEST PUSH1 0x60 PUSH1 0x0 DUP3 MLOAD SWAP1 POP PUSH1 0x0 DUP2 PUSH8 0xFFFFFFFFFFFFFFFF DUP2 GT ISZERO PUSH2 0x594 JUMPI PUSH2 0x593 PUSH2 0x30FD JUMP JUMPDEST JUMPDEST PUSH1 0x40 MLOAD SWAP1 DUP1 DUP3 MSTORE DUP1 PUSH1 0x20 MUL PUSH1 0x20 ADD DUP3 ADD PUSH1 0x40 MSTORE DUP1 ISZERO PUSH2 0x5C2 JUMPI DUP2 PUSH1 0x20 ADD PUSH1 0x20 DUP3 MUL DUP1 CALLDATASIZE DUP4 CALLDATACOPY DUP1 DUP3 ADD SWAP2 POP POP SWAP1 POP JUMPDEST POP SWAP1 POP PUSH1 0x0 JUMPDEST DUP3 DUP2 LT ISZERO PUSH2 0x635 JUMPI PUSH2 0x2710 DUP7 DUP7 DUP4 DUP2 MLOAD DUP2 LT PUSH2 0x5E7 JUMPI PUSH2 0x5E6 PUSH2 0x37FB JUMP JUMPDEST JUMPDEST PUSH1 0x20 MUL PUSH1 0x20 ADD ADD MLOAD PUSH2 0x5F9 SWAP2 SWAP1 PUSH2 0x3859 JUMP JUMPDEST PUSH2 0x603 SWAP2 SWAP1 PUSH2 0x38E2 JUMP JUMPDEST DUP3 DUP3 DUP2 MLOAD DUP2 LT PUSH2 0x616 JUMPI PUSH2 0x615 PUSH2 0x37FB JUMP JUMPDEST JUMPDEST PUSH1 0x20 MUL PUSH1 0x20 ADD ADD DUP2 DUP2 MSTORE POP POP DUP1 DUP1 PUSH2 0x62D SWAP1 PUSH2 0x3913 JUMP JUMPDEST SWAP2 POP POP PUSH2 0x5C8 JUMP JUMPDEST POP DUP1 SWAP3 POP POP POP SWAP3 SWAP2 POP POP JUMP JUMPDEST PUSH1 0x0 DUP2 PUSH1 0x0 PUSH20 0xFFFFFFFFFFFFFFFFFFFFFFFFFFFFFFFFFFFFFFFF AND PUSH1 0x10 PUSH1 0x0 DUP4 DUP2 MSTORE PUSH1 0x20 ADD SWAP1 DUP2 MSTORE PUSH1 0x20 ADD PUSH1 0x0 KECCAK256 PUSH1 0x0 SWAP1 SLOAD SWAP1 PUSH2 0x100 EXP SWAP1 DIV PUSH20 0xFFFFFFFFFFFFFFFFFFFFFFFFFFFFFFFFFFFFFFFF AND PUSH20 0xFFFFFFFFFFFFFFFFFFFFFFFFFFFFFFFFFFFFFFFF AND EQ ISZERO PUSH2 0x6E7 JUMPI PUSH1 0x40 MLOAD PUSH32 0x8C379A000000000000000000000000000000000000000000000000000000000 DUP2 MSTORE PUSH1 0x4 ADD PUSH2 0x6DE SWAP1 PUSH2 0x39CE JUMP JUMPDEST PUSH1 0x40 MLOAD DUP1 SWAP2 SUB SWAP1 REVERT JUMPDEST PUSH1 0x11 PUSH1 0x0 DUP5 DUP2 MSTORE PUSH1 0x20 ADD SWAP1 DUP2 MSTORE PUSH1 0x20 ADD PUSH1 0x0 KECCAK256 PUSH1 0x0 SWAP1 SLOAD SWAP1 PUSH2 0x100 EXP SWAP1 DIV PUSH20 0xFFFFFFFFFFFFFFFFFFFFFFFFFFFFFFFFFFFFFFFF AND PUSH20 0xFFFFFFFFFFFFFFFFFFFFFFFFFFFFFFFFFFFFFFFF AND PUSH4 0x70A08231 PUSH1 0x10 PUSH1 0x0 DUP7 DUP2 MSTORE PUSH1 0x20 ADD SWAP1 DUP2 MSTORE PUSH1 0x20 ADD PUSH1 0x0 KECCAK256 PUSH1 0x0 SWAP1 SLOAD SWAP1 PUSH2 0x100 EXP SWAP1 DIV PUSH20 0xFFFFFFFFFFFFFFFFFFFFFFFFFFFFFFFFFFFFFFFF AND PUSH1 0x40 MLOAD DUP3 PUSH4 0xFFFFFFFF AND PUSH1 0xE0 SHL DUP2 MSTORE PUSH1 0x4 ADD PUSH2 0x786 SWAP2 SWAP1 PUSH2 0x35AB JUMP JUMPDEST PUSH1 0x20 PUSH1 0x40 MLOAD DUP1 DUP4 SUB DUP2 DUP7 DUP1 EXTCODESIZE ISZERO DUP1 ISZERO PUSH2 0x79E JUMPI PUSH1 0x0 DUP1 REVERT JUMPDEST POP GAS STATICCALL ISZERO DUP1 ISZERO PUSH2 0x7B2 JUMPI RETURNDATASIZE PUSH1 0x0 DUP1 RETURNDATACOPY RETURNDATASIZE PUSH1 0x0 REVERT JUMPDEST POP POP POP POP PUSH1 0x40 MLOAD RETURNDATASIZE PUSH1 0x1F NOT PUSH1 0x1F DUP3 ADD AND DUP3 ADD DUP1 PUSH1 0x40 MSTORE POP DUP2 ADD SWAP1 PUSH2 0x7D6 SWAP2 SWAP1 PUSH2 0x3A03 JUMP JUMPDEST SWAP2 POP POP SWAP2 SWAP1 POP JUMP JUMPDEST PUSH1 0x0 PUSH1 0x60 PUSH1 0x0 DUP4 MLOAD SWAP1 POP PUSH1 0x0 PUSH1 0x1 DUP3 PUSH2 0x7F7 SWAP2 SWAP1 PUSH2 0x3A30 JUMP JUMPDEST DUP8 DUP10 PUSH2 0x803 SWAP2 SWAP1 PUSH2 0x3A86 JUMP JUMPDEST PUSH2 0x80D SWAP2 SWAP1 PUSH2 0x38E2 JUMP JUMPDEST SWAP1 POP PUSH1 0x0 PUSH2 0x2710 DUP3 DUP10 PUSH2 0x820 SWAP2 SWAP1 PUSH2 0x3A30 JUMP JUMPDEST DUP9 PUSH2 0x82B SWAP2 SWAP1 PUSH2 0x3859 JUMP JUMPDEST PUSH2 0x835 SWAP2 SWAP1 PUSH2 0x38E2 JUMP JUMPDEST SWAP1 POP DUP1 PUSH2 0x842 DUP4 DUP9 PUSH2 0x570 JUMP JUMPDEST SWAP5 POP SWAP5 POP POP POP POP SWAP5 POP SWAP5 SWAP3 POP POP POP JUMP JUMPDEST PUSH1 0x0 DUP1 PUSH1 0x10 PUSH1 0x0 PUSH1 0x1 DUP1 ADD SLOAD DUP2 MSTORE PUSH1 0x20 ADD SWAP1 DUP2 MSTORE PUSH1 0x20 ADD PUSH1 0x0 KECCAK256 PUSH1 0x0 SWAP1 SLOAD SWAP1 PUSH2 0x100 EXP SWAP1 DIV PUSH20 0xFFFFFFFFFFFFFFFFFFFFFFFFFFFFFFFFFFFFFFFF AND SWAP1 POP PUSH1 0x0 PUSH20 0xFFFFFFFFFFFFFFFFFFFFFFFFFFFFFFFFFFFFFFFF AND DUP2 PUSH20 0xFFFFFFFFFFFFFFFFFFFFFFFFFFFFFFFFFFFFFFFF AND EQ ISZERO PUSH2 0x8FF JUMPI PUSH1 0x40 MLOAD PUSH32 0x8C379A000000000000000000000000000000000000000000000000000000000 DUP2 MSTORE PUSH1 0x4 ADD PUSH2 0x8F6 SWAP1 PUSH2 0x3B2C JUMP JUMPDEST PUSH1 0x40 MLOAD DUP1 SWAP2 SUB SWAP1 REVERT JUMPDEST PUSH1 0x0 PUSH1 0x1 PUSH1 0x7 ADD DUP1 SLOAD DUP1 PUSH1 0x20 MUL PUSH1 0x20 ADD PUSH1 0x40 MLOAD SWAP1 DUP2 ADD PUSH1 0x40 MSTORE DUP1 SWAP3 SWAP2 SWAP1 DUP2 DUP2 MSTORE PUSH1 0x20 ADD DUP3 DUP1 SLOAD DUP1 ISZERO PUSH2 0x950 JUMPI PUSH1 0x20 MUL DUP3 ADD SWAP2 SWAP1 PUSH1 0x0 MSTORE PUSH1 0x20 PUSH1 0x0 KECCAK256 SWAP1 JUMPDEST DUP2 SLOAD DUP2 MSTORE PUSH1 0x20 ADD SWAP1 PUSH1 0x1 ADD SWAP1 DUP1 DUP4 GT PUSH2 0x93C JUMPI JUMPDEST POP POP POP POP POP SWAP1 POP PUSH1 0x0 DUP2 MLOAD SWAP1 POP PUSH1 0x0 DUP4 PUSH20 0xFFFFFFFFFFFFFFFFFFFFFFFFFFFFFFFFFFFFFFFF AND PUSH4 0x186BC549 PUSH1 0x40 MLOAD DUP2 PUSH4 0xFFFFFFFF AND PUSH1 0xE0 SHL DUP2 MSTORE PUSH1 0x4 ADD PUSH1 0x20 PUSH1 0x40 MLOAD DUP1 DUP4 SUB DUP2 DUP7 DUP1 EXTCODESIZE ISZERO DUP1 ISZERO PUSH2 0x9A5 JUMPI PUSH1 0x0 DUP1 REVERT JUMPDEST POP GAS STATICCALL ISZERO DUP1 ISZERO PUSH2 0x9B9 JUMPI RETURNDATASIZE PUSH1 0x0 DUP1 RETURNDATACOPY RETURNDATASIZE PUSH1 0x0 REVERT JUMPDEST POP POP POP POP PUSH1 0x40 MLOAD RETURNDATASIZE PUSH1 0x1F NOT PUSH1 0x1F DUP3 ADD AND DUP3 ADD DUP1 PUSH1 0x40 MSTORE POP DUP2 ADD SWAP1 PUSH2 0x9DD SWAP2 SWAP1 PUSH2 0x3A03 JUMP JUMPDEST SWAP1 POP PUSH1 0x0 JUMPDEST DUP3 DUP2 LT ISZERO PUSH2 0xB10 JUMPI PUSH1 0x0 PUSH1 0x10 PUSH1 0x0 DUP7 DUP5 DUP2 MLOAD DUP2 LT PUSH2 0xA03 JUMPI PUSH2 0xA02 PUSH2 0x37FB JUMP JUMPDEST JUMPDEST PUSH1 0x20 MUL PUSH1 0x20 ADD ADD MLOAD DUP2 MSTORE PUSH1 0x20 ADD SWAP1 DUP2 MSTORE PUSH1 0x20 ADD PUSH1 0x0 KECCAK256 PUSH1 0x0 SWAP1 SLOAD SWAP1 PUSH2 0x100 EXP SWAP1 DIV PUSH20 0xFFFFFFFFFFFFFFFFFFFFFFFFFFFFFFFFFFFFFFFF AND SWAP1 POP PUSH1 0x0 PUSH20 0xFFFFFFFFFFFFFFFFFFFFFFFFFFFFFFFFFFFFFFFF AND DUP2 PUSH20 0xFFFFFFFFFFFFFFFFFFFFFFFFFFFFFFFFFFFFFFFF AND EQ PUSH2 0xAFC JUMPI DUP1 PUSH20 0xFFFFFFFFFFFFFFFFFFFFFFFFFFFFFFFFFFFFFFFF AND PUSH4 0x186BC549 PUSH1 0x40 MLOAD DUP2 PUSH4 0xFFFFFFFF AND PUSH1 0xE0 SHL DUP2 MSTORE PUSH1 0x4 ADD PUSH1 0x20 PUSH1 0x40 MLOAD DUP1 DUP4 SUB DUP2 DUP7 DUP1 EXTCODESIZE ISZERO DUP1 ISZERO PUSH2 0xAB6 JUMPI PUSH1 0x0 DUP1 REVERT JUMPDEST POP GAS STATICCALL ISZERO DUP1 ISZERO PUSH2 0xACA JUMPI RETURNDATASIZE PUSH1 0x0 DUP1 RETURNDATACOPY RETURNDATASIZE PUSH1 0x0 REVERT JUMPDEST POP POP POP POP PUSH1 0x40 MLOAD RETURNDATASIZE PUSH1 0x1F NOT PUSH1 0x1F DUP3 ADD AND DUP3 ADD DUP1 PUSH1 0x40 MSTORE POP DUP2 ADD SWAP1 PUSH2 0xAEE SWAP2 SWAP1 PUSH2 0x3A03 JUMP JUMPDEST DUP4 PUSH2 0xAF9 SWAP2 SWAP1 PUSH2 0x3A30 JUMP JUMPDEST SWAP3 POP JUMPDEST POP DUP1 DUP1 PUSH2 0xB08 SWAP1 PUSH2 0x3913 JUMP JUMPDEST SWAP2 POP POP PUSH2 0x9E2 JUMP JUMPDEST POP DUP1 SWAP5 POP POP POP POP POP SWAP1 JUMP JUMPDEST PUSH1 0x9 PUSH1 0x15 SWAP1 SLOAD SWAP1 PUSH2 0x100 EXP SWAP1 DIV PUSH1 0xFF AND ISZERO PUSH2 0xB6B JUMPI PUSH1 0x40 MLOAD PUSH32 0x8C379A000000000000000000000000000000000000000000000000000000000 DUP2 MSTORE PUSH1 0x4 ADD PUSH2 0xB62 SWAP1 PUSH2 0x3B98 JUMP JUMPDEST PUSH1 0x40 MLOAD DUP1 SWAP2 SUB SWAP1 REVERT JUMPDEST PUSH1 0x1 PUSH1 0x5 ADD SLOAD TIMESTAMP LT PUSH2 0xBB2 JUMPI PUSH1 0x40 MLOAD PUSH32 0x8C379A000000000000000000000000000000000000000000000000000000000 DUP2 MSTORE PUSH1 0x4 ADD PUSH2 0xBA9 SWAP1 PUSH2 0x3C04 JUMP JUMPDEST PUSH1 0x40 MLOAD DUP1 SWAP2 SUB SWAP1 REVERT JUMPDEST PUSH1 0x9 PUSH1 0x0 SWAP1 SLOAD SWAP1 PUSH2 0x100 EXP SWAP1 DIV PUSH20 0xFFFFFFFFFFFFFFFFFFFFFFFFFFFFFFFFFFFFFFFF AND PUSH20 0xFFFFFFFFFFFFFFFFFFFFFFFFFFFFFFFFFFFFFFFF AND PUSH4 0x8DA5CB5B PUSH1 0x40 MLOAD DUP2 PUSH4 0xFFFFFFFF AND PUSH1 0xE0 SHL DUP2 MSTORE PUSH1 0x4 ADD PUSH1 0x20 PUSH1 0x40 MLOAD DUP1 DUP4 SUB DUP2 DUP7 DUP1 EXTCODESIZE ISZERO DUP1 ISZERO PUSH2 0xC1A JUMPI PUSH1 0x0 DUP1 REVERT JUMPDEST POP GAS STATICCALL ISZERO DUP1 ISZERO PUSH2 0xC2E JUMPI RETURNDATASIZE PUSH1 0x0 DUP1 RETURNDATACOPY RETURNDATASIZE PUSH1 0x0 REVERT JUMPDEST POP POP POP POP PUSH1 0x40 MLOAD RETURNDATASIZE PUSH1 0x1F NOT PUSH1 0x1F DUP3 ADD AND DUP3 ADD DUP1 PUSH1 0x40 MSTORE POP DUP2 ADD SWAP1 PUSH2 0xC52 SWAP2 SWAP1 PUSH2 0x3C39 JUMP JUMPDEST PUSH20 0xFFFFFFFFFFFFFFFFFFFFFFFFFFFFFFFFFFFFFFFF AND CALLER PUSH20 0xFFFFFFFFFFFFFFFFFFFFFFFFFFFFFFFFFFFFFFFF AND EQ PUSH2 0xC89 JUMPI PUSH1 0x0 DUP1 REVERT JUMPDEST PUSH2 0xC91 PUSH2 0x2C7F JUMP JUMPDEST JUMP JUMPDEST PUSH1 0x9 PUSH1 0x15 SWAP1 SLOAD SWAP1 PUSH2 0x100 EXP SWAP1 DIV PUSH1 0xFF AND ISZERO PUSH2 0xCE3 JUMPI PUSH1 0x40 MLOAD PUSH32 0x8C379A000000000000000000000000000000000000000000000000000000000 DUP2 MSTORE PUSH1 0x4 ADD PUSH2 0xCDA SWAP1 PUSH2 0x3B98 JUMP JUMPDEST PUSH1 0x40 MLOAD DUP1 SWAP2 SUB SWAP1 REVERT JUMPDEST PUSH1 0x1 PUSH1 0x5 ADD SLOAD TIMESTAMP LT PUSH2 0xD2A JUMPI PUSH1 0x40 MLOAD PUSH32 0x8C379A000000000000000000000000000000000000000000000000000000000 DUP2 MSTORE PUSH1 0x4 ADD PUSH2 0xD21 SWAP1 PUSH2 0x3C04 JUMP JUMPDEST PUSH1 0x40 MLOAD DUP1 SWAP2 SUB SWAP1 REVERT JUMPDEST PUSH1 0x9 PUSH1 0x0 SWAP1 SLOAD SWAP1 PUSH2 0x100 EXP SWAP1 DIV PUSH20 0xFFFFFFFFFFFFFFFFFFFFFFFFFFFFFFFFFFFFFFFF AND PUSH20 0xFFFFFFFFFFFFFFFFFFFFFFFFFFFFFFFFFFFFFFFF AND PUSH4 0x8DA5CB5B PUSH1 0x40 MLOAD DUP2 PUSH4 0xFFFFFFFF AND PUSH1 0xE0 SHL DUP2 MSTORE PUSH1 0x4 ADD PUSH1 0x20 PUSH1 0x40 MLOAD DUP1 DUP4 SUB DUP2 DUP7 DUP1 EXTCODESIZE ISZERO DUP1 ISZERO PUSH2 0xD92 JUMPI PUSH1 0x0 DUP1 REVERT JUMPDEST POP GAS STATICCALL ISZERO DUP1 ISZERO PUSH2 0xDA6 JUMPI RETURNDATASIZE PUSH1 0x0 DUP1 RETURNDATACOPY RETURNDATASIZE PUSH1 0x0 REVERT JUMPDEST POP POP POP POP PUSH1 0x40 MLOAD RETURNDATASIZE PUSH1 0x1F NOT PUSH1 0x1F DUP3 ADD AND DUP3 ADD DUP1 PUSH1 0x40 MSTORE POP DUP2 ADD SWAP1 PUSH2 0xDCA SWAP2 SWAP1 PUSH2 0x3C39 JUMP JUMPDEST PUSH20 0xFFFFFFFFFFFFFFFFFFFFFFFFFFFFFFFFFFFFFFFF AND CALLER PUSH20 0xFFFFFFFFFFFFFFFFFFFFFFFFFFFFFFFFFFFFFFFF AND EQ PUSH2 0xE01 JUMPI PUSH1 0x0 DUP1 REVERT JUMPDEST PUSH1 0x1 PUSH1 0x5 ADD SLOAD PUSH1 0xA SLOAD DUP3 PUSH2 0xE15 SWAP2 SWAP1 PUSH2 0x3A30 JUMP JUMPDEST LT PUSH2 0xE1F JUMPI PUSH1 0x0 DUP1 REVERT JUMPDEST DUP1 PUSH1 0x1 PUSH1 0x3 ADD DUP2 SWAP1 SSTORE POP POP JUMP JUMPDEST PUSH1 0x9 PUSH1 0x14 SWAP1 SLOAD SWAP1 PUSH2 0x100 EXP SWAP1 DIV PUSH1 0xFF AND PUSH2 0xE7B JUMPI PUSH1 0x40 MLOAD PUSH32 0x8C379A000000000000000000000000000000000000000000000000000000000 DUP2 MSTORE PUSH1 0x4 ADD PUSH2 0xE72 SWAP1 PUSH2 0x3CD8 JUMP JUMPDEST PUSH1 0x40 MLOAD DUP1 SWAP2 SUB SWAP1 REVERT JUMPDEST PUSH1 0x0 PUSH1 0xD SLOAD SWAP1 POP PUSH1 0x0 PUSH1 0xE SLOAD SWAP1 POP PUSH1 0x0 PUSH2 0xE96 PUSH1 0xC SLOAD PUSH2 0x641 JUMP JUMPDEST SWAP1 POP PUSH1 0x0 PUSH1 0x1 PUSH1 0x7 ADD DUP1 SLOAD DUP1 PUSH1 0x20 MUL PUSH1 0x20 ADD PUSH1 0x40 MLOAD SWAP1 DUP2 ADD PUSH1 0x40 MSTORE DUP1 SWAP3 SWAP2 SWAP1 DUP2 DUP2 MSTORE PUSH1 0x20 ADD DUP3 DUP1 SLOAD DUP1 ISZERO PUSH2 0xEE9 JUMPI PUSH1 0x20 MUL DUP3 ADD SWAP2 SWAP1 PUSH1 0x0 MSTORE PUSH1 0x20 PUSH1 0x0 KECCAK256 SWAP1 JUMPDEST DUP2 SLOAD DUP2 MSTORE PUSH1 0x20 ADD SWAP1 PUSH1 0x1 ADD SWAP1 DUP1 DUP4 GT PUSH2 0xED5 JUMPI JUMPDEST POP POP POP POP POP SWAP1 POP PUSH1 0x0 DUP2 MLOAD PUSH8 0xFFFFFFFFFFFFFFFF DUP2 GT ISZERO PUSH2 0xF0D JUMPI PUSH2 0xF0C PUSH2 0x30FD JUMP JUMPDEST JUMPDEST PUSH1 0x40 MLOAD SWAP1 DUP1 DUP3 MSTORE DUP1 PUSH1 0x20 MUL PUSH1 0x20 ADD DUP3 ADD PUSH1 0x40 MSTORE DUP1 ISZERO PUSH2 0xF3B JUMPI DUP2 PUSH1 0x20 ADD PUSH1 0x20 DUP3 MUL DUP1 CALLDATASIZE DUP4 CALLDATACOPY DUP1 DUP3 ADD SWAP2 POP POP SWAP1 POP JUMPDEST POP SWAP1 POP PUSH1 0x0 PUSH1 0x1 DUP1 ADD SLOAD SWAP1 POP PUSH1 0x0 DUP4 MLOAD PUSH8 0xFFFFFFFFFFFFFFFF DUP2 GT ISZERO PUSH2 0xF64 JUMPI PUSH2 0xF63 PUSH2 0x30FD JUMP JUMPDEST JUMPDEST PUSH1 0x40 MLOAD SWAP1 DUP1 DUP3 MSTORE DUP1 PUSH1 0x20 MUL PUSH1 0x20 ADD DUP3 ADD PUSH1 0x40 MSTORE DUP1 ISZERO PUSH2 0xF92 JUMPI DUP2 PUSH1 0x20 ADD PUSH1 0x20 DUP3 MUL DUP1 CALLDATASIZE DUP4 CALLDATACOPY DUP1 DUP3 ADD SWAP2 POP POP SWAP1 POP JUMPDEST POP SWAP1 POP DUP2 PUSH1 0xC SLOAD EQ ISZERO PUSH2 0x1006 JUMPI PUSH1 0x0 JUMPDEST DUP5 MLOAD DUP2 LT ISZERO PUSH2 0x1000 JUMPI PUSH2 0xFCE DUP6 DUP3 DUP2 MLOAD DUP2 LT PUSH2 0xFC1 JUMPI PUSH2 0xFC0 PUSH2 0x37FB JUMP JUMPDEST JUMPDEST PUSH1 0x20 MUL PUSH1 0x20 ADD ADD MLOAD PUSH2 0x641 JUMP JUMPDEST DUP5 DUP3 DUP2 MLOAD DUP2 LT PUSH2 0xFE1 JUMPI PUSH2 0xFE0 PUSH2 0x37FB JUMP JUMPDEST JUMPDEST PUSH1 0x20 MUL PUSH1 0x20 ADD ADD DUP2 DUP2 MSTORE POP POP DUP1 DUP1 PUSH2 0xFF8 SWAP1 PUSH2 0x3913 JUMP JUMPDEST SWAP2 POP POP PUSH2 0xFA2 JUMP JUMPDEST POP PUSH2 0x112A JUMP JUMPDEST PUSH1 0x0 PUSH2 0x1011 DUP4 PUSH2 0x641 JUMP JUMPDEST DUP5 DUP3 DUP2 MLOAD DUP2 LT PUSH2 0x1024 JUMPI PUSH2 0x1023 PUSH2 0x37FB JUMP JUMPDEST JUMPDEST PUSH1 0x20 MUL PUSH1 0x20 ADD ADD DUP2 DUP2 MSTORE POP POP DUP3 DUP3 DUP3 DUP2 MLOAD DUP2 LT PUSH2 0x1044 JUMPI PUSH2 0x1043 PUSH2 0x37FB JUMP JUMPDEST JUMPDEST PUSH1 0x20 MUL PUSH1 0x20 ADD ADD DUP2 DUP2 MSTORE POP POP PUSH1 0x1 SWAP1 POP JUMPDEST DUP5 MLOAD DUP2 GT PUSH2 0x1128 JUMPI PUSH1 0xC SLOAD DUP6 PUSH1 0x1 DUP4 PUSH2 0x106E SWAP2 SWAP1 PUSH2 0x3A86 JUMP JUMPDEST DUP2 MLOAD DUP2 LT PUSH2 0x107F JUMPI PUSH2 0x107E PUSH2 0x37FB JUMP JUMPDEST JUMPDEST PUSH1 0x20 MUL PUSH1 0x20 ADD ADD MLOAD EQ PUSH2 0x1115 JUMPI DUP5 PUSH1 0x1 DUP3 PUSH2 0x109A SWAP2 SWAP1 PUSH2 0x3A86 JUMP JUMPDEST DUP2 MLOAD DUP2 LT PUSH2 0x10AB JUMPI PUSH2 0x10AA PUSH2 0x37FB JUMP JUMPDEST JUMPDEST PUSH1 0x20 MUL PUSH1 0x20 ADD ADD MLOAD DUP3 DUP3 DUP2 MLOAD DUP2 LT PUSH2 0x10C6 JUMPI PUSH2 0x10C5 PUSH2 0x37FB JUMP JUMPDEST JUMPDEST PUSH1 0x20 MUL PUSH1 0x20 ADD ADD DUP2 DUP2 MSTORE POP POP PUSH2 0x10F5 DUP6 DUP3 DUP2 MLOAD DUP2 LT PUSH2 0x10E8 JUMPI PUSH2 0x10E7 PUSH2 0x37FB JUMP JUMPDEST JUMPDEST PUSH1 0x20 MUL PUSH1 0x20 ADD ADD MLOAD PUSH2 0x641 JUMP JUMPDEST DUP5 DUP3 DUP2 MLOAD DUP2 LT PUSH2 0x1108 JUMPI PUSH2 0x1107 PUSH2 0x37FB JUMP JUMPDEST JUMPDEST PUSH1 0x20 MUL PUSH1 0x20 ADD ADD DUP2 DUP2 MSTORE POP POP JUMPDEST DUP1 DUP1 PUSH2 0x1120 SWAP1 PUSH2 0x3913 JUMP JUMPDEST SWAP2 POP POP PUSH2 0x1055 JUMP JUMPDEST POP JUMPDEST PUSH1 0x0 DUP1 PUSH2 0x1139 DUP10 DUP10 DUP10 DUP9 PUSH2 0x7DE JUMP JUMPDEST SWAP2 POP SWAP2 POP PUSH2 0x1149 PUSH1 0xC SLOAD DUP4 PUSH2 0x269C JUMP JUMPDEST PUSH2 0x1153 DUP4 DUP3 PUSH2 0x2CE1 JUMP JUMPDEST POP POP POP POP POP POP POP POP POP JUMP JUMPDEST PUSH1 0x0 DUP1 PUSH1 0x14 SWAP1 SLOAD SWAP1 PUSH2 0x100 EXP SWAP1 DIV PUSH1 0xFF AND SWAP1 POP SWAP1 JUMP JUMPDEST PUSH1 0x9 PUSH1 0x15 SWAP1 SLOAD SWAP1 PUSH2 0x100 EXP SWAP1 DIV PUSH1 0xFF AND ISZERO PUSH2 0x11C4 JUMPI PUSH1 0x40 MLOAD PUSH32 0x8C379A000000000000000000000000000000000000000000000000000000000 DUP2 MSTORE PUSH1 0x4 ADD PUSH2 0x11BB SWAP1 PUSH2 0x3B98 JUMP JUMPDEST PUSH1 0x40 MLOAD DUP1 SWAP2 SUB SWAP1 REVERT JUMPDEST PUSH1 0x1 PUSH1 0x5 ADD SLOAD TIMESTAMP LT PUSH2 0x120B JUMPI PUSH1 0x40 MLOAD PUSH32 0x8C379A000000000000000000000000000000000000000000000000000000000 DUP2 MSTORE PUSH1 0x4 ADD PUSH2 0x1202 SWAP1 PUSH2 0x3C04 JUMP JUMPDEST PUSH1 0x40 MLOAD DUP1 SWAP2 SUB SWAP1 REVERT JUMPDEST PUSH2 0x1213 PUSH2 0x2D49 JUMP JUMPDEST PUSH1 0x9 PUSH1 0x14 SWAP1 SLOAD SWAP1 PUSH2 0x100 EXP SWAP1 DIV PUSH1 0xFF AND ISZERO DUP1 ISZERO PUSH2 0x124A JUMPI POP PUSH1 0xB SLOAD PUSH1 0x1 PUSH1 0x2 ADD SLOAD PUSH2 0x123E SWAP2 SWAP1 PUSH2 0x38E2 JUMP JUMPDEST PUSH2 0x1247 DUP5 PUSH2 0x641 JUMP JUMPDEST LT ISZERO JUMPDEST DUP1 ISZERO PUSH2 0x1258 JUMPI POP PUSH1 0xF SLOAD TIMESTAMP LT ISZERO JUMPDEST ISZERO PUSH2 0x1280 JUMPI PUSH1 0x1 PUSH1 0x9 PUSH1 0x14 PUSH2 0x100 EXP DUP2 SLOAD DUP2 PUSH1 0xFF MUL NOT AND SWAP1 DUP4 ISZERO ISZERO MUL OR SWAP1 SSTORE POP DUP3 PUSH1 0xC DUP2 SWAP1 SSTORE POP JUMPDEST PUSH1 0x11 PUSH1 0x0 DUP5 DUP2 MSTORE PUSH1 0x20 ADD SWAP1 DUP2 MSTORE PUSH1 0x20 ADD PUSH1 0x0 KECCAK256 PUSH1 0x0 SWAP1 SLOAD SWAP1 PUSH2 0x100 EXP SWAP1 DIV PUSH20 0xFFFFFFFFFFFFFFFFFFFFFFFFFFFFFFFFFFFFFFFF AND PUSH20 0xFFFFFFFFFFFFFFFFFFFFFFFFFFFFFFFFFFFFFFFF AND PUSH4 0x23B872DD DUP4 PUSH1 0x10 PUSH1 0x0 DUP8 DUP2 MSTORE PUSH1 0x20 ADD SWAP1 DUP2 MSTORE PUSH1 0x20 ADD PUSH1 0x0 KECCAK256 PUSH1 0x0 SWAP1 SLOAD SWAP1 PUSH2 0x100 EXP SWAP1 DIV PUSH20 0xFFFFFFFFFFFFFFFFFFFFFFFFFFFFFFFFFFFFFFFF AND DUP5 PUSH1 0x40 MLOAD DUP5 PUSH4 0xFFFFFFFF AND PUSH1 0xE0 SHL DUP2 MSTORE PUSH1 0x4 ADD PUSH2 0x1323 SWAP4 SWAP3 SWAP2 SWAP1 PUSH2 0x3CF8 JUMP JUMPDEST PUSH1 0x20 PUSH1 0x40 MLOAD DUP1 DUP4 SUB DUP2 PUSH1 0x0 DUP8 DUP1 EXTCODESIZE ISZERO DUP1 ISZERO PUSH2 0x133D JUMPI PUSH1 0x0 DUP1 REVERT JUMPDEST POP GAS CALL ISZERO DUP1 ISZERO PUSH2 0x1351 JUMPI RETURNDATASIZE PUSH1 0x0 DUP1 RETURNDATACOPY RETURNDATASIZE PUSH1 0x0 REVERT JUMPDEST POP POP POP POP PUSH1 0x40 MLOAD RETURNDATASIZE PUSH1 0x1F NOT PUSH1 0x1F DUP3 ADD AND DUP3 ADD DUP1 PUSH1 0x40 MSTORE POP DUP2 ADD SWAP1 PUSH2 0x1375 SWAP2 SWAP1 PUSH2 0x3D5B JUMP JUMPDEST POP DUP1 PUSH1 0x13 PUSH1 0x0 DUP5 PUSH20 0xFFFFFFFFFFFFFFFFFFFFFFFFFFFFFFFFFFFFFFFF AND PUSH20 0xFFFFFFFFFFFFFFFFFFFFFFFFFFFFFFFFFFFFFFFF AND DUP2 MSTORE PUSH1 0x20 ADD SWAP1 DUP2 MSTORE PUSH1 0x20 ADD PUSH1 0x0 KECCAK256 PUSH1 0x0 DUP6 DUP2 MSTORE PUSH1 0x20 ADD SWAP1 DUP2 MSTORE PUSH1 0x20 ADD PUSH1 0x0 KECCAK256 DUP2 SWAP1 SSTORE POP POP POP POP JUMP JUMPDEST PUSH2 0x13D8 PUSH2 0x2D93 JUMP JUMPDEST PUSH2 0x13E2 PUSH1 0x0 PUSH2 0x2E11 JUMP JUMPDEST JUMP JUMPDEST PUSH1 0x0 PUSH1 0x1 PUSH1 0x7 ADD DUP1 SLOAD DUP1 PUSH1 0x20 MUL PUSH1 0x20 ADD PUSH1 0x40 MLOAD SWAP1 DUP2 ADD PUSH1 0x40 MSTORE DUP1 SWAP3 SWAP2 SWAP1 DUP2 DUP2 MSTORE PUSH1 0x20 ADD DUP3 DUP1 SLOAD DUP1 ISZERO PUSH2 0x1435 JUMPI PUSH1 0x20 MUL DUP3 ADD SWAP2 SWAP1 PUSH1 0x0 MSTORE PUSH1 0x20 PUSH1 0x0 KECCAK256 SWAP1 JUMPDEST DUP2 SLOAD DUP2 MSTORE PUSH1 0x20 ADD SWAP1 PUSH1 0x1 ADD SWAP1 DUP1 DUP4 GT PUSH2 0x1421 JUMPI JUMPDEST POP POP POP POP POP SWAP1 POP PUSH1 0x0 PUSH1 0x1 DUP3 MLOAD PUSH2 0x144C SWAP2 SWAP1 PUSH2 0x3A30 JUMP JUMPDEST PUSH8 0xFFFFFFFFFFFFFFFF DUP2 GT ISZERO PUSH2 0x1465 JUMPI PUSH2 0x1464 PUSH2 0x30FD JUMP JUMPDEST JUMPDEST PUSH1 0x40 MLOAD SWAP1 DUP1 DUP3 MSTORE DUP1 PUSH1 0x20 MUL PUSH1 0x20 ADD DUP3 ADD PUSH1 0x40 MSTORE DUP1 ISZERO PUSH2 0x1493 JUMPI DUP2 PUSH1 0x20 ADD PUSH1 0x20 DUP3 MUL DUP1 CALLDATASIZE DUP4 CALLDATACOPY DUP1 DUP3 ADD SWAP2 POP POP SWAP1 POP JUMPDEST POP SWAP1 POP PUSH1 0x0 PUSH1 0x1 DUP4 MLOAD PUSH2 0x14A6 SWAP2 SWAP1 PUSH2 0x3A30 JUMP JUMPDEST PUSH8 0xFFFFFFFFFFFFFFFF DUP2 GT ISZERO PUSH2 0x14BF JUMPI PUSH2 0x14BE PUSH2 0x30FD JUMP JUMPDEST JUMPDEST PUSH1 0x40 MLOAD SWAP1 DUP1 DUP3 MSTORE DUP1 PUSH1 0x20 MUL PUSH1 0x20 ADD DUP3 ADD PUSH1 0x40 MSTORE DUP1 ISZERO PUSH2 0x14ED JUMPI DUP2 PUSH1 0x20 ADD PUSH1 0x20 DUP3 MUL DUP1 CALLDATASIZE DUP4 CALLDATACOPY DUP1 DUP3 ADD SWAP2 POP POP SWAP1 POP JUMPDEST POP SWAP1 POP PUSH1 0x0 JUMPDEST DUP4 MLOAD DUP2 LT ISZERO PUSH2 0x158B JUMPI DUP4 DUP2 DUP2 MLOAD DUP2 LT PUSH2 0x150F JUMPI PUSH2 0x150E PUSH2 0x37FB JUMP JUMPDEST JUMPDEST PUSH1 0x20 MUL PUSH1 0x20 ADD ADD MLOAD DUP4 DUP3 DUP2 MLOAD DUP2 LT PUSH2 0x152A JUMPI PUSH2 0x1529 PUSH2 0x37FB JUMP JUMPDEST JUMPDEST PUSH1 0x20 MUL PUSH1 0x20 ADD ADD DUP2 DUP2 MSTORE POP POP PUSH2 0x1559 DUP5 DUP3 DUP2 MLOAD DUP2 LT PUSH2 0x154C JUMPI PUSH2 0x154B PUSH2 0x37FB JUMP JUMPDEST JUMPDEST PUSH1 0x20 MUL PUSH1 0x20 ADD ADD MLOAD PUSH2 0x641 JUMP JUMPDEST DUP3 DUP3 DUP2 MLOAD DUP2 LT PUSH2 0x156C JUMPI PUSH2 0x156B PUSH2 0x37FB JUMP JUMPDEST JUMPDEST PUSH1 0x20 MUL PUSH1 0x20 ADD ADD DUP2 DUP2 MSTORE POP POP DUP1 DUP1 PUSH2 0x1583 SWAP1 PUSH2 0x3913 JUMP JUMPDEST SWAP2 POP POP PUSH2 0x14F3 JUMP JUMPDEST POP PUSH1 0x1 DUP1 ADD SLOAD DUP3 DUP5 MLOAD DUP2 MLOAD DUP2 LT PUSH2 0x15A5 JUMPI PUSH2 0x15A4 PUSH2 0x37FB JUMP JUMPDEST JUMPDEST PUSH1 0x20 MUL PUSH1 0x20 ADD ADD DUP2 DUP2 MSTORE POP POP PUSH2 0x15BE PUSH1 0x1 DUP1 ADD SLOAD PUSH2 0x641 JUMP JUMPDEST DUP2 DUP5 MLOAD DUP2 MLOAD DUP2 LT PUSH2 0x15D2 JUMPI PUSH2 0x15D1 PUSH2 0x37FB JUMP JUMPDEST JUMPDEST PUSH1 0x20 MUL PUSH1 0x20 ADD ADD DUP2 DUP2 MSTORE POP POP PUSH1 0x0 PUSH2 0x15EC PUSH1 0xD SLOAD DUP4 PUSH2 0x570 JUMP JUMPDEST SWAP1 POP PUSH2 0x15F8 DUP4 DUP3 PUSH2 0x2CE1 JUMP JUMPDEST POP POP POP POP JUMP JUMPDEST PUSH1 0x9 PUSH1 0x15 SWAP1 SLOAD SWAP1 PUSH2 0x100 EXP SWAP1 DIV PUSH1 0xFF AND ISZERO PUSH2 0x164E JUMPI PUSH1 0x40 MLOAD PUSH32 0x8C379A000000000000000000000000000000000000000000000000000000000 DUP2 MSTORE PUSH1 0x4 ADD PUSH2 0x1645 SWAP1 PUSH2 0x3B98 JUMP JUMPDEST PUSH1 0x40 MLOAD DUP1 SWAP2 SUB SWAP1 REVERT JUMPDEST PUSH1 0x1 PUSH1 0x5 ADD SLOAD TIMESTAMP LT PUSH2 0x1695 JUMPI PUSH1 0x40 MLOAD PUSH32 0x8C379A000000000000000000000000000000000000000000000000000000000 DUP2 MSTORE PUSH1 0x4 ADD PUSH2 0x168C SWAP1 PUSH2 0x3C04 JUMP JUMPDEST PUSH1 0x40 MLOAD DUP1 SWAP2 SUB SWAP1 REVERT JUMPDEST PUSH1 0x9 PUSH1 0x0 SWAP1 SLOAD SWAP1 PUSH2 0x100 EXP SWAP1 DIV PUSH20 0xFFFFFFFFFFFFFFFFFFFFFFFFFFFFFFFFFFFFFFFF AND PUSH20 0xFFFFFFFFFFFFFFFFFFFFFFFFFFFFFFFFFFFFFFFF AND PUSH4 0x8DA5CB5B PUSH1 0x40 MLOAD DUP2 PUSH4 0xFFFFFFFF AND PUSH1 0xE0 SHL DUP2 MSTORE PUSH1 0x4 ADD PUSH1 0x20 PUSH1 0x40 MLOAD DUP1 DUP4 SUB DUP2 DUP7 DUP1 EXTCODESIZE ISZERO DUP1 ISZERO PUSH2 0x16FD JUMPI PUSH1 0x0 DUP1 REVERT JUMPDEST POP GAS STATICCALL ISZERO DUP1 ISZERO PUSH2 0x1711 JUMPI RETURNDATASIZE PUSH1 0x0 DUP1 RETURNDATACOPY RETURNDATASIZE PUSH1 0x0 REVERT JUMPDEST POP POP POP POP PUSH1 0x40 MLOAD RETURNDATASIZE PUSH1 0x1F NOT PUSH1 0x1F DUP3 ADD AND DUP3 ADD DUP1 PUSH1 0x40 MSTORE POP DUP2 ADD SWAP1 PUSH2 0x1735 SWAP2 SWAP1 PUSH2 0x3C39 JUMP JUMPDEST PUSH20 0xFFFFFFFFFFFFFFFFFFFFFFFFFFFFFFFFFFFFFFFF AND CALLER PUSH20 0xFFFFFFFFFFFFFFFFFFFFFFFFFFFFFFFFFFFFFFFF AND EQ PUSH2 0x176C JUMPI PUSH1 0x0 DUP1 REVERT JUMPDEST PUSH1 0x1 PUSH1 0x7 ADD DUP2 SWAP1 DUP1 PUSH1 0x1 DUP2 SLOAD ADD DUP1 DUP3 SSTORE DUP1 SWAP2 POP POP PUSH1 0x1 SWAP1 SUB SWAP1 PUSH1 0x0 MSTORE PUSH1 0x20 PUSH1 0x0 KECCAK256 ADD PUSH1 0x0 SWAP1 SWAP2 SWAP1 SWAP2 SWAP1 SWAP2 POP SSTORE POP JUMP JUMPDEST PUSH1 0x9 PUSH1 0x15 SWAP1 SLOAD SWAP1 PUSH2 0x100 EXP SWAP1 DIV PUSH1 0xFF AND ISZERO PUSH2 0x17EB JUMPI PUSH1 0x40 MLOAD PUSH32 0x8C379A000000000000000000000000000000000000000000000000000000000 DUP2 MSTORE PUSH1 0x4 ADD PUSH2 0x17E2 SWAP1 PUSH2 0x3B98 JUMP JUMPDEST PUSH1 0x40 MLOAD DUP1 SWAP2 SUB SWAP1 REVERT JUMPDEST PUSH1 0x1 PUSH1 0x5 ADD SLOAD TIMESTAMP LT PUSH2 0x1832 JUMPI PUSH1 0x40 MLOAD PUSH32 0x8C379A000000000000000000000000000000000000000000000000000000000 DUP2 MSTORE PUSH1 0x4 ADD PUSH2 0x1829 SWAP1 PUSH2 0x3C04 JUMP JUMPDEST PUSH1 0x40 MLOAD DUP1 SWAP2 SUB SWAP1 REVERT JUMPDEST PUSH1 0x9 PUSH1 0x0 SWAP1 SLOAD SWAP1 PUSH2 0x100 EXP SWAP1 DIV PUSH20 0xFFFFFFFFFFFFFFFFFFFFFFFFFFFFFFFFFFFFFFFF AND PUSH20 0xFFFFFFFFFFFFFFFFFFFFFFFFFFFFFFFFFFFFFFFF AND PUSH4 0x8DA5CB5B PUSH1 0x40 MLOAD DUP2 PUSH4 0xFFFFFFFF AND PUSH1 0xE0 SHL DUP2 MSTORE PUSH1 0x4 ADD PUSH1 0x20 PUSH1 0x40 MLOAD DUP1 DUP4 SUB DUP2 DUP7 DUP1 EXTCODESIZE ISZERO DUP1 ISZERO PUSH2 0x189A JUMPI PUSH1 0x0 DUP1 REVERT JUMPDEST POP GAS STATICCALL ISZERO DUP1 ISZERO PUSH2 0x18AE JUMPI RETURNDATASIZE PUSH1 0x0 DUP1 RETURNDATACOPY RETURNDATASIZE PUSH1 0x0 REVERT JUMPDEST POP POP POP POP PUSH1 0x40 MLOAD RETURNDATASIZE PUSH1 0x1F NOT PUSH1 0x1F DUP3 ADD AND DUP3 ADD DUP1 PUSH1 0x40 MSTORE POP DUP2 ADD SWAP1 PUSH2 0x18D2 SWAP2 SWAP1 PUSH2 0x3C39 JUMP JUMPDEST PUSH20 0xFFFFFFFFFFFFFFFFFFFFFFFFFFFFFFFFFFFFFFFF AND CALLER PUSH20 0xFFFFFFFFFFFFFFFFFFFFFFFFFFFFFFFFFFFFFFFF AND EQ PUSH2 0x1909 JUMPI PUSH1 0x0 DUP1 REVERT JUMPDEST PUSH2 0x1911 PUSH2 0x2ED5 JUMP JUMPDEST JUMP JUMPDEST PUSH1 0x0 DUP2 PUSH1 0x0 PUSH20 0xFFFFFFFFFFFFFFFFFFFFFFFFFFFFFFFFFFFFFFFF AND PUSH1 0x10 PUSH1 0x0 DUP4 DUP2 MSTORE PUSH1 0x20 ADD SWAP1 DUP2 MSTORE PUSH1 0x20 ADD PUSH1 0x0 KECCAK256 PUSH1 0x0 SWAP1 SLOAD SWAP1 PUSH2 0x100 EXP SWAP1 DIV PUSH20 0xFFFFFFFFFFFFFFFFFFFFFFFFFFFFFFFFFFFFFFFF AND PUSH20 0xFFFFFFFFFFFFFFFFFFFFFFFFFFFFFFFFFFFFFFFF AND EQ ISZERO PUSH2 0x19B9 JUMPI PUSH1 0x40 MLOAD PUSH32 0x8C379A000000000000000000000000000000000000000000000000000000000 DUP2 MSTORE PUSH1 0x4 ADD PUSH2 0x19B0 SWAP1 PUSH2 0x39CE JUMP JUMPDEST PUSH1 0x40 MLOAD DUP1 SWAP2 SUB SWAP1 REVERT JUMPDEST PUSH1 0x10 PUSH1 0x0 DUP5 DUP2 MSTORE PUSH1 0x20 ADD SWAP1 DUP2 MSTORE PUSH1 0x20 ADD PUSH1 0x0 KECCAK256 PUSH1 0x0 SWAP1 SLOAD SWAP1 PUSH2 0x100 EXP SWAP1 DIV PUSH20 0xFFFFFFFFFFFFFFFFFFFFFFFFFFFFFFFFFFFFFFFF AND SWAP2 POP POP SWAP2 SWAP1 POP JUMP JUMPDEST PUSH1 0x0 DUP1 PUSH1 0x0 SWAP1 SLOAD SWAP1 PUSH2 0x100 EXP SWAP1 DIV PUSH20 0xFFFFFFFFFFFFFFFFFFFFFFFFFFFFFFFFFFFFFFFF AND SWAP1 POP SWAP1 JUMP JUMPDEST PUSH1 0x9 PUSH1 0x15 SWAP1 SLOAD SWAP1 PUSH2 0x100 EXP SWAP1 DIV PUSH1 0xFF AND ISZERO PUSH2 0x1A6E JUMPI PUSH1 0x40 MLOAD PUSH32 0x8C379A000000000000000000000000000000000000000000000000000000000 DUP2 MSTORE PUSH1 0x4 ADD PUSH2 0x1A65 SWAP1 PUSH2 0x3B98 JUMP JUMPDEST PUSH1 0x40 MLOAD DUP1 SWAP2 SUB SWAP1 REVERT JUMPDEST PUSH1 0x1 PUSH1 0x5 ADD SLOAD TIMESTAMP LT PUSH2 0x1AB5 JUMPI PUSH1 0x40 MLOAD PUSH32 0x8C379A000000000000000000000000000000000000000000000000000000000 DUP2 MSTORE PUSH1 0x4 ADD PUSH2 0x1AAC SWAP1 PUSH2 0x3C04 JUMP JUMPDEST PUSH1 0x40 MLOAD DUP1 SWAP2 SUB SWAP1 REVERT JUMPDEST PUSH1 0x9 PUSH1 0x0 SWAP1 SLOAD SWAP1 PUSH2 0x100 EXP SWAP1 DIV PUSH20 0xFFFFFFFFFFFFFFFFFFFFFFFFFFFFFFFFFFFFFFFF AND PUSH20 0xFFFFFFFFFFFFFFFFFFFFFFFFFFFFFFFFFFFFFFFF AND PUSH4 0x8DA5CB5B PUSH1 0x40 MLOAD DUP2 PUSH4 0xFFFFFFFF AND PUSH1 0xE0 SHL DUP2 MSTORE PUSH1 0x4 ADD PUSH1 0x20 PUSH1 0x40 MLOAD DUP1 DUP4 SUB DUP2 DUP7 DUP1 EXTCODESIZE ISZERO DUP1 ISZERO PUSH2 0x1B1D JUMPI PUSH1 0x0 DUP1 REVERT JUMPDEST POP GAS STATICCALL ISZERO DUP1 ISZERO PUSH2 0x1B31 JUMPI RETURNDATASIZE PUSH1 0x0 DUP1 RETURNDATACOPY RETURNDATASIZE PUSH1 0x0 REVERT JUMPDEST POP POP POP POP PUSH1 0x40 MLOAD RETURNDATASIZE PUSH1 0x1F NOT PUSH1 0x1F DUP3 ADD AND DUP3 ADD DUP1 PUSH1 0x40 MSTORE POP DUP2 ADD SWAP1 PUSH2 0x1B55 SWAP2 SWAP1 PUSH2 0x3C39 JUMP JUMPDEST PUSH20 0xFFFFFFFFFFFFFFFFFFFFFFFFFFFFFFFFFFFFFFFF AND CALLER PUSH20 0xFFFFFFFFFFFFFFFFFFFFFFFFFFFFFFFFFFFFFFFF AND EQ PUSH2 0x1B8C JUMPI PUSH1 0x0 DUP1 REVERT JUMPDEST DUP1 PUSH1 0xA SLOAD PUSH1 0x1 PUSH1 0x3 ADD SLOAD PUSH2 0x1BA0 SWAP2 SWAP1 PUSH2 0x3A30 JUMP JUMPDEST LT PUSH2 0x1BAA JUMPI PUSH1 0x0 DUP1 REVERT JUMPDEST DUP1 PUSH1 0x1 PUSH1 0x5 ADD DUP2 SWAP1 SSTORE POP POP JUMP JUMPDEST PUSH1 0x0 PUSH1 0x1 DUP1 ADD SLOAD SWAP1 POP SWAP1 JUMP JUMPDEST PUSH1 0x9 PUSH1 0x14 SWAP1 SLOAD SWAP1 PUSH2 0x100 EXP SWAP1 DIV PUSH1 0xFF AND PUSH2 0x1C12 JUMPI PUSH1 0x40 MLOAD PUSH32 0x8C379A000000000000000000000000000000000000000000000000000000000 DUP2 MSTORE PUSH1 0x4 ADD PUSH2 0x1C09 SWAP1 PUSH2 0x3CD8 JUMP JUMPDEST PUSH1 0x40 MLOAD DUP1 SWAP2 SUB SWAP1 REVERT JUMPDEST PUSH1 0x0 PUSH1 0xD SLOAD SWAP1 POP PUSH1 0x0 PUSH1 0xE SLOAD SWAP1 POP PUSH1 0x0 PUSH2 0x1C2D PUSH1 0xC SLOAD PUSH2 0x641 JUMP JUMPDEST SWAP1 POP PUSH1 0x0 PUSH1 0x1 PUSH1 0x7 ADD DUP1 SLOAD DUP1 PUSH1 0x20 MUL PUSH1 0x20 ADD PUSH1 0x40 MLOAD SWAP1 DUP2 ADD PUSH1 0x40 MSTORE DUP1 SWAP3 SWAP2 SWAP1 DUP2 DUP2 MSTORE PUSH1 0x20 ADD DUP3 DUP1 SLOAD DUP1 ISZERO PUSH2 0x1C80 JUMPI PUSH1 0x20 MUL DUP3 ADD SWAP2 SWAP1 PUSH1 0x0 MSTORE PUSH1 0x20 PUSH1 0x0 KECCAK256 SWAP1 JUMPDEST DUP2 SLOAD DUP2 MSTORE PUSH1 0x20 ADD SWAP1 PUSH1 0x1 ADD SWAP1 DUP1 DUP4 GT PUSH2 0x1C6C JUMPI JUMPDEST POP POP POP POP POP SWAP1 POP PUSH1 0x0 DUP2 MLOAD PUSH8 0xFFFFFFFFFFFFFFFF DUP2 GT ISZERO PUSH2 0x1CA4 JUMPI PUSH2 0x1CA3 PUSH2 0x30FD JUMP JUMPDEST JUMPDEST PUSH1 0x40 MLOAD SWAP1 DUP1 DUP3 MSTORE DUP1 PUSH1 0x20 MUL PUSH1 0x20 ADD DUP3 ADD PUSH1 0x40 MSTORE DUP1 ISZERO PUSH2 0x1CD2 JUMPI DUP2 PUSH1 0x20 ADD PUSH1 0x20 DUP3 MUL DUP1 CALLDATASIZE DUP4 CALLDATACOPY DUP1 DUP3 ADD SWAP2 POP POP SWAP1 POP JUMPDEST POP SWAP1 POP PUSH1 0x0 PUSH1 0x1 DUP1 ADD SLOAD SWAP1 POP PUSH1 0x0 DUP4 MLOAD PUSH8 0xFFFFFFFFFFFFFFFF DUP2 GT ISZERO PUSH2 0x1CFB JUMPI PUSH2 0x1CFA PUSH2 0x30FD JUMP JUMPDEST JUMPDEST PUSH1 0x40 MLOAD SWAP1 DUP1 DUP3 MSTORE DUP1 PUSH1 0x20 MUL PUSH1 0x20 ADD DUP3 ADD PUSH1 0x40 MSTORE DUP1 ISZERO PUSH2 0x1D29 JUMPI DUP2 PUSH1 0x20 ADD PUSH1 0x20 DUP3 MUL DUP1 CALLDATASIZE DUP4 CALLDATACOPY DUP1 DUP3 ADD SWAP2 POP POP SWAP1 POP JUMPDEST POP SWAP1 POP DUP2 PUSH1 0xC SLOAD EQ ISZERO PUSH2 0x1D9D JUMPI PUSH1 0x0 JUMPDEST DUP5 MLOAD DUP2 LT ISZERO PUSH2 0x1D97 JUMPI PUSH2 0x1D65 DUP6 DUP3 DUP2 MLOAD DUP2 LT PUSH2 0x1D58 JUMPI PUSH2 0x1D57 PUSH2 0x37FB JUMP JUMPDEST JUMPDEST PUSH1 0x20 MUL PUSH1 0x20 ADD ADD MLOAD PUSH2 0x641 JUMP JUMPDEST DUP5 DUP3 DUP2 MLOAD DUP2 LT PUSH2 0x1D78 JUMPI PUSH2 0x1D77 PUSH2 0x37FB JUMP JUMPDEST JUMPDEST PUSH1 0x20 MUL PUSH1 0x20 ADD ADD DUP2 DUP2 MSTORE POP POP DUP1 DUP1 PUSH2 0x1D8F SWAP1 PUSH2 0x3913 JUMP JUMPDEST SWAP2 POP POP PUSH2 0x1D39 JUMP JUMPDEST POP PUSH2 0x1EC1 JUMP JUMPDEST PUSH1 0x0 PUSH2 0x1DA8 DUP4 PUSH2 0x641 JUMP JUMPDEST DUP5 DUP3 DUP2 MLOAD DUP2 LT PUSH2 0x1DBB JUMPI PUSH2 0x1DBA PUSH2 0x37FB JUMP JUMPDEST JUMPDEST PUSH1 0x20 MUL PUSH1 0x20 ADD ADD DUP2 DUP2 MSTORE POP POP DUP3 DUP3 DUP3 DUP2 MLOAD DUP2 LT PUSH2 0x1DDB JUMPI PUSH2 0x1DDA PUSH2 0x37FB JUMP JUMPDEST JUMPDEST PUSH1 0x20 MUL PUSH1 0x20 ADD ADD DUP2 DUP2 MSTORE POP POP PUSH1 0x1 SWAP1 POP JUMPDEST DUP5 MLOAD DUP2 GT PUSH2 0x1EBF JUMPI PUSH1 0xC SLOAD DUP6 PUSH1 0x1 DUP4 PUSH2 0x1E05 SWAP2 SWAP1 PUSH2 0x3A86 JUMP JUMPDEST DUP2 MLOAD DUP2 LT PUSH2 0x1E16 JUMPI PUSH2 0x1E15 PUSH2 0x37FB JUMP JUMPDEST JUMPDEST PUSH1 0x20 MUL PUSH1 0x20 ADD ADD MLOAD EQ PUSH2 0x1EAC JUMPI DUP5 PUSH1 0x1 DUP3 PUSH2 0x1E31 SWAP2 SWAP1 PUSH2 0x3A86 JUMP JUMPDEST DUP2 MLOAD DUP2 LT PUSH2 0x1E42 JUMPI PUSH2 0x1E41 PUSH2 0x37FB JUMP JUMPDEST JUMPDEST PUSH1 0x20 MUL PUSH1 0x20 ADD ADD MLOAD DUP3 DUP3 DUP2 MLOAD DUP2 LT PUSH2 0x1E5D JUMPI PUSH2 0x1E5C PUSH2 0x37FB JUMP JUMPDEST JUMPDEST PUSH1 0x20 MUL PUSH1 0x20 ADD ADD DUP2 DUP2 MSTORE POP POP PUSH2 0x1E8C DUP6 DUP3 DUP2 MLOAD DUP2 LT PUSH2 0x1E7F JUMPI PUSH2 0x1E7E PUSH2 0x37FB JUMP JUMPDEST JUMPDEST PUSH1 0x20 MUL PUSH1 0x20 ADD ADD MLOAD PUSH2 0x641 JUMP JUMPDEST DUP5 DUP3 DUP2 MLOAD DUP2 LT PUSH2 0x1E9F JUMPI PUSH2 0x1E9E PUSH2 0x37FB JUMP JUMPDEST JUMPDEST PUSH1 0x20 MUL PUSH1 0x20 ADD ADD DUP2 DUP2 MSTORE POP POP JUMPDEST DUP1 DUP1 PUSH2 0x1EB7 SWAP1 PUSH2 0x3913 JUMP JUMPDEST SWAP2 POP POP PUSH2 0x1DEC JUMP JUMPDEST POP JUMPDEST PUSH1 0x0 DUP1 PUSH2 0x1ED0 DUP10 DUP10 DUP10 DUP9 PUSH2 0x7DE JUMP JUMPDEST SWAP2 POP SWAP2 POP PUSH2 0x1EE0 PUSH1 0xC SLOAD DUP4 PUSH2 0x269C JUMP JUMPDEST PUSH2 0x1EEA DUP4 DUP3 PUSH2 0x2CE1 JUMP JUMPDEST POP POP POP POP POP POP POP POP POP JUMP JUMPDEST PUSH1 0x60 PUSH1 0x0 DUP1 PUSH1 0x0 DUP1 PUSH1 0x60 PUSH1 0x1 PUSH1 0x0 ADD PUSH1 0x1 PUSH1 0x2 ADD SLOAD PUSH1 0x1 PUSH1 0x3 ADD SLOAD PUSH1 0x1 PUSH1 0x4 ADD SLOAD PUSH1 0x1 PUSH1 0x5 ADD SLOAD PUSH1 0x1 PUSH1 0x6 ADD DUP6 DUP1 SLOAD PUSH2 0x1F2D SWAP1 PUSH2 0x3DB7 JUMP JUMPDEST DUP1 PUSH1 0x1F ADD PUSH1 0x20 DUP1 SWAP2 DIV MUL PUSH1 0x20 ADD PUSH1 0x40 MLOAD SWAP1 DUP2 ADD PUSH1 0x40 MSTORE DUP1 SWAP3 SWAP2 SWAP1 DUP2 DUP2 MSTORE PUSH1 0x20 ADD DUP3 DUP1 SLOAD PUSH2 0x1F59 SWAP1 PUSH2 0x3DB7 JUMP JUMPDEST DUP1 ISZERO PUSH2 0x1FA6 JUMPI DUP1 PUSH1 0x1F LT PUSH2 0x1F7B JUMPI PUSH2 0x100 DUP1 DUP4 SLOAD DIV MUL DUP4 MSTORE SWAP2 PUSH1 0x20 ADD SWAP2 PUSH2 0x1FA6 JUMP JUMPDEST DUP3 ADD SWAP2 SWAP1 PUSH1 0x0 MSTORE PUSH1 0x20 PUSH1 0x0 KECCAK256 SWAP1 JUMPDEST DUP2 SLOAD DUP2 MSTORE SWAP1 PUSH1 0x1 ADD SWAP1 PUSH1 0x20 ADD DUP1 DUP4 GT PUSH2 0x1F89 JUMPI DUP3 SWAP1 SUB PUSH1 0x1F AND DUP3 ADD SWAP2 JUMPDEST POP POP POP POP POP SWAP6 POP DUP1 DUP1 SLOAD PUSH2 0x1FB9 SWAP1 PUSH2 0x3DB7 JUMP JUMPDEST DUP1 PUSH1 0x1F ADD PUSH1 0x20 DUP1 SWAP2 DIV MUL PUSH1 0x20 ADD PUSH1 0x40 MLOAD SWAP1 DUP2 ADD PUSH1 0x40 MSTORE DUP1 SWAP3 SWAP2 SWAP1 DUP2 DUP2 MSTORE PUSH1 0x20 ADD DUP3 DUP1 SLOAD PUSH2 0x1FE5 SWAP1 PUSH2 0x3DB7 JUMP JUMPDEST DUP1 ISZERO PUSH2 0x2032 JUMPI DUP1 PUSH1 0x1F LT PUSH2 0x2007 JUMPI PUSH2 0x100 DUP1 DUP4 SLOAD DIV MUL DUP4 MSTORE SWAP2 PUSH1 0x20 ADD SWAP2 PUSH2 0x2032 JUMP JUMPDEST DUP3 ADD SWAP2 SWAP1 PUSH1 0x0 MSTORE PUSH1 0x20 PUSH1 0x0 KECCAK256 SWAP1 JUMPDEST DUP2 SLOAD DUP2 MSTORE SWAP1 PUSH1 0x1 ADD SWAP1 PUSH1 0x20 ADD DUP1 DUP4 GT PUSH2 0x2015 JUMPI DUP3 SWAP1 SUB PUSH1 0x1F AND DUP3 ADD SWAP2 JUMPDEST POP POP POP POP POP SWAP1 POP SWAP6 POP SWAP6 POP SWAP6 POP SWAP6 POP SWAP6 POP SWAP6 POP SWAP1 SWAP2 SWAP3 SWAP4 SWAP5 SWAP6 JUMP JUMPDEST PUSH1 0x9 PUSH1 0x15 SWAP1 SLOAD SWAP1 PUSH2 0x100 EXP SWAP1 DIV PUSH1 0xFF AND ISZERO PUSH2 0x209D JUMPI PUSH1 0x40 MLOAD PUSH32 0x8C379A000000000000000000000000000000000000000000000000000000000 DUP2 MSTORE PUSH1 0x4 ADD PUSH2 0x2094 SWAP1 PUSH2 0x3B98 JUMP JUMPDEST PUSH1 0x40 MLOAD DUP1 SWAP2 SUB SWAP1 REVERT JUMPDEST PUSH1 0x1 PUSH1 0x5 ADD SLOAD TIMESTAMP LT PUSH2 0x20E4 JUMPI PUSH1 0x40 MLOAD PUSH32 0x8C379A000000000000000000000000000000000000000000000000000000000 DUP2 MSTORE PUSH1 0x4 ADD PUSH2 0x20DB SWAP1 PUSH2 0x3C04 JUMP JUMPDEST PUSH1 0x40 MLOAD DUP1 SWAP2 SUB SWAP1 REVERT JUMPDEST PUSH1 0x9 PUSH1 0x0 SWAP1 SLOAD SWAP1 PUSH2 0x100 EXP SWAP1 DIV PUSH20 0xFFFFFFFFFFFFFFFFFFFFFFFFFFFFFFFFFFFFFFFF AND PUSH20 0xFFFFFFFFFFFFFFFFFFFFFFFFFFFFFFFFFFFFFFFF AND PUSH4 0x8DA5CB5B PUSH1 0x40 MLOAD DUP2 PUSH4 0xFFFFFFFF AND PUSH1 0xE0 SHL DUP2 MSTORE PUSH1 0x4 ADD PUSH1 0x20 PUSH1 0x40 MLOAD DUP1 DUP4 SUB DUP2 DUP7 DUP1 EXTCODESIZE ISZERO DUP1 ISZERO PUSH2 0x214C JUMPI PUSH1 0x0 DUP1 REVERT JUMPDEST POP GAS STATICCALL ISZERO DUP1 ISZERO PUSH2 0x2160 JUMPI RETURNDATASIZE PUSH1 0x0 DUP1 RETURNDATACOPY RETURNDATASIZE PUSH1 0x0 REVERT JUMPDEST POP POP POP POP PUSH1 0x40 MLOAD RETURNDATASIZE PUSH1 0x1F NOT PUSH1 0x1F DUP3 ADD AND DUP3 ADD DUP1 PUSH1 0x40 MSTORE POP DUP2 ADD SWAP1 PUSH2 0x2184 SWAP2 SWAP1 PUSH2 0x3C39 JUMP JUMPDEST PUSH20 0xFFFFFFFFFFFFFFFFFFFFFFFFFFFFFFFFFFFFFFFF AND CALLER PUSH20 0xFFFFFFFFFFFFFFFFFFFFFFFFFFFFFFFFFFFFFFFF AND EQ PUSH2 0x21BB JUMPI PUSH1 0x0 DUP1 REVERT JUMPDEST DUP3 PUSH1 0x12 PUSH1 0x0 DUP7 DUP2 MSTORE PUSH1 0x20 ADD SWAP1 DUP2 MSTORE PUSH1 0x20 ADD PUSH1 0x0 KECCAK256 PUSH1 0x0 PUSH2 0x100 EXP DUP2 SLOAD DUP2 PUSH20 0xFFFFFFFFFFFFFFFFFFFFFFFFFFFFFFFFFFFFFFFF MUL NOT AND SWAP1 DUP4 PUSH20 0xFFFFFFFFFFFFFFFFFFFFFFFFFFFFFFFFFFFFFFFF AND MUL OR SWAP1 SSTORE POP DUP2 PUSH1 0x10 PUSH1 0x0 DUP7 DUP2 MSTORE PUSH1 0x20 ADD SWAP1 DUP2 MSTORE PUSH1 0x20 ADD PUSH1 0x0 KECCAK256 PUSH1 0x0 PUSH2 0x100 EXP DUP2 SLOAD DUP2 PUSH20 0xFFFFFFFFFFFFFFFFFFFFFFFFFFFFFFFFFFFFFFFF MUL NOT AND SWAP1 DUP4 PUSH20 0xFFFFFFFFFFFFFFFFFFFFFFFFFFFFFFFFFFFFFFFF AND MUL OR SWAP1 SSTORE POP DUP1 PUSH1 0x11 PUSH1 0x0 DUP7 DUP2 MSTORE PUSH1 0x20 ADD SWAP1 DUP2 MSTORE PUSH1 0x20 ADD PUSH1 0x0 KECCAK256 PUSH1 0x0 PUSH2 0x100 EXP DUP2 SLOAD DUP2 PUSH20 0xFFFFFFFFFFFFFFFFFFFFFFFFFFFFFFFFFFFFFFFF MUL NOT AND SWAP1 DUP4 PUSH20 0xFFFFFFFFFFFFFFFFFFFFFFFFFFFFFFFFFFFFFFFF AND MUL OR SWAP1 SSTORE POP POP POP POP POP JUMP JUMPDEST PUSH1 0x0 PUSH1 0x13 PUSH1 0x0 DUP5 PUSH20 0xFFFFFFFFFFFFFFFFFFFFFFFFFFFFFFFFFFFFFFFF AND PUSH20 0xFFFFFFFFFFFFFFFFFFFFFFFFFFFFFFFFFFFFFFFF AND DUP2 MSTORE PUSH1 0x20 ADD SWAP1 DUP2 MSTORE PUSH1 0x20 ADD PUSH1 0x0 KECCAK256 PUSH1 0x0 DUP4 DUP2 MSTORE PUSH1 0x20 ADD SWAP1 DUP2 MSTORE PUSH1 0x20 ADD PUSH1 0x0 KECCAK256 SLOAD SWAP1 POP SWAP3 SWAP2 POP POP JUMP JUMPDEST PUSH1 0x9 PUSH1 0x15 SWAP1 SLOAD SWAP1 PUSH2 0x100 EXP SWAP1 DIV PUSH1 0xFF AND ISZERO PUSH2 0x2362 JUMPI PUSH1 0x40 MLOAD PUSH32 0x8C379A000000000000000000000000000000000000000000000000000000000 DUP2 MSTORE PUSH1 0x4 ADD PUSH2 0x2359 SWAP1 PUSH2 0x3B98 JUMP JUMPDEST PUSH1 0x40 MLOAD DUP1 SWAP2 SUB SWAP1 REVERT JUMPDEST PUSH1 0x1 PUSH1 0x5 ADD SLOAD TIMESTAMP LT PUSH2 0x23A9 JUMPI PUSH1 0x40 MLOAD PUSH32 0x8C379A000000000000000000000000000000000000000000000000000000000 DUP2 MSTORE PUSH1 0x4 ADD PUSH2 0x23A0 SWAP1 PUSH2 0x3C04 JUMP JUMPDEST PUSH1 0x40 MLOAD DUP1 SWAP2 SUB SWAP1 REVERT JUMPDEST PUSH1 0x9 PUSH1 0x0 SWAP1 SLOAD SWAP1 PUSH2 0x100 EXP SWAP1 DIV PUSH20 0xFFFFFFFFFFFFFFFFFFFFFFFFFFFFFFFFFFFFFFFF AND PUSH20 0xFFFFFFFFFFFFFFFFFFFFFFFFFFFFFFFFFFFFFFFF AND PUSH4 0x8DA5CB5B PUSH1 0x40 MLOAD DUP2 PUSH4 0xFFFFFFFF AND PUSH1 0xE0 SHL DUP2 MSTORE PUSH1 0x4 ADD PUSH1 0x20 PUSH1 0x40 MLOAD DUP1 DUP4 SUB DUP2 DUP7 DUP1 EXTCODESIZE ISZERO DUP1 ISZERO PUSH2 0x2411 JUMPI PUSH1 0x0 DUP1 REVERT JUMPDEST POP GAS STATICCALL ISZERO DUP1 ISZERO PUSH2 0x2425 JUMPI RETURNDATASIZE PUSH1 0x0 DUP1 RETURNDATACOPY RETURNDATASIZE PUSH1 0x0 REVERT JUMPDEST POP POP POP POP PUSH1 0x40 MLOAD RETURNDATASIZE PUSH1 0x1F NOT PUSH1 0x1F DUP3 ADD AND DUP3 ADD DUP1 PUSH1 0x40 MSTORE POP DUP2 ADD SWAP1 PUSH2 0x2449 SWAP2 SWAP1 PUSH2 0x3C39 JUMP JUMPDEST PUSH20 0xFFFFFFFFFFFFFFFFFFFFFFFFFFFFFFFFFFFFFFFF AND CALLER PUSH20 0xFFFFFFFFFFFFFFFFFFFFFFFFFFFFFFFFFFFFFFFF AND EQ PUSH2 0x2480 JUMPI PUSH1 0x0 DUP1 REVERT JUMPDEST PUSH1 0x1 PUSH1 0x9 PUSH1 0x15 PUSH2 0x100 EXP DUP2 SLOAD DUP2 PUSH1 0xFF MUL NOT AND SWAP1 DUP4 ISZERO ISZERO MUL OR SWAP1 SSTORE POP JUMP JUMPDEST PUSH1 0x9 PUSH1 0x15 SWAP1 SLOAD SWAP1 PUSH2 0x100 EXP SWAP1 DIV PUSH1 0xFF AND ISZERO PUSH2 0x24ED JUMPI PUSH1 0x40 MLOAD PUSH32 0x8C379A000000000000000000000000000000000000000000000000000000000 DUP2 MSTORE PUSH1 0x4 ADD PUSH2 0x24E4 SWAP1 PUSH2 0x3B98 JUMP JUMPDEST PUSH1 0x40 MLOAD DUP1 SWAP2 SUB SWAP1 REVERT JUMPDEST PUSH1 0x1 PUSH1 0x5 ADD SLOAD TIMESTAMP LT PUSH2 0x2534 JUMPI PUSH1 0x40 MLOAD PUSH32 0x8C379A000000000000000000000000000000000000000000000000000000000 DUP2 MSTORE PUSH1 0x4 ADD PUSH2 0x252B SWAP1 PUSH2 0x3C04 JUMP JUMPDEST PUSH1 0x40 MLOAD DUP1 SWAP2 SUB SWAP1 REVERT JUMPDEST PUSH1 0x9 PUSH1 0x0 SWAP1 SLOAD SWAP1 PUSH2 0x100 EXP SWAP1 DIV PUSH20 0xFFFFFFFFFFFFFFFFFFFFFFFFFFFFFFFFFFFFFFFF AND PUSH20 0xFFFFFFFFFFFFFFFFFFFFFFFFFFFFFFFFFFFFFFFF AND PUSH4 0x8DA5CB5B PUSH1 0x40 MLOAD DUP2 PUSH4 0xFFFFFFFF AND PUSH1 0xE0 SHL DUP2 MSTORE PUSH1 0x4 ADD PUSH1 0x20 PUSH1 0x40 MLOAD DUP1 DUP4 SUB DUP2 DUP7 DUP1 EXTCODESIZE ISZERO DUP1 ISZERO PUSH2 0x259C JUMPI PUSH1 0x0 DUP1 REVERT JUMPDEST POP GAS STATICCALL ISZERO DUP1 ISZERO PUSH2 0x25B0 JUMPI RETURNDATASIZE PUSH1 0x0 DUP1 RETURNDATACOPY RETURNDATASIZE PUSH1 0x0 REVERT JUMPDEST POP POP POP POP PUSH1 0x40 MLOAD RETURNDATASIZE PUSH1 0x1F NOT PUSH1 0x1F DUP3 ADD AND DUP3 ADD DUP1 PUSH1 0x40 MSTORE POP DUP2 ADD SWAP1 PUSH2 0x25D4 SWAP2 SWAP1 PUSH2 0x3C39 JUMP JUMPDEST PUSH20 0xFFFFFFFFFFFFFFFFFFFFFFFFFFFFFFFFFFFFFFFF AND CALLER PUSH20 0xFFFFFFFFFFFFFFFFFFFFFFFFFFFFFFFFFFFFFFFF AND EQ PUSH2 0x260B JUMPI PUSH1 0x0 DUP1 REVERT JUMPDEST DUP1 PUSH1 0x1 PUSH1 0x2 ADD DUP2 SWAP1 SSTORE POP POP JUMP JUMPDEST PUSH2 0x2620 PUSH2 0x2D93 JUMP JUMPDEST PUSH1 0x0 PUSH20 0xFFFFFFFFFFFFFFFFFFFFFFFFFFFFFFFFFFFFFFFF AND DUP2 PUSH20 0xFFFFFFFFFFFFFFFFFFFFFFFFFFFFFFFFFFFFFFFF AND EQ ISZERO PUSH2 0x2690 JUMPI PUSH1 0x40 MLOAD PUSH32 0x8C379A000000000000000000000000000000000000000000000000000000000 DUP2 MSTORE PUSH1 0x4 ADD PUSH2 0x2687 SWAP1 PUSH2 0x3E5B JUMP JUMPDEST PUSH1 0x40 MLOAD DUP1 SWAP2 SUB SWAP1 REVERT JUMPDEST PUSH2 0x2699 DUP2 PUSH2 0x2E11 JUMP JUMPDEST POP JUMP JUMPDEST PUSH1 0x0 DUP2 GT DUP1 ISZERO PUSH2 0x270C JUMPI POP PUSH1 0x0 PUSH20 0xFFFFFFFFFFFFFFFFFFFFFFFFFFFFFFFFFFFFFFFF AND PUSH1 0x10 PUSH1 0x0 DUP5 DUP2 MSTORE PUSH1 0x20 ADD SWAP1 DUP2 MSTORE PUSH1 0x20 ADD PUSH1 0x0 KECCAK256 PUSH1 0x0 SWAP1 SLOAD SWAP1 PUSH2 0x100 EXP SWAP1 DIV PUSH20 0xFFFFFFFFFFFFFFFFFFFFFFFFFFFFFFFFFFFFFFFF AND PUSH20 0xFFFFFFFFFFFFFFFFFFFFFFFFFFFFFFFFFFFFFFFF AND EQ ISZERO JUMPDEST ISZERO PUSH2 0x281A JUMPI PUSH1 0x10 PUSH1 0x0 DUP4 DUP2 MSTORE PUSH1 0x20 ADD SWAP1 DUP2 MSTORE PUSH1 0x20 ADD PUSH1 0x0 KECCAK256 PUSH1 0x0 SWAP1 SLOAD SWAP1 PUSH2 0x100 EXP SWAP1 DIV PUSH20 0xFFFFFFFFFFFFFFFFFFFFFFFFFFFFFFFFFFFFFFFF AND PUSH20 0xFFFFFFFFFFFFFFFFFFFFFFFFFFFFFFFFFFFFFFFF AND PUSH4 0x60A56B3A PUSH1 0x12 PUSH1 0x0 DUP6 DUP2 MSTORE PUSH1 0x20 ADD SWAP1 DUP2 MSTORE PUSH1 0x20 ADD PUSH1 0x0 KECCAK256 PUSH1 0x0 SWAP1 SLOAD SWAP1 PUSH2 0x100 EXP SWAP1 DIV PUSH20 0xFFFFFFFFFFFFFFFFFFFFFFFFFFFFFFFFFFFFFFFF AND PUSH1 0x11 PUSH1 0x0 DUP7 DUP2 MSTORE PUSH1 0x20 ADD SWAP1 DUP2 MSTORE PUSH1 0x20 ADD PUSH1 0x0 KECCAK256 PUSH1 0x0 SWAP1 SLOAD SWAP1 PUSH2 0x100 EXP SWAP1 DIV PUSH20 0xFFFFFFFFFFFFFFFFFFFFFFFFFFFFFFFFFFFFFFFF AND DUP5 PUSH1 0x40 MLOAD DUP5 PUSH4 0xFFFFFFFF AND PUSH1 0xE0 SHL DUP2 MSTORE PUSH1 0x4 ADD PUSH2 0x27E7 SWAP4 SWAP3 SWAP2 SWAP1 PUSH2 0x3CF8 JUMP JUMPDEST PUSH1 0x0 PUSH1 0x40 MLOAD DUP1 DUP4 SUB DUP2 PUSH1 0x0 DUP8 DUP1 EXTCODESIZE ISZERO DUP1 ISZERO PUSH2 0x2801 JUMPI PUSH1 0x0 DUP1 REVERT JUMPDEST POP GAS CALL ISZERO DUP1 ISZERO PUSH2 0x2815 JUMPI RETURNDATASIZE PUSH1 0x0 DUP1 RETURNDATACOPY RETURNDATASIZE PUSH1 0x0 REVERT JUMPDEST POP POP POP POP JUMPDEST POP POP JUMP JUMPDEST PUSH1 0x0 DUP1 PUSH1 0x10 PUSH1 0x0 PUSH1 0x1 DUP1 ADD SLOAD DUP2 MSTORE PUSH1 0x20 ADD SWAP1 DUP2 MSTORE PUSH1 0x20 ADD PUSH1 0x0 KECCAK256 PUSH1 0x0 SWAP1 SLOAD SWAP1 PUSH2 0x100 EXP SWAP1 DIV PUSH20 0xFFFFFFFFFFFFFFFFFFFFFFFFFFFFFFFFFFFFFFFF AND SWAP1 POP PUSH1 0x0 PUSH20 0xFFFFFFFFFFFFFFFFFFFFFFFFFFFFFFFFFFFFFFFF AND DUP2 PUSH20 0xFFFFFFFFFFFFFFFFFFFFFFFFFFFFFFFFFFFFFFFF AND EQ ISZERO PUSH2 0x28CB JUMPI PUSH1 0x40 MLOAD PUSH32 0x8C379A000000000000000000000000000000000000000000000000000000000 DUP2 MSTORE PUSH1 0x4 ADD PUSH2 0x28C2 SWAP1 PUSH2 0x3B2C JUMP JUMPDEST PUSH1 0x40 MLOAD DUP1 SWAP2 SUB SWAP1 REVERT JUMPDEST PUSH1 0x0 PUSH1 0x1 PUSH1 0x7 ADD DUP1 SLOAD DUP1 PUSH1 0x20 MUL PUSH1 0x20 ADD PUSH1 0x40 MLOAD SWAP1 DUP2 ADD PUSH1 0x40 MSTORE DUP1 SWAP3 SWAP2 SWAP1 DUP2 DUP2 MSTORE PUSH1 0x20 ADD DUP3 DUP1 SLOAD DUP1 ISZERO PUSH2 0x291C JUMPI PUSH1 0x20 MUL DUP3 ADD SWAP2 SWAP1 PUSH1 0x0 MSTORE PUSH1 0x20 PUSH1 0x0 KECCAK256 SWAP1 JUMPDEST DUP2 SLOAD DUP2 MSTORE PUSH1 0x20 ADD SWAP1 PUSH1 0x1 ADD SWAP1 DUP1 DUP4 GT PUSH2 0x2908 JUMPI JUMPDEST POP POP POP POP POP SWAP1 POP PUSH1 0x0 DUP2 MLOAD SWAP1 POP PUSH1 0x0 PUSH1 0x11 PUSH1 0x0 PUSH1 0x1 DUP1 ADD SLOAD DUP2 MSTORE PUSH1 0x20 ADD SWAP1 DUP2 MSTORE PUSH1 0x20 ADD PUSH1 0x0 KECCAK256 PUSH1 0x0 SWAP1 SLOAD SWAP1 PUSH2 0x100 EXP SWAP1 DIV PUSH20 0xFFFFFFFFFFFFFFFFFFFFFFFFFFFFFFFFFFFFFFFF AND PUSH20 0xFFFFFFFFFFFFFFFFFFFFFFFFFFFFFFFFFFFFFFFF AND PUSH4 0x70A08231 DUP6 PUSH1 0x40 MLOAD DUP3 PUSH4 0xFFFFFFFF AND PUSH1 0xE0 SHL DUP2 MSTORE PUSH1 0x4 ADD PUSH2 0x299B SWAP2 SWAP1 PUSH2 0x35AB JUMP JUMPDEST PUSH1 0x20 PUSH1 0x40 MLOAD DUP1 DUP4 SUB DUP2 DUP7 DUP1 EXTCODESIZE ISZERO DUP1 ISZERO PUSH2 0x29B3 JUMPI PUSH1 0x0 DUP1 REVERT JUMPDEST POP GAS STATICCALL ISZERO DUP1 ISZERO PUSH2 0x29C7 JUMPI RETURNDATASIZE PUSH1 0x0 DUP1 RETURNDATACOPY RETURNDATASIZE PUSH1 0x0 REVERT JUMPDEST POP POP POP POP PUSH1 0x40 MLOAD RETURNDATASIZE PUSH1 0x1F NOT PUSH1 0x1F DUP3 ADD AND DUP3 ADD DUP1 PUSH1 0x40 MSTORE POP DUP2 ADD SWAP1 PUSH2 0x29EB SWAP2 SWAP1 PUSH2 0x3A03 JUMP JUMPDEST SWAP1 POP PUSH1 0x0 JUMPDEST DUP3 DUP2 LT ISZERO PUSH2 0x2B7C JUMPI PUSH1 0x0 PUSH1 0x10 PUSH1 0x0 DUP7 DUP5 DUP2 MLOAD DUP2 LT PUSH2 0x2A11 JUMPI PUSH2 0x2A10 PUSH2 0x37FB JUMP JUMPDEST JUMPDEST PUSH1 0x20 MUL PUSH1 0x20 ADD ADD MLOAD DUP2 MSTORE PUSH1 0x20 ADD SWAP1 DUP2 MSTORE PUSH1 0x20 ADD PUSH1 0x0 KECCAK256 PUSH1 0x0 SWAP1 SLOAD SWAP1 PUSH2 0x100 EXP SWAP1 DIV PUSH20 0xFFFFFFFFFFFFFFFFFFFFFFFFFFFFFFFFFFFFFFFF AND SWAP1 POP PUSH1 0x0 PUSH1 0x11 PUSH1 0x0 DUP8 DUP6 DUP2 MLOAD DUP2 LT PUSH2 0x2A63 JUMPI PUSH2 0x2A62 PUSH2 0x37FB JUMP JUMPDEST JUMPDEST PUSH1 0x20 MUL PUSH1 0x20 ADD ADD MLOAD DUP2 MSTORE PUSH1 0x20 ADD SWAP1 DUP2 MSTORE PUSH1 0x20 ADD PUSH1 0x0 KECCAK256 PUSH1 0x0 SWAP1 SLOAD SWAP1 PUSH2 0x100 EXP SWAP1 DIV PUSH20 0xFFFFFFFFFFFFFFFFFFFFFFFFFFFFFFFFFFFFFFFF AND SWAP1 POP PUSH1 0x0 PUSH20 0xFFFFFFFFFFFFFFFFFFFFFFFFFFFFFFFFFFFFFFFF AND DUP3 PUSH20 0xFFFFFFFFFFFFFFFFFFFFFFFFFFFFFFFFFFFFFFFF AND EQ PUSH2 0x2B67 JUMPI DUP1 PUSH20 0xFFFFFFFFFFFFFFFFFFFFFFFFFFFFFFFFFFFFFFFF AND PUSH4 0x70A08231 DUP4 PUSH1 0x40 MLOAD DUP3 PUSH4 0xFFFFFFFF AND PUSH1 0xE0 SHL DUP2 MSTORE PUSH1 0x4 ADD PUSH2 0x2B09 SWAP2 SWAP1 PUSH2 0x35AB JUMP JUMPDEST PUSH1 0x20 PUSH1 0x40 MLOAD DUP1 DUP4 SUB DUP2 DUP7 DUP1 EXTCODESIZE ISZERO DUP1 ISZERO PUSH2 0x2B21 JUMPI PUSH1 0x0 DUP1 REVERT JUMPDEST POP GAS STATICCALL ISZERO DUP1 ISZERO PUSH2 0x2B35 JUMPI RETURNDATASIZE PUSH1 0x0 DUP1 RETURNDATACOPY RETURNDATASIZE PUSH1 0x0 REVERT JUMPDEST POP POP POP POP PUSH1 0x40 MLOAD RETURNDATASIZE PUSH1 0x1F NOT PUSH1 0x1F DUP3 ADD AND DUP3 ADD DUP1 PUSH1 0x40 MSTORE POP DUP2 ADD SWAP1 PUSH2 0x2B59 SWAP2 SWAP1 PUSH2 0x3A03 JUMP JUMPDEST DUP5 PUSH2 0x2B64 SWAP2 SWAP1 PUSH2 0x3A30 JUMP JUMPDEST SWAP4 POP JUMPDEST POP POP DUP1 DUP1 PUSH2 0x2B74 SWAP1 PUSH2 0x3913 JUMP JUMPDEST SWAP2 POP POP PUSH2 0x29F0 JUMP JUMPDEST POP DUP1 SWAP5 POP POP POP POP POP SWAP1 JUMP JUMPDEST PUSH1 0x0 PUSH1 0x11 PUSH1 0x0 DUP4 DUP2 MSTORE PUSH1 0x20 ADD SWAP1 DUP2 MSTORE PUSH1 0x20 ADD PUSH1 0x0 KECCAK256 PUSH1 0x0 SWAP1 SLOAD SWAP1 PUSH2 0x100 EXP SWAP1 DIV PUSH20 0xFFFFFFFFFFFFFFFFFFFFFFFFFFFFFFFFFFFFFFFF AND PUSH20 0xFFFFFFFFFFFFFFFFFFFFFFFFFFFFFFFFFFFFFFFF AND PUSH4 0x70A08231 PUSH1 0x10 PUSH1 0x0 DUP6 DUP2 MSTORE PUSH1 0x20 ADD SWAP1 DUP2 MSTORE PUSH1 0x20 ADD PUSH1 0x0 KECCAK256 PUSH1 0x0 SWAP1 SLOAD SWAP1 PUSH2 0x100 EXP SWAP1 DIV PUSH20 0xFFFFFFFFFFFFFFFFFFFFFFFFFFFFFFFFFFFFFFFF AND PUSH1 0x40 MLOAD DUP3 PUSH4 0xFFFFFFFF AND PUSH1 0xE0 SHL DUP2 MSTORE PUSH1 0x4 ADD PUSH2 0x2C28 SWAP2 SWAP1 PUSH2 0x35AB JUMP JUMPDEST PUSH1 0x20 PUSH1 0x40 MLOAD DUP1 DUP4 SUB DUP2 DUP7 DUP1 EXTCODESIZE ISZERO DUP1 ISZERO PUSH2 0x2C40 JUMPI PUSH1 0x0 DUP1 REVERT JUMPDEST POP GAS STATICCALL ISZERO DUP1 ISZERO PUSH2 0x2C54 JUMPI RETURNDATASIZE PUSH1 0x0 DUP1 RETURNDATACOPY RETURNDATASIZE PUSH1 0x0 REVERT JUMPDEST POP POP POP POP PUSH1 0x40 MLOAD RETURNDATASIZE PUSH1 0x1F NOT PUSH1 0x1F DUP3 ADD AND DUP3 ADD DUP1 PUSH1 0x40 MSTORE POP DUP2 ADD SWAP1 PUSH2 0x2C78 SWAP2 SWAP1 PUSH2 0x3A03 JUMP JUMPDEST SWAP1 POP SWAP2 SWAP1 POP JUMP JUMPDEST PUSH2 0x2C87 PUSH2 0x2F38 JUMP JUMPDEST PUSH1 0x0 DUP1 PUSH1 0x14 PUSH2 0x100 EXP DUP2 SLOAD DUP2 PUSH1 0xFF MUL NOT AND SWAP1 DUP4 ISZERO ISZERO MUL OR SWAP1 SSTORE POP PUSH32 0x5DB9EE0A495BF2E6FF9C91A7834C1BA4FDD244A5E8AA4E537BD38AEAE4B073AA PUSH2 0x2CCA PUSH2 0x2F81 JUMP JUMPDEST PUSH1 0x40 MLOAD PUSH2 0x2CD7 SWAP2 SWAP1 PUSH2 0x35AB JUMP JUMPDEST PUSH1 0x40 MLOAD DUP1 SWAP2 SUB SWAP1 LOG1 JUMP JUMPDEST PUSH1 0x0 DUP3 MLOAD SWAP1 POP PUSH1 0x0 JUMPDEST DUP2 DUP2 LT ISZERO PUSH2 0x2D43 JUMPI PUSH2 0x2D30 DUP5 DUP3 DUP2 MLOAD DUP2 LT PUSH2 0x2D08 JUMPI PUSH2 0x2D07 PUSH2 0x37FB JUMP JUMPDEST JUMPDEST PUSH1 0x20 MUL PUSH1 0x20 ADD ADD MLOAD DUP5 DUP4 DUP2 MLOAD DUP2 LT PUSH2 0x2D23 JUMPI PUSH2 0x2D22 PUSH2 0x37FB JUMP JUMPDEST JUMPDEST PUSH1 0x20 MUL PUSH1 0x20 ADD ADD MLOAD PUSH2 0x269C JUMP JUMPDEST DUP1 DUP1 PUSH2 0x2D3B SWAP1 PUSH2 0x3913 JUMP JUMPDEST SWAP2 POP POP PUSH2 0x2CEA JUMP JUMPDEST POP POP POP POP JUMP JUMPDEST PUSH2 0x2D51 PUSH2 0x115E JUMP JUMPDEST ISZERO PUSH2 0x2D91 JUMPI PUSH1 0x40 MLOAD PUSH32 0x8C379A000000000000000000000000000000000000000000000000000000000 DUP2 MSTORE PUSH1 0x4 ADD PUSH2 0x2D88 SWAP1 PUSH2 0x3EC7 JUMP JUMPDEST PUSH1 0x40 MLOAD DUP1 SWAP2 SUB SWAP1 REVERT JUMPDEST JUMP JUMPDEST PUSH2 0x2D9B PUSH2 0x2F81 JUMP JUMPDEST PUSH20 0xFFFFFFFFFFFFFFFFFFFFFFFFFFFFFFFFFFFFFFFF AND PUSH2 0x2DB9 PUSH2 0x19F5 JUMP JUMPDEST PUSH20 0xFFFFFFFFFFFFFFFFFFFFFFFFFFFFFFFFFFFFFFFF AND EQ PUSH2 0x2E0F JUMPI PUSH1 0x40 MLOAD PUSH32 0x8C379A000000000000000000000000000000000000000000000000000000000 DUP2 MSTORE PUSH1 0x4 ADD PUSH2 0x2E06 SWAP1 PUSH2 0x3F33 JUMP JUMPDEST PUSH1 0x40 MLOAD DUP1 SWAP2 SUB SWAP1 REVERT JUMPDEST JUMP JUMPDEST PUSH1 0x0 DUP1 PUSH1 0x0 SWAP1 SLOAD SWAP1 PUSH2 0x100 EXP SWAP1 DIV PUSH20 0xFFFFFFFFFFFFFFFFFFFFFFFFFFFFFFFFFFFFFFFF AND SWAP1 POP DUP2 PUSH1 0x0 DUP1 PUSH2 0x100 EXP DUP2 SLOAD DUP2 PUSH20 0xFFFFFFFFFFFFFFFFFFFFFFFFFFFFFFFFFFFFFFFF MUL NOT AND SWAP1 DUP4 PUSH20 0xFFFFFFFFFFFFFFFFFFFFFFFFFFFFFFFFFFFFFFFF AND MUL OR SWAP1 SSTORE POP DUP2 PUSH20 0xFFFFFFFFFFFFFFFFFFFFFFFFFFFFFFFFFFFFFFFF AND DUP2 PUSH20 0xFFFFFFFFFFFFFFFFFFFFFFFFFFFFFFFFFFFFFFFF AND PUSH32 0x8BE0079C531659141344CD1FD0A4F28419497F9722A3DAAFE3B4186F6B6457E0 PUSH1 0x40 MLOAD PUSH1 0x40 MLOAD DUP1 SWAP2 SUB SWAP1 LOG3 POP POP JUMP JUMPDEST PUSH2 0x2EDD PUSH2 0x2D49 JUMP JUMPDEST PUSH1 0x1 PUSH1 0x0 PUSH1 0x14 PUSH2 0x100 EXP DUP2 SLOAD DUP2 PUSH1 0xFF MUL NOT AND SWAP1 DUP4 ISZERO ISZERO MUL OR SWAP1 SSTORE POP PUSH32 0x62E78CEA01BEE320CD4E420270B5EA74000D11B0C9F74754EBDBFC544B05A258 PUSH2 0x2F21 PUSH2 0x2F81 JUMP JUMPDEST PUSH1 0x40 MLOAD PUSH2 0x2F2E SWAP2 SWAP1 PUSH2 0x35AB JUMP JUMPDEST PUSH1 0x40 MLOAD DUP1 SWAP2 SUB SWAP1 LOG1 JUMP JUMPDEST PUSH2 0x2F40 PUSH2 0x115E JUMP JUMPDEST PUSH2 0x2F7F JUMPI PUSH1 0x40 MLOAD PUSH32 0x8C379A000000000000000000000000000000000000000000000000000000000 DUP2 MSTORE PUSH1 0x4 ADD PUSH2 0x2F76 SWAP1 PUSH2 0x3F9F JUMP JUMPDEST PUSH1 0x40 MLOAD DUP1 SWAP2 SUB SWAP1 REVERT JUMPDEST JUMP JUMPDEST PUSH1 0x0 CALLER SWAP1 POP SWAP1 JUMP JUMPDEST PUSH1 0x0 DUP2 SWAP1 POP SWAP2 SWAP1 POP JUMP JUMPDEST PUSH2 0x2F9C DUP2 PUSH2 0x2F89 JUMP JUMPDEST DUP3 MSTORE POP POP JUMP JUMPDEST PUSH1 0x0 PUSH1 0x20 DUP3 ADD SWAP1 POP PUSH2 0x2FB7 PUSH1 0x0 DUP4 ADD DUP5 PUSH2 0x2F93 JUMP JUMPDEST SWAP3 SWAP2 POP POP JUMP JUMPDEST PUSH1 0x0 DUP2 MLOAD SWAP1 POP SWAP2 SWAP1 POP JUMP JUMPDEST PUSH1 0x0 DUP3 DUP3 MSTORE PUSH1 0x20 DUP3 ADD SWAP1 POP SWAP3 SWAP2 POP POP JUMP JUMPDEST PUSH1 0x0 DUP2 SWAP1 POP PUSH1 0x20 DUP3 ADD SWAP1 POP SWAP2 SWAP1 POP JUMP JUMPDEST PUSH1 0x0 DUP2 SWAP1 POP SWAP2 SWAP1 POP JUMP JUMPDEST PUSH2 0x2FFC DUP2 PUSH2 0x2FE9 JUMP JUMPDEST DUP3 MSTORE POP POP JUMP JUMPDEST PUSH1 0x0 PUSH2 0x300E DUP4 DUP4 PUSH2 0x2FF3 JUMP JUMPDEST PUSH1 0x20 DUP4 ADD SWAP1 POP SWAP3 SWAP2 POP POP JUMP JUMPDEST PUSH1 0x0 PUSH1 0x20 DUP3 ADD SWAP1 POP SWAP2 SWAP1 POP JUMP JUMPDEST PUSH1 0x0 PUSH2 0x3032 DUP3 PUSH2 0x2FBD JUMP JUMPDEST PUSH2 0x303C DUP2 DUP6 PUSH2 0x2FC8 JUMP JUMPDEST SWAP4 POP PUSH2 0x3047 DUP4 PUSH2 0x2FD9 JUMP JUMPDEST DUP1 PUSH1 0x0 JUMPDEST DUP4 DUP2 LT ISZERO PUSH2 0x3078 JUMPI DUP2 MLOAD PUSH2 0x305F DUP9 DUP3 PUSH2 0x3002 JUMP JUMPDEST SWAP8 POP PUSH2 0x306A DUP4 PUSH2 0x301A JUMP JUMPDEST SWAP3 POP POP PUSH1 0x1 DUP2 ADD SWAP1 POP PUSH2 0x304B JUMP JUMPDEST POP DUP6 SWAP4 POP POP POP POP SWAP3 SWAP2 POP POP JUMP JUMPDEST PUSH1 0x0 PUSH1 0x20 DUP3 ADD SWAP1 POP DUP2 DUP2 SUB PUSH1 0x0 DUP4 ADD MSTORE PUSH2 0x309F DUP2 DUP5 PUSH2 0x3027 JUMP JUMPDEST SWAP1 POP SWAP3 SWAP2 POP POP JUMP JUMPDEST PUSH1 0x0 PUSH1 0x40 MLOAD SWAP1 POP SWAP1 JUMP JUMPDEST PUSH1 0x0 DUP1 REVERT JUMPDEST PUSH1 0x0 DUP1 REVERT JUMPDEST PUSH2 0x30C4 DUP2 PUSH2 0x2F89 JUMP JUMPDEST DUP2 EQ PUSH2 0x30CF JUMPI PUSH1 0x0 DUP1 REVERT JUMPDEST POP JUMP JUMPDEST PUSH1 0x0 DUP2 CALLDATALOAD SWAP1 POP PUSH2 0x30E1 DUP2 PUSH2 0x30BB JUMP JUMPDEST SWAP3 SWAP2 POP POP JUMP JUMPDEST PUSH1 0x0 DUP1 REVERT JUMPDEST PUSH1 0x0 PUSH1 0x1F NOT PUSH1 0x1F DUP4 ADD AND SWAP1 POP SWAP2 SWAP1 POP JUMP JUMPDEST PUSH32 0x4E487B7100000000000000000000000000000000000000000000000000000000 PUSH1 0x0 MSTORE PUSH1 0x41 PUSH1 0x4 MSTORE PUSH1 0x24 PUSH1 0x0 REVERT JUMPDEST PUSH2 0x3135 DUP3 PUSH2 0x30EC JUMP JUMPDEST DUP2 ADD DUP2 DUP2 LT PUSH8 0xFFFFFFFFFFFFFFFF DUP3 GT OR ISZERO PUSH2 0x3154 JUMPI PUSH2 0x3153 PUSH2 0x30FD JUMP JUMPDEST JUMPDEST DUP1 PUSH1 0x40 MSTORE POP POP POP JUMP JUMPDEST PUSH1 0x0 PUSH2 0x3167 PUSH2 0x30A7 JUMP JUMPDEST SWAP1 POP PUSH2 0x3173 DUP3 DUP3 PUSH2 0x312C JUMP JUMPDEST SWAP2 SWAP1 POP JUMP JUMPDEST PUSH1 0x0 PUSH8 0xFFFFFFFFFFFFFFFF DUP3 GT ISZERO PUSH2 0x3193 JUMPI PUSH2 0x3192 PUSH2 0x30FD JUMP JUMPDEST JUMPDEST PUSH1 0x20 DUP3 MUL SWAP1 POP PUSH1 0x20 DUP2 ADD SWAP1 POP SWAP2 SWAP1 POP JUMP JUMPDEST PUSH1 0x0 DUP1 REVERT JUMPDEST PUSH1 0x0 PUSH2 0x31BC PUSH2 0x31B7 DUP5 PUSH2 0x3178 JUMP JUMPDEST PUSH2 0x315D JUMP JUMPDEST SWAP1 POP DUP1 DUP4 DUP3 MSTORE PUSH1 0x20 DUP3 ADD SWAP1 POP PUSH1 0x20 DUP5 MUL DUP4 ADD DUP6 DUP2 GT ISZERO PUSH2 0x31DF JUMPI PUSH2 0x31DE PUSH2 0x31A4 JUMP JUMPDEST JUMPDEST DUP4 JUMPDEST DUP2 DUP2 LT ISZERO PUSH2 0x3208 JUMPI DUP1 PUSH2 0x31F4 DUP9 DUP3 PUSH2 0x30D2 JUMP JUMPDEST DUP5 MSTORE PUSH1 0x20 DUP5 ADD SWAP4 POP POP PUSH1 0x20 DUP2 ADD SWAP1 POP PUSH2 0x31E1 JUMP JUMPDEST POP POP POP SWAP4 SWAP3 POP POP POP JUMP JUMPDEST PUSH1 0x0 DUP3 PUSH1 0x1F DUP4 ADD SLT PUSH2 0x3227 JUMPI PUSH2 0x3226 PUSH2 0x30E7 JUMP JUMPDEST JUMPDEST DUP2 CALLDATALOAD PUSH2 0x3237 DUP5 DUP3 PUSH1 0x20 DUP7 ADD PUSH2 0x31A9 JUMP JUMPDEST SWAP2 POP POP SWAP3 SWAP2 POP POP JUMP JUMPDEST PUSH1 0x0 DUP1 PUSH1 0x40 DUP4 DUP6 SUB SLT ISZERO PUSH2 0x3257 JUMPI PUSH2 0x3256 PUSH2 0x30B1 JUMP JUMPDEST JUMPDEST PUSH1 0x0 PUSH2 0x3265 DUP6 DUP3 DUP7 ADD PUSH2 0x30D2 JUMP JUMPDEST SWAP3 POP POP PUSH1 0x20 DUP4 ADD CALLDATALOAD PUSH8 0xFFFFFFFFFFFFFFFF DUP2 GT ISZERO PUSH2 0x3286 JUMPI PUSH2 0x3285 PUSH2 0x30B6 JUMP JUMPDEST JUMPDEST PUSH2 0x3292 DUP6 DUP3 DUP7 ADD PUSH2 0x3212 JUMP JUMPDEST SWAP2 POP POP SWAP3 POP SWAP3 SWAP1 POP JUMP JUMPDEST PUSH1 0x0 DUP2 MLOAD SWAP1 POP SWAP2 SWAP1 POP JUMP JUMPDEST PUSH1 0x0 DUP3 DUP3 MSTORE PUSH1 0x20 DUP3 ADD SWAP1 POP SWAP3 SWAP2 POP POP JUMP JUMPDEST PUSH1 0x0 DUP2 SWAP1 POP PUSH1 0x20 DUP3 ADD SWAP1 POP SWAP2 SWAP1 POP JUMP JUMPDEST PUSH2 0x32D1 DUP2 PUSH2 0x2F89 JUMP JUMPDEST DUP3 MSTORE POP POP JUMP JUMPDEST PUSH1 0x0 PUSH2 0x32E3 DUP4 DUP4 PUSH2 0x32C8 JUMP JUMPDEST PUSH1 0x20 DUP4 ADD SWAP1 POP SWAP3 SWAP2 POP POP JUMP JUMPDEST PUSH1 0x0 PUSH1 0x20 DUP3 ADD SWAP1 POP SWAP2 SWAP1 POP JUMP JUMPDEST PUSH1 0x0 PUSH2 0x3307 DUP3 PUSH2 0x329C JUMP JUMPDEST PUSH2 0x3311 DUP2 DUP6 PUSH2 0x32A7 JUMP JUMPDEST SWAP4 POP PUSH2 0x331C DUP4 PUSH2 0x32B8 JUMP JUMPDEST DUP1 PUSH1 0x0 JUMPDEST DUP4 DUP2 LT ISZERO PUSH2 0x334D JUMPI DUP2 MLOAD PUSH2 0x3334 DUP9 DUP3 PUSH2 0x32D7 JUMP JUMPDEST SWAP8 POP PUSH2 0x333F DUP4 PUSH2 0x32EF JUMP JUMPDEST SWAP3 POP POP PUSH1 0x1 DUP2 ADD SWAP1 POP PUSH2 0x3320 JUMP JUMPDEST POP DUP6 SWAP4 POP POP POP POP SWAP3 SWAP2 POP POP JUMP JUMPDEST PUSH1 0x0 PUSH1 0x20 DUP3 ADD SWAP1 POP DUP2 DUP2 SUB PUSH1 0x0 DUP4 ADD MSTORE PUSH2 0x3374 DUP2 DUP5 PUSH2 0x32FC JUMP JUMPDEST SWAP1 POP SWAP3 SWAP2 POP POP JUMP JUMPDEST PUSH2 0x3385 DUP2 PUSH2 0x2FE9 JUMP JUMPDEST DUP2 EQ PUSH2 0x3390 JUMPI PUSH1 0x0 DUP1 REVERT JUMPDEST POP JUMP JUMPDEST PUSH1 0x0 DUP2 CALLDATALOAD SWAP1 POP PUSH2 0x33A2 DUP2 PUSH2 0x337C JUMP JUMPDEST SWAP3 SWAP2 POP POP JUMP JUMPDEST PUSH1 0x0 PUSH1 0x20 DUP3 DUP5 SUB SLT ISZERO PUSH2 0x33BE JUMPI PUSH2 0x33BD PUSH2 0x30B1 JUMP JUMPDEST JUMPDEST PUSH1 0x0 PUSH2 0x33CC DUP5 DUP3 DUP6 ADD PUSH2 0x3393 JUMP JUMPDEST SWAP2 POP POP SWAP3 SWAP2 POP POP JUMP JUMPDEST PUSH1 0x0 DUP1 PUSH1 0x0 DUP1 PUSH1 0x80 DUP6 DUP8 SUB SLT ISZERO PUSH2 0x33EF JUMPI PUSH2 0x33EE PUSH2 0x30B1 JUMP JUMPDEST JUMPDEST PUSH1 0x0 PUSH2 0x33FD DUP8 DUP3 DUP9 ADD PUSH2 0x30D2 JUMP JUMPDEST SWAP5 POP POP PUSH1 0x20 PUSH2 0x340E DUP8 DUP3 DUP9 ADD PUSH2 0x30D2 JUMP JUMPDEST SWAP4 POP POP PUSH1 0x40 PUSH2 0x341F DUP8 DUP3 DUP9 ADD PUSH2 0x30D2 JUMP JUMPDEST SWAP3 POP POP PUSH1 0x60 DUP6 ADD CALLDATALOAD PUSH8 0xFFFFFFFFFFFFFFFF DUP2 GT ISZERO PUSH2 0x3440 JUMPI PUSH2 0x343F PUSH2 0x30B6 JUMP JUMPDEST JUMPDEST PUSH2 0x344C DUP8 DUP3 DUP9 ADD PUSH2 0x3212 JUMP JUMPDEST SWAP2 POP POP SWAP3 SWAP6 SWAP2 SWAP5 POP SWAP3 POP JUMP JUMPDEST PUSH1 0x0 PUSH1 0x40 DUP3 ADD SWAP1 POP PUSH2 0x346D PUSH1 0x0 DUP4 ADD DUP6 PUSH2 0x2F93 JUMP JUMPDEST DUP2 DUP2 SUB PUSH1 0x20 DUP4 ADD MSTORE PUSH2 0x347F DUP2 DUP5 PUSH2 0x32FC JUMP JUMPDEST SWAP1 POP SWAP4 SWAP3 POP POP POP JUMP JUMPDEST PUSH1 0x0 PUSH1 0x20 DUP3 DUP5 SUB SLT ISZERO PUSH2 0x349E JUMPI PUSH2 0x349D PUSH2 0x30B1 JUMP JUMPDEST JUMPDEST PUSH1 0x0 PUSH2 0x34AC DUP5 DUP3 DUP6 ADD PUSH2 0x30D2 JUMP JUMPDEST SWAP2 POP POP SWAP3 SWAP2 POP POP JUMP JUMPDEST PUSH1 0x0 DUP2 ISZERO ISZERO SWAP1 POP SWAP2 SWAP1 POP JUMP JUMPDEST PUSH2 0x34CA DUP2 PUSH2 0x34B5 JUMP JUMPDEST DUP3 MSTORE POP POP JUMP JUMPDEST PUSH1 0x0 PUSH1 0x20 DUP3 ADD SWAP1 POP PUSH2 0x34E5 PUSH1 0x0 DUP4 ADD DUP5 PUSH2 0x34C1 JUMP JUMPDEST SWAP3 SWAP2 POP POP JUMP JUMPDEST PUSH1 0x0 PUSH20 0xFFFFFFFFFFFFFFFFFFFFFFFFFFFFFFFFFFFFFFFF DUP3 AND SWAP1 POP SWAP2 SWAP1 POP JUMP JUMPDEST PUSH1 0x0 PUSH2 0x3516 DUP3 PUSH2 0x34EB JUMP JUMPDEST SWAP1 POP SWAP2 SWAP1 POP JUMP JUMPDEST PUSH2 0x3526 DUP2 PUSH2 0x350B JUMP JUMPDEST DUP2 EQ PUSH2 0x3531 JUMPI PUSH1 0x0 DUP1 REVERT JUMPDEST POP JUMP JUMPDEST PUSH1 0x0 DUP2 CALLDATALOAD SWAP1 POP PUSH2 0x3543 DUP2 PUSH2 0x351D JUMP JUMPDEST SWAP3 SWAP2 POP POP JUMP JUMPDEST PUSH1 0x0 DUP1 PUSH1 0x0 PUSH1 0x60 DUP5 DUP7 SUB SLT ISZERO PUSH2 0x3562 JUMPI PUSH2 0x3561 PUSH2 0x30B1 JUMP JUMPDEST JUMPDEST PUSH1 0x0 PUSH2 0x3570 DUP7 DUP3 DUP8 ADD PUSH2 0x3393 JUMP JUMPDEST SWAP4 POP POP PUSH1 0x20 PUSH2 0x3581 DUP7 DUP3 DUP8 ADD PUSH2 0x3534 JUMP JUMPDEST SWAP3 POP POP PUSH1 0x40 PUSH2 0x3592 DUP7 DUP3 DUP8 ADD PUSH2 0x30D2 JUMP JUMPDEST SWAP2 POP POP SWAP3 POP SWAP3 POP SWAP3 JUMP JUMPDEST PUSH2 0x35A5 DUP2 PUSH2 0x350B JUMP JUMPDEST DUP3 MSTORE POP POP JUMP JUMPDEST PUSH1 0x0 PUSH1 0x20 DUP3 ADD SWAP1 POP PUSH2 0x35C0 PUSH1 0x0 DUP4 ADD DUP5 PUSH2 0x359C JUMP JUMPDEST SWAP3 SWAP2 POP POP JUMP JUMPDEST PUSH2 0x35CF DUP2 PUSH2 0x2FE9 JUMP JUMPDEST DUP3 MSTORE POP POP JUMP JUMPDEST PUSH1 0x0 PUSH1 0x20 DUP3 ADD SWAP1 POP PUSH2 0x35EA PUSH1 0x0 DUP4 ADD DUP5 PUSH2 0x35C6 JUMP JUMPDEST SWAP3 SWAP2 POP POP JUMP JUMPDEST PUSH1 0x0 DUP2 MLOAD SWAP1 POP SWAP2 SWAP1 POP JUMP JUMPDEST PUSH1 0x0 DUP3 DUP3 MSTORE PUSH1 0x20 DUP3 ADD SWAP1 POP SWAP3 SWAP2 POP POP JUMP JUMPDEST PUSH1 0x0 JUMPDEST DUP4 DUP2 LT ISZERO PUSH2 0x362A JUMPI DUP1 DUP3 ADD MLOAD DUP2 DUP5 ADD MSTORE PUSH1 0x20 DUP2 ADD SWAP1 POP PUSH2 0x360F JUMP JUMPDEST DUP4 DUP2 GT ISZERO PUSH2 0x3639 JUMPI PUSH1 0x0 DUP5 DUP5 ADD MSTORE JUMPDEST POP POP POP POP JUMP JUMPDEST PUSH1 0x0 PUSH2 0x364A DUP3 PUSH2 0x35F0 JUMP JUMPDEST PUSH2 0x3654 DUP2 DUP6 PUSH2 0x35FB JUMP JUMPDEST SWAP4 POP PUSH2 0x3664 DUP2 DUP6 PUSH1 0x20 DUP7 ADD PUSH2 0x360C JUMP JUMPDEST PUSH2 0x366D DUP2 PUSH2 0x30EC JUMP JUMPDEST DUP5 ADD SWAP2 POP POP SWAP3 SWAP2 POP POP JUMP JUMPDEST PUSH1 0x0 PUSH1 0xC0 DUP3 ADD SWAP1 POP DUP2 DUP2 SUB PUSH1 0x0 DUP4 ADD MSTORE PUSH2 0x3692 DUP2 DUP10 PUSH2 0x363F JUMP JUMPDEST SWAP1 POP PUSH2 0x36A1 PUSH1 0x20 DUP4 ADD DUP9 PUSH2 0x2F93 JUMP JUMPDEST PUSH2 0x36AE PUSH1 0x40 DUP4 ADD DUP8 PUSH2 0x2F93 JUMP JUMPDEST PUSH2 0x36BB PUSH1 0x60 DUP4 ADD DUP7 PUSH2 0x2F93 JUMP JUMPDEST PUSH2 0x36C8 PUSH1 0x80 DUP4 ADD DUP6 PUSH2 0x2F93 JUMP JUMPDEST DUP2 DUP2 SUB PUSH1 0xA0 DUP4 ADD MSTORE PUSH2 0x36DA DUP2 DUP5 PUSH2 0x363F JUMP JUMPDEST SWAP1 POP SWAP8 SWAP7 POP POP POP POP POP POP POP JUMP JUMPDEST PUSH1 0x0 DUP1 PUSH1 0x0 DUP1 PUSH1 0x80 DUP6 DUP8 SUB SLT ISZERO PUSH2 0x3701 JUMPI PUSH2 0x3700 PUSH2 0x30B1 JUMP JUMPDEST JUMPDEST PUSH1 0x0 PUSH2 0x370F DUP8 DUP3 DUP9 ADD PUSH2 0x3393 JUMP JUMPDEST SWAP5 POP POP PUSH1 0x20 PUSH2 0x3720 DUP8 DUP3 DUP9 ADD PUSH2 0x3534 JUMP JUMPDEST SWAP4 POP POP PUSH1 0x40 PUSH2 0x3731 DUP8 DUP3 DUP9 ADD PUSH2 0x3534 JUMP JUMPDEST SWAP3 POP POP PUSH1 0x60 PUSH2 0x3742 DUP8 DUP3 DUP9 ADD PUSH2 0x3534 JUMP JUMPDEST SWAP2 POP POP SWAP3 SWAP6 SWAP2 SWAP5 POP SWAP3 POP JUMP JUMPDEST PUSH1 0x0 DUP1 PUSH1 0x40 DUP4 DUP6 SUB SLT ISZERO PUSH2 0x3765 JUMPI PUSH2 0x3764 PUSH2 0x30B1 JUMP JUMPDEST JUMPDEST PUSH1 0x0 PUSH2 0x3773 DUP6 DUP3 DUP7 ADD PUSH2 0x3534 JUMP JUMPDEST SWAP3 POP POP PUSH1 0x20 PUSH2 0x3784 DUP6 DUP3 DUP7 ADD PUSH2 0x3393 JUMP JUMPDEST SWAP2 POP POP SWAP3 POP SWAP3 SWAP1 POP JUMP JUMPDEST PUSH1 0x0 PUSH1 0x20 DUP3 DUP5 SUB SLT ISZERO PUSH2 0x37A4 JUMPI PUSH2 0x37A3 PUSH2 0x30B1 JUMP JUMPDEST JUMPDEST PUSH1 0x0 PUSH2 0x37B2 DUP5 DUP3 DUP6 ADD PUSH2 0x3534 JUMP JUMPDEST SWAP2 POP POP SWAP3 SWAP2 POP POP JUMP JUMPDEST PUSH1 0x0 DUP1 PUSH1 0x40 DUP4 DUP6 SUB SLT ISZERO PUSH2 0x37D2 JUMPI PUSH2 0x37D1 PUSH2 0x30B1 JUMP JUMPDEST JUMPDEST PUSH1 0x0 PUSH2 0x37E0 DUP6 DUP3 DUP7 ADD PUSH2 0x3393 JUMP JUMPDEST SWAP3 POP POP PUSH1 0x20 PUSH2 0x37F1 DUP6 DUP3 DUP7 ADD PUSH2 0x30D2 JUMP JUMPDEST SWAP2 POP POP SWAP3 POP SWAP3 SWAP1 POP JUMP JUMPDEST PUSH32 0x4E487B7100000000000000000000000000000000000000000000000000000000 PUSH1 0x0 MSTORE PUSH1 0x32 PUSH1 0x4 MSTORE PUSH1 0x24 PUSH1 0x0 REVERT JUMPDEST PUSH32 0x4E487B7100000000000000000000000000000000000000000000000000000000 PUSH1 0x0 MSTORE PUSH1 0x11 PUSH1 0x4 MSTORE PUSH1 0x24 PUSH1 0x0 REVERT JUMPDEST PUSH1 0x0 PUSH2 0x3864 DUP3 PUSH2 0x2F89 JUMP JUMPDEST SWAP2 POP PUSH2 0x386F DUP4 PUSH2 0x2F89 JUMP JUMPDEST SWAP3 POP DUP2 PUSH32 0xFFFFFFFFFFFFFFFFFFFFFFFFFFFFFFFFFFFFFFFFFFFFFFFFFFFFFFFFFFFFFFFF DIV DUP4 GT DUP3 ISZERO ISZERO AND ISZERO PUSH2 0x38A8 JUMPI PUSH2 0x38A7 PUSH2 0x382A JUMP JUMPDEST JUMPDEST DUP3 DUP3 MUL SWAP1 POP SWAP3 SWAP2 POP POP JUMP JUMPDEST PUSH32 0x4E487B7100000000000000000000000000000000000000000000000000000000 PUSH1 0x0 MSTORE PUSH1 0x12 PUSH1 0x4 MSTORE PUSH1 0x24 PUSH1 0x0 REVERT JUMPDEST PUSH1 0x0 PUSH2 0x38ED DUP3 PUSH2 0x2F89 JUMP JUMPDEST SWAP2 POP PUSH2 0x38F8 DUP4 PUSH2 0x2F89 JUMP JUMPDEST SWAP3 POP DUP3 PUSH2 0x3908 JUMPI PUSH2 0x3907 PUSH2 0x38B3 JUMP JUMPDEST JUMPDEST DUP3 DUP3 DIV SWAP1 POP SWAP3 SWAP2 POP POP JUMP JUMPDEST PUSH1 0x0 PUSH2 0x391E DUP3 PUSH2 0x2F89 JUMP JUMPDEST SWAP2 POP PUSH32 0xFFFFFFFFFFFFFFFFFFFFFFFFFFFFFFFFFFFFFFFFFFFFFFFFFFFFFFFFFFFFFFFF DUP3 EQ ISZERO PUSH2 0x3951 JUMPI PUSH2 0x3950 PUSH2 0x382A JUMP JUMPDEST JUMPDEST PUSH1 0x1 DUP3 ADD SWAP1 POP SWAP2 SWAP1 POP JUMP JUMPDEST PUSH32 0x43616D706169676E496E666F3A20547265617375727920616464726573732066 PUSH1 0x0 DUP3 ADD MSTORE PUSH32 0x6F7220706C6174666F726D206973206E6F742073657400000000000000000000 PUSH1 0x20 DUP3 ADD MSTORE POP JUMP JUMPDEST PUSH1 0x0 PUSH2 0x39B8 PUSH1 0x36 DUP4 PUSH2 0x35FB JUMP JUMPDEST SWAP2 POP PUSH2 0x39C3 DUP3 PUSH2 0x395C JUMP JUMPDEST PUSH1 0x40 DUP3 ADD SWAP1 POP SWAP2 SWAP1 POP JUMP JUMPDEST PUSH1 0x0 PUSH1 0x20 DUP3 ADD SWAP1 POP DUP2 DUP2 SUB PUSH1 0x0 DUP4 ADD MSTORE PUSH2 0x39E7 DUP2 PUSH2 0x39AB JUMP JUMPDEST SWAP1 POP SWAP2 SWAP1 POP JUMP JUMPDEST PUSH1 0x0 DUP2 MLOAD SWAP1 POP PUSH2 0x39FD DUP2 PUSH2 0x30BB JUMP JUMPDEST SWAP3 SWAP2 POP POP JUMP JUMPDEST PUSH1 0x0 PUSH1 0x20 DUP3 DUP5 SUB SLT ISZERO PUSH2 0x3A19 JUMPI PUSH2 0x3A18 PUSH2 0x30B1 JUMP JUMPDEST JUMPDEST PUSH1 0x0 PUSH2 0x3A27 DUP5 DUP3 DUP6 ADD PUSH2 0x39EE JUMP JUMPDEST SWAP2 POP POP SWAP3 SWAP2 POP POP JUMP JUMPDEST PUSH1 0x0 PUSH2 0x3A3B DUP3 PUSH2 0x2F89 JUMP JUMPDEST SWAP2 POP PUSH2 0x3A46 DUP4 PUSH2 0x2F89 JUMP JUMPDEST SWAP3 POP DUP3 PUSH32 0xFFFFFFFFFFFFFFFFFFFFFFFFFFFFFFFFFFFFFFFFFFFFFFFFFFFFFFFFFFFFFFFF SUB DUP3 GT ISZERO PUSH2 0x3A7B JUMPI PUSH2 0x3A7A PUSH2 0x382A JUMP JUMPDEST JUMPDEST DUP3 DUP3 ADD SWAP1 POP SWAP3 SWAP2 POP POP JUMP JUMPDEST PUSH1 0x0 PUSH2 0x3A91 DUP3 PUSH2 0x2F89 JUMP JUMPDEST SWAP2 POP PUSH2 0x3A9C DUP4 PUSH2 0x2F89 JUMP JUMPDEST SWAP3 POP DUP3 DUP3 LT ISZERO PUSH2 0x3AAF JUMPI PUSH2 0x3AAE PUSH2 0x382A JUMP JUMPDEST JUMPDEST DUP3 DUP3 SUB SWAP1 POP SWAP3 SWAP2 POP POP JUMP JUMPDEST PUSH32 0x43616D706169676E496E666F3A204F726967696E20706C6174666F726D207472 PUSH1 0x0 DUP3 ADD MSTORE PUSH32 0x656173757279206E6F7420736574207965740000000000000000000000000000 PUSH1 0x20 DUP3 ADD MSTORE POP JUMP JUMPDEST PUSH1 0x0 PUSH2 0x3B16 PUSH1 0x32 DUP4 PUSH2 0x35FB JUMP JUMPDEST SWAP2 POP PUSH2 0x3B21 DUP3 PUSH2 0x3ABA JUMP JUMPDEST PUSH1 0x40 DUP3 ADD SWAP1 POP SWAP2 SWAP1 POP JUMP JUMPDEST PUSH1 0x0 PUSH1 0x20 DUP3 ADD SWAP1 POP DUP2 DUP2 SUB PUSH1 0x0 DUP4 ADD MSTORE PUSH2 0x3B45 DUP2 PUSH2 0x3B09 JUMP JUMPDEST SWAP1 POP SWAP2 SWAP1 POP JUMP JUMPDEST PUSH32 0x43616D706169676E496E666F3A2043616D706169676E20656E64656400000000 PUSH1 0x0 DUP3 ADD MSTORE POP JUMP JUMPDEST PUSH1 0x0 PUSH2 0x3B82 PUSH1 0x1C DUP4 PUSH2 0x35FB JUMP JUMPDEST SWAP2 POP PUSH2 0x3B8D DUP3 PUSH2 0x3B4C JUMP JUMPDEST PUSH1 0x20 DUP3 ADD SWAP1 POP SWAP2 SWAP1 POP JUMP JUMPDEST PUSH1 0x0 PUSH1 0x20 DUP3 ADD SWAP1 POP DUP2 DUP2 SUB PUSH1 0x0 DUP4 ADD MSTORE PUSH2 0x3BB1 DUP2 PUSH2 0x3B75 JUMP JUMPDEST SWAP1 POP SWAP2 SWAP1 POP JUMP JUMPDEST PUSH32 0x43616D706169676E496E666F3A2043616D706169676E206F7665720000000000 PUSH1 0x0 DUP3 ADD MSTORE POP JUMP JUMPDEST PUSH1 0x0 PUSH2 0x3BEE PUSH1 0x1B DUP4 PUSH2 0x35FB JUMP JUMPDEST SWAP2 POP PUSH2 0x3BF9 DUP3 PUSH2 0x3BB8 JUMP JUMPDEST PUSH1 0x20 DUP3 ADD SWAP1 POP SWAP2 SWAP1 POP JUMP JUMPDEST PUSH1 0x0 PUSH1 0x20 DUP3 ADD SWAP1 POP DUP2 DUP2 SUB PUSH1 0x0 DUP4 ADD MSTORE PUSH2 0x3C1D DUP2 PUSH2 0x3BE1 JUMP JUMPDEST SWAP1 POP SWAP2 SWAP1 POP JUMP JUMPDEST PUSH1 0x0 DUP2 MLOAD SWAP1 POP PUSH2 0x3C33 DUP2 PUSH2 0x351D JUMP JUMPDEST SWAP3 SWAP2 POP POP JUMP JUMPDEST PUSH1 0x0 PUSH1 0x20 DUP3 DUP5 SUB SLT ISZERO PUSH2 0x3C4F JUMPI PUSH2 0x3C4E PUSH2 0x30B1 JUMP JUMPDEST JUMPDEST PUSH1 0x0 PUSH2 0x3C5D DUP5 DUP3 DUP6 ADD PUSH2 0x3C24 JUMP JUMPDEST SWAP2 POP POP SWAP3 SWAP2 POP POP JUMP JUMPDEST PUSH32 0x43616D706169676E496E666F3A2052657761726420706C6174666F726D206E6F PUSH1 0x0 DUP3 ADD MSTORE PUSH32 0x7420736574207965740000000000000000000000000000000000000000000000 PUSH1 0x20 DUP3 ADD MSTORE POP JUMP JUMPDEST PUSH1 0x0 PUSH2 0x3CC2 PUSH1 0x29 DUP4 PUSH2 0x35FB JUMP JUMPDEST SWAP2 POP PUSH2 0x3CCD DUP3 PUSH2 0x3C66 JUMP JUMPDEST PUSH1 0x40 DUP3 ADD SWAP1 POP SWAP2 SWAP1 POP JUMP JUMPDEST PUSH1 0x0 PUSH1 0x20 DUP3 ADD SWAP1 POP DUP2 DUP2 SUB PUSH1 0x0 DUP4 ADD MSTORE PUSH2 0x3CF1 DUP2 PUSH2 0x3CB5 JUMP JUMPDEST SWAP1 POP SWAP2 SWAP1 POP JUMP JUMPDEST PUSH1 0x0 PUSH1 0x60 DUP3 ADD SWAP1 POP PUSH2 0x3D0D PUSH1 0x0 DUP4 ADD DUP7 PUSH2 0x359C JUMP JUMPDEST PUSH2 0x3D1A PUSH1 0x20 DUP4 ADD DUP6 PUSH2 0x359C JUMP JUMPDEST PUSH2 0x3D27 PUSH1 0x40 DUP4 ADD DUP5 PUSH2 0x2F93 JUMP JUMPDEST SWAP5 SWAP4 POP POP POP POP JUMP JUMPDEST PUSH2 0x3D38 DUP2 PUSH2 0x34B5 JUMP JUMPDEST DUP2 EQ PUSH2 0x3D43 JUMPI PUSH1 0x0 DUP1 REVERT JUMPDEST POP JUMP JUMPDEST PUSH1 0x0 DUP2 MLOAD SWAP1 POP PUSH2 0x3D55 DUP2 PUSH2 0x3D2F JUMP JUMPDEST SWAP3 SWAP2 POP POP JUMP JUMPDEST PUSH1 0x0 PUSH1 0x20 DUP3 DUP5 SUB SLT ISZERO PUSH2 0x3D71 JUMPI PUSH2 0x3D70 PUSH2 0x30B1 JUMP JUMPDEST JUMPDEST PUSH1 0x0 PUSH2 0x3D7F DUP5 DUP3 DUP6 ADD PUSH2 0x3D46 JUMP JUMPDEST SWAP2 POP POP SWAP3 SWAP2 POP POP JUMP JUMPDEST PUSH32 0x4E487B7100000000000000000000000000000000000000000000000000000000 PUSH1 0x0 MSTORE PUSH1 0x22 PUSH1 0x4 MSTORE PUSH1 0x24 PUSH1 0x0 REVERT JUMPDEST PUSH1 0x0 PUSH1 0x2 DUP3 DIV SWAP1 POP PUSH1 0x1 DUP3 AND DUP1 PUSH2 0x3DCF JUMPI PUSH1 0x7F DUP3 AND SWAP2 POP JUMPDEST PUSH1 0x20 DUP3 LT DUP2 EQ ISZERO PUSH2 0x3DE3 JUMPI PUSH2 0x3DE2 PUSH2 0x3D88 JUMP JUMPDEST JUMPDEST POP SWAP2 SWAP1 POP JUMP JUMPDEST PUSH32 0x4F776E61626C653A206E6577206F776E657220697320746865207A65726F2061 PUSH1 0x0 DUP3 ADD MSTORE PUSH32 0x6464726573730000000000000000000000000000000000000000000000000000 PUSH1 0x20 DUP3 ADD MSTORE POP JUMP JUMPDEST PUSH1 0x0 PUSH2 0x3E45 PUSH1 0x26 DUP4 PUSH2 0x35FB JUMP JUMPDEST SWAP2 POP PUSH2 0x3E50 DUP3 PUSH2 0x3DE9 JUMP JUMPDEST PUSH1 0x40 DUP3 ADD SWAP1 POP SWAP2 SWAP1 POP JUMP JUMPDEST PUSH1 0x0 PUSH1 0x20 DUP3 ADD SWAP1 POP DUP2 DUP2 SUB PUSH1 0x0 DUP4 ADD MSTORE PUSH2 0x3E74 DUP2 PUSH2 0x3E38 JUMP JUMPDEST SWAP1 POP SWAP2 SWAP1 POP JUMP JUMPDEST PUSH32 0x5061757361626C653A2070617573656400000000000000000000000000000000 PUSH1 0x0 DUP3 ADD MSTORE POP JUMP JUMPDEST PUSH1 0x0 PUSH2 0x3EB1 PUSH1 0x10 DUP4 PUSH2 0x35FB JUMP JUMPDEST SWAP2 POP PUSH2 0x3EBC DUP3 PUSH2 0x3E7B JUMP JUMPDEST PUSH1 0x20 DUP3 ADD SWAP1 POP SWAP2 SWAP1 POP JUMP JUMPDEST PUSH1 0x0 PUSH1 0x20 DUP3 ADD SWAP1 POP DUP2 DUP2 SUB PUSH1 0x0 DUP4 ADD MSTORE PUSH2 0x3EE0 DUP2 PUSH2 0x3EA4 JUMP JUMPDEST SWAP1 POP SWAP2 SWAP1 POP JUMP JUMPDEST PUSH32 0x4F776E61626C653A2063616C6C6572206973206E6F7420746865206F776E6572 PUSH1 0x0 DUP3 ADD MSTORE POP JUMP JUMPDEST PUSH1 0x0 PUSH2 0x3F1D PUSH1 0x20 DUP4 PUSH2 0x35FB JUMP JUMPDEST SWAP2 POP PUSH2 0x3F28 DUP3 PUSH2 0x3EE7 JUMP JUMPDEST PUSH1 0x20 DUP3 ADD SWAP1 POP SWAP2 SWAP1 POP JUMP JUMPDEST PUSH1 0x0 PUSH1 0x20 DUP3 ADD SWAP1 POP DUP2 DUP2 SUB PUSH1 0x0 DUP4 ADD MSTORE PUSH2 0x3F4C DUP2 PUSH2 0x3F10 JUMP JUMPDEST SWAP1 POP SWAP2 SWAP1 POP JUMP JUMPDEST PUSH32 0x5061757361626C653A206E6F7420706175736564000000000000000000000000 PUSH1 0x0 DUP3 ADD MSTORE POP JUMP JUMPDEST PUSH1 0x0 PUSH2 0x3F89 PUSH1 0x14 DUP4 PUSH2 0x35FB JUMP JUMPDEST SWAP2 POP PUSH2 0x3F94 DUP3 PUSH2 0x3F53 JUMP JUMPDEST PUSH1 0x20 DUP3 ADD SWAP1 POP SWAP2 SWAP1 POP JUMP JUMPDEST PUSH1 0x0 PUSH1 0x20 DUP3 ADD SWAP1 POP DUP2 DUP2 SUB PUSH1 0x0 DUP4 ADD MSTORE PUSH2 0x3FB8 DUP2 PUSH2 0x3F7C JUMP JUMPDEST SWAP1 POP SWAP2 SWAP1 POP JUMP INVALID LOG2 PUSH5 0x6970667358 0x22 SLT KECCAK256 PUSH22 0x78858548D577B47E479C4AAC3FA485DAB3CFD3C4267F 0xC5 0xEE PUSH31 0xE0B244C6C29564736F6C63430008090033A26469706673582212203E4328CE INVALID 0xBE EXP CALLVALUE DUP6 SUB 0xFC SELFDESTRUCT 0xE1 0xB4 PUSH28 0xE2B46623DB89855F0166D6DB9473FFD4D64736F6C63430008090033 "},"methodIdentifiers":{"createCampaign(string,bytes32,uint256,uint256,uint256,uint256,uint256,string,bytes32[])":"537d148a","owner()":"8da5cb5b","renounceOwnership()":"715018a6","setRegistry(address)":"a91ee0dc","transferOwnership(address)":"f2fde38b"}}}}}