{"contracts/Aggregator/Aggregator.sol":{"Aggregator":{"abi":[{"inputs":[{"internalType":"address","name":"campaignInfo","type":"address"},{"internalType":"address","name":"creator","type":"address"},{"internalType":"bytes32[]","name":"id","type":"bytes32[]"},{"components":[{"internalType":"uint256[]","name":"items","type":"uint256[]"},{"internalType":"uint256[]","name":"itemQuantity","type":"uint256[]"},{"internalType":"uint256","name":"value","type":"uint256"},{"internalType":"bool","name":"isRewardTier","type":"bool"}],"internalType":"struct ICampaignContainers.Container[]","name":"container","type":"tuple[]"}],"name":"addContainers","outputs":[],"stateMutability":"nonpayable","type":"function"},{"inputs":[{"internalType":"address","name":"_creator","type":"address"},{"internalType":"address","name":"_originPlatformAddress","type":"address"},{"internalType":"address","name":"_originPlatformToken","type":"address"},{"internalType":"uint256","name":"_earlyPledgeAmount","type":"uint256"},{"internalType":"bytes32","name":"_originPlatformHex","type":"bytes32"},{"internalType":"string","name":"_identifier","type":"string"},{"internalType":"string","name":"_creatorUrl","type":"string"},{"internalType":"bytes32[]","name":"_reachPlatform","type":"bytes32[]"}],"name":"createCampaign","outputs":[],"stateMutability":"nonpayable","type":"function"},{"inputs":[{"internalType":"address","name":"_campaignInfoFactory","type":"address"},{"internalType":"address","name":"_campaignRegisty","type":"address"}],"name":"initialize","outputs":[],"stateMutability":"nonpayable","type":"function"},{"inputs":[{"internalType":"address","name":"campaignInfo","type":"address"},{"internalType":"uint256","name":"launchTime","type":"uint256"},{"internalType":"uint256","name":"deadline","type":"uint256"},{"internalType":"uint256","name":"goalAmount","type":"uint256"},{"internalType":"bool","name":"enableLatePledge","type":"bool"}],"name":"setLaunch","outputs":[],"stateMutability":"nonpayable","type":"function"},{"inputs":[{"internalType":"address","name":"campaignInfo","type":"address"},{"internalType":"bytes32","name":"platform","type":"bytes32"},{"internalType":"address","name":"platformWallet","type":"address"},{"internalType":"address","name":"token","type":"address"}],"name":"setTreasury","outputs":[],"stateMutability":"nonpayable","type":"function"},{"inputs":[{"internalType":"address","name":"campaignInfo","type":"address"},{"internalType":"uint256","name":"_deadline","type":"uint256"}],"name":"updateDeadline","outputs":[],"stateMutability":"nonpayable","type":"function"},{"inputs":[{"internalType":"address","name":"campaignInfo","type":"address"},{"internalType":"uint256","name":"_goalAmount","type":"uint256"}],"name":"updateGoal","outputs":[],"stateMutability":"nonpayable","type":"function"},{"inputs":[{"internalType":"address","name":"campaignInfo","type":"address"},{"internalType":"uint256","name":"_launchTime","type":"uint256"}],"name":"updateLaunchTime","outputs":[],"stateMutability":"nonpayable","type":"function"}],"evm":{"bytecode":{"linkReferences":{},"object":"608060405234801561001057600080fd5b5061230e806100206000396000f3fe60806040523480156200001157600080fd5b5060043610620000945760003560e01c8063592f98221162000063578063592f9822146200011957806389eb54581462000139578063fbe121fa1462000159578063fd38eaf114620001795762000094565b8063153f5afe146200009957806333d556d714620000b95780633be42fb514620000d9578063485cc95514620000f9575b600080fd5b620000b76004803603810190620000b1919062000c31565b62000199565b005b620000d76004803603810190620000d1919062000cb3565b6200025b565b005b620000f76004803603810190620000f1919062000c31565b620003ec565b005b62000117600480360381019062000111919062000d25565b620004ae565b005b62000137600480360381019062000131919062000e39565b62000534565b005b62000157600480360381019062000151919062001124565b6200067f565b005b62000177600480360381019062000171919062001287565b620009e2565b005b62000197600480360381019062000191919062000c31565b62000aad565b005b813373ffffffffffffffffffffffffffffffffffffffff16739aee2bb8906d3f3b1bb957765eb76a880bc4778873ffffffffffffffffffffffffffffffffffffffff1614620001e757600080fd5b8273ffffffffffffffffffffffffffffffffffffffff166342af1884836040518263ffffffff1660e01b815260040162000222919062001320565b600060405180830381600087803b1580156200023d57600080fd5b505af115801562000252573d6000803e3d6000fd5b50505050505050565b833373ffffffffffffffffffffffffffffffffffffffff16739aee2bb8906d3f3b1bb957765eb76a880bc4778873ffffffffffffffffffffffffffffffffffffffff1614620002a957600080fd5b600260009054906101000a900473ffffffffffffffffffffffffffffffffffffffff168585604051620002dc9062000b6f565b620002ea939291906200135f565b604051809103906000f08015801562000307573d6000803e3d6000fd5b50600360006101000a81548173ffffffffffffffffffffffffffffffffffffffff021916908373ffffffffffffffffffffffffffffffffffffffff1602179055506000600360009054906101000a900473ffffffffffffffffffffffffffffffffffffffff1690508573ffffffffffffffffffffffffffffffffffffffff1663deaaf241868684876040518563ffffffff1660e01b8152600401620003b094939291906200139c565b600060405180830381600087803b158015620003cb57600080fd5b505af1158015620003e0573d6000803e3d6000fd5b50505050505050505050565b813373ffffffffffffffffffffffffffffffffffffffff16739aee2bb8906d3f3b1bb957765eb76a880bc4778873ffffffffffffffffffffffffffffffffffffffff16146200043a57600080fd5b8273ffffffffffffffffffffffffffffffffffffffff166368027e43836040518263ffffffff1660e01b815260040162000475919062001320565b600060405180830381600087803b1580156200049057600080fd5b505af1158015620004a5573d6000803e3d6000fd5b50505050505050565b81600160006101000a81548173ffffffffffffffffffffffffffffffffffffffff021916908373ffffffffffffffffffffffffffffffffffffffff16021790555080600260006101000a81548173ffffffffffffffffffffffffffffffffffffffff021916908373ffffffffffffffffffffffffffffffffffffffff1602179055505050565b853373ffffffffffffffffffffffffffffffffffffffff16739aee2bb8906d3f3b1bb957765eb76a880bc4778873ffffffffffffffffffffffffffffffffffffffff16146200058257600080fd5b60008585905090508383905081146200059a57600080fd5b60005b8181101562000674578873ffffffffffffffffffffffffffffffffffffffff1663259bd58a89898985818110620005d957620005d8620013e9565b5b90506020020135888886818110620005f657620005f5620013e9565b5b90506020028101906200060a91906200141d565b6040518463ffffffff1660e01b81526004016200062a939291906200162e565b600060405180830381600087803b1580156200064557600080fd5b505af11580156200065a573d6000803e3d6000fd5b5050505080806200066b90620016a1565b9150506200059d565b505050505050505050565b873373ffffffffffffffffffffffffffffffffffffffff16739aee2bb8906d3f3b1bb957765eb76a880bc4778873ffffffffffffffffffffffffffffffffffffffff1614620006cd57600080fd5b600160009054906101000a900473ffffffffffffffffffffffffffffffffffffffff1673ffffffffffffffffffffffffffffffffffffffff1663c77e6f6530868887878c6040518763ffffffff1660e01b8152600401620007349695949392919062001850565b600060405180830381600087803b1580156200074f57600080fd5b505af115801562000764573d6000803e3d6000fd5b505050506000600260009054906101000a900473ffffffffffffffffffffffffffffffffffffffff1673ffffffffffffffffffffffffffffffffffffffff1663939f3130866040518263ffffffff1660e01b8152600401620007c79190620018d2565b60206040518083038186803b158015620007e057600080fd5b505afa158015620007f5573d6000803e3d6000fd5b505050506040513d601f19601f820116820180604052508101906200081b91906200190d565b9050896000808373ffffffffffffffffffffffffffffffffffffffff1673ffffffffffffffffffffffffffffffffffffffff16815260200190815260200160002060006101000a81548173ffffffffffffffffffffffffffffffffffffffff021916908373ffffffffffffffffffffffffffffffffffffffff160217905550600260009054906101000a900473ffffffffffffffffffffffffffffffffffffffff168187604051620008cd9062000b6f565b620008db939291906200135f565b604051809103906000f080158015620008f8573d6000803e3d6000fd5b50600360006101000a81548173ffffffffffffffffffffffffffffffffffffffff021916908373ffffffffffffffffffffffffffffffffffffffff1602179055506000600360009054906101000a900473ffffffffffffffffffffffffffffffffffffffff1690508173ffffffffffffffffffffffffffffffffffffffff1663deaaf241888c848d6040518563ffffffff1660e01b8152600401620009a194939291906200139c565b600060405180830381600087803b158015620009bc57600080fd5b505af1158015620009d1573d6000803e3d6000fd5b505050505050505050505050505050565b843373ffffffffffffffffffffffffffffffffffffffff16739aee2bb8906d3f3b1bb957765eb76a880bc4778873ffffffffffffffffffffffffffffffffffffffff161462000a3057600080fd5b8573ffffffffffffffffffffffffffffffffffffffff1663695c27c2868686866040518563ffffffff1660e01b815260040162000a71949392919062001950565b600060405180830381600087803b15801562000a8c57600080fd5b505af115801562000aa1573d6000803e3d6000fd5b50505050505050505050565b813373ffffffffffffffffffffffffffffffffffffffff16739aee2bb8906d3f3b1bb957765eb76a880bc4778873ffffffffffffffffffffffffffffffffffffffff161462000afb57600080fd5b8273ffffffffffffffffffffffffffffffffffffffff166342af1884836040518263ffffffff1660e01b815260040162000b36919062001320565b600060405180830381600087803b15801562000b5157600080fd5b505af115801562000b66573d6000803e3d6000fd5b50505050505050565b61093b806200199e83390190565b6000604051905090565b600080fd5b600080fd5b600073ffffffffffffffffffffffffffffffffffffffff82169050919050565b600062000bbe8262000b91565b9050919050565b62000bd08162000bb1565b811462000bdc57600080fd5b50565b60008135905062000bf08162000bc5565b92915050565b6000819050919050565b62000c0b8162000bf6565b811462000c1757600080fd5b50565b60008135905062000c2b8162000c00565b92915050565b6000806040838503121562000c4b5762000c4a62000b87565b5b600062000c5b8582860162000bdf565b925050602062000c6e8582860162000c1a565b9150509250929050565b6000819050919050565b62000c8d8162000c78565b811462000c9957600080fd5b50565b60008135905062000cad8162000c82565b92915050565b6000806000806080858703121562000cd05762000ccf62000b87565b5b600062000ce08782880162000bdf565b945050602062000cf38782880162000c9c565b935050604062000d068782880162000bdf565b925050606062000d198782880162000bdf565b91505092959194509250565b6000806040838503121562000d3f5762000d3e62000b87565b5b600062000d4f8582860162000bdf565b925050602062000d628582860162000bdf565b9150509250929050565b600080fd5b600080fd5b600080fd5b60008083601f84011262000d945762000d9362000d6c565b5b8235905067ffffffffffffffff81111562000db45762000db362000d71565b5b60208301915083602082028301111562000dd35762000dd262000d76565b5b9250929050565b60008083601f84011262000df35762000df262000d6c565b5b8235905067ffffffffffffffff81111562000e135762000e1262000d71565b5b60208301915083602082028301111562000e325762000e3162000d76565b5b9250929050565b6000806000806000806080878903121562000e595762000e5862000b87565b5b600062000e6989828a0162000bdf565b965050602062000e7c89828a0162000bdf565b955050604087013567ffffffffffffffff81111562000ea05762000e9f62000b8c565b5b62000eae89828a0162000d7b565b9450945050606087013567ffffffffffffffff81111562000ed45762000ed362000b8c565b5b62000ee289828a0162000dda565b92509250509295509295509295565b600080fd5b6000601f19601f8301169050919050565b7f4e487b7100000000000000000000000000000000000000000000000000000000600052604160045260246000fd5b62000f418262000ef6565b810181811067ffffffffffffffff8211171562000f635762000f6262000f07565b5b80604052505050565b600062000f7862000b7d565b905062000f86828262000f36565b919050565b600067ffffffffffffffff82111562000fa95762000fa862000f07565b5b62000fb48262000ef6565b9050602081019050919050565b82818337600083830152505050565b600062000fe762000fe18462000f8b565b62000f6c565b90508281526020810184848401111562001006576200100562000ef1565b5b6200101384828562000fc1565b509392505050565b600082601f83011262001033576200103262000d6c565b5b81356200104584826020860162000fd0565b91505092915050565b600067ffffffffffffffff8211156200106c576200106b62000f07565b5b602082029050602081019050919050565b6000620010946200108e846200104e565b62000f6c565b90508083825260208201905060208402830185811115620010ba57620010b962000d76565b5b835b81811015620010e75780620010d2888262000c9c565b845260208401935050602081019050620010bc565b5050509392505050565b600082601f83011262001109576200110862000d6c565b5b81356200111b8482602086016200107d565b91505092915050565b600080600080600080600080610100898b03121562001148576200114762000b87565b5b6000620011588b828c0162000bdf565b98505060206200116b8b828c0162000bdf565b97505060406200117e8b828c0162000bdf565b9650506060620011918b828c0162000c1a565b9550506080620011a48b828c0162000c9c565b94505060a089013567ffffffffffffffff811115620011c857620011c762000b8c565b5b620011d68b828c016200101b565b93505060c089013567ffffffffffffffff811115620011fa57620011f962000b8c565b5b620012088b828c016200101b565b92505060e089013567ffffffffffffffff8111156200122c576200122b62000b8c565b5b6200123a8b828c01620010f1565b9150509295985092959890939650565b60008115159050919050565b62001261816200124a565b81146200126d57600080fd5b50565b600081359050620012818162001256565b92915050565b600080600080600060a08688031215620012a657620012a562000b87565b5b6000620012b68882890162000bdf565b9550506020620012c98882890162000c1a565b9450506040620012dc8882890162000c1a565b9350506060620012ef8882890162000c1a565b9250506080620013028882890162001270565b9150509295509295909350565b6200131a8162000bf6565b82525050565b60006020820190506200133760008301846200130f565b92915050565b620013488162000bb1565b82525050565b620013598162000c78565b82525050565b60006060820190506200137660008301866200133d565b6200138560208301856200133d565b6200139460408301846200134e565b949350505050565b6000608082019050620013b360008301876200134e565b620013c260208301866200133d565b620013d160408301856200133d565b620013e060608301846200133d565b95945050505050565b7f4e487b7100000000000000000000000000000000000000000000000000000000600052603260045260246000fd5b600080fd5b6000823560016080038336030381126200143c576200143b62001418565b5b80830191505092915050565b600080fd5b600080fd5b600080fd5b6000808335600160200384360303811262001477576200147662001452565b5b83810192508235915060208301925067ffffffffffffffff821115620014a257620014a162001448565b5b602082023603841315620014bb57620014ba6200144d565b5b509250929050565b600082825260208201905092915050565b600080fd5b6000620014e78385620014c3565b93507f07ffffffffffffffffffffffffffffffffffffffffffffffffffffffffffffff8311156200151d576200151c620014d4565b5b6020830292506200153083858462000fc1565b82840190509392505050565b60006200154d602084018462000c1a565b905092915050565b620015608162000bf6565b82525050565b600062001577602084018462001270565b905092915050565b6200158a816200124a565b82525050565b600060808301620015a5600084018462001457565b8583036000870152620015ba838284620014d9565b92505050620015cd602084018462001457565b8583036020870152620015e2838284620014d9565b92505050620015f560408401846200153c565b62001604604086018262001555565b5062001614606084018462001566565b6200162360608601826200157f565b508091505092915050565b60006060820190506200164560008301866200133d565b6200165460208301856200134e565b818103604083015262001668818462001590565b9050949350505050565b7f4e487b7100000000000000000000000000000000000000000000000000000000600052601160045260246000fd5b6000620016ae8262000bf6565b91507fffffffffffffffffffffffffffffffffffffffffffffffffffffffffffffffff821415620016e457620016e362001672565b5b600182019050919050565b600081519050919050565b600082825260208201905092915050565b60005b838110156200172b5780820151818401526020810190506200170e565b838111156200173b576000848401525b50505050565b60006200174e82620016ef565b6200175a8185620016fa565b93506200176c8185602086016200170b565b620017778162000ef6565b840191505092915050565b600081519050919050565b600082825260208201905092915050565b6000819050602082019050919050565b620017b98162000c78565b82525050565b6000620017cd8383620017ae565b60208301905092915050565b6000602082019050919050565b6000620017f38262001782565b620017ff81856200178d565b93506200180c836200179e565b8060005b8381101562001843578151620018278882620017bf565b97506200183483620017d9565b92505060018101905062001810565b5085935050505092915050565b600060c0820190506200186760008301896200133d565b81810360208301526200187b818862001741565b90506200188c60408301876200134e565b8181036060830152620018a0818662001741565b90508181036080830152620018b68185620017e6565b9050620018c760a08301846200130f565b979650505050505050565b60006020820190508181036000830152620018ee818462001741565b905092915050565b600081519050620019078162000bc5565b92915050565b60006020828403121562001926576200192562000b87565b5b60006200193684828501620018f6565b91505092915050565b6200194a816200124a565b82525050565b60006080820190506200196760008301876200130f565b6200197660208301866200130f565b6200198560408301856200130f565b6200199460608301846200193f565b9594505050505056fe608060405234801561001057600080fd5b5060405161093b38038061093b8339818101604052810190610032919061015b565b826000806101000a81548173ffffffffffffffffffffffffffffffffffffffff021916908373ffffffffffffffffffffffffffffffffffffffff16021790555081600160006101000a81548173ffffffffffffffffffffffffffffffffffffffff021916908373ffffffffffffffffffffffffffffffffffffffff160217905550806002819055505050506101ae565b600080fd5b600073ffffffffffffffffffffffffffffffffffffffff82169050919050565b60006100f2826100c7565b9050919050565b610102816100e7565b811461010d57600080fd5b50565b60008151905061011f816100f9565b92915050565b6000819050919050565b61013881610125565b811461014357600080fd5b50565b6000815190506101558161012f565b92915050565b600080600060608486031215610174576101736100c2565b5b600061018286828701610110565b935050602061019386828701610110565b92505060406101a486828701610146565b9150509250925092565b61077e806101bd6000396000f3fe608060405234801561001057600080fd5b50600436106100885760003560e01c806360a56b3a1161005b57806360a56b3a146101055780636cccbe5e146101215780638f94b8c21461013f578063bf85f2631461015b57610088565b8063186bc5491461008d5780634575d5c5146100ab5780634b1d123b146100c95780634f15fc06146100e7575b600080fd5b610095610177565b6040516100a29190610337565b60405180910390f35b6100b3610181565b6040516100c0919061036b565b60405180910390f35b6100d161018b565b6040516100de9190610337565b60405180910390f35b6100ef6101a7565b6040516100fc9190610337565b60405180910390f35b61011f600480360381019061011a9190610415565b6101b1565b005b6101296102d4565b6040516101369190610337565b60405180910390f35b61015960048036038101906101549190610468565b6102f8565b005b61017560048036038101906101709190610468565b610302565b005b6000600354905090565b6000600254905090565b60006101956102d4565b6003546101a291906104c4565b905090565b6000600454905090565b600160009054906101000a900473ffffffffffffffffffffffffffffffffffffffff1673ffffffffffffffffffffffffffffffffffffffff163373ffffffffffffffffffffffffffffffffffffffff1614610241576040517f08c379a00000000000000000000000000000000000000000000000000000000081526004016102389061057b565b60405180910390fd5b8173ffffffffffffffffffffffffffffffffffffffff1663a9059cbb84836040518363ffffffff1660e01b815260040161027c9291906105aa565b602060405180830381600087803b15801561029657600080fd5b505af11580156102aa573d6000803e3d6000fd5b505050506040513d601f19601f820116820180604052508101906102ce919061060b565b50505050565b60006127106004546003546102e99190610638565b6102f391906106c1565b905090565b8060048190555050565b806003600082825461031491906106f2565b9250508190555050565b6000819050919050565b6103318161031e565b82525050565b600060208201905061034c6000830184610328565b92915050565b6000819050919050565b61036581610352565b82525050565b6000602082019050610380600083018461035c565b92915050565b600080fd5b600073ffffffffffffffffffffffffffffffffffffffff82169050919050565b60006103b68261038b565b9050919050565b6103c6816103ab565b81146103d157600080fd5b50565b6000813590506103e3816103bd565b92915050565b6103f28161031e565b81146103fd57600080fd5b50565b60008135905061040f816103e9565b92915050565b60008060006060848603121561042e5761042d610386565b5b600061043c868287016103d4565b935050602061044d868287016103d4565b925050604061045e86828701610400565b9150509250925092565b60006020828403121561047e5761047d610386565b5b600061048c84828501610400565b91505092915050565b7f4e487b7100000000000000000000000000000000000000000000000000000000600052601160045260246000fd5b60006104cf8261031e565b91506104da8361031e565b9250828210156104ed576104ec610495565b5b828203905092915050565b600082825260208201905092915050565b7f43616d706169676e54726561737572793a2043616c6c6572206973206e6f742060008201527f43616d706169676e496e666f20636f6e74726163740000000000000000000000602082015250565b60006105656035836104f8565b915061057082610509565b604082019050919050565b6000602082019050818103600083015261059481610558565b9050919050565b6105a4816103ab565b82525050565b60006040820190506105bf600083018561059b565b6105cc6020830184610328565b9392505050565b60008115159050919050565b6105e8816105d3565b81146105f357600080fd5b50565b600081519050610605816105df565b92915050565b60006020828403121561062157610620610386565b5b600061062f848285016105f6565b91505092915050565b60006106438261031e565b915061064e8361031e565b9250817fffffffffffffffffffffffffffffffffffffffffffffffffffffffffffffffff048311821515161561068757610686610495565b5b828202905092915050565b7f4e487b7100000000000000000000000000000000000000000000000000000000600052601260045260246000fd5b60006106cc8261031e565b91506106d78361031e565b9250826106e7576106e6610692565b5b828204905092915050565b60006106fd8261031e565b91506107088361031e565b9250827fffffffffffffffffffffffffffffffffffffffffffffffffffffffffffffffff0382111561073d5761073c610495565b5b82820190509291505056fea26469706673582212202a5583371f5732342cce0a1dce02a04f0483e302138cfaba5d4c9b05ad34fddc64736f6c63430008090033a264697066735822122082e8cc3efe9e7375e666300c85aa95e7cfdd9e96529d1e3a77a572fab5d5228864736f6c63430008090033","opcodes":"PUSH1 0x80 PUSH1 0x40 MSTORE CALLVALUE DUP1 ISZERO PUSH2 0x10 JUMPI PUSH1 0x0 DUP1 REVERT JUMPDEST POP PUSH2 0x230E DUP1 PUSH2 0x20 PUSH1 0x0 CODECOPY PUSH1 0x0 RETURN INVALID PUSH1 0x80 PUSH1 0x40 MSTORE CALLVALUE DUP1 ISZERO PUSH3 0x11 JUMPI PUSH1 0x0 DUP1 REVERT JUMPDEST POP PUSH1 0x4 CALLDATASIZE LT PUSH3 0x94 JUMPI PUSH1 0x0 CALLDATALOAD PUSH1 0xE0 SHR DUP1 PUSH4 0x592F9822 GT PUSH3 0x63 JUMPI DUP1 PUSH4 0x592F9822 EQ PUSH3 0x119 JUMPI DUP1 PUSH4 0x89EB5458 EQ PUSH3 0x139 JUMPI DUP1 PUSH4 0xFBE121FA EQ PUSH3 0x159 JUMPI DUP1 PUSH4 0xFD38EAF1 EQ PUSH3 0x179 JUMPI PUSH3 0x94 JUMP JUMPDEST DUP1 PUSH4 0x153F5AFE EQ PUSH3 0x99 JUMPI DUP1 PUSH4 0x33D556D7 EQ PUSH3 0xB9 JUMPI DUP1 PUSH4 0x3BE42FB5 EQ PUSH3 0xD9 JUMPI DUP1 PUSH4 0x485CC955 EQ PUSH3 0xF9 JUMPI JUMPDEST PUSH1 0x0 DUP1 REVERT JUMPDEST PUSH3 0xB7 PUSH1 0x4 DUP1 CALLDATASIZE SUB DUP2 ADD SWAP1 PUSH3 0xB1 SWAP2 SWAP1 PUSH3 0xC31 JUMP JUMPDEST PUSH3 0x199 JUMP JUMPDEST STOP JUMPDEST PUSH3 0xD7 PUSH1 0x4 DUP1 CALLDATASIZE SUB DUP2 ADD SWAP1 PUSH3 0xD1 SWAP2 SWAP1 PUSH3 0xCB3 JUMP JUMPDEST PUSH3 0x25B JUMP JUMPDEST STOP JUMPDEST PUSH3 0xF7 PUSH1 0x4 DUP1 CALLDATASIZE SUB DUP2 ADD SWAP1 PUSH3 0xF1 SWAP2 SWAP1 PUSH3 0xC31 JUMP JUMPDEST PUSH3 0x3EC JUMP JUMPDEST STOP JUMPDEST PUSH3 0x117 PUSH1 0x4 DUP1 CALLDATASIZE SUB DUP2 ADD SWAP1 PUSH3 0x111 SWAP2 SWAP1 PUSH3 0xD25 JUMP JUMPDEST PUSH3 0x4AE JUMP JUMPDEST STOP JUMPDEST PUSH3 0x137 PUSH1 0x4 DUP1 CALLDATASIZE SUB DUP2 ADD SWAP1 PUSH3 0x131 SWAP2 SWAP1 PUSH3 0xE39 JUMP JUMPDEST PUSH3 0x534 JUMP JUMPDEST STOP JUMPDEST PUSH3 0x157 PUSH1 0x4 DUP1 CALLDATASIZE SUB DUP2 ADD SWAP1 PUSH3 0x151 SWAP2 SWAP1 PUSH3 0x1124 JUMP JUMPDEST PUSH3 0x67F JUMP JUMPDEST STOP JUMPDEST PUSH3 0x177 PUSH1 0x4 DUP1 CALLDATASIZE SUB DUP2 ADD SWAP1 PUSH3 0x171 SWAP2 SWAP1 PUSH3 0x1287 JUMP JUMPDEST PUSH3 0x9E2 JUMP JUMPDEST STOP JUMPDEST PUSH3 0x197 PUSH1 0x4 DUP1 CALLDATASIZE SUB DUP2 ADD SWAP1 PUSH3 0x191 SWAP2 SWAP1 PUSH3 0xC31 JUMP JUMPDEST PUSH3 0xAAD JUMP JUMPDEST STOP JUMPDEST DUP2 CALLER PUSH20 0xFFFFFFFFFFFFFFFFFFFFFFFFFFFFFFFFFFFFFFFF AND PUSH20 0x9AEE2BB8906D3F3B1BB957765EB76A880BC47788 PUSH20 0xFFFFFFFFFFFFFFFFFFFFFFFFFFFFFFFFFFFFFFFF AND EQ PUSH3 0x1E7 JUMPI PUSH1 0x0 DUP1 REVERT JUMPDEST DUP3 PUSH20 0xFFFFFFFFFFFFFFFFFFFFFFFFFFFFFFFFFFFFFFFF AND PUSH4 0x42AF1884 DUP4 PUSH1 0x40 MLOAD DUP3 PUSH4 0xFFFFFFFF AND PUSH1 0xE0 SHL DUP2 MSTORE PUSH1 0x4 ADD PUSH3 0x222 SWAP2 SWAP1 PUSH3 0x1320 JUMP JUMPDEST PUSH1 0x0 PUSH1 0x40 MLOAD DUP1 DUP4 SUB DUP2 PUSH1 0x0 DUP8 DUP1 EXTCODESIZE ISZERO DUP1 ISZERO PUSH3 0x23D JUMPI PUSH1 0x0 DUP1 REVERT JUMPDEST POP GAS CALL ISZERO DUP1 ISZERO PUSH3 0x252 JUMPI RETURNDATASIZE PUSH1 0x0 DUP1 RETURNDATACOPY RETURNDATASIZE PUSH1 0x0 REVERT JUMPDEST POP POP POP POP POP POP POP JUMP JUMPDEST DUP4 CALLER PUSH20 0xFFFFFFFFFFFFFFFFFFFFFFFFFFFFFFFFFFFFFFFF AND PUSH20 0x9AEE2BB8906D3F3B1BB957765EB76A880BC47788 PUSH20 0xFFFFFFFFFFFFFFFFFFFFFFFFFFFFFFFFFFFFFFFF AND EQ PUSH3 0x2A9 JUMPI PUSH1 0x0 DUP1 REVERT JUMPDEST PUSH1 0x2 PUSH1 0x0 SWAP1 SLOAD SWAP1 PUSH2 0x100 EXP SWAP1 DIV PUSH20 0xFFFFFFFFFFFFFFFFFFFFFFFFFFFFFFFFFFFFFFFF AND DUP6 DUP6 PUSH1 0x40 MLOAD PUSH3 0x2DC SWAP1 PUSH3 0xB6F JUMP JUMPDEST PUSH3 0x2EA SWAP4 SWAP3 SWAP2 SWAP1 PUSH3 0x135F JUMP JUMPDEST PUSH1 0x40 MLOAD DUP1 SWAP2 SUB SWAP1 PUSH1 0x0 CREATE DUP1 ISZERO DUP1 ISZERO PUSH3 0x307 JUMPI RETURNDATASIZE PUSH1 0x0 DUP1 RETURNDATACOPY RETURNDATASIZE PUSH1 0x0 REVERT JUMPDEST POP PUSH1 0x3 PUSH1 0x0 PUSH2 0x100 EXP DUP2 SLOAD DUP2 PUSH20 0xFFFFFFFFFFFFFFFFFFFFFFFFFFFFFFFFFFFFFFFF MUL NOT AND SWAP1 DUP4 PUSH20 0xFFFFFFFFFFFFFFFFFFFFFFFFFFFFFFFFFFFFFFFF AND MUL OR SWAP1 SSTORE POP PUSH1 0x0 PUSH1 0x3 PUSH1 0x0 SWAP1 SLOAD SWAP1 PUSH2 0x100 EXP SWAP1 DIV PUSH20 0xFFFFFFFFFFFFFFFFFFFFFFFFFFFFFFFFFFFFFFFF AND SWAP1 POP DUP6 PUSH20 0xFFFFFFFFFFFFFFFFFFFFFFFFFFFFFFFFFFFFFFFF AND PUSH4 0xDEAAF241 DUP7 DUP7 DUP5 DUP8 PUSH1 0x40 MLOAD DUP6 PUSH4 0xFFFFFFFF AND PUSH1 0xE0 SHL DUP2 MSTORE PUSH1 0x4 ADD PUSH3 0x3B0 SWAP5 SWAP4 SWAP3 SWAP2 SWAP1 PUSH3 0x139C JUMP JUMPDEST PUSH1 0x0 PUSH1 0x40 MLOAD DUP1 DUP4 SUB DUP2 PUSH1 0x0 DUP8 DUP1 EXTCODESIZE ISZERO DUP1 ISZERO PUSH3 0x3CB JUMPI PUSH1 0x0 DUP1 REVERT JUMPDEST POP GAS CALL ISZERO DUP1 ISZERO PUSH3 0x3E0 JUMPI RETURNDATASIZE PUSH1 0x0 DUP1 RETURNDATACOPY RETURNDATASIZE PUSH1 0x0 REVERT JUMPDEST POP POP POP POP POP POP POP POP POP POP JUMP JUMPDEST DUP2 CALLER PUSH20 0xFFFFFFFFFFFFFFFFFFFFFFFFFFFFFFFFFFFFFFFF AND PUSH20 0x9AEE2BB8906D3F3B1BB957765EB76A880BC47788 PUSH20 0xFFFFFFFFFFFFFFFFFFFFFFFFFFFFFFFFFFFFFFFF AND EQ PUSH3 0x43A JUMPI PUSH1 0x0 DUP1 REVERT JUMPDEST DUP3 PUSH20 0xFFFFFFFFFFFFFFFFFFFFFFFFFFFFFFFFFFFFFFFF AND PUSH4 0x68027E43 DUP4 PUSH1 0x40 MLOAD DUP3 PUSH4 0xFFFFFFFF AND PUSH1 0xE0 SHL DUP2 MSTORE PUSH1 0x4 ADD PUSH3 0x475 SWAP2 SWAP1 PUSH3 0x1320 JUMP JUMPDEST PUSH1 0x0 PUSH1 0x40 MLOAD DUP1 DUP4 SUB DUP2 PUSH1 0x0 DUP8 DUP1 EXTCODESIZE ISZERO DUP1 ISZERO PUSH3 0x490 JUMPI PUSH1 0x0 DUP1 REVERT JUMPDEST POP GAS CALL ISZERO DUP1 ISZERO PUSH3 0x4A5 JUMPI RETURNDATASIZE PUSH1 0x0 DUP1 RETURNDATACOPY RETURNDATASIZE PUSH1 0x0 REVERT JUMPDEST POP POP POP POP POP POP POP JUMP JUMPDEST DUP2 PUSH1 0x1 PUSH1 0x0 PUSH2 0x100 EXP DUP2 SLOAD DUP2 PUSH20 0xFFFFFFFFFFFFFFFFFFFFFFFFFFFFFFFFFFFFFFFF MUL NOT AND SWAP1 DUP4 PUSH20 0xFFFFFFFFFFFFFFFFFFFFFFFFFFFFFFFFFFFFFFFF AND MUL OR SWAP1 SSTORE POP DUP1 PUSH1 0x2 PUSH1 0x0 PUSH2 0x100 EXP DUP2 SLOAD DUP2 PUSH20 0xFFFFFFFFFFFFFFFFFFFFFFFFFFFFFFFFFFFFFFFF MUL NOT AND SWAP1 DUP4 PUSH20 0xFFFFFFFFFFFFFFFFFFFFFFFFFFFFFFFFFFFFFFFF AND MUL OR SWAP1 SSTORE POP POP POP JUMP JUMPDEST DUP6 CALLER PUSH20 0xFFFFFFFFFFFFFFFFFFFFFFFFFFFFFFFFFFFFFFFF AND PUSH20 0x9AEE2BB8906D3F3B1BB957765EB76A880BC47788 PUSH20 0xFFFFFFFFFFFFFFFFFFFFFFFFFFFFFFFFFFFFFFFF AND EQ PUSH3 0x582 JUMPI PUSH1 0x0 DUP1 REVERT JUMPDEST PUSH1 0x0 DUP6 DUP6 SWAP1 POP SWAP1 POP DUP4 DUP4 SWAP1 POP DUP2 EQ PUSH3 0x59A JUMPI PUSH1 0x0 DUP1 REVERT JUMPDEST PUSH1 0x0 JUMPDEST DUP2 DUP2 LT ISZERO PUSH3 0x674 JUMPI DUP9 PUSH20 0xFFFFFFFFFFFFFFFFFFFFFFFFFFFFFFFFFFFFFFFF AND PUSH4 0x259BD58A DUP10 DUP10 DUP10 DUP6 DUP2 DUP2 LT PUSH3 0x5D9 JUMPI PUSH3 0x5D8 PUSH3 0x13E9 JUMP JUMPDEST JUMPDEST SWAP1 POP PUSH1 0x20 MUL ADD CALLDATALOAD DUP9 DUP9 DUP7 DUP2 DUP2 LT PUSH3 0x5F6 JUMPI PUSH3 0x5F5 PUSH3 0x13E9 JUMP JUMPDEST JUMPDEST SWAP1 POP PUSH1 0x20 MUL DUP2 ADD SWAP1 PUSH3 0x60A SWAP2 SWAP1 PUSH3 0x141D JUMP JUMPDEST PUSH1 0x40 MLOAD DUP5 PUSH4 0xFFFFFFFF AND PUSH1 0xE0 SHL DUP2 MSTORE PUSH1 0x4 ADD PUSH3 0x62A SWAP4 SWAP3 SWAP2 SWAP1 PUSH3 0x162E JUMP JUMPDEST PUSH1 0x0 PUSH1 0x40 MLOAD DUP1 DUP4 SUB DUP2 PUSH1 0x0 DUP8 DUP1 EXTCODESIZE ISZERO DUP1 ISZERO PUSH3 0x645 JUMPI PUSH1 0x0 DUP1 REVERT JUMPDEST POP GAS CALL ISZERO DUP1 ISZERO PUSH3 0x65A JUMPI RETURNDATASIZE PUSH1 0x0 DUP1 RETURNDATACOPY RETURNDATASIZE PUSH1 0x0 REVERT JUMPDEST POP POP POP POP DUP1 DUP1 PUSH3 0x66B SWAP1 PUSH3 0x16A1 JUMP JUMPDEST SWAP2 POP POP PUSH3 0x59D JUMP JUMPDEST POP POP POP POP POP POP POP POP POP JUMP JUMPDEST DUP8 CALLER PUSH20 0xFFFFFFFFFFFFFFFFFFFFFFFFFFFFFFFFFFFFFFFF AND PUSH20 0x9AEE2BB8906D3F3B1BB957765EB76A880BC47788 PUSH20 0xFFFFFFFFFFFFFFFFFFFFFFFFFFFFFFFFFFFFFFFF AND EQ PUSH3 0x6CD JUMPI PUSH1 0x0 DUP1 REVERT JUMPDEST PUSH1 0x1 PUSH1 0x0 SWAP1 SLOAD SWAP1 PUSH2 0x100 EXP SWAP1 DIV PUSH20 0xFFFFFFFFFFFFFFFFFFFFFFFFFFFFFFFFFFFFFFFF AND PUSH20 0xFFFFFFFFFFFFFFFFFFFFFFFFFFFFFFFFFFFFFFFF AND PUSH4 0xC77E6F65 ADDRESS DUP7 DUP9 DUP8 DUP8 DUP13 PUSH1 0x40 MLOAD DUP8 PUSH4 0xFFFFFFFF AND PUSH1 0xE0 SHL DUP2 MSTORE PUSH1 0x4 ADD PUSH3 0x734 SWAP7 SWAP6 SWAP5 SWAP4 SWAP3 SWAP2 SWAP1 PUSH3 0x1850 JUMP JUMPDEST PUSH1 0x0 PUSH1 0x40 MLOAD DUP1 DUP4 SUB DUP2 PUSH1 0x0 DUP8 DUP1 EXTCODESIZE ISZERO DUP1 ISZERO PUSH3 0x74F JUMPI PUSH1 0x0 DUP1 REVERT JUMPDEST POP GAS CALL ISZERO DUP1 ISZERO PUSH3 0x764 JUMPI RETURNDATASIZE PUSH1 0x0 DUP1 RETURNDATACOPY RETURNDATASIZE PUSH1 0x0 REVERT JUMPDEST POP POP POP POP PUSH1 0x0 PUSH1 0x2 PUSH1 0x0 SWAP1 SLOAD SWAP1 PUSH2 0x100 EXP SWAP1 DIV PUSH20 0xFFFFFFFFFFFFFFFFFFFFFFFFFFFFFFFFFFFFFFFF AND PUSH20 0xFFFFFFFFFFFFFFFFFFFFFFFFFFFFFFFFFFFFFFFF AND PUSH4 0x939F3130 DUP7 PUSH1 0x40 MLOAD DUP3 PUSH4 0xFFFFFFFF AND PUSH1 0xE0 SHL DUP2 MSTORE PUSH1 0x4 ADD PUSH3 0x7C7 SWAP2 SWAP1 PUSH3 0x18D2 JUMP JUMPDEST PUSH1 0x20 PUSH1 0x40 MLOAD DUP1 DUP4 SUB DUP2 DUP7 DUP1 EXTCODESIZE ISZERO DUP1 ISZERO PUSH3 0x7E0 JUMPI PUSH1 0x0 DUP1 REVERT JUMPDEST POP GAS STATICCALL ISZERO DUP1 ISZERO PUSH3 0x7F5 JUMPI RETURNDATASIZE PUSH1 0x0 DUP1 RETURNDATACOPY RETURNDATASIZE PUSH1 0x0 REVERT JUMPDEST POP POP POP POP PUSH1 0x40 MLOAD RETURNDATASIZE PUSH1 0x1F NOT PUSH1 0x1F DUP3 ADD AND DUP3 ADD DUP1 PUSH1 0x40 MSTORE POP DUP2 ADD SWAP1 PUSH3 0x81B SWAP2 SWAP1 PUSH3 0x190D JUMP JUMPDEST SWAP1 POP DUP10 PUSH1 0x0 DUP1 DUP4 PUSH20 0xFFFFFFFFFFFFFFFFFFFFFFFFFFFFFFFFFFFFFFFF AND PUSH20 0xFFFFFFFFFFFFFFFFFFFFFFFFFFFFFFFFFFFFFFFF AND DUP2 MSTORE PUSH1 0x20 ADD SWAP1 DUP2 MSTORE PUSH1 0x20 ADD PUSH1 0x0 KECCAK256 PUSH1 0x0 PUSH2 0x100 EXP DUP2 SLOAD DUP2 PUSH20 0xFFFFFFFFFFFFFFFFFFFFFFFFFFFFFFFFFFFFFFFF MUL NOT AND SWAP1 DUP4 PUSH20 0xFFFFFFFFFFFFFFFFFFFFFFFFFFFFFFFFFFFFFFFF AND MUL OR SWAP1 SSTORE POP PUSH1 0x2 PUSH1 0x0 SWAP1 SLOAD SWAP1 PUSH2 0x100 EXP SWAP1 DIV PUSH20 0xFFFFFFFFFFFFFFFFFFFFFFFFFFFFFFFFFFFFFFFF AND DUP2 DUP8 PUSH1 0x40 MLOAD PUSH3 0x8CD SWAP1 PUSH3 0xB6F JUMP JUMPDEST PUSH3 0x8DB SWAP4 SWAP3 SWAP2 SWAP1 PUSH3 0x135F JUMP JUMPDEST PUSH1 0x40 MLOAD DUP1 SWAP2 SUB SWAP1 PUSH1 0x0 CREATE DUP1 ISZERO DUP1 ISZERO PUSH3 0x8F8 JUMPI RETURNDATASIZE PUSH1 0x0 DUP1 RETURNDATACOPY RETURNDATASIZE PUSH1 0x0 REVERT JUMPDEST POP PUSH1 0x3 PUSH1 0x0 PUSH2 0x100 EXP DUP2 SLOAD DUP2 PUSH20 0xFFFFFFFFFFFFFFFFFFFFFFFFFFFFFFFFFFFFFFFF MUL NOT AND SWAP1 DUP4 PUSH20 0xFFFFFFFFFFFFFFFFFFFFFFFFFFFFFFFFFFFFFFFF AND MUL OR SWAP1 SSTORE POP PUSH1 0x0 PUSH1 0x3 PUSH1 0x0 SWAP1 SLOAD SWAP1 PUSH2 0x100 EXP SWAP1 DIV PUSH20 0xFFFFFFFFFFFFFFFFFFFFFFFFFFFFFFFFFFFFFFFF AND SWAP1 POP DUP2 PUSH20 0xFFFFFFFFFFFFFFFFFFFFFFFFFFFFFFFFFFFFFFFF AND PUSH4 0xDEAAF241 DUP9 DUP13 DUP5 DUP14 PUSH1 0x40 MLOAD DUP6 PUSH4 0xFFFFFFFF AND PUSH1 0xE0 SHL DUP2 MSTORE PUSH1 0x4 ADD PUSH3 0x9A1 SWAP5 SWAP4 SWAP3 SWAP2 SWAP1 PUSH3 0x139C JUMP JUMPDEST PUSH1 0x0 PUSH1 0x40 MLOAD DUP1 DUP4 SUB DUP2 PUSH1 0x0 DUP8 DUP1 EXTCODESIZE ISZERO DUP1 ISZERO PUSH3 0x9BC JUMPI PUSH1 0x0 DUP1 REVERT JUMPDEST POP GAS CALL ISZERO DUP1 ISZERO PUSH3 0x9D1 JUMPI RETURNDATASIZE PUSH1 0x0 DUP1 RETURNDATACOPY RETURNDATASIZE PUSH1 0x0 REVERT JUMPDEST POP POP POP POP POP POP POP POP POP POP POP POP POP POP POP JUMP JUMPDEST DUP5 CALLER PUSH20 0xFFFFFFFFFFFFFFFFFFFFFFFFFFFFFFFFFFFFFFFF AND PUSH20 0x9AEE2BB8906D3F3B1BB957765EB76A880BC47788 PUSH20 0xFFFFFFFFFFFFFFFFFFFFFFFFFFFFFFFFFFFFFFFF AND EQ PUSH3 0xA30 JUMPI PUSH1 0x0 DUP1 REVERT JUMPDEST DUP6 PUSH20 0xFFFFFFFFFFFFFFFFFFFFFFFFFFFFFFFFFFFFFFFF AND PUSH4 0x695C27C2 DUP7 DUP7 DUP7 DUP7 PUSH1 0x40 MLOAD DUP6 PUSH4 0xFFFFFFFF AND PUSH1 0xE0 SHL DUP2 MSTORE PUSH1 0x4 ADD PUSH3 0xA71 SWAP5 SWAP4 SWAP3 SWAP2 SWAP1 PUSH3 0x1950 JUMP JUMPDEST PUSH1 0x0 PUSH1 0x40 MLOAD DUP1 DUP4 SUB DUP2 PUSH1 0x0 DUP8 DUP1 EXTCODESIZE ISZERO DUP1 ISZERO PUSH3 0xA8C JUMPI PUSH1 0x0 DUP1 REVERT JUMPDEST POP GAS CALL ISZERO DUP1 ISZERO PUSH3 0xAA1 JUMPI RETURNDATASIZE PUSH1 0x0 DUP1 RETURNDATACOPY RETURNDATASIZE PUSH1 0x0 REVERT JUMPDEST POP POP POP POP POP POP POP POP POP POP JUMP JUMPDEST DUP2 CALLER PUSH20 0xFFFFFFFFFFFFFFFFFFFFFFFFFFFFFFFFFFFFFFFF AND PUSH20 0x9AEE2BB8906D3F3B1BB957765EB76A880BC47788 PUSH20 0xFFFFFFFFFFFFFFFFFFFFFFFFFFFFFFFFFFFFFFFF AND EQ PUSH3 0xAFB JUMPI PUSH1 0x0 DUP1 REVERT JUMPDEST DUP3 PUSH20 0xFFFFFFFFFFFFFFFFFFFFFFFFFFFFFFFFFFFFFFFF AND PUSH4 0x42AF1884 DUP4 PUSH1 0x40 MLOAD DUP3 PUSH4 0xFFFFFFFF AND PUSH1 0xE0 SHL DUP2 MSTORE PUSH1 0x4 ADD PUSH3 0xB36 SWAP2 SWAP1 PUSH3 0x1320 JUMP JUMPDEST PUSH1 0x0 PUSH1 0x40 MLOAD DUP1 DUP4 SUB DUP2 PUSH1 0x0 DUP8 DUP1 EXTCODESIZE ISZERO DUP1 ISZERO PUSH3 0xB51 JUMPI PUSH1 0x0 DUP1 REVERT JUMPDEST POP GAS CALL ISZERO DUP1 ISZERO PUSH3 0xB66 JUMPI RETURNDATASIZE PUSH1 0x0 DUP1 RETURNDATACOPY RETURNDATASIZE PUSH1 0x0 REVERT JUMPDEST POP POP POP POP POP POP POP JUMP JUMPDEST PUSH2 0x93B DUP1 PUSH3 0x199E DUP4 CODECOPY ADD SWAP1 JUMP JUMPDEST PUSH1 0x0 PUSH1 0x40 MLOAD SWAP1 POP SWAP1 JUMP JUMPDEST PUSH1 0x0 DUP1 REVERT JUMPDEST PUSH1 0x0 DUP1 REVERT JUMPDEST PUSH1 0x0 PUSH20 0xFFFFFFFFFFFFFFFFFFFFFFFFFFFFFFFFFFFFFFFF DUP3 AND SWAP1 POP SWAP2 SWAP1 POP JUMP JUMPDEST PUSH1 0x0 PUSH3 0xBBE DUP3 PUSH3 0xB91 JUMP JUMPDEST SWAP1 POP SWAP2 SWAP1 POP JUMP JUMPDEST PUSH3 0xBD0 DUP2 PUSH3 0xBB1 JUMP JUMPDEST DUP2 EQ PUSH3 0xBDC JUMPI PUSH1 0x0 DUP1 REVERT JUMPDEST POP JUMP JUMPDEST PUSH1 0x0 DUP2 CALLDATALOAD SWAP1 POP PUSH3 0xBF0 DUP2 PUSH3 0xBC5 JUMP JUMPDEST SWAP3 SWAP2 POP POP JUMP JUMPDEST PUSH1 0x0 DUP2 SWAP1 POP SWAP2 SWAP1 POP JUMP JUMPDEST PUSH3 0xC0B DUP2 PUSH3 0xBF6 JUMP JUMPDEST DUP2 EQ PUSH3 0xC17 JUMPI PUSH1 0x0 DUP1 REVERT JUMPDEST POP JUMP JUMPDEST PUSH1 0x0 DUP2 CALLDATALOAD SWAP1 POP PUSH3 0xC2B DUP2 PUSH3 0xC00 JUMP JUMPDEST SWAP3 SWAP2 POP POP JUMP JUMPDEST PUSH1 0x0 DUP1 PUSH1 0x40 DUP4 DUP6 SUB SLT ISZERO PUSH3 0xC4B JUMPI PUSH3 0xC4A PUSH3 0xB87 JUMP JUMPDEST JUMPDEST PUSH1 0x0 PUSH3 0xC5B DUP6 DUP3 DUP7 ADD PUSH3 0xBDF JUMP JUMPDEST SWAP3 POP POP PUSH1 0x20 PUSH3 0xC6E DUP6 DUP3 DUP7 ADD PUSH3 0xC1A JUMP JUMPDEST SWAP2 POP POP SWAP3 POP SWAP3 SWAP1 POP JUMP JUMPDEST PUSH1 0x0 DUP2 SWAP1 POP SWAP2 SWAP1 POP JUMP JUMPDEST PUSH3 0xC8D DUP2 PUSH3 0xC78 JUMP JUMPDEST DUP2 EQ PUSH3 0xC99 JUMPI PUSH1 0x0 DUP1 REVERT JUMPDEST POP JUMP JUMPDEST PUSH1 0x0 DUP2 CALLDATALOAD SWAP1 POP PUSH3 0xCAD DUP2 PUSH3 0xC82 JUMP JUMPDEST SWAP3 SWAP2 POP POP JUMP JUMPDEST PUSH1 0x0 DUP1 PUSH1 0x0 DUP1 PUSH1 0x80 DUP6 DUP8 SUB SLT ISZERO PUSH3 0xCD0 JUMPI PUSH3 0xCCF PUSH3 0xB87 JUMP JUMPDEST JUMPDEST PUSH1 0x0 PUSH3 0xCE0 DUP8 DUP3 DUP9 ADD PUSH3 0xBDF JUMP JUMPDEST SWAP5 POP POP PUSH1 0x20 PUSH3 0xCF3 DUP8 DUP3 DUP9 ADD PUSH3 0xC9C JUMP JUMPDEST SWAP4 POP POP PUSH1 0x40 PUSH3 0xD06 DUP8 DUP3 DUP9 ADD PUSH3 0xBDF JUMP JUMPDEST SWAP3 POP POP PUSH1 0x60 PUSH3 0xD19 DUP8 DUP3 DUP9 ADD PUSH3 0xBDF JUMP JUMPDEST SWAP2 POP POP SWAP3 SWAP6 SWAP2 SWAP5 POP SWAP3 POP JUMP JUMPDEST PUSH1 0x0 DUP1 PUSH1 0x40 DUP4 DUP6 SUB SLT ISZERO PUSH3 0xD3F JUMPI PUSH3 0xD3E PUSH3 0xB87 JUMP JUMPDEST JUMPDEST PUSH1 0x0 PUSH3 0xD4F DUP6 DUP3 DUP7 ADD PUSH3 0xBDF JUMP JUMPDEST SWAP3 POP POP PUSH1 0x20 PUSH3 0xD62 DUP6 DUP3 DUP7 ADD PUSH3 0xBDF JUMP JUMPDEST SWAP2 POP POP SWAP3 POP SWAP3 SWAP1 POP JUMP JUMPDEST PUSH1 0x0 DUP1 REVERT JUMPDEST PUSH1 0x0 DUP1 REVERT JUMPDEST PUSH1 0x0 DUP1 REVERT JUMPDEST PUSH1 0x0 DUP1 DUP4 PUSH1 0x1F DUP5 ADD SLT PUSH3 0xD94 JUMPI PUSH3 0xD93 PUSH3 0xD6C JUMP JUMPDEST JUMPDEST DUP3 CALLDATALOAD SWAP1 POP PUSH8 0xFFFFFFFFFFFFFFFF DUP2 GT ISZERO PUSH3 0xDB4 JUMPI PUSH3 0xDB3 PUSH3 0xD71 JUMP JUMPDEST JUMPDEST PUSH1 0x20 DUP4 ADD SWAP2 POP DUP4 PUSH1 0x20 DUP3 MUL DUP4 ADD GT ISZERO PUSH3 0xDD3 JUMPI PUSH3 0xDD2 PUSH3 0xD76 JUMP JUMPDEST JUMPDEST SWAP3 POP SWAP3 SWAP1 POP JUMP JUMPDEST PUSH1 0x0 DUP1 DUP4 PUSH1 0x1F DUP5 ADD SLT PUSH3 0xDF3 JUMPI PUSH3 0xDF2 PUSH3 0xD6C JUMP JUMPDEST JUMPDEST DUP3 CALLDATALOAD SWAP1 POP PUSH8 0xFFFFFFFFFFFFFFFF DUP2 GT ISZERO PUSH3 0xE13 JUMPI PUSH3 0xE12 PUSH3 0xD71 JUMP JUMPDEST JUMPDEST PUSH1 0x20 DUP4 ADD SWAP2 POP DUP4 PUSH1 0x20 DUP3 MUL DUP4 ADD GT ISZERO PUSH3 0xE32 JUMPI PUSH3 0xE31 PUSH3 0xD76 JUMP JUMPDEST JUMPDEST SWAP3 POP SWAP3 SWAP1 POP JUMP JUMPDEST PUSH1 0x0 DUP1 PUSH1 0x0 DUP1 PUSH1 0x0 DUP1 PUSH1 0x80 DUP8 DUP10 SUB SLT ISZERO PUSH3 0xE59 JUMPI PUSH3 0xE58 PUSH3 0xB87 JUMP JUMPDEST JUMPDEST PUSH1 0x0 PUSH3 0xE69 DUP10 DUP3 DUP11 ADD PUSH3 0xBDF JUMP JUMPDEST SWAP7 POP POP PUSH1 0x20 PUSH3 0xE7C DUP10 DUP3 DUP11 ADD PUSH3 0xBDF JUMP JUMPDEST SWAP6 POP POP PUSH1 0x40 DUP8 ADD CALLDATALOAD PUSH8 0xFFFFFFFFFFFFFFFF DUP2 GT ISZERO PUSH3 0xEA0 JUMPI PUSH3 0xE9F PUSH3 0xB8C JUMP JUMPDEST JUMPDEST PUSH3 0xEAE DUP10 DUP3 DUP11 ADD PUSH3 0xD7B JUMP JUMPDEST SWAP5 POP SWAP5 POP POP PUSH1 0x60 DUP8 ADD CALLDATALOAD PUSH8 0xFFFFFFFFFFFFFFFF DUP2 GT ISZERO PUSH3 0xED4 JUMPI PUSH3 0xED3 PUSH3 0xB8C JUMP JUMPDEST JUMPDEST PUSH3 0xEE2 DUP10 DUP3 DUP11 ADD PUSH3 0xDDA JUMP JUMPDEST SWAP3 POP SWAP3 POP POP SWAP3 SWAP6 POP SWAP3 SWAP6 POP SWAP3 SWAP6 JUMP JUMPDEST PUSH1 0x0 DUP1 REVERT JUMPDEST PUSH1 0x0 PUSH1 0x1F NOT PUSH1 0x1F DUP4 ADD AND SWAP1 POP SWAP2 SWAP1 POP JUMP JUMPDEST PUSH32 0x4E487B7100000000000000000000000000000000000000000000000000000000 PUSH1 0x0 MSTORE PUSH1 0x41 PUSH1 0x4 MSTORE PUSH1 0x24 PUSH1 0x0 REVERT JUMPDEST PUSH3 0xF41 DUP3 PUSH3 0xEF6 JUMP JUMPDEST DUP2 ADD DUP2 DUP2 LT PUSH8 0xFFFFFFFFFFFFFFFF DUP3 GT OR ISZERO PUSH3 0xF63 JUMPI PUSH3 0xF62 PUSH3 0xF07 JUMP JUMPDEST JUMPDEST DUP1 PUSH1 0x40 MSTORE POP POP POP JUMP JUMPDEST PUSH1 0x0 PUSH3 0xF78 PUSH3 0xB7D JUMP JUMPDEST SWAP1 POP PUSH3 0xF86 DUP3 DUP3 PUSH3 0xF36 JUMP JUMPDEST SWAP2 SWAP1 POP JUMP JUMPDEST PUSH1 0x0 PUSH8 0xFFFFFFFFFFFFFFFF DUP3 GT ISZERO PUSH3 0xFA9 JUMPI PUSH3 0xFA8 PUSH3 0xF07 JUMP JUMPDEST JUMPDEST PUSH3 0xFB4 DUP3 PUSH3 0xEF6 JUMP JUMPDEST SWAP1 POP PUSH1 0x20 DUP2 ADD SWAP1 POP SWAP2 SWAP1 POP JUMP JUMPDEST DUP3 DUP2 DUP4 CALLDATACOPY PUSH1 0x0 DUP4 DUP4 ADD MSTORE POP POP POP JUMP JUMPDEST PUSH1 0x0 PUSH3 0xFE7 PUSH3 0xFE1 DUP5 PUSH3 0xF8B JUMP JUMPDEST PUSH3 0xF6C JUMP JUMPDEST SWAP1 POP DUP3 DUP2 MSTORE PUSH1 0x20 DUP2 ADD DUP5 DUP5 DUP5 ADD GT ISZERO PUSH3 0x1006 JUMPI PUSH3 0x1005 PUSH3 0xEF1 JUMP JUMPDEST JUMPDEST PUSH3 0x1013 DUP5 DUP3 DUP6 PUSH3 0xFC1 JUMP JUMPDEST POP SWAP4 SWAP3 POP POP POP JUMP JUMPDEST PUSH1 0x0 DUP3 PUSH1 0x1F DUP4 ADD SLT PUSH3 0x1033 JUMPI PUSH3 0x1032 PUSH3 0xD6C JUMP JUMPDEST JUMPDEST DUP2 CALLDATALOAD PUSH3 0x1045 DUP5 DUP3 PUSH1 0x20 DUP7 ADD PUSH3 0xFD0 JUMP JUMPDEST SWAP2 POP POP SWAP3 SWAP2 POP POP JUMP JUMPDEST PUSH1 0x0 PUSH8 0xFFFFFFFFFFFFFFFF DUP3 GT ISZERO PUSH3 0x106C JUMPI PUSH3 0x106B PUSH3 0xF07 JUMP JUMPDEST JUMPDEST PUSH1 0x20 DUP3 MUL SWAP1 POP PUSH1 0x20 DUP2 ADD SWAP1 POP SWAP2 SWAP1 POP JUMP JUMPDEST PUSH1 0x0 PUSH3 0x1094 PUSH3 0x108E DUP5 PUSH3 0x104E JUMP JUMPDEST PUSH3 0xF6C JUMP JUMPDEST SWAP1 POP DUP1 DUP4 DUP3 MSTORE PUSH1 0x20 DUP3 ADD SWAP1 POP PUSH1 0x20 DUP5 MUL DUP4 ADD DUP6 DUP2 GT ISZERO PUSH3 0x10BA JUMPI PUSH3 0x10B9 PUSH3 0xD76 JUMP JUMPDEST JUMPDEST DUP4 JUMPDEST DUP2 DUP2 LT ISZERO PUSH3 0x10E7 JUMPI DUP1 PUSH3 0x10D2 DUP9 DUP3 PUSH3 0xC9C JUMP JUMPDEST DUP5 MSTORE PUSH1 0x20 DUP5 ADD SWAP4 POP POP PUSH1 0x20 DUP2 ADD SWAP1 POP PUSH3 0x10BC JUMP JUMPDEST POP POP POP SWAP4 SWAP3 POP POP POP JUMP JUMPDEST PUSH1 0x0 DUP3 PUSH1 0x1F DUP4 ADD SLT PUSH3 0x1109 JUMPI PUSH3 0x1108 PUSH3 0xD6C JUMP JUMPDEST JUMPDEST DUP2 CALLDATALOAD PUSH3 0x111B DUP5 DUP3 PUSH1 0x20 DUP7 ADD PUSH3 0x107D JUMP JUMPDEST SWAP2 POP POP SWAP3 SWAP2 POP POP JUMP JUMPDEST PUSH1 0x0 DUP1 PUSH1 0x0 DUP1 PUSH1 0x0 DUP1 PUSH1 0x0 DUP1 PUSH2 0x100 DUP10 DUP12 SUB SLT ISZERO PUSH3 0x1148 JUMPI PUSH3 0x1147 PUSH3 0xB87 JUMP JUMPDEST JUMPDEST PUSH1 0x0 PUSH3 0x1158 DUP12 DUP3 DUP13 ADD PUSH3 0xBDF JUMP JUMPDEST SWAP9 POP POP PUSH1 0x20 PUSH3 0x116B DUP12 DUP3 DUP13 ADD PUSH3 0xBDF JUMP JUMPDEST SWAP8 POP POP PUSH1 0x40 PUSH3 0x117E DUP12 DUP3 DUP13 ADD PUSH3 0xBDF JUMP JUMPDEST SWAP7 POP POP PUSH1 0x60 PUSH3 0x1191 DUP12 DUP3 DUP13 ADD PUSH3 0xC1A JUMP JUMPDEST SWAP6 POP POP PUSH1 0x80 PUSH3 0x11A4 DUP12 DUP3 DUP13 ADD PUSH3 0xC9C JUMP JUMPDEST SWAP5 POP POP PUSH1 0xA0 DUP10 ADD CALLDATALOAD PUSH8 0xFFFFFFFFFFFFFFFF DUP2 GT ISZERO PUSH3 0x11C8 JUMPI PUSH3 0x11C7 PUSH3 0xB8C JUMP JUMPDEST JUMPDEST PUSH3 0x11D6 DUP12 DUP3 DUP13 ADD PUSH3 0x101B JUMP JUMPDEST SWAP4 POP POP PUSH1 0xC0 DUP10 ADD CALLDATALOAD PUSH8 0xFFFFFFFFFFFFFFFF DUP2 GT ISZERO PUSH3 0x11FA JUMPI PUSH3 0x11F9 PUSH3 0xB8C JUMP JUMPDEST JUMPDEST PUSH3 0x1208 DUP12 DUP3 DUP13 ADD PUSH3 0x101B JUMP JUMPDEST SWAP3 POP POP PUSH1 0xE0 DUP10 ADD CALLDATALOAD PUSH8 0xFFFFFFFFFFFFFFFF DUP2 GT ISZERO PUSH3 0x122C JUMPI PUSH3 0x122B PUSH3 0xB8C JUMP JUMPDEST JUMPDEST PUSH3 0x123A DUP12 DUP3 DUP13 ADD PUSH3 0x10F1 JUMP JUMPDEST SWAP2 POP POP SWAP3 SWAP6 SWAP9 POP SWAP3 SWAP6 SWAP9 SWAP1 SWAP4 SWAP7 POP JUMP JUMPDEST PUSH1 0x0 DUP2 ISZERO ISZERO SWAP1 POP SWAP2 SWAP1 POP JUMP JUMPDEST PUSH3 0x1261 DUP2 PUSH3 0x124A JUMP JUMPDEST DUP2 EQ PUSH3 0x126D JUMPI PUSH1 0x0 DUP1 REVERT JUMPDEST POP JUMP JUMPDEST PUSH1 0x0 DUP2 CALLDATALOAD SWAP1 POP PUSH3 0x1281 DUP2 PUSH3 0x1256 JUMP JUMPDEST SWAP3 SWAP2 POP POP JUMP JUMPDEST PUSH1 0x0 DUP1 PUSH1 0x0 DUP1 PUSH1 0x0 PUSH1 0xA0 DUP7 DUP9 SUB SLT ISZERO PUSH3 0x12A6 JUMPI PUSH3 0x12A5 PUSH3 0xB87 JUMP JUMPDEST JUMPDEST PUSH1 0x0 PUSH3 0x12B6 DUP9 DUP3 DUP10 ADD PUSH3 0xBDF JUMP JUMPDEST SWAP6 POP POP PUSH1 0x20 PUSH3 0x12C9 DUP9 DUP3 DUP10 ADD PUSH3 0xC1A JUMP JUMPDEST SWAP5 POP POP PUSH1 0x40 PUSH3 0x12DC DUP9 DUP3 DUP10 ADD PUSH3 0xC1A JUMP JUMPDEST SWAP4 POP POP PUSH1 0x60 PUSH3 0x12EF DUP9 DUP3 DUP10 ADD PUSH3 0xC1A JUMP JUMPDEST SWAP3 POP POP PUSH1 0x80 PUSH3 0x1302 DUP9 DUP3 DUP10 ADD PUSH3 0x1270 JUMP JUMPDEST SWAP2 POP POP SWAP3 SWAP6 POP SWAP3 SWAP6 SWAP1 SWAP4 POP JUMP JUMPDEST PUSH3 0x131A DUP2 PUSH3 0xBF6 JUMP JUMPDEST DUP3 MSTORE POP POP JUMP JUMPDEST PUSH1 0x0 PUSH1 0x20 DUP3 ADD SWAP1 POP PUSH3 0x1337 PUSH1 0x0 DUP4 ADD DUP5 PUSH3 0x130F JUMP JUMPDEST SWAP3 SWAP2 POP POP JUMP JUMPDEST PUSH3 0x1348 DUP2 PUSH3 0xBB1 JUMP JUMPDEST DUP3 MSTORE POP POP JUMP JUMPDEST PUSH3 0x1359 DUP2 PUSH3 0xC78 JUMP JUMPDEST DUP3 MSTORE POP POP JUMP JUMPDEST PUSH1 0x0 PUSH1 0x60 DUP3 ADD SWAP1 POP PUSH3 0x1376 PUSH1 0x0 DUP4 ADD DUP7 PUSH3 0x133D JUMP JUMPDEST PUSH3 0x1385 PUSH1 0x20 DUP4 ADD DUP6 PUSH3 0x133D JUMP JUMPDEST PUSH3 0x1394 PUSH1 0x40 DUP4 ADD DUP5 PUSH3 0x134E JUMP JUMPDEST SWAP5 SWAP4 POP POP POP POP JUMP JUMPDEST PUSH1 0x0 PUSH1 0x80 DUP3 ADD SWAP1 POP PUSH3 0x13B3 PUSH1 0x0 DUP4 ADD DUP8 PUSH3 0x134E JUMP JUMPDEST PUSH3 0x13C2 PUSH1 0x20 DUP4 ADD DUP7 PUSH3 0x133D JUMP JUMPDEST PUSH3 0x13D1 PUSH1 0x40 DUP4 ADD DUP6 PUSH3 0x133D JUMP JUMPDEST PUSH3 0x13E0 PUSH1 0x60 DUP4 ADD DUP5 PUSH3 0x133D JUMP JUMPDEST SWAP6 SWAP5 POP POP POP POP POP JUMP JUMPDEST PUSH32 0x4E487B7100000000000000000000000000000000000000000000000000000000 PUSH1 0x0 MSTORE PUSH1 0x32 PUSH1 0x4 MSTORE PUSH1 0x24 PUSH1 0x0 REVERT JUMPDEST PUSH1 0x0 DUP1 REVERT JUMPDEST PUSH1 0x0 DUP3 CALLDATALOAD PUSH1 0x1 PUSH1 0x80 SUB DUP4 CALLDATASIZE SUB SUB DUP2 SLT PUSH3 0x143C JUMPI PUSH3 0x143B PUSH3 0x1418 JUMP JUMPDEST JUMPDEST DUP1 DUP4 ADD SWAP2 POP POP SWAP3 SWAP2 POP POP JUMP JUMPDEST PUSH1 0x0 DUP1 REVERT JUMPDEST PUSH1 0x0 DUP1 REVERT JUMPDEST PUSH1 0x0 DUP1 REVERT JUMPDEST PUSH1 0x0 DUP1 DUP4 CALLDATALOAD PUSH1 0x1 PUSH1 0x20 SUB DUP5 CALLDATASIZE SUB SUB DUP2 SLT PUSH3 0x1477 JUMPI PUSH3 0x1476 PUSH3 0x1452 JUMP JUMPDEST JUMPDEST DUP4 DUP2 ADD SWAP3 POP DUP3 CALLDATALOAD SWAP2 POP PUSH1 0x20 DUP4 ADD SWAP3 POP PUSH8 0xFFFFFFFFFFFFFFFF DUP3 GT ISZERO PUSH3 0x14A2 JUMPI PUSH3 0x14A1 PUSH3 0x1448 JUMP JUMPDEST JUMPDEST PUSH1 0x20 DUP3 MUL CALLDATASIZE SUB DUP5 SGT ISZERO PUSH3 0x14BB JUMPI PUSH3 0x14BA PUSH3 0x144D JUMP JUMPDEST JUMPDEST POP SWAP3 POP SWAP3 SWAP1 POP JUMP JUMPDEST PUSH1 0x0 DUP3 DUP3 MSTORE PUSH1 0x20 DUP3 ADD SWAP1 POP SWAP3 SWAP2 POP POP JUMP JUMPDEST PUSH1 0x0 DUP1 REVERT JUMPDEST PUSH1 0x0 PUSH3 0x14E7 DUP4 DUP6 PUSH3 0x14C3 JUMP JUMPDEST SWAP4 POP PUSH32 0x7FFFFFFFFFFFFFFFFFFFFFFFFFFFFFFFFFFFFFFFFFFFFFFFFFFFFFFFFFFFFFF DUP4 GT ISZERO PUSH3 0x151D JUMPI PUSH3 0x151C PUSH3 0x14D4 JUMP JUMPDEST JUMPDEST PUSH1 0x20 DUP4 MUL SWAP3 POP PUSH3 0x1530 DUP4 DUP6 DUP5 PUSH3 0xFC1 JUMP JUMPDEST DUP3 DUP5 ADD SWAP1 POP SWAP4 SWAP3 POP POP POP JUMP JUMPDEST PUSH1 0x0 PUSH3 0x154D PUSH1 0x20 DUP5 ADD DUP5 PUSH3 0xC1A JUMP JUMPDEST SWAP1 POP SWAP3 SWAP2 POP POP JUMP JUMPDEST PUSH3 0x1560 DUP2 PUSH3 0xBF6 JUMP JUMPDEST DUP3 MSTORE POP POP JUMP JUMPDEST PUSH1 0x0 PUSH3 0x1577 PUSH1 0x20 DUP5 ADD DUP5 PUSH3 0x1270 JUMP JUMPDEST SWAP1 POP SWAP3 SWAP2 POP POP JUMP JUMPDEST PUSH3 0x158A DUP2 PUSH3 0x124A JUMP JUMPDEST DUP3 MSTORE POP POP JUMP JUMPDEST PUSH1 0x0 PUSH1 0x80 DUP4 ADD PUSH3 0x15A5 PUSH1 0x0 DUP5 ADD DUP5 PUSH3 0x1457 JUMP JUMPDEST DUP6 DUP4 SUB PUSH1 0x0 DUP8 ADD MSTORE PUSH3 0x15BA DUP4 DUP3 DUP5 PUSH3 0x14D9 JUMP JUMPDEST SWAP3 POP POP POP PUSH3 0x15CD PUSH1 0x20 DUP5 ADD DUP5 PUSH3 0x1457 JUMP JUMPDEST DUP6 DUP4 SUB PUSH1 0x20 DUP8 ADD MSTORE PUSH3 0x15E2 DUP4 DUP3 DUP5 PUSH3 0x14D9 JUMP JUMPDEST SWAP3 POP POP POP PUSH3 0x15F5 PUSH1 0x40 DUP5 ADD DUP5 PUSH3 0x153C JUMP JUMPDEST PUSH3 0x1604 PUSH1 0x40 DUP7 ADD DUP3 PUSH3 0x1555 JUMP JUMPDEST POP PUSH3 0x1614 PUSH1 0x60 DUP5 ADD DUP5 PUSH3 0x1566 JUMP JUMPDEST PUSH3 0x1623 PUSH1 0x60 DUP7 ADD DUP3 PUSH3 0x157F JUMP JUMPDEST POP DUP1 SWAP2 POP POP SWAP3 SWAP2 POP POP JUMP JUMPDEST PUSH1 0x0 PUSH1 0x60 DUP3 ADD SWAP1 POP PUSH3 0x1645 PUSH1 0x0 DUP4 ADD DUP7 PUSH3 0x133D JUMP JUMPDEST PUSH3 0x1654 PUSH1 0x20 DUP4 ADD DUP6 PUSH3 0x134E JUMP JUMPDEST DUP2 DUP2 SUB PUSH1 0x40 DUP4 ADD MSTORE PUSH3 0x1668 DUP2 DUP5 PUSH3 0x1590 JUMP JUMPDEST SWAP1 POP SWAP5 SWAP4 POP POP POP POP JUMP JUMPDEST PUSH32 0x4E487B7100000000000000000000000000000000000000000000000000000000 PUSH1 0x0 MSTORE PUSH1 0x11 PUSH1 0x4 MSTORE PUSH1 0x24 PUSH1 0x0 REVERT JUMPDEST PUSH1 0x0 PUSH3 0x16AE DUP3 PUSH3 0xBF6 JUMP JUMPDEST SWAP2 POP PUSH32 0xFFFFFFFFFFFFFFFFFFFFFFFFFFFFFFFFFFFFFFFFFFFFFFFFFFFFFFFFFFFFFFFF DUP3 EQ ISZERO PUSH3 0x16E4 JUMPI PUSH3 0x16E3 PUSH3 0x1672 JUMP JUMPDEST JUMPDEST PUSH1 0x1 DUP3 ADD SWAP1 POP SWAP2 SWAP1 POP JUMP JUMPDEST PUSH1 0x0 DUP2 MLOAD SWAP1 POP SWAP2 SWAP1 POP JUMP JUMPDEST PUSH1 0x0 DUP3 DUP3 MSTORE PUSH1 0x20 DUP3 ADD SWAP1 POP SWAP3 SWAP2 POP POP JUMP JUMPDEST PUSH1 0x0 JUMPDEST DUP4 DUP2 LT ISZERO PUSH3 0x172B JUMPI DUP1 DUP3 ADD MLOAD DUP2 DUP5 ADD MSTORE PUSH1 0x20 DUP2 ADD SWAP1 POP PUSH3 0x170E JUMP JUMPDEST DUP4 DUP2 GT ISZERO PUSH3 0x173B JUMPI PUSH1 0x0 DUP5 DUP5 ADD MSTORE JUMPDEST POP POP POP POP JUMP JUMPDEST PUSH1 0x0 PUSH3 0x174E DUP3 PUSH3 0x16EF JUMP JUMPDEST PUSH3 0x175A DUP2 DUP6 PUSH3 0x16FA JUMP JUMPDEST SWAP4 POP PUSH3 0x176C DUP2 DUP6 PUSH1 0x20 DUP7 ADD PUSH3 0x170B JUMP JUMPDEST PUSH3 0x1777 DUP2 PUSH3 0xEF6 JUMP JUMPDEST DUP5 ADD SWAP2 POP POP SWAP3 SWAP2 POP POP JUMP JUMPDEST PUSH1 0x0 DUP2 MLOAD SWAP1 POP SWAP2 SWAP1 POP JUMP JUMPDEST PUSH1 0x0 DUP3 DUP3 MSTORE PUSH1 0x20 DUP3 ADD SWAP1 POP SWAP3 SWAP2 POP POP JUMP JUMPDEST PUSH1 0x0 DUP2 SWAP1 POP PUSH1 0x20 DUP3 ADD SWAP1 POP SWAP2 SWAP1 POP JUMP JUMPDEST PUSH3 0x17B9 DUP2 PUSH3 0xC78 JUMP JUMPDEST DUP3 MSTORE POP POP JUMP JUMPDEST PUSH1 0x0 PUSH3 0x17CD DUP4 DUP4 PUSH3 0x17AE JUMP JUMPDEST PUSH1 0x20 DUP4 ADD SWAP1 POP SWAP3 SWAP2 POP POP JUMP JUMPDEST PUSH1 0x0 PUSH1 0x20 DUP3 ADD SWAP1 POP SWAP2 SWAP1 POP JUMP JUMPDEST PUSH1 0x0 PUSH3 0x17F3 DUP3 PUSH3 0x1782 JUMP JUMPDEST PUSH3 0x17FF DUP2 DUP6 PUSH3 0x178D JUMP JUMPDEST SWAP4 POP PUSH3 0x180C DUP4 PUSH3 0x179E JUMP JUMPDEST DUP1 PUSH1 0x0 JUMPDEST DUP4 DUP2 LT ISZERO PUSH3 0x1843 JUMPI DUP2 MLOAD PUSH3 0x1827 DUP9 DUP3 PUSH3 0x17BF JUMP JUMPDEST SWAP8 POP PUSH3 0x1834 DUP4 PUSH3 0x17D9 JUMP JUMPDEST SWAP3 POP POP PUSH1 0x1 DUP2 ADD SWAP1 POP PUSH3 0x1810 JUMP JUMPDEST POP DUP6 SWAP4 POP POP POP POP SWAP3 SWAP2 POP POP JUMP JUMPDEST PUSH1 0x0 PUSH1 0xC0 DUP3 ADD SWAP1 POP PUSH3 0x1867 PUSH1 0x0 DUP4 ADD DUP10 PUSH3 0x133D JUMP JUMPDEST DUP2 DUP2 SUB PUSH1 0x20 DUP4 ADD MSTORE PUSH3 0x187B DUP2 DUP9 PUSH3 0x1741 JUMP JUMPDEST SWAP1 POP PUSH3 0x188C PUSH1 0x40 DUP4 ADD DUP8 PUSH3 0x134E JUMP JUMPDEST DUP2 DUP2 SUB PUSH1 0x60 DUP4 ADD MSTORE PUSH3 0x18A0 DUP2 DUP7 PUSH3 0x1741 JUMP JUMPDEST SWAP1 POP DUP2 DUP2 SUB PUSH1 0x80 DUP4 ADD MSTORE PUSH3 0x18B6 DUP2 DUP6 PUSH3 0x17E6 JUMP JUMPDEST SWAP1 POP PUSH3 0x18C7 PUSH1 0xA0 DUP4 ADD DUP5 PUSH3 0x130F JUMP JUMPDEST SWAP8 SWAP7 POP POP POP POP POP POP POP JUMP JUMPDEST PUSH1 0x0 PUSH1 0x20 DUP3 ADD SWAP1 POP DUP2 DUP2 SUB PUSH1 0x0 DUP4 ADD MSTORE PUSH3 0x18EE DUP2 DUP5 PUSH3 0x1741 JUMP JUMPDEST SWAP1 POP SWAP3 SWAP2 POP POP JUMP JUMPDEST PUSH1 0x0 DUP2 MLOAD SWAP1 POP PUSH3 0x1907 DUP2 PUSH3 0xBC5 JUMP JUMPDEST SWAP3 SWAP2 POP POP JUMP JUMPDEST PUSH1 0x0 PUSH1 0x20 DUP3 DUP5 SUB SLT ISZERO PUSH3 0x1926 JUMPI PUSH3 0x1925 PUSH3 0xB87 JUMP JUMPDEST JUMPDEST PUSH1 0x0 PUSH3 0x1936 DUP5 DUP3 DUP6 ADD PUSH3 0x18F6 JUMP JUMPDEST SWAP2 POP POP SWAP3 SWAP2 POP POP JUMP JUMPDEST PUSH3 0x194A DUP2 PUSH3 0x124A JUMP JUMPDEST DUP3 MSTORE POP POP JUMP JUMPDEST PUSH1 0x0 PUSH1 0x80 DUP3 ADD SWAP1 POP PUSH3 0x1967 PUSH1 0x0 DUP4 ADD DUP8 PUSH3 0x130F JUMP JUMPDEST PUSH3 0x1976 PUSH1 0x20 DUP4 ADD DUP7 PUSH3 0x130F JUMP JUMPDEST PUSH3 0x1985 PUSH1 0x40 DUP4 ADD DUP6 PUSH3 0x130F JUMP JUMPDEST PUSH3 0x1994 PUSH1 0x60 DUP4 ADD DUP5 PUSH3 0x193F JUMP JUMPDEST SWAP6 SWAP5 POP POP POP POP POP JUMP INVALID PUSH1 0x80 PUSH1 0x40 MSTORE CALLVALUE DUP1 ISZERO PUSH2 0x10 JUMPI PUSH1 0x0 DUP1 REVERT JUMPDEST POP PUSH1 0x40 MLOAD PUSH2 0x93B CODESIZE SUB DUP1 PUSH2 0x93B DUP4 CODECOPY DUP2 DUP2 ADD PUSH1 0x40 MSTORE DUP2 ADD SWAP1 PUSH2 0x32 SWAP2 SWAP1 PUSH2 0x15B JUMP JUMPDEST DUP3 PUSH1 0x0 DUP1 PUSH2 0x100 EXP DUP2 SLOAD DUP2 PUSH20 0xFFFFFFFFFFFFFFFFFFFFFFFFFFFFFFFFFFFFFFFF MUL NOT AND SWAP1 DUP4 PUSH20 0xFFFFFFFFFFFFFFFFFFFFFFFFFFFFFFFFFFFFFFFF AND MUL OR SWAP1 SSTORE POP DUP2 PUSH1 0x1 PUSH1 0x0 PUSH2 0x100 EXP DUP2 SLOAD DUP2 PUSH20 0xFFFFFFFFFFFFFFFFFFFFFFFFFFFFFFFFFFFFFFFF MUL NOT AND SWAP1 DUP4 PUSH20 0xFFFFFFFFFFFFFFFFFFFFFFFFFFFFFFFFFFFFFFFF AND MUL OR SWAP1 SSTORE POP DUP1 PUSH1 0x2 DUP2 SWAP1 SSTORE POP POP POP POP PUSH2 0x1AE JUMP JUMPDEST PUSH1 0x0 DUP1 REVERT JUMPDEST PUSH1 0x0 PUSH20 0xFFFFFFFFFFFFFFFFFFFFFFFFFFFFFFFFFFFFFFFF DUP3 AND SWAP1 POP SWAP2 SWAP1 POP JUMP JUMPDEST PUSH1 0x0 PUSH2 0xF2 DUP3 PUSH2 0xC7 JUMP JUMPDEST SWAP1 POP SWAP2 SWAP1 POP JUMP JUMPDEST PUSH2 0x102 DUP2 PUSH2 0xE7 JUMP JUMPDEST DUP2 EQ PUSH2 0x10D JUMPI PUSH1 0x0 DUP1 REVERT JUMPDEST POP JUMP JUMPDEST PUSH1 0x0 DUP2 MLOAD SWAP1 POP PUSH2 0x11F DUP2 PUSH2 0xF9 JUMP JUMPDEST SWAP3 SWAP2 POP POP JUMP JUMPDEST PUSH1 0x0 DUP2 SWAP1 POP SWAP2 SWAP1 POP JUMP JUMPDEST PUSH2 0x138 DUP2 PUSH2 0x125 JUMP JUMPDEST DUP2 EQ PUSH2 0x143 JUMPI PUSH1 0x0 DUP1 REVERT JUMPDEST POP JUMP JUMPDEST PUSH1 0x0 DUP2 MLOAD SWAP1 POP PUSH2 0x155 DUP2 PUSH2 0x12F JUMP JUMPDEST SWAP3 SWAP2 POP POP JUMP JUMPDEST PUSH1 0x0 DUP1 PUSH1 0x0 PUSH1 0x60 DUP5 DUP7 SUB SLT ISZERO PUSH2 0x174 JUMPI PUSH2 0x173 PUSH2 0xC2 JUMP JUMPDEST JUMPDEST PUSH1 0x0 PUSH2 0x182 DUP7 DUP3 DUP8 ADD PUSH2 0x110 JUMP JUMPDEST SWAP4 POP POP PUSH1 0x20 PUSH2 0x193 DUP7 DUP3 DUP8 ADD PUSH2 0x110 JUMP JUMPDEST SWAP3 POP POP PUSH1 0x40 PUSH2 0x1A4 DUP7 DUP3 DUP8 ADD PUSH2 0x146 JUMP JUMPDEST SWAP2 POP POP SWAP3 POP SWAP3 POP SWAP3 JUMP JUMPDEST PUSH2 0x77E DUP1 PUSH2 0x1BD PUSH1 0x0 CODECOPY PUSH1 0x0 RETURN INVALID PUSH1 0x80 PUSH1 0x40 MSTORE CALLVALUE DUP1 ISZERO PUSH2 0x10 JUMPI PUSH1 0x0 DUP1 REVERT JUMPDEST POP PUSH1 0x4 CALLDATASIZE LT PUSH2 0x88 JUMPI PUSH1 0x0 CALLDATALOAD PUSH1 0xE0 SHR DUP1 PUSH4 0x60A56B3A GT PUSH2 0x5B JUMPI DUP1 PUSH4 0x60A56B3A EQ PUSH2 0x105 JUMPI DUP1 PUSH4 0x6CCCBE5E EQ PUSH2 0x121 JUMPI DUP1 PUSH4 0x8F94B8C2 EQ PUSH2 0x13F JUMPI DUP1 PUSH4 0xBF85F263 EQ PUSH2 0x15B JUMPI PUSH2 0x88 JUMP JUMPDEST DUP1 PUSH4 0x186BC549 EQ PUSH2 0x8D JUMPI DUP1 PUSH4 0x4575D5C5 EQ PUSH2 0xAB JUMPI DUP1 PUSH4 0x4B1D123B EQ PUSH2 0xC9 JUMPI DUP1 PUSH4 0x4F15FC06 EQ PUSH2 0xE7 JUMPI JUMPDEST PUSH1 0x0 DUP1 REVERT JUMPDEST PUSH2 0x95 PUSH2 0x177 JUMP JUMPDEST PUSH1 0x40 MLOAD PUSH2 0xA2 SWAP2 SWAP1 PUSH2 0x337 JUMP JUMPDEST PUSH1 0x40 MLOAD DUP1 SWAP2 SUB SWAP1 RETURN JUMPDEST PUSH2 0xB3 PUSH2 0x181 JUMP JUMPDEST PUSH1 0x40 MLOAD PUSH2 0xC0 SWAP2 SWAP1 PUSH2 0x36B JUMP JUMPDEST PUSH1 0x40 MLOAD DUP1 SWAP2 SUB SWAP1 RETURN JUMPDEST PUSH2 0xD1 PUSH2 0x18B JUMP JUMPDEST PUSH1 0x40 MLOAD PUSH2 0xDE SWAP2 SWAP1 PUSH2 0x337 JUMP JUMPDEST PUSH1 0x40 MLOAD DUP1 SWAP2 SUB SWAP1 RETURN JUMPDEST PUSH2 0xEF PUSH2 0x1A7 JUMP JUMPDEST PUSH1 0x40 MLOAD PUSH2 0xFC SWAP2 SWAP1 PUSH2 0x337 JUMP JUMPDEST PUSH1 0x40 MLOAD DUP1 SWAP2 SUB SWAP1 RETURN JUMPDEST PUSH2 0x11F PUSH1 0x4 DUP1 CALLDATASIZE SUB DUP2 ADD SWAP1 PUSH2 0x11A SWAP2 SWAP1 PUSH2 0x415 JUMP JUMPDEST PUSH2 0x1B1 JUMP JUMPDEST STOP JUMPDEST PUSH2 0x129 PUSH2 0x2D4 JUMP JUMPDEST PUSH1 0x40 MLOAD PUSH2 0x136 SWAP2 SWAP1 PUSH2 0x337 JUMP JUMPDEST PUSH1 0x40 MLOAD DUP1 SWAP2 SUB SWAP1 RETURN JUMPDEST PUSH2 0x159 PUSH1 0x4 DUP1 CALLDATASIZE SUB DUP2 ADD SWAP1 PUSH2 0x154 SWAP2 SWAP1 PUSH2 0x468 JUMP JUMPDEST PUSH2 0x2F8 JUMP JUMPDEST STOP JUMPDEST PUSH2 0x175 PUSH1 0x4 DUP1 CALLDATASIZE SUB DUP2 ADD SWAP1 PUSH2 0x170 SWAP2 SWAP1 PUSH2 0x468 JUMP JUMPDEST PUSH2 0x302 JUMP JUMPDEST STOP JUMPDEST PUSH1 0x0 PUSH1 0x3 SLOAD SWAP1 POP SWAP1 JUMP JUMPDEST PUSH1 0x0 PUSH1 0x2 SLOAD SWAP1 POP SWAP1 JUMP JUMPDEST PUSH1 0x0 PUSH2 0x195 PUSH2 0x2D4 JUMP JUMPDEST PUSH1 0x3 SLOAD PUSH2 0x1A2 SWAP2 SWAP1 PUSH2 0x4C4 JUMP JUMPDEST SWAP1 POP SWAP1 JUMP JUMPDEST PUSH1 0x0 PUSH1 0x4 SLOAD SWAP1 POP SWAP1 JUMP JUMPDEST PUSH1 0x1 PUSH1 0x0 SWAP1 SLOAD SWAP1 PUSH2 0x100 EXP SWAP1 DIV PUSH20 0xFFFFFFFFFFFFFFFFFFFFFFFFFFFFFFFFFFFFFFFF AND PUSH20 0xFFFFFFFFFFFFFFFFFFFFFFFFFFFFFFFFFFFFFFFF AND CALLER PUSH20 0xFFFFFFFFFFFFFFFFFFFFFFFFFFFFFFFFFFFFFFFF AND EQ PUSH2 0x241 JUMPI PUSH1 0x40 MLOAD PUSH32 0x8C379A000000000000000000000000000000000000000000000000000000000 DUP2 MSTORE PUSH1 0x4 ADD PUSH2 0x238 SWAP1 PUSH2 0x57B JUMP JUMPDEST PUSH1 0x40 MLOAD DUP1 SWAP2 SUB SWAP1 REVERT JUMPDEST DUP2 PUSH20 0xFFFFFFFFFFFFFFFFFFFFFFFFFFFFFFFFFFFFFFFF AND PUSH4 0xA9059CBB DUP5 DUP4 PUSH1 0x40 MLOAD DUP4 PUSH4 0xFFFFFFFF AND PUSH1 0xE0 SHL DUP2 MSTORE PUSH1 0x4 ADD PUSH2 0x27C SWAP3 SWAP2 SWAP1 PUSH2 0x5AA JUMP JUMPDEST PUSH1 0x20 PUSH1 0x40 MLOAD DUP1 DUP4 SUB DUP2 PUSH1 0x0 DUP8 DUP1 EXTCODESIZE ISZERO DUP1 ISZERO PUSH2 0x296 JUMPI PUSH1 0x0 DUP1 REVERT JUMPDEST POP GAS CALL ISZERO DUP1 ISZERO PUSH2 0x2AA JUMPI RETURNDATASIZE PUSH1 0x0 DUP1 RETURNDATACOPY RETURNDATASIZE PUSH1 0x0 REVERT JUMPDEST POP POP POP POP PUSH1 0x40 MLOAD RETURNDATASIZE PUSH1 0x1F NOT PUSH1 0x1F DUP3 ADD AND DUP3 ADD DUP1 PUSH1 0x40 MSTORE POP DUP2 ADD SWAP1 PUSH2 0x2CE SWAP2 SWAP1 PUSH2 0x60B JUMP JUMPDEST POP POP POP POP JUMP JUMPDEST PUSH1 0x0 PUSH2 0x2710 PUSH1 0x4 SLOAD PUSH1 0x3 SLOAD PUSH2 0x2E9 SWAP2 SWAP1 PUSH2 0x638 JUMP JUMPDEST PUSH2 0x2F3 SWAP2 SWAP1 PUSH2 0x6C1 JUMP JUMPDEST SWAP1 POP SWAP1 JUMP JUMPDEST DUP1 PUSH1 0x4 DUP2 SWAP1 SSTORE POP POP JUMP JUMPDEST DUP1 PUSH1 0x3 PUSH1 0x0 DUP3 DUP3 SLOAD PUSH2 0x314 SWAP2 SWAP1 PUSH2 0x6F2 JUMP JUMPDEST SWAP3 POP POP DUP2 SWAP1 SSTORE POP POP JUMP JUMPDEST PUSH1 0x0 DUP2 SWAP1 POP SWAP2 SWAP1 POP JUMP JUMPDEST PUSH2 0x331 DUP2 PUSH2 0x31E JUMP JUMPDEST DUP3 MSTORE POP POP JUMP JUMPDEST PUSH1 0x0 PUSH1 0x20 DUP3 ADD SWAP1 POP PUSH2 0x34C PUSH1 0x0 DUP4 ADD DUP5 PUSH2 0x328 JUMP JUMPDEST SWAP3 SWAP2 POP POP JUMP JUMPDEST PUSH1 0x0 DUP2 SWAP1 POP SWAP2 SWAP1 POP JUMP JUMPDEST PUSH2 0x365 DUP2 PUSH2 0x352 JUMP JUMPDEST DUP3 MSTORE POP POP JUMP JUMPDEST PUSH1 0x0 PUSH1 0x20 DUP3 ADD SWAP1 POP PUSH2 0x380 PUSH1 0x0 DUP4 ADD DUP5 PUSH2 0x35C JUMP JUMPDEST SWAP3 SWAP2 POP POP JUMP JUMPDEST PUSH1 0x0 DUP1 REVERT JUMPDEST PUSH1 0x0 PUSH20 0xFFFFFFFFFFFFFFFFFFFFFFFFFFFFFFFFFFFFFFFF DUP3 AND SWAP1 POP SWAP2 SWAP1 POP JUMP JUMPDEST PUSH1 0x0 PUSH2 0x3B6 DUP3 PUSH2 0x38B JUMP JUMPDEST SWAP1 POP SWAP2 SWAP1 POP JUMP JUMPDEST PUSH2 0x3C6 DUP2 PUSH2 0x3AB JUMP JUMPDEST DUP2 EQ PUSH2 0x3D1 JUMPI PUSH1 0x0 DUP1 REVERT JUMPDEST POP JUMP JUMPDEST PUSH1 0x0 DUP2 CALLDATALOAD SWAP1 POP PUSH2 0x3E3 DUP2 PUSH2 0x3BD JUMP JUMPDEST SWAP3 SWAP2 POP POP JUMP JUMPDEST PUSH2 0x3F2 DUP2 PUSH2 0x31E JUMP JUMPDEST DUP2 EQ PUSH2 0x3FD JUMPI PUSH1 0x0 DUP1 REVERT JUMPDEST POP JUMP JUMPDEST PUSH1 0x0 DUP2 CALLDATALOAD SWAP1 POP PUSH2 0x40F DUP2 PUSH2 0x3E9 JUMP JUMPDEST SWAP3 SWAP2 POP POP JUMP JUMPDEST PUSH1 0x0 DUP1 PUSH1 0x0 PUSH1 0x60 DUP5 DUP7 SUB SLT ISZERO PUSH2 0x42E JUMPI PUSH2 0x42D PUSH2 0x386 JUMP JUMPDEST JUMPDEST PUSH1 0x0 PUSH2 0x43C DUP7 DUP3 DUP8 ADD PUSH2 0x3D4 JUMP JUMPDEST SWAP4 POP POP PUSH1 0x20 PUSH2 0x44D DUP7 DUP3 DUP8 ADD PUSH2 0x3D4 JUMP JUMPDEST SWAP3 POP POP PUSH1 0x40 PUSH2 0x45E DUP7 DUP3 DUP8 ADD PUSH2 0x400 JUMP JUMPDEST SWAP2 POP POP SWAP3 POP SWAP3 POP SWAP3 JUMP JUMPDEST PUSH1 0x0 PUSH1 0x20 DUP3 DUP5 SUB SLT ISZERO PUSH2 0x47E JUMPI PUSH2 0x47D PUSH2 0x386 JUMP JUMPDEST JUMPDEST PUSH1 0x0 PUSH2 0x48C DUP5 DUP3 DUP6 ADD PUSH2 0x400 JUMP JUMPDEST SWAP2 POP POP SWAP3 SWAP2 POP POP JUMP JUMPDEST PUSH32 0x4E487B7100000000000000000000000000000000000000000000000000000000 PUSH1 0x0 MSTORE PUSH1 0x11 PUSH1 0x4 MSTORE PUSH1 0x24 PUSH1 0x0 REVERT JUMPDEST PUSH1 0x0 PUSH2 0x4CF DUP3 PUSH2 0x31E JUMP JUMPDEST SWAP2 POP PUSH2 0x4DA DUP4 PUSH2 0x31E JUMP JUMPDEST SWAP3 POP DUP3 DUP3 LT ISZERO PUSH2 0x4ED JUMPI PUSH2 0x4EC PUSH2 0x495 JUMP JUMPDEST JUMPDEST DUP3 DUP3 SUB SWAP1 POP SWAP3 SWAP2 POP POP JUMP JUMPDEST PUSH1 0x0 DUP3 DUP3 MSTORE PUSH1 0x20 DUP3 ADD SWAP1 POP SWAP3 SWAP2 POP POP JUMP JUMPDEST PUSH32 0x43616D706169676E54726561737572793A2043616C6C6572206973206E6F7420 PUSH1 0x0 DUP3 ADD MSTORE PUSH32 0x43616D706169676E496E666F20636F6E74726163740000000000000000000000 PUSH1 0x20 DUP3 ADD MSTORE POP JUMP JUMPDEST PUSH1 0x0 PUSH2 0x565 PUSH1 0x35 DUP4 PUSH2 0x4F8 JUMP JUMPDEST SWAP2 POP PUSH2 0x570 DUP3 PUSH2 0x509 JUMP JUMPDEST PUSH1 0x40 DUP3 ADD SWAP1 POP SWAP2 SWAP1 POP JUMP JUMPDEST PUSH1 0x0 PUSH1 0x20 DUP3 ADD SWAP1 POP DUP2 DUP2 SUB PUSH1 0x0 DUP4 ADD MSTORE PUSH2 0x594 DUP2 PUSH2 0x558 JUMP JUMPDEST SWAP1 POP SWAP2 SWAP1 POP JUMP JUMPDEST PUSH2 0x5A4 DUP2 PUSH2 0x3AB JUMP JUMPDEST DUP3 MSTORE POP POP JUMP JUMPDEST PUSH1 0x0 PUSH1 0x40 DUP3 ADD SWAP1 POP PUSH2 0x5BF PUSH1 0x0 DUP4 ADD DUP6 PUSH2 0x59B JUMP JUMPDEST PUSH2 0x5CC PUSH1 0x20 DUP4 ADD DUP5 PUSH2 0x328 JUMP JUMPDEST SWAP4 SWAP3 POP POP POP JUMP JUMPDEST PUSH1 0x0 DUP2 ISZERO ISZERO SWAP1 POP SWAP2 SWAP1 POP JUMP JUMPDEST PUSH2 0x5E8 DUP2 PUSH2 0x5D3 JUMP JUMPDEST DUP2 EQ PUSH2 0x5F3 JUMPI PUSH1 0x0 DUP1 REVERT JUMPDEST POP JUMP JUMPDEST PUSH1 0x0 DUP2 MLOAD SWAP1 POP PUSH2 0x605 DUP2 PUSH2 0x5DF JUMP JUMPDEST SWAP3 SWAP2 POP POP JUMP JUMPDEST PUSH1 0x0 PUSH1 0x20 DUP3 DUP5 SUB SLT ISZERO PUSH2 0x621 JUMPI PUSH2 0x620 PUSH2 0x386 JUMP JUMPDEST JUMPDEST PUSH1 0x0 PUSH2 0x62F DUP5 DUP3 DUP6 ADD PUSH2 0x5F6 JUMP JUMPDEST SWAP2 POP POP SWAP3 SWAP2 POP POP JUMP JUMPDEST PUSH1 0x0 PUSH2 0x643 DUP3 PUSH2 0x31E JUMP JUMPDEST SWAP2 POP PUSH2 0x64E DUP4 PUSH2 0x31E JUMP JUMPDEST SWAP3 POP DUP2 PUSH32 0xFFFFFFFFFFFFFFFFFFFFFFFFFFFFFFFFFFFFFFFFFFFFFFFFFFFFFFFFFFFFFFFF DIV DUP4 GT DUP3 ISZERO ISZERO AND ISZERO PUSH2 0x687 JUMPI PUSH2 0x686 PUSH2 0x495 JUMP JUMPDEST JUMPDEST DUP3 DUP3 MUL SWAP1 POP SWAP3 SWAP2 POP POP JUMP JUMPDEST PUSH32 0x4E487B7100000000000000000000000000000000000000000000000000000000 PUSH1 0x0 MSTORE PUSH1 0x12 PUSH1 0x4 MSTORE PUSH1 0x24 PUSH1 0x0 REVERT JUMPDEST PUSH1 0x0 PUSH2 0x6CC DUP3 PUSH2 0x31E JUMP JUMPDEST SWAP2 POP PUSH2 0x6D7 DUP4 PUSH2 0x31E JUMP JUMPDEST SWAP3 POP DUP3 PUSH2 0x6E7 JUMPI PUSH2 0x6E6 PUSH2 0x692 JUMP JUMPDEST JUMPDEST DUP3 DUP3 DIV SWAP1 POP SWAP3 SWAP2 POP POP JUMP JUMPDEST PUSH1 0x0 PUSH2 0x6FD DUP3 PUSH2 0x31E JUMP JUMPDEST SWAP2 POP PUSH2 0x708 DUP4 PUSH2 0x31E JUMP JUMPDEST SWAP3 POP DUP3 PUSH32 0xFFFFFFFFFFFFFFFFFFFFFFFFFFFFFFFFFFFFFFFFFFFFFFFFFFFFFFFFFFFFFFFF SUB DUP3 GT ISZERO PUSH2 0x73D JUMPI PUSH2 0x73C PUSH2 0x495 JUMP JUMPDEST JUMPDEST DUP3 DUP3 ADD SWAP1 POP SWAP3 SWAP2 POP POP JUMP INVALID LOG2 PUSH5 0x6970667358 0x22 SLT KECCAK256 0x2A SSTORE DUP4 CALLDATACOPY 0x1F JUMPI ORIGIN CALLVALUE 0x2C 0xCE EXP SAR 0xCE MUL LOG0 0x4F DIV DUP4 0xE3 MUL SGT DUP13 STATICCALL 0xBA 0x5D 0x4C SWAP12 SDIV 0xAD CALLVALUE REVERT 0xDC PUSH5 0x736F6C6343 STOP ADDMOD MULMOD STOP CALLER LOG2 PUSH5 0x6970667358 0x22 SLT KECCAK256 DUP3 0xE8 0xCC RETURNDATACOPY INVALID SWAP15 PUSH20 0x75E666300C85AA95E7CFDD9E96529D1E3A77A572 STATICCALL 0xB5 0xD5 0x22 DUP9 PUSH5 0x736F6C6343 STOP ADDMOD MULMOD STOP CALLER "},"methodIdentifiers":{"addContainers(address,address,bytes32[],(uint256[],uint256[],uint256,bool)[])":"592f9822","createCampaign(address,address,address,uint256,bytes32,string,string,bytes32[])":"89eb5458","initialize(address,address)":"485cc955","setLaunch(address,uint256,uint256,uint256,bool)":"fbe121fa","setTreasury(address,bytes32,address,address)":"33d556d7","updateDeadline(address,uint256)":"fd38eaf1","updateGoal(address,uint256)":"153f5afe","updateLaunchTime(address,uint256)":"3be42fb5"}}}}}