{"contracts/Aggregator/Aggregator.sol":{"Aggregator":{"abi":[{"inputs":[{"internalType":"address","name":"campaignInfo","type":"address"},{"internalType":"string","name":"_itemId","type":"string"},{"internalType":"string","name":"_description","type":"string"}],"name":"addItem","outputs":[],"stateMutability":"nonpayable","type":"function"},{"inputs":[{"internalType":"address","name":"campaignInfo","type":"address"},{"internalType":"string[]","name":"_itemId","type":"string[]"},{"internalType":"string[]","name":"_description","type":"string[]"}],"name":"addItems","outputs":[],"stateMutability":"nonpayable","type":"function"},{"inputs":[{"internalType":"address","name":"campaignInfo","type":"address"},{"internalType":"string","name":"name","type":"string"},{"internalType":"uint256","name":"rewardValue","type":"uint256"},{"internalType":"string[]","name":"itemName","type":"string[]"},{"internalType":"uint256[]","name":"itemQuantity","type":"uint256[]"}],"name":"addReward","outputs":[],"stateMutability":"nonpayable","type":"function"},{"inputs":[{"internalType":"address","name":"campaignInfo","type":"address"},{"internalType":"string[]","name":"itemName","type":"string[]"},{"internalType":"string[]","name":"description","type":"string[]"},{"internalType":"string","name":"rewardName","type":"string"},{"internalType":"uint256","name":"rewardValue","type":"uint256"},{"internalType":"uint256[]","name":"itemQuantity","type":"uint256[]"}],"name":"addRewardAnditems","outputs":[],"stateMutability":"nonpayable","type":"function"},{"inputs":[{"internalType":"address","name":"_creator","type":"address"},{"internalType":"string","name":"_identifier","type":"string"},{"internalType":"bytes32","name":"_originPlatform","type":"bytes32"},{"internalType":"string","name":"_creatorUrl","type":"string"},{"internalType":"bytes32[]","name":"_reachPlatform","type":"bytes32[]"},{"internalType":"uint256","name":"_earlyPledgeAmount","type":"uint256"}],"name":"createCampaign","outputs":[],"stateMutability":"nonpayable","type":"function"},{"inputs":[{"internalType":"address","name":"_campaignInfoFactory","type":"address"},{"internalType":"address","name":"_campaignRegisty","type":"address"}],"name":"initialize","outputs":[],"stateMutability":"nonpayable","type":"function"},{"inputs":[{"internalType":"address","name":"campaignInfo","type":"address"},{"internalType":"uint256","name":"launchTime","type":"uint256"},{"internalType":"uint256","name":"deadline","type":"uint256"},{"internalType":"uint256","name":"goalAmount","type":"uint256"},{"internalType":"bool","name":"enableLatePledge","type":"bool"}],"name":"setLaunch","outputs":[],"stateMutability":"nonpayable","type":"function"},{"inputs":[{"internalType":"address","name":"campaignInfo","type":"address"},{"internalType":"bytes32","name":"platform","type":"bytes32"},{"internalType":"address","name":"platformWallet","type":"address"},{"internalType":"address","name":"token","type":"address"}],"name":"setTreasury","outputs":[],"stateMutability":"nonpayable","type":"function"}],"evm":{"bytecode":{"linkReferences":{},"object":"608060405234801561001057600080fd5b50612a5d806100206000396000f3fe60806040523480156200001157600080fd5b5060043610620000945760003560e01c8063ab4d9b5f1162000063578063ab4d9b5f1462000119578063c77e6f651462000139578063d3caea4f1462000159578063fbe121fa14620001795762000094565b8063138af8f014620000995780632c6ba15214620000b957806333d556d714620000d9578063485cc95514620000f9575b600080fd5b620000b76004803603810190620000b1919062000fcb565b62000199565b005b620000d76004803603810190620000d19190620010f1565b620003b7565b005b620000f76004803603810190620000f19190620011d0565b62000558565b005b62000117600480360381019062000111919062001242565b62000733565b005b62000137600480360381019062000131919062001448565b620007b9565b005b62000157600480360381019062000151919062001606565b620008d1565b005b620001776004803603810190620001719190620016ff565b62000aa7565b005b620001976004803603810190620001919190620017e0565b62000bbc565b005b883373ffffffffffffffffffffffffffffffffffffffff166000808373ffffffffffffffffffffffffffffffffffffffff1673ffffffffffffffffffffffffffffffffffffffff16815260200190815260200160002060009054906101000a900473ffffffffffffffffffffffffffffffffffffffff1673ffffffffffffffffffffffffffffffffffffffff16146200023157600080fd5b60008989905090508088889050146200024957600080fd5b60005b8181101562000330578b73ffffffffffffffffffffffffffffffffffffffff16637ed8a7198c8c8481811062000287576200028662001868565b5b90506020028101906200029b9190620018a6565b8c8c86818110620002b157620002b062001868565b5b9050602002810190620002c59190620018a6565b6040518563ffffffff1660e01b8152600401620002e6949392919062001956565b600060405180830381600087803b1580156200030157600080fd5b505af115801562000316573d6000803e3d6000fd5b5050505080806200032790620019c4565b9150506200024c565b508a73ffffffffffffffffffffffffffffffffffffffff166319188bd88787878e8e896040518763ffffffff1660e01b8152600401620003769695949392919062001c72565b600060405180830381600087803b1580156200039157600080fd5b505af1158015620003a6573d6000803e3d6000fd5b505050505050505050505050505050565b843373ffffffffffffffffffffffffffffffffffffffff166000808373ffffffffffffffffffffffffffffffffffffffff1673ffffffffffffffffffffffffffffffffffffffff16815260200190815260200160002060009054906101000a900473ffffffffffffffffffffffffffffffffffffffff1673ffffffffffffffffffffffffffffffffffffffff16146200044f57600080fd5b60008585905090508084849050146200046757600080fd5b60005b818110156200054e578773ffffffffffffffffffffffffffffffffffffffff16637ed8a719888884818110620004a557620004a462001868565b5b9050602002810190620004b99190620018a6565b888886818110620004cf57620004ce62001868565b5b9050602002810190620004e39190620018a6565b6040518563ffffffff1660e01b815260040162000504949392919062001956565b600060405180830381600087803b1580156200051f57600080fd5b505af115801562000534573d6000803e3d6000fd5b5050505080806200054590620019c4565b9150506200046a565b5050505050505050565b833373ffffffffffffffffffffffffffffffffffffffff166000808373ffffffffffffffffffffffffffffffffffffffff1673ffffffffffffffffffffffffffffffffffffffff16815260200190815260200160002060009054906101000a900473ffffffffffffffffffffffffffffffffffffffff1673ffffffffffffffffffffffffffffffffffffffff1614620005f057600080fd5b600260009054906101000a900473ffffffffffffffffffffffffffffffffffffffff168585604051620006239062000cd1565b620006319392919062001cfa565b604051809103906000f0801580156200064e573d6000803e3d6000fd5b50600360006101000a81548173ffffffffffffffffffffffffffffffffffffffff021916908373ffffffffffffffffffffffffffffffffffffffff1602179055506000600360009054906101000a900473ffffffffffffffffffffffffffffffffffffffff1690508573ffffffffffffffffffffffffffffffffffffffff1663deaaf241868684876040518563ffffffff1660e01b8152600401620006f7949392919062001d37565b600060405180830381600087803b1580156200071257600080fd5b505af115801562000727573d6000803e3d6000fd5b50505050505050505050565b81600160006101000a81548173ffffffffffffffffffffffffffffffffffffffff021916908373ffffffffffffffffffffffffffffffffffffffff16021790555080600260006101000a81548173ffffffffffffffffffffffffffffffffffffffff021916908373ffffffffffffffffffffffffffffffffffffffff1602179055505050565b853373ffffffffffffffffffffffffffffffffffffffff166000808373ffffffffffffffffffffffffffffffffffffffff1673ffffffffffffffffffffffffffffffffffffffff16815260200190815260200160002060009054906101000a900473ffffffffffffffffffffffffffffffffffffffff1673ffffffffffffffffffffffffffffffffffffffff16146200085157600080fd5b8673ffffffffffffffffffffffffffffffffffffffff166319188bd887878787876040518663ffffffff1660e01b81526004016200089495949392919062001ec5565b600060405180830381600087803b158015620008af57600080fd5b505af1158015620008c4573d6000803e3d6000fd5b5050505050505050505050565b600160009054906101000a900473ffffffffffffffffffffffffffffffffffffffff1673ffffffffffffffffffffffffffffffffffffffff1663c77e6f653087878787876040518763ffffffff1660e01b8152600401620009389695949392919062002038565b600060405180830381600087803b1580156200095357600080fd5b505af115801562000968573d6000803e3d6000fd5b505050506000600260009054906101000a900473ffffffffffffffffffffffffffffffffffffffff1673ffffffffffffffffffffffffffffffffffffffff1663939f3130876040518263ffffffff1660e01b8152600401620009cb9190620020ba565b60206040518083038186803b158015620009e457600080fd5b505afa158015620009f9573d6000803e3d6000fd5b505050506040513d601f19601f8201168201806040525081019062000a1f9190620020f5565b9050866000808373ffffffffffffffffffffffffffffffffffffffff1673ffffffffffffffffffffffffffffffffffffffff16815260200190815260200160002060006101000a81548173ffffffffffffffffffffffffffffffffffffffff021916908373ffffffffffffffffffffffffffffffffffffffff16021790555050505050505050565b843373ffffffffffffffffffffffffffffffffffffffff166000808373ffffffffffffffffffffffffffffffffffffffff1673ffffffffffffffffffffffffffffffffffffffff16815260200190815260200160002060009054906101000a900473ffffffffffffffffffffffffffffffffffffffff1673ffffffffffffffffffffffffffffffffffffffff161462000b3f57600080fd5b8573ffffffffffffffffffffffffffffffffffffffff16637ed8a719868686866040518563ffffffff1660e01b815260040162000b80949392919062001956565b600060405180830381600087803b15801562000b9b57600080fd5b505af115801562000bb0573d6000803e3d6000fd5b50505050505050505050565b843373ffffffffffffffffffffffffffffffffffffffff166000808373ffffffffffffffffffffffffffffffffffffffff1673ffffffffffffffffffffffffffffffffffffffff16815260200190815260200160002060009054906101000a900473ffffffffffffffffffffffffffffffffffffffff1673ffffffffffffffffffffffffffffffffffffffff161462000c5457600080fd5b8573ffffffffffffffffffffffffffffffffffffffff1663695c27c2868686866040518563ffffffff1660e01b815260040162000c95949392919062002138565b600060405180830381600087803b15801562000cb057600080fd5b505af115801562000cc5573d6000803e3d6000fd5b50505050505050505050565b6108a2806200218683390190565b6000604051905090565b600080fd5b600080fd5b600073ffffffffffffffffffffffffffffffffffffffff82169050919050565b600062000d208262000cf3565b9050919050565b62000d328162000d13565b811462000d3e57600080fd5b50565b60008135905062000d528162000d27565b92915050565b600080fd5b600080fd5b600080fd5b60008083601f84011262000d805762000d7f62000d58565b5b8235905067ffffffffffffffff81111562000da05762000d9f62000d5d565b5b60208301915083602082028301111562000dbf5762000dbe62000d62565b5b9250929050565b60008083601f84011262000ddf5762000dde62000d58565b5b8235905067ffffffffffffffff81111562000dff5762000dfe62000d5d565b5b60208301915083600182028301111562000e1e5762000e1d62000d62565b5b9250929050565b6000819050919050565b62000e3a8162000e25565b811462000e4657600080fd5b50565b60008135905062000e5a8162000e2f565b92915050565b6000601f19601f8301169050919050565b7f4e487b7100000000000000000000000000000000000000000000000000000000600052604160045260246000fd5b62000eab8262000e60565b810181811067ffffffffffffffff8211171562000ecd5762000ecc62000e71565b5b80604052505050565b600062000ee262000cdf565b905062000ef0828262000ea0565b919050565b600067ffffffffffffffff82111562000f135762000f1262000e71565b5b602082029050602081019050919050565b600062000f3b62000f358462000ef5565b62000ed6565b9050808382526020820190506020840283018581111562000f615762000f6062000d62565b5b835b8181101562000f8e578062000f79888262000e49565b84526020840193505060208101905062000f63565b5050509392505050565b600082601f83011262000fb05762000faf62000d58565b5b813562000fc284826020860162000f24565b91505092915050565b600080600080600080600080600060c08a8c03121562000ff05762000fef62000ce9565b5b6000620010008c828d0162000d41565b99505060208a013567ffffffffffffffff81111562001024576200102362000cee565b5b620010328c828d0162000d67565b985098505060408a013567ffffffffffffffff81111562001058576200105762000cee565b5b620010668c828d0162000d67565b965096505060608a013567ffffffffffffffff8111156200108c576200108b62000cee565b5b6200109a8c828d0162000dc6565b94509450506080620010af8c828d0162000e49565b92505060a08a013567ffffffffffffffff811115620010d357620010d262000cee565b5b620010e18c828d0162000f98565b9150509295985092959850929598565b60008060008060006060868803121562001110576200110f62000ce9565b5b6000620011208882890162000d41565b955050602086013567ffffffffffffffff81111562001144576200114362000cee565b5b620011528882890162000d67565b9450945050604086013567ffffffffffffffff81111562001178576200117762000cee565b5b620011868882890162000d67565b92509250509295509295909350565b6000819050919050565b620011aa8162001195565b8114620011b657600080fd5b50565b600081359050620011ca816200119f565b92915050565b60008060008060808587031215620011ed57620011ec62000ce9565b5b6000620011fd8782880162000d41565b94505060206200121087828801620011b9565b9350506040620012238782880162000d41565b9250506060620012368782880162000d41565b91505092959194509250565b600080604083850312156200125c576200125b62000ce9565b5b60006200126c8582860162000d41565b92505060206200127f8582860162000d41565b9150509250929050565b600067ffffffffffffffff821115620012a757620012a662000e71565b5b602082029050602081019050919050565b600080fd5b600067ffffffffffffffff821115620012db57620012da62000e71565b5b620012e68262000e60565b9050602081019050919050565b82818337600083830152505050565b6000620013196200131384620012bd565b62000ed6565b905082815260208101848484011115620013385762001337620012b8565b5b62001345848285620012f3565b509392505050565b600082601f83011262001365576200136462000d58565b5b81356200137784826020860162001302565b91505092915050565b600062001397620013918462001289565b62000ed6565b90508083825260208201905060208402830185811115620013bd57620013bc62000d62565b5b835b818110156200140b57803567ffffffffffffffff811115620013e657620013e562000d58565b5b808601620013f589826200134d565b85526020850194505050602081019050620013bf565b5050509392505050565b600082601f8301126200142d576200142c62000d58565b5b81356200143f84826020860162001380565b91505092915050565b60008060008060008060a0878903121562001468576200146762000ce9565b5b60006200147889828a0162000d41565b965050602087013567ffffffffffffffff8111156200149c576200149b62000cee565b5b620014aa89828a0162000dc6565b95509550506040620014bf89828a0162000e49565b935050606087013567ffffffffffffffff811115620014e357620014e262000cee565b5b620014f189828a0162001415565b925050608087013567ffffffffffffffff81111562001515576200151462000cee565b5b6200152389828a0162000f98565b9150509295509295509295565b600067ffffffffffffffff8211156200154e576200154d62000e71565b5b602082029050602081019050919050565b600062001576620015708462001530565b62000ed6565b905080838252602082019050602084028301858111156200159c576200159b62000d62565b5b835b81811015620015c95780620015b48882620011b9565b8452602084019350506020810190506200159e565b5050509392505050565b600082601f830112620015eb57620015ea62000d58565b5b8135620015fd8482602086016200155f565b91505092915050565b60008060008060008060c0878903121562001626576200162562000ce9565b5b60006200163689828a0162000d41565b965050602087013567ffffffffffffffff8111156200165a576200165962000cee565b5b6200166889828a016200134d565b95505060406200167b89828a01620011b9565b945050606087013567ffffffffffffffff8111156200169f576200169e62000cee565b5b620016ad89828a016200134d565b935050608087013567ffffffffffffffff811115620016d157620016d062000cee565b5b620016df89828a01620015d3565b92505060a0620016f289828a0162000e49565b9150509295509295509295565b6000806000806000606086880312156200171e576200171d62000ce9565b5b60006200172e8882890162000d41565b955050602086013567ffffffffffffffff81111562001752576200175162000cee565b5b620017608882890162000dc6565b9450945050604086013567ffffffffffffffff81111562001786576200178562000cee565b5b620017948882890162000dc6565b92509250509295509295909350565b60008115159050919050565b620017ba81620017a3565b8114620017c657600080fd5b50565b600081359050620017da81620017af565b92915050565b600080600080600060a08688031215620017ff57620017fe62000ce9565b5b60006200180f8882890162000d41565b9550506020620018228882890162000e49565b9450506040620018358882890162000e49565b9350506060620018488882890162000e49565b92505060806200185b88828901620017c9565b9150509295509295909350565b7f4e487b7100000000000000000000000000000000000000000000000000000000600052603260045260246000fd5b600080fd5b600080fd5b600080fd5b60008083356001602003843603038112620018c657620018c562001897565b5b80840192508235915067ffffffffffffffff821115620018eb57620018ea6200189c565b5b6020830192506001820236038313156200190a5762001909620018a1565b5b509250929050565b600082825260208201905092915050565b600062001931838562001912565b935062001940838584620012f3565b6200194b8362000e60565b840190509392505050565b600060408201905081810360008301526200197381868862001923565b905081810360208301526200198a81848662001923565b905095945050505050565b7f4e487b7100000000000000000000000000000000000000000000000000000000600052601160045260246000fd5b6000620019d18262000e25565b91507fffffffffffffffffffffffffffffffffffffffffffffffffffffffffffffffff82141562001a075762001a0662001995565b5b600182019050919050565b62001a1d8162000e25565b82525050565b600082825260208201905092915050565b6000819050919050565b600082825260208201905092915050565b600062001a5d838562001a3e565b935062001a6c838584620012f3565b62001a778362000e60565b840190509392505050565b600062001a9184848462001a4f565b90509392505050565b600080fd5b600080fd5b600080fd5b6000808335600160200384360303811262001ac95762001ac862001aa4565b5b83810192508235915060208301925067ffffffffffffffff82111562001af45762001af362001a9a565b5b60018202360384131562001b0d5762001b0c62001a9f565b5b509250929050565b6000602082019050919050565b600062001b30838562001a23565b93508360208402850162001b448462001a34565b8060005b8781101562001b9257848403895262001b62828462001aa9565b62001b6f86828462001a82565b955062001b7c8462001b15565b935060208b019a50505060018101905062001b48565b50829750879450505050509392505050565b600081519050919050565b600082825260208201905092915050565b6000819050602082019050919050565b62001bdb8162000e25565b82525050565b600062001bef838362001bd0565b60208301905092915050565b6000602082019050919050565b600062001c158262001ba4565b62001c21818562001baf565b935062001c2e8362001bc0565b8060005b8381101562001c6557815162001c49888262001be1565b975062001c568362001bfb565b92505060018101905062001c32565b5085935050505092915050565b6000608082019050818103600083015262001c8f81888a62001923565b905062001ca0602083018762001a12565b818103604083015262001cb581858762001b22565b9050818103606083015262001ccb818462001c08565b9050979650505050505050565b62001ce38162000d13565b82525050565b62001cf48162001195565b82525050565b600060608201905062001d11600083018662001cd8565b62001d20602083018562001cd8565b62001d2f604083018462001ce9565b949350505050565b600060808201905062001d4e600083018762001ce9565b62001d5d602083018662001cd8565b62001d6c604083018562001cd8565b62001d7b606083018462001cd8565b95945050505050565b600081519050919050565b6000819050602082019050919050565b600081519050919050565b60005b8381101562001dca57808201518184015260208101905062001dad565b8381111562001dda576000848401525b50505050565b600062001ded8262001d9f565b62001df9818562001a3e565b935062001e0b81856020860162001daa565b62001e168162000e60565b840191505092915050565b600062001e2f838362001de0565b905092915050565b6000602082019050919050565b600062001e518262001d84565b62001e5d818562001a23565b93508360208202850162001e718562001d8f565b8060005b8581101562001eb3578484038952815162001e91858262001e21565b945062001e9e8362001e37565b925060208a0199505060018101905062001e75565b50829750879550505050505092915050565b6000608082019050818103600083015262001ee281878962001923565b905062001ef3602083018662001a12565b818103604083015262001f07818562001e44565b9050818103606083015262001f1d818462001c08565b90509695505050505050565b600062001f368262001d9f565b62001f42818562001912565b935062001f5481856020860162001daa565b62001f5f8162000e60565b840191505092915050565b600081519050919050565b600082825260208201905092915050565b6000819050602082019050919050565b62001fa18162001195565b82525050565b600062001fb5838362001f96565b60208301905092915050565b6000602082019050919050565b600062001fdb8262001f6a565b62001fe7818562001f75565b935062001ff48362001f86565b8060005b838110156200202b5781516200200f888262001fa7565b97506200201c8362001fc1565b92505060018101905062001ff8565b5085935050505092915050565b600060c0820190506200204f600083018962001cd8565b818103602083015262002063818862001f29565b905062002074604083018762001ce9565b818103606083015262002088818662001f29565b905081810360808301526200209e818562001fce565b9050620020af60a083018462001a12565b979650505050505050565b60006020820190508181036000830152620020d6818462001f29565b905092915050565b600081519050620020ef8162000d27565b92915050565b6000602082840312156200210e576200210d62000ce9565b5b60006200211e84828501620020de565b91505092915050565b6200213281620017a3565b82525050565b60006080820190506200214f600083018762001a12565b6200215e602083018662001a12565b6200216d604083018562001a12565b6200217c606083018462002127565b9594505050505056fe608060405234801561001057600080fd5b506040516108a23803806108a28339818101604052810190610032919061015b565b826000806101000a81548173ffffffffffffffffffffffffffffffffffffffff021916908373ffffffffffffffffffffffffffffffffffffffff16021790555081600160006101000a81548173ffffffffffffffffffffffffffffffffffffffff021916908373ffffffffffffffffffffffffffffffffffffffff160217905550806002819055505050506101ae565b600080fd5b600073ffffffffffffffffffffffffffffffffffffffff82169050919050565b60006100f2826100c7565b9050919050565b610102816100e7565b811461010d57600080fd5b50565b60008151905061011f816100f9565b92915050565b6000819050919050565b61013881610125565b811461014357600080fd5b50565b6000815190506101558161012f565b92915050565b600080600060608486031215610174576101736100c2565b5b600061018286828701610110565b935050602061019386828701610110565b92505060406101a486828701610146565b9150509250925092565b6106e5806101bd6000396000f3fe608060405234801561001057600080fd5b506004361061007d5760003560e01c80634f15fc061161005b5780634f15fc06146100dc57806360a56b3a146100fa5780636cccbe5e146101165780638f94b8c2146101345761007d565b8063186bc549146100825780634575d5c5146100a05780634b1d123b146100be575b600080fd5b61008a610150565b60405161009791906102f4565b60405180910390f35b6100a861015a565b6040516100b59190610328565b60405180910390f35b6100c6610164565b6040516100d391906102f4565b60405180910390f35b6100e4610180565b6040516100f191906102f4565b60405180910390f35b610114600480360381019061010f91906103d2565b61018a565b005b61011e6102ad565b60405161012b91906102f4565b60405180910390f35b61014e60048036038101906101499190610425565b6102d1565b005b6000600354905090565b6000600254905090565b600061016e6102ad565b60035461017b9190610481565b905090565b6000600454905090565b600160009054906101000a900473ffffffffffffffffffffffffffffffffffffffff1673ffffffffffffffffffffffffffffffffffffffff163373ffffffffffffffffffffffffffffffffffffffff161461021a576040517f08c379a000000000000000000000000000000000000000000000000000000000815260040161021190610538565b60405180910390fd5b8173ffffffffffffffffffffffffffffffffffffffff1663a9059cbb84836040518363ffffffff1660e01b8152600401610255929190610567565b602060405180830381600087803b15801561026f57600080fd5b505af1158015610283573d6000803e3d6000fd5b505050506040513d601f19601f820116820180604052508101906102a791906105c8565b50505050565b60006127106004546003546102c291906105f5565b6102cc919061067e565b905090565b8060048190555050565b6000819050919050565b6102ee816102db565b82525050565b600060208201905061030960008301846102e5565b92915050565b6000819050919050565b6103228161030f565b82525050565b600060208201905061033d6000830184610319565b92915050565b600080fd5b600073ffffffffffffffffffffffffffffffffffffffff82169050919050565b600061037382610348565b9050919050565b61038381610368565b811461038e57600080fd5b50565b6000813590506103a08161037a565b92915050565b6103af816102db565b81146103ba57600080fd5b50565b6000813590506103cc816103a6565b92915050565b6000806000606084860312156103eb576103ea610343565b5b60006103f986828701610391565b935050602061040a86828701610391565b925050604061041b868287016103bd565b9150509250925092565b60006020828403121561043b5761043a610343565b5b6000610449848285016103bd565b91505092915050565b7f4e487b7100000000000000000000000000000000000000000000000000000000600052601160045260246000fd5b600061048c826102db565b9150610497836102db565b9250828210156104aa576104a9610452565b5b828203905092915050565b600082825260208201905092915050565b7f43616d706169676e54726561737572793a2043616c6c6572206973206e6f742060008201527f43616d706169676e496e666f20636f6e74726163740000000000000000000000602082015250565b60006105226035836104b5565b915061052d826104c6565b604082019050919050565b6000602082019050818103600083015261055181610515565b9050919050565b61056181610368565b82525050565b600060408201905061057c6000830185610558565b61058960208301846102e5565b9392505050565b60008115159050919050565b6105a581610590565b81146105b057600080fd5b50565b6000815190506105c28161059c565b92915050565b6000602082840312156105de576105dd610343565b5b60006105ec848285016105b3565b91505092915050565b6000610600826102db565b915061060b836102db565b9250817fffffffffffffffffffffffffffffffffffffffffffffffffffffffffffffffff048311821515161561064457610643610452565b5b828202905092915050565b7f4e487b7100000000000000000000000000000000000000000000000000000000600052601260045260246000fd5b6000610689826102db565b9150610694836102db565b9250826106a4576106a361064f565b5b82820490509291505056fea2646970667358221220d9ac9e43927bae7cc90a0fbddeebe859351f54203e5f4f5bcbeb43a454538c8164736f6c63430008090033a264697066735822122066864767ed331e714aa2c15c488e4572c03df9dca44026ce392894992466d38364736f6c63430008090033","opcodes":"PUSH1 0x80 PUSH1 0x40 MSTORE CALLVALUE DUP1 ISZERO PUSH2 0x10 JUMPI PUSH1 0x0 DUP1 REVERT JUMPDEST POP PUSH2 0x2A5D DUP1 PUSH2 0x20 PUSH1 0x0 CODECOPY PUSH1 0x0 RETURN INVALID PUSH1 0x80 PUSH1 0x40 MSTORE CALLVALUE DUP1 ISZERO PUSH3 0x11 JUMPI PUSH1 0x0 DUP1 REVERT JUMPDEST POP PUSH1 0x4 CALLDATASIZE LT PUSH3 0x94 JUMPI PUSH1 0x0 CALLDATALOAD PUSH1 0xE0 SHR DUP1 PUSH4 0xAB4D9B5F GT PUSH3 0x63 JUMPI DUP1 PUSH4 0xAB4D9B5F EQ PUSH3 0x119 JUMPI DUP1 PUSH4 0xC77E6F65 EQ PUSH3 0x139 JUMPI DUP1 PUSH4 0xD3CAEA4F EQ PUSH3 0x159 JUMPI DUP1 PUSH4 0xFBE121FA EQ PUSH3 0x179 JUMPI PUSH3 0x94 JUMP JUMPDEST DUP1 PUSH4 0x138AF8F0 EQ PUSH3 0x99 JUMPI DUP1 PUSH4 0x2C6BA152 EQ PUSH3 0xB9 JUMPI DUP1 PUSH4 0x33D556D7 EQ PUSH3 0xD9 JUMPI DUP1 PUSH4 0x485CC955 EQ PUSH3 0xF9 JUMPI JUMPDEST PUSH1 0x0 DUP1 REVERT JUMPDEST PUSH3 0xB7 PUSH1 0x4 DUP1 CALLDATASIZE SUB DUP2 ADD SWAP1 PUSH3 0xB1 SWAP2 SWAP1 PUSH3 0xFCB JUMP JUMPDEST PUSH3 0x199 JUMP JUMPDEST STOP JUMPDEST PUSH3 0xD7 PUSH1 0x4 DUP1 CALLDATASIZE SUB DUP2 ADD SWAP1 PUSH3 0xD1 SWAP2 SWAP1 PUSH3 0x10F1 JUMP JUMPDEST PUSH3 0x3B7 JUMP JUMPDEST STOP JUMPDEST PUSH3 0xF7 PUSH1 0x4 DUP1 CALLDATASIZE SUB DUP2 ADD SWAP1 PUSH3 0xF1 SWAP2 SWAP1 PUSH3 0x11D0 JUMP JUMPDEST PUSH3 0x558 JUMP JUMPDEST STOP JUMPDEST PUSH3 0x117 PUSH1 0x4 DUP1 CALLDATASIZE SUB DUP2 ADD SWAP1 PUSH3 0x111 SWAP2 SWAP1 PUSH3 0x1242 JUMP JUMPDEST PUSH3 0x733 JUMP JUMPDEST STOP JUMPDEST PUSH3 0x137 PUSH1 0x4 DUP1 CALLDATASIZE SUB DUP2 ADD SWAP1 PUSH3 0x131 SWAP2 SWAP1 PUSH3 0x1448 JUMP JUMPDEST PUSH3 0x7B9 JUMP JUMPDEST STOP JUMPDEST PUSH3 0x157 PUSH1 0x4 DUP1 CALLDATASIZE SUB DUP2 ADD SWAP1 PUSH3 0x151 SWAP2 SWAP1 PUSH3 0x1606 JUMP JUMPDEST PUSH3 0x8D1 JUMP JUMPDEST STOP JUMPDEST PUSH3 0x177 PUSH1 0x4 DUP1 CALLDATASIZE SUB DUP2 ADD SWAP1 PUSH3 0x171 SWAP2 SWAP1 PUSH3 0x16FF JUMP JUMPDEST PUSH3 0xAA7 JUMP JUMPDEST STOP JUMPDEST PUSH3 0x197 PUSH1 0x4 DUP1 CALLDATASIZE SUB DUP2 ADD SWAP1 PUSH3 0x191 SWAP2 SWAP1 PUSH3 0x17E0 JUMP JUMPDEST PUSH3 0xBBC JUMP JUMPDEST STOP JUMPDEST DUP9 CALLER PUSH20 0xFFFFFFFFFFFFFFFFFFFFFFFFFFFFFFFFFFFFFFFF AND PUSH1 0x0 DUP1 DUP4 PUSH20 0xFFFFFFFFFFFFFFFFFFFFFFFFFFFFFFFFFFFFFFFF AND PUSH20 0xFFFFFFFFFFFFFFFFFFFFFFFFFFFFFFFFFFFFFFFF AND DUP2 MSTORE PUSH1 0x20 ADD SWAP1 DUP2 MSTORE PUSH1 0x20 ADD PUSH1 0x0 KECCAK256 PUSH1 0x0 SWAP1 SLOAD SWAP1 PUSH2 0x100 EXP SWAP1 DIV PUSH20 0xFFFFFFFFFFFFFFFFFFFFFFFFFFFFFFFFFFFFFFFF AND PUSH20 0xFFFFFFFFFFFFFFFFFFFFFFFFFFFFFFFFFFFFFFFF AND EQ PUSH3 0x231 JUMPI PUSH1 0x0 DUP1 REVERT JUMPDEST PUSH1 0x0 DUP10 DUP10 SWAP1 POP SWAP1 POP DUP1 DUP9 DUP9 SWAP1 POP EQ PUSH3 0x249 JUMPI PUSH1 0x0 DUP1 REVERT JUMPDEST PUSH1 0x0 JUMPDEST DUP2 DUP2 LT ISZERO PUSH3 0x330 JUMPI DUP12 PUSH20 0xFFFFFFFFFFFFFFFFFFFFFFFFFFFFFFFFFFFFFFFF AND PUSH4 0x7ED8A719 DUP13 DUP13 DUP5 DUP2 DUP2 LT PUSH3 0x287 JUMPI PUSH3 0x286 PUSH3 0x1868 JUMP JUMPDEST JUMPDEST SWAP1 POP PUSH1 0x20 MUL DUP2 ADD SWAP1 PUSH3 0x29B SWAP2 SWAP1 PUSH3 0x18A6 JUMP JUMPDEST DUP13 DUP13 DUP7 DUP2 DUP2 LT PUSH3 0x2B1 JUMPI PUSH3 0x2B0 PUSH3 0x1868 JUMP JUMPDEST JUMPDEST SWAP1 POP PUSH1 0x20 MUL DUP2 ADD SWAP1 PUSH3 0x2C5 SWAP2 SWAP1 PUSH3 0x18A6 JUMP JUMPDEST PUSH1 0x40 MLOAD DUP6 PUSH4 0xFFFFFFFF AND PUSH1 0xE0 SHL DUP2 MSTORE PUSH1 0x4 ADD PUSH3 0x2E6 SWAP5 SWAP4 SWAP3 SWAP2 SWAP1 PUSH3 0x1956 JUMP JUMPDEST PUSH1 0x0 PUSH1 0x40 MLOAD DUP1 DUP4 SUB DUP2 PUSH1 0x0 DUP8 DUP1 EXTCODESIZE ISZERO DUP1 ISZERO PUSH3 0x301 JUMPI PUSH1 0x0 DUP1 REVERT JUMPDEST POP GAS CALL ISZERO DUP1 ISZERO PUSH3 0x316 JUMPI RETURNDATASIZE PUSH1 0x0 DUP1 RETURNDATACOPY RETURNDATASIZE PUSH1 0x0 REVERT JUMPDEST POP POP POP POP DUP1 DUP1 PUSH3 0x327 SWAP1 PUSH3 0x19C4 JUMP JUMPDEST SWAP2 POP POP PUSH3 0x24C JUMP JUMPDEST POP DUP11 PUSH20 0xFFFFFFFFFFFFFFFFFFFFFFFFFFFFFFFFFFFFFFFF AND PUSH4 0x19188BD8 DUP8 DUP8 DUP8 DUP15 DUP15 DUP10 PUSH1 0x40 MLOAD DUP8 PUSH4 0xFFFFFFFF AND PUSH1 0xE0 SHL DUP2 MSTORE PUSH1 0x4 ADD PUSH3 0x376 SWAP7 SWAP6 SWAP5 SWAP4 SWAP3 SWAP2 SWAP1 PUSH3 0x1C72 JUMP JUMPDEST PUSH1 0x0 PUSH1 0x40 MLOAD DUP1 DUP4 SUB DUP2 PUSH1 0x0 DUP8 DUP1 EXTCODESIZE ISZERO DUP1 ISZERO PUSH3 0x391 JUMPI PUSH1 0x0 DUP1 REVERT JUMPDEST POP GAS CALL ISZERO DUP1 ISZERO PUSH3 0x3A6 JUMPI RETURNDATASIZE PUSH1 0x0 DUP1 RETURNDATACOPY RETURNDATASIZE PUSH1 0x0 REVERT JUMPDEST POP POP POP POP POP POP POP POP POP POP POP POP POP POP POP JUMP JUMPDEST DUP5 CALLER PUSH20 0xFFFFFFFFFFFFFFFFFFFFFFFFFFFFFFFFFFFFFFFF AND PUSH1 0x0 DUP1 DUP4 PUSH20 0xFFFFFFFFFFFFFFFFFFFFFFFFFFFFFFFFFFFFFFFF AND PUSH20 0xFFFFFFFFFFFFFFFFFFFFFFFFFFFFFFFFFFFFFFFF AND DUP2 MSTORE PUSH1 0x20 ADD SWAP1 DUP2 MSTORE PUSH1 0x20 ADD PUSH1 0x0 KECCAK256 PUSH1 0x0 SWAP1 SLOAD SWAP1 PUSH2 0x100 EXP SWAP1 DIV PUSH20 0xFFFFFFFFFFFFFFFFFFFFFFFFFFFFFFFFFFFFFFFF AND PUSH20 0xFFFFFFFFFFFFFFFFFFFFFFFFFFFFFFFFFFFFFFFF AND EQ PUSH3 0x44F JUMPI PUSH1 0x0 DUP1 REVERT JUMPDEST PUSH1 0x0 DUP6 DUP6 SWAP1 POP SWAP1 POP DUP1 DUP5 DUP5 SWAP1 POP EQ PUSH3 0x467 JUMPI PUSH1 0x0 DUP1 REVERT JUMPDEST PUSH1 0x0 JUMPDEST DUP2 DUP2 LT ISZERO PUSH3 0x54E JUMPI DUP8 PUSH20 0xFFFFFFFFFFFFFFFFFFFFFFFFFFFFFFFFFFFFFFFF AND PUSH4 0x7ED8A719 DUP9 DUP9 DUP5 DUP2 DUP2 LT PUSH3 0x4A5 JUMPI PUSH3 0x4A4 PUSH3 0x1868 JUMP JUMPDEST JUMPDEST SWAP1 POP PUSH1 0x20 MUL DUP2 ADD SWAP1 PUSH3 0x4B9 SWAP2 SWAP1 PUSH3 0x18A6 JUMP JUMPDEST DUP9 DUP9 DUP7 DUP2 DUP2 LT PUSH3 0x4CF JUMPI PUSH3 0x4CE PUSH3 0x1868 JUMP JUMPDEST JUMPDEST SWAP1 POP PUSH1 0x20 MUL DUP2 ADD SWAP1 PUSH3 0x4E3 SWAP2 SWAP1 PUSH3 0x18A6 JUMP JUMPDEST PUSH1 0x40 MLOAD DUP6 PUSH4 0xFFFFFFFF AND PUSH1 0xE0 SHL DUP2 MSTORE PUSH1 0x4 ADD PUSH3 0x504 SWAP5 SWAP4 SWAP3 SWAP2 SWAP1 PUSH3 0x1956 JUMP JUMPDEST PUSH1 0x0 PUSH1 0x40 MLOAD DUP1 DUP4 SUB DUP2 PUSH1 0x0 DUP8 DUP1 EXTCODESIZE ISZERO DUP1 ISZERO PUSH3 0x51F JUMPI PUSH1 0x0 DUP1 REVERT JUMPDEST POP GAS CALL ISZERO DUP1 ISZERO PUSH3 0x534 JUMPI RETURNDATASIZE PUSH1 0x0 DUP1 RETURNDATACOPY RETURNDATASIZE PUSH1 0x0 REVERT JUMPDEST POP POP POP POP DUP1 DUP1 PUSH3 0x545 SWAP1 PUSH3 0x19C4 JUMP JUMPDEST SWAP2 POP POP PUSH3 0x46A JUMP JUMPDEST POP POP POP POP POP POP POP POP JUMP JUMPDEST DUP4 CALLER PUSH20 0xFFFFFFFFFFFFFFFFFFFFFFFFFFFFFFFFFFFFFFFF AND PUSH1 0x0 DUP1 DUP4 PUSH20 0xFFFFFFFFFFFFFFFFFFFFFFFFFFFFFFFFFFFFFFFF AND PUSH20 0xFFFFFFFFFFFFFFFFFFFFFFFFFFFFFFFFFFFFFFFF AND DUP2 MSTORE PUSH1 0x20 ADD SWAP1 DUP2 MSTORE PUSH1 0x20 ADD PUSH1 0x0 KECCAK256 PUSH1 0x0 SWAP1 SLOAD SWAP1 PUSH2 0x100 EXP SWAP1 DIV PUSH20 0xFFFFFFFFFFFFFFFFFFFFFFFFFFFFFFFFFFFFFFFF AND PUSH20 0xFFFFFFFFFFFFFFFFFFFFFFFFFFFFFFFFFFFFFFFF AND EQ PUSH3 0x5F0 JUMPI PUSH1 0x0 DUP1 REVERT JUMPDEST PUSH1 0x2 PUSH1 0x0 SWAP1 SLOAD SWAP1 PUSH2 0x100 EXP SWAP1 DIV PUSH20 0xFFFFFFFFFFFFFFFFFFFFFFFFFFFFFFFFFFFFFFFF AND DUP6 DUP6 PUSH1 0x40 MLOAD PUSH3 0x623 SWAP1 PUSH3 0xCD1 JUMP JUMPDEST PUSH3 0x631 SWAP4 SWAP3 SWAP2 SWAP1 PUSH3 0x1CFA JUMP JUMPDEST PUSH1 0x40 MLOAD DUP1 SWAP2 SUB SWAP1 PUSH1 0x0 CREATE DUP1 ISZERO DUP1 ISZERO PUSH3 0x64E JUMPI RETURNDATASIZE PUSH1 0x0 DUP1 RETURNDATACOPY RETURNDATASIZE PUSH1 0x0 REVERT JUMPDEST POP PUSH1 0x3 PUSH1 0x0 PUSH2 0x100 EXP DUP2 SLOAD DUP2 PUSH20 0xFFFFFFFFFFFFFFFFFFFFFFFFFFFFFFFFFFFFFFFF MUL NOT AND SWAP1 DUP4 PUSH20 0xFFFFFFFFFFFFFFFFFFFFFFFFFFFFFFFFFFFFFFFF AND MUL OR SWAP1 SSTORE POP PUSH1 0x0 PUSH1 0x3 PUSH1 0x0 SWAP1 SLOAD SWAP1 PUSH2 0x100 EXP SWAP1 DIV PUSH20 0xFFFFFFFFFFFFFFFFFFFFFFFFFFFFFFFFFFFFFFFF AND SWAP1 POP DUP6 PUSH20 0xFFFFFFFFFFFFFFFFFFFFFFFFFFFFFFFFFFFFFFFF AND PUSH4 0xDEAAF241 DUP7 DUP7 DUP5 DUP8 PUSH1 0x40 MLOAD DUP6 PUSH4 0xFFFFFFFF AND PUSH1 0xE0 SHL DUP2 MSTORE PUSH1 0x4 ADD PUSH3 0x6F7 SWAP5 SWAP4 SWAP3 SWAP2 SWAP1 PUSH3 0x1D37 JUMP JUMPDEST PUSH1 0x0 PUSH1 0x40 MLOAD DUP1 DUP4 SUB DUP2 PUSH1 0x0 DUP8 DUP1 EXTCODESIZE ISZERO DUP1 ISZERO PUSH3 0x712 JUMPI PUSH1 0x0 DUP1 REVERT JUMPDEST POP GAS CALL ISZERO DUP1 ISZERO PUSH3 0x727 JUMPI RETURNDATASIZE PUSH1 0x0 DUP1 RETURNDATACOPY RETURNDATASIZE PUSH1 0x0 REVERT JUMPDEST POP POP POP POP POP POP POP POP POP POP JUMP JUMPDEST DUP2 PUSH1 0x1 PUSH1 0x0 PUSH2 0x100 EXP DUP2 SLOAD DUP2 PUSH20 0xFFFFFFFFFFFFFFFFFFFFFFFFFFFFFFFFFFFFFFFF MUL NOT AND SWAP1 DUP4 PUSH20 0xFFFFFFFFFFFFFFFFFFFFFFFFFFFFFFFFFFFFFFFF AND MUL OR SWAP1 SSTORE POP DUP1 PUSH1 0x2 PUSH1 0x0 PUSH2 0x100 EXP DUP2 SLOAD DUP2 PUSH20 0xFFFFFFFFFFFFFFFFFFFFFFFFFFFFFFFFFFFFFFFF MUL NOT AND SWAP1 DUP4 PUSH20 0xFFFFFFFFFFFFFFFFFFFFFFFFFFFFFFFFFFFFFFFF AND MUL OR SWAP1 SSTORE POP POP POP JUMP JUMPDEST DUP6 CALLER PUSH20 0xFFFFFFFFFFFFFFFFFFFFFFFFFFFFFFFFFFFFFFFF AND PUSH1 0x0 DUP1 DUP4 PUSH20 0xFFFFFFFFFFFFFFFFFFFFFFFFFFFFFFFFFFFFFFFF AND PUSH20 0xFFFFFFFFFFFFFFFFFFFFFFFFFFFFFFFFFFFFFFFF AND DUP2 MSTORE PUSH1 0x20 ADD SWAP1 DUP2 MSTORE PUSH1 0x20 ADD PUSH1 0x0 KECCAK256 PUSH1 0x0 SWAP1 SLOAD SWAP1 PUSH2 0x100 EXP SWAP1 DIV PUSH20 0xFFFFFFFFFFFFFFFFFFFFFFFFFFFFFFFFFFFFFFFF AND PUSH20 0xFFFFFFFFFFFFFFFFFFFFFFFFFFFFFFFFFFFFFFFF AND EQ PUSH3 0x851 JUMPI PUSH1 0x0 DUP1 REVERT JUMPDEST DUP7 PUSH20 0xFFFFFFFFFFFFFFFFFFFFFFFFFFFFFFFFFFFFFFFF AND PUSH4 0x19188BD8 DUP8 DUP8 DUP8 DUP8 DUP8 PUSH1 0x40 MLOAD DUP7 PUSH4 0xFFFFFFFF AND PUSH1 0xE0 SHL DUP2 MSTORE PUSH1 0x4 ADD PUSH3 0x894 SWAP6 SWAP5 SWAP4 SWAP3 SWAP2 SWAP1 PUSH3 0x1EC5 JUMP JUMPDEST PUSH1 0x0 PUSH1 0x40 MLOAD DUP1 DUP4 SUB DUP2 PUSH1 0x0 DUP8 DUP1 EXTCODESIZE ISZERO DUP1 ISZERO PUSH3 0x8AF JUMPI PUSH1 0x0 DUP1 REVERT JUMPDEST POP GAS CALL ISZERO DUP1 ISZERO PUSH3 0x8C4 JUMPI RETURNDATASIZE PUSH1 0x0 DUP1 RETURNDATACOPY RETURNDATASIZE PUSH1 0x0 REVERT JUMPDEST POP POP POP POP POP POP POP POP POP POP POP JUMP JUMPDEST PUSH1 0x1 PUSH1 0x0 SWAP1 SLOAD SWAP1 PUSH2 0x100 EXP SWAP1 DIV PUSH20 0xFFFFFFFFFFFFFFFFFFFFFFFFFFFFFFFFFFFFFFFF AND PUSH20 0xFFFFFFFFFFFFFFFFFFFFFFFFFFFFFFFFFFFFFFFF AND PUSH4 0xC77E6F65 ADDRESS DUP8 DUP8 DUP8 DUP8 DUP8 PUSH1 0x40 MLOAD DUP8 PUSH4 0xFFFFFFFF AND PUSH1 0xE0 SHL DUP2 MSTORE PUSH1 0x4 ADD PUSH3 0x938 SWAP7 SWAP6 SWAP5 SWAP4 SWAP3 SWAP2 SWAP1 PUSH3 0x2038 JUMP JUMPDEST PUSH1 0x0 PUSH1 0x40 MLOAD DUP1 DUP4 SUB DUP2 PUSH1 0x0 DUP8 DUP1 EXTCODESIZE ISZERO DUP1 ISZERO PUSH3 0x953 JUMPI PUSH1 0x0 DUP1 REVERT JUMPDEST POP GAS CALL ISZERO DUP1 ISZERO PUSH3 0x968 JUMPI RETURNDATASIZE PUSH1 0x0 DUP1 RETURNDATACOPY RETURNDATASIZE PUSH1 0x0 REVERT JUMPDEST POP POP POP POP PUSH1 0x0 PUSH1 0x2 PUSH1 0x0 SWAP1 SLOAD SWAP1 PUSH2 0x100 EXP SWAP1 DIV PUSH20 0xFFFFFFFFFFFFFFFFFFFFFFFFFFFFFFFFFFFFFFFF AND PUSH20 0xFFFFFFFFFFFFFFFFFFFFFFFFFFFFFFFFFFFFFFFF AND PUSH4 0x939F3130 DUP8 PUSH1 0x40 MLOAD DUP3 PUSH4 0xFFFFFFFF AND PUSH1 0xE0 SHL DUP2 MSTORE PUSH1 0x4 ADD PUSH3 0x9CB SWAP2 SWAP1 PUSH3 0x20BA JUMP JUMPDEST PUSH1 0x20 PUSH1 0x40 MLOAD DUP1 DUP4 SUB DUP2 DUP7 DUP1 EXTCODESIZE ISZERO DUP1 ISZERO PUSH3 0x9E4 JUMPI PUSH1 0x0 DUP1 REVERT JUMPDEST POP GAS STATICCALL ISZERO DUP1 ISZERO PUSH3 0x9F9 JUMPI RETURNDATASIZE PUSH1 0x0 DUP1 RETURNDATACOPY RETURNDATASIZE PUSH1 0x0 REVERT JUMPDEST POP POP POP POP PUSH1 0x40 MLOAD RETURNDATASIZE PUSH1 0x1F NOT PUSH1 0x1F DUP3 ADD AND DUP3 ADD DUP1 PUSH1 0x40 MSTORE POP DUP2 ADD SWAP1 PUSH3 0xA1F SWAP2 SWAP1 PUSH3 0x20F5 JUMP JUMPDEST SWAP1 POP DUP7 PUSH1 0x0 DUP1 DUP4 PUSH20 0xFFFFFFFFFFFFFFFFFFFFFFFFFFFFFFFFFFFFFFFF AND PUSH20 0xFFFFFFFFFFFFFFFFFFFFFFFFFFFFFFFFFFFFFFFF AND DUP2 MSTORE PUSH1 0x20 ADD SWAP1 DUP2 MSTORE PUSH1 0x20 ADD PUSH1 0x0 KECCAK256 PUSH1 0x0 PUSH2 0x100 EXP DUP2 SLOAD DUP2 PUSH20 0xFFFFFFFFFFFFFFFFFFFFFFFFFFFFFFFFFFFFFFFF MUL NOT AND SWAP1 DUP4 PUSH20 0xFFFFFFFFFFFFFFFFFFFFFFFFFFFFFFFFFFFFFFFF AND MUL OR SWAP1 SSTORE POP POP POP POP POP POP POP POP JUMP JUMPDEST DUP5 CALLER PUSH20 0xFFFFFFFFFFFFFFFFFFFFFFFFFFFFFFFFFFFFFFFF AND PUSH1 0x0 DUP1 DUP4 PUSH20 0xFFFFFFFFFFFFFFFFFFFFFFFFFFFFFFFFFFFFFFFF AND PUSH20 0xFFFFFFFFFFFFFFFFFFFFFFFFFFFFFFFFFFFFFFFF AND DUP2 MSTORE PUSH1 0x20 ADD SWAP1 DUP2 MSTORE PUSH1 0x20 ADD PUSH1 0x0 KECCAK256 PUSH1 0x0 SWAP1 SLOAD SWAP1 PUSH2 0x100 EXP SWAP1 DIV PUSH20 0xFFFFFFFFFFFFFFFFFFFFFFFFFFFFFFFFFFFFFFFF AND PUSH20 0xFFFFFFFFFFFFFFFFFFFFFFFFFFFFFFFFFFFFFFFF AND EQ PUSH3 0xB3F JUMPI PUSH1 0x0 DUP1 REVERT JUMPDEST DUP6 PUSH20 0xFFFFFFFFFFFFFFFFFFFFFFFFFFFFFFFFFFFFFFFF AND PUSH4 0x7ED8A719 DUP7 DUP7 DUP7 DUP7 PUSH1 0x40 MLOAD DUP6 PUSH4 0xFFFFFFFF AND PUSH1 0xE0 SHL DUP2 MSTORE PUSH1 0x4 ADD PUSH3 0xB80 SWAP5 SWAP4 SWAP3 SWAP2 SWAP1 PUSH3 0x1956 JUMP JUMPDEST PUSH1 0x0 PUSH1 0x40 MLOAD DUP1 DUP4 SUB DUP2 PUSH1 0x0 DUP8 DUP1 EXTCODESIZE ISZERO DUP1 ISZERO PUSH3 0xB9B JUMPI PUSH1 0x0 DUP1 REVERT JUMPDEST POP GAS CALL ISZERO DUP1 ISZERO PUSH3 0xBB0 JUMPI RETURNDATASIZE PUSH1 0x0 DUP1 RETURNDATACOPY RETURNDATASIZE PUSH1 0x0 REVERT JUMPDEST POP POP POP POP POP POP POP POP POP POP JUMP JUMPDEST DUP5 CALLER PUSH20 0xFFFFFFFFFFFFFFFFFFFFFFFFFFFFFFFFFFFFFFFF AND PUSH1 0x0 DUP1 DUP4 PUSH20 0xFFFFFFFFFFFFFFFFFFFFFFFFFFFFFFFFFFFFFFFF AND PUSH20 0xFFFFFFFFFFFFFFFFFFFFFFFFFFFFFFFFFFFFFFFF AND DUP2 MSTORE PUSH1 0x20 ADD SWAP1 DUP2 MSTORE PUSH1 0x20 ADD PUSH1 0x0 KECCAK256 PUSH1 0x0 SWAP1 SLOAD SWAP1 PUSH2 0x100 EXP SWAP1 DIV PUSH20 0xFFFFFFFFFFFFFFFFFFFFFFFFFFFFFFFFFFFFFFFF AND PUSH20 0xFFFFFFFFFFFFFFFFFFFFFFFFFFFFFFFFFFFFFFFF AND EQ PUSH3 0xC54 JUMPI PUSH1 0x0 DUP1 REVERT JUMPDEST DUP6 PUSH20 0xFFFFFFFFFFFFFFFFFFFFFFFFFFFFFFFFFFFFFFFF AND PUSH4 0x695C27C2 DUP7 DUP7 DUP7 DUP7 PUSH1 0x40 MLOAD DUP6 PUSH4 0xFFFFFFFF AND PUSH1 0xE0 SHL DUP2 MSTORE PUSH1 0x4 ADD PUSH3 0xC95 SWAP5 SWAP4 SWAP3 SWAP2 SWAP1 PUSH3 0x2138 JUMP JUMPDEST PUSH1 0x0 PUSH1 0x40 MLOAD DUP1 DUP4 SUB DUP2 PUSH1 0x0 DUP8 DUP1 EXTCODESIZE ISZERO DUP1 ISZERO PUSH3 0xCB0 JUMPI PUSH1 0x0 DUP1 REVERT JUMPDEST POP GAS CALL ISZERO DUP1 ISZERO PUSH3 0xCC5 JUMPI RETURNDATASIZE PUSH1 0x0 DUP1 RETURNDATACOPY RETURNDATASIZE PUSH1 0x0 REVERT JUMPDEST POP POP POP POP POP POP POP POP POP POP JUMP JUMPDEST PUSH2 0x8A2 DUP1 PUSH3 0x2186 DUP4 CODECOPY ADD SWAP1 JUMP JUMPDEST PUSH1 0x0 PUSH1 0x40 MLOAD SWAP1 POP SWAP1 JUMP JUMPDEST PUSH1 0x0 DUP1 REVERT JUMPDEST PUSH1 0x0 DUP1 REVERT JUMPDEST PUSH1 0x0 PUSH20 0xFFFFFFFFFFFFFFFFFFFFFFFFFFFFFFFFFFFFFFFF DUP3 AND SWAP1 POP SWAP2 SWAP1 POP JUMP JUMPDEST PUSH1 0x0 PUSH3 0xD20 DUP3 PUSH3 0xCF3 JUMP JUMPDEST SWAP1 POP SWAP2 SWAP1 POP JUMP JUMPDEST PUSH3 0xD32 DUP2 PUSH3 0xD13 JUMP JUMPDEST DUP2 EQ PUSH3 0xD3E JUMPI PUSH1 0x0 DUP1 REVERT JUMPDEST POP JUMP JUMPDEST PUSH1 0x0 DUP2 CALLDATALOAD SWAP1 POP PUSH3 0xD52 DUP2 PUSH3 0xD27 JUMP JUMPDEST SWAP3 SWAP2 POP POP JUMP JUMPDEST PUSH1 0x0 DUP1 REVERT JUMPDEST PUSH1 0x0 DUP1 REVERT JUMPDEST PUSH1 0x0 DUP1 REVERT JUMPDEST PUSH1 0x0 DUP1 DUP4 PUSH1 0x1F DUP5 ADD SLT PUSH3 0xD80 JUMPI PUSH3 0xD7F PUSH3 0xD58 JUMP JUMPDEST JUMPDEST DUP3 CALLDATALOAD SWAP1 POP PUSH8 0xFFFFFFFFFFFFFFFF DUP2 GT ISZERO PUSH3 0xDA0 JUMPI PUSH3 0xD9F PUSH3 0xD5D JUMP JUMPDEST JUMPDEST PUSH1 0x20 DUP4 ADD SWAP2 POP DUP4 PUSH1 0x20 DUP3 MUL DUP4 ADD GT ISZERO PUSH3 0xDBF JUMPI PUSH3 0xDBE PUSH3 0xD62 JUMP JUMPDEST JUMPDEST SWAP3 POP SWAP3 SWAP1 POP JUMP JUMPDEST PUSH1 0x0 DUP1 DUP4 PUSH1 0x1F DUP5 ADD SLT PUSH3 0xDDF JUMPI PUSH3 0xDDE PUSH3 0xD58 JUMP JUMPDEST JUMPDEST DUP3 CALLDATALOAD SWAP1 POP PUSH8 0xFFFFFFFFFFFFFFFF DUP2 GT ISZERO PUSH3 0xDFF JUMPI PUSH3 0xDFE PUSH3 0xD5D JUMP JUMPDEST JUMPDEST PUSH1 0x20 DUP4 ADD SWAP2 POP DUP4 PUSH1 0x1 DUP3 MUL DUP4 ADD GT ISZERO PUSH3 0xE1E JUMPI PUSH3 0xE1D PUSH3 0xD62 JUMP JUMPDEST JUMPDEST SWAP3 POP SWAP3 SWAP1 POP JUMP JUMPDEST PUSH1 0x0 DUP2 SWAP1 POP SWAP2 SWAP1 POP JUMP JUMPDEST PUSH3 0xE3A DUP2 PUSH3 0xE25 JUMP JUMPDEST DUP2 EQ PUSH3 0xE46 JUMPI PUSH1 0x0 DUP1 REVERT JUMPDEST POP JUMP JUMPDEST PUSH1 0x0 DUP2 CALLDATALOAD SWAP1 POP PUSH3 0xE5A DUP2 PUSH3 0xE2F JUMP JUMPDEST SWAP3 SWAP2 POP POP JUMP JUMPDEST PUSH1 0x0 PUSH1 0x1F NOT PUSH1 0x1F DUP4 ADD AND SWAP1 POP SWAP2 SWAP1 POP JUMP JUMPDEST PUSH32 0x4E487B7100000000000000000000000000000000000000000000000000000000 PUSH1 0x0 MSTORE PUSH1 0x41 PUSH1 0x4 MSTORE PUSH1 0x24 PUSH1 0x0 REVERT JUMPDEST PUSH3 0xEAB DUP3 PUSH3 0xE60 JUMP JUMPDEST DUP2 ADD DUP2 DUP2 LT PUSH8 0xFFFFFFFFFFFFFFFF DUP3 GT OR ISZERO PUSH3 0xECD JUMPI PUSH3 0xECC PUSH3 0xE71 JUMP JUMPDEST JUMPDEST DUP1 PUSH1 0x40 MSTORE POP POP POP JUMP JUMPDEST PUSH1 0x0 PUSH3 0xEE2 PUSH3 0xCDF JUMP JUMPDEST SWAP1 POP PUSH3 0xEF0 DUP3 DUP3 PUSH3 0xEA0 JUMP JUMPDEST SWAP2 SWAP1 POP JUMP JUMPDEST PUSH1 0x0 PUSH8 0xFFFFFFFFFFFFFFFF DUP3 GT ISZERO PUSH3 0xF13 JUMPI PUSH3 0xF12 PUSH3 0xE71 JUMP JUMPDEST JUMPDEST PUSH1 0x20 DUP3 MUL SWAP1 POP PUSH1 0x20 DUP2 ADD SWAP1 POP SWAP2 SWAP1 POP JUMP JUMPDEST PUSH1 0x0 PUSH3 0xF3B PUSH3 0xF35 DUP5 PUSH3 0xEF5 JUMP JUMPDEST PUSH3 0xED6 JUMP JUMPDEST SWAP1 POP DUP1 DUP4 DUP3 MSTORE PUSH1 0x20 DUP3 ADD SWAP1 POP PUSH1 0x20 DUP5 MUL DUP4 ADD DUP6 DUP2 GT ISZERO PUSH3 0xF61 JUMPI PUSH3 0xF60 PUSH3 0xD62 JUMP JUMPDEST JUMPDEST DUP4 JUMPDEST DUP2 DUP2 LT ISZERO PUSH3 0xF8E JUMPI DUP1 PUSH3 0xF79 DUP9 DUP3 PUSH3 0xE49 JUMP JUMPDEST DUP5 MSTORE PUSH1 0x20 DUP5 ADD SWAP4 POP POP PUSH1 0x20 DUP2 ADD SWAP1 POP PUSH3 0xF63 JUMP JUMPDEST POP POP POP SWAP4 SWAP3 POP POP POP JUMP JUMPDEST PUSH1 0x0 DUP3 PUSH1 0x1F DUP4 ADD SLT PUSH3 0xFB0 JUMPI PUSH3 0xFAF PUSH3 0xD58 JUMP JUMPDEST JUMPDEST DUP2 CALLDATALOAD PUSH3 0xFC2 DUP5 DUP3 PUSH1 0x20 DUP7 ADD PUSH3 0xF24 JUMP JUMPDEST SWAP2 POP POP SWAP3 SWAP2 POP POP JUMP JUMPDEST PUSH1 0x0 DUP1 PUSH1 0x0 DUP1 PUSH1 0x0 DUP1 PUSH1 0x0 DUP1 PUSH1 0x0 PUSH1 0xC0 DUP11 DUP13 SUB SLT ISZERO PUSH3 0xFF0 JUMPI PUSH3 0xFEF PUSH3 0xCE9 JUMP JUMPDEST JUMPDEST PUSH1 0x0 PUSH3 0x1000 DUP13 DUP3 DUP14 ADD PUSH3 0xD41 JUMP JUMPDEST SWAP10 POP POP PUSH1 0x20 DUP11 ADD CALLDATALOAD PUSH8 0xFFFFFFFFFFFFFFFF DUP2 GT ISZERO PUSH3 0x1024 JUMPI PUSH3 0x1023 PUSH3 0xCEE JUMP JUMPDEST JUMPDEST PUSH3 0x1032 DUP13 DUP3 DUP14 ADD PUSH3 0xD67 JUMP JUMPDEST SWAP9 POP SWAP9 POP POP PUSH1 0x40 DUP11 ADD CALLDATALOAD PUSH8 0xFFFFFFFFFFFFFFFF DUP2 GT ISZERO PUSH3 0x1058 JUMPI PUSH3 0x1057 PUSH3 0xCEE JUMP JUMPDEST JUMPDEST PUSH3 0x1066 DUP13 DUP3 DUP14 ADD PUSH3 0xD67 JUMP JUMPDEST SWAP7 POP SWAP7 POP POP PUSH1 0x60 DUP11 ADD CALLDATALOAD PUSH8 0xFFFFFFFFFFFFFFFF DUP2 GT ISZERO PUSH3 0x108C JUMPI PUSH3 0x108B PUSH3 0xCEE JUMP JUMPDEST JUMPDEST PUSH3 0x109A DUP13 DUP3 DUP14 ADD PUSH3 0xDC6 JUMP JUMPDEST SWAP5 POP SWAP5 POP POP PUSH1 0x80 PUSH3 0x10AF DUP13 DUP3 DUP14 ADD PUSH3 0xE49 JUMP JUMPDEST SWAP3 POP POP PUSH1 0xA0 DUP11 ADD CALLDATALOAD PUSH8 0xFFFFFFFFFFFFFFFF DUP2 GT ISZERO PUSH3 0x10D3 JUMPI PUSH3 0x10D2 PUSH3 0xCEE JUMP JUMPDEST JUMPDEST PUSH3 0x10E1 DUP13 DUP3 DUP14 ADD PUSH3 0xF98 JUMP JUMPDEST SWAP2 POP POP SWAP3 SWAP6 SWAP9 POP SWAP3 SWAP6 SWAP9 POP SWAP3 SWAP6 SWAP9 JUMP JUMPDEST PUSH1 0x0 DUP1 PUSH1 0x0 DUP1 PUSH1 0x0 PUSH1 0x60 DUP7 DUP9 SUB SLT ISZERO PUSH3 0x1110 JUMPI PUSH3 0x110F PUSH3 0xCE9 JUMP JUMPDEST JUMPDEST PUSH1 0x0 PUSH3 0x1120 DUP9 DUP3 DUP10 ADD PUSH3 0xD41 JUMP JUMPDEST SWAP6 POP POP PUSH1 0x20 DUP7 ADD CALLDATALOAD PUSH8 0xFFFFFFFFFFFFFFFF DUP2 GT ISZERO PUSH3 0x1144 JUMPI PUSH3 0x1143 PUSH3 0xCEE JUMP JUMPDEST JUMPDEST PUSH3 0x1152 DUP9 DUP3 DUP10 ADD PUSH3 0xD67 JUMP JUMPDEST SWAP5 POP SWAP5 POP POP PUSH1 0x40 DUP7 ADD CALLDATALOAD PUSH8 0xFFFFFFFFFFFFFFFF DUP2 GT ISZERO PUSH3 0x1178 JUMPI PUSH3 0x1177 PUSH3 0xCEE JUMP JUMPDEST JUMPDEST PUSH3 0x1186 DUP9 DUP3 DUP10 ADD PUSH3 0xD67 JUMP JUMPDEST SWAP3 POP SWAP3 POP POP SWAP3 SWAP6 POP SWAP3 SWAP6 SWAP1 SWAP4 POP JUMP JUMPDEST PUSH1 0x0 DUP2 SWAP1 POP SWAP2 SWAP1 POP JUMP JUMPDEST PUSH3 0x11AA DUP2 PUSH3 0x1195 JUMP JUMPDEST DUP2 EQ PUSH3 0x11B6 JUMPI PUSH1 0x0 DUP1 REVERT JUMPDEST POP JUMP JUMPDEST PUSH1 0x0 DUP2 CALLDATALOAD SWAP1 POP PUSH3 0x11CA DUP2 PUSH3 0x119F JUMP JUMPDEST SWAP3 SWAP2 POP POP JUMP JUMPDEST PUSH1 0x0 DUP1 PUSH1 0x0 DUP1 PUSH1 0x80 DUP6 DUP8 SUB SLT ISZERO PUSH3 0x11ED JUMPI PUSH3 0x11EC PUSH3 0xCE9 JUMP JUMPDEST JUMPDEST PUSH1 0x0 PUSH3 0x11FD DUP8 DUP3 DUP9 ADD PUSH3 0xD41 JUMP JUMPDEST SWAP5 POP POP PUSH1 0x20 PUSH3 0x1210 DUP8 DUP3 DUP9 ADD PUSH3 0x11B9 JUMP JUMPDEST SWAP4 POP POP PUSH1 0x40 PUSH3 0x1223 DUP8 DUP3 DUP9 ADD PUSH3 0xD41 JUMP JUMPDEST SWAP3 POP POP PUSH1 0x60 PUSH3 0x1236 DUP8 DUP3 DUP9 ADD PUSH3 0xD41 JUMP JUMPDEST SWAP2 POP POP SWAP3 SWAP6 SWAP2 SWAP5 POP SWAP3 POP JUMP JUMPDEST PUSH1 0x0 DUP1 PUSH1 0x40 DUP4 DUP6 SUB SLT ISZERO PUSH3 0x125C JUMPI PUSH3 0x125B PUSH3 0xCE9 JUMP JUMPDEST JUMPDEST PUSH1 0x0 PUSH3 0x126C DUP6 DUP3 DUP7 ADD PUSH3 0xD41 JUMP JUMPDEST SWAP3 POP POP PUSH1 0x20 PUSH3 0x127F DUP6 DUP3 DUP7 ADD PUSH3 0xD41 JUMP JUMPDEST SWAP2 POP POP SWAP3 POP SWAP3 SWAP1 POP JUMP JUMPDEST PUSH1 0x0 PUSH8 0xFFFFFFFFFFFFFFFF DUP3 GT ISZERO PUSH3 0x12A7 JUMPI PUSH3 0x12A6 PUSH3 0xE71 JUMP JUMPDEST JUMPDEST PUSH1 0x20 DUP3 MUL SWAP1 POP PUSH1 0x20 DUP2 ADD SWAP1 POP SWAP2 SWAP1 POP JUMP JUMPDEST PUSH1 0x0 DUP1 REVERT JUMPDEST PUSH1 0x0 PUSH8 0xFFFFFFFFFFFFFFFF DUP3 GT ISZERO PUSH3 0x12DB JUMPI PUSH3 0x12DA PUSH3 0xE71 JUMP JUMPDEST JUMPDEST PUSH3 0x12E6 DUP3 PUSH3 0xE60 JUMP JUMPDEST SWAP1 POP PUSH1 0x20 DUP2 ADD SWAP1 POP SWAP2 SWAP1 POP JUMP JUMPDEST DUP3 DUP2 DUP4 CALLDATACOPY PUSH1 0x0 DUP4 DUP4 ADD MSTORE POP POP POP JUMP JUMPDEST PUSH1 0x0 PUSH3 0x1319 PUSH3 0x1313 DUP5 PUSH3 0x12BD JUMP JUMPDEST PUSH3 0xED6 JUMP JUMPDEST SWAP1 POP DUP3 DUP2 MSTORE PUSH1 0x20 DUP2 ADD DUP5 DUP5 DUP5 ADD GT ISZERO PUSH3 0x1338 JUMPI PUSH3 0x1337 PUSH3 0x12B8 JUMP JUMPDEST JUMPDEST PUSH3 0x1345 DUP5 DUP3 DUP6 PUSH3 0x12F3 JUMP JUMPDEST POP SWAP4 SWAP3 POP POP POP JUMP JUMPDEST PUSH1 0x0 DUP3 PUSH1 0x1F DUP4 ADD SLT PUSH3 0x1365 JUMPI PUSH3 0x1364 PUSH3 0xD58 JUMP JUMPDEST JUMPDEST DUP2 CALLDATALOAD PUSH3 0x1377 DUP5 DUP3 PUSH1 0x20 DUP7 ADD PUSH3 0x1302 JUMP JUMPDEST SWAP2 POP POP SWAP3 SWAP2 POP POP JUMP JUMPDEST PUSH1 0x0 PUSH3 0x1397 PUSH3 0x1391 DUP5 PUSH3 0x1289 JUMP JUMPDEST PUSH3 0xED6 JUMP JUMPDEST SWAP1 POP DUP1 DUP4 DUP3 MSTORE PUSH1 0x20 DUP3 ADD SWAP1 POP PUSH1 0x20 DUP5 MUL DUP4 ADD DUP6 DUP2 GT ISZERO PUSH3 0x13BD JUMPI PUSH3 0x13BC PUSH3 0xD62 JUMP JUMPDEST JUMPDEST DUP4 JUMPDEST DUP2 DUP2 LT ISZERO PUSH3 0x140B JUMPI DUP1 CALLDATALOAD PUSH8 0xFFFFFFFFFFFFFFFF DUP2 GT ISZERO PUSH3 0x13E6 JUMPI PUSH3 0x13E5 PUSH3 0xD58 JUMP JUMPDEST JUMPDEST DUP1 DUP7 ADD PUSH3 0x13F5 DUP10 DUP3 PUSH3 0x134D JUMP JUMPDEST DUP6 MSTORE PUSH1 0x20 DUP6 ADD SWAP5 POP POP POP PUSH1 0x20 DUP2 ADD SWAP1 POP PUSH3 0x13BF JUMP JUMPDEST POP POP POP SWAP4 SWAP3 POP POP POP JUMP JUMPDEST PUSH1 0x0 DUP3 PUSH1 0x1F DUP4 ADD SLT PUSH3 0x142D JUMPI PUSH3 0x142C PUSH3 0xD58 JUMP JUMPDEST JUMPDEST DUP2 CALLDATALOAD PUSH3 0x143F DUP5 DUP3 PUSH1 0x20 DUP7 ADD PUSH3 0x1380 JUMP JUMPDEST SWAP2 POP POP SWAP3 SWAP2 POP POP JUMP JUMPDEST PUSH1 0x0 DUP1 PUSH1 0x0 DUP1 PUSH1 0x0 DUP1 PUSH1 0xA0 DUP8 DUP10 SUB SLT ISZERO PUSH3 0x1468 JUMPI PUSH3 0x1467 PUSH3 0xCE9 JUMP JUMPDEST JUMPDEST PUSH1 0x0 PUSH3 0x1478 DUP10 DUP3 DUP11 ADD PUSH3 0xD41 JUMP JUMPDEST SWAP7 POP POP PUSH1 0x20 DUP8 ADD CALLDATALOAD PUSH8 0xFFFFFFFFFFFFFFFF DUP2 GT ISZERO PUSH3 0x149C JUMPI PUSH3 0x149B PUSH3 0xCEE JUMP JUMPDEST JUMPDEST PUSH3 0x14AA DUP10 DUP3 DUP11 ADD PUSH3 0xDC6 JUMP JUMPDEST SWAP6 POP SWAP6 POP POP PUSH1 0x40 PUSH3 0x14BF DUP10 DUP3 DUP11 ADD PUSH3 0xE49 JUMP JUMPDEST SWAP4 POP POP PUSH1 0x60 DUP8 ADD CALLDATALOAD PUSH8 0xFFFFFFFFFFFFFFFF DUP2 GT ISZERO PUSH3 0x14E3 JUMPI PUSH3 0x14E2 PUSH3 0xCEE JUMP JUMPDEST JUMPDEST PUSH3 0x14F1 DUP10 DUP3 DUP11 ADD PUSH3 0x1415 JUMP JUMPDEST SWAP3 POP POP PUSH1 0x80 DUP8 ADD CALLDATALOAD PUSH8 0xFFFFFFFFFFFFFFFF DUP2 GT ISZERO PUSH3 0x1515 JUMPI PUSH3 0x1514 PUSH3 0xCEE JUMP JUMPDEST JUMPDEST PUSH3 0x1523 DUP10 DUP3 DUP11 ADD PUSH3 0xF98 JUMP JUMPDEST SWAP2 POP POP SWAP3 SWAP6 POP SWAP3 SWAP6 POP SWAP3 SWAP6 JUMP JUMPDEST PUSH1 0x0 PUSH8 0xFFFFFFFFFFFFFFFF DUP3 GT ISZERO PUSH3 0x154E JUMPI PUSH3 0x154D PUSH3 0xE71 JUMP JUMPDEST JUMPDEST PUSH1 0x20 DUP3 MUL SWAP1 POP PUSH1 0x20 DUP2 ADD SWAP1 POP SWAP2 SWAP1 POP JUMP JUMPDEST PUSH1 0x0 PUSH3 0x1576 PUSH3 0x1570 DUP5 PUSH3 0x1530 JUMP JUMPDEST PUSH3 0xED6 JUMP JUMPDEST SWAP1 POP DUP1 DUP4 DUP3 MSTORE PUSH1 0x20 DUP3 ADD SWAP1 POP PUSH1 0x20 DUP5 MUL DUP4 ADD DUP6 DUP2 GT ISZERO PUSH3 0x159C JUMPI PUSH3 0x159B PUSH3 0xD62 JUMP JUMPDEST JUMPDEST DUP4 JUMPDEST DUP2 DUP2 LT ISZERO PUSH3 0x15C9 JUMPI DUP1 PUSH3 0x15B4 DUP9 DUP3 PUSH3 0x11B9 JUMP JUMPDEST DUP5 MSTORE PUSH1 0x20 DUP5 ADD SWAP4 POP POP PUSH1 0x20 DUP2 ADD SWAP1 POP PUSH3 0x159E JUMP JUMPDEST POP POP POP SWAP4 SWAP3 POP POP POP JUMP JUMPDEST PUSH1 0x0 DUP3 PUSH1 0x1F DUP4 ADD SLT PUSH3 0x15EB JUMPI PUSH3 0x15EA PUSH3 0xD58 JUMP JUMPDEST JUMPDEST DUP2 CALLDATALOAD PUSH3 0x15FD DUP5 DUP3 PUSH1 0x20 DUP7 ADD PUSH3 0x155F JUMP JUMPDEST SWAP2 POP POP SWAP3 SWAP2 POP POP JUMP JUMPDEST PUSH1 0x0 DUP1 PUSH1 0x0 DUP1 PUSH1 0x0 DUP1 PUSH1 0xC0 DUP8 DUP10 SUB SLT ISZERO PUSH3 0x1626 JUMPI PUSH3 0x1625 PUSH3 0xCE9 JUMP JUMPDEST JUMPDEST PUSH1 0x0 PUSH3 0x1636 DUP10 DUP3 DUP11 ADD PUSH3 0xD41 JUMP JUMPDEST SWAP7 POP POP PUSH1 0x20 DUP8 ADD CALLDATALOAD PUSH8 0xFFFFFFFFFFFFFFFF DUP2 GT ISZERO PUSH3 0x165A JUMPI PUSH3 0x1659 PUSH3 0xCEE JUMP JUMPDEST JUMPDEST PUSH3 0x1668 DUP10 DUP3 DUP11 ADD PUSH3 0x134D JUMP JUMPDEST SWAP6 POP POP PUSH1 0x40 PUSH3 0x167B DUP10 DUP3 DUP11 ADD PUSH3 0x11B9 JUMP JUMPDEST SWAP5 POP POP PUSH1 0x60 DUP8 ADD CALLDATALOAD PUSH8 0xFFFFFFFFFFFFFFFF DUP2 GT ISZERO PUSH3 0x169F JUMPI PUSH3 0x169E PUSH3 0xCEE JUMP JUMPDEST JUMPDEST PUSH3 0x16AD DUP10 DUP3 DUP11 ADD PUSH3 0x134D JUMP JUMPDEST SWAP4 POP POP PUSH1 0x80 DUP8 ADD CALLDATALOAD PUSH8 0xFFFFFFFFFFFFFFFF DUP2 GT ISZERO PUSH3 0x16D1 JUMPI PUSH3 0x16D0 PUSH3 0xCEE JUMP JUMPDEST JUMPDEST PUSH3 0x16DF DUP10 DUP3 DUP11 ADD PUSH3 0x15D3 JUMP JUMPDEST SWAP3 POP POP PUSH1 0xA0 PUSH3 0x16F2 DUP10 DUP3 DUP11 ADD PUSH3 0xE49 JUMP JUMPDEST SWAP2 POP POP SWAP3 SWAP6 POP SWAP3 SWAP6 POP SWAP3 SWAP6 JUMP JUMPDEST PUSH1 0x0 DUP1 PUSH1 0x0 DUP1 PUSH1 0x0 PUSH1 0x60 DUP7 DUP9 SUB SLT ISZERO PUSH3 0x171E JUMPI PUSH3 0x171D PUSH3 0xCE9 JUMP JUMPDEST JUMPDEST PUSH1 0x0 PUSH3 0x172E DUP9 DUP3 DUP10 ADD PUSH3 0xD41 JUMP JUMPDEST SWAP6 POP POP PUSH1 0x20 DUP7 ADD CALLDATALOAD PUSH8 0xFFFFFFFFFFFFFFFF DUP2 GT ISZERO PUSH3 0x1752 JUMPI PUSH3 0x1751 PUSH3 0xCEE JUMP JUMPDEST JUMPDEST PUSH3 0x1760 DUP9 DUP3 DUP10 ADD PUSH3 0xDC6 JUMP JUMPDEST SWAP5 POP SWAP5 POP POP PUSH1 0x40 DUP7 ADD CALLDATALOAD PUSH8 0xFFFFFFFFFFFFFFFF DUP2 GT ISZERO PUSH3 0x1786 JUMPI PUSH3 0x1785 PUSH3 0xCEE JUMP JUMPDEST JUMPDEST PUSH3 0x1794 DUP9 DUP3 DUP10 ADD PUSH3 0xDC6 JUMP JUMPDEST SWAP3 POP SWAP3 POP POP SWAP3 SWAP6 POP SWAP3 SWAP6 SWAP1 SWAP4 POP JUMP JUMPDEST PUSH1 0x0 DUP2 ISZERO ISZERO SWAP1 POP SWAP2 SWAP1 POP JUMP JUMPDEST PUSH3 0x17BA DUP2 PUSH3 0x17A3 JUMP JUMPDEST DUP2 EQ PUSH3 0x17C6 JUMPI PUSH1 0x0 DUP1 REVERT JUMPDEST POP JUMP JUMPDEST PUSH1 0x0 DUP2 CALLDATALOAD SWAP1 POP PUSH3 0x17DA DUP2 PUSH3 0x17AF JUMP JUMPDEST SWAP3 SWAP2 POP POP JUMP JUMPDEST PUSH1 0x0 DUP1 PUSH1 0x0 DUP1 PUSH1 0x0 PUSH1 0xA0 DUP7 DUP9 SUB SLT ISZERO PUSH3 0x17FF JUMPI PUSH3 0x17FE PUSH3 0xCE9 JUMP JUMPDEST JUMPDEST PUSH1 0x0 PUSH3 0x180F DUP9 DUP3 DUP10 ADD PUSH3 0xD41 JUMP JUMPDEST SWAP6 POP POP PUSH1 0x20 PUSH3 0x1822 DUP9 DUP3 DUP10 ADD PUSH3 0xE49 JUMP JUMPDEST SWAP5 POP POP PUSH1 0x40 PUSH3 0x1835 DUP9 DUP3 DUP10 ADD PUSH3 0xE49 JUMP JUMPDEST SWAP4 POP POP PUSH1 0x60 PUSH3 0x1848 DUP9 DUP3 DUP10 ADD PUSH3 0xE49 JUMP JUMPDEST SWAP3 POP POP PUSH1 0x80 PUSH3 0x185B DUP9 DUP3 DUP10 ADD PUSH3 0x17C9 JUMP JUMPDEST SWAP2 POP POP SWAP3 SWAP6 POP SWAP3 SWAP6 SWAP1 SWAP4 POP JUMP JUMPDEST PUSH32 0x4E487B7100000000000000000000000000000000000000000000000000000000 PUSH1 0x0 MSTORE PUSH1 0x32 PUSH1 0x4 MSTORE PUSH1 0x24 PUSH1 0x0 REVERT JUMPDEST PUSH1 0x0 DUP1 REVERT JUMPDEST PUSH1 0x0 DUP1 REVERT JUMPDEST PUSH1 0x0 DUP1 REVERT JUMPDEST PUSH1 0x0 DUP1 DUP4 CALLDATALOAD PUSH1 0x1 PUSH1 0x20 SUB DUP5 CALLDATASIZE SUB SUB DUP2 SLT PUSH3 0x18C6 JUMPI PUSH3 0x18C5 PUSH3 0x1897 JUMP JUMPDEST JUMPDEST DUP1 DUP5 ADD SWAP3 POP DUP3 CALLDATALOAD SWAP2 POP PUSH8 0xFFFFFFFFFFFFFFFF DUP3 GT ISZERO PUSH3 0x18EB JUMPI PUSH3 0x18EA PUSH3 0x189C JUMP JUMPDEST JUMPDEST PUSH1 0x20 DUP4 ADD SWAP3 POP PUSH1 0x1 DUP3 MUL CALLDATASIZE SUB DUP4 SGT ISZERO PUSH3 0x190A JUMPI PUSH3 0x1909 PUSH3 0x18A1 JUMP JUMPDEST JUMPDEST POP SWAP3 POP SWAP3 SWAP1 POP JUMP JUMPDEST PUSH1 0x0 DUP3 DUP3 MSTORE PUSH1 0x20 DUP3 ADD SWAP1 POP SWAP3 SWAP2 POP POP JUMP JUMPDEST PUSH1 0x0 PUSH3 0x1931 DUP4 DUP6 PUSH3 0x1912 JUMP JUMPDEST SWAP4 POP PUSH3 0x1940 DUP4 DUP6 DUP5 PUSH3 0x12F3 JUMP JUMPDEST PUSH3 0x194B DUP4 PUSH3 0xE60 JUMP JUMPDEST DUP5 ADD SWAP1 POP SWAP4 SWAP3 POP POP POP JUMP JUMPDEST PUSH1 0x0 PUSH1 0x40 DUP3 ADD SWAP1 POP DUP2 DUP2 SUB PUSH1 0x0 DUP4 ADD MSTORE PUSH3 0x1973 DUP2 DUP7 DUP9 PUSH3 0x1923 JUMP JUMPDEST SWAP1 POP DUP2 DUP2 SUB PUSH1 0x20 DUP4 ADD MSTORE PUSH3 0x198A DUP2 DUP5 DUP7 PUSH3 0x1923 JUMP JUMPDEST SWAP1 POP SWAP6 SWAP5 POP POP POP POP POP JUMP JUMPDEST PUSH32 0x4E487B7100000000000000000000000000000000000000000000000000000000 PUSH1 0x0 MSTORE PUSH1 0x11 PUSH1 0x4 MSTORE PUSH1 0x24 PUSH1 0x0 REVERT JUMPDEST PUSH1 0x0 PUSH3 0x19D1 DUP3 PUSH3 0xE25 JUMP JUMPDEST SWAP2 POP PUSH32 0xFFFFFFFFFFFFFFFFFFFFFFFFFFFFFFFFFFFFFFFFFFFFFFFFFFFFFFFFFFFFFFFF DUP3 EQ ISZERO PUSH3 0x1A07 JUMPI PUSH3 0x1A06 PUSH3 0x1995 JUMP JUMPDEST JUMPDEST PUSH1 0x1 DUP3 ADD SWAP1 POP SWAP2 SWAP1 POP JUMP JUMPDEST PUSH3 0x1A1D DUP2 PUSH3 0xE25 JUMP JUMPDEST DUP3 MSTORE POP POP JUMP JUMPDEST PUSH1 0x0 DUP3 DUP3 MSTORE PUSH1 0x20 DUP3 ADD SWAP1 POP SWAP3 SWAP2 POP POP JUMP JUMPDEST PUSH1 0x0 DUP2 SWAP1 POP SWAP2 SWAP1 POP JUMP JUMPDEST PUSH1 0x0 DUP3 DUP3 MSTORE PUSH1 0x20 DUP3 ADD SWAP1 POP SWAP3 SWAP2 POP POP JUMP JUMPDEST PUSH1 0x0 PUSH3 0x1A5D DUP4 DUP6 PUSH3 0x1A3E JUMP JUMPDEST SWAP4 POP PUSH3 0x1A6C DUP4 DUP6 DUP5 PUSH3 0x12F3 JUMP JUMPDEST PUSH3 0x1A77 DUP4 PUSH3 0xE60 JUMP JUMPDEST DUP5 ADD SWAP1 POP SWAP4 SWAP3 POP POP POP JUMP JUMPDEST PUSH1 0x0 PUSH3 0x1A91 DUP5 DUP5 DUP5 PUSH3 0x1A4F JUMP JUMPDEST SWAP1 POP SWAP4 SWAP3 POP POP POP JUMP JUMPDEST PUSH1 0x0 DUP1 REVERT JUMPDEST PUSH1 0x0 DUP1 REVERT JUMPDEST PUSH1 0x0 DUP1 REVERT JUMPDEST PUSH1 0x0 DUP1 DUP4 CALLDATALOAD PUSH1 0x1 PUSH1 0x20 SUB DUP5 CALLDATASIZE SUB SUB DUP2 SLT PUSH3 0x1AC9 JUMPI PUSH3 0x1AC8 PUSH3 0x1AA4 JUMP JUMPDEST JUMPDEST DUP4 DUP2 ADD SWAP3 POP DUP3 CALLDATALOAD SWAP2 POP PUSH1 0x20 DUP4 ADD SWAP3 POP PUSH8 0xFFFFFFFFFFFFFFFF DUP3 GT ISZERO PUSH3 0x1AF4 JUMPI PUSH3 0x1AF3 PUSH3 0x1A9A JUMP JUMPDEST JUMPDEST PUSH1 0x1 DUP3 MUL CALLDATASIZE SUB DUP5 SGT ISZERO PUSH3 0x1B0D JUMPI PUSH3 0x1B0C PUSH3 0x1A9F JUMP JUMPDEST JUMPDEST POP SWAP3 POP SWAP3 SWAP1 POP JUMP JUMPDEST PUSH1 0x0 PUSH1 0x20 DUP3 ADD SWAP1 POP SWAP2 SWAP1 POP JUMP JUMPDEST PUSH1 0x0 PUSH3 0x1B30 DUP4 DUP6 PUSH3 0x1A23 JUMP JUMPDEST SWAP4 POP DUP4 PUSH1 0x20 DUP5 MUL DUP6 ADD PUSH3 0x1B44 DUP5 PUSH3 0x1A34 JUMP JUMPDEST DUP1 PUSH1 0x0 JUMPDEST DUP8 DUP2 LT ISZERO PUSH3 0x1B92 JUMPI DUP5 DUP5 SUB DUP10 MSTORE PUSH3 0x1B62 DUP3 DUP5 PUSH3 0x1AA9 JUMP JUMPDEST PUSH3 0x1B6F DUP7 DUP3 DUP5 PUSH3 0x1A82 JUMP JUMPDEST SWAP6 POP PUSH3 0x1B7C DUP5 PUSH3 0x1B15 JUMP JUMPDEST SWAP4 POP PUSH1 0x20 DUP12 ADD SWAP11 POP POP POP PUSH1 0x1 DUP2 ADD SWAP1 POP PUSH3 0x1B48 JUMP JUMPDEST POP DUP3 SWAP8 POP DUP8 SWAP5 POP POP POP POP POP SWAP4 SWAP3 POP POP POP JUMP JUMPDEST PUSH1 0x0 DUP2 MLOAD SWAP1 POP SWAP2 SWAP1 POP JUMP JUMPDEST PUSH1 0x0 DUP3 DUP3 MSTORE PUSH1 0x20 DUP3 ADD SWAP1 POP SWAP3 SWAP2 POP POP JUMP JUMPDEST PUSH1 0x0 DUP2 SWAP1 POP PUSH1 0x20 DUP3 ADD SWAP1 POP SWAP2 SWAP1 POP JUMP JUMPDEST PUSH3 0x1BDB DUP2 PUSH3 0xE25 JUMP JUMPDEST DUP3 MSTORE POP POP JUMP JUMPDEST PUSH1 0x0 PUSH3 0x1BEF DUP4 DUP4 PUSH3 0x1BD0 JUMP JUMPDEST PUSH1 0x20 DUP4 ADD SWAP1 POP SWAP3 SWAP2 POP POP JUMP JUMPDEST PUSH1 0x0 PUSH1 0x20 DUP3 ADD SWAP1 POP SWAP2 SWAP1 POP JUMP JUMPDEST PUSH1 0x0 PUSH3 0x1C15 DUP3 PUSH3 0x1BA4 JUMP JUMPDEST PUSH3 0x1C21 DUP2 DUP6 PUSH3 0x1BAF JUMP JUMPDEST SWAP4 POP PUSH3 0x1C2E DUP4 PUSH3 0x1BC0 JUMP JUMPDEST DUP1 PUSH1 0x0 JUMPDEST DUP4 DUP2 LT ISZERO PUSH3 0x1C65 JUMPI DUP2 MLOAD PUSH3 0x1C49 DUP9 DUP3 PUSH3 0x1BE1 JUMP JUMPDEST SWAP8 POP PUSH3 0x1C56 DUP4 PUSH3 0x1BFB JUMP JUMPDEST SWAP3 POP POP PUSH1 0x1 DUP2 ADD SWAP1 POP PUSH3 0x1C32 JUMP JUMPDEST POP DUP6 SWAP4 POP POP POP POP SWAP3 SWAP2 POP POP JUMP JUMPDEST PUSH1 0x0 PUSH1 0x80 DUP3 ADD SWAP1 POP DUP2 DUP2 SUB PUSH1 0x0 DUP4 ADD MSTORE PUSH3 0x1C8F DUP2 DUP9 DUP11 PUSH3 0x1923 JUMP JUMPDEST SWAP1 POP PUSH3 0x1CA0 PUSH1 0x20 DUP4 ADD DUP8 PUSH3 0x1A12 JUMP JUMPDEST DUP2 DUP2 SUB PUSH1 0x40 DUP4 ADD MSTORE PUSH3 0x1CB5 DUP2 DUP6 DUP8 PUSH3 0x1B22 JUMP JUMPDEST SWAP1 POP DUP2 DUP2 SUB PUSH1 0x60 DUP4 ADD MSTORE PUSH3 0x1CCB DUP2 DUP5 PUSH3 0x1C08 JUMP JUMPDEST SWAP1 POP SWAP8 SWAP7 POP POP POP POP POP POP POP JUMP JUMPDEST PUSH3 0x1CE3 DUP2 PUSH3 0xD13 JUMP JUMPDEST DUP3 MSTORE POP POP JUMP JUMPDEST PUSH3 0x1CF4 DUP2 PUSH3 0x1195 JUMP JUMPDEST DUP3 MSTORE POP POP JUMP JUMPDEST PUSH1 0x0 PUSH1 0x60 DUP3 ADD SWAP1 POP PUSH3 0x1D11 PUSH1 0x0 DUP4 ADD DUP7 PUSH3 0x1CD8 JUMP JUMPDEST PUSH3 0x1D20 PUSH1 0x20 DUP4 ADD DUP6 PUSH3 0x1CD8 JUMP JUMPDEST PUSH3 0x1D2F PUSH1 0x40 DUP4 ADD DUP5 PUSH3 0x1CE9 JUMP JUMPDEST SWAP5 SWAP4 POP POP POP POP JUMP JUMPDEST PUSH1 0x0 PUSH1 0x80 DUP3 ADD SWAP1 POP PUSH3 0x1D4E PUSH1 0x0 DUP4 ADD DUP8 PUSH3 0x1CE9 JUMP JUMPDEST PUSH3 0x1D5D PUSH1 0x20 DUP4 ADD DUP7 PUSH3 0x1CD8 JUMP JUMPDEST PUSH3 0x1D6C PUSH1 0x40 DUP4 ADD DUP6 PUSH3 0x1CD8 JUMP JUMPDEST PUSH3 0x1D7B PUSH1 0x60 DUP4 ADD DUP5 PUSH3 0x1CD8 JUMP JUMPDEST SWAP6 SWAP5 POP POP POP POP POP JUMP JUMPDEST PUSH1 0x0 DUP2 MLOAD SWAP1 POP SWAP2 SWAP1 POP JUMP JUMPDEST PUSH1 0x0 DUP2 SWAP1 POP PUSH1 0x20 DUP3 ADD SWAP1 POP SWAP2 SWAP1 POP JUMP JUMPDEST PUSH1 0x0 DUP2 MLOAD SWAP1 POP SWAP2 SWAP1 POP JUMP JUMPDEST PUSH1 0x0 JUMPDEST DUP4 DUP2 LT ISZERO PUSH3 0x1DCA JUMPI DUP1 DUP3 ADD MLOAD DUP2 DUP5 ADD MSTORE PUSH1 0x20 DUP2 ADD SWAP1 POP PUSH3 0x1DAD JUMP JUMPDEST DUP4 DUP2 GT ISZERO PUSH3 0x1DDA JUMPI PUSH1 0x0 DUP5 DUP5 ADD MSTORE JUMPDEST POP POP POP POP JUMP JUMPDEST PUSH1 0x0 PUSH3 0x1DED DUP3 PUSH3 0x1D9F JUMP JUMPDEST PUSH3 0x1DF9 DUP2 DUP6 PUSH3 0x1A3E JUMP JUMPDEST SWAP4 POP PUSH3 0x1E0B DUP2 DUP6 PUSH1 0x20 DUP7 ADD PUSH3 0x1DAA JUMP JUMPDEST PUSH3 0x1E16 DUP2 PUSH3 0xE60 JUMP JUMPDEST DUP5 ADD SWAP2 POP POP SWAP3 SWAP2 POP POP JUMP JUMPDEST PUSH1 0x0 PUSH3 0x1E2F DUP4 DUP4 PUSH3 0x1DE0 JUMP JUMPDEST SWAP1 POP SWAP3 SWAP2 POP POP JUMP JUMPDEST PUSH1 0x0 PUSH1 0x20 DUP3 ADD SWAP1 POP SWAP2 SWAP1 POP JUMP JUMPDEST PUSH1 0x0 PUSH3 0x1E51 DUP3 PUSH3 0x1D84 JUMP JUMPDEST PUSH3 0x1E5D DUP2 DUP6 PUSH3 0x1A23 JUMP JUMPDEST SWAP4 POP DUP4 PUSH1 0x20 DUP3 MUL DUP6 ADD PUSH3 0x1E71 DUP6 PUSH3 0x1D8F JUMP JUMPDEST DUP1 PUSH1 0x0 JUMPDEST DUP6 DUP2 LT ISZERO PUSH3 0x1EB3 JUMPI DUP5 DUP5 SUB DUP10 MSTORE DUP2 MLOAD PUSH3 0x1E91 DUP6 DUP3 PUSH3 0x1E21 JUMP JUMPDEST SWAP5 POP PUSH3 0x1E9E DUP4 PUSH3 0x1E37 JUMP JUMPDEST SWAP3 POP PUSH1 0x20 DUP11 ADD SWAP10 POP POP PUSH1 0x1 DUP2 ADD SWAP1 POP PUSH3 0x1E75 JUMP JUMPDEST POP DUP3 SWAP8 POP DUP8 SWAP6 POP POP POP POP POP POP SWAP3 SWAP2 POP POP JUMP JUMPDEST PUSH1 0x0 PUSH1 0x80 DUP3 ADD SWAP1 POP DUP2 DUP2 SUB PUSH1 0x0 DUP4 ADD MSTORE PUSH3 0x1EE2 DUP2 DUP8 DUP10 PUSH3 0x1923 JUMP JUMPDEST SWAP1 POP PUSH3 0x1EF3 PUSH1 0x20 DUP4 ADD DUP7 PUSH3 0x1A12 JUMP JUMPDEST DUP2 DUP2 SUB PUSH1 0x40 DUP4 ADD MSTORE PUSH3 0x1F07 DUP2 DUP6 PUSH3 0x1E44 JUMP JUMPDEST SWAP1 POP DUP2 DUP2 SUB PUSH1 0x60 DUP4 ADD MSTORE PUSH3 0x1F1D DUP2 DUP5 PUSH3 0x1C08 JUMP JUMPDEST SWAP1 POP SWAP7 SWAP6 POP POP POP POP POP POP JUMP JUMPDEST PUSH1 0x0 PUSH3 0x1F36 DUP3 PUSH3 0x1D9F JUMP JUMPDEST PUSH3 0x1F42 DUP2 DUP6 PUSH3 0x1912 JUMP JUMPDEST SWAP4 POP PUSH3 0x1F54 DUP2 DUP6 PUSH1 0x20 DUP7 ADD PUSH3 0x1DAA JUMP JUMPDEST PUSH3 0x1F5F DUP2 PUSH3 0xE60 JUMP JUMPDEST DUP5 ADD SWAP2 POP POP SWAP3 SWAP2 POP POP JUMP JUMPDEST PUSH1 0x0 DUP2 MLOAD SWAP1 POP SWAP2 SWAP1 POP JUMP JUMPDEST PUSH1 0x0 DUP3 DUP3 MSTORE PUSH1 0x20 DUP3 ADD SWAP1 POP SWAP3 SWAP2 POP POP JUMP JUMPDEST PUSH1 0x0 DUP2 SWAP1 POP PUSH1 0x20 DUP3 ADD SWAP1 POP SWAP2 SWAP1 POP JUMP JUMPDEST PUSH3 0x1FA1 DUP2 PUSH3 0x1195 JUMP JUMPDEST DUP3 MSTORE POP POP JUMP JUMPDEST PUSH1 0x0 PUSH3 0x1FB5 DUP4 DUP4 PUSH3 0x1F96 JUMP JUMPDEST PUSH1 0x20 DUP4 ADD SWAP1 POP SWAP3 SWAP2 POP POP JUMP JUMPDEST PUSH1 0x0 PUSH1 0x20 DUP3 ADD SWAP1 POP SWAP2 SWAP1 POP JUMP JUMPDEST PUSH1 0x0 PUSH3 0x1FDB DUP3 PUSH3 0x1F6A JUMP JUMPDEST PUSH3 0x1FE7 DUP2 DUP6 PUSH3 0x1F75 JUMP JUMPDEST SWAP4 POP PUSH3 0x1FF4 DUP4 PUSH3 0x1F86 JUMP JUMPDEST DUP1 PUSH1 0x0 JUMPDEST DUP4 DUP2 LT ISZERO PUSH3 0x202B JUMPI DUP2 MLOAD PUSH3 0x200F DUP9 DUP3 PUSH3 0x1FA7 JUMP JUMPDEST SWAP8 POP PUSH3 0x201C DUP4 PUSH3 0x1FC1 JUMP JUMPDEST SWAP3 POP POP PUSH1 0x1 DUP2 ADD SWAP1 POP PUSH3 0x1FF8 JUMP JUMPDEST POP DUP6 SWAP4 POP POP POP POP SWAP3 SWAP2 POP POP JUMP JUMPDEST PUSH1 0x0 PUSH1 0xC0 DUP3 ADD SWAP1 POP PUSH3 0x204F PUSH1 0x0 DUP4 ADD DUP10 PUSH3 0x1CD8 JUMP JUMPDEST DUP2 DUP2 SUB PUSH1 0x20 DUP4 ADD MSTORE PUSH3 0x2063 DUP2 DUP9 PUSH3 0x1F29 JUMP JUMPDEST SWAP1 POP PUSH3 0x2074 PUSH1 0x40 DUP4 ADD DUP8 PUSH3 0x1CE9 JUMP JUMPDEST DUP2 DUP2 SUB PUSH1 0x60 DUP4 ADD MSTORE PUSH3 0x2088 DUP2 DUP7 PUSH3 0x1F29 JUMP JUMPDEST SWAP1 POP DUP2 DUP2 SUB PUSH1 0x80 DUP4 ADD MSTORE PUSH3 0x209E DUP2 DUP6 PUSH3 0x1FCE JUMP JUMPDEST SWAP1 POP PUSH3 0x20AF PUSH1 0xA0 DUP4 ADD DUP5 PUSH3 0x1A12 JUMP JUMPDEST SWAP8 SWAP7 POP POP POP POP POP POP POP JUMP JUMPDEST PUSH1 0x0 PUSH1 0x20 DUP3 ADD SWAP1 POP DUP2 DUP2 SUB PUSH1 0x0 DUP4 ADD MSTORE PUSH3 0x20D6 DUP2 DUP5 PUSH3 0x1F29 JUMP JUMPDEST SWAP1 POP SWAP3 SWAP2 POP POP JUMP JUMPDEST PUSH1 0x0 DUP2 MLOAD SWAP1 POP PUSH3 0x20EF DUP2 PUSH3 0xD27 JUMP JUMPDEST SWAP3 SWAP2 POP POP JUMP JUMPDEST PUSH1 0x0 PUSH1 0x20 DUP3 DUP5 SUB SLT ISZERO PUSH3 0x210E JUMPI PUSH3 0x210D PUSH3 0xCE9 JUMP JUMPDEST JUMPDEST PUSH1 0x0 PUSH3 0x211E DUP5 DUP3 DUP6 ADD PUSH3 0x20DE JUMP JUMPDEST SWAP2 POP POP SWAP3 SWAP2 POP POP JUMP JUMPDEST PUSH3 0x2132 DUP2 PUSH3 0x17A3 JUMP JUMPDEST DUP3 MSTORE POP POP JUMP JUMPDEST PUSH1 0x0 PUSH1 0x80 DUP3 ADD SWAP1 POP PUSH3 0x214F PUSH1 0x0 DUP4 ADD DUP8 PUSH3 0x1A12 JUMP JUMPDEST PUSH3 0x215E PUSH1 0x20 DUP4 ADD DUP7 PUSH3 0x1A12 JUMP JUMPDEST PUSH3 0x216D PUSH1 0x40 DUP4 ADD DUP6 PUSH3 0x1A12 JUMP JUMPDEST PUSH3 0x217C PUSH1 0x60 DUP4 ADD DUP5 PUSH3 0x2127 JUMP JUMPDEST SWAP6 SWAP5 POP POP POP POP POP JUMP INVALID PUSH1 0x80 PUSH1 0x40 MSTORE CALLVALUE DUP1 ISZERO PUSH2 0x10 JUMPI PUSH1 0x0 DUP1 REVERT JUMPDEST POP PUSH1 0x40 MLOAD PUSH2 0x8A2 CODESIZE SUB DUP1 PUSH2 0x8A2 DUP4 CODECOPY DUP2 DUP2 ADD PUSH1 0x40 MSTORE DUP2 ADD SWAP1 PUSH2 0x32 SWAP2 SWAP1 PUSH2 0x15B JUMP JUMPDEST DUP3 PUSH1 0x0 DUP1 PUSH2 0x100 EXP DUP2 SLOAD DUP2 PUSH20 0xFFFFFFFFFFFFFFFFFFFFFFFFFFFFFFFFFFFFFFFF MUL NOT AND SWAP1 DUP4 PUSH20 0xFFFFFFFFFFFFFFFFFFFFFFFFFFFFFFFFFFFFFFFF AND MUL OR SWAP1 SSTORE POP DUP2 PUSH1 0x1 PUSH1 0x0 PUSH2 0x100 EXP DUP2 SLOAD DUP2 PUSH20 0xFFFFFFFFFFFFFFFFFFFFFFFFFFFFFFFFFFFFFFFF MUL NOT AND SWAP1 DUP4 PUSH20 0xFFFFFFFFFFFFFFFFFFFFFFFFFFFFFFFFFFFFFFFF AND MUL OR SWAP1 SSTORE POP DUP1 PUSH1 0x2 DUP2 SWAP1 SSTORE POP POP POP POP PUSH2 0x1AE JUMP JUMPDEST PUSH1 0x0 DUP1 REVERT JUMPDEST PUSH1 0x0 PUSH20 0xFFFFFFFFFFFFFFFFFFFFFFFFFFFFFFFFFFFFFFFF DUP3 AND SWAP1 POP SWAP2 SWAP1 POP JUMP JUMPDEST PUSH1 0x0 PUSH2 0xF2 DUP3 PUSH2 0xC7 JUMP JUMPDEST SWAP1 POP SWAP2 SWAP1 POP JUMP JUMPDEST PUSH2 0x102 DUP2 PUSH2 0xE7 JUMP JUMPDEST DUP2 EQ PUSH2 0x10D JUMPI PUSH1 0x0 DUP1 REVERT JUMPDEST POP JUMP JUMPDEST PUSH1 0x0 DUP2 MLOAD SWAP1 POP PUSH2 0x11F DUP2 PUSH2 0xF9 JUMP JUMPDEST SWAP3 SWAP2 POP POP JUMP JUMPDEST PUSH1 0x0 DUP2 SWAP1 POP SWAP2 SWAP1 POP JUMP JUMPDEST PUSH2 0x138 DUP2 PUSH2 0x125 JUMP JUMPDEST DUP2 EQ PUSH2 0x143 JUMPI PUSH1 0x0 DUP1 REVERT JUMPDEST POP JUMP JUMPDEST PUSH1 0x0 DUP2 MLOAD SWAP1 POP PUSH2 0x155 DUP2 PUSH2 0x12F JUMP JUMPDEST SWAP3 SWAP2 POP POP JUMP JUMPDEST PUSH1 0x0 DUP1 PUSH1 0x0 PUSH1 0x60 DUP5 DUP7 SUB SLT ISZERO PUSH2 0x174 JUMPI PUSH2 0x173 PUSH2 0xC2 JUMP JUMPDEST JUMPDEST PUSH1 0x0 PUSH2 0x182 DUP7 DUP3 DUP8 ADD PUSH2 0x110 JUMP JUMPDEST SWAP4 POP POP PUSH1 0x20 PUSH2 0x193 DUP7 DUP3 DUP8 ADD PUSH2 0x110 JUMP JUMPDEST SWAP3 POP POP PUSH1 0x40 PUSH2 0x1A4 DUP7 DUP3 DUP8 ADD PUSH2 0x146 JUMP JUMPDEST SWAP2 POP POP SWAP3 POP SWAP3 POP SWAP3 JUMP JUMPDEST PUSH2 0x6E5 DUP1 PUSH2 0x1BD PUSH1 0x0 CODECOPY PUSH1 0x0 RETURN INVALID PUSH1 0x80 PUSH1 0x40 MSTORE CALLVALUE DUP1 ISZERO PUSH2 0x10 JUMPI PUSH1 0x0 DUP1 REVERT JUMPDEST POP PUSH1 0x4 CALLDATASIZE LT PUSH2 0x7D JUMPI PUSH1 0x0 CALLDATALOAD PUSH1 0xE0 SHR DUP1 PUSH4 0x4F15FC06 GT PUSH2 0x5B JUMPI DUP1 PUSH4 0x4F15FC06 EQ PUSH2 0xDC JUMPI DUP1 PUSH4 0x60A56B3A EQ PUSH2 0xFA JUMPI DUP1 PUSH4 0x6CCCBE5E EQ PUSH2 0x116 JUMPI DUP1 PUSH4 0x8F94B8C2 EQ PUSH2 0x134 JUMPI PUSH2 0x7D JUMP JUMPDEST DUP1 PUSH4 0x186BC549 EQ PUSH2 0x82 JUMPI DUP1 PUSH4 0x4575D5C5 EQ PUSH2 0xA0 JUMPI DUP1 PUSH4 0x4B1D123B EQ PUSH2 0xBE JUMPI JUMPDEST PUSH1 0x0 DUP1 REVERT JUMPDEST PUSH2 0x8A PUSH2 0x150 JUMP JUMPDEST PUSH1 0x40 MLOAD PUSH2 0x97 SWAP2 SWAP1 PUSH2 0x2F4 JUMP JUMPDEST PUSH1 0x40 MLOAD DUP1 SWAP2 SUB SWAP1 RETURN JUMPDEST PUSH2 0xA8 PUSH2 0x15A JUMP JUMPDEST PUSH1 0x40 MLOAD PUSH2 0xB5 SWAP2 SWAP1 PUSH2 0x328 JUMP JUMPDEST PUSH1 0x40 MLOAD DUP1 SWAP2 SUB SWAP1 RETURN JUMPDEST PUSH2 0xC6 PUSH2 0x164 JUMP JUMPDEST PUSH1 0x40 MLOAD PUSH2 0xD3 SWAP2 SWAP1 PUSH2 0x2F4 JUMP JUMPDEST PUSH1 0x40 MLOAD DUP1 SWAP2 SUB SWAP1 RETURN JUMPDEST PUSH2 0xE4 PUSH2 0x180 JUMP JUMPDEST PUSH1 0x40 MLOAD PUSH2 0xF1 SWAP2 SWAP1 PUSH2 0x2F4 JUMP JUMPDEST PUSH1 0x40 MLOAD DUP1 SWAP2 SUB SWAP1 RETURN JUMPDEST PUSH2 0x114 PUSH1 0x4 DUP1 CALLDATASIZE SUB DUP2 ADD SWAP1 PUSH2 0x10F SWAP2 SWAP1 PUSH2 0x3D2 JUMP JUMPDEST PUSH2 0x18A JUMP JUMPDEST STOP JUMPDEST PUSH2 0x11E PUSH2 0x2AD JUMP JUMPDEST PUSH1 0x40 MLOAD PUSH2 0x12B SWAP2 SWAP1 PUSH2 0x2F4 JUMP JUMPDEST PUSH1 0x40 MLOAD DUP1 SWAP2 SUB SWAP1 RETURN JUMPDEST PUSH2 0x14E PUSH1 0x4 DUP1 CALLDATASIZE SUB DUP2 ADD SWAP1 PUSH2 0x149 SWAP2 SWAP1 PUSH2 0x425 JUMP JUMPDEST PUSH2 0x2D1 JUMP JUMPDEST STOP JUMPDEST PUSH1 0x0 PUSH1 0x3 SLOAD SWAP1 POP SWAP1 JUMP JUMPDEST PUSH1 0x0 PUSH1 0x2 SLOAD SWAP1 POP SWAP1 JUMP JUMPDEST PUSH1 0x0 PUSH2 0x16E PUSH2 0x2AD JUMP JUMPDEST PUSH1 0x3 SLOAD PUSH2 0x17B SWAP2 SWAP1 PUSH2 0x481 JUMP JUMPDEST SWAP1 POP SWAP1 JUMP JUMPDEST PUSH1 0x0 PUSH1 0x4 SLOAD SWAP1 POP SWAP1 JUMP JUMPDEST PUSH1 0x1 PUSH1 0x0 SWAP1 SLOAD SWAP1 PUSH2 0x100 EXP SWAP1 DIV PUSH20 0xFFFFFFFFFFFFFFFFFFFFFFFFFFFFFFFFFFFFFFFF AND PUSH20 0xFFFFFFFFFFFFFFFFFFFFFFFFFFFFFFFFFFFFFFFF AND CALLER PUSH20 0xFFFFFFFFFFFFFFFFFFFFFFFFFFFFFFFFFFFFFFFF AND EQ PUSH2 0x21A JUMPI PUSH1 0x40 MLOAD PUSH32 0x8C379A000000000000000000000000000000000000000000000000000000000 DUP2 MSTORE PUSH1 0x4 ADD PUSH2 0x211 SWAP1 PUSH2 0x538 JUMP JUMPDEST PUSH1 0x40 MLOAD DUP1 SWAP2 SUB SWAP1 REVERT JUMPDEST DUP2 PUSH20 0xFFFFFFFFFFFFFFFFFFFFFFFFFFFFFFFFFFFFFFFF AND PUSH4 0xA9059CBB DUP5 DUP4 PUSH1 0x40 MLOAD DUP4 PUSH4 0xFFFFFFFF AND PUSH1 0xE0 SHL DUP2 MSTORE PUSH1 0x4 ADD PUSH2 0x255 SWAP3 SWAP2 SWAP1 PUSH2 0x567 JUMP JUMPDEST PUSH1 0x20 PUSH1 0x40 MLOAD DUP1 DUP4 SUB DUP2 PUSH1 0x0 DUP8 DUP1 EXTCODESIZE ISZERO DUP1 ISZERO PUSH2 0x26F JUMPI PUSH1 0x0 DUP1 REVERT JUMPDEST POP GAS CALL ISZERO DUP1 ISZERO PUSH2 0x283 JUMPI RETURNDATASIZE PUSH1 0x0 DUP1 RETURNDATACOPY RETURNDATASIZE PUSH1 0x0 REVERT JUMPDEST POP POP POP POP PUSH1 0x40 MLOAD RETURNDATASIZE PUSH1 0x1F NOT PUSH1 0x1F DUP3 ADD AND DUP3 ADD DUP1 PUSH1 0x40 MSTORE POP DUP2 ADD SWAP1 PUSH2 0x2A7 SWAP2 SWAP1 PUSH2 0x5C8 JUMP JUMPDEST POP POP POP POP JUMP JUMPDEST PUSH1 0x0 PUSH2 0x2710 PUSH1 0x4 SLOAD PUSH1 0x3 SLOAD PUSH2 0x2C2 SWAP2 SWAP1 PUSH2 0x5F5 JUMP JUMPDEST PUSH2 0x2CC SWAP2 SWAP1 PUSH2 0x67E JUMP JUMPDEST SWAP1 POP SWAP1 JUMP JUMPDEST DUP1 PUSH1 0x4 DUP2 SWAP1 SSTORE POP POP JUMP JUMPDEST PUSH1 0x0 DUP2 SWAP1 POP SWAP2 SWAP1 POP JUMP JUMPDEST PUSH2 0x2EE DUP2 PUSH2 0x2DB JUMP JUMPDEST DUP3 MSTORE POP POP JUMP JUMPDEST PUSH1 0x0 PUSH1 0x20 DUP3 ADD SWAP1 POP PUSH2 0x309 PUSH1 0x0 DUP4 ADD DUP5 PUSH2 0x2E5 JUMP JUMPDEST SWAP3 SWAP2 POP POP JUMP JUMPDEST PUSH1 0x0 DUP2 SWAP1 POP SWAP2 SWAP1 POP JUMP JUMPDEST PUSH2 0x322 DUP2 PUSH2 0x30F JUMP JUMPDEST DUP3 MSTORE POP POP JUMP JUMPDEST PUSH1 0x0 PUSH1 0x20 DUP3 ADD SWAP1 POP PUSH2 0x33D PUSH1 0x0 DUP4 ADD DUP5 PUSH2 0x319 JUMP JUMPDEST SWAP3 SWAP2 POP POP JUMP JUMPDEST PUSH1 0x0 DUP1 REVERT JUMPDEST PUSH1 0x0 PUSH20 0xFFFFFFFFFFFFFFFFFFFFFFFFFFFFFFFFFFFFFFFF DUP3 AND SWAP1 POP SWAP2 SWAP1 POP JUMP JUMPDEST PUSH1 0x0 PUSH2 0x373 DUP3 PUSH2 0x348 JUMP JUMPDEST SWAP1 POP SWAP2 SWAP1 POP JUMP JUMPDEST PUSH2 0x383 DUP2 PUSH2 0x368 JUMP JUMPDEST DUP2 EQ PUSH2 0x38E JUMPI PUSH1 0x0 DUP1 REVERT JUMPDEST POP JUMP JUMPDEST PUSH1 0x0 DUP2 CALLDATALOAD SWAP1 POP PUSH2 0x3A0 DUP2 PUSH2 0x37A JUMP JUMPDEST SWAP3 SWAP2 POP POP JUMP JUMPDEST PUSH2 0x3AF DUP2 PUSH2 0x2DB JUMP JUMPDEST DUP2 EQ PUSH2 0x3BA JUMPI PUSH1 0x0 DUP1 REVERT JUMPDEST POP JUMP JUMPDEST PUSH1 0x0 DUP2 CALLDATALOAD SWAP1 POP PUSH2 0x3CC DUP2 PUSH2 0x3A6 JUMP JUMPDEST SWAP3 SWAP2 POP POP JUMP JUMPDEST PUSH1 0x0 DUP1 PUSH1 0x0 PUSH1 0x60 DUP5 DUP7 SUB SLT ISZERO PUSH2 0x3EB JUMPI PUSH2 0x3EA PUSH2 0x343 JUMP JUMPDEST JUMPDEST PUSH1 0x0 PUSH2 0x3F9 DUP7 DUP3 DUP8 ADD PUSH2 0x391 JUMP JUMPDEST SWAP4 POP POP PUSH1 0x20 PUSH2 0x40A DUP7 DUP3 DUP8 ADD PUSH2 0x391 JUMP JUMPDEST SWAP3 POP POP PUSH1 0x40 PUSH2 0x41B DUP7 DUP3 DUP8 ADD PUSH2 0x3BD JUMP JUMPDEST SWAP2 POP POP SWAP3 POP SWAP3 POP SWAP3 JUMP JUMPDEST PUSH1 0x0 PUSH1 0x20 DUP3 DUP5 SUB SLT ISZERO PUSH2 0x43B JUMPI PUSH2 0x43A PUSH2 0x343 JUMP JUMPDEST JUMPDEST PUSH1 0x0 PUSH2 0x449 DUP5 DUP3 DUP6 ADD PUSH2 0x3BD JUMP JUMPDEST SWAP2 POP POP SWAP3 SWAP2 POP POP JUMP JUMPDEST PUSH32 0x4E487B7100000000000000000000000000000000000000000000000000000000 PUSH1 0x0 MSTORE PUSH1 0x11 PUSH1 0x4 MSTORE PUSH1 0x24 PUSH1 0x0 REVERT JUMPDEST PUSH1 0x0 PUSH2 0x48C DUP3 PUSH2 0x2DB JUMP JUMPDEST SWAP2 POP PUSH2 0x497 DUP4 PUSH2 0x2DB JUMP JUMPDEST SWAP3 POP DUP3 DUP3 LT ISZERO PUSH2 0x4AA JUMPI PUSH2 0x4A9 PUSH2 0x452 JUMP JUMPDEST JUMPDEST DUP3 DUP3 SUB SWAP1 POP SWAP3 SWAP2 POP POP JUMP JUMPDEST PUSH1 0x0 DUP3 DUP3 MSTORE PUSH1 0x20 DUP3 ADD SWAP1 POP SWAP3 SWAP2 POP POP JUMP JUMPDEST PUSH32 0x43616D706169676E54726561737572793A2043616C6C6572206973206E6F7420 PUSH1 0x0 DUP3 ADD MSTORE PUSH32 0x43616D706169676E496E666F20636F6E74726163740000000000000000000000 PUSH1 0x20 DUP3 ADD MSTORE POP JUMP JUMPDEST PUSH1 0x0 PUSH2 0x522 PUSH1 0x35 DUP4 PUSH2 0x4B5 JUMP JUMPDEST SWAP2 POP PUSH2 0x52D DUP3 PUSH2 0x4C6 JUMP JUMPDEST PUSH1 0x40 DUP3 ADD SWAP1 POP SWAP2 SWAP1 POP JUMP JUMPDEST PUSH1 0x0 PUSH1 0x20 DUP3 ADD SWAP1 POP DUP2 DUP2 SUB PUSH1 0x0 DUP4 ADD MSTORE PUSH2 0x551 DUP2 PUSH2 0x515 JUMP JUMPDEST SWAP1 POP SWAP2 SWAP1 POP JUMP JUMPDEST PUSH2 0x561 DUP2 PUSH2 0x368 JUMP JUMPDEST DUP3 MSTORE POP POP JUMP JUMPDEST PUSH1 0x0 PUSH1 0x40 DUP3 ADD SWAP1 POP PUSH2 0x57C PUSH1 0x0 DUP4 ADD DUP6 PUSH2 0x558 JUMP JUMPDEST PUSH2 0x589 PUSH1 0x20 DUP4 ADD DUP5 PUSH2 0x2E5 JUMP JUMPDEST SWAP4 SWAP3 POP POP POP JUMP JUMPDEST PUSH1 0x0 DUP2 ISZERO ISZERO SWAP1 POP SWAP2 SWAP1 POP JUMP JUMPDEST PUSH2 0x5A5 DUP2 PUSH2 0x590 JUMP JUMPDEST DUP2 EQ PUSH2 0x5B0 JUMPI PUSH1 0x0 DUP1 REVERT JUMPDEST POP JUMP JUMPDEST PUSH1 0x0 DUP2 MLOAD SWAP1 POP PUSH2 0x5C2 DUP2 PUSH2 0x59C JUMP JUMPDEST SWAP3 SWAP2 POP POP JUMP JUMPDEST PUSH1 0x0 PUSH1 0x20 DUP3 DUP5 SUB SLT ISZERO PUSH2 0x5DE JUMPI PUSH2 0x5DD PUSH2 0x343 JUMP JUMPDEST JUMPDEST PUSH1 0x0 PUSH2 0x5EC DUP5 DUP3 DUP6 ADD PUSH2 0x5B3 JUMP JUMPDEST SWAP2 POP POP SWAP3 SWAP2 POP POP JUMP JUMPDEST PUSH1 0x0 PUSH2 0x600 DUP3 PUSH2 0x2DB JUMP JUMPDEST SWAP2 POP PUSH2 0x60B DUP4 PUSH2 0x2DB JUMP JUMPDEST SWAP3 POP DUP2 PUSH32 0xFFFFFFFFFFFFFFFFFFFFFFFFFFFFFFFFFFFFFFFFFFFFFFFFFFFFFFFFFFFFFFFF DIV DUP4 GT DUP3 ISZERO ISZERO AND ISZERO PUSH2 0x644 JUMPI PUSH2 0x643 PUSH2 0x452 JUMP JUMPDEST JUMPDEST DUP3 DUP3 MUL SWAP1 POP SWAP3 SWAP2 POP POP JUMP JUMPDEST PUSH32 0x4E487B7100000000000000000000000000000000000000000000000000000000 PUSH1 0x0 MSTORE PUSH1 0x12 PUSH1 0x4 MSTORE PUSH1 0x24 PUSH1 0x0 REVERT JUMPDEST PUSH1 0x0 PUSH2 0x689 DUP3 PUSH2 0x2DB JUMP JUMPDEST SWAP2 POP PUSH2 0x694 DUP4 PUSH2 0x2DB JUMP JUMPDEST SWAP3 POP DUP3 PUSH2 0x6A4 JUMPI PUSH2 0x6A3 PUSH2 0x64F JUMP JUMPDEST JUMPDEST DUP3 DUP3 DIV SWAP1 POP SWAP3 SWAP2 POP POP JUMP INVALID LOG2 PUSH5 0x6970667358 0x22 SLT KECCAK256 0xD9 0xAC SWAP15 NUMBER SWAP3 PUSH28 0xAE7CC90A0FBDDEEBE859351F54203E5F4F5BCBEB43A454538C816473 PUSH16 0x6C63430008090033A264697066735822 SLT KECCAK256 PUSH7 0x864767ED331E71 0x4A LOG2 0xC1 0x5C BASEFEE DUP15 GASLIMIT PUSH19 0xC03DF9DCA44026CE392894992466D38364736F PUSH13 0x63430008090033000000000000 "},"methodIdentifiers":{"addItem(address,string,string)":"d3caea4f","addItems(address,string[],string[])":"2c6ba152","addReward(address,string,uint256,string[],uint256[])":"ab4d9b5f","addRewardAnditems(address,string[],string[],string,uint256,uint256[])":"138af8f0","createCampaign(address,string,bytes32,string,bytes32[],uint256)":"c77e6f65","initialize(address,address)":"485cc955","setLaunch(address,uint256,uint256,uint256,bool)":"fbe121fa","setTreasury(address,bytes32,address,address)":"33d556d7"}}}}}