{"contracts/library/FeeSplit.sol":{"FeeSplit":{"abi":[{"inputs":[{"internalType":"uint256","name":"feePercent","type":"uint256"},{"internalType":"uint256[]","name":"pledgedAmountByPlatforms","type":"uint256[]"}],"name":"splitProportionately","outputs":[{"internalType":"uint256[]","name":"","type":"uint256[]"}],"stateMutability":"pure","type":"function"},{"inputs":[{"internalType":"uint256","name":"totalFeePercent","type":"uint256"},{"internalType":"uint256","name":"originRewardPercent","type":"uint256"},{"internalType":"uint256","name":"pledgedAmountByOrigin","type":"uint256"},{"internalType":"uint256[]","name":"pledgedAmountsByReach","type":"uint256[]"}],"name":"splitWithOriginReward","outputs":[{"internalType":"uint256","name":"","type":"uint256"},{"internalType":"uint256[]","name":"","type":"uint256[]"}],"stateMutability":"pure","type":"function"}],"evm":{"bytecode":{"linkReferences":{},"object":"6106ed610053600b82828239805160001a607314610046577f4e487b7100000000000000000000000000000000000000000000000000000000600052600060045260246000fd5b30600052607381538281f3fe73000000000000000000000000000000000000000030146080604052600436106100405760003560e01c80632372c8ec1461004557806354f14edb14610075575b600080fd5b61005f600480360381019061005a9190610296565b6100a6565b60405161006c91906103b4565b60405180910390f35b61008f600480360381019061008a91906103d6565b610179565b60405161009d92919061046d565b60405180910390f35b6060600083839050905060008167ffffffffffffffff8111156100cc576100cb61049d565b5b6040519080825280602002602001820160405280156100fa5781602001602082028036833780820191505090505b50905060005b8281101561016c576127108787878481811061011f5761011e6104cc565b5b90506020020135610130919061052a565b61013a91906105b3565b82828151811061014d5761014c6104cc565b5b6020026020010181815250508080610164906105e4565b915050610100565b5080925050509392505050565b6000606060008484905090506000600182610194919061062d565b888a6101a09190610683565b6101aa91906105b3565b90506000612710828a6101bd919061062d565b896101c8919061052a565b6101d291906105b3565b9050806101e08389896100a6565b945094505050509550959350505050565b600080fd5b600080fd5b6000819050919050565b61020e816101fb565b811461021957600080fd5b50565b60008135905061022b81610205565b92915050565b600080fd5b600080fd5b600080fd5b60008083601f84011261025657610255610231565b5b8235905067ffffffffffffffff81111561027357610272610236565b5b60208301915083602082028301111561028f5761028e61023b565b5b9250929050565b6000806000604084860312156102af576102ae6101f1565b5b60006102bd8682870161021c565b935050602084013567ffffffffffffffff8111156102de576102dd6101f6565b5b6102ea86828701610240565b92509250509250925092565b600081519050919050565b600082825260208201905092915050565b6000819050602082019050919050565b61032b816101fb565b82525050565b600061033d8383610322565b60208301905092915050565b6000602082019050919050565b6000610361826102f6565b61036b8185610301565b935061037683610312565b8060005b838110156103a757815161038e8882610331565b975061039983610349565b92505060018101905061037a565b5085935050505092915050565b600060208201905081810360008301526103ce8184610356565b905092915050565b6000806000806000608086880312156103f2576103f16101f1565b5b60006104008882890161021c565b95505060206104118882890161021c565b94505060406104228882890161021c565b935050606086013567ffffffffffffffff811115610443576104426101f6565b5b61044f88828901610240565b92509250509295509295909350565b610467816101fb565b82525050565b6000604082019050610482600083018561045e565b81810360208301526104948184610356565b90509392505050565b7f4e487b7100000000000000000000000000000000000000000000000000000000600052604160045260246000fd5b7f4e487b7100000000000000000000000000000000000000000000000000000000600052603260045260246000fd5b7f4e487b7100000000000000000000000000000000000000000000000000000000600052601160045260246000fd5b6000610535826101fb565b9150610540836101fb565b9250817fffffffffffffffffffffffffffffffffffffffffffffffffffffffffffffffff0483118215151615610579576105786104fb565b5b828202905092915050565b7f4e487b7100000000000000000000000000000000000000000000000000000000600052601260045260246000fd5b60006105be826101fb565b91506105c9836101fb565b9250826105d9576105d8610584565b5b828204905092915050565b60006105ef826101fb565b91507fffffffffffffffffffffffffffffffffffffffffffffffffffffffffffffffff821415610622576106216104fb565b5b600182019050919050565b6000610638826101fb565b9150610643836101fb565b9250827fffffffffffffffffffffffffffffffffffffffffffffffffffffffffffffffff03821115610678576106776104fb565b5b828201905092915050565b600061068e826101fb565b9150610699836101fb565b9250828210156106ac576106ab6104fb565b5b82820390509291505056fea26469706673582212202a037b18ee85034d362be6c520d07740097c1fd96921bd121cc0cf58dec78f3264736f6c63430008090033","opcodes":"PUSH2 0x6ED PUSH2 0x53 PUSH1 0xB DUP3 DUP3 DUP3 CODECOPY DUP1 MLOAD PUSH1 0x0 BYTE PUSH1 0x73 EQ PUSH2 0x46 JUMPI PUSH32 0x4E487B7100000000000000000000000000000000000000000000000000000000 PUSH1 0x0 MSTORE PUSH1 0x0 PUSH1 0x4 MSTORE PUSH1 0x24 PUSH1 0x0 REVERT JUMPDEST ADDRESS PUSH1 0x0 MSTORE PUSH1 0x73 DUP2 MSTORE8 DUP3 DUP2 RETURN INVALID PUSH20 0x0 ADDRESS EQ PUSH1 0x80 PUSH1 0x40 MSTORE PUSH1 0x4 CALLDATASIZE LT PUSH2 0x40 JUMPI PUSH1 0x0 CALLDATALOAD PUSH1 0xE0 SHR DUP1 PUSH4 0x2372C8EC EQ PUSH2 0x45 JUMPI DUP1 PUSH4 0x54F14EDB EQ PUSH2 0x75 JUMPI JUMPDEST PUSH1 0x0 DUP1 REVERT JUMPDEST PUSH2 0x5F PUSH1 0x4 DUP1 CALLDATASIZE SUB DUP2 ADD SWAP1 PUSH2 0x5A SWAP2 SWAP1 PUSH2 0x296 JUMP JUMPDEST PUSH2 0xA6 JUMP JUMPDEST PUSH1 0x40 MLOAD PUSH2 0x6C SWAP2 SWAP1 PUSH2 0x3B4 JUMP JUMPDEST PUSH1 0x40 MLOAD DUP1 SWAP2 SUB SWAP1 RETURN JUMPDEST PUSH2 0x8F PUSH1 0x4 DUP1 CALLDATASIZE SUB DUP2 ADD SWAP1 PUSH2 0x8A SWAP2 SWAP1 PUSH2 0x3D6 JUMP JUMPDEST PUSH2 0x179 JUMP JUMPDEST PUSH1 0x40 MLOAD PUSH2 0x9D SWAP3 SWAP2 SWAP1 PUSH2 0x46D JUMP JUMPDEST PUSH1 0x40 MLOAD DUP1 SWAP2 SUB SWAP1 RETURN JUMPDEST PUSH1 0x60 PUSH1 0x0 DUP4 DUP4 SWAP1 POP SWAP1 POP PUSH1 0x0 DUP2 PUSH8 0xFFFFFFFFFFFFFFFF DUP2 GT ISZERO PUSH2 0xCC JUMPI PUSH2 0xCB PUSH2 0x49D JUMP JUMPDEST JUMPDEST PUSH1 0x40 MLOAD SWAP1 DUP1 DUP3 MSTORE DUP1 PUSH1 0x20 MUL PUSH1 0x20 ADD DUP3 ADD PUSH1 0x40 MSTORE DUP1 ISZERO PUSH2 0xFA JUMPI DUP2 PUSH1 0x20 ADD PUSH1 0x20 DUP3 MUL DUP1 CALLDATASIZE DUP4 CALLDATACOPY DUP1 DUP3 ADD SWAP2 POP POP SWAP1 POP JUMPDEST POP SWAP1 POP PUSH1 0x0 JUMPDEST DUP3 DUP2 LT ISZERO PUSH2 0x16C JUMPI PUSH2 0x2710 DUP8 DUP8 DUP8 DUP5 DUP2 DUP2 LT PUSH2 0x11F JUMPI PUSH2 0x11E PUSH2 0x4CC JUMP JUMPDEST JUMPDEST SWAP1 POP PUSH1 0x20 MUL ADD CALLDATALOAD PUSH2 0x130 SWAP2 SWAP1 PUSH2 0x52A JUMP JUMPDEST PUSH2 0x13A SWAP2 SWAP1 PUSH2 0x5B3 JUMP JUMPDEST DUP3 DUP3 DUP2 MLOAD DUP2 LT PUSH2 0x14D JUMPI PUSH2 0x14C PUSH2 0x4CC JUMP JUMPDEST JUMPDEST PUSH1 0x20 MUL PUSH1 0x20 ADD ADD DUP2 DUP2 MSTORE POP POP DUP1 DUP1 PUSH2 0x164 SWAP1 PUSH2 0x5E4 JUMP JUMPDEST SWAP2 POP POP PUSH2 0x100 JUMP JUMPDEST POP DUP1 SWAP3 POP POP POP SWAP4 SWAP3 POP POP POP JUMP JUMPDEST PUSH1 0x0 PUSH1 0x60 PUSH1 0x0 DUP5 DUP5 SWAP1 POP SWAP1 POP PUSH1 0x0 PUSH1 0x1 DUP3 PUSH2 0x194 SWAP2 SWAP1 PUSH2 0x62D JUMP JUMPDEST DUP9 DUP11 PUSH2 0x1A0 SWAP2 SWAP1 PUSH2 0x683 JUMP JUMPDEST PUSH2 0x1AA SWAP2 SWAP1 PUSH2 0x5B3 JUMP JUMPDEST SWAP1 POP PUSH1 0x0 PUSH2 0x2710 DUP3 DUP11 PUSH2 0x1BD SWAP2 SWAP1 PUSH2 0x62D JUMP JUMPDEST DUP10 PUSH2 0x1C8 SWAP2 SWAP1 PUSH2 0x52A JUMP JUMPDEST PUSH2 0x1D2 SWAP2 SWAP1 PUSH2 0x5B3 JUMP JUMPDEST SWAP1 POP DUP1 PUSH2 0x1E0 DUP4 DUP10 DUP10 PUSH2 0xA6 JUMP JUMPDEST SWAP5 POP SWAP5 POP POP POP POP SWAP6 POP SWAP6 SWAP4 POP POP POP POP JUMP JUMPDEST PUSH1 0x0 DUP1 REVERT JUMPDEST PUSH1 0x0 DUP1 REVERT JUMPDEST PUSH1 0x0 DUP2 SWAP1 POP SWAP2 SWAP1 POP JUMP JUMPDEST PUSH2 0x20E DUP2 PUSH2 0x1FB JUMP JUMPDEST DUP2 EQ PUSH2 0x219 JUMPI PUSH1 0x0 DUP1 REVERT JUMPDEST POP JUMP JUMPDEST PUSH1 0x0 DUP2 CALLDATALOAD SWAP1 POP PUSH2 0x22B DUP2 PUSH2 0x205 JUMP JUMPDEST SWAP3 SWAP2 POP POP JUMP JUMPDEST PUSH1 0x0 DUP1 REVERT JUMPDEST PUSH1 0x0 DUP1 REVERT JUMPDEST PUSH1 0x0 DUP1 REVERT JUMPDEST PUSH1 0x0 DUP1 DUP4 PUSH1 0x1F DUP5 ADD SLT PUSH2 0x256 JUMPI PUSH2 0x255 PUSH2 0x231 JUMP JUMPDEST JUMPDEST DUP3 CALLDATALOAD SWAP1 POP PUSH8 0xFFFFFFFFFFFFFFFF DUP2 GT ISZERO PUSH2 0x273 JUMPI PUSH2 0x272 PUSH2 0x236 JUMP JUMPDEST JUMPDEST PUSH1 0x20 DUP4 ADD SWAP2 POP DUP4 PUSH1 0x20 DUP3 MUL DUP4 ADD GT ISZERO PUSH2 0x28F JUMPI PUSH2 0x28E PUSH2 0x23B JUMP JUMPDEST JUMPDEST SWAP3 POP SWAP3 SWAP1 POP JUMP JUMPDEST PUSH1 0x0 DUP1 PUSH1 0x0 PUSH1 0x40 DUP5 DUP7 SUB SLT ISZERO PUSH2 0x2AF JUMPI PUSH2 0x2AE PUSH2 0x1F1 JUMP JUMPDEST JUMPDEST PUSH1 0x0 PUSH2 0x2BD DUP7 DUP3 DUP8 ADD PUSH2 0x21C JUMP JUMPDEST SWAP4 POP POP PUSH1 0x20 DUP5 ADD CALLDATALOAD PUSH8 0xFFFFFFFFFFFFFFFF DUP2 GT ISZERO PUSH2 0x2DE JUMPI PUSH2 0x2DD PUSH2 0x1F6 JUMP JUMPDEST JUMPDEST PUSH2 0x2EA DUP7 DUP3 DUP8 ADD PUSH2 0x240 JUMP JUMPDEST SWAP3 POP SWAP3 POP POP SWAP3 POP SWAP3 POP SWAP3 JUMP JUMPDEST PUSH1 0x0 DUP2 MLOAD SWAP1 POP SWAP2 SWAP1 POP JUMP JUMPDEST PUSH1 0x0 DUP3 DUP3 MSTORE PUSH1 0x20 DUP3 ADD SWAP1 POP SWAP3 SWAP2 POP POP JUMP JUMPDEST PUSH1 0x0 DUP2 SWAP1 POP PUSH1 0x20 DUP3 ADD SWAP1 POP SWAP2 SWAP1 POP JUMP JUMPDEST PUSH2 0x32B DUP2 PUSH2 0x1FB JUMP JUMPDEST DUP3 MSTORE POP POP JUMP JUMPDEST PUSH1 0x0 PUSH2 0x33D DUP4 DUP4 PUSH2 0x322 JUMP JUMPDEST PUSH1 0x20 DUP4 ADD SWAP1 POP SWAP3 SWAP2 POP POP JUMP JUMPDEST PUSH1 0x0 PUSH1 0x20 DUP3 ADD SWAP1 POP SWAP2 SWAP1 POP JUMP JUMPDEST PUSH1 0x0 PUSH2 0x361 DUP3 PUSH2 0x2F6 JUMP JUMPDEST PUSH2 0x36B DUP2 DUP6 PUSH2 0x301 JUMP JUMPDEST SWAP4 POP PUSH2 0x376 DUP4 PUSH2 0x312 JUMP JUMPDEST DUP1 PUSH1 0x0 JUMPDEST DUP4 DUP2 LT ISZERO PUSH2 0x3A7 JUMPI DUP2 MLOAD PUSH2 0x38E DUP9 DUP3 PUSH2 0x331 JUMP JUMPDEST SWAP8 POP PUSH2 0x399 DUP4 PUSH2 0x349 JUMP JUMPDEST SWAP3 POP POP PUSH1 0x1 DUP2 ADD SWAP1 POP PUSH2 0x37A JUMP JUMPDEST POP DUP6 SWAP4 POP POP POP POP SWAP3 SWAP2 POP POP JUMP JUMPDEST PUSH1 0x0 PUSH1 0x20 DUP3 ADD SWAP1 POP DUP2 DUP2 SUB PUSH1 0x0 DUP4 ADD MSTORE PUSH2 0x3CE DUP2 DUP5 PUSH2 0x356 JUMP JUMPDEST SWAP1 POP SWAP3 SWAP2 POP POP JUMP JUMPDEST PUSH1 0x0 DUP1 PUSH1 0x0 DUP1 PUSH1 0x0 PUSH1 0x80 DUP7 DUP9 SUB SLT ISZERO PUSH2 0x3F2 JUMPI PUSH2 0x3F1 PUSH2 0x1F1 JUMP JUMPDEST JUMPDEST PUSH1 0x0 PUSH2 0x400 DUP9 DUP3 DUP10 ADD PUSH2 0x21C JUMP JUMPDEST SWAP6 POP POP PUSH1 0x20 PUSH2 0x411 DUP9 DUP3 DUP10 ADD PUSH2 0x21C JUMP JUMPDEST SWAP5 POP POP PUSH1 0x40 PUSH2 0x422 DUP9 DUP3 DUP10 ADD PUSH2 0x21C JUMP JUMPDEST SWAP4 POP POP PUSH1 0x60 DUP7 ADD CALLDATALOAD PUSH8 0xFFFFFFFFFFFFFFFF DUP2 GT ISZERO PUSH2 0x443 JUMPI PUSH2 0x442 PUSH2 0x1F6 JUMP JUMPDEST JUMPDEST PUSH2 0x44F DUP9 DUP3 DUP10 ADD PUSH2 0x240 JUMP JUMPDEST SWAP3 POP SWAP3 POP POP SWAP3 SWAP6 POP SWAP3 SWAP6 SWAP1 SWAP4 POP JUMP JUMPDEST PUSH2 0x467 DUP2 PUSH2 0x1FB JUMP JUMPDEST DUP3 MSTORE POP POP JUMP JUMPDEST PUSH1 0x0 PUSH1 0x40 DUP3 ADD SWAP1 POP PUSH2 0x482 PUSH1 0x0 DUP4 ADD DUP6 PUSH2 0x45E JUMP JUMPDEST DUP2 DUP2 SUB PUSH1 0x20 DUP4 ADD MSTORE PUSH2 0x494 DUP2 DUP5 PUSH2 0x356 JUMP JUMPDEST SWAP1 POP SWAP4 SWAP3 POP POP POP JUMP JUMPDEST PUSH32 0x4E487B7100000000000000000000000000000000000000000000000000000000 PUSH1 0x0 MSTORE PUSH1 0x41 PUSH1 0x4 MSTORE PUSH1 0x24 PUSH1 0x0 REVERT JUMPDEST PUSH32 0x4E487B7100000000000000000000000000000000000000000000000000000000 PUSH1 0x0 MSTORE PUSH1 0x32 PUSH1 0x4 MSTORE PUSH1 0x24 PUSH1 0x0 REVERT JUMPDEST PUSH32 0x4E487B7100000000000000000000000000000000000000000000000000000000 PUSH1 0x0 MSTORE PUSH1 0x11 PUSH1 0x4 MSTORE PUSH1 0x24 PUSH1 0x0 REVERT JUMPDEST PUSH1 0x0 PUSH2 0x535 DUP3 PUSH2 0x1FB JUMP JUMPDEST SWAP2 POP PUSH2 0x540 DUP4 PUSH2 0x1FB JUMP JUMPDEST SWAP3 POP DUP2 PUSH32 0xFFFFFFFFFFFFFFFFFFFFFFFFFFFFFFFFFFFFFFFFFFFFFFFFFFFFFFFFFFFFFFFF DIV DUP4 GT DUP3 ISZERO ISZERO AND ISZERO PUSH2 0x579 JUMPI PUSH2 0x578 PUSH2 0x4FB JUMP JUMPDEST JUMPDEST DUP3 DUP3 MUL SWAP1 POP SWAP3 SWAP2 POP POP JUMP JUMPDEST PUSH32 0x4E487B7100000000000000000000000000000000000000000000000000000000 PUSH1 0x0 MSTORE PUSH1 0x12 PUSH1 0x4 MSTORE PUSH1 0x24 PUSH1 0x0 REVERT JUMPDEST PUSH1 0x0 PUSH2 0x5BE DUP3 PUSH2 0x1FB JUMP JUMPDEST SWAP2 POP PUSH2 0x5C9 DUP4 PUSH2 0x1FB JUMP JUMPDEST SWAP3 POP DUP3 PUSH2 0x5D9 JUMPI PUSH2 0x5D8 PUSH2 0x584 JUMP JUMPDEST JUMPDEST DUP3 DUP3 DIV SWAP1 POP SWAP3 SWAP2 POP POP JUMP JUMPDEST PUSH1 0x0 PUSH2 0x5EF DUP3 PUSH2 0x1FB JUMP JUMPDEST SWAP2 POP PUSH32 0xFFFFFFFFFFFFFFFFFFFFFFFFFFFFFFFFFFFFFFFFFFFFFFFFFFFFFFFFFFFFFFFF DUP3 EQ ISZERO PUSH2 0x622 JUMPI PUSH2 0x621 PUSH2 0x4FB JUMP JUMPDEST JUMPDEST PUSH1 0x1 DUP3 ADD SWAP1 POP SWAP2 SWAP1 POP JUMP JUMPDEST PUSH1 0x0 PUSH2 0x638 DUP3 PUSH2 0x1FB JUMP JUMPDEST SWAP2 POP PUSH2 0x643 DUP4 PUSH2 0x1FB JUMP JUMPDEST SWAP3 POP DUP3 PUSH32 0xFFFFFFFFFFFFFFFFFFFFFFFFFFFFFFFFFFFFFFFFFFFFFFFFFFFFFFFFFFFFFFFF SUB DUP3 GT ISZERO PUSH2 0x678 JUMPI PUSH2 0x677 PUSH2 0x4FB JUMP JUMPDEST JUMPDEST DUP3 DUP3 ADD SWAP1 POP SWAP3 SWAP2 POP POP JUMP JUMPDEST PUSH1 0x0 PUSH2 0x68E DUP3 PUSH2 0x1FB JUMP JUMPDEST SWAP2 POP PUSH2 0x699 DUP4 PUSH2 0x1FB JUMP JUMPDEST SWAP3 POP DUP3 DUP3 LT ISZERO PUSH2 0x6AC JUMPI PUSH2 0x6AB PUSH2 0x4FB JUMP JUMPDEST JUMPDEST DUP3 DUP3 SUB SWAP1 POP SWAP3 SWAP2 POP POP JUMP INVALID LOG2 PUSH5 0x6970667358 0x22 SLT KECCAK256 0x2A SUB PUSH28 0x18EE85034D362BE6C520D07740097C1FD96921BD121CC0CF58DEC78F ORIGIN PUSH5 0x736F6C6343 STOP ADDMOD MULMOD STOP CALLER "},"methodIdentifiers":{"splitProportionately(uint256,uint256[])":"2372c8ec","splitWithOriginReward(uint256,uint256,uint256,uint256[])":"54f14edb"}}}}}