{
  "_format": "hh-sol-artifact-1",
  "contractName": "CampaignNFT",
  "sourceName": "contracts/CampaignNFT.sol",
  "abi": [
    {
      "inputs": [
        {
          "internalType": "address",
          "name": "_registry",
          "type": "address"
        }
      ],
      "stateMutability": "nonpayable",
      "type": "constructor"
    },
    {
      "anonymous": false,
      "inputs": [
        {
          "indexed": true,
          "internalType": "address",
          "name": "owner",
          "type": "address"
        },
        {
          "indexed": true,
          "internalType": "address",
          "name": "approved",
          "type": "address"
        },
        {
          "indexed": true,
          "internalType": "uint256",
          "name": "tokenId",
          "type": "uint256"
        }
      ],
      "name": "Approval",
      "type": "event"
    },
    {
      "anonymous": false,
      "inputs": [
        {
          "indexed": true,
          "internalType": "address",
          "name": "owner",
          "type": "address"
        },
        {
          "indexed": true,
          "internalType": "address",
          "name": "operator",
          "type": "address"
        },
        {
          "indexed": false,
          "internalType": "bool",
          "name": "approved",
          "type": "bool"
        }
      ],
      "name": "ApprovalForAll",
      "type": "event"
    },
    {
      "anonymous": false,
      "inputs": [
        {
          "indexed": true,
          "internalType": "bytes32",
          "name": "role",
          "type": "bytes32"
        },
        {
          "indexed": true,
          "internalType": "bytes32",
          "name": "previousAdminRole",
          "type": "bytes32"
        },
        {
          "indexed": true,
          "internalType": "bytes32",
          "name": "newAdminRole",
          "type": "bytes32"
        }
      ],
      "name": "RoleAdminChanged",
      "type": "event"
    },
    {
      "anonymous": false,
      "inputs": [
        {
          "indexed": true,
          "internalType": "bytes32",
          "name": "role",
          "type": "bytes32"
        },
        {
          "indexed": true,
          "internalType": "address",
          "name": "account",
          "type": "address"
        },
        {
          "indexed": true,
          "internalType": "address",
          "name": "sender",
          "type": "address"
        }
      ],
      "name": "RoleGranted",
      "type": "event"
    },
    {
      "anonymous": false,
      "inputs": [
        {
          "indexed": true,
          "internalType": "bytes32",
          "name": "role",
          "type": "bytes32"
        },
        {
          "indexed": true,
          "internalType": "address",
          "name": "account",
          "type": "address"
        },
        {
          "indexed": true,
          "internalType": "address",
          "name": "sender",
          "type": "address"
        }
      ],
      "name": "RoleRevoked",
      "type": "event"
    },
    {
      "anonymous": false,
      "inputs": [
        {
          "indexed": true,
          "internalType": "address",
          "name": "from",
          "type": "address"
        },
        {
          "indexed": true,
          "internalType": "address",
          "name": "to",
          "type": "address"
        },
        {
          "indexed": true,
          "internalType": "uint256",
          "name": "tokenId",
          "type": "uint256"
        }
      ],
      "name": "Transfer",
      "type": "event"
    },
    {
      "anonymous": false,
      "inputs": [
        {
          "indexed": true,
          "internalType": "address",
          "name": "backer",
          "type": "address"
        },
        {
          "indexed": true,
          "internalType": "address",
          "name": "campaignInfo",
          "type": "address"
        },
        {
          "indexed": false,
          "internalType": "address",
          "name": "token",
          "type": "address"
        },
        {
          "indexed": true,
          "internalType": "bytes32",
          "name": "platform",
          "type": "bytes32"
        },
        {
          "indexed": false,
          "internalType": "uint256",
          "name": "pledgedAmount",
          "type": "uint256"
        },
        {
          "indexed": false,
          "internalType": "uint256",
          "name": "timestamp",
          "type": "uint256"
        },
        {
          "indexed": false,
          "internalType": "uint256",
          "name": "tokenId",
          "type": "uint256"
        },
        {
          "indexed": false,
          "internalType": "string",
          "name": "rewardName",
          "type": "string"
        }
      ],
      "name": "pledgeReceipt",
      "type": "event"
    },
    {
      "inputs": [],
      "name": "DEFAULT_ADMIN_ROLE",
      "outputs": [
        {
          "internalType": "bytes32",
          "name": "",
          "type": "bytes32"
        }
      ],
      "stateMutability": "view",
      "type": "function"
    },
    {
      "inputs": [],
      "name": "MINTER_ROLE",
      "outputs": [
        {
          "internalType": "bytes32",
          "name": "",
          "type": "bytes32"
        }
      ],
      "stateMutability": "view",
      "type": "function"
    },
    {
      "inputs": [
        {
          "internalType": "address",
          "name": "to",
          "type": "address"
        },
        {
          "internalType": "uint256",
          "name": "tokenId",
          "type": "uint256"
        }
      ],
      "name": "approve",
      "outputs": [],
      "stateMutability": "nonpayable",
      "type": "function"
    },
    {
      "inputs": [
        {
          "internalType": "address",
          "name": "owner",
          "type": "address"
        }
      ],
      "name": "balanceOf",
      "outputs": [
        {
          "internalType": "uint256",
          "name": "",
          "type": "uint256"
        }
      ],
      "stateMutability": "view",
      "type": "function"
    },
    {
      "inputs": [
        {
          "internalType": "uint256",
          "name": "tokenId",
          "type": "uint256"
        }
      ],
      "name": "burn",
      "outputs": [],
      "stateMutability": "nonpayable",
      "type": "function"
    },
    {
      "inputs": [
        {
          "internalType": "uint256",
          "name": "tokenId",
          "type": "uint256"
        }
      ],
      "name": "getApproved",
      "outputs": [
        {
          "internalType": "address",
          "name": "",
          "type": "address"
        }
      ],
      "stateMutability": "view",
      "type": "function"
    },
    {
      "inputs": [
        {
          "internalType": "uint256",
          "name": "tokenId",
          "type": "uint256"
        }
      ],
      "name": "getPledgeReceipt",
      "outputs": [
        {
          "internalType": "address",
          "name": "campaignInfo",
          "type": "address"
        },
        {
          "internalType": "address",
          "name": "backer",
          "type": "address"
        },
        {
          "internalType": "address",
          "name": "token",
          "type": "address"
        },
        {
          "internalType": "uint256",
          "name": "pledgedAmount",
          "type": "uint256"
        },
        {
          "internalType": "uint256",
          "name": "timestamp",
          "type": "uint256"
        },
        {
          "internalType": "bytes32",
          "name": "platformId",
          "type": "bytes32"
        },
        {
          "internalType": "string",
          "name": "rewardName",
          "type": "string"
        }
      ],
      "stateMutability": "view",
      "type": "function"
    },
    {
      "inputs": [
        {
          "internalType": "bytes32",
          "name": "role",
          "type": "bytes32"
        }
      ],
      "name": "getRoleAdmin",
      "outputs": [
        {
          "internalType": "bytes32",
          "name": "",
          "type": "bytes32"
        }
      ],
      "stateMutability": "view",
      "type": "function"
    },
    {
      "inputs": [
        {
          "internalType": "bytes32",
          "name": "role",
          "type": "bytes32"
        },
        {
          "internalType": "address",
          "name": "account",
          "type": "address"
        }
      ],
      "name": "grantRole",
      "outputs": [],
      "stateMutability": "nonpayable",
      "type": "function"
    },
    {
      "inputs": [
        {
          "internalType": "address",
          "name": "_campaignInfo",
          "type": "address"
        }
      ],
      "name": "grantRole",
      "outputs": [],
      "stateMutability": "nonpayable",
      "type": "function"
    },
    {
      "inputs": [
        {
          "internalType": "bytes32",
          "name": "role",
          "type": "bytes32"
        },
        {
          "internalType": "address",
          "name": "account",
          "type": "address"
        }
      ],
      "name": "hasRole",
      "outputs": [
        {
          "internalType": "bool",
          "name": "",
          "type": "bool"
        }
      ],
      "stateMutability": "view",
      "type": "function"
    },
    {
      "inputs": [
        {
          "internalType": "address",
          "name": "owner",
          "type": "address"
        },
        {
          "internalType": "address",
          "name": "operator",
          "type": "address"
        }
      ],
      "name": "isApprovedForAll",
      "outputs": [
        {
          "internalType": "bool",
          "name": "",
          "type": "bool"
        }
      ],
      "stateMutability": "view",
      "type": "function"
    },
    {
      "inputs": [],
      "name": "name",
      "outputs": [
        {
          "internalType": "string",
          "name": "",
          "type": "string"
        }
      ],
      "stateMutability": "view",
      "type": "function"
    },
    {
      "inputs": [
        {
          "internalType": "uint256",
          "name": "tokenId",
          "type": "uint256"
        }
      ],
      "name": "ownerOf",
      "outputs": [
        {
          "internalType": "address",
          "name": "",
          "type": "address"
        }
      ],
      "stateMutability": "view",
      "type": "function"
    },
    {
      "inputs": [
        {
          "internalType": "bytes32",
          "name": "role",
          "type": "bytes32"
        },
        {
          "internalType": "address",
          "name": "account",
          "type": "address"
        }
      ],
      "name": "renounceRole",
      "outputs": [],
      "stateMutability": "nonpayable",
      "type": "function"
    },
    {
      "inputs": [
        {
          "internalType": "bytes32",
          "name": "role",
          "type": "bytes32"
        },
        {
          "internalType": "address",
          "name": "account",
          "type": "address"
        }
      ],
      "name": "revokeRole",
      "outputs": [],
      "stateMutability": "nonpayable",
      "type": "function"
    },
    {
      "inputs": [
        {
          "internalType": "address",
          "name": "backer",
          "type": "address"
        },
        {
          "internalType": "address",
          "name": "token",
          "type": "address"
        },
        {
          "internalType": "uint256",
          "name": "pledgedAmount",
          "type": "uint256"
        },
        {
          "internalType": "bytes32",
          "name": "platformId",
          "type": "bytes32"
        },
        {
          "internalType": "string",
          "name": "rewardName",
          "type": "string"
        }
      ],
      "name": "safeMint",
      "outputs": [
        {
          "internalType": "uint256",
          "name": "tokenId",
          "type": "uint256"
        }
      ],
      "stateMutability": "nonpayable",
      "type": "function"
    },
    {
      "inputs": [
        {
          "internalType": "address",
          "name": "backer",
          "type": "address"
        },
        {
          "internalType": "address",
          "name": "token",
          "type": "address"
        },
        {
          "internalType": "uint256",
          "name": "pledgedAmount",
          "type": "uint256"
        },
        {
          "internalType": "bytes32",
          "name": "platformId",
          "type": "bytes32"
        }
      ],
      "name": "safeMint",
      "outputs": [
        {
          "internalType": "uint256",
          "name": "tokenId",
          "type": "uint256"
        }
      ],
      "stateMutability": "nonpayable",
      "type": "function"
    },
    {
      "inputs": [
        {
          "internalType": "address",
          "name": "from",
          "type": "address"
        },
        {
          "internalType": "address",
          "name": "to",
          "type": "address"
        },
        {
          "internalType": "uint256",
          "name": "tokenId",
          "type": "uint256"
        }
      ],
      "name": "safeTransferFrom",
      "outputs": [],
      "stateMutability": "nonpayable",
      "type": "function"
    },
    {
      "inputs": [
        {
          "internalType": "address",
          "name": "from",
          "type": "address"
        },
        {
          "internalType": "address",
          "name": "to",
          "type": "address"
        },
        {
          "internalType": "uint256",
          "name": "tokenId",
          "type": "uint256"
        },
        {
          "internalType": "bytes",
          "name": "data",
          "type": "bytes"
        }
      ],
      "name": "safeTransferFrom",
      "outputs": [],
      "stateMutability": "nonpayable",
      "type": "function"
    },
    {
      "inputs": [
        {
          "internalType": "address",
          "name": "operator",
          "type": "address"
        },
        {
          "internalType": "bool",
          "name": "approved",
          "type": "bool"
        }
      ],
      "name": "setApprovalForAll",
      "outputs": [],
      "stateMutability": "nonpayable",
      "type": "function"
    },
    {
      "inputs": [
        {
          "internalType": "bytes4",
          "name": "interfaceId",
          "type": "bytes4"
        }
      ],
      "name": "supportsInterface",
      "outputs": [
        {
          "internalType": "bool",
          "name": "",
          "type": "bool"
        }
      ],
      "stateMutability": "view",
      "type": "function"
    },
    {
      "inputs": [],
      "name": "symbol",
      "outputs": [
        {
          "internalType": "string",
          "name": "",
          "type": "string"
        }
      ],
      "stateMutability": "view",
      "type": "function"
    },
    {
      "inputs": [
        {
          "internalType": "uint256",
          "name": "tokenId",
          "type": "uint256"
        }
      ],
      "name": "tokenURI",
      "outputs": [
        {
          "internalType": "string",
          "name": "",
          "type": "string"
        }
      ],
      "stateMutability": "view",
      "type": "function"
    },
    {
      "inputs": [
        {
          "internalType": "address",
          "name": "from",
          "type": "address"
        },
        {
          "internalType": "address",
          "name": "to",
          "type": "address"
        },
        {
          "internalType": "uint256",
          "name": "tokenId",
          "type": "uint256"
        }
      ],
      "name": "transferFrom",
      "outputs": [],
      "stateMutability": "nonpayable",
      "type": "function"
    }
  ],
  "bytecode": "0x60806040523480156200001157600080fd5b50604051620040eb380380620040eb833981810160405281019062000037919062000372565b6040518060400160405280600b81526020017f43616d706169676e4e46540000000000000000000000000000000000000000008152506040518060400160405280600481526020017f434e4654000000000000000000000000000000000000000000000000000000008152508160009080519060200190620000bb92919062000258565b508060019080519060200190620000d492919062000258565b505050620000ec6000801b82620000f360201b60201c565b5062000409565b620001058282620001e560201b60201c565b620001e15760016006600084815260200190815260200160002060000160008373ffffffffffffffffffffffffffffffffffffffff1673ffffffffffffffffffffffffffffffffffffffff16815260200190815260200160002060006101000a81548160ff021916908315150217905550620001866200025060201b60201c565b73ffffffffffffffffffffffffffffffffffffffff168173ffffffffffffffffffffffffffffffffffffffff16837f2f8788117e7eff1d82e926ec794901d17c78024a50270940304540a733656f0d60405160405180910390a45b5050565b60006006600084815260200190815260200160002060000160008373ffffffffffffffffffffffffffffffffffffffff1673ffffffffffffffffffffffffffffffffffffffff16815260200190815260200160002060009054906101000a900460ff16905092915050565b600033905090565b8280546200026690620003d3565b90600052602060002090601f0160209004810192826200028a5760008555620002d6565b82601f10620002a557805160ff1916838001178555620002d6565b82800160010185558215620002d6579182015b82811115620002d5578251825591602001919060010190620002b8565b5b509050620002e59190620002e9565b5090565b5b8082111562000304576000816000905550600101620002ea565b5090565b600080fd5b600073ffffffffffffffffffffffffffffffffffffffff82169050919050565b60006200033a826200030d565b9050919050565b6200034c816200032d565b81146200035857600080fd5b50565b6000815190506200036c8162000341565b92915050565b6000602082840312156200038b576200038a62000308565b5b60006200039b848285016200035b565b91505092915050565b7f4e487b7100000000000000000000000000000000000000000000000000000000600052602260045260246000fd5b60006002820490506001821680620003ec57607f821691505b60208210811415620004035762000402620003a4565b5b50919050565b613cd280620004196000396000f3fe608060405234801561001057600080fd5b50600436106101735760003560e01c80636352211e116100de578063a22cb46511610097578063c87b56dd11610071578063c87b56dd14610484578063d5391393146104b4578063d547741f146104d2578063e985e9c5146104ee57610173565b8063a22cb46514610416578063b88d4fde14610432578063c20c42f81461044e57610173565b80636352211e1461031a57806370a082311461034a5780638e48312f1461037a57806391d14854146103aa57806395d89b41146103da578063a217fddf146103f857610173565b80632f2ff15d116101305780632f2ff15d1461025e57806336568abe1461027a578063389776861461029657806342842e0e146102b257806342966c68146102ce5780634ebc0c19146102ea57610173565b806301ffc9a71461017857806306fdde03146101a8578063081812fc146101c6578063095ea7b3146101f657806323b872dd14610212578063248a9ca31461022e575b600080fd5b610192600480360381019061018d9190612832565b61051e565b60405161019f919061287a565b60405180910390f35b6101b0610530565b6040516101bd919061292e565b60405180910390f35b6101e060048036038101906101db9190612986565b6105c2565b6040516101ed91906129f4565b60405180910390f35b610210600480360381019061020b9190612a3b565b610608565b005b61022c60048036038101906102279190612a7b565b610720565b005b61024860048036038101906102439190612b04565b610780565b6040516102559190612b40565b60405180910390f35b61027860048036038101906102739190612b5b565b6107a0565b005b610294600480360381019061028f9190612b5b565b6107c1565b005b6102b060048036038101906102ab9190612b9b565b610844565b005b6102cc60048036038101906102c79190612a7b565b61087f565b005b6102e860048036038101906102e39190612986565b61089f565b005b61030460048036038101906102ff9190612c2d565b610989565b6040516103119190612cd6565b60405180910390f35b610334600480360381019061032f9190612986565b610b60565b60405161034191906129f4565b60405180910390f35b610364600480360381019061035f9190612b9b565b610c12565b6040516103719190612cd6565b60405180910390f35b610394600480360381019061038f9190612cf1565b610cca565b6040516103a19190612cd6565b60405180910390f35b6103c460048036038101906103bf9190612b5b565b610e87565b6040516103d1919061287a565b60405180910390f35b6103e2610ef2565b6040516103ef919061292e565b60405180910390f35b610400610f84565b60405161040d9190612b40565b60405180910390f35b610430600480360381019061042b9190612d84565b610f8b565b005b61044c60048036038101906104479190612ef4565b610fa1565b005b61046860048036038101906104639190612986565b611003565b60405161047b9796959493929190612f77565b60405180910390f35b61049e60048036038101906104999190612986565b61121f565b6040516104ab919061292e565b60405180910390f35b6104bc611287565b6040516104c99190612b40565b60405180910390f35b6104ec60048036038101906104e79190612b5b565b6112ab565b005b61050860048036038101906105039190612fed565b6112cc565b604051610515919061287a565b60405180910390f35b600061052982611360565b9050919050565b60606000805461053f9061305c565b80601f016020809104026020016040519081016040528092919081815260200182805461056b9061305c565b80156105b85780601f1061058d576101008083540402835291602001916105b8565b820191906000526020600020905b81548152906001019060200180831161059b57829003601f168201915b5050505050905090565b60006105cd826113da565b6004600083815260200190815260200160002060009054906101000a900473ffffffffffffffffffffffffffffffffffffffff169050919050565b600061061382610b60565b90508073ffffffffffffffffffffffffffffffffffffffff168373ffffffffffffffffffffffffffffffffffffffff161415610684576040517f08c379a000000000000000000000000000000000000000000000000000000000815260040161067b90613100565b60405180910390fd5b8073ffffffffffffffffffffffffffffffffffffffff166106a3611425565b73ffffffffffffffffffffffffffffffffffffffff1614806106d257506106d1816106cc611425565b6112cc565b5b610711576040517f08c379a000000000000000000000000000000000000000000000000000000000815260040161070890613192565b60405180910390fd5b61071b838361142d565b505050565b61073161072b611425565b826114e6565b610770576040517f08c379a000000000000000000000000000000000000000000000000000000000815260040161076790613224565b60405180910390fd5b61077b83838361157b565b505050565b600060066000838152602001908152602001600020600101549050919050565b6107a982610780565b6107b2816117e2565b6107bc83836117f6565b505050565b6107c9611425565b73ffffffffffffffffffffffffffffffffffffffff168173ffffffffffffffffffffffffffffffffffffffff1614610836576040517f08c379a000000000000000000000000000000000000000000000000000000000815260040161082d906132b6565b60405180910390fd5b61084082826118d7565b5050565b6000801b610851816117e2565b61087b7f9f2df0fed2c77648de5860a4cc508cd0818c85b8b8a1ab4ceeef8d981c8956a6836117f6565b5050565b61089a83838360405180602001604052806000815250610fa1565b505050565b7f9f2df0fed2c77648de5860a4cc508cd0818c85b8b8a1ab4ceeef8d981c8956a66108c9816117e2565b6108d2826119b9565b60076000838152602001908152602001600020600080820160006101000a81549073ffffffffffffffffffffffffffffffffffffffff02191690556001820160006101000a81549073ffffffffffffffffffffffffffffffffffffffff02191690556002820160006101000a81549073ffffffffffffffffffffffffffffffffffffffff021916905560038201600090556004820160009055600582016000905560068201600061098391906126e3565b50505050565b60007f9f2df0fed2c77648de5860a4cc508cd0818c85b8b8a1ab4ceeef8d981c8956a66109b5816117e2565b6109bf6008611ad6565b91506109cb6008611ae4565b6109d58883611afa565b6000600760008481526020019081526020016000209050338160000160006101000a81548173ffffffffffffffffffffffffffffffffffffffff021916908373ffffffffffffffffffffffffffffffffffffffff160217905550888160010160006101000a81548173ffffffffffffffffffffffffffffffffffffffff021916908373ffffffffffffffffffffffffffffffffffffffff160217905550878160020160006101000a81548173ffffffffffffffffffffffffffffffffffffffff021916908373ffffffffffffffffffffffffffffffffffffffff1602179055508681600301819055504281600401819055508581600501819055508484826006019190610ae3929190612723565b50853373ffffffffffffffffffffffffffffffffffffffff168a73ffffffffffffffffffffffffffffffffffffffff167f87d5580dea17703e5c671bc0b2dd2c0fc66ea5f2dfb41bb51b6fc282264a13ac8b8b42898c8c604051610b4c96959493929190613303565b60405180910390a450509695505050505050565b6000806002600084815260200190815260200160002060009054906101000a900473ffffffffffffffffffffffffffffffffffffffff169050600073ffffffffffffffffffffffffffffffffffffffff168173ffffffffffffffffffffffffffffffffffffffff161415610c09576040517f08c379a0000000000000000000000000000000000000000000000000000000008152600401610c00906133ab565b60405180910390fd5b80915050919050565b60008073ffffffffffffffffffffffffffffffffffffffff168273ffffffffffffffffffffffffffffffffffffffff161415610c83576040517f08c379a0000000000000000000000000000000000000000000000000000000008152600401610c7a9061343d565b60405180910390fd5b600360008373ffffffffffffffffffffffffffffffffffffffff1673ffffffffffffffffffffffffffffffffffffffff168152602001908152602001600020549050919050565b60007f9f2df0fed2c77648de5860a4cc508cd0818c85b8b8a1ab4ceeef8d981c8956a6610cf6816117e2565b610d006008611ad6565b9150610d0c6008611ae4565b610d168683611afa565b6000600760008481526020019081526020016000209050338160000160006101000a81548173ffffffffffffffffffffffffffffffffffffffff021916908373ffffffffffffffffffffffffffffffffffffffff160217905550868160010160006101000a81548173ffffffffffffffffffffffffffffffffffffffff021916908373ffffffffffffffffffffffffffffffffffffffff160217905550858160020160006101000a81548173ffffffffffffffffffffffffffffffffffffffff021916908373ffffffffffffffffffffffffffffffffffffffff160217905550848160030181905550428160040181905550838160050181905550833373ffffffffffffffffffffffffffffffffffffffff168873ffffffffffffffffffffffffffffffffffffffff167f87d5580dea17703e5c671bc0b2dd2c0fc66ea5f2dfb41bb51b6fc282264a13ac89894289604051610e759493929190613483565b60405180910390a45050949350505050565b60006006600084815260200190815260200160002060000160008373ffffffffffffffffffffffffffffffffffffffff1673ffffffffffffffffffffffffffffffffffffffff16815260200190815260200160002060009054906101000a900460ff16905092915050565b606060018054610f019061305c565b80601f0160208091040260200160405190810160405280929190818152602001828054610f2d9061305c565b8015610f7a5780601f10610f4f57610100808354040283529160200191610f7a565b820191906000526020600020905b815481529060010190602001808311610f5d57829003601f168201915b5050505050905090565b6000801b81565b610f9d610f96611425565b8383611b18565b5050565b610fb2610fac611425565b836114e6565b610ff1576040517f08c379a0000000000000000000000000000000000000000000000000000000008152600401610fe890613224565b60405180910390fd5b610ffd84848484611c85565b50505050565b60008060008060008060606000600760008a81526020019081526020016000206040518060e00160405290816000820160009054906101000a900473ffffffffffffffffffffffffffffffffffffffff1673ffffffffffffffffffffffffffffffffffffffff1673ffffffffffffffffffffffffffffffffffffffff1681526020016001820160009054906101000a900473ffffffffffffffffffffffffffffffffffffffff1673ffffffffffffffffffffffffffffffffffffffff1673ffffffffffffffffffffffffffffffffffffffff1681526020016002820160009054906101000a900473ffffffffffffffffffffffffffffffffffffffff1673ffffffffffffffffffffffffffffffffffffffff1673ffffffffffffffffffffffffffffffffffffffff16815260200160038201548152602001600482015481526020016005820154815260200160068201805461115e9061305c565b80601f016020809104026020016040519081016040528092919081815260200182805461118a9061305c565b80156111d75780601f106111ac576101008083540402835291602001916111d7565b820191906000526020600020905b8154815290600101906020018083116111ba57829003601f168201915b505050505081525050905080600001519750806020015196508060600151945080604001519550806080015193508060a0015192508060c00151915050919395979092949650565b606061122a826113da565b6000611234611ce1565b90506000815111611254576040518060200160405280600081525061127f565b8061125e84611cf8565b60405160200161126f929190613517565b6040516020818303038152906040525b915050919050565b7f9f2df0fed2c77648de5860a4cc508cd0818c85b8b8a1ab4ceeef8d981c8956a681565b6112b482610780565b6112bd816117e2565b6112c783836118d7565b505050565b6000600560008473ffffffffffffffffffffffffffffffffffffffff1673ffffffffffffffffffffffffffffffffffffffff16815260200190815260200160002060008373ffffffffffffffffffffffffffffffffffffffff1673ffffffffffffffffffffffffffffffffffffffff16815260200190815260200160002060009054906101000a900460ff16905092915050565b60007f7965db0b000000000000000000000000000000000000000000000000000000007bffffffffffffffffffffffffffffffffffffffffffffffffffffffff1916827bffffffffffffffffffffffffffffffffffffffffffffffffffffffff191614806113d357506113d282611e59565b5b9050919050565b6113e381611f3b565b611422576040517f08c379a0000000000000000000000000000000000000000000000000000000008152600401611419906133ab565b60405180910390fd5b50565b600033905090565b816004600083815260200190815260200160002060006101000a81548173ffffffffffffffffffffffffffffffffffffffff021916908373ffffffffffffffffffffffffffffffffffffffff160217905550808273ffffffffffffffffffffffffffffffffffffffff166114a083610b60565b73ffffffffffffffffffffffffffffffffffffffff167f8c5be1e5ebec7d5bd14f71427d1e84f3dd0314c0f7b2291e5b200ac8c7c3b92560405160405180910390a45050565b6000806114f283610b60565b90508073ffffffffffffffffffffffffffffffffffffffff168473ffffffffffffffffffffffffffffffffffffffff161480611534575061153381856112cc565b5b8061157257508373ffffffffffffffffffffffffffffffffffffffff1661155a846105c2565b73ffffffffffffffffffffffffffffffffffffffff16145b91505092915050565b8273ffffffffffffffffffffffffffffffffffffffff1661159b82610b60565b73ffffffffffffffffffffffffffffffffffffffff16146115f1576040517f08c379a00000000000000000000000000000000000000000000000000000000081526004016115e8906135ad565b60405180910390fd5b600073ffffffffffffffffffffffffffffffffffffffff168273ffffffffffffffffffffffffffffffffffffffff161415611661576040517f08c379a00000000000000000000000000000000000000000000000000000000081526004016116589061363f565b60405180910390fd5b61166c838383611fa7565b61167760008261142d565b6001600360008573ffffffffffffffffffffffffffffffffffffffff1673ffffffffffffffffffffffffffffffffffffffff16815260200190815260200160002060008282546116c7919061368e565b925050819055506001600360008473ffffffffffffffffffffffffffffffffffffffff1673ffffffffffffffffffffffffffffffffffffffff168152602001908152602001600020600082825461171e91906136c2565b92505081905550816002600083815260200190815260200160002060006101000a81548173ffffffffffffffffffffffffffffffffffffffff021916908373ffffffffffffffffffffffffffffffffffffffff160217905550808273ffffffffffffffffffffffffffffffffffffffff168473ffffffffffffffffffffffffffffffffffffffff167fddf252ad1be2c89b69c2b068fc378daa952ba7f163c4a11628f55a4df523b3ef60405160405180910390a46117dd838383611fac565b505050565b6117f3816117ee611425565b611fb1565b50565b6118008282610e87565b6118d35760016006600084815260200190815260200160002060000160008373ffffffffffffffffffffffffffffffffffffffff1673ffffffffffffffffffffffffffffffffffffffff16815260200190815260200160002060006101000a81548160ff021916908315150217905550611878611425565b73ffffffffffffffffffffffffffffffffffffffff168173ffffffffffffffffffffffffffffffffffffffff16837f2f8788117e7eff1d82e926ec794901d17c78024a50270940304540a733656f0d60405160405180910390a45b5050565b6118e18282610e87565b156119b55760006006600084815260200190815260200160002060000160008373ffffffffffffffffffffffffffffffffffffffff1673ffffffffffffffffffffffffffffffffffffffff16815260200190815260200160002060006101000a81548160ff02191690831515021790555061195a611425565b73ffffffffffffffffffffffffffffffffffffffff168173ffffffffffffffffffffffffffffffffffffffff16837ff6391f5c32d9c69d2a47ea670b442974b53935d1edc7fd64eb21e047a839171b60405160405180910390a45b5050565b60006119c482610b60565b90506119d281600084611fa7565b6119dd60008361142d565b6001600360008373ffffffffffffffffffffffffffffffffffffffff1673ffffffffffffffffffffffffffffffffffffffff1681526020019081526020016000206000828254611a2d919061368e565b925050819055506002600083815260200190815260200160002060006101000a81549073ffffffffffffffffffffffffffffffffffffffff021916905581600073ffffffffffffffffffffffffffffffffffffffff168273ffffffffffffffffffffffffffffffffffffffff167fddf252ad1be2c89b69c2b068fc378daa952ba7f163c4a11628f55a4df523b3ef60405160405180910390a4611ad281600084611fac565b5050565b600081600001549050919050565b6001816000016000828254019250508190555050565b611b1482826040518060200160405280600081525061204e565b5050565b8173ffffffffffffffffffffffffffffffffffffffff168373ffffffffffffffffffffffffffffffffffffffff161415611b87576040517f08c379a0000000000000000000000000000000000000000000000000000000008152600401611b7e90613764565b60405180910390fd5b80600560008573ffffffffffffffffffffffffffffffffffffffff1673ffffffffffffffffffffffffffffffffffffffff16815260200190815260200160002060008473ffffffffffffffffffffffffffffffffffffffff1673ffffffffffffffffffffffffffffffffffffffff16815260200190815260200160002060006101000a81548160ff0219169083151502179055508173ffffffffffffffffffffffffffffffffffffffff168373ffffffffffffffffffffffffffffffffffffffff167f17307eab39ab6107e8899845ad3d59bd9653f200f220920489ca2b5937696c3183604051611c78919061287a565b60405180910390a3505050565b611c9084848461157b565b611c9c848484846120a9565b611cdb576040517f08c379a0000000000000000000000000000000000000000000000000000000008152600401611cd2906137f6565b60405180910390fd5b50505050565b606060405180602001604052806000815250905090565b60606000821415611d40576040518060400160405280600181526020017f30000000000000000000000000000000000000000000000000000000000000008152509050611e54565b600082905060005b60008214611d72578080611d5b90613816565b915050600a82611d6b919061388e565b9150611d48565b60008167ffffffffffffffff811115611d8e57611d8d612dc9565b5b6040519080825280601f01601f191660200182016040528015611dc05781602001600182028036833780820191505090505b5090505b60008514611e4d57600182611dd9919061368e565b9150600a85611de891906138bf565b6030611df491906136c2565b60f81b818381518110611e0a57611e096138f0565b5b60200101907effffffffffffffffffffffffffffffffffffffffffffffffffffffffffffff1916908160001a905350600a85611e46919061388e565b9450611dc4565b8093505050505b919050565b60007f80ac58cd000000000000000000000000000000000000000000000000000000007bffffffffffffffffffffffffffffffffffffffffffffffffffffffff1916827bffffffffffffffffffffffffffffffffffffffffffffffffffffffff19161480611f2457507f5b5e139f000000000000000000000000000000000000000000000000000000007bffffffffffffffffffffffffffffffffffffffffffffffffffffffff1916827bffffffffffffffffffffffffffffffffffffffffffffffffffffffff1916145b80611f345750611f3382612240565b5b9050919050565b60008073ffffffffffffffffffffffffffffffffffffffff166002600084815260200190815260200160002060009054906101000a900473ffffffffffffffffffffffffffffffffffffffff1673ffffffffffffffffffffffffffffffffffffffff1614159050919050565b505050565b505050565b611fbb8282610e87565b61204a57611fe08173ffffffffffffffffffffffffffffffffffffffff1660146122aa565b611fee8360001c60206122aa565b604051602001611fff9291906139b7565b6040516020818303038152906040526040517f08c379a0000000000000000000000000000000000000000000000000000000008152600401612041919061292e565b60405180910390fd5b5050565b61205883836124e6565b61206560008484846120a9565b6120a4576040517f08c379a000000000000000000000000000000000000000000000000000000000815260040161209b906137f6565b60405180910390fd5b505050565b60006120ca8473ffffffffffffffffffffffffffffffffffffffff166126c0565b15612233578373ffffffffffffffffffffffffffffffffffffffff1663150b7a026120f3611425565b8786866040518563ffffffff1660e01b81526004016121159493929190613a46565b602060405180830381600087803b15801561212f57600080fd5b505af192505050801561216057506040513d601f19601f8201168201806040525081019061215d9190613aa7565b60015b6121e3573d8060008114612190576040519150601f19603f3d011682016040523d82523d6000602084013e612195565b606091505b506000815114156121db576040517f08c379a00000000000000000000000000000000000000000000000000000000081526004016121d2906137f6565b60405180910390fd5b805181602001fd5b63150b7a0260e01b7bffffffffffffffffffffffffffffffffffffffffffffffffffffffff1916817bffffffffffffffffffffffffffffffffffffffffffffffffffffffff191614915050612238565b600190505b949350505050565b60007f01ffc9a7000000000000000000000000000000000000000000000000000000007bffffffffffffffffffffffffffffffffffffffffffffffffffffffff1916827bffffffffffffffffffffffffffffffffffffffffffffffffffffffff1916149050919050565b6060600060028360026122bd9190613ad4565b6122c791906136c2565b67ffffffffffffffff8111156122e0576122df612dc9565b5b6040519080825280601f01601f1916602001820160405280156123125781602001600182028036833780820191505090505b5090507f30000000000000000000000000000000000000000000000000000000000000008160008151811061234a576123496138f0565b5b60200101907effffffffffffffffffffffffffffffffffffffffffffffffffffffffffffff1916908160001a9053507f7800000000000000000000000000000000000000000000000000000000000000816001815181106123ae576123ad6138f0565b5b60200101907effffffffffffffffffffffffffffffffffffffffffffffffffffffffffffff1916908160001a905350600060018460026123ee9190613ad4565b6123f891906136c2565b90505b6001811115612498577f3031323334353637383961626364656600000000000000000000000000000000600f86166010811061243a576124396138f0565b5b1a60f81b828281518110612451576124506138f0565b5b60200101907effffffffffffffffffffffffffffffffffffffffffffffffffffffffffffff1916908160001a905350600485901c94508061249190613b2e565b90506123fb565b50600084146124dc576040517f08c379a00000000000000000000000000000000000000000000000000000000081526004016124d390613ba4565b60405180910390fd5b8091505092915050565b600073ffffffffffffffffffffffffffffffffffffffff168273ffffffffffffffffffffffffffffffffffffffff161415612556576040517f08c379a000000000000000000000000000000000000000000000000000000000815260040161254d90613c10565b60405180910390fd5b61255f81611f3b565b1561259f576040517f08c379a000000000000000000000000000000000000000000000000000000000815260040161259690613c7c565b60405180910390fd5b6125ab60008383611fa7565b6001600360008473ffffffffffffffffffffffffffffffffffffffff1673ffffffffffffffffffffffffffffffffffffffff16815260200190815260200160002060008282546125fb91906136c2565b92505081905550816002600083815260200190815260200160002060006101000a81548173ffffffffffffffffffffffffffffffffffffffff021916908373ffffffffffffffffffffffffffffffffffffffff160217905550808273ffffffffffffffffffffffffffffffffffffffff16600073ffffffffffffffffffffffffffffffffffffffff167fddf252ad1be2c89b69c2b068fc378daa952ba7f163c4a11628f55a4df523b3ef60405160405180910390a46126bc60008383611fac565b5050565b6000808273ffffffffffffffffffffffffffffffffffffffff163b119050919050565b5080546126ef9061305c565b6000825580601f106127015750612720565b601f01602090049060005260206000209081019061271f91906127a9565b5b50565b82805461272f9061305c565b90600052602060002090601f0160209004810192826127515760008555612798565b82601f1061276a57803560ff1916838001178555612798565b82800160010185558215612798579182015b8281111561279757823582559160200191906001019061277c565b5b5090506127a591906127a9565b5090565b5b808211156127c25760008160009055506001016127aa565b5090565b6000604051905090565b600080fd5b600080fd5b60007fffffffff0000000000000000000000000000000000000000000000000000000082169050919050565b61280f816127da565b811461281a57600080fd5b50565b60008135905061282c81612806565b92915050565b600060208284031215612848576128476127d0565b5b60006128568482850161281d565b91505092915050565b60008115159050919050565b6128748161285f565b82525050565b600060208201905061288f600083018461286b565b92915050565b600081519050919050565b600082825260208201905092915050565b60005b838110156128cf5780820151818401526020810190506128b4565b838111156128de576000848401525b50505050565b6000601f19601f8301169050919050565b600061290082612895565b61290a81856128a0565b935061291a8185602086016128b1565b612923816128e4565b840191505092915050565b6000602082019050818103600083015261294881846128f5565b905092915050565b6000819050919050565b61296381612950565b811461296e57600080fd5b50565b6000813590506129808161295a565b92915050565b60006020828403121561299c5761299b6127d0565b5b60006129aa84828501612971565b91505092915050565b600073ffffffffffffffffffffffffffffffffffffffff82169050919050565b60006129de826129b3565b9050919050565b6129ee816129d3565b82525050565b6000602082019050612a0960008301846129e5565b92915050565b612a18816129d3565b8114612a2357600080fd5b50565b600081359050612a3581612a0f565b92915050565b60008060408385031215612a5257612a516127d0565b5b6000612a6085828601612a26565b9250506020612a7185828601612971565b9150509250929050565b600080600060608486031215612a9457612a936127d0565b5b6000612aa286828701612a26565b9350506020612ab386828701612a26565b9250506040612ac486828701612971565b9150509250925092565b6000819050919050565b612ae181612ace565b8114612aec57600080fd5b50565b600081359050612afe81612ad8565b92915050565b600060208284031215612b1a57612b196127d0565b5b6000612b2884828501612aef565b91505092915050565b612b3a81612ace565b82525050565b6000602082019050612b556000830184612b31565b92915050565b60008060408385031215612b7257612b716127d0565b5b6000612b8085828601612aef565b9250506020612b9185828601612a26565b9150509250929050565b600060208284031215612bb157612bb06127d0565b5b6000612bbf84828501612a26565b91505092915050565b600080fd5b600080fd5b600080fd5b60008083601f840112612bed57612bec612bc8565b5b8235905067ffffffffffffffff811115612c0a57612c09612bcd565b5b602083019150836001820283011115612c2657612c25612bd2565b5b9250929050565b60008060008060008060a08789031215612c4a57612c496127d0565b5b6000612c5889828a01612a26565b9650506020612c6989828a01612a26565b9550506040612c7a89828a01612971565b9450506060612c8b89828a01612aef565b935050608087013567ffffffffffffffff811115612cac57612cab6127d5565b5b612cb889828a01612bd7565b92509250509295509295509295565b612cd081612950565b82525050565b6000602082019050612ceb6000830184612cc7565b92915050565b60008060008060808587031215612d0b57612d0a6127d0565b5b6000612d1987828801612a26565b9450506020612d2a87828801612a26565b9350506040612d3b87828801612971565b9250506060612d4c87828801612aef565b91505092959194509250565b612d618161285f565b8114612d6c57600080fd5b50565b600081359050612d7e81612d58565b92915050565b60008060408385031215612d9b57612d9a6127d0565b5b6000612da985828601612a26565b9250506020612dba85828601612d6f565b9150509250929050565b600080fd5b7f4e487b7100000000000000000000000000000000000000000000000000000000600052604160045260246000fd5b612e01826128e4565b810181811067ffffffffffffffff82111715612e2057612e1f612dc9565b5b80604052505050565b6000612e336127c6565b9050612e3f8282612df8565b919050565b600067ffffffffffffffff821115612e5f57612e5e612dc9565b5b612e68826128e4565b9050602081019050919050565b82818337600083830152505050565b6000612e97612e9284612e44565b612e29565b905082815260208101848484011115612eb357612eb2612dc4565b5b612ebe848285612e75565b509392505050565b600082601f830112612edb57612eda612bc8565b5b8135612eeb848260208601612e84565b91505092915050565b60008060008060808587031215612f0e57612f0d6127d0565b5b6000612f1c87828801612a26565b9450506020612f2d87828801612a26565b9350506040612f3e87828801612971565b925050606085013567ffffffffffffffff811115612f5f57612f5e6127d5565b5b612f6b87828801612ec6565b91505092959194509250565b600060e082019050612f8c600083018a6129e5565b612f9960208301896129e5565b612fa660408301886129e5565b612fb36060830187612cc7565b612fc06080830186612cc7565b612fcd60a0830185612b31565b81810360c0830152612fdf81846128f5565b905098975050505050505050565b60008060408385031215613004576130036127d0565b5b600061301285828601612a26565b925050602061302385828601612a26565b9150509250929050565b7f4e487b7100000000000000000000000000000000000000000000000000000000600052602260045260246000fd5b6000600282049050600182168061307457607f821691505b602082108114156130885761308761302d565b5b50919050565b7f4552433732313a20617070726f76616c20746f2063757272656e74206f776e6560008201527f7200000000000000000000000000000000000000000000000000000000000000602082015250565b60006130ea6021836128a0565b91506130f58261308e565b604082019050919050565b60006020820190508181036000830152613119816130dd565b9050919050565b7f4552433732313a20617070726f76652063616c6c6572206973206e6f7420746f60008201527f6b656e206f776e6572206e6f7220617070726f76656420666f7220616c6c0000602082015250565b600061317c603e836128a0565b915061318782613120565b604082019050919050565b600060208201905081810360008301526131ab8161316f565b9050919050565b7f4552433732313a2063616c6c6572206973206e6f7420746f6b656e206f776e6560008201527f72206e6f7220617070726f766564000000000000000000000000000000000000602082015250565b600061320e602e836128a0565b9150613219826131b2565b604082019050919050565b6000602082019050818103600083015261323d81613201565b9050919050565b7f416363657373436f6e74726f6c3a2063616e206f6e6c792072656e6f756e636560008201527f20726f6c657320666f722073656c660000000000000000000000000000000000602082015250565b60006132a0602f836128a0565b91506132ab82613244565b604082019050919050565b600060208201905081810360008301526132cf81613293565b9050919050565b60006132e283856128a0565b93506132ef838584612e75565b6132f8836128e4565b840190509392505050565b600060a08201905061331860008301896129e5565b6133256020830188612cc7565b6133326040830187612cc7565b61333f6060830186612cc7565b81810360808301526133528184866132d6565b9050979650505050505050565b7f4552433732313a20696e76616c696420746f6b656e2049440000000000000000600082015250565b60006133956018836128a0565b91506133a08261335f565b602082019050919050565b600060208201905081810360008301526133c481613388565b9050919050565b7f4552433732313a2061646472657373207a65726f206973206e6f74206120766160008201527f6c6964206f776e65720000000000000000000000000000000000000000000000602082015250565b60006134276029836128a0565b9150613432826133cb565b604082019050919050565b600060208201905081810360008301526134568161341a565b9050919050565b50565b600061346d6000836128a0565b91506134788261345d565b600082019050919050565b600060a08201905061349860008301876129e5565b6134a56020830186612cc7565b6134b26040830185612cc7565b6134bf6060830184612cc7565b81810360808301526134d081613460565b905095945050505050565b600081905092915050565b60006134f182612895565b6134fb81856134db565b935061350b8185602086016128b1565b80840191505092915050565b600061352382856134e6565b915061352f82846134e6565b91508190509392505050565b7f4552433732313a207472616e736665722066726f6d20696e636f72726563742060008201527f6f776e6572000000000000000000000000000000000000000000000000000000602082015250565b60006135976025836128a0565b91506135a28261353b565b604082019050919050565b600060208201905081810360008301526135c68161358a565b9050919050565b7f4552433732313a207472616e7366657220746f20746865207a65726f2061646460008201527f7265737300000000000000000000000000000000000000000000000000000000602082015250565b60006136296024836128a0565b9150613634826135cd565b604082019050919050565b600060208201905081810360008301526136588161361c565b9050919050565b7f4e487b7100000000000000000000000000000000000000000000000000000000600052601160045260246000fd5b600061369982612950565b91506136a483612950565b9250828210156136b7576136b661365f565b5b828203905092915050565b60006136cd82612950565b91506136d883612950565b9250827fffffffffffffffffffffffffffffffffffffffffffffffffffffffffffffffff0382111561370d5761370c61365f565b5b828201905092915050565b7f4552433732313a20617070726f766520746f2063616c6c657200000000000000600082015250565b600061374e6019836128a0565b915061375982613718565b602082019050919050565b6000602082019050818103600083015261377d81613741565b9050919050565b7f4552433732313a207472616e7366657220746f206e6f6e20455243373231526560008201527f63656976657220696d706c656d656e7465720000000000000000000000000000602082015250565b60006137e06032836128a0565b91506137eb82613784565b604082019050919050565b6000602082019050818103600083015261380f816137d3565b9050919050565b600061382182612950565b91507fffffffffffffffffffffffffffffffffffffffffffffffffffffffffffffffff8214156138545761385361365f565b5b600182019050919050565b7f4e487b7100000000000000000000000000000000000000000000000000000000600052601260045260246000fd5b600061389982612950565b91506138a483612950565b9250826138b4576138b361385f565b5b828204905092915050565b60006138ca82612950565b91506138d583612950565b9250826138e5576138e461385f565b5b828206905092915050565b7f4e487b7100000000000000000000000000000000000000000000000000000000600052603260045260246000fd5b7f416363657373436f6e74726f6c3a206163636f756e7420000000000000000000600082015250565b60006139556017836134db565b91506139608261391f565b601782019050919050565b7f206973206d697373696e6720726f6c6520000000000000000000000000000000600082015250565b60006139a16011836134db565b91506139ac8261396b565b601182019050919050565b60006139c282613948565b91506139ce82856134e6565b91506139d982613994565b91506139e582846134e6565b91508190509392505050565b600081519050919050565b600082825260208201905092915050565b6000613a18826139f1565b613a2281856139fc565b9350613a328185602086016128b1565b613a3b816128e4565b840191505092915050565b6000608082019050613a5b60008301876129e5565b613a6860208301866129e5565b613a756040830185612cc7565b8181036060830152613a878184613a0d565b905095945050505050565b600081519050613aa181612806565b92915050565b600060208284031215613abd57613abc6127d0565b5b6000613acb84828501613a92565b91505092915050565b6000613adf82612950565b9150613aea83612950565b9250817fffffffffffffffffffffffffffffffffffffffffffffffffffffffffffffffff0483118215151615613b2357613b2261365f565b5b828202905092915050565b6000613b3982612950565b91506000821415613b4d57613b4c61365f565b5b600182039050919050565b7f537472696e67733a20686578206c656e67746820696e73756666696369656e74600082015250565b6000613b8e6020836128a0565b9150613b9982613b58565b602082019050919050565b60006020820190508181036000830152613bbd81613b81565b9050919050565b7f4552433732313a206d696e7420746f20746865207a65726f2061646472657373600082015250565b6000613bfa6020836128a0565b9150613c0582613bc4565b602082019050919050565b60006020820190508181036000830152613c2981613bed565b9050919050565b7f4552433732313a20746f6b656e20616c7265616479206d696e74656400000000600082015250565b6000613c66601c836128a0565b9150613c7182613c30565b602082019050919050565b60006020820190508181036000830152613c9581613c59565b905091905056fea264697066735822122005ab3874f4896f5a539c2686d8786661e830a28b6db07e5bc995d7324129c5ef64736f6c63430008090033",
  "linkReferences": {},
  "deployedLinkReferences": {}
}