{
  "_format": "hh-sol-artifact-1",
  "contractName": "CampaignNFT",
  "sourceName": "contracts/CampaignNFT.sol",
  "abi": [
    {
      "inputs": [
        {
          "internalType": "address",
          "name": "_registry",
          "type": "address"
        }
      ],
      "stateMutability": "nonpayable",
      "type": "constructor"
    },
    {
      "anonymous": false,
      "inputs": [
        {
          "indexed": true,
          "internalType": "address",
          "name": "owner",
          "type": "address"
        },
        {
          "indexed": true,
          "internalType": "address",
          "name": "approved",
          "type": "address"
        },
        {
          "indexed": true,
          "internalType": "uint256",
          "name": "tokenId",
          "type": "uint256"
        }
      ],
      "name": "Approval",
      "type": "event"
    },
    {
      "anonymous": false,
      "inputs": [
        {
          "indexed": true,
          "internalType": "address",
          "name": "owner",
          "type": "address"
        },
        {
          "indexed": true,
          "internalType": "address",
          "name": "operator",
          "type": "address"
        },
        {
          "indexed": false,
          "internalType": "bool",
          "name": "approved",
          "type": "bool"
        }
      ],
      "name": "ApprovalForAll",
      "type": "event"
    },
    {
      "anonymous": false,
      "inputs": [
        {
          "indexed": true,
          "internalType": "bytes32",
          "name": "role",
          "type": "bytes32"
        },
        {
          "indexed": true,
          "internalType": "bytes32",
          "name": "previousAdminRole",
          "type": "bytes32"
        },
        {
          "indexed": true,
          "internalType": "bytes32",
          "name": "newAdminRole",
          "type": "bytes32"
        }
      ],
      "name": "RoleAdminChanged",
      "type": "event"
    },
    {
      "anonymous": false,
      "inputs": [
        {
          "indexed": true,
          "internalType": "bytes32",
          "name": "role",
          "type": "bytes32"
        },
        {
          "indexed": true,
          "internalType": "address",
          "name": "account",
          "type": "address"
        },
        {
          "indexed": true,
          "internalType": "address",
          "name": "sender",
          "type": "address"
        }
      ],
      "name": "RoleGranted",
      "type": "event"
    },
    {
      "anonymous": false,
      "inputs": [
        {
          "indexed": true,
          "internalType": "bytes32",
          "name": "role",
          "type": "bytes32"
        },
        {
          "indexed": true,
          "internalType": "address",
          "name": "account",
          "type": "address"
        },
        {
          "indexed": true,
          "internalType": "address",
          "name": "sender",
          "type": "address"
        }
      ],
      "name": "RoleRevoked",
      "type": "event"
    },
    {
      "anonymous": false,
      "inputs": [
        {
          "indexed": true,
          "internalType": "address",
          "name": "from",
          "type": "address"
        },
        {
          "indexed": true,
          "internalType": "address",
          "name": "to",
          "type": "address"
        },
        {
          "indexed": true,
          "internalType": "uint256",
          "name": "tokenId",
          "type": "uint256"
        }
      ],
      "name": "Transfer",
      "type": "event"
    },
    {
      "anonymous": false,
      "inputs": [
        {
          "indexed": true,
          "internalType": "address",
          "name": "backer",
          "type": "address"
        },
        {
          "indexed": true,
          "internalType": "address",
          "name": "campaignInfo",
          "type": "address"
        },
        {
          "indexed": false,
          "internalType": "address",
          "name": "token",
          "type": "address"
        },
        {
          "indexed": true,
          "internalType": "bytes32",
          "name": "platform",
          "type": "bytes32"
        },
        {
          "indexed": false,
          "internalType": "uint256",
          "name": "pledgedAmount",
          "type": "uint256"
        },
        {
          "indexed": false,
          "internalType": "uint256",
          "name": "timestamp",
          "type": "uint256"
        },
        {
          "indexed": false,
          "internalType": "uint256",
          "name": "tokenId",
          "type": "uint256"
        },
        {
          "indexed": false,
          "internalType": "string",
          "name": "rewardName",
          "type": "string"
        }
      ],
      "name": "pledgeReceipt",
      "type": "event"
    },
    {
      "inputs": [],
      "name": "DEFAULT_ADMIN_ROLE",
      "outputs": [
        {
          "internalType": "bytes32",
          "name": "",
          "type": "bytes32"
        }
      ],
      "stateMutability": "view",
      "type": "function"
    },
    {
      "inputs": [],
      "name": "MINTER_ROLE",
      "outputs": [
        {
          "internalType": "bytes32",
          "name": "",
          "type": "bytes32"
        }
      ],
      "stateMutability": "view",
      "type": "function"
    },
    {
      "inputs": [
        {
          "internalType": "address",
          "name": "to",
          "type": "address"
        },
        {
          "internalType": "uint256",
          "name": "tokenId",
          "type": "uint256"
        }
      ],
      "name": "approve",
      "outputs": [],
      "stateMutability": "nonpayable",
      "type": "function"
    },
    {
      "inputs": [
        {
          "internalType": "address",
          "name": "owner",
          "type": "address"
        }
      ],
      "name": "balanceOf",
      "outputs": [
        {
          "internalType": "uint256",
          "name": "",
          "type": "uint256"
        }
      ],
      "stateMutability": "view",
      "type": "function"
    },
    {
      "inputs": [
        {
          "internalType": "uint256",
          "name": "tokenId",
          "type": "uint256"
        }
      ],
      "name": "burn",
      "outputs": [],
      "stateMutability": "nonpayable",
      "type": "function"
    },
    {
      "inputs": [
        {
          "internalType": "uint256",
          "name": "tokenId",
          "type": "uint256"
        }
      ],
      "name": "getApproved",
      "outputs": [
        {
          "internalType": "address",
          "name": "",
          "type": "address"
        }
      ],
      "stateMutability": "view",
      "type": "function"
    },
    {
      "inputs": [
        {
          "internalType": "uint256",
          "name": "tokenId",
          "type": "uint256"
        }
      ],
      "name": "getPledgeReceipt",
      "outputs": [
        {
          "internalType": "address",
          "name": "campaignInfo",
          "type": "address"
        },
        {
          "internalType": "address",
          "name": "backer",
          "type": "address"
        },
        {
          "internalType": "address",
          "name": "token",
          "type": "address"
        },
        {
          "internalType": "uint256",
          "name": "pledgedAmount",
          "type": "uint256"
        },
        {
          "internalType": "uint256",
          "name": "timestamp",
          "type": "uint256"
        },
        {
          "internalType": "bytes32",
          "name": "platformId",
          "type": "bytes32"
        },
        {
          "internalType": "string",
          "name": "rewardName",
          "type": "string"
        }
      ],
      "stateMutability": "view",
      "type": "function"
    },
    {
      "inputs": [
        {
          "internalType": "bytes32",
          "name": "role",
          "type": "bytes32"
        }
      ],
      "name": "getRoleAdmin",
      "outputs": [
        {
          "internalType": "bytes32",
          "name": "",
          "type": "bytes32"
        }
      ],
      "stateMutability": "view",
      "type": "function"
    },
    {
      "inputs": [
        {
          "internalType": "string",
          "name": "txId",
          "type": "string"
        }
      ],
      "name": "getTokenId",
      "outputs": [
        {
          "internalType": "uint256",
          "name": "tokenId",
          "type": "uint256"
        }
      ],
      "stateMutability": "view",
      "type": "function"
    },
    {
      "inputs": [
        {
          "internalType": "bytes32",
          "name": "role",
          "type": "bytes32"
        },
        {
          "internalType": "address",
          "name": "account",
          "type": "address"
        }
      ],
      "name": "grantRole",
      "outputs": [],
      "stateMutability": "nonpayable",
      "type": "function"
    },
    {
      "inputs": [
        {
          "internalType": "address",
          "name": "_campaignInfo",
          "type": "address"
        }
      ],
      "name": "grantRole",
      "outputs": [],
      "stateMutability": "nonpayable",
      "type": "function"
    },
    {
      "inputs": [
        {
          "internalType": "bytes32",
          "name": "role",
          "type": "bytes32"
        },
        {
          "internalType": "address",
          "name": "account",
          "type": "address"
        }
      ],
      "name": "hasRole",
      "outputs": [
        {
          "internalType": "bool",
          "name": "",
          "type": "bool"
        }
      ],
      "stateMutability": "view",
      "type": "function"
    },
    {
      "inputs": [
        {
          "internalType": "address",
          "name": "owner",
          "type": "address"
        },
        {
          "internalType": "address",
          "name": "operator",
          "type": "address"
        }
      ],
      "name": "isApprovedForAll",
      "outputs": [
        {
          "internalType": "bool",
          "name": "",
          "type": "bool"
        }
      ],
      "stateMutability": "view",
      "type": "function"
    },
    {
      "inputs": [],
      "name": "name",
      "outputs": [
        {
          "internalType": "string",
          "name": "",
          "type": "string"
        }
      ],
      "stateMutability": "view",
      "type": "function"
    },
    {
      "inputs": [
        {
          "internalType": "uint256",
          "name": "tokenId",
          "type": "uint256"
        }
      ],
      "name": "ownerOf",
      "outputs": [
        {
          "internalType": "address",
          "name": "",
          "type": "address"
        }
      ],
      "stateMutability": "view",
      "type": "function"
    },
    {
      "inputs": [
        {
          "internalType": "bytes32",
          "name": "role",
          "type": "bytes32"
        },
        {
          "internalType": "address",
          "name": "account",
          "type": "address"
        }
      ],
      "name": "renounceRole",
      "outputs": [],
      "stateMutability": "nonpayable",
      "type": "function"
    },
    {
      "inputs": [
        {
          "internalType": "bytes32",
          "name": "role",
          "type": "bytes32"
        },
        {
          "internalType": "address",
          "name": "account",
          "type": "address"
        }
      ],
      "name": "revokeRole",
      "outputs": [],
      "stateMutability": "nonpayable",
      "type": "function"
    },
    {
      "inputs": [
        {
          "internalType": "address",
          "name": "backer",
          "type": "address"
        },
        {
          "internalType": "address",
          "name": "token",
          "type": "address"
        },
        {
          "internalType": "uint256",
          "name": "pledgedAmount",
          "type": "uint256"
        },
        {
          "internalType": "bytes32",
          "name": "platformId",
          "type": "bytes32"
        },
        {
          "internalType": "string",
          "name": "rewardName",
          "type": "string"
        }
      ],
      "name": "safeMint",
      "outputs": [
        {
          "internalType": "uint256",
          "name": "tokenId",
          "type": "uint256"
        }
      ],
      "stateMutability": "nonpayable",
      "type": "function"
    },
    {
      "inputs": [
        {
          "internalType": "address",
          "name": "backer",
          "type": "address"
        },
        {
          "internalType": "address",
          "name": "token",
          "type": "address"
        },
        {
          "internalType": "uint256",
          "name": "pledgedAmount",
          "type": "uint256"
        },
        {
          "internalType": "bytes32",
          "name": "platformId",
          "type": "bytes32"
        }
      ],
      "name": "safeMint",
      "outputs": [
        {
          "internalType": "uint256",
          "name": "tokenId",
          "type": "uint256"
        }
      ],
      "stateMutability": "nonpayable",
      "type": "function"
    },
    {
      "inputs": [
        {
          "internalType": "address",
          "name": "from",
          "type": "address"
        },
        {
          "internalType": "address",
          "name": "to",
          "type": "address"
        },
        {
          "internalType": "uint256",
          "name": "tokenId",
          "type": "uint256"
        }
      ],
      "name": "safeTransferFrom",
      "outputs": [],
      "stateMutability": "nonpayable",
      "type": "function"
    },
    {
      "inputs": [
        {
          "internalType": "address",
          "name": "from",
          "type": "address"
        },
        {
          "internalType": "address",
          "name": "to",
          "type": "address"
        },
        {
          "internalType": "uint256",
          "name": "tokenId",
          "type": "uint256"
        },
        {
          "internalType": "bytes",
          "name": "data",
          "type": "bytes"
        }
      ],
      "name": "safeTransferFrom",
      "outputs": [],
      "stateMutability": "nonpayable",
      "type": "function"
    },
    {
      "inputs": [
        {
          "internalType": "address",
          "name": "operator",
          "type": "address"
        },
        {
          "internalType": "bool",
          "name": "approved",
          "type": "bool"
        }
      ],
      "name": "setApprovalForAll",
      "outputs": [],
      "stateMutability": "nonpayable",
      "type": "function"
    },
    {
      "inputs": [
        {
          "internalType": "string",
          "name": "txId",
          "type": "string"
        },
        {
          "internalType": "uint256",
          "name": "tokenId",
          "type": "uint256"
        }
      ],
      "name": "setTokenId",
      "outputs": [],
      "stateMutability": "nonpayable",
      "type": "function"
    },
    {
      "inputs": [
        {
          "internalType": "bytes4",
          "name": "interfaceId",
          "type": "bytes4"
        }
      ],
      "name": "supportsInterface",
      "outputs": [
        {
          "internalType": "bool",
          "name": "",
          "type": "bool"
        }
      ],
      "stateMutability": "view",
      "type": "function"
    },
    {
      "inputs": [],
      "name": "symbol",
      "outputs": [
        {
          "internalType": "string",
          "name": "",
          "type": "string"
        }
      ],
      "stateMutability": "view",
      "type": "function"
    },
    {
      "inputs": [
        {
          "internalType": "uint256",
          "name": "tokenId",
          "type": "uint256"
        }
      ],
      "name": "tokenURI",
      "outputs": [
        {
          "internalType": "string",
          "name": "",
          "type": "string"
        }
      ],
      "stateMutability": "view",
      "type": "function"
    },
    {
      "inputs": [
        {
          "internalType": "address",
          "name": "from",
          "type": "address"
        },
        {
          "internalType": "address",
          "name": "to",
          "type": "address"
        },
        {
          "internalType": "uint256",
          "name": "tokenId",
          "type": "uint256"
        }
      ],
      "name": "transferFrom",
      "outputs": [],
      "stateMutability": "nonpayable",
      "type": "function"
    },
    {
      "inputs": [
        {
          "internalType": "string",
          "name": "",
          "type": "string"
        }
      ],
      "name": "txIdToTokenId",
      "outputs": [
        {
          "internalType": "uint256",
          "name": "",
          "type": "uint256"
        }
      ],
      "stateMutability": "view",
      "type": "function"
    }
  ],
  "bytecode": "0x60806040523480156200001157600080fd5b506040516200441038038062004410833981810160405281019062000037919062000372565b6040518060400160405280600b81526020017f43616d706169676e4e46540000000000000000000000000000000000000000008152506040518060400160405280600481526020017f434e4654000000000000000000000000000000000000000000000000000000008152508160009080519060200190620000bb92919062000258565b508060019080519060200190620000d492919062000258565b505050620000ec6000801b82620000f360201b60201c565b5062000409565b620001058282620001e560201b60201c565b620001e15760016006600084815260200190815260200160002060000160008373ffffffffffffffffffffffffffffffffffffffff1673ffffffffffffffffffffffffffffffffffffffff16815260200190815260200160002060006101000a81548160ff021916908315150217905550620001866200025060201b60201c565b73ffffffffffffffffffffffffffffffffffffffff168173ffffffffffffffffffffffffffffffffffffffff16837f2f8788117e7eff1d82e926ec794901d17c78024a50270940304540a733656f0d60405160405180910390a45b5050565b60006006600084815260200190815260200160002060000160008373ffffffffffffffffffffffffffffffffffffffff1673ffffffffffffffffffffffffffffffffffffffff16815260200190815260200160002060009054906101000a900460ff16905092915050565b600033905090565b8280546200026690620003d3565b90600052602060002090601f0160209004810192826200028a5760008555620002d6565b82601f10620002a557805160ff1916838001178555620002d6565b82800160010185558215620002d6579182015b82811115620002d5578251825591602001919060010190620002b8565b5b509050620002e59190620002e9565b5090565b5b8082111562000304576000816000905550600101620002ea565b5090565b600080fd5b600073ffffffffffffffffffffffffffffffffffffffff82169050919050565b60006200033a826200030d565b9050919050565b6200034c816200032d565b81146200035857600080fd5b50565b6000815190506200036c8162000341565b92915050565b6000602082840312156200038b576200038a62000308565b5b60006200039b848285016200035b565b91505092915050565b7f4e487b7100000000000000000000000000000000000000000000000000000000600052602260045260246000fd5b60006002820490506001821680620003ec57607f821691505b60208210811415620004035762000402620003a4565b5b50919050565b613ff780620004196000396000f3fe608060405234801561001057600080fd5b50600436106101c45760003560e01c80636352211e116100f9578063b88d4fde11610097578063d539139311610071578063d539139314610551578063d547741f1461056f578063e985e9c51461058b578063fcbc3dc1146105bb576101c4565b8063b88d4fde146104cf578063c20c42f8146104eb578063c87b56dd14610521576101c4565b806391d14854116100d357806391d148541461044757806395d89b4114610477578063a217fddf14610495578063a22cb465146104b3576101c4565b80636352211e146103b757806370a08231146103e75780638e48312f14610417576101c4565b8063248a9ca3116101665780633897768611610140578063389776861461033357806342842e0e1461034f57806342966c681461036b5780634ebc0c1914610387576101c4565b8063248a9ca3146102cb5780632f2ff15d146102fb57806336568abe14610317576101c4565b8063081812fc116101a2578063081812fc14610233578063095ea7b3146102635780631e7663bc1461027f57806323b872dd146102af576101c4565b806301a4163e146101c957806301ffc9a7146101e557806306fdde0314610215575b600080fd5b6101e360048036038101906101de91906129c5565b6105eb565b005b6101ff60048036038101906101fa9190612a7d565b610615565b60405161020c9190612ac5565b60405180910390f35b61021d610627565b60405161022a9190612b79565b60405180910390f35b61024d60048036038101906102489190612b9b565b6106b9565b60405161025a9190612c09565b60405180910390f35b61027d60048036038101906102789190612c50565b6106ff565b005b61029960048036038101906102949190612c90565b610817565b6040516102a69190612cec565b60405180910390f35b6102c960048036038101906102c49190612d07565b610842565b005b6102e560048036038101906102e09190612d90565b6108a2565b6040516102f29190612dcc565b60405180910390f35b61031560048036038101906103109190612de7565b6108c2565b005b610331600480360381019061032c9190612de7565b6108e3565b005b61034d60048036038101906103489190612e27565b610966565b005b61036960048036038101906103649190612d07565b6109a1565b005b61038560048036038101906103809190612b9b565b6109c1565b005b6103a1600480360381019061039c9190612e54565b610aab565b6040516103ae9190612cec565b60405180910390f35b6103d160048036038101906103cc9190612b9b565b610c82565b6040516103de9190612c09565b60405180910390f35b61040160048036038101906103fc9190612e27565b610d34565b60405161040e9190612cec565b60405180910390f35b610431600480360381019061042c9190612eee565b610dec565b60405161043e9190612cec565b60405180910390f35b610461600480360381019061045c9190612de7565b610fa9565b60405161046e9190612ac5565b60405180910390f35b61047f611014565b60405161048c9190612b79565b60405180910390f35b61049d6110a6565b6040516104aa9190612dcc565b60405180910390f35b6104cd60048036038101906104c89190612f81565b6110ad565b005b6104e960048036038101906104e491906130f1565b6110c3565b005b61050560048036038101906105009190612b9b565b611125565b6040516105189796959493929190613174565b60405180910390f35b61053b60048036038101906105369190612b9b565b611341565b6040516105489190612b79565b60405180910390f35b6105596113a9565b6040516105669190612dcc565b60405180910390f35b61058960048036038101906105849190612de7565b6113cd565b005b6105a560048036038101906105a091906131ea565b6113ee565b6040516105b29190612ac5565b60405180910390f35b6105d560048036038101906105d091906132cb565b611482565b6040516105e29190612cec565b60405180910390f35b80600884846040516105fe929190613344565b908152602001604051809103902081905550505050565b6000610620826114b0565b9050919050565b6060600080546106369061338c565b80601f01602080910402602001604051908101604052809291908181526020018280546106629061338c565b80156106af5780601f10610684576101008083540402835291602001916106af565b820191906000526020600020905b81548152906001019060200180831161069257829003601f168201915b5050505050905090565b60006106c48261152a565b6004600083815260200190815260200160002060009054906101000a900473ffffffffffffffffffffffffffffffffffffffff169050919050565b600061070a82610c82565b90508073ffffffffffffffffffffffffffffffffffffffff168373ffffffffffffffffffffffffffffffffffffffff16141561077b576040517f08c379a000000000000000000000000000000000000000000000000000000000815260040161077290613430565b60405180910390fd5b8073ffffffffffffffffffffffffffffffffffffffff1661079a611575565b73ffffffffffffffffffffffffffffffffffffffff1614806107c957506107c8816107c3611575565b6113ee565b5b610808576040517f08c379a00000000000000000000000000000000000000000000000000000000081526004016107ff906134c2565b60405180910390fd5b610812838361157d565b505050565b60006008838360405161082b929190613344565b908152602001604051809103902054905092915050565b61085361084d611575565b82611636565b610892576040517f08c379a000000000000000000000000000000000000000000000000000000000815260040161088990613554565b60405180910390fd5b61089d8383836116cb565b505050565b600060066000838152602001908152602001600020600101549050919050565b6108cb826108a2565b6108d481611932565b6108de8383611946565b505050565b6108eb611575565b73ffffffffffffffffffffffffffffffffffffffff168173ffffffffffffffffffffffffffffffffffffffff1614610958576040517f08c379a000000000000000000000000000000000000000000000000000000000815260040161094f906135e6565b60405180910390fd5b6109628282611a27565b5050565b6000801b61097381611932565b61099d7f9f2df0fed2c77648de5860a4cc508cd0818c85b8b8a1ab4ceeef8d981c8956a683611946565b5050565b6109bc838383604051806020016040528060008152506110c3565b505050565b7f9f2df0fed2c77648de5860a4cc508cd0818c85b8b8a1ab4ceeef8d981c8956a66109eb81611932565b6109f482611b09565b60076000838152602001908152602001600020600080820160006101000a81549073ffffffffffffffffffffffffffffffffffffffff02191690556001820160006101000a81549073ffffffffffffffffffffffffffffffffffffffff02191690556002820160006101000a81549073ffffffffffffffffffffffffffffffffffffffff0219169055600382016000905560048201600090556005820160009055600682016000610aa59190612833565b50505050565b60007f9f2df0fed2c77648de5860a4cc508cd0818c85b8b8a1ab4ceeef8d981c8956a6610ad781611932565b610ae16009611c26565b9150610aed6009611c34565b610af78883611c4a565b6000600760008481526020019081526020016000209050338160000160006101000a81548173ffffffffffffffffffffffffffffffffffffffff021916908373ffffffffffffffffffffffffffffffffffffffff160217905550888160010160006101000a81548173ffffffffffffffffffffffffffffffffffffffff021916908373ffffffffffffffffffffffffffffffffffffffff160217905550878160020160006101000a81548173ffffffffffffffffffffffffffffffffffffffff021916908373ffffffffffffffffffffffffffffffffffffffff1602179055508681600301819055504281600401819055508581600501819055508484826006019190610c05929190612873565b50853373ffffffffffffffffffffffffffffffffffffffff168a73ffffffffffffffffffffffffffffffffffffffff167f87d5580dea17703e5c671bc0b2dd2c0fc66ea5f2dfb41bb51b6fc282264a13ac8b8b42898c8c604051610c6e96959493929190613633565b60405180910390a450509695505050505050565b6000806002600084815260200190815260200160002060009054906101000a900473ffffffffffffffffffffffffffffffffffffffff169050600073ffffffffffffffffffffffffffffffffffffffff168173ffffffffffffffffffffffffffffffffffffffff161415610d2b576040517f08c379a0000000000000000000000000000000000000000000000000000000008152600401610d22906136db565b60405180910390fd5b80915050919050565b60008073ffffffffffffffffffffffffffffffffffffffff168273ffffffffffffffffffffffffffffffffffffffff161415610da5576040517f08c379a0000000000000000000000000000000000000000000000000000000008152600401610d9c9061376d565b60405180910390fd5b600360008373ffffffffffffffffffffffffffffffffffffffff1673ffffffffffffffffffffffffffffffffffffffff168152602001908152602001600020549050919050565b60007f9f2df0fed2c77648de5860a4cc508cd0818c85b8b8a1ab4ceeef8d981c8956a6610e1881611932565b610e226009611c26565b9150610e2e6009611c34565b610e388683611c4a565b6000600760008481526020019081526020016000209050338160000160006101000a81548173ffffffffffffffffffffffffffffffffffffffff021916908373ffffffffffffffffffffffffffffffffffffffff160217905550868160010160006101000a81548173ffffffffffffffffffffffffffffffffffffffff021916908373ffffffffffffffffffffffffffffffffffffffff160217905550858160020160006101000a81548173ffffffffffffffffffffffffffffffffffffffff021916908373ffffffffffffffffffffffffffffffffffffffff160217905550848160030181905550428160040181905550838160050181905550833373ffffffffffffffffffffffffffffffffffffffff168873ffffffffffffffffffffffffffffffffffffffff167f87d5580dea17703e5c671bc0b2dd2c0fc66ea5f2dfb41bb51b6fc282264a13ac89894289604051610f9794939291906137b3565b60405180910390a45050949350505050565b60006006600084815260200190815260200160002060000160008373ffffffffffffffffffffffffffffffffffffffff1673ffffffffffffffffffffffffffffffffffffffff16815260200190815260200160002060009054906101000a900460ff16905092915050565b6060600180546110239061338c565b80601f016020809104026020016040519081016040528092919081815260200182805461104f9061338c565b801561109c5780601f106110715761010080835404028352916020019161109c565b820191906000526020600020905b81548152906001019060200180831161107f57829003601f168201915b5050505050905090565b6000801b81565b6110bf6110b8611575565b8383611c68565b5050565b6110d46110ce611575565b83611636565b611113576040517f08c379a000000000000000000000000000000000000000000000000000000000815260040161110a90613554565b60405180910390fd5b61111f84848484611dd5565b50505050565b60008060008060008060606000600760008a81526020019081526020016000206040518060e00160405290816000820160009054906101000a900473ffffffffffffffffffffffffffffffffffffffff1673ffffffffffffffffffffffffffffffffffffffff1673ffffffffffffffffffffffffffffffffffffffff1681526020016001820160009054906101000a900473ffffffffffffffffffffffffffffffffffffffff1673ffffffffffffffffffffffffffffffffffffffff1673ffffffffffffffffffffffffffffffffffffffff1681526020016002820160009054906101000a900473ffffffffffffffffffffffffffffffffffffffff1673ffffffffffffffffffffffffffffffffffffffff1673ffffffffffffffffffffffffffffffffffffffff1681526020016003820154815260200160048201548152602001600582015481526020016006820180546112809061338c565b80601f01602080910402602001604051908101604052809291908181526020018280546112ac9061338c565b80156112f95780601f106112ce576101008083540402835291602001916112f9565b820191906000526020600020905b8154815290600101906020018083116112dc57829003601f168201915b505050505081525050905080600001519750806020015196508060600151945080604001519550806080015193508060a0015192508060c00151915050919395979092949650565b606061134c8261152a565b6000611356611e31565b9050600081511161137657604051806020016040528060008152506113a1565b8061138084611e48565b60405160200161139192919061383c565b6040516020818303038152906040525b915050919050565b7f9f2df0fed2c77648de5860a4cc508cd0818c85b8b8a1ab4ceeef8d981c8956a681565b6113d6826108a2565b6113df81611932565b6113e98383611a27565b505050565b6000600560008473ffffffffffffffffffffffffffffffffffffffff1673ffffffffffffffffffffffffffffffffffffffff16815260200190815260200160002060008373ffffffffffffffffffffffffffffffffffffffff1673ffffffffffffffffffffffffffffffffffffffff16815260200190815260200160002060009054906101000a900460ff16905092915050565b6008818051602081018201805184825260208301602085012081835280955050505050506000915090505481565b60007f7965db0b000000000000000000000000000000000000000000000000000000007bffffffffffffffffffffffffffffffffffffffffffffffffffffffff1916827bffffffffffffffffffffffffffffffffffffffffffffffffffffffff19161480611523575061152282611fa9565b5b9050919050565b6115338161208b565b611572576040517f08c379a0000000000000000000000000000000000000000000000000000000008152600401611569906136db565b60405180910390fd5b50565b600033905090565b816004600083815260200190815260200160002060006101000a81548173ffffffffffffffffffffffffffffffffffffffff021916908373ffffffffffffffffffffffffffffffffffffffff160217905550808273ffffffffffffffffffffffffffffffffffffffff166115f083610c82565b73ffffffffffffffffffffffffffffffffffffffff167f8c5be1e5ebec7d5bd14f71427d1e84f3dd0314c0f7b2291e5b200ac8c7c3b92560405160405180910390a45050565b60008061164283610c82565b90508073ffffffffffffffffffffffffffffffffffffffff168473ffffffffffffffffffffffffffffffffffffffff161480611684575061168381856113ee565b5b806116c257508373ffffffffffffffffffffffffffffffffffffffff166116aa846106b9565b73ffffffffffffffffffffffffffffffffffffffff16145b91505092915050565b8273ffffffffffffffffffffffffffffffffffffffff166116eb82610c82565b73ffffffffffffffffffffffffffffffffffffffff1614611741576040517f08c379a0000000000000000000000000000000000000000000000000000000008152600401611738906138d2565b60405180910390fd5b600073ffffffffffffffffffffffffffffffffffffffff168273ffffffffffffffffffffffffffffffffffffffff1614156117b1576040517f08c379a00000000000000000000000000000000000000000000000000000000081526004016117a890613964565b60405180910390fd5b6117bc8383836120f7565b6117c760008261157d565b6001600360008573ffffffffffffffffffffffffffffffffffffffff1673ffffffffffffffffffffffffffffffffffffffff168152602001908152602001600020600082825461181791906139b3565b925050819055506001600360008473ffffffffffffffffffffffffffffffffffffffff1673ffffffffffffffffffffffffffffffffffffffff168152602001908152602001600020600082825461186e91906139e7565b92505081905550816002600083815260200190815260200160002060006101000a81548173ffffffffffffffffffffffffffffffffffffffff021916908373ffffffffffffffffffffffffffffffffffffffff160217905550808273ffffffffffffffffffffffffffffffffffffffff168473ffffffffffffffffffffffffffffffffffffffff167fddf252ad1be2c89b69c2b068fc378daa952ba7f163c4a11628f55a4df523b3ef60405160405180910390a461192d8383836120fc565b505050565b6119438161193e611575565b612101565b50565b6119508282610fa9565b611a235760016006600084815260200190815260200160002060000160008373ffffffffffffffffffffffffffffffffffffffff1673ffffffffffffffffffffffffffffffffffffffff16815260200190815260200160002060006101000a81548160ff0219169083151502179055506119c8611575565b73ffffffffffffffffffffffffffffffffffffffff168173ffffffffffffffffffffffffffffffffffffffff16837f2f8788117e7eff1d82e926ec794901d17c78024a50270940304540a733656f0d60405160405180910390a45b5050565b611a318282610fa9565b15611b055760006006600084815260200190815260200160002060000160008373ffffffffffffffffffffffffffffffffffffffff1673ffffffffffffffffffffffffffffffffffffffff16815260200190815260200160002060006101000a81548160ff021916908315150217905550611aaa611575565b73ffffffffffffffffffffffffffffffffffffffff168173ffffffffffffffffffffffffffffffffffffffff16837ff6391f5c32d9c69d2a47ea670b442974b53935d1edc7fd64eb21e047a839171b60405160405180910390a45b5050565b6000611b1482610c82565b9050611b22816000846120f7565b611b2d60008361157d565b6001600360008373ffffffffffffffffffffffffffffffffffffffff1673ffffffffffffffffffffffffffffffffffffffff1681526020019081526020016000206000828254611b7d91906139b3565b925050819055506002600083815260200190815260200160002060006101000a81549073ffffffffffffffffffffffffffffffffffffffff021916905581600073ffffffffffffffffffffffffffffffffffffffff168273ffffffffffffffffffffffffffffffffffffffff167fddf252ad1be2c89b69c2b068fc378daa952ba7f163c4a11628f55a4df523b3ef60405160405180910390a4611c22816000846120fc565b5050565b600081600001549050919050565b6001816000016000828254019250508190555050565b611c6482826040518060200160405280600081525061219e565b5050565b8173ffffffffffffffffffffffffffffffffffffffff168373ffffffffffffffffffffffffffffffffffffffff161415611cd7576040517f08c379a0000000000000000000000000000000000000000000000000000000008152600401611cce90613a89565b60405180910390fd5b80600560008573ffffffffffffffffffffffffffffffffffffffff1673ffffffffffffffffffffffffffffffffffffffff16815260200190815260200160002060008473ffffffffffffffffffffffffffffffffffffffff1673ffffffffffffffffffffffffffffffffffffffff16815260200190815260200160002060006101000a81548160ff0219169083151502179055508173ffffffffffffffffffffffffffffffffffffffff168373ffffffffffffffffffffffffffffffffffffffff167f17307eab39ab6107e8899845ad3d59bd9653f200f220920489ca2b5937696c3183604051611dc89190612ac5565b60405180910390a3505050565b611de08484846116cb565b611dec848484846121f9565b611e2b576040517f08c379a0000000000000000000000000000000000000000000000000000000008152600401611e2290613b1b565b60405180910390fd5b50505050565b606060405180602001604052806000815250905090565b60606000821415611e90576040518060400160405280600181526020017f30000000000000000000000000000000000000000000000000000000000000008152509050611fa4565b600082905060005b60008214611ec2578080611eab90613b3b565b915050600a82611ebb9190613bb3565b9150611e98565b60008167ffffffffffffffff811115611ede57611edd612fc6565b5b6040519080825280601f01601f191660200182016040528015611f105781602001600182028036833780820191505090505b5090505b60008514611f9d57600182611f2991906139b3565b9150600a85611f389190613be4565b6030611f4491906139e7565b60f81b818381518110611f5a57611f59613c15565b5b60200101907effffffffffffffffffffffffffffffffffffffffffffffffffffffffffffff1916908160001a905350600a85611f969190613bb3565b9450611f14565b8093505050505b919050565b60007f80ac58cd000000000000000000000000000000000000000000000000000000007bffffffffffffffffffffffffffffffffffffffffffffffffffffffff1916827bffffffffffffffffffffffffffffffffffffffffffffffffffffffff1916148061207457507f5b5e139f000000000000000000000000000000000000000000000000000000007bffffffffffffffffffffffffffffffffffffffffffffffffffffffff1916827bffffffffffffffffffffffffffffffffffffffffffffffffffffffff1916145b80612084575061208382612390565b5b9050919050565b60008073ffffffffffffffffffffffffffffffffffffffff166002600084815260200190815260200160002060009054906101000a900473ffffffffffffffffffffffffffffffffffffffff1673ffffffffffffffffffffffffffffffffffffffff1614159050919050565b505050565b505050565b61210b8282610fa9565b61219a576121308173ffffffffffffffffffffffffffffffffffffffff1660146123fa565b61213e8360001c60206123fa565b60405160200161214f929190613cdc565b6040516020818303038152906040526040517f08c379a00000000000000000000000000000000000000000000000000000000081526004016121919190612b79565b60405180910390fd5b5050565b6121a88383612636565b6121b560008484846121f9565b6121f4576040517f08c379a00000000000000000000000000000000000000000000000000000000081526004016121eb90613b1b565b60405180910390fd5b505050565b600061221a8473ffffffffffffffffffffffffffffffffffffffff16612810565b15612383578373ffffffffffffffffffffffffffffffffffffffff1663150b7a02612243611575565b8786866040518563ffffffff1660e01b81526004016122659493929190613d6b565b602060405180830381600087803b15801561227f57600080fd5b505af19250505080156122b057506040513d601f19601f820116820180604052508101906122ad9190613dcc565b60015b612333573d80600081146122e0576040519150601f19603f3d011682016040523d82523d6000602084013e6122e5565b606091505b5060008151141561232b576040517f08c379a000000000000000000000000000000000000000000000000000000000815260040161232290613b1b565b60405180910390fd5b805181602001fd5b63150b7a0260e01b7bffffffffffffffffffffffffffffffffffffffffffffffffffffffff1916817bffffffffffffffffffffffffffffffffffffffffffffffffffffffff191614915050612388565b600190505b949350505050565b60007f01ffc9a7000000000000000000000000000000000000000000000000000000007bffffffffffffffffffffffffffffffffffffffffffffffffffffffff1916827bffffffffffffffffffffffffffffffffffffffffffffffffffffffff1916149050919050565b60606000600283600261240d9190613df9565b61241791906139e7565b67ffffffffffffffff8111156124305761242f612fc6565b5b6040519080825280601f01601f1916602001820160405280156124625781602001600182028036833780820191505090505b5090507f30000000000000000000000000000000000000000000000000000000000000008160008151811061249a57612499613c15565b5b60200101907effffffffffffffffffffffffffffffffffffffffffffffffffffffffffffff1916908160001a9053507f7800000000000000000000000000000000000000000000000000000000000000816001815181106124fe576124fd613c15565b5b60200101907effffffffffffffffffffffffffffffffffffffffffffffffffffffffffffff1916908160001a9053506000600184600261253e9190613df9565b61254891906139e7565b90505b60018111156125e8577f3031323334353637383961626364656600000000000000000000000000000000600f86166010811061258a57612589613c15565b5b1a60f81b8282815181106125a1576125a0613c15565b5b60200101907effffffffffffffffffffffffffffffffffffffffffffffffffffffffffffff1916908160001a905350600485901c9450806125e190613e53565b905061254b565b506000841461262c576040517f08c379a000000000000000000000000000000000000000000000000000000000815260040161262390613ec9565b60405180910390fd5b8091505092915050565b600073ffffffffffffffffffffffffffffffffffffffff168273ffffffffffffffffffffffffffffffffffffffff1614156126a6576040517f08c379a000000000000000000000000000000000000000000000000000000000815260040161269d90613f35565b60405180910390fd5b6126af8161208b565b156126ef576040517f08c379a00000000000000000000000000000000000000000000000000000000081526004016126e690613fa1565b60405180910390fd5b6126fb600083836120f7565b6001600360008473ffffffffffffffffffffffffffffffffffffffff1673ffffffffffffffffffffffffffffffffffffffff168152602001908152602001600020600082825461274b91906139e7565b92505081905550816002600083815260200190815260200160002060006101000a81548173ffffffffffffffffffffffffffffffffffffffff021916908373ffffffffffffffffffffffffffffffffffffffff160217905550808273ffffffffffffffffffffffffffffffffffffffff16600073ffffffffffffffffffffffffffffffffffffffff167fddf252ad1be2c89b69c2b068fc378daa952ba7f163c4a11628f55a4df523b3ef60405160405180910390a461280c600083836120fc565b5050565b6000808273ffffffffffffffffffffffffffffffffffffffff163b119050919050565b50805461283f9061338c565b6000825580601f106128515750612870565b601f01602090049060005260206000209081019061286f91906128f9565b5b50565b82805461287f9061338c565b90600052602060002090601f0160209004810192826128a157600085556128e8565b82601f106128ba57803560ff19168380011785556128e8565b828001600101855582156128e8579182015b828111156128e75782358255916020019190600101906128cc565b5b5090506128f591906128f9565b5090565b5b808211156129125760008160009055506001016128fa565b5090565b6000604051905090565b600080fd5b600080fd5b600080fd5b600080fd5b600080fd5b60008083601f84011261294f5761294e61292a565b5b8235905067ffffffffffffffff81111561296c5761296b61292f565b5b60208301915083600182028301111561298857612987612934565b5b9250929050565b6000819050919050565b6129a28161298f565b81146129ad57600080fd5b50565b6000813590506129bf81612999565b92915050565b6000806000604084860312156129de576129dd612920565b5b600084013567ffffffffffffffff8111156129fc576129fb612925565b5b612a0886828701612939565b93509350506020612a1b868287016129b0565b9150509250925092565b60007fffffffff0000000000000000000000000000000000000000000000000000000082169050919050565b612a5a81612a25565b8114612a6557600080fd5b50565b600081359050612a7781612a51565b92915050565b600060208284031215612a9357612a92612920565b5b6000612aa184828501612a68565b91505092915050565b60008115159050919050565b612abf81612aaa565b82525050565b6000602082019050612ada6000830184612ab6565b92915050565b600081519050919050565b600082825260208201905092915050565b60005b83811015612b1a578082015181840152602081019050612aff565b83811115612b29576000848401525b50505050565b6000601f19601f8301169050919050565b6000612b4b82612ae0565b612b558185612aeb565b9350612b65818560208601612afc565b612b6e81612b2f565b840191505092915050565b60006020820190508181036000830152612b938184612b40565b905092915050565b600060208284031215612bb157612bb0612920565b5b6000612bbf848285016129b0565b91505092915050565b600073ffffffffffffffffffffffffffffffffffffffff82169050919050565b6000612bf382612bc8565b9050919050565b612c0381612be8565b82525050565b6000602082019050612c1e6000830184612bfa565b92915050565b612c2d81612be8565b8114612c3857600080fd5b50565b600081359050612c4a81612c24565b92915050565b60008060408385031215612c6757612c66612920565b5b6000612c7585828601612c3b565b9250506020612c86858286016129b0565b9150509250929050565b60008060208385031215612ca757612ca6612920565b5b600083013567ffffffffffffffff811115612cc557612cc4612925565b5b612cd185828601612939565b92509250509250929050565b612ce68161298f565b82525050565b6000602082019050612d016000830184612cdd565b92915050565b600080600060608486031215612d2057612d1f612920565b5b6000612d2e86828701612c3b565b9350506020612d3f86828701612c3b565b9250506040612d50868287016129b0565b9150509250925092565b6000819050919050565b612d6d81612d5a565b8114612d7857600080fd5b50565b600081359050612d8a81612d64565b92915050565b600060208284031215612da657612da5612920565b5b6000612db484828501612d7b565b91505092915050565b612dc681612d5a565b82525050565b6000602082019050612de16000830184612dbd565b92915050565b60008060408385031215612dfe57612dfd612920565b5b6000612e0c85828601612d7b565b9250506020612e1d85828601612c3b565b9150509250929050565b600060208284031215612e3d57612e3c612920565b5b6000612e4b84828501612c3b565b91505092915050565b60008060008060008060a08789031215612e7157612e70612920565b5b6000612e7f89828a01612c3b565b9650506020612e9089828a01612c3b565b9550506040612ea189828a016129b0565b9450506060612eb289828a01612d7b565b935050608087013567ffffffffffffffff811115612ed357612ed2612925565b5b612edf89828a01612939565b92509250509295509295509295565b60008060008060808587031215612f0857612f07612920565b5b6000612f1687828801612c3b565b9450506020612f2787828801612c3b565b9350506040612f38878288016129b0565b9250506060612f4987828801612d7b565b91505092959194509250565b612f5e81612aaa565b8114612f6957600080fd5b50565b600081359050612f7b81612f55565b92915050565b60008060408385031215612f9857612f97612920565b5b6000612fa685828601612c3b565b9250506020612fb785828601612f6c565b9150509250929050565b600080fd5b7f4e487b7100000000000000000000000000000000000000000000000000000000600052604160045260246000fd5b612ffe82612b2f565b810181811067ffffffffffffffff8211171561301d5761301c612fc6565b5b80604052505050565b6000613030612916565b905061303c8282612ff5565b919050565b600067ffffffffffffffff82111561305c5761305b612fc6565b5b61306582612b2f565b9050602081019050919050565b82818337600083830152505050565b600061309461308f84613041565b613026565b9050828152602081018484840111156130b0576130af612fc1565b5b6130bb848285613072565b509392505050565b600082601f8301126130d8576130d761292a565b5b81356130e8848260208601613081565b91505092915050565b6000806000806080858703121561310b5761310a612920565b5b600061311987828801612c3b565b945050602061312a87828801612c3b565b935050604061313b878288016129b0565b925050606085013567ffffffffffffffff81111561315c5761315b612925565b5b613168878288016130c3565b91505092959194509250565b600060e082019050613189600083018a612bfa565b6131966020830189612bfa565b6131a36040830188612bfa565b6131b06060830187612cdd565b6131bd6080830186612cdd565b6131ca60a0830185612dbd565b81810360c08301526131dc8184612b40565b905098975050505050505050565b6000806040838503121561320157613200612920565b5b600061320f85828601612c3b565b925050602061322085828601612c3b565b9150509250929050565b600067ffffffffffffffff82111561324557613244612fc6565b5b61324e82612b2f565b9050602081019050919050565b600061326e6132698461322a565b613026565b90508281526020810184848401111561328a57613289612fc1565b5b613295848285613072565b509392505050565b600082601f8301126132b2576132b161292a565b5b81356132c284826020860161325b565b91505092915050565b6000602082840312156132e1576132e0612920565b5b600082013567ffffffffffffffff8111156132ff576132fe612925565b5b61330b8482850161329d565b91505092915050565b600081905092915050565b600061332b8385613314565b9350613338838584613072565b82840190509392505050565b600061335182848661331f565b91508190509392505050565b7f4e487b7100000000000000000000000000000000000000000000000000000000600052602260045260246000fd5b600060028204905060018216806133a457607f821691505b602082108114156133b8576133b761335d565b5b50919050565b7f4552433732313a20617070726f76616c20746f2063757272656e74206f776e6560008201527f7200000000000000000000000000000000000000000000000000000000000000602082015250565b600061341a602183612aeb565b9150613425826133be565b604082019050919050565b600060208201905081810360008301526134498161340d565b9050919050565b7f4552433732313a20617070726f76652063616c6c6572206973206e6f7420746f60008201527f6b656e206f776e6572206e6f7220617070726f76656420666f7220616c6c0000602082015250565b60006134ac603e83612aeb565b91506134b782613450565b604082019050919050565b600060208201905081810360008301526134db8161349f565b9050919050565b7f4552433732313a2063616c6c6572206973206e6f7420746f6b656e206f776e6560008201527f72206e6f7220617070726f766564000000000000000000000000000000000000602082015250565b600061353e602e83612aeb565b9150613549826134e2565b604082019050919050565b6000602082019050818103600083015261356d81613531565b9050919050565b7f416363657373436f6e74726f6c3a2063616e206f6e6c792072656e6f756e636560008201527f20726f6c657320666f722073656c660000000000000000000000000000000000602082015250565b60006135d0602f83612aeb565b91506135db82613574565b604082019050919050565b600060208201905081810360008301526135ff816135c3565b9050919050565b60006136128385612aeb565b935061361f838584613072565b61362883612b2f565b840190509392505050565b600060a0820190506136486000830189612bfa565b6136556020830188612cdd565b6136626040830187612cdd565b61366f6060830186612cdd565b8181036080830152613682818486613606565b9050979650505050505050565b7f4552433732313a20696e76616c696420746f6b656e2049440000000000000000600082015250565b60006136c5601883612aeb565b91506136d08261368f565b602082019050919050565b600060208201905081810360008301526136f4816136b8565b9050919050565b7f4552433732313a2061646472657373207a65726f206973206e6f74206120766160008201527f6c6964206f776e65720000000000000000000000000000000000000000000000602082015250565b6000613757602983612aeb565b9150613762826136fb565b604082019050919050565b600060208201905081810360008301526137868161374a565b9050919050565b50565b600061379d600083612aeb565b91506137a88261378d565b600082019050919050565b600060a0820190506137c86000830187612bfa565b6137d56020830186612cdd565b6137e26040830185612cdd565b6137ef6060830184612cdd565b818103608083015261380081613790565b905095945050505050565b600061381682612ae0565b6138208185613314565b9350613830818560208601612afc565b80840191505092915050565b6000613848828561380b565b9150613854828461380b565b91508190509392505050565b7f4552433732313a207472616e736665722066726f6d20696e636f72726563742060008201527f6f776e6572000000000000000000000000000000000000000000000000000000602082015250565b60006138bc602583612aeb565b91506138c782613860565b604082019050919050565b600060208201905081810360008301526138eb816138af565b9050919050565b7f4552433732313a207472616e7366657220746f20746865207a65726f2061646460008201527f7265737300000000000000000000000000000000000000000000000000000000602082015250565b600061394e602483612aeb565b9150613959826138f2565b604082019050919050565b6000602082019050818103600083015261397d81613941565b9050919050565b7f4e487b7100000000000000000000000000000000000000000000000000000000600052601160045260246000fd5b60006139be8261298f565b91506139c98361298f565b9250828210156139dc576139db613984565b5b828203905092915050565b60006139f28261298f565b91506139fd8361298f565b9250827fffffffffffffffffffffffffffffffffffffffffffffffffffffffffffffffff03821115613a3257613a31613984565b5b828201905092915050565b7f4552433732313a20617070726f766520746f2063616c6c657200000000000000600082015250565b6000613a73601983612aeb565b9150613a7e82613a3d565b602082019050919050565b60006020820190508181036000830152613aa281613a66565b9050919050565b7f4552433732313a207472616e7366657220746f206e6f6e20455243373231526560008201527f63656976657220696d706c656d656e7465720000000000000000000000000000602082015250565b6000613b05603283612aeb565b9150613b1082613aa9565b604082019050919050565b60006020820190508181036000830152613b3481613af8565b9050919050565b6000613b468261298f565b91507fffffffffffffffffffffffffffffffffffffffffffffffffffffffffffffffff821415613b7957613b78613984565b5b600182019050919050565b7f4e487b7100000000000000000000000000000000000000000000000000000000600052601260045260246000fd5b6000613bbe8261298f565b9150613bc98361298f565b925082613bd957613bd8613b84565b5b828204905092915050565b6000613bef8261298f565b9150613bfa8361298f565b925082613c0a57613c09613b84565b5b828206905092915050565b7f4e487b7100000000000000000000000000000000000000000000000000000000600052603260045260246000fd5b7f416363657373436f6e74726f6c3a206163636f756e7420000000000000000000600082015250565b6000613c7a601783613314565b9150613c8582613c44565b601782019050919050565b7f206973206d697373696e6720726f6c6520000000000000000000000000000000600082015250565b6000613cc6601183613314565b9150613cd182613c90565b601182019050919050565b6000613ce782613c6d565b9150613cf3828561380b565b9150613cfe82613cb9565b9150613d0a828461380b565b91508190509392505050565b600081519050919050565b600082825260208201905092915050565b6000613d3d82613d16565b613d478185613d21565b9350613d57818560208601612afc565b613d6081612b2f565b840191505092915050565b6000608082019050613d806000830187612bfa565b613d8d6020830186612bfa565b613d9a6040830185612cdd565b8181036060830152613dac8184613d32565b905095945050505050565b600081519050613dc681612a51565b92915050565b600060208284031215613de257613de1612920565b5b6000613df084828501613db7565b91505092915050565b6000613e048261298f565b9150613e0f8361298f565b9250817fffffffffffffffffffffffffffffffffffffffffffffffffffffffffffffffff0483118215151615613e4857613e47613984565b5b828202905092915050565b6000613e5e8261298f565b91506000821415613e7257613e71613984565b5b600182039050919050565b7f537472696e67733a20686578206c656e67746820696e73756666696369656e74600082015250565b6000613eb3602083612aeb565b9150613ebe82613e7d565b602082019050919050565b60006020820190508181036000830152613ee281613ea6565b9050919050565b7f4552433732313a206d696e7420746f20746865207a65726f2061646472657373600082015250565b6000613f1f602083612aeb565b9150613f2a82613ee9565b602082019050919050565b60006020820190508181036000830152613f4e81613f12565b9050919050565b7f4552433732313a20746f6b656e20616c7265616479206d696e74656400000000600082015250565b6000613f8b601c83612aeb565b9150613f9682613f55565b602082019050919050565b60006020820190508181036000830152613fba81613f7e565b905091905056fea26469706673582212203a788d3abefd68f3909ec3b3f8e8731a0cb4ed08b0d1b9c0492f2386a3368a6064736f6c63430008090033",
  "linkReferences": {},
  "deployedLinkReferences": {}
}