{
  "_format": "hh-sol-artifact-1",
  "contractName": "CampaignNFT",
  "sourceName": "contracts/CampaignNFT.sol",
  "abi": [
    {
      "inputs": [
        {
          "internalType": "address",
          "name": "_registry",
          "type": "address"
        }
      ],
      "stateMutability": "nonpayable",
      "type": "constructor"
    },
    {
      "anonymous": false,
      "inputs": [
        {
          "indexed": true,
          "internalType": "address",
          "name": "owner",
          "type": "address"
        },
        {
          "indexed": true,
          "internalType": "address",
          "name": "approved",
          "type": "address"
        },
        {
          "indexed": true,
          "internalType": "uint256",
          "name": "tokenId",
          "type": "uint256"
        }
      ],
      "name": "Approval",
      "type": "event"
    },
    {
      "anonymous": false,
      "inputs": [
        {
          "indexed": true,
          "internalType": "address",
          "name": "owner",
          "type": "address"
        },
        {
          "indexed": true,
          "internalType": "address",
          "name": "operator",
          "type": "address"
        },
        {
          "indexed": false,
          "internalType": "bool",
          "name": "approved",
          "type": "bool"
        }
      ],
      "name": "ApprovalForAll",
      "type": "event"
    },
    {
      "anonymous": false,
      "inputs": [
        {
          "indexed": true,
          "internalType": "bytes32",
          "name": "role",
          "type": "bytes32"
        },
        {
          "indexed": true,
          "internalType": "bytes32",
          "name": "previousAdminRole",
          "type": "bytes32"
        },
        {
          "indexed": true,
          "internalType": "bytes32",
          "name": "newAdminRole",
          "type": "bytes32"
        }
      ],
      "name": "RoleAdminChanged",
      "type": "event"
    },
    {
      "anonymous": false,
      "inputs": [
        {
          "indexed": true,
          "internalType": "bytes32",
          "name": "role",
          "type": "bytes32"
        },
        {
          "indexed": true,
          "internalType": "address",
          "name": "account",
          "type": "address"
        },
        {
          "indexed": true,
          "internalType": "address",
          "name": "sender",
          "type": "address"
        }
      ],
      "name": "RoleGranted",
      "type": "event"
    },
    {
      "anonymous": false,
      "inputs": [
        {
          "indexed": true,
          "internalType": "bytes32",
          "name": "role",
          "type": "bytes32"
        },
        {
          "indexed": true,
          "internalType": "address",
          "name": "account",
          "type": "address"
        },
        {
          "indexed": true,
          "internalType": "address",
          "name": "sender",
          "type": "address"
        }
      ],
      "name": "RoleRevoked",
      "type": "event"
    },
    {
      "anonymous": false,
      "inputs": [
        {
          "indexed": true,
          "internalType": "address",
          "name": "from",
          "type": "address"
        },
        {
          "indexed": true,
          "internalType": "address",
          "name": "to",
          "type": "address"
        },
        {
          "indexed": true,
          "internalType": "uint256",
          "name": "tokenId",
          "type": "uint256"
        }
      ],
      "name": "Transfer",
      "type": "event"
    },
    {
      "anonymous": false,
      "inputs": [
        {
          "indexed": true,
          "internalType": "address",
          "name": "backer",
          "type": "address"
        },
        {
          "indexed": true,
          "internalType": "address",
          "name": "campaignInfo",
          "type": "address"
        },
        {
          "indexed": false,
          "internalType": "address",
          "name": "token",
          "type": "address"
        },
        {
          "indexed": true,
          "internalType": "bytes32",
          "name": "platform",
          "type": "bytes32"
        },
        {
          "indexed": false,
          "internalType": "uint256",
          "name": "pledgedAmount",
          "type": "uint256"
        },
        {
          "indexed": false,
          "internalType": "uint256",
          "name": "timestamp",
          "type": "uint256"
        },
        {
          "indexed": false,
          "internalType": "string",
          "name": "rewardName",
          "type": "string"
        }
      ],
      "name": "pledgeReceipt",
      "type": "event"
    },
    {
      "inputs": [],
      "name": "DEFAULT_ADMIN_ROLE",
      "outputs": [
        {
          "internalType": "bytes32",
          "name": "",
          "type": "bytes32"
        }
      ],
      "stateMutability": "view",
      "type": "function"
    },
    {
      "inputs": [],
      "name": "MINTER_ROLE",
      "outputs": [
        {
          "internalType": "bytes32",
          "name": "",
          "type": "bytes32"
        }
      ],
      "stateMutability": "view",
      "type": "function"
    },
    {
      "inputs": [
        {
          "internalType": "address",
          "name": "to",
          "type": "address"
        },
        {
          "internalType": "uint256",
          "name": "tokenId",
          "type": "uint256"
        }
      ],
      "name": "approve",
      "outputs": [],
      "stateMutability": "nonpayable",
      "type": "function"
    },
    {
      "inputs": [
        {
          "internalType": "address",
          "name": "owner",
          "type": "address"
        }
      ],
      "name": "balanceOf",
      "outputs": [
        {
          "internalType": "uint256",
          "name": "",
          "type": "uint256"
        }
      ],
      "stateMutability": "view",
      "type": "function"
    },
    {
      "inputs": [
        {
          "internalType": "uint256",
          "name": "tokenId",
          "type": "uint256"
        }
      ],
      "name": "burn",
      "outputs": [],
      "stateMutability": "nonpayable",
      "type": "function"
    },
    {
      "inputs": [
        {
          "internalType": "uint256",
          "name": "tokenId",
          "type": "uint256"
        }
      ],
      "name": "getApproved",
      "outputs": [
        {
          "internalType": "address",
          "name": "",
          "type": "address"
        }
      ],
      "stateMutability": "view",
      "type": "function"
    },
    {
      "inputs": [
        {
          "internalType": "uint256",
          "name": "tokenId",
          "type": "uint256"
        }
      ],
      "name": "getPledgeReceipt",
      "outputs": [
        {
          "internalType": "address",
          "name": "campaignInfo",
          "type": "address"
        },
        {
          "internalType": "address",
          "name": "backer",
          "type": "address"
        },
        {
          "internalType": "address",
          "name": "token",
          "type": "address"
        },
        {
          "internalType": "uint256",
          "name": "pledgedAmount",
          "type": "uint256"
        },
        {
          "internalType": "uint256",
          "name": "timestamp",
          "type": "uint256"
        },
        {
          "internalType": "bytes32",
          "name": "platformId",
          "type": "bytes32"
        },
        {
          "internalType": "string",
          "name": "rewardName",
          "type": "string"
        }
      ],
      "stateMutability": "view",
      "type": "function"
    },
    {
      "inputs": [
        {
          "internalType": "bytes32",
          "name": "role",
          "type": "bytes32"
        }
      ],
      "name": "getRoleAdmin",
      "outputs": [
        {
          "internalType": "bytes32",
          "name": "",
          "type": "bytes32"
        }
      ],
      "stateMutability": "view",
      "type": "function"
    },
    {
      "inputs": [
        {
          "internalType": "bytes32",
          "name": "role",
          "type": "bytes32"
        },
        {
          "internalType": "address",
          "name": "account",
          "type": "address"
        }
      ],
      "name": "grantRole",
      "outputs": [],
      "stateMutability": "nonpayable",
      "type": "function"
    },
    {
      "inputs": [
        {
          "internalType": "address",
          "name": "_campaignInfo",
          "type": "address"
        }
      ],
      "name": "grantRole",
      "outputs": [],
      "stateMutability": "nonpayable",
      "type": "function"
    },
    {
      "inputs": [
        {
          "internalType": "bytes32",
          "name": "role",
          "type": "bytes32"
        },
        {
          "internalType": "address",
          "name": "account",
          "type": "address"
        }
      ],
      "name": "hasRole",
      "outputs": [
        {
          "internalType": "bool",
          "name": "",
          "type": "bool"
        }
      ],
      "stateMutability": "view",
      "type": "function"
    },
    {
      "inputs": [
        {
          "internalType": "address",
          "name": "owner",
          "type": "address"
        },
        {
          "internalType": "address",
          "name": "operator",
          "type": "address"
        }
      ],
      "name": "isApprovedForAll",
      "outputs": [
        {
          "internalType": "bool",
          "name": "",
          "type": "bool"
        }
      ],
      "stateMutability": "view",
      "type": "function"
    },
    {
      "inputs": [],
      "name": "name",
      "outputs": [
        {
          "internalType": "string",
          "name": "",
          "type": "string"
        }
      ],
      "stateMutability": "view",
      "type": "function"
    },
    {
      "inputs": [
        {
          "internalType": "uint256",
          "name": "tokenId",
          "type": "uint256"
        }
      ],
      "name": "ownerOf",
      "outputs": [
        {
          "internalType": "address",
          "name": "",
          "type": "address"
        }
      ],
      "stateMutability": "view",
      "type": "function"
    },
    {
      "inputs": [
        {
          "internalType": "bytes32",
          "name": "role",
          "type": "bytes32"
        },
        {
          "internalType": "address",
          "name": "account",
          "type": "address"
        }
      ],
      "name": "renounceRole",
      "outputs": [],
      "stateMutability": "nonpayable",
      "type": "function"
    },
    {
      "inputs": [
        {
          "internalType": "bytes32",
          "name": "role",
          "type": "bytes32"
        },
        {
          "internalType": "address",
          "name": "account",
          "type": "address"
        }
      ],
      "name": "revokeRole",
      "outputs": [],
      "stateMutability": "nonpayable",
      "type": "function"
    },
    {
      "inputs": [
        {
          "internalType": "address",
          "name": "backer",
          "type": "address"
        },
        {
          "internalType": "address",
          "name": "token",
          "type": "address"
        },
        {
          "internalType": "uint256",
          "name": "pledgedAmount",
          "type": "uint256"
        },
        {
          "internalType": "bytes32",
          "name": "platformId",
          "type": "bytes32"
        },
        {
          "internalType": "string",
          "name": "rewardName",
          "type": "string"
        }
      ],
      "name": "safeMint",
      "outputs": [],
      "stateMutability": "nonpayable",
      "type": "function"
    },
    {
      "inputs": [
        {
          "internalType": "address",
          "name": "backer",
          "type": "address"
        },
        {
          "internalType": "address",
          "name": "token",
          "type": "address"
        },
        {
          "internalType": "uint256",
          "name": "pledgedAmount",
          "type": "uint256"
        },
        {
          "internalType": "bytes32",
          "name": "platformId",
          "type": "bytes32"
        }
      ],
      "name": "safeMint",
      "outputs": [],
      "stateMutability": "nonpayable",
      "type": "function"
    },
    {
      "inputs": [
        {
          "internalType": "address",
          "name": "from",
          "type": "address"
        },
        {
          "internalType": "address",
          "name": "to",
          "type": "address"
        },
        {
          "internalType": "uint256",
          "name": "tokenId",
          "type": "uint256"
        }
      ],
      "name": "safeTransferFrom",
      "outputs": [],
      "stateMutability": "nonpayable",
      "type": "function"
    },
    {
      "inputs": [
        {
          "internalType": "address",
          "name": "from",
          "type": "address"
        },
        {
          "internalType": "address",
          "name": "to",
          "type": "address"
        },
        {
          "internalType": "uint256",
          "name": "tokenId",
          "type": "uint256"
        },
        {
          "internalType": "bytes",
          "name": "data",
          "type": "bytes"
        }
      ],
      "name": "safeTransferFrom",
      "outputs": [],
      "stateMutability": "nonpayable",
      "type": "function"
    },
    {
      "inputs": [
        {
          "internalType": "address",
          "name": "operator",
          "type": "address"
        },
        {
          "internalType": "bool",
          "name": "approved",
          "type": "bool"
        }
      ],
      "name": "setApprovalForAll",
      "outputs": [],
      "stateMutability": "nonpayable",
      "type": "function"
    },
    {
      "inputs": [
        {
          "internalType": "bytes4",
          "name": "interfaceId",
          "type": "bytes4"
        }
      ],
      "name": "supportsInterface",
      "outputs": [
        {
          "internalType": "bool",
          "name": "",
          "type": "bool"
        }
      ],
      "stateMutability": "view",
      "type": "function"
    },
    {
      "inputs": [],
      "name": "symbol",
      "outputs": [
        {
          "internalType": "string",
          "name": "",
          "type": "string"
        }
      ],
      "stateMutability": "view",
      "type": "function"
    },
    {
      "inputs": [
        {
          "internalType": "uint256",
          "name": "tokenId",
          "type": "uint256"
        }
      ],
      "name": "tokenURI",
      "outputs": [
        {
          "internalType": "string",
          "name": "",
          "type": "string"
        }
      ],
      "stateMutability": "view",
      "type": "function"
    },
    {
      "inputs": [
        {
          "internalType": "address",
          "name": "from",
          "type": "address"
        },
        {
          "internalType": "address",
          "name": "to",
          "type": "address"
        },
        {
          "internalType": "uint256",
          "name": "tokenId",
          "type": "uint256"
        }
      ],
      "name": "transferFrom",
      "outputs": [],
      "stateMutability": "nonpayable",
      "type": "function"
    }
  ],
  "bytecode": "0x60806040523480156200001157600080fd5b50604051620040a1380380620040a1833981810160405281019062000037919062000372565b6040518060400160405280600b81526020017f43616d706169676e4e46540000000000000000000000000000000000000000008152506040518060400160405280600481526020017f434e4654000000000000000000000000000000000000000000000000000000008152508160009080519060200190620000bb92919062000258565b508060019080519060200190620000d492919062000258565b505050620000ec6000801b82620000f360201b60201c565b5062000409565b620001058282620001e560201b60201c565b620001e15760016006600084815260200190815260200160002060000160008373ffffffffffffffffffffffffffffffffffffffff1673ffffffffffffffffffffffffffffffffffffffff16815260200190815260200160002060006101000a81548160ff021916908315150217905550620001866200025060201b60201c565b73ffffffffffffffffffffffffffffffffffffffff168173ffffffffffffffffffffffffffffffffffffffff16837f2f8788117e7eff1d82e926ec794901d17c78024a50270940304540a733656f0d60405160405180910390a45b5050565b60006006600084815260200190815260200160002060000160008373ffffffffffffffffffffffffffffffffffffffff1673ffffffffffffffffffffffffffffffffffffffff16815260200190815260200160002060009054906101000a900460ff16905092915050565b600033905090565b8280546200026690620003d3565b90600052602060002090601f0160209004810192826200028a5760008555620002d6565b82601f10620002a557805160ff1916838001178555620002d6565b82800160010185558215620002d6579182015b82811115620002d5578251825591602001919060010190620002b8565b5b509050620002e59190620002e9565b5090565b5b8082111562000304576000816000905550600101620002ea565b5090565b600080fd5b600073ffffffffffffffffffffffffffffffffffffffff82169050919050565b60006200033a826200030d565b9050919050565b6200034c816200032d565b81146200035857600080fd5b50565b6000815190506200036c8162000341565b92915050565b6000602082840312156200038b576200038a62000308565b5b60006200039b848285016200035b565b91505092915050565b7f4e487b7100000000000000000000000000000000000000000000000000000000600052602260045260246000fd5b60006002820490506001821680620003ec57607f821691505b60208210811415620004035762000402620003a4565b5b50919050565b613c8880620004196000396000f3fe608060405234801561001057600080fd5b50600436106101735760003560e01c80636352211e116100de578063a22cb46511610097578063c87b56dd11610071578063c87b56dd1461045c578063d53913931461048c578063d547741f146104aa578063e985e9c5146104c657610173565b8063a22cb465146103ee578063b88d4fde1461040a578063c20c42f81461042657610173565b80636352211e1461030657806370a08231146103365780638e48312f1461036657806391d148541461038257806395d89b41146103b2578063a217fddf146103d057610173565b80632f2ff15d116101305780632f2ff15d1461025e57806336568abe1461027a578063389776861461029657806342842e0e146102b257806342966c68146102ce5780634ebc0c19146102ea57610173565b806301ffc9a71461017857806306fdde03146101a8578063081812fc146101c6578063095ea7b3146101f657806323b872dd14610212578063248a9ca31461022e575b600080fd5b610192600480360381019061018d9190612804565b6104f6565b60405161019f919061284c565b60405180910390f35b6101b0610508565b6040516101bd9190612900565b60405180910390f35b6101e060048036038101906101db9190612958565b61059a565b6040516101ed91906129c6565b60405180910390f35b610210600480360381019061020b9190612a0d565b6105e0565b005b61022c60048036038101906102279190612a4d565b6106f8565b005b61024860048036038101906102439190612ad6565b610758565b6040516102559190612b12565b60405180910390f35b61027860048036038101906102739190612b2d565b610778565b005b610294600480360381019061028f9190612b2d565b610799565b005b6102b060048036038101906102ab9190612b6d565b61081c565b005b6102cc60048036038101906102c79190612a4d565b610857565b005b6102e860048036038101906102e39190612958565b610877565b005b61030460048036038101906102ff9190612bff565b610961565b005b610320600480360381019061031b9190612958565b610b35565b60405161032d91906129c6565b60405180910390f35b610350600480360381019061034b9190612b6d565b610be7565b60405161035d9190612ca8565b60405180910390f35b610380600480360381019061037b9190612cc3565b610c9f565b005b61039c60048036038101906103979190612b2d565b610e59565b6040516103a9919061284c565b60405180910390f35b6103ba610ec4565b6040516103c79190612900565b60405180910390f35b6103d8610f56565b6040516103e59190612b12565b60405180910390f35b61040860048036038101906104039190612d56565b610f5d565b005b610424600480360381019061041f9190612ec6565b610f73565b005b610440600480360381019061043b9190612958565b610fd5565b6040516104539796959493929190612f49565b60405180910390f35b61047660048036038101906104719190612958565b6111f1565b6040516104839190612900565b60405180910390f35b610494611259565b6040516104a19190612b12565b60405180910390f35b6104c460048036038101906104bf9190612b2d565b61127d565b005b6104e060048036038101906104db9190612fbf565b61129e565b6040516104ed919061284c565b60405180910390f35b600061050182611332565b9050919050565b6060600080546105179061302e565b80601f01602080910402602001604051908101604052809291908181526020018280546105439061302e565b80156105905780601f1061056557610100808354040283529160200191610590565b820191906000526020600020905b81548152906001019060200180831161057357829003601f168201915b5050505050905090565b60006105a5826113ac565b6004600083815260200190815260200160002060009054906101000a900473ffffffffffffffffffffffffffffffffffffffff169050919050565b60006105eb82610b35565b90508073ffffffffffffffffffffffffffffffffffffffff168373ffffffffffffffffffffffffffffffffffffffff16141561065c576040517f08c379a0000000000000000000000000000000000000000000000000000000008152600401610653906130d2565b60405180910390fd5b8073ffffffffffffffffffffffffffffffffffffffff1661067b6113f7565b73ffffffffffffffffffffffffffffffffffffffff1614806106aa57506106a9816106a46113f7565b61129e565b5b6106e9576040517f08c379a00000000000000000000000000000000000000000000000000000000081526004016106e090613164565b60405180910390fd5b6106f383836113ff565b505050565b6107096107036113f7565b826114b8565b610748576040517f08c379a000000000000000000000000000000000000000000000000000000000815260040161073f906131f6565b60405180910390fd5b61075383838361154d565b505050565b600060066000838152602001908152602001600020600101549050919050565b61078182610758565b61078a816117b4565b61079483836117c8565b505050565b6107a16113f7565b73ffffffffffffffffffffffffffffffffffffffff168173ffffffffffffffffffffffffffffffffffffffff161461080e576040517f08c379a000000000000000000000000000000000000000000000000000000000815260040161080590613288565b60405180910390fd5b61081882826118a9565b5050565b6000801b610829816117b4565b6108537f9f2df0fed2c77648de5860a4cc508cd0818c85b8b8a1ab4ceeef8d981c8956a6836117c8565b5050565b61087283838360405180602001604052806000815250610f73565b505050565b7f9f2df0fed2c77648de5860a4cc508cd0818c85b8b8a1ab4ceeef8d981c8956a66108a1816117b4565b6108aa8261198b565b60076000838152602001908152602001600020600080820160006101000a81549073ffffffffffffffffffffffffffffffffffffffff02191690556001820160006101000a81549073ffffffffffffffffffffffffffffffffffffffff02191690556002820160006101000a81549073ffffffffffffffffffffffffffffffffffffffff021916905560038201600090556004820160009055600582016000905560068201600061095b91906126b5565b50505050565b7f9f2df0fed2c77648de5860a4cc508cd0818c85b8b8a1ab4ceeef8d981c8956a661098b816117b4565b60006109976008611aa8565b90506109a36008611ab6565b6109ad8882611acc565b6000600760008381526020019081526020016000209050338160000160006101000a81548173ffffffffffffffffffffffffffffffffffffffff021916908373ffffffffffffffffffffffffffffffffffffffff160217905550888160010160006101000a81548173ffffffffffffffffffffffffffffffffffffffff021916908373ffffffffffffffffffffffffffffffffffffffff160217905550878160020160006101000a81548173ffffffffffffffffffffffffffffffffffffffff021916908373ffffffffffffffffffffffffffffffffffffffff1602179055508681600301819055504281600401819055508581600501819055508484826006019190610abb9291906126f5565b50853373ffffffffffffffffffffffffffffffffffffffff168a73ffffffffffffffffffffffffffffffffffffffff167f61b156c6ac671ebfc31a668e61f77ea0210127ad37010dacc50307dc59d729b58b8b428b8b604051610b229594939291906132d5565b60405180910390a4505050505050505050565b6000806002600084815260200190815260200160002060009054906101000a900473ffffffffffffffffffffffffffffffffffffffff169050600073ffffffffffffffffffffffffffffffffffffffff168173ffffffffffffffffffffffffffffffffffffffff161415610bde576040517f08c379a0000000000000000000000000000000000000000000000000000000008152600401610bd59061336f565b60405180910390fd5b80915050919050565b60008073ffffffffffffffffffffffffffffffffffffffff168273ffffffffffffffffffffffffffffffffffffffff161415610c58576040517f08c379a0000000000000000000000000000000000000000000000000000000008152600401610c4f90613401565b60405180910390fd5b600360008373ffffffffffffffffffffffffffffffffffffffff1673ffffffffffffffffffffffffffffffffffffffff168152602001908152602001600020549050919050565b7f9f2df0fed2c77648de5860a4cc508cd0818c85b8b8a1ab4ceeef8d981c8956a6610cc9816117b4565b6000610cd56008611aa8565b9050610ce16008611ab6565b610ceb8682611acc565b6000600760008381526020019081526020016000209050338160000160006101000a81548173ffffffffffffffffffffffffffffffffffffffff021916908373ffffffffffffffffffffffffffffffffffffffff160217905550868160010160006101000a81548173ffffffffffffffffffffffffffffffffffffffff021916908373ffffffffffffffffffffffffffffffffffffffff160217905550858160020160006101000a81548173ffffffffffffffffffffffffffffffffffffffff021916908373ffffffffffffffffffffffffffffffffffffffff160217905550848160030181905550428160040181905550838160050181905550833373ffffffffffffffffffffffffffffffffffffffff168873ffffffffffffffffffffffffffffffffffffffff167f61b156c6ac671ebfc31a668e61f77ea0210127ad37010dacc50307dc59d729b5898942604051610e4893929190613447565b60405180910390a450505050505050565b60006006600084815260200190815260200160002060000160008373ffffffffffffffffffffffffffffffffffffffff1673ffffffffffffffffffffffffffffffffffffffff16815260200190815260200160002060009054906101000a900460ff16905092915050565b606060018054610ed39061302e565b80601f0160208091040260200160405190810160405280929190818152602001828054610eff9061302e565b8015610f4c5780601f10610f2157610100808354040283529160200191610f4c565b820191906000526020600020905b815481529060010190602001808311610f2f57829003601f168201915b5050505050905090565b6000801b81565b610f6f610f686113f7565b8383611aea565b5050565b610f84610f7e6113f7565b836114b8565b610fc3576040517f08c379a0000000000000000000000000000000000000000000000000000000008152600401610fba906131f6565b60405180910390fd5b610fcf84848484611c57565b50505050565b60008060008060008060606000600760008a81526020019081526020016000206040518060e00160405290816000820160009054906101000a900473ffffffffffffffffffffffffffffffffffffffff1673ffffffffffffffffffffffffffffffffffffffff1673ffffffffffffffffffffffffffffffffffffffff1681526020016001820160009054906101000a900473ffffffffffffffffffffffffffffffffffffffff1673ffffffffffffffffffffffffffffffffffffffff1673ffffffffffffffffffffffffffffffffffffffff1681526020016002820160009054906101000a900473ffffffffffffffffffffffffffffffffffffffff1673ffffffffffffffffffffffffffffffffffffffff1673ffffffffffffffffffffffffffffffffffffffff1681526020016003820154815260200160048201548152602001600582015481526020016006820180546111309061302e565b80601f016020809104026020016040519081016040528092919081815260200182805461115c9061302e565b80156111a95780601f1061117e576101008083540402835291602001916111a9565b820191906000526020600020905b81548152906001019060200180831161118c57829003601f168201915b505050505081525050905080600001519750806020015196508060600151945080604001519550806080015193508060a0015192508060c00151915050919395979092949650565b60606111fc826113ac565b6000611206611cb3565b905060008151116112265760405180602001604052806000815250611251565b8061123084611cca565b6040516020016112419291906134cd565b6040516020818303038152906040525b915050919050565b7f9f2df0fed2c77648de5860a4cc508cd0818c85b8b8a1ab4ceeef8d981c8956a681565b61128682610758565b61128f816117b4565b61129983836118a9565b505050565b6000600560008473ffffffffffffffffffffffffffffffffffffffff1673ffffffffffffffffffffffffffffffffffffffff16815260200190815260200160002060008373ffffffffffffffffffffffffffffffffffffffff1673ffffffffffffffffffffffffffffffffffffffff16815260200190815260200160002060009054906101000a900460ff16905092915050565b60007f7965db0b000000000000000000000000000000000000000000000000000000007bffffffffffffffffffffffffffffffffffffffffffffffffffffffff1916827bffffffffffffffffffffffffffffffffffffffffffffffffffffffff191614806113a557506113a482611e2b565b5b9050919050565b6113b581611f0d565b6113f4576040517f08c379a00000000000000000000000000000000000000000000000000000000081526004016113eb9061336f565b60405180910390fd5b50565b600033905090565b816004600083815260200190815260200160002060006101000a81548173ffffffffffffffffffffffffffffffffffffffff021916908373ffffffffffffffffffffffffffffffffffffffff160217905550808273ffffffffffffffffffffffffffffffffffffffff1661147283610b35565b73ffffffffffffffffffffffffffffffffffffffff167f8c5be1e5ebec7d5bd14f71427d1e84f3dd0314c0f7b2291e5b200ac8c7c3b92560405160405180910390a45050565b6000806114c483610b35565b90508073ffffffffffffffffffffffffffffffffffffffff168473ffffffffffffffffffffffffffffffffffffffff1614806115065750611505818561129e565b5b8061154457508373ffffffffffffffffffffffffffffffffffffffff1661152c8461059a565b73ffffffffffffffffffffffffffffffffffffffff16145b91505092915050565b8273ffffffffffffffffffffffffffffffffffffffff1661156d82610b35565b73ffffffffffffffffffffffffffffffffffffffff16146115c3576040517f08c379a00000000000000000000000000000000000000000000000000000000081526004016115ba90613563565b60405180910390fd5b600073ffffffffffffffffffffffffffffffffffffffff168273ffffffffffffffffffffffffffffffffffffffff161415611633576040517f08c379a000000000000000000000000000000000000000000000000000000000815260040161162a906135f5565b60405180910390fd5b61163e838383611f79565b6116496000826113ff565b6001600360008573ffffffffffffffffffffffffffffffffffffffff1673ffffffffffffffffffffffffffffffffffffffff16815260200190815260200160002060008282546116999190613644565b925050819055506001600360008473ffffffffffffffffffffffffffffffffffffffff1673ffffffffffffffffffffffffffffffffffffffff16815260200190815260200160002060008282546116f09190613678565b92505081905550816002600083815260200190815260200160002060006101000a81548173ffffffffffffffffffffffffffffffffffffffff021916908373ffffffffffffffffffffffffffffffffffffffff160217905550808273ffffffffffffffffffffffffffffffffffffffff168473ffffffffffffffffffffffffffffffffffffffff167fddf252ad1be2c89b69c2b068fc378daa952ba7f163c4a11628f55a4df523b3ef60405160405180910390a46117af838383611f7e565b505050565b6117c5816117c06113f7565b611f83565b50565b6117d28282610e59565b6118a55760016006600084815260200190815260200160002060000160008373ffffffffffffffffffffffffffffffffffffffff1673ffffffffffffffffffffffffffffffffffffffff16815260200190815260200160002060006101000a81548160ff02191690831515021790555061184a6113f7565b73ffffffffffffffffffffffffffffffffffffffff168173ffffffffffffffffffffffffffffffffffffffff16837f2f8788117e7eff1d82e926ec794901d17c78024a50270940304540a733656f0d60405160405180910390a45b5050565b6118b38282610e59565b156119875760006006600084815260200190815260200160002060000160008373ffffffffffffffffffffffffffffffffffffffff1673ffffffffffffffffffffffffffffffffffffffff16815260200190815260200160002060006101000a81548160ff02191690831515021790555061192c6113f7565b73ffffffffffffffffffffffffffffffffffffffff168173ffffffffffffffffffffffffffffffffffffffff16837ff6391f5c32d9c69d2a47ea670b442974b53935d1edc7fd64eb21e047a839171b60405160405180910390a45b5050565b600061199682610b35565b90506119a481600084611f79565b6119af6000836113ff565b6001600360008373ffffffffffffffffffffffffffffffffffffffff1673ffffffffffffffffffffffffffffffffffffffff16815260200190815260200160002060008282546119ff9190613644565b925050819055506002600083815260200190815260200160002060006101000a81549073ffffffffffffffffffffffffffffffffffffffff021916905581600073ffffffffffffffffffffffffffffffffffffffff168273ffffffffffffffffffffffffffffffffffffffff167fddf252ad1be2c89b69c2b068fc378daa952ba7f163c4a11628f55a4df523b3ef60405160405180910390a4611aa481600084611f7e565b5050565b600081600001549050919050565b6001816000016000828254019250508190555050565b611ae6828260405180602001604052806000815250612020565b5050565b8173ffffffffffffffffffffffffffffffffffffffff168373ffffffffffffffffffffffffffffffffffffffff161415611b59576040517f08c379a0000000000000000000000000000000000000000000000000000000008152600401611b509061371a565b60405180910390fd5b80600560008573ffffffffffffffffffffffffffffffffffffffff1673ffffffffffffffffffffffffffffffffffffffff16815260200190815260200160002060008473ffffffffffffffffffffffffffffffffffffffff1673ffffffffffffffffffffffffffffffffffffffff16815260200190815260200160002060006101000a81548160ff0219169083151502179055508173ffffffffffffffffffffffffffffffffffffffff168373ffffffffffffffffffffffffffffffffffffffff167f17307eab39ab6107e8899845ad3d59bd9653f200f220920489ca2b5937696c3183604051611c4a919061284c565b60405180910390a3505050565b611c6284848461154d565b611c6e8484848461207b565b611cad576040517f08c379a0000000000000000000000000000000000000000000000000000000008152600401611ca4906137ac565b60405180910390fd5b50505050565b606060405180602001604052806000815250905090565b60606000821415611d12576040518060400160405280600181526020017f30000000000000000000000000000000000000000000000000000000000000008152509050611e26565b600082905060005b60008214611d44578080611d2d906137cc565b915050600a82611d3d9190613844565b9150611d1a565b60008167ffffffffffffffff811115611d6057611d5f612d9b565b5b6040519080825280601f01601f191660200182016040528015611d925781602001600182028036833780820191505090505b5090505b60008514611e1f57600182611dab9190613644565b9150600a85611dba9190613875565b6030611dc69190613678565b60f81b818381518110611ddc57611ddb6138a6565b5b60200101907effffffffffffffffffffffffffffffffffffffffffffffffffffffffffffff1916908160001a905350600a85611e189190613844565b9450611d96565b8093505050505b919050565b60007f80ac58cd000000000000000000000000000000000000000000000000000000007bffffffffffffffffffffffffffffffffffffffffffffffffffffffff1916827bffffffffffffffffffffffffffffffffffffffffffffffffffffffff19161480611ef657507f5b5e139f000000000000000000000000000000000000000000000000000000007bffffffffffffffffffffffffffffffffffffffffffffffffffffffff1916827bffffffffffffffffffffffffffffffffffffffffffffffffffffffff1916145b80611f065750611f0582612212565b5b9050919050565b60008073ffffffffffffffffffffffffffffffffffffffff166002600084815260200190815260200160002060009054906101000a900473ffffffffffffffffffffffffffffffffffffffff1673ffffffffffffffffffffffffffffffffffffffff1614159050919050565b505050565b505050565b611f8d8282610e59565b61201c57611fb28173ffffffffffffffffffffffffffffffffffffffff16601461227c565b611fc08360001c602061227c565b604051602001611fd192919061396d565b6040516020818303038152906040526040517f08c379a00000000000000000000000000000000000000000000000000000000081526004016120139190612900565b60405180910390fd5b5050565b61202a83836124b8565b612037600084848461207b565b612076576040517f08c379a000000000000000000000000000000000000000000000000000000000815260040161206d906137ac565b60405180910390fd5b505050565b600061209c8473ffffffffffffffffffffffffffffffffffffffff16612692565b15612205578373ffffffffffffffffffffffffffffffffffffffff1663150b7a026120c56113f7565b8786866040518563ffffffff1660e01b81526004016120e794939291906139fc565b602060405180830381600087803b15801561210157600080fd5b505af192505050801561213257506040513d601f19601f8201168201806040525081019061212f9190613a5d565b60015b6121b5573d8060008114612162576040519150601f19603f3d011682016040523d82523d6000602084013e612167565b606091505b506000815114156121ad576040517f08c379a00000000000000000000000000000000000000000000000000000000081526004016121a4906137ac565b60405180910390fd5b805181602001fd5b63150b7a0260e01b7bffffffffffffffffffffffffffffffffffffffffffffffffffffffff1916817bffffffffffffffffffffffffffffffffffffffffffffffffffffffff19161491505061220a565b600190505b949350505050565b60007f01ffc9a7000000000000000000000000000000000000000000000000000000007bffffffffffffffffffffffffffffffffffffffffffffffffffffffff1916827bffffffffffffffffffffffffffffffffffffffffffffffffffffffff1916149050919050565b60606000600283600261228f9190613a8a565b6122999190613678565b67ffffffffffffffff8111156122b2576122b1612d9b565b5b6040519080825280601f01601f1916602001820160405280156122e45781602001600182028036833780820191505090505b5090507f30000000000000000000000000000000000000000000000000000000000000008160008151811061231c5761231b6138a6565b5b60200101907effffffffffffffffffffffffffffffffffffffffffffffffffffffffffffff1916908160001a9053507f7800000000000000000000000000000000000000000000000000000000000000816001815181106123805761237f6138a6565b5b60200101907effffffffffffffffffffffffffffffffffffffffffffffffffffffffffffff1916908160001a905350600060018460026123c09190613a8a565b6123ca9190613678565b90505b600181111561246a577f3031323334353637383961626364656600000000000000000000000000000000600f86166010811061240c5761240b6138a6565b5b1a60f81b828281518110612423576124226138a6565b5b60200101907effffffffffffffffffffffffffffffffffffffffffffffffffffffffffffff1916908160001a905350600485901c94508061246390613ae4565b90506123cd565b50600084146124ae576040517f08c379a00000000000000000000000000000000000000000000000000000000081526004016124a590613b5a565b60405180910390fd5b8091505092915050565b600073ffffffffffffffffffffffffffffffffffffffff168273ffffffffffffffffffffffffffffffffffffffff161415612528576040517f08c379a000000000000000000000000000000000000000000000000000000000815260040161251f90613bc6565b60405180910390fd5b61253181611f0d565b15612571576040517f08c379a000000000000000000000000000000000000000000000000000000000815260040161256890613c32565b60405180910390fd5b61257d60008383611f79565b6001600360008473ffffffffffffffffffffffffffffffffffffffff1673ffffffffffffffffffffffffffffffffffffffff16815260200190815260200160002060008282546125cd9190613678565b92505081905550816002600083815260200190815260200160002060006101000a81548173ffffffffffffffffffffffffffffffffffffffff021916908373ffffffffffffffffffffffffffffffffffffffff160217905550808273ffffffffffffffffffffffffffffffffffffffff16600073ffffffffffffffffffffffffffffffffffffffff167fddf252ad1be2c89b69c2b068fc378daa952ba7f163c4a11628f55a4df523b3ef60405160405180910390a461268e60008383611f7e565b5050565b6000808273ffffffffffffffffffffffffffffffffffffffff163b119050919050565b5080546126c19061302e565b6000825580601f106126d357506126f2565b601f0160209004906000526020600020908101906126f1919061277b565b5b50565b8280546127019061302e565b90600052602060002090601f016020900481019282612723576000855561276a565b82601f1061273c57803560ff191683800117855561276a565b8280016001018555821561276a579182015b8281111561276957823582559160200191906001019061274e565b5b509050612777919061277b565b5090565b5b8082111561279457600081600090555060010161277c565b5090565b6000604051905090565b600080fd5b600080fd5b60007fffffffff0000000000000000000000000000000000000000000000000000000082169050919050565b6127e1816127ac565b81146127ec57600080fd5b50565b6000813590506127fe816127d8565b92915050565b60006020828403121561281a576128196127a2565b5b6000612828848285016127ef565b91505092915050565b60008115159050919050565b61284681612831565b82525050565b6000602082019050612861600083018461283d565b92915050565b600081519050919050565b600082825260208201905092915050565b60005b838110156128a1578082015181840152602081019050612886565b838111156128b0576000848401525b50505050565b6000601f19601f8301169050919050565b60006128d282612867565b6128dc8185612872565b93506128ec818560208601612883565b6128f5816128b6565b840191505092915050565b6000602082019050818103600083015261291a81846128c7565b905092915050565b6000819050919050565b61293581612922565b811461294057600080fd5b50565b6000813590506129528161292c565b92915050565b60006020828403121561296e5761296d6127a2565b5b600061297c84828501612943565b91505092915050565b600073ffffffffffffffffffffffffffffffffffffffff82169050919050565b60006129b082612985565b9050919050565b6129c0816129a5565b82525050565b60006020820190506129db60008301846129b7565b92915050565b6129ea816129a5565b81146129f557600080fd5b50565b600081359050612a07816129e1565b92915050565b60008060408385031215612a2457612a236127a2565b5b6000612a32858286016129f8565b9250506020612a4385828601612943565b9150509250929050565b600080600060608486031215612a6657612a656127a2565b5b6000612a74868287016129f8565b9350506020612a85868287016129f8565b9250506040612a9686828701612943565b9150509250925092565b6000819050919050565b612ab381612aa0565b8114612abe57600080fd5b50565b600081359050612ad081612aaa565b92915050565b600060208284031215612aec57612aeb6127a2565b5b6000612afa84828501612ac1565b91505092915050565b612b0c81612aa0565b82525050565b6000602082019050612b276000830184612b03565b92915050565b60008060408385031215612b4457612b436127a2565b5b6000612b5285828601612ac1565b9250506020612b63858286016129f8565b9150509250929050565b600060208284031215612b8357612b826127a2565b5b6000612b91848285016129f8565b91505092915050565b600080fd5b600080fd5b600080fd5b60008083601f840112612bbf57612bbe612b9a565b5b8235905067ffffffffffffffff811115612bdc57612bdb612b9f565b5b602083019150836001820283011115612bf857612bf7612ba4565b5b9250929050565b60008060008060008060a08789031215612c1c57612c1b6127a2565b5b6000612c2a89828a016129f8565b9650506020612c3b89828a016129f8565b9550506040612c4c89828a01612943565b9450506060612c5d89828a01612ac1565b935050608087013567ffffffffffffffff811115612c7e57612c7d6127a7565b5b612c8a89828a01612ba9565b92509250509295509295509295565b612ca281612922565b82525050565b6000602082019050612cbd6000830184612c99565b92915050565b60008060008060808587031215612cdd57612cdc6127a2565b5b6000612ceb878288016129f8565b9450506020612cfc878288016129f8565b9350506040612d0d87828801612943565b9250506060612d1e87828801612ac1565b91505092959194509250565b612d3381612831565b8114612d3e57600080fd5b50565b600081359050612d5081612d2a565b92915050565b60008060408385031215612d6d57612d6c6127a2565b5b6000612d7b858286016129f8565b9250506020612d8c85828601612d41565b9150509250929050565b600080fd5b7f4e487b7100000000000000000000000000000000000000000000000000000000600052604160045260246000fd5b612dd3826128b6565b810181811067ffffffffffffffff82111715612df257612df1612d9b565b5b80604052505050565b6000612e05612798565b9050612e118282612dca565b919050565b600067ffffffffffffffff821115612e3157612e30612d9b565b5b612e3a826128b6565b9050602081019050919050565b82818337600083830152505050565b6000612e69612e6484612e16565b612dfb565b905082815260208101848484011115612e8557612e84612d96565b5b612e90848285612e47565b509392505050565b600082601f830112612ead57612eac612b9a565b5b8135612ebd848260208601612e56565b91505092915050565b60008060008060808587031215612ee057612edf6127a2565b5b6000612eee878288016129f8565b9450506020612eff878288016129f8565b9350506040612f1087828801612943565b925050606085013567ffffffffffffffff811115612f3157612f306127a7565b5b612f3d87828801612e98565b91505092959194509250565b600060e082019050612f5e600083018a6129b7565b612f6b60208301896129b7565b612f7860408301886129b7565b612f856060830187612c99565b612f926080830186612c99565b612f9f60a0830185612b03565b81810360c0830152612fb181846128c7565b905098975050505050505050565b60008060408385031215612fd657612fd56127a2565b5b6000612fe4858286016129f8565b9250506020612ff5858286016129f8565b9150509250929050565b7f4e487b7100000000000000000000000000000000000000000000000000000000600052602260045260246000fd5b6000600282049050600182168061304657607f821691505b6020821081141561305a57613059612fff565b5b50919050565b7f4552433732313a20617070726f76616c20746f2063757272656e74206f776e6560008201527f7200000000000000000000000000000000000000000000000000000000000000602082015250565b60006130bc602183612872565b91506130c782613060565b604082019050919050565b600060208201905081810360008301526130eb816130af565b9050919050565b7f4552433732313a20617070726f76652063616c6c6572206973206e6f7420746f60008201527f6b656e206f776e6572206e6f7220617070726f76656420666f7220616c6c0000602082015250565b600061314e603e83612872565b9150613159826130f2565b604082019050919050565b6000602082019050818103600083015261317d81613141565b9050919050565b7f4552433732313a2063616c6c6572206973206e6f7420746f6b656e206f776e6560008201527f72206e6f7220617070726f766564000000000000000000000000000000000000602082015250565b60006131e0602e83612872565b91506131eb82613184565b604082019050919050565b6000602082019050818103600083015261320f816131d3565b9050919050565b7f416363657373436f6e74726f6c3a2063616e206f6e6c792072656e6f756e636560008201527f20726f6c657320666f722073656c660000000000000000000000000000000000602082015250565b6000613272602f83612872565b915061327d82613216565b604082019050919050565b600060208201905081810360008301526132a181613265565b9050919050565b60006132b48385612872565b93506132c1838584612e47565b6132ca836128b6565b840190509392505050565b60006080820190506132ea60008301886129b7565b6132f76020830187612c99565b6133046040830186612c99565b81810360608301526133178184866132a8565b90509695505050505050565b7f4552433732313a20696e76616c696420746f6b656e2049440000000000000000600082015250565b6000613359601883612872565b915061336482613323565b602082019050919050565b600060208201905081810360008301526133888161334c565b9050919050565b7f4552433732313a2061646472657373207a65726f206973206e6f74206120766160008201527f6c6964206f776e65720000000000000000000000000000000000000000000000602082015250565b60006133eb602983612872565b91506133f68261338f565b604082019050919050565b6000602082019050818103600083015261341a816133de565b9050919050565b50565b6000613431600083612872565b915061343c82613421565b600082019050919050565b600060808201905061345c60008301866129b7565b6134696020830185612c99565b6134766040830184612c99565b818103606083015261348781613424565b9050949350505050565b600081905092915050565b60006134a782612867565b6134b18185613491565b93506134c1818560208601612883565b80840191505092915050565b60006134d9828561349c565b91506134e5828461349c565b91508190509392505050565b7f4552433732313a207472616e736665722066726f6d20696e636f72726563742060008201527f6f776e6572000000000000000000000000000000000000000000000000000000602082015250565b600061354d602583612872565b9150613558826134f1565b604082019050919050565b6000602082019050818103600083015261357c81613540565b9050919050565b7f4552433732313a207472616e7366657220746f20746865207a65726f2061646460008201527f7265737300000000000000000000000000000000000000000000000000000000602082015250565b60006135df602483612872565b91506135ea82613583565b604082019050919050565b6000602082019050818103600083015261360e816135d2565b9050919050565b7f4e487b7100000000000000000000000000000000000000000000000000000000600052601160045260246000fd5b600061364f82612922565b915061365a83612922565b92508282101561366d5761366c613615565b5b828203905092915050565b600061368382612922565b915061368e83612922565b9250827fffffffffffffffffffffffffffffffffffffffffffffffffffffffffffffffff038211156136c3576136c2613615565b5b828201905092915050565b7f4552433732313a20617070726f766520746f2063616c6c657200000000000000600082015250565b6000613704601983612872565b915061370f826136ce565b602082019050919050565b60006020820190508181036000830152613733816136f7565b9050919050565b7f4552433732313a207472616e7366657220746f206e6f6e20455243373231526560008201527f63656976657220696d706c656d656e7465720000000000000000000000000000602082015250565b6000613796603283612872565b91506137a18261373a565b604082019050919050565b600060208201905081810360008301526137c581613789565b9050919050565b60006137d782612922565b91507fffffffffffffffffffffffffffffffffffffffffffffffffffffffffffffffff82141561380a57613809613615565b5b600182019050919050565b7f4e487b7100000000000000000000000000000000000000000000000000000000600052601260045260246000fd5b600061384f82612922565b915061385a83612922565b92508261386a57613869613815565b5b828204905092915050565b600061388082612922565b915061388b83612922565b92508261389b5761389a613815565b5b828206905092915050565b7f4e487b7100000000000000000000000000000000000000000000000000000000600052603260045260246000fd5b7f416363657373436f6e74726f6c3a206163636f756e7420000000000000000000600082015250565b600061390b601783613491565b9150613916826138d5565b601782019050919050565b7f206973206d697373696e6720726f6c6520000000000000000000000000000000600082015250565b6000613957601183613491565b915061396282613921565b601182019050919050565b6000613978826138fe565b9150613984828561349c565b915061398f8261394a565b915061399b828461349c565b91508190509392505050565b600081519050919050565b600082825260208201905092915050565b60006139ce826139a7565b6139d881856139b2565b93506139e8818560208601612883565b6139f1816128b6565b840191505092915050565b6000608082019050613a1160008301876129b7565b613a1e60208301866129b7565b613a2b6040830185612c99565b8181036060830152613a3d81846139c3565b905095945050505050565b600081519050613a57816127d8565b92915050565b600060208284031215613a7357613a726127a2565b5b6000613a8184828501613a48565b91505092915050565b6000613a9582612922565b9150613aa083612922565b9250817fffffffffffffffffffffffffffffffffffffffffffffffffffffffffffffffff0483118215151615613ad957613ad8613615565b5b828202905092915050565b6000613aef82612922565b91506000821415613b0357613b02613615565b5b600182039050919050565b7f537472696e67733a20686578206c656e67746820696e73756666696369656e74600082015250565b6000613b44602083612872565b9150613b4f82613b0e565b602082019050919050565b60006020820190508181036000830152613b7381613b37565b9050919050565b7f4552433732313a206d696e7420746f20746865207a65726f2061646472657373600082015250565b6000613bb0602083612872565b9150613bbb82613b7a565b602082019050919050565b60006020820190508181036000830152613bdf81613ba3565b9050919050565b7f4552433732313a20746f6b656e20616c7265616479206d696e74656400000000600082015250565b6000613c1c601c83612872565b9150613c2782613be6565b602082019050919050565b60006020820190508181036000830152613c4b81613c0f565b905091905056fea2646970667358221220d66154bbcc31aba63a3b752fef93a39f2541730fbffc42ff02c6d0ea3ec0a6ae64736f6c63430008090033",
  "linkReferences": {},
  "deployedLinkReferences": {}
}