{
  "_format": "hh-sol-artifact-1",
  "contractName": "CampaignNFT",
  "sourceName": "contracts/CampaignNFT.sol",
  "abi": [
    {
      "inputs": [
        {
          "internalType": "address",
          "name": "_registry",
          "type": "address"
        }
      ],
      "stateMutability": "nonpayable",
      "type": "constructor"
    },
    {
      "anonymous": false,
      "inputs": [
        {
          "indexed": true,
          "internalType": "address",
          "name": "owner",
          "type": "address"
        },
        {
          "indexed": true,
          "internalType": "address",
          "name": "approved",
          "type": "address"
        },
        {
          "indexed": true,
          "internalType": "uint256",
          "name": "tokenId",
          "type": "uint256"
        }
      ],
      "name": "Approval",
      "type": "event"
    },
    {
      "anonymous": false,
      "inputs": [
        {
          "indexed": true,
          "internalType": "address",
          "name": "owner",
          "type": "address"
        },
        {
          "indexed": true,
          "internalType": "address",
          "name": "operator",
          "type": "address"
        },
        {
          "indexed": false,
          "internalType": "bool",
          "name": "approved",
          "type": "bool"
        }
      ],
      "name": "ApprovalForAll",
      "type": "event"
    },
    {
      "anonymous": false,
      "inputs": [
        {
          "indexed": true,
          "internalType": "bytes32",
          "name": "role",
          "type": "bytes32"
        },
        {
          "indexed": true,
          "internalType": "bytes32",
          "name": "previousAdminRole",
          "type": "bytes32"
        },
        {
          "indexed": true,
          "internalType": "bytes32",
          "name": "newAdminRole",
          "type": "bytes32"
        }
      ],
      "name": "RoleAdminChanged",
      "type": "event"
    },
    {
      "anonymous": false,
      "inputs": [
        {
          "indexed": true,
          "internalType": "bytes32",
          "name": "role",
          "type": "bytes32"
        },
        {
          "indexed": true,
          "internalType": "address",
          "name": "account",
          "type": "address"
        },
        {
          "indexed": true,
          "internalType": "address",
          "name": "sender",
          "type": "address"
        }
      ],
      "name": "RoleGranted",
      "type": "event"
    },
    {
      "anonymous": false,
      "inputs": [
        {
          "indexed": true,
          "internalType": "bytes32",
          "name": "role",
          "type": "bytes32"
        },
        {
          "indexed": true,
          "internalType": "address",
          "name": "account",
          "type": "address"
        },
        {
          "indexed": true,
          "internalType": "address",
          "name": "sender",
          "type": "address"
        }
      ],
      "name": "RoleRevoked",
      "type": "event"
    },
    {
      "anonymous": false,
      "inputs": [
        {
          "indexed": true,
          "internalType": "address",
          "name": "from",
          "type": "address"
        },
        {
          "indexed": true,
          "internalType": "address",
          "name": "to",
          "type": "address"
        },
        {
          "indexed": true,
          "internalType": "uint256",
          "name": "tokenId",
          "type": "uint256"
        }
      ],
      "name": "Transfer",
      "type": "event"
    },
    {
      "anonymous": false,
      "inputs": [
        {
          "indexed": true,
          "internalType": "address",
          "name": "backer",
          "type": "address"
        },
        {
          "indexed": true,
          "internalType": "address",
          "name": "campaignInfo",
          "type": "address"
        },
        {
          "indexed": false,
          "internalType": "address",
          "name": "token",
          "type": "address"
        },
        {
          "indexed": true,
          "internalType": "bytes32",
          "name": "platform",
          "type": "bytes32"
        },
        {
          "indexed": false,
          "internalType": "uint256",
          "name": "pledgedAmount",
          "type": "uint256"
        },
        {
          "indexed": false,
          "internalType": "uint256",
          "name": "timestamp",
          "type": "uint256"
        },
        {
          "indexed": false,
          "internalType": "uint256",
          "name": "tokenId",
          "type": "uint256"
        },
        {
          "indexed": false,
          "internalType": "bytes32",
          "name": "reward",
          "type": "bytes32"
        }
      ],
      "name": "pledgeReceipt",
      "type": "event"
    },
    {
      "inputs": [],
      "name": "DEFAULT_ADMIN_ROLE",
      "outputs": [
        {
          "internalType": "bytes32",
          "name": "",
          "type": "bytes32"
        }
      ],
      "stateMutability": "view",
      "type": "function"
    },
    {
      "inputs": [],
      "name": "MINTER_ROLE",
      "outputs": [
        {
          "internalType": "bytes32",
          "name": "",
          "type": "bytes32"
        }
      ],
      "stateMutability": "view",
      "type": "function"
    },
    {
      "inputs": [
        {
          "internalType": "address",
          "name": "to",
          "type": "address"
        },
        {
          "internalType": "uint256",
          "name": "tokenId",
          "type": "uint256"
        }
      ],
      "name": "approve",
      "outputs": [],
      "stateMutability": "nonpayable",
      "type": "function"
    },
    {
      "inputs": [
        {
          "internalType": "address",
          "name": "owner",
          "type": "address"
        }
      ],
      "name": "balanceOf",
      "outputs": [
        {
          "internalType": "uint256",
          "name": "",
          "type": "uint256"
        }
      ],
      "stateMutability": "view",
      "type": "function"
    },
    {
      "inputs": [
        {
          "internalType": "uint256",
          "name": "tokenId",
          "type": "uint256"
        }
      ],
      "name": "burn",
      "outputs": [],
      "stateMutability": "nonpayable",
      "type": "function"
    },
    {
      "inputs": [
        {
          "internalType": "uint256",
          "name": "tokenId",
          "type": "uint256"
        }
      ],
      "name": "getApproved",
      "outputs": [
        {
          "internalType": "address",
          "name": "",
          "type": "address"
        }
      ],
      "stateMutability": "view",
      "type": "function"
    },
    {
      "inputs": [
        {
          "internalType": "uint256",
          "name": "tokenId",
          "type": "uint256"
        }
      ],
      "name": "getPledgeReceipt",
      "outputs": [
        {
          "internalType": "address",
          "name": "campaignInfo",
          "type": "address"
        },
        {
          "internalType": "address",
          "name": "backer",
          "type": "address"
        },
        {
          "internalType": "address",
          "name": "token",
          "type": "address"
        },
        {
          "internalType": "uint256",
          "name": "pledgedAmount",
          "type": "uint256"
        },
        {
          "internalType": "uint256",
          "name": "timestamp",
          "type": "uint256"
        },
        {
          "internalType": "bytes32",
          "name": "platformId",
          "type": "bytes32"
        },
        {
          "internalType": "bytes32",
          "name": "reward",
          "type": "bytes32"
        }
      ],
      "stateMutability": "view",
      "type": "function"
    },
    {
      "inputs": [
        {
          "internalType": "bytes32",
          "name": "role",
          "type": "bytes32"
        }
      ],
      "name": "getRoleAdmin",
      "outputs": [
        {
          "internalType": "bytes32",
          "name": "",
          "type": "bytes32"
        }
      ],
      "stateMutability": "view",
      "type": "function"
    },
    {
      "inputs": [
        {
          "internalType": "string",
          "name": "txId",
          "type": "string"
        }
      ],
      "name": "getTokenId",
      "outputs": [
        {
          "internalType": "uint256",
          "name": "tokenId",
          "type": "uint256"
        }
      ],
      "stateMutability": "view",
      "type": "function"
    },
    {
      "inputs": [
        {
          "internalType": "bytes32",
          "name": "role",
          "type": "bytes32"
        },
        {
          "internalType": "address",
          "name": "account",
          "type": "address"
        }
      ],
      "name": "grantRole",
      "outputs": [],
      "stateMutability": "nonpayable",
      "type": "function"
    },
    {
      "inputs": [
        {
          "internalType": "address",
          "name": "_campaignInfo",
          "type": "address"
        }
      ],
      "name": "grantRole",
      "outputs": [],
      "stateMutability": "nonpayable",
      "type": "function"
    },
    {
      "inputs": [
        {
          "internalType": "bytes32",
          "name": "role",
          "type": "bytes32"
        },
        {
          "internalType": "address",
          "name": "account",
          "type": "address"
        }
      ],
      "name": "hasRole",
      "outputs": [
        {
          "internalType": "bool",
          "name": "",
          "type": "bool"
        }
      ],
      "stateMutability": "view",
      "type": "function"
    },
    {
      "inputs": [
        {
          "internalType": "address",
          "name": "owner",
          "type": "address"
        },
        {
          "internalType": "address",
          "name": "operator",
          "type": "address"
        }
      ],
      "name": "isApprovedForAll",
      "outputs": [
        {
          "internalType": "bool",
          "name": "",
          "type": "bool"
        }
      ],
      "stateMutability": "view",
      "type": "function"
    },
    {
      "inputs": [],
      "name": "name",
      "outputs": [
        {
          "internalType": "string",
          "name": "",
          "type": "string"
        }
      ],
      "stateMutability": "view",
      "type": "function"
    },
    {
      "inputs": [
        {
          "internalType": "uint256",
          "name": "tokenId",
          "type": "uint256"
        }
      ],
      "name": "ownerOf",
      "outputs": [
        {
          "internalType": "address",
          "name": "",
          "type": "address"
        }
      ],
      "stateMutability": "view",
      "type": "function"
    },
    {
      "inputs": [
        {
          "internalType": "bytes32",
          "name": "role",
          "type": "bytes32"
        },
        {
          "internalType": "address",
          "name": "account",
          "type": "address"
        }
      ],
      "name": "renounceRole",
      "outputs": [],
      "stateMutability": "nonpayable",
      "type": "function"
    },
    {
      "inputs": [
        {
          "internalType": "bytes32",
          "name": "role",
          "type": "bytes32"
        },
        {
          "internalType": "address",
          "name": "account",
          "type": "address"
        }
      ],
      "name": "revokeRole",
      "outputs": [],
      "stateMutability": "nonpayable",
      "type": "function"
    },
    {
      "inputs": [
        {
          "internalType": "address",
          "name": "backer",
          "type": "address"
        },
        {
          "internalType": "address",
          "name": "token",
          "type": "address"
        },
        {
          "internalType": "uint256",
          "name": "pledgedAmount",
          "type": "uint256"
        },
        {
          "internalType": "bytes32",
          "name": "platformId",
          "type": "bytes32"
        }
      ],
      "name": "safeMint",
      "outputs": [
        {
          "internalType": "uint256",
          "name": "tokenId",
          "type": "uint256"
        }
      ],
      "stateMutability": "nonpayable",
      "type": "function"
    },
    {
      "inputs": [
        {
          "internalType": "address",
          "name": "backer",
          "type": "address"
        },
        {
          "internalType": "address",
          "name": "token",
          "type": "address"
        },
        {
          "internalType": "uint256",
          "name": "pledgedAmount",
          "type": "uint256"
        },
        {
          "internalType": "bytes32",
          "name": "platformId",
          "type": "bytes32"
        },
        {
          "internalType": "bytes32",
          "name": "reward",
          "type": "bytes32"
        }
      ],
      "name": "safeMint",
      "outputs": [
        {
          "internalType": "uint256",
          "name": "tokenId",
          "type": "uint256"
        }
      ],
      "stateMutability": "nonpayable",
      "type": "function"
    },
    {
      "inputs": [
        {
          "internalType": "address",
          "name": "from",
          "type": "address"
        },
        {
          "internalType": "address",
          "name": "to",
          "type": "address"
        },
        {
          "internalType": "uint256",
          "name": "tokenId",
          "type": "uint256"
        }
      ],
      "name": "safeTransferFrom",
      "outputs": [],
      "stateMutability": "nonpayable",
      "type": "function"
    },
    {
      "inputs": [
        {
          "internalType": "address",
          "name": "from",
          "type": "address"
        },
        {
          "internalType": "address",
          "name": "to",
          "type": "address"
        },
        {
          "internalType": "uint256",
          "name": "tokenId",
          "type": "uint256"
        },
        {
          "internalType": "bytes",
          "name": "data",
          "type": "bytes"
        }
      ],
      "name": "safeTransferFrom",
      "outputs": [],
      "stateMutability": "nonpayable",
      "type": "function"
    },
    {
      "inputs": [
        {
          "internalType": "address",
          "name": "operator",
          "type": "address"
        },
        {
          "internalType": "bool",
          "name": "approved",
          "type": "bool"
        }
      ],
      "name": "setApprovalForAll",
      "outputs": [],
      "stateMutability": "nonpayable",
      "type": "function"
    },
    {
      "inputs": [
        {
          "internalType": "string",
          "name": "txId",
          "type": "string"
        },
        {
          "internalType": "uint256",
          "name": "tokenId",
          "type": "uint256"
        }
      ],
      "name": "setTokenId",
      "outputs": [],
      "stateMutability": "nonpayable",
      "type": "function"
    },
    {
      "inputs": [
        {
          "internalType": "bytes4",
          "name": "interfaceId",
          "type": "bytes4"
        }
      ],
      "name": "supportsInterface",
      "outputs": [
        {
          "internalType": "bool",
          "name": "",
          "type": "bool"
        }
      ],
      "stateMutability": "view",
      "type": "function"
    },
    {
      "inputs": [],
      "name": "symbol",
      "outputs": [
        {
          "internalType": "string",
          "name": "",
          "type": "string"
        }
      ],
      "stateMutability": "view",
      "type": "function"
    },
    {
      "inputs": [
        {
          "internalType": "uint256",
          "name": "tokenId",
          "type": "uint256"
        }
      ],
      "name": "tokenURI",
      "outputs": [
        {
          "internalType": "string",
          "name": "",
          "type": "string"
        }
      ],
      "stateMutability": "view",
      "type": "function"
    },
    {
      "inputs": [
        {
          "internalType": "address",
          "name": "from",
          "type": "address"
        },
        {
          "internalType": "address",
          "name": "to",
          "type": "address"
        },
        {
          "internalType": "uint256",
          "name": "tokenId",
          "type": "uint256"
        }
      ],
      "name": "transferFrom",
      "outputs": [],
      "stateMutability": "nonpayable",
      "type": "function"
    },
    {
      "inputs": [
        {
          "internalType": "string",
          "name": "",
          "type": "string"
        }
      ],
      "name": "txIdToTokenId",
      "outputs": [
        {
          "internalType": "uint256",
          "name": "",
          "type": "uint256"
        }
      ],
      "stateMutability": "view",
      "type": "function"
    }
  ],
  "bytecode": "0x60806040523480156200001157600080fd5b506040516200420c3803806200420c833981810160405281019062000037919062000372565b6040518060400160405280600b81526020017f43616d706169676e4e46540000000000000000000000000000000000000000008152506040518060400160405280600481526020017f434e4654000000000000000000000000000000000000000000000000000000008152508160009080519060200190620000bb92919062000258565b508060019080519060200190620000d492919062000258565b505050620000ec6000801b82620000f360201b60201c565b5062000409565b620001058282620001e560201b60201c565b620001e15760016006600084815260200190815260200160002060000160008373ffffffffffffffffffffffffffffffffffffffff1673ffffffffffffffffffffffffffffffffffffffff16815260200190815260200160002060006101000a81548160ff021916908315150217905550620001866200025060201b60201c565b73ffffffffffffffffffffffffffffffffffffffff168173ffffffffffffffffffffffffffffffffffffffff16837f2f8788117e7eff1d82e926ec794901d17c78024a50270940304540a733656f0d60405160405180910390a45b5050565b60006006600084815260200190815260200160002060000160008373ffffffffffffffffffffffffffffffffffffffff1673ffffffffffffffffffffffffffffffffffffffff16815260200190815260200160002060009054906101000a900460ff16905092915050565b600033905090565b8280546200026690620003d3565b90600052602060002090601f0160209004810192826200028a5760008555620002d6565b82601f10620002a557805160ff1916838001178555620002d6565b82800160010185558215620002d6579182015b82811115620002d5578251825591602001919060010190620002b8565b5b509050620002e59190620002e9565b5090565b5b8082111562000304576000816000905550600101620002ea565b5090565b600080fd5b600073ffffffffffffffffffffffffffffffffffffffff82169050919050565b60006200033a826200030d565b9050919050565b6200034c816200032d565b81146200035857600080fd5b50565b6000815190506200036c8162000341565b92915050565b6000602082840312156200038b576200038a62000308565b5b60006200039b848285016200035b565b91505092915050565b7f4e487b7100000000000000000000000000000000000000000000000000000000600052602260045260246000fd5b60006002820490506001821680620003ec57607f821691505b60208210811415620004035762000402620003a4565b5b50919050565b613df380620004196000396000f3fe608060405234801561001057600080fd5b50600436106101c45760003560e01c806370a08231116100f9578063c20c42f811610097578063d547741f11610071578063d547741f1461053f578063e985e9c51461055b578063e9e36f9a1461058b578063fcbc3dc1146105bb576101c4565b8063c20c42f8146104bb578063c87b56dd146104f1578063d539139314610521576101c4565b806395d89b41116100d357806395d89b4114610447578063a217fddf14610465578063a22cb46514610483578063b88d4fde1461049f576101c4565b806370a08231146103b75780638e48312f146103e757806391d1485414610417576101c4565b8063248a9ca3116101665780633897768611610140578063389776861461033357806342842e0e1461034f57806342966c681461036b5780636352211e14610387576101c4565b8063248a9ca3146102cb5780632f2ff15d146102fb57806336568abe14610317576101c4565b8063081812fc116101a2578063081812fc14610233578063095ea7b3146102635780631e7663bc1461027f57806323b872dd146102af576101c4565b806301a4163e146101c957806301ffc9a7146101e557806306fdde0314610215575b600080fd5b6101e360048036038101906101de9190612843565b6105eb565b005b6101ff60048036038101906101fa91906128fb565b610615565b60405161020c9190612943565b60405180910390f35b61021d610627565b60405161022a91906129f7565b60405180910390f35b61024d60048036038101906102489190612a19565b6106b9565b60405161025a9190612a87565b60405180910390f35b61027d60048036038101906102789190612ace565b6106ff565b005b61029960048036038101906102949190612b0e565b610817565b6040516102a69190612b6a565b60405180910390f35b6102c960048036038101906102c49190612b85565b610842565b005b6102e560048036038101906102e09190612c0e565b6108a2565b6040516102f29190612c4a565b60405180910390f35b61031560048036038101906103109190612c65565b6108c2565b005b610331600480360381019061032c9190612c65565b6108e3565b005b61034d60048036038101906103489190612ca5565b610966565b005b61036960048036038101906103649190612b85565b6109a1565b005b61038560048036038101906103809190612a19565b6109c1565b005b6103a1600480360381019061039c9190612a19565b610aa3565b6040516103ae9190612a87565b60405180910390f35b6103d160048036038101906103cc9190612ca5565b610b55565b6040516103de9190612b6a565b60405180910390f35b61040160048036038101906103fc9190612cd2565b610c0d565b60405161040e9190612b6a565b60405180910390f35b610431600480360381019061042c9190612c65565b610dca565b60405161043e9190612943565b60405180910390f35b61044f610e35565b60405161045c91906129f7565b60405180910390f35b61046d610ec7565b60405161047a9190612c4a565b60405180910390f35b61049d60048036038101906104989190612d65565b610ece565b005b6104b960048036038101906104b49190612ed5565b610ee4565b005b6104d560048036038101906104d09190612a19565b610f46565b6040516104e89796959493929190612f58565b60405180910390f35b61050b60048036038101906105069190612a19565b6110d9565b60405161051891906129f7565b60405180910390f35b610529611141565b6040516105369190612c4a565b60405180910390f35b61055960048036038101906105549190612c65565b611165565b005b61057560048036038101906105709190612fc7565b611186565b6040516105829190612943565b60405180910390f35b6105a560048036038101906105a09190613007565b61121a565b6040516105b29190612b6a565b60405180910390f35b6105d560048036038101906105d09190613123565b6113e3565b6040516105e29190612b6a565b60405180910390f35b80600884846040516105fe92919061319c565b908152602001604051809103902081905550505050565b600061062082611411565b9050919050565b606060008054610636906131e4565b80601f0160208091040260200160405190810160405280929190818152602001828054610662906131e4565b80156106af5780601f10610684576101008083540402835291602001916106af565b820191906000526020600020905b81548152906001019060200180831161069257829003601f168201915b5050505050905090565b60006106c48261148b565b6004600083815260200190815260200160002060009054906101000a900473ffffffffffffffffffffffffffffffffffffffff169050919050565b600061070a82610aa3565b90508073ffffffffffffffffffffffffffffffffffffffff168373ffffffffffffffffffffffffffffffffffffffff16141561077b576040517f08c379a000000000000000000000000000000000000000000000000000000000815260040161077290613288565b60405180910390fd5b8073ffffffffffffffffffffffffffffffffffffffff1661079a6114d6565b73ffffffffffffffffffffffffffffffffffffffff1614806107c957506107c8816107c36114d6565b611186565b5b610808576040517f08c379a00000000000000000000000000000000000000000000000000000000081526004016107ff9061331a565b60405180910390fd5b61081283836114de565b505050565b60006008838360405161082b92919061319c565b908152602001604051809103902054905092915050565b61085361084d6114d6565b82611597565b610892576040517f08c379a0000000000000000000000000000000000000000000000000000000008152600401610889906133ac565b60405180910390fd5b61089d83838361162c565b505050565b600060066000838152602001908152602001600020600101549050919050565b6108cb826108a2565b6108d481611893565b6108de83836118a7565b505050565b6108eb6114d6565b73ffffffffffffffffffffffffffffffffffffffff168173ffffffffffffffffffffffffffffffffffffffff1614610958576040517f08c379a000000000000000000000000000000000000000000000000000000000815260040161094f9061343e565b60405180910390fd5b6109628282611988565b5050565b6000801b61097381611893565b61099d7f9f2df0fed2c77648de5860a4cc508cd0818c85b8b8a1ab4ceeef8d981c8956a6836118a7565b5050565b6109bc83838360405180602001604052806000815250610ee4565b505050565b7f9f2df0fed2c77648de5860a4cc508cd0818c85b8b8a1ab4ceeef8d981c8956a66109eb81611893565b6109f482611a6a565b60076000838152602001908152602001600020600080820160006101000a81549073ffffffffffffffffffffffffffffffffffffffff02191690556001820160006101000a81549073ffffffffffffffffffffffffffffffffffffffff02191690556002820160006101000a81549073ffffffffffffffffffffffffffffffffffffffff0219169055600382016000905560048201600090556005820160009055600682016000905550505050565b6000806002600084815260200190815260200160002060009054906101000a900473ffffffffffffffffffffffffffffffffffffffff169050600073ffffffffffffffffffffffffffffffffffffffff168173ffffffffffffffffffffffffffffffffffffffff161415610b4c576040517f08c379a0000000000000000000000000000000000000000000000000000000008152600401610b43906134aa565b60405180910390fd5b80915050919050565b60008073ffffffffffffffffffffffffffffffffffffffff168273ffffffffffffffffffffffffffffffffffffffff161415610bc6576040517f08c379a0000000000000000000000000000000000000000000000000000000008152600401610bbd9061353c565b60405180910390fd5b600360008373ffffffffffffffffffffffffffffffffffffffff1673ffffffffffffffffffffffffffffffffffffffff168152602001908152602001600020549050919050565b60007f9f2df0fed2c77648de5860a4cc508cd0818c85b8b8a1ab4ceeef8d981c8956a6610c3981611893565b610c436009611b87565b9150610c4f6009611b95565b610c598683611bab565b6000600760008481526020019081526020016000209050338160000160006101000a81548173ffffffffffffffffffffffffffffffffffffffff021916908373ffffffffffffffffffffffffffffffffffffffff160217905550868160010160006101000a81548173ffffffffffffffffffffffffffffffffffffffff021916908373ffffffffffffffffffffffffffffffffffffffff160217905550858160020160006101000a81548173ffffffffffffffffffffffffffffffffffffffff021916908373ffffffffffffffffffffffffffffffffffffffff160217905550848160030181905550428160040181905550838160050181905550833373ffffffffffffffffffffffffffffffffffffffff168873ffffffffffffffffffffffffffffffffffffffff167f6bae804aa8151f322efaad9e016c0575b4bc0f7278dd98174f9519d52d0911ab89894289604051610db89493929190613563565b60405180910390a45050949350505050565b60006006600084815260200190815260200160002060000160008373ffffffffffffffffffffffffffffffffffffffff1673ffffffffffffffffffffffffffffffffffffffff16815260200190815260200160002060009054906101000a900460ff16905092915050565b606060018054610e44906131e4565b80601f0160208091040260200160405190810160405280929190818152602001828054610e70906131e4565b8015610ebd5780601f10610e9257610100808354040283529160200191610ebd565b820191906000526020600020905b815481529060010190602001808311610ea057829003601f168201915b5050505050905090565b6000801b81565b610ee0610ed96114d6565b8383611bc9565b5050565b610ef5610eef6114d6565b83611597565b610f34576040517f08c379a0000000000000000000000000000000000000000000000000000000008152600401610f2b906133ac565b60405180910390fd5b610f4084848484611d36565b50505050565b600080600080600080600080600760008a81526020019081526020016000206040518060e00160405290816000820160009054906101000a900473ffffffffffffffffffffffffffffffffffffffff1673ffffffffffffffffffffffffffffffffffffffff1673ffffffffffffffffffffffffffffffffffffffff1681526020016001820160009054906101000a900473ffffffffffffffffffffffffffffffffffffffff1673ffffffffffffffffffffffffffffffffffffffff1673ffffffffffffffffffffffffffffffffffffffff1681526020016002820160009054906101000a900473ffffffffffffffffffffffffffffffffffffffff1673ffffffffffffffffffffffffffffffffffffffff1673ffffffffffffffffffffffffffffffffffffffff168152602001600382015481526020016004820154815260200160058201548152602001600682015481525050905080600001519750806020015196508060600151945080604001519550806080015193508060a0015192508060c00151915050919395979092949650565b60606110e48261148b565b60006110ee611d92565b9050600081511161110e5760405180602001604052806000815250611139565b8061111884611da9565b6040516020016111299291906135e5565b6040516020818303038152906040525b915050919050565b7f9f2df0fed2c77648de5860a4cc508cd0818c85b8b8a1ab4ceeef8d981c8956a681565b61116e826108a2565b61117781611893565b6111818383611988565b505050565b6000600560008473ffffffffffffffffffffffffffffffffffffffff1673ffffffffffffffffffffffffffffffffffffffff16815260200190815260200160002060008373ffffffffffffffffffffffffffffffffffffffff1673ffffffffffffffffffffffffffffffffffffffff16815260200190815260200160002060009054906101000a900460ff16905092915050565b60007f9f2df0fed2c77648de5860a4cc508cd0818c85b8b8a1ab4ceeef8d981c8956a661124681611893565b6112506009611b87565b915061125c6009611b95565b6112668783611bab565b6000600760008481526020019081526020016000209050338160000160006101000a81548173ffffffffffffffffffffffffffffffffffffffff021916908373ffffffffffffffffffffffffffffffffffffffff160217905550878160010160006101000a81548173ffffffffffffffffffffffffffffffffffffffff021916908373ffffffffffffffffffffffffffffffffffffffff160217905550868160020160006101000a81548173ffffffffffffffffffffffffffffffffffffffff021916908373ffffffffffffffffffffffffffffffffffffffff160217905550858160030181905550428160040181905550848160050181905550838160060181905550843373ffffffffffffffffffffffffffffffffffffffff168973ffffffffffffffffffffffffffffffffffffffff167f6bae804aa8151f322efaad9e016c0575b4bc0f7278dd98174f9519d52d0911ab8a8a42898b6040516113d0959493929190613609565b60405180910390a4505095945050505050565b6008818051602081018201805184825260208301602085012081835280955050505050506000915090505481565b60007f7965db0b000000000000000000000000000000000000000000000000000000007bffffffffffffffffffffffffffffffffffffffffffffffffffffffff1916827bffffffffffffffffffffffffffffffffffffffffffffffffffffffff19161480611484575061148382611f0a565b5b9050919050565b61149481611fec565b6114d3576040517f08c379a00000000000000000000000000000000000000000000000000000000081526004016114ca906134aa565b60405180910390fd5b50565b600033905090565b816004600083815260200190815260200160002060006101000a81548173ffffffffffffffffffffffffffffffffffffffff021916908373ffffffffffffffffffffffffffffffffffffffff160217905550808273ffffffffffffffffffffffffffffffffffffffff1661155183610aa3565b73ffffffffffffffffffffffffffffffffffffffff167f8c5be1e5ebec7d5bd14f71427d1e84f3dd0314c0f7b2291e5b200ac8c7c3b92560405160405180910390a45050565b6000806115a383610aa3565b90508073ffffffffffffffffffffffffffffffffffffffff168473ffffffffffffffffffffffffffffffffffffffff1614806115e557506115e48185611186565b5b8061162357508373ffffffffffffffffffffffffffffffffffffffff1661160b846106b9565b73ffffffffffffffffffffffffffffffffffffffff16145b91505092915050565b8273ffffffffffffffffffffffffffffffffffffffff1661164c82610aa3565b73ffffffffffffffffffffffffffffffffffffffff16146116a2576040517f08c379a0000000000000000000000000000000000000000000000000000000008152600401611699906136ce565b60405180910390fd5b600073ffffffffffffffffffffffffffffffffffffffff168273ffffffffffffffffffffffffffffffffffffffff161415611712576040517f08c379a000000000000000000000000000000000000000000000000000000000815260040161170990613760565b60405180910390fd5b61171d838383612058565b6117286000826114de565b6001600360008573ffffffffffffffffffffffffffffffffffffffff1673ffffffffffffffffffffffffffffffffffffffff168152602001908152602001600020600082825461177891906137af565b925050819055506001600360008473ffffffffffffffffffffffffffffffffffffffff1673ffffffffffffffffffffffffffffffffffffffff16815260200190815260200160002060008282546117cf91906137e3565b92505081905550816002600083815260200190815260200160002060006101000a81548173ffffffffffffffffffffffffffffffffffffffff021916908373ffffffffffffffffffffffffffffffffffffffff160217905550808273ffffffffffffffffffffffffffffffffffffffff168473ffffffffffffffffffffffffffffffffffffffff167fddf252ad1be2c89b69c2b068fc378daa952ba7f163c4a11628f55a4df523b3ef60405160405180910390a461188e83838361205d565b505050565b6118a48161189f6114d6565b612062565b50565b6118b18282610dca565b6119845760016006600084815260200190815260200160002060000160008373ffffffffffffffffffffffffffffffffffffffff1673ffffffffffffffffffffffffffffffffffffffff16815260200190815260200160002060006101000a81548160ff0219169083151502179055506119296114d6565b73ffffffffffffffffffffffffffffffffffffffff168173ffffffffffffffffffffffffffffffffffffffff16837f2f8788117e7eff1d82e926ec794901d17c78024a50270940304540a733656f0d60405160405180910390a45b5050565b6119928282610dca565b15611a665760006006600084815260200190815260200160002060000160008373ffffffffffffffffffffffffffffffffffffffff1673ffffffffffffffffffffffffffffffffffffffff16815260200190815260200160002060006101000a81548160ff021916908315150217905550611a0b6114d6565b73ffffffffffffffffffffffffffffffffffffffff168173ffffffffffffffffffffffffffffffffffffffff16837ff6391f5c32d9c69d2a47ea670b442974b53935d1edc7fd64eb21e047a839171b60405160405180910390a45b5050565b6000611a7582610aa3565b9050611a8381600084612058565b611a8e6000836114de565b6001600360008373ffffffffffffffffffffffffffffffffffffffff1673ffffffffffffffffffffffffffffffffffffffff1681526020019081526020016000206000828254611ade91906137af565b925050819055506002600083815260200190815260200160002060006101000a81549073ffffffffffffffffffffffffffffffffffffffff021916905581600073ffffffffffffffffffffffffffffffffffffffff168273ffffffffffffffffffffffffffffffffffffffff167fddf252ad1be2c89b69c2b068fc378daa952ba7f163c4a11628f55a4df523b3ef60405160405180910390a4611b838160008461205d565b5050565b600081600001549050919050565b6001816000016000828254019250508190555050565b611bc58282604051806020016040528060008152506120ff565b5050565b8173ffffffffffffffffffffffffffffffffffffffff168373ffffffffffffffffffffffffffffffffffffffff161415611c38576040517f08c379a0000000000000000000000000000000000000000000000000000000008152600401611c2f90613885565b60405180910390fd5b80600560008573ffffffffffffffffffffffffffffffffffffffff1673ffffffffffffffffffffffffffffffffffffffff16815260200190815260200160002060008473ffffffffffffffffffffffffffffffffffffffff1673ffffffffffffffffffffffffffffffffffffffff16815260200190815260200160002060006101000a81548160ff0219169083151502179055508173ffffffffffffffffffffffffffffffffffffffff168373ffffffffffffffffffffffffffffffffffffffff167f17307eab39ab6107e8899845ad3d59bd9653f200f220920489ca2b5937696c3183604051611d299190612943565b60405180910390a3505050565b611d4184848461162c565b611d4d8484848461215a565b611d8c576040517f08c379a0000000000000000000000000000000000000000000000000000000008152600401611d8390613917565b60405180910390fd5b50505050565b606060405180602001604052806000815250905090565b60606000821415611df1576040518060400160405280600181526020017f30000000000000000000000000000000000000000000000000000000000000008152509050611f05565b600082905060005b60008214611e23578080611e0c90613937565b915050600a82611e1c91906139af565b9150611df9565b60008167ffffffffffffffff811115611e3f57611e3e612daa565b5b6040519080825280601f01601f191660200182016040528015611e715781602001600182028036833780820191505090505b5090505b60008514611efe57600182611e8a91906137af565b9150600a85611e9991906139e0565b6030611ea591906137e3565b60f81b818381518110611ebb57611eba613a11565b5b60200101907effffffffffffffffffffffffffffffffffffffffffffffffffffffffffffff1916908160001a905350600a85611ef791906139af565b9450611e75565b8093505050505b919050565b60007f80ac58cd000000000000000000000000000000000000000000000000000000007bffffffffffffffffffffffffffffffffffffffffffffffffffffffff1916827bffffffffffffffffffffffffffffffffffffffffffffffffffffffff19161480611fd557507f5b5e139f000000000000000000000000000000000000000000000000000000007bffffffffffffffffffffffffffffffffffffffffffffffffffffffff1916827bffffffffffffffffffffffffffffffffffffffffffffffffffffffff1916145b80611fe55750611fe4826122f1565b5b9050919050565b60008073ffffffffffffffffffffffffffffffffffffffff166002600084815260200190815260200160002060009054906101000a900473ffffffffffffffffffffffffffffffffffffffff1673ffffffffffffffffffffffffffffffffffffffff1614159050919050565b505050565b505050565b61206c8282610dca565b6120fb576120918173ffffffffffffffffffffffffffffffffffffffff16601461235b565b61209f8360001c602061235b565b6040516020016120b0929190613ad8565b6040516020818303038152906040526040517f08c379a00000000000000000000000000000000000000000000000000000000081526004016120f291906129f7565b60405180910390fd5b5050565b6121098383612597565b612116600084848461215a565b612155576040517f08c379a000000000000000000000000000000000000000000000000000000000815260040161214c90613917565b60405180910390fd5b505050565b600061217b8473ffffffffffffffffffffffffffffffffffffffff16612771565b156122e4578373ffffffffffffffffffffffffffffffffffffffff1663150b7a026121a46114d6565b8786866040518563ffffffff1660e01b81526004016121c69493929190613b67565b602060405180830381600087803b1580156121e057600080fd5b505af192505050801561221157506040513d601f19601f8201168201806040525081019061220e9190613bc8565b60015b612294573d8060008114612241576040519150601f19603f3d011682016040523d82523d6000602084013e612246565b606091505b5060008151141561228c576040517f08c379a000000000000000000000000000000000000000000000000000000000815260040161228390613917565b60405180910390fd5b805181602001fd5b63150b7a0260e01b7bffffffffffffffffffffffffffffffffffffffffffffffffffffffff1916817bffffffffffffffffffffffffffffffffffffffffffffffffffffffff1916149150506122e9565b600190505b949350505050565b60007f01ffc9a7000000000000000000000000000000000000000000000000000000007bffffffffffffffffffffffffffffffffffffffffffffffffffffffff1916827bffffffffffffffffffffffffffffffffffffffffffffffffffffffff1916149050919050565b60606000600283600261236e9190613bf5565b61237891906137e3565b67ffffffffffffffff81111561239157612390612daa565b5b6040519080825280601f01601f1916602001820160405280156123c35781602001600182028036833780820191505090505b5090507f3000000000000000000000000000000000000000000000000000000000000000816000815181106123fb576123fa613a11565b5b60200101907effffffffffffffffffffffffffffffffffffffffffffffffffffffffffffff1916908160001a9053507f78000000000000000000000000000000000000000000000000000000000000008160018151811061245f5761245e613a11565b5b60200101907effffffffffffffffffffffffffffffffffffffffffffffffffffffffffffff1916908160001a9053506000600184600261249f9190613bf5565b6124a991906137e3565b90505b6001811115612549577f3031323334353637383961626364656600000000000000000000000000000000600f8616601081106124eb576124ea613a11565b5b1a60f81b82828151811061250257612501613a11565b5b60200101907effffffffffffffffffffffffffffffffffffffffffffffffffffffffffffff1916908160001a905350600485901c94508061254290613c4f565b90506124ac565b506000841461258d576040517f08c379a000000000000000000000000000000000000000000000000000000000815260040161258490613cc5565b60405180910390fd5b8091505092915050565b600073ffffffffffffffffffffffffffffffffffffffff168273ffffffffffffffffffffffffffffffffffffffff161415612607576040517f08c379a00000000000000000000000000000000000000000000000000000000081526004016125fe90613d31565b60405180910390fd5b61261081611fec565b15612650576040517f08c379a000000000000000000000000000000000000000000000000000000000815260040161264790613d9d565b60405180910390fd5b61265c60008383612058565b6001600360008473ffffffffffffffffffffffffffffffffffffffff1673ffffffffffffffffffffffffffffffffffffffff16815260200190815260200160002060008282546126ac91906137e3565b92505081905550816002600083815260200190815260200160002060006101000a81548173ffffffffffffffffffffffffffffffffffffffff021916908373ffffffffffffffffffffffffffffffffffffffff160217905550808273ffffffffffffffffffffffffffffffffffffffff16600073ffffffffffffffffffffffffffffffffffffffff167fddf252ad1be2c89b69c2b068fc378daa952ba7f163c4a11628f55a4df523b3ef60405160405180910390a461276d6000838361205d565b5050565b6000808273ffffffffffffffffffffffffffffffffffffffff163b119050919050565b6000604051905090565b600080fd5b600080fd5b600080fd5b600080fd5b600080fd5b60008083601f8401126127cd576127cc6127a8565b5b8235905067ffffffffffffffff8111156127ea576127e96127ad565b5b602083019150836001820283011115612806576128056127b2565b5b9250929050565b6000819050919050565b6128208161280d565b811461282b57600080fd5b50565b60008135905061283d81612817565b92915050565b60008060006040848603121561285c5761285b61279e565b5b600084013567ffffffffffffffff81111561287a576128796127a3565b5b612886868287016127b7565b935093505060206128998682870161282e565b9150509250925092565b60007fffffffff0000000000000000000000000000000000000000000000000000000082169050919050565b6128d8816128a3565b81146128e357600080fd5b50565b6000813590506128f5816128cf565b92915050565b6000602082840312156129115761291061279e565b5b600061291f848285016128e6565b91505092915050565b60008115159050919050565b61293d81612928565b82525050565b60006020820190506129586000830184612934565b92915050565b600081519050919050565b600082825260208201905092915050565b60005b8381101561299857808201518184015260208101905061297d565b838111156129a7576000848401525b50505050565b6000601f19601f8301169050919050565b60006129c98261295e565b6129d38185612969565b93506129e381856020860161297a565b6129ec816129ad565b840191505092915050565b60006020820190508181036000830152612a1181846129be565b905092915050565b600060208284031215612a2f57612a2e61279e565b5b6000612a3d8482850161282e565b91505092915050565b600073ffffffffffffffffffffffffffffffffffffffff82169050919050565b6000612a7182612a46565b9050919050565b612a8181612a66565b82525050565b6000602082019050612a9c6000830184612a78565b92915050565b612aab81612a66565b8114612ab657600080fd5b50565b600081359050612ac881612aa2565b92915050565b60008060408385031215612ae557612ae461279e565b5b6000612af385828601612ab9565b9250506020612b048582860161282e565b9150509250929050565b60008060208385031215612b2557612b2461279e565b5b600083013567ffffffffffffffff811115612b4357612b426127a3565b5b612b4f858286016127b7565b92509250509250929050565b612b648161280d565b82525050565b6000602082019050612b7f6000830184612b5b565b92915050565b600080600060608486031215612b9e57612b9d61279e565b5b6000612bac86828701612ab9565b9350506020612bbd86828701612ab9565b9250506040612bce8682870161282e565b9150509250925092565b6000819050919050565b612beb81612bd8565b8114612bf657600080fd5b50565b600081359050612c0881612be2565b92915050565b600060208284031215612c2457612c2361279e565b5b6000612c3284828501612bf9565b91505092915050565b612c4481612bd8565b82525050565b6000602082019050612c5f6000830184612c3b565b92915050565b60008060408385031215612c7c57612c7b61279e565b5b6000612c8a85828601612bf9565b9250506020612c9b85828601612ab9565b9150509250929050565b600060208284031215612cbb57612cba61279e565b5b6000612cc984828501612ab9565b91505092915050565b60008060008060808587031215612cec57612ceb61279e565b5b6000612cfa87828801612ab9565b9450506020612d0b87828801612ab9565b9350506040612d1c8782880161282e565b9250506060612d2d87828801612bf9565b91505092959194509250565b612d4281612928565b8114612d4d57600080fd5b50565b600081359050612d5f81612d39565b92915050565b60008060408385031215612d7c57612d7b61279e565b5b6000612d8a85828601612ab9565b9250506020612d9b85828601612d50565b9150509250929050565b600080fd5b7f4e487b7100000000000000000000000000000000000000000000000000000000600052604160045260246000fd5b612de2826129ad565b810181811067ffffffffffffffff82111715612e0157612e00612daa565b5b80604052505050565b6000612e14612794565b9050612e208282612dd9565b919050565b600067ffffffffffffffff821115612e4057612e3f612daa565b5b612e49826129ad565b9050602081019050919050565b82818337600083830152505050565b6000612e78612e7384612e25565b612e0a565b905082815260208101848484011115612e9457612e93612da5565b5b612e9f848285612e56565b509392505050565b600082601f830112612ebc57612ebb6127a8565b5b8135612ecc848260208601612e65565b91505092915050565b60008060008060808587031215612eef57612eee61279e565b5b6000612efd87828801612ab9565b9450506020612f0e87828801612ab9565b9350506040612f1f8782880161282e565b925050606085013567ffffffffffffffff811115612f4057612f3f6127a3565b5b612f4c87828801612ea7565b91505092959194509250565b600060e082019050612f6d600083018a612a78565b612f7a6020830189612a78565b612f876040830188612a78565b612f946060830187612b5b565b612fa16080830186612b5b565b612fae60a0830185612c3b565b612fbb60c0830184612c3b565b98975050505050505050565b60008060408385031215612fde57612fdd61279e565b5b6000612fec85828601612ab9565b9250506020612ffd85828601612ab9565b9150509250929050565b600080600080600060a086880312156130235761302261279e565b5b600061303188828901612ab9565b955050602061304288828901612ab9565b94505060406130538882890161282e565b935050606061306488828901612bf9565b925050608061307588828901612bf9565b9150509295509295909350565b600067ffffffffffffffff82111561309d5761309c612daa565b5b6130a6826129ad565b9050602081019050919050565b60006130c66130c184613082565b612e0a565b9050828152602081018484840111156130e2576130e1612da5565b5b6130ed848285612e56565b509392505050565b600082601f83011261310a576131096127a8565b5b813561311a8482602086016130b3565b91505092915050565b6000602082840312156131395761313861279e565b5b600082013567ffffffffffffffff811115613157576131566127a3565b5b613163848285016130f5565b91505092915050565b600081905092915050565b6000613183838561316c565b9350613190838584612e56565b82840190509392505050565b60006131a9828486613177565b91508190509392505050565b7f4e487b7100000000000000000000000000000000000000000000000000000000600052602260045260246000fd5b600060028204905060018216806131fc57607f821691505b602082108114156132105761320f6131b5565b5b50919050565b7f4552433732313a20617070726f76616c20746f2063757272656e74206f776e6560008201527f7200000000000000000000000000000000000000000000000000000000000000602082015250565b6000613272602183612969565b915061327d82613216565b604082019050919050565b600060208201905081810360008301526132a181613265565b9050919050565b7f4552433732313a20617070726f76652063616c6c6572206973206e6f7420746f60008201527f6b656e206f776e6572206e6f7220617070726f76656420666f7220616c6c0000602082015250565b6000613304603e83612969565b915061330f826132a8565b604082019050919050565b60006020820190508181036000830152613333816132f7565b9050919050565b7f4552433732313a2063616c6c6572206973206e6f7420746f6b656e206f776e6560008201527f72206e6f7220617070726f766564000000000000000000000000000000000000602082015250565b6000613396602e83612969565b91506133a18261333a565b604082019050919050565b600060208201905081810360008301526133c581613389565b9050919050565b7f416363657373436f6e74726f6c3a2063616e206f6e6c792072656e6f756e636560008201527f20726f6c657320666f722073656c660000000000000000000000000000000000602082015250565b6000613428602f83612969565b9150613433826133cc565b604082019050919050565b600060208201905081810360008301526134578161341b565b9050919050565b7f4552433732313a20696e76616c696420746f6b656e2049440000000000000000600082015250565b6000613494601883612969565b915061349f8261345e565b602082019050919050565b600060208201905081810360008301526134c381613487565b9050919050565b7f4552433732313a2061646472657373207a65726f206973206e6f74206120766160008201527f6c6964206f776e65720000000000000000000000000000000000000000000000602082015250565b6000613526602983612969565b9150613531826134ca565b604082019050919050565b6000602082019050818103600083015261355581613519565b9050919050565b6000815250565b600060a0820190506135786000830187612a78565b6135856020830186612b5b565b6135926040830185612b5b565b61359f6060830184612b5b565b6135ab6080830161355c565b95945050505050565b60006135bf8261295e565b6135c9818561316c565b93506135d981856020860161297a565b80840191505092915050565b60006135f182856135b4565b91506135fd82846135b4565b91508190509392505050565b600060a08201905061361e6000830188612a78565b61362b6020830187612b5b565b6136386040830186612b5b565b6136456060830185612b5b565b6136526080830184612c3b565b9695505050505050565b7f4552433732313a207472616e736665722066726f6d20696e636f72726563742060008201527f6f776e6572000000000000000000000000000000000000000000000000000000602082015250565b60006136b8602583612969565b91506136c38261365c565b604082019050919050565b600060208201905081810360008301526136e7816136ab565b9050919050565b7f4552433732313a207472616e7366657220746f20746865207a65726f2061646460008201527f7265737300000000000000000000000000000000000000000000000000000000602082015250565b600061374a602483612969565b9150613755826136ee565b604082019050919050565b600060208201905081810360008301526137798161373d565b9050919050565b7f4e487b7100000000000000000000000000000000000000000000000000000000600052601160045260246000fd5b60006137ba8261280d565b91506137c58361280d565b9250828210156137d8576137d7613780565b5b828203905092915050565b60006137ee8261280d565b91506137f98361280d565b9250827fffffffffffffffffffffffffffffffffffffffffffffffffffffffffffffffff0382111561382e5761382d613780565b5b828201905092915050565b7f4552433732313a20617070726f766520746f2063616c6c657200000000000000600082015250565b600061386f601983612969565b915061387a82613839565b602082019050919050565b6000602082019050818103600083015261389e81613862565b9050919050565b7f4552433732313a207472616e7366657220746f206e6f6e20455243373231526560008201527f63656976657220696d706c656d656e7465720000000000000000000000000000602082015250565b6000613901603283612969565b915061390c826138a5565b604082019050919050565b60006020820190508181036000830152613930816138f4565b9050919050565b60006139428261280d565b91507fffffffffffffffffffffffffffffffffffffffffffffffffffffffffffffffff82141561397557613974613780565b5b600182019050919050565b7f4e487b7100000000000000000000000000000000000000000000000000000000600052601260045260246000fd5b60006139ba8261280d565b91506139c58361280d565b9250826139d5576139d4613980565b5b828204905092915050565b60006139eb8261280d565b91506139f68361280d565b925082613a0657613a05613980565b5b828206905092915050565b7f4e487b7100000000000000000000000000000000000000000000000000000000600052603260045260246000fd5b7f416363657373436f6e74726f6c3a206163636f756e7420000000000000000000600082015250565b6000613a7660178361316c565b9150613a8182613a40565b601782019050919050565b7f206973206d697373696e6720726f6c6520000000000000000000000000000000600082015250565b6000613ac260118361316c565b9150613acd82613a8c565b601182019050919050565b6000613ae382613a69565b9150613aef82856135b4565b9150613afa82613ab5565b9150613b0682846135b4565b91508190509392505050565b600081519050919050565b600082825260208201905092915050565b6000613b3982613b12565b613b438185613b1d565b9350613b5381856020860161297a565b613b5c816129ad565b840191505092915050565b6000608082019050613b7c6000830187612a78565b613b896020830186612a78565b613b966040830185612b5b565b8181036060830152613ba88184613b2e565b905095945050505050565b600081519050613bc2816128cf565b92915050565b600060208284031215613bde57613bdd61279e565b5b6000613bec84828501613bb3565b91505092915050565b6000613c008261280d565b9150613c0b8361280d565b9250817fffffffffffffffffffffffffffffffffffffffffffffffffffffffffffffffff0483118215151615613c4457613c43613780565b5b828202905092915050565b6000613c5a8261280d565b91506000821415613c6e57613c6d613780565b5b600182039050919050565b7f537472696e67733a20686578206c656e67746820696e73756666696369656e74600082015250565b6000613caf602083612969565b9150613cba82613c79565b602082019050919050565b60006020820190508181036000830152613cde81613ca2565b9050919050565b7f4552433732313a206d696e7420746f20746865207a65726f2061646472657373600082015250565b6000613d1b602083612969565b9150613d2682613ce5565b602082019050919050565b60006020820190508181036000830152613d4a81613d0e565b9050919050565b7f4552433732313a20746f6b656e20616c7265616479206d696e74656400000000600082015250565b6000613d87601c83612969565b9150613d9282613d51565b602082019050919050565b60006020820190508181036000830152613db681613d7a565b905091905056fea2646970667358221220b82b3945e7b3e6cd7ab1713acd8efa1ffc53e6ddf93cc4f119b94433226556e364736f6c63430008090033",
  "linkReferences": {},
  "deployedLinkReferences": {}
}