{
  "_format": "hh-sol-artifact-1",
  "contractName": "CampaignNFT",
  "sourceName": "contracts/CampaignNFT.sol",
  "abi": [
    {
      "inputs": [
        {
          "internalType": "address",
          "name": "_registry",
          "type": "address"
        }
      ],
      "stateMutability": "nonpayable",
      "type": "constructor"
    },
    {
      "anonymous": false,
      "inputs": [
        {
          "indexed": true,
          "internalType": "address",
          "name": "owner",
          "type": "address"
        },
        {
          "indexed": true,
          "internalType": "address",
          "name": "approved",
          "type": "address"
        },
        {
          "indexed": true,
          "internalType": "uint256",
          "name": "tokenId",
          "type": "uint256"
        }
      ],
      "name": "Approval",
      "type": "event"
    },
    {
      "anonymous": false,
      "inputs": [
        {
          "indexed": true,
          "internalType": "address",
          "name": "owner",
          "type": "address"
        },
        {
          "indexed": true,
          "internalType": "address",
          "name": "operator",
          "type": "address"
        },
        {
          "indexed": false,
          "internalType": "bool",
          "name": "approved",
          "type": "bool"
        }
      ],
      "name": "ApprovalForAll",
      "type": "event"
    },
    {
      "anonymous": false,
      "inputs": [
        {
          "indexed": true,
          "internalType": "bytes32",
          "name": "role",
          "type": "bytes32"
        },
        {
          "indexed": true,
          "internalType": "bytes32",
          "name": "previousAdminRole",
          "type": "bytes32"
        },
        {
          "indexed": true,
          "internalType": "bytes32",
          "name": "newAdminRole",
          "type": "bytes32"
        }
      ],
      "name": "RoleAdminChanged",
      "type": "event"
    },
    {
      "anonymous": false,
      "inputs": [
        {
          "indexed": true,
          "internalType": "bytes32",
          "name": "role",
          "type": "bytes32"
        },
        {
          "indexed": true,
          "internalType": "address",
          "name": "account",
          "type": "address"
        },
        {
          "indexed": true,
          "internalType": "address",
          "name": "sender",
          "type": "address"
        }
      ],
      "name": "RoleGranted",
      "type": "event"
    },
    {
      "anonymous": false,
      "inputs": [
        {
          "indexed": true,
          "internalType": "bytes32",
          "name": "role",
          "type": "bytes32"
        },
        {
          "indexed": true,
          "internalType": "address",
          "name": "account",
          "type": "address"
        },
        {
          "indexed": true,
          "internalType": "address",
          "name": "sender",
          "type": "address"
        }
      ],
      "name": "RoleRevoked",
      "type": "event"
    },
    {
      "anonymous": false,
      "inputs": [
        {
          "indexed": true,
          "internalType": "address",
          "name": "from",
          "type": "address"
        },
        {
          "indexed": true,
          "internalType": "address",
          "name": "to",
          "type": "address"
        },
        {
          "indexed": true,
          "internalType": "uint256",
          "name": "tokenId",
          "type": "uint256"
        }
      ],
      "name": "Transfer",
      "type": "event"
    },
    {
      "anonymous": false,
      "inputs": [
        {
          "indexed": true,
          "internalType": "address",
          "name": "backer",
          "type": "address"
        },
        {
          "indexed": true,
          "internalType": "address",
          "name": "campaignInfo",
          "type": "address"
        },
        {
          "indexed": false,
          "internalType": "address",
          "name": "token",
          "type": "address"
        },
        {
          "indexed": true,
          "internalType": "bytes32",
          "name": "platform",
          "type": "bytes32"
        },
        {
          "indexed": false,
          "internalType": "uint256",
          "name": "pledgedAmount",
          "type": "uint256"
        },
        {
          "indexed": false,
          "internalType": "uint256",
          "name": "timestamp",
          "type": "uint256"
        },
        {
          "indexed": false,
          "internalType": "string",
          "name": "rewardName",
          "type": "string"
        }
      ],
      "name": "pledgeReceipt",
      "type": "event"
    },
    {
      "inputs": [],
      "name": "DEFAULT_ADMIN_ROLE",
      "outputs": [
        {
          "internalType": "bytes32",
          "name": "",
          "type": "bytes32"
        }
      ],
      "stateMutability": "view",
      "type": "function"
    },
    {
      "inputs": [],
      "name": "MINTER_ROLE",
      "outputs": [
        {
          "internalType": "bytes32",
          "name": "",
          "type": "bytes32"
        }
      ],
      "stateMutability": "view",
      "type": "function"
    },
    {
      "inputs": [
        {
          "internalType": "address",
          "name": "to",
          "type": "address"
        },
        {
          "internalType": "uint256",
          "name": "tokenId",
          "type": "uint256"
        }
      ],
      "name": "approve",
      "outputs": [],
      "stateMutability": "nonpayable",
      "type": "function"
    },
    {
      "inputs": [
        {
          "internalType": "address",
          "name": "owner",
          "type": "address"
        }
      ],
      "name": "balanceOf",
      "outputs": [
        {
          "internalType": "uint256",
          "name": "",
          "type": "uint256"
        }
      ],
      "stateMutability": "view",
      "type": "function"
    },
    {
      "inputs": [
        {
          "internalType": "uint256",
          "name": "tokenId",
          "type": "uint256"
        }
      ],
      "name": "getApproved",
      "outputs": [
        {
          "internalType": "address",
          "name": "",
          "type": "address"
        }
      ],
      "stateMutability": "view",
      "type": "function"
    },
    {
      "inputs": [
        {
          "internalType": "bytes32",
          "name": "role",
          "type": "bytes32"
        }
      ],
      "name": "getRoleAdmin",
      "outputs": [
        {
          "internalType": "bytes32",
          "name": "",
          "type": "bytes32"
        }
      ],
      "stateMutability": "view",
      "type": "function"
    },
    {
      "inputs": [
        {
          "internalType": "bytes32",
          "name": "role",
          "type": "bytes32"
        },
        {
          "internalType": "address",
          "name": "account",
          "type": "address"
        }
      ],
      "name": "grantRole",
      "outputs": [],
      "stateMutability": "nonpayable",
      "type": "function"
    },
    {
      "inputs": [
        {
          "internalType": "address",
          "name": "_campaignInfo",
          "type": "address"
        }
      ],
      "name": "grantRole",
      "outputs": [],
      "stateMutability": "nonpayable",
      "type": "function"
    },
    {
      "inputs": [
        {
          "internalType": "bytes32",
          "name": "role",
          "type": "bytes32"
        },
        {
          "internalType": "address",
          "name": "account",
          "type": "address"
        }
      ],
      "name": "hasRole",
      "outputs": [
        {
          "internalType": "bool",
          "name": "",
          "type": "bool"
        }
      ],
      "stateMutability": "view",
      "type": "function"
    },
    {
      "inputs": [
        {
          "internalType": "address",
          "name": "owner",
          "type": "address"
        },
        {
          "internalType": "address",
          "name": "operator",
          "type": "address"
        }
      ],
      "name": "isApprovedForAll",
      "outputs": [
        {
          "internalType": "bool",
          "name": "",
          "type": "bool"
        }
      ],
      "stateMutability": "view",
      "type": "function"
    },
    {
      "inputs": [],
      "name": "name",
      "outputs": [
        {
          "internalType": "string",
          "name": "",
          "type": "string"
        }
      ],
      "stateMutability": "view",
      "type": "function"
    },
    {
      "inputs": [
        {
          "internalType": "uint256",
          "name": "tokenId",
          "type": "uint256"
        }
      ],
      "name": "ownerOf",
      "outputs": [
        {
          "internalType": "address",
          "name": "",
          "type": "address"
        }
      ],
      "stateMutability": "view",
      "type": "function"
    },
    {
      "inputs": [
        {
          "internalType": "bytes32",
          "name": "role",
          "type": "bytes32"
        },
        {
          "internalType": "address",
          "name": "account",
          "type": "address"
        }
      ],
      "name": "renounceRole",
      "outputs": [],
      "stateMutability": "nonpayable",
      "type": "function"
    },
    {
      "inputs": [
        {
          "internalType": "bytes32",
          "name": "role",
          "type": "bytes32"
        },
        {
          "internalType": "address",
          "name": "account",
          "type": "address"
        }
      ],
      "name": "revokeRole",
      "outputs": [],
      "stateMutability": "nonpayable",
      "type": "function"
    },
    {
      "inputs": [
        {
          "internalType": "address",
          "name": "backer",
          "type": "address"
        },
        {
          "internalType": "address",
          "name": "token",
          "type": "address"
        },
        {
          "internalType": "uint256",
          "name": "pledgedAmount",
          "type": "uint256"
        },
        {
          "internalType": "bytes32",
          "name": "platformId",
          "type": "bytes32"
        },
        {
          "internalType": "string",
          "name": "rewardName",
          "type": "string"
        }
      ],
      "name": "safeMint",
      "outputs": [],
      "stateMutability": "nonpayable",
      "type": "function"
    },
    {
      "inputs": [
        {
          "internalType": "address",
          "name": "backer",
          "type": "address"
        },
        {
          "internalType": "address",
          "name": "token",
          "type": "address"
        },
        {
          "internalType": "uint256",
          "name": "pledgedAmount",
          "type": "uint256"
        },
        {
          "internalType": "bytes32",
          "name": "platformId",
          "type": "bytes32"
        }
      ],
      "name": "safeMint",
      "outputs": [],
      "stateMutability": "nonpayable",
      "type": "function"
    },
    {
      "inputs": [
        {
          "internalType": "address",
          "name": "from",
          "type": "address"
        },
        {
          "internalType": "address",
          "name": "to",
          "type": "address"
        },
        {
          "internalType": "uint256",
          "name": "tokenId",
          "type": "uint256"
        }
      ],
      "name": "safeTransferFrom",
      "outputs": [],
      "stateMutability": "nonpayable",
      "type": "function"
    },
    {
      "inputs": [
        {
          "internalType": "address",
          "name": "from",
          "type": "address"
        },
        {
          "internalType": "address",
          "name": "to",
          "type": "address"
        },
        {
          "internalType": "uint256",
          "name": "tokenId",
          "type": "uint256"
        },
        {
          "internalType": "bytes",
          "name": "data",
          "type": "bytes"
        }
      ],
      "name": "safeTransferFrom",
      "outputs": [],
      "stateMutability": "nonpayable",
      "type": "function"
    },
    {
      "inputs": [
        {
          "internalType": "address",
          "name": "operator",
          "type": "address"
        },
        {
          "internalType": "bool",
          "name": "approved",
          "type": "bool"
        }
      ],
      "name": "setApprovalForAll",
      "outputs": [],
      "stateMutability": "nonpayable",
      "type": "function"
    },
    {
      "inputs": [
        {
          "internalType": "bytes4",
          "name": "interfaceId",
          "type": "bytes4"
        }
      ],
      "name": "supportsInterface",
      "outputs": [
        {
          "internalType": "bool",
          "name": "",
          "type": "bool"
        }
      ],
      "stateMutability": "view",
      "type": "function"
    },
    {
      "inputs": [],
      "name": "symbol",
      "outputs": [
        {
          "internalType": "string",
          "name": "",
          "type": "string"
        }
      ],
      "stateMutability": "view",
      "type": "function"
    },
    {
      "inputs": [
        {
          "internalType": "uint256",
          "name": "tokenId",
          "type": "uint256"
        }
      ],
      "name": "tokenURI",
      "outputs": [
        {
          "internalType": "string",
          "name": "",
          "type": "string"
        }
      ],
      "stateMutability": "view",
      "type": "function"
    },
    {
      "inputs": [
        {
          "internalType": "address",
          "name": "from",
          "type": "address"
        },
        {
          "internalType": "address",
          "name": "to",
          "type": "address"
        },
        {
          "internalType": "uint256",
          "name": "tokenId",
          "type": "uint256"
        }
      ],
      "name": "transferFrom",
      "outputs": [],
      "stateMutability": "nonpayable",
      "type": "function"
    }
  ],
  "bytecode": "0x60806040523480156200001157600080fd5b5060405162003b5038038062003b50833981810160405281019062000037919062000372565b6040518060400160405280600b81526020017f43616d706169676e4e46540000000000000000000000000000000000000000008152506040518060400160405280600481526020017f434e4654000000000000000000000000000000000000000000000000000000008152508160009080519060200190620000bb92919062000258565b508060019080519060200190620000d492919062000258565b505050620000ec6000801b82620000f360201b60201c565b5062000409565b620001058282620001e560201b60201c565b620001e15760016006600084815260200190815260200160002060000160008373ffffffffffffffffffffffffffffffffffffffff1673ffffffffffffffffffffffffffffffffffffffff16815260200190815260200160002060006101000a81548160ff021916908315150217905550620001866200025060201b60201c565b73ffffffffffffffffffffffffffffffffffffffff168173ffffffffffffffffffffffffffffffffffffffff16837f2f8788117e7eff1d82e926ec794901d17c78024a50270940304540a733656f0d60405160405180910390a45b5050565b60006006600084815260200190815260200160002060000160008373ffffffffffffffffffffffffffffffffffffffff1673ffffffffffffffffffffffffffffffffffffffff16815260200190815260200160002060009054906101000a900460ff16905092915050565b600033905090565b8280546200026690620003d3565b90600052602060002090601f0160209004810192826200028a5760008555620002d6565b82601f10620002a557805160ff1916838001178555620002d6565b82800160010185558215620002d6579182015b82811115620002d5578251825591602001919060010190620002b8565b5b509050620002e59190620002e9565b5090565b5b8082111562000304576000816000905550600101620002ea565b5090565b600080fd5b600073ffffffffffffffffffffffffffffffffffffffff82169050919050565b60006200033a826200030d565b9050919050565b6200034c816200032d565b81146200035857600080fd5b50565b6000815190506200036c8162000341565b92915050565b6000602082840312156200038b576200038a62000308565b5b60006200039b848285016200035b565b91505092915050565b7f4e487b7100000000000000000000000000000000000000000000000000000000600052602260045260246000fd5b60006002820490506001821680620003ec57607f821691505b60208210811415620004035762000402620003a4565b5b50919050565b61373780620004196000396000f3fe608060405234801561001057600080fd5b506004361061014d5760003560e01c80636352211e116100c3578063a22cb4651161007c578063a22cb465146103ac578063b88d4fde146103c8578063c87b56dd146103e4578063d539139314610414578063d547741f14610432578063e985e9c51461044e5761014d565b80636352211e146102c457806370a08231146102f45780638e48312f1461032457806391d148541461034057806395d89b4114610370578063a217fddf1461038e5761014d565b8063248a9ca311610115578063248a9ca3146102085780632f2ff15d1461023857806336568abe14610254578063389776861461027057806342842e0e1461028c5780634ebc0c19146102a85761014d565b806301ffc9a71461015257806306fdde0314610182578063081812fc146101a0578063095ea7b3146101d057806323b872dd146101ec575b600080fd5b61016c60048036038101906101679190612329565b61047e565b6040516101799190612371565b60405180910390f35b61018a610490565b6040516101979190612425565b60405180910390f35b6101ba60048036038101906101b5919061247d565b610522565b6040516101c791906124eb565b60405180910390f35b6101ea60048036038101906101e59190612532565b610568565b005b61020660048036038101906102019190612572565b610680565b005b610222600480360381019061021d91906125fb565b6106e0565b60405161022f9190612637565b60405180910390f35b610252600480360381019061024d9190612652565b610700565b005b61026e60048036038101906102699190612652565b610721565b005b61028a60048036038101906102859190612692565b6107a4565b005b6102a660048036038101906102a19190612572565b6107df565b005b6102c260048036038101906102bd9190612724565b6107ff565b005b6102de60048036038101906102d9919061247d565b6109d3565b6040516102eb91906124eb565b60405180910390f35b61030e60048036038101906103099190612692565b610a85565b60405161031b91906127cd565b60405180910390f35b61033e600480360381019061033991906127e8565b610b3d565b005b61035a60048036038101906103559190612652565b610cf7565b6040516103679190612371565b60405180910390f35b610378610d62565b6040516103859190612425565b60405180910390f35b610396610df4565b6040516103a39190612637565b60405180910390f35b6103c660048036038101906103c1919061287b565b610dfb565b005b6103e260048036038101906103dd91906129eb565b610e11565b005b6103fe60048036038101906103f9919061247d565b610e73565b60405161040b9190612425565b60405180910390f35b61041c610edb565b6040516104299190612637565b60405180910390f35b61044c60048036038101906104479190612652565b610eff565b005b61046860048036038101906104639190612a6e565b610f20565b6040516104759190612371565b60405180910390f35b600061048982610fb4565b9050919050565b60606000805461049f90612add565b80601f01602080910402602001604051908101604052809291908181526020018280546104cb90612add565b80156105185780601f106104ed57610100808354040283529160200191610518565b820191906000526020600020905b8154815290600101906020018083116104fb57829003601f168201915b5050505050905090565b600061052d8261102e565b6004600083815260200190815260200160002060009054906101000a900473ffffffffffffffffffffffffffffffffffffffff169050919050565b6000610573826109d3565b90508073ffffffffffffffffffffffffffffffffffffffff168373ffffffffffffffffffffffffffffffffffffffff1614156105e4576040517f08c379a00000000000000000000000000000000000000000000000000000000081526004016105db90612b81565b60405180910390fd5b8073ffffffffffffffffffffffffffffffffffffffff16610603611079565b73ffffffffffffffffffffffffffffffffffffffff16148061063257506106318161062c611079565b610f20565b5b610671576040517f08c379a000000000000000000000000000000000000000000000000000000000815260040161066890612c13565b60405180910390fd5b61067b8383611081565b505050565b61069161068b611079565b8261113a565b6106d0576040517f08c379a00000000000000000000000000000000000000000000000000000000081526004016106c790612ca5565b60405180910390fd5b6106db8383836111cf565b505050565b600060066000838152602001908152602001600020600101549050919050565b610709826106e0565b61071281611436565b61071c838361144a565b505050565b610729611079565b73ffffffffffffffffffffffffffffffffffffffff168173ffffffffffffffffffffffffffffffffffffffff1614610796576040517f08c379a000000000000000000000000000000000000000000000000000000000815260040161078d90612d37565b60405180910390fd5b6107a0828261152b565b5050565b6000801b6107b181611436565b6107db7f9f2df0fed2c77648de5860a4cc508cd0818c85b8b8a1ab4ceeef8d981c8956a68361144a565b5050565b6107fa83838360405180602001604052806000815250610e11565b505050565b7f9f2df0fed2c77648de5860a4cc508cd0818c85b8b8a1ab4ceeef8d981c8956a661082981611436565b6000610835600861160d565b9050610841600861161b565b61084b8882611631565b6000600760008381526020019081526020016000209050338160000160006101000a81548173ffffffffffffffffffffffffffffffffffffffff021916908373ffffffffffffffffffffffffffffffffffffffff160217905550888160010160006101000a81548173ffffffffffffffffffffffffffffffffffffffff021916908373ffffffffffffffffffffffffffffffffffffffff160217905550878160020160006101000a81548173ffffffffffffffffffffffffffffffffffffffff021916908373ffffffffffffffffffffffffffffffffffffffff160217905550868160030181905550428160040181905550858160050181905550848482600601919061095992919061221a565b50853373ffffffffffffffffffffffffffffffffffffffff168a73ffffffffffffffffffffffffffffffffffffffff167f61b156c6ac671ebfc31a668e61f77ea0210127ad37010dacc50307dc59d729b58b8b428b8b6040516109c0959493929190612d84565b60405180910390a4505050505050505050565b6000806002600084815260200190815260200160002060009054906101000a900473ffffffffffffffffffffffffffffffffffffffff169050600073ffffffffffffffffffffffffffffffffffffffff168173ffffffffffffffffffffffffffffffffffffffff161415610a7c576040517f08c379a0000000000000000000000000000000000000000000000000000000008152600401610a7390612e1e565b60405180910390fd5b80915050919050565b60008073ffffffffffffffffffffffffffffffffffffffff168273ffffffffffffffffffffffffffffffffffffffff161415610af6576040517f08c379a0000000000000000000000000000000000000000000000000000000008152600401610aed90612eb0565b60405180910390fd5b600360008373ffffffffffffffffffffffffffffffffffffffff1673ffffffffffffffffffffffffffffffffffffffff168152602001908152602001600020549050919050565b7f9f2df0fed2c77648de5860a4cc508cd0818c85b8b8a1ab4ceeef8d981c8956a6610b6781611436565b6000610b73600861160d565b9050610b7f600861161b565b610b898682611631565b6000600760008381526020019081526020016000209050338160000160006101000a81548173ffffffffffffffffffffffffffffffffffffffff021916908373ffffffffffffffffffffffffffffffffffffffff160217905550868160010160006101000a81548173ffffffffffffffffffffffffffffffffffffffff021916908373ffffffffffffffffffffffffffffffffffffffff160217905550858160020160006101000a81548173ffffffffffffffffffffffffffffffffffffffff021916908373ffffffffffffffffffffffffffffffffffffffff160217905550848160030181905550428160040181905550838160050181905550833373ffffffffffffffffffffffffffffffffffffffff168873ffffffffffffffffffffffffffffffffffffffff167f61b156c6ac671ebfc31a668e61f77ea0210127ad37010dacc50307dc59d729b5898942604051610ce693929190612ef6565b60405180910390a450505050505050565b60006006600084815260200190815260200160002060000160008373ffffffffffffffffffffffffffffffffffffffff1673ffffffffffffffffffffffffffffffffffffffff16815260200190815260200160002060009054906101000a900460ff16905092915050565b606060018054610d7190612add565b80601f0160208091040260200160405190810160405280929190818152602001828054610d9d90612add565b8015610dea5780601f10610dbf57610100808354040283529160200191610dea565b820191906000526020600020905b815481529060010190602001808311610dcd57829003601f168201915b5050505050905090565b6000801b81565b610e0d610e06611079565b838361164f565b5050565b610e22610e1c611079565b8361113a565b610e61576040517f08c379a0000000000000000000000000000000000000000000000000000000008152600401610e5890612ca5565b60405180910390fd5b610e6d848484846117bc565b50505050565b6060610e7e8261102e565b6000610e88611818565b90506000815111610ea85760405180602001604052806000815250610ed3565b80610eb28461182f565b604051602001610ec3929190612f7c565b6040516020818303038152906040525b915050919050565b7f9f2df0fed2c77648de5860a4cc508cd0818c85b8b8a1ab4ceeef8d981c8956a681565b610f08826106e0565b610f1181611436565b610f1b838361152b565b505050565b6000600560008473ffffffffffffffffffffffffffffffffffffffff1673ffffffffffffffffffffffffffffffffffffffff16815260200190815260200160002060008373ffffffffffffffffffffffffffffffffffffffff1673ffffffffffffffffffffffffffffffffffffffff16815260200190815260200160002060009054906101000a900460ff16905092915050565b60007f7965db0b000000000000000000000000000000000000000000000000000000007bffffffffffffffffffffffffffffffffffffffffffffffffffffffff1916827bffffffffffffffffffffffffffffffffffffffffffffffffffffffff19161480611027575061102682611990565b5b9050919050565b61103781611a72565b611076576040517f08c379a000000000000000000000000000000000000000000000000000000000815260040161106d90612e1e565b60405180910390fd5b50565b600033905090565b816004600083815260200190815260200160002060006101000a81548173ffffffffffffffffffffffffffffffffffffffff021916908373ffffffffffffffffffffffffffffffffffffffff160217905550808273ffffffffffffffffffffffffffffffffffffffff166110f4836109d3565b73ffffffffffffffffffffffffffffffffffffffff167f8c5be1e5ebec7d5bd14f71427d1e84f3dd0314c0f7b2291e5b200ac8c7c3b92560405160405180910390a45050565b600080611146836109d3565b90508073ffffffffffffffffffffffffffffffffffffffff168473ffffffffffffffffffffffffffffffffffffffff16148061118857506111878185610f20565b5b806111c657508373ffffffffffffffffffffffffffffffffffffffff166111ae84610522565b73ffffffffffffffffffffffffffffffffffffffff16145b91505092915050565b8273ffffffffffffffffffffffffffffffffffffffff166111ef826109d3565b73ffffffffffffffffffffffffffffffffffffffff1614611245576040517f08c379a000000000000000000000000000000000000000000000000000000000815260040161123c90613012565b60405180910390fd5b600073ffffffffffffffffffffffffffffffffffffffff168273ffffffffffffffffffffffffffffffffffffffff1614156112b5576040517f08c379a00000000000000000000000000000000000000000000000000000000081526004016112ac906130a4565b60405180910390fd5b6112c0838383611ade565b6112cb600082611081565b6001600360008573ffffffffffffffffffffffffffffffffffffffff1673ffffffffffffffffffffffffffffffffffffffff168152602001908152602001600020600082825461131b91906130f3565b925050819055506001600360008473ffffffffffffffffffffffffffffffffffffffff1673ffffffffffffffffffffffffffffffffffffffff16815260200190815260200160002060008282546113729190613127565b92505081905550816002600083815260200190815260200160002060006101000a81548173ffffffffffffffffffffffffffffffffffffffff021916908373ffffffffffffffffffffffffffffffffffffffff160217905550808273ffffffffffffffffffffffffffffffffffffffff168473ffffffffffffffffffffffffffffffffffffffff167fddf252ad1be2c89b69c2b068fc378daa952ba7f163c4a11628f55a4df523b3ef60405160405180910390a4611431838383611ae3565b505050565b61144781611442611079565b611ae8565b50565b6114548282610cf7565b6115275760016006600084815260200190815260200160002060000160008373ffffffffffffffffffffffffffffffffffffffff1673ffffffffffffffffffffffffffffffffffffffff16815260200190815260200160002060006101000a81548160ff0219169083151502179055506114cc611079565b73ffffffffffffffffffffffffffffffffffffffff168173ffffffffffffffffffffffffffffffffffffffff16837f2f8788117e7eff1d82e926ec794901d17c78024a50270940304540a733656f0d60405160405180910390a45b5050565b6115358282610cf7565b156116095760006006600084815260200190815260200160002060000160008373ffffffffffffffffffffffffffffffffffffffff1673ffffffffffffffffffffffffffffffffffffffff16815260200190815260200160002060006101000a81548160ff0219169083151502179055506115ae611079565b73ffffffffffffffffffffffffffffffffffffffff168173ffffffffffffffffffffffffffffffffffffffff16837ff6391f5c32d9c69d2a47ea670b442974b53935d1edc7fd64eb21e047a839171b60405160405180910390a45b5050565b600081600001549050919050565b6001816000016000828254019250508190555050565b61164b828260405180602001604052806000815250611b85565b5050565b8173ffffffffffffffffffffffffffffffffffffffff168373ffffffffffffffffffffffffffffffffffffffff1614156116be576040517f08c379a00000000000000000000000000000000000000000000000000000000081526004016116b5906131c9565b60405180910390fd5b80600560008573ffffffffffffffffffffffffffffffffffffffff1673ffffffffffffffffffffffffffffffffffffffff16815260200190815260200160002060008473ffffffffffffffffffffffffffffffffffffffff1673ffffffffffffffffffffffffffffffffffffffff16815260200190815260200160002060006101000a81548160ff0219169083151502179055508173ffffffffffffffffffffffffffffffffffffffff168373ffffffffffffffffffffffffffffffffffffffff167f17307eab39ab6107e8899845ad3d59bd9653f200f220920489ca2b5937696c31836040516117af9190612371565b60405180910390a3505050565b6117c78484846111cf565b6117d384848484611be0565b611812576040517f08c379a00000000000000000000000000000000000000000000000000000000081526004016118099061325b565b60405180910390fd5b50505050565b606060405180602001604052806000815250905090565b60606000821415611877576040518060400160405280600181526020017f3000000000000000000000000000000000000000000000000000000000000000815250905061198b565b600082905060005b600082146118a95780806118929061327b565b915050600a826118a291906132f3565b915061187f565b60008167ffffffffffffffff8111156118c5576118c46128c0565b5b6040519080825280601f01601f1916602001820160405280156118f75781602001600182028036833780820191505090505b5090505b600085146119845760018261191091906130f3565b9150600a8561191f9190613324565b603061192b9190613127565b60f81b81838151811061194157611940613355565b5b60200101907effffffffffffffffffffffffffffffffffffffffffffffffffffffffffffff1916908160001a905350600a8561197d91906132f3565b94506118fb565b8093505050505b919050565b60007f80ac58cd000000000000000000000000000000000000000000000000000000007bffffffffffffffffffffffffffffffffffffffffffffffffffffffff1916827bffffffffffffffffffffffffffffffffffffffffffffffffffffffff19161480611a5b57507f5b5e139f000000000000000000000000000000000000000000000000000000007bffffffffffffffffffffffffffffffffffffffffffffffffffffffff1916827bffffffffffffffffffffffffffffffffffffffffffffffffffffffff1916145b80611a6b5750611a6a82611d77565b5b9050919050565b60008073ffffffffffffffffffffffffffffffffffffffff166002600084815260200190815260200160002060009054906101000a900473ffffffffffffffffffffffffffffffffffffffff1673ffffffffffffffffffffffffffffffffffffffff1614159050919050565b505050565b505050565b611af28282610cf7565b611b8157611b178173ffffffffffffffffffffffffffffffffffffffff166014611de1565b611b258360001c6020611de1565b604051602001611b3692919061341c565b6040516020818303038152906040526040517f08c379a0000000000000000000000000000000000000000000000000000000008152600401611b789190612425565b60405180910390fd5b5050565b611b8f838361201d565b611b9c6000848484611be0565b611bdb576040517f08c379a0000000000000000000000000000000000000000000000000000000008152600401611bd29061325b565b60405180910390fd5b505050565b6000611c018473ffffffffffffffffffffffffffffffffffffffff166121f7565b15611d6a578373ffffffffffffffffffffffffffffffffffffffff1663150b7a02611c2a611079565b8786866040518563ffffffff1660e01b8152600401611c4c94939291906134ab565b602060405180830381600087803b158015611c6657600080fd5b505af1925050508015611c9757506040513d601f19601f82011682018060405250810190611c94919061350c565b60015b611d1a573d8060008114611cc7576040519150601f19603f3d011682016040523d82523d6000602084013e611ccc565b606091505b50600081511415611d12576040517f08c379a0000000000000000000000000000000000000000000000000000000008152600401611d099061325b565b60405180910390fd5b805181602001fd5b63150b7a0260e01b7bffffffffffffffffffffffffffffffffffffffffffffffffffffffff1916817bffffffffffffffffffffffffffffffffffffffffffffffffffffffff191614915050611d6f565b600190505b949350505050565b60007f01ffc9a7000000000000000000000000000000000000000000000000000000007bffffffffffffffffffffffffffffffffffffffffffffffffffffffff1916827bffffffffffffffffffffffffffffffffffffffffffffffffffffffff1916149050919050565b606060006002836002611df49190613539565b611dfe9190613127565b67ffffffffffffffff811115611e1757611e166128c0565b5b6040519080825280601f01601f191660200182016040528015611e495781602001600182028036833780820191505090505b5090507f300000000000000000000000000000000000000000000000000000000000000081600081518110611e8157611e80613355565b5b60200101907effffffffffffffffffffffffffffffffffffffffffffffffffffffffffffff1916908160001a9053507f780000000000000000000000000000000000000000000000000000000000000081600181518110611ee557611ee4613355565b5b60200101907effffffffffffffffffffffffffffffffffffffffffffffffffffffffffffff1916908160001a90535060006001846002611f259190613539565b611f2f9190613127565b90505b6001811115611fcf577f3031323334353637383961626364656600000000000000000000000000000000600f861660108110611f7157611f70613355565b5b1a60f81b828281518110611f8857611f87613355565b5b60200101907effffffffffffffffffffffffffffffffffffffffffffffffffffffffffffff1916908160001a905350600485901c945080611fc890613593565b9050611f32565b5060008414612013576040517f08c379a000000000000000000000000000000000000000000000000000000000815260040161200a90613609565b60405180910390fd5b8091505092915050565b600073ffffffffffffffffffffffffffffffffffffffff168273ffffffffffffffffffffffffffffffffffffffff16141561208d576040517f08c379a000000000000000000000000000000000000000000000000000000000815260040161208490613675565b60405180910390fd5b61209681611a72565b156120d6576040517f08c379a00000000000000000000000000000000000000000000000000000000081526004016120cd906136e1565b60405180910390fd5b6120e260008383611ade565b6001600360008473ffffffffffffffffffffffffffffffffffffffff1673ffffffffffffffffffffffffffffffffffffffff16815260200190815260200160002060008282546121329190613127565b92505081905550816002600083815260200190815260200160002060006101000a81548173ffffffffffffffffffffffffffffffffffffffff021916908373ffffffffffffffffffffffffffffffffffffffff160217905550808273ffffffffffffffffffffffffffffffffffffffff16600073ffffffffffffffffffffffffffffffffffffffff167fddf252ad1be2c89b69c2b068fc378daa952ba7f163c4a11628f55a4df523b3ef60405160405180910390a46121f360008383611ae3565b5050565b6000808273ffffffffffffffffffffffffffffffffffffffff163b119050919050565b82805461222690612add565b90600052602060002090601f016020900481019282612248576000855561228f565b82601f1061226157803560ff191683800117855561228f565b8280016001018555821561228f579182015b8281111561228e578235825591602001919060010190612273565b5b50905061229c91906122a0565b5090565b5b808211156122b95760008160009055506001016122a1565b5090565b6000604051905090565b600080fd5b600080fd5b60007fffffffff0000000000000000000000000000000000000000000000000000000082169050919050565b612306816122d1565b811461231157600080fd5b50565b600081359050612323816122fd565b92915050565b60006020828403121561233f5761233e6122c7565b5b600061234d84828501612314565b91505092915050565b60008115159050919050565b61236b81612356565b82525050565b60006020820190506123866000830184612362565b92915050565b600081519050919050565b600082825260208201905092915050565b60005b838110156123c65780820151818401526020810190506123ab565b838111156123d5576000848401525b50505050565b6000601f19601f8301169050919050565b60006123f78261238c565b6124018185612397565b93506124118185602086016123a8565b61241a816123db565b840191505092915050565b6000602082019050818103600083015261243f81846123ec565b905092915050565b6000819050919050565b61245a81612447565b811461246557600080fd5b50565b60008135905061247781612451565b92915050565b600060208284031215612493576124926122c7565b5b60006124a184828501612468565b91505092915050565b600073ffffffffffffffffffffffffffffffffffffffff82169050919050565b60006124d5826124aa565b9050919050565b6124e5816124ca565b82525050565b600060208201905061250060008301846124dc565b92915050565b61250f816124ca565b811461251a57600080fd5b50565b60008135905061252c81612506565b92915050565b60008060408385031215612549576125486122c7565b5b60006125578582860161251d565b925050602061256885828601612468565b9150509250929050565b60008060006060848603121561258b5761258a6122c7565b5b60006125998682870161251d565b93505060206125aa8682870161251d565b92505060406125bb86828701612468565b9150509250925092565b6000819050919050565b6125d8816125c5565b81146125e357600080fd5b50565b6000813590506125f5816125cf565b92915050565b600060208284031215612611576126106122c7565b5b600061261f848285016125e6565b91505092915050565b612631816125c5565b82525050565b600060208201905061264c6000830184612628565b92915050565b60008060408385031215612669576126686122c7565b5b6000612677858286016125e6565b92505060206126888582860161251d565b9150509250929050565b6000602082840312156126a8576126a76122c7565b5b60006126b68482850161251d565b91505092915050565b600080fd5b600080fd5b600080fd5b60008083601f8401126126e4576126e36126bf565b5b8235905067ffffffffffffffff811115612701576127006126c4565b5b60208301915083600182028301111561271d5761271c6126c9565b5b9250929050565b60008060008060008060a08789031215612741576127406122c7565b5b600061274f89828a0161251d565b965050602061276089828a0161251d565b955050604061277189828a01612468565b945050606061278289828a016125e6565b935050608087013567ffffffffffffffff8111156127a3576127a26122cc565b5b6127af89828a016126ce565b92509250509295509295509295565b6127c781612447565b82525050565b60006020820190506127e260008301846127be565b92915050565b60008060008060808587031215612802576128016122c7565b5b60006128108782880161251d565b94505060206128218782880161251d565b935050604061283287828801612468565b9250506060612843878288016125e6565b91505092959194509250565b61285881612356565b811461286357600080fd5b50565b6000813590506128758161284f565b92915050565b60008060408385031215612892576128916122c7565b5b60006128a08582860161251d565b92505060206128b185828601612866565b9150509250929050565b600080fd5b7f4e487b7100000000000000000000000000000000000000000000000000000000600052604160045260246000fd5b6128f8826123db565b810181811067ffffffffffffffff82111715612917576129166128c0565b5b80604052505050565b600061292a6122bd565b905061293682826128ef565b919050565b600067ffffffffffffffff821115612956576129556128c0565b5b61295f826123db565b9050602081019050919050565b82818337600083830152505050565b600061298e6129898461293b565b612920565b9050828152602081018484840111156129aa576129a96128bb565b5b6129b584828561296c565b509392505050565b600082601f8301126129d2576129d16126bf565b5b81356129e284826020860161297b565b91505092915050565b60008060008060808587031215612a0557612a046122c7565b5b6000612a138782880161251d565b9450506020612a248782880161251d565b9350506040612a3587828801612468565b925050606085013567ffffffffffffffff811115612a5657612a556122cc565b5b612a62878288016129bd565b91505092959194509250565b60008060408385031215612a8557612a846122c7565b5b6000612a938582860161251d565b9250506020612aa48582860161251d565b9150509250929050565b7f4e487b7100000000000000000000000000000000000000000000000000000000600052602260045260246000fd5b60006002820490506001821680612af557607f821691505b60208210811415612b0957612b08612aae565b5b50919050565b7f4552433732313a20617070726f76616c20746f2063757272656e74206f776e6560008201527f7200000000000000000000000000000000000000000000000000000000000000602082015250565b6000612b6b602183612397565b9150612b7682612b0f565b604082019050919050565b60006020820190508181036000830152612b9a81612b5e565b9050919050565b7f4552433732313a20617070726f76652063616c6c6572206973206e6f7420746f60008201527f6b656e206f776e6572206e6f7220617070726f76656420666f7220616c6c0000602082015250565b6000612bfd603e83612397565b9150612c0882612ba1565b604082019050919050565b60006020820190508181036000830152612c2c81612bf0565b9050919050565b7f4552433732313a2063616c6c6572206973206e6f7420746f6b656e206f776e6560008201527f72206e6f7220617070726f766564000000000000000000000000000000000000602082015250565b6000612c8f602e83612397565b9150612c9a82612c33565b604082019050919050565b60006020820190508181036000830152612cbe81612c82565b9050919050565b7f416363657373436f6e74726f6c3a2063616e206f6e6c792072656e6f756e636560008201527f20726f6c657320666f722073656c660000000000000000000000000000000000602082015250565b6000612d21602f83612397565b9150612d2c82612cc5565b604082019050919050565b60006020820190508181036000830152612d5081612d14565b9050919050565b6000612d638385612397565b9350612d7083858461296c565b612d79836123db565b840190509392505050565b6000608082019050612d9960008301886124dc565b612da660208301876127be565b612db360408301866127be565b8181036060830152612dc6818486612d57565b90509695505050505050565b7f4552433732313a20696e76616c696420746f6b656e2049440000000000000000600082015250565b6000612e08601883612397565b9150612e1382612dd2565b602082019050919050565b60006020820190508181036000830152612e3781612dfb565b9050919050565b7f4552433732313a2061646472657373207a65726f206973206e6f74206120766160008201527f6c6964206f776e65720000000000000000000000000000000000000000000000602082015250565b6000612e9a602983612397565b9150612ea582612e3e565b604082019050919050565b60006020820190508181036000830152612ec981612e8d565b9050919050565b50565b6000612ee0600083612397565b9150612eeb82612ed0565b600082019050919050565b6000608082019050612f0b60008301866124dc565b612f1860208301856127be565b612f2560408301846127be565b8181036060830152612f3681612ed3565b9050949350505050565b600081905092915050565b6000612f568261238c565b612f608185612f40565b9350612f708185602086016123a8565b80840191505092915050565b6000612f888285612f4b565b9150612f948284612f4b565b91508190509392505050565b7f4552433732313a207472616e736665722066726f6d20696e636f72726563742060008201527f6f776e6572000000000000000000000000000000000000000000000000000000602082015250565b6000612ffc602583612397565b915061300782612fa0565b604082019050919050565b6000602082019050818103600083015261302b81612fef565b9050919050565b7f4552433732313a207472616e7366657220746f20746865207a65726f2061646460008201527f7265737300000000000000000000000000000000000000000000000000000000602082015250565b600061308e602483612397565b915061309982613032565b604082019050919050565b600060208201905081810360008301526130bd81613081565b9050919050565b7f4e487b7100000000000000000000000000000000000000000000000000000000600052601160045260246000fd5b60006130fe82612447565b915061310983612447565b92508282101561311c5761311b6130c4565b5b828203905092915050565b600061313282612447565b915061313d83612447565b9250827fffffffffffffffffffffffffffffffffffffffffffffffffffffffffffffffff03821115613172576131716130c4565b5b828201905092915050565b7f4552433732313a20617070726f766520746f2063616c6c657200000000000000600082015250565b60006131b3601983612397565b91506131be8261317d565b602082019050919050565b600060208201905081810360008301526131e2816131a6565b9050919050565b7f4552433732313a207472616e7366657220746f206e6f6e20455243373231526560008201527f63656976657220696d706c656d656e7465720000000000000000000000000000602082015250565b6000613245603283612397565b9150613250826131e9565b604082019050919050565b6000602082019050818103600083015261327481613238565b9050919050565b600061328682612447565b91507fffffffffffffffffffffffffffffffffffffffffffffffffffffffffffffffff8214156132b9576132b86130c4565b5b600182019050919050565b7f4e487b7100000000000000000000000000000000000000000000000000000000600052601260045260246000fd5b60006132fe82612447565b915061330983612447565b925082613319576133186132c4565b5b828204905092915050565b600061332f82612447565b915061333a83612447565b92508261334a576133496132c4565b5b828206905092915050565b7f4e487b7100000000000000000000000000000000000000000000000000000000600052603260045260246000fd5b7f416363657373436f6e74726f6c3a206163636f756e7420000000000000000000600082015250565b60006133ba601783612f40565b91506133c582613384565b601782019050919050565b7f206973206d697373696e6720726f6c6520000000000000000000000000000000600082015250565b6000613406601183612f40565b9150613411826133d0565b601182019050919050565b6000613427826133ad565b91506134338285612f4b565b915061343e826133f9565b915061344a8284612f4b565b91508190509392505050565b600081519050919050565b600082825260208201905092915050565b600061347d82613456565b6134878185613461565b93506134978185602086016123a8565b6134a0816123db565b840191505092915050565b60006080820190506134c060008301876124dc565b6134cd60208301866124dc565b6134da60408301856127be565b81810360608301526134ec8184613472565b905095945050505050565b600081519050613506816122fd565b92915050565b600060208284031215613522576135216122c7565b5b6000613530848285016134f7565b91505092915050565b600061354482612447565b915061354f83612447565b9250817fffffffffffffffffffffffffffffffffffffffffffffffffffffffffffffffff0483118215151615613588576135876130c4565b5b828202905092915050565b600061359e82612447565b915060008214156135b2576135b16130c4565b5b600182039050919050565b7f537472696e67733a20686578206c656e67746820696e73756666696369656e74600082015250565b60006135f3602083612397565b91506135fe826135bd565b602082019050919050565b60006020820190508181036000830152613622816135e6565b9050919050565b7f4552433732313a206d696e7420746f20746865207a65726f2061646472657373600082015250565b600061365f602083612397565b915061366a82613629565b602082019050919050565b6000602082019050818103600083015261368e81613652565b9050919050565b7f4552433732313a20746f6b656e20616c7265616479206d696e74656400000000600082015250565b60006136cb601c83612397565b91506136d682613695565b602082019050919050565b600060208201905081810360008301526136fa816136be565b905091905056fea2646970667358221220b5e8cf367ba26053e21dfdb853067faa17587ed70b9dbff72b68cc4fb23d9c2864736f6c63430008090033",
  "linkReferences": {},
  "deployedLinkReferences": {}
}