{
  "_format": "hh-sol-artifact-1",
  "contractName": "CampaignContainers",
  "sourceName": "contracts/CampaignContainers.sol",
  "abi": [
    {
      "inputs": [
        {
          "internalType": "address",
          "name": "creator",
          "type": "address"
        },
        {
          "internalType": "bytes32",
          "name": "id",
          "type": "bytes32"
        },
        {
          "components": [
            {
              "internalType": "uint256[]",
              "name": "items",
              "type": "uint256[]"
            },
            {
              "internalType": "uint256[]",
              "name": "itemQuantity",
              "type": "uint256[]"
            },
            {
              "internalType": "uint256",
              "name": "value",
              "type": "uint256"
            },
            {
              "internalType": "bool",
              "name": "isRewardTier",
              "type": "bool"
            }
          ],
          "internalType": "struct CampaignContainers.Container",
          "name": "container",
          "type": "tuple"
        }
      ],
      "name": "addContainer",
      "outputs": [],
      "stateMutability": "nonpayable",
      "type": "function"
    },
    {
      "inputs": [
        {
          "internalType": "address",
          "name": "",
          "type": "address"
        },
        {
          "internalType": "bytes32",
          "name": "",
          "type": "bytes32"
        }
      ],
      "name": "containers",
      "outputs": [
        {
          "internalType": "uint256",
          "name": "value",
          "type": "uint256"
        },
        {
          "internalType": "bool",
          "name": "isRewardTier",
          "type": "bool"
        }
      ],
      "stateMutability": "view",
      "type": "function"
    }
  ],
  "bytecode": "0x608060405234801561001057600080fd5b50610641806100206000396000f3fe608060405234801561001057600080fd5b50600436106100365760003560e01c8063259bd58a1461003b5780636e014fc014610057575b600080fd5b61005560048036038101906100509190610515565b610088565b005b610071600480360381019061006c9190610584565b610144565b60405161007f9291906105e2565b60405180910390f35b806000808573ffffffffffffffffffffffffffffffffffffffff1673ffffffffffffffffffffffffffffffffffffffff168152602001908152602001600020600084815260200190815260200160002060008201518160000190805190602001906100f4929190610182565b506020820151816001019080519060200190610111929190610182565b506040820151816002015560608201518160030160006101000a81548160ff021916908315150217905550905050505050565b6000602052816000526040600020602052806000526040600020600091509150508060020154908060030160009054906101000a900460ff16905082565b8280548282559060005260206000209081019282156101be579160200282015b828111156101bd5782518255916020019190600101906101a2565b5b5090506101cb91906101cf565b5090565b5b808211156101e85760008160009055506001016101d0565b5090565b6000604051905090565b600080fd5b600080fd5b600073ffffffffffffffffffffffffffffffffffffffff82169050919050565b600061022b82610200565b9050919050565b61023b81610220565b811461024657600080fd5b50565b60008135905061025881610232565b92915050565b6000819050919050565b6102718161025e565b811461027c57600080fd5b50565b60008135905061028e81610268565b92915050565b600080fd5b6000601f19601f8301169050919050565b7f4e487b7100000000000000000000000000000000000000000000000000000000600052604160045260246000fd5b6102e282610299565b810181811067ffffffffffffffff82111715610301576103006102aa565b5b80604052505050565b60006103146101ec565b905061032082826102d9565b919050565b600080fd5b600080fd5b600067ffffffffffffffff82111561034a576103496102aa565b5b602082029050602081019050919050565b600080fd5b6000819050919050565b61037381610360565b811461037e57600080fd5b50565b6000813590506103908161036a565b92915050565b60006103a96103a48461032f565b61030a565b905080838252602082019050602084028301858111156103cc576103cb61035b565b5b835b818110156103f557806103e18882610381565b8452602084019350506020810190506103ce565b5050509392505050565b600082601f8301126104145761041361032a565b5b8135610424848260208601610396565b91505092915050565b60008115159050919050565b6104428161042d565b811461044d57600080fd5b50565b60008135905061045f81610439565b92915050565b60006080828403121561047b5761047a610294565b5b610485608061030a565b9050600082013567ffffffffffffffff8111156104a5576104a4610325565b5b6104b1848285016103ff565b600083015250602082013567ffffffffffffffff8111156104d5576104d4610325565b5b6104e1848285016103ff565b60208301525060406104f584828501610381565b604083015250606061050984828501610450565b60608301525092915050565b60008060006060848603121561052e5761052d6101f6565b5b600061053c86828701610249565b935050602061054d8682870161027f565b925050604084013567ffffffffffffffff81111561056e5761056d6101fb565b5b61057a86828701610465565b9150509250925092565b6000806040838503121561059b5761059a6101f6565b5b60006105a985828601610249565b92505060206105ba8582860161027f565b9150509250929050565b6105cd81610360565b82525050565b6105dc8161042d565b82525050565b60006040820190506105f760008301856105c4565b61060460208301846105d3565b939250505056fea2646970667358221220caabada3f185cb07bb54201bf350903dcc1d78fffa4c5a2b492af04211f9499e64736f6c63430008090033",
  "linkReferences": {},
  "deployedLinkReferences": {}
}