{
  "_format": "hh-sol-artifact-1",
  "contractName": "CampaignContainers",
  "sourceName": "contracts/CampaignContainers.sol",
  "abi": [
    {
      "inputs": [
        {
          "internalType": "address",
          "name": "creator",
          "type": "address"
        },
        {
          "internalType": "bytes32",
          "name": "id",
          "type": "bytes32"
        },
        {
          "components": [
            {
              "internalType": "uint256[]",
              "name": "items",
              "type": "uint256[]"
            },
            {
              "internalType": "uint256[]",
              "name": "itemQuantity",
              "type": "uint256[]"
            },
            {
              "internalType": "uint256",
              "name": "value",
              "type": "uint256"
            },
            {
              "internalType": "bool",
              "name": "isRewardTier",
              "type": "bool"
            }
          ],
          "internalType": "struct CampaignContainers.Container",
          "name": "container",
          "type": "tuple"
        }
      ],
      "name": "addContainer",
      "outputs": [],
      "stateMutability": "nonpayable",
      "type": "function"
    },
    {
      "inputs": [
        {
          "internalType": "address",
          "name": "creator",
          "type": "address"
        },
        {
          "internalType": "bytes32",
          "name": "id",
          "type": "bytes32"
        }
      ],
      "name": "getContainer",
      "outputs": [
        {
          "internalType": "uint256",
          "name": "",
          "type": "uint256"
        }
      ],
      "stateMutability": "view",
      "type": "function"
    }
  ],
  "bytecode": "0x608060405234801561001057600080fd5b50610642806100206000396000f3fe608060405234801561001057600080fd5b50600436106100365760003560e01c8063259bd58a1461003b578063fc6c108a14610057575b600080fd5b61005560048036038101906100509190610533565b610087565b005b610071600480360381019061006c91906105a2565b610143565b60405161007e91906105f1565b60405180910390f35b806000808573ffffffffffffffffffffffffffffffffffffffff1673ffffffffffffffffffffffffffffffffffffffff168152602001908152602001600020600084815260200190815260200160002060008201518160000190805190602001906100f39291906101a0565b5060208201518160010190805190602001906101109291906101a0565b506040820151816002015560608201518160030160006101000a81548160ff021916908315150217905550905050505050565b60008060008473ffffffffffffffffffffffffffffffffffffffff1673ffffffffffffffffffffffffffffffffffffffff168152602001908152602001600020600083815260200190815260200160002060020154905092915050565b8280548282559060005260206000209081019282156101dc579160200282015b828111156101db5782518255916020019190600101906101c0565b5b5090506101e991906101ed565b5090565b5b808211156102065760008160009055506001016101ee565b5090565b6000604051905090565b600080fd5b600080fd5b600073ffffffffffffffffffffffffffffffffffffffff82169050919050565b60006102498261021e565b9050919050565b6102598161023e565b811461026457600080fd5b50565b60008135905061027681610250565b92915050565b6000819050919050565b61028f8161027c565b811461029a57600080fd5b50565b6000813590506102ac81610286565b92915050565b600080fd5b6000601f19601f8301169050919050565b7f4e487b7100000000000000000000000000000000000000000000000000000000600052604160045260246000fd5b610300826102b7565b810181811067ffffffffffffffff8211171561031f5761031e6102c8565b5b80604052505050565b600061033261020a565b905061033e82826102f7565b919050565b600080fd5b600080fd5b600067ffffffffffffffff821115610368576103676102c8565b5b602082029050602081019050919050565b600080fd5b6000819050919050565b6103918161037e565b811461039c57600080fd5b50565b6000813590506103ae81610388565b92915050565b60006103c76103c28461034d565b610328565b905080838252602082019050602084028301858111156103ea576103e9610379565b5b835b8181101561041357806103ff888261039f565b8452602084019350506020810190506103ec565b5050509392505050565b600082601f83011261043257610431610348565b5b81356104428482602086016103b4565b91505092915050565b60008115159050919050565b6104608161044b565b811461046b57600080fd5b50565b60008135905061047d81610457565b92915050565b600060808284031215610499576104986102b2565b5b6104a36080610328565b9050600082013567ffffffffffffffff8111156104c3576104c2610343565b5b6104cf8482850161041d565b600083015250602082013567ffffffffffffffff8111156104f3576104f2610343565b5b6104ff8482850161041d565b60208301525060406105138482850161039f565b60408301525060606105278482850161046e565b60608301525092915050565b60008060006060848603121561054c5761054b610214565b5b600061055a86828701610267565b935050602061056b8682870161029d565b925050604084013567ffffffffffffffff81111561058c5761058b610219565b5b61059886828701610483565b9150509250925092565b600080604083850312156105b9576105b8610214565b5b60006105c785828601610267565b92505060206105d88582860161029d565b9150509250929050565b6105eb8161037e565b82525050565b600060208201905061060660008301846105e2565b9291505056fea26469706673582212207d6ea839d3378a65426a6e9f7ce3d79ec84342e5ef6fb180c78995b60c5bb8af64736f6c63430008090033",
  "linkReferences": {},
  "deployedLinkReferences": {}
}