{
  "_format": "hh-sol-artifact-1",
  "contractName": "CampaignInfoFactory",
  "sourceName": "contracts/CampaignInfoFactory.sol",
  "abi": [
    {
      "anonymous": false,
      "inputs": [
        {
          "indexed": true,
          "internalType": "address",
          "name": "previousOwner",
          "type": "address"
        },
        {
          "indexed": true,
          "internalType": "address",
          "name": "newOwner",
          "type": "address"
        }
      ],
      "name": "OwnershipTransferred",
      "type": "event"
    },
    {
      "anonymous": false,
      "inputs": [
        {
          "indexed": false,
          "internalType": "string",
          "name": "identifier",
          "type": "string"
        },
        {
          "indexed": true,
          "internalType": "address",
          "name": "campaignInfoAddress",
          "type": "address"
        }
      ],
      "name": "campaignCreation",
      "type": "event"
    },
    {
      "inputs": [
        {
          "internalType": "string",
          "name": "_identifier",
          "type": "string"
        },
        {
          "internalType": "bytes32",
          "name": "_originPlatform",
          "type": "bytes32"
        },
        {
          "internalType": "uint256",
          "name": "_goalAmount",
          "type": "uint256"
        },
        {
          "internalType": "uint256",
          "name": "_launchTime",
          "type": "uint256"
        },
        {
          "internalType": "uint256",
          "name": "_deadline",
          "type": "uint256"
        },
        {
          "internalType": "string",
          "name": "_creatorUrl",
          "type": "string"
        },
        {
          "internalType": "bytes32[]",
          "name": "_reachPlatform",
          "type": "bytes32[]"
        }
      ],
      "name": "createCampaign",
      "outputs": [],
      "stateMutability": "nonpayable",
      "type": "function"
    },
    {
      "inputs": [],
      "name": "owner",
      "outputs": [
        {
          "internalType": "address",
          "name": "",
          "type": "address"
        }
      ],
      "stateMutability": "view",
      "type": "function"
    },
    {
      "inputs": [],
      "name": "renounceOwnership",
      "outputs": [],
      "stateMutability": "nonpayable",
      "type": "function"
    },
    {
      "inputs": [
        {
          "internalType": "address",
          "name": "_campaignRegistry",
          "type": "address"
        }
      ],
      "name": "setRegistry",
      "outputs": [],
      "stateMutability": "nonpayable",
      "type": "function"
    },
    {
      "inputs": [
        {
          "internalType": "address",
          "name": "newOwner",
          "type": "address"
        }
      ],
      "name": "transferOwnership",
      "outputs": [],
      "stateMutability": "nonpayable",
      "type": "function"
    }
  ],
  "bytecode": "0x608060405234801561001057600080fd5b5061002d61002261003260201b60201c565b61003a60201b60201c565b6100fe565b600033905090565b60008060009054906101000a900473ffffffffffffffffffffffffffffffffffffffff169050816000806101000a81548173ffffffffffffffffffffffffffffffffffffffff021916908373ffffffffffffffffffffffffffffffffffffffff1602179055508173ffffffffffffffffffffffffffffffffffffffff168173ffffffffffffffffffffffffffffffffffffffff167f8be0079c531659141344cd1fd0a4f28419497f9722a3daafe3b4186f6b6457e060405160405180910390a35050565b6147468061010d6000396000f3fe60806040523480156200001157600080fd5b50600436106200005e5760003560e01c8063715018a614620000635780638da5cb5b146200006f578063a91ee0dc1462000091578063b7e5838314620000b1578063f2fde38b14620000d1575b600080fd5b6200006d620000f1565b005b6200007962000109565b60405162000088919062000608565b60405180910390f35b620000af6004803603810190620000a991906200066a565b62000132565b005b620000cf6004803603810190620000c991906200094f565b6200019b565b005b620000ef6004803603810190620000e991906200066a565b620003d9565b005b620000fb62000464565b620001076000620004e9565b565b60008060009054906101000a900473ffffffffffffffffffffffffffffffffffffffff16905090565b6200013c62000464565b80600260006101000a81548173ffffffffffffffffffffffffffffffffffffffff021916908373ffffffffffffffffffffffffffffffffffffffff1602179055506001600260146101000a81548160ff02191690831515021790555050565b620001a562000464565b600260149054906101000a900460ff16620001bf57600080fd5b86868686868686600260009054906101000a900473ffffffffffffffffffffffffffffffffffffffff16604051620001f790620005b5565b6200020a98979695949392919062000be2565b604051809103906000f08015801562000227573d6000803e3d6000fd5b50600160006101000a81548173ffffffffffffffffffffffffffffffffffffffff021916908373ffffffffffffffffffffffffffffffffffffffff160217905550600073ffffffffffffffffffffffffffffffffffffffff16600160009054906101000a900473ffffffffffffffffffffffffffffffffffffffff1673ffffffffffffffffffffffffffffffffffffffff161415620002c557600080fd5b6000600160009054906101000a900473ffffffffffffffffffffffffffffffffffffffff169050600260009054906101000a900473ffffffffffffffffffffffffffffffffffffffff1673ffffffffffffffffffffffffffffffffffffffff16632c64ba1589836040518363ffffffff1660e01b81526004016200034b92919062000c85565b600060405180830381600087803b1580156200036657600080fd5b505af11580156200037b573d6000803e3d6000fd5b505050508073ffffffffffffffffffffffffffffffffffffffff167ff4d491a6f1d235565138b729aec590f73a429a7debf862af41af0d001ab8da3789604051620003c7919062000cb9565b60405180910390a25050505050505050565b620003e362000464565b600073ffffffffffffffffffffffffffffffffffffffff168173ffffffffffffffffffffffffffffffffffffffff16141562000456576040517f08c379a00000000000000000000000000000000000000000000000000000000081526004016200044d9062000d53565b60405180910390fd5b6200046181620004e9565b50565b6200046e620005ad565b73ffffffffffffffffffffffffffffffffffffffff166200048e62000109565b73ffffffffffffffffffffffffffffffffffffffff1614620004e7576040517f08c379a0000000000000000000000000000000000000000000000000000000008152600401620004de9062000dc5565b60405180910390fd5b565b60008060009054906101000a900473ffffffffffffffffffffffffffffffffffffffff169050816000806101000a81548173ffffffffffffffffffffffffffffffffffffffff021916908373ffffffffffffffffffffffffffffffffffffffff1602179055508173ffffffffffffffffffffffffffffffffffffffff168173ffffffffffffffffffffffffffffffffffffffff167f8be0079c531659141344cd1fd0a4f28419497f9722a3daafe3b4186f6b6457e060405160405180910390a35050565b600033905090565b6139298062000de883390190565b600073ffffffffffffffffffffffffffffffffffffffff82169050919050565b6000620005f082620005c3565b9050919050565b6200060281620005e3565b82525050565b60006020820190506200061f6000830184620005f7565b92915050565b6000604051905090565b600080fd5b600080fd5b6200064481620005e3565b81146200065057600080fd5b50565b600081359050620006648162000639565b92915050565b6000602082840312156200068357620006826200062f565b5b6000620006938482850162000653565b91505092915050565b600080fd5b600080fd5b6000601f19601f8301169050919050565b7f4e487b7100000000000000000000000000000000000000000000000000000000600052604160045260246000fd5b620006f182620006a6565b810181811067ffffffffffffffff82111715620007135762000712620006b7565b5b80604052505050565b60006200072862000625565b9050620007368282620006e6565b919050565b600067ffffffffffffffff821115620007595762000758620006b7565b5b6200076482620006a6565b9050602081019050919050565b82818337600083830152505050565b60006200079762000791846200073b565b6200071c565b905082815260208101848484011115620007b657620007b5620006a1565b5b620007c384828562000771565b509392505050565b600082601f830112620007e357620007e26200069c565b5b8135620007f584826020860162000780565b91505092915050565b6000819050919050565b6200081381620007fe565b81146200081f57600080fd5b50565b600081359050620008338162000808565b92915050565b6000819050919050565b6200084e8162000839565b81146200085a57600080fd5b50565b6000813590506200086e8162000843565b92915050565b600067ffffffffffffffff821115620008925762000891620006b7565b5b602082029050602081019050919050565b600080fd5b6000620008bf620008b98462000874565b6200071c565b90508083825260208201905060208402830185811115620008e557620008e4620008a3565b5b835b81811015620009125780620008fd888262000822565b845260208401935050602081019050620008e7565b5050509392505050565b600082601f8301126200093457620009336200069c565b5b813562000946848260208601620008a8565b91505092915050565b600080600080600080600060e0888a0312156200097157620009706200062f565b5b600088013567ffffffffffffffff81111562000992576200099162000634565b5b620009a08a828b01620007cb565b9750506020620009b38a828b0162000822565b9650506040620009c68a828b016200085d565b9550506060620009d98a828b016200085d565b9450506080620009ec8a828b016200085d565b93505060a088013567ffffffffffffffff81111562000a105762000a0f62000634565b5b62000a1e8a828b01620007cb565b92505060c088013567ffffffffffffffff81111562000a425762000a4162000634565b5b62000a508a828b016200091c565b91505092959891949750929550565b600081519050919050565b600082825260208201905092915050565b60005b8381101562000a9b57808201518184015260208101905062000a7e565b8381111562000aab576000848401525b50505050565b600062000abe8262000a5f565b62000aca818562000a6a565b935062000adc81856020860162000a7b565b62000ae781620006a6565b840191505092915050565b62000afd81620007fe565b82525050565b62000b0e8162000839565b82525050565b600081519050919050565b600082825260208201905092915050565b6000819050602082019050919050565b62000b4b81620007fe565b82525050565b600062000b5f838362000b40565b60208301905092915050565b6000602082019050919050565b600062000b858262000b14565b62000b91818562000b1f565b935062000b9e8362000b30565b8060005b8381101562000bd557815162000bb9888262000b51565b975062000bc68362000b6b565b92505060018101905062000ba2565b5085935050505092915050565b600061010082019050818103600083015262000bff818b62000ab1565b905062000c10602083018a62000af2565b62000c1f604083018962000b03565b62000c2e606083018862000b03565b62000c3d608083018762000b03565b81810360a083015262000c51818662000ab1565b905081810360c083015262000c67818562000b78565b905062000c7860e0830184620005f7565b9998505050505050505050565b6000604082019050818103600083015262000ca1818562000ab1565b905062000cb26020830184620005f7565b9392505050565b6000602082019050818103600083015262000cd5818462000ab1565b905092915050565b7f4f776e61626c653a206e6577206f776e657220697320746865207a65726f206160008201527f6464726573730000000000000000000000000000000000000000000000000000602082015250565b600062000d3b60268362000a6a565b915062000d488262000cdd565b604082019050919050565b6000602082019050818103600083015262000d6e8162000d2c565b9050919050565b7f4f776e61626c653a2063616c6c6572206973206e6f7420746865206f776e6572600082015250565b600062000dad60208362000a6a565b915062000dba8262000d75565b602082019050919050565b6000602082019050818103600083015262000de08162000d9e565b905091905056fe60806040526002600a556101f4600c556064600d553480156200002157600080fd5b50604051620039293803806200392983398181016040528101906200004791906200069f565b620000676200005b6200015f60201b60201c565b6200016760201b60201c565b8362278d0086620000799190620007f4565b106200008457600080fd5b87600160000190805190602001906200009f9291906200022b565b50866001800181905550856001600201819055508460016003018190555042600160040181905550836001600501819055508260016006019080519060200190620000ec9291906200022b565b50816001600701908051906020019062000108929190620002bc565b5080600960006101000a81548173ffffffffffffffffffffffffffffffffffffffff021916908373ffffffffffffffffffffffffffffffffffffffff16021790555042600e819055505050505050505050620008b6565b600033905090565b60008060009054906101000a900473ffffffffffffffffffffffffffffffffffffffff169050816000806101000a81548173ffffffffffffffffffffffffffffffffffffffff021916908373ffffffffffffffffffffffffffffffffffffffff1602179055508173ffffffffffffffffffffffffffffffffffffffff168173ffffffffffffffffffffffffffffffffffffffff167f8be0079c531659141344cd1fd0a4f28419497f9722a3daafe3b4186f6b6457e060405160405180910390a35050565b828054620002399062000880565b90600052602060002090601f0160209004810192826200025d5760008555620002a9565b82601f106200027857805160ff1916838001178555620002a9565b82800160010185558215620002a9579182015b82811115620002a85782518255916020019190600101906200028b565b5b509050620002b891906200030e565b5090565b828054828255906000526020600020908101928215620002fb579160200282015b82811115620002fa578251825591602001919060010190620002dd565b5b5090506200030a91906200032d565b5090565b5b80821115620003295760008160009055506001016200030f565b5090565b5b80821115620003485760008160009055506001016200032e565b5090565b6000604051905090565b600080fd5b600080fd5b600080fd5b600080fd5b6000601f19601f8301169050919050565b7f4e487b7100000000000000000000000000000000000000000000000000000000600052604160045260246000fd5b620003b5826200036a565b810181811067ffffffffffffffff82111715620003d757620003d66200037b565b5b80604052505050565b6000620003ec6200034c565b9050620003fa8282620003aa565b919050565b600067ffffffffffffffff8211156200041d576200041c6200037b565b5b62000428826200036a565b9050602081019050919050565b60005b838110156200045557808201518184015260208101905062000438565b8381111562000465576000848401525b50505050565b6000620004826200047c84620003ff565b620003e0565b905082815260208101848484011115620004a157620004a062000365565b5b620004ae84828562000435565b509392505050565b600082601f830112620004ce57620004cd62000360565b5b8151620004e08482602086016200046b565b91505092915050565b6000819050919050565b620004fe81620004e9565b81146200050a57600080fd5b50565b6000815190506200051e81620004f3565b92915050565b6000819050919050565b620005398162000524565b81146200054557600080fd5b50565b60008151905062000559816200052e565b92915050565b600067ffffffffffffffff8211156200057d576200057c6200037b565b5b602082029050602081019050919050565b600080fd5b6000620005aa620005a4846200055f565b620003e0565b90508083825260208201905060208402830185811115620005d057620005cf6200058e565b5b835b81811015620005fd5780620005e888826200050d565b845260208401935050602081019050620005d2565b5050509392505050565b600082601f8301126200061f576200061e62000360565b5b81516200063184826020860162000593565b91505092915050565b600073ffffffffffffffffffffffffffffffffffffffff82169050919050565b600062000667826200063a565b9050919050565b62000679816200065a565b81146200068557600080fd5b50565b60008151905062000699816200066e565b92915050565b600080600080600080600080610100898b031215620006c357620006c262000356565b5b600089015167ffffffffffffffff811115620006e457620006e36200035b565b5b620006f28b828c01620004b6565b9850506020620007058b828c016200050d565b9750506040620007188b828c0162000548565b96505060606200072b8b828c0162000548565b95505060806200073e8b828c0162000548565b94505060a089015167ffffffffffffffff8111156200076257620007616200035b565b5b620007708b828c01620004b6565b93505060c089015167ffffffffffffffff8111156200079457620007936200035b565b5b620007a28b828c0162000607565b92505060e0620007b58b828c0162000688565b9150509295985092959890939650565b7f4e487b7100000000000000000000000000000000000000000000000000000000600052601160045260246000fd5b6000620008018262000524565b91506200080e8362000524565b9250827fffffffffffffffffffffffffffffffffffffffffffffffffffffffffffffffff03821115620008465762000845620007c5565b5b828201905092915050565b7f4e487b7100000000000000000000000000000000000000000000000000000000600052602260045260246000fd5b600060028204905060018216806200089957607f821691505b60208210811415620008b057620008af62000851565b5b50919050565b61306380620008c66000396000f3fe608060405234801561001057600080fd5b50600436106101375760003560e01c806384ea5c74116100b8578063a0797f751161007c578063a0797f7514610301578063b0e10c611461031f578063c417633814610329578063f2fde38b1461034c578063f6b854ff14610368578063f84036761461038457610137565b806384ea5c741461024b5780638d12cf0b1461027b5780638da5cb5b1461029757806391c07ffb146102b55780639bd4dd3c146102e557610137565b806355bf3112116100ff57806355bf3112146101f5578063715018a6146101ff5780637568173b1461020957806376c22b4a1461021357806383d23ab31461022f57610137565b80632e162db61461013c5780632ee8ebf71461015a57806332a8e0341461018a57806333a06c81146101bb5780634da7f432146101d9575b600080fd5b6101446103a2565b60405161015191906122d9565b60405180910390f35b610174600480360381019061016f919061249e565b6103fd565b60405161018191906125b8565b60405180910390f35b6101a4600480360381019061019f91906125da565b6104ce565b6040516101b292919061266c565b60405180910390f35b6101c3610542565b6040516101d0919061269c565b60405180910390f35b6101f360048036038101906101ee91906126b7565b61080b565b005b6101fd61090e565b005b610207610c40565b005b610211610c54565b005b61022d6004803603810190610228919061276e565b610e6e565b005b610249600480360381019061024491906127c1565b610fd6565b005b610265600480360381019061026091906127c1565b6110dc565b60405161027291906127fd565b60405180910390f35b61029560048036038101906102909190612818565b6111be565b005b61029f611391565b6040516102ac91906127fd565b60405180910390f35b6102cf60048036038101906102ca91906127c1565b6113ba565b6040516102dc919061269c565b60405180910390f35b6102ff60048036038101906102fa91906126b7565b611557565b005b61030961165a565b604051610316919061288e565b60405180910390f35b610327611666565b005b610331611998565b60405161034396959493929190612931565b60405180910390f35b610366600480360381019061036191906129a0565b611af0565b005b610382600480360381019061037d91906129cd565b611b74565b005b61038c611cf6565b604051610399919061269c565b60405180910390f35b606060016007018054806020026020016040519081016040528092919081815260200182805480156103f357602002820191906000526020600020905b8154815260200190600101908083116103df575b5050505050905090565b606060008251905060008167ffffffffffffffff8111156104215761042061235b565b5b60405190808252806020026020018201604052801561044f5781602001602082028036833780820191505090505b50905060005b828110156104c2576127108686838151811061047457610473612a0d565b5b60200260200101516104869190612a6b565b6104909190612af4565b8282815181106104a3576104a2612a0d565b5b60200260200101818152505080806104ba90612b25565b915050610455565b50809250505092915050565b6000606060008351905060006001826104e79190612b6e565b87896104f39190612bc4565b6104fd9190612af4565b9050600061271082896105109190612b6e565b8861051b9190612a6b565b6105259190612af4565b90508061053283886103fd565b9450945050505094509492505050565b600080600f60006001800154815260200190815260200160002060009054906101000a900473ffffffffffffffffffffffffffffffffffffffff169050600073ffffffffffffffffffffffffffffffffffffffff168173ffffffffffffffffffffffffffffffffffffffff1614156105ef576040517f08c379a00000000000000000000000000000000000000000000000000000000081526004016105e690612c6a565b60405180910390fd5b6000600160070180548060200260200160405190810160405280929190818152602001828054801561064057602002820191906000526020600020905b81548152602001906001019080831161062c575b5050505050905060008151905060008373ffffffffffffffffffffffffffffffffffffffff1663186bc5496040518163ffffffff1660e01b815260040160206040518083038186803b15801561069557600080fd5b505afa1580156106a9573d6000803e3d6000fd5b505050506040513d601f19601f820116820180604052508101906106cd9190612c9f565b905060005b82811015610800576000600f60008684815181106106f3576106f2612a0d565b5b6020026020010151815260200190815260200160002060009054906101000a900473ffffffffffffffffffffffffffffffffffffffff169050600073ffffffffffffffffffffffffffffffffffffffff168173ffffffffffffffffffffffffffffffffffffffff16146107ec578073ffffffffffffffffffffffffffffffffffffffff1663186bc5496040518163ffffffff1660e01b815260040160206040518083038186803b1580156107a657600080fd5b505afa1580156107ba573d6000803e3d6000fd5b505050506040513d601f19601f820116820180604052508101906107de9190612c9f565b836107e99190612b6e565b92505b5080806107f890612b25565b9150506106d2565b508094505050505090565b600960009054906101000a900473ffffffffffffffffffffffffffffffffffffffff1673ffffffffffffffffffffffffffffffffffffffff16638da5cb5b6040518163ffffffff1660e01b815260040160206040518083038186803b15801561087357600080fd5b505afa158015610887573d6000803e3d6000fd5b505050506040513d601f19601f820116820180604052508101906108ab9190612ce1565b73ffffffffffffffffffffffffffffffffffffffff163373ffffffffffffffffffffffffffffffffffffffff16146108e257600080fd5b60016005015462278d00826108f79190612b6e565b1061090157600080fd5b8060016003018190555050565b600960149054906101000a900460ff1661095d576040517f08c379a000000000000000000000000000000000000000000000000000000000815260040161095490612d80565b60405180910390fd5b6000600c5490506000600d5490506000610978600b546113ba565b9050600060016007018054806020026020016040519081016040528092919081815260200182805480156109cb57602002820191906000526020600020905b8154815260200190600101908083116109b7575b505050505090506000815167ffffffffffffffff8111156109ef576109ee61235b565b5b604051908082528060200260200182016040528015610a1d5781602001602082028036833780820191505090505b5090506000600180015490506000835167ffffffffffffffff811115610a4657610a4561235b565b5b604051908082528060200260200182016040528015610a745781602001602082028036833780820191505090505b50905081600b541415610ae85760005b8451811015610ae257610ab0858281518110610aa357610aa2612a0d565b5b60200260200101516113ba565b848281518110610ac357610ac2612a0d565b5b6020026020010181815250508080610ada90612b25565b915050610a84565b50610c0c565b6000610af3836113ba565b848281518110610b0657610b05612a0d565b5b60200260200101818152505082828281518110610b2657610b25612a0d565b5b602002602001018181525050600190505b84518111610c0a57600b5485600183610b509190612bc4565b81518110610b6157610b60612a0d565b5b602002602001015114610bf75784600182610b7c9190612bc4565b81518110610b8d57610b8c612a0d565b5b6020026020010151828281518110610ba857610ba7612a0d565b5b602002602001018181525050610bd7858281518110610bca57610bc9612a0d565b5b60200260200101516113ba565b848281518110610bea57610be9612a0d565b5b6020026020010181815250505b8080610c0290612b25565b915050610b37565b505b600080610c1b898989886104ce565b91509150610c2b600b5483611b74565b610c35838261205f565b505050505050505050565b610c486120c7565b610c526000612145565b565b60006001600701805480602002602001604051908101604052809291908181526020018280548015610ca557602002820191906000526020600020905b815481526020019060010190808311610c91575b50505050509050600060018251610cbc9190612b6e565b67ffffffffffffffff811115610cd557610cd461235b565b5b604051908082528060200260200182016040528015610d035781602001602082028036833780820191505090505b509050600060018351610d169190612b6e565b67ffffffffffffffff811115610d2f57610d2e61235b565b5b604051908082528060200260200182016040528015610d5d5781602001602082028036833780820191505090505b50905060005b8351811015610dfb57838181518110610d7f57610d7e612a0d565b5b6020026020010151838281518110610d9a57610d99612a0d565b5b602002602001018181525050610dc9848281518110610dbc57610dbb612a0d565b5b60200260200101516113ba565b828281518110610ddc57610ddb612a0d565b5b6020026020010181815250508080610df390612b25565b915050610d63565b50600180015482845181518110610e1557610e14612a0d565b5b602002602001018181525050610e2e60018001546113ba565b81845181518110610e4257610e41612a0d565b5b6020026020010181815250506000610e5c600c54836103fd565b9050610e68838261205f565b50505050565b600960149054906101000a900460ff16158015610ea55750600a54600160020154610e999190612af4565b610ea2846113ba565b10155b8015610eb35750600e544210155b15610edb576001600960146101000a81548160ff02191690831515021790555082600b819055505b6010600084815260200190815260200160002060009054906101000a900473ffffffffffffffffffffffffffffffffffffffff1673ffffffffffffffffffffffffffffffffffffffff166323b872dd83600f600087815260200190815260200160002060009054906101000a900473ffffffffffffffffffffffffffffffffffffffff16846040518463ffffffff1660e01b8152600401610f7e93929190612da0565b602060405180830381600087803b158015610f9857600080fd5b505af1158015610fac573d6000803e3d6000fd5b505050506040513d601f19601f82011682018060405250810190610fd09190612e0f565b50505050565b600960009054906101000a900473ffffffffffffffffffffffffffffffffffffffff1673ffffffffffffffffffffffffffffffffffffffff16638da5cb5b6040518163ffffffff1660e01b815260040160206040518083038186803b15801561103e57600080fd5b505afa158015611052573d6000803e3d6000fd5b505050506040513d601f19601f820116820180604052508101906110769190612ce1565b73ffffffffffffffffffffffffffffffffffffffff163373ffffffffffffffffffffffffffffffffffffffff16146110ad57600080fd5b600160070181908060018154018082558091505060019003906000526020600020016000909190919091505550565b600081600073ffffffffffffffffffffffffffffffffffffffff16600f600083815260200190815260200160002060009054906101000a900473ffffffffffffffffffffffffffffffffffffffff1673ffffffffffffffffffffffffffffffffffffffff161415611182576040517f08c379a000000000000000000000000000000000000000000000000000000000815260040161117990612eae565b60405180910390fd5b600f600084815260200190815260200160002060009054906101000a900473ffffffffffffffffffffffffffffffffffffffff16915050919050565b600960009054906101000a900473ffffffffffffffffffffffffffffffffffffffff1673ffffffffffffffffffffffffffffffffffffffff16638da5cb5b6040518163ffffffff1660e01b815260040160206040518083038186803b15801561122657600080fd5b505afa15801561123a573d6000803e3d6000fd5b505050506040513d601f19601f8201168201806040525081019061125e9190612ce1565b73ffffffffffffffffffffffffffffffffffffffff163373ffffffffffffffffffffffffffffffffffffffff161461129557600080fd5b826011600086815260200190815260200160002060006101000a81548173ffffffffffffffffffffffffffffffffffffffff021916908373ffffffffffffffffffffffffffffffffffffffff16021790555081600f600086815260200190815260200160002060006101000a81548173ffffffffffffffffffffffffffffffffffffffff021916908373ffffffffffffffffffffffffffffffffffffffff160217905550806010600086815260200190815260200160002060006101000a81548173ffffffffffffffffffffffffffffffffffffffff021916908373ffffffffffffffffffffffffffffffffffffffff16021790555050505050565b60008060009054906101000a900473ffffffffffffffffffffffffffffffffffffffff16905090565b600081600073ffffffffffffffffffffffffffffffffffffffff16600f600083815260200190815260200160002060009054906101000a900473ffffffffffffffffffffffffffffffffffffffff1673ffffffffffffffffffffffffffffffffffffffff161415611460576040517f08c379a000000000000000000000000000000000000000000000000000000000815260040161145790612eae565b60405180910390fd5b6010600084815260200190815260200160002060009054906101000a900473ffffffffffffffffffffffffffffffffffffffff1673ffffffffffffffffffffffffffffffffffffffff166370a08231600f600086815260200190815260200160002060009054906101000a900473ffffffffffffffffffffffffffffffffffffffff166040518263ffffffff1660e01b81526004016114ff91906127fd565b60206040518083038186803b15801561151757600080fd5b505afa15801561152b573d6000803e3d6000fd5b505050506040513d601f19601f8201168201806040525081019061154f9190612c9f565b915050919050565b600960009054906101000a900473ffffffffffffffffffffffffffffffffffffffff1673ffffffffffffffffffffffffffffffffffffffff16638da5cb5b6040518163ffffffff1660e01b815260040160206040518083038186803b1580156115bf57600080fd5b505afa1580156115d3573d6000803e3d6000fd5b505050506040513d601f19601f820116820180604052508101906115f79190612ce1565b73ffffffffffffffffffffffffffffffffffffffff163373ffffffffffffffffffffffffffffffffffffffff161461162e57600080fd5b60016003015462278d00826116439190612bc4565b1161164d57600080fd5b8060016005018190555050565b60006001800154905090565b600960149054906101000a900460ff166116b5576040517f08c379a00000000000000000000000000000000000000000000000000000000081526004016116ac90612d80565b60405180910390fd5b6000600c5490506000600d54905060006116d0600b546113ba565b90506000600160070180548060200260200160405190810160405280929190818152602001828054801561172357602002820191906000526020600020905b81548152602001906001019080831161170f575b505050505090506000815167ffffffffffffffff8111156117475761174661235b565b5b6040519080825280602002602001820160405280156117755781602001602082028036833780820191505090505b5090506000600180015490506000835167ffffffffffffffff81111561179e5761179d61235b565b5b6040519080825280602002602001820160405280156117cc5781602001602082028036833780820191505090505b50905081600b5414156118405760005b845181101561183a576118088582815181106117fb576117fa612a0d565b5b60200260200101516113ba565b84828151811061181b5761181a612a0d565b5b602002602001018181525050808061183290612b25565b9150506117dc565b50611964565b600061184b836113ba565b84828151811061185e5761185d612a0d565b5b6020026020010181815250508282828151811061187e5761187d612a0d565b5b602002602001018181525050600190505b8451811161196257600b54856001836118a89190612bc4565b815181106118b9576118b8612a0d565b5b60200260200101511461194f57846001826118d49190612bc4565b815181106118e5576118e4612a0d565b5b6020026020010151828281518110611900576118ff612a0d565b5b60200260200101818152505061192f85828151811061192257611921612a0d565b5b60200260200101516113ba565b84828151811061194257611941612a0d565b5b6020026020010181815250505b808061195a90612b25565b91505061188f565b505b600080611973898989886104ce565b91509150611983600b5483611b74565b61198d838261205f565b505050505050505050565b60606000806000806060600160000160016002015460016003015460016004015460016005015460016006018580546119d090612efd565b80601f01602080910402602001604051908101604052809291908181526020018280546119fc90612efd565b8015611a495780601f10611a1e57610100808354040283529160200191611a49565b820191906000526020600020905b815481529060010190602001808311611a2c57829003601f168201915b50505050509550808054611a5c90612efd565b80601f0160208091040260200160405190810160405280929190818152602001828054611a8890612efd565b8015611ad55780601f10611aaa57610100808354040283529160200191611ad5565b820191906000526020600020905b815481529060010190602001808311611ab857829003601f168201915b50505050509050955095509550955095509550909192939495565b611af86120c7565b600073ffffffffffffffffffffffffffffffffffffffff168173ffffffffffffffffffffffffffffffffffffffff161415611b68576040517f08c379a0000000000000000000000000000000000000000000000000000000008152600401611b5f90612fa1565b60405180910390fd5b611b7181612145565b50565b600081118015611be45750600073ffffffffffffffffffffffffffffffffffffffff16600f600084815260200190815260200160002060009054906101000a900473ffffffffffffffffffffffffffffffffffffffff1673ffffffffffffffffffffffffffffffffffffffff1614155b15611cf257600f600083815260200190815260200160002060009054906101000a900473ffffffffffffffffffffffffffffffffffffffff1673ffffffffffffffffffffffffffffffffffffffff16632b1645b76011600085815260200190815260200160002060009054906101000a900473ffffffffffffffffffffffffffffffffffffffff166010600086815260200190815260200160002060009054906101000a900473ffffffffffffffffffffffffffffffffffffffff16846040518463ffffffff1660e01b8152600401611cbf93929190612da0565b600060405180830381600087803b158015611cd957600080fd5b505af1158015611ced573d6000803e3d6000fd5b505050505b5050565b600080600f60006001800154815260200190815260200160002060009054906101000a900473ffffffffffffffffffffffffffffffffffffffff169050600073ffffffffffffffffffffffffffffffffffffffff168173ffffffffffffffffffffffffffffffffffffffff161415611da3576040517f08c379a0000000000000000000000000000000000000000000000000000000008152600401611d9a90612c6a565b60405180910390fd5b60006001600701805480602002602001604051908101604052809291908181526020018280548015611df457602002820191906000526020600020905b815481526020019060010190808311611de0575b505050505090506000815190506000601060006001800154815260200190815260200160002060009054906101000a900473ffffffffffffffffffffffffffffffffffffffff1673ffffffffffffffffffffffffffffffffffffffff166370a08231856040518263ffffffff1660e01b8152600401611e7391906127fd565b60206040518083038186803b158015611e8b57600080fd5b505afa158015611e9f573d6000803e3d6000fd5b505050506040513d601f19601f82011682018060405250810190611ec39190612c9f565b905060005b82811015612054576000600f6000868481518110611ee957611ee8612a0d565b5b6020026020010151815260200190815260200160002060009054906101000a900473ffffffffffffffffffffffffffffffffffffffff169050600060106000878581518110611f3b57611f3a612a0d565b5b6020026020010151815260200190815260200160002060009054906101000a900473ffffffffffffffffffffffffffffffffffffffff169050600073ffffffffffffffffffffffffffffffffffffffff168273ffffffffffffffffffffffffffffffffffffffff161461203f578073ffffffffffffffffffffffffffffffffffffffff166370a08231836040518263ffffffff1660e01b8152600401611fe191906127fd565b60206040518083038186803b158015611ff957600080fd5b505afa15801561200d573d6000803e3d6000fd5b505050506040513d601f19601f820116820180604052508101906120319190612c9f565b8461203c9190612b6e565b93505b5050808061204c90612b25565b915050611ec8565b508094505050505090565b60008251905060005b818110156120c1576120ae84828151811061208657612085612a0d565b5b60200260200101518483815181106120a1576120a0612a0d565b5b6020026020010151611b74565b80806120b990612b25565b915050612068565b50505050565b6120cf612209565b73ffffffffffffffffffffffffffffffffffffffff166120ed611391565b73ffffffffffffffffffffffffffffffffffffffff1614612143576040517f08c379a000000000000000000000000000000000000000000000000000000000815260040161213a9061300d565b60405180910390fd5b565b60008060009054906101000a900473ffffffffffffffffffffffffffffffffffffffff169050816000806101000a81548173ffffffffffffffffffffffffffffffffffffffff021916908373ffffffffffffffffffffffffffffffffffffffff1602179055508173ffffffffffffffffffffffffffffffffffffffff168173ffffffffffffffffffffffffffffffffffffffff167f8be0079c531659141344cd1fd0a4f28419497f9722a3daafe3b4186f6b6457e060405160405180910390a35050565b600033905090565b600081519050919050565b600082825260208201905092915050565b6000819050602082019050919050565b6000819050919050565b6122508161223d565b82525050565b60006122628383612247565b60208301905092915050565b6000602082019050919050565b600061228682612211565b612290818561221c565b935061229b8361222d565b8060005b838110156122cc5781516122b38882612256565b97506122be8361226e565b92505060018101905061229f565b5085935050505092915050565b600060208201905081810360008301526122f3818461227b565b905092915050565b6000604051905090565b600080fd5b600080fd5b6000819050919050565b6123228161230f565b811461232d57600080fd5b50565b60008135905061233f81612319565b92915050565b600080fd5b6000601f19601f8301169050919050565b7f4e487b7100000000000000000000000000000000000000000000000000000000600052604160045260246000fd5b6123938261234a565b810181811067ffffffffffffffff821117156123b2576123b161235b565b5b80604052505050565b60006123c56122fb565b90506123d1828261238a565b919050565b600067ffffffffffffffff8211156123f1576123f061235b565b5b602082029050602081019050919050565b600080fd5b600061241a612415846123d6565b6123bb565b9050808382526020820190506020840283018581111561243d5761243c612402565b5b835b8181101561246657806124528882612330565b84526020840193505060208101905061243f565b5050509392505050565b600082601f83011261248557612484612345565b5b8135612495848260208601612407565b91505092915050565b600080604083850312156124b5576124b4612305565b5b60006124c385828601612330565b925050602083013567ffffffffffffffff8111156124e4576124e361230a565b5b6124f085828601612470565b9150509250929050565b600081519050919050565b600082825260208201905092915050565b6000819050602082019050919050565b61252f8161230f565b82525050565b60006125418383612526565b60208301905092915050565b6000602082019050919050565b6000612565826124fa565b61256f8185612505565b935061257a83612516565b8060005b838110156125ab5781516125928882612535565b975061259d8361254d565b92505060018101905061257e565b5085935050505092915050565b600060208201905081810360008301526125d2818461255a565b905092915050565b600080600080608085870312156125f4576125f3612305565b5b600061260287828801612330565b945050602061261387828801612330565b935050604061262487828801612330565b925050606085013567ffffffffffffffff8111156126455761264461230a565b5b61265187828801612470565b91505092959194509250565b6126668161230f565b82525050565b6000604082019050612681600083018561265d565b8181036020830152612693818461255a565b90509392505050565b60006020820190506126b1600083018461265d565b92915050565b6000602082840312156126cd576126cc612305565b5b60006126db84828501612330565b91505092915050565b6126ed8161223d565b81146126f857600080fd5b50565b60008135905061270a816126e4565b92915050565b600073ffffffffffffffffffffffffffffffffffffffff82169050919050565b600061273b82612710565b9050919050565b61274b81612730565b811461275657600080fd5b50565b60008135905061276881612742565b92915050565b60008060006060848603121561278757612786612305565b5b6000612795868287016126fb565b93505060206127a686828701612759565b92505060406127b786828701612330565b9150509250925092565b6000602082840312156127d7576127d6612305565b5b60006127e5848285016126fb565b91505092915050565b6127f781612730565b82525050565b600060208201905061281260008301846127ee565b92915050565b6000806000806080858703121561283257612831612305565b5b6000612840878288016126fb565b945050602061285187828801612759565b935050604061286287828801612759565b925050606061287387828801612759565b91505092959194509250565b6128888161223d565b82525050565b60006020820190506128a3600083018461287f565b92915050565b600081519050919050565b600082825260208201905092915050565b60005b838110156128e35780820151818401526020810190506128c8565b838111156128f2576000848401525b50505050565b6000612903826128a9565b61290d81856128b4565b935061291d8185602086016128c5565b6129268161234a565b840191505092915050565b600060c082019050818103600083015261294b81896128f8565b905061295a602083018861265d565b612967604083018761265d565b612974606083018661265d565b612981608083018561265d565b81810360a083015261299381846128f8565b9050979650505050505050565b6000602082840312156129b6576129b5612305565b5b60006129c484828501612759565b91505092915050565b600080604083850312156129e4576129e3612305565b5b60006129f2858286016126fb565b9250506020612a0385828601612330565b9150509250929050565b7f4e487b7100000000000000000000000000000000000000000000000000000000600052603260045260246000fd5b7f4e487b7100000000000000000000000000000000000000000000000000000000600052601160045260246000fd5b6000612a768261230f565b9150612a818361230f565b9250817fffffffffffffffffffffffffffffffffffffffffffffffffffffffffffffffff0483118215151615612aba57612ab9612a3c565b5b828202905092915050565b7f4e487b7100000000000000000000000000000000000000000000000000000000600052601260045260246000fd5b6000612aff8261230f565b9150612b0a8361230f565b925082612b1a57612b19612ac5565b5b828204905092915050565b6000612b308261230f565b91507fffffffffffffffffffffffffffffffffffffffffffffffffffffffffffffffff821415612b6357612b62612a3c565b5b600182019050919050565b6000612b798261230f565b9150612b848361230f565b9250827fffffffffffffffffffffffffffffffffffffffffffffffffffffffffffffffff03821115612bb957612bb8612a3c565b5b828201905092915050565b6000612bcf8261230f565b9150612bda8361230f565b925082821015612bed57612bec612a3c565b5b828203905092915050565b7f43616d706169676e496e666f3a204f726967696e20706c6174666f726d20747260008201527f656173757279206e6f7420736574207965740000000000000000000000000000602082015250565b6000612c546032836128b4565b9150612c5f82612bf8565b604082019050919050565b60006020820190508181036000830152612c8381612c47565b9050919050565b600081519050612c9981612319565b92915050565b600060208284031215612cb557612cb4612305565b5b6000612cc384828501612c8a565b91505092915050565b600081519050612cdb81612742565b92915050565b600060208284031215612cf757612cf6612305565b5b6000612d0584828501612ccc565b91505092915050565b7f43616d706169676e496e666f3a2052657761726420636c69656e74206e6f742060008201527f7365742079657400000000000000000000000000000000000000000000000000602082015250565b6000612d6a6027836128b4565b9150612d7582612d0e565b604082019050919050565b60006020820190508181036000830152612d9981612d5d565b9050919050565b6000606082019050612db560008301866127ee565b612dc260208301856127ee565b612dcf604083018461265d565b949350505050565b60008115159050919050565b612dec81612dd7565b8114612df757600080fd5b50565b600081519050612e0981612de3565b92915050565b600060208284031215612e2557612e24612305565b5b6000612e3384828501612dfa565b91505092915050565b7f43616d706169676e496e666f3a2054726561737572792061646472657373206660008201527f6f7220636c69656e74206973206e6f7420736574000000000000000000000000602082015250565b6000612e986034836128b4565b9150612ea382612e3c565b604082019050919050565b60006020820190508181036000830152612ec781612e8b565b9050919050565b7f4e487b7100000000000000000000000000000000000000000000000000000000600052602260045260246000fd5b60006002820490506001821680612f1557607f821691505b60208210811415612f2957612f28612ece565b5b50919050565b7f4f776e61626c653a206e6577206f776e657220697320746865207a65726f206160008201527f6464726573730000000000000000000000000000000000000000000000000000602082015250565b6000612f8b6026836128b4565b9150612f9682612f2f565b604082019050919050565b60006020820190508181036000830152612fba81612f7e565b9050919050565b7f4f776e61626c653a2063616c6c6572206973206e6f7420746865206f776e6572600082015250565b6000612ff76020836128b4565b915061300282612fc1565b602082019050919050565b6000602082019050818103600083015261302681612fea565b905091905056fea2646970667358221220e34da81064c82be140438db67784b60562c1977f1e07f46e066f1a64eeb6f5f964736f6c63430008090033a2646970667358221220a10464a428b5117bece75eedecae1518f075906b3ce642d72b0b08002b5c877964736f6c63430008090033",
  "linkReferences": {},
  "deployedLinkReferences": {}
}