{
  "_format": "hh-sol-artifact-1",
  "contractName": "CampaignInfoFactory",
  "sourceName": "contracts/CampaignInfoFactory.sol",
  "abi": [
    {
      "inputs": [
        {
          "internalType": "address",
          "name": "_registry",
          "type": "address"
        }
      ],
      "stateMutability": "nonpayable",
      "type": "constructor"
    },
    {
      "anonymous": false,
      "inputs": [
        {
          "indexed": false,
          "internalType": "string",
          "name": "identifier",
          "type": "string"
        },
        {
          "indexed": true,
          "internalType": "address",
          "name": "campaignInfoAddress",
          "type": "address"
        }
      ],
      "name": "campaignCreation",
      "type": "event"
    },
    {
      "inputs": [
        {
          "internalType": "address",
          "name": "_creator",
          "type": "address"
        },
        {
          "internalType": "string",
          "name": "_identifier",
          "type": "string"
        },
        {
          "internalType": "bytes32",
          "name": "_originPlatform",
          "type": "bytes32"
        },
        {
          "internalType": "string",
          "name": "_creatorUrl",
          "type": "string"
        },
        {
          "internalType": "bytes32[]",
          "name": "_reachPlatform",
          "type": "bytes32[]"
        },
        {
          "internalType": "uint256",
          "name": "_earlyPledgeAmount",
          "type": "uint256"
        }
      ],
      "name": "createCampaign",
      "outputs": [],
      "stateMutability": "nonpayable",
      "type": "function"
    }
  ],
  "bytecode": "0x608060405234801561001057600080fd5b50604051615a2a380380615a2a833981810160405281019061003291906100dc565b80600160006101000a81548173ffffffffffffffffffffffffffffffffffffffff021916908373ffffffffffffffffffffffffffffffffffffffff16021790555050610109565b600080fd5b600073ffffffffffffffffffffffffffffffffffffffff82169050919050565b60006100a98261007e565b9050919050565b6100b98161009e565b81146100c457600080fd5b50565b6000815190506100d6816100b0565b92915050565b6000602082840312156100f2576100f1610079565b5b6000610100848285016100c7565b91505092915050565b615912806101186000396000f3fe60806040523480156200001157600080fd5b50600436106200002e5760003560e01c8063c77e6f651462000033575b600080fd5b6200005160048036038101906200004b919062000580565b62000053565b005b84848484600160009054906101000a900473ffffffffffffffffffffffffffffffffffffffff168a866040516200008a9062000246565b6200009c97969594939291906200080d565b604051809103906000f080158015620000b9573d6000803e3d6000fd5b506000806101000a81548173ffffffffffffffffffffffffffffffffffffffff021916908373ffffffffffffffffffffffffffffffffffffffff16021790555060008060009054906101000a900473ffffffffffffffffffffffffffffffffffffffff169050600073ffffffffffffffffffffffffffffffffffffffff168173ffffffffffffffffffffffffffffffffffffffff1614156200015a57600080fd5b600160009054906101000a900473ffffffffffffffffffffffffffffffffffffffff1673ffffffffffffffffffffffffffffffffffffffff16632c64ba1587836040518363ffffffff1660e01b8152600401620001b99291906200089f565b600060405180830381600087803b158015620001d457600080fd5b505af1158015620001e9573d6000803e3d6000fd5b505050508073ffffffffffffffffffffffffffffffffffffffff167ff4d491a6f1d235565138b729aec590f73a429a7debf862af41af0d001ab8da3787604051620002359190620008d3565b60405180910390a250505050505050565b614fe580620008f883390190565b6000604051905090565b600080fd5b600080fd5b600073ffffffffffffffffffffffffffffffffffffffff82169050919050565b6000620002958262000268565b9050919050565b620002a78162000288565b8114620002b357600080fd5b50565b600081359050620002c7816200029c565b92915050565b600080fd5b600080fd5b6000601f19601f8301169050919050565b7f4e487b7100000000000000000000000000000000000000000000000000000000600052604160045260246000fd5b6200032282620002d7565b810181811067ffffffffffffffff82111715620003445762000343620002e8565b5b80604052505050565b60006200035962000254565b905062000367828262000317565b919050565b600067ffffffffffffffff8211156200038a5762000389620002e8565b5b6200039582620002d7565b9050602081019050919050565b82818337600083830152505050565b6000620003c8620003c2846200036c565b6200034d565b905082815260208101848484011115620003e757620003e6620002d2565b5b620003f4848285620003a2565b509392505050565b600082601f830112620004145762000413620002cd565b5b813562000426848260208601620003b1565b91505092915050565b6000819050919050565b62000444816200042f565b81146200045057600080fd5b50565b600081359050620004648162000439565b92915050565b600067ffffffffffffffff821115620004885762000487620002e8565b5b602082029050602081019050919050565b600080fd5b6000620004b5620004af846200046a565b6200034d565b90508083825260208201905060208402830185811115620004db57620004da62000499565b5b835b81811015620005085780620004f3888262000453565b845260208401935050602081019050620004dd565b5050509392505050565b600082601f8301126200052a5762000529620002cd565b5b81356200053c8482602086016200049e565b91505092915050565b6000819050919050565b6200055a8162000545565b81146200056657600080fd5b50565b6000813590506200057a816200054f565b92915050565b60008060008060008060c08789031215620005a0576200059f6200025e565b5b6000620005b089828a01620002b6565b965050602087013567ffffffffffffffff811115620005d457620005d362000263565b5b620005e289828a01620003fc565b9550506040620005f589828a0162000453565b945050606087013567ffffffffffffffff81111562000619576200061862000263565b5b6200062789828a01620003fc565b935050608087013567ffffffffffffffff8111156200064b576200064a62000263565b5b6200065989828a0162000512565b92505060a06200066c89828a0162000569565b9150509295509295509295565b600081519050919050565b600082825260208201905092915050565b60005b83811015620006b557808201518184015260208101905062000698565b83811115620006c5576000848401525b50505050565b6000620006d88262000679565b620006e4818562000684565b9350620006f681856020860162000695565b6200070181620002d7565b840191505092915050565b62000717816200042f565b82525050565b600081519050919050565b600082825260208201905092915050565b6000819050602082019050919050565b62000754816200042f565b82525050565b600062000768838362000749565b60208301905092915050565b6000602082019050919050565b60006200078e826200071d565b6200079a818562000728565b9350620007a78362000739565b8060005b83811015620007de578151620007c288826200075a565b9750620007cf8362000774565b925050600181019050620007ab565b5085935050505092915050565b620007f68162000288565b82525050565b620008078162000545565b82525050565b600060e082019050818103600083015262000829818a620006cb565b90506200083a60208301896200070c565b81810360408301526200084e8188620006cb565b9050818103606083015262000864818762000781565b9050620008756080830186620007eb565b6200088460a0830185620007eb565b6200089360c0830184620007fc565b98975050505050505050565b60006040820190508181036000830152620008bb8185620006cb565b9050620008cc6020830184620007eb565b9392505050565b60006020820190508181036000830152620008ef8184620006cb565b90509291505056fe60806040523480156200001157600080fd5b5060405162004fe538038062004fe58339818101604052810190620000379190620007d7565b620000576200004b6200014660201b60201c565b6200014e60201b60201c565b60008060146101000a81548160ff02191690831515021790555086600360000190805190602001906200008c92919062000363565b5085600360010181905550426003600401819055508460036006019080519060200190620000bc92919062000363565b508360036007019080519060200190620000d8929190620003f4565b5082600b60006101000a81548173ffffffffffffffffffffffffffffffffffffffff021916908373ffffffffffffffffffffffffffffffffffffffff1602179055504260108190555062000132826200021260201b60201c565b80600d819055505050505050505062000a67565b600033905090565b60008060009054906101000a900473ffffffffffffffffffffffffffffffffffffffff169050816000806101000a81548173ffffffffffffffffffffffffffffffffffffffff021916908373ffffffffffffffffffffffffffffffffffffffff1602179055508173ffffffffffffffffffffffffffffffffffffffff168173ffffffffffffffffffffffffffffffffffffffff167f8be0079c531659141344cd1fd0a4f28419497f9722a3daafe3b4186f6b6457e060405160405180910390a35050565b62000222620002a960201b60201c565b600073ffffffffffffffffffffffffffffffffffffffff168173ffffffffffffffffffffffffffffffffffffffff16141562000295576040517f08c379a00000000000000000000000000000000000000000000000000000000081526004016200028c906200096e565b60405180910390fd5b620002a6816200014e60201b60201c565b50565b620002b96200014660201b60201c565b73ffffffffffffffffffffffffffffffffffffffff16620002df6200033a60201b60201c565b73ffffffffffffffffffffffffffffffffffffffff161462000338576040517f08c379a00000000000000000000000000000000000000000000000000000000081526004016200032f90620009e0565b60405180910390fd5b565b60008060009054906101000a900473ffffffffffffffffffffffffffffffffffffffff16905090565b828054620003719062000a31565b90600052602060002090601f016020900481019282620003955760008555620003e1565b82601f10620003b057805160ff1916838001178555620003e1565b82800160010185558215620003e1579182015b82811115620003e0578251825591602001919060010190620003c3565b5b509050620003f0919062000446565b5090565b82805482825590600052602060002090810192821562000433579160200282015b828111156200043257825182559160200191906001019062000415565b5b50905062000442919062000465565b5090565b5b808211156200046157600081600090555060010162000447565b5090565b5b808211156200048057600081600090555060010162000466565b5090565b6000604051905090565b600080fd5b600080fd5b600080fd5b600080fd5b6000601f19601f8301169050919050565b7f4e487b7100000000000000000000000000000000000000000000000000000000600052604160045260246000fd5b620004ed82620004a2565b810181811067ffffffffffffffff821117156200050f576200050e620004b3565b5b80604052505050565b60006200052462000484565b9050620005328282620004e2565b919050565b600067ffffffffffffffff821115620005555762000554620004b3565b5b6200056082620004a2565b9050602081019050919050565b60005b838110156200058d57808201518184015260208101905062000570565b838111156200059d576000848401525b50505050565b6000620005ba620005b48462000537565b62000518565b905082815260208101848484011115620005d957620005d86200049d565b5b620005e68482856200056d565b509392505050565b600082601f83011262000606576200060562000498565b5b815162000618848260208601620005a3565b91505092915050565b6000819050919050565b620006368162000621565b81146200064257600080fd5b50565b60008151905062000656816200062b565b92915050565b600067ffffffffffffffff8211156200067a5762000679620004b3565b5b602082029050602081019050919050565b600080fd5b6000620006a7620006a1846200065c565b62000518565b90508083825260208201905060208402830185811115620006cd57620006cc6200068b565b5b835b81811015620006fa5780620006e5888262000645565b845260208401935050602081019050620006cf565b5050509392505050565b600082601f8301126200071c576200071b62000498565b5b81516200072e84826020860162000690565b91505092915050565b600073ffffffffffffffffffffffffffffffffffffffff82169050919050565b6000620007648262000737565b9050919050565b620007768162000757565b81146200078257600080fd5b50565b60008151905062000796816200076b565b92915050565b6000819050919050565b620007b1816200079c565b8114620007bd57600080fd5b50565b600081519050620007d181620007a6565b92915050565b600080600080600080600060e0888a031215620007f957620007f86200048e565b5b600088015167ffffffffffffffff8111156200081a576200081962000493565b5b620008288a828b01620005ee565b97505060206200083b8a828b0162000645565b965050604088015167ffffffffffffffff8111156200085f576200085e62000493565b5b6200086d8a828b01620005ee565b955050606088015167ffffffffffffffff81111562000891576200089062000493565b5b6200089f8a828b0162000704565b9450506080620008b28a828b0162000785565b93505060a0620008c58a828b0162000785565b92505060c0620008d88a828b01620007c0565b91505092959891949750929550565b600082825260208201905092915050565b7f4f776e61626c653a206e6577206f776e657220697320746865207a65726f206160008201527f6464726573730000000000000000000000000000000000000000000000000000602082015250565b600062000956602683620008e7565b91506200096382620008f8565b604082019050919050565b60006020820190508181036000830152620009898162000947565b9050919050565b7f4f776e61626c653a2063616c6c6572206973206e6f7420746865206f776e6572600082015250565b6000620009c8602083620008e7565b9150620009d58262000990565b602082019050919050565b60006020820190508181036000830152620009fb81620009b9565b9050919050565b7f4e487b7100000000000000000000000000000000000000000000000000000000600052602260045260246000fd5b6000600282049050600182168062000a4a57607f821691505b6020821081141562000a615762000a6062000a02565b5b50919050565b61456e8062000a776000396000f3fe608060405234801561001057600080fd5b50600436106101e55760003560e01c80637712b1721161010f578063c4176338116100a2578063efbe1c1c11610071578063efbe1c1c1461050d578063f2fde38b14610517578063f840367614610533578063fb7846df14610551576101e5565b8063c417633814610482578063c512ad4c146104a5578063deaaf241146104c1578063e12900f2146104dd576101e5565b806384ea5c74116100de57806384ea5c74146103fa5780638da5cb5b1461042a578063a0797f7514610448578063b1c1f7f214610466576101e5565b80637712b1721461039a5780637ed8a719146103b857806383d23ab3146103d45780638456cb59146103f0576101e5565b806337724c751161018757806368027e431161015657806368027e431461034e578063695c27c21461036a578063715018a6146103865780637568173b14610390576101e5565b806337724c75146102da5780633f4ba83a1461030a57806342af1884146103145780635c975abb14610330576101e5565b806319576124116101c357806319576124146102525780632e162db61461027057806330c00b001461028e578063316fb7c4146102be576101e5565b806301e81781146101ea57806311d6081c1461021a57806319188bd814610236575b600080fd5b61020460048036038101906101ff9190612f3f565b610581565b6040516102119190612fcc565b60405180910390f35b610234600480360381019061022f9190613013565b610964565b005b610250600480360381019061024b919061334b565b610b37565b005b61025a610c04565b604051610267919061341a565b60405180910390f35b610278610c0a565b60405161028591906134f3565b60405180910390f35b6102a860048036038101906102a39190613515565b610c65565b6040516102b59190612fcc565b60405180910390f35b6102d860048036038101906102d39190613542565b610e02565b005b6102f460048036038101906102ef919061356f565b610e67565b6040516103019190612fcc565b60405180910390f35b610312611157565b005b61032e60048036038101906103299190613542565b6111b9565b005b61033861123b565b60405161034591906135ca565b60405180910390f35b61036860048036038101906103639190613542565b611251565b005b610384600480360381019061037f9190613611565b6112d3565b005b61038e61132b565b005b61039861133f565b005b6103a261181f565b6040516103af9190612fcc565b60405180910390f35b6103d260048036038101906103cd9190613678565b611825565b005b6103ee60048036038101906103e99190613515565b61185e565b005b6103f86118e5565b005b610414600480360381019061040f9190613515565b611947565b6040516104219190613708565b60405180910390f35b610432611a29565b60405161043f9190613708565b60405180910390f35b610450611a52565b60405161045d919061341a565b60405180910390f35b610480600480360381019061047b9190613723565b611a5f565b005b61048a611c92565b60405161049c969594939291906137fe565b60405180910390f35b6104bf60048036038101906104ba919061386d565b611de9565b005b6104db60048036038101906104d691906138ad565b6120ae565b005b6104f760048036038101906104f29190613914565b612202565b6040516105049190612fcc565b60405180910390f35b61051561225d565b005b610531600480360381019061052c9190613954565b6122d2565b005b61053b612356565b6040516105489190612fcc565b60405180910390f35b61056b60048036038101906105669190613515565b6126c1565b6040516105789190612fcc565b60405180910390f35b6000600b60149054906101000a900460ff16156105d3576040517f08c379a00000000000000000000000000000000000000000000000000000000081526004016105ca906139cd565b60405180910390fd5b6105db6127b9565b600e60009054906101000a900460ff1680156105fa5750426003800154105b610639576040517f08c379a000000000000000000000000000000000000000000000000000000000815260040161063090613a39565b60405180910390fd5b60006012600087815260200190815260200160002060009054906101000a900473ffffffffffffffffffffffffffffffffffffffff169050600060018585604051610685929190613a89565b9081526020016040518091039020600001549050601560008773ffffffffffffffffffffffffffffffffffffffff1673ffffffffffffffffffffffffffffffffffffffff16815260200190815260200160002060009054906101000a900460ff161561075457600d54816106f99190613ad1565b90506000601560008873ffffffffffffffffffffffffffffffffffffffff1673ffffffffffffffffffffffffffffffffffffffff16815260200190815260200160002060006101000a81548160ff0219169083151502179055505b8173ffffffffffffffffffffffffffffffffffffffff166323b872dd87601160008b815260200190815260200160002060009054906101000a900473ffffffffffffffffffffffffffffffffffffffff16846040518463ffffffff1660e01b81526004016107c493929190613b05565b602060405180830381600087803b1580156107de57600080fd5b505af11580156107f2573d6000803e3d6000fd5b505050506040513d601f19601f820116820180604052508101906108169190613b51565b50600b60009054906101000a900473ffffffffffffffffffffffffffffffffffffffff1673ffffffffffffffffffffffffffffffffffffffff166330525f666040518163ffffffff1660e01b815260040160206040518083038186803b15801561087f57600080fd5b505afa158015610893573d6000803e3d6000fd5b505050506040513d601f19601f820116820180604052508101906108b79190613b93565b73ffffffffffffffffffffffffffffffffffffffff16634ebc0c198784600d54856108e29190613bc0565b8b8a8a6040518763ffffffff1660e01b815260040161090696959493929190613c43565b602060405180830381600087803b15801561092057600080fd5b505af1158015610934573d6000803e3d6000fd5b505050506040513d601f19601f820116820180604052508101906109589190613cb4565b92505050949350505050565b6000601460008573ffffffffffffffffffffffffffffffffffffffff1673ffffffffffffffffffffffffffffffffffffffff1681526020019081526020016000206000838152602001908152602001600020549050808311156109fc576040517f08c379a00000000000000000000000000000000000000000000000000000000081526004016109f390613d2d565b60405180910390fd5b8281610a089190613ad1565b601460008673ffffffffffffffffffffffffffffffffffffffff1673ffffffffffffffffffffffffffffffffffffffff1681526020019081526020016000206000848152602001908152602001600020819055506011600083815260200190815260200160002060009054906101000a900473ffffffffffffffffffffffffffffffffffffffff1673ffffffffffffffffffffffffffffffffffffffff166360a56b3a856012600086815260200190815260200160002060009054906101000a900473ffffffffffffffffffffffffffffffffffffffff16866040518463ffffffff1660e01b8152600401610aff93929190613b05565b600060405180830381600087803b158015610b1957600080fd5b505af1158015610b2d573d6000803e3d6000fd5b5050505050505050565b600060018686604051610b4b929190613a89565b9081526020016040518091039020905083816000018190555082816002019080519060200190610b7c929190612c45565b5060008251905060005b81811015610bfa57838181518110610ba157610ba0613d4d565b5b602002602001015183600301868381518110610bc057610bbf613d4d565b5b6020026020010151604051610bd59190613dad565b9081526020016040518091039020819055508080610bf290613dc4565b915050610b86565b5050505050505050565b600f5481565b60606003600701805480602002602001604051908101604052809291908181526020018280548015610c5b57602002820191906000526020600020905b815481526020019060010190808311610c47575b5050505050905090565b600081600073ffffffffffffffffffffffffffffffffffffffff166011600083815260200190815260200160002060009054906101000a900473ffffffffffffffffffffffffffffffffffffffff1673ffffffffffffffffffffffffffffffffffffffff161415610d0b576040517f08c379a0000000000000000000000000000000000000000000000000000000008152600401610d0290613e7f565b60405180910390fd5b6012600084815260200190815260200160002060009054906101000a900473ffffffffffffffffffffffffffffffffffffffff1673ffffffffffffffffffffffffffffffffffffffff166370a082316011600086815260200190815260200160002060009054906101000a900473ffffffffffffffffffffffffffffffffffffffff166040518263ffffffff1660e01b8152600401610daa9190613708565b60206040518083038186803b158015610dc257600080fd5b505afa158015610dd6573d6000803e3d6000fd5b505050506040513d601f19601f82011682018060405250810190610dfa9190613cb4565b915050919050565b600b60149054906101000a900460ff1615610e52576040517f08c379a0000000000000000000000000000000000000000000000000000000008152600401610e49906139cd565b60405180910390fd5b610e5a612803565b8060036002018190555050565b6000600b60149054906101000a900460ff1615610eb9576040517f08c379a0000000000000000000000000000000000000000000000000000000008152600401610eb0906139cd565b60405180910390fd5b610ec16127b9565b600e60009054906101000a900460ff161580610ee05750426003800154115b610f1f576040517f08c379a0000000000000000000000000000000000000000000000000000000008152600401610f1690613eeb565b60405180910390fd5b60006012600085815260200190815260200160002060009054906101000a900473ffffffffffffffffffffffffffffffffffffffff1690508073ffffffffffffffffffffffffffffffffffffffff166323b872dd846011600088815260200190815260200160002060009054906101000a900473ffffffffffffffffffffffffffffffffffffffff16600d546040518463ffffffff1660e01b8152600401610fc993929190613b05565b602060405180830381600087803b158015610fe357600080fd5b505af1158015610ff7573d6000803e3d6000fd5b505050506040513d601f19601f8201168201806040525081019061101b9190613b51565b50600b60009054906101000a900473ffffffffffffffffffffffffffffffffffffffff1673ffffffffffffffffffffffffffffffffffffffff166330525f666040518163ffffffff1660e01b815260040160206040518083038186803b15801561108457600080fd5b505afa158015611098573d6000803e3d6000fd5b505050506040513d601f19601f820116820180604052508101906110bc9190613b93565b73ffffffffffffffffffffffffffffffffffffffff16638e48312f8483600d54886040518563ffffffff1660e01b81526004016110fc9493929190613f0b565b602060405180830381600087803b15801561111657600080fd5b505af115801561112a573d6000803e3d6000fd5b505050506040513d601f19601f8201168201806040525081019061114e9190613cb4565b91505092915050565b600b60149054906101000a900460ff16156111a7576040517f08c379a000000000000000000000000000000000000000000000000000000000815260040161119e906139cd565b60405180910390fd5b6111af612803565b6111b7612881565b565b600b60149054906101000a900460ff1615611209576040517f08c379a0000000000000000000000000000000000000000000000000000000008152600401611200906139cd565b60405180910390fd5b611211612803565b80600c5460038001546112249190613bc0565b1061122e57600080fd5b8060036005018190555050565b60008060149054906101000a900460ff16905090565b600b60149054906101000a900460ff16156112a1576040517f08c379a0000000000000000000000000000000000000000000000000000000008152600401611298906139cd565b60405180910390fd5b6112a9612803565b600360050154600c54826112bd9190613bc0565b106112c757600080fd5b80600380018190555050565b836003800181905550826003600501819055508160036002018190555080600e60016101000a81548160ff0219169083151502179055506001600e60006101000a81548160ff02191690831515021790555050505050565b611333612803565b61133d60006128e3565b565b6000600b60009054906101000a900473ffffffffffffffffffffffffffffffffffffffff1673ffffffffffffffffffffffffffffffffffffffff16635bad43996040518163ffffffff1660e01b815260040160206040518083038186803b1580156113a957600080fd5b505afa1580156113bd573d6000803e3d6000fd5b505050506040513d601f19601f820116820180604052508101906113e19190613b93565b90506000600360070180548060200260200160405190810160405280929190818152602001828054801561143457602002820191906000526020600020905b815481526020019060010190808311611420575b5050505050905060006001825161144b9190613bc0565b67ffffffffffffffff81111561146457611463613077565b5b6040519080825280602002602001820160405280156114925781602001602082028036833780820191505090505b5090506000600183516114a59190613bc0565b67ffffffffffffffff8111156114be576114bd613077565b5b6040519080825280602002602001820160405280156114ec5781602001602082028036833780820191505090505b50905060005b835181101561158a5783818151811061150e5761150d613d4d565b5b602002602001015183828151811061152957611528613d4d565b5b60200260200101818152505061155884828151811061154b5761154a613d4d565b5b6020026020010151610c65565b82828151811061156b5761156a613d4d565b5b602002602001018181525050808061158290613dc4565b9150506114f2565b50600360010154828451815181106115a5576115a4613d4d565b5b6020026020010181815250506115bf600360010154610c65565b818451815181106115d3576115d2613d4d565b5b6020026020010181815250506000600b60009054906101000a900473ffffffffffffffffffffffffffffffffffffffff1673ffffffffffffffffffffffffffffffffffffffff16630eeaef466040518163ffffffff1660e01b815260040160206040518083038186803b15801561164957600080fd5b505afa15801561165d573d6000803e3d6000fd5b505050506040513d601f19601f820116820180604052508101906116819190613b93565b73ffffffffffffffffffffffffffffffffffffffff1663bdec30ba8673ffffffffffffffffffffffffffffffffffffffff16638274f2d66040518163ffffffff1660e01b815260040160206040518083038186803b1580156116e257600080fd5b505afa1580156116f6573d6000803e3d6000fd5b505050506040513d601f19601f8201168201806040525081019061171a9190613cb4565b8773ffffffffffffffffffffffffffffffffffffffff1663fe6f1b056040518163ffffffff1660e01b815260040160206040518083038186803b15801561176057600080fd5b505afa158015611774573d6000803e3d6000fd5b505050506040513d601f19601f820116820180604052508101906117989190613cb4565b856040518463ffffffff1660e01b81526004016117b79392919061400e565b60006040518083038186803b1580156117cf57600080fd5b505afa1580156117e3573d6000803e3d6000fd5b505050506040513d6000823e3d601f19601f8201168201806040525081019061180c91906140e3565b905061181883826129a7565b5050505050565b60105481565b818160028686604051611839929190613a89565b90815260200160405180910390206000019190611857929190612ca5565b5050505050565b600b60149054906101000a900460ff16156118ae576040517f08c379a00000000000000000000000000000000000000000000000000000000081526004016118a5906139cd565b60405180910390fd5b6118b6612803565b600360070181908060018154018082558091505060019003906000526020600020016000909190919091505550565b600b60149054906101000a900460ff1615611935576040517f08c379a000000000000000000000000000000000000000000000000000000000815260040161192c906139cd565b60405180910390fd5b61193d612803565b611945612a0f565b565b600081600073ffffffffffffffffffffffffffffffffffffffff166011600083815260200190815260200160002060009054906101000a900473ffffffffffffffffffffffffffffffffffffffff1673ffffffffffffffffffffffffffffffffffffffff1614156119ed576040517f08c379a00000000000000000000000000000000000000000000000000000000081526004016119e490613e7f565b60405180910390fd5b6011600084815260200190815260200160002060009054906101000a900473ffffffffffffffffffffffffffffffffffffffff16915050919050565b60008060009054906101000a900473ffffffffffffffffffffffffffffffffffffffff16905090565b6000600360010154905090565b600b60149054906101000a900460ff1615611aaf576040517f08c379a0000000000000000000000000000000000000000000000000000000008152600401611aa6906139cd565b60405180910390fd5b611ab76127b9565b426003600501541015611b2c57600360020154611ad2612356565b10158015611aec5750600e60019054906101000a900460ff165b611b2b576040517f08c379a0000000000000000000000000000000000000000000000000000000008152600401611b2290613eeb565b60405180910390fd5b5b42600380015410611b3c57600080fd5b60006012600085815260200190815260200160002060009054906101000a900473ffffffffffffffffffffffffffffffffffffffff1690508073ffffffffffffffffffffffffffffffffffffffff166323b872dd846011600088815260200190815260200160002060009054906101000a900473ffffffffffffffffffffffffffffffffffffffff16856040518463ffffffff1660e01b8152600401611be493929190613b05565b602060405180830381600087803b158015611bfe57600080fd5b505af1158015611c12573d6000803e3d6000fd5b505050506040513d601f19601f82011682018060405250810190611c369190613b51565b5081601460008573ffffffffffffffffffffffffffffffffffffffff1673ffffffffffffffffffffffffffffffffffffffff16815260200190815260200160002060008681526020019081526020016000208190555050505050565b60606000806000806060600360000160036002015460038001546003600401546003600501546003600601858054611cc99061415b565b80601f0160208091040260200160405190810160405280929190818152602001828054611cf59061415b565b8015611d425780601f10611d1757610100808354040283529160200191611d42565b820191906000526020600020905b815481529060010190602001808311611d2557829003601f168201915b50505050509550808054611d559061415b565b80601f0160208091040260200160405190810160405280929190818152602001828054611d819061415b565b8015611dce5780601f10611da357610100808354040283529160200191611dce565b820191906000526020600020905b815481529060010190602001808311611db157829003601f168201915b50505050509050955095509550955095509550909192939495565b6000600b60009054906101000a900473ffffffffffffffffffffffffffffffffffffffff1673ffffffffffffffffffffffffffffffffffffffff166330525f666040518163ffffffff1660e01b815260040160206040518083038186803b158015611e5357600080fd5b505afa158015611e67573d6000803e3d6000fd5b505050506040513d601f19601f82011682018060405250810190611e8b9190613b93565b9050606060008273ffffffffffffffffffffffffffffffffffffffff1663c20c42f8856040518263ffffffff1660e01b8152600401611eca9190612fcc565b60006040518083038186803b158015611ee257600080fd5b505afa158015611ef6573d6000803e3d6000fd5b505050506040513d6000823e3d601f19601f82011682018060405250810190611f1f9190614212565b9091929394955090919293945090919293509091925090915080935081925050506000600183604051611f529190613dad565b90815260200160405180910390206000015490508373ffffffffffffffffffffffffffffffffffffffff166342966c68866040518263ffffffff1660e01b8152600401611f9f9190612fcc565b600060405180830381600087803b158015611fb957600080fd5b505af1158015611fcd573d6000803e3d6000fd5b505050506011600083815260200190815260200160002060009054906101000a900473ffffffffffffffffffffffffffffffffffffffff1673ffffffffffffffffffffffffffffffffffffffff166360a56b3a876012600086815260200190815260200160002060009054906101000a900473ffffffffffffffffffffffffffffffffffffffff16846040518463ffffffff1660e01b815260040161207493929190613b05565b600060405180830381600087803b15801561208e57600080fd5b505af11580156120a2573d6000803e3d6000fd5b50505050505050505050565b600b60149054906101000a900460ff16156120fe576040517f08c379a00000000000000000000000000000000000000000000000000000000081526004016120f5906139cd565b60405180910390fd5b612106612803565b826013600086815260200190815260200160002060006101000a81548173ffffffffffffffffffffffffffffffffffffffff021916908373ffffffffffffffffffffffffffffffffffffffff160217905550816011600086815260200190815260200160002060006101000a81548173ffffffffffffffffffffffffffffffffffffffff021916908373ffffffffffffffffffffffffffffffffffffffff160217905550806012600086815260200190815260200160002060006101000a81548173ffffffffffffffffffffffffffffffffffffffff021916908373ffffffffffffffffffffffffffffffffffffffff16021790555050505050565b6000601460008473ffffffffffffffffffffffffffffffffffffffff1673ffffffffffffffffffffffffffffffffffffffff168152602001908152602001600020600083815260200190815260200160002054905092915050565b600b60149054906101000a900460ff16156122ad576040517f08c379a00000000000000000000000000000000000000000000000000000000081526004016122a4906139cd565b60405180910390fd5b6122b5612803565b6001600b60146101000a81548160ff021916908315150217905550565b6122da612803565b600073ffffffffffffffffffffffffffffffffffffffff168173ffffffffffffffffffffffffffffffffffffffff16141561234a576040517f08c379a000000000000000000000000000000000000000000000000000000000815260040161234190614342565b60405180910390fd5b612353816128e3565b50565b60008060116000600360010154815260200190815260200160002060009054906101000a900473ffffffffffffffffffffffffffffffffffffffff169050600073ffffffffffffffffffffffffffffffffffffffff168173ffffffffffffffffffffffffffffffffffffffff161415612404576040517f08c379a00000000000000000000000000000000000000000000000000000000081526004016123fb906143d4565b60405180910390fd5b6000600360070180548060200260200160405190810160405280929190818152602001828054801561245557602002820191906000526020600020905b815481526020019060010190808311612441575b50505050509050600081519050600060126000600360010154815260200190815260200160002060009054906101000a900473ffffffffffffffffffffffffffffffffffffffff1673ffffffffffffffffffffffffffffffffffffffff166370a08231856040518263ffffffff1660e01b81526004016124d59190613708565b60206040518083038186803b1580156124ed57600080fd5b505afa158015612501573d6000803e3d6000fd5b505050506040513d601f19601f820116820180604052508101906125259190613cb4565b905060005b828110156126b65760006011600086848151811061254b5761254a613d4d565b5b6020026020010151815260200190815260200160002060009054906101000a900473ffffffffffffffffffffffffffffffffffffffff16905060006012600087858151811061259d5761259c613d4d565b5b6020026020010151815260200190815260200160002060009054906101000a900473ffffffffffffffffffffffffffffffffffffffff169050600073ffffffffffffffffffffffffffffffffffffffff168273ffffffffffffffffffffffffffffffffffffffff16146126a1578073ffffffffffffffffffffffffffffffffffffffff166370a08231836040518263ffffffff1660e01b81526004016126439190613708565b60206040518083038186803b15801561265b57600080fd5b505afa15801561266f573d6000803e3d6000fd5b505050506040513d601f19601f820116820180604052508101906126939190613cb4565b8461269e9190613bc0565b93505b505080806126ae90613dc4565b91505061252a565b508094505050505090565b60006012600083815260200190815260200160002060009054906101000a900473ffffffffffffffffffffffffffffffffffffffff1673ffffffffffffffffffffffffffffffffffffffff166370a082316011600085815260200190815260200160002060009054906101000a900473ffffffffffffffffffffffffffffffffffffffff166040518263ffffffff1660e01b81526004016127629190613708565b60206040518083038186803b15801561277a57600080fd5b505afa15801561278e573d6000803e3d6000fd5b505050506040513d601f19601f820116820180604052508101906127b29190613cb4565b9050919050565b6127c161123b565b15612801576040517f08c379a00000000000000000000000000000000000000000000000000000000081526004016127f890614440565b60405180910390fd5b565b61280b612a72565b73ffffffffffffffffffffffffffffffffffffffff16612829611a29565b73ffffffffffffffffffffffffffffffffffffffff161461287f576040517f08c379a0000000000000000000000000000000000000000000000000000000008152600401612876906144ac565b60405180910390fd5b565b612889612a7a565b60008060146101000a81548160ff0219169083151502179055507f5db9ee0a495bf2e6ff9c91a7834c1ba4fdd244a5e8aa4e537bd38aeae4b073aa6128cc612a72565b6040516128d99190613708565b60405180910390a1565b60008060009054906101000a900473ffffffffffffffffffffffffffffffffffffffff169050816000806101000a81548173ffffffffffffffffffffffffffffffffffffffff021916908373ffffffffffffffffffffffffffffffffffffffff1602179055508173ffffffffffffffffffffffffffffffffffffffff168173ffffffffffffffffffffffffffffffffffffffff167f8be0079c531659141344cd1fd0a4f28419497f9722a3daafe3b4186f6b6457e060405160405180910390a35050565b60008251905060005b81811015612a09576129f68482815181106129ce576129cd613d4d565b5b60200260200101518483815181106129e9576129e8613d4d565b5b6020026020010151612ac3565b8080612a0190613dc4565b9150506129b0565b50505050565b612a176127b9565b6001600060146101000a81548160ff0219169083151502179055507f62e78cea01bee320cd4e420270b5ea74000d11b0c9f74754ebdbfc544b05a258612a5b612a72565b604051612a689190613708565b60405180910390a1565b600033905090565b612a8261123b565b612ac1576040517f08c379a0000000000000000000000000000000000000000000000000000000008152600401612ab890614518565b60405180910390fd5b565b600081118015612b335750600073ffffffffffffffffffffffffffffffffffffffff166011600084815260200190815260200160002060009054906101000a900473ffffffffffffffffffffffffffffffffffffffff1673ffffffffffffffffffffffffffffffffffffffff1614155b15612c41576011600083815260200190815260200160002060009054906101000a900473ffffffffffffffffffffffffffffffffffffffff1673ffffffffffffffffffffffffffffffffffffffff166360a56b3a6013600085815260200190815260200160002060009054906101000a900473ffffffffffffffffffffffffffffffffffffffff166012600086815260200190815260200160002060009054906101000a900473ffffffffffffffffffffffffffffffffffffffff16846040518463ffffffff1660e01b8152600401612c0e93929190613b05565b600060405180830381600087803b158015612c2857600080fd5b505af1158015612c3c573d6000803e3d6000fd5b505050505b5050565b828054828255906000526020600020908101928215612c94579160200282015b82811115612c93578251829080519060200190612c83929190612d2b565b5091602001919060010190612c65565b5b509050612ca19190612db1565b5090565b828054612cb19061415b565b90600052602060002090601f016020900481019282612cd35760008555612d1a565b82601f10612cec57803560ff1916838001178555612d1a565b82800160010185558215612d1a579182015b82811115612d19578235825591602001919060010190612cfe565b5b509050612d279190612dd5565b5090565b828054612d379061415b565b90600052602060002090601f016020900481019282612d595760008555612da0565b82601f10612d7257805160ff1916838001178555612da0565b82800160010185558215612da0579182015b82811115612d9f578251825591602001919060010190612d84565b5b509050612dad9190612dd5565b5090565b5b80821115612dd15760008181612dc89190612df2565b50600101612db2565b5090565b5b80821115612dee576000816000905550600101612dd6565b5090565b508054612dfe9061415b565b6000825580601f10612e105750612e2f565b601f016020900490600052602060002090810190612e2e9190612dd5565b5b50565b6000604051905090565b600080fd5b600080fd5b6000819050919050565b612e5981612e46565b8114612e6457600080fd5b50565b600081359050612e7681612e50565b92915050565b600073ffffffffffffffffffffffffffffffffffffffff82169050919050565b6000612ea782612e7c565b9050919050565b612eb781612e9c565b8114612ec257600080fd5b50565b600081359050612ed481612eae565b92915050565b600080fd5b600080fd5b600080fd5b60008083601f840112612eff57612efe612eda565b5b8235905067ffffffffffffffff811115612f1c57612f1b612edf565b5b602083019150836001820283011115612f3857612f37612ee4565b5b9250929050565b60008060008060608587031215612f5957612f58612e3c565b5b6000612f6787828801612e67565b9450506020612f7887828801612ec5565b935050604085013567ffffffffffffffff811115612f9957612f98612e41565b5b612fa587828801612ee9565b925092505092959194509250565b6000819050919050565b612fc681612fb3565b82525050565b6000602082019050612fe16000830184612fbd565b92915050565b612ff081612fb3565b8114612ffb57600080fd5b50565b60008135905061300d81612fe7565b92915050565b60008060006060848603121561302c5761302b612e3c565b5b600061303a86828701612ec5565b935050602061304b86828701612ffe565b925050604061305c86828701612e67565b9150509250925092565b6000601f19601f8301169050919050565b7f4e487b7100000000000000000000000000000000000000000000000000000000600052604160045260246000fd5b6130af82613066565b810181811067ffffffffffffffff821117156130ce576130cd613077565b5b80604052505050565b60006130e1612e32565b90506130ed82826130a6565b919050565b600067ffffffffffffffff82111561310d5761310c613077565b5b602082029050602081019050919050565b600080fd5b600067ffffffffffffffff82111561313e5761313d613077565b5b61314782613066565b9050602081019050919050565b82818337600083830152505050565b600061317661317184613123565b6130d7565b9050828152602081018484840111156131925761319161311e565b5b61319d848285613154565b509392505050565b600082601f8301126131ba576131b9612eda565b5b81356131ca848260208601613163565b91505092915050565b60006131e66131e1846130f2565b6130d7565b9050808382526020820190506020840283018581111561320957613208612ee4565b5b835b8181101561325057803567ffffffffffffffff81111561322e5761322d612eda565b5b80860161323b89826131a5565b8552602085019450505060208101905061320b565b5050509392505050565b600082601f83011261326f5761326e612eda565b5b813561327f8482602086016131d3565b91505092915050565b600067ffffffffffffffff8211156132a3576132a2613077565b5b602082029050602081019050919050565b60006132c76132c284613288565b6130d7565b905080838252602082019050602084028301858111156132ea576132e9612ee4565b5b835b8181101561331357806132ff8882612ffe565b8452602084019350506020810190506132ec565b5050509392505050565b600082601f83011261333257613331612eda565b5b81356133428482602086016132b4565b91505092915050565b60008060008060006080868803121561336757613366612e3c565b5b600086013567ffffffffffffffff81111561338557613384612e41565b5b61339188828901612ee9565b955095505060206133a488828901612ffe565b935050604086013567ffffffffffffffff8111156133c5576133c4612e41565b5b6133d18882890161325a565b925050606086013567ffffffffffffffff8111156133f2576133f1612e41565b5b6133fe8882890161331d565b9150509295509295909350565b61341481612e46565b82525050565b600060208201905061342f600083018461340b565b92915050565b600081519050919050565b600082825260208201905092915050565b6000819050602082019050919050565b61346a81612e46565b82525050565b600061347c8383613461565b60208301905092915050565b6000602082019050919050565b60006134a082613435565b6134aa8185613440565b93506134b583613451565b8060005b838110156134e65781516134cd8882613470565b97506134d883613488565b9250506001810190506134b9565b5085935050505092915050565b6000602082019050818103600083015261350d8184613495565b905092915050565b60006020828403121561352b5761352a612e3c565b5b600061353984828501612e67565b91505092915050565b60006020828403121561355857613557612e3c565b5b600061356684828501612ffe565b91505092915050565b6000806040838503121561358657613585612e3c565b5b600061359485828601612e67565b92505060206135a585828601612ec5565b9150509250929050565b60008115159050919050565b6135c4816135af565b82525050565b60006020820190506135df60008301846135bb565b92915050565b6135ee816135af565b81146135f957600080fd5b50565b60008135905061360b816135e5565b92915050565b6000806000806080858703121561362b5761362a612e3c565b5b600061363987828801612ffe565b945050602061364a87828801612ffe565b935050604061365b87828801612ffe565b925050606061366c878288016135fc565b91505092959194509250565b6000806000806040858703121561369257613691612e3c565b5b600085013567ffffffffffffffff8111156136b0576136af612e41565b5b6136bc87828801612ee9565b9450945050602085013567ffffffffffffffff8111156136df576136de612e41565b5b6136eb87828801612ee9565b925092505092959194509250565b61370281612e9c565b82525050565b600060208201905061371d60008301846136f9565b92915050565b60008060006060848603121561373c5761373b612e3c565b5b600061374a86828701612e67565b935050602061375b86828701612ec5565b925050604061376c86828701612ffe565b9150509250925092565b600081519050919050565b600082825260208201905092915050565b60005b838110156137b0578082015181840152602081019050613795565b838111156137bf576000848401525b50505050565b60006137d082613776565b6137da8185613781565b93506137ea818560208601613792565b6137f381613066565b840191505092915050565b600060c082019050818103600083015261381881896137c5565b90506138276020830188612fbd565b6138346040830187612fbd565b6138416060830186612fbd565b61384e6080830185612fbd565b81810360a083015261386081846137c5565b9050979650505050505050565b6000806040838503121561388457613883612e3c565b5b600061389285828601612ec5565b92505060206138a385828601612ffe565b9150509250929050565b600080600080608085870312156138c7576138c6612e3c565b5b60006138d587828801612e67565b94505060206138e687828801612ec5565b93505060406138f787828801612ec5565b925050606061390887828801612ec5565b91505092959194509250565b6000806040838503121561392b5761392a612e3c565b5b600061393985828601612ec5565b925050602061394a85828601612e67565b9150509250929050565b60006020828403121561396a57613969612e3c565b5b600061397884828501612ec5565b91505092915050565b7f43616d706169676e496e666f3a2043616d706169676e20656e64656400000000600082015250565b60006139b7601c83613781565b91506139c282613981565b602082019050919050565b600060208201905081810360008301526139e6816139aa565b9050919050565b7f43616d706169676e496e666f3a204e6f7420416c6c6f77656400000000000000600082015250565b6000613a23601983613781565b9150613a2e826139ed565b602082019050919050565b60006020820190508181036000830152613a5281613a16565b9050919050565b600081905092915050565b6000613a708385613a59565b9350613a7d838584613154565b82840190509392505050565b6000613a96828486613a64565b91508190509392505050565b7f4e487b7100000000000000000000000000000000000000000000000000000000600052601160045260246000fd5b6000613adc82612fb3565b9150613ae783612fb3565b925082821015613afa57613af9613aa2565b5b828203905092915050565b6000606082019050613b1a60008301866136f9565b613b2760208301856136f9565b613b346040830184612fbd565b949350505050565b600081519050613b4b816135e5565b92915050565b600060208284031215613b6757613b66612e3c565b5b6000613b7584828501613b3c565b91505092915050565b600081519050613b8d81612eae565b92915050565b600060208284031215613ba957613ba8612e3c565b5b6000613bb784828501613b7e565b91505092915050565b6000613bcb82612fb3565b9150613bd683612fb3565b9250827fffffffffffffffffffffffffffffffffffffffffffffffffffffffffffffffff03821115613c0b57613c0a613aa2565b5b828201905092915050565b6000613c228385613781565b9350613c2f838584613154565b613c3883613066565b840190509392505050565b600060a082019050613c5860008301896136f9565b613c6560208301886136f9565b613c726040830187612fbd565b613c7f606083018661340b565b8181036080830152613c92818486613c16565b9050979650505050505050565b600081519050613cae81612fe7565b92915050565b600060208284031215613cca57613cc9612e3c565b5b6000613cd884828501613c9f565b91505092915050565b7f43616d706169676e496e666f3a20496e76616c696420416d6f756e7400000000600082015250565b6000613d17601c83613781565b9150613d2282613ce1565b602082019050919050565b60006020820190508181036000830152613d4681613d0a565b9050919050565b7f4e487b7100000000000000000000000000000000000000000000000000000000600052603260045260246000fd5b6000613d8782613776565b613d918185613a59565b9350613da1818560208601613792565b80840191505092915050565b6000613db98284613d7c565b915081905092915050565b6000613dcf82612fb3565b91507fffffffffffffffffffffffffffffffffffffffffffffffffffffffffffffffff821415613e0257613e01613aa2565b5b600182019050919050565b7f43616d706169676e496e666f3a2054726561737572792061646472657373206660008201527f6f7220706c6174666f726d206973206e6f742073657400000000000000000000602082015250565b6000613e69603683613781565b9150613e7482613e0d565b604082019050919050565b60006020820190508181036000830152613e9881613e5c565b9050919050565b7f43616d706169676e496e666f3a204e6f7420616c6c6f77656400000000000000600082015250565b6000613ed5601983613781565b9150613ee082613e9f565b602082019050919050565b60006020820190508181036000830152613f0481613ec8565b9050919050565b6000608082019050613f2060008301876136f9565b613f2d60208301866136f9565b613f3a6040830185612fbd565b613f47606083018461340b565b95945050505050565b600081519050919050565b600082825260208201905092915050565b6000819050602082019050919050565b613f8581612fb3565b82525050565b6000613f978383613f7c565b60208301905092915050565b6000602082019050919050565b6000613fbb82613f50565b613fc58185613f5b565b9350613fd083613f6c565b8060005b83811015614001578151613fe88882613f8b565b9750613ff383613fa3565b925050600181019050613fd4565b5085935050505092915050565b60006060820190506140236000830186612fbd565b6140306020830185612fbd565b81810360408301526140428184613fb0565b9050949350505050565b600061405f61405a84613288565b6130d7565b9050808382526020820190506020840283018581111561408257614081612ee4565b5b835b818110156140ab57806140978882613c9f565b845260208401935050602081019050614084565b5050509392505050565b600082601f8301126140ca576140c9612eda565b5b81516140da84826020860161404c565b91505092915050565b6000602082840312156140f9576140f8612e3c565b5b600082015167ffffffffffffffff81111561411757614116612e41565b5b614123848285016140b5565b91505092915050565b7f4e487b7100000000000000000000000000000000000000000000000000000000600052602260045260246000fd5b6000600282049050600182168061417357607f821691505b602082108114156141875761418661412c565b5b50919050565b60008151905061419c81612e50565b92915050565b60006141b56141b084613123565b6130d7565b9050828152602081018484840111156141d1576141d061311e565b5b6141dc848285613792565b509392505050565b600082601f8301126141f9576141f8612eda565b5b81516142098482602086016141a2565b91505092915050565b600080600080600080600060e0888a03121561423157614230612e3c565b5b600061423f8a828b01613b7e565b97505060206142508a828b01613b7e565b96505060406142618a828b01613b7e565b95505060606142728a828b01613c9f565b94505060806142838a828b01613c9f565b93505060a06142948a828b0161418d565b92505060c088015167ffffffffffffffff8111156142b5576142b4612e41565b5b6142c18a828b016141e4565b91505092959891949750929550565b7f4f776e61626c653a206e6577206f776e657220697320746865207a65726f206160008201527f6464726573730000000000000000000000000000000000000000000000000000602082015250565b600061432c602683613781565b9150614337826142d0565b604082019050919050565b6000602082019050818103600083015261435b8161431f565b9050919050565b7f43616d706169676e496e666f3a204f726967696e20706c6174666f726d20747260008201527f656173757279206e6f7420736574207965740000000000000000000000000000602082015250565b60006143be603283613781565b91506143c982614362565b604082019050919050565b600060208201905081810360008301526143ed816143b1565b9050919050565b7f5061757361626c653a2070617573656400000000000000000000000000000000600082015250565b600061442a601083613781565b9150614435826143f4565b602082019050919050565b600060208201905081810360008301526144598161441d565b9050919050565b7f4f776e61626c653a2063616c6c6572206973206e6f7420746865206f776e6572600082015250565b6000614496602083613781565b91506144a182614460565b602082019050919050565b600060208201905081810360008301526144c581614489565b9050919050565b7f5061757361626c653a206e6f7420706175736564000000000000000000000000600082015250565b6000614502601483613781565b915061450d826144cc565b602082019050919050565b60006020820190508181036000830152614531816144f5565b905091905056fea26469706673582212205f5739b95c311277cd0cef642627b9bc36ced6c9d36c665d0c3ae4c8b01ec21d64736f6c63430008090033a2646970667358221220bc8a3bd07fd802248738db9ea3b7528ad0f7d1d434b68ce80497e9b0aa61ef9764736f6c63430008090033",
  "linkReferences": {},
  "deployedLinkReferences": {}
}