{
  "_format": "hh-sol-artifact-1",
  "contractName": "CampaignInfoFactory",
  "sourceName": "contracts/CampaignInfoFactory.sol",
  "abi": [
    {
      "anonymous": false,
      "inputs": [
        {
          "indexed": true,
          "internalType": "address",
          "name": "previousOwner",
          "type": "address"
        },
        {
          "indexed": true,
          "internalType": "address",
          "name": "newOwner",
          "type": "address"
        }
      ],
      "name": "OwnershipTransferred",
      "type": "event"
    },
    {
      "anonymous": false,
      "inputs": [
        {
          "indexed": false,
          "internalType": "string",
          "name": "identifier",
          "type": "string"
        },
        {
          "indexed": true,
          "internalType": "address",
          "name": "campaignInfoAddress",
          "type": "address"
        }
      ],
      "name": "campaignCreation",
      "type": "event"
    },
    {
      "inputs": [
        {
          "internalType": "string",
          "name": "_identifier",
          "type": "string"
        },
        {
          "internalType": "bytes32",
          "name": "_originPlatform",
          "type": "bytes32"
        },
        {
          "internalType": "uint256",
          "name": "_goalAmount",
          "type": "uint256"
        },
        {
          "internalType": "uint256",
          "name": "_launchTime",
          "type": "uint256"
        },
        {
          "internalType": "uint256",
          "name": "_deadline",
          "type": "uint256"
        },
        {
          "internalType": "uint256",
          "name": "_platformTotalFeePercent",
          "type": "uint256"
        },
        {
          "internalType": "uint256",
          "name": "_rewardPlatformFeePercent",
          "type": "uint256"
        },
        {
          "internalType": "string",
          "name": "_creatorUrl",
          "type": "string"
        },
        {
          "internalType": "bytes32[]",
          "name": "_reachPlatform",
          "type": "bytes32[]"
        }
      ],
      "name": "createCampaign",
      "outputs": [],
      "stateMutability": "nonpayable",
      "type": "function"
    },
    {
      "inputs": [],
      "name": "owner",
      "outputs": [
        {
          "internalType": "address",
          "name": "",
          "type": "address"
        }
      ],
      "stateMutability": "view",
      "type": "function"
    },
    {
      "inputs": [],
      "name": "renounceOwnership",
      "outputs": [],
      "stateMutability": "nonpayable",
      "type": "function"
    },
    {
      "inputs": [
        {
          "internalType": "address",
          "name": "_campaignRegistry",
          "type": "address"
        }
      ],
      "name": "setRegistry",
      "outputs": [],
      "stateMutability": "nonpayable",
      "type": "function"
    },
    {
      "inputs": [
        {
          "internalType": "address",
          "name": "newOwner",
          "type": "address"
        }
      ],
      "name": "transferOwnership",
      "outputs": [],
      "stateMutability": "nonpayable",
      "type": "function"
    }
  ],
  "bytecode": "0x608060405234801561001057600080fd5b5061002d61002261003260201b60201c565b61003a60201b60201c565b6100fe565b600033905090565b60008060009054906101000a900473ffffffffffffffffffffffffffffffffffffffff169050816000806101000a81548173ffffffffffffffffffffffffffffffffffffffff021916908373ffffffffffffffffffffffffffffffffffffffff1602179055508173ffffffffffffffffffffffffffffffffffffffff168173ffffffffffffffffffffffffffffffffffffffff167f8be0079c531659141344cd1fd0a4f28419497f9722a3daafe3b4186f6b6457e060405160405180910390a35050565b6158588061010d6000396000f3fe60806040523480156200001157600080fd5b50600436106200005e5760003560e01c8063537d148a1462000063578063715018a614620000835780638da5cb5b146200008f578063a91ee0dc14620000b1578063f2fde38b14620000d1575b600080fd5b6200008160048036038101906200007b919062000890565b620000f1565b005b6200008d62000335565b005b620000996200034d565b604051620000a8919062000a11565b60405180910390f35b620000cf6004803603810190620000c9919062000a5f565b62000376565b005b620000ef6004803603810190620000e9919062000a5f565b620003df565b005b620000fb6200046a565b600260149054906101000a900460ff166200011557600080fd5b888888888888888888600260009054906101000a900473ffffffffffffffffffffffffffffffffffffffff166040516200014f90620005bb565b620001649a9998979695949392919062000c14565b604051809103906000f08015801562000181573d6000803e3d6000fd5b50600160006101000a81548173ffffffffffffffffffffffffffffffffffffffff021916908373ffffffffffffffffffffffffffffffffffffffff160217905550600073ffffffffffffffffffffffffffffffffffffffff16600160009054906101000a900473ffffffffffffffffffffffffffffffffffffffff1673ffffffffffffffffffffffffffffffffffffffff1614156200021f57600080fd5b6000600160009054906101000a900473ffffffffffffffffffffffffffffffffffffffff169050600260009054906101000a900473ffffffffffffffffffffffffffffffffffffffff1673ffffffffffffffffffffffffffffffffffffffff16632c64ba158b836040518363ffffffff1660e01b8152600401620002a592919062000cd9565b600060405180830381600087803b158015620002c057600080fd5b505af1158015620002d5573d6000803e3d6000fd5b505050508073ffffffffffffffffffffffffffffffffffffffff167ff4d491a6f1d235565138b729aec590f73a429a7debf862af41af0d001ab8da378b60405162000321919062000d0d565b60405180910390a250505050505050505050565b6200033f6200046a565b6200034b6000620004ef565b565b60008060009054906101000a900473ffffffffffffffffffffffffffffffffffffffff16905090565b620003806200046a565b80600260006101000a81548173ffffffffffffffffffffffffffffffffffffffff021916908373ffffffffffffffffffffffffffffffffffffffff1602179055506001600260146101000a81548160ff02191690831515021790555050565b620003e96200046a565b600073ffffffffffffffffffffffffffffffffffffffff168173ffffffffffffffffffffffffffffffffffffffff1614156200045c576040517f08c379a0000000000000000000000000000000000000000000000000000000008152600401620004539062000da7565b60405180910390fd5b6200046781620004ef565b50565b62000474620005b3565b73ffffffffffffffffffffffffffffffffffffffff16620004946200034d565b73ffffffffffffffffffffffffffffffffffffffff1614620004ed576040517f08c379a0000000000000000000000000000000000000000000000000000000008152600401620004e49062000e19565b60405180910390fd5b565b60008060009054906101000a900473ffffffffffffffffffffffffffffffffffffffff169050816000806101000a81548173ffffffffffffffffffffffffffffffffffffffff021916908373ffffffffffffffffffffffffffffffffffffffff1602179055508173ffffffffffffffffffffffffffffffffffffffff168173ffffffffffffffffffffffffffffffffffffffff167f8be0079c531659141344cd1fd0a4f28419497f9722a3daafe3b4186f6b6457e060405160405180910390a35050565b600033905090565b6149e78062000e3c83390190565b6000604051905090565b600080fd5b600080fd5b600080fd5b600080fd5b6000601f19601f8301169050919050565b7f4e487b7100000000000000000000000000000000000000000000000000000000600052604160045260246000fd5b6200063282620005e7565b810181811067ffffffffffffffff82111715620006545762000653620005f8565b5b80604052505050565b600062000669620005c9565b905062000677828262000627565b919050565b600067ffffffffffffffff8211156200069a5762000699620005f8565b5b620006a582620005e7565b9050602081019050919050565b82818337600083830152505050565b6000620006d8620006d2846200067c565b6200065d565b905082815260208101848484011115620006f757620006f6620005e2565b5b62000704848285620006b2565b509392505050565b600082601f830112620007245762000723620005dd565b5b813562000736848260208601620006c1565b91505092915050565b6000819050919050565b62000754816200073f565b81146200076057600080fd5b50565b600081359050620007748162000749565b92915050565b6000819050919050565b6200078f816200077a565b81146200079b57600080fd5b50565b600081359050620007af8162000784565b92915050565b600067ffffffffffffffff821115620007d357620007d2620005f8565b5b602082029050602081019050919050565b600080fd5b600062000800620007fa84620007b5565b6200065d565b90508083825260208201905060208402830185811115620008265762000825620007e4565b5b835b818110156200085357806200083e888262000763565b84526020840193505060208101905062000828565b5050509392505050565b600082601f830112620008755762000874620005dd565b5b813562000887848260208601620007e9565b91505092915050565b60008060008060008060008060006101208a8c031215620008b657620008b5620005d3565b5b60008a013567ffffffffffffffff811115620008d757620008d6620005d8565b5b620008e58c828d016200070c565b9950506020620008f88c828d0162000763565b98505060406200090b8c828d016200079e565b97505060606200091e8c828d016200079e565b9650506080620009318c828d016200079e565b95505060a0620009448c828d016200079e565b94505060c0620009578c828d016200079e565b93505060e08a013567ffffffffffffffff8111156200097b576200097a620005d8565b5b620009898c828d016200070c565b9250506101008a013567ffffffffffffffff811115620009ae57620009ad620005d8565b5b620009bc8c828d016200085d565b9150509295985092959850929598565b600073ffffffffffffffffffffffffffffffffffffffff82169050919050565b6000620009f982620009cc565b9050919050565b62000a0b81620009ec565b82525050565b600060208201905062000a28600083018462000a00565b92915050565b62000a3981620009ec565b811462000a4557600080fd5b50565b60008135905062000a598162000a2e565b92915050565b60006020828403121562000a785762000a77620005d3565b5b600062000a888482850162000a48565b91505092915050565b600081519050919050565b600082825260208201905092915050565b60005b8381101562000acd57808201518184015260208101905062000ab0565b8381111562000add576000848401525b50505050565b600062000af08262000a91565b62000afc818562000a9c565b935062000b0e81856020860162000aad565b62000b1981620005e7565b840191505092915050565b62000b2f816200073f565b82525050565b62000b40816200077a565b82525050565b600081519050919050565b600082825260208201905092915050565b6000819050602082019050919050565b62000b7d816200073f565b82525050565b600062000b91838362000b72565b60208301905092915050565b6000602082019050919050565b600062000bb78262000b46565b62000bc3818562000b51565b935062000bd08362000b62565b8060005b8381101562000c0757815162000beb888262000b83565b975062000bf88362000b9d565b92505060018101905062000bd4565b5085935050505092915050565b600061014082019050818103600083015262000c31818d62000ae3565b905062000c42602083018c62000b24565b62000c51604083018b62000b35565b62000c60606083018a62000b35565b62000c6f608083018962000b35565b62000c7e60a083018862000b35565b62000c8d60c083018762000b35565b81810360e083015262000ca1818662000ae3565b905081810361010083015262000cb8818562000baa565b905062000cca61012083018462000a00565b9b9a5050505050505050505050565b6000604082019050818103600083015262000cf5818562000ae3565b905062000d06602083018462000a00565b9392505050565b6000602082019050818103600083015262000d29818462000ae3565b905092915050565b7f4f776e61626c653a206e6577206f776e657220697320746865207a65726f206160008201527f6464726573730000000000000000000000000000000000000000000000000000602082015250565b600062000d8f60268362000a9c565b915062000d9c8262000d31565b604082019050919050565b6000602082019050818103600083015262000dc28162000d80565b9050919050565b7f4f776e61626c653a2063616c6c6572206973206e6f7420746865206f776e6572600082015250565b600062000e0160208362000a9c565b915062000e0e8262000dc9565b602082019050919050565b6000602082019050818103600083015262000e348162000df2565b905091905056fe60806040526002600b553480156200001657600080fd5b50604051620049e7380380620049e783398181016040528101906200003c9190620006f5565b6200005c62000050620001b560201b60201c565b620001bd60201b60201c565b60008060146101000a81548160ff02191690831515021790555085600a548862000087919062000877565b10620000ca576040517f08c379a0000000000000000000000000000000000000000000000000000000008152600401620000c1906200095b565b60405180910390fd5b8960016000019080519060200190620000e592919062000281565b508860018001819055508760016002018190555086600160030181905550426001600401819055508560016005018190555082600160060190805190602001906200013292919062000281565b5081600160070190805190602001906200014e92919062000312565b5080600960006101000a81548173ffffffffffffffffffffffffffffffffffffffff021916908373ffffffffffffffffffffffffffffffffffffffff16021790555042600f8190555084600d8190555083600e8190555050505050505050505050620009e2565b600033905090565b60008060009054906101000a900473ffffffffffffffffffffffffffffffffffffffff169050816000806101000a81548173ffffffffffffffffffffffffffffffffffffffff021916908373ffffffffffffffffffffffffffffffffffffffff1602179055508173ffffffffffffffffffffffffffffffffffffffff168173ffffffffffffffffffffffffffffffffffffffff167f8be0079c531659141344cd1fd0a4f28419497f9722a3daafe3b4186f6b6457e060405160405180910390a35050565b8280546200028f90620009ac565b90600052602060002090601f016020900481019282620002b35760008555620002ff565b82601f10620002ce57805160ff1916838001178555620002ff565b82800160010185558215620002ff579182015b82811115620002fe578251825591602001919060010190620002e1565b5b5090506200030e919062000364565b5090565b82805482825590600052602060002090810192821562000351579160200282015b828111156200035057825182559160200191906001019062000333565b5b50905062000360919062000383565b5090565b5b808211156200037f57600081600090555060010162000365565b5090565b5b808211156200039e57600081600090555060010162000384565b5090565b6000604051905090565b600080fd5b600080fd5b600080fd5b600080fd5b6000601f19601f8301169050919050565b7f4e487b7100000000000000000000000000000000000000000000000000000000600052604160045260246000fd5b6200040b82620003c0565b810181811067ffffffffffffffff821117156200042d576200042c620003d1565b5b80604052505050565b600062000442620003a2565b905062000450828262000400565b919050565b600067ffffffffffffffff821115620004735762000472620003d1565b5b6200047e82620003c0565b9050602081019050919050565b60005b83811015620004ab5780820151818401526020810190506200048e565b83811115620004bb576000848401525b50505050565b6000620004d8620004d28462000455565b62000436565b905082815260208101848484011115620004f757620004f6620003bb565b5b620005048482856200048b565b509392505050565b600082601f830112620005245762000523620003b6565b5b815162000536848260208601620004c1565b91505092915050565b6000819050919050565b62000554816200053f565b81146200056057600080fd5b50565b600081519050620005748162000549565b92915050565b6000819050919050565b6200058f816200057a565b81146200059b57600080fd5b50565b600081519050620005af8162000584565b92915050565b600067ffffffffffffffff821115620005d357620005d2620003d1565b5b602082029050602081019050919050565b600080fd5b600062000600620005fa84620005b5565b62000436565b90508083825260208201905060208402830185811115620006265762000625620005e4565b5b835b818110156200065357806200063e888262000563565b84526020840193505060208101905062000628565b5050509392505050565b600082601f830112620006755762000674620003b6565b5b815162000687848260208601620005e9565b91505092915050565b600073ffffffffffffffffffffffffffffffffffffffff82169050919050565b6000620006bd8262000690565b9050919050565b620006cf81620006b0565b8114620006db57600080fd5b50565b600081519050620006ef81620006c4565b92915050565b6000806000806000806000806000806101408b8d0312156200071c576200071b620003ac565b5b60008b015167ffffffffffffffff8111156200073d576200073c620003b1565b5b6200074b8d828e016200050c565b9a505060206200075e8d828e0162000563565b9950506040620007718d828e016200059e565b9850506060620007848d828e016200059e565b9750506080620007978d828e016200059e565b96505060a0620007aa8d828e016200059e565b95505060c0620007bd8d828e016200059e565b94505060e08b015167ffffffffffffffff811115620007e157620007e0620003b1565b5b620007ef8d828e016200050c565b9350506101008b015167ffffffffffffffff811115620008145762000813620003b1565b5b620008228d828e016200065d565b925050610120620008368d828e01620006de565b9150509295989b9194979a5092959850565b7f4e487b7100000000000000000000000000000000000000000000000000000000600052601160045260246000fd5b600062000884826200057a565b915062000891836200057a565b9250827fffffffffffffffffffffffffffffffffffffffffffffffffffffffffffffffff03821115620008c957620008c862000848565b5b828201905092915050565b600082825260208201905092915050565b7f43616d706169676e496e666f3a204d696e696d756d2063616d706169676e206460008201527f7561726174696f6e206e6f74206d657400000000000000000000000000000000602082015250565b600062000943603083620008d4565b91506200095082620008e5565b604082019050919050565b60006020820190508181036000830152620009768162000934565b9050919050565b7f4e487b7100000000000000000000000000000000000000000000000000000000600052602260045260246000fd5b60006002820490506001821680620009c557607f821691505b60208210811415620009dc57620009db6200097d565b5b50919050565b613ff580620009f26000396000f3fe608060405234801561001057600080fd5b50600436106101cf5760003560e01c80638456cb5911610104578063deaaf241116100a2578063f2fde38b11610071578063f2fde38b1461048a578063f6b854ff146104a6578063f8403676146104c2578063fb7846df146104e0576101cf565b8063deaaf24114610418578063e12900f214610434578063efbe1c1c14610464578063f18f409f1461046e576101cf565b80639bd4dd3c116100de5780639bd4dd3c146103b1578063a0797f75146103cd578063b0e10c61146103eb578063c4176338146103f5576101cf565b80638456cb591461035957806384ea5c74146103635780638da5cb5b14610393576101cf565b80634da7f4321161017157806360f67bc81161014b57806360f67bc81461030d578063715018a6146103295780637568173b1461033357806383d23ab31461033d576101cf565b80634da7f432146102c957806355bf3112146102e55780635c975abb146102ef576101cf565b806330c00b00116101ad57806330c00b001461024057806332a8e0341461027057806333a06c81146102a15780633f4ba83a146102bf576101cf565b8063026d7cfd146101d45780632e162db6146101f25780632ee8ebf714610210575b600080fd5b6101dc610510565b6040516101e99190612fa2565b60405180910390f35b6101fa610515565b6040516102079190613085565b60405180910390f35b61022a60048036038101906102259190613240565b610570565b604051610237919061335a565b60405180910390f35b61025a600480360381019061025591906133a8565b610641565b6040516102679190612fa2565b60405180910390f35b61028a600480360381019061028591906133d5565b6107de565b604051610298929190613458565b60405180910390f35b6102a9610852565b6040516102b69190612fa2565b60405180910390f35b6102c7610b1b565b005b6102e360048036038101906102de9190613488565b610c93565b005b6102ed610e2c565b005b6102f761115e565b60405161030491906134d0565b60405180910390f35b61032760048036038101906103229190613549565b611174565b005b6103316113d0565b005b61033b6113e4565b005b610357600480360381019061035291906133a8565b6115fe565b005b61036161179b565b005b61037d600480360381019061037891906133a8565b611913565b60405161038a91906135ab565b60405180910390f35b61039b6119f5565b6040516103a891906135ab565b60405180910390f35b6103cb60048036038101906103c69190613488565b611a1e565b005b6103d5611bb7565b6040516103e291906135d5565b60405180910390f35b6103f3611bc3565b005b6103fd611ef5565b60405161040f96959493929190613678565b60405180910390f35b610432600480360381019061042d91906136e7565b61204d565b005b61044e6004803603810190610449919061374e565b6122b7565b60405161045b9190612fa2565b60405180910390f35b61046c612312565b005b61048860048036038101906104839190613488565b61249d565b005b6104a4600480360381019061049f919061378e565b612618565b005b6104c060048036038101906104bb91906137bb565b61269c565b005b6104ca61281e565b6040516104d79190612fa2565b60405180910390f35b6104fa60048036038101906104f591906133a8565b612b87565b6040516105079190612fa2565b60405180910390f35b600090565b6060600160070180548060200260200160405190810160405280929190818152602001828054801561056657602002820191906000526020600020905b815481526020019060010190808311610552575b5050505050905090565b606060008251905060008167ffffffffffffffff811115610594576105936130fd565b5b6040519080825280602002602001820160405280156105c25781602001602082028036833780820191505090505b50905060005b8281101561063557612710868683815181106105e7576105e66137fb565b5b60200260200101516105f99190613859565b61060391906138e2565b828281518110610616576106156137fb565b5b602002602001018181525050808061062d90613913565b9150506105c8565b50809250505092915050565b600081600073ffffffffffffffffffffffffffffffffffffffff166010600083815260200190815260200160002060009054906101000a900473ffffffffffffffffffffffffffffffffffffffff1673ffffffffffffffffffffffffffffffffffffffff1614156106e7576040517f08c379a00000000000000000000000000000000000000000000000000000000081526004016106de906139ce565b60405180910390fd5b6011600084815260200190815260200160002060009054906101000a900473ffffffffffffffffffffffffffffffffffffffff1673ffffffffffffffffffffffffffffffffffffffff166370a082316010600086815260200190815260200160002060009054906101000a900473ffffffffffffffffffffffffffffffffffffffff166040518263ffffffff1660e01b815260040161078691906135ab565b60206040518083038186803b15801561079e57600080fd5b505afa1580156107b2573d6000803e3d6000fd5b505050506040513d601f19601f820116820180604052508101906107d69190613a03565b915050919050565b6000606060008351905060006001826107f79190613a30565b87896108039190613a86565b61080d91906138e2565b9050600061271082896108209190613a30565b8861082b9190613859565b61083591906138e2565b9050806108428388610570565b9450945050505094509492505050565b600080601060006001800154815260200190815260200160002060009054906101000a900473ffffffffffffffffffffffffffffffffffffffff169050600073ffffffffffffffffffffffffffffffffffffffff168173ffffffffffffffffffffffffffffffffffffffff1614156108ff576040517f08c379a00000000000000000000000000000000000000000000000000000000081526004016108f690613b2c565b60405180910390fd5b6000600160070180548060200260200160405190810160405280929190818152602001828054801561095057602002820191906000526020600020905b81548152602001906001019080831161093c575b5050505050905060008151905060008373ffffffffffffffffffffffffffffffffffffffff1663186bc5496040518163ffffffff1660e01b815260040160206040518083038186803b1580156109a557600080fd5b505afa1580156109b9573d6000803e3d6000fd5b505050506040513d601f19601f820116820180604052508101906109dd9190613a03565b905060005b82811015610b1057600060106000868481518110610a0357610a026137fb565b5b6020026020010151815260200190815260200160002060009054906101000a900473ffffffffffffffffffffffffffffffffffffffff169050600073ffffffffffffffffffffffffffffffffffffffff168173ffffffffffffffffffffffffffffffffffffffff1614610afc578073ffffffffffffffffffffffffffffffffffffffff1663186bc5496040518163ffffffff1660e01b815260040160206040518083038186803b158015610ab657600080fd5b505afa158015610aca573d6000803e3d6000fd5b505050506040513d601f19601f82011682018060405250810190610aee9190613a03565b83610af99190613a30565b92505b508080610b0890613913565b9150506109e2565b508094505050505090565b600960159054906101000a900460ff1615610b6b576040517f08c379a0000000000000000000000000000000000000000000000000000000008152600401610b6290613b98565b60405180910390fd5b6001600501544210610bb2576040517f08c379a0000000000000000000000000000000000000000000000000000000008152600401610ba990613c04565b60405180910390fd5b600960009054906101000a900473ffffffffffffffffffffffffffffffffffffffff1673ffffffffffffffffffffffffffffffffffffffff16638da5cb5b6040518163ffffffff1660e01b815260040160206040518083038186803b158015610c1a57600080fd5b505afa158015610c2e573d6000803e3d6000fd5b505050506040513d601f19601f82011682018060405250810190610c529190613c39565b73ffffffffffffffffffffffffffffffffffffffff163373ffffffffffffffffffffffffffffffffffffffff1614610c8957600080fd5b610c91612c7f565b565b600960159054906101000a900460ff1615610ce3576040517f08c379a0000000000000000000000000000000000000000000000000000000008152600401610cda90613b98565b60405180910390fd5b6001600501544210610d2a576040517f08c379a0000000000000000000000000000000000000000000000000000000008152600401610d2190613c04565b60405180910390fd5b600960009054906101000a900473ffffffffffffffffffffffffffffffffffffffff1673ffffffffffffffffffffffffffffffffffffffff16638da5cb5b6040518163ffffffff1660e01b815260040160206040518083038186803b158015610d9257600080fd5b505afa158015610da6573d6000803e3d6000fd5b505050506040513d601f19601f82011682018060405250810190610dca9190613c39565b73ffffffffffffffffffffffffffffffffffffffff163373ffffffffffffffffffffffffffffffffffffffff1614610e0157600080fd5b600160050154600a5482610e159190613a30565b10610e1f57600080fd5b8060016003018190555050565b600960149054906101000a900460ff16610e7b576040517f08c379a0000000000000000000000000000000000000000000000000000000008152600401610e7290613cd8565b60405180910390fd5b6000600d5490506000600e5490506000610e96600c54610641565b905060006001600701805480602002602001604051908101604052809291908181526020018280548015610ee957602002820191906000526020600020905b815481526020019060010190808311610ed5575b505050505090506000815167ffffffffffffffff811115610f0d57610f0c6130fd565b5b604051908082528060200260200182016040528015610f3b5781602001602082028036833780820191505090505b5090506000600180015490506000835167ffffffffffffffff811115610f6457610f636130fd565b5b604051908082528060200260200182016040528015610f925781602001602082028036833780820191505090505b50905081600c5414156110065760005b845181101561100057610fce858281518110610fc157610fc06137fb565b5b6020026020010151610641565b848281518110610fe157610fe06137fb565b5b6020026020010181815250508080610ff890613913565b915050610fa2565b5061112a565b600061101183610641565b848281518110611024576110236137fb565b5b60200260200101818152505082828281518110611044576110436137fb565b5b602002602001018181525050600190505b8451811161112857600c548560018361106e9190613a86565b8151811061107f5761107e6137fb565b5b602002602001015114611115578460018261109a9190613a86565b815181106110ab576110aa6137fb565b5b60200260200101518282815181106110c6576110c56137fb565b5b6020026020010181815250506110f58582815181106110e8576110e76137fb565b5b6020026020010151610641565b848281518110611108576111076137fb565b5b6020026020010181815250505b808061112090613913565b915050611055565b505b600080611139898989886107de565b91509150611149600c548361269c565b6111538382612ce1565b505050505050505050565b60008060149054906101000a900460ff16905090565b600960159054906101000a900460ff16156111c4576040517f08c379a00000000000000000000000000000000000000000000000000000000081526004016111bb90613b98565b60405180910390fd5b600160050154421061120b576040517f08c379a000000000000000000000000000000000000000000000000000000000815260040161120290613c04565b60405180910390fd5b611213612d49565b600960149054906101000a900460ff1615801561124a5750600b5460016002015461123e91906138e2565b61124784610641565b10155b80156112585750600f544210155b15611280576001600960146101000a81548160ff02191690831515021790555082600c819055505b6011600084815260200190815260200160002060009054906101000a900473ffffffffffffffffffffffffffffffffffffffff1673ffffffffffffffffffffffffffffffffffffffff166323b872dd836010600087815260200190815260200160002060009054906101000a900473ffffffffffffffffffffffffffffffffffffffff16846040518463ffffffff1660e01b815260040161132393929190613cf8565b602060405180830381600087803b15801561133d57600080fd5b505af1158015611351573d6000803e3d6000fd5b505050506040513d601f19601f820116820180604052508101906113759190613d5b565b5080601360008473ffffffffffffffffffffffffffffffffffffffff1673ffffffffffffffffffffffffffffffffffffffff168152602001908152602001600020600085815260200190815260200160002081905550505050565b6113d8612d93565b6113e26000612e11565b565b6000600160070180548060200260200160405190810160405280929190818152602001828054801561143557602002820191906000526020600020905b815481526020019060010190808311611421575b5050505050905060006001825161144c9190613a30565b67ffffffffffffffff811115611465576114646130fd565b5b6040519080825280602002602001820160405280156114935781602001602082028036833780820191505090505b5090506000600183516114a69190613a30565b67ffffffffffffffff8111156114bf576114be6130fd565b5b6040519080825280602002602001820160405280156114ed5781602001602082028036833780820191505090505b50905060005b835181101561158b5783818151811061150f5761150e6137fb565b5b602002602001015183828151811061152a576115296137fb565b5b60200260200101818152505061155984828151811061154c5761154b6137fb565b5b6020026020010151610641565b82828151811061156c5761156b6137fb565b5b602002602001018181525050808061158390613913565b9150506114f3565b506001800154828451815181106115a5576115a46137fb565b5b6020026020010181815250506115be6001800154610641565b818451815181106115d2576115d16137fb565b5b60200260200101818152505060006115ec600d5483610570565b90506115f88382612ce1565b50505050565b600960159054906101000a900460ff161561164e576040517f08c379a000000000000000000000000000000000000000000000000000000000815260040161164590613b98565b60405180910390fd5b6001600501544210611695576040517f08c379a000000000000000000000000000000000000000000000000000000000815260040161168c90613c04565b60405180910390fd5b600960009054906101000a900473ffffffffffffffffffffffffffffffffffffffff1673ffffffffffffffffffffffffffffffffffffffff16638da5cb5b6040518163ffffffff1660e01b815260040160206040518083038186803b1580156116fd57600080fd5b505afa158015611711573d6000803e3d6000fd5b505050506040513d601f19601f820116820180604052508101906117359190613c39565b73ffffffffffffffffffffffffffffffffffffffff163373ffffffffffffffffffffffffffffffffffffffff161461176c57600080fd5b600160070181908060018154018082558091505060019003906000526020600020016000909190919091505550565b600960159054906101000a900460ff16156117eb576040517f08c379a00000000000000000000000000000000000000000000000000000000081526004016117e290613b98565b60405180910390fd5b6001600501544210611832576040517f08c379a000000000000000000000000000000000000000000000000000000000815260040161182990613c04565b60405180910390fd5b600960009054906101000a900473ffffffffffffffffffffffffffffffffffffffff1673ffffffffffffffffffffffffffffffffffffffff16638da5cb5b6040518163ffffffff1660e01b815260040160206040518083038186803b15801561189a57600080fd5b505afa1580156118ae573d6000803e3d6000fd5b505050506040513d601f19601f820116820180604052508101906118d29190613c39565b73ffffffffffffffffffffffffffffffffffffffff163373ffffffffffffffffffffffffffffffffffffffff161461190957600080fd5b611911612ed5565b565b600081600073ffffffffffffffffffffffffffffffffffffffff166010600083815260200190815260200160002060009054906101000a900473ffffffffffffffffffffffffffffffffffffffff1673ffffffffffffffffffffffffffffffffffffffff1614156119b9576040517f08c379a00000000000000000000000000000000000000000000000000000000081526004016119b0906139ce565b60405180910390fd5b6010600084815260200190815260200160002060009054906101000a900473ffffffffffffffffffffffffffffffffffffffff16915050919050565b60008060009054906101000a900473ffffffffffffffffffffffffffffffffffffffff16905090565b600960159054906101000a900460ff1615611a6e576040517f08c379a0000000000000000000000000000000000000000000000000000000008152600401611a6590613b98565b60405180910390fd5b6001600501544210611ab5576040517f08c379a0000000000000000000000000000000000000000000000000000000008152600401611aac90613c04565b60405180910390fd5b600960009054906101000a900473ffffffffffffffffffffffffffffffffffffffff1673ffffffffffffffffffffffffffffffffffffffff16638da5cb5b6040518163ffffffff1660e01b815260040160206040518083038186803b158015611b1d57600080fd5b505afa158015611b31573d6000803e3d6000fd5b505050506040513d601f19601f82011682018060405250810190611b559190613c39565b73ffffffffffffffffffffffffffffffffffffffff163373ffffffffffffffffffffffffffffffffffffffff1614611b8c57600080fd5b80600a54600160030154611ba09190613a30565b10611baa57600080fd5b8060016005018190555050565b60006001800154905090565b600960149054906101000a900460ff16611c12576040517f08c379a0000000000000000000000000000000000000000000000000000000008152600401611c0990613cd8565b60405180910390fd5b6000600d5490506000600e5490506000611c2d600c54610641565b905060006001600701805480602002602001604051908101604052809291908181526020018280548015611c8057602002820191906000526020600020905b815481526020019060010190808311611c6c575b505050505090506000815167ffffffffffffffff811115611ca457611ca36130fd565b5b604051908082528060200260200182016040528015611cd25781602001602082028036833780820191505090505b5090506000600180015490506000835167ffffffffffffffff811115611cfb57611cfa6130fd565b5b604051908082528060200260200182016040528015611d295781602001602082028036833780820191505090505b50905081600c541415611d9d5760005b8451811015611d9757611d65858281518110611d5857611d576137fb565b5b6020026020010151610641565b848281518110611d7857611d776137fb565b5b6020026020010181815250508080611d8f90613913565b915050611d39565b50611ec1565b6000611da883610641565b848281518110611dbb57611dba6137fb565b5b60200260200101818152505082828281518110611ddb57611dda6137fb565b5b602002602001018181525050600190505b84518111611ebf57600c5485600183611e059190613a86565b81518110611e1657611e156137fb565b5b602002602001015114611eac5784600182611e319190613a86565b81518110611e4257611e416137fb565b5b6020026020010151828281518110611e5d57611e5c6137fb565b5b602002602001018181525050611e8c858281518110611e7f57611e7e6137fb565b5b6020026020010151610641565b848281518110611e9f57611e9e6137fb565b5b6020026020010181815250505b8080611eb790613913565b915050611dec565b505b600080611ed0898989886107de565b91509150611ee0600c548361269c565b611eea8382612ce1565b505050505050505050565b6060600080600080606060016000016001600201546001600301546001600401546001600501546001600601858054611f2d90613db7565b80601f0160208091040260200160405190810160405280929190818152602001828054611f5990613db7565b8015611fa65780601f10611f7b57610100808354040283529160200191611fa6565b820191906000526020600020905b815481529060010190602001808311611f8957829003601f168201915b50505050509550808054611fb990613db7565b80601f0160208091040260200160405190810160405280929190818152602001828054611fe590613db7565b80156120325780601f1061200757610100808354040283529160200191612032565b820191906000526020600020905b81548152906001019060200180831161201557829003601f168201915b50505050509050955095509550955095509550909192939495565b600960159054906101000a900460ff161561209d576040517f08c379a000000000000000000000000000000000000000000000000000000000815260040161209490613b98565b60405180910390fd5b60016005015442106120e4576040517f08c379a00000000000000000000000000000000000000000000000000000000081526004016120db90613c04565b60405180910390fd5b600960009054906101000a900473ffffffffffffffffffffffffffffffffffffffff1673ffffffffffffffffffffffffffffffffffffffff16638da5cb5b6040518163ffffffff1660e01b815260040160206040518083038186803b15801561214c57600080fd5b505afa158015612160573d6000803e3d6000fd5b505050506040513d601f19601f820116820180604052508101906121849190613c39565b73ffffffffffffffffffffffffffffffffffffffff163373ffffffffffffffffffffffffffffffffffffffff16146121bb57600080fd5b826012600086815260200190815260200160002060006101000a81548173ffffffffffffffffffffffffffffffffffffffff021916908373ffffffffffffffffffffffffffffffffffffffff160217905550816010600086815260200190815260200160002060006101000a81548173ffffffffffffffffffffffffffffffffffffffff021916908373ffffffffffffffffffffffffffffffffffffffff160217905550806011600086815260200190815260200160002060006101000a81548173ffffffffffffffffffffffffffffffffffffffff021916908373ffffffffffffffffffffffffffffffffffffffff16021790555050505050565b6000601360008473ffffffffffffffffffffffffffffffffffffffff1673ffffffffffffffffffffffffffffffffffffffff168152602001908152602001600020600083815260200190815260200160002054905092915050565b600960159054906101000a900460ff1615612362576040517f08c379a000000000000000000000000000000000000000000000000000000000815260040161235990613b98565b60405180910390fd5b60016005015442106123a9576040517f08c379a00000000000000000000000000000000000000000000000000000000081526004016123a090613c04565b60405180910390fd5b600960009054906101000a900473ffffffffffffffffffffffffffffffffffffffff1673ffffffffffffffffffffffffffffffffffffffff16638da5cb5b6040518163ffffffff1660e01b815260040160206040518083038186803b15801561241157600080fd5b505afa158015612425573d6000803e3d6000fd5b505050506040513d601f19601f820116820180604052508101906124499190613c39565b73ffffffffffffffffffffffffffffffffffffffff163373ffffffffffffffffffffffffffffffffffffffff161461248057600080fd5b6001600960156101000a81548160ff021916908315150217905550565b600960159054906101000a900460ff16156124ed576040517f08c379a00000000000000000000000000000000000000000000000000000000081526004016124e490613b98565b60405180910390fd5b6001600501544210612534576040517f08c379a000000000000000000000000000000000000000000000000000000000815260040161252b90613c04565b60405180910390fd5b600960009054906101000a900473ffffffffffffffffffffffffffffffffffffffff1673ffffffffffffffffffffffffffffffffffffffff16638da5cb5b6040518163ffffffff1660e01b815260040160206040518083038186803b15801561259c57600080fd5b505afa1580156125b0573d6000803e3d6000fd5b505050506040513d601f19601f820116820180604052508101906125d49190613c39565b73ffffffffffffffffffffffffffffffffffffffff163373ffffffffffffffffffffffffffffffffffffffff161461260b57600080fd5b8060016002018190555050565b612620612d93565b600073ffffffffffffffffffffffffffffffffffffffff168173ffffffffffffffffffffffffffffffffffffffff161415612690576040517f08c379a000000000000000000000000000000000000000000000000000000000815260040161268790613e5b565b60405180910390fd5b61269981612e11565b50565b60008111801561270c5750600073ffffffffffffffffffffffffffffffffffffffff166010600084815260200190815260200160002060009054906101000a900473ffffffffffffffffffffffffffffffffffffffff1673ffffffffffffffffffffffffffffffffffffffff1614155b1561281a576010600083815260200190815260200160002060009054906101000a900473ffffffffffffffffffffffffffffffffffffffff1673ffffffffffffffffffffffffffffffffffffffff166360a56b3a6012600085815260200190815260200160002060009054906101000a900473ffffffffffffffffffffffffffffffffffffffff166011600086815260200190815260200160002060009054906101000a900473ffffffffffffffffffffffffffffffffffffffff16846040518463ffffffff1660e01b81526004016127e793929190613cf8565b600060405180830381600087803b15801561280157600080fd5b505af1158015612815573d6000803e3d6000fd5b505050505b5050565b600080601060006001800154815260200190815260200160002060009054906101000a900473ffffffffffffffffffffffffffffffffffffffff169050600073ffffffffffffffffffffffffffffffffffffffff168173ffffffffffffffffffffffffffffffffffffffff1614156128cb576040517f08c379a00000000000000000000000000000000000000000000000000000000081526004016128c290613b2c565b60405180910390fd5b6000600160070180548060200260200160405190810160405280929190818152602001828054801561291c57602002820191906000526020600020905b815481526020019060010190808311612908575b505050505090506000815190506000601160006001800154815260200190815260200160002060009054906101000a900473ffffffffffffffffffffffffffffffffffffffff1673ffffffffffffffffffffffffffffffffffffffff166370a08231856040518263ffffffff1660e01b815260040161299b91906135ab565b60206040518083038186803b1580156129b357600080fd5b505afa1580156129c7573d6000803e3d6000fd5b505050506040513d601f19601f820116820180604052508101906129eb9190613a03565b905060005b82811015612b7c57600060106000868481518110612a1157612a106137fb565b5b6020026020010151815260200190815260200160002060009054906101000a900473ffffffffffffffffffffffffffffffffffffffff169050600060116000878581518110612a6357612a626137fb565b5b6020026020010151815260200190815260200160002060009054906101000a900473ffffffffffffffffffffffffffffffffffffffff169050600073ffffffffffffffffffffffffffffffffffffffff168273ffffffffffffffffffffffffffffffffffffffff1614612b67578073ffffffffffffffffffffffffffffffffffffffff166370a08231836040518263ffffffff1660e01b8152600401612b0991906135ab565b60206040518083038186803b158015612b2157600080fd5b505afa158015612b35573d6000803e3d6000fd5b505050506040513d601f19601f82011682018060405250810190612b599190613a03565b84612b649190613a30565b93505b50508080612b7490613913565b9150506129f0565b508094505050505090565b60006011600083815260200190815260200160002060009054906101000a900473ffffffffffffffffffffffffffffffffffffffff1673ffffffffffffffffffffffffffffffffffffffff166370a082316010600085815260200190815260200160002060009054906101000a900473ffffffffffffffffffffffffffffffffffffffff166040518263ffffffff1660e01b8152600401612c2891906135ab565b60206040518083038186803b158015612c4057600080fd5b505afa158015612c54573d6000803e3d6000fd5b505050506040513d601f19601f82011682018060405250810190612c789190613a03565b9050919050565b612c87612f38565b60008060146101000a81548160ff0219169083151502179055507f5db9ee0a495bf2e6ff9c91a7834c1ba4fdd244a5e8aa4e537bd38aeae4b073aa612cca612f81565b604051612cd791906135ab565b60405180910390a1565b60008251905060005b81811015612d4357612d30848281518110612d0857612d076137fb565b5b6020026020010151848381518110612d2357612d226137fb565b5b602002602001015161269c565b8080612d3b90613913565b915050612cea565b50505050565b612d5161115e565b15612d91576040517f08c379a0000000000000000000000000000000000000000000000000000000008152600401612d8890613ec7565b60405180910390fd5b565b612d9b612f81565b73ffffffffffffffffffffffffffffffffffffffff16612db96119f5565b73ffffffffffffffffffffffffffffffffffffffff1614612e0f576040517f08c379a0000000000000000000000000000000000000000000000000000000008152600401612e0690613f33565b60405180910390fd5b565b60008060009054906101000a900473ffffffffffffffffffffffffffffffffffffffff169050816000806101000a81548173ffffffffffffffffffffffffffffffffffffffff021916908373ffffffffffffffffffffffffffffffffffffffff1602179055508173ffffffffffffffffffffffffffffffffffffffff168173ffffffffffffffffffffffffffffffffffffffff167f8be0079c531659141344cd1fd0a4f28419497f9722a3daafe3b4186f6b6457e060405160405180910390a35050565b612edd612d49565b6001600060146101000a81548160ff0219169083151502179055507f62e78cea01bee320cd4e420270b5ea74000d11b0c9f74754ebdbfc544b05a258612f21612f81565b604051612f2e91906135ab565b60405180910390a1565b612f4061115e565b612f7f576040517f08c379a0000000000000000000000000000000000000000000000000000000008152600401612f7690613f9f565b60405180910390fd5b565b600033905090565b6000819050919050565b612f9c81612f89565b82525050565b6000602082019050612fb76000830184612f93565b92915050565b600081519050919050565b600082825260208201905092915050565b6000819050602082019050919050565b6000819050919050565b612ffc81612fe9565b82525050565b600061300e8383612ff3565b60208301905092915050565b6000602082019050919050565b600061303282612fbd565b61303c8185612fc8565b935061304783612fd9565b8060005b8381101561307857815161305f8882613002565b975061306a8361301a565b92505060018101905061304b565b5085935050505092915050565b6000602082019050818103600083015261309f8184613027565b905092915050565b6000604051905090565b600080fd5b600080fd5b6130c481612f89565b81146130cf57600080fd5b50565b6000813590506130e1816130bb565b92915050565b600080fd5b6000601f19601f8301169050919050565b7f4e487b7100000000000000000000000000000000000000000000000000000000600052604160045260246000fd5b613135826130ec565b810181811067ffffffffffffffff82111715613154576131536130fd565b5b80604052505050565b60006131676130a7565b9050613173828261312c565b919050565b600067ffffffffffffffff821115613193576131926130fd565b5b602082029050602081019050919050565b600080fd5b60006131bc6131b784613178565b61315d565b905080838252602082019050602084028301858111156131df576131de6131a4565b5b835b8181101561320857806131f488826130d2565b8452602084019350506020810190506131e1565b5050509392505050565b600082601f830112613227576132266130e7565b5b81356132378482602086016131a9565b91505092915050565b60008060408385031215613257576132566130b1565b5b6000613265858286016130d2565b925050602083013567ffffffffffffffff811115613286576132856130b6565b5b61329285828601613212565b9150509250929050565b600081519050919050565b600082825260208201905092915050565b6000819050602082019050919050565b6132d181612f89565b82525050565b60006132e383836132c8565b60208301905092915050565b6000602082019050919050565b60006133078261329c565b61331181856132a7565b935061331c836132b8565b8060005b8381101561334d57815161333488826132d7565b975061333f836132ef565b925050600181019050613320565b5085935050505092915050565b6000602082019050818103600083015261337481846132fc565b905092915050565b61338581612fe9565b811461339057600080fd5b50565b6000813590506133a28161337c565b92915050565b6000602082840312156133be576133bd6130b1565b5b60006133cc84828501613393565b91505092915050565b600080600080608085870312156133ef576133ee6130b1565b5b60006133fd878288016130d2565b945050602061340e878288016130d2565b935050604061341f878288016130d2565b925050606085013567ffffffffffffffff8111156134405761343f6130b6565b5b61344c87828801613212565b91505092959194509250565b600060408201905061346d6000830185612f93565b818103602083015261347f81846132fc565b90509392505050565b60006020828403121561349e5761349d6130b1565b5b60006134ac848285016130d2565b91505092915050565b60008115159050919050565b6134ca816134b5565b82525050565b60006020820190506134e560008301846134c1565b92915050565b600073ffffffffffffffffffffffffffffffffffffffff82169050919050565b6000613516826134eb565b9050919050565b6135268161350b565b811461353157600080fd5b50565b6000813590506135438161351d565b92915050565b600080600060608486031215613562576135616130b1565b5b600061357086828701613393565b935050602061358186828701613534565b9250506040613592868287016130d2565b9150509250925092565b6135a58161350b565b82525050565b60006020820190506135c0600083018461359c565b92915050565b6135cf81612fe9565b82525050565b60006020820190506135ea60008301846135c6565b92915050565b600081519050919050565b600082825260208201905092915050565b60005b8381101561362a57808201518184015260208101905061360f565b83811115613639576000848401525b50505050565b600061364a826135f0565b61365481856135fb565b935061366481856020860161360c565b61366d816130ec565b840191505092915050565b600060c0820190508181036000830152613692818961363f565b90506136a16020830188612f93565b6136ae6040830187612f93565b6136bb6060830186612f93565b6136c86080830185612f93565b81810360a08301526136da818461363f565b9050979650505050505050565b60008060008060808587031215613701576137006130b1565b5b600061370f87828801613393565b945050602061372087828801613534565b935050604061373187828801613534565b925050606061374287828801613534565b91505092959194509250565b60008060408385031215613765576137646130b1565b5b600061377385828601613534565b925050602061378485828601613393565b9150509250929050565b6000602082840312156137a4576137a36130b1565b5b60006137b284828501613534565b91505092915050565b600080604083850312156137d2576137d16130b1565b5b60006137e085828601613393565b92505060206137f1858286016130d2565b9150509250929050565b7f4e487b7100000000000000000000000000000000000000000000000000000000600052603260045260246000fd5b7f4e487b7100000000000000000000000000000000000000000000000000000000600052601160045260246000fd5b600061386482612f89565b915061386f83612f89565b9250817fffffffffffffffffffffffffffffffffffffffffffffffffffffffffffffffff04831182151516156138a8576138a761382a565b5b828202905092915050565b7f4e487b7100000000000000000000000000000000000000000000000000000000600052601260045260246000fd5b60006138ed82612f89565b91506138f883612f89565b925082613908576139076138b3565b5b828204905092915050565b600061391e82612f89565b91507fffffffffffffffffffffffffffffffffffffffffffffffffffffffffffffffff8214156139515761395061382a565b5b600182019050919050565b7f43616d706169676e496e666f3a2054726561737572792061646472657373206660008201527f6f7220706c6174666f726d206973206e6f742073657400000000000000000000602082015250565b60006139b86036836135fb565b91506139c38261395c565b604082019050919050565b600060208201905081810360008301526139e7816139ab565b9050919050565b6000815190506139fd816130bb565b92915050565b600060208284031215613a1957613a186130b1565b5b6000613a27848285016139ee565b91505092915050565b6000613a3b82612f89565b9150613a4683612f89565b9250827fffffffffffffffffffffffffffffffffffffffffffffffffffffffffffffffff03821115613a7b57613a7a61382a565b5b828201905092915050565b6000613a9182612f89565b9150613a9c83612f89565b925082821015613aaf57613aae61382a565b5b828203905092915050565b7f43616d706169676e496e666f3a204f726967696e20706c6174666f726d20747260008201527f656173757279206e6f7420736574207965740000000000000000000000000000602082015250565b6000613b166032836135fb565b9150613b2182613aba565b604082019050919050565b60006020820190508181036000830152613b4581613b09565b9050919050565b7f43616d706169676e496e666f3a2043616d706169676e20656e64656400000000600082015250565b6000613b82601c836135fb565b9150613b8d82613b4c565b602082019050919050565b60006020820190508181036000830152613bb181613b75565b9050919050565b7f43616d706169676e496e666f3a2043616d706169676e206f7665720000000000600082015250565b6000613bee601b836135fb565b9150613bf982613bb8565b602082019050919050565b60006020820190508181036000830152613c1d81613be1565b9050919050565b600081519050613c338161351d565b92915050565b600060208284031215613c4f57613c4e6130b1565b5b6000613c5d84828501613c24565b91505092915050565b7f43616d706169676e496e666f3a2052657761726420706c6174666f726d206e6f60008201527f7420736574207965740000000000000000000000000000000000000000000000602082015250565b6000613cc26029836135fb565b9150613ccd82613c66565b604082019050919050565b60006020820190508181036000830152613cf181613cb5565b9050919050565b6000606082019050613d0d600083018661359c565b613d1a602083018561359c565b613d276040830184612f93565b949350505050565b613d38816134b5565b8114613d4357600080fd5b50565b600081519050613d5581613d2f565b92915050565b600060208284031215613d7157613d706130b1565b5b6000613d7f84828501613d46565b91505092915050565b7f4e487b7100000000000000000000000000000000000000000000000000000000600052602260045260246000fd5b60006002820490506001821680613dcf57607f821691505b60208210811415613de357613de2613d88565b5b50919050565b7f4f776e61626c653a206e6577206f776e657220697320746865207a65726f206160008201527f6464726573730000000000000000000000000000000000000000000000000000602082015250565b6000613e456026836135fb565b9150613e5082613de9565b604082019050919050565b60006020820190508181036000830152613e7481613e38565b9050919050565b7f5061757361626c653a2070617573656400000000000000000000000000000000600082015250565b6000613eb16010836135fb565b9150613ebc82613e7b565b602082019050919050565b60006020820190508181036000830152613ee081613ea4565b9050919050565b7f4f776e61626c653a2063616c6c6572206973206e6f7420746865206f776e6572600082015250565b6000613f1d6020836135fb565b9150613f2882613ee7565b602082019050919050565b60006020820190508181036000830152613f4c81613f10565b9050919050565b7f5061757361626c653a206e6f7420706175736564000000000000000000000000600082015250565b6000613f896014836135fb565b9150613f9482613f53565b602082019050919050565b60006020820190508181036000830152613fb881613f7c565b905091905056fea26469706673582212207578858548d577b47e479c4aac3fa485dab3cfd3c4267fc5ee7ee0b244c6c29564736f6c63430008090033a26469706673582212203e4328cefebe0a348503fcffe1b47b0e2b46623db89855f0166d6db9473ffd4d64736f6c63430008090033",
  "linkReferences": {},
  "deployedLinkReferences": {}
}