{
  "_format": "hh-sol-artifact-1",
  "contractName": "CampaignInfoFactory",
  "sourceName": "contracts/CampaignInfoFactory.sol",
  "abi": [
    {
      "inputs": [
        {
          "internalType": "address",
          "name": "_registry",
          "type": "address"
        }
      ],
      "stateMutability": "nonpayable",
      "type": "constructor"
    },
    {
      "anonymous": false,
      "inputs": [
        {
          "indexed": false,
          "internalType": "string",
          "name": "identifier",
          "type": "string"
        },
        {
          "indexed": true,
          "internalType": "address",
          "name": "campaignInfoAddress",
          "type": "address"
        }
      ],
      "name": "campaignCreation",
      "type": "event"
    },
    {
      "inputs": [
        {
          "internalType": "address",
          "name": "_creator",
          "type": "address"
        },
        {
          "internalType": "string",
          "name": "_identifier",
          "type": "string"
        },
        {
          "internalType": "bytes32",
          "name": "_originPlatform",
          "type": "bytes32"
        },
        {
          "internalType": "string",
          "name": "_creatorUrl",
          "type": "string"
        },
        {
          "internalType": "bytes32[]",
          "name": "_reachPlatform",
          "type": "bytes32[]"
        }
      ],
      "name": "createCampaign",
      "outputs": [],
      "stateMutability": "nonpayable",
      "type": "function"
    }
  ],
  "bytecode": "0x608060405234801561001057600080fd5b50604051615542380380615542833981810160405281019061003291906100dc565b80600160006101000a81548173ffffffffffffffffffffffffffffffffffffffff021916908373ffffffffffffffffffffffffffffffffffffffff16021790555050610109565b600080fd5b600073ffffffffffffffffffffffffffffffffffffffff82169050919050565b60006100a98261007e565b9050919050565b6100b98161009e565b81146100c457600080fd5b50565b6000815190506100d6816100b0565b92915050565b6000602082840312156100f2576100f1610079565b5b6000610100848285016100c7565b91505092915050565b61542a806101186000396000f3fe60806040523480156200001157600080fd5b50600436106200002e5760003560e01c806318c823c71462000033575b600080fd5b6200005160048036038101906200004b919062000542565b62000053565b005b83838383600160009054906101000a900473ffffffffffffffffffffffffffffffffffffffff1689604051620000899062000243565b6200009a96959493929190620007aa565b604051809103906000f080158015620000b7573d6000803e3d6000fd5b506000806101000a81548173ffffffffffffffffffffffffffffffffffffffff021916908373ffffffffffffffffffffffffffffffffffffffff16021790555060008060009054906101000a900473ffffffffffffffffffffffffffffffffffffffff169050600073ffffffffffffffffffffffffffffffffffffffff168173ffffffffffffffffffffffffffffffffffffffff1614156200015857600080fd5b600160009054906101000a900473ffffffffffffffffffffffffffffffffffffffff1673ffffffffffffffffffffffffffffffffffffffff16632c64ba1586836040518363ffffffff1660e01b8152600401620001b79291906200082c565b600060405180830381600087803b158015620001d257600080fd5b505af1158015620001e7573d6000803e3d6000fd5b505050508073ffffffffffffffffffffffffffffffffffffffff167ff4d491a6f1d235565138b729aec590f73a429a7debf862af41af0d001ab8da378660405162000233919062000860565b60405180910390a2505050505050565b614b70806200088583390190565b6000604051905090565b600080fd5b600080fd5b600073ffffffffffffffffffffffffffffffffffffffff82169050919050565b6000620002928262000265565b9050919050565b620002a48162000285565b8114620002b057600080fd5b50565b600081359050620002c48162000299565b92915050565b600080fd5b600080fd5b6000601f19601f8301169050919050565b7f4e487b7100000000000000000000000000000000000000000000000000000000600052604160045260246000fd5b6200031f82620002d4565b810181811067ffffffffffffffff82111715620003415762000340620002e5565b5b80604052505050565b60006200035662000251565b905062000364828262000314565b919050565b600067ffffffffffffffff821115620003875762000386620002e5565b5b6200039282620002d4565b9050602081019050919050565b82818337600083830152505050565b6000620003c5620003bf8462000369565b6200034a565b905082815260208101848484011115620003e457620003e3620002cf565b5b620003f18482856200039f565b509392505050565b600082601f830112620004115762000410620002ca565b5b813562000423848260208601620003ae565b91505092915050565b6000819050919050565b62000441816200042c565b81146200044d57600080fd5b50565b600081359050620004618162000436565b92915050565b600067ffffffffffffffff821115620004855762000484620002e5565b5b602082029050602081019050919050565b600080fd5b6000620004b2620004ac8462000467565b6200034a565b90508083825260208201905060208402830185811115620004d857620004d762000496565b5b835b81811015620005055780620004f0888262000450565b845260208401935050602081019050620004da565b5050509392505050565b600082601f830112620005275762000526620002ca565b5b8135620005398482602086016200049b565b91505092915050565b600080600080600060a086880312156200056157620005606200025b565b5b60006200057188828901620002b3565b955050602086013567ffffffffffffffff81111562000595576200059462000260565b5b620005a388828901620003f9565b9450506040620005b68882890162000450565b935050606086013567ffffffffffffffff811115620005da57620005d962000260565b5b620005e888828901620003f9565b925050608086013567ffffffffffffffff8111156200060c576200060b62000260565b5b6200061a888289016200050f565b9150509295509295909350565b600081519050919050565b600082825260208201905092915050565b60005b838110156200066357808201518184015260208101905062000646565b8381111562000673576000848401525b50505050565b6000620006868262000627565b62000692818562000632565b9350620006a481856020860162000643565b620006af81620002d4565b840191505092915050565b620006c5816200042c565b82525050565b600081519050919050565b600082825260208201905092915050565b6000819050602082019050919050565b62000702816200042c565b82525050565b6000620007168383620006f7565b60208301905092915050565b6000602082019050919050565b60006200073c82620006cb565b620007488185620006d6565b93506200075583620006e7565b8060005b838110156200078c57815162000770888262000708565b97506200077d8362000722565b92505060018101905062000759565b5085935050505092915050565b620007a48162000285565b82525050565b600060c0820190508181036000830152620007c6818962000679565b9050620007d76020830188620006ba565b8181036040830152620007eb818762000679565b905081810360608301526200080181866200072f565b905062000812608083018562000799565b6200082160a083018462000799565b979650505050505050565b6000604082019050818103600083015262000848818562000679565b905062000859602083018462000799565b9392505050565b600060208201905081810360008301526200087c818462000679565b90509291505056fe60806040523480156200001157600080fd5b5060405162004b7038038062004b70833981810160405281019062000037919062000794565b620000576200004b6200013e60201b60201c565b6200014660201b60201c565b60008060146101000a81548160ff02191690831515021790555085600360000190805190602001906200008c9291906200035b565b5084600360010181905550426003600401819055508360036006019080519060200190620000bc9291906200035b565b508260036007019080519060200190620000d8929190620003ec565b5081600b60006101000a81548173ffffffffffffffffffffffffffffffffffffffff021916908373ffffffffffffffffffffffffffffffffffffffff16021790555042600f8190555062000132816200020a60201b60201c565b50505050505062000a0d565b600033905090565b60008060009054906101000a900473ffffffffffffffffffffffffffffffffffffffff169050816000806101000a81548173ffffffffffffffffffffffffffffffffffffffff021916908373ffffffffffffffffffffffffffffffffffffffff1602179055508173ffffffffffffffffffffffffffffffffffffffff168173ffffffffffffffffffffffffffffffffffffffff167f8be0079c531659141344cd1fd0a4f28419497f9722a3daafe3b4186f6b6457e060405160405180910390a35050565b6200021a620002a160201b60201c565b600073ffffffffffffffffffffffffffffffffffffffff168173ffffffffffffffffffffffffffffffffffffffff1614156200028d576040517f08c379a0000000000000000000000000000000000000000000000000000000008152600401620002849062000914565b60405180910390fd5b6200029e816200014660201b60201c565b50565b620002b16200013e60201b60201c565b73ffffffffffffffffffffffffffffffffffffffff16620002d76200033260201b60201c565b73ffffffffffffffffffffffffffffffffffffffff161462000330576040517f08c379a0000000000000000000000000000000000000000000000000000000008152600401620003279062000986565b60405180910390fd5b565b60008060009054906101000a900473ffffffffffffffffffffffffffffffffffffffff16905090565b8280546200036990620009d7565b90600052602060002090601f0160209004810192826200038d5760008555620003d9565b82601f10620003a857805160ff1916838001178555620003d9565b82800160010185558215620003d9579182015b82811115620003d8578251825591602001919060010190620003bb565b5b509050620003e891906200043e565b5090565b8280548282559060005260206000209081019282156200042b579160200282015b828111156200042a5782518255916020019190600101906200040d565b5b5090506200043a91906200045d565b5090565b5b80821115620004595760008160009055506001016200043f565b5090565b5b80821115620004785760008160009055506001016200045e565b5090565b6000604051905090565b600080fd5b600080fd5b600080fd5b600080fd5b6000601f19601f8301169050919050565b7f4e487b7100000000000000000000000000000000000000000000000000000000600052604160045260246000fd5b620004e5826200049a565b810181811067ffffffffffffffff82111715620005075762000506620004ab565b5b80604052505050565b60006200051c6200047c565b90506200052a8282620004da565b919050565b600067ffffffffffffffff8211156200054d576200054c620004ab565b5b62000558826200049a565b9050602081019050919050565b60005b838110156200058557808201518184015260208101905062000568565b8381111562000595576000848401525b50505050565b6000620005b2620005ac846200052f565b62000510565b905082815260208101848484011115620005d157620005d062000495565b5b620005de84828562000565565b509392505050565b600082601f830112620005fe57620005fd62000490565b5b8151620006108482602086016200059b565b91505092915050565b6000819050919050565b6200062e8162000619565b81146200063a57600080fd5b50565b6000815190506200064e8162000623565b92915050565b600067ffffffffffffffff821115620006725762000671620004ab565b5b602082029050602081019050919050565b600080fd5b60006200069f620006998462000654565b62000510565b90508083825260208201905060208402830185811115620006c557620006c462000683565b5b835b81811015620006f25780620006dd88826200063d565b845260208401935050602081019050620006c7565b5050509392505050565b600082601f83011262000714576200071362000490565b5b81516200072684826020860162000688565b91505092915050565b600073ffffffffffffffffffffffffffffffffffffffff82169050919050565b60006200075c826200072f565b9050919050565b6200076e816200074f565b81146200077a57600080fd5b50565b6000815190506200078e8162000763565b92915050565b60008060008060008060c08789031215620007b457620007b362000486565b5b600087015167ffffffffffffffff811115620007d557620007d46200048b565b5b620007e389828a01620005e6565b9650506020620007f689828a016200063d565b955050604087015167ffffffffffffffff8111156200081a57620008196200048b565b5b6200082889828a01620005e6565b945050606087015167ffffffffffffffff8111156200084c576200084b6200048b565b5b6200085a89828a01620006fc565b93505060806200086d89828a016200077d565b92505060a06200088089828a016200077d565b9150509295509295509295565b600082825260208201905092915050565b7f4f776e61626c653a206e6577206f776e657220697320746865207a65726f206160008201527f6464726573730000000000000000000000000000000000000000000000000000602082015250565b6000620008fc6026836200088d565b915062000909826200089e565b604082019050919050565b600060208201905081810360008301526200092f81620008ed565b9050919050565b7f4f776e61626c653a2063616c6c6572206973206e6f7420746865206f776e6572600082015250565b60006200096e6020836200088d565b91506200097b8262000936565b602082019050919050565b60006020820190508181036000830152620009a1816200095f565b9050919050565b7f4e487b7100000000000000000000000000000000000000000000000000000000600052602260045260246000fd5b60006002820490506001821680620009f057607f821691505b6020821081141562000a075762000a06620009a8565b5b50919050565b6141538062000a1d6000396000f3fe608060405234801561001057600080fd5b50600436106101cf5760003560e01c80637712b17211610104578063b1c1f7f2116100a2578063efbe1c1c11610071578063efbe1c1c14610497578063f2fde38b146104a1578063f8403676146104bd578063fb7846df146104db576101cf565b8063b1c1f7f21461040c578063c417633814610428578063deaaf2411461044b578063e12900f214610467576101cf565b80638456cb59116100de5780638456cb591461039657806384ea5c74146103a05780638da5cb5b146103d0578063a0797f75146103ee576101cf565b80637712b172146103405780637ed8a7191461035e57806383d23ab31461037a576101cf565b80633f4ba83a1161017157806368027e431161014b57806368027e43146102f4578063695c27c214610310578063715018a61461032c5780637568173b14610336576101cf565b80633f4ba83a146102b057806342af1884146102ba5780635c975abb146102d6576101cf565b80632e162db6116101ad5780632e162db61461022a57806330c00b0014610248578063316fb7c41461027857806337724c7514610294576101cf565b806301e81781146101d457806319188bd8146101f0578063195761241461020c575b600080fd5b6101ee60048036038101906101e99190612ccb565b61050b565b005b61020a6004803603810190610205919061305a565b610890565b005b6102146109cb565b6040516102219190613129565b60405180910390f35b6102326109d1565b60405161023f9190613202565b60405180910390f35b610262600480360381019061025d9190613224565b610a2c565b60405161026f9190613260565b60405180910390f35b610292600480360381019061028d919061327b565b610bc9565b005b6102ae60048036038101906102a991906132a8565b610c2e565b005b6102b8610ec5565b005b6102d460048036038101906102cf919061327b565b610f95565b005b6102de611017565b6040516102eb9190613303565b60405180910390f35b61030e6004803603810190610309919061327b565b61102d565b005b61032a6004803603810190610325919061334a565b6110af565b005b610334611175565b005b61033e611189565b005b610348611669565b6040516103559190613260565b60405180910390f35b610378600480360381019061037391906133b1565b61166f565b005b610394600480360381019061038f9190613224565b611716565b005b61039e61179d565b005b6103ba60048036038101906103b59190613224565b61186d565b6040516103c79190613441565b60405180910390f35b6103d861194f565b6040516103e59190613441565b60405180910390f35b6103f6611978565b6040516104039190613129565b60405180910390f35b6104266004803603810190610421919061345c565b611985565b005b610430611c92565b60405161044296959493929190613537565b60405180910390f35b610465600480360381019061046091906135a6565b611de9565b005b610481600480360381019061047c919061360d565b611f3d565b60405161048e9190613260565b60405180910390f35b61049f611f98565b005b6104bb60048036038101906104b6919061364d565b61200d565b005b6104c5612091565b6040516104d29190613260565b60405180910390f35b6104f560048036038101906104f09190613224565b6123fc565b6040516105029190613260565b60405180910390f35b600b60149054906101000a900460ff161561055b576040517f08c379a0000000000000000000000000000000000000000000000000000000008152600401610552906136c6565b60405180910390fd5b6105636124f4565b600d60009054906101000a900460ff1680156105825750426003800154105b61058b57600080fd5b60006011600086815260200190815260200160002060009054906101000a900473ffffffffffffffffffffffffffffffffffffffff1690506000600184846040516105d7929190613716565b9081526020016040518091039020600001549050601460008673ffffffffffffffffffffffffffffffffffffffff1673ffffffffffffffffffffffffffffffffffffffff16815260200190815260200160002060009054906101000a900460ff16156106a55760018161064a919061375e565b90506000601460008773ffffffffffffffffffffffffffffffffffffffff1673ffffffffffffffffffffffffffffffffffffffff16815260200190815260200160002060006101000a81548160ff0219169083151502179055505b8173ffffffffffffffffffffffffffffffffffffffff166323b872dd86601060008a815260200190815260200160002060009054906101000a900473ffffffffffffffffffffffffffffffffffffffff16846040518463ffffffff1660e01b815260040161071593929190613792565b602060405180830381600087803b15801561072f57600080fd5b505af1158015610743573d6000803e3d6000fd5b505050506040513d601f19601f8201168201806040525081019061076791906137de565b50600b60009054906101000a900473ffffffffffffffffffffffffffffffffffffffff1673ffffffffffffffffffffffffffffffffffffffff166330525f666040518163ffffffff1660e01b815260040160206040518083038186803b1580156107d057600080fd5b505afa1580156107e4573d6000803e3d6000fd5b505050506040513d601f19601f820116820180604052508101906108089190613820565b73ffffffffffffffffffffffffffffffffffffffff16634ebc0c198684600185610832919061384d565b8a89896040518763ffffffff1660e01b8152600401610856969594939291906138d0565b600060405180830381600087803b15801561087057600080fd5b505af1158015610884573d6000803e3d6000fd5b50505050505050505050565b600260038111156108a4576108a361392c565b5b6108ac61253e565b60038111156108be576108bd61392c565b5b146108fe576040517f08c379a00000000000000000000000000000000000000000000000000000000081526004016108f5906139a7565b60405180910390fd5b600060018686604051610912929190613716565b90815260200160405180910390209050838160000181905550828160020190805190602001906109439291906129d1565b5060008251905060005b818110156109c157838181518110610968576109676139c7565b5b602002602001015183600301868381518110610987576109866139c7565b5b602002602001015160405161099c9190613a27565b90815260200160405180910390208190555080806109b990613a3e565b91505061094d565b5050505050505050565b600e5481565b60606003600701805480602002602001604051908101604052809291908181526020018280548015610a2257602002820191906000526020600020905b815481526020019060010190808311610a0e575b5050505050905090565b600081600073ffffffffffffffffffffffffffffffffffffffff166010600083815260200190815260200160002060009054906101000a900473ffffffffffffffffffffffffffffffffffffffff1673ffffffffffffffffffffffffffffffffffffffff161415610ad2576040517f08c379a0000000000000000000000000000000000000000000000000000000008152600401610ac990613af9565b60405180910390fd5b6011600084815260200190815260200160002060009054906101000a900473ffffffffffffffffffffffffffffffffffffffff1673ffffffffffffffffffffffffffffffffffffffff166370a082316010600086815260200190815260200160002060009054906101000a900473ffffffffffffffffffffffffffffffffffffffff166040518263ffffffff1660e01b8152600401610b719190613441565b60206040518083038186803b158015610b8957600080fd5b505afa158015610b9d573d6000803e3d6000fd5b505050506040513d601f19601f82011682018060405250810190610bc19190613b2e565b915050919050565b600b60149054906101000a900460ff1615610c19576040517f08c379a0000000000000000000000000000000000000000000000000000000008152600401610c10906136c6565b60405180910390fd5b610c2161258f565b8060036002018190555050565b600b60149054906101000a900460ff1615610c7e576040517f08c379a0000000000000000000000000000000000000000000000000000000008152600401610c75906136c6565b60405180910390fd5b610c866124f4565b600d60009054906101000a900460ff161580610ca55750426003800154115b610cae57600080fd5b60006011600084815260200190815260200160002060009054906101000a900473ffffffffffffffffffffffffffffffffffffffff1690506000600190508173ffffffffffffffffffffffffffffffffffffffff166323b872dd846010600088815260200190815260200160002060009054906101000a900473ffffffffffffffffffffffffffffffffffffffff16846040518463ffffffff1660e01b8152600401610d5c93929190613792565b602060405180830381600087803b158015610d7657600080fd5b505af1158015610d8a573d6000803e3d6000fd5b505050506040513d601f19601f82011682018060405250810190610dae91906137de565b50600b60009054906101000a900473ffffffffffffffffffffffffffffffffffffffff1673ffffffffffffffffffffffffffffffffffffffff166330525f666040518163ffffffff1660e01b815260040160206040518083038186803b158015610e1757600080fd5b505afa158015610e2b573d6000803e3d6000fd5b505050506040513d601f19601f82011682018060405250810190610e4f9190613820565b73ffffffffffffffffffffffffffffffffffffffff16638e48312f848484886040518563ffffffff1660e01b8152600401610e8d9493929190613b5b565b600060405180830381600087803b158015610ea757600080fd5b505af1158015610ebb573d6000803e3d6000fd5b5050505050505050565b600b60149054906101000a900460ff1615610f15576040517f08c379a0000000000000000000000000000000000000000000000000000000008152600401610f0c906136c6565b60405180910390fd5b610f1d61258f565b60026003811115610f3157610f3061392c565b5b610f3961253e565b6003811115610f4b57610f4a61392c565b5b14610f8b576040517f08c379a0000000000000000000000000000000000000000000000000000000008152600401610f8290613bec565b60405180910390fd5b610f9361260d565b565b600b60149054906101000a900460ff1615610fe5576040517f08c379a0000000000000000000000000000000000000000000000000000000008152600401610fdc906136c6565b60405180910390fd5b610fed61258f565b80600c546003800154611000919061384d565b1061100a57600080fd5b8060036005018190555050565b60008060149054906101000a900460ff16905090565b600b60149054906101000a900460ff161561107d576040517f08c379a0000000000000000000000000000000000000000000000000000000008152600401611074906136c6565b60405180910390fd5b61108561258f565b600360050154600c5482611099919061384d565b106110a357600080fd5b80600380018190555050565b600060038111156110c3576110c261392c565b5b6110cb61253e565b60038111156110dd576110dc61392c565b5b1461111d576040517f08c379a000000000000000000000000000000000000000000000000000000000815260040161111490613c58565b60405180910390fd5b836003800181905550826003600501819055508160036002018190555080600d60016101000a81548160ff0219169083151502179055506001600d60006101000a81548160ff02191690831515021790555050505050565b61117d61258f565b611187600061266f565b565b6000600b60009054906101000a900473ffffffffffffffffffffffffffffffffffffffff1673ffffffffffffffffffffffffffffffffffffffff16635bad43996040518163ffffffff1660e01b815260040160206040518083038186803b1580156111f357600080fd5b505afa158015611207573d6000803e3d6000fd5b505050506040513d601f19601f8201168201806040525081019061122b9190613820565b90506000600360070180548060200260200160405190810160405280929190818152602001828054801561127e57602002820191906000526020600020905b81548152602001906001019080831161126a575b50505050509050600060018251611295919061384d565b67ffffffffffffffff8111156112ae576112ad612d86565b5b6040519080825280602002602001820160405280156112dc5781602001602082028036833780820191505090505b5090506000600183516112ef919061384d565b67ffffffffffffffff81111561130857611307612d86565b5b6040519080825280602002602001820160405280156113365781602001602082028036833780820191505090505b50905060005b83518110156113d457838181518110611358576113576139c7565b5b6020026020010151838281518110611373576113726139c7565b5b6020026020010181815250506113a2848281518110611395576113946139c7565b5b6020026020010151610a2c565b8282815181106113b5576113b46139c7565b5b60200260200101818152505080806113cc90613a3e565b91505061133c565b50600360010154828451815181106113ef576113ee6139c7565b5b602002602001018181525050611409600360010154610a2c565b8184518151811061141d5761141c6139c7565b5b6020026020010181815250506000600b60009054906101000a900473ffffffffffffffffffffffffffffffffffffffff1673ffffffffffffffffffffffffffffffffffffffff16630eeaef466040518163ffffffff1660e01b815260040160206040518083038186803b15801561149357600080fd5b505afa1580156114a7573d6000803e3d6000fd5b505050506040513d601f19601f820116820180604052508101906114cb9190613820565b73ffffffffffffffffffffffffffffffffffffffff1663bdec30ba8673ffffffffffffffffffffffffffffffffffffffff16638274f2d66040518163ffffffff1660e01b815260040160206040518083038186803b15801561152c57600080fd5b505afa158015611540573d6000803e3d6000fd5b505050506040513d601f19601f820116820180604052508101906115649190613b2e565b8773ffffffffffffffffffffffffffffffffffffffff1663fe6f1b056040518163ffffffff1660e01b815260040160206040518083038186803b1580156115aa57600080fd5b505afa1580156115be573d6000803e3d6000fd5b505050506040513d601f19601f820116820180604052508101906115e29190613b2e565b856040518463ffffffff1660e01b815260040161160193929190613d36565b60006040518083038186803b15801561161957600080fd5b505afa15801561162d573d6000803e3d6000fd5b505050506040513d6000823e3d601f19601f820116820180604052508101906116569190613e0b565b90506116628382612733565b5050505050565b600f5481565b600260038111156116835761168261392c565b5b61168b61253e565b600381111561169d5761169c61392c565b5b146116dd576040517f08c379a00000000000000000000000000000000000000000000000000000000081526004016116d4906139a7565b60405180910390fd5b8181600286866040516116f1929190613716565b9081526020016040518091039020600001919061170f929190612a31565b5050505050565b600b60149054906101000a900460ff1615611766576040517f08c379a000000000000000000000000000000000000000000000000000000000815260040161175d906136c6565b60405180910390fd5b61176e61258f565b600360070181908060018154018082558091505060019003906000526020600020016000909190919091505550565b600b60149054906101000a900460ff16156117ed576040517f08c379a00000000000000000000000000000000000000000000000000000000081526004016117e4906136c6565b60405180910390fd5b6117f561258f565b600260038111156118095761180861392c565b5b61181161253e565b60038111156118235761182261392c565b5b14611863576040517f08c379a000000000000000000000000000000000000000000000000000000000815260040161185a90613bec565b60405180910390fd5b61186b61279b565b565b600081600073ffffffffffffffffffffffffffffffffffffffff166010600083815260200190815260200160002060009054906101000a900473ffffffffffffffffffffffffffffffffffffffff1673ffffffffffffffffffffffffffffffffffffffff161415611913576040517f08c379a000000000000000000000000000000000000000000000000000000000815260040161190a90613af9565b60405180910390fd5b6010600084815260200190815260200160002060009054906101000a900473ffffffffffffffffffffffffffffffffffffffff16915050919050565b60008060009054906101000a900473ffffffffffffffffffffffffffffffffffffffff16905090565b6000600360010154905090565b600b60149054906101000a900460ff16156119d5576040517f08c379a00000000000000000000000000000000000000000000000000000000081526004016119cc906136c6565b60405180910390fd5b6119dd6124f4565b426003600501541015611a1c576003600201546119f8612091565b10158015611a125750600d60019054906101000a900460ff165b611a1b57600080fd5b5b42600380015410611a2c57600080fd5b60006011600085815260200190815260200160002060009054906101000a900473ffffffffffffffffffffffffffffffffffffffff1690508073ffffffffffffffffffffffffffffffffffffffff166323b872dd846010600088815260200190815260200160002060009054906101000a900473ffffffffffffffffffffffffffffffffffffffff16856040518463ffffffff1660e01b8152600401611ad493929190613792565b602060405180830381600087803b158015611aee57600080fd5b505af1158015611b02573d6000803e3d6000fd5b505050506040513d601f19601f82011682018060405250810190611b2691906137de565b5081601360008573ffffffffffffffffffffffffffffffffffffffff1673ffffffffffffffffffffffffffffffffffffffff168152602001908152602001600020600086815260200190815260200160002081905550600b60009054906101000a900473ffffffffffffffffffffffffffffffffffffffff1673ffffffffffffffffffffffffffffffffffffffff166330525f666040518163ffffffff1660e01b815260040160206040518083038186803b158015611be457600080fd5b505afa158015611bf8573d6000803e3d6000fd5b505050506040513d601f19601f82011682018060405250810190611c1c9190613820565b73ffffffffffffffffffffffffffffffffffffffff16638e48312f848385886040518563ffffffff1660e01b8152600401611c5a9493929190613b5b565b600060405180830381600087803b158015611c7457600080fd5b505af1158015611c88573d6000803e3d6000fd5b5050505050505050565b60606000806000806060600360000160036002015460038001546003600401546003600501546003600601858054611cc990613e83565b80601f0160208091040260200160405190810160405280929190818152602001828054611cf590613e83565b8015611d425780601f10611d1757610100808354040283529160200191611d42565b820191906000526020600020905b815481529060010190602001808311611d2557829003601f168201915b50505050509550808054611d5590613e83565b80601f0160208091040260200160405190810160405280929190818152602001828054611d8190613e83565b8015611dce5780601f10611da357610100808354040283529160200191611dce565b820191906000526020600020905b815481529060010190602001808311611db157829003601f168201915b50505050509050955095509550955095509550909192939495565b600b60149054906101000a900460ff1615611e39576040517f08c379a0000000000000000000000000000000000000000000000000000000008152600401611e30906136c6565b60405180910390fd5b611e4161258f565b826012600086815260200190815260200160002060006101000a81548173ffffffffffffffffffffffffffffffffffffffff021916908373ffffffffffffffffffffffffffffffffffffffff160217905550816010600086815260200190815260200160002060006101000a81548173ffffffffffffffffffffffffffffffffffffffff021916908373ffffffffffffffffffffffffffffffffffffffff160217905550806011600086815260200190815260200160002060006101000a81548173ffffffffffffffffffffffffffffffffffffffff021916908373ffffffffffffffffffffffffffffffffffffffff16021790555050505050565b6000601360008473ffffffffffffffffffffffffffffffffffffffff1673ffffffffffffffffffffffffffffffffffffffff168152602001908152602001600020600083815260200190815260200160002054905092915050565b600b60149054906101000a900460ff1615611fe8576040517f08c379a0000000000000000000000000000000000000000000000000000000008152600401611fdf906136c6565b60405180910390fd5b611ff061258f565b6001600b60146101000a81548160ff021916908315150217905550565b61201561258f565b600073ffffffffffffffffffffffffffffffffffffffff168173ffffffffffffffffffffffffffffffffffffffff161415612085576040517f08c379a000000000000000000000000000000000000000000000000000000000815260040161207c90613f27565b60405180910390fd5b61208e8161266f565b50565b60008060106000600360010154815260200190815260200160002060009054906101000a900473ffffffffffffffffffffffffffffffffffffffff169050600073ffffffffffffffffffffffffffffffffffffffff168173ffffffffffffffffffffffffffffffffffffffff16141561213f576040517f08c379a000000000000000000000000000000000000000000000000000000000815260040161213690613fb9565b60405180910390fd5b6000600360070180548060200260200160405190810160405280929190818152602001828054801561219057602002820191906000526020600020905b81548152602001906001019080831161217c575b50505050509050600081519050600060116000600360010154815260200190815260200160002060009054906101000a900473ffffffffffffffffffffffffffffffffffffffff1673ffffffffffffffffffffffffffffffffffffffff166370a08231856040518263ffffffff1660e01b81526004016122109190613441565b60206040518083038186803b15801561222857600080fd5b505afa15801561223c573d6000803e3d6000fd5b505050506040513d601f19601f820116820180604052508101906122609190613b2e565b905060005b828110156123f157600060106000868481518110612286576122856139c7565b5b6020026020010151815260200190815260200160002060009054906101000a900473ffffffffffffffffffffffffffffffffffffffff1690506000601160008785815181106122d8576122d76139c7565b5b6020026020010151815260200190815260200160002060009054906101000a900473ffffffffffffffffffffffffffffffffffffffff169050600073ffffffffffffffffffffffffffffffffffffffff168273ffffffffffffffffffffffffffffffffffffffff16146123dc578073ffffffffffffffffffffffffffffffffffffffff166370a08231836040518263ffffffff1660e01b815260040161237e9190613441565b60206040518083038186803b15801561239657600080fd5b505afa1580156123aa573d6000803e3d6000fd5b505050506040513d601f19601f820116820180604052508101906123ce9190613b2e565b846123d9919061384d565b93505b505080806123e990613a3e565b915050612265565b508094505050505090565b60006011600083815260200190815260200160002060009054906101000a900473ffffffffffffffffffffffffffffffffffffffff1673ffffffffffffffffffffffffffffffffffffffff166370a082316010600085815260200190815260200160002060009054906101000a900473ffffffffffffffffffffffffffffffffffffffff166040518263ffffffff1660e01b815260040161249d9190613441565b60206040518083038186803b1580156124b557600080fd5b505afa1580156124c9573d6000803e3d6000fd5b505050506040513d601f19601f820116820180604052508101906124ed9190613b2e565b9050919050565b6124fc611017565b1561253c576040517f08c379a000000000000000000000000000000000000000000000000000000000815260040161253390614025565b60405180910390fd5b565b6000600d60009054906101000a900460ff1661255d576000905061258c565b60038001544211612571576001905061258c565b600360050154421015612587576002905061258c565b600390505b90565b6125976127fe565b73ffffffffffffffffffffffffffffffffffffffff166125b561194f565b73ffffffffffffffffffffffffffffffffffffffff161461260b576040517f08c379a000000000000000000000000000000000000000000000000000000000815260040161260290614091565b60405180910390fd5b565b612615612806565b60008060146101000a81548160ff0219169083151502179055507f5db9ee0a495bf2e6ff9c91a7834c1ba4fdd244a5e8aa4e537bd38aeae4b073aa6126586127fe565b6040516126659190613441565b60405180910390a1565b60008060009054906101000a900473ffffffffffffffffffffffffffffffffffffffff169050816000806101000a81548173ffffffffffffffffffffffffffffffffffffffff021916908373ffffffffffffffffffffffffffffffffffffffff1602179055508173ffffffffffffffffffffffffffffffffffffffff168173ffffffffffffffffffffffffffffffffffffffff167f8be0079c531659141344cd1fd0a4f28419497f9722a3daafe3b4186f6b6457e060405160405180910390a35050565b60008251905060005b818110156127955761278284828151811061275a576127596139c7565b5b6020026020010151848381518110612775576127746139c7565b5b602002602001015161284f565b808061278d90613a3e565b91505061273c565b50505050565b6127a36124f4565b6001600060146101000a81548160ff0219169083151502179055507f62e78cea01bee320cd4e420270b5ea74000d11b0c9f74754ebdbfc544b05a2586127e76127fe565b6040516127f49190613441565b60405180910390a1565b600033905090565b61280e611017565b61284d576040517f08c379a0000000000000000000000000000000000000000000000000000000008152600401612844906140fd565b60405180910390fd5b565b6000811180156128bf5750600073ffffffffffffffffffffffffffffffffffffffff166010600084815260200190815260200160002060009054906101000a900473ffffffffffffffffffffffffffffffffffffffff1673ffffffffffffffffffffffffffffffffffffffff1614155b156129cd576010600083815260200190815260200160002060009054906101000a900473ffffffffffffffffffffffffffffffffffffffff1673ffffffffffffffffffffffffffffffffffffffff166360a56b3a6012600085815260200190815260200160002060009054906101000a900473ffffffffffffffffffffffffffffffffffffffff166011600086815260200190815260200160002060009054906101000a900473ffffffffffffffffffffffffffffffffffffffff16846040518463ffffffff1660e01b815260040161299a93929190613792565b600060405180830381600087803b1580156129b457600080fd5b505af11580156129c8573d6000803e3d6000fd5b505050505b5050565b828054828255906000526020600020908101928215612a20579160200282015b82811115612a1f578251829080519060200190612a0f929190612ab7565b50916020019190600101906129f1565b5b509050612a2d9190612b3d565b5090565b828054612a3d90613e83565b90600052602060002090601f016020900481019282612a5f5760008555612aa6565b82601f10612a7857803560ff1916838001178555612aa6565b82800160010185558215612aa6579182015b82811115612aa5578235825591602001919060010190612a8a565b5b509050612ab39190612b61565b5090565b828054612ac390613e83565b90600052602060002090601f016020900481019282612ae55760008555612b2c565b82601f10612afe57805160ff1916838001178555612b2c565b82800160010185558215612b2c579182015b82811115612b2b578251825591602001919060010190612b10565b5b509050612b399190612b61565b5090565b5b80821115612b5d5760008181612b549190612b7e565b50600101612b3e565b5090565b5b80821115612b7a576000816000905550600101612b62565b5090565b508054612b8a90613e83565b6000825580601f10612b9c5750612bbb565b601f016020900490600052602060002090810190612bba9190612b61565b5b50565b6000604051905090565b600080fd5b600080fd5b6000819050919050565b612be581612bd2565b8114612bf057600080fd5b50565b600081359050612c0281612bdc565b92915050565b600073ffffffffffffffffffffffffffffffffffffffff82169050919050565b6000612c3382612c08565b9050919050565b612c4381612c28565b8114612c4e57600080fd5b50565b600081359050612c6081612c3a565b92915050565b600080fd5b600080fd5b600080fd5b60008083601f840112612c8b57612c8a612c66565b5b8235905067ffffffffffffffff811115612ca857612ca7612c6b565b5b602083019150836001820283011115612cc457612cc3612c70565b5b9250929050565b60008060008060608587031215612ce557612ce4612bc8565b5b6000612cf387828801612bf3565b9450506020612d0487828801612c51565b935050604085013567ffffffffffffffff811115612d2557612d24612bcd565b5b612d3187828801612c75565b925092505092959194509250565b6000819050919050565b612d5281612d3f565b8114612d5d57600080fd5b50565b600081359050612d6f81612d49565b92915050565b6000601f19601f8301169050919050565b7f4e487b7100000000000000000000000000000000000000000000000000000000600052604160045260246000fd5b612dbe82612d75565b810181811067ffffffffffffffff82111715612ddd57612ddc612d86565b5b80604052505050565b6000612df0612bbe565b9050612dfc8282612db5565b919050565b600067ffffffffffffffff821115612e1c57612e1b612d86565b5b602082029050602081019050919050565b600080fd5b600067ffffffffffffffff821115612e4d57612e4c612d86565b5b612e5682612d75565b9050602081019050919050565b82818337600083830152505050565b6000612e85612e8084612e32565b612de6565b905082815260208101848484011115612ea157612ea0612e2d565b5b612eac848285612e63565b509392505050565b600082601f830112612ec957612ec8612c66565b5b8135612ed9848260208601612e72565b91505092915050565b6000612ef5612ef084612e01565b612de6565b90508083825260208201905060208402830185811115612f1857612f17612c70565b5b835b81811015612f5f57803567ffffffffffffffff811115612f3d57612f3c612c66565b5b808601612f4a8982612eb4565b85526020850194505050602081019050612f1a565b5050509392505050565b600082601f830112612f7e57612f7d612c66565b5b8135612f8e848260208601612ee2565b91505092915050565b600067ffffffffffffffff821115612fb257612fb1612d86565b5b602082029050602081019050919050565b6000612fd6612fd184612f97565b612de6565b90508083825260208201905060208402830185811115612ff957612ff8612c70565b5b835b81811015613022578061300e8882612d60565b845260208401935050602081019050612ffb565b5050509392505050565b600082601f83011261304157613040612c66565b5b8135613051848260208601612fc3565b91505092915050565b60008060008060006080868803121561307657613075612bc8565b5b600086013567ffffffffffffffff81111561309457613093612bcd565b5b6130a088828901612c75565b955095505060206130b388828901612d60565b935050604086013567ffffffffffffffff8111156130d4576130d3612bcd565b5b6130e088828901612f69565b925050606086013567ffffffffffffffff81111561310157613100612bcd565b5b61310d8882890161302c565b9150509295509295909350565b61312381612bd2565b82525050565b600060208201905061313e600083018461311a565b92915050565b600081519050919050565b600082825260208201905092915050565b6000819050602082019050919050565b61317981612bd2565b82525050565b600061318b8383613170565b60208301905092915050565b6000602082019050919050565b60006131af82613144565b6131b9818561314f565b93506131c483613160565b8060005b838110156131f55781516131dc888261317f565b97506131e783613197565b9250506001810190506131c8565b5085935050505092915050565b6000602082019050818103600083015261321c81846131a4565b905092915050565b60006020828403121561323a57613239612bc8565b5b600061324884828501612bf3565b91505092915050565b61325a81612d3f565b82525050565b60006020820190506132756000830184613251565b92915050565b60006020828403121561329157613290612bc8565b5b600061329f84828501612d60565b91505092915050565b600080604083850312156132bf576132be612bc8565b5b60006132cd85828601612bf3565b92505060206132de85828601612c51565b9150509250929050565b60008115159050919050565b6132fd816132e8565b82525050565b600060208201905061331860008301846132f4565b92915050565b613327816132e8565b811461333257600080fd5b50565b6000813590506133448161331e565b92915050565b6000806000806080858703121561336457613363612bc8565b5b600061337287828801612d60565b945050602061338387828801612d60565b935050604061339487828801612d60565b92505060606133a587828801613335565b91505092959194509250565b600080600080604085870312156133cb576133ca612bc8565b5b600085013567ffffffffffffffff8111156133e9576133e8612bcd565b5b6133f587828801612c75565b9450945050602085013567ffffffffffffffff81111561341857613417612bcd565b5b61342487828801612c75565b925092505092959194509250565b61343b81612c28565b82525050565b60006020820190506134566000830184613432565b92915050565b60008060006060848603121561347557613474612bc8565b5b600061348386828701612bf3565b935050602061349486828701612c51565b92505060406134a586828701612d60565b9150509250925092565b600081519050919050565b600082825260208201905092915050565b60005b838110156134e95780820151818401526020810190506134ce565b838111156134f8576000848401525b50505050565b6000613509826134af565b61351381856134ba565b93506135238185602086016134cb565b61352c81612d75565b840191505092915050565b600060c082019050818103600083015261355181896134fe565b90506135606020830188613251565b61356d6040830187613251565b61357a6060830186613251565b6135876080830185613251565b81810360a083015261359981846134fe565b9050979650505050505050565b600080600080608085870312156135c0576135bf612bc8565b5b60006135ce87828801612bf3565b94505060206135df87828801612c51565b93505060406135f087828801612c51565b925050606061360187828801612c51565b91505092959194509250565b6000806040838503121561362457613623612bc8565b5b600061363285828601612c51565b925050602061364385828601612bf3565b9150509250929050565b60006020828403121561366357613662612bc8565b5b600061367184828501612c51565b91505092915050565b7f43616d706169676e496e666f3a2043616d706169676e20656e64656400000000600082015250565b60006136b0601c836134ba565b91506136bb8261367a565b602082019050919050565b600060208201905081810360008301526136df816136a3565b9050919050565b600081905092915050565b60006136fd83856136e6565b935061370a838584612e63565b82840190509392505050565b60006137238284866136f1565b91508190509392505050565b7f4e487b7100000000000000000000000000000000000000000000000000000000600052601160045260246000fd5b600061376982612d3f565b915061377483612d3f565b9250828210156137875761378661372f565b5b828203905092915050565b60006060820190506137a76000830186613432565b6137b46020830185613432565b6137c16040830184613251565b949350505050565b6000815190506137d88161331e565b92915050565b6000602082840312156137f4576137f3612bc8565b5b6000613802848285016137c9565b91505092915050565b60008151905061381a81612c3a565b92915050565b60006020828403121561383657613835612bc8565b5b60006138448482850161380b565b91505092915050565b600061385882612d3f565b915061386383612d3f565b9250827fffffffffffffffffffffffffffffffffffffffffffffffffffffffffffffffff038211156138985761389761372f565b5b828201905092915050565b60006138af83856134ba565b93506138bc838584612e63565b6138c583612d75565b840190509392505050565b600060a0820190506138e56000830189613432565b6138f26020830188613432565b6138ff6040830187613251565b61390c606083018661311a565b818103608083015261391f8184866138a3565b9050979650505050505050565b7f4e487b7100000000000000000000000000000000000000000000000000000000600052602160045260246000fd5b7f43616d706169676e496e666f3a204e6f7420616c6c6f77656400000000000000600082015250565b60006139916019836134ba565b915061399c8261395b565b602082019050919050565b600060208201905081810360008301526139c081613984565b9050919050565b7f4e487b7100000000000000000000000000000000000000000000000000000000600052603260045260246000fd5b6000613a01826134af565b613a0b81856136e6565b9350613a1b8185602086016134cb565b80840191505092915050565b6000613a3382846139f6565b915081905092915050565b6000613a4982612d3f565b91507fffffffffffffffffffffffffffffffffffffffffffffffffffffffffffffffff821415613a7c57613a7b61372f565b5b600182019050919050565b7f43616d706169676e496e666f3a2054726561737572792061646472657373206660008201527f6f7220706c6174666f726d206973206e6f742073657400000000000000000000602082015250565b6000613ae36036836134ba565b9150613aee82613a87565b604082019050919050565b60006020820190508181036000830152613b1281613ad6565b9050919050565b600081519050613b2881612d49565b92915050565b600060208284031215613b4457613b43612bc8565b5b6000613b5284828501613b19565b91505092915050565b6000608082019050613b706000830187613432565b613b7d6020830186613432565b613b8a6040830185613251565b613b97606083018461311a565b95945050505050565b7f43616d706169676e496e666f3a204e6f7420416c6c6f77656400000000000000600082015250565b6000613bd66019836134ba565b9150613be182613ba0565b602082019050919050565b60006020820190508181036000830152613c0581613bc9565b9050919050565b7f43616d706169676e496e666f3a204c61756e636820616c726561647920736574600082015250565b6000613c426020836134ba565b9150613c4d82613c0c565b602082019050919050565b60006020820190508181036000830152613c7181613c35565b9050919050565b600081519050919050565b600082825260208201905092915050565b6000819050602082019050919050565b613cad81612d3f565b82525050565b6000613cbf8383613ca4565b60208301905092915050565b6000602082019050919050565b6000613ce382613c78565b613ced8185613c83565b9350613cf883613c94565b8060005b83811015613d29578151613d108882613cb3565b9750613d1b83613ccb565b925050600181019050613cfc565b5085935050505092915050565b6000606082019050613d4b6000830186613251565b613d586020830185613251565b8181036040830152613d6a8184613cd8565b9050949350505050565b6000613d87613d8284612f97565b612de6565b90508083825260208201905060208402830185811115613daa57613da9612c70565b5b835b81811015613dd35780613dbf8882613b19565b845260208401935050602081019050613dac565b5050509392505050565b600082601f830112613df257613df1612c66565b5b8151613e02848260208601613d74565b91505092915050565b600060208284031215613e2157613e20612bc8565b5b600082015167ffffffffffffffff811115613e3f57613e3e612bcd565b5b613e4b84828501613ddd565b91505092915050565b7f4e487b7100000000000000000000000000000000000000000000000000000000600052602260045260246000fd5b60006002820490506001821680613e9b57607f821691505b60208210811415613eaf57613eae613e54565b5b50919050565b7f4f776e61626c653a206e6577206f776e657220697320746865207a65726f206160008201527f6464726573730000000000000000000000000000000000000000000000000000602082015250565b6000613f116026836134ba565b9150613f1c82613eb5565b604082019050919050565b60006020820190508181036000830152613f4081613f04565b9050919050565b7f43616d706169676e496e666f3a204f726967696e20706c6174666f726d20747260008201527f656173757279206e6f7420736574207965740000000000000000000000000000602082015250565b6000613fa36032836134ba565b9150613fae82613f47565b604082019050919050565b60006020820190508181036000830152613fd281613f96565b9050919050565b7f5061757361626c653a2070617573656400000000000000000000000000000000600082015250565b600061400f6010836134ba565b915061401a82613fd9565b602082019050919050565b6000602082019050818103600083015261403e81614002565b9050919050565b7f4f776e61626c653a2063616c6c6572206973206e6f7420746865206f776e6572600082015250565b600061407b6020836134ba565b915061408682614045565b602082019050919050565b600060208201905081810360008301526140aa8161406e565b9050919050565b7f5061757361626c653a206e6f7420706175736564000000000000000000000000600082015250565b60006140e76014836134ba565b91506140f2826140b1565b602082019050919050565b60006020820190508181036000830152614116816140da565b905091905056fea2646970667358221220ba1e11fcbe2d6e6c7c21c5fc53d775be6f1bdf3373af72d03c75a904a7e2d29d64736f6c63430008090033a2646970667358221220b8618a9211ea8b07630dbfad567b22a525938b31a6c87f32d8599db88d8818e764736f6c63430008090033",
  "linkReferences": {},
  "deployedLinkReferences": {}
}