{
  "_format": "hh-sol-artifact-1",
  "contractName": "CampaignRegistry",
  "sourceName": "contracts/CampaignRegistry.sol",
  "abi": [
    {
      "anonymous": false,
      "inputs": [
        {
          "indexed": true,
          "internalType": "address",
          "name": "previousOwner",
          "type": "address"
        },
        {
          "indexed": true,
          "internalType": "address",
          "name": "newOwner",
          "type": "address"
        }
      ],
      "name": "OwnershipTransferred",
      "type": "event"
    },
    {
      "inputs": [],
      "name": "MINTER_ROLE",
      "outputs": [
        {
          "internalType": "bytes32",
          "name": "",
          "type": "bytes32"
        }
      ],
      "stateMutability": "view",
      "type": "function"
    },
    {
      "inputs": [],
      "name": "getCampaignFeeSplitter",
      "outputs": [
        {
          "internalType": "address",
          "name": "",
          "type": "address"
        }
      ],
      "stateMutability": "view",
      "type": "function"
    },
    {
      "inputs": [],
      "name": "getCampaignGlobalParameters",
      "outputs": [
        {
          "internalType": "address",
          "name": "",
          "type": "address"
        }
      ],
      "stateMutability": "view",
      "type": "function"
    },
    {
      "inputs": [
        {
          "internalType": "string",
          "name": "identifier",
          "type": "string"
        }
      ],
      "name": "getCampaignInfoAddress",
      "outputs": [
        {
          "internalType": "address",
          "name": "",
          "type": "address"
        }
      ],
      "stateMutability": "view",
      "type": "function"
    },
    {
      "inputs": [],
      "name": "getCampaignNFTAddress",
      "outputs": [
        {
          "internalType": "address",
          "name": "",
          "type": "address"
        }
      ],
      "stateMutability": "view",
      "type": "function"
    },
    {
      "inputs": [],
      "name": "getFactoryAddress",
      "outputs": [
        {
          "internalType": "address",
          "name": "",
          "type": "address"
        }
      ],
      "stateMutability": "view",
      "type": "function"
    },
    {
      "inputs": [
        {
          "internalType": "address",
          "name": "_factoryAddress",
          "type": "address"
        },
        {
          "internalType": "address",
          "name": "_campaignNFTAddress",
          "type": "address"
        },
        {
          "internalType": "address",
          "name": "_campaignGlobalParameters",
          "type": "address"
        },
        {
          "internalType": "address",
          "name": "_campaignFeeSplitter",
          "type": "address"
        }
      ],
      "name": "initialize",
      "outputs": [],
      "stateMutability": "nonpayable",
      "type": "function"
    },
    {
      "inputs": [],
      "name": "owner",
      "outputs": [
        {
          "internalType": "address",
          "name": "",
          "type": "address"
        }
      ],
      "stateMutability": "view",
      "type": "function"
    },
    {
      "inputs": [],
      "name": "renounceOwnership",
      "outputs": [],
      "stateMutability": "nonpayable",
      "type": "function"
    },
    {
      "inputs": [
        {
          "internalType": "string",
          "name": "_identifier",
          "type": "string"
        },
        {
          "internalType": "address",
          "name": "_campaignAddress",
          "type": "address"
        }
      ],
      "name": "setCampaignInfoAddress",
      "outputs": [],
      "stateMutability": "nonpayable",
      "type": "function"
    },
    {
      "inputs": [
        {
          "internalType": "address",
          "name": "newOwner",
          "type": "address"
        }
      ],
      "name": "transferOwnership",
      "outputs": [],
      "stateMutability": "nonpayable",
      "type": "function"
    }
  ],
  "bytecode": "0x608060405234801561001057600080fd5b5061002d61002261003260201b60201c565b61003a60201b60201c565b6100fe565b600033905090565b60008060009054906101000a900473ffffffffffffffffffffffffffffffffffffffff169050816000806101000a81548173ffffffffffffffffffffffffffffffffffffffff021916908373ffffffffffffffffffffffffffffffffffffffff1602179055508173ffffffffffffffffffffffffffffffffffffffff168173ffffffffffffffffffffffffffffffffffffffff167f8be0079c531659141344cd1fd0a4f28419497f9722a3daafe3b4186f6b6457e060405160405180910390a35050565b610db68061010d6000396000f3fe608060405234801561001057600080fd5b50600436106100a95760003560e01c80638da5cb5b116100715780638da5cb5b1461012e578063939f31301461014c578063a9c2e36c1461017c578063d53913931461019a578063f2fde38b146101b8578063f8c8765e146101d4576100a9565b80630eeaef46146100ae5780632c64ba15146100cc57806330525f66146100e85780635bad439914610106578063715018a614610124575b600080fd5b6100b66101f0565b6040516100c39190610933565b60405180910390f35b6100e660048036038101906100e191906109e9565b610233565b005b6100f06103b9565b6040516100fd9190610933565b60405180910390f35b61010e6103fc565b60405161011b9190610933565b60405180910390f35b61012c61043f565b005b610136610453565b6040516101439190610933565b60405180910390f35b61016660048036038101906101619190610a49565b61047c565b6040516101739190610933565b60405180910390f35b610184610590565b6040516101919190610933565b60405180910390f35b6101a26105d3565b6040516101af9190610aaf565b60405180910390f35b6101d260048036038101906101cd9190610aca565b6105f7565b005b6101ee60048036038101906101e99190610af7565b61067b565b005b6000600460149054906101000a900460ff1661020b57600080fd5b600460009054906101000a900473ffffffffffffffffffffffffffffffffffffffff16905090565b600460149054906101000a900460ff1661024c57600080fd5b600160009054906101000a900473ffffffffffffffffffffffffffffffffffffffff1673ffffffffffffffffffffffffffffffffffffffff163373ffffffffffffffffffffffffffffffffffffffff16146102a657600080fd5b80600584846040516102b9929190610b9d565b908152602001604051809103902060006101000a81548173ffffffffffffffffffffffffffffffffffffffff021916908373ffffffffffffffffffffffffffffffffffffffff160217905550600260009054906101000a900473ffffffffffffffffffffffffffffffffffffffff1673ffffffffffffffffffffffffffffffffffffffff16632f2ff15d7f9f2df0fed2c77648de5860a4cc508cd0818c85b8b8a1ab4ceeef8d981c8956a6836040518363ffffffff1660e01b8152600401610382929190610bb6565b600060405180830381600087803b15801561039c57600080fd5b505af11580156103b0573d6000803e3d6000fd5b50505050505050565b6000600460149054906101000a900460ff166103d457600080fd5b600260009054906101000a900473ffffffffffffffffffffffffffffffffffffffff16905090565b6000600460149054906101000a900460ff1661041757600080fd5b600360009054906101000a900473ffffffffffffffffffffffffffffffffffffffff16905090565b6104476107a8565b6104516000610826565b565b60008060009054906101000a900473ffffffffffffffffffffffffffffffffffffffff16905090565b6000600460149054906101000a900460ff1661049757600080fd5b600073ffffffffffffffffffffffffffffffffffffffff16600584846040516104c1929190610b9d565b908152602001604051809103902060009054906101000a900473ffffffffffffffffffffffffffffffffffffffff1673ffffffffffffffffffffffffffffffffffffffff161415610547576040517f08c379a000000000000000000000000000000000000000000000000000000000815260040161053e90610c62565b60405180910390fd5b60058383604051610559929190610b9d565b908152602001604051809103902060009054906101000a900473ffffffffffffffffffffffffffffffffffffffff16905092915050565b6000600460149054906101000a900460ff166105ab57600080fd5b600160009054906101000a900473ffffffffffffffffffffffffffffffffffffffff16905090565b7f9f2df0fed2c77648de5860a4cc508cd0818c85b8b8a1ab4ceeef8d981c8956a681565b6105ff6107a8565b600073ffffffffffffffffffffffffffffffffffffffff168173ffffffffffffffffffffffffffffffffffffffff16141561066f576040517f08c379a000000000000000000000000000000000000000000000000000000000815260040161066690610cf4565b60405180910390fd5b61067881610826565b50565b6106836107a8565b83600160006101000a81548173ffffffffffffffffffffffffffffffffffffffff021916908373ffffffffffffffffffffffffffffffffffffffff16021790555082600260006101000a81548173ffffffffffffffffffffffffffffffffffffffff021916908373ffffffffffffffffffffffffffffffffffffffff16021790555081600360006101000a81548173ffffffffffffffffffffffffffffffffffffffff021916908373ffffffffffffffffffffffffffffffffffffffff16021790555080600460006101000a81548173ffffffffffffffffffffffffffffffffffffffff021916908373ffffffffffffffffffffffffffffffffffffffff1602179055506001600460146101000a81548160ff02191690831515021790555050505050565b6107b06108ea565b73ffffffffffffffffffffffffffffffffffffffff166107ce610453565b73ffffffffffffffffffffffffffffffffffffffff1614610824576040517f08c379a000000000000000000000000000000000000000000000000000000000815260040161081b90610d60565b60405180910390fd5b565b60008060009054906101000a900473ffffffffffffffffffffffffffffffffffffffff169050816000806101000a81548173ffffffffffffffffffffffffffffffffffffffff021916908373ffffffffffffffffffffffffffffffffffffffff1602179055508173ffffffffffffffffffffffffffffffffffffffff168173ffffffffffffffffffffffffffffffffffffffff167f8be0079c531659141344cd1fd0a4f28419497f9722a3daafe3b4186f6b6457e060405160405180910390a35050565b600033905090565b600073ffffffffffffffffffffffffffffffffffffffff82169050919050565b600061091d826108f2565b9050919050565b61092d81610912565b82525050565b60006020820190506109486000830184610924565b92915050565b600080fd5b600080fd5b600080fd5b600080fd5b600080fd5b60008083601f84011261097d5761097c610958565b5b8235905067ffffffffffffffff81111561099a5761099961095d565b5b6020830191508360018202830111156109b6576109b5610962565b5b9250929050565b6109c681610912565b81146109d157600080fd5b50565b6000813590506109e3816109bd565b92915050565b600080600060408486031215610a0257610a0161094e565b5b600084013567ffffffffffffffff811115610a2057610a1f610953565b5b610a2c86828701610967565b93509350506020610a3f868287016109d4565b9150509250925092565b60008060208385031215610a6057610a5f61094e565b5b600083013567ffffffffffffffff811115610a7e57610a7d610953565b5b610a8a85828601610967565b92509250509250929050565b6000819050919050565b610aa981610a96565b82525050565b6000602082019050610ac46000830184610aa0565b92915050565b600060208284031215610ae057610adf61094e565b5b6000610aee848285016109d4565b91505092915050565b60008060008060808587031215610b1157610b1061094e565b5b6000610b1f878288016109d4565b9450506020610b30878288016109d4565b9350506040610b41878288016109d4565b9250506060610b52878288016109d4565b91505092959194509250565b600081905092915050565b82818337600083830152505050565b6000610b848385610b5e565b9350610b91838584610b69565b82840190509392505050565b6000610baa828486610b78565b91508190509392505050565b6000604082019050610bcb6000830185610aa0565b610bd86020830184610924565b9392505050565b600082825260208201905092915050565b7f43616d706169676e52656769737472793a2043616d706169676e496e666f206e60008201527f6f74206372656174656400000000000000000000000000000000000000000000602082015250565b6000610c4c602a83610bdf565b9150610c5782610bf0565b604082019050919050565b60006020820190508181036000830152610c7b81610c3f565b9050919050565b7f4f776e61626c653a206e6577206f776e657220697320746865207a65726f206160008201527f6464726573730000000000000000000000000000000000000000000000000000602082015250565b6000610cde602683610bdf565b9150610ce982610c82565b604082019050919050565b60006020820190508181036000830152610d0d81610cd1565b9050919050565b7f4f776e61626c653a2063616c6c6572206973206e6f7420746865206f776e6572600082015250565b6000610d4a602083610bdf565b9150610d5582610d14565b602082019050919050565b60006020820190508181036000830152610d7981610d3d565b905091905056fea2646970667358221220533ea7de24ee0b859442bb05f4e372ddd03a6e4010309ccaf2b6854b154cee1464736f6c63430008090033",
  "linkReferences": {},
  "deployedLinkReferences": {}
}