{
  "_format": "hh-sol-artifact-1",
  "contractName": "CampaignRegistry",
  "sourceName": "contracts/CampaignRegistry.sol",
  "abi": [
    {
      "anonymous": false,
      "inputs": [
        {
          "indexed": true,
          "internalType": "address",
          "name": "previousOwner",
          "type": "address"
        },
        {
          "indexed": true,
          "internalType": "address",
          "name": "newOwner",
          "type": "address"
        }
      ],
      "name": "OwnershipTransferred",
      "type": "event"
    },
    {
      "inputs": [
        {
          "internalType": "string",
          "name": "identifier",
          "type": "string"
        }
      ],
      "name": "getCampaignInfoAddress",
      "outputs": [
        {
          "internalType": "address",
          "name": "",
          "type": "address"
        }
      ],
      "stateMutability": "view",
      "type": "function"
    },
    {
      "inputs": [],
      "name": "getFactoryAddress",
      "outputs": [
        {
          "internalType": "address",
          "name": "",
          "type": "address"
        }
      ],
      "stateMutability": "view",
      "type": "function"
    },
    {
      "inputs": [],
      "name": "getOracleAddress",
      "outputs": [
        {
          "internalType": "address",
          "name": "",
          "type": "address"
        }
      ],
      "stateMutability": "view",
      "type": "function"
    },
    {
      "inputs": [
        {
          "internalType": "address",
          "name": "_factoryAddress",
          "type": "address"
        },
        {
          "internalType": "address",
          "name": "_oracleAddress",
          "type": "address"
        }
      ],
      "name": "initialize",
      "outputs": [],
      "stateMutability": "nonpayable",
      "type": "function"
    },
    {
      "inputs": [],
      "name": "owner",
      "outputs": [
        {
          "internalType": "address",
          "name": "",
          "type": "address"
        }
      ],
      "stateMutability": "view",
      "type": "function"
    },
    {
      "inputs": [],
      "name": "renounceOwnership",
      "outputs": [],
      "stateMutability": "nonpayable",
      "type": "function"
    },
    {
      "inputs": [
        {
          "internalType": "string",
          "name": "_identifier",
          "type": "string"
        },
        {
          "internalType": "address",
          "name": "_campaignAddress",
          "type": "address"
        }
      ],
      "name": "setCampaignInfoAddress",
      "outputs": [],
      "stateMutability": "nonpayable",
      "type": "function"
    },
    {
      "inputs": [
        {
          "internalType": "address",
          "name": "newOwner",
          "type": "address"
        }
      ],
      "name": "transferOwnership",
      "outputs": [],
      "stateMutability": "nonpayable",
      "type": "function"
    }
  ],
  "bytecode": "0x608060405234801561001057600080fd5b5061002d61002261003260201b60201c565b61003a60201b60201c565b6100fe565b600033905090565b60008060009054906101000a900473ffffffffffffffffffffffffffffffffffffffff169050816000806101000a81548173ffffffffffffffffffffffffffffffffffffffff021916908373ffffffffffffffffffffffffffffffffffffffff1602179055508173ffffffffffffffffffffffffffffffffffffffff168173ffffffffffffffffffffffffffffffffffffffff167f8be0079c531659141344cd1fd0a4f28419497f9722a3daafe3b4186f6b6457e060405160405180910390a35050565b610ada8061010d6000396000f3fe608060405234801561001057600080fd5b50600436106100885760003560e01c8063939f31301161005b578063939f3130146100ed578063a9c2e36c1461011d578063b18b78dd1461013b578063f2fde38b1461015957610088565b80632c64ba151461008d578063485cc955146100a9578063715018a6146100c55780638da5cb5b146100cf575b600080fd5b6100a760048036038101906100a29190610767565b610175565b005b6100c360048036038101906100be91906107c7565b61024c565b005b6100cd6102f5565b005b6100d7610309565b6040516100e49190610816565b60405180910390f35b61010760048036038101906101029190610831565b610332565b6040516101149190610816565b60405180910390f35b610125610446565b6040516101329190610816565b60405180910390f35b610143610489565b6040516101509190610816565b60405180910390f35b610173600480360381019061016e919061087e565b6104cc565b005b600260149054906101000a900460ff1661018e57600080fd5b600160009054906101000a900473ffffffffffffffffffffffffffffffffffffffff1673ffffffffffffffffffffffffffffffffffffffff163373ffffffffffffffffffffffffffffffffffffffff16146101e857600080fd5b80600384846040516101fb9291906108ea565b908152602001604051809103902060006101000a81548173ffffffffffffffffffffffffffffffffffffffff021916908373ffffffffffffffffffffffffffffffffffffffff160217905550505050565b610254610550565b81600160006101000a81548173ffffffffffffffffffffffffffffffffffffffff021916908373ffffffffffffffffffffffffffffffffffffffff16021790555080600260006101000a81548173ffffffffffffffffffffffffffffffffffffffff021916908373ffffffffffffffffffffffffffffffffffffffff1602179055506001600260146101000a81548160ff0219169083151502179055505050565b6102fd610550565b61030760006105ce565b565b60008060009054906101000a900473ffffffffffffffffffffffffffffffffffffffff16905090565b6000600260149054906101000a900460ff1661034d57600080fd5b600073ffffffffffffffffffffffffffffffffffffffff16600384846040516103779291906108ea565b908152602001604051809103902060009054906101000a900473ffffffffffffffffffffffffffffffffffffffff1673ffffffffffffffffffffffffffffffffffffffff1614156103fd576040517f08c379a00000000000000000000000000000000000000000000000000000000081526004016103f490610986565b60405180910390fd5b6003838360405161040f9291906108ea565b908152602001604051809103902060009054906101000a900473ffffffffffffffffffffffffffffffffffffffff16905092915050565b6000600260149054906101000a900460ff1661046157600080fd5b600160009054906101000a900473ffffffffffffffffffffffffffffffffffffffff16905090565b6000600260149054906101000a900460ff166104a457600080fd5b600260009054906101000a900473ffffffffffffffffffffffffffffffffffffffff16905090565b6104d4610550565b600073ffffffffffffffffffffffffffffffffffffffff168173ffffffffffffffffffffffffffffffffffffffff161415610544576040517f08c379a000000000000000000000000000000000000000000000000000000000815260040161053b90610a18565b60405180910390fd5b61054d816105ce565b50565b610558610692565b73ffffffffffffffffffffffffffffffffffffffff16610576610309565b73ffffffffffffffffffffffffffffffffffffffff16146105cc576040517f08c379a00000000000000000000000000000000000000000000000000000000081526004016105c390610a84565b60405180910390fd5b565b60008060009054906101000a900473ffffffffffffffffffffffffffffffffffffffff169050816000806101000a81548173ffffffffffffffffffffffffffffffffffffffff021916908373ffffffffffffffffffffffffffffffffffffffff1602179055508173ffffffffffffffffffffffffffffffffffffffff168173ffffffffffffffffffffffffffffffffffffffff167f8be0079c531659141344cd1fd0a4f28419497f9722a3daafe3b4186f6b6457e060405160405180910390a35050565b600033905090565b600080fd5b600080fd5b600080fd5b600080fd5b600080fd5b60008083601f8401126106c9576106c86106a4565b5b8235905067ffffffffffffffff8111156106e6576106e56106a9565b5b602083019150836001820283011115610702576107016106ae565b5b9250929050565b600073ffffffffffffffffffffffffffffffffffffffff82169050919050565b600061073482610709565b9050919050565b61074481610729565b811461074f57600080fd5b50565b6000813590506107618161073b565b92915050565b6000806000604084860312156107805761077f61069a565b5b600084013567ffffffffffffffff81111561079e5761079d61069f565b5b6107aa868287016106b3565b935093505060206107bd86828701610752565b9150509250925092565b600080604083850312156107de576107dd61069a565b5b60006107ec85828601610752565b92505060206107fd85828601610752565b9150509250929050565b61081081610729565b82525050565b600060208201905061082b6000830184610807565b92915050565b600080602083850312156108485761084761069a565b5b600083013567ffffffffffffffff8111156108665761086561069f565b5b610872858286016106b3565b92509250509250929050565b6000602082840312156108945761089361069a565b5b60006108a284828501610752565b91505092915050565b600081905092915050565b82818337600083830152505050565b60006108d183856108ab565b93506108de8385846108b6565b82840190509392505050565b60006108f78284866108c5565b91508190509392505050565b600082825260208201905092915050565b7f43616d706169676e52656769737472793a2043616d706169676e496e666f206e60008201527f6f74206372656174656400000000000000000000000000000000000000000000602082015250565b6000610970602a83610903565b915061097b82610914565b604082019050919050565b6000602082019050818103600083015261099f81610963565b9050919050565b7f4f776e61626c653a206e6577206f776e657220697320746865207a65726f206160008201527f6464726573730000000000000000000000000000000000000000000000000000602082015250565b6000610a02602683610903565b9150610a0d826109a6565b604082019050919050565b60006020820190508181036000830152610a31816109f5565b9050919050565b7f4f776e61626c653a2063616c6c6572206973206e6f7420746865206f776e6572600082015250565b6000610a6e602083610903565b9150610a7982610a38565b602082019050919050565b60006020820190508181036000830152610a9d81610a61565b905091905056fea2646970667358221220934a5d3aae0e845933a6567625a32a5ba37e38de72373effee7c6fc9e225d55d64736f6c63430008090033",
  "linkReferences": {},
  "deployedLinkReferences": {}
}