{
  "_format": "hh-sol-artifact-1",
  "contractName": "CampaignRegistry",
  "sourceName": "contracts/CampaignRegistry.sol",
  "abi": [
    {
      "anonymous": false,
      "inputs": [
        {
          "indexed": true,
          "internalType": "address",
          "name": "previousOwner",
          "type": "address"
        },
        {
          "indexed": true,
          "internalType": "address",
          "name": "newOwner",
          "type": "address"
        }
      ],
      "name": "OwnershipTransferred",
      "type": "event"
    },
    {
      "inputs": [],
      "name": "MINTER_ROLE",
      "outputs": [
        {
          "internalType": "bytes32",
          "name": "",
          "type": "bytes32"
        }
      ],
      "stateMutability": "view",
      "type": "function"
    },
    {
      "inputs": [],
      "name": "getCampaignContainers",
      "outputs": [
        {
          "internalType": "address",
          "name": "",
          "type": "address"
        }
      ],
      "stateMutability": "view",
      "type": "function"
    },
    {
      "inputs": [],
      "name": "getCampaignFeeSplitter",
      "outputs": [
        {
          "internalType": "address",
          "name": "",
          "type": "address"
        }
      ],
      "stateMutability": "view",
      "type": "function"
    },
    {
      "inputs": [],
      "name": "getCampaignGlobalParameters",
      "outputs": [
        {
          "internalType": "address",
          "name": "",
          "type": "address"
        }
      ],
      "stateMutability": "view",
      "type": "function"
    },
    {
      "inputs": [
        {
          "internalType": "string",
          "name": "identifier",
          "type": "string"
        }
      ],
      "name": "getCampaignInfoAddress",
      "outputs": [
        {
          "internalType": "address",
          "name": "",
          "type": "address"
        }
      ],
      "stateMutability": "view",
      "type": "function"
    },
    {
      "inputs": [],
      "name": "getCampaignNFTAddress",
      "outputs": [
        {
          "internalType": "address",
          "name": "",
          "type": "address"
        }
      ],
      "stateMutability": "view",
      "type": "function"
    },
    {
      "inputs": [],
      "name": "getFactoryAddress",
      "outputs": [
        {
          "internalType": "address",
          "name": "",
          "type": "address"
        }
      ],
      "stateMutability": "view",
      "type": "function"
    },
    {
      "inputs": [
        {
          "internalType": "address",
          "name": "_factoryAddress",
          "type": "address"
        },
        {
          "internalType": "address",
          "name": "_campaignNFTAddress",
          "type": "address"
        },
        {
          "internalType": "address",
          "name": "_campaignGlobalParameters",
          "type": "address"
        },
        {
          "internalType": "address",
          "name": "_campaignFeeSplitter",
          "type": "address"
        },
        {
          "internalType": "address",
          "name": "_campaignContainers",
          "type": "address"
        }
      ],
      "name": "initialize",
      "outputs": [],
      "stateMutability": "nonpayable",
      "type": "function"
    },
    {
      "inputs": [],
      "name": "owner",
      "outputs": [
        {
          "internalType": "address",
          "name": "",
          "type": "address"
        }
      ],
      "stateMutability": "view",
      "type": "function"
    },
    {
      "inputs": [],
      "name": "renounceOwnership",
      "outputs": [],
      "stateMutability": "nonpayable",
      "type": "function"
    },
    {
      "inputs": [
        {
          "internalType": "string",
          "name": "_identifier",
          "type": "string"
        },
        {
          "internalType": "address",
          "name": "_campaignAddress",
          "type": "address"
        }
      ],
      "name": "setCampaignInfoAddress",
      "outputs": [],
      "stateMutability": "nonpayable",
      "type": "function"
    },
    {
      "inputs": [
        {
          "internalType": "address",
          "name": "newOwner",
          "type": "address"
        }
      ],
      "name": "transferOwnership",
      "outputs": [],
      "stateMutability": "nonpayable",
      "type": "function"
    }
  ],
  "bytecode": "0x608060405234801561001057600080fd5b5061002d61002261003260201b60201c565b61003a60201b60201c565b6100fe565b600033905090565b60008060009054906101000a900473ffffffffffffffffffffffffffffffffffffffff169050816000806101000a81548173ffffffffffffffffffffffffffffffffffffffff021916908373ffffffffffffffffffffffffffffffffffffffff1602179055508173ffffffffffffffffffffffffffffffffffffffff168173ffffffffffffffffffffffffffffffffffffffff167f8be0079c531659141344cd1fd0a4f28419497f9722a3daafe3b4186f6b6457e060405160405180910390a35050565b610e788061010d6000396000f3fe608060405234801561001057600080fd5b50600436106100b45760003560e01c80638da5cb5b116100715780638da5cb5b14610155578063939f31301461017357806398fda605146101a3578063a9c2e36c146101c1578063d5391393146101df578063f2fde38b146101fd576100b4565b80630eeaef46146100b95780631459457a146100d75780632c64ba15146100f357806330525f661461010f5780635bad43991461012d578063715018a61461014b575b600080fd5b6100c1610219565b6040516100ce91906109e1565b60405180910390f35b6100f160048036038101906100ec9190610a32565b61025c565b005b61010d60048036038101906101089190610b12565b6103cb565b005b610117610551565b60405161012491906109e1565b60405180910390f35b610135610594565b60405161014291906109e1565b60405180910390f35b6101536105d7565b005b61015d6105eb565b60405161016a91906109e1565b60405180910390f35b61018d60048036038101906101889190610b72565b610614565b60405161019a91906109e1565b60405180910390f35b6101ab610728565b6040516101b891906109e1565b60405180910390f35b6101c961076b565b6040516101d691906109e1565b60405180910390f35b6101e76107ae565b6040516101f49190610bd8565b60405180910390f35b61021760048036038101906102129190610bf3565b6107d2565b005b6000600560149054906101000a900460ff1661023457600080fd5b600460009054906101000a900473ffffffffffffffffffffffffffffffffffffffff16905090565b610264610856565b84600160006101000a81548173ffffffffffffffffffffffffffffffffffffffff021916908373ffffffffffffffffffffffffffffffffffffffff16021790555083600260006101000a81548173ffffffffffffffffffffffffffffffffffffffff021916908373ffffffffffffffffffffffffffffffffffffffff16021790555082600360006101000a81548173ffffffffffffffffffffffffffffffffffffffff021916908373ffffffffffffffffffffffffffffffffffffffff16021790555081600460006101000a81548173ffffffffffffffffffffffffffffffffffffffff021916908373ffffffffffffffffffffffffffffffffffffffff16021790555080600560006101000a81548173ffffffffffffffffffffffffffffffffffffffff021916908373ffffffffffffffffffffffffffffffffffffffff1602179055506001600560146101000a81548160ff0219169083151502179055505050505050565b600560149054906101000a900460ff166103e457600080fd5b600160009054906101000a900473ffffffffffffffffffffffffffffffffffffffff1673ffffffffffffffffffffffffffffffffffffffff163373ffffffffffffffffffffffffffffffffffffffff161461043e57600080fd5b8060068484604051610451929190610c5f565b908152602001604051809103902060006101000a81548173ffffffffffffffffffffffffffffffffffffffff021916908373ffffffffffffffffffffffffffffffffffffffff160217905550600260009054906101000a900473ffffffffffffffffffffffffffffffffffffffff1673ffffffffffffffffffffffffffffffffffffffff16632f2ff15d7f9f2df0fed2c77648de5860a4cc508cd0818c85b8b8a1ab4ceeef8d981c8956a6836040518363ffffffff1660e01b815260040161051a929190610c78565b600060405180830381600087803b15801561053457600080fd5b505af1158015610548573d6000803e3d6000fd5b50505050505050565b6000600560149054906101000a900460ff1661056c57600080fd5b600260009054906101000a900473ffffffffffffffffffffffffffffffffffffffff16905090565b6000600560149054906101000a900460ff166105af57600080fd5b600360009054906101000a900473ffffffffffffffffffffffffffffffffffffffff16905090565b6105df610856565b6105e960006108d4565b565b60008060009054906101000a900473ffffffffffffffffffffffffffffffffffffffff16905090565b6000600560149054906101000a900460ff1661062f57600080fd5b600073ffffffffffffffffffffffffffffffffffffffff1660068484604051610659929190610c5f565b908152602001604051809103902060009054906101000a900473ffffffffffffffffffffffffffffffffffffffff1673ffffffffffffffffffffffffffffffffffffffff1614156106df576040517f08c379a00000000000000000000000000000000000000000000000000000000081526004016106d690610d24565b60405180910390fd5b600683836040516106f1929190610c5f565b908152602001604051809103902060009054906101000a900473ffffffffffffffffffffffffffffffffffffffff16905092915050565b6000600560149054906101000a900460ff1661074357600080fd5b600560009054906101000a900473ffffffffffffffffffffffffffffffffffffffff16905090565b6000600560149054906101000a900460ff1661078657600080fd5b600160009054906101000a900473ffffffffffffffffffffffffffffffffffffffff16905090565b7f9f2df0fed2c77648de5860a4cc508cd0818c85b8b8a1ab4ceeef8d981c8956a681565b6107da610856565b600073ffffffffffffffffffffffffffffffffffffffff168173ffffffffffffffffffffffffffffffffffffffff16141561084a576040517f08c379a000000000000000000000000000000000000000000000000000000000815260040161084190610db6565b60405180910390fd5b610853816108d4565b50565b61085e610998565b73ffffffffffffffffffffffffffffffffffffffff1661087c6105eb565b73ffffffffffffffffffffffffffffffffffffffff16146108d2576040517f08c379a00000000000000000000000000000000000000000000000000000000081526004016108c990610e22565b60405180910390fd5b565b60008060009054906101000a900473ffffffffffffffffffffffffffffffffffffffff169050816000806101000a81548173ffffffffffffffffffffffffffffffffffffffff021916908373ffffffffffffffffffffffffffffffffffffffff1602179055508173ffffffffffffffffffffffffffffffffffffffff168173ffffffffffffffffffffffffffffffffffffffff167f8be0079c531659141344cd1fd0a4f28419497f9722a3daafe3b4186f6b6457e060405160405180910390a35050565b600033905090565b600073ffffffffffffffffffffffffffffffffffffffff82169050919050565b60006109cb826109a0565b9050919050565b6109db816109c0565b82525050565b60006020820190506109f660008301846109d2565b92915050565b600080fd5b600080fd5b610a0f816109c0565b8114610a1a57600080fd5b50565b600081359050610a2c81610a06565b92915050565b600080600080600060a08688031215610a4e57610a4d6109fc565b5b6000610a5c88828901610a1d565b9550506020610a6d88828901610a1d565b9450506040610a7e88828901610a1d565b9350506060610a8f88828901610a1d565b9250506080610aa088828901610a1d565b9150509295509295909350565b600080fd5b600080fd5b600080fd5b60008083601f840112610ad257610ad1610aad565b5b8235905067ffffffffffffffff811115610aef57610aee610ab2565b5b602083019150836001820283011115610b0b57610b0a610ab7565b5b9250929050565b600080600060408486031215610b2b57610b2a6109fc565b5b600084013567ffffffffffffffff811115610b4957610b48610a01565b5b610b5586828701610abc565b93509350506020610b6886828701610a1d565b9150509250925092565b60008060208385031215610b8957610b886109fc565b5b600083013567ffffffffffffffff811115610ba757610ba6610a01565b5b610bb385828601610abc565b92509250509250929050565b6000819050919050565b610bd281610bbf565b82525050565b6000602082019050610bed6000830184610bc9565b92915050565b600060208284031215610c0957610c086109fc565b5b6000610c1784828501610a1d565b91505092915050565b600081905092915050565b82818337600083830152505050565b6000610c468385610c20565b9350610c53838584610c2b565b82840190509392505050565b6000610c6c828486610c3a565b91508190509392505050565b6000604082019050610c8d6000830185610bc9565b610c9a60208301846109d2565b9392505050565b600082825260208201905092915050565b7f43616d706169676e52656769737472793a2043616d706169676e496e666f206e60008201527f6f74206372656174656400000000000000000000000000000000000000000000602082015250565b6000610d0e602a83610ca1565b9150610d1982610cb2565b604082019050919050565b60006020820190508181036000830152610d3d81610d01565b9050919050565b7f4f776e61626c653a206e6577206f776e657220697320746865207a65726f206160008201527f6464726573730000000000000000000000000000000000000000000000000000602082015250565b6000610da0602683610ca1565b9150610dab82610d44565b604082019050919050565b60006020820190508181036000830152610dcf81610d93565b9050919050565b7f4f776e61626c653a2063616c6c6572206973206e6f7420746865206f776e6572600082015250565b6000610e0c602083610ca1565b9150610e1782610dd6565b602082019050919050565b60006020820190508181036000830152610e3b81610dff565b905091905056fea264697066735822122067f3c5b73380113912ec52f5577098e8317d203035d484b7ce3ae1018ec0631464736f6c63430008090033",
  "linkReferences": {},
  "deployedLinkReferences": {}
}