{
  "_format": "hh-sol-artifact-1",
  "contractName": "FeeSplit",
  "sourceName": "contracts/library/FeeSplit.sol",
  "abi": [
    {
      "inputs": [
        {
          "internalType": "uint256",
          "name": "feePercent",
          "type": "uint256"
        },
        {
          "internalType": "uint256[]",
          "name": "pledgedAmountByPlatforms",
          "type": "uint256[]"
        }
      ],
      "name": "splitProportionately",
      "outputs": [
        {
          "internalType": "uint256[]",
          "name": "",
          "type": "uint256[]"
        }
      ],
      "stateMutability": "pure",
      "type": "function"
    },
    {
      "inputs": [
        {
          "internalType": "uint256",
          "name": "totalFeePercent",
          "type": "uint256"
        },
        {
          "internalType": "uint256",
          "name": "originRewardPercent",
          "type": "uint256"
        },
        {
          "internalType": "uint256",
          "name": "pledgedAmountByOrigin",
          "type": "uint256"
        },
        {
          "internalType": "uint256[]",
          "name": "pledgedAmountsByReach",
          "type": "uint256[]"
        }
      ],
      "name": "splitWithOriginReward",
      "outputs": [
        {
          "internalType": "uint256",
          "name": "",
          "type": "uint256"
        },
        {
          "internalType": "uint256[]",
          "name": "",
          "type": "uint256[]"
        }
      ],
      "stateMutability": "pure",
      "type": "function"
    }
  ],
  "bytecode": "0x6106ed610053600b82828239805160001a607314610046577f4e487b7100000000000000000000000000000000000000000000000000000000600052600060045260246000fd5b30600052607381538281f3fe73000000000000000000000000000000000000000030146080604052600436106100405760003560e01c80632372c8ec1461004557806354f14edb14610075575b600080fd5b61005f600480360381019061005a9190610296565b6100a6565b60405161006c91906103b4565b60405180910390f35b61008f600480360381019061008a91906103d6565b610179565b60405161009d92919061046d565b60405180910390f35b6060600083839050905060008167ffffffffffffffff8111156100cc576100cb61049d565b5b6040519080825280602002602001820160405280156100fa5781602001602082028036833780820191505090505b50905060005b8281101561016c576127108787878481811061011f5761011e6104cc565b5b90506020020135610130919061052a565b61013a91906105b3565b82828151811061014d5761014c6104cc565b5b6020026020010181815250508080610164906105e4565b915050610100565b5080925050509392505050565b6000606060008484905090506000600182610194919061062d565b888a6101a09190610683565b6101aa91906105b3565b90506000612710828a6101bd919061062d565b896101c8919061052a565b6101d291906105b3565b9050806101e08389896100a6565b945094505050509550959350505050565b600080fd5b600080fd5b6000819050919050565b61020e816101fb565b811461021957600080fd5b50565b60008135905061022b81610205565b92915050565b600080fd5b600080fd5b600080fd5b60008083601f84011261025657610255610231565b5b8235905067ffffffffffffffff81111561027357610272610236565b5b60208301915083602082028301111561028f5761028e61023b565b5b9250929050565b6000806000604084860312156102af576102ae6101f1565b5b60006102bd8682870161021c565b935050602084013567ffffffffffffffff8111156102de576102dd6101f6565b5b6102ea86828701610240565b92509250509250925092565b600081519050919050565b600082825260208201905092915050565b6000819050602082019050919050565b61032b816101fb565b82525050565b600061033d8383610322565b60208301905092915050565b6000602082019050919050565b6000610361826102f6565b61036b8185610301565b935061037683610312565b8060005b838110156103a757815161038e8882610331565b975061039983610349565b92505060018101905061037a565b5085935050505092915050565b600060208201905081810360008301526103ce8184610356565b905092915050565b6000806000806000608086880312156103f2576103f16101f1565b5b60006104008882890161021c565b95505060206104118882890161021c565b94505060406104228882890161021c565b935050606086013567ffffffffffffffff811115610443576104426101f6565b5b61044f88828901610240565b92509250509295509295909350565b610467816101fb565b82525050565b6000604082019050610482600083018561045e565b81810360208301526104948184610356565b90509392505050565b7f4e487b7100000000000000000000000000000000000000000000000000000000600052604160045260246000fd5b7f4e487b7100000000000000000000000000000000000000000000000000000000600052603260045260246000fd5b7f4e487b7100000000000000000000000000000000000000000000000000000000600052601160045260246000fd5b6000610535826101fb565b9150610540836101fb565b9250817fffffffffffffffffffffffffffffffffffffffffffffffffffffffffffffffff0483118215151615610579576105786104fb565b5b828202905092915050565b7f4e487b7100000000000000000000000000000000000000000000000000000000600052601260045260246000fd5b60006105be826101fb565b91506105c9836101fb565b9250826105d9576105d8610584565b5b828204905092915050565b60006105ef826101fb565b91507fffffffffffffffffffffffffffffffffffffffffffffffffffffffffffffffff821415610622576106216104fb565b5b600182019050919050565b6000610638826101fb565b9150610643836101fb565b9250827fffffffffffffffffffffffffffffffffffffffffffffffffffffffffffffffff03821115610678576106776104fb565b5b828201905092915050565b600061068e826101fb565b9150610699836101fb565b9250828210156106ac576106ab6104fb565b5b82820390509291505056fea26469706673582212202a037b18ee85034d362be6c520d07740097c1fd96921bd121cc0cf58dec78f3264736f6c63430008090033",
  "linkReferences": {},
  "deployedLinkReferences": {}
}