{
  "_format": "hh-sol-artifact-1",
  "contractName": "CampaignOracle",
  "sourceName": "contracts/CampaignOracle.sol",
  "abi": [
    {
      "anonymous": false,
      "inputs": [
        {
          "indexed": true,
          "internalType": "address",
          "name": "previousOwner",
          "type": "address"
        },
        {
          "indexed": true,
          "internalType": "address",
          "name": "newOwner",
          "type": "address"
        }
      ],
      "name": "OwnershipTransferred",
      "type": "event"
    },
    {
      "inputs": [
        {
          "internalType": "bytes32",
          "name": "platformId",
          "type": "bytes32"
        },
        {
          "internalType": "address",
          "name": "campaignAddress",
          "type": "address"
        }
      ],
      "name": "getPledgedAmountForplatform",
      "outputs": [
        {
          "internalType": "uint256",
          "name": "",
          "type": "uint256"
        }
      ],
      "stateMutability": "view",
      "type": "function"
    },
    {
      "inputs": [
        {
          "internalType": "address",
          "name": "campaignAddress",
          "type": "address"
        }
      ],
      "name": "getTotalPledgedAmount",
      "outputs": [
        {
          "internalType": "uint256",
          "name": "",
          "type": "uint256"
        }
      ],
      "stateMutability": "view",
      "type": "function"
    },
    {
      "inputs": [],
      "name": "owner",
      "outputs": [
        {
          "internalType": "address",
          "name": "",
          "type": "address"
        }
      ],
      "stateMutability": "view",
      "type": "function"
    },
    {
      "inputs": [],
      "name": "renounceOwnership",
      "outputs": [],
      "stateMutability": "nonpayable",
      "type": "function"
    },
    {
      "inputs": [
        {
          "internalType": "bytes32",
          "name": "platformId",
          "type": "bytes32"
        },
        {
          "internalType": "address",
          "name": "campaignAddress",
          "type": "address"
        },
        {
          "internalType": "uint256",
          "name": "pledgedAmount",
          "type": "uint256"
        }
      ],
      "name": "setPledgedAmountForPlatform",
      "outputs": [],
      "stateMutability": "nonpayable",
      "type": "function"
    },
    {
      "inputs": [
        {
          "internalType": "address",
          "name": "newOwner",
          "type": "address"
        }
      ],
      "name": "transferOwnership",
      "outputs": [],
      "stateMutability": "nonpayable",
      "type": "function"
    }
  ],
  "bytecode": "0x608060405234801561001057600080fd5b5061002d61002261003260201b60201c565b61003a60201b60201c565b6100fe565b600033905090565b60008060009054906101000a900473ffffffffffffffffffffffffffffffffffffffff169050816000806101000a81548173ffffffffffffffffffffffffffffffffffffffff021916908373ffffffffffffffffffffffffffffffffffffffff1602179055508173ffffffffffffffffffffffffffffffffffffffff168173ffffffffffffffffffffffffffffffffffffffff167f8be0079c531659141344cd1fd0a4f28419497f9722a3daafe3b4186f6b6457e060405160405180910390a35050565b61099f8061010d6000396000f3fe608060405234801561001057600080fd5b50600436106100625760003560e01c80634e3106cf14610067578063616ce8df14610083578063715018a6146100b35780638da5cb5b146100bd578063bbabf031146100db578063f2fde38b1461010b575b600080fd5b610081600480360381019061007c9190610698565b610127565b005b61009d600480360381019061009891906106eb565b610227565b6040516100aa919061073a565b60405180910390f35b6100bb610337565b005b6100c561034b565b6040516100d29190610764565b60405180910390f35b6100f560048036038101906100f0919061077f565b610374565b604051610102919061073a565b60405180910390f35b6101256004803603810190610120919061077f565b6103fb565b005b61012f61047f565b8173ffffffffffffffffffffffffffffffffffffffff166384ea5c74846040518263ffffffff1660e01b815260040161016891906107bb565b60206040518083038186803b15801561018057600080fd5b505afa158015610194573d6000803e3d6000fd5b505050506040513d601f19601f820116820180604052508101906101b891906107eb565b73ffffffffffffffffffffffffffffffffffffffff1663a680e8b0826040518263ffffffff1660e01b81526004016101f0919061073a565b600060405180830381600087803b15801561020a57600080fd5b505af115801561021e573d6000803e3d6000fd5b50505050505050565b60008173ffffffffffffffffffffffffffffffffffffffff166384ea5c74846040518263ffffffff1660e01b815260040161026291906107bb565b60206040518083038186803b15801561027a57600080fd5b505afa15801561028e573d6000803e3d6000fd5b505050506040513d601f19601f820116820180604052508101906102b291906107eb565b73ffffffffffffffffffffffffffffffffffffffff1663186bc5496040518163ffffffff1660e01b815260040160206040518083038186803b1580156102f757600080fd5b505afa15801561030b573d6000803e3d6000fd5b505050506040513d601f19601f8201168201806040525081019061032f919061082d565b905092915050565b61033f61047f565b61034960006104fd565b565b60008060009054906101000a900473ffffffffffffffffffffffffffffffffffffffff16905090565b60008173ffffffffffffffffffffffffffffffffffffffff166333a06c816040518163ffffffff1660e01b815260040160206040518083038186803b1580156103bc57600080fd5b505afa1580156103d0573d6000803e3d6000fd5b505050506040513d601f19601f820116820180604052508101906103f4919061082d565b9050919050565b61040361047f565b600073ffffffffffffffffffffffffffffffffffffffff168173ffffffffffffffffffffffffffffffffffffffff161415610473576040517f08c379a000000000000000000000000000000000000000000000000000000000815260040161046a906108dd565b60405180910390fd5b61047c816104fd565b50565b6104876105c1565b73ffffffffffffffffffffffffffffffffffffffff166104a561034b565b73ffffffffffffffffffffffffffffffffffffffff16146104fb576040517f08c379a00000000000000000000000000000000000000000000000000000000081526004016104f290610949565b60405180910390fd5b565b60008060009054906101000a900473ffffffffffffffffffffffffffffffffffffffff169050816000806101000a81548173ffffffffffffffffffffffffffffffffffffffff021916908373ffffffffffffffffffffffffffffffffffffffff1602179055508173ffffffffffffffffffffffffffffffffffffffff168173ffffffffffffffffffffffffffffffffffffffff167f8be0079c531659141344cd1fd0a4f28419497f9722a3daafe3b4186f6b6457e060405160405180910390a35050565b600033905090565b600080fd5b6000819050919050565b6105e1816105ce565b81146105ec57600080fd5b50565b6000813590506105fe816105d8565b92915050565b600073ffffffffffffffffffffffffffffffffffffffff82169050919050565b600061062f82610604565b9050919050565b61063f81610624565b811461064a57600080fd5b50565b60008135905061065c81610636565b92915050565b6000819050919050565b61067581610662565b811461068057600080fd5b50565b6000813590506106928161066c565b92915050565b6000806000606084860312156106b1576106b06105c9565b5b60006106bf868287016105ef565b93505060206106d08682870161064d565b92505060406106e186828701610683565b9150509250925092565b60008060408385031215610702576107016105c9565b5b6000610710858286016105ef565b92505060206107218582860161064d565b9150509250929050565b61073481610662565b82525050565b600060208201905061074f600083018461072b565b92915050565b61075e81610624565b82525050565b60006020820190506107796000830184610755565b92915050565b600060208284031215610795576107946105c9565b5b60006107a38482850161064d565b91505092915050565b6107b5816105ce565b82525050565b60006020820190506107d060008301846107ac565b92915050565b6000815190506107e581610636565b92915050565b600060208284031215610801576108006105c9565b5b600061080f848285016107d6565b91505092915050565b6000815190506108278161066c565b92915050565b600060208284031215610843576108426105c9565b5b600061085184828501610818565b91505092915050565b600082825260208201905092915050565b7f4f776e61626c653a206e6577206f776e657220697320746865207a65726f206160008201527f6464726573730000000000000000000000000000000000000000000000000000602082015250565b60006108c760268361085a565b91506108d28261086b565b604082019050919050565b600060208201905081810360008301526108f6816108ba565b9050919050565b7f4f776e61626c653a2063616c6c6572206973206e6f7420746865206f776e6572600082015250565b600061093360208361085a565b915061093e826108fd565b602082019050919050565b6000602082019050818103600083015261096281610926565b905091905056fea2646970667358221220cca287669aa5e3b308b27adda9d9d960905de50be2a7d7cb98ef27b32c92d3fd64736f6c63430008090033",
  "linkReferences": {},
  "deployedLinkReferences": {}
}