{
  "_format": "hh-sol-artifact-1",
  "contractName": "CampaignInfo",
  "sourceName": "contracts/CampaignInfo.sol",
  "abi": [
    {
      "inputs": [
        {
          "internalType": "string",
          "name": "_identifier",
          "type": "string"
        },
        {
          "internalType": "bytes32",
          "name": "_originPlatform",
          "type": "bytes32"
        },
        {
          "internalType": "string",
          "name": "_creatorUrl",
          "type": "string"
        },
        {
          "internalType": "bytes32[]",
          "name": "_reachPlatform",
          "type": "bytes32[]"
        },
        {
          "internalType": "address",
          "name": "_registryAddress",
          "type": "address"
        },
        {
          "internalType": "address",
          "name": "_creator",
          "type": "address"
        }
      ],
      "stateMutability": "nonpayable",
      "type": "constructor"
    },
    {
      "anonymous": false,
      "inputs": [
        {
          "indexed": true,
          "internalType": "address",
          "name": "previousOwner",
          "type": "address"
        },
        {
          "indexed": true,
          "internalType": "address",
          "name": "newOwner",
          "type": "address"
        }
      ],
      "name": "OwnershipTransferred",
      "type": "event"
    },
    {
      "anonymous": false,
      "inputs": [
        {
          "indexed": false,
          "internalType": "address",
          "name": "account",
          "type": "address"
        }
      ],
      "name": "Paused",
      "type": "event"
    },
    {
      "anonymous": false,
      "inputs": [
        {
          "indexed": false,
          "internalType": "address",
          "name": "account",
          "type": "address"
        }
      ],
      "name": "Unpaused",
      "type": "event"
    },
    {
      "inputs": [
        {
          "internalType": "string",
          "name": "name",
          "type": "string"
        },
        {
          "internalType": "string",
          "name": "description",
          "type": "string"
        }
      ],
      "name": "addItem",
      "outputs": [],
      "stateMutability": "nonpayable",
      "type": "function"
    },
    {
      "inputs": [
        {
          "internalType": "bytes32",
          "name": "_platformId",
          "type": "bytes32"
        }
      ],
      "name": "addReachPlatform",
      "outputs": [],
      "stateMutability": "nonpayable",
      "type": "function"
    },
    {
      "inputs": [
        {
          "internalType": "string",
          "name": "name",
          "type": "string"
        },
        {
          "internalType": "uint256",
          "name": "rewardValue",
          "type": "uint256"
        },
        {
          "internalType": "string[]",
          "name": "itemName",
          "type": "string[]"
        },
        {
          "internalType": "uint256[]",
          "name": "itemQuantity",
          "type": "uint256[]"
        }
      ],
      "name": "addReward",
      "outputs": [],
      "stateMutability": "nonpayable",
      "type": "function"
    },
    {
      "inputs": [
        {
          "internalType": "bytes32",
          "name": "platformId",
          "type": "bytes32"
        },
        {
          "internalType": "address",
          "name": "backer",
          "type": "address"
        }
      ],
      "name": "becomeAnEarlyBacker",
      "outputs": [],
      "stateMutability": "nonpayable",
      "type": "function"
    },
    {
      "inputs": [],
      "name": "end",
      "outputs": [],
      "stateMutability": "nonpayable",
      "type": "function"
    },
    {
      "inputs": [
        {
          "internalType": "address",
          "name": "backer",
          "type": "address"
        },
        {
          "internalType": "bytes32",
          "name": "platformId",
          "type": "bytes32"
        }
      ],
      "name": "getBackerPledgeInfoForAPlatform",
      "outputs": [
        {
          "internalType": "uint256",
          "name": "",
          "type": "uint256"
        }
      ],
      "stateMutability": "view",
      "type": "function"
    },
    {
      "inputs": [],
      "name": "getCampaignData",
      "outputs": [
        {
          "internalType": "string",
          "name": "",
          "type": "string"
        },
        {
          "internalType": "uint256",
          "name": "",
          "type": "uint256"
        },
        {
          "internalType": "uint256",
          "name": "",
          "type": "uint256"
        },
        {
          "internalType": "uint256",
          "name": "",
          "type": "uint256"
        },
        {
          "internalType": "uint256",
          "name": "",
          "type": "uint256"
        },
        {
          "internalType": "string",
          "name": "",
          "type": "string"
        }
      ],
      "stateMutability": "view",
      "type": "function"
    },
    {
      "inputs": [],
      "name": "getCampaignOriginPlatform",
      "outputs": [
        {
          "internalType": "bytes32",
          "name": "",
          "type": "bytes32"
        }
      ],
      "stateMutability": "view",
      "type": "function"
    },
    {
      "inputs": [],
      "name": "getCampaignReachPlatforms",
      "outputs": [
        {
          "internalType": "bytes32[]",
          "name": "",
          "type": "bytes32[]"
        }
      ],
      "stateMutability": "view",
      "type": "function"
    },
    {
      "inputs": [
        {
          "internalType": "bytes32",
          "name": "platformId",
          "type": "bytes32"
        }
      ],
      "name": "getPledgedAmountForAPlatformCrypto",
      "outputs": [
        {
          "internalType": "uint256",
          "name": "",
          "type": "uint256"
        }
      ],
      "stateMutability": "view",
      "type": "function"
    },
    {
      "inputs": [
        {
          "internalType": "bytes32",
          "name": "platformId",
          "type": "bytes32"
        }
      ],
      "name": "getPledgedAmountForPlatformCrypto",
      "outputs": [
        {
          "internalType": "uint256",
          "name": "",
          "type": "uint256"
        }
      ],
      "stateMutability": "view",
      "type": "function"
    },
    {
      "inputs": [],
      "name": "getTotalPledgedAmountCrypto",
      "outputs": [
        {
          "internalType": "uint256",
          "name": "",
          "type": "uint256"
        }
      ],
      "stateMutability": "view",
      "type": "function"
    },
    {
      "inputs": [
        {
          "internalType": "bytes32",
          "name": "platformId",
          "type": "bytes32"
        }
      ],
      "name": "getTreasuryAddress",
      "outputs": [
        {
          "internalType": "address",
          "name": "",
          "type": "address"
        }
      ],
      "stateMutability": "view",
      "type": "function"
    },
    {
      "inputs": [],
      "name": "owner",
      "outputs": [
        {
          "internalType": "address",
          "name": "",
          "type": "address"
        }
      ],
      "stateMutability": "view",
      "type": "function"
    },
    {
      "inputs": [],
      "name": "pause",
      "outputs": [],
      "stateMutability": "nonpayable",
      "type": "function"
    },
    {
      "inputs": [],
      "name": "paused",
      "outputs": [
        {
          "internalType": "bool",
          "name": "",
          "type": "bool"
        }
      ],
      "stateMutability": "view",
      "type": "function"
    },
    {
      "inputs": [
        {
          "internalType": "bytes32",
          "name": "platformId",
          "type": "bytes32"
        },
        {
          "internalType": "address",
          "name": "backer",
          "type": "address"
        },
        {
          "internalType": "string",
          "name": "rewardName",
          "type": "string"
        }
      ],
      "name": "pledgeForAReward",
      "outputs": [],
      "stateMutability": "nonpayable",
      "type": "function"
    },
    {
      "inputs": [
        {
          "internalType": "bytes32",
          "name": "platformId",
          "type": "bytes32"
        },
        {
          "internalType": "address",
          "name": "backer",
          "type": "address"
        },
        {
          "internalType": "uint256",
          "name": "amount",
          "type": "uint256"
        }
      ],
      "name": "pledgeWithoutAReward",
      "outputs": [],
      "stateMutability": "nonpayable",
      "type": "function"
    },
    {
      "inputs": [
        {
          "internalType": "address",
          "name": "backer",
          "type": "address"
        },
        {
          "internalType": "uint256",
          "name": "amount",
          "type": "uint256"
        },
        {
          "internalType": "bytes32",
          "name": "platformId",
          "type": "bytes32"
        }
      ],
      "name": "redeemPledge",
      "outputs": [],
      "stateMutability": "nonpayable",
      "type": "function"
    },
    {
      "inputs": [
        {
          "internalType": "address",
          "name": "backer",
          "type": "address"
        },
        {
          "internalType": "uint256",
          "name": "tokenId",
          "type": "uint256"
        }
      ],
      "name": "redeemPledge",
      "outputs": [],
      "stateMutability": "nonpayable",
      "type": "function"
    },
    {
      "inputs": [],
      "name": "renounceOwnership",
      "outputs": [],
      "stateMutability": "nonpayable",
      "type": "function"
    },
    {
      "inputs": [],
      "name": "rewardedPlatform",
      "outputs": [
        {
          "internalType": "bytes32",
          "name": "",
          "type": "bytes32"
        }
      ],
      "stateMutability": "view",
      "type": "function"
    },
    {
      "inputs": [
        {
          "internalType": "uint256",
          "name": "launchTime",
          "type": "uint256"
        },
        {
          "internalType": "uint256",
          "name": "deadline",
          "type": "uint256"
        },
        {
          "internalType": "uint256",
          "name": "goalAmount",
          "type": "uint256"
        },
        {
          "internalType": "bool",
          "name": "enableLatePledge",
          "type": "bool"
        }
      ],
      "name": "setLaunch",
      "outputs": [],
      "stateMutability": "nonpayable",
      "type": "function"
    },
    {
      "inputs": [
        {
          "internalType": "bytes32",
          "name": "_platformId",
          "type": "bytes32"
        },
        {
          "internalType": "address",
          "name": "_platformWallet",
          "type": "address"
        },
        {
          "internalType": "address",
          "name": "_treasury",
          "type": "address"
        },
        {
          "internalType": "address",
          "name": "_token",
          "type": "address"
        }
      ],
      "name": "setPlatformInfo",
      "outputs": [],
      "stateMutability": "nonpayable",
      "type": "function"
    },
    {
      "inputs": [],
      "name": "specifiedTime",
      "outputs": [
        {
          "internalType": "uint256",
          "name": "",
          "type": "uint256"
        }
      ],
      "stateMutability": "view",
      "type": "function"
    },
    {
      "inputs": [],
      "name": "splitFeesProportionately",
      "outputs": [],
      "stateMutability": "nonpayable",
      "type": "function"
    },
    {
      "inputs": [
        {
          "internalType": "address",
          "name": "newOwner",
          "type": "address"
        }
      ],
      "name": "transferOwnership",
      "outputs": [],
      "stateMutability": "nonpayable",
      "type": "function"
    },
    {
      "inputs": [],
      "name": "unpause",
      "outputs": [],
      "stateMutability": "nonpayable",
      "type": "function"
    },
    {
      "inputs": [
        {
          "internalType": "uint256",
          "name": "_deadline",
          "type": "uint256"
        }
      ],
      "name": "updateDeadline",
      "outputs": [],
      "stateMutability": "nonpayable",
      "type": "function"
    },
    {
      "inputs": [
        {
          "internalType": "uint256",
          "name": "_goalAmount",
          "type": "uint256"
        }
      ],
      "name": "updateGoal",
      "outputs": [],
      "stateMutability": "nonpayable",
      "type": "function"
    },
    {
      "inputs": [
        {
          "internalType": "uint256",
          "name": "_launchTime",
          "type": "uint256"
        }
      ],
      "name": "updateLaunchTime",
      "outputs": [],
      "stateMutability": "nonpayable",
      "type": "function"
    }
  ],
  "bytecode": "0x60806040523480156200001157600080fd5b5060405162004d9e38038062004d9e833981810160405281019062000037919062000794565b620000576200004b6200013e60201b60201c565b6200014660201b60201c565b60008060146101000a81548160ff02191690831515021790555085600360000190805190602001906200008c9291906200035b565b5084600360010181905550426003600401819055508360036006019080519060200190620000bc9291906200035b565b508260036007019080519060200190620000d8929190620003ec565b5081600b60006101000a81548173ffffffffffffffffffffffffffffffffffffffff021916908373ffffffffffffffffffffffffffffffffffffffff16021790555042600f8190555062000132816200020a60201b60201c565b50505050505062000a0d565b600033905090565b60008060009054906101000a900473ffffffffffffffffffffffffffffffffffffffff169050816000806101000a81548173ffffffffffffffffffffffffffffffffffffffff021916908373ffffffffffffffffffffffffffffffffffffffff1602179055508173ffffffffffffffffffffffffffffffffffffffff168173ffffffffffffffffffffffffffffffffffffffff167f8be0079c531659141344cd1fd0a4f28419497f9722a3daafe3b4186f6b6457e060405160405180910390a35050565b6200021a620002a160201b60201c565b600073ffffffffffffffffffffffffffffffffffffffff168173ffffffffffffffffffffffffffffffffffffffff1614156200028d576040517f08c379a0000000000000000000000000000000000000000000000000000000008152600401620002849062000914565b60405180910390fd5b6200029e816200014660201b60201c565b50565b620002b16200013e60201b60201c565b73ffffffffffffffffffffffffffffffffffffffff16620002d76200033260201b60201c565b73ffffffffffffffffffffffffffffffffffffffff161462000330576040517f08c379a0000000000000000000000000000000000000000000000000000000008152600401620003279062000986565b60405180910390fd5b565b60008060009054906101000a900473ffffffffffffffffffffffffffffffffffffffff16905090565b8280546200036990620009d7565b90600052602060002090601f0160209004810192826200038d5760008555620003d9565b82601f10620003a857805160ff1916838001178555620003d9565b82800160010185558215620003d9579182015b82811115620003d8578251825591602001919060010190620003bb565b5b509050620003e891906200043e565b5090565b8280548282559060005260206000209081019282156200042b579160200282015b828111156200042a5782518255916020019190600101906200040d565b5b5090506200043a91906200045d565b5090565b5b80821115620004595760008160009055506001016200043f565b5090565b5b80821115620004785760008160009055506001016200045e565b5090565b6000604051905090565b600080fd5b600080fd5b600080fd5b600080fd5b6000601f19601f8301169050919050565b7f4e487b7100000000000000000000000000000000000000000000000000000000600052604160045260246000fd5b620004e5826200049a565b810181811067ffffffffffffffff82111715620005075762000506620004ab565b5b80604052505050565b60006200051c6200047c565b90506200052a8282620004da565b919050565b600067ffffffffffffffff8211156200054d576200054c620004ab565b5b62000558826200049a565b9050602081019050919050565b60005b838110156200058557808201518184015260208101905062000568565b8381111562000595576000848401525b50505050565b6000620005b2620005ac846200052f565b62000510565b905082815260208101848484011115620005d157620005d062000495565b5b620005de84828562000565565b509392505050565b600082601f830112620005fe57620005fd62000490565b5b8151620006108482602086016200059b565b91505092915050565b6000819050919050565b6200062e8162000619565b81146200063a57600080fd5b50565b6000815190506200064e8162000623565b92915050565b600067ffffffffffffffff821115620006725762000671620004ab565b5b602082029050602081019050919050565b600080fd5b60006200069f620006998462000654565b62000510565b90508083825260208201905060208402830185811115620006c557620006c462000683565b5b835b81811015620006f25780620006dd88826200063d565b845260208401935050602081019050620006c7565b5050509392505050565b600082601f83011262000714576200071362000490565b5b81516200072684826020860162000688565b91505092915050565b600073ffffffffffffffffffffffffffffffffffffffff82169050919050565b60006200075c826200072f565b9050919050565b6200076e816200074f565b81146200077a57600080fd5b50565b6000815190506200078e8162000763565b92915050565b60008060008060008060c08789031215620007b457620007b362000486565b5b600087015167ffffffffffffffff811115620007d557620007d46200048b565b5b620007e389828a01620005e6565b9650506020620007f689828a016200063d565b955050604087015167ffffffffffffffff8111156200081a57620008196200048b565b5b6200082889828a01620005e6565b945050606087015167ffffffffffffffff8111156200084c576200084b6200048b565b5b6200085a89828a01620006fc565b93505060806200086d89828a016200077d565b92505060a06200088089828a016200077d565b9150509295509295509295565b600082825260208201905092915050565b7f4f776e61626c653a206e6577206f776e657220697320746865207a65726f206160008201527f6464726573730000000000000000000000000000000000000000000000000000602082015250565b6000620008fc6026836200088d565b915062000909826200089e565b604082019050919050565b600060208201905081810360008301526200092f81620008ed565b9050919050565b7f4f776e61626c653a2063616c6c6572206973206e6f7420746865206f776e6572600082015250565b60006200096e6020836200088d565b91506200097b8262000936565b602082019050919050565b60006020820190508181036000830152620009a1816200095f565b9050919050565b7f4e487b7100000000000000000000000000000000000000000000000000000000600052602260045260246000fd5b60006002820490506001821680620009f057607f821691505b6020821081141562000a075762000a06620009a8565b5b50919050565b6143818062000a1d6000396000f3fe608060405234801561001057600080fd5b50600436106101e55760003560e01c80637ed8a7191161010f578063c4176338116100a2578063f2fde38b11610071578063f2fde38b146104d3578063f4efc115146104ef578063f84036761461050b578063fb7846df14610529576101e5565b8063c41763381461045a578063deaaf2411461047d578063e12900f214610499578063efbe1c1c146104c9576101e5565b8063858b531d116100de578063858b531d146103e65780638da5cb5b14610402578063a0797f7514610420578063b1c1f7f21461043e576101e5565b80637ed8a7191461037457806383d23ab3146103905780638456cb59146103ac57806384ea5c74146103b6576101e5565b80633f4ba83a11610187578063695c27c211610156578063695c27c214610326578063715018a6146103425780637568173b1461034c5780637712b17214610356576101e5565b80633f4ba83a146102c657806342af1884146102d05780635c975abb146102ec57806368027e431461030a576101e5565b80632e162db6116101c35780632e162db61461024057806330c00b001461025e578063316fb7c41461028e57806337724c75146102aa576101e5565b806301e81781146101ea57806319188bd8146102065780631957612414610222575b600080fd5b61020460048036038101906101ff9190612e2a565b610559565b005b610220600480360381019061021b91906131b9565b6108de565b005b61022a6109ab565b6040516102379190613288565b60405180910390f35b6102486109b1565b6040516102559190613361565b60405180910390f35b61027860048036038101906102739190613383565b610a0c565b60405161028591906133bf565b60405180910390f35b6102a860048036038101906102a391906133da565b610ba9565b005b6102c460048036038101906102bf9190613407565b610c0e565b005b6102ce610ea5565b005b6102ea60048036038101906102e591906133da565b610f07565b005b6102f4610f89565b6040516103019190613462565b60405180910390f35b610324600480360381019061031f91906133da565b610f9f565b005b610340600480360381019061033b91906134a9565b611021565b005b61034a611079565b005b61035461108d565b005b61035e61156d565b60405161036b91906133bf565b60405180910390f35b61038e60048036038101906103899190613510565b611573565b005b6103aa60048036038101906103a59190613383565b6115ac565b005b6103b4611633565b005b6103d060048036038101906103cb9190613383565b611695565b6040516103dd91906135a0565b60405180910390f35b61040060048036038101906103fb91906135bb565b611777565b005b61040a61194a565b60405161041791906135a0565b60405180910390f35b610428611973565b6040516104359190613288565b60405180910390f35b6104586004803603810190610453919061360e565b611980565b005b610462611b7d565b604051610474969594939291906136e9565b60405180910390f35b61049760048036038101906104929190613758565b611cd4565b005b6104b360048036038101906104ae91906137bf565b611e28565b6040516104c091906133bf565b60405180910390f35b6104d1611e83565b005b6104ed60048036038101906104e891906137ff565b611ef8565b005b6105096004803603810190610504919061382c565b611f7c565b005b610513612241565b60405161052091906133bf565b60405180910390f35b610543600480360381019061053e9190613383565b6125ac565b60405161055091906133bf565b60405180910390f35b600b60149054906101000a900460ff16156105a9576040517f08c379a00000000000000000000000000000000000000000000000000000000081526004016105a0906138b8565b60405180910390fd5b6105b16126a4565b600d60009054906101000a900460ff1680156105d05750426003800154105b6105d957600080fd5b60006011600086815260200190815260200160002060009054906101000a900473ffffffffffffffffffffffffffffffffffffffff169050600060018484604051610625929190613908565b9081526020016040518091039020600001549050601460008673ffffffffffffffffffffffffffffffffffffffff1673ffffffffffffffffffffffffffffffffffffffff16815260200190815260200160002060009054906101000a900460ff16156106f3576001816106989190613950565b90506000601460008773ffffffffffffffffffffffffffffffffffffffff1673ffffffffffffffffffffffffffffffffffffffff16815260200190815260200160002060006101000a81548160ff0219169083151502179055505b8173ffffffffffffffffffffffffffffffffffffffff166323b872dd86601060008a815260200190815260200160002060009054906101000a900473ffffffffffffffffffffffffffffffffffffffff16846040518463ffffffff1660e01b815260040161076393929190613984565b602060405180830381600087803b15801561077d57600080fd5b505af1158015610791573d6000803e3d6000fd5b505050506040513d601f19601f820116820180604052508101906107b591906139d0565b50600b60009054906101000a900473ffffffffffffffffffffffffffffffffffffffff1673ffffffffffffffffffffffffffffffffffffffff166330525f666040518163ffffffff1660e01b815260040160206040518083038186803b15801561081e57600080fd5b505afa158015610832573d6000803e3d6000fd5b505050506040513d601f19601f820116820180604052508101906108569190613a12565b73ffffffffffffffffffffffffffffffffffffffff16634ebc0c1986846001856108809190613a3f565b8a89896040518763ffffffff1660e01b81526004016108a496959493929190613ac2565b600060405180830381600087803b1580156108be57600080fd5b505af11580156108d2573d6000803e3d6000fd5b50505050505050505050565b6000600186866040516108f2929190613908565b9081526020016040518091039020905083816000018190555082816002019080519060200190610923929190612b30565b5060008251905060005b818110156109a15783818151811061094857610947613b1e565b5b60200260200101518360030186838151811061096757610966613b1e565b5b602002602001015160405161097c9190613b7e565b908152602001604051809103902081905550808061099990613b95565b91505061092d565b5050505050505050565b600e5481565b60606003600701805480602002602001604051908101604052809291908181526020018280548015610a0257602002820191906000526020600020905b8154815260200190600101908083116109ee575b5050505050905090565b600081600073ffffffffffffffffffffffffffffffffffffffff166010600083815260200190815260200160002060009054906101000a900473ffffffffffffffffffffffffffffffffffffffff1673ffffffffffffffffffffffffffffffffffffffff161415610ab2576040517f08c379a0000000000000000000000000000000000000000000000000000000008152600401610aa990613c50565b60405180910390fd5b6011600084815260200190815260200160002060009054906101000a900473ffffffffffffffffffffffffffffffffffffffff1673ffffffffffffffffffffffffffffffffffffffff166370a082316010600086815260200190815260200160002060009054906101000a900473ffffffffffffffffffffffffffffffffffffffff166040518263ffffffff1660e01b8152600401610b5191906135a0565b60206040518083038186803b158015610b6957600080fd5b505afa158015610b7d573d6000803e3d6000fd5b505050506040513d601f19601f82011682018060405250810190610ba19190613c85565b915050919050565b600b60149054906101000a900460ff1615610bf9576040517f08c379a0000000000000000000000000000000000000000000000000000000008152600401610bf0906138b8565b60405180910390fd5b610c016126ee565b8060036002018190555050565b600b60149054906101000a900460ff1615610c5e576040517f08c379a0000000000000000000000000000000000000000000000000000000008152600401610c55906138b8565b60405180910390fd5b610c666126a4565b600d60009054906101000a900460ff161580610c855750426003800154115b610c8e57600080fd5b60006011600084815260200190815260200160002060009054906101000a900473ffffffffffffffffffffffffffffffffffffffff1690506000600190508173ffffffffffffffffffffffffffffffffffffffff166323b872dd846010600088815260200190815260200160002060009054906101000a900473ffffffffffffffffffffffffffffffffffffffff16846040518463ffffffff1660e01b8152600401610d3c93929190613984565b602060405180830381600087803b158015610d5657600080fd5b505af1158015610d6a573d6000803e3d6000fd5b505050506040513d601f19601f82011682018060405250810190610d8e91906139d0565b50600b60009054906101000a900473ffffffffffffffffffffffffffffffffffffffff1673ffffffffffffffffffffffffffffffffffffffff166330525f666040518163ffffffff1660e01b815260040160206040518083038186803b158015610df757600080fd5b505afa158015610e0b573d6000803e3d6000fd5b505050506040513d601f19601f82011682018060405250810190610e2f9190613a12565b73ffffffffffffffffffffffffffffffffffffffff16638e48312f848484886040518563ffffffff1660e01b8152600401610e6d9493929190613cb2565b600060405180830381600087803b158015610e8757600080fd5b505af1158015610e9b573d6000803e3d6000fd5b5050505050505050565b600b60149054906101000a900460ff1615610ef5576040517f08c379a0000000000000000000000000000000000000000000000000000000008152600401610eec906138b8565b60405180910390fd5b610efd6126ee565b610f0561276c565b565b600b60149054906101000a900460ff1615610f57576040517f08c379a0000000000000000000000000000000000000000000000000000000008152600401610f4e906138b8565b60405180910390fd5b610f5f6126ee565b80600c546003800154610f729190613a3f565b10610f7c57600080fd5b8060036005018190555050565b60008060149054906101000a900460ff16905090565b600b60149054906101000a900460ff1615610fef576040517f08c379a0000000000000000000000000000000000000000000000000000000008152600401610fe6906138b8565b60405180910390fd5b610ff76126ee565b600360050154600c548261100b9190613a3f565b1061101557600080fd5b80600380018190555050565b836003800181905550826003600501819055508160036002018190555080600d60016101000a81548160ff0219169083151502179055506001600d60006101000a81548160ff02191690831515021790555050505050565b6110816126ee565b61108b60006127ce565b565b6000600b60009054906101000a900473ffffffffffffffffffffffffffffffffffffffff1673ffffffffffffffffffffffffffffffffffffffff16635bad43996040518163ffffffff1660e01b815260040160206040518083038186803b1580156110f757600080fd5b505afa15801561110b573d6000803e3d6000fd5b505050506040513d601f19601f8201168201806040525081019061112f9190613a12565b90506000600360070180548060200260200160405190810160405280929190818152602001828054801561118257602002820191906000526020600020905b81548152602001906001019080831161116e575b505050505090506000600182516111999190613a3f565b67ffffffffffffffff8111156111b2576111b1612ee5565b5b6040519080825280602002602001820160405280156111e05781602001602082028036833780820191505090505b5090506000600183516111f39190613a3f565b67ffffffffffffffff81111561120c5761120b612ee5565b5b60405190808252806020026020018201604052801561123a5781602001602082028036833780820191505090505b50905060005b83518110156112d85783818151811061125c5761125b613b1e565b5b602002602001015183828151811061127757611276613b1e565b5b6020026020010181815250506112a684828151811061129957611298613b1e565b5b6020026020010151610a0c565b8282815181106112b9576112b8613b1e565b5b60200260200101818152505080806112d090613b95565b915050611240565b50600360010154828451815181106112f3576112f2613b1e565b5b60200260200101818152505061130d600360010154610a0c565b8184518151811061132157611320613b1e565b5b6020026020010181815250506000600b60009054906101000a900473ffffffffffffffffffffffffffffffffffffffff1673ffffffffffffffffffffffffffffffffffffffff16630eeaef466040518163ffffffff1660e01b815260040160206040518083038186803b15801561139757600080fd5b505afa1580156113ab573d6000803e3d6000fd5b505050506040513d601f19601f820116820180604052508101906113cf9190613a12565b73ffffffffffffffffffffffffffffffffffffffff1663bdec30ba8673ffffffffffffffffffffffffffffffffffffffff16638274f2d66040518163ffffffff1660e01b815260040160206040518083038186803b15801561143057600080fd5b505afa158015611444573d6000803e3d6000fd5b505050506040513d601f19601f820116820180604052508101906114689190613c85565b8773ffffffffffffffffffffffffffffffffffffffff1663fe6f1b056040518163ffffffff1660e01b815260040160206040518083038186803b1580156114ae57600080fd5b505afa1580156114c2573d6000803e3d6000fd5b505050506040513d601f19601f820116820180604052508101906114e69190613c85565b856040518463ffffffff1660e01b815260040161150593929190613db5565b60006040518083038186803b15801561151d57600080fd5b505afa158015611531573d6000803e3d6000fd5b505050506040513d6000823e3d601f19601f8201168201806040525081019061155a9190613e8a565b90506115668382612892565b5050505050565b600f5481565b818160028686604051611587929190613908565b908152602001604051809103902060000191906115a5929190612b90565b5050505050565b600b60149054906101000a900460ff16156115fc576040517f08c379a00000000000000000000000000000000000000000000000000000000081526004016115f3906138b8565b60405180910390fd5b6116046126ee565b600360070181908060018154018082558091505060019003906000526020600020016000909190919091505550565b600b60149054906101000a900460ff1615611683576040517f08c379a000000000000000000000000000000000000000000000000000000000815260040161167a906138b8565b60405180910390fd5b61168b6126ee565b6116936128fa565b565b600081600073ffffffffffffffffffffffffffffffffffffffff166010600083815260200190815260200160002060009054906101000a900473ffffffffffffffffffffffffffffffffffffffff1673ffffffffffffffffffffffffffffffffffffffff16141561173b576040517f08c379a000000000000000000000000000000000000000000000000000000000815260040161173290613c50565b60405180910390fd5b6010600084815260200190815260200160002060009054906101000a900473ffffffffffffffffffffffffffffffffffffffff16915050919050565b6000601360008573ffffffffffffffffffffffffffffffffffffffff1673ffffffffffffffffffffffffffffffffffffffff16815260200190815260200160002060008381526020019081526020016000205490508083111561180f576040517f08c379a000000000000000000000000000000000000000000000000000000000815260040161180690613f1f565b60405180910390fd5b828161181b9190613950565b601360008673ffffffffffffffffffffffffffffffffffffffff1673ffffffffffffffffffffffffffffffffffffffff1681526020019081526020016000206000848152602001908152602001600020819055506010600083815260200190815260200160002060009054906101000a900473ffffffffffffffffffffffffffffffffffffffff1673ffffffffffffffffffffffffffffffffffffffff166360a56b3a856011600086815260200190815260200160002060009054906101000a900473ffffffffffffffffffffffffffffffffffffffff16866040518463ffffffff1660e01b815260040161191293929190613984565b600060405180830381600087803b15801561192c57600080fd5b505af1158015611940573d6000803e3d6000fd5b5050505050505050565b60008060009054906101000a900473ffffffffffffffffffffffffffffffffffffffff16905090565b6000600360010154905090565b600b60149054906101000a900460ff16156119d0576040517f08c379a00000000000000000000000000000000000000000000000000000000081526004016119c7906138b8565b60405180910390fd5b6119d86126a4565b426003600501541015611a17576003600201546119f3612241565b10158015611a0d5750600d60019054906101000a900460ff165b611a1657600080fd5b5b42600380015410611a2757600080fd5b60006011600085815260200190815260200160002060009054906101000a900473ffffffffffffffffffffffffffffffffffffffff1690508073ffffffffffffffffffffffffffffffffffffffff166323b872dd846010600088815260200190815260200160002060009054906101000a900473ffffffffffffffffffffffffffffffffffffffff16856040518463ffffffff1660e01b8152600401611acf93929190613984565b602060405180830381600087803b158015611ae957600080fd5b505af1158015611afd573d6000803e3d6000fd5b505050506040513d601f19601f82011682018060405250810190611b2191906139d0565b5081601360008573ffffffffffffffffffffffffffffffffffffffff1673ffffffffffffffffffffffffffffffffffffffff16815260200190815260200160002060008681526020019081526020016000208190555050505050565b60606000806000806060600360000160036002015460038001546003600401546003600501546003600601858054611bb490613f6e565b80601f0160208091040260200160405190810160405280929190818152602001828054611be090613f6e565b8015611c2d5780601f10611c0257610100808354040283529160200191611c2d565b820191906000526020600020905b815481529060010190602001808311611c1057829003601f168201915b50505050509550808054611c4090613f6e565b80601f0160208091040260200160405190810160405280929190818152602001828054611c6c90613f6e565b8015611cb95780601f10611c8e57610100808354040283529160200191611cb9565b820191906000526020600020905b815481529060010190602001808311611c9c57829003601f168201915b50505050509050955095509550955095509550909192939495565b600b60149054906101000a900460ff1615611d24576040517f08c379a0000000000000000000000000000000000000000000000000000000008152600401611d1b906138b8565b60405180910390fd5b611d2c6126ee565b826012600086815260200190815260200160002060006101000a81548173ffffffffffffffffffffffffffffffffffffffff021916908373ffffffffffffffffffffffffffffffffffffffff160217905550816010600086815260200190815260200160002060006101000a81548173ffffffffffffffffffffffffffffffffffffffff021916908373ffffffffffffffffffffffffffffffffffffffff160217905550806011600086815260200190815260200160002060006101000a81548173ffffffffffffffffffffffffffffffffffffffff021916908373ffffffffffffffffffffffffffffffffffffffff16021790555050505050565b6000601360008473ffffffffffffffffffffffffffffffffffffffff1673ffffffffffffffffffffffffffffffffffffffff168152602001908152602001600020600083815260200190815260200160002054905092915050565b600b60149054906101000a900460ff1615611ed3576040517f08c379a0000000000000000000000000000000000000000000000000000000008152600401611eca906138b8565b60405180910390fd5b611edb6126ee565b6001600b60146101000a81548160ff021916908315150217905550565b611f006126ee565b600073ffffffffffffffffffffffffffffffffffffffff168173ffffffffffffffffffffffffffffffffffffffff161415611f70576040517f08c379a0000000000000000000000000000000000000000000000000000000008152600401611f6790614012565b60405180910390fd5b611f79816127ce565b50565b6000600b60009054906101000a900473ffffffffffffffffffffffffffffffffffffffff1673ffffffffffffffffffffffffffffffffffffffff166330525f666040518163ffffffff1660e01b815260040160206040518083038186803b158015611fe657600080fd5b505afa158015611ffa573d6000803e3d6000fd5b505050506040513d601f19601f8201168201806040525081019061201e9190613a12565b9050606060008273ffffffffffffffffffffffffffffffffffffffff1663c20c42f8856040518263ffffffff1660e01b815260040161205d91906133bf565b60006040518083038186803b15801561207557600080fd5b505afa158015612089573d6000803e3d6000fd5b505050506040513d6000823e3d601f19601f820116820180604052508101906120b291906140b7565b90919293949550909192939450909192935090919250909150809350819250505060006001836040516120e59190613b7e565b90815260200160405180910390206000015490508373ffffffffffffffffffffffffffffffffffffffff166342966c68866040518263ffffffff1660e01b815260040161213291906133bf565b600060405180830381600087803b15801561214c57600080fd5b505af1158015612160573d6000803e3d6000fd5b505050506010600083815260200190815260200160002060009054906101000a900473ffffffffffffffffffffffffffffffffffffffff1673ffffffffffffffffffffffffffffffffffffffff166360a56b3a876011600086815260200190815260200160002060009054906101000a900473ffffffffffffffffffffffffffffffffffffffff16846040518463ffffffff1660e01b815260040161220793929190613984565b600060405180830381600087803b15801561222157600080fd5b505af1158015612235573d6000803e3d6000fd5b50505050505050505050565b60008060106000600360010154815260200190815260200160002060009054906101000a900473ffffffffffffffffffffffffffffffffffffffff169050600073ffffffffffffffffffffffffffffffffffffffff168173ffffffffffffffffffffffffffffffffffffffff1614156122ef576040517f08c379a00000000000000000000000000000000000000000000000000000000081526004016122e6906141e7565b60405180910390fd5b6000600360070180548060200260200160405190810160405280929190818152602001828054801561234057602002820191906000526020600020905b81548152602001906001019080831161232c575b50505050509050600081519050600060116000600360010154815260200190815260200160002060009054906101000a900473ffffffffffffffffffffffffffffffffffffffff1673ffffffffffffffffffffffffffffffffffffffff166370a08231856040518263ffffffff1660e01b81526004016123c091906135a0565b60206040518083038186803b1580156123d857600080fd5b505afa1580156123ec573d6000803e3d6000fd5b505050506040513d601f19601f820116820180604052508101906124109190613c85565b905060005b828110156125a15760006010600086848151811061243657612435613b1e565b5b6020026020010151815260200190815260200160002060009054906101000a900473ffffffffffffffffffffffffffffffffffffffff16905060006011600087858151811061248857612487613b1e565b5b6020026020010151815260200190815260200160002060009054906101000a900473ffffffffffffffffffffffffffffffffffffffff169050600073ffffffffffffffffffffffffffffffffffffffff168273ffffffffffffffffffffffffffffffffffffffff161461258c578073ffffffffffffffffffffffffffffffffffffffff166370a08231836040518263ffffffff1660e01b815260040161252e91906135a0565b60206040518083038186803b15801561254657600080fd5b505afa15801561255a573d6000803e3d6000fd5b505050506040513d601f19601f8201168201806040525081019061257e9190613c85565b846125899190613a3f565b93505b5050808061259990613b95565b915050612415565b508094505050505090565b60006011600083815260200190815260200160002060009054906101000a900473ffffffffffffffffffffffffffffffffffffffff1673ffffffffffffffffffffffffffffffffffffffff166370a082316010600085815260200190815260200160002060009054906101000a900473ffffffffffffffffffffffffffffffffffffffff166040518263ffffffff1660e01b815260040161264d91906135a0565b60206040518083038186803b15801561266557600080fd5b505afa158015612679573d6000803e3d6000fd5b505050506040513d601f19601f8201168201806040525081019061269d9190613c85565b9050919050565b6126ac610f89565b156126ec576040517f08c379a00000000000000000000000000000000000000000000000000000000081526004016126e390614253565b60405180910390fd5b565b6126f661295d565b73ffffffffffffffffffffffffffffffffffffffff1661271461194a565b73ffffffffffffffffffffffffffffffffffffffff161461276a576040517f08c379a0000000000000000000000000000000000000000000000000000000008152600401612761906142bf565b60405180910390fd5b565b612774612965565b60008060146101000a81548160ff0219169083151502179055507f5db9ee0a495bf2e6ff9c91a7834c1ba4fdd244a5e8aa4e537bd38aeae4b073aa6127b761295d565b6040516127c491906135a0565b60405180910390a1565b60008060009054906101000a900473ffffffffffffffffffffffffffffffffffffffff169050816000806101000a81548173ffffffffffffffffffffffffffffffffffffffff021916908373ffffffffffffffffffffffffffffffffffffffff1602179055508173ffffffffffffffffffffffffffffffffffffffff168173ffffffffffffffffffffffffffffffffffffffff167f8be0079c531659141344cd1fd0a4f28419497f9722a3daafe3b4186f6b6457e060405160405180910390a35050565b60008251905060005b818110156128f4576128e18482815181106128b9576128b8613b1e565b5b60200260200101518483815181106128d4576128d3613b1e565b5b60200260200101516129ae565b80806128ec90613b95565b91505061289b565b50505050565b6129026126a4565b6001600060146101000a81548160ff0219169083151502179055507f62e78cea01bee320cd4e420270b5ea74000d11b0c9f74754ebdbfc544b05a25861294661295d565b60405161295391906135a0565b60405180910390a1565b600033905090565b61296d610f89565b6129ac576040517f08c379a00000000000000000000000000000000000000000000000000000000081526004016129a39061432b565b60405180910390fd5b565b600081118015612a1e5750600073ffffffffffffffffffffffffffffffffffffffff166010600084815260200190815260200160002060009054906101000a900473ffffffffffffffffffffffffffffffffffffffff1673ffffffffffffffffffffffffffffffffffffffff1614155b15612b2c576010600083815260200190815260200160002060009054906101000a900473ffffffffffffffffffffffffffffffffffffffff1673ffffffffffffffffffffffffffffffffffffffff166360a56b3a6012600085815260200190815260200160002060009054906101000a900473ffffffffffffffffffffffffffffffffffffffff166011600086815260200190815260200160002060009054906101000a900473ffffffffffffffffffffffffffffffffffffffff16846040518463ffffffff1660e01b8152600401612af993929190613984565b600060405180830381600087803b158015612b1357600080fd5b505af1158015612b27573d6000803e3d6000fd5b505050505b5050565b828054828255906000526020600020908101928215612b7f579160200282015b82811115612b7e578251829080519060200190612b6e929190612c16565b5091602001919060010190612b50565b5b509050612b8c9190612c9c565b5090565b828054612b9c90613f6e565b90600052602060002090601f016020900481019282612bbe5760008555612c05565b82601f10612bd757803560ff1916838001178555612c05565b82800160010185558215612c05579182015b82811115612c04578235825591602001919060010190612be9565b5b509050612c129190612cc0565b5090565b828054612c2290613f6e565b90600052602060002090601f016020900481019282612c445760008555612c8b565b82601f10612c5d57805160ff1916838001178555612c8b565b82800160010185558215612c8b579182015b82811115612c8a578251825591602001919060010190612c6f565b5b509050612c989190612cc0565b5090565b5b80821115612cbc5760008181612cb39190612cdd565b50600101612c9d565b5090565b5b80821115612cd9576000816000905550600101612cc1565b5090565b508054612ce990613f6e565b6000825580601f10612cfb5750612d1a565b601f016020900490600052602060002090810190612d199190612cc0565b5b50565b6000604051905090565b600080fd5b600080fd5b6000819050919050565b612d4481612d31565b8114612d4f57600080fd5b50565b600081359050612d6181612d3b565b92915050565b600073ffffffffffffffffffffffffffffffffffffffff82169050919050565b6000612d9282612d67565b9050919050565b612da281612d87565b8114612dad57600080fd5b50565b600081359050612dbf81612d99565b92915050565b600080fd5b600080fd5b600080fd5b60008083601f840112612dea57612de9612dc5565b5b8235905067ffffffffffffffff811115612e0757612e06612dca565b5b602083019150836001820283011115612e2357612e22612dcf565b5b9250929050565b60008060008060608587031215612e4457612e43612d27565b5b6000612e5287828801612d52565b9450506020612e6387828801612db0565b935050604085013567ffffffffffffffff811115612e8457612e83612d2c565b5b612e9087828801612dd4565b925092505092959194509250565b6000819050919050565b612eb181612e9e565b8114612ebc57600080fd5b50565b600081359050612ece81612ea8565b92915050565b6000601f19601f8301169050919050565b7f4e487b7100000000000000000000000000000000000000000000000000000000600052604160045260246000fd5b612f1d82612ed4565b810181811067ffffffffffffffff82111715612f3c57612f3b612ee5565b5b80604052505050565b6000612f4f612d1d565b9050612f5b8282612f14565b919050565b600067ffffffffffffffff821115612f7b57612f7a612ee5565b5b602082029050602081019050919050565b600080fd5b600067ffffffffffffffff821115612fac57612fab612ee5565b5b612fb582612ed4565b9050602081019050919050565b82818337600083830152505050565b6000612fe4612fdf84612f91565b612f45565b90508281526020810184848401111561300057612fff612f8c565b5b61300b848285612fc2565b509392505050565b600082601f83011261302857613027612dc5565b5b8135613038848260208601612fd1565b91505092915050565b600061305461304f84612f60565b612f45565b9050808382526020820190506020840283018581111561307757613076612dcf565b5b835b818110156130be57803567ffffffffffffffff81111561309c5761309b612dc5565b5b8086016130a98982613013565b85526020850194505050602081019050613079565b5050509392505050565b600082601f8301126130dd576130dc612dc5565b5b81356130ed848260208601613041565b91505092915050565b600067ffffffffffffffff82111561311157613110612ee5565b5b602082029050602081019050919050565b6000613135613130846130f6565b612f45565b9050808382526020820190506020840283018581111561315857613157612dcf565b5b835b81811015613181578061316d8882612ebf565b84526020840193505060208101905061315a565b5050509392505050565b600082601f8301126131a05761319f612dc5565b5b81356131b0848260208601613122565b91505092915050565b6000806000806000608086880312156131d5576131d4612d27565b5b600086013567ffffffffffffffff8111156131f3576131f2612d2c565b5b6131ff88828901612dd4565b9550955050602061321288828901612ebf565b935050604086013567ffffffffffffffff81111561323357613232612d2c565b5b61323f888289016130c8565b925050606086013567ffffffffffffffff8111156132605761325f612d2c565b5b61326c8882890161318b565b9150509295509295909350565b61328281612d31565b82525050565b600060208201905061329d6000830184613279565b92915050565b600081519050919050565b600082825260208201905092915050565b6000819050602082019050919050565b6132d881612d31565b82525050565b60006132ea83836132cf565b60208301905092915050565b6000602082019050919050565b600061330e826132a3565b61331881856132ae565b9350613323836132bf565b8060005b8381101561335457815161333b88826132de565b9750613346836132f6565b925050600181019050613327565b5085935050505092915050565b6000602082019050818103600083015261337b8184613303565b905092915050565b60006020828403121561339957613398612d27565b5b60006133a784828501612d52565b91505092915050565b6133b981612e9e565b82525050565b60006020820190506133d460008301846133b0565b92915050565b6000602082840312156133f0576133ef612d27565b5b60006133fe84828501612ebf565b91505092915050565b6000806040838503121561341e5761341d612d27565b5b600061342c85828601612d52565b925050602061343d85828601612db0565b9150509250929050565b60008115159050919050565b61345c81613447565b82525050565b60006020820190506134776000830184613453565b92915050565b61348681613447565b811461349157600080fd5b50565b6000813590506134a38161347d565b92915050565b600080600080608085870312156134c3576134c2612d27565b5b60006134d187828801612ebf565b94505060206134e287828801612ebf565b93505060406134f387828801612ebf565b925050606061350487828801613494565b91505092959194509250565b6000806000806040858703121561352a57613529612d27565b5b600085013567ffffffffffffffff81111561354857613547612d2c565b5b61355487828801612dd4565b9450945050602085013567ffffffffffffffff81111561357757613576612d2c565b5b61358387828801612dd4565b925092505092959194509250565b61359a81612d87565b82525050565b60006020820190506135b56000830184613591565b92915050565b6000806000606084860312156135d4576135d3612d27565b5b60006135e286828701612db0565b93505060206135f386828701612ebf565b925050604061360486828701612d52565b9150509250925092565b60008060006060848603121561362757613626612d27565b5b600061363586828701612d52565b935050602061364686828701612db0565b925050604061365786828701612ebf565b9150509250925092565b600081519050919050565b600082825260208201905092915050565b60005b8381101561369b578082015181840152602081019050613680565b838111156136aa576000848401525b50505050565b60006136bb82613661565b6136c5818561366c565b93506136d581856020860161367d565b6136de81612ed4565b840191505092915050565b600060c082019050818103600083015261370381896136b0565b905061371260208301886133b0565b61371f60408301876133b0565b61372c60608301866133b0565b61373960808301856133b0565b81810360a083015261374b81846136b0565b9050979650505050505050565b6000806000806080858703121561377257613771612d27565b5b600061378087828801612d52565b945050602061379187828801612db0565b93505060406137a287828801612db0565b92505060606137b387828801612db0565b91505092959194509250565b600080604083850312156137d6576137d5612d27565b5b60006137e485828601612db0565b92505060206137f585828601612d52565b9150509250929050565b60006020828403121561381557613814612d27565b5b600061382384828501612db0565b91505092915050565b6000806040838503121561384357613842612d27565b5b600061385185828601612db0565b925050602061386285828601612ebf565b9150509250929050565b7f43616d706169676e496e666f3a2043616d706169676e20656e64656400000000600082015250565b60006138a2601c8361366c565b91506138ad8261386c565b602082019050919050565b600060208201905081810360008301526138d181613895565b9050919050565b600081905092915050565b60006138ef83856138d8565b93506138fc838584612fc2565b82840190509392505050565b60006139158284866138e3565b91508190509392505050565b7f4e487b7100000000000000000000000000000000000000000000000000000000600052601160045260246000fd5b600061395b82612e9e565b915061396683612e9e565b92508282101561397957613978613921565b5b828203905092915050565b60006060820190506139996000830186613591565b6139a66020830185613591565b6139b360408301846133b0565b949350505050565b6000815190506139ca8161347d565b92915050565b6000602082840312156139e6576139e5612d27565b5b60006139f4848285016139bb565b91505092915050565b600081519050613a0c81612d99565b92915050565b600060208284031215613a2857613a27612d27565b5b6000613a36848285016139fd565b91505092915050565b6000613a4a82612e9e565b9150613a5583612e9e565b9250827fffffffffffffffffffffffffffffffffffffffffffffffffffffffffffffffff03821115613a8a57613a89613921565b5b828201905092915050565b6000613aa1838561366c565b9350613aae838584612fc2565b613ab783612ed4565b840190509392505050565b600060a082019050613ad76000830189613591565b613ae46020830188613591565b613af160408301876133b0565b613afe6060830186613279565b8181036080830152613b11818486613a95565b9050979650505050505050565b7f4e487b7100000000000000000000000000000000000000000000000000000000600052603260045260246000fd5b6000613b5882613661565b613b6281856138d8565b9350613b7281856020860161367d565b80840191505092915050565b6000613b8a8284613b4d565b915081905092915050565b6000613ba082612e9e565b91507fffffffffffffffffffffffffffffffffffffffffffffffffffffffffffffffff821415613bd357613bd2613921565b5b600182019050919050565b7f43616d706169676e496e666f3a2054726561737572792061646472657373206660008201527f6f7220706c6174666f726d206973206e6f742073657400000000000000000000602082015250565b6000613c3a60368361366c565b9150613c4582613bde565b604082019050919050565b60006020820190508181036000830152613c6981613c2d565b9050919050565b600081519050613c7f81612ea8565b92915050565b600060208284031215613c9b57613c9a612d27565b5b6000613ca984828501613c70565b91505092915050565b6000608082019050613cc76000830187613591565b613cd46020830186613591565b613ce160408301856133b0565b613cee6060830184613279565b95945050505050565b600081519050919050565b600082825260208201905092915050565b6000819050602082019050919050565b613d2c81612e9e565b82525050565b6000613d3e8383613d23565b60208301905092915050565b6000602082019050919050565b6000613d6282613cf7565b613d6c8185613d02565b9350613d7783613d13565b8060005b83811015613da8578151613d8f8882613d32565b9750613d9a83613d4a565b925050600181019050613d7b565b5085935050505092915050565b6000606082019050613dca60008301866133b0565b613dd760208301856133b0565b8181036040830152613de98184613d57565b9050949350505050565b6000613e06613e01846130f6565b612f45565b90508083825260208201905060208402830185811115613e2957613e28612dcf565b5b835b81811015613e525780613e3e8882613c70565b845260208401935050602081019050613e2b565b5050509392505050565b600082601f830112613e7157613e70612dc5565b5b8151613e81848260208601613df3565b91505092915050565b600060208284031215613ea057613e9f612d27565b5b600082015167ffffffffffffffff811115613ebe57613ebd612d2c565b5b613eca84828501613e5c565b91505092915050565b7f43616d706169676e496e666f3a20496e76616c696420416d6f756e7400000000600082015250565b6000613f09601c8361366c565b9150613f1482613ed3565b602082019050919050565b60006020820190508181036000830152613f3881613efc565b9050919050565b7f4e487b7100000000000000000000000000000000000000000000000000000000600052602260045260246000fd5b60006002820490506001821680613f8657607f821691505b60208210811415613f9a57613f99613f3f565b5b50919050565b7f4f776e61626c653a206e6577206f776e657220697320746865207a65726f206160008201527f6464726573730000000000000000000000000000000000000000000000000000602082015250565b6000613ffc60268361366c565b915061400782613fa0565b604082019050919050565b6000602082019050818103600083015261402b81613fef565b9050919050565b60008151905061404181612d3b565b92915050565b600061405a61405584612f91565b612f45565b90508281526020810184848401111561407657614075612f8c565b5b61408184828561367d565b509392505050565b600082601f83011261409e5761409d612dc5565b5b81516140ae848260208601614047565b91505092915050565b600080600080600080600060e0888a0312156140d6576140d5612d27565b5b60006140e48a828b016139fd565b97505060206140f58a828b016139fd565b96505060406141068a828b016139fd565b95505060606141178a828b01613c70565b94505060806141288a828b01613c70565b93505060a06141398a828b01614032565b92505060c088015167ffffffffffffffff81111561415a57614159612d2c565b5b6141668a828b01614089565b91505092959891949750929550565b7f43616d706169676e496e666f3a204f726967696e20706c6174666f726d20747260008201527f656173757279206e6f7420736574207965740000000000000000000000000000602082015250565b60006141d160328361366c565b91506141dc82614175565b604082019050919050565b60006020820190508181036000830152614200816141c4565b9050919050565b7f5061757361626c653a2070617573656400000000000000000000000000000000600082015250565b600061423d60108361366c565b915061424882614207565b602082019050919050565b6000602082019050818103600083015261426c81614230565b9050919050565b7f4f776e61626c653a2063616c6c6572206973206e6f7420746865206f776e6572600082015250565b60006142a960208361366c565b91506142b482614273565b602082019050919050565b600060208201905081810360008301526142d88161429c565b9050919050565b7f5061757361626c653a206e6f7420706175736564000000000000000000000000600082015250565b600061431560148361366c565b9150614320826142df565b602082019050919050565b6000602082019050818103600083015261434481614308565b905091905056fea2646970667358221220bfe976c2147dfe5af95035c27987e028fa9c95cb8d45e6a19a4d83488ef2f82264736f6c63430008090033",
  "linkReferences": {},
  "deployedLinkReferences": {}
}