{
  "_format": "hh-sol-artifact-1",
  "contractName": "CampaignInfo",
  "sourceName": "contracts/CampaignInfo.sol",
  "abi": [
    {
      "inputs": [
        {
          "internalType": "string",
          "name": "_identifier",
          "type": "string"
        },
        {
          "internalType": "bytes32",
          "name": "_originPlatform",
          "type": "bytes32"
        },
        {
          "internalType": "string",
          "name": "_creatorUrl",
          "type": "string"
        },
        {
          "internalType": "bytes32[]",
          "name": "_reachPlatform",
          "type": "bytes32[]"
        },
        {
          "internalType": "address",
          "name": "_registryAddress",
          "type": "address"
        },
        {
          "internalType": "address",
          "name": "_creator",
          "type": "address"
        },
        {
          "internalType": "uint256",
          "name": "_earlyPledgeAmount",
          "type": "uint256"
        }
      ],
      "stateMutability": "nonpayable",
      "type": "constructor"
    },
    {
      "anonymous": false,
      "inputs": [
        {
          "indexed": true,
          "internalType": "address",
          "name": "previousOwner",
          "type": "address"
        },
        {
          "indexed": true,
          "internalType": "address",
          "name": "newOwner",
          "type": "address"
        }
      ],
      "name": "OwnershipTransferred",
      "type": "event"
    },
    {
      "anonymous": false,
      "inputs": [
        {
          "indexed": false,
          "internalType": "address",
          "name": "account",
          "type": "address"
        }
      ],
      "name": "Paused",
      "type": "event"
    },
    {
      "anonymous": false,
      "inputs": [
        {
          "indexed": false,
          "internalType": "address",
          "name": "account",
          "type": "address"
        }
      ],
      "name": "Unpaused",
      "type": "event"
    },
    {
      "inputs": [
        {
          "internalType": "string",
          "name": "name",
          "type": "string"
        },
        {
          "internalType": "string",
          "name": "description",
          "type": "string"
        }
      ],
      "name": "addItem",
      "outputs": [],
      "stateMutability": "nonpayable",
      "type": "function"
    },
    {
      "inputs": [
        {
          "internalType": "bytes32",
          "name": "_platformId",
          "type": "bytes32"
        }
      ],
      "name": "addReachPlatform",
      "outputs": [],
      "stateMutability": "nonpayable",
      "type": "function"
    },
    {
      "inputs": [
        {
          "internalType": "bool",
          "name": "isAddOn",
          "type": "bool"
        },
        {
          "internalType": "uint256",
          "name": "rewardValue",
          "type": "uint256"
        },
        {
          "internalType": "string",
          "name": "name",
          "type": "string"
        },
        {
          "internalType": "string[]",
          "name": "itemName",
          "type": "string[]"
        },
        {
          "internalType": "uint256[]",
          "name": "itemQuantity",
          "type": "uint256[]"
        }
      ],
      "name": "addReward",
      "outputs": [],
      "stateMutability": "nonpayable",
      "type": "function"
    },
    {
      "inputs": [
        {
          "internalType": "bytes32",
          "name": "platformId",
          "type": "bytes32"
        },
        {
          "internalType": "address",
          "name": "backer",
          "type": "address"
        },
        {
          "internalType": "bool",
          "name": "isFiat",
          "type": "bool"
        }
      ],
      "name": "becomeAnEarlyBacker",
      "outputs": [
        {
          "internalType": "uint256",
          "name": "tokenId",
          "type": "uint256"
        }
      ],
      "stateMutability": "nonpayable",
      "type": "function"
    },
    {
      "inputs": [
        {
          "internalType": "address",
          "name": "backer",
          "type": "address"
        },
        {
          "internalType": "uint256",
          "name": "tokenId",
          "type": "uint256"
        }
      ],
      "name": "claimRefundForAReward",
      "outputs": [],
      "stateMutability": "nonpayable",
      "type": "function"
    },
    {
      "inputs": [
        {
          "internalType": "address",
          "name": "backer",
          "type": "address"
        },
        {
          "internalType": "uint256",
          "name": "amount",
          "type": "uint256"
        },
        {
          "internalType": "bytes32",
          "name": "platformId",
          "type": "bytes32"
        }
      ],
      "name": "claimRefundWithoutAReward",
      "outputs": [],
      "stateMutability": "nonpayable",
      "type": "function"
    },
    {
      "inputs": [],
      "name": "end",
      "outputs": [],
      "stateMutability": "nonpayable",
      "type": "function"
    },
    {
      "inputs": [
        {
          "internalType": "address",
          "name": "backer",
          "type": "address"
        },
        {
          "internalType": "bytes32",
          "name": "platformId",
          "type": "bytes32"
        }
      ],
      "name": "getBackerPledgeInfoForAPlatform",
      "outputs": [
        {
          "internalType": "uint256",
          "name": "",
          "type": "uint256"
        }
      ],
      "stateMutability": "view",
      "type": "function"
    },
    {
      "inputs": [],
      "name": "getCampaignData",
      "outputs": [
        {
          "internalType": "string",
          "name": "",
          "type": "string"
        },
        {
          "internalType": "uint256",
          "name": "",
          "type": "uint256"
        },
        {
          "internalType": "uint256",
          "name": "",
          "type": "uint256"
        },
        {
          "internalType": "uint256",
          "name": "",
          "type": "uint256"
        },
        {
          "internalType": "uint256",
          "name": "",
          "type": "uint256"
        },
        {
          "internalType": "string",
          "name": "",
          "type": "string"
        }
      ],
      "stateMutability": "view",
      "type": "function"
    },
    {
      "inputs": [],
      "name": "getCampaignOriginPlatform",
      "outputs": [
        {
          "internalType": "bytes32",
          "name": "",
          "type": "bytes32"
        }
      ],
      "stateMutability": "view",
      "type": "function"
    },
    {
      "inputs": [],
      "name": "getCampaignReachPlatforms",
      "outputs": [
        {
          "internalType": "bytes32[]",
          "name": "",
          "type": "bytes32[]"
        }
      ],
      "stateMutability": "view",
      "type": "function"
    },
    {
      "inputs": [
        {
          "internalType": "bytes32",
          "name": "platformId",
          "type": "bytes32"
        }
      ],
      "name": "getPledgedAmountForAPlatformCrypto",
      "outputs": [
        {
          "internalType": "uint256",
          "name": "",
          "type": "uint256"
        }
      ],
      "stateMutability": "view",
      "type": "function"
    },
    {
      "inputs": [
        {
          "internalType": "bytes32",
          "name": "platformId",
          "type": "bytes32"
        }
      ],
      "name": "getPledgedAmountForPlatformCrypto",
      "outputs": [
        {
          "internalType": "uint256",
          "name": "",
          "type": "uint256"
        }
      ],
      "stateMutability": "view",
      "type": "function"
    },
    {
      "inputs": [],
      "name": "getTotalPledgedAmountCrypto",
      "outputs": [
        {
          "internalType": "uint256",
          "name": "",
          "type": "uint256"
        }
      ],
      "stateMutability": "view",
      "type": "function"
    },
    {
      "inputs": [
        {
          "internalType": "bytes32",
          "name": "platformId",
          "type": "bytes32"
        }
      ],
      "name": "getTreasuryAddress",
      "outputs": [
        {
          "internalType": "address",
          "name": "",
          "type": "address"
        }
      ],
      "stateMutability": "view",
      "type": "function"
    },
    {
      "inputs": [],
      "name": "owner",
      "outputs": [
        {
          "internalType": "address",
          "name": "",
          "type": "address"
        }
      ],
      "stateMutability": "view",
      "type": "function"
    },
    {
      "inputs": [],
      "name": "pause",
      "outputs": [],
      "stateMutability": "nonpayable",
      "type": "function"
    },
    {
      "inputs": [],
      "name": "paused",
      "outputs": [
        {
          "internalType": "bool",
          "name": "",
          "type": "bool"
        }
      ],
      "stateMutability": "view",
      "type": "function"
    },
    {
      "inputs": [
        {
          "internalType": "bytes32",
          "name": "platformId",
          "type": "bytes32"
        },
        {
          "internalType": "address",
          "name": "backer",
          "type": "address"
        },
        {
          "internalType": "string",
          "name": "rewardName",
          "type": "string"
        },
        {
          "internalType": "string",
          "name": "addOnName",
          "type": "string"
        },
        {
          "internalType": "bool",
          "name": "isFiat",
          "type": "bool"
        }
      ],
      "name": "pledgeForAReward",
      "outputs": [
        {
          "internalType": "uint256",
          "name": "tokenId",
          "type": "uint256"
        }
      ],
      "stateMutability": "nonpayable",
      "type": "function"
    },
    {
      "inputs": [
        {
          "internalType": "bytes32",
          "name": "platformId",
          "type": "bytes32"
        },
        {
          "internalType": "address",
          "name": "backer",
          "type": "address"
        },
        {
          "internalType": "uint256",
          "name": "amount",
          "type": "uint256"
        },
        {
          "internalType": "bool",
          "name": "isFiat",
          "type": "bool"
        }
      ],
      "name": "pledgeWithoutAReward",
      "outputs": [],
      "stateMutability": "nonpayable",
      "type": "function"
    },
    {
      "inputs": [],
      "name": "renounceOwnership",
      "outputs": [],
      "stateMutability": "nonpayable",
      "type": "function"
    },
    {
      "inputs": [],
      "name": "rewardedPlatform",
      "outputs": [
        {
          "internalType": "bytes32",
          "name": "",
          "type": "bytes32"
        }
      ],
      "stateMutability": "view",
      "type": "function"
    },
    {
      "inputs": [
        {
          "internalType": "uint256",
          "name": "launchTime",
          "type": "uint256"
        },
        {
          "internalType": "uint256",
          "name": "deadline",
          "type": "uint256"
        },
        {
          "internalType": "uint256",
          "name": "goalAmount",
          "type": "uint256"
        },
        {
          "internalType": "bool",
          "name": "enableLatePledge",
          "type": "bool"
        }
      ],
      "name": "setLaunch",
      "outputs": [],
      "stateMutability": "nonpayable",
      "type": "function"
    },
    {
      "inputs": [
        {
          "internalType": "bytes32",
          "name": "_platformId",
          "type": "bytes32"
        },
        {
          "internalType": "address",
          "name": "_platformWallet",
          "type": "address"
        },
        {
          "internalType": "address",
          "name": "_treasury",
          "type": "address"
        },
        {
          "internalType": "address",
          "name": "_token",
          "type": "address"
        }
      ],
      "name": "setPlatformInfo",
      "outputs": [],
      "stateMutability": "nonpayable",
      "type": "function"
    },
    {
      "inputs": [],
      "name": "specifiedTime",
      "outputs": [
        {
          "internalType": "uint256",
          "name": "",
          "type": "uint256"
        }
      ],
      "stateMutability": "view",
      "type": "function"
    },
    {
      "inputs": [],
      "name": "splitFeesProportionately",
      "outputs": [],
      "stateMutability": "nonpayable",
      "type": "function"
    },
    {
      "inputs": [
        {
          "internalType": "address",
          "name": "newOwner",
          "type": "address"
        }
      ],
      "name": "transferOwnership",
      "outputs": [],
      "stateMutability": "nonpayable",
      "type": "function"
    },
    {
      "inputs": [],
      "name": "unpause",
      "outputs": [],
      "stateMutability": "nonpayable",
      "type": "function"
    },
    {
      "inputs": [
        {
          "internalType": "uint256",
          "name": "_deadline",
          "type": "uint256"
        }
      ],
      "name": "updateDeadline",
      "outputs": [],
      "stateMutability": "nonpayable",
      "type": "function"
    },
    {
      "inputs": [
        {
          "internalType": "uint256",
          "name": "_goalAmount",
          "type": "uint256"
        }
      ],
      "name": "updateGoal",
      "outputs": [],
      "stateMutability": "nonpayable",
      "type": "function"
    },
    {
      "inputs": [
        {
          "internalType": "uint256",
          "name": "_launchTime",
          "type": "uint256"
        }
      ],
      "name": "updateLaunchTime",
      "outputs": [],
      "stateMutability": "nonpayable",
      "type": "function"
    }
  ],
  "bytecode": "0x60806040523480156200001157600080fd5b5060405162005069380380620050698339818101604052810190620000379190620007d6565b620000576200004b6200014560201b60201c565b6200014d60201b60201c565b60008060146101000a81548160ff02191690831515021790555086600460000190805190602001906200008c92919062000362565b50856004600101819055504260048001819055508460046006019080519060200190620000bb92919062000362565b508360046007019080519060200190620000d7929190620003f3565b5082600c60006101000a81548173ffffffffffffffffffffffffffffffffffffffff021916908373ffffffffffffffffffffffffffffffffffffffff1602179055504260118190555062000131826200021160201b60201c565b80600e819055505050505050505062000a66565b600033905090565b60008060009054906101000a900473ffffffffffffffffffffffffffffffffffffffff169050816000806101000a81548173ffffffffffffffffffffffffffffffffffffffff021916908373ffffffffffffffffffffffffffffffffffffffff1602179055508173ffffffffffffffffffffffffffffffffffffffff168173ffffffffffffffffffffffffffffffffffffffff167f8be0079c531659141344cd1fd0a4f28419497f9722a3daafe3b4186f6b6457e060405160405180910390a35050565b62000221620002a860201b60201c565b600073ffffffffffffffffffffffffffffffffffffffff168173ffffffffffffffffffffffffffffffffffffffff16141562000294576040517f08c379a00000000000000000000000000000000000000000000000000000000081526004016200028b906200096d565b60405180910390fd5b620002a5816200014d60201b60201c565b50565b620002b86200014560201b60201c565b73ffffffffffffffffffffffffffffffffffffffff16620002de6200033960201b60201c565b73ffffffffffffffffffffffffffffffffffffffff161462000337576040517f08c379a00000000000000000000000000000000000000000000000000000000081526004016200032e90620009df565b60405180910390fd5b565b60008060009054906101000a900473ffffffffffffffffffffffffffffffffffffffff16905090565b828054620003709062000a30565b90600052602060002090601f016020900481019282620003945760008555620003e0565b82601f10620003af57805160ff1916838001178555620003e0565b82800160010185558215620003e0579182015b82811115620003df578251825591602001919060010190620003c2565b5b509050620003ef919062000445565b5090565b82805482825590600052602060002090810192821562000432579160200282015b828111156200043157825182559160200191906001019062000414565b5b50905062000441919062000464565b5090565b5b808211156200046057600081600090555060010162000446565b5090565b5b808211156200047f57600081600090555060010162000465565b5090565b6000604051905090565b600080fd5b600080fd5b600080fd5b600080fd5b6000601f19601f8301169050919050565b7f4e487b7100000000000000000000000000000000000000000000000000000000600052604160045260246000fd5b620004ec82620004a1565b810181811067ffffffffffffffff821117156200050e576200050d620004b2565b5b80604052505050565b60006200052362000483565b9050620005318282620004e1565b919050565b600067ffffffffffffffff821115620005545762000553620004b2565b5b6200055f82620004a1565b9050602081019050919050565b60005b838110156200058c5780820151818401526020810190506200056f565b838111156200059c576000848401525b50505050565b6000620005b9620005b38462000536565b62000517565b905082815260208101848484011115620005d857620005d76200049c565b5b620005e58482856200056c565b509392505050565b600082601f83011262000605576200060462000497565b5b815162000617848260208601620005a2565b91505092915050565b6000819050919050565b620006358162000620565b81146200064157600080fd5b50565b60008151905062000655816200062a565b92915050565b600067ffffffffffffffff821115620006795762000678620004b2565b5b602082029050602081019050919050565b600080fd5b6000620006a6620006a0846200065b565b62000517565b90508083825260208201905060208402830185811115620006cc57620006cb6200068a565b5b835b81811015620006f95780620006e4888262000644565b845260208401935050602081019050620006ce565b5050509392505050565b600082601f8301126200071b576200071a62000497565b5b81516200072d8482602086016200068f565b91505092915050565b600073ffffffffffffffffffffffffffffffffffffffff82169050919050565b6000620007638262000736565b9050919050565b620007758162000756565b81146200078157600080fd5b50565b60008151905062000795816200076a565b92915050565b6000819050919050565b620007b0816200079b565b8114620007bc57600080fd5b50565b600081519050620007d081620007a5565b92915050565b600080600080600080600060e0888a031215620007f857620007f76200048d565b5b600088015167ffffffffffffffff81111562000819576200081862000492565b5b620008278a828b01620005ed565b97505060206200083a8a828b0162000644565b965050604088015167ffffffffffffffff8111156200085e576200085d62000492565b5b6200086c8a828b01620005ed565b955050606088015167ffffffffffffffff81111562000890576200088f62000492565b5b6200089e8a828b0162000703565b9450506080620008b18a828b0162000784565b93505060a0620008c48a828b0162000784565b92505060c0620008d78a828b01620007bf565b91505092959891949750929550565b600082825260208201905092915050565b7f4f776e61626c653a206e6577206f776e657220697320746865207a65726f206160008201527f6464726573730000000000000000000000000000000000000000000000000000602082015250565b600062000955602683620008e6565b91506200096282620008f7565b604082019050919050565b60006020820190508181036000830152620009888162000946565b9050919050565b7f4f776e61626c653a2063616c6c6572206973206e6f7420746865206f776e6572600082015250565b6000620009c7602083620008e6565b9150620009d4826200098f565b602082019050919050565b60006020820190508181036000830152620009fa81620009b8565b9050919050565b7f4e487b7100000000000000000000000000000000000000000000000000000000600052602260045260246000fd5b6000600282049050600182168062000a4957607f821691505b6020821081141562000a605762000a5f62000a01565b5b50919050565b6145f38062000a766000396000f3fe608060405234801561001057600080fd5b50600436106101e55760003560e01c80637ed8a7191161010f578063c4176338116100a2578063efbe1c1c11610071578063efbe1c1c1461050d578063f2fde38b14610517578063f840367614610533578063fb7846df14610551576101e5565b8063c417633814610482578063c512ad4c146104a5578063deaaf241146104c1578063e12900f2146104dd576101e5565b80638bb30613116100de5780638bb30613146103fa5780638da5cb5b14610416578063a0797f7514610434578063a70ee00a14610452576101e5565b80637ed8a7191461038857806383d23ab3146103a45780638456cb59146103c057806384ea5c74146103ca576101e5565b806342af188411610187578063695c27c211610156578063695c27c21461033a578063715018a6146103565780637568173b146103605780637712b1721461036a576101e5565b806342af1884146102b45780634b22cd06146102d05780635c975abb1461030057806368027e431461031e576101e5565b80632e162db6116101c35780632e162db61461024057806330c00b001461025e578063316fb7c41461028e5780633f4ba83a146102aa576101e5565b806311d6081c146101ea57806318b90a94146102065780631957612414610222575b600080fd5b61020460048036038101906101ff9190612f14565b610581565b005b610220600480360381019061021b91906132e9565b610754565b005b61022a61084f565b60405161023791906133ca565b60405180910390f35b610248610855565b60405161025591906134a3565b60405180910390f35b610278600480360381019061027391906134c5565b6108b0565b6040516102859190613501565b60405180910390f35b6102a860048036038101906102a3919061351c565b610a4d565b005b6102b2610ab2565b005b6102ce60048036038101906102c9919061351c565b610b14565b005b6102ea60048036038101906102e59190613549565b610b97565b6040516102f79190613501565b60405180910390f35b610308610f29565b6040516103159190613614565b60405180910390f35b6103386004803603810190610333919061351c565b610f3f565b005b610354600480360381019061034f919061362f565b610fc2565b005b61035e61101b565b005b61036861102f565b005b61037261150f565b60405161037f9190613501565b60405180910390f35b6103a2600480360381019061039d9190613696565b611515565b005b6103be60048036038101906103b991906134c5565b61154e565b005b6103c86115d5565b005b6103e460048036038101906103df91906134c5565b611637565b6040516103f19190613726565b60405180910390f35b610414600480360381019061040f9190613741565b611719565b005b61041e6118dd565b60405161042b9190613726565b60405180910390f35b61043c611906565b60405161044991906133ca565b60405180910390f35b61046c600480360381019061046791906137a8565b611913565b6040516104799190613501565b60405180910390f35b61048a611b88565b60405161049c96959493929190613883565b60405180910390f35b6104bf60048036038101906104ba91906138f2565b611cdf565b005b6104db60048036038101906104d69190613932565b611fa4565b005b6104f760048036038101906104f29190613999565b6120f8565b6040516105049190613501565b60405180910390f35b610515612153565b005b610531600480360381019061052c91906139d9565b6121c8565b005b61053b61224c565b6040516105489190613501565b60405180910390f35b61056b600480360381019061056691906134c5565b6125b7565b6040516105789190613501565b60405180910390f35b6000601560008573ffffffffffffffffffffffffffffffffffffffff1673ffffffffffffffffffffffffffffffffffffffff168152602001908152602001600020600083815260200190815260200160002054905080831115610619576040517f08c379a000000000000000000000000000000000000000000000000000000000815260040161061090613a52565b60405180910390fd5b82816106259190613aa1565b601560008673ffffffffffffffffffffffffffffffffffffffff1673ffffffffffffffffffffffffffffffffffffffff1681526020019081526020016000206000848152602001908152602001600020819055506012600083815260200190815260200160002060009054906101000a900473ffffffffffffffffffffffffffffffffffffffff1673ffffffffffffffffffffffffffffffffffffffff166360a56b3a856013600086815260200190815260200160002060009054906101000a900473ffffffffffffffffffffffffffffffffffffffff16866040518463ffffffff1660e01b815260040161071c93929190613ad5565b600060405180830381600087803b15801561073657600080fd5b505af115801561074a573d6000803e3d6000fd5b5050505050505050565b600086610782576001858560405161076d929190613b3c565b908152602001604051809103902090506107a5565b60028585604051610794929190613b3c565b908152602001604051809103902090505b858160000181905550828160020190805190602001906107c6929190612c49565b5060008251905060005b81811015610844578381815181106107eb576107ea613b55565b5b60200260200101518360030186838151811061080a57610809613b55565b5b602002602001015160405161081f9190613bb5565b908152602001604051809103902081905550808061083c90613bcc565b9150506107d0565b505050505050505050565b60105481565b606060046007018054806020026020016040519081016040528092919081815260200182805480156108a657602002820191906000526020600020905b815481526020019060010190808311610892575b5050505050905090565b600081600073ffffffffffffffffffffffffffffffffffffffff166012600083815260200190815260200160002060009054906101000a900473ffffffffffffffffffffffffffffffffffffffff1673ffffffffffffffffffffffffffffffffffffffff161415610956576040517f08c379a000000000000000000000000000000000000000000000000000000000815260040161094d90613c87565b60405180910390fd5b6013600084815260200190815260200160002060009054906101000a900473ffffffffffffffffffffffffffffffffffffffff1673ffffffffffffffffffffffffffffffffffffffff166370a082316012600086815260200190815260200160002060009054906101000a900473ffffffffffffffffffffffffffffffffffffffff166040518263ffffffff1660e01b81526004016109f59190613726565b60206040518083038186803b158015610a0d57600080fd5b505afa158015610a21573d6000803e3d6000fd5b505050506040513d601f19601f82011682018060405250810190610a459190613cbc565b915050919050565b600c60149054906101000a900460ff1615610a9d576040517f08c379a0000000000000000000000000000000000000000000000000000000008152600401610a9490613d35565b60405180910390fd5b610aa56126af565b8060046002018190555050565b600c60149054906101000a900460ff1615610b02576040517f08c379a0000000000000000000000000000000000000000000000000000000008152600401610af990613d35565b60405180910390fd5b610b0a6126af565b610b1261272d565b565b600c60149054906101000a900460ff1615610b64576040517f08c379a0000000000000000000000000000000000000000000000000000000008152600401610b5b90613d35565b60405180910390fd5b610b6c6126af565b80600d54600460030154610b809190613d55565b10610b8a57600080fd5b8060046005018190555050565b6000600c60149054906101000a900460ff1615610be9576040517f08c379a0000000000000000000000000000000000000000000000000000000008152600401610be090613d35565b60405180910390fd5b610bf161278f565b600f60009054906101000a900460ff168015610c11575042600460030154105b610c50576040517f08c379a0000000000000000000000000000000000000000000000000000000008152600401610c4790613df7565b60405180910390fd5b6000601360008a815260200190815260200160002060009054906101000a900473ffffffffffffffffffffffffffffffffffffffff169050600060028686604051610c9c929190613b3c565b90815260200160405180910390206000015460018989604051610cc0929190613b3c565b908152602001604051809103902060000154610cdc9190613d55565b9050601660008a73ffffffffffffffffffffffffffffffffffffffff1673ffffffffffffffffffffffffffffffffffffffff16815260200190815260200160002060009054906101000a900460ff1615610d9957600e5481610d3e9190613aa1565b90506000601660008b73ffffffffffffffffffffffffffffffffffffffff1673ffffffffffffffffffffffffffffffffffffffff16815260200190815260200160002060006101000a81548160ff0219169083151502179055505b610dd982601260008d815260200190815260200160002060009054906101000a900473ffffffffffffffffffffffffffffffffffffffff168b84886127d9565b600c60009054906101000a900473ffffffffffffffffffffffffffffffffffffffff1673ffffffffffffffffffffffffffffffffffffffff166330525f666040518163ffffffff1660e01b815260040160206040518083038186803b158015610e4157600080fd5b505afa158015610e55573d6000803e3d6000fd5b505050506040513d601f19601f82011682018060405250810190610e799190613e2c565b73ffffffffffffffffffffffffffffffffffffffff16634ebc0c198a84600e5485610ea49190613d55565b8e8d8d6040518763ffffffff1660e01b8152600401610ec896959493929190613e86565b602060405180830381600087803b158015610ee257600080fd5b505af1158015610ef6573d6000803e3d6000fd5b505050506040513d601f19601f82011682018060405250810190610f1a9190613cbc565b92505050979650505050505050565b60008060149054906101000a900460ff16905090565b600c60149054906101000a900460ff1615610f8f576040517f08c379a0000000000000000000000000000000000000000000000000000000008152600401610f8690613d35565b60405180910390fd5b610f976126af565b600460050154600d5482610fab9190613d55565b10610fb557600080fd5b8060046003018190555050565b83600460030181905550826004600501819055508160046002018190555080600f60016101000a81548160ff0219169083151502179055506001600f60006101000a81548160ff02191690831515021790555050505050565b6110236126af565b61102d60006128e7565b565b6000600c60009054906101000a900473ffffffffffffffffffffffffffffffffffffffff1673ffffffffffffffffffffffffffffffffffffffff16635bad43996040518163ffffffff1660e01b815260040160206040518083038186803b15801561109957600080fd5b505afa1580156110ad573d6000803e3d6000fd5b505050506040513d601f19601f820116820180604052508101906110d19190613e2c565b90506000600460070180548060200260200160405190810160405280929190818152602001828054801561112457602002820191906000526020600020905b815481526020019060010190808311611110575b5050505050905060006001825161113b9190613d55565b67ffffffffffffffff81111561115457611153613015565b5b6040519080825280602002602001820160405280156111825781602001602082028036833780820191505090505b5090506000600183516111959190613d55565b67ffffffffffffffff8111156111ae576111ad613015565b5b6040519080825280602002602001820160405280156111dc5781602001602082028036833780820191505090505b50905060005b835181101561127a578381815181106111fe576111fd613b55565b5b602002602001015183828151811061121957611218613b55565b5b60200260200101818152505061124884828151811061123b5761123a613b55565b5b60200260200101516108b0565b82828151811061125b5761125a613b55565b5b602002602001018181525050808061127290613bcc565b9150506111e2565b506004600101548284518151811061129557611294613b55565b5b6020026020010181815250506112af6004600101546108b0565b818451815181106112c3576112c2613b55565b5b6020026020010181815250506000600c60009054906101000a900473ffffffffffffffffffffffffffffffffffffffff1673ffffffffffffffffffffffffffffffffffffffff16630eeaef466040518163ffffffff1660e01b815260040160206040518083038186803b15801561133957600080fd5b505afa15801561134d573d6000803e3d6000fd5b505050506040513d601f19601f820116820180604052508101906113719190613e2c565b73ffffffffffffffffffffffffffffffffffffffff1663bdec30ba8673ffffffffffffffffffffffffffffffffffffffff16638274f2d66040518163ffffffff1660e01b815260040160206040518083038186803b1580156113d257600080fd5b505afa1580156113e6573d6000803e3d6000fd5b505050506040513d601f19601f8201168201806040525081019061140a9190613cbc565b8773ffffffffffffffffffffffffffffffffffffffff1663fe6f1b056040518163ffffffff1660e01b815260040160206040518083038186803b15801561145057600080fd5b505afa158015611464573d6000803e3d6000fd5b505050506040513d601f19601f820116820180604052508101906114889190613cbc565b856040518463ffffffff1660e01b81526004016114a793929190613fa0565b60006040518083038186803b1580156114bf57600080fd5b505afa1580156114d3573d6000803e3d6000fd5b505050506040513d6000823e3d601f19601f820116820180604052508101906114fc9190614075565b905061150883826129ab565b5050505050565b60115481565b818160038686604051611529929190613b3c565b90815260200160405180910390206000019190611547929190612ca9565b5050505050565b600c60149054906101000a900460ff161561159e576040517f08c379a000000000000000000000000000000000000000000000000000000000815260040161159590613d35565b60405180910390fd5b6115a66126af565b600460070181908060018154018082558091505060019003906000526020600020016000909190919091505550565b600c60149054906101000a900460ff1615611625576040517f08c379a000000000000000000000000000000000000000000000000000000000815260040161161c90613d35565b60405180910390fd5b61162d6126af565b611635612a13565b565b600081600073ffffffffffffffffffffffffffffffffffffffff166012600083815260200190815260200160002060009054906101000a900473ffffffffffffffffffffffffffffffffffffffff1673ffffffffffffffffffffffffffffffffffffffff1614156116dd576040517f08c379a00000000000000000000000000000000000000000000000000000000081526004016116d490613c87565b60405180910390fd5b6012600084815260200190815260200160002060009054906101000a900473ffffffffffffffffffffffffffffffffffffffff16915050919050565b600c60149054906101000a900460ff1615611769576040517f08c379a000000000000000000000000000000000000000000000000000000000815260040161176090613d35565b60405180910390fd5b61177161278f565b4260046005015410156117e65760046002015461178c61224c565b101580156117a65750600f60019054906101000a900460ff165b6117e5576040517f08c379a00000000000000000000000000000000000000000000000000000000081526004016117dc9061410a565b60405180910390fd5b5b42600460030154106117f757600080fd5b60006013600086815260200190815260200160002060009054906101000a900473ffffffffffffffffffffffffffffffffffffffff16905061186f816012600088815260200190815260200160002060009054906101000a900473ffffffffffffffffffffffffffffffffffffffff168686866127d9565b82601560008673ffffffffffffffffffffffffffffffffffffffff1673ffffffffffffffffffffffffffffffffffffffff168152602001908152602001600020600087815260200190815260200160002060008282546118cf9190613d55565b925050819055505050505050565b60008060009054906101000a900473ffffffffffffffffffffffffffffffffffffffff16905090565b6000600460010154905090565b6000600c60149054906101000a900460ff1615611965576040517f08c379a000000000000000000000000000000000000000000000000000000000815260040161195c90613d35565b60405180910390fd5b61196d61278f565b600f60009054906101000a900460ff16158061198d575042600460030154115b6119cc576040517f08c379a00000000000000000000000000000000000000000000000000000000081526004016119c39061410a565b60405180910390fd5b60006012600086815260200190815260200160002060009054906101000a900473ffffffffffffffffffffffffffffffffffffffff16905060006013600087815260200190815260200160002060009054906101000a900473ffffffffffffffffffffffffffffffffffffffff169050611a4b818387600e54886127d9565b600c60009054906101000a900473ffffffffffffffffffffffffffffffffffffffff1673ffffffffffffffffffffffffffffffffffffffff166330525f666040518163ffffffff1660e01b815260040160206040518083038186803b158015611ab357600080fd5b505afa158015611ac7573d6000803e3d6000fd5b505050506040513d601f19601f82011682018060405250810190611aeb9190613e2c565b73ffffffffffffffffffffffffffffffffffffffff16638e48312f8683600e548a6040518563ffffffff1660e01b8152600401611b2b949392919061412a565b602060405180830381600087803b158015611b4557600080fd5b505af1158015611b59573d6000803e3d6000fd5b505050506040513d601f19601f82011682018060405250810190611b7d9190613cbc565b925050509392505050565b60606000806000806060600460000160046002015460046003015460048001546004600501546004600601858054611bbf9061419e565b80601f0160208091040260200160405190810160405280929190818152602001828054611beb9061419e565b8015611c385780601f10611c0d57610100808354040283529160200191611c38565b820191906000526020600020905b815481529060010190602001808311611c1b57829003601f168201915b50505050509550808054611c4b9061419e565b80601f0160208091040260200160405190810160405280929190818152602001828054611c779061419e565b8015611cc45780601f10611c9957610100808354040283529160200191611cc4565b820191906000526020600020905b815481529060010190602001808311611ca757829003601f168201915b50505050509050955095509550955095509550909192939495565b6000600c60009054906101000a900473ffffffffffffffffffffffffffffffffffffffff1673ffffffffffffffffffffffffffffffffffffffff166330525f666040518163ffffffff1660e01b815260040160206040518083038186803b158015611d4957600080fd5b505afa158015611d5d573d6000803e3d6000fd5b505050506040513d601f19601f82011682018060405250810190611d819190613e2c565b9050606060008273ffffffffffffffffffffffffffffffffffffffff1663c20c42f8856040518263ffffffff1660e01b8152600401611dc09190613501565b60006040518083038186803b158015611dd857600080fd5b505afa158015611dec573d6000803e3d6000fd5b505050506040513d6000823e3d601f19601f82011682018060405250810190611e159190614255565b9091929394955090919293945090919293509091925090915080935081925050506000600183604051611e489190613bb5565b90815260200160405180910390206000015490508373ffffffffffffffffffffffffffffffffffffffff166342966c68866040518263ffffffff1660e01b8152600401611e959190613501565b600060405180830381600087803b158015611eaf57600080fd5b505af1158015611ec3573d6000803e3d6000fd5b505050506012600083815260200190815260200160002060009054906101000a900473ffffffffffffffffffffffffffffffffffffffff1673ffffffffffffffffffffffffffffffffffffffff166360a56b3a876013600086815260200190815260200160002060009054906101000a900473ffffffffffffffffffffffffffffffffffffffff16846040518463ffffffff1660e01b8152600401611f6a93929190613ad5565b600060405180830381600087803b158015611f8457600080fd5b505af1158015611f98573d6000803e3d6000fd5b50505050505050505050565b600c60149054906101000a900460ff1615611ff4576040517f08c379a0000000000000000000000000000000000000000000000000000000008152600401611feb90613d35565b60405180910390fd5b611ffc6126af565b826014600086815260200190815260200160002060006101000a81548173ffffffffffffffffffffffffffffffffffffffff021916908373ffffffffffffffffffffffffffffffffffffffff160217905550816012600086815260200190815260200160002060006101000a81548173ffffffffffffffffffffffffffffffffffffffff021916908373ffffffffffffffffffffffffffffffffffffffff160217905550806013600086815260200190815260200160002060006101000a81548173ffffffffffffffffffffffffffffffffffffffff021916908373ffffffffffffffffffffffffffffffffffffffff16021790555050505050565b6000601560008473ffffffffffffffffffffffffffffffffffffffff1673ffffffffffffffffffffffffffffffffffffffff168152602001908152602001600020600083815260200190815260200160002054905092915050565b600c60149054906101000a900460ff16156121a3576040517f08c379a000000000000000000000000000000000000000000000000000000000815260040161219a90613d35565b60405180910390fd5b6121ab6126af565b6001600c60146101000a81548160ff021916908315150217905550565b6121d06126af565b600073ffffffffffffffffffffffffffffffffffffffff168173ffffffffffffffffffffffffffffffffffffffff161415612240576040517f08c379a000000000000000000000000000000000000000000000000000000000815260040161223790614385565b60405180910390fd5b612249816128e7565b50565b60008060126000600460010154815260200190815260200160002060009054906101000a900473ffffffffffffffffffffffffffffffffffffffff169050600073ffffffffffffffffffffffffffffffffffffffff168173ffffffffffffffffffffffffffffffffffffffff1614156122fa576040517f08c379a00000000000000000000000000000000000000000000000000000000081526004016122f190614417565b60405180910390fd5b6000600460070180548060200260200160405190810160405280929190818152602001828054801561234b57602002820191906000526020600020905b815481526020019060010190808311612337575b50505050509050600081519050600060136000600460010154815260200190815260200160002060009054906101000a900473ffffffffffffffffffffffffffffffffffffffff1673ffffffffffffffffffffffffffffffffffffffff166370a08231856040518263ffffffff1660e01b81526004016123cb9190613726565b60206040518083038186803b1580156123e357600080fd5b505afa1580156123f7573d6000803e3d6000fd5b505050506040513d601f19601f8201168201806040525081019061241b9190613cbc565b905060005b828110156125ac5760006012600086848151811061244157612440613b55565b5b6020026020010151815260200190815260200160002060009054906101000a900473ffffffffffffffffffffffffffffffffffffffff16905060006013600087858151811061249357612492613b55565b5b6020026020010151815260200190815260200160002060009054906101000a900473ffffffffffffffffffffffffffffffffffffffff169050600073ffffffffffffffffffffffffffffffffffffffff168273ffffffffffffffffffffffffffffffffffffffff1614612597578073ffffffffffffffffffffffffffffffffffffffff166370a08231836040518263ffffffff1660e01b81526004016125399190613726565b60206040518083038186803b15801561255157600080fd5b505afa158015612565573d6000803e3d6000fd5b505050506040513d601f19601f820116820180604052508101906125899190613cbc565b846125949190613d55565b93505b505080806125a490613bcc565b915050612420565b508094505050505090565b60006013600083815260200190815260200160002060009054906101000a900473ffffffffffffffffffffffffffffffffffffffff1673ffffffffffffffffffffffffffffffffffffffff166370a082316012600085815260200190815260200160002060009054906101000a900473ffffffffffffffffffffffffffffffffffffffff166040518263ffffffff1660e01b81526004016126589190613726565b60206040518083038186803b15801561267057600080fd5b505afa158015612684573d6000803e3d6000fd5b505050506040513d601f19601f820116820180604052508101906126a89190613cbc565b9050919050565b6126b7612a76565b73ffffffffffffffffffffffffffffffffffffffff166126d56118dd565b73ffffffffffffffffffffffffffffffffffffffff161461272b576040517f08c379a000000000000000000000000000000000000000000000000000000000815260040161272290614483565b60405180910390fd5b565b612735612a7e565b60008060146101000a81548160ff0219169083151502179055507f5db9ee0a495bf2e6ff9c91a7834c1ba4fdd244a5e8aa4e537bd38aeae4b073aa612778612a76565b6040516127859190613726565b60405180910390a1565b612797610f29565b156127d7576040517f08c379a00000000000000000000000000000000000000000000000000000000081526004016127ce906144ef565b60405180910390fd5b565b801561284f578373ffffffffffffffffffffffffffffffffffffffff1663bf85f263836040518263ffffffff1660e01b81526004016128189190613501565b600060405180830381600087803b15801561283257600080fd5b505af1158015612846573d6000803e3d6000fd5b505050506128e0565b8473ffffffffffffffffffffffffffffffffffffffff166323b872dd8486856040518463ffffffff1660e01b815260040161288c93929190613ad5565b602060405180830381600087803b1580156128a657600080fd5b505af11580156128ba573d6000803e3d6000fd5b505050506040513d601f19601f820116820180604052508101906128de9190614524565b505b5050505050565b60008060009054906101000a900473ffffffffffffffffffffffffffffffffffffffff169050816000806101000a81548173ffffffffffffffffffffffffffffffffffffffff021916908373ffffffffffffffffffffffffffffffffffffffff1602179055508173ffffffffffffffffffffffffffffffffffffffff168173ffffffffffffffffffffffffffffffffffffffff167f8be0079c531659141344cd1fd0a4f28419497f9722a3daafe3b4186f6b6457e060405160405180910390a35050565b60008251905060005b81811015612a0d576129fa8482815181106129d2576129d1613b55565b5b60200260200101518483815181106129ed576129ec613b55565b5b6020026020010151612ac7565b8080612a0590613bcc565b9150506129b4565b50505050565b612a1b61278f565b6001600060146101000a81548160ff0219169083151502179055507f62e78cea01bee320cd4e420270b5ea74000d11b0c9f74754ebdbfc544b05a258612a5f612a76565b604051612a6c9190613726565b60405180910390a1565b600033905090565b612a86610f29565b612ac5576040517f08c379a0000000000000000000000000000000000000000000000000000000008152600401612abc9061459d565b60405180910390fd5b565b600081118015612b375750600073ffffffffffffffffffffffffffffffffffffffff166012600084815260200190815260200160002060009054906101000a900473ffffffffffffffffffffffffffffffffffffffff1673ffffffffffffffffffffffffffffffffffffffff1614155b15612c45576012600083815260200190815260200160002060009054906101000a900473ffffffffffffffffffffffffffffffffffffffff1673ffffffffffffffffffffffffffffffffffffffff166360a56b3a6014600085815260200190815260200160002060009054906101000a900473ffffffffffffffffffffffffffffffffffffffff166013600086815260200190815260200160002060009054906101000a900473ffffffffffffffffffffffffffffffffffffffff16846040518463ffffffff1660e01b8152600401612c1293929190613ad5565b600060405180830381600087803b158015612c2c57600080fd5b505af1158015612c40573d6000803e3d6000fd5b505050505b5050565b828054828255906000526020600020908101928215612c98579160200282015b82811115612c97578251829080519060200190612c87929190612d2f565b5091602001919060010190612c69565b5b509050612ca59190612db5565b5090565b828054612cb59061419e565b90600052602060002090601f016020900481019282612cd75760008555612d1e565b82601f10612cf057803560ff1916838001178555612d1e565b82800160010185558215612d1e579182015b82811115612d1d578235825591602001919060010190612d02565b5b509050612d2b9190612dd9565b5090565b828054612d3b9061419e565b90600052602060002090601f016020900481019282612d5d5760008555612da4565b82601f10612d7657805160ff1916838001178555612da4565b82800160010185558215612da4579182015b82811115612da3578251825591602001919060010190612d88565b5b509050612db19190612dd9565b5090565b5b80821115612dd55760008181612dcc9190612df6565b50600101612db6565b5090565b5b80821115612df2576000816000905550600101612dda565b5090565b508054612e029061419e565b6000825580601f10612e145750612e33565b601f016020900490600052602060002090810190612e329190612dd9565b5b50565b6000604051905090565b600080fd5b600080fd5b600073ffffffffffffffffffffffffffffffffffffffff82169050919050565b6000612e7582612e4a565b9050919050565b612e8581612e6a565b8114612e9057600080fd5b50565b600081359050612ea281612e7c565b92915050565b6000819050919050565b612ebb81612ea8565b8114612ec657600080fd5b50565b600081359050612ed881612eb2565b92915050565b6000819050919050565b612ef181612ede565b8114612efc57600080fd5b50565b600081359050612f0e81612ee8565b92915050565b600080600060608486031215612f2d57612f2c612e40565b5b6000612f3b86828701612e93565b9350506020612f4c86828701612ec9565b9250506040612f5d86828701612eff565b9150509250925092565b60008115159050919050565b612f7c81612f67565b8114612f8757600080fd5b50565b600081359050612f9981612f73565b92915050565b600080fd5b600080fd5b600080fd5b60008083601f840112612fc457612fc3612f9f565b5b8235905067ffffffffffffffff811115612fe157612fe0612fa4565b5b602083019150836001820283011115612ffd57612ffc612fa9565b5b9250929050565b6000601f19601f8301169050919050565b7f4e487b7100000000000000000000000000000000000000000000000000000000600052604160045260246000fd5b61304d82613004565b810181811067ffffffffffffffff8211171561306c5761306b613015565b5b80604052505050565b600061307f612e36565b905061308b8282613044565b919050565b600067ffffffffffffffff8211156130ab576130aa613015565b5b602082029050602081019050919050565b600080fd5b600067ffffffffffffffff8211156130dc576130db613015565b5b6130e582613004565b9050602081019050919050565b82818337600083830152505050565b600061311461310f846130c1565b613075565b9050828152602081018484840111156131305761312f6130bc565b5b61313b8482856130f2565b509392505050565b600082601f83011261315857613157612f9f565b5b8135613168848260208601613101565b91505092915050565b600061318461317f84613090565b613075565b905080838252602082019050602084028301858111156131a7576131a6612fa9565b5b835b818110156131ee57803567ffffffffffffffff8111156131cc576131cb612f9f565b5b8086016131d98982613143565b855260208501945050506020810190506131a9565b5050509392505050565b600082601f83011261320d5761320c612f9f565b5b813561321d848260208601613171565b91505092915050565b600067ffffffffffffffff82111561324157613240613015565b5b602082029050602081019050919050565b600061326561326084613226565b613075565b9050808382526020820190506020840283018581111561328857613287612fa9565b5b835b818110156132b1578061329d8882612ec9565b84526020840193505060208101905061328a565b5050509392505050565b600082601f8301126132d0576132cf612f9f565b5b81356132e0848260208601613252565b91505092915050565b60008060008060008060a0878903121561330657613305612e40565b5b600061331489828a01612f8a565b965050602061332589828a01612ec9565b955050604087013567ffffffffffffffff81111561334657613345612e45565b5b61335289828a01612fae565b9450945050606087013567ffffffffffffffff81111561337557613374612e45565b5b61338189828a016131f8565b925050608087013567ffffffffffffffff8111156133a2576133a1612e45565b5b6133ae89828a016132bb565b9150509295509295509295565b6133c481612ede565b82525050565b60006020820190506133df60008301846133bb565b92915050565b600081519050919050565b600082825260208201905092915050565b6000819050602082019050919050565b61341a81612ede565b82525050565b600061342c8383613411565b60208301905092915050565b6000602082019050919050565b6000613450826133e5565b61345a81856133f0565b935061346583613401565b8060005b8381101561349657815161347d8882613420565b975061348883613438565b925050600181019050613469565b5085935050505092915050565b600060208201905081810360008301526134bd8184613445565b905092915050565b6000602082840312156134db576134da612e40565b5b60006134e984828501612eff565b91505092915050565b6134fb81612ea8565b82525050565b600060208201905061351660008301846134f2565b92915050565b60006020828403121561353257613531612e40565b5b600061354084828501612ec9565b91505092915050565b600080600080600080600060a0888a03121561356857613567612e40565b5b60006135768a828b01612eff565b97505060206135878a828b01612e93565b965050604088013567ffffffffffffffff8111156135a8576135a7612e45565b5b6135b48a828b01612fae565b9550955050606088013567ffffffffffffffff8111156135d7576135d6612e45565b5b6135e38a828b01612fae565b935093505060806135f68a828b01612f8a565b91505092959891949750929550565b61360e81612f67565b82525050565b60006020820190506136296000830184613605565b92915050565b6000806000806080858703121561364957613648612e40565b5b600061365787828801612ec9565b945050602061366887828801612ec9565b935050604061367987828801612ec9565b925050606061368a87828801612f8a565b91505092959194509250565b600080600080604085870312156136b0576136af612e40565b5b600085013567ffffffffffffffff8111156136ce576136cd612e45565b5b6136da87828801612fae565b9450945050602085013567ffffffffffffffff8111156136fd576136fc612e45565b5b61370987828801612fae565b925092505092959194509250565b61372081612e6a565b82525050565b600060208201905061373b6000830184613717565b92915050565b6000806000806080858703121561375b5761375a612e40565b5b600061376987828801612eff565b945050602061377a87828801612e93565b935050604061378b87828801612ec9565b925050606061379c87828801612f8a565b91505092959194509250565b6000806000606084860312156137c1576137c0612e40565b5b60006137cf86828701612eff565b93505060206137e086828701612e93565b92505060406137f186828701612f8a565b9150509250925092565b600081519050919050565b600082825260208201905092915050565b60005b8381101561383557808201518184015260208101905061381a565b83811115613844576000848401525b50505050565b6000613855826137fb565b61385f8185613806565b935061386f818560208601613817565b61387881613004565b840191505092915050565b600060c082019050818103600083015261389d818961384a565b90506138ac60208301886134f2565b6138b960408301876134f2565b6138c660608301866134f2565b6138d360808301856134f2565b81810360a08301526138e5818461384a565b9050979650505050505050565b6000806040838503121561390957613908612e40565b5b600061391785828601612e93565b925050602061392885828601612ec9565b9150509250929050565b6000806000806080858703121561394c5761394b612e40565b5b600061395a87828801612eff565b945050602061396b87828801612e93565b935050604061397c87828801612e93565b925050606061398d87828801612e93565b91505092959194509250565b600080604083850312156139b0576139af612e40565b5b60006139be85828601612e93565b92505060206139cf85828601612eff565b9150509250929050565b6000602082840312156139ef576139ee612e40565b5b60006139fd84828501612e93565b91505092915050565b7f43616d706169676e496e666f3a20496e76616c696420416d6f756e7400000000600082015250565b6000613a3c601c83613806565b9150613a4782613a06565b602082019050919050565b60006020820190508181036000830152613a6b81613a2f565b9050919050565b7f4e487b7100000000000000000000000000000000000000000000000000000000600052601160045260246000fd5b6000613aac82612ea8565b9150613ab783612ea8565b925082821015613aca57613ac9613a72565b5b828203905092915050565b6000606082019050613aea6000830186613717565b613af76020830185613717565b613b0460408301846134f2565b949350505050565b600081905092915050565b6000613b238385613b0c565b9350613b308385846130f2565b82840190509392505050565b6000613b49828486613b17565b91508190509392505050565b7f4e487b7100000000000000000000000000000000000000000000000000000000600052603260045260246000fd5b6000613b8f826137fb565b613b998185613b0c565b9350613ba9818560208601613817565b80840191505092915050565b6000613bc18284613b84565b915081905092915050565b6000613bd782612ea8565b91507fffffffffffffffffffffffffffffffffffffffffffffffffffffffffffffffff821415613c0a57613c09613a72565b5b600182019050919050565b7f43616d706169676e496e666f3a2054726561737572792061646472657373206660008201527f6f7220706c6174666f726d206973206e6f742073657400000000000000000000602082015250565b6000613c71603683613806565b9150613c7c82613c15565b604082019050919050565b60006020820190508181036000830152613ca081613c64565b9050919050565b600081519050613cb681612eb2565b92915050565b600060208284031215613cd257613cd1612e40565b5b6000613ce084828501613ca7565b91505092915050565b7f43616d706169676e496e666f3a2043616d706169676e20656e64656400000000600082015250565b6000613d1f601c83613806565b9150613d2a82613ce9565b602082019050919050565b60006020820190508181036000830152613d4e81613d12565b9050919050565b6000613d6082612ea8565b9150613d6b83612ea8565b9250827fffffffffffffffffffffffffffffffffffffffffffffffffffffffffffffffff03821115613da057613d9f613a72565b5b828201905092915050565b7f43616d706169676e496e666f3a204e6f7420416c6c6f77656400000000000000600082015250565b6000613de1601983613806565b9150613dec82613dab565b602082019050919050565b60006020820190508181036000830152613e1081613dd4565b9050919050565b600081519050613e2681612e7c565b92915050565b600060208284031215613e4257613e41612e40565b5b6000613e5084828501613e17565b91505092915050565b6000613e658385613806565b9350613e728385846130f2565b613e7b83613004565b840190509392505050565b600060a082019050613e9b6000830189613717565b613ea86020830188613717565b613eb560408301876134f2565b613ec260608301866133bb565b8181036080830152613ed5818486613e59565b9050979650505050505050565b600081519050919050565b600082825260208201905092915050565b6000819050602082019050919050565b613f1781612ea8565b82525050565b6000613f298383613f0e565b60208301905092915050565b6000602082019050919050565b6000613f4d82613ee2565b613f578185613eed565b9350613f6283613efe565b8060005b83811015613f93578151613f7a8882613f1d565b9750613f8583613f35565b925050600181019050613f66565b5085935050505092915050565b6000606082019050613fb560008301866134f2565b613fc260208301856134f2565b8181036040830152613fd48184613f42565b9050949350505050565b6000613ff1613fec84613226565b613075565b9050808382526020820190506020840283018581111561401457614013612fa9565b5b835b8181101561403d57806140298882613ca7565b845260208401935050602081019050614016565b5050509392505050565b600082601f83011261405c5761405b612f9f565b5b815161406c848260208601613fde565b91505092915050565b60006020828403121561408b5761408a612e40565b5b600082015167ffffffffffffffff8111156140a9576140a8612e45565b5b6140b584828501614047565b91505092915050565b7f43616d706169676e496e666f3a204e6f7420616c6c6f77656400000000000000600082015250565b60006140f4601983613806565b91506140ff826140be565b602082019050919050565b60006020820190508181036000830152614123816140e7565b9050919050565b600060808201905061413f6000830187613717565b61414c6020830186613717565b61415960408301856134f2565b61416660608301846133bb565b95945050505050565b7f4e487b7100000000000000000000000000000000000000000000000000000000600052602260045260246000fd5b600060028204905060018216806141b657607f821691505b602082108114156141ca576141c961416f565b5b50919050565b6000815190506141df81612ee8565b92915050565b60006141f86141f3846130c1565b613075565b905082815260208101848484011115614214576142136130bc565b5b61421f848285613817565b509392505050565b600082601f83011261423c5761423b612f9f565b5b815161424c8482602086016141e5565b91505092915050565b600080600080600080600060e0888a03121561427457614273612e40565b5b60006142828a828b01613e17565b97505060206142938a828b01613e17565b96505060406142a48a828b01613e17565b95505060606142b58a828b01613ca7565b94505060806142c68a828b01613ca7565b93505060a06142d78a828b016141d0565b92505060c088015167ffffffffffffffff8111156142f8576142f7612e45565b5b6143048a828b01614227565b91505092959891949750929550565b7f4f776e61626c653a206e6577206f776e657220697320746865207a65726f206160008201527f6464726573730000000000000000000000000000000000000000000000000000602082015250565b600061436f602683613806565b915061437a82614313565b604082019050919050565b6000602082019050818103600083015261439e81614362565b9050919050565b7f43616d706169676e496e666f3a204f726967696e20706c6174666f726d20747260008201527f656173757279206e6f7420736574207965740000000000000000000000000000602082015250565b6000614401603283613806565b915061440c826143a5565b604082019050919050565b60006020820190508181036000830152614430816143f4565b9050919050565b7f4f776e61626c653a2063616c6c6572206973206e6f7420746865206f776e6572600082015250565b600061446d602083613806565b915061447882614437565b602082019050919050565b6000602082019050818103600083015261449c81614460565b9050919050565b7f5061757361626c653a2070617573656400000000000000000000000000000000600082015250565b60006144d9601083613806565b91506144e4826144a3565b602082019050919050565b60006020820190508181036000830152614508816144cc565b9050919050565b60008151905061451e81612f73565b92915050565b60006020828403121561453a57614539612e40565b5b60006145488482850161450f565b91505092915050565b7f5061757361626c653a206e6f7420706175736564000000000000000000000000600082015250565b6000614587601483613806565b915061459282614551565b602082019050919050565b600060208201905081810360008301526145b68161457a565b905091905056fea2646970667358221220f0769b2ba4cccdfe5a4f719d1144d2bd4592e2300826b1ef74492f11e2ca5b7164736f6c63430008090033",
  "linkReferences": {},
  "deployedLinkReferences": {}
}