{
  "_format": "hh-sol-artifact-1",
  "contractName": "CampaignInfo",
  "sourceName": "contracts/CampaignInfo.sol",
  "abi": [
    {
      "inputs": [
        {
          "internalType": "string",
          "name": "_identifier",
          "type": "string"
        },
        {
          "internalType": "bytes32",
          "name": "_originPlatform",
          "type": "bytes32"
        },
        {
          "internalType": "string",
          "name": "_creatorUrl",
          "type": "string"
        },
        {
          "internalType": "bytes32[]",
          "name": "_reachPlatform",
          "type": "bytes32[]"
        },
        {
          "internalType": "address",
          "name": "_registryAddress",
          "type": "address"
        },
        {
          "internalType": "address",
          "name": "_creator",
          "type": "address"
        },
        {
          "internalType": "uint256",
          "name": "_earlyPledgeAmount",
          "type": "uint256"
        }
      ],
      "stateMutability": "nonpayable",
      "type": "constructor"
    },
    {
      "anonymous": false,
      "inputs": [
        {
          "indexed": true,
          "internalType": "address",
          "name": "previousOwner",
          "type": "address"
        },
        {
          "indexed": true,
          "internalType": "address",
          "name": "newOwner",
          "type": "address"
        }
      ],
      "name": "OwnershipTransferred",
      "type": "event"
    },
    {
      "anonymous": false,
      "inputs": [
        {
          "indexed": false,
          "internalType": "address",
          "name": "account",
          "type": "address"
        }
      ],
      "name": "Paused",
      "type": "event"
    },
    {
      "anonymous": false,
      "inputs": [
        {
          "indexed": false,
          "internalType": "address",
          "name": "account",
          "type": "address"
        }
      ],
      "name": "Unpaused",
      "type": "event"
    },
    {
      "inputs": [
        {
          "internalType": "address",
          "name": "creator",
          "type": "address"
        },
        {
          "internalType": "bytes32",
          "name": "id",
          "type": "bytes32"
        },
        {
          "components": [
            {
              "internalType": "uint256[]",
              "name": "items",
              "type": "uint256[]"
            },
            {
              "internalType": "uint256[]",
              "name": "itemQuantity",
              "type": "uint256[]"
            },
            {
              "internalType": "uint256",
              "name": "value",
              "type": "uint256"
            },
            {
              "internalType": "bool",
              "name": "isRewardTier",
              "type": "bool"
            }
          ],
          "internalType": "struct ICampaignContainers.Container",
          "name": "container",
          "type": "tuple"
        }
      ],
      "name": "addContainer",
      "outputs": [],
      "stateMutability": "nonpayable",
      "type": "function"
    },
    {
      "inputs": [
        {
          "internalType": "bytes32",
          "name": "_platformId",
          "type": "bytes32"
        }
      ],
      "name": "addReachPlatform",
      "outputs": [],
      "stateMutability": "nonpayable",
      "type": "function"
    },
    {
      "inputs": [
        {
          "internalType": "bytes32",
          "name": "platformId",
          "type": "bytes32"
        },
        {
          "internalType": "address",
          "name": "backer",
          "type": "address"
        },
        {
          "internalType": "bool",
          "name": "isFiat",
          "type": "bool"
        }
      ],
      "name": "becomeAnEarlyBacker",
      "outputs": [
        {
          "internalType": "uint256",
          "name": "tokenId",
          "type": "uint256"
        }
      ],
      "stateMutability": "nonpayable",
      "type": "function"
    },
    {
      "inputs": [
        {
          "internalType": "address",
          "name": "backer",
          "type": "address"
        },
        {
          "internalType": "uint256",
          "name": "tokenId",
          "type": "uint256"
        }
      ],
      "name": "claimRefundForAReward",
      "outputs": [],
      "stateMutability": "nonpayable",
      "type": "function"
    },
    {
      "inputs": [
        {
          "internalType": "address",
          "name": "backer",
          "type": "address"
        },
        {
          "internalType": "uint256",
          "name": "amount",
          "type": "uint256"
        },
        {
          "internalType": "bytes32",
          "name": "platformId",
          "type": "bytes32"
        }
      ],
      "name": "claimRefundWithoutAReward",
      "outputs": [],
      "stateMutability": "nonpayable",
      "type": "function"
    },
    {
      "inputs": [],
      "name": "end",
      "outputs": [],
      "stateMutability": "nonpayable",
      "type": "function"
    },
    {
      "inputs": [
        {
          "internalType": "address",
          "name": "backer",
          "type": "address"
        },
        {
          "internalType": "bytes32",
          "name": "platformId",
          "type": "bytes32"
        }
      ],
      "name": "getBackerPledgeInfoForAPlatform",
      "outputs": [
        {
          "internalType": "uint256",
          "name": "",
          "type": "uint256"
        }
      ],
      "stateMutability": "view",
      "type": "function"
    },
    {
      "inputs": [],
      "name": "getCampaignData",
      "outputs": [
        {
          "internalType": "string",
          "name": "",
          "type": "string"
        },
        {
          "internalType": "uint256",
          "name": "",
          "type": "uint256"
        },
        {
          "internalType": "uint256",
          "name": "",
          "type": "uint256"
        },
        {
          "internalType": "uint256",
          "name": "",
          "type": "uint256"
        },
        {
          "internalType": "uint256",
          "name": "",
          "type": "uint256"
        },
        {
          "internalType": "string",
          "name": "",
          "type": "string"
        }
      ],
      "stateMutability": "view",
      "type": "function"
    },
    {
      "inputs": [],
      "name": "getCampaignOriginPlatform",
      "outputs": [
        {
          "internalType": "bytes32",
          "name": "",
          "type": "bytes32"
        }
      ],
      "stateMutability": "view",
      "type": "function"
    },
    {
      "inputs": [],
      "name": "getCampaignReachPlatforms",
      "outputs": [
        {
          "internalType": "bytes32[]",
          "name": "",
          "type": "bytes32[]"
        }
      ],
      "stateMutability": "view",
      "type": "function"
    },
    {
      "inputs": [
        {
          "internalType": "bytes32",
          "name": "platformId",
          "type": "bytes32"
        }
      ],
      "name": "getPledgedAmountForAPlatformCrypto",
      "outputs": [
        {
          "internalType": "uint256",
          "name": "",
          "type": "uint256"
        }
      ],
      "stateMutability": "view",
      "type": "function"
    },
    {
      "inputs": [
        {
          "internalType": "bytes32",
          "name": "platformId",
          "type": "bytes32"
        }
      ],
      "name": "getPledgedAmountForPlatformCrypto",
      "outputs": [
        {
          "internalType": "uint256",
          "name": "",
          "type": "uint256"
        }
      ],
      "stateMutability": "view",
      "type": "function"
    },
    {
      "inputs": [],
      "name": "getTotalPledgedAmountCrypto",
      "outputs": [
        {
          "internalType": "uint256",
          "name": "",
          "type": "uint256"
        }
      ],
      "stateMutability": "view",
      "type": "function"
    },
    {
      "inputs": [
        {
          "internalType": "bytes32",
          "name": "platformId",
          "type": "bytes32"
        }
      ],
      "name": "getTreasuryAddress",
      "outputs": [
        {
          "internalType": "address",
          "name": "",
          "type": "address"
        }
      ],
      "stateMutability": "view",
      "type": "function"
    },
    {
      "inputs": [],
      "name": "owner",
      "outputs": [
        {
          "internalType": "address",
          "name": "",
          "type": "address"
        }
      ],
      "stateMutability": "view",
      "type": "function"
    },
    {
      "inputs": [],
      "name": "pause",
      "outputs": [],
      "stateMutability": "nonpayable",
      "type": "function"
    },
    {
      "inputs": [
        {
          "internalType": "bytes32",
          "name": "platformHex",
          "type": "bytes32"
        },
        {
          "internalType": "bool",
          "name": "paused",
          "type": "bool"
        }
      ],
      "name": "pauseOrUnpauseForPlatform",
      "outputs": [],
      "stateMutability": "nonpayable",
      "type": "function"
    },
    {
      "inputs": [],
      "name": "paused",
      "outputs": [
        {
          "internalType": "bool",
          "name": "",
          "type": "bool"
        }
      ],
      "stateMutability": "view",
      "type": "function"
    },
    {
      "inputs": [
        {
          "internalType": "bytes32",
          "name": "platformId",
          "type": "bytes32"
        },
        {
          "internalType": "address",
          "name": "backer",
          "type": "address"
        },
        {
          "internalType": "bytes32",
          "name": "reward",
          "type": "bytes32"
        },
        {
          "internalType": "bytes32",
          "name": "addOn",
          "type": "bytes32"
        },
        {
          "internalType": "bool",
          "name": "isFiat",
          "type": "bool"
        }
      ],
      "name": "pledgeForAReward",
      "outputs": [
        {
          "internalType": "uint256",
          "name": "tokenId",
          "type": "uint256"
        }
      ],
      "stateMutability": "nonpayable",
      "type": "function"
    },
    {
      "inputs": [
        {
          "internalType": "bytes32",
          "name": "platformId",
          "type": "bytes32"
        },
        {
          "internalType": "address",
          "name": "backer",
          "type": "address"
        },
        {
          "internalType": "uint256",
          "name": "amount",
          "type": "uint256"
        },
        {
          "internalType": "bool",
          "name": "isFiat",
          "type": "bool"
        }
      ],
      "name": "pledgeWithoutAReward",
      "outputs": [],
      "stateMutability": "nonpayable",
      "type": "function"
    },
    {
      "inputs": [],
      "name": "renounceOwnership",
      "outputs": [],
      "stateMutability": "nonpayable",
      "type": "function"
    },
    {
      "inputs": [],
      "name": "rewardedPlatform",
      "outputs": [
        {
          "internalType": "bytes32",
          "name": "",
          "type": "bytes32"
        }
      ],
      "stateMutability": "view",
      "type": "function"
    },
    {
      "inputs": [
        {
          "internalType": "uint256",
          "name": "launchTime",
          "type": "uint256"
        },
        {
          "internalType": "uint256",
          "name": "deadline",
          "type": "uint256"
        },
        {
          "internalType": "uint256",
          "name": "goalAmount",
          "type": "uint256"
        },
        {
          "internalType": "bool",
          "name": "enableLatePledge",
          "type": "bool"
        }
      ],
      "name": "setLaunch",
      "outputs": [],
      "stateMutability": "nonpayable",
      "type": "function"
    },
    {
      "inputs": [
        {
          "internalType": "bytes32",
          "name": "_platformId",
          "type": "bytes32"
        },
        {
          "internalType": "address",
          "name": "_platformWallet",
          "type": "address"
        },
        {
          "internalType": "address",
          "name": "_treasury",
          "type": "address"
        },
        {
          "internalType": "address",
          "name": "_token",
          "type": "address"
        }
      ],
      "name": "setPlatformInfo",
      "outputs": [],
      "stateMutability": "nonpayable",
      "type": "function"
    },
    {
      "inputs": [],
      "name": "specifiedTime",
      "outputs": [
        {
          "internalType": "uint256",
          "name": "",
          "type": "uint256"
        }
      ],
      "stateMutability": "view",
      "type": "function"
    },
    {
      "inputs": [],
      "name": "splitFeesProportionately",
      "outputs": [],
      "stateMutability": "nonpayable",
      "type": "function"
    },
    {
      "inputs": [
        {
          "internalType": "address",
          "name": "newOwner",
          "type": "address"
        }
      ],
      "name": "transferOwnership",
      "outputs": [],
      "stateMutability": "nonpayable",
      "type": "function"
    },
    {
      "inputs": [],
      "name": "unpause",
      "outputs": [],
      "stateMutability": "nonpayable",
      "type": "function"
    },
    {
      "inputs": [
        {
          "internalType": "uint256",
          "name": "_deadline",
          "type": "uint256"
        }
      ],
      "name": "updateDeadline",
      "outputs": [],
      "stateMutability": "nonpayable",
      "type": "function"
    },
    {
      "inputs": [
        {
          "internalType": "uint256",
          "name": "_goalAmount",
          "type": "uint256"
        }
      ],
      "name": "updateGoal",
      "outputs": [],
      "stateMutability": "nonpayable",
      "type": "function"
    },
    {
      "inputs": [
        {
          "internalType": "uint256",
          "name": "_launchTime",
          "type": "uint256"
        }
      ],
      "name": "updateLaunchTime",
      "outputs": [],
      "stateMutability": "nonpayable",
      "type": "function"
    }
  ],
  "bytecode": "0x60806040523480156200001157600080fd5b50604051620054e2380380620054e28339818101604052810190620000379190620007d6565b620000576200004b6200014560201b60201c565b6200014d60201b60201c565b60008060146101000a81548160ff02191690831515021790555086600160000190805190602001906200008c92919062000362565b50856001800181905550426001600401819055508460016006019080519060200190620000bb92919062000362565b508360016007019080519060200190620000d7929190620003f3565b5082600a60006101000a81548173ffffffffffffffffffffffffffffffffffffffff021916908373ffffffffffffffffffffffffffffffffffffffff16021790555042600f8190555062000131826200021160201b60201c565b80600c819055505050505050505062000a66565b600033905090565b60008060009054906101000a900473ffffffffffffffffffffffffffffffffffffffff169050816000806101000a81548173ffffffffffffffffffffffffffffffffffffffff021916908373ffffffffffffffffffffffffffffffffffffffff1602179055508173ffffffffffffffffffffffffffffffffffffffff168173ffffffffffffffffffffffffffffffffffffffff167f8be0079c531659141344cd1fd0a4f28419497f9722a3daafe3b4186f6b6457e060405160405180910390a35050565b62000221620002a860201b60201c565b600073ffffffffffffffffffffffffffffffffffffffff168173ffffffffffffffffffffffffffffffffffffffff16141562000294576040517f08c379a00000000000000000000000000000000000000000000000000000000081526004016200028b906200096d565b60405180910390fd5b620002a5816200014d60201b60201c565b50565b620002b86200014560201b60201c565b73ffffffffffffffffffffffffffffffffffffffff16620002de6200033960201b60201c565b73ffffffffffffffffffffffffffffffffffffffff161462000337576040517f08c379a00000000000000000000000000000000000000000000000000000000081526004016200032e90620009df565b60405180910390fd5b565b60008060009054906101000a900473ffffffffffffffffffffffffffffffffffffffff16905090565b828054620003709062000a30565b90600052602060002090601f016020900481019282620003945760008555620003e0565b82601f10620003af57805160ff1916838001178555620003e0565b82800160010185558215620003e0579182015b82811115620003df578251825591602001919060010190620003c2565b5b509050620003ef919062000445565b5090565b82805482825590600052602060002090810192821562000432579160200282015b828111156200043157825182559160200191906001019062000414565b5b50905062000441919062000464565b5090565b5b808211156200046057600081600090555060010162000446565b5090565b5b808211156200047f57600081600090555060010162000465565b5090565b6000604051905090565b600080fd5b600080fd5b600080fd5b600080fd5b6000601f19601f8301169050919050565b7f4e487b7100000000000000000000000000000000000000000000000000000000600052604160045260246000fd5b620004ec82620004a1565b810181811067ffffffffffffffff821117156200050e576200050d620004b2565b5b80604052505050565b60006200052362000483565b9050620005318282620004e1565b919050565b600067ffffffffffffffff821115620005545762000553620004b2565b5b6200055f82620004a1565b9050602081019050919050565b60005b838110156200058c5780820151818401526020810190506200056f565b838111156200059c576000848401525b50505050565b6000620005b9620005b38462000536565b62000517565b905082815260208101848484011115620005d857620005d76200049c565b5b620005e58482856200056c565b509392505050565b600082601f83011262000605576200060462000497565b5b815162000617848260208601620005a2565b91505092915050565b6000819050919050565b620006358162000620565b81146200064157600080fd5b50565b60008151905062000655816200062a565b92915050565b600067ffffffffffffffff821115620006795762000678620004b2565b5b602082029050602081019050919050565b600080fd5b6000620006a6620006a0846200065b565b62000517565b90508083825260208201905060208402830185811115620006cc57620006cb6200068a565b5b835b81811015620006f95780620006e4888262000644565b845260208401935050602081019050620006ce565b5050509392505050565b600082601f8301126200071b576200071a62000497565b5b81516200072d8482602086016200068f565b91505092915050565b600073ffffffffffffffffffffffffffffffffffffffff82169050919050565b6000620007638262000736565b9050919050565b620007758162000756565b81146200078157600080fd5b50565b60008151905062000795816200076a565b92915050565b6000819050919050565b620007b0816200079b565b8114620007bc57600080fd5b50565b600081519050620007d081620007a5565b92915050565b600080600080600080600060e0888a031215620007f857620007f76200048d565b5b600088015167ffffffffffffffff81111562000819576200081862000492565b5b620008278a828b01620005ed565b97505060206200083a8a828b0162000644565b965050604088015167ffffffffffffffff8111156200085e576200085d62000492565b5b6200086c8a828b01620005ed565b955050606088015167ffffffffffffffff81111562000890576200088f62000492565b5b6200089e8a828b0162000703565b9450506080620008b18a828b0162000784565b93505060a0620008c48a828b0162000784565b92505060c0620008d78a828b01620007bf565b91505092959891949750929550565b600082825260208201905092915050565b7f4f776e61626c653a206e6577206f776e657220697320746865207a65726f206160008201527f6464726573730000000000000000000000000000000000000000000000000000602082015250565b600062000955602683620008e6565b91506200096282620008f7565b604082019050919050565b60006020820190508181036000830152620009888162000946565b9050919050565b7f4f776e61626c653a2063616c6c6572206973206e6f7420746865206f776e6572600082015250565b6000620009c7602083620008e6565b9150620009d4826200098f565b602082019050919050565b60006020820190508181036000830152620009fa81620009b8565b9050919050565b7f4e487b7100000000000000000000000000000000000000000000000000000000600052602260045260246000fd5b6000600282049050600182168062000a4957607f821691505b6020821081141562000a605762000a5f62000a01565b5b50919050565b614a6c8062000a766000396000f3fe608060405234801561001057600080fd5b50600436106101e55760003560e01c806383d23ab31161010f578063c512ad4c116100a2578063f2fde38b11610071578063f2fde38b146104fb578063f407d7dc14610517578063f840367614610533578063fb7846df14610551576101e5565b8063c512ad4c14610489578063deaaf241146104a5578063e12900f2146104c1578063efbe1c1c146104f1576101e5565b80638da5cb5b116100de5780638da5cb5b146103fa578063a0797f7514610418578063a70ee00a14610436578063c417633814610466576101e5565b806383d23ab3146103885780638456cb59146103a457806384ea5c74146103ae5780638bb30613146103de576101e5565b80633f4ba83a11610187578063695c27c211610156578063695c27c21461033a578063715018a6146103565780637568173b146103605780637712b1721461036a576101e5565b80633f4ba83a146102da57806342af1884146102e45780635c975abb1461030057806368027e431461031e576101e5565b8063259bd58a116101c3578063259bd58a146102545780632e162db61461027057806330c00b001461028e578063316fb7c4146102be576101e5565b8063089e8783146101ea57806311d6081c1461021a5780631957612414610236575b600080fd5b61020460048036038101906101ff91906135af565b610581565b6040516102119190613643565b60405180910390f35b610234600480360381019061022f919061368a565b610b29565b005b61023e610cfc565b60405161024b91906136ec565b60405180910390f35b61026e6004803603810190610269919061391a565b610d02565b005b610278610e1d565b6040516102859190613a47565b60405180910390f35b6102a860048036038101906102a39190613a69565b610e78565b6040516102b59190613643565b60405180910390f35b6102d860048036038101906102d39190613a96565b611015565b005b6102e261107a565b005b6102fe60048036038101906102f99190613a96565b611228565b005b6103086112ab565b6040516103159190613ad2565b60405180910390f35b61033860048036038101906103339190613a96565b6112c1565b005b610354600480360381019061034f9190613aed565b611344565b005b61035e6113a5565b005b6103686113b9565b005b610372611897565b60405161037f9190613643565b60405180910390f35b6103a2600480360381019061039d9190613a69565b61189d565b005b6103ac611924565b005b6103c860048036038101906103c39190613a69565b611ad2565b6040516103d59190613b63565b60405180910390f35b6103f860048036038101906103f39190613b7e565b611bb4565b005b610402611d78565b60405161040f9190613b63565b60405180910390f35b610420611da1565b60405161042d91906136ec565b60405180910390f35b610450600480360381019061044b9190613be5565b611dad565b60405161045d9190613643565b60405180910390f35b61046e612022565b60405161048096959493929190613cc0565b60405180910390f35b6104a3600480360381019061049e9190613d2f565b61217a565b005b6104bf60048036038101906104ba9190613d6f565b612548565b005b6104db60048036038101906104d69190613dd6565b61269c565b6040516104e89190613643565b60405180910390f35b6104f96126f7565b005b61051560048036038101906105109190613e16565b6128b8565b005b610531600480360381019061052c9190613e43565b61293c565b005b61053b612acc565b6040516105489190613643565b60405180910390f35b61056b60048036038101906105669190613a69565b612e35565b6040516105789190613643565b60405180910390f35b6000600a60149054906101000a900460ff16156105d3576040517f08c379a00000000000000000000000000000000000000000000000000000000081526004016105ca90613ecf565b60405180910390fd5b6105db612f2d565b600d60009054906101000a900460ff1680156105fb575042600160030154105b61063a576040517f08c379a000000000000000000000000000000000000000000000000000000000815260040161063190613f3b565b60405180910390fd5b60006011600088815260200190815260200160002060009054906101000a900473ffffffffffffffffffffffffffffffffffffffff1690506000600a60009054906101000a900473ffffffffffffffffffffffffffffffffffffffff1673ffffffffffffffffffffffffffffffffffffffff166398fda6056040518163ffffffff1660e01b815260040160206040518083038186803b1580156106dc57600080fd5b505afa1580156106f0573d6000803e3d6000fd5b505050506040513d601f19601f820116820180604052508101906107149190613f70565b73ffffffffffffffffffffffffffffffffffffffff1663fc6c108a610737611d78565b876040518363ffffffff1660e01b8152600401610755929190613f9d565b60206040518083038186803b15801561076d57600080fd5b505afa158015610781573d6000803e3d6000fd5b505050506040513d601f19601f820116820180604052508101906107a59190613fdb565b600a60009054906101000a900473ffffffffffffffffffffffffffffffffffffffff1673ffffffffffffffffffffffffffffffffffffffff166398fda6056040518163ffffffff1660e01b815260040160206040518083038186803b15801561080d57600080fd5b505afa158015610821573d6000803e3d6000fd5b505050506040513d601f19601f820116820180604052508101906108459190613f70565b73ffffffffffffffffffffffffffffffffffffffff1663fc6c108a610868611d78565b896040518363ffffffff1660e01b8152600401610886929190613f9d565b60206040518083038186803b15801561089e57600080fd5b505afa1580156108b2573d6000803e3d6000fd5b505050506040513d601f19601f820116820180604052508101906108d69190613fdb565b6108e09190614037565b9050601460008873ffffffffffffffffffffffffffffffffffffffff1673ffffffffffffffffffffffffffffffffffffffff16815260200190815260200160002060009054906101000a900460ff161561099d57600c5481610942919061408d565b90506000601460008973ffffffffffffffffffffffffffffffffffffffff1673ffffffffffffffffffffffffffffffffffffffff16815260200190815260200160002060006101000a81548160ff0219169083151502179055505b6109dd82601060008b815260200190815260200160002060009054906101000a900473ffffffffffffffffffffffffffffffffffffffff16898488612f77565b600a60009054906101000a900473ffffffffffffffffffffffffffffffffffffffff1673ffffffffffffffffffffffffffffffffffffffff166330525f666040518163ffffffff1660e01b815260040160206040518083038186803b158015610a4557600080fd5b505afa158015610a59573d6000803e3d6000fd5b505050506040513d601f19601f82011682018060405250810190610a7d9190613f70565b73ffffffffffffffffffffffffffffffffffffffff1663e9e36f9a8884600c5485610aa89190614037565b8c8b6040518663ffffffff1660e01b8152600401610aca9594939291906140c1565b602060405180830381600087803b158015610ae457600080fd5b505af1158015610af8573d6000803e3d6000fd5b505050506040513d601f19601f82011682018060405250810190610b1c9190613fdb565b9250505095945050505050565b6000601360008573ffffffffffffffffffffffffffffffffffffffff1673ffffffffffffffffffffffffffffffffffffffff168152602001908152602001600020600083815260200190815260200160002054905080831115610bc1576040517f08c379a0000000000000000000000000000000000000000000000000000000008152600401610bb890614160565b60405180910390fd5b8281610bcd919061408d565b601360008673ffffffffffffffffffffffffffffffffffffffff1673ffffffffffffffffffffffffffffffffffffffff1681526020019081526020016000206000848152602001908152602001600020819055506010600083815260200190815260200160002060009054906101000a900473ffffffffffffffffffffffffffffffffffffffff1673ffffffffffffffffffffffffffffffffffffffff166360a56b3a856011600086815260200190815260200160002060009054906101000a900473ffffffffffffffffffffffffffffffffffffffff16866040518463ffffffff1660e01b8152600401610cc493929190614180565b600060405180830381600087803b158015610cde57600080fd5b505af1158015610cf2573d6000803e3d6000fd5b5050505050505050565b600e5481565b610d0a61308d565b600a60009054906101000a900473ffffffffffffffffffffffffffffffffffffffff1673ffffffffffffffffffffffffffffffffffffffff166398fda6056040518163ffffffff1660e01b815260040160206040518083038186803b158015610d7257600080fd5b505afa158015610d86573d6000803e3d6000fd5b505050506040513d601f19601f82011682018060405250810190610daa9190613f70565b73ffffffffffffffffffffffffffffffffffffffff1663259bd58a8484846040518463ffffffff1660e01b8152600401610de6939291906142ee565b600060405180830381600087803b158015610e0057600080fd5b505af1158015610e14573d6000803e3d6000fd5b50505050505050565b60606001600701805480602002602001604051908101604052809291908181526020018280548015610e6e57602002820191906000526020600020905b815481526020019060010190808311610e5a575b5050505050905090565b600081600073ffffffffffffffffffffffffffffffffffffffff166010600083815260200190815260200160002060009054906101000a900473ffffffffffffffffffffffffffffffffffffffff1673ffffffffffffffffffffffffffffffffffffffff161415610f1e576040517f08c379a0000000000000000000000000000000000000000000000000000000008152600401610f159061439e565b60405180910390fd5b6011600084815260200190815260200160002060009054906101000a900473ffffffffffffffffffffffffffffffffffffffff1673ffffffffffffffffffffffffffffffffffffffff166370a082316010600086815260200190815260200160002060009054906101000a900473ffffffffffffffffffffffffffffffffffffffff166040518263ffffffff1660e01b8152600401610fbd9190613b63565b60206040518083038186803b158015610fd557600080fd5b505afa158015610fe9573d6000803e3d6000fd5b505050506040513d601f19601f8201168201806040525081019061100d9190613fdb565b915050919050565b600a60149054906101000a900460ff1615611065576040517f08c379a000000000000000000000000000000000000000000000000000000000815260040161105c90613ecf565b60405180910390fd5b61106d61308d565b8060016002018190555050565b600a60149054906101000a900460ff16156110ca576040517f08c379a00000000000000000000000000000000000000000000000000000000081526004016110c190613ecf565b60405180910390fd5b3373ffffffffffffffffffffffffffffffffffffffff16600a60009054906101000a900473ffffffffffffffffffffffffffffffffffffffff1673ffffffffffffffffffffffffffffffffffffffff16635bad43996040518163ffffffff1660e01b815260040160206040518083038186803b15801561114957600080fd5b505afa15801561115d573d6000803e3d6000fd5b505050506040513d601f19601f820116820180604052508101906111819190613f70565b73ffffffffffffffffffffffffffffffffffffffff1663420f68616040518163ffffffff1660e01b815260040160206040518083038186803b1580156111c657600080fd5b505afa1580156111da573d6000803e3d6000fd5b505050506040513d601f19601f820116820180604052508101906111fe9190613f70565b73ffffffffffffffffffffffffffffffffffffffff161461121e57600080fd5b61122661310b565b565b600a60149054906101000a900460ff1615611278576040517f08c379a000000000000000000000000000000000000000000000000000000000815260040161126f90613ecf565b60405180910390fd5b61128061308d565b80600b546001600301546112949190614037565b1061129e57600080fd5b8060016005018190555050565b60008060149054906101000a900460ff16905090565b600a60149054906101000a900460ff1615611311576040517f08c379a000000000000000000000000000000000000000000000000000000000815260040161130890613ecf565b60405180910390fd5b61131961308d565b600160050154600b548261132d9190614037565b1061133757600080fd5b8060016003018190555050565b61134c61308d565b83600160030181905550826001600501819055508160016002018190555080600d60016101000a81548160ff0219169083151502179055506001600d60006101000a81548160ff02191690831515021790555050505050565b6113ad61308d565b6113b7600061316d565b565b6000600a60009054906101000a900473ffffffffffffffffffffffffffffffffffffffff1673ffffffffffffffffffffffffffffffffffffffff16635bad43996040518163ffffffff1660e01b815260040160206040518083038186803b15801561142357600080fd5b505afa158015611437573d6000803e3d6000fd5b505050506040513d601f19601f8201168201806040525081019061145b9190613f70565b9050600060016007018054806020026020016040519081016040528092919081815260200182805480156114ae57602002820191906000526020600020905b81548152602001906001019080831161149a575b505050505090506000600182516114c59190614037565b67ffffffffffffffff8111156114de576114dd61371d565b5b60405190808252806020026020018201604052801561150c5781602001602082028036833780820191505090505b50905060006001835161151f9190614037565b67ffffffffffffffff8111156115385761153761371d565b5b6040519080825280602002602001820160405280156115665781602001602082028036833780820191505090505b50905060005b835181101561160457838181518110611588576115876143be565b5b60200260200101518382815181106115a3576115a26143be565b5b6020026020010181815250506115d28482815181106115c5576115c46143be565b5b6020026020010151610e78565b8282815181106115e5576115e46143be565b5b60200260200101818152505080806115fc906143ed565b91505061156c565b5060018001548284518151811061161e5761161d6143be565b5b6020026020010181815250506116376001800154610e78565b8184518151811061164b5761164a6143be565b5b6020026020010181815250506000600a60009054906101000a900473ffffffffffffffffffffffffffffffffffffffff1673ffffffffffffffffffffffffffffffffffffffff16630eeaef466040518163ffffffff1660e01b815260040160206040518083038186803b1580156116c157600080fd5b505afa1580156116d5573d6000803e3d6000fd5b505050506040513d601f19601f820116820180604052508101906116f99190613f70565b73ffffffffffffffffffffffffffffffffffffffff1663bdec30ba8673ffffffffffffffffffffffffffffffffffffffff16638274f2d66040518163ffffffff1660e01b815260040160206040518083038186803b15801561175a57600080fd5b505afa15801561176e573d6000803e3d6000fd5b505050506040513d601f19601f820116820180604052508101906117929190613fdb565b8773ffffffffffffffffffffffffffffffffffffffff1663fe6f1b056040518163ffffffff1660e01b815260040160206040518083038186803b1580156117d857600080fd5b505afa1580156117ec573d6000803e3d6000fd5b505050506040513d601f19601f820116820180604052508101906118109190613fdb565b856040518463ffffffff1660e01b815260040161182f939291906144a5565b60006040518083038186803b15801561184757600080fd5b505afa15801561185b573d6000803e3d6000fd5b505050506040513d6000823e3d601f19601f82011682018060405250810190611884919061457a565b90506118908382613231565b5050505050565b600f5481565b600a60149054906101000a900460ff16156118ed576040517f08c379a00000000000000000000000000000000000000000000000000000000081526004016118e490613ecf565b60405180910390fd5b6118f561308d565b600160070181908060018154018082558091505060019003906000526020600020016000909190919091505550565b600a60149054906101000a900460ff1615611974576040517f08c379a000000000000000000000000000000000000000000000000000000000815260040161196b90613ecf565b60405180910390fd5b3373ffffffffffffffffffffffffffffffffffffffff16600a60009054906101000a900473ffffffffffffffffffffffffffffffffffffffff1673ffffffffffffffffffffffffffffffffffffffff16635bad43996040518163ffffffff1660e01b815260040160206040518083038186803b1580156119f357600080fd5b505afa158015611a07573d6000803e3d6000fd5b505050506040513d601f19601f82011682018060405250810190611a2b9190613f70565b73ffffffffffffffffffffffffffffffffffffffff1663420f68616040518163ffffffff1660e01b815260040160206040518083038186803b158015611a7057600080fd5b505afa158015611a84573d6000803e3d6000fd5b505050506040513d601f19601f82011682018060405250810190611aa89190613f70565b73ffffffffffffffffffffffffffffffffffffffff1614611ac857600080fd5b611ad0613299565b565b600081600073ffffffffffffffffffffffffffffffffffffffff166010600083815260200190815260200160002060009054906101000a900473ffffffffffffffffffffffffffffffffffffffff1673ffffffffffffffffffffffffffffffffffffffff161415611b78576040517f08c379a0000000000000000000000000000000000000000000000000000000008152600401611b6f9061439e565b60405180910390fd5b6010600084815260200190815260200160002060009054906101000a900473ffffffffffffffffffffffffffffffffffffffff16915050919050565b600a60149054906101000a900460ff1615611c04576040517f08c379a0000000000000000000000000000000000000000000000000000000008152600401611bfb90613ecf565b60405180910390fd5b611c0c612f2d565b426001600501541015611c8157600160020154611c27612acc565b10158015611c415750600d60019054906101000a900460ff165b611c80576040517f08c379a0000000000000000000000000000000000000000000000000000000008152600401611c779061460f565b60405180910390fd5b5b4260016003015410611c9257600080fd5b60006011600086815260200190815260200160002060009054906101000a900473ffffffffffffffffffffffffffffffffffffffff169050611d0a816010600088815260200190815260200160002060009054906101000a900473ffffffffffffffffffffffffffffffffffffffff16868686612f77565b82601360008673ffffffffffffffffffffffffffffffffffffffff1673ffffffffffffffffffffffffffffffffffffffff16815260200190815260200160002060008781526020019081526020016000206000828254611d6a9190614037565b925050819055505050505050565b60008060009054906101000a900473ffffffffffffffffffffffffffffffffffffffff16905090565b60006001800154905090565b6000600a60149054906101000a900460ff1615611dff576040517f08c379a0000000000000000000000000000000000000000000000000000000008152600401611df690613ecf565b60405180910390fd5b611e07612f2d565b600d60009054906101000a900460ff161580611e27575042600160030154115b611e66576040517f08c379a0000000000000000000000000000000000000000000000000000000008152600401611e5d9061460f565b60405180910390fd5b60006010600086815260200190815260200160002060009054906101000a900473ffffffffffffffffffffffffffffffffffffffff16905060006011600087815260200190815260200160002060009054906101000a900473ffffffffffffffffffffffffffffffffffffffff169050611ee5818387600c5488612f77565b600a60009054906101000a900473ffffffffffffffffffffffffffffffffffffffff1673ffffffffffffffffffffffffffffffffffffffff166330525f666040518163ffffffff1660e01b815260040160206040518083038186803b158015611f4d57600080fd5b505afa158015611f61573d6000803e3d6000fd5b505050506040513d601f19601f82011682018060405250810190611f859190613f70565b73ffffffffffffffffffffffffffffffffffffffff16638e48312f8683600c548a6040518563ffffffff1660e01b8152600401611fc5949392919061462f565b602060405180830381600087803b158015611fdf57600080fd5b505af1158015611ff3573d6000803e3d6000fd5b505050506040513d601f19601f820116820180604052508101906120179190613fdb565b925050509392505050565b606060008060008060606001600001600160020154600160030154600160040154600160050154600160060185805461205a906146a3565b80601f0160208091040260200160405190810160405280929190818152602001828054612086906146a3565b80156120d35780601f106120a8576101008083540402835291602001916120d3565b820191906000526020600020905b8154815290600101906020018083116120b657829003601f168201915b505050505095508080546120e6906146a3565b80601f0160208091040260200160405190810160405280929190818152602001828054612112906146a3565b801561215f5780601f106121345761010080835404028352916020019161215f565b820191906000526020600020905b81548152906001019060200180831161214257829003601f168201915b50505050509050955095509550955095509550909192939495565b6000600a60009054906101000a900473ffffffffffffffffffffffffffffffffffffffff1673ffffffffffffffffffffffffffffffffffffffff166330525f666040518163ffffffff1660e01b815260040160206040518083038186803b1580156121e457600080fd5b505afa1580156121f8573d6000803e3d6000fd5b505050506040513d601f19601f8201168201806040525081019061221c9190613f70565b90506000808273ffffffffffffffffffffffffffffffffffffffff1663c20c42f8856040518263ffffffff1660e01b815260040161225a9190613643565b60e06040518083038186803b15801561227257600080fd5b505afa158015612286573d6000803e3d6000fd5b505050506040513d601f19601f820116820180604052508101906122aa91906146ea565b9091929394955090919293945090919293509091925090915080935081925050506000600a60009054906101000a900473ffffffffffffffffffffffffffffffffffffffff1673ffffffffffffffffffffffffffffffffffffffff166398fda6056040518163ffffffff1660e01b815260040160206040518083038186803b15801561233557600080fd5b505afa158015612349573d6000803e3d6000fd5b505050506040513d601f19601f8201168201806040525081019061236d9190613f70565b73ffffffffffffffffffffffffffffffffffffffff1663fc6c108a612390611d78565b856040518363ffffffff1660e01b81526004016123ae929190613f9d565b60206040518083038186803b1580156123c657600080fd5b505afa1580156123da573d6000803e3d6000fd5b505050506040513d601f19601f820116820180604052508101906123fe9190613fdb565b90508373ffffffffffffffffffffffffffffffffffffffff166342966c68866040518263ffffffff1660e01b81526004016124399190613643565b600060405180830381600087803b15801561245357600080fd5b505af1158015612467573d6000803e3d6000fd5b505050506010600083815260200190815260200160002060009054906101000a900473ffffffffffffffffffffffffffffffffffffffff1673ffffffffffffffffffffffffffffffffffffffff166360a56b3a876011600086815260200190815260200160002060009054906101000a900473ffffffffffffffffffffffffffffffffffffffff16846040518463ffffffff1660e01b815260040161250e93929190614180565b600060405180830381600087803b15801561252857600080fd5b505af115801561253c573d6000803e3d6000fd5b50505050505050505050565b600a60149054906101000a900460ff1615612598576040517f08c379a000000000000000000000000000000000000000000000000000000000815260040161258f90613ecf565b60405180910390fd5b6125a061308d565b826012600086815260200190815260200160002060006101000a81548173ffffffffffffffffffffffffffffffffffffffff021916908373ffffffffffffffffffffffffffffffffffffffff160217905550816010600086815260200190815260200160002060006101000a81548173ffffffffffffffffffffffffffffffffffffffff021916908373ffffffffffffffffffffffffffffffffffffffff160217905550806011600086815260200190815260200160002060006101000a81548173ffffffffffffffffffffffffffffffffffffffff021916908373ffffffffffffffffffffffffffffffffffffffff16021790555050505050565b6000601360008473ffffffffffffffffffffffffffffffffffffffff1673ffffffffffffffffffffffffffffffffffffffff168152602001908152602001600020600083815260200190815260200160002054905092915050565b600a60149054906101000a900460ff1615612747576040517f08c379a000000000000000000000000000000000000000000000000000000000815260040161273e90613ecf565b60405180910390fd5b3373ffffffffffffffffffffffffffffffffffffffff16600a60009054906101000a900473ffffffffffffffffffffffffffffffffffffffff1673ffffffffffffffffffffffffffffffffffffffff16635bad43996040518163ffffffff1660e01b815260040160206040518083038186803b1580156127c657600080fd5b505afa1580156127da573d6000803e3d6000fd5b505050506040513d601f19601f820116820180604052508101906127fe9190613f70565b73ffffffffffffffffffffffffffffffffffffffff1663420f68616040518163ffffffff1660e01b815260040160206040518083038186803b15801561284357600080fd5b505afa158015612857573d6000803e3d6000fd5b505050506040513d601f19601f8201168201806040525081019061287b9190613f70565b73ffffffffffffffffffffffffffffffffffffffff161461289b57600080fd5b6001600a60146101000a81548160ff021916908315150217905550565b6128c061308d565b600073ffffffffffffffffffffffffffffffffffffffff168173ffffffffffffffffffffffffffffffffffffffff161415612930576040517f08c379a0000000000000000000000000000000000000000000000000000000008152600401612927906147fe565b60405180910390fd5b6129398161316d565b50565b813373ffffffffffffffffffffffffffffffffffffffff16600a60009054906101000a900473ffffffffffffffffffffffffffffffffffffffff1673ffffffffffffffffffffffffffffffffffffffff16635bad43996040518163ffffffff1660e01b815260040160206040518083038186803b1580156129bc57600080fd5b505afa1580156129d0573d6000803e3d6000fd5b505050506040513d601f19601f820116820180604052508101906129f49190613f70565b73ffffffffffffffffffffffffffffffffffffffff1663a5d90993836040518263ffffffff1660e01b8152600401612a2c91906136ec565b60206040518083038186803b158015612a4457600080fd5b505afa158015612a58573d6000803e3d6000fd5b505050506040513d601f19601f82011682018060405250810190612a7c9190613f70565b73ffffffffffffffffffffffffffffffffffffffff1614612a9c57600080fd5b816015600085815260200190815260200160002060006101000a81548160ff021916908315150217905550505050565b600080601060006001800154815260200190815260200160002060009054906101000a900473ffffffffffffffffffffffffffffffffffffffff169050600073ffffffffffffffffffffffffffffffffffffffff168173ffffffffffffffffffffffffffffffffffffffff161415612b79576040517f08c379a0000000000000000000000000000000000000000000000000000000008152600401612b7090614890565b60405180910390fd5b60006001600701805480602002602001604051908101604052809291908181526020018280548015612bca57602002820191906000526020600020905b815481526020019060010190808311612bb6575b505050505090506000815190506000601160006001800154815260200190815260200160002060009054906101000a900473ffffffffffffffffffffffffffffffffffffffff1673ffffffffffffffffffffffffffffffffffffffff166370a08231856040518263ffffffff1660e01b8152600401612c499190613b63565b60206040518083038186803b158015612c6157600080fd5b505afa158015612c75573d6000803e3d6000fd5b505050506040513d601f19601f82011682018060405250810190612c999190613fdb565b905060005b82811015612e2a57600060106000868481518110612cbf57612cbe6143be565b5b6020026020010151815260200190815260200160002060009054906101000a900473ffffffffffffffffffffffffffffffffffffffff169050600060116000878581518110612d1157612d106143be565b5b6020026020010151815260200190815260200160002060009054906101000a900473ffffffffffffffffffffffffffffffffffffffff169050600073ffffffffffffffffffffffffffffffffffffffff168273ffffffffffffffffffffffffffffffffffffffff1614612e15578073ffffffffffffffffffffffffffffffffffffffff166370a08231836040518263ffffffff1660e01b8152600401612db79190613b63565b60206040518083038186803b158015612dcf57600080fd5b505afa158015612de3573d6000803e3d6000fd5b505050506040513d601f19601f82011682018060405250810190612e079190613fdb565b84612e129190614037565b93505b50508080612e22906143ed565b915050612c9e565b508094505050505090565b60006011600083815260200190815260200160002060009054906101000a900473ffffffffffffffffffffffffffffffffffffffff1673ffffffffffffffffffffffffffffffffffffffff166370a082316010600085815260200190815260200160002060009054906101000a900473ffffffffffffffffffffffffffffffffffffffff166040518263ffffffff1660e01b8152600401612ed69190613b63565b60206040518083038186803b158015612eee57600080fd5b505afa158015612f02573d6000803e3d6000fd5b505050506040513d601f19601f82011682018060405250810190612f269190613fdb565b9050919050565b612f356112ab565b15612f75576040517f08c379a0000000000000000000000000000000000000000000000000000000008152600401612f6c906148fc565b60405180910390fd5b565b612f7f612f2d565b8015612ff5578373ffffffffffffffffffffffffffffffffffffffff1663bf85f263836040518263ffffffff1660e01b8152600401612fbe9190613643565b600060405180830381600087803b158015612fd857600080fd5b505af1158015612fec573d6000803e3d6000fd5b50505050613086565b8473ffffffffffffffffffffffffffffffffffffffff166323b872dd8486856040518463ffffffff1660e01b815260040161303293929190614180565b602060405180830381600087803b15801561304c57600080fd5b505af1158015613060573d6000803e3d6000fd5b505050506040513d601f19601f820116820180604052508101906130849190614931565b505b5050505050565b6130956132fc565b73ffffffffffffffffffffffffffffffffffffffff166130b3611d78565b73ffffffffffffffffffffffffffffffffffffffff1614613109576040517f08c379a0000000000000000000000000000000000000000000000000000000008152600401613100906149aa565b60405180910390fd5b565b613113613304565b60008060146101000a81548160ff0219169083151502179055507f5db9ee0a495bf2e6ff9c91a7834c1ba4fdd244a5e8aa4e537bd38aeae4b073aa6131566132fc565b6040516131639190613b63565b60405180910390a1565b60008060009054906101000a900473ffffffffffffffffffffffffffffffffffffffff169050816000806101000a81548173ffffffffffffffffffffffffffffffffffffffff021916908373ffffffffffffffffffffffffffffffffffffffff1602179055508173ffffffffffffffffffffffffffffffffffffffff168173ffffffffffffffffffffffffffffffffffffffff167f8be0079c531659141344cd1fd0a4f28419497f9722a3daafe3b4186f6b6457e060405160405180910390a35050565b60008251905060005b8181101561329357613280848281518110613258576132576143be565b5b6020026020010151848381518110613273576132726143be565b5b602002602001015161334d565b808061328b906143ed565b91505061323a565b50505050565b6132a1612f2d565b6001600060146101000a81548160ff0219169083151502179055507f62e78cea01bee320cd4e420270b5ea74000d11b0c9f74754ebdbfc544b05a2586132e56132fc565b6040516132f29190613b63565b60405180910390a1565b600033905090565b61330c6112ab565b61334b576040517f08c379a000000000000000000000000000000000000000000000000000000000815260040161334290614a16565b60405180910390fd5b565b6000811180156133bd5750600073ffffffffffffffffffffffffffffffffffffffff166010600084815260200190815260200160002060009054906101000a900473ffffffffffffffffffffffffffffffffffffffff1673ffffffffffffffffffffffffffffffffffffffff1614155b156134cb576010600083815260200190815260200160002060009054906101000a900473ffffffffffffffffffffffffffffffffffffffff1673ffffffffffffffffffffffffffffffffffffffff166360a56b3a6012600085815260200190815260200160002060009054906101000a900473ffffffffffffffffffffffffffffffffffffffff166011600086815260200190815260200160002060009054906101000a900473ffffffffffffffffffffffffffffffffffffffff16846040518463ffffffff1660e01b815260040161349893929190614180565b600060405180830381600087803b1580156134b257600080fd5b505af11580156134c6573d6000803e3d6000fd5b505050505b5050565b6000604051905090565b600080fd5b600080fd5b6000819050919050565b6134f6816134e3565b811461350157600080fd5b50565b600081359050613513816134ed565b92915050565b600073ffffffffffffffffffffffffffffffffffffffff82169050919050565b600061354482613519565b9050919050565b61355481613539565b811461355f57600080fd5b50565b6000813590506135718161354b565b92915050565b60008115159050919050565b61358c81613577565b811461359757600080fd5b50565b6000813590506135a981613583565b92915050565b600080600080600060a086880312156135cb576135ca6134d9565b5b60006135d988828901613504565b95505060206135ea88828901613562565b94505060406135fb88828901613504565b935050606061360c88828901613504565b925050608061361d8882890161359a565b9150509295509295909350565b6000819050919050565b61363d8161362a565b82525050565b60006020820190506136586000830184613634565b92915050565b6136678161362a565b811461367257600080fd5b50565b6000813590506136848161365e565b92915050565b6000806000606084860312156136a3576136a26134d9565b5b60006136b186828701613562565b93505060206136c286828701613675565b92505060406136d386828701613504565b9150509250925092565b6136e6816134e3565b82525050565b600060208201905061370160008301846136dd565b92915050565b600080fd5b6000601f19601f8301169050919050565b7f4e487b7100000000000000000000000000000000000000000000000000000000600052604160045260246000fd5b6137558261370c565b810181811067ffffffffffffffff821117156137745761377361371d565b5b80604052505050565b60006137876134cf565b9050613793828261374c565b919050565b600080fd5b600080fd5b600067ffffffffffffffff8211156137bd576137bc61371d565b5b602082029050602081019050919050565b600080fd5b60006137e66137e1846137a2565b61377d565b90508083825260208201905060208402830185811115613809576138086137ce565b5b835b81811015613832578061381e8882613675565b84526020840193505060208101905061380b565b5050509392505050565b600082601f8301126138515761385061379d565b5b81356138618482602086016137d3565b91505092915050565b6000608082840312156138805761387f613707565b5b61388a608061377d565b9050600082013567ffffffffffffffff8111156138aa576138a9613798565b5b6138b68482850161383c565b600083015250602082013567ffffffffffffffff8111156138da576138d9613798565b5b6138e68482850161383c565b60208301525060406138fa84828501613675565b604083015250606061390e8482850161359a565b60608301525092915050565b600080600060608486031215613933576139326134d9565b5b600061394186828701613562565b935050602061395286828701613504565b925050604084013567ffffffffffffffff811115613973576139726134de565b5b61397f8682870161386a565b9150509250925092565b600081519050919050565b600082825260208201905092915050565b6000819050602082019050919050565b6139be816134e3565b82525050565b60006139d083836139b5565b60208301905092915050565b6000602082019050919050565b60006139f482613989565b6139fe8185613994565b9350613a09836139a5565b8060005b83811015613a3a578151613a2188826139c4565b9750613a2c836139dc565b925050600181019050613a0d565b5085935050505092915050565b60006020820190508181036000830152613a6181846139e9565b905092915050565b600060208284031215613a7f57613a7e6134d9565b5b6000613a8d84828501613504565b91505092915050565b600060208284031215613aac57613aab6134d9565b5b6000613aba84828501613675565b91505092915050565b613acc81613577565b82525050565b6000602082019050613ae76000830184613ac3565b92915050565b60008060008060808587031215613b0757613b066134d9565b5b6000613b1587828801613675565b9450506020613b2687828801613675565b9350506040613b3787828801613675565b9250506060613b488782880161359a565b91505092959194509250565b613b5d81613539565b82525050565b6000602082019050613b786000830184613b54565b92915050565b60008060008060808587031215613b9857613b976134d9565b5b6000613ba687828801613504565b9450506020613bb787828801613562565b9350506040613bc887828801613675565b9250506060613bd98782880161359a565b91505092959194509250565b600080600060608486031215613bfe57613bfd6134d9565b5b6000613c0c86828701613504565b9350506020613c1d86828701613562565b9250506040613c2e8682870161359a565b9150509250925092565b600081519050919050565b600082825260208201905092915050565b60005b83811015613c72578082015181840152602081019050613c57565b83811115613c81576000848401525b50505050565b6000613c9282613c38565b613c9c8185613c43565b9350613cac818560208601613c54565b613cb58161370c565b840191505092915050565b600060c0820190508181036000830152613cda8189613c87565b9050613ce96020830188613634565b613cf66040830187613634565b613d036060830186613634565b613d106080830185613634565b81810360a0830152613d228184613c87565b9050979650505050505050565b60008060408385031215613d4657613d456134d9565b5b6000613d5485828601613562565b9250506020613d6585828601613675565b9150509250929050565b60008060008060808587031215613d8957613d886134d9565b5b6000613d9787828801613504565b9450506020613da887828801613562565b9350506040613db987828801613562565b9250506060613dca87828801613562565b91505092959194509250565b60008060408385031215613ded57613dec6134d9565b5b6000613dfb85828601613562565b9250506020613e0c85828601613504565b9150509250929050565b600060208284031215613e2c57613e2b6134d9565b5b6000613e3a84828501613562565b91505092915050565b60008060408385031215613e5a57613e596134d9565b5b6000613e6885828601613504565b9250506020613e798582860161359a565b9150509250929050565b7f43616d706169676e496e666f3a2043616d706169676e20656e64656400000000600082015250565b6000613eb9601c83613c43565b9150613ec482613e83565b602082019050919050565b60006020820190508181036000830152613ee881613eac565b9050919050565b7f43616d706169676e496e666f3a204e6f7420416c6c6f77656400000000000000600082015250565b6000613f25601983613c43565b9150613f3082613eef565b602082019050919050565b60006020820190508181036000830152613f5481613f18565b9050919050565b600081519050613f6a8161354b565b92915050565b600060208284031215613f8657613f856134d9565b5b6000613f9484828501613f5b565b91505092915050565b6000604082019050613fb26000830185613b54565b613fbf60208301846136dd565b9392505050565b600081519050613fd58161365e565b92915050565b600060208284031215613ff157613ff06134d9565b5b6000613fff84828501613fc6565b91505092915050565b7f4e487b7100000000000000000000000000000000000000000000000000000000600052601160045260246000fd5b60006140428261362a565b915061404d8361362a565b9250827fffffffffffffffffffffffffffffffffffffffffffffffffffffffffffffffff0382111561408257614081614008565b5b828201905092915050565b60006140988261362a565b91506140a38361362a565b9250828210156140b6576140b5614008565b5b828203905092915050565b600060a0820190506140d66000830188613b54565b6140e36020830187613b54565b6140f06040830186613634565b6140fd60608301856136dd565b61410a60808301846136dd565b9695505050505050565b7f43616d706169676e496e666f3a20496e76616c696420416d6f756e7400000000600082015250565b600061414a601c83613c43565b915061415582614114565b602082019050919050565b600060208201905081810360008301526141798161413d565b9050919050565b60006060820190506141956000830186613b54565b6141a26020830185613b54565b6141af6040830184613634565b949350505050565b600081519050919050565b600082825260208201905092915050565b6000819050602082019050919050565b6141ec8161362a565b82525050565b60006141fe83836141e3565b60208301905092915050565b6000602082019050919050565b6000614222826141b7565b61422c81856141c2565b9350614237836141d3565b8060005b8381101561426857815161424f88826141f2565b975061425a8361420a565b92505060018101905061423b565b5085935050505092915050565b61427e81613577565b82525050565b600060808301600083015184820360008601526142a18282614217565b915050602083015184820360208601526142bb8282614217565b91505060408301516142d060408601826141e3565b5060608301516142e36060860182614275565b508091505092915050565b60006060820190506143036000830186613b54565b61431060208301856136dd565b81810360408301526143228184614284565b9050949350505050565b7f43616d706169676e496e666f3a2054726561737572792061646472657373206660008201527f6f7220706c6174666f726d206973206e6f742073657400000000000000000000602082015250565b6000614388603683613c43565b91506143938261432c565b604082019050919050565b600060208201905081810360008301526143b78161437b565b9050919050565b7f4e487b7100000000000000000000000000000000000000000000000000000000600052603260045260246000fd5b60006143f88261362a565b91507fffffffffffffffffffffffffffffffffffffffffffffffffffffffffffffffff82141561442b5761442a614008565b5b600182019050919050565b600082825260208201905092915050565b6000614452826141b7565b61445c8185614436565b9350614467836141d3565b8060005b8381101561449857815161447f88826141f2565b975061448a8361420a565b92505060018101905061446b565b5085935050505092915050565b60006060820190506144ba6000830186613634565b6144c76020830185613634565b81810360408301526144d98184614447565b9050949350505050565b60006144f66144f1846137a2565b61377d565b90508083825260208201905060208402830185811115614519576145186137ce565b5b835b81811015614542578061452e8882613fc6565b84526020840193505060208101905061451b565b5050509392505050565b600082601f8301126145615761456061379d565b5b81516145718482602086016144e3565b91505092915050565b6000602082840312156145905761458f6134d9565b5b600082015167ffffffffffffffff8111156145ae576145ad6134de565b5b6145ba8482850161454c565b91505092915050565b7f43616d706169676e496e666f3a204e6f7420616c6c6f77656400000000000000600082015250565b60006145f9601983613c43565b9150614604826145c3565b602082019050919050565b60006020820190508181036000830152614628816145ec565b9050919050565b60006080820190506146446000830187613b54565b6146516020830186613b54565b61465e6040830185613634565b61466b60608301846136dd565b95945050505050565b7f4e487b7100000000000000000000000000000000000000000000000000000000600052602260045260246000fd5b600060028204905060018216806146bb57607f821691505b602082108114156146cf576146ce614674565b5b50919050565b6000815190506146e4816134ed565b92915050565b600080600080600080600060e0888a031215614709576147086134d9565b5b60006147178a828b01613f5b565b97505060206147288a828b01613f5b565b96505060406147398a828b01613f5b565b955050606061474a8a828b01613fc6565b945050608061475b8a828b01613fc6565b93505060a061476c8a828b016146d5565b92505060c061477d8a828b016146d5565b91505092959891949750929550565b7f4f776e61626c653a206e6577206f776e657220697320746865207a65726f206160008201527f6464726573730000000000000000000000000000000000000000000000000000602082015250565b60006147e8602683613c43565b91506147f38261478c565b604082019050919050565b60006020820190508181036000830152614817816147db565b9050919050565b7f43616d706169676e496e666f3a204f726967696e20706c6174666f726d20747260008201527f656173757279206e6f7420736574207965740000000000000000000000000000602082015250565b600061487a603283613c43565b91506148858261481e565b604082019050919050565b600060208201905081810360008301526148a98161486d565b9050919050565b7f5061757361626c653a2070617573656400000000000000000000000000000000600082015250565b60006148e6601083613c43565b91506148f1826148b0565b602082019050919050565b60006020820190508181036000830152614915816148d9565b9050919050565b60008151905061492b81613583565b92915050565b600060208284031215614947576149466134d9565b5b60006149558482850161491c565b91505092915050565b7f4f776e61626c653a2063616c6c6572206973206e6f7420746865206f776e6572600082015250565b6000614994602083613c43565b915061499f8261495e565b602082019050919050565b600060208201905081810360008301526149c381614987565b9050919050565b7f5061757361626c653a206e6f7420706175736564000000000000000000000000600082015250565b6000614a00601483613c43565b9150614a0b826149ca565b602082019050919050565b60006020820190508181036000830152614a2f816149f3565b905091905056fea26469706673582212202217d39d3748e1d87cb56954355e340fceed88d05b9b83103589950f0bb1cc0464736f6c63430008090033",
  "linkReferences": {},
  "deployedLinkReferences": {}
}