{
  "_format": "hh-sol-artifact-1",
  "contractName": "CampaignInfo",
  "sourceName": "contracts/CampaignInfo.sol",
  "abi": [
    {
      "inputs": [
        {
          "internalType": "string",
          "name": "_identifier",
          "type": "string"
        },
        {
          "internalType": "bytes32",
          "name": "_originPlatform",
          "type": "bytes32"
        },
        {
          "internalType": "string",
          "name": "_creatorUrl",
          "type": "string"
        },
        {
          "internalType": "bytes32[]",
          "name": "_reachPlatform",
          "type": "bytes32[]"
        },
        {
          "internalType": "address",
          "name": "_registryAddress",
          "type": "address"
        },
        {
          "internalType": "address",
          "name": "_creator",
          "type": "address"
        },
        {
          "internalType": "uint256",
          "name": "_earlyPledgeAmount",
          "type": "uint256"
        }
      ],
      "stateMutability": "nonpayable",
      "type": "constructor"
    },
    {
      "anonymous": false,
      "inputs": [
        {
          "indexed": true,
          "internalType": "address",
          "name": "previousOwner",
          "type": "address"
        },
        {
          "indexed": true,
          "internalType": "address",
          "name": "newOwner",
          "type": "address"
        }
      ],
      "name": "OwnershipTransferred",
      "type": "event"
    },
    {
      "anonymous": false,
      "inputs": [
        {
          "indexed": false,
          "internalType": "address",
          "name": "account",
          "type": "address"
        }
      ],
      "name": "Paused",
      "type": "event"
    },
    {
      "anonymous": false,
      "inputs": [
        {
          "indexed": false,
          "internalType": "address",
          "name": "account",
          "type": "address"
        }
      ],
      "name": "Unpaused",
      "type": "event"
    },
    {
      "inputs": [
        {
          "internalType": "string",
          "name": "name",
          "type": "string"
        },
        {
          "internalType": "string",
          "name": "description",
          "type": "string"
        }
      ],
      "name": "addItem",
      "outputs": [],
      "stateMutability": "nonpayable",
      "type": "function"
    },
    {
      "inputs": [
        {
          "internalType": "bytes32",
          "name": "_platformId",
          "type": "bytes32"
        }
      ],
      "name": "addReachPlatform",
      "outputs": [],
      "stateMutability": "nonpayable",
      "type": "function"
    },
    {
      "inputs": [
        {
          "internalType": "bool",
          "name": "isAddOn",
          "type": "bool"
        },
        {
          "internalType": "uint256",
          "name": "rewardValue",
          "type": "uint256"
        },
        {
          "internalType": "string",
          "name": "name",
          "type": "string"
        },
        {
          "internalType": "string[]",
          "name": "itemName",
          "type": "string[]"
        },
        {
          "internalType": "uint256[]",
          "name": "itemQuantity",
          "type": "uint256[]"
        }
      ],
      "name": "addReward",
      "outputs": [],
      "stateMutability": "nonpayable",
      "type": "function"
    },
    {
      "inputs": [
        {
          "internalType": "bytes32",
          "name": "platformId",
          "type": "bytes32"
        },
        {
          "internalType": "address",
          "name": "backer",
          "type": "address"
        }
      ],
      "name": "becomeAnEarlyBacker",
      "outputs": [
        {
          "internalType": "uint256",
          "name": "tokenId",
          "type": "uint256"
        }
      ],
      "stateMutability": "nonpayable",
      "type": "function"
    },
    {
      "inputs": [
        {
          "internalType": "address",
          "name": "backer",
          "type": "address"
        },
        {
          "internalType": "uint256",
          "name": "tokenId",
          "type": "uint256"
        }
      ],
      "name": "claimRefundForAReward",
      "outputs": [],
      "stateMutability": "nonpayable",
      "type": "function"
    },
    {
      "inputs": [
        {
          "internalType": "address",
          "name": "backer",
          "type": "address"
        },
        {
          "internalType": "uint256",
          "name": "amount",
          "type": "uint256"
        },
        {
          "internalType": "bytes32",
          "name": "platformId",
          "type": "bytes32"
        }
      ],
      "name": "claimRefundWithoutAReward",
      "outputs": [],
      "stateMutability": "nonpayable",
      "type": "function"
    },
    {
      "inputs": [],
      "name": "end",
      "outputs": [],
      "stateMutability": "nonpayable",
      "type": "function"
    },
    {
      "inputs": [
        {
          "internalType": "address",
          "name": "backer",
          "type": "address"
        },
        {
          "internalType": "bytes32",
          "name": "platformId",
          "type": "bytes32"
        }
      ],
      "name": "getBackerPledgeInfoForAPlatform",
      "outputs": [
        {
          "internalType": "uint256",
          "name": "",
          "type": "uint256"
        }
      ],
      "stateMutability": "view",
      "type": "function"
    },
    {
      "inputs": [],
      "name": "getCampaignData",
      "outputs": [
        {
          "internalType": "string",
          "name": "",
          "type": "string"
        },
        {
          "internalType": "uint256",
          "name": "",
          "type": "uint256"
        },
        {
          "internalType": "uint256",
          "name": "",
          "type": "uint256"
        },
        {
          "internalType": "uint256",
          "name": "",
          "type": "uint256"
        },
        {
          "internalType": "uint256",
          "name": "",
          "type": "uint256"
        },
        {
          "internalType": "string",
          "name": "",
          "type": "string"
        }
      ],
      "stateMutability": "view",
      "type": "function"
    },
    {
      "inputs": [],
      "name": "getCampaignOriginPlatform",
      "outputs": [
        {
          "internalType": "bytes32",
          "name": "",
          "type": "bytes32"
        }
      ],
      "stateMutability": "view",
      "type": "function"
    },
    {
      "inputs": [],
      "name": "getCampaignReachPlatforms",
      "outputs": [
        {
          "internalType": "bytes32[]",
          "name": "",
          "type": "bytes32[]"
        }
      ],
      "stateMutability": "view",
      "type": "function"
    },
    {
      "inputs": [
        {
          "internalType": "bytes32",
          "name": "platformId",
          "type": "bytes32"
        }
      ],
      "name": "getPledgedAmountForAPlatformCrypto",
      "outputs": [
        {
          "internalType": "uint256",
          "name": "",
          "type": "uint256"
        }
      ],
      "stateMutability": "view",
      "type": "function"
    },
    {
      "inputs": [
        {
          "internalType": "bytes32",
          "name": "platformId",
          "type": "bytes32"
        }
      ],
      "name": "getPledgedAmountForPlatformCrypto",
      "outputs": [
        {
          "internalType": "uint256",
          "name": "",
          "type": "uint256"
        }
      ],
      "stateMutability": "view",
      "type": "function"
    },
    {
      "inputs": [],
      "name": "getTotalPledgedAmountCrypto",
      "outputs": [
        {
          "internalType": "uint256",
          "name": "",
          "type": "uint256"
        }
      ],
      "stateMutability": "view",
      "type": "function"
    },
    {
      "inputs": [
        {
          "internalType": "bytes32",
          "name": "platformId",
          "type": "bytes32"
        }
      ],
      "name": "getTreasuryAddress",
      "outputs": [
        {
          "internalType": "address",
          "name": "",
          "type": "address"
        }
      ],
      "stateMutability": "view",
      "type": "function"
    },
    {
      "inputs": [],
      "name": "owner",
      "outputs": [
        {
          "internalType": "address",
          "name": "",
          "type": "address"
        }
      ],
      "stateMutability": "view",
      "type": "function"
    },
    {
      "inputs": [],
      "name": "pause",
      "outputs": [],
      "stateMutability": "nonpayable",
      "type": "function"
    },
    {
      "inputs": [],
      "name": "paused",
      "outputs": [
        {
          "internalType": "bool",
          "name": "",
          "type": "bool"
        }
      ],
      "stateMutability": "view",
      "type": "function"
    },
    {
      "inputs": [
        {
          "internalType": "bytes32",
          "name": "platformId",
          "type": "bytes32"
        },
        {
          "internalType": "address",
          "name": "backer",
          "type": "address"
        },
        {
          "internalType": "string",
          "name": "rewardName",
          "type": "string"
        },
        {
          "internalType": "string",
          "name": "addOnName",
          "type": "string"
        }
      ],
      "name": "pledgeForAReward",
      "outputs": [
        {
          "internalType": "uint256",
          "name": "tokenId",
          "type": "uint256"
        }
      ],
      "stateMutability": "nonpayable",
      "type": "function"
    },
    {
      "inputs": [
        {
          "internalType": "bytes32",
          "name": "platformId",
          "type": "bytes32"
        },
        {
          "internalType": "address",
          "name": "backer",
          "type": "address"
        },
        {
          "internalType": "uint256",
          "name": "amount",
          "type": "uint256"
        }
      ],
      "name": "pledgeWithoutAReward",
      "outputs": [],
      "stateMutability": "nonpayable",
      "type": "function"
    },
    {
      "inputs": [],
      "name": "renounceOwnership",
      "outputs": [],
      "stateMutability": "nonpayable",
      "type": "function"
    },
    {
      "inputs": [],
      "name": "rewardedPlatform",
      "outputs": [
        {
          "internalType": "bytes32",
          "name": "",
          "type": "bytes32"
        }
      ],
      "stateMutability": "view",
      "type": "function"
    },
    {
      "inputs": [
        {
          "internalType": "uint256",
          "name": "launchTime",
          "type": "uint256"
        },
        {
          "internalType": "uint256",
          "name": "deadline",
          "type": "uint256"
        },
        {
          "internalType": "uint256",
          "name": "goalAmount",
          "type": "uint256"
        },
        {
          "internalType": "bool",
          "name": "enableLatePledge",
          "type": "bool"
        }
      ],
      "name": "setLaunch",
      "outputs": [],
      "stateMutability": "nonpayable",
      "type": "function"
    },
    {
      "inputs": [
        {
          "internalType": "bytes32",
          "name": "_platformId",
          "type": "bytes32"
        },
        {
          "internalType": "address",
          "name": "_platformWallet",
          "type": "address"
        },
        {
          "internalType": "address",
          "name": "_treasury",
          "type": "address"
        },
        {
          "internalType": "address",
          "name": "_token",
          "type": "address"
        }
      ],
      "name": "setPlatformInfo",
      "outputs": [],
      "stateMutability": "nonpayable",
      "type": "function"
    },
    {
      "inputs": [],
      "name": "specifiedTime",
      "outputs": [
        {
          "internalType": "uint256",
          "name": "",
          "type": "uint256"
        }
      ],
      "stateMutability": "view",
      "type": "function"
    },
    {
      "inputs": [],
      "name": "splitFeesProportionately",
      "outputs": [],
      "stateMutability": "nonpayable",
      "type": "function"
    },
    {
      "inputs": [
        {
          "internalType": "address",
          "name": "newOwner",
          "type": "address"
        }
      ],
      "name": "transferOwnership",
      "outputs": [],
      "stateMutability": "nonpayable",
      "type": "function"
    },
    {
      "inputs": [],
      "name": "unpause",
      "outputs": [],
      "stateMutability": "nonpayable",
      "type": "function"
    },
    {
      "inputs": [
        {
          "internalType": "uint256",
          "name": "_deadline",
          "type": "uint256"
        }
      ],
      "name": "updateDeadline",
      "outputs": [],
      "stateMutability": "nonpayable",
      "type": "function"
    },
    {
      "inputs": [
        {
          "internalType": "uint256",
          "name": "_goalAmount",
          "type": "uint256"
        }
      ],
      "name": "updateGoal",
      "outputs": [],
      "stateMutability": "nonpayable",
      "type": "function"
    },
    {
      "inputs": [
        {
          "internalType": "uint256",
          "name": "_launchTime",
          "type": "uint256"
        }
      ],
      "name": "updateLaunchTime",
      "outputs": [],
      "stateMutability": "nonpayable",
      "type": "function"
    }
  ],
  "bytecode": "0x60806040523480156200001157600080fd5b506040516200508d3803806200508d8339818101604052810190620000379190620007d6565b620000576200004b6200014560201b60201c565b6200014d60201b60201c565b60008060146101000a81548160ff02191690831515021790555086600460000190805190602001906200008c92919062000362565b50856004600101819055504260048001819055508460046006019080519060200190620000bb92919062000362565b508360046007019080519060200190620000d7929190620003f3565b5082600c60006101000a81548173ffffffffffffffffffffffffffffffffffffffff021916908373ffffffffffffffffffffffffffffffffffffffff1602179055504260118190555062000131826200021160201b60201c565b80600e819055505050505050505062000a66565b600033905090565b60008060009054906101000a900473ffffffffffffffffffffffffffffffffffffffff169050816000806101000a81548173ffffffffffffffffffffffffffffffffffffffff021916908373ffffffffffffffffffffffffffffffffffffffff1602179055508173ffffffffffffffffffffffffffffffffffffffff168173ffffffffffffffffffffffffffffffffffffffff167f8be0079c531659141344cd1fd0a4f28419497f9722a3daafe3b4186f6b6457e060405160405180910390a35050565b62000221620002a860201b60201c565b600073ffffffffffffffffffffffffffffffffffffffff168173ffffffffffffffffffffffffffffffffffffffff16141562000294576040517f08c379a00000000000000000000000000000000000000000000000000000000081526004016200028b906200096d565b60405180910390fd5b620002a5816200014d60201b60201c565b50565b620002b86200014560201b60201c565b73ffffffffffffffffffffffffffffffffffffffff16620002de6200033960201b60201c565b73ffffffffffffffffffffffffffffffffffffffff161462000337576040517f08c379a00000000000000000000000000000000000000000000000000000000081526004016200032e90620009df565b60405180910390fd5b565b60008060009054906101000a900473ffffffffffffffffffffffffffffffffffffffff16905090565b828054620003709062000a30565b90600052602060002090601f016020900481019282620003945760008555620003e0565b82601f10620003af57805160ff1916838001178555620003e0565b82800160010185558215620003e0579182015b82811115620003df578251825591602001919060010190620003c2565b5b509050620003ef919062000445565b5090565b82805482825590600052602060002090810192821562000432579160200282015b828111156200043157825182559160200191906001019062000414565b5b50905062000441919062000464565b5090565b5b808211156200046057600081600090555060010162000446565b5090565b5b808211156200047f57600081600090555060010162000465565b5090565b6000604051905090565b600080fd5b600080fd5b600080fd5b600080fd5b6000601f19601f8301169050919050565b7f4e487b7100000000000000000000000000000000000000000000000000000000600052604160045260246000fd5b620004ec82620004a1565b810181811067ffffffffffffffff821117156200050e576200050d620004b2565b5b80604052505050565b60006200052362000483565b9050620005318282620004e1565b919050565b600067ffffffffffffffff821115620005545762000553620004b2565b5b6200055f82620004a1565b9050602081019050919050565b60005b838110156200058c5780820151818401526020810190506200056f565b838111156200059c576000848401525b50505050565b6000620005b9620005b38462000536565b62000517565b905082815260208101848484011115620005d857620005d76200049c565b5b620005e58482856200056c565b509392505050565b600082601f83011262000605576200060462000497565b5b815162000617848260208601620005a2565b91505092915050565b6000819050919050565b620006358162000620565b81146200064157600080fd5b50565b60008151905062000655816200062a565b92915050565b600067ffffffffffffffff821115620006795762000678620004b2565b5b602082029050602081019050919050565b600080fd5b6000620006a6620006a0846200065b565b62000517565b90508083825260208201905060208402830185811115620006cc57620006cb6200068a565b5b835b81811015620006f95780620006e4888262000644565b845260208401935050602081019050620006ce565b5050509392505050565b600082601f8301126200071b576200071a62000497565b5b81516200072d8482602086016200068f565b91505092915050565b600073ffffffffffffffffffffffffffffffffffffffff82169050919050565b6000620007638262000736565b9050919050565b620007758162000756565b81146200078157600080fd5b50565b60008151905062000795816200076a565b92915050565b6000819050919050565b620007b0816200079b565b8114620007bc57600080fd5b50565b600081519050620007d081620007a5565b92915050565b600080600080600080600060e0888a031215620007f857620007f76200048d565b5b600088015167ffffffffffffffff81111562000819576200081862000492565b5b620008278a828b01620005ed565b97505060206200083a8a828b0162000644565b965050604088015167ffffffffffffffff8111156200085e576200085d62000492565b5b6200086c8a828b01620005ed565b955050606088015167ffffffffffffffff81111562000890576200088f62000492565b5b6200089e8a828b0162000703565b9450506080620008b18a828b0162000784565b93505060a0620008c48a828b0162000784565b92505060c0620008d78a828b01620007bf565b91505092959891949750929550565b600082825260208201905092915050565b7f4f776e61626c653a206e6577206f776e657220697320746865207a65726f206160008201527f6464726573730000000000000000000000000000000000000000000000000000602082015250565b600062000955602683620008e6565b91506200096282620008f7565b604082019050919050565b60006020820190508181036000830152620009888162000946565b9050919050565b7f4f776e61626c653a2063616c6c6572206973206e6f7420746865206f776e6572600082015250565b6000620009c7602083620008e6565b9150620009d4826200098f565b602082019050919050565b60006020820190508181036000830152620009fa81620009b8565b9050919050565b7f4e487b7100000000000000000000000000000000000000000000000000000000600052602260045260246000fd5b6000600282049050600182168062000a4957607f821691505b6020821081141562000a605762000a5f62000a01565b5b50919050565b6146178062000a766000396000f3fe608060405234801561001057600080fd5b50600436106101e55760003560e01c80637ed8a7191161010f578063c4176338116100a2578063efbe1c1c11610071578063efbe1c1c1461050d578063f2fde38b14610517578063f840367614610533578063fb7846df14610551576101e5565b8063c417633814610482578063c512ad4c146104a5578063deaaf241146104c1578063e12900f2146104dd576101e5565b80638da5cb5b116100de5780638da5cb5b146103fa578063a0797f7514610418578063b1c1f7f214610436578063b704daf014610452576101e5565b80637ed8a7191461038857806383d23ab3146103a45780638456cb59146103c057806384ea5c74146103ca576101e5565b80633f4ba83a11610187578063695c27c211610156578063695c27c21461033a578063715018a6146103565780637568173b146103605780637712b1721461036a576101e5565b80633f4ba83a146102da57806342af1884146102e45780635c975abb1461030057806368027e431461031e576101e5565b80632e162db6116101c35780632e162db61461024057806330c00b001461025e578063316fb7c41461028e57806337724c75146102aa576101e5565b806311d6081c146101ea57806318b90a94146102065780631957612414610222575b600080fd5b61020460048036038101906101ff9190612f74565b610581565b005b610220600480360381019061021b9190613349565b610754565b005b61022a61084f565b604051610237919061342a565b60405180910390f35b610248610855565b6040516102559190613503565b60405180910390f35b61027860048036038101906102739190613525565b6108b0565b6040516102859190613561565b60405180910390f35b6102a860048036038101906102a3919061357c565b610a4d565b005b6102c460048036038101906102bf91906135a9565b610ab2565b6040516102d19190613561565b60405180910390f35b6102e2610da3565b005b6102fe60048036038101906102f9919061357c565b610e05565b005b610308610e88565b60405161031591906135f8565b60405180910390f35b6103386004803603810190610333919061357c565b610e9e565b005b610354600480360381019061034f9190613613565b610f21565b005b61035e610f7a565b005b610368610f8e565b005b61037261146e565b60405161037f9190613561565b60405180910390f35b6103a2600480360381019061039d919061367a565b611474565b005b6103be60048036038101906103b99190613525565b6114ad565b005b6103c8611534565b005b6103e460048036038101906103df9190613525565b611596565b6040516103f1919061370a565b60405180910390f35b610402611678565b60405161040f919061370a565b60405180910390f35b6104206116a1565b60405161042d919061342a565b60405180910390f35b610450600480360381019061044b9190613725565b6116ae565b005b61046c60048036038101906104679190613778565b6118e2565b6040516104799190613561565b60405180910390f35b61048a611cf6565b60405161049c969594939291906138a7565b60405180910390f35b6104bf60048036038101906104ba9190613916565b611e4d565b005b6104db60048036038101906104d69190613956565b612112565b005b6104f760048036038101906104f291906139bd565b612266565b6040516105049190613561565b60405180910390f35b6105156122c1565b005b610531600480360381019061052c91906139fd565b612336565b005b61053b6123ba565b6040516105489190613561565b60405180910390f35b61056b60048036038101906105669190613525565b612725565b6040516105789190613561565b60405180910390f35b6000601560008573ffffffffffffffffffffffffffffffffffffffff1673ffffffffffffffffffffffffffffffffffffffff168152602001908152602001600020600083815260200190815260200160002054905080831115610619576040517f08c379a000000000000000000000000000000000000000000000000000000000815260040161061090613a76565b60405180910390fd5b82816106259190613ac5565b601560008673ffffffffffffffffffffffffffffffffffffffff1673ffffffffffffffffffffffffffffffffffffffff1681526020019081526020016000206000848152602001908152602001600020819055506012600083815260200190815260200160002060009054906101000a900473ffffffffffffffffffffffffffffffffffffffff1673ffffffffffffffffffffffffffffffffffffffff166360a56b3a856013600086815260200190815260200160002060009054906101000a900473ffffffffffffffffffffffffffffffffffffffff16866040518463ffffffff1660e01b815260040161071c93929190613af9565b600060405180830381600087803b15801561073657600080fd5b505af115801561074a573d6000803e3d6000fd5b5050505050505050565b600086610782576001858560405161076d929190613b60565b908152602001604051809103902090506107a5565b60028585604051610794929190613b60565b908152602001604051809103902090505b858160000181905550828160020190805190602001906107c6929190612ca9565b5060008251905060005b81811015610844578381815181106107eb576107ea613b79565b5b60200260200101518360030186838151811061080a57610809613b79565b5b602002602001015160405161081f9190613bd9565b908152602001604051809103902081905550808061083c90613bf0565b9150506107d0565b505050505050505050565b60105481565b606060046007018054806020026020016040519081016040528092919081815260200182805480156108a657602002820191906000526020600020905b815481526020019060010190808311610892575b5050505050905090565b600081600073ffffffffffffffffffffffffffffffffffffffff166012600083815260200190815260200160002060009054906101000a900473ffffffffffffffffffffffffffffffffffffffff1673ffffffffffffffffffffffffffffffffffffffff161415610956576040517f08c379a000000000000000000000000000000000000000000000000000000000815260040161094d90613cab565b60405180910390fd5b6013600084815260200190815260200160002060009054906101000a900473ffffffffffffffffffffffffffffffffffffffff1673ffffffffffffffffffffffffffffffffffffffff166370a082316012600086815260200190815260200160002060009054906101000a900473ffffffffffffffffffffffffffffffffffffffff166040518263ffffffff1660e01b81526004016109f5919061370a565b60206040518083038186803b158015610a0d57600080fd5b505afa158015610a21573d6000803e3d6000fd5b505050506040513d601f19601f82011682018060405250810190610a459190613ce0565b915050919050565b600c60149054906101000a900460ff1615610a9d576040517f08c379a0000000000000000000000000000000000000000000000000000000008152600401610a9490613d59565b60405180910390fd5b610aa561281d565b8060046002018190555050565b6000600c60149054906101000a900460ff1615610b04576040517f08c379a0000000000000000000000000000000000000000000000000000000008152600401610afb90613d59565b60405180910390fd5b610b0c61289b565b600f60009054906101000a900460ff161580610b2c575042600460030154115b610b6b576040517f08c379a0000000000000000000000000000000000000000000000000000000008152600401610b6290613dc5565b60405180910390fd5b60006013600085815260200190815260200160002060009054906101000a900473ffffffffffffffffffffffffffffffffffffffff1690508073ffffffffffffffffffffffffffffffffffffffff166323b872dd846012600088815260200190815260200160002060009054906101000a900473ffffffffffffffffffffffffffffffffffffffff16600e546040518463ffffffff1660e01b8152600401610c1593929190613af9565b602060405180830381600087803b158015610c2f57600080fd5b505af1158015610c43573d6000803e3d6000fd5b505050506040513d601f19601f82011682018060405250810190610c679190613dfa565b50600c60009054906101000a900473ffffffffffffffffffffffffffffffffffffffff1673ffffffffffffffffffffffffffffffffffffffff166330525f666040518163ffffffff1660e01b815260040160206040518083038186803b158015610cd057600080fd5b505afa158015610ce4573d6000803e3d6000fd5b505050506040513d601f19601f82011682018060405250810190610d089190613e3c565b73ffffffffffffffffffffffffffffffffffffffff16638e48312f8483600e54886040518563ffffffff1660e01b8152600401610d489493929190613e69565b602060405180830381600087803b158015610d6257600080fd5b505af1158015610d76573d6000803e3d6000fd5b505050506040513d601f19601f82011682018060405250810190610d9a9190613ce0565b91505092915050565b600c60149054906101000a900460ff1615610df3576040517f08c379a0000000000000000000000000000000000000000000000000000000008152600401610dea90613d59565b60405180910390fd5b610dfb61281d565b610e036128e5565b565b600c60149054906101000a900460ff1615610e55576040517f08c379a0000000000000000000000000000000000000000000000000000000008152600401610e4c90613d59565b60405180910390fd5b610e5d61281d565b80600d54600460030154610e719190613eae565b10610e7b57600080fd5b8060046005018190555050565b60008060149054906101000a900460ff16905090565b600c60149054906101000a900460ff1615610eee576040517f08c379a0000000000000000000000000000000000000000000000000000000008152600401610ee590613d59565b60405180910390fd5b610ef661281d565b600460050154600d5482610f0a9190613eae565b10610f1457600080fd5b8060046003018190555050565b83600460030181905550826004600501819055508160046002018190555080600f60016101000a81548160ff0219169083151502179055506001600f60006101000a81548160ff02191690831515021790555050505050565b610f8261281d565b610f8c6000612947565b565b6000600c60009054906101000a900473ffffffffffffffffffffffffffffffffffffffff1673ffffffffffffffffffffffffffffffffffffffff16635bad43996040518163ffffffff1660e01b815260040160206040518083038186803b158015610ff857600080fd5b505afa15801561100c573d6000803e3d6000fd5b505050506040513d601f19601f820116820180604052508101906110309190613e3c565b90506000600460070180548060200260200160405190810160405280929190818152602001828054801561108357602002820191906000526020600020905b81548152602001906001019080831161106f575b5050505050905060006001825161109a9190613eae565b67ffffffffffffffff8111156110b3576110b2613075565b5b6040519080825280602002602001820160405280156110e15781602001602082028036833780820191505090505b5090506000600183516110f49190613eae565b67ffffffffffffffff81111561110d5761110c613075565b5b60405190808252806020026020018201604052801561113b5781602001602082028036833780820191505090505b50905060005b83518110156111d95783818151811061115d5761115c613b79565b5b602002602001015183828151811061117857611177613b79565b5b6020026020010181815250506111a784828151811061119a57611199613b79565b5b60200260200101516108b0565b8282815181106111ba576111b9613b79565b5b60200260200101818152505080806111d190613bf0565b915050611141565b50600460010154828451815181106111f4576111f3613b79565b5b60200260200101818152505061120e6004600101546108b0565b8184518151811061122257611221613b79565b5b6020026020010181815250506000600c60009054906101000a900473ffffffffffffffffffffffffffffffffffffffff1673ffffffffffffffffffffffffffffffffffffffff16630eeaef466040518163ffffffff1660e01b815260040160206040518083038186803b15801561129857600080fd5b505afa1580156112ac573d6000803e3d6000fd5b505050506040513d601f19601f820116820180604052508101906112d09190613e3c565b73ffffffffffffffffffffffffffffffffffffffff1663bdec30ba8673ffffffffffffffffffffffffffffffffffffffff16638274f2d66040518163ffffffff1660e01b815260040160206040518083038186803b15801561133157600080fd5b505afa158015611345573d6000803e3d6000fd5b505050506040513d601f19601f820116820180604052508101906113699190613ce0565b8773ffffffffffffffffffffffffffffffffffffffff1663fe6f1b056040518163ffffffff1660e01b815260040160206040518083038186803b1580156113af57600080fd5b505afa1580156113c3573d6000803e3d6000fd5b505050506040513d601f19601f820116820180604052508101906113e79190613ce0565b856040518463ffffffff1660e01b815260040161140693929190613fc2565b60006040518083038186803b15801561141e57600080fd5b505afa158015611432573d6000803e3d6000fd5b505050506040513d6000823e3d601f19601f8201168201806040525081019061145b9190614097565b90506114678382612a0b565b5050505050565b60115481565b818160038686604051611488929190613b60565b908152602001604051809103902060000191906114a6929190612d09565b5050505050565b600c60149054906101000a900460ff16156114fd576040517f08c379a00000000000000000000000000000000000000000000000000000000081526004016114f490613d59565b60405180910390fd5b61150561281d565b600460070181908060018154018082558091505060019003906000526020600020016000909190919091505550565b600c60149054906101000a900460ff1615611584576040517f08c379a000000000000000000000000000000000000000000000000000000000815260040161157b90613d59565b60405180910390fd5b61158c61281d565b611594612a73565b565b600081600073ffffffffffffffffffffffffffffffffffffffff166012600083815260200190815260200160002060009054906101000a900473ffffffffffffffffffffffffffffffffffffffff1673ffffffffffffffffffffffffffffffffffffffff16141561163c576040517f08c379a000000000000000000000000000000000000000000000000000000000815260040161163390613cab565b60405180910390fd5b6012600084815260200190815260200160002060009054906101000a900473ffffffffffffffffffffffffffffffffffffffff16915050919050565b60008060009054906101000a900473ffffffffffffffffffffffffffffffffffffffff16905090565b6000600460010154905090565b600c60149054906101000a900460ff16156116fe576040517f08c379a00000000000000000000000000000000000000000000000000000000081526004016116f590613d59565b60405180910390fd5b61170661289b565b42600460050154101561177b576004600201546117216123ba565b1015801561173b5750600f60019054906101000a900460ff165b61177a576040517f08c379a000000000000000000000000000000000000000000000000000000000815260040161177190613dc5565b60405180910390fd5b5b426004600301541061178c57600080fd5b60006013600085815260200190815260200160002060009054906101000a900473ffffffffffffffffffffffffffffffffffffffff1690508073ffffffffffffffffffffffffffffffffffffffff166323b872dd846012600088815260200190815260200160002060009054906101000a900473ffffffffffffffffffffffffffffffffffffffff16856040518463ffffffff1660e01b815260040161183493929190613af9565b602060405180830381600087803b15801561184e57600080fd5b505af1158015611862573d6000803e3d6000fd5b505050506040513d601f19601f820116820180604052508101906118869190613dfa565b5081601560008573ffffffffffffffffffffffffffffffffffffffff1673ffffffffffffffffffffffffffffffffffffffff16815260200190815260200160002060008681526020019081526020016000208190555050505050565b6000600c60149054906101000a900460ff1615611934576040517f08c379a000000000000000000000000000000000000000000000000000000000815260040161192b90613d59565b60405180910390fd5b61193c61289b565b600f60009054906101000a900460ff16801561195c575042600460030154105b61199b576040517f08c379a00000000000000000000000000000000000000000000000000000000081526004016119929061412c565b60405180910390fd5b60006013600089815260200190815260200160002060009054906101000a900473ffffffffffffffffffffffffffffffffffffffff1690506000600285856040516119e7929190613b60565b90815260200160405180910390206000015460018888604051611a0b929190613b60565b908152602001604051809103902060000154611a279190613eae565b9050601660008973ffffffffffffffffffffffffffffffffffffffff1673ffffffffffffffffffffffffffffffffffffffff16815260200190815260200160002060009054906101000a900460ff1615611ae457600e5481611a899190613ac5565b90506000601660008a73ffffffffffffffffffffffffffffffffffffffff1673ffffffffffffffffffffffffffffffffffffffff16815260200190815260200160002060006101000a81548160ff0219169083151502179055505b8173ffffffffffffffffffffffffffffffffffffffff166323b872dd89601260008d815260200190815260200160002060009054906101000a900473ffffffffffffffffffffffffffffffffffffffff16846040518463ffffffff1660e01b8152600401611b5493929190613af9565b602060405180830381600087803b158015611b6e57600080fd5b505af1158015611b82573d6000803e3d6000fd5b505050506040513d601f19601f82011682018060405250810190611ba69190613dfa565b50600c60009054906101000a900473ffffffffffffffffffffffffffffffffffffffff1673ffffffffffffffffffffffffffffffffffffffff166330525f666040518163ffffffff1660e01b815260040160206040518083038186803b158015611c0f57600080fd5b505afa158015611c23573d6000803e3d6000fd5b505050506040513d601f19601f82011682018060405250810190611c479190613e3c565b73ffffffffffffffffffffffffffffffffffffffff16634ebc0c198984600e5485611c729190613eae565b8d8c8c6040518763ffffffff1660e01b8152600401611c9696959493929190614179565b602060405180830381600087803b158015611cb057600080fd5b505af1158015611cc4573d6000803e3d6000fd5b505050506040513d601f19601f82011682018060405250810190611ce89190613ce0565b925050509695505050505050565b60606000806000806060600460000160046002015460046003015460048001546004600501546004600601858054611d2d90614204565b80601f0160208091040260200160405190810160405280929190818152602001828054611d5990614204565b8015611da65780601f10611d7b57610100808354040283529160200191611da6565b820191906000526020600020905b815481529060010190602001808311611d8957829003601f168201915b50505050509550808054611db990614204565b80601f0160208091040260200160405190810160405280929190818152602001828054611de590614204565b8015611e325780601f10611e0757610100808354040283529160200191611e32565b820191906000526020600020905b815481529060010190602001808311611e1557829003601f168201915b50505050509050955095509550955095509550909192939495565b6000600c60009054906101000a900473ffffffffffffffffffffffffffffffffffffffff1673ffffffffffffffffffffffffffffffffffffffff166330525f666040518163ffffffff1660e01b815260040160206040518083038186803b158015611eb757600080fd5b505afa158015611ecb573d6000803e3d6000fd5b505050506040513d601f19601f82011682018060405250810190611eef9190613e3c565b9050606060008273ffffffffffffffffffffffffffffffffffffffff1663c20c42f8856040518263ffffffff1660e01b8152600401611f2e9190613561565b60006040518083038186803b158015611f4657600080fd5b505afa158015611f5a573d6000803e3d6000fd5b505050506040513d6000823e3d601f19601f82011682018060405250810190611f8391906142bb565b9091929394955090919293945090919293509091925090915080935081925050506000600183604051611fb69190613bd9565b90815260200160405180910390206000015490508373ffffffffffffffffffffffffffffffffffffffff166342966c68866040518263ffffffff1660e01b81526004016120039190613561565b600060405180830381600087803b15801561201d57600080fd5b505af1158015612031573d6000803e3d6000fd5b505050506012600083815260200190815260200160002060009054906101000a900473ffffffffffffffffffffffffffffffffffffffff1673ffffffffffffffffffffffffffffffffffffffff166360a56b3a876013600086815260200190815260200160002060009054906101000a900473ffffffffffffffffffffffffffffffffffffffff16846040518463ffffffff1660e01b81526004016120d893929190613af9565b600060405180830381600087803b1580156120f257600080fd5b505af1158015612106573d6000803e3d6000fd5b50505050505050505050565b600c60149054906101000a900460ff1615612162576040517f08c379a000000000000000000000000000000000000000000000000000000000815260040161215990613d59565b60405180910390fd5b61216a61281d565b826014600086815260200190815260200160002060006101000a81548173ffffffffffffffffffffffffffffffffffffffff021916908373ffffffffffffffffffffffffffffffffffffffff160217905550816012600086815260200190815260200160002060006101000a81548173ffffffffffffffffffffffffffffffffffffffff021916908373ffffffffffffffffffffffffffffffffffffffff160217905550806013600086815260200190815260200160002060006101000a81548173ffffffffffffffffffffffffffffffffffffffff021916908373ffffffffffffffffffffffffffffffffffffffff16021790555050505050565b6000601560008473ffffffffffffffffffffffffffffffffffffffff1673ffffffffffffffffffffffffffffffffffffffff168152602001908152602001600020600083815260200190815260200160002054905092915050565b600c60149054906101000a900460ff1615612311576040517f08c379a000000000000000000000000000000000000000000000000000000000815260040161230890613d59565b60405180910390fd5b61231961281d565b6001600c60146101000a81548160ff021916908315150217905550565b61233e61281d565b600073ffffffffffffffffffffffffffffffffffffffff168173ffffffffffffffffffffffffffffffffffffffff1614156123ae576040517f08c379a00000000000000000000000000000000000000000000000000000000081526004016123a5906143eb565b60405180910390fd5b6123b781612947565b50565b60008060126000600460010154815260200190815260200160002060009054906101000a900473ffffffffffffffffffffffffffffffffffffffff169050600073ffffffffffffffffffffffffffffffffffffffff168173ffffffffffffffffffffffffffffffffffffffff161415612468576040517f08c379a000000000000000000000000000000000000000000000000000000000815260040161245f9061447d565b60405180910390fd5b600060046007018054806020026020016040519081016040528092919081815260200182805480156124b957602002820191906000526020600020905b8154815260200190600101908083116124a5575b50505050509050600081519050600060136000600460010154815260200190815260200160002060009054906101000a900473ffffffffffffffffffffffffffffffffffffffff1673ffffffffffffffffffffffffffffffffffffffff166370a08231856040518263ffffffff1660e01b8152600401612539919061370a565b60206040518083038186803b15801561255157600080fd5b505afa158015612565573d6000803e3d6000fd5b505050506040513d601f19601f820116820180604052508101906125899190613ce0565b905060005b8281101561271a576000601260008684815181106125af576125ae613b79565b5b6020026020010151815260200190815260200160002060009054906101000a900473ffffffffffffffffffffffffffffffffffffffff16905060006013600087858151811061260157612600613b79565b5b6020026020010151815260200190815260200160002060009054906101000a900473ffffffffffffffffffffffffffffffffffffffff169050600073ffffffffffffffffffffffffffffffffffffffff168273ffffffffffffffffffffffffffffffffffffffff1614612705578073ffffffffffffffffffffffffffffffffffffffff166370a08231836040518263ffffffff1660e01b81526004016126a7919061370a565b60206040518083038186803b1580156126bf57600080fd5b505afa1580156126d3573d6000803e3d6000fd5b505050506040513d601f19601f820116820180604052508101906126f79190613ce0565b846127029190613eae565b93505b5050808061271290613bf0565b91505061258e565b508094505050505090565b60006013600083815260200190815260200160002060009054906101000a900473ffffffffffffffffffffffffffffffffffffffff1673ffffffffffffffffffffffffffffffffffffffff166370a082316012600085815260200190815260200160002060009054906101000a900473ffffffffffffffffffffffffffffffffffffffff166040518263ffffffff1660e01b81526004016127c6919061370a565b60206040518083038186803b1580156127de57600080fd5b505afa1580156127f2573d6000803e3d6000fd5b505050506040513d601f19601f820116820180604052508101906128169190613ce0565b9050919050565b612825612ad6565b73ffffffffffffffffffffffffffffffffffffffff16612843611678565b73ffffffffffffffffffffffffffffffffffffffff1614612899576040517f08c379a0000000000000000000000000000000000000000000000000000000008152600401612890906144e9565b60405180910390fd5b565b6128a3610e88565b156128e3576040517f08c379a00000000000000000000000000000000000000000000000000000000081526004016128da90614555565b60405180910390fd5b565b6128ed612ade565b60008060146101000a81548160ff0219169083151502179055507f5db9ee0a495bf2e6ff9c91a7834c1ba4fdd244a5e8aa4e537bd38aeae4b073aa612930612ad6565b60405161293d919061370a565b60405180910390a1565b60008060009054906101000a900473ffffffffffffffffffffffffffffffffffffffff169050816000806101000a81548173ffffffffffffffffffffffffffffffffffffffff021916908373ffffffffffffffffffffffffffffffffffffffff1602179055508173ffffffffffffffffffffffffffffffffffffffff168173ffffffffffffffffffffffffffffffffffffffff167f8be0079c531659141344cd1fd0a4f28419497f9722a3daafe3b4186f6b6457e060405160405180910390a35050565b60008251905060005b81811015612a6d57612a5a848281518110612a3257612a31613b79565b5b6020026020010151848381518110612a4d57612a4c613b79565b5b6020026020010151612b27565b8080612a6590613bf0565b915050612a14565b50505050565b612a7b61289b565b6001600060146101000a81548160ff0219169083151502179055507f62e78cea01bee320cd4e420270b5ea74000d11b0c9f74754ebdbfc544b05a258612abf612ad6565b604051612acc919061370a565b60405180910390a1565b600033905090565b612ae6610e88565b612b25576040517f08c379a0000000000000000000000000000000000000000000000000000000008152600401612b1c906145c1565b60405180910390fd5b565b600081118015612b975750600073ffffffffffffffffffffffffffffffffffffffff166012600084815260200190815260200160002060009054906101000a900473ffffffffffffffffffffffffffffffffffffffff1673ffffffffffffffffffffffffffffffffffffffff1614155b15612ca5576012600083815260200190815260200160002060009054906101000a900473ffffffffffffffffffffffffffffffffffffffff1673ffffffffffffffffffffffffffffffffffffffff166360a56b3a6014600085815260200190815260200160002060009054906101000a900473ffffffffffffffffffffffffffffffffffffffff166013600086815260200190815260200160002060009054906101000a900473ffffffffffffffffffffffffffffffffffffffff16846040518463ffffffff1660e01b8152600401612c7293929190613af9565b600060405180830381600087803b158015612c8c57600080fd5b505af1158015612ca0573d6000803e3d6000fd5b505050505b5050565b828054828255906000526020600020908101928215612cf8579160200282015b82811115612cf7578251829080519060200190612ce7929190612d8f565b5091602001919060010190612cc9565b5b509050612d059190612e15565b5090565b828054612d1590614204565b90600052602060002090601f016020900481019282612d375760008555612d7e565b82601f10612d5057803560ff1916838001178555612d7e565b82800160010185558215612d7e579182015b82811115612d7d578235825591602001919060010190612d62565b5b509050612d8b9190612e39565b5090565b828054612d9b90614204565b90600052602060002090601f016020900481019282612dbd5760008555612e04565b82601f10612dd657805160ff1916838001178555612e04565b82800160010185558215612e04579182015b82811115612e03578251825591602001919060010190612de8565b5b509050612e119190612e39565b5090565b5b80821115612e355760008181612e2c9190612e56565b50600101612e16565b5090565b5b80821115612e52576000816000905550600101612e3a565b5090565b508054612e6290614204565b6000825580601f10612e745750612e93565b601f016020900490600052602060002090810190612e929190612e39565b5b50565b6000604051905090565b600080fd5b600080fd5b600073ffffffffffffffffffffffffffffffffffffffff82169050919050565b6000612ed582612eaa565b9050919050565b612ee581612eca565b8114612ef057600080fd5b50565b600081359050612f0281612edc565b92915050565b6000819050919050565b612f1b81612f08565b8114612f2657600080fd5b50565b600081359050612f3881612f12565b92915050565b6000819050919050565b612f5181612f3e565b8114612f5c57600080fd5b50565b600081359050612f6e81612f48565b92915050565b600080600060608486031215612f8d57612f8c612ea0565b5b6000612f9b86828701612ef3565b9350506020612fac86828701612f29565b9250506040612fbd86828701612f5f565b9150509250925092565b60008115159050919050565b612fdc81612fc7565b8114612fe757600080fd5b50565b600081359050612ff981612fd3565b92915050565b600080fd5b600080fd5b600080fd5b60008083601f84011261302457613023612fff565b5b8235905067ffffffffffffffff81111561304157613040613004565b5b60208301915083600182028301111561305d5761305c613009565b5b9250929050565b6000601f19601f8301169050919050565b7f4e487b7100000000000000000000000000000000000000000000000000000000600052604160045260246000fd5b6130ad82613064565b810181811067ffffffffffffffff821117156130cc576130cb613075565b5b80604052505050565b60006130df612e96565b90506130eb82826130a4565b919050565b600067ffffffffffffffff82111561310b5761310a613075565b5b602082029050602081019050919050565b600080fd5b600067ffffffffffffffff82111561313c5761313b613075565b5b61314582613064565b9050602081019050919050565b82818337600083830152505050565b600061317461316f84613121565b6130d5565b9050828152602081018484840111156131905761318f61311c565b5b61319b848285613152565b509392505050565b600082601f8301126131b8576131b7612fff565b5b81356131c8848260208601613161565b91505092915050565b60006131e46131df846130f0565b6130d5565b9050808382526020820190506020840283018581111561320757613206613009565b5b835b8181101561324e57803567ffffffffffffffff81111561322c5761322b612fff565b5b80860161323989826131a3565b85526020850194505050602081019050613209565b5050509392505050565b600082601f83011261326d5761326c612fff565b5b813561327d8482602086016131d1565b91505092915050565b600067ffffffffffffffff8211156132a1576132a0613075565b5b602082029050602081019050919050565b60006132c56132c084613286565b6130d5565b905080838252602082019050602084028301858111156132e8576132e7613009565b5b835b8181101561331157806132fd8882612f29565b8452602084019350506020810190506132ea565b5050509392505050565b600082601f8301126133305761332f612fff565b5b81356133408482602086016132b2565b91505092915050565b60008060008060008060a0878903121561336657613365612ea0565b5b600061337489828a01612fea565b965050602061338589828a01612f29565b955050604087013567ffffffffffffffff8111156133a6576133a5612ea5565b5b6133b289828a0161300e565b9450945050606087013567ffffffffffffffff8111156133d5576133d4612ea5565b5b6133e189828a01613258565b925050608087013567ffffffffffffffff81111561340257613401612ea5565b5b61340e89828a0161331b565b9150509295509295509295565b61342481612f3e565b82525050565b600060208201905061343f600083018461341b565b92915050565b600081519050919050565b600082825260208201905092915050565b6000819050602082019050919050565b61347a81612f3e565b82525050565b600061348c8383613471565b60208301905092915050565b6000602082019050919050565b60006134b082613445565b6134ba8185613450565b93506134c583613461565b8060005b838110156134f65781516134dd8882613480565b97506134e883613498565b9250506001810190506134c9565b5085935050505092915050565b6000602082019050818103600083015261351d81846134a5565b905092915050565b60006020828403121561353b5761353a612ea0565b5b600061354984828501612f5f565b91505092915050565b61355b81612f08565b82525050565b60006020820190506135766000830184613552565b92915050565b60006020828403121561359257613591612ea0565b5b60006135a084828501612f29565b91505092915050565b600080604083850312156135c0576135bf612ea0565b5b60006135ce85828601612f5f565b92505060206135df85828601612ef3565b9150509250929050565b6135f281612fc7565b82525050565b600060208201905061360d60008301846135e9565b92915050565b6000806000806080858703121561362d5761362c612ea0565b5b600061363b87828801612f29565b945050602061364c87828801612f29565b935050604061365d87828801612f29565b925050606061366e87828801612fea565b91505092959194509250565b6000806000806040858703121561369457613693612ea0565b5b600085013567ffffffffffffffff8111156136b2576136b1612ea5565b5b6136be8782880161300e565b9450945050602085013567ffffffffffffffff8111156136e1576136e0612ea5565b5b6136ed8782880161300e565b925092505092959194509250565b61370481612eca565b82525050565b600060208201905061371f60008301846136fb565b92915050565b60008060006060848603121561373e5761373d612ea0565b5b600061374c86828701612f5f565b935050602061375d86828701612ef3565b925050604061376e86828701612f29565b9150509250925092565b6000806000806000806080878903121561379557613794612ea0565b5b60006137a389828a01612f5f565b96505060206137b489828a01612ef3565b955050604087013567ffffffffffffffff8111156137d5576137d4612ea5565b5b6137e189828a0161300e565b9450945050606087013567ffffffffffffffff81111561380457613803612ea5565b5b61381089828a0161300e565b92509250509295509295509295565b600081519050919050565b600082825260208201905092915050565b60005b8381101561385957808201518184015260208101905061383e565b83811115613868576000848401525b50505050565b60006138798261381f565b613883818561382a565b935061389381856020860161383b565b61389c81613064565b840191505092915050565b600060c08201905081810360008301526138c1818961386e565b90506138d06020830188613552565b6138dd6040830187613552565b6138ea6060830186613552565b6138f76080830185613552565b81810360a0830152613909818461386e565b9050979650505050505050565b6000806040838503121561392d5761392c612ea0565b5b600061393b85828601612ef3565b925050602061394c85828601612f29565b9150509250929050565b600080600080608085870312156139705761396f612ea0565b5b600061397e87828801612f5f565b945050602061398f87828801612ef3565b93505060406139a087828801612ef3565b92505060606139b187828801612ef3565b91505092959194509250565b600080604083850312156139d4576139d3612ea0565b5b60006139e285828601612ef3565b92505060206139f385828601612f5f565b9150509250929050565b600060208284031215613a1357613a12612ea0565b5b6000613a2184828501612ef3565b91505092915050565b7f43616d706169676e496e666f3a20496e76616c696420416d6f756e7400000000600082015250565b6000613a60601c8361382a565b9150613a6b82613a2a565b602082019050919050565b60006020820190508181036000830152613a8f81613a53565b9050919050565b7f4e487b7100000000000000000000000000000000000000000000000000000000600052601160045260246000fd5b6000613ad082612f08565b9150613adb83612f08565b925082821015613aee57613aed613a96565b5b828203905092915050565b6000606082019050613b0e60008301866136fb565b613b1b60208301856136fb565b613b286040830184613552565b949350505050565b600081905092915050565b6000613b478385613b30565b9350613b54838584613152565b82840190509392505050565b6000613b6d828486613b3b565b91508190509392505050565b7f4e487b7100000000000000000000000000000000000000000000000000000000600052603260045260246000fd5b6000613bb38261381f565b613bbd8185613b30565b9350613bcd81856020860161383b565b80840191505092915050565b6000613be58284613ba8565b915081905092915050565b6000613bfb82612f08565b91507fffffffffffffffffffffffffffffffffffffffffffffffffffffffffffffffff821415613c2e57613c2d613a96565b5b600182019050919050565b7f43616d706169676e496e666f3a2054726561737572792061646472657373206660008201527f6f7220706c6174666f726d206973206e6f742073657400000000000000000000602082015250565b6000613c9560368361382a565b9150613ca082613c39565b604082019050919050565b60006020820190508181036000830152613cc481613c88565b9050919050565b600081519050613cda81612f12565b92915050565b600060208284031215613cf657613cf5612ea0565b5b6000613d0484828501613ccb565b91505092915050565b7f43616d706169676e496e666f3a2043616d706169676e20656e64656400000000600082015250565b6000613d43601c8361382a565b9150613d4e82613d0d565b602082019050919050565b60006020820190508181036000830152613d7281613d36565b9050919050565b7f43616d706169676e496e666f3a204e6f7420616c6c6f77656400000000000000600082015250565b6000613daf60198361382a565b9150613dba82613d79565b602082019050919050565b60006020820190508181036000830152613dde81613da2565b9050919050565b600081519050613df481612fd3565b92915050565b600060208284031215613e1057613e0f612ea0565b5b6000613e1e84828501613de5565b91505092915050565b600081519050613e3681612edc565b92915050565b600060208284031215613e5257613e51612ea0565b5b6000613e6084828501613e27565b91505092915050565b6000608082019050613e7e60008301876136fb565b613e8b60208301866136fb565b613e986040830185613552565b613ea5606083018461341b565b95945050505050565b6000613eb982612f08565b9150613ec483612f08565b9250827fffffffffffffffffffffffffffffffffffffffffffffffffffffffffffffffff03821115613ef957613ef8613a96565b5b828201905092915050565b600081519050919050565b600082825260208201905092915050565b6000819050602082019050919050565b613f3981612f08565b82525050565b6000613f4b8383613f30565b60208301905092915050565b6000602082019050919050565b6000613f6f82613f04565b613f798185613f0f565b9350613f8483613f20565b8060005b83811015613fb5578151613f9c8882613f3f565b9750613fa783613f57565b925050600181019050613f88565b5085935050505092915050565b6000606082019050613fd76000830186613552565b613fe46020830185613552565b8181036040830152613ff68184613f64565b9050949350505050565b600061401361400e84613286565b6130d5565b9050808382526020820190506020840283018581111561403657614035613009565b5b835b8181101561405f578061404b8882613ccb565b845260208401935050602081019050614038565b5050509392505050565b600082601f83011261407e5761407d612fff565b5b815161408e848260208601614000565b91505092915050565b6000602082840312156140ad576140ac612ea0565b5b600082015167ffffffffffffffff8111156140cb576140ca612ea5565b5b6140d784828501614069565b91505092915050565b7f43616d706169676e496e666f3a204e6f7420416c6c6f77656400000000000000600082015250565b600061411660198361382a565b9150614121826140e0565b602082019050919050565b6000602082019050818103600083015261414581614109565b9050919050565b6000614158838561382a565b9350614165838584613152565b61416e83613064565b840190509392505050565b600060a08201905061418e60008301896136fb565b61419b60208301886136fb565b6141a86040830187613552565b6141b5606083018661341b565b81810360808301526141c881848661414c565b9050979650505050505050565b7f4e487b7100000000000000000000000000000000000000000000000000000000600052602260045260246000fd5b6000600282049050600182168061421c57607f821691505b602082108114156142305761422f6141d5565b5b50919050565b60008151905061424581612f48565b92915050565b600061425e61425984613121565b6130d5565b90508281526020810184848401111561427a5761427961311c565b5b61428584828561383b565b509392505050565b600082601f8301126142a2576142a1612fff565b5b81516142b284826020860161424b565b91505092915050565b600080600080600080600060e0888a0312156142da576142d9612ea0565b5b60006142e88a828b01613e27565b97505060206142f98a828b01613e27565b965050604061430a8a828b01613e27565b955050606061431b8a828b01613ccb565b945050608061432c8a828b01613ccb565b93505060a061433d8a828b01614236565b92505060c088015167ffffffffffffffff81111561435e5761435d612ea5565b5b61436a8a828b0161428d565b91505092959891949750929550565b7f4f776e61626c653a206e6577206f776e657220697320746865207a65726f206160008201527f6464726573730000000000000000000000000000000000000000000000000000602082015250565b60006143d560268361382a565b91506143e082614379565b604082019050919050565b60006020820190508181036000830152614404816143c8565b9050919050565b7f43616d706169676e496e666f3a204f726967696e20706c6174666f726d20747260008201527f656173757279206e6f7420736574207965740000000000000000000000000000602082015250565b600061446760328361382a565b91506144728261440b565b604082019050919050565b600060208201905081810360008301526144968161445a565b9050919050565b7f4f776e61626c653a2063616c6c6572206973206e6f7420746865206f776e6572600082015250565b60006144d360208361382a565b91506144de8261449d565b602082019050919050565b60006020820190508181036000830152614502816144c6565b9050919050565b7f5061757361626c653a2070617573656400000000000000000000000000000000600082015250565b600061453f60108361382a565b915061454a82614509565b602082019050919050565b6000602082019050818103600083015261456e81614532565b9050919050565b7f5061757361626c653a206e6f7420706175736564000000000000000000000000600082015250565b60006145ab60148361382a565b91506145b682614575565b602082019050919050565b600060208201905081810360008301526145da8161459e565b905091905056fea2646970667358221220cedeb233f1b0d774aafa9993bca9881480bfb43b25e83e2e256245e0cafe1b8864736f6c63430008090033",
  "linkReferences": {},
  "deployedLinkReferences": {}
}