{
  "_format": "hh-sol-artifact-1",
  "contractName": "CampaignInfo",
  "sourceName": "contracts/CampaignInfo.sol",
  "abi": [
    {
      "inputs": [
        {
          "internalType": "string",
          "name": "_identifier",
          "type": "string"
        },
        {
          "internalType": "bytes32",
          "name": "_originPlatform",
          "type": "bytes32"
        },
        {
          "internalType": "uint256",
          "name": "_goalAmount",
          "type": "uint256"
        },
        {
          "internalType": "uint256",
          "name": "_launchTime",
          "type": "uint256"
        },
        {
          "internalType": "uint256",
          "name": "_deadline",
          "type": "uint256"
        },
        {
          "internalType": "string",
          "name": "_creatorUrl",
          "type": "string"
        },
        {
          "internalType": "bytes32[]",
          "name": "_reachPlatform",
          "type": "bytes32[]"
        },
        {
          "internalType": "address",
          "name": "_registryAddress",
          "type": "address"
        }
      ],
      "stateMutability": "nonpayable",
      "type": "constructor"
    },
    {
      "anonymous": false,
      "inputs": [
        {
          "indexed": true,
          "internalType": "address",
          "name": "previousOwner",
          "type": "address"
        },
        {
          "indexed": true,
          "internalType": "address",
          "name": "newOwner",
          "type": "address"
        }
      ],
      "name": "OwnershipTransferred",
      "type": "event"
    },
    {
      "inputs": [
        {
          "internalType": "bytes32",
          "name": "_clientId",
          "type": "bytes32"
        }
      ],
      "name": "addReachPlatform",
      "outputs": [],
      "stateMutability": "nonpayable",
      "type": "function"
    },
    {
      "inputs": [
        {
          "internalType": "bytes32",
          "name": "_clientId",
          "type": "bytes32"
        },
        {
          "internalType": "uint256",
          "name": "_feeShare",
          "type": "uint256"
        }
      ],
      "name": "disburseFee",
      "outputs": [],
      "stateMutability": "nonpayable",
      "type": "function"
    },
    {
      "inputs": [
        {
          "internalType": "uint256",
          "name": "_deadline",
          "type": "uint256"
        }
      ],
      "name": "editDeadline",
      "outputs": [],
      "stateMutability": "nonpayable",
      "type": "function"
    },
    {
      "inputs": [
        {
          "internalType": "uint256",
          "name": "_launchTime",
          "type": "uint256"
        }
      ],
      "name": "editLaunchTime",
      "outputs": [],
      "stateMutability": "nonpayable",
      "type": "function"
    },
    {
      "inputs": [],
      "name": "getCampaignData",
      "outputs": [
        {
          "internalType": "string",
          "name": "",
          "type": "string"
        },
        {
          "internalType": "uint256",
          "name": "",
          "type": "uint256"
        },
        {
          "internalType": "uint256",
          "name": "",
          "type": "uint256"
        },
        {
          "internalType": "uint256",
          "name": "",
          "type": "uint256"
        },
        {
          "internalType": "uint256",
          "name": "",
          "type": "uint256"
        },
        {
          "internalType": "string",
          "name": "",
          "type": "string"
        }
      ],
      "stateMutability": "view",
      "type": "function"
    },
    {
      "inputs": [],
      "name": "getCampaignOriginPlatform",
      "outputs": [
        {
          "internalType": "bytes32",
          "name": "",
          "type": "bytes32"
        }
      ],
      "stateMutability": "view",
      "type": "function"
    },
    {
      "inputs": [],
      "name": "getCampaignReachPlatforms",
      "outputs": [
        {
          "internalType": "bytes32[]",
          "name": "",
          "type": "bytes32[]"
        }
      ],
      "stateMutability": "view",
      "type": "function"
    },
    {
      "inputs": [
        {
          "internalType": "uint256",
          "name": "feePercent",
          "type": "uint256"
        },
        {
          "internalType": "uint256[]",
          "name": "pledgedAmountByPlatforms",
          "type": "uint256[]"
        }
      ],
      "name": "getFeeSplitsProportionately",
      "outputs": [
        {
          "internalType": "uint256[]",
          "name": "",
          "type": "uint256[]"
        }
      ],
      "stateMutability": "pure",
      "type": "function"
    },
    {
      "inputs": [
        {
          "internalType": "uint256",
          "name": "totalFeePercent",
          "type": "uint256"
        },
        {
          "internalType": "uint256",
          "name": "clientRewardPercent",
          "type": "uint256"
        },
        {
          "internalType": "uint256",
          "name": "pledgedAmountByOrigin",
          "type": "uint256"
        },
        {
          "internalType": "uint256[]",
          "name": "pledgedAmountsByReach",
          "type": "uint256[]"
        }
      ],
      "name": "getFeeSplitsProportionatelyWithPlatformReward",
      "outputs": [
        {
          "internalType": "uint256",
          "name": "",
          "type": "uint256"
        },
        {
          "internalType": "uint256[]",
          "name": "",
          "type": "uint256[]"
        }
      ],
      "stateMutability": "pure",
      "type": "function"
    },
    {
      "inputs": [
        {
          "internalType": "bytes32",
          "name": "clientId",
          "type": "bytes32"
        }
      ],
      "name": "getPledgedAmountForClientCrypto",
      "outputs": [
        {
          "internalType": "uint256",
          "name": "",
          "type": "uint256"
        }
      ],
      "stateMutability": "view",
      "type": "function"
    },
    {
      "inputs": [],
      "name": "getTotalPledgedAmount",
      "outputs": [
        {
          "internalType": "uint256",
          "name": "",
          "type": "uint256"
        }
      ],
      "stateMutability": "view",
      "type": "function"
    },
    {
      "inputs": [],
      "name": "getTotalPledgedAmountCrypto",
      "outputs": [
        {
          "internalType": "uint256",
          "name": "",
          "type": "uint256"
        }
      ],
      "stateMutability": "view",
      "type": "function"
    },
    {
      "inputs": [
        {
          "internalType": "bytes32",
          "name": "clientId",
          "type": "bytes32"
        }
      ],
      "name": "getTreasuryAddress",
      "outputs": [
        {
          "internalType": "address",
          "name": "",
          "type": "address"
        }
      ],
      "stateMutability": "view",
      "type": "function"
    },
    {
      "inputs": [],
      "name": "owner",
      "outputs": [
        {
          "internalType": "address",
          "name": "",
          "type": "address"
        }
      ],
      "stateMutability": "view",
      "type": "function"
    },
    {
      "inputs": [
        {
          "internalType": "bytes32",
          "name": "clientId",
          "type": "bytes32"
        },
        {
          "internalType": "uint256",
          "name": "amount",
          "type": "uint256"
        }
      ],
      "name": "pledgeThroughClient",
      "outputs": [],
      "stateMutability": "nonpayable",
      "type": "function"
    },
    {
      "inputs": [],
      "name": "renounceOwnership",
      "outputs": [],
      "stateMutability": "nonpayable",
      "type": "function"
    },
    {
      "inputs": [
        {
          "internalType": "bytes32",
          "name": "_clientId",
          "type": "bytes32"
        },
        {
          "internalType": "address",
          "name": "_clientWallet",
          "type": "address"
        },
        {
          "internalType": "address",
          "name": "_treasury",
          "type": "address"
        },
        {
          "internalType": "address",
          "name": "_token",
          "type": "address"
        }
      ],
      "name": "setClientInfo",
      "outputs": [],
      "stateMutability": "nonpayable",
      "type": "function"
    },
    {
      "inputs": [],
      "name": "splitFeeWithRewards",
      "outputs": [],
      "stateMutability": "nonpayable",
      "type": "function"
    },
    {
      "inputs": [],
      "name": "splitFeeWithVelocityOfFundraising",
      "outputs": [],
      "stateMutability": "nonpayable",
      "type": "function"
    },
    {
      "inputs": [],
      "name": "splitFeesProportionately",
      "outputs": [],
      "stateMutability": "nonpayable",
      "type": "function"
    },
    {
      "inputs": [
        {
          "internalType": "address",
          "name": "newOwner",
          "type": "address"
        }
      ],
      "name": "transferOwnership",
      "outputs": [],
      "stateMutability": "nonpayable",
      "type": "function"
    }
  ],
  "bytecode": "0x60806040526002600a556101f4600c556064600d553480156200002157600080fd5b50604051620038d5380380620038d583398181016040528101906200004791906200069f565b620000676200005b6200015f60201b60201c565b6200016760201b60201c565b8362278d0086620000799190620007f4565b106200008457600080fd5b87600160000190805190602001906200009f9291906200022b565b50866001800181905550856001600201819055508460016003018190555042600160040181905550836001600501819055508260016006019080519060200190620000ec9291906200022b565b50816001600701908051906020019062000108929190620002bc565b5080600960006101000a81548173ffffffffffffffffffffffffffffffffffffffff021916908373ffffffffffffffffffffffffffffffffffffffff16021790555042600e819055505050505050505050620008b6565b600033905090565b60008060009054906101000a900473ffffffffffffffffffffffffffffffffffffffff169050816000806101000a81548173ffffffffffffffffffffffffffffffffffffffff021916908373ffffffffffffffffffffffffffffffffffffffff1602179055508173ffffffffffffffffffffffffffffffffffffffff168173ffffffffffffffffffffffffffffffffffffffff167f8be0079c531659141344cd1fd0a4f28419497f9722a3daafe3b4186f6b6457e060405160405180910390a35050565b828054620002399062000880565b90600052602060002090601f0160209004810192826200025d5760008555620002a9565b82601f106200027857805160ff1916838001178555620002a9565b82800160010185558215620002a9579182015b82811115620002a85782518255916020019190600101906200028b565b5b509050620002b891906200030e565b5090565b828054828255906000526020600020908101928215620002fb579160200282015b82811115620002fa578251825591602001919060010190620002dd565b5b5090506200030a91906200032d565b5090565b5b80821115620003295760008160009055506001016200030f565b5090565b5b80821115620003485760008160009055506001016200032e565b5090565b6000604051905090565b600080fd5b600080fd5b600080fd5b600080fd5b6000601f19601f8301169050919050565b7f4e487b7100000000000000000000000000000000000000000000000000000000600052604160045260246000fd5b620003b5826200036a565b810181811067ffffffffffffffff82111715620003d757620003d66200037b565b5b80604052505050565b6000620003ec6200034c565b9050620003fa8282620003aa565b919050565b600067ffffffffffffffff8211156200041d576200041c6200037b565b5b62000428826200036a565b9050602081019050919050565b60005b838110156200045557808201518184015260208101905062000438565b8381111562000465576000848401525b50505050565b6000620004826200047c84620003ff565b620003e0565b905082815260208101848484011115620004a157620004a062000365565b5b620004ae84828562000435565b509392505050565b600082601f830112620004ce57620004cd62000360565b5b8151620004e08482602086016200046b565b91505092915050565b6000819050919050565b620004fe81620004e9565b81146200050a57600080fd5b50565b6000815190506200051e81620004f3565b92915050565b6000819050919050565b620005398162000524565b81146200054557600080fd5b50565b60008151905062000559816200052e565b92915050565b600067ffffffffffffffff8211156200057d576200057c6200037b565b5b602082029050602081019050919050565b600080fd5b6000620005aa620005a4846200055f565b620003e0565b90508083825260208201905060208402830185811115620005d057620005cf6200058e565b5b835b81811015620005fd5780620005e888826200050d565b845260208401935050602081019050620005d2565b5050509392505050565b600082601f8301126200061f576200061e62000360565b5b81516200063184826020860162000593565b91505092915050565b600073ffffffffffffffffffffffffffffffffffffffff82169050919050565b600062000667826200063a565b9050919050565b62000679816200065a565b81146200068557600080fd5b50565b60008151905062000699816200066e565b92915050565b600080600080600080600080610100898b031215620006c357620006c262000356565b5b600089015167ffffffffffffffff811115620006e457620006e36200035b565b5b620006f28b828c01620004b6565b9850506020620007058b828c016200050d565b9750506040620007188b828c0162000548565b96505060606200072b8b828c0162000548565b95505060806200073e8b828c0162000548565b94505060a089015167ffffffffffffffff8111156200076257620007616200035b565b5b620007708b828c01620004b6565b93505060c089015167ffffffffffffffff8111156200079457620007936200035b565b5b620007a28b828c0162000607565b92505060e0620007b58b828c0162000688565b9150509295985092959890939650565b7f4e487b7100000000000000000000000000000000000000000000000000000000600052601160045260246000fd5b6000620008018262000524565b91506200080e8362000524565b9250827fffffffffffffffffffffffffffffffffffffffffffffffffffffffffffffffff03821115620008465762000845620007c5565b5b828201905092915050565b7f4e487b7100000000000000000000000000000000000000000000000000000000600052602260045260246000fd5b600060028204905060018216806200089957607f821691505b60208210811415620008b057620008af62000851565b5b50919050565b61300f80620008c66000396000f3fe608060405234801561001057600080fd5b50600436106101375760003560e01c80638d12cf0b116100b8578063a0797f751161007c578063a0797f7514610301578063b0e10c611461031f578063c417633814610329578063f2fde38b1461034c578063f6b854ff14610368578063f84036761461038457610137565b80638d12cf0b1461025f5780638da5cb5b1461027b57806391c07ffb1461029957806397cb527c146102c95780639bd4dd3c146102e557610137565b806355bf3112116100ff57806355bf3112146101f5578063715018a6146101ff5780637568173b1461020957806383d23ab31461021357806384ea5c741461022f57610137565b80632e162db61461013c5780632ee8ebf71461015a57806332a8e0341461018a57806333a06c81146101bb5780634da7f432146101d9575b600080fd5b6101446103a2565b60405161015191906122d8565b60405180910390f35b610174600480360381019061016f919061249d565b6103fd565b60405161018191906125b7565b60405180910390f35b6101a4600480360381019061019f91906125d9565b6104ce565b6040516101b292919061266b565b60405180910390f35b6101c3610542565b6040516101d0919061269b565b60405180910390f35b6101f360048036038101906101ee91906126b6565b61080b565b005b6101fd61090e565b005b610207610c40565b005b610211610c54565b005b61022d6004803603810190610228919061270f565b610e6e565b005b6102496004803603810190610244919061270f565b610f74565b604051610256919061277d565b60405180910390f35b610279600480360381019061027491906127c4565b611056565b005b610283611229565b604051610290919061277d565b60405180910390f35b6102b360048036038101906102ae919061270f565b611252565b6040516102c0919061269b565b60405180910390f35b6102e360048036038101906102de919061282b565b6113ef565b005b6102ff60048036038101906102fa91906126b6565b611556565b005b610309611659565b604051610316919061287a565b60405180910390f35b610327611665565b005b610331611997565b6040516103439695949392919061291d565b60405180910390f35b6103666004803603810190610361919061298c565b611aef565b005b610382600480360381019061037d919061282b565b611b73565b005b61038c611cf5565b604051610399919061269b565b60405180910390f35b606060016007018054806020026020016040519081016040528092919081815260200182805480156103f357602002820191906000526020600020905b8154815260200190600101908083116103df575b5050505050905090565b606060008251905060008167ffffffffffffffff8111156104215761042061235a565b5b60405190808252806020026020018201604052801561044f5781602001602082028036833780820191505090505b50905060005b828110156104c25761271086868381518110610474576104736129b9565b5b60200260200101516104869190612a17565b6104909190612aa0565b8282815181106104a3576104a26129b9565b5b60200260200101818152505080806104ba90612ad1565b915050610455565b50809250505092915050565b6000606060008351905060006001826104e79190612b1a565b87896104f39190612b70565b6104fd9190612aa0565b9050600061271082896105109190612b1a565b8861051b9190612a17565b6105259190612aa0565b90508061053283886103fd565b9450945050505094509492505050565b600080600f60006001800154815260200190815260200160002060009054906101000a900473ffffffffffffffffffffffffffffffffffffffff169050600073ffffffffffffffffffffffffffffffffffffffff168173ffffffffffffffffffffffffffffffffffffffff1614156105ef576040517f08c379a00000000000000000000000000000000000000000000000000000000081526004016105e690612c16565b60405180910390fd5b6000600160070180548060200260200160405190810160405280929190818152602001828054801561064057602002820191906000526020600020905b81548152602001906001019080831161062c575b5050505050905060008151905060008373ffffffffffffffffffffffffffffffffffffffff1663186bc5496040518163ffffffff1660e01b815260040160206040518083038186803b15801561069557600080fd5b505afa1580156106a9573d6000803e3d6000fd5b505050506040513d601f19601f820116820180604052508101906106cd9190612c4b565b905060005b82811015610800576000600f60008684815181106106f3576106f26129b9565b5b6020026020010151815260200190815260200160002060009054906101000a900473ffffffffffffffffffffffffffffffffffffffff169050600073ffffffffffffffffffffffffffffffffffffffff168173ffffffffffffffffffffffffffffffffffffffff16146107ec578073ffffffffffffffffffffffffffffffffffffffff1663186bc5496040518163ffffffff1660e01b815260040160206040518083038186803b1580156107a657600080fd5b505afa1580156107ba573d6000803e3d6000fd5b505050506040513d601f19601f820116820180604052508101906107de9190612c4b565b836107e99190612b1a565b92505b5080806107f890612ad1565b9150506106d2565b508094505050505090565b600960009054906101000a900473ffffffffffffffffffffffffffffffffffffffff1673ffffffffffffffffffffffffffffffffffffffff16638da5cb5b6040518163ffffffff1660e01b815260040160206040518083038186803b15801561087357600080fd5b505afa158015610887573d6000803e3d6000fd5b505050506040513d601f19601f820116820180604052508101906108ab9190612c8d565b73ffffffffffffffffffffffffffffffffffffffff163373ffffffffffffffffffffffffffffffffffffffff16146108e257600080fd5b60016005015462278d00826108f79190612b1a565b1061090157600080fd5b8060016003018190555050565b600960149054906101000a900460ff1661095d576040517f08c379a000000000000000000000000000000000000000000000000000000000815260040161095490612d2c565b60405180910390fd5b6000600c5490506000600d5490506000610978600b54611252565b9050600060016007018054806020026020016040519081016040528092919081815260200182805480156109cb57602002820191906000526020600020905b8154815260200190600101908083116109b7575b505050505090506000815167ffffffffffffffff8111156109ef576109ee61235a565b5b604051908082528060200260200182016040528015610a1d5781602001602082028036833780820191505090505b5090506000600180015490506000835167ffffffffffffffff811115610a4657610a4561235a565b5b604051908082528060200260200182016040528015610a745781602001602082028036833780820191505090505b50905081600b541415610ae85760005b8451811015610ae257610ab0858281518110610aa357610aa26129b9565b5b6020026020010151611252565b848281518110610ac357610ac26129b9565b5b6020026020010181815250508080610ada90612ad1565b915050610a84565b50610c0c565b6000610af383611252565b848281518110610b0657610b056129b9565b5b60200260200101818152505082828281518110610b2657610b256129b9565b5b602002602001018181525050600190505b84518111610c0a57600b5485600183610b509190612b70565b81518110610b6157610b606129b9565b5b602002602001015114610bf75784600182610b7c9190612b70565b81518110610b8d57610b8c6129b9565b5b6020026020010151828281518110610ba857610ba76129b9565b5b602002602001018181525050610bd7858281518110610bca57610bc96129b9565b5b6020026020010151611252565b848281518110610bea57610be96129b9565b5b6020026020010181815250505b8080610c0290612ad1565b915050610b37565b505b600080610c1b898989886104ce565b91509150610c2b600b5483611b73565b610c35838261205e565b505050505050505050565b610c486120c6565b610c526000612144565b565b60006001600701805480602002602001604051908101604052809291908181526020018280548015610ca557602002820191906000526020600020905b815481526020019060010190808311610c91575b50505050509050600060018251610cbc9190612b1a565b67ffffffffffffffff811115610cd557610cd461235a565b5b604051908082528060200260200182016040528015610d035781602001602082028036833780820191505090505b509050600060018351610d169190612b1a565b67ffffffffffffffff811115610d2f57610d2e61235a565b5b604051908082528060200260200182016040528015610d5d5781602001602082028036833780820191505090505b50905060005b8351811015610dfb57838181518110610d7f57610d7e6129b9565b5b6020026020010151838281518110610d9a57610d996129b9565b5b602002602001018181525050610dc9848281518110610dbc57610dbb6129b9565b5b6020026020010151611252565b828281518110610ddc57610ddb6129b9565b5b6020026020010181815250508080610df390612ad1565b915050610d63565b50600180015482845181518110610e1557610e146129b9565b5b602002602001018181525050610e2e6001800154611252565b81845181518110610e4257610e416129b9565b5b6020026020010181815250506000610e5c600c54836103fd565b9050610e68838261205e565b50505050565b600960009054906101000a900473ffffffffffffffffffffffffffffffffffffffff1673ffffffffffffffffffffffffffffffffffffffff16638da5cb5b6040518163ffffffff1660e01b815260040160206040518083038186803b158015610ed657600080fd5b505afa158015610eea573d6000803e3d6000fd5b505050506040513d601f19601f82011682018060405250810190610f0e9190612c8d565b73ffffffffffffffffffffffffffffffffffffffff163373ffffffffffffffffffffffffffffffffffffffff1614610f4557600080fd5b600160070181908060018154018082558091505060019003906000526020600020016000909190919091505550565b600081600073ffffffffffffffffffffffffffffffffffffffff16600f600083815260200190815260200160002060009054906101000a900473ffffffffffffffffffffffffffffffffffffffff1673ffffffffffffffffffffffffffffffffffffffff16141561101a576040517f08c379a000000000000000000000000000000000000000000000000000000000815260040161101190612dbe565b60405180910390fd5b600f600084815260200190815260200160002060009054906101000a900473ffffffffffffffffffffffffffffffffffffffff16915050919050565b600960009054906101000a900473ffffffffffffffffffffffffffffffffffffffff1673ffffffffffffffffffffffffffffffffffffffff16638da5cb5b6040518163ffffffff1660e01b815260040160206040518083038186803b1580156110be57600080fd5b505afa1580156110d2573d6000803e3d6000fd5b505050506040513d601f19601f820116820180604052508101906110f69190612c8d565b73ffffffffffffffffffffffffffffffffffffffff163373ffffffffffffffffffffffffffffffffffffffff161461112d57600080fd5b826011600086815260200190815260200160002060006101000a81548173ffffffffffffffffffffffffffffffffffffffff021916908373ffffffffffffffffffffffffffffffffffffffff16021790555081600f600086815260200190815260200160002060006101000a81548173ffffffffffffffffffffffffffffffffffffffff021916908373ffffffffffffffffffffffffffffffffffffffff160217905550806010600086815260200190815260200160002060006101000a81548173ffffffffffffffffffffffffffffffffffffffff021916908373ffffffffffffffffffffffffffffffffffffffff16021790555050505050565b60008060009054906101000a900473ffffffffffffffffffffffffffffffffffffffff16905090565b600081600073ffffffffffffffffffffffffffffffffffffffff16600f600083815260200190815260200160002060009054906101000a900473ffffffffffffffffffffffffffffffffffffffff1673ffffffffffffffffffffffffffffffffffffffff1614156112f8576040517f08c379a00000000000000000000000000000000000000000000000000000000081526004016112ef90612dbe565b60405180910390fd5b6010600084815260200190815260200160002060009054906101000a900473ffffffffffffffffffffffffffffffffffffffff1673ffffffffffffffffffffffffffffffffffffffff166370a08231600f600086815260200190815260200160002060009054906101000a900473ffffffffffffffffffffffffffffffffffffffff166040518263ffffffff1660e01b8152600401611397919061277d565b60206040518083038186803b1580156113af57600080fd5b505afa1580156113c3573d6000803e3d6000fd5b505050506040513d601f19601f820116820180604052508101906113e79190612c4b565b915050919050565b600960149054906101000a900460ff161580156114265750600a5460016002015461141a9190612aa0565b61142383611252565b10155b80156114345750600e544210155b1561145c576001600960146101000a81548160ff02191690831515021790555081600b819055505b6010600083815260200190815260200160002060009054906101000a900473ffffffffffffffffffffffffffffffffffffffff1673ffffffffffffffffffffffffffffffffffffffff166323b872dd33600f600086815260200190815260200160002060009054906101000a900473ffffffffffffffffffffffffffffffffffffffff16846040518463ffffffff1660e01b81526004016114ff93929190612dde565b602060405180830381600087803b15801561151957600080fd5b505af115801561152d573d6000803e3d6000fd5b505050506040513d601f19601f820116820180604052508101906115519190612e4d565b505050565b600960009054906101000a900473ffffffffffffffffffffffffffffffffffffffff1673ffffffffffffffffffffffffffffffffffffffff16638da5cb5b6040518163ffffffff1660e01b815260040160206040518083038186803b1580156115be57600080fd5b505afa1580156115d2573d6000803e3d6000fd5b505050506040513d601f19601f820116820180604052508101906115f69190612c8d565b73ffffffffffffffffffffffffffffffffffffffff163373ffffffffffffffffffffffffffffffffffffffff161461162d57600080fd5b60016003015462278d00826116429190612b70565b1161164c57600080fd5b8060016005018190555050565b60006001800154905090565b600960149054906101000a900460ff166116b4576040517f08c379a00000000000000000000000000000000000000000000000000000000081526004016116ab90612d2c565b60405180910390fd5b6000600c5490506000600d54905060006116cf600b54611252565b90506000600160070180548060200260200160405190810160405280929190818152602001828054801561172257602002820191906000526020600020905b81548152602001906001019080831161170e575b505050505090506000815167ffffffffffffffff8111156117465761174561235a565b5b6040519080825280602002602001820160405280156117745781602001602082028036833780820191505090505b5090506000600180015490506000835167ffffffffffffffff81111561179d5761179c61235a565b5b6040519080825280602002602001820160405280156117cb5781602001602082028036833780820191505090505b50905081600b54141561183f5760005b8451811015611839576118078582815181106117fa576117f96129b9565b5b6020026020010151611252565b84828151811061181a576118196129b9565b5b602002602001018181525050808061183190612ad1565b9150506117db565b50611963565b600061184a83611252565b84828151811061185d5761185c6129b9565b5b6020026020010181815250508282828151811061187d5761187c6129b9565b5b602002602001018181525050600190505b8451811161196157600b54856001836118a79190612b70565b815181106118b8576118b76129b9565b5b60200260200101511461194e57846001826118d39190612b70565b815181106118e4576118e36129b9565b5b60200260200101518282815181106118ff576118fe6129b9565b5b60200260200101818152505061192e858281518110611921576119206129b9565b5b6020026020010151611252565b848281518110611941576119406129b9565b5b6020026020010181815250505b808061195990612ad1565b91505061188e565b505b600080611972898989886104ce565b91509150611982600b5483611b73565b61198c838261205e565b505050505050505050565b60606000806000806060600160000160016002015460016003015460016004015460016005015460016006018580546119cf90612ea9565b80601f01602080910402602001604051908101604052809291908181526020018280546119fb90612ea9565b8015611a485780601f10611a1d57610100808354040283529160200191611a48565b820191906000526020600020905b815481529060010190602001808311611a2b57829003601f168201915b50505050509550808054611a5b90612ea9565b80601f0160208091040260200160405190810160405280929190818152602001828054611a8790612ea9565b8015611ad45780601f10611aa957610100808354040283529160200191611ad4565b820191906000526020600020905b815481529060010190602001808311611ab757829003601f168201915b50505050509050955095509550955095509550909192939495565b611af76120c6565b600073ffffffffffffffffffffffffffffffffffffffff168173ffffffffffffffffffffffffffffffffffffffff161415611b67576040517f08c379a0000000000000000000000000000000000000000000000000000000008152600401611b5e90612f4d565b60405180910390fd5b611b7081612144565b50565b600081118015611be35750600073ffffffffffffffffffffffffffffffffffffffff16600f600084815260200190815260200160002060009054906101000a900473ffffffffffffffffffffffffffffffffffffffff1673ffffffffffffffffffffffffffffffffffffffff1614155b15611cf157600f600083815260200190815260200160002060009054906101000a900473ffffffffffffffffffffffffffffffffffffffff1673ffffffffffffffffffffffffffffffffffffffff16632b1645b76011600085815260200190815260200160002060009054906101000a900473ffffffffffffffffffffffffffffffffffffffff166010600086815260200190815260200160002060009054906101000a900473ffffffffffffffffffffffffffffffffffffffff16846040518463ffffffff1660e01b8152600401611cbe93929190612dde565b600060405180830381600087803b158015611cd857600080fd5b505af1158015611cec573d6000803e3d6000fd5b505050505b5050565b600080600f60006001800154815260200190815260200160002060009054906101000a900473ffffffffffffffffffffffffffffffffffffffff169050600073ffffffffffffffffffffffffffffffffffffffff168173ffffffffffffffffffffffffffffffffffffffff161415611da2576040517f08c379a0000000000000000000000000000000000000000000000000000000008152600401611d9990612c16565b60405180910390fd5b60006001600701805480602002602001604051908101604052809291908181526020018280548015611df357602002820191906000526020600020905b815481526020019060010190808311611ddf575b505050505090506000815190506000601060006001800154815260200190815260200160002060009054906101000a900473ffffffffffffffffffffffffffffffffffffffff1673ffffffffffffffffffffffffffffffffffffffff166370a08231856040518263ffffffff1660e01b8152600401611e72919061277d565b60206040518083038186803b158015611e8a57600080fd5b505afa158015611e9e573d6000803e3d6000fd5b505050506040513d601f19601f82011682018060405250810190611ec29190612c4b565b905060005b82811015612053576000600f6000868481518110611ee857611ee76129b9565b5b6020026020010151815260200190815260200160002060009054906101000a900473ffffffffffffffffffffffffffffffffffffffff169050600060106000878581518110611f3a57611f396129b9565b5b6020026020010151815260200190815260200160002060009054906101000a900473ffffffffffffffffffffffffffffffffffffffff169050600073ffffffffffffffffffffffffffffffffffffffff168273ffffffffffffffffffffffffffffffffffffffff161461203e578073ffffffffffffffffffffffffffffffffffffffff166370a08231836040518263ffffffff1660e01b8152600401611fe0919061277d565b60206040518083038186803b158015611ff857600080fd5b505afa15801561200c573d6000803e3d6000fd5b505050506040513d601f19601f820116820180604052508101906120309190612c4b565b8461203b9190612b1a565b93505b5050808061204b90612ad1565b915050611ec7565b508094505050505090565b60008251905060005b818110156120c0576120ad848281518110612085576120846129b9565b5b60200260200101518483815181106120a05761209f6129b9565b5b6020026020010151611b73565b80806120b890612ad1565b915050612067565b50505050565b6120ce612208565b73ffffffffffffffffffffffffffffffffffffffff166120ec611229565b73ffffffffffffffffffffffffffffffffffffffff1614612142576040517f08c379a000000000000000000000000000000000000000000000000000000000815260040161213990612fb9565b60405180910390fd5b565b60008060009054906101000a900473ffffffffffffffffffffffffffffffffffffffff169050816000806101000a81548173ffffffffffffffffffffffffffffffffffffffff021916908373ffffffffffffffffffffffffffffffffffffffff1602179055508173ffffffffffffffffffffffffffffffffffffffff168173ffffffffffffffffffffffffffffffffffffffff167f8be0079c531659141344cd1fd0a4f28419497f9722a3daafe3b4186f6b6457e060405160405180910390a35050565b600033905090565b600081519050919050565b600082825260208201905092915050565b6000819050602082019050919050565b6000819050919050565b61224f8161223c565b82525050565b60006122618383612246565b60208301905092915050565b6000602082019050919050565b600061228582612210565b61228f818561221b565b935061229a8361222c565b8060005b838110156122cb5781516122b28882612255565b97506122bd8361226d565b92505060018101905061229e565b5085935050505092915050565b600060208201905081810360008301526122f2818461227a565b905092915050565b6000604051905090565b600080fd5b600080fd5b6000819050919050565b6123218161230e565b811461232c57600080fd5b50565b60008135905061233e81612318565b92915050565b600080fd5b6000601f19601f8301169050919050565b7f4e487b7100000000000000000000000000000000000000000000000000000000600052604160045260246000fd5b61239282612349565b810181811067ffffffffffffffff821117156123b1576123b061235a565b5b80604052505050565b60006123c46122fa565b90506123d08282612389565b919050565b600067ffffffffffffffff8211156123f0576123ef61235a565b5b602082029050602081019050919050565b600080fd5b6000612419612414846123d5565b6123ba565b9050808382526020820190506020840283018581111561243c5761243b612401565b5b835b818110156124655780612451888261232f565b84526020840193505060208101905061243e565b5050509392505050565b600082601f83011261248457612483612344565b5b8135612494848260208601612406565b91505092915050565b600080604083850312156124b4576124b3612304565b5b60006124c28582860161232f565b925050602083013567ffffffffffffffff8111156124e3576124e2612309565b5b6124ef8582860161246f565b9150509250929050565b600081519050919050565b600082825260208201905092915050565b6000819050602082019050919050565b61252e8161230e565b82525050565b60006125408383612525565b60208301905092915050565b6000602082019050919050565b6000612564826124f9565b61256e8185612504565b935061257983612515565b8060005b838110156125aa5781516125918882612534565b975061259c8361254c565b92505060018101905061257d565b5085935050505092915050565b600060208201905081810360008301526125d18184612559565b905092915050565b600080600080608085870312156125f3576125f2612304565b5b60006126018782880161232f565b94505060206126128782880161232f565b93505060406126238782880161232f565b925050606085013567ffffffffffffffff81111561264457612643612309565b5b6126508782880161246f565b91505092959194509250565b6126658161230e565b82525050565b6000604082019050612680600083018561265c565b81810360208301526126928184612559565b90509392505050565b60006020820190506126b0600083018461265c565b92915050565b6000602082840312156126cc576126cb612304565b5b60006126da8482850161232f565b91505092915050565b6126ec8161223c565b81146126f757600080fd5b50565b600081359050612709816126e3565b92915050565b60006020828403121561272557612724612304565b5b6000612733848285016126fa565b91505092915050565b600073ffffffffffffffffffffffffffffffffffffffff82169050919050565b60006127678261273c565b9050919050565b6127778161275c565b82525050565b6000602082019050612792600083018461276e565b92915050565b6127a18161275c565b81146127ac57600080fd5b50565b6000813590506127be81612798565b92915050565b600080600080608085870312156127de576127dd612304565b5b60006127ec878288016126fa565b94505060206127fd878288016127af565b935050604061280e878288016127af565b925050606061281f878288016127af565b91505092959194509250565b6000806040838503121561284257612841612304565b5b6000612850858286016126fa565b92505060206128618582860161232f565b9150509250929050565b6128748161223c565b82525050565b600060208201905061288f600083018461286b565b92915050565b600081519050919050565b600082825260208201905092915050565b60005b838110156128cf5780820151818401526020810190506128b4565b838111156128de576000848401525b50505050565b60006128ef82612895565b6128f981856128a0565b93506129098185602086016128b1565b61291281612349565b840191505092915050565b600060c082019050818103600083015261293781896128e4565b9050612946602083018861265c565b612953604083018761265c565b612960606083018661265c565b61296d608083018561265c565b81810360a083015261297f81846128e4565b9050979650505050505050565b6000602082840312156129a2576129a1612304565b5b60006129b0848285016127af565b91505092915050565b7f4e487b7100000000000000000000000000000000000000000000000000000000600052603260045260246000fd5b7f4e487b7100000000000000000000000000000000000000000000000000000000600052601160045260246000fd5b6000612a228261230e565b9150612a2d8361230e565b9250817fffffffffffffffffffffffffffffffffffffffffffffffffffffffffffffffff0483118215151615612a6657612a656129e8565b5b828202905092915050565b7f4e487b7100000000000000000000000000000000000000000000000000000000600052601260045260246000fd5b6000612aab8261230e565b9150612ab68361230e565b925082612ac657612ac5612a71565b5b828204905092915050565b6000612adc8261230e565b91507fffffffffffffffffffffffffffffffffffffffffffffffffffffffffffffffff821415612b0f57612b0e6129e8565b5b600182019050919050565b6000612b258261230e565b9150612b308361230e565b9250827fffffffffffffffffffffffffffffffffffffffffffffffffffffffffffffffff03821115612b6557612b646129e8565b5b828201905092915050565b6000612b7b8261230e565b9150612b868361230e565b925082821015612b9957612b986129e8565b5b828203905092915050565b7f43616d706169676e496e666f3a204f726967696e20706c6174666f726d20747260008201527f656173757279206e6f7420736574207965740000000000000000000000000000602082015250565b6000612c006032836128a0565b9150612c0b82612ba4565b604082019050919050565b60006020820190508181036000830152612c2f81612bf3565b9050919050565b600081519050612c4581612318565b92915050565b600060208284031215612c6157612c60612304565b5b6000612c6f84828501612c36565b91505092915050565b600081519050612c8781612798565b92915050565b600060208284031215612ca357612ca2612304565b5b6000612cb184828501612c78565b91505092915050565b7f43616d706169676e496e666f3a2052657761726420636c69656e74206e6f742060008201527f7365742079657400000000000000000000000000000000000000000000000000602082015250565b6000612d166027836128a0565b9150612d2182612cba565b604082019050919050565b60006020820190508181036000830152612d4581612d09565b9050919050565b7f43616d706169676e496e666f3a2054726561737572792061646472657373206660008201527f6f7220636c69656e74206973206e6f7420736574000000000000000000000000602082015250565b6000612da86034836128a0565b9150612db382612d4c565b604082019050919050565b60006020820190508181036000830152612dd781612d9b565b9050919050565b6000606082019050612df3600083018661276e565b612e00602083018561276e565b612e0d604083018461265c565b949350505050565b60008115159050919050565b612e2a81612e15565b8114612e3557600080fd5b50565b600081519050612e4781612e21565b92915050565b600060208284031215612e6357612e62612304565b5b6000612e7184828501612e38565b91505092915050565b7f4e487b7100000000000000000000000000000000000000000000000000000000600052602260045260246000fd5b60006002820490506001821680612ec157607f821691505b60208210811415612ed557612ed4612e7a565b5b50919050565b7f4f776e61626c653a206e6577206f776e657220697320746865207a65726f206160008201527f6464726573730000000000000000000000000000000000000000000000000000602082015250565b6000612f376026836128a0565b9150612f4282612edb565b604082019050919050565b60006020820190508181036000830152612f6681612f2a565b9050919050565b7f4f776e61626c653a2063616c6c6572206973206e6f7420746865206f776e6572600082015250565b6000612fa36020836128a0565b9150612fae82612f6d565b602082019050919050565b60006020820190508181036000830152612fd281612f96565b905091905056fea264697066735822122080a9902223ca0688522a627f39e2c2154788264bd146196f92a4594a16b424ae64736f6c63430008090033",
  "linkReferences": {},
  "deployedLinkReferences": {}
}