{
  "_format": "hh-sol-artifact-1",
  "contractName": "CampaignInfo",
  "sourceName": "contracts/CampaignInfo.sol",
  "abi": [
    {
      "inputs": [
        {
          "internalType": "string",
          "name": "_identifier",
          "type": "string"
        },
        {
          "internalType": "bytes32",
          "name": "_originPlatform",
          "type": "bytes32"
        },
        {
          "internalType": "string",
          "name": "_creatorUrl",
          "type": "string"
        },
        {
          "internalType": "bytes32[]",
          "name": "_reachPlatform",
          "type": "bytes32[]"
        },
        {
          "internalType": "address",
          "name": "_registryAddress",
          "type": "address"
        },
        {
          "internalType": "address",
          "name": "_creator",
          "type": "address"
        },
        {
          "internalType": "uint256",
          "name": "_earlyPledgeAmount",
          "type": "uint256"
        }
      ],
      "stateMutability": "nonpayable",
      "type": "constructor"
    },
    {
      "anonymous": false,
      "inputs": [
        {
          "indexed": true,
          "internalType": "address",
          "name": "previousOwner",
          "type": "address"
        },
        {
          "indexed": true,
          "internalType": "address",
          "name": "newOwner",
          "type": "address"
        }
      ],
      "name": "OwnershipTransferred",
      "type": "event"
    },
    {
      "anonymous": false,
      "inputs": [
        {
          "indexed": false,
          "internalType": "address",
          "name": "account",
          "type": "address"
        }
      ],
      "name": "Paused",
      "type": "event"
    },
    {
      "anonymous": false,
      "inputs": [
        {
          "indexed": false,
          "internalType": "address",
          "name": "account",
          "type": "address"
        }
      ],
      "name": "Unpaused",
      "type": "event"
    },
    {
      "inputs": [
        {
          "internalType": "string",
          "name": "name",
          "type": "string"
        },
        {
          "internalType": "string",
          "name": "description",
          "type": "string"
        }
      ],
      "name": "addItem",
      "outputs": [],
      "stateMutability": "nonpayable",
      "type": "function"
    },
    {
      "inputs": [
        {
          "internalType": "bytes32",
          "name": "_platformId",
          "type": "bytes32"
        }
      ],
      "name": "addReachPlatform",
      "outputs": [],
      "stateMutability": "nonpayable",
      "type": "function"
    },
    {
      "inputs": [
        {
          "internalType": "bool",
          "name": "isAddOn",
          "type": "bool"
        },
        {
          "internalType": "uint256",
          "name": "rewardValue",
          "type": "uint256"
        },
        {
          "internalType": "string",
          "name": "name",
          "type": "string"
        },
        {
          "internalType": "string[]",
          "name": "itemName",
          "type": "string[]"
        },
        {
          "internalType": "uint256[]",
          "name": "itemQuantity",
          "type": "uint256[]"
        }
      ],
      "name": "addReward",
      "outputs": [],
      "stateMutability": "nonpayable",
      "type": "function"
    },
    {
      "inputs": [
        {
          "internalType": "bytes32",
          "name": "platformId",
          "type": "bytes32"
        },
        {
          "internalType": "address",
          "name": "backer",
          "type": "address"
        },
        {
          "internalType": "bool",
          "name": "isFiat",
          "type": "bool"
        }
      ],
      "name": "becomeAnEarlyBacker",
      "outputs": [
        {
          "internalType": "uint256",
          "name": "tokenId",
          "type": "uint256"
        }
      ],
      "stateMutability": "nonpayable",
      "type": "function"
    },
    {
      "inputs": [
        {
          "internalType": "address",
          "name": "backer",
          "type": "address"
        },
        {
          "internalType": "uint256",
          "name": "tokenId",
          "type": "uint256"
        }
      ],
      "name": "claimRefundForAReward",
      "outputs": [],
      "stateMutability": "nonpayable",
      "type": "function"
    },
    {
      "inputs": [
        {
          "internalType": "address",
          "name": "backer",
          "type": "address"
        },
        {
          "internalType": "uint256",
          "name": "amount",
          "type": "uint256"
        },
        {
          "internalType": "bytes32",
          "name": "platformId",
          "type": "bytes32"
        }
      ],
      "name": "claimRefundWithoutAReward",
      "outputs": [],
      "stateMutability": "nonpayable",
      "type": "function"
    },
    {
      "inputs": [],
      "name": "end",
      "outputs": [],
      "stateMutability": "nonpayable",
      "type": "function"
    },
    {
      "inputs": [
        {
          "internalType": "address",
          "name": "backer",
          "type": "address"
        },
        {
          "internalType": "bytes32",
          "name": "platformId",
          "type": "bytes32"
        }
      ],
      "name": "getBackerPledgeInfoForAPlatform",
      "outputs": [
        {
          "internalType": "uint256",
          "name": "",
          "type": "uint256"
        }
      ],
      "stateMutability": "view",
      "type": "function"
    },
    {
      "inputs": [],
      "name": "getCampaignData",
      "outputs": [
        {
          "internalType": "string",
          "name": "",
          "type": "string"
        },
        {
          "internalType": "uint256",
          "name": "",
          "type": "uint256"
        },
        {
          "internalType": "uint256",
          "name": "",
          "type": "uint256"
        },
        {
          "internalType": "uint256",
          "name": "",
          "type": "uint256"
        },
        {
          "internalType": "uint256",
          "name": "",
          "type": "uint256"
        },
        {
          "internalType": "string",
          "name": "",
          "type": "string"
        }
      ],
      "stateMutability": "view",
      "type": "function"
    },
    {
      "inputs": [],
      "name": "getCampaignOriginPlatform",
      "outputs": [
        {
          "internalType": "bytes32",
          "name": "",
          "type": "bytes32"
        }
      ],
      "stateMutability": "view",
      "type": "function"
    },
    {
      "inputs": [],
      "name": "getCampaignReachPlatforms",
      "outputs": [
        {
          "internalType": "bytes32[]",
          "name": "",
          "type": "bytes32[]"
        }
      ],
      "stateMutability": "view",
      "type": "function"
    },
    {
      "inputs": [
        {
          "internalType": "bytes32",
          "name": "platformId",
          "type": "bytes32"
        }
      ],
      "name": "getPledgedAmountForAPlatformCrypto",
      "outputs": [
        {
          "internalType": "uint256",
          "name": "",
          "type": "uint256"
        }
      ],
      "stateMutability": "view",
      "type": "function"
    },
    {
      "inputs": [
        {
          "internalType": "bytes32",
          "name": "platformId",
          "type": "bytes32"
        }
      ],
      "name": "getPledgedAmountForPlatformCrypto",
      "outputs": [
        {
          "internalType": "uint256",
          "name": "",
          "type": "uint256"
        }
      ],
      "stateMutability": "view",
      "type": "function"
    },
    {
      "inputs": [],
      "name": "getTotalPledgedAmountCrypto",
      "outputs": [
        {
          "internalType": "uint256",
          "name": "",
          "type": "uint256"
        }
      ],
      "stateMutability": "view",
      "type": "function"
    },
    {
      "inputs": [
        {
          "internalType": "bytes32",
          "name": "platformId",
          "type": "bytes32"
        }
      ],
      "name": "getTreasuryAddress",
      "outputs": [
        {
          "internalType": "address",
          "name": "",
          "type": "address"
        }
      ],
      "stateMutability": "view",
      "type": "function"
    },
    {
      "inputs": [],
      "name": "owner",
      "outputs": [
        {
          "internalType": "address",
          "name": "",
          "type": "address"
        }
      ],
      "stateMutability": "view",
      "type": "function"
    },
    {
      "inputs": [],
      "name": "pause",
      "outputs": [],
      "stateMutability": "nonpayable",
      "type": "function"
    },
    {
      "inputs": [
        {
          "internalType": "bytes32",
          "name": "platformHex",
          "type": "bytes32"
        },
        {
          "internalType": "bool",
          "name": "paused",
          "type": "bool"
        }
      ],
      "name": "pauseOrUnpauseForPlatform",
      "outputs": [],
      "stateMutability": "nonpayable",
      "type": "function"
    },
    {
      "inputs": [],
      "name": "paused",
      "outputs": [
        {
          "internalType": "bool",
          "name": "",
          "type": "bool"
        }
      ],
      "stateMutability": "view",
      "type": "function"
    },
    {
      "inputs": [
        {
          "internalType": "bytes32",
          "name": "platformId",
          "type": "bytes32"
        },
        {
          "internalType": "address",
          "name": "backer",
          "type": "address"
        },
        {
          "internalType": "string",
          "name": "rewardName",
          "type": "string"
        },
        {
          "internalType": "string",
          "name": "addOnName",
          "type": "string"
        },
        {
          "internalType": "bool",
          "name": "isFiat",
          "type": "bool"
        }
      ],
      "name": "pledgeForAReward",
      "outputs": [
        {
          "internalType": "uint256",
          "name": "tokenId",
          "type": "uint256"
        }
      ],
      "stateMutability": "nonpayable",
      "type": "function"
    },
    {
      "inputs": [
        {
          "internalType": "bytes32",
          "name": "platformId",
          "type": "bytes32"
        },
        {
          "internalType": "address",
          "name": "backer",
          "type": "address"
        },
        {
          "internalType": "uint256",
          "name": "amount",
          "type": "uint256"
        },
        {
          "internalType": "bool",
          "name": "isFiat",
          "type": "bool"
        }
      ],
      "name": "pledgeWithoutAReward",
      "outputs": [],
      "stateMutability": "nonpayable",
      "type": "function"
    },
    {
      "inputs": [],
      "name": "renounceOwnership",
      "outputs": [],
      "stateMutability": "nonpayable",
      "type": "function"
    },
    {
      "inputs": [],
      "name": "rewardedPlatform",
      "outputs": [
        {
          "internalType": "bytes32",
          "name": "",
          "type": "bytes32"
        }
      ],
      "stateMutability": "view",
      "type": "function"
    },
    {
      "inputs": [
        {
          "internalType": "uint256",
          "name": "launchTime",
          "type": "uint256"
        },
        {
          "internalType": "uint256",
          "name": "deadline",
          "type": "uint256"
        },
        {
          "internalType": "uint256",
          "name": "goalAmount",
          "type": "uint256"
        },
        {
          "internalType": "bool",
          "name": "enableLatePledge",
          "type": "bool"
        }
      ],
      "name": "setLaunch",
      "outputs": [],
      "stateMutability": "nonpayable",
      "type": "function"
    },
    {
      "inputs": [
        {
          "internalType": "bytes32",
          "name": "_platformId",
          "type": "bytes32"
        },
        {
          "internalType": "address",
          "name": "_platformWallet",
          "type": "address"
        },
        {
          "internalType": "address",
          "name": "_treasury",
          "type": "address"
        },
        {
          "internalType": "address",
          "name": "_token",
          "type": "address"
        }
      ],
      "name": "setPlatformInfo",
      "outputs": [],
      "stateMutability": "nonpayable",
      "type": "function"
    },
    {
      "inputs": [],
      "name": "specifiedTime",
      "outputs": [
        {
          "internalType": "uint256",
          "name": "",
          "type": "uint256"
        }
      ],
      "stateMutability": "view",
      "type": "function"
    },
    {
      "inputs": [],
      "name": "splitFeesProportionately",
      "outputs": [],
      "stateMutability": "nonpayable",
      "type": "function"
    },
    {
      "inputs": [
        {
          "internalType": "address",
          "name": "newOwner",
          "type": "address"
        }
      ],
      "name": "transferOwnership",
      "outputs": [],
      "stateMutability": "nonpayable",
      "type": "function"
    },
    {
      "inputs": [],
      "name": "unpause",
      "outputs": [],
      "stateMutability": "nonpayable",
      "type": "function"
    },
    {
      "inputs": [
        {
          "internalType": "uint256",
          "name": "_deadline",
          "type": "uint256"
        }
      ],
      "name": "updateDeadline",
      "outputs": [],
      "stateMutability": "nonpayable",
      "type": "function"
    },
    {
      "inputs": [
        {
          "internalType": "uint256",
          "name": "_goalAmount",
          "type": "uint256"
        }
      ],
      "name": "updateGoal",
      "outputs": [],
      "stateMutability": "nonpayable",
      "type": "function"
    },
    {
      "inputs": [
        {
          "internalType": "uint256",
          "name": "_launchTime",
          "type": "uint256"
        }
      ],
      "name": "updateLaunchTime",
      "outputs": [],
      "stateMutability": "nonpayable",
      "type": "function"
    }
  ],
  "bytecode": "0x60806040523480156200001157600080fd5b506040516200564c3803806200564c8339818101604052810190620000379190620007d6565b620000576200004b6200014560201b60201c565b6200014d60201b60201c565b60008060146101000a81548160ff02191690831515021790555086600460000190805190602001906200008c92919062000362565b50856004600101819055504260048001819055508460046006019080519060200190620000bb92919062000362565b508360046007019080519060200190620000d7929190620003f3565b5082600c60006101000a81548173ffffffffffffffffffffffffffffffffffffffff021916908373ffffffffffffffffffffffffffffffffffffffff1602179055504260118190555062000131826200021160201b60201c565b80600e819055505050505050505062000a66565b600033905090565b60008060009054906101000a900473ffffffffffffffffffffffffffffffffffffffff169050816000806101000a81548173ffffffffffffffffffffffffffffffffffffffff021916908373ffffffffffffffffffffffffffffffffffffffff1602179055508173ffffffffffffffffffffffffffffffffffffffff168173ffffffffffffffffffffffffffffffffffffffff167f8be0079c531659141344cd1fd0a4f28419497f9722a3daafe3b4186f6b6457e060405160405180910390a35050565b62000221620002a860201b60201c565b600073ffffffffffffffffffffffffffffffffffffffff168173ffffffffffffffffffffffffffffffffffffffff16141562000294576040517f08c379a00000000000000000000000000000000000000000000000000000000081526004016200028b906200096d565b60405180910390fd5b620002a5816200014d60201b60201c565b50565b620002b86200014560201b60201c565b73ffffffffffffffffffffffffffffffffffffffff16620002de6200033960201b60201c565b73ffffffffffffffffffffffffffffffffffffffff161462000337576040517f08c379a00000000000000000000000000000000000000000000000000000000081526004016200032e90620009df565b60405180910390fd5b565b60008060009054906101000a900473ffffffffffffffffffffffffffffffffffffffff16905090565b828054620003709062000a30565b90600052602060002090601f016020900481019282620003945760008555620003e0565b82601f10620003af57805160ff1916838001178555620003e0565b82800160010185558215620003e0579182015b82811115620003df578251825591602001919060010190620003c2565b5b509050620003ef919062000445565b5090565b82805482825590600052602060002090810192821562000432579160200282015b828111156200043157825182559160200191906001019062000414565b5b50905062000441919062000464565b5090565b5b808211156200046057600081600090555060010162000446565b5090565b5b808211156200047f57600081600090555060010162000465565b5090565b6000604051905090565b600080fd5b600080fd5b600080fd5b600080fd5b6000601f19601f8301169050919050565b7f4e487b7100000000000000000000000000000000000000000000000000000000600052604160045260246000fd5b620004ec82620004a1565b810181811067ffffffffffffffff821117156200050e576200050d620004b2565b5b80604052505050565b60006200052362000483565b9050620005318282620004e1565b919050565b600067ffffffffffffffff821115620005545762000553620004b2565b5b6200055f82620004a1565b9050602081019050919050565b60005b838110156200058c5780820151818401526020810190506200056f565b838111156200059c576000848401525b50505050565b6000620005b9620005b38462000536565b62000517565b905082815260208101848484011115620005d857620005d76200049c565b5b620005e58482856200056c565b509392505050565b600082601f83011262000605576200060462000497565b5b815162000617848260208601620005a2565b91505092915050565b6000819050919050565b620006358162000620565b81146200064157600080fd5b50565b60008151905062000655816200062a565b92915050565b600067ffffffffffffffff821115620006795762000678620004b2565b5b602082029050602081019050919050565b600080fd5b6000620006a6620006a0846200065b565b62000517565b90508083825260208201905060208402830185811115620006cc57620006cb6200068a565b5b835b81811015620006f95780620006e4888262000644565b845260208401935050602081019050620006ce565b5050509392505050565b600082601f8301126200071b576200071a62000497565b5b81516200072d8482602086016200068f565b91505092915050565b600073ffffffffffffffffffffffffffffffffffffffff82169050919050565b6000620007638262000736565b9050919050565b620007758162000756565b81146200078157600080fd5b50565b60008151905062000795816200076a565b92915050565b6000819050919050565b620007b0816200079b565b8114620007bc57600080fd5b50565b600081519050620007d081620007a5565b92915050565b600080600080600080600060e0888a031215620007f857620007f76200048d565b5b600088015167ffffffffffffffff81111562000819576200081862000492565b5b620008278a828b01620005ed565b97505060206200083a8a828b0162000644565b965050604088015167ffffffffffffffff8111156200085e576200085d62000492565b5b6200086c8a828b01620005ed565b955050606088015167ffffffffffffffff81111562000890576200088f62000492565b5b6200089e8a828b0162000703565b9450506080620008b18a828b0162000784565b93505060a0620008c48a828b0162000784565b92505060c0620008d78a828b01620007bf565b91505092959891949750929550565b600082825260208201905092915050565b7f4f776e61626c653a206e6577206f776e657220697320746865207a65726f206160008201527f6464726573730000000000000000000000000000000000000000000000000000602082015250565b600062000955602683620008e6565b91506200096282620008f7565b604082019050919050565b60006020820190508181036000830152620009888162000946565b9050919050565b7f4f776e61626c653a2063616c6c6572206973206e6f7420746865206f776e6572600082015250565b6000620009c7602083620008e6565b9150620009d4826200098f565b602082019050919050565b60006020820190508181036000830152620009fa81620009b8565b9050919050565b7f4e487b7100000000000000000000000000000000000000000000000000000000600052602260045260246000fd5b6000600282049050600182168062000a4957607f821691505b6020821081141562000a605762000a5f62000a01565b5b50919050565b614bd68062000a766000396000f3fe608060405234801561001057600080fd5b50600436106101f05760003560e01c806383d23ab31161010f578063c512ad4c116100a2578063f2fde38b11610071578063f2fde38b14610522578063f407d7dc1461053e578063f84036761461055a578063fb7846df14610578576101f0565b8063c512ad4c146104b0578063deaaf241146104cc578063e12900f2146104e8578063efbe1c1c14610518576101f0565b80638da5cb5b116100de5780638da5cb5b14610421578063a0797f751461043f578063a70ee00a1461045d578063c41763381461048d576101f0565b806383d23ab3146103af5780638456cb59146103cb57806384ea5c74146103d55780638bb3061314610405576101f0565b80634b22cd0611610187578063715018a611610156578063715018a6146103615780637568173b1461036b5780637712b172146103755780637ed8a71914610393576101f0565b80634b22cd06146102db5780635c975abb1461030b57806368027e4314610329578063695c27c214610345576101f0565b806330c00b00116101c357806330c00b0014610269578063316fb7c4146102995780633f4ba83a146102b557806342af1884146102bf576101f0565b806311d6081c146101f557806318b90a9414610211578063195761241461022d5780632e162db61461024b575b600080fd5b61020f600480360381019061020a91906134b7565b6105a8565b005b61022b6004803603810190610226919061388c565b61077b565b005b610235610876565b604051610242919061396d565b60405180910390f35b61025361087c565b6040516102609190613a46565b60405180910390f35b610283600480360381019061027e9190613a68565b6108d7565b6040516102909190613aa4565b60405180910390f35b6102b360048036038101906102ae9190613abf565b610a74565b005b6102bd610ad9565b005b6102d960048036038101906102d49190613abf565b610c87565b005b6102f560048036038101906102f09190613aec565b610d0a565b6040516103029190613aa4565b60405180910390f35b61031361109c565b6040516103209190613bb7565b60405180910390f35b610343600480360381019061033e9190613abf565b6110b2565b005b61035f600480360381019061035a9190613bd2565b611135565b005b61036961118e565b005b6103736111a2565b005b61037d611682565b60405161038a9190613aa4565b60405180910390f35b6103ad60048036038101906103a89190613c39565b611688565b005b6103c960048036038101906103c49190613a68565b6116c1565b005b6103d3611748565b005b6103ef60048036038101906103ea9190613a68565b6118f6565b6040516103fc9190613cc9565b60405180910390f35b61041f600480360381019061041a9190613ce4565b6119d8565b005b610429611b9c565b6040516104369190613cc9565b60405180910390f35b610447611bc5565b604051610454919061396d565b60405180910390f35b61047760048036038101906104729190613d4b565b611bd2565b6040516104849190613aa4565b60405180910390f35b610495611e47565b6040516104a796959493929190613e26565b60405180910390f35b6104ca60048036038101906104c59190613e95565b611f9e565b005b6104e660048036038101906104e19190613ed5565b612263565b005b61050260048036038101906104fd9190613f3c565b6123b7565b60405161050f9190613aa4565b60405180910390f35b610520612412565b005b61053c60048036038101906105379190613f7c565b6125d3565b005b61055860048036038101906105539190613fa9565b612657565b005b6105626127e7565b60405161056f9190613aa4565b60405180910390f35b610592600480360381019061058d9190613a68565b612b52565b60405161059f9190613aa4565b60405180910390f35b6000601560008573ffffffffffffffffffffffffffffffffffffffff1673ffffffffffffffffffffffffffffffffffffffff168152602001908152602001600020600083815260200190815260200160002054905080831115610640576040517f08c379a000000000000000000000000000000000000000000000000000000000815260040161063790614035565b60405180910390fd5b828161064c9190614084565b601560008673ffffffffffffffffffffffffffffffffffffffff1673ffffffffffffffffffffffffffffffffffffffff1681526020019081526020016000206000848152602001908152602001600020819055506012600083815260200190815260200160002060009054906101000a900473ffffffffffffffffffffffffffffffffffffffff1673ffffffffffffffffffffffffffffffffffffffff166360a56b3a856013600086815260200190815260200160002060009054906101000a900473ffffffffffffffffffffffffffffffffffffffff16866040518463ffffffff1660e01b8152600401610743939291906140b8565b600060405180830381600087803b15801561075d57600080fd5b505af1158015610771573d6000803e3d6000fd5b5050505050505050565b6000866107a9576001858560405161079492919061411f565b908152602001604051809103902090506107cc565b600285856040516107bb92919061411f565b908152602001604051809103902090505b858160000181905550828160020190805190602001906107ed9291906131ec565b5060008251905060005b8181101561086b5783818151811061081257610811614138565b5b60200260200101518360030186838151811061083157610830614138565b5b60200260200101516040516108469190614198565b9081526020016040518091039020819055508080610863906141af565b9150506107f7565b505050505050505050565b60105481565b606060046007018054806020026020016040519081016040528092919081815260200182805480156108cd57602002820191906000526020600020905b8154815260200190600101908083116108b9575b5050505050905090565b600081600073ffffffffffffffffffffffffffffffffffffffff166012600083815260200190815260200160002060009054906101000a900473ffffffffffffffffffffffffffffffffffffffff1673ffffffffffffffffffffffffffffffffffffffff16141561097d576040517f08c379a00000000000000000000000000000000000000000000000000000000081526004016109749061426a565b60405180910390fd5b6013600084815260200190815260200160002060009054906101000a900473ffffffffffffffffffffffffffffffffffffffff1673ffffffffffffffffffffffffffffffffffffffff166370a082316012600086815260200190815260200160002060009054906101000a900473ffffffffffffffffffffffffffffffffffffffff166040518263ffffffff1660e01b8152600401610a1c9190613cc9565b60206040518083038186803b158015610a3457600080fd5b505afa158015610a48573d6000803e3d6000fd5b505050506040513d601f19601f82011682018060405250810190610a6c919061429f565b915050919050565b600c60149054906101000a900460ff1615610ac4576040517f08c379a0000000000000000000000000000000000000000000000000000000008152600401610abb90614318565b60405180910390fd5b610acc612c4a565b8060046002018190555050565b600c60149054906101000a900460ff1615610b29576040517f08c379a0000000000000000000000000000000000000000000000000000000008152600401610b2090614318565b60405180910390fd5b3373ffffffffffffffffffffffffffffffffffffffff16600c60009054906101000a900473ffffffffffffffffffffffffffffffffffffffff1673ffffffffffffffffffffffffffffffffffffffff16635bad43996040518163ffffffff1660e01b815260040160206040518083038186803b158015610ba857600080fd5b505afa158015610bbc573d6000803e3d6000fd5b505050506040513d601f19601f82011682018060405250810190610be0919061434d565b73ffffffffffffffffffffffffffffffffffffffff1663420f68616040518163ffffffff1660e01b815260040160206040518083038186803b158015610c2557600080fd5b505afa158015610c39573d6000803e3d6000fd5b505050506040513d601f19601f82011682018060405250810190610c5d919061434d565b73ffffffffffffffffffffffffffffffffffffffff1614610c7d57600080fd5b610c85612cc8565b565b600c60149054906101000a900460ff1615610cd7576040517f08c379a0000000000000000000000000000000000000000000000000000000008152600401610cce90614318565b60405180910390fd5b610cdf612c4a565b80600d54600460030154610cf3919061437a565b10610cfd57600080fd5b8060046005018190555050565b6000600c60149054906101000a900460ff1615610d5c576040517f08c379a0000000000000000000000000000000000000000000000000000000008152600401610d5390614318565b60405180910390fd5b610d64612d2a565b600f60009054906101000a900460ff168015610d84575042600460030154105b610dc3576040517f08c379a0000000000000000000000000000000000000000000000000000000008152600401610dba9061441c565b60405180910390fd5b6000601360008a815260200190815260200160002060009054906101000a900473ffffffffffffffffffffffffffffffffffffffff169050600060028686604051610e0f92919061411f565b90815260200160405180910390206000015460018989604051610e3392919061411f565b908152602001604051809103902060000154610e4f919061437a565b9050601660008a73ffffffffffffffffffffffffffffffffffffffff1673ffffffffffffffffffffffffffffffffffffffff16815260200190815260200160002060009054906101000a900460ff1615610f0c57600e5481610eb19190614084565b90506000601660008b73ffffffffffffffffffffffffffffffffffffffff1673ffffffffffffffffffffffffffffffffffffffff16815260200190815260200160002060006101000a81548160ff0219169083151502179055505b610f4c82601260008d815260200190815260200160002060009054906101000a900473ffffffffffffffffffffffffffffffffffffffff168b8488612d74565b600c60009054906101000a900473ffffffffffffffffffffffffffffffffffffffff1673ffffffffffffffffffffffffffffffffffffffff166330525f666040518163ffffffff1660e01b815260040160206040518083038186803b158015610fb457600080fd5b505afa158015610fc8573d6000803e3d6000fd5b505050506040513d601f19601f82011682018060405250810190610fec919061434d565b73ffffffffffffffffffffffffffffffffffffffff16634ebc0c198a84600e5485611017919061437a565b8e8d8d6040518763ffffffff1660e01b815260040161103b96959493929190614469565b602060405180830381600087803b15801561105557600080fd5b505af1158015611069573d6000803e3d6000fd5b505050506040513d601f19601f8201168201806040525081019061108d919061429f565b92505050979650505050505050565b60008060149054906101000a900460ff16905090565b600c60149054906101000a900460ff1615611102576040517f08c379a00000000000000000000000000000000000000000000000000000000081526004016110f990614318565b60405180910390fd5b61110a612c4a565b600460050154600d548261111e919061437a565b1061112857600080fd5b8060046003018190555050565b83600460030181905550826004600501819055508160046002018190555080600f60016101000a81548160ff0219169083151502179055506001600f60006101000a81548160ff02191690831515021790555050505050565b611196612c4a565b6111a06000612e8a565b565b6000600c60009054906101000a900473ffffffffffffffffffffffffffffffffffffffff1673ffffffffffffffffffffffffffffffffffffffff16635bad43996040518163ffffffff1660e01b815260040160206040518083038186803b15801561120c57600080fd5b505afa158015611220573d6000803e3d6000fd5b505050506040513d601f19601f82011682018060405250810190611244919061434d565b90506000600460070180548060200260200160405190810160405280929190818152602001828054801561129757602002820191906000526020600020905b815481526020019060010190808311611283575b505050505090506000600182516112ae919061437a565b67ffffffffffffffff8111156112c7576112c66135b8565b5b6040519080825280602002602001820160405280156112f55781602001602082028036833780820191505090505b509050600060018351611308919061437a565b67ffffffffffffffff811115611321576113206135b8565b5b60405190808252806020026020018201604052801561134f5781602001602082028036833780820191505090505b50905060005b83518110156113ed5783818151811061137157611370614138565b5b602002602001015183828151811061138c5761138b614138565b5b6020026020010181815250506113bb8482815181106113ae576113ad614138565b5b60200260200101516108d7565b8282815181106113ce576113cd614138565b5b60200260200101818152505080806113e5906141af565b915050611355565b506004600101548284518151811061140857611407614138565b5b6020026020010181815250506114226004600101546108d7565b8184518151811061143657611435614138565b5b6020026020010181815250506000600c60009054906101000a900473ffffffffffffffffffffffffffffffffffffffff1673ffffffffffffffffffffffffffffffffffffffff16630eeaef466040518163ffffffff1660e01b815260040160206040518083038186803b1580156114ac57600080fd5b505afa1580156114c0573d6000803e3d6000fd5b505050506040513d601f19601f820116820180604052508101906114e4919061434d565b73ffffffffffffffffffffffffffffffffffffffff1663bdec30ba8673ffffffffffffffffffffffffffffffffffffffff16638274f2d66040518163ffffffff1660e01b815260040160206040518083038186803b15801561154557600080fd5b505afa158015611559573d6000803e3d6000fd5b505050506040513d601f19601f8201168201806040525081019061157d919061429f565b8773ffffffffffffffffffffffffffffffffffffffff1663fe6f1b056040518163ffffffff1660e01b815260040160206040518083038186803b1580156115c357600080fd5b505afa1580156115d7573d6000803e3d6000fd5b505050506040513d601f19601f820116820180604052508101906115fb919061429f565b856040518463ffffffff1660e01b815260040161161a93929190614583565b60006040518083038186803b15801561163257600080fd5b505afa158015611646573d6000803e3d6000fd5b505050506040513d6000823e3d601f19601f8201168201806040525081019061166f9190614658565b905061167b8382612f4e565b5050505050565b60115481565b81816003868660405161169c92919061411f565b908152602001604051809103902060000191906116ba92919061324c565b5050505050565b600c60149054906101000a900460ff1615611711576040517f08c379a000000000000000000000000000000000000000000000000000000000815260040161170890614318565b60405180910390fd5b611719612c4a565b600460070181908060018154018082558091505060019003906000526020600020016000909190919091505550565b600c60149054906101000a900460ff1615611798576040517f08c379a000000000000000000000000000000000000000000000000000000000815260040161178f90614318565b60405180910390fd5b3373ffffffffffffffffffffffffffffffffffffffff16600c60009054906101000a900473ffffffffffffffffffffffffffffffffffffffff1673ffffffffffffffffffffffffffffffffffffffff16635bad43996040518163ffffffff1660e01b815260040160206040518083038186803b15801561181757600080fd5b505afa15801561182b573d6000803e3d6000fd5b505050506040513d601f19601f8201168201806040525081019061184f919061434d565b73ffffffffffffffffffffffffffffffffffffffff1663420f68616040518163ffffffff1660e01b815260040160206040518083038186803b15801561189457600080fd5b505afa1580156118a8573d6000803e3d6000fd5b505050506040513d601f19601f820116820180604052508101906118cc919061434d565b73ffffffffffffffffffffffffffffffffffffffff16146118ec57600080fd5b6118f4612fb6565b565b600081600073ffffffffffffffffffffffffffffffffffffffff166012600083815260200190815260200160002060009054906101000a900473ffffffffffffffffffffffffffffffffffffffff1673ffffffffffffffffffffffffffffffffffffffff16141561199c576040517f08c379a00000000000000000000000000000000000000000000000000000000081526004016119939061426a565b60405180910390fd5b6012600084815260200190815260200160002060009054906101000a900473ffffffffffffffffffffffffffffffffffffffff16915050919050565b600c60149054906101000a900460ff1615611a28576040517f08c379a0000000000000000000000000000000000000000000000000000000008152600401611a1f90614318565b60405180910390fd5b611a30612d2a565b426004600501541015611aa557600460020154611a4b6127e7565b10158015611a655750600f60019054906101000a900460ff165b611aa4576040517f08c379a0000000000000000000000000000000000000000000000000000000008152600401611a9b906146ed565b60405180910390fd5b5b4260046003015410611ab657600080fd5b60006013600086815260200190815260200160002060009054906101000a900473ffffffffffffffffffffffffffffffffffffffff169050611b2e816012600088815260200190815260200160002060009054906101000a900473ffffffffffffffffffffffffffffffffffffffff16868686612d74565b82601560008673ffffffffffffffffffffffffffffffffffffffff1673ffffffffffffffffffffffffffffffffffffffff16815260200190815260200160002060008781526020019081526020016000206000828254611b8e919061437a565b925050819055505050505050565b60008060009054906101000a900473ffffffffffffffffffffffffffffffffffffffff16905090565b6000600460010154905090565b6000600c60149054906101000a900460ff1615611c24576040517f08c379a0000000000000000000000000000000000000000000000000000000008152600401611c1b90614318565b60405180910390fd5b611c2c612d2a565b600f60009054906101000a900460ff161580611c4c575042600460030154115b611c8b576040517f08c379a0000000000000000000000000000000000000000000000000000000008152600401611c82906146ed565b60405180910390fd5b60006012600086815260200190815260200160002060009054906101000a900473ffffffffffffffffffffffffffffffffffffffff16905060006013600087815260200190815260200160002060009054906101000a900473ffffffffffffffffffffffffffffffffffffffff169050611d0a818387600e5488612d74565b600c60009054906101000a900473ffffffffffffffffffffffffffffffffffffffff1673ffffffffffffffffffffffffffffffffffffffff166330525f666040518163ffffffff1660e01b815260040160206040518083038186803b158015611d7257600080fd5b505afa158015611d86573d6000803e3d6000fd5b505050506040513d601f19601f82011682018060405250810190611daa919061434d565b73ffffffffffffffffffffffffffffffffffffffff16638e48312f8683600e548a6040518563ffffffff1660e01b8152600401611dea949392919061470d565b602060405180830381600087803b158015611e0457600080fd5b505af1158015611e18573d6000803e3d6000fd5b505050506040513d601f19601f82011682018060405250810190611e3c919061429f565b925050509392505050565b60606000806000806060600460000160046002015460046003015460048001546004600501546004600601858054611e7e90614781565b80601f0160208091040260200160405190810160405280929190818152602001828054611eaa90614781565b8015611ef75780601f10611ecc57610100808354040283529160200191611ef7565b820191906000526020600020905b815481529060010190602001808311611eda57829003601f168201915b50505050509550808054611f0a90614781565b80601f0160208091040260200160405190810160405280929190818152602001828054611f3690614781565b8015611f835780601f10611f5857610100808354040283529160200191611f83565b820191906000526020600020905b815481529060010190602001808311611f6657829003601f168201915b50505050509050955095509550955095509550909192939495565b6000600c60009054906101000a900473ffffffffffffffffffffffffffffffffffffffff1673ffffffffffffffffffffffffffffffffffffffff166330525f666040518163ffffffff1660e01b815260040160206040518083038186803b15801561200857600080fd5b505afa15801561201c573d6000803e3d6000fd5b505050506040513d601f19601f82011682018060405250810190612040919061434d565b9050606060008273ffffffffffffffffffffffffffffffffffffffff1663c20c42f8856040518263ffffffff1660e01b815260040161207f9190613aa4565b60006040518083038186803b15801561209757600080fd5b505afa1580156120ab573d6000803e3d6000fd5b505050506040513d6000823e3d601f19601f820116820180604052508101906120d49190614838565b90919293949550909192939450909192935090919250909150809350819250505060006001836040516121079190614198565b90815260200160405180910390206000015490508373ffffffffffffffffffffffffffffffffffffffff166342966c68866040518263ffffffff1660e01b81526004016121549190613aa4565b600060405180830381600087803b15801561216e57600080fd5b505af1158015612182573d6000803e3d6000fd5b505050506012600083815260200190815260200160002060009054906101000a900473ffffffffffffffffffffffffffffffffffffffff1673ffffffffffffffffffffffffffffffffffffffff166360a56b3a876013600086815260200190815260200160002060009054906101000a900473ffffffffffffffffffffffffffffffffffffffff16846040518463ffffffff1660e01b8152600401612229939291906140b8565b600060405180830381600087803b15801561224357600080fd5b505af1158015612257573d6000803e3d6000fd5b50505050505050505050565b600c60149054906101000a900460ff16156122b3576040517f08c379a00000000000000000000000000000000000000000000000000000000081526004016122aa90614318565b60405180910390fd5b6122bb612c4a565b826014600086815260200190815260200160002060006101000a81548173ffffffffffffffffffffffffffffffffffffffff021916908373ffffffffffffffffffffffffffffffffffffffff160217905550816012600086815260200190815260200160002060006101000a81548173ffffffffffffffffffffffffffffffffffffffff021916908373ffffffffffffffffffffffffffffffffffffffff160217905550806013600086815260200190815260200160002060006101000a81548173ffffffffffffffffffffffffffffffffffffffff021916908373ffffffffffffffffffffffffffffffffffffffff16021790555050505050565b6000601560008473ffffffffffffffffffffffffffffffffffffffff1673ffffffffffffffffffffffffffffffffffffffff168152602001908152602001600020600083815260200190815260200160002054905092915050565b600c60149054906101000a900460ff1615612462576040517f08c379a000000000000000000000000000000000000000000000000000000000815260040161245990614318565b60405180910390fd5b3373ffffffffffffffffffffffffffffffffffffffff16600c60009054906101000a900473ffffffffffffffffffffffffffffffffffffffff1673ffffffffffffffffffffffffffffffffffffffff16635bad43996040518163ffffffff1660e01b815260040160206040518083038186803b1580156124e157600080fd5b505afa1580156124f5573d6000803e3d6000fd5b505050506040513d601f19601f82011682018060405250810190612519919061434d565b73ffffffffffffffffffffffffffffffffffffffff1663420f68616040518163ffffffff1660e01b815260040160206040518083038186803b15801561255e57600080fd5b505afa158015612572573d6000803e3d6000fd5b505050506040513d601f19601f82011682018060405250810190612596919061434d565b73ffffffffffffffffffffffffffffffffffffffff16146125b657600080fd5b6001600c60146101000a81548160ff021916908315150217905550565b6125db612c4a565b600073ffffffffffffffffffffffffffffffffffffffff168173ffffffffffffffffffffffffffffffffffffffff16141561264b576040517f08c379a000000000000000000000000000000000000000000000000000000000815260040161264290614968565b60405180910390fd5b61265481612e8a565b50565b813373ffffffffffffffffffffffffffffffffffffffff16600c60009054906101000a900473ffffffffffffffffffffffffffffffffffffffff1673ffffffffffffffffffffffffffffffffffffffff16635bad43996040518163ffffffff1660e01b815260040160206040518083038186803b1580156126d757600080fd5b505afa1580156126eb573d6000803e3d6000fd5b505050506040513d601f19601f8201168201806040525081019061270f919061434d565b73ffffffffffffffffffffffffffffffffffffffff1663a5d90993836040518263ffffffff1660e01b8152600401612747919061396d565b60206040518083038186803b15801561275f57600080fd5b505afa158015612773573d6000803e3d6000fd5b505050506040513d601f19601f82011682018060405250810190612797919061434d565b73ffffffffffffffffffffffffffffffffffffffff16146127b757600080fd5b816017600085815260200190815260200160002060006101000a81548160ff021916908315150217905550505050565b60008060126000600460010154815260200190815260200160002060009054906101000a900473ffffffffffffffffffffffffffffffffffffffff169050600073ffffffffffffffffffffffffffffffffffffffff168173ffffffffffffffffffffffffffffffffffffffff161415612895576040517f08c379a000000000000000000000000000000000000000000000000000000000815260040161288c906149fa565b60405180910390fd5b600060046007018054806020026020016040519081016040528092919081815260200182805480156128e657602002820191906000526020600020905b8154815260200190600101908083116128d2575b50505050509050600081519050600060136000600460010154815260200190815260200160002060009054906101000a900473ffffffffffffffffffffffffffffffffffffffff1673ffffffffffffffffffffffffffffffffffffffff166370a08231856040518263ffffffff1660e01b81526004016129669190613cc9565b60206040518083038186803b15801561297e57600080fd5b505afa158015612992573d6000803e3d6000fd5b505050506040513d601f19601f820116820180604052508101906129b6919061429f565b905060005b82811015612b47576000601260008684815181106129dc576129db614138565b5b6020026020010151815260200190815260200160002060009054906101000a900473ffffffffffffffffffffffffffffffffffffffff169050600060136000878581518110612a2e57612a2d614138565b5b6020026020010151815260200190815260200160002060009054906101000a900473ffffffffffffffffffffffffffffffffffffffff169050600073ffffffffffffffffffffffffffffffffffffffff168273ffffffffffffffffffffffffffffffffffffffff1614612b32578073ffffffffffffffffffffffffffffffffffffffff166370a08231836040518263ffffffff1660e01b8152600401612ad49190613cc9565b60206040518083038186803b158015612aec57600080fd5b505afa158015612b00573d6000803e3d6000fd5b505050506040513d601f19601f82011682018060405250810190612b24919061429f565b84612b2f919061437a565b93505b50508080612b3f906141af565b9150506129bb565b508094505050505090565b60006013600083815260200190815260200160002060009054906101000a900473ffffffffffffffffffffffffffffffffffffffff1673ffffffffffffffffffffffffffffffffffffffff166370a082316012600085815260200190815260200160002060009054906101000a900473ffffffffffffffffffffffffffffffffffffffff166040518263ffffffff1660e01b8152600401612bf39190613cc9565b60206040518083038186803b158015612c0b57600080fd5b505afa158015612c1f573d6000803e3d6000fd5b505050506040513d601f19601f82011682018060405250810190612c43919061429f565b9050919050565b612c52613019565b73ffffffffffffffffffffffffffffffffffffffff16612c70611b9c565b73ffffffffffffffffffffffffffffffffffffffff1614612cc6576040517f08c379a0000000000000000000000000000000000000000000000000000000008152600401612cbd90614a66565b60405180910390fd5b565b612cd0613021565b60008060146101000a81548160ff0219169083151502179055507f5db9ee0a495bf2e6ff9c91a7834c1ba4fdd244a5e8aa4e537bd38aeae4b073aa612d13613019565b604051612d209190613cc9565b60405180910390a1565b612d3261109c565b15612d72576040517f08c379a0000000000000000000000000000000000000000000000000000000008152600401612d6990614ad2565b60405180910390fd5b565b612d7c612d2a565b8015612df2578373ffffffffffffffffffffffffffffffffffffffff1663bf85f263836040518263ffffffff1660e01b8152600401612dbb9190613aa4565b600060405180830381600087803b158015612dd557600080fd5b505af1158015612de9573d6000803e3d6000fd5b50505050612e83565b8473ffffffffffffffffffffffffffffffffffffffff166323b872dd8486856040518463ffffffff1660e01b8152600401612e2f939291906140b8565b602060405180830381600087803b158015612e4957600080fd5b505af1158015612e5d573d6000803e3d6000fd5b505050506040513d601f19601f82011682018060405250810190612e819190614b07565b505b5050505050565b60008060009054906101000a900473ffffffffffffffffffffffffffffffffffffffff169050816000806101000a81548173ffffffffffffffffffffffffffffffffffffffff021916908373ffffffffffffffffffffffffffffffffffffffff1602179055508173ffffffffffffffffffffffffffffffffffffffff168173ffffffffffffffffffffffffffffffffffffffff167f8be0079c531659141344cd1fd0a4f28419497f9722a3daafe3b4186f6b6457e060405160405180910390a35050565b60008251905060005b81811015612fb057612f9d848281518110612f7557612f74614138565b5b6020026020010151848381518110612f9057612f8f614138565b5b602002602001015161306a565b8080612fa8906141af565b915050612f57565b50505050565b612fbe612d2a565b6001600060146101000a81548160ff0219169083151502179055507f62e78cea01bee320cd4e420270b5ea74000d11b0c9f74754ebdbfc544b05a258613002613019565b60405161300f9190613cc9565b60405180910390a1565b600033905090565b61302961109c565b613068576040517f08c379a000000000000000000000000000000000000000000000000000000000815260040161305f90614b80565b60405180910390fd5b565b6000811180156130da5750600073ffffffffffffffffffffffffffffffffffffffff166012600084815260200190815260200160002060009054906101000a900473ffffffffffffffffffffffffffffffffffffffff1673ffffffffffffffffffffffffffffffffffffffff1614155b156131e8576012600083815260200190815260200160002060009054906101000a900473ffffffffffffffffffffffffffffffffffffffff1673ffffffffffffffffffffffffffffffffffffffff166360a56b3a6014600085815260200190815260200160002060009054906101000a900473ffffffffffffffffffffffffffffffffffffffff166013600086815260200190815260200160002060009054906101000a900473ffffffffffffffffffffffffffffffffffffffff16846040518463ffffffff1660e01b81526004016131b5939291906140b8565b600060405180830381600087803b1580156131cf57600080fd5b505af11580156131e3573d6000803e3d6000fd5b505050505b5050565b82805482825590600052602060002090810192821561323b579160200282015b8281111561323a57825182908051906020019061322a9291906132d2565b509160200191906001019061320c565b5b5090506132489190613358565b5090565b82805461325890614781565b90600052602060002090601f01602090048101928261327a57600085556132c1565b82601f1061329357803560ff19168380011785556132c1565b828001600101855582156132c1579182015b828111156132c05782358255916020019190600101906132a5565b5b5090506132ce919061337c565b5090565b8280546132de90614781565b90600052602060002090601f0160209004810192826133005760008555613347565b82601f1061331957805160ff1916838001178555613347565b82800160010185558215613347579182015b8281111561334657825182559160200191906001019061332b565b5b509050613354919061337c565b5090565b5b80821115613378576000818161336f9190613399565b50600101613359565b5090565b5b8082111561339557600081600090555060010161337d565b5090565b5080546133a590614781565b6000825580601f106133b757506133d6565b601f0160209004906000526020600020908101906133d5919061337c565b5b50565b6000604051905090565b600080fd5b600080fd5b600073ffffffffffffffffffffffffffffffffffffffff82169050919050565b6000613418826133ed565b9050919050565b6134288161340d565b811461343357600080fd5b50565b6000813590506134458161341f565b92915050565b6000819050919050565b61345e8161344b565b811461346957600080fd5b50565b60008135905061347b81613455565b92915050565b6000819050919050565b61349481613481565b811461349f57600080fd5b50565b6000813590506134b18161348b565b92915050565b6000806000606084860312156134d0576134cf6133e3565b5b60006134de86828701613436565b93505060206134ef8682870161346c565b9250506040613500868287016134a2565b9150509250925092565b60008115159050919050565b61351f8161350a565b811461352a57600080fd5b50565b60008135905061353c81613516565b92915050565b600080fd5b600080fd5b600080fd5b60008083601f84011261356757613566613542565b5b8235905067ffffffffffffffff81111561358457613583613547565b5b6020830191508360018202830111156135a05761359f61354c565b5b9250929050565b6000601f19601f8301169050919050565b7f4e487b7100000000000000000000000000000000000000000000000000000000600052604160045260246000fd5b6135f0826135a7565b810181811067ffffffffffffffff8211171561360f5761360e6135b8565b5b80604052505050565b60006136226133d9565b905061362e82826135e7565b919050565b600067ffffffffffffffff82111561364e5761364d6135b8565b5b602082029050602081019050919050565b600080fd5b600067ffffffffffffffff82111561367f5761367e6135b8565b5b613688826135a7565b9050602081019050919050565b82818337600083830152505050565b60006136b76136b284613664565b613618565b9050828152602081018484840111156136d3576136d261365f565b5b6136de848285613695565b509392505050565b600082601f8301126136fb576136fa613542565b5b813561370b8482602086016136a4565b91505092915050565b600061372761372284613633565b613618565b9050808382526020820190506020840283018581111561374a5761374961354c565b5b835b8181101561379157803567ffffffffffffffff81111561376f5761376e613542565b5b80860161377c89826136e6565b8552602085019450505060208101905061374c565b5050509392505050565b600082601f8301126137b0576137af613542565b5b81356137c0848260208601613714565b91505092915050565b600067ffffffffffffffff8211156137e4576137e36135b8565b5b602082029050602081019050919050565b6000613808613803846137c9565b613618565b9050808382526020820190506020840283018581111561382b5761382a61354c565b5b835b818110156138545780613840888261346c565b84526020840193505060208101905061382d565b5050509392505050565b600082601f83011261387357613872613542565b5b81356138838482602086016137f5565b91505092915050565b60008060008060008060a087890312156138a9576138a86133e3565b5b60006138b789828a0161352d565b96505060206138c889828a0161346c565b955050604087013567ffffffffffffffff8111156138e9576138e86133e8565b5b6138f589828a01613551565b9450945050606087013567ffffffffffffffff811115613918576139176133e8565b5b61392489828a0161379b565b925050608087013567ffffffffffffffff811115613945576139446133e8565b5b61395189828a0161385e565b9150509295509295509295565b61396781613481565b82525050565b6000602082019050613982600083018461395e565b92915050565b600081519050919050565b600082825260208201905092915050565b6000819050602082019050919050565b6139bd81613481565b82525050565b60006139cf83836139b4565b60208301905092915050565b6000602082019050919050565b60006139f382613988565b6139fd8185613993565b9350613a08836139a4565b8060005b83811015613a39578151613a2088826139c3565b9750613a2b836139db565b925050600181019050613a0c565b5085935050505092915050565b60006020820190508181036000830152613a6081846139e8565b905092915050565b600060208284031215613a7e57613a7d6133e3565b5b6000613a8c848285016134a2565b91505092915050565b613a9e8161344b565b82525050565b6000602082019050613ab96000830184613a95565b92915050565b600060208284031215613ad557613ad46133e3565b5b6000613ae38482850161346c565b91505092915050565b600080600080600080600060a0888a031215613b0b57613b0a6133e3565b5b6000613b198a828b016134a2565b9750506020613b2a8a828b01613436565b965050604088013567ffffffffffffffff811115613b4b57613b4a6133e8565b5b613b578a828b01613551565b9550955050606088013567ffffffffffffffff811115613b7a57613b796133e8565b5b613b868a828b01613551565b93509350506080613b998a828b0161352d565b91505092959891949750929550565b613bb18161350a565b82525050565b6000602082019050613bcc6000830184613ba8565b92915050565b60008060008060808587031215613bec57613beb6133e3565b5b6000613bfa8782880161346c565b9450506020613c0b8782880161346c565b9350506040613c1c8782880161346c565b9250506060613c2d8782880161352d565b91505092959194509250565b60008060008060408587031215613c5357613c526133e3565b5b600085013567ffffffffffffffff811115613c7157613c706133e8565b5b613c7d87828801613551565b9450945050602085013567ffffffffffffffff811115613ca057613c9f6133e8565b5b613cac87828801613551565b925092505092959194509250565b613cc38161340d565b82525050565b6000602082019050613cde6000830184613cba565b92915050565b60008060008060808587031215613cfe57613cfd6133e3565b5b6000613d0c878288016134a2565b9450506020613d1d87828801613436565b9350506040613d2e8782880161346c565b9250506060613d3f8782880161352d565b91505092959194509250565b600080600060608486031215613d6457613d636133e3565b5b6000613d72868287016134a2565b9350506020613d8386828701613436565b9250506040613d948682870161352d565b9150509250925092565b600081519050919050565b600082825260208201905092915050565b60005b83811015613dd8578082015181840152602081019050613dbd565b83811115613de7576000848401525b50505050565b6000613df882613d9e565b613e028185613da9565b9350613e12818560208601613dba565b613e1b816135a7565b840191505092915050565b600060c0820190508181036000830152613e408189613ded565b9050613e4f6020830188613a95565b613e5c6040830187613a95565b613e696060830186613a95565b613e766080830185613a95565b81810360a0830152613e888184613ded565b9050979650505050505050565b60008060408385031215613eac57613eab6133e3565b5b6000613eba85828601613436565b9250506020613ecb8582860161346c565b9150509250929050565b60008060008060808587031215613eef57613eee6133e3565b5b6000613efd878288016134a2565b9450506020613f0e87828801613436565b9350506040613f1f87828801613436565b9250506060613f3087828801613436565b91505092959194509250565b60008060408385031215613f5357613f526133e3565b5b6000613f6185828601613436565b9250506020613f72858286016134a2565b9150509250929050565b600060208284031215613f9257613f916133e3565b5b6000613fa084828501613436565b91505092915050565b60008060408385031215613fc057613fbf6133e3565b5b6000613fce858286016134a2565b9250506020613fdf8582860161352d565b9150509250929050565b7f43616d706169676e496e666f3a20496e76616c696420416d6f756e7400000000600082015250565b600061401f601c83613da9565b915061402a82613fe9565b602082019050919050565b6000602082019050818103600083015261404e81614012565b9050919050565b7f4e487b7100000000000000000000000000000000000000000000000000000000600052601160045260246000fd5b600061408f8261344b565b915061409a8361344b565b9250828210156140ad576140ac614055565b5b828203905092915050565b60006060820190506140cd6000830186613cba565b6140da6020830185613cba565b6140e76040830184613a95565b949350505050565b600081905092915050565b600061410683856140ef565b9350614113838584613695565b82840190509392505050565b600061412c8284866140fa565b91508190509392505050565b7f4e487b7100000000000000000000000000000000000000000000000000000000600052603260045260246000fd5b600061417282613d9e565b61417c81856140ef565b935061418c818560208601613dba565b80840191505092915050565b60006141a48284614167565b915081905092915050565b60006141ba8261344b565b91507fffffffffffffffffffffffffffffffffffffffffffffffffffffffffffffffff8214156141ed576141ec614055565b5b600182019050919050565b7f43616d706169676e496e666f3a2054726561737572792061646472657373206660008201527f6f7220706c6174666f726d206973206e6f742073657400000000000000000000602082015250565b6000614254603683613da9565b915061425f826141f8565b604082019050919050565b6000602082019050818103600083015261428381614247565b9050919050565b60008151905061429981613455565b92915050565b6000602082840312156142b5576142b46133e3565b5b60006142c38482850161428a565b91505092915050565b7f43616d706169676e496e666f3a2043616d706169676e20656e64656400000000600082015250565b6000614302601c83613da9565b915061430d826142cc565b602082019050919050565b60006020820190508181036000830152614331816142f5565b9050919050565b6000815190506143478161341f565b92915050565b600060208284031215614363576143626133e3565b5b600061437184828501614338565b91505092915050565b60006143858261344b565b91506143908361344b565b9250827fffffffffffffffffffffffffffffffffffffffffffffffffffffffffffffffff038211156143c5576143c4614055565b5b828201905092915050565b7f43616d706169676e496e666f3a204e6f7420416c6c6f77656400000000000000600082015250565b6000614406601983613da9565b9150614411826143d0565b602082019050919050565b60006020820190508181036000830152614435816143f9565b9050919050565b60006144488385613da9565b9350614455838584613695565b61445e836135a7565b840190509392505050565b600060a08201905061447e6000830189613cba565b61448b6020830188613cba565b6144986040830187613a95565b6144a5606083018661395e565b81810360808301526144b881848661443c565b9050979650505050505050565b600081519050919050565b600082825260208201905092915050565b6000819050602082019050919050565b6144fa8161344b565b82525050565b600061450c83836144f1565b60208301905092915050565b6000602082019050919050565b6000614530826144c5565b61453a81856144d0565b9350614545836144e1565b8060005b8381101561457657815161455d8882614500565b975061456883614518565b925050600181019050614549565b5085935050505092915050565b60006060820190506145986000830186613a95565b6145a56020830185613a95565b81810360408301526145b78184614525565b9050949350505050565b60006145d46145cf846137c9565b613618565b905080838252602082019050602084028301858111156145f7576145f661354c565b5b835b81811015614620578061460c888261428a565b8452602084019350506020810190506145f9565b5050509392505050565b600082601f83011261463f5761463e613542565b5b815161464f8482602086016145c1565b91505092915050565b60006020828403121561466e5761466d6133e3565b5b600082015167ffffffffffffffff81111561468c5761468b6133e8565b5b6146988482850161462a565b91505092915050565b7f43616d706169676e496e666f3a204e6f7420616c6c6f77656400000000000000600082015250565b60006146d7601983613da9565b91506146e2826146a1565b602082019050919050565b60006020820190508181036000830152614706816146ca565b9050919050565b60006080820190506147226000830187613cba565b61472f6020830186613cba565b61473c6040830185613a95565b614749606083018461395e565b95945050505050565b7f4e487b7100000000000000000000000000000000000000000000000000000000600052602260045260246000fd5b6000600282049050600182168061479957607f821691505b602082108114156147ad576147ac614752565b5b50919050565b6000815190506147c28161348b565b92915050565b60006147db6147d684613664565b613618565b9050828152602081018484840111156147f7576147f661365f565b5b614802848285613dba565b509392505050565b600082601f83011261481f5761481e613542565b5b815161482f8482602086016147c8565b91505092915050565b600080600080600080600060e0888a031215614857576148566133e3565b5b60006148658a828b01614338565b97505060206148768a828b01614338565b96505060406148878a828b01614338565b95505060606148988a828b0161428a565b94505060806148a98a828b0161428a565b93505060a06148ba8a828b016147b3565b92505060c088015167ffffffffffffffff8111156148db576148da6133e8565b5b6148e78a828b0161480a565b91505092959891949750929550565b7f4f776e61626c653a206e6577206f776e657220697320746865207a65726f206160008201527f6464726573730000000000000000000000000000000000000000000000000000602082015250565b6000614952602683613da9565b915061495d826148f6565b604082019050919050565b6000602082019050818103600083015261498181614945565b9050919050565b7f43616d706169676e496e666f3a204f726967696e20706c6174666f726d20747260008201527f656173757279206e6f7420736574207965740000000000000000000000000000602082015250565b60006149e4603283613da9565b91506149ef82614988565b604082019050919050565b60006020820190508181036000830152614a13816149d7565b9050919050565b7f4f776e61626c653a2063616c6c6572206973206e6f7420746865206f776e6572600082015250565b6000614a50602083613da9565b9150614a5b82614a1a565b602082019050919050565b60006020820190508181036000830152614a7f81614a43565b9050919050565b7f5061757361626c653a2070617573656400000000000000000000000000000000600082015250565b6000614abc601083613da9565b9150614ac782614a86565b602082019050919050565b60006020820190508181036000830152614aeb81614aaf565b9050919050565b600081519050614b0181613516565b92915050565b600060208284031215614b1d57614b1c6133e3565b5b6000614b2b84828501614af2565b91505092915050565b7f5061757361626c653a206e6f7420706175736564000000000000000000000000600082015250565b6000614b6a601483613da9565b9150614b7582614b34565b602082019050919050565b60006020820190508181036000830152614b9981614b5d565b905091905056fea2646970667358221220f771efea61e81cd6edcb5d0140ebd8829f2479df2c6e6472af8665204c46864d64736f6c63430008090033",
  "linkReferences": {},
  "deployedLinkReferences": {}
}