{
  "_format": "hh-sol-artifact-1",
  "contractName": "CampaignInfo",
  "sourceName": "contracts/CampaignInfo.sol",
  "abi": [
    {
      "inputs": [
        {
          "internalType": "string",
          "name": "_identifier",
          "type": "string"
        },
        {
          "internalType": "bytes32",
          "name": "_originPlatform",
          "type": "bytes32"
        },
        {
          "internalType": "string",
          "name": "_creatorUrl",
          "type": "string"
        },
        {
          "internalType": "bytes32[]",
          "name": "_reachPlatform",
          "type": "bytes32[]"
        },
        {
          "internalType": "address",
          "name": "_registryAddress",
          "type": "address"
        },
        {
          "internalType": "address",
          "name": "_creator",
          "type": "address"
        },
        {
          "internalType": "uint256",
          "name": "_earlyPledgeAmount",
          "type": "uint256"
        }
      ],
      "stateMutability": "nonpayable",
      "type": "constructor"
    },
    {
      "anonymous": false,
      "inputs": [
        {
          "indexed": true,
          "internalType": "address",
          "name": "previousOwner",
          "type": "address"
        },
        {
          "indexed": true,
          "internalType": "address",
          "name": "newOwner",
          "type": "address"
        }
      ],
      "name": "OwnershipTransferred",
      "type": "event"
    },
    {
      "anonymous": false,
      "inputs": [
        {
          "indexed": false,
          "internalType": "address",
          "name": "account",
          "type": "address"
        }
      ],
      "name": "Paused",
      "type": "event"
    },
    {
      "anonymous": false,
      "inputs": [
        {
          "indexed": false,
          "internalType": "address",
          "name": "account",
          "type": "address"
        }
      ],
      "name": "Unpaused",
      "type": "event"
    },
    {
      "inputs": [
        {
          "internalType": "string",
          "name": "name",
          "type": "string"
        },
        {
          "internalType": "string",
          "name": "description",
          "type": "string"
        }
      ],
      "name": "addItem",
      "outputs": [],
      "stateMutability": "nonpayable",
      "type": "function"
    },
    {
      "inputs": [
        {
          "internalType": "bytes32",
          "name": "_platformId",
          "type": "bytes32"
        }
      ],
      "name": "addReachPlatform",
      "outputs": [],
      "stateMutability": "nonpayable",
      "type": "function"
    },
    {
      "inputs": [
        {
          "internalType": "string",
          "name": "name",
          "type": "string"
        },
        {
          "internalType": "uint256",
          "name": "rewardValue",
          "type": "uint256"
        },
        {
          "internalType": "string[]",
          "name": "itemName",
          "type": "string[]"
        },
        {
          "internalType": "uint256[]",
          "name": "itemQuantity",
          "type": "uint256[]"
        }
      ],
      "name": "addReward",
      "outputs": [],
      "stateMutability": "nonpayable",
      "type": "function"
    },
    {
      "inputs": [
        {
          "internalType": "bytes32",
          "name": "platformId",
          "type": "bytes32"
        },
        {
          "internalType": "address",
          "name": "backer",
          "type": "address"
        }
      ],
      "name": "becomeAnEarlyBacker",
      "outputs": [
        {
          "internalType": "uint256",
          "name": "tokenId",
          "type": "uint256"
        }
      ],
      "stateMutability": "nonpayable",
      "type": "function"
    },
    {
      "inputs": [],
      "name": "end",
      "outputs": [],
      "stateMutability": "nonpayable",
      "type": "function"
    },
    {
      "inputs": [
        {
          "internalType": "address",
          "name": "backer",
          "type": "address"
        },
        {
          "internalType": "bytes32",
          "name": "platformId",
          "type": "bytes32"
        }
      ],
      "name": "getBackerPledgeInfoForAPlatform",
      "outputs": [
        {
          "internalType": "uint256",
          "name": "",
          "type": "uint256"
        }
      ],
      "stateMutability": "view",
      "type": "function"
    },
    {
      "inputs": [],
      "name": "getCampaignData",
      "outputs": [
        {
          "internalType": "string",
          "name": "",
          "type": "string"
        },
        {
          "internalType": "uint256",
          "name": "",
          "type": "uint256"
        },
        {
          "internalType": "uint256",
          "name": "",
          "type": "uint256"
        },
        {
          "internalType": "uint256",
          "name": "",
          "type": "uint256"
        },
        {
          "internalType": "uint256",
          "name": "",
          "type": "uint256"
        },
        {
          "internalType": "string",
          "name": "",
          "type": "string"
        }
      ],
      "stateMutability": "view",
      "type": "function"
    },
    {
      "inputs": [],
      "name": "getCampaignOriginPlatform",
      "outputs": [
        {
          "internalType": "bytes32",
          "name": "",
          "type": "bytes32"
        }
      ],
      "stateMutability": "view",
      "type": "function"
    },
    {
      "inputs": [],
      "name": "getCampaignReachPlatforms",
      "outputs": [
        {
          "internalType": "bytes32[]",
          "name": "",
          "type": "bytes32[]"
        }
      ],
      "stateMutability": "view",
      "type": "function"
    },
    {
      "inputs": [
        {
          "internalType": "bytes32",
          "name": "platformId",
          "type": "bytes32"
        }
      ],
      "name": "getPledgedAmountForAPlatformCrypto",
      "outputs": [
        {
          "internalType": "uint256",
          "name": "",
          "type": "uint256"
        }
      ],
      "stateMutability": "view",
      "type": "function"
    },
    {
      "inputs": [
        {
          "internalType": "bytes32",
          "name": "platformId",
          "type": "bytes32"
        }
      ],
      "name": "getPledgedAmountForPlatformCrypto",
      "outputs": [
        {
          "internalType": "uint256",
          "name": "",
          "type": "uint256"
        }
      ],
      "stateMutability": "view",
      "type": "function"
    },
    {
      "inputs": [],
      "name": "getTotalPledgedAmountCrypto",
      "outputs": [
        {
          "internalType": "uint256",
          "name": "",
          "type": "uint256"
        }
      ],
      "stateMutability": "view",
      "type": "function"
    },
    {
      "inputs": [
        {
          "internalType": "bytes32",
          "name": "platformId",
          "type": "bytes32"
        }
      ],
      "name": "getTreasuryAddress",
      "outputs": [
        {
          "internalType": "address",
          "name": "",
          "type": "address"
        }
      ],
      "stateMutability": "view",
      "type": "function"
    },
    {
      "inputs": [],
      "name": "owner",
      "outputs": [
        {
          "internalType": "address",
          "name": "",
          "type": "address"
        }
      ],
      "stateMutability": "view",
      "type": "function"
    },
    {
      "inputs": [],
      "name": "pause",
      "outputs": [],
      "stateMutability": "nonpayable",
      "type": "function"
    },
    {
      "inputs": [],
      "name": "paused",
      "outputs": [
        {
          "internalType": "bool",
          "name": "",
          "type": "bool"
        }
      ],
      "stateMutability": "view",
      "type": "function"
    },
    {
      "inputs": [
        {
          "internalType": "bytes32",
          "name": "platformId",
          "type": "bytes32"
        },
        {
          "internalType": "address",
          "name": "backer",
          "type": "address"
        },
        {
          "internalType": "string",
          "name": "rewardName",
          "type": "string"
        }
      ],
      "name": "pledgeForAReward",
      "outputs": [
        {
          "internalType": "uint256",
          "name": "tokenId",
          "type": "uint256"
        }
      ],
      "stateMutability": "nonpayable",
      "type": "function"
    },
    {
      "inputs": [
        {
          "internalType": "bytes32",
          "name": "platformId",
          "type": "bytes32"
        },
        {
          "internalType": "address",
          "name": "backer",
          "type": "address"
        },
        {
          "internalType": "uint256",
          "name": "amount",
          "type": "uint256"
        }
      ],
      "name": "pledgeWithoutAReward",
      "outputs": [],
      "stateMutability": "nonpayable",
      "type": "function"
    },
    {
      "inputs": [
        {
          "internalType": "address",
          "name": "backer",
          "type": "address"
        },
        {
          "internalType": "uint256",
          "name": "amount",
          "type": "uint256"
        },
        {
          "internalType": "bytes32",
          "name": "platformId",
          "type": "bytes32"
        }
      ],
      "name": "redeemPledge",
      "outputs": [],
      "stateMutability": "nonpayable",
      "type": "function"
    },
    {
      "inputs": [
        {
          "internalType": "address",
          "name": "backer",
          "type": "address"
        },
        {
          "internalType": "uint256",
          "name": "tokenId",
          "type": "uint256"
        }
      ],
      "name": "redeemPledge",
      "outputs": [],
      "stateMutability": "nonpayable",
      "type": "function"
    },
    {
      "inputs": [],
      "name": "renounceOwnership",
      "outputs": [],
      "stateMutability": "nonpayable",
      "type": "function"
    },
    {
      "inputs": [],
      "name": "rewardedPlatform",
      "outputs": [
        {
          "internalType": "bytes32",
          "name": "",
          "type": "bytes32"
        }
      ],
      "stateMutability": "view",
      "type": "function"
    },
    {
      "inputs": [
        {
          "internalType": "uint256",
          "name": "launchTime",
          "type": "uint256"
        },
        {
          "internalType": "uint256",
          "name": "deadline",
          "type": "uint256"
        },
        {
          "internalType": "uint256",
          "name": "goalAmount",
          "type": "uint256"
        },
        {
          "internalType": "bool",
          "name": "enableLatePledge",
          "type": "bool"
        }
      ],
      "name": "setLaunch",
      "outputs": [],
      "stateMutability": "nonpayable",
      "type": "function"
    },
    {
      "inputs": [
        {
          "internalType": "bytes32",
          "name": "_platformId",
          "type": "bytes32"
        },
        {
          "internalType": "address",
          "name": "_platformWallet",
          "type": "address"
        },
        {
          "internalType": "address",
          "name": "_treasury",
          "type": "address"
        },
        {
          "internalType": "address",
          "name": "_token",
          "type": "address"
        }
      ],
      "name": "setPlatformInfo",
      "outputs": [],
      "stateMutability": "nonpayable",
      "type": "function"
    },
    {
      "inputs": [],
      "name": "specifiedTime",
      "outputs": [
        {
          "internalType": "uint256",
          "name": "",
          "type": "uint256"
        }
      ],
      "stateMutability": "view",
      "type": "function"
    },
    {
      "inputs": [],
      "name": "splitFeesProportionately",
      "outputs": [],
      "stateMutability": "nonpayable",
      "type": "function"
    },
    {
      "inputs": [
        {
          "internalType": "address",
          "name": "newOwner",
          "type": "address"
        }
      ],
      "name": "transferOwnership",
      "outputs": [],
      "stateMutability": "nonpayable",
      "type": "function"
    },
    {
      "inputs": [],
      "name": "unpause",
      "outputs": [],
      "stateMutability": "nonpayable",
      "type": "function"
    },
    {
      "inputs": [
        {
          "internalType": "uint256",
          "name": "_deadline",
          "type": "uint256"
        }
      ],
      "name": "updateDeadline",
      "outputs": [],
      "stateMutability": "nonpayable",
      "type": "function"
    },
    {
      "inputs": [
        {
          "internalType": "uint256",
          "name": "_goalAmount",
          "type": "uint256"
        }
      ],
      "name": "updateGoal",
      "outputs": [],
      "stateMutability": "nonpayable",
      "type": "function"
    },
    {
      "inputs": [
        {
          "internalType": "uint256",
          "name": "_launchTime",
          "type": "uint256"
        }
      ],
      "name": "updateLaunchTime",
      "outputs": [],
      "stateMutability": "nonpayable",
      "type": "function"
    }
  ],
  "bytecode": "0x60806040523480156200001157600080fd5b5060405162004fe538038062004fe58339818101604052810190620000379190620007d7565b620000576200004b6200014660201b60201c565b6200014e60201b60201c565b60008060146101000a81548160ff02191690831515021790555086600360000190805190602001906200008c92919062000363565b5085600360010181905550426003600401819055508460036006019080519060200190620000bc92919062000363565b508360036007019080519060200190620000d8929190620003f4565b5082600b60006101000a81548173ffffffffffffffffffffffffffffffffffffffff021916908373ffffffffffffffffffffffffffffffffffffffff1602179055504260108190555062000132826200021260201b60201c565b80600d819055505050505050505062000a67565b600033905090565b60008060009054906101000a900473ffffffffffffffffffffffffffffffffffffffff169050816000806101000a81548173ffffffffffffffffffffffffffffffffffffffff021916908373ffffffffffffffffffffffffffffffffffffffff1602179055508173ffffffffffffffffffffffffffffffffffffffff168173ffffffffffffffffffffffffffffffffffffffff167f8be0079c531659141344cd1fd0a4f28419497f9722a3daafe3b4186f6b6457e060405160405180910390a35050565b62000222620002a960201b60201c565b600073ffffffffffffffffffffffffffffffffffffffff168173ffffffffffffffffffffffffffffffffffffffff16141562000295576040517f08c379a00000000000000000000000000000000000000000000000000000000081526004016200028c906200096e565b60405180910390fd5b620002a6816200014e60201b60201c565b50565b620002b96200014660201b60201c565b73ffffffffffffffffffffffffffffffffffffffff16620002df6200033a60201b60201c565b73ffffffffffffffffffffffffffffffffffffffff161462000338576040517f08c379a00000000000000000000000000000000000000000000000000000000081526004016200032f90620009e0565b60405180910390fd5b565b60008060009054906101000a900473ffffffffffffffffffffffffffffffffffffffff16905090565b828054620003719062000a31565b90600052602060002090601f016020900481019282620003955760008555620003e1565b82601f10620003b057805160ff1916838001178555620003e1565b82800160010185558215620003e1579182015b82811115620003e0578251825591602001919060010190620003c3565b5b509050620003f0919062000446565b5090565b82805482825590600052602060002090810192821562000433579160200282015b828111156200043257825182559160200191906001019062000415565b5b50905062000442919062000465565b5090565b5b808211156200046157600081600090555060010162000447565b5090565b5b808211156200048057600081600090555060010162000466565b5090565b6000604051905090565b600080fd5b600080fd5b600080fd5b600080fd5b6000601f19601f8301169050919050565b7f4e487b7100000000000000000000000000000000000000000000000000000000600052604160045260246000fd5b620004ed82620004a2565b810181811067ffffffffffffffff821117156200050f576200050e620004b3565b5b80604052505050565b60006200052462000484565b9050620005328282620004e2565b919050565b600067ffffffffffffffff821115620005555762000554620004b3565b5b6200056082620004a2565b9050602081019050919050565b60005b838110156200058d57808201518184015260208101905062000570565b838111156200059d576000848401525b50505050565b6000620005ba620005b48462000537565b62000518565b905082815260208101848484011115620005d957620005d86200049d565b5b620005e68482856200056d565b509392505050565b600082601f83011262000606576200060562000498565b5b815162000618848260208601620005a3565b91505092915050565b6000819050919050565b620006368162000621565b81146200064257600080fd5b50565b60008151905062000656816200062b565b92915050565b600067ffffffffffffffff8211156200067a5762000679620004b3565b5b602082029050602081019050919050565b600080fd5b6000620006a7620006a1846200065c565b62000518565b90508083825260208201905060208402830185811115620006cd57620006cc6200068b565b5b835b81811015620006fa5780620006e5888262000645565b845260208401935050602081019050620006cf565b5050509392505050565b600082601f8301126200071c576200071b62000498565b5b81516200072e84826020860162000690565b91505092915050565b600073ffffffffffffffffffffffffffffffffffffffff82169050919050565b6000620007648262000737565b9050919050565b620007768162000757565b81146200078257600080fd5b50565b60008151905062000796816200076b565b92915050565b6000819050919050565b620007b1816200079c565b8114620007bd57600080fd5b50565b600081519050620007d181620007a6565b92915050565b600080600080600080600060e0888a031215620007f957620007f86200048e565b5b600088015167ffffffffffffffff8111156200081a576200081962000493565b5b620008288a828b01620005ee565b97505060206200083b8a828b0162000645565b965050604088015167ffffffffffffffff8111156200085f576200085e62000493565b5b6200086d8a828b01620005ee565b955050606088015167ffffffffffffffff81111562000891576200089062000493565b5b6200089f8a828b0162000704565b9450506080620008b28a828b0162000785565b93505060a0620008c58a828b0162000785565b92505060c0620008d88a828b01620007c0565b91505092959891949750929550565b600082825260208201905092915050565b7f4f776e61626c653a206e6577206f776e657220697320746865207a65726f206160008201527f6464726573730000000000000000000000000000000000000000000000000000602082015250565b600062000956602683620008e7565b91506200096382620008f8565b604082019050919050565b60006020820190508181036000830152620009898162000947565b9050919050565b7f4f776e61626c653a2063616c6c6572206973206e6f7420746865206f776e6572600082015250565b6000620009c8602083620008e7565b9150620009d58262000990565b602082019050919050565b60006020820190508181036000830152620009fb81620009b9565b9050919050565b7f4e487b7100000000000000000000000000000000000000000000000000000000600052602260045260246000fd5b6000600282049050600182168062000a4a57607f821691505b6020821081141562000a615762000a6062000a02565b5b50919050565b61456e8062000a776000396000f3fe608060405234801561001057600080fd5b50600436106101e55760003560e01c80637ed8a7191161010f578063c4176338116100a2578063f2fde38b11610071578063f2fde38b146104fb578063f4efc11514610517578063f840367614610533578063fb7846df14610551576101e5565b8063c417633814610482578063deaaf241146104a5578063e12900f2146104c1578063efbe1c1c146104f1576101e5565b8063858b531d116100de578063858b531d1461040e5780638da5cb5b1461042a578063a0797f7514610448578063b1c1f7f214610466576101e5565b80637ed8a7191461039c57806383d23ab3146103b85780638456cb59146103d457806384ea5c74146103de576101e5565b80633f4ba83a11610187578063695c27c211610156578063695c27c21461034e578063715018a61461036a5780637568173b146103745780637712b1721461037e576101e5565b80633f4ba83a146102ee57806342af1884146102f85780635c975abb1461031457806368027e4314610332576101e5565b80632e162db6116101c35780632e162db61461025457806330c00b0014610272578063316fb7c4146102a257806337724c75146102be576101e5565b806301e81781146101ea57806319188bd81461021a5780631957612414610236575b600080fd5b61020460048036038101906101ff9190612f3f565b610581565b6040516102119190612fcc565b60405180910390f35b610234600480360381019061022f91906132f8565b610964565b005b61023e610a31565b60405161024b91906133c7565b60405180910390f35b61025c610a37565b60405161026991906134a0565b60405180910390f35b61028c600480360381019061028791906134c2565b610a92565b6040516102999190612fcc565b60405180910390f35b6102bc60048036038101906102b791906134ef565b610c2f565b005b6102d860048036038101906102d3919061351c565b610c94565b6040516102e59190612fcc565b60405180910390f35b6102f6610f84565b005b610312600480360381019061030d91906134ef565b610fe6565b005b61031c611068565b6040516103299190613577565b60405180910390f35b61034c600480360381019061034791906134ef565b61107e565b005b610368600480360381019061036391906135be565b611100565b005b610372611158565b005b61037c61116c565b005b61038661164c565b6040516103939190612fcc565b60405180910390f35b6103b660048036038101906103b19190613625565b611652565b005b6103d260048036038101906103cd91906134c2565b61168b565b005b6103dc611712565b005b6103f860048036038101906103f391906134c2565b611774565b60405161040591906136b5565b60405180910390f35b610428600480360381019061042391906136d0565b611856565b005b610432611a29565b60405161043f91906136b5565b60405180910390f35b610450611a52565b60405161045d91906133c7565b60405180910390f35b610480600480360381019061047b9190613723565b611a5f565b005b61048a611c92565b60405161049c969594939291906137fe565b60405180910390f35b6104bf60048036038101906104ba919061386d565b611de9565b005b6104db60048036038101906104d691906138d4565b611f3d565b6040516104e89190612fcc565b60405180910390f35b6104f9611f98565b005b61051560048036038101906105109190613914565b61200d565b005b610531600480360381019061052c9190613941565b612091565b005b61053b612356565b6040516105489190612fcc565b60405180910390f35b61056b600480360381019061056691906134c2565b6126c1565b6040516105789190612fcc565b60405180910390f35b6000600b60149054906101000a900460ff16156105d3576040517f08c379a00000000000000000000000000000000000000000000000000000000081526004016105ca906139cd565b60405180910390fd5b6105db6127b9565b600e60009054906101000a900460ff1680156105fa5750426003800154105b610639576040517f08c379a000000000000000000000000000000000000000000000000000000000815260040161063090613a39565b60405180910390fd5b60006012600087815260200190815260200160002060009054906101000a900473ffffffffffffffffffffffffffffffffffffffff169050600060018585604051610685929190613a89565b9081526020016040518091039020600001549050601560008773ffffffffffffffffffffffffffffffffffffffff1673ffffffffffffffffffffffffffffffffffffffff16815260200190815260200160002060009054906101000a900460ff161561075457600d54816106f99190613ad1565b90506000601560008873ffffffffffffffffffffffffffffffffffffffff1673ffffffffffffffffffffffffffffffffffffffff16815260200190815260200160002060006101000a81548160ff0219169083151502179055505b8173ffffffffffffffffffffffffffffffffffffffff166323b872dd87601160008b815260200190815260200160002060009054906101000a900473ffffffffffffffffffffffffffffffffffffffff16846040518463ffffffff1660e01b81526004016107c493929190613b05565b602060405180830381600087803b1580156107de57600080fd5b505af11580156107f2573d6000803e3d6000fd5b505050506040513d601f19601f820116820180604052508101906108169190613b51565b50600b60009054906101000a900473ffffffffffffffffffffffffffffffffffffffff1673ffffffffffffffffffffffffffffffffffffffff166330525f666040518163ffffffff1660e01b815260040160206040518083038186803b15801561087f57600080fd5b505afa158015610893573d6000803e3d6000fd5b505050506040513d601f19601f820116820180604052508101906108b79190613b93565b73ffffffffffffffffffffffffffffffffffffffff16634ebc0c198784600d54856108e29190613bc0565b8b8a8a6040518763ffffffff1660e01b815260040161090696959493929190613c43565b602060405180830381600087803b15801561092057600080fd5b505af1158015610934573d6000803e3d6000fd5b505050506040513d601f19601f820116820180604052508101906109589190613cb4565b92505050949350505050565b600060018686604051610978929190613a89565b90815260200160405180910390209050838160000181905550828160020190805190602001906109a9929190612c45565b5060008251905060005b81811015610a27578381815181106109ce576109cd613ce1565b5b6020026020010151836003018683815181106109ed576109ec613ce1565b5b6020026020010151604051610a029190613d41565b9081526020016040518091039020819055508080610a1f90613d58565b9150506109b3565b5050505050505050565b600f5481565b60606003600701805480602002602001604051908101604052809291908181526020018280548015610a8857602002820191906000526020600020905b815481526020019060010190808311610a74575b5050505050905090565b600081600073ffffffffffffffffffffffffffffffffffffffff166011600083815260200190815260200160002060009054906101000a900473ffffffffffffffffffffffffffffffffffffffff1673ffffffffffffffffffffffffffffffffffffffff161415610b38576040517f08c379a0000000000000000000000000000000000000000000000000000000008152600401610b2f90613e13565b60405180910390fd5b6012600084815260200190815260200160002060009054906101000a900473ffffffffffffffffffffffffffffffffffffffff1673ffffffffffffffffffffffffffffffffffffffff166370a082316011600086815260200190815260200160002060009054906101000a900473ffffffffffffffffffffffffffffffffffffffff166040518263ffffffff1660e01b8152600401610bd791906136b5565b60206040518083038186803b158015610bef57600080fd5b505afa158015610c03573d6000803e3d6000fd5b505050506040513d601f19601f82011682018060405250810190610c279190613cb4565b915050919050565b600b60149054906101000a900460ff1615610c7f576040517f08c379a0000000000000000000000000000000000000000000000000000000008152600401610c76906139cd565b60405180910390fd5b610c87612803565b8060036002018190555050565b6000600b60149054906101000a900460ff1615610ce6576040517f08c379a0000000000000000000000000000000000000000000000000000000008152600401610cdd906139cd565b60405180910390fd5b610cee6127b9565b600e60009054906101000a900460ff161580610d0d5750426003800154115b610d4c576040517f08c379a0000000000000000000000000000000000000000000000000000000008152600401610d4390613e7f565b60405180910390fd5b60006012600085815260200190815260200160002060009054906101000a900473ffffffffffffffffffffffffffffffffffffffff1690508073ffffffffffffffffffffffffffffffffffffffff166323b872dd846011600088815260200190815260200160002060009054906101000a900473ffffffffffffffffffffffffffffffffffffffff16600d546040518463ffffffff1660e01b8152600401610df693929190613b05565b602060405180830381600087803b158015610e1057600080fd5b505af1158015610e24573d6000803e3d6000fd5b505050506040513d601f19601f82011682018060405250810190610e489190613b51565b50600b60009054906101000a900473ffffffffffffffffffffffffffffffffffffffff1673ffffffffffffffffffffffffffffffffffffffff166330525f666040518163ffffffff1660e01b815260040160206040518083038186803b158015610eb157600080fd5b505afa158015610ec5573d6000803e3d6000fd5b505050506040513d601f19601f82011682018060405250810190610ee99190613b93565b73ffffffffffffffffffffffffffffffffffffffff16638e48312f8483600d54886040518563ffffffff1660e01b8152600401610f299493929190613e9f565b602060405180830381600087803b158015610f4357600080fd5b505af1158015610f57573d6000803e3d6000fd5b505050506040513d601f19601f82011682018060405250810190610f7b9190613cb4565b91505092915050565b600b60149054906101000a900460ff1615610fd4576040517f08c379a0000000000000000000000000000000000000000000000000000000008152600401610fcb906139cd565b60405180910390fd5b610fdc612803565b610fe4612881565b565b600b60149054906101000a900460ff1615611036576040517f08c379a000000000000000000000000000000000000000000000000000000000815260040161102d906139cd565b60405180910390fd5b61103e612803565b80600c5460038001546110519190613bc0565b1061105b57600080fd5b8060036005018190555050565b60008060149054906101000a900460ff16905090565b600b60149054906101000a900460ff16156110ce576040517f08c379a00000000000000000000000000000000000000000000000000000000081526004016110c5906139cd565b60405180910390fd5b6110d6612803565b600360050154600c54826110ea9190613bc0565b106110f457600080fd5b80600380018190555050565b836003800181905550826003600501819055508160036002018190555080600e60016101000a81548160ff0219169083151502179055506001600e60006101000a81548160ff02191690831515021790555050505050565b611160612803565b61116a60006128e3565b565b6000600b60009054906101000a900473ffffffffffffffffffffffffffffffffffffffff1673ffffffffffffffffffffffffffffffffffffffff16635bad43996040518163ffffffff1660e01b815260040160206040518083038186803b1580156111d657600080fd5b505afa1580156111ea573d6000803e3d6000fd5b505050506040513d601f19601f8201168201806040525081019061120e9190613b93565b90506000600360070180548060200260200160405190810160405280929190818152602001828054801561126157602002820191906000526020600020905b81548152602001906001019080831161124d575b505050505090506000600182516112789190613bc0565b67ffffffffffffffff81111561129157611290613024565b5b6040519080825280602002602001820160405280156112bf5781602001602082028036833780820191505090505b5090506000600183516112d29190613bc0565b67ffffffffffffffff8111156112eb576112ea613024565b5b6040519080825280602002602001820160405280156113195781602001602082028036833780820191505090505b50905060005b83518110156113b75783818151811061133b5761133a613ce1565b5b602002602001015183828151811061135657611355613ce1565b5b60200260200101818152505061138584828151811061137857611377613ce1565b5b6020026020010151610a92565b82828151811061139857611397613ce1565b5b60200260200101818152505080806113af90613d58565b91505061131f565b50600360010154828451815181106113d2576113d1613ce1565b5b6020026020010181815250506113ec600360010154610a92565b81845181518110611400576113ff613ce1565b5b6020026020010181815250506000600b60009054906101000a900473ffffffffffffffffffffffffffffffffffffffff1673ffffffffffffffffffffffffffffffffffffffff16630eeaef466040518163ffffffff1660e01b815260040160206040518083038186803b15801561147657600080fd5b505afa15801561148a573d6000803e3d6000fd5b505050506040513d601f19601f820116820180604052508101906114ae9190613b93565b73ffffffffffffffffffffffffffffffffffffffff1663bdec30ba8673ffffffffffffffffffffffffffffffffffffffff16638274f2d66040518163ffffffff1660e01b815260040160206040518083038186803b15801561150f57600080fd5b505afa158015611523573d6000803e3d6000fd5b505050506040513d601f19601f820116820180604052508101906115479190613cb4565b8773ffffffffffffffffffffffffffffffffffffffff1663fe6f1b056040518163ffffffff1660e01b815260040160206040518083038186803b15801561158d57600080fd5b505afa1580156115a1573d6000803e3d6000fd5b505050506040513d601f19601f820116820180604052508101906115c59190613cb4565b856040518463ffffffff1660e01b81526004016115e493929190613fa2565b60006040518083038186803b1580156115fc57600080fd5b505afa158015611610573d6000803e3d6000fd5b505050506040513d6000823e3d601f19601f820116820180604052508101906116399190614077565b905061164583826129a7565b5050505050565b60105481565b818160028686604051611666929190613a89565b90815260200160405180910390206000019190611684929190612ca5565b5050505050565b600b60149054906101000a900460ff16156116db576040517f08c379a00000000000000000000000000000000000000000000000000000000081526004016116d2906139cd565b60405180910390fd5b6116e3612803565b600360070181908060018154018082558091505060019003906000526020600020016000909190919091505550565b600b60149054906101000a900460ff1615611762576040517f08c379a0000000000000000000000000000000000000000000000000000000008152600401611759906139cd565b60405180910390fd5b61176a612803565b611772612a0f565b565b600081600073ffffffffffffffffffffffffffffffffffffffff166011600083815260200190815260200160002060009054906101000a900473ffffffffffffffffffffffffffffffffffffffff1673ffffffffffffffffffffffffffffffffffffffff16141561181a576040517f08c379a000000000000000000000000000000000000000000000000000000000815260040161181190613e13565b60405180910390fd5b6011600084815260200190815260200160002060009054906101000a900473ffffffffffffffffffffffffffffffffffffffff16915050919050565b6000601460008573ffffffffffffffffffffffffffffffffffffffff1673ffffffffffffffffffffffffffffffffffffffff1681526020019081526020016000206000838152602001908152602001600020549050808311156118ee576040517f08c379a00000000000000000000000000000000000000000000000000000000081526004016118e59061410c565b60405180910390fd5b82816118fa9190613ad1565b601460008673ffffffffffffffffffffffffffffffffffffffff1673ffffffffffffffffffffffffffffffffffffffff1681526020019081526020016000206000848152602001908152602001600020819055506011600083815260200190815260200160002060009054906101000a900473ffffffffffffffffffffffffffffffffffffffff1673ffffffffffffffffffffffffffffffffffffffff166360a56b3a856012600086815260200190815260200160002060009054906101000a900473ffffffffffffffffffffffffffffffffffffffff16866040518463ffffffff1660e01b81526004016119f193929190613b05565b600060405180830381600087803b158015611a0b57600080fd5b505af1158015611a1f573d6000803e3d6000fd5b5050505050505050565b60008060009054906101000a900473ffffffffffffffffffffffffffffffffffffffff16905090565b6000600360010154905090565b600b60149054906101000a900460ff1615611aaf576040517f08c379a0000000000000000000000000000000000000000000000000000000008152600401611aa6906139cd565b60405180910390fd5b611ab76127b9565b426003600501541015611b2c57600360020154611ad2612356565b10158015611aec5750600e60019054906101000a900460ff165b611b2b576040517f08c379a0000000000000000000000000000000000000000000000000000000008152600401611b2290613e7f565b60405180910390fd5b5b42600380015410611b3c57600080fd5b60006012600085815260200190815260200160002060009054906101000a900473ffffffffffffffffffffffffffffffffffffffff1690508073ffffffffffffffffffffffffffffffffffffffff166323b872dd846011600088815260200190815260200160002060009054906101000a900473ffffffffffffffffffffffffffffffffffffffff16856040518463ffffffff1660e01b8152600401611be493929190613b05565b602060405180830381600087803b158015611bfe57600080fd5b505af1158015611c12573d6000803e3d6000fd5b505050506040513d601f19601f82011682018060405250810190611c369190613b51565b5081601460008573ffffffffffffffffffffffffffffffffffffffff1673ffffffffffffffffffffffffffffffffffffffff16815260200190815260200160002060008681526020019081526020016000208190555050505050565b60606000806000806060600360000160036002015460038001546003600401546003600501546003600601858054611cc99061415b565b80601f0160208091040260200160405190810160405280929190818152602001828054611cf59061415b565b8015611d425780601f10611d1757610100808354040283529160200191611d42565b820191906000526020600020905b815481529060010190602001808311611d2557829003601f168201915b50505050509550808054611d559061415b565b80601f0160208091040260200160405190810160405280929190818152602001828054611d819061415b565b8015611dce5780601f10611da357610100808354040283529160200191611dce565b820191906000526020600020905b815481529060010190602001808311611db157829003601f168201915b50505050509050955095509550955095509550909192939495565b600b60149054906101000a900460ff1615611e39576040517f08c379a0000000000000000000000000000000000000000000000000000000008152600401611e30906139cd565b60405180910390fd5b611e41612803565b826013600086815260200190815260200160002060006101000a81548173ffffffffffffffffffffffffffffffffffffffff021916908373ffffffffffffffffffffffffffffffffffffffff160217905550816011600086815260200190815260200160002060006101000a81548173ffffffffffffffffffffffffffffffffffffffff021916908373ffffffffffffffffffffffffffffffffffffffff160217905550806012600086815260200190815260200160002060006101000a81548173ffffffffffffffffffffffffffffffffffffffff021916908373ffffffffffffffffffffffffffffffffffffffff16021790555050505050565b6000601460008473ffffffffffffffffffffffffffffffffffffffff1673ffffffffffffffffffffffffffffffffffffffff168152602001908152602001600020600083815260200190815260200160002054905092915050565b600b60149054906101000a900460ff1615611fe8576040517f08c379a0000000000000000000000000000000000000000000000000000000008152600401611fdf906139cd565b60405180910390fd5b611ff0612803565b6001600b60146101000a81548160ff021916908315150217905550565b612015612803565b600073ffffffffffffffffffffffffffffffffffffffff168173ffffffffffffffffffffffffffffffffffffffff161415612085576040517f08c379a000000000000000000000000000000000000000000000000000000000815260040161207c906141ff565b60405180910390fd5b61208e816128e3565b50565b6000600b60009054906101000a900473ffffffffffffffffffffffffffffffffffffffff1673ffffffffffffffffffffffffffffffffffffffff166330525f666040518163ffffffff1660e01b815260040160206040518083038186803b1580156120fb57600080fd5b505afa15801561210f573d6000803e3d6000fd5b505050506040513d601f19601f820116820180604052508101906121339190613b93565b9050606060008273ffffffffffffffffffffffffffffffffffffffff1663c20c42f8856040518263ffffffff1660e01b81526004016121729190612fcc565b60006040518083038186803b15801561218a57600080fd5b505afa15801561219e573d6000803e3d6000fd5b505050506040513d6000823e3d601f19601f820116820180604052508101906121c791906142a4565b90919293949550909192939450909192935090919250909150809350819250505060006001836040516121fa9190613d41565b90815260200160405180910390206000015490508373ffffffffffffffffffffffffffffffffffffffff166342966c68866040518263ffffffff1660e01b81526004016122479190612fcc565b600060405180830381600087803b15801561226157600080fd5b505af1158015612275573d6000803e3d6000fd5b505050506011600083815260200190815260200160002060009054906101000a900473ffffffffffffffffffffffffffffffffffffffff1673ffffffffffffffffffffffffffffffffffffffff166360a56b3a876012600086815260200190815260200160002060009054906101000a900473ffffffffffffffffffffffffffffffffffffffff16846040518463ffffffff1660e01b815260040161231c93929190613b05565b600060405180830381600087803b15801561233657600080fd5b505af115801561234a573d6000803e3d6000fd5b50505050505050505050565b60008060116000600360010154815260200190815260200160002060009054906101000a900473ffffffffffffffffffffffffffffffffffffffff169050600073ffffffffffffffffffffffffffffffffffffffff168173ffffffffffffffffffffffffffffffffffffffff161415612404576040517f08c379a00000000000000000000000000000000000000000000000000000000081526004016123fb906143d4565b60405180910390fd5b6000600360070180548060200260200160405190810160405280929190818152602001828054801561245557602002820191906000526020600020905b815481526020019060010190808311612441575b50505050509050600081519050600060126000600360010154815260200190815260200160002060009054906101000a900473ffffffffffffffffffffffffffffffffffffffff1673ffffffffffffffffffffffffffffffffffffffff166370a08231856040518263ffffffff1660e01b81526004016124d591906136b5565b60206040518083038186803b1580156124ed57600080fd5b505afa158015612501573d6000803e3d6000fd5b505050506040513d601f19601f820116820180604052508101906125259190613cb4565b905060005b828110156126b65760006011600086848151811061254b5761254a613ce1565b5b6020026020010151815260200190815260200160002060009054906101000a900473ffffffffffffffffffffffffffffffffffffffff16905060006012600087858151811061259d5761259c613ce1565b5b6020026020010151815260200190815260200160002060009054906101000a900473ffffffffffffffffffffffffffffffffffffffff169050600073ffffffffffffffffffffffffffffffffffffffff168273ffffffffffffffffffffffffffffffffffffffff16146126a1578073ffffffffffffffffffffffffffffffffffffffff166370a08231836040518263ffffffff1660e01b815260040161264391906136b5565b60206040518083038186803b15801561265b57600080fd5b505afa15801561266f573d6000803e3d6000fd5b505050506040513d601f19601f820116820180604052508101906126939190613cb4565b8461269e9190613bc0565b93505b505080806126ae90613d58565b91505061252a565b508094505050505090565b60006012600083815260200190815260200160002060009054906101000a900473ffffffffffffffffffffffffffffffffffffffff1673ffffffffffffffffffffffffffffffffffffffff166370a082316011600085815260200190815260200160002060009054906101000a900473ffffffffffffffffffffffffffffffffffffffff166040518263ffffffff1660e01b815260040161276291906136b5565b60206040518083038186803b15801561277a57600080fd5b505afa15801561278e573d6000803e3d6000fd5b505050506040513d601f19601f820116820180604052508101906127b29190613cb4565b9050919050565b6127c1611068565b15612801576040517f08c379a00000000000000000000000000000000000000000000000000000000081526004016127f890614440565b60405180910390fd5b565b61280b612a72565b73ffffffffffffffffffffffffffffffffffffffff16612829611a29565b73ffffffffffffffffffffffffffffffffffffffff161461287f576040517f08c379a0000000000000000000000000000000000000000000000000000000008152600401612876906144ac565b60405180910390fd5b565b612889612a7a565b60008060146101000a81548160ff0219169083151502179055507f5db9ee0a495bf2e6ff9c91a7834c1ba4fdd244a5e8aa4e537bd38aeae4b073aa6128cc612a72565b6040516128d991906136b5565b60405180910390a1565b60008060009054906101000a900473ffffffffffffffffffffffffffffffffffffffff169050816000806101000a81548173ffffffffffffffffffffffffffffffffffffffff021916908373ffffffffffffffffffffffffffffffffffffffff1602179055508173ffffffffffffffffffffffffffffffffffffffff168173ffffffffffffffffffffffffffffffffffffffff167f8be0079c531659141344cd1fd0a4f28419497f9722a3daafe3b4186f6b6457e060405160405180910390a35050565b60008251905060005b81811015612a09576129f68482815181106129ce576129cd613ce1565b5b60200260200101518483815181106129e9576129e8613ce1565b5b6020026020010151612ac3565b8080612a0190613d58565b9150506129b0565b50505050565b612a176127b9565b6001600060146101000a81548160ff0219169083151502179055507f62e78cea01bee320cd4e420270b5ea74000d11b0c9f74754ebdbfc544b05a258612a5b612a72565b604051612a6891906136b5565b60405180910390a1565b600033905090565b612a82611068565b612ac1576040517f08c379a0000000000000000000000000000000000000000000000000000000008152600401612ab890614518565b60405180910390fd5b565b600081118015612b335750600073ffffffffffffffffffffffffffffffffffffffff166011600084815260200190815260200160002060009054906101000a900473ffffffffffffffffffffffffffffffffffffffff1673ffffffffffffffffffffffffffffffffffffffff1614155b15612c41576011600083815260200190815260200160002060009054906101000a900473ffffffffffffffffffffffffffffffffffffffff1673ffffffffffffffffffffffffffffffffffffffff166360a56b3a6013600085815260200190815260200160002060009054906101000a900473ffffffffffffffffffffffffffffffffffffffff166012600086815260200190815260200160002060009054906101000a900473ffffffffffffffffffffffffffffffffffffffff16846040518463ffffffff1660e01b8152600401612c0e93929190613b05565b600060405180830381600087803b158015612c2857600080fd5b505af1158015612c3c573d6000803e3d6000fd5b505050505b5050565b828054828255906000526020600020908101928215612c94579160200282015b82811115612c93578251829080519060200190612c83929190612d2b565b5091602001919060010190612c65565b5b509050612ca19190612db1565b5090565b828054612cb19061415b565b90600052602060002090601f016020900481019282612cd35760008555612d1a565b82601f10612cec57803560ff1916838001178555612d1a565b82800160010185558215612d1a579182015b82811115612d19578235825591602001919060010190612cfe565b5b509050612d279190612dd5565b5090565b828054612d379061415b565b90600052602060002090601f016020900481019282612d595760008555612da0565b82601f10612d7257805160ff1916838001178555612da0565b82800160010185558215612da0579182015b82811115612d9f578251825591602001919060010190612d84565b5b509050612dad9190612dd5565b5090565b5b80821115612dd15760008181612dc89190612df2565b50600101612db2565b5090565b5b80821115612dee576000816000905550600101612dd6565b5090565b508054612dfe9061415b565b6000825580601f10612e105750612e2f565b601f016020900490600052602060002090810190612e2e9190612dd5565b5b50565b6000604051905090565b600080fd5b600080fd5b6000819050919050565b612e5981612e46565b8114612e6457600080fd5b50565b600081359050612e7681612e50565b92915050565b600073ffffffffffffffffffffffffffffffffffffffff82169050919050565b6000612ea782612e7c565b9050919050565b612eb781612e9c565b8114612ec257600080fd5b50565b600081359050612ed481612eae565b92915050565b600080fd5b600080fd5b600080fd5b60008083601f840112612eff57612efe612eda565b5b8235905067ffffffffffffffff811115612f1c57612f1b612edf565b5b602083019150836001820283011115612f3857612f37612ee4565b5b9250929050565b60008060008060608587031215612f5957612f58612e3c565b5b6000612f6787828801612e67565b9450506020612f7887828801612ec5565b935050604085013567ffffffffffffffff811115612f9957612f98612e41565b5b612fa587828801612ee9565b925092505092959194509250565b6000819050919050565b612fc681612fb3565b82525050565b6000602082019050612fe16000830184612fbd565b92915050565b612ff081612fb3565b8114612ffb57600080fd5b50565b60008135905061300d81612fe7565b92915050565b6000601f19601f8301169050919050565b7f4e487b7100000000000000000000000000000000000000000000000000000000600052604160045260246000fd5b61305c82613013565b810181811067ffffffffffffffff8211171561307b5761307a613024565b5b80604052505050565b600061308e612e32565b905061309a8282613053565b919050565b600067ffffffffffffffff8211156130ba576130b9613024565b5b602082029050602081019050919050565b600080fd5b600067ffffffffffffffff8211156130eb576130ea613024565b5b6130f482613013565b9050602081019050919050565b82818337600083830152505050565b600061312361311e846130d0565b613084565b90508281526020810184848401111561313f5761313e6130cb565b5b61314a848285613101565b509392505050565b600082601f83011261316757613166612eda565b5b8135613177848260208601613110565b91505092915050565b600061319361318e8461309f565b613084565b905080838252602082019050602084028301858111156131b6576131b5612ee4565b5b835b818110156131fd57803567ffffffffffffffff8111156131db576131da612eda565b5b8086016131e88982613152565b855260208501945050506020810190506131b8565b5050509392505050565b600082601f83011261321c5761321b612eda565b5b813561322c848260208601613180565b91505092915050565b600067ffffffffffffffff8211156132505761324f613024565b5b602082029050602081019050919050565b600061327461326f84613235565b613084565b9050808382526020820190506020840283018581111561329757613296612ee4565b5b835b818110156132c057806132ac8882612ffe565b845260208401935050602081019050613299565b5050509392505050565b600082601f8301126132df576132de612eda565b5b81356132ef848260208601613261565b91505092915050565b60008060008060006080868803121561331457613313612e3c565b5b600086013567ffffffffffffffff81111561333257613331612e41565b5b61333e88828901612ee9565b9550955050602061335188828901612ffe565b935050604086013567ffffffffffffffff81111561337257613371612e41565b5b61337e88828901613207565b925050606086013567ffffffffffffffff81111561339f5761339e612e41565b5b6133ab888289016132ca565b9150509295509295909350565b6133c181612e46565b82525050565b60006020820190506133dc60008301846133b8565b92915050565b600081519050919050565b600082825260208201905092915050565b6000819050602082019050919050565b61341781612e46565b82525050565b6000613429838361340e565b60208301905092915050565b6000602082019050919050565b600061344d826133e2565b61345781856133ed565b9350613462836133fe565b8060005b8381101561349357815161347a888261341d565b975061348583613435565b925050600181019050613466565b5085935050505092915050565b600060208201905081810360008301526134ba8184613442565b905092915050565b6000602082840312156134d8576134d7612e3c565b5b60006134e684828501612e67565b91505092915050565b60006020828403121561350557613504612e3c565b5b600061351384828501612ffe565b91505092915050565b6000806040838503121561353357613532612e3c565b5b600061354185828601612e67565b925050602061355285828601612ec5565b9150509250929050565b60008115159050919050565b6135718161355c565b82525050565b600060208201905061358c6000830184613568565b92915050565b61359b8161355c565b81146135a657600080fd5b50565b6000813590506135b881613592565b92915050565b600080600080608085870312156135d8576135d7612e3c565b5b60006135e687828801612ffe565b94505060206135f787828801612ffe565b935050604061360887828801612ffe565b9250506060613619878288016135a9565b91505092959194509250565b6000806000806040858703121561363f5761363e612e3c565b5b600085013567ffffffffffffffff81111561365d5761365c612e41565b5b61366987828801612ee9565b9450945050602085013567ffffffffffffffff81111561368c5761368b612e41565b5b61369887828801612ee9565b925092505092959194509250565b6136af81612e9c565b82525050565b60006020820190506136ca60008301846136a6565b92915050565b6000806000606084860312156136e9576136e8612e3c565b5b60006136f786828701612ec5565b935050602061370886828701612ffe565b925050604061371986828701612e67565b9150509250925092565b60008060006060848603121561373c5761373b612e3c565b5b600061374a86828701612e67565b935050602061375b86828701612ec5565b925050604061376c86828701612ffe565b9150509250925092565b600081519050919050565b600082825260208201905092915050565b60005b838110156137b0578082015181840152602081019050613795565b838111156137bf576000848401525b50505050565b60006137d082613776565b6137da8185613781565b93506137ea818560208601613792565b6137f381613013565b840191505092915050565b600060c082019050818103600083015261381881896137c5565b90506138276020830188612fbd565b6138346040830187612fbd565b6138416060830186612fbd565b61384e6080830185612fbd565b81810360a083015261386081846137c5565b9050979650505050505050565b6000806000806080858703121561388757613886612e3c565b5b600061389587828801612e67565b94505060206138a687828801612ec5565b93505060406138b787828801612ec5565b92505060606138c887828801612ec5565b91505092959194509250565b600080604083850312156138eb576138ea612e3c565b5b60006138f985828601612ec5565b925050602061390a85828601612e67565b9150509250929050565b60006020828403121561392a57613929612e3c565b5b600061393884828501612ec5565b91505092915050565b6000806040838503121561395857613957612e3c565b5b600061396685828601612ec5565b925050602061397785828601612ffe565b9150509250929050565b7f43616d706169676e496e666f3a2043616d706169676e20656e64656400000000600082015250565b60006139b7601c83613781565b91506139c282613981565b602082019050919050565b600060208201905081810360008301526139e6816139aa565b9050919050565b7f43616d706169676e496e666f3a204e6f7420416c6c6f77656400000000000000600082015250565b6000613a23601983613781565b9150613a2e826139ed565b602082019050919050565b60006020820190508181036000830152613a5281613a16565b9050919050565b600081905092915050565b6000613a708385613a59565b9350613a7d838584613101565b82840190509392505050565b6000613a96828486613a64565b91508190509392505050565b7f4e487b7100000000000000000000000000000000000000000000000000000000600052601160045260246000fd5b6000613adc82612fb3565b9150613ae783612fb3565b925082821015613afa57613af9613aa2565b5b828203905092915050565b6000606082019050613b1a60008301866136a6565b613b2760208301856136a6565b613b346040830184612fbd565b949350505050565b600081519050613b4b81613592565b92915050565b600060208284031215613b6757613b66612e3c565b5b6000613b7584828501613b3c565b91505092915050565b600081519050613b8d81612eae565b92915050565b600060208284031215613ba957613ba8612e3c565b5b6000613bb784828501613b7e565b91505092915050565b6000613bcb82612fb3565b9150613bd683612fb3565b9250827fffffffffffffffffffffffffffffffffffffffffffffffffffffffffffffffff03821115613c0b57613c0a613aa2565b5b828201905092915050565b6000613c228385613781565b9350613c2f838584613101565b613c3883613013565b840190509392505050565b600060a082019050613c5860008301896136a6565b613c6560208301886136a6565b613c726040830187612fbd565b613c7f60608301866133b8565b8181036080830152613c92818486613c16565b9050979650505050505050565b600081519050613cae81612fe7565b92915050565b600060208284031215613cca57613cc9612e3c565b5b6000613cd884828501613c9f565b91505092915050565b7f4e487b7100000000000000000000000000000000000000000000000000000000600052603260045260246000fd5b6000613d1b82613776565b613d258185613a59565b9350613d35818560208601613792565b80840191505092915050565b6000613d4d8284613d10565b915081905092915050565b6000613d6382612fb3565b91507fffffffffffffffffffffffffffffffffffffffffffffffffffffffffffffffff821415613d9657613d95613aa2565b5b600182019050919050565b7f43616d706169676e496e666f3a2054726561737572792061646472657373206660008201527f6f7220706c6174666f726d206973206e6f742073657400000000000000000000602082015250565b6000613dfd603683613781565b9150613e0882613da1565b604082019050919050565b60006020820190508181036000830152613e2c81613df0565b9050919050565b7f43616d706169676e496e666f3a204e6f7420616c6c6f77656400000000000000600082015250565b6000613e69601983613781565b9150613e7482613e33565b602082019050919050565b60006020820190508181036000830152613e9881613e5c565b9050919050565b6000608082019050613eb460008301876136a6565b613ec160208301866136a6565b613ece6040830185612fbd565b613edb60608301846133b8565b95945050505050565b600081519050919050565b600082825260208201905092915050565b6000819050602082019050919050565b613f1981612fb3565b82525050565b6000613f2b8383613f10565b60208301905092915050565b6000602082019050919050565b6000613f4f82613ee4565b613f598185613eef565b9350613f6483613f00565b8060005b83811015613f95578151613f7c8882613f1f565b9750613f8783613f37565b925050600181019050613f68565b5085935050505092915050565b6000606082019050613fb76000830186612fbd565b613fc46020830185612fbd565b8181036040830152613fd68184613f44565b9050949350505050565b6000613ff3613fee84613235565b613084565b9050808382526020820190506020840283018581111561401657614015612ee4565b5b835b8181101561403f578061402b8882613c9f565b845260208401935050602081019050614018565b5050509392505050565b600082601f83011261405e5761405d612eda565b5b815161406e848260208601613fe0565b91505092915050565b60006020828403121561408d5761408c612e3c565b5b600082015167ffffffffffffffff8111156140ab576140aa612e41565b5b6140b784828501614049565b91505092915050565b7f43616d706169676e496e666f3a20496e76616c696420416d6f756e7400000000600082015250565b60006140f6601c83613781565b9150614101826140c0565b602082019050919050565b60006020820190508181036000830152614125816140e9565b9050919050565b7f4e487b7100000000000000000000000000000000000000000000000000000000600052602260045260246000fd5b6000600282049050600182168061417357607f821691505b602082108114156141875761418661412c565b5b50919050565b7f4f776e61626c653a206e6577206f776e657220697320746865207a65726f206160008201527f6464726573730000000000000000000000000000000000000000000000000000602082015250565b60006141e9602683613781565b91506141f48261418d565b604082019050919050565b60006020820190508181036000830152614218816141dc565b9050919050565b60008151905061422e81612e50565b92915050565b6000614247614242846130d0565b613084565b905082815260208101848484011115614263576142626130cb565b5b61426e848285613792565b509392505050565b600082601f83011261428b5761428a612eda565b5b815161429b848260208601614234565b91505092915050565b600080600080600080600060e0888a0312156142c3576142c2612e3c565b5b60006142d18a828b01613b7e565b97505060206142e28a828b01613b7e565b96505060406142f38a828b01613b7e565b95505060606143048a828b01613c9f565b94505060806143158a828b01613c9f565b93505060a06143268a828b0161421f565b92505060c088015167ffffffffffffffff81111561434757614346612e41565b5b6143538a828b01614276565b91505092959891949750929550565b7f43616d706169676e496e666f3a204f726967696e20706c6174666f726d20747260008201527f656173757279206e6f7420736574207965740000000000000000000000000000602082015250565b60006143be603283613781565b91506143c982614362565b604082019050919050565b600060208201905081810360008301526143ed816143b1565b9050919050565b7f5061757361626c653a2070617573656400000000000000000000000000000000600082015250565b600061442a601083613781565b9150614435826143f4565b602082019050919050565b600060208201905081810360008301526144598161441d565b9050919050565b7f4f776e61626c653a2063616c6c6572206973206e6f7420746865206f776e6572600082015250565b6000614496602083613781565b91506144a182614460565b602082019050919050565b600060208201905081810360008301526144c581614489565b9050919050565b7f5061757361626c653a206e6f7420706175736564000000000000000000000000600082015250565b6000614502601483613781565b915061450d826144cc565b602082019050919050565b60006020820190508181036000830152614531816144f5565b905091905056fea2646970667358221220cc504275103d355edfc47ca241e22928053524b95d9aff8d95206f7a958f9e3564736f6c63430008090033",
  "linkReferences": {},
  "deployedLinkReferences": {}
}