{
  "_format": "hh-sol-artifact-1",
  "contractName": "CampaignInfo",
  "sourceName": "contracts/CampaignInfo.sol",
  "abi": [
    {
      "inputs": [
        {
          "internalType": "string",
          "name": "_identifier",
          "type": "string"
        },
        {
          "internalType": "bytes32",
          "name": "_originPlatform",
          "type": "bytes32"
        },
        {
          "internalType": "uint256",
          "name": "_goalAmount",
          "type": "uint256"
        },
        {
          "internalType": "uint256",
          "name": "_launchTime",
          "type": "uint256"
        },
        {
          "internalType": "uint256",
          "name": "_deadline",
          "type": "uint256"
        },
        {
          "internalType": "uint256",
          "name": "_platformTotalFeePercent",
          "type": "uint256"
        },
        {
          "internalType": "uint256",
          "name": "_rewardPlatformFeePercent",
          "type": "uint256"
        },
        {
          "internalType": "string",
          "name": "_creatorUrl",
          "type": "string"
        },
        {
          "internalType": "bytes32[]",
          "name": "_reachPlatform",
          "type": "bytes32[]"
        },
        {
          "internalType": "address",
          "name": "_registryAddress",
          "type": "address"
        }
      ],
      "stateMutability": "nonpayable",
      "type": "constructor"
    },
    {
      "anonymous": false,
      "inputs": [
        {
          "indexed": true,
          "internalType": "address",
          "name": "previousOwner",
          "type": "address"
        },
        {
          "indexed": true,
          "internalType": "address",
          "name": "newOwner",
          "type": "address"
        }
      ],
      "name": "OwnershipTransferred",
      "type": "event"
    },
    {
      "anonymous": false,
      "inputs": [
        {
          "indexed": false,
          "internalType": "address",
          "name": "account",
          "type": "address"
        }
      ],
      "name": "Paused",
      "type": "event"
    },
    {
      "anonymous": false,
      "inputs": [
        {
          "indexed": false,
          "internalType": "address",
          "name": "account",
          "type": "address"
        }
      ],
      "name": "Unpaused",
      "type": "event"
    },
    {
      "inputs": [
        {
          "internalType": "bytes32",
          "name": "_platformId",
          "type": "bytes32"
        }
      ],
      "name": "addReachPlatform",
      "outputs": [],
      "stateMutability": "nonpayable",
      "type": "function"
    },
    {
      "inputs": [
        {
          "internalType": "bytes32",
          "name": "_platformId",
          "type": "bytes32"
        },
        {
          "internalType": "uint256",
          "name": "_feeShare",
          "type": "uint256"
        }
      ],
      "name": "disburseFee",
      "outputs": [],
      "stateMutability": "nonpayable",
      "type": "function"
    },
    {
      "inputs": [
        {
          "internalType": "uint256",
          "name": "_deadline",
          "type": "uint256"
        }
      ],
      "name": "editDeadline",
      "outputs": [],
      "stateMutability": "nonpayable",
      "type": "function"
    },
    {
      "inputs": [
        {
          "internalType": "uint256",
          "name": "_goalAmount",
          "type": "uint256"
        }
      ],
      "name": "editGoal",
      "outputs": [],
      "stateMutability": "nonpayable",
      "type": "function"
    },
    {
      "inputs": [
        {
          "internalType": "uint256",
          "name": "_launchTime",
          "type": "uint256"
        }
      ],
      "name": "editLaunchTime",
      "outputs": [],
      "stateMutability": "nonpayable",
      "type": "function"
    },
    {
      "inputs": [],
      "name": "end",
      "outputs": [],
      "stateMutability": "nonpayable",
      "type": "function"
    },
    {
      "inputs": [
        {
          "internalType": "address",
          "name": "backer",
          "type": "address"
        },
        {
          "internalType": "bytes32",
          "name": "platformId",
          "type": "bytes32"
        }
      ],
      "name": "getBackerPledgeInfoForAPlatform",
      "outputs": [
        {
          "internalType": "uint256",
          "name": "",
          "type": "uint256"
        }
      ],
      "stateMutability": "view",
      "type": "function"
    },
    {
      "inputs": [],
      "name": "getCampaignData",
      "outputs": [
        {
          "internalType": "string",
          "name": "",
          "type": "string"
        },
        {
          "internalType": "uint256",
          "name": "",
          "type": "uint256"
        },
        {
          "internalType": "uint256",
          "name": "",
          "type": "uint256"
        },
        {
          "internalType": "uint256",
          "name": "",
          "type": "uint256"
        },
        {
          "internalType": "uint256",
          "name": "",
          "type": "uint256"
        },
        {
          "internalType": "string",
          "name": "",
          "type": "string"
        }
      ],
      "stateMutability": "view",
      "type": "function"
    },
    {
      "inputs": [],
      "name": "getCampaignOriginPlatform",
      "outputs": [
        {
          "internalType": "bytes32",
          "name": "",
          "type": "bytes32"
        }
      ],
      "stateMutability": "view",
      "type": "function"
    },
    {
      "inputs": [],
      "name": "getCampaignReachPlatforms",
      "outputs": [
        {
          "internalType": "bytes32[]",
          "name": "",
          "type": "bytes32[]"
        }
      ],
      "stateMutability": "view",
      "type": "function"
    },
    {
      "inputs": [],
      "name": "getFeeSplitsProportionately",
      "outputs": [
        {
          "internalType": "uint256",
          "name": "",
          "type": "uint256"
        }
      ],
      "stateMutability": "view",
      "type": "function"
    },
    {
      "inputs": [
        {
          "internalType": "uint256",
          "name": "feePercent",
          "type": "uint256"
        },
        {
          "internalType": "uint256[]",
          "name": "pledgedAmountByPlatforms",
          "type": "uint256[]"
        }
      ],
      "name": "getFeeSplitsProportionately",
      "outputs": [
        {
          "internalType": "uint256[]",
          "name": "",
          "type": "uint256[]"
        }
      ],
      "stateMutability": "pure",
      "type": "function"
    },
    {
      "inputs": [
        {
          "internalType": "uint256",
          "name": "totalFeePercent",
          "type": "uint256"
        },
        {
          "internalType": "uint256",
          "name": "platformRewardPercent",
          "type": "uint256"
        },
        {
          "internalType": "uint256",
          "name": "pledgedAmountByOrigin",
          "type": "uint256"
        },
        {
          "internalType": "uint256[]",
          "name": "pledgedAmountsByReach",
          "type": "uint256[]"
        }
      ],
      "name": "getFeeSplitsProportionatelyWithPlatformReward",
      "outputs": [
        {
          "internalType": "uint256",
          "name": "",
          "type": "uint256"
        },
        {
          "internalType": "uint256[]",
          "name": "",
          "type": "uint256[]"
        }
      ],
      "stateMutability": "pure",
      "type": "function"
    },
    {
      "inputs": [
        {
          "internalType": "bytes32",
          "name": "platformId",
          "type": "bytes32"
        }
      ],
      "name": "getPledgedAmountForAPlatformCrypto",
      "outputs": [
        {
          "internalType": "uint256",
          "name": "",
          "type": "uint256"
        }
      ],
      "stateMutability": "view",
      "type": "function"
    },
    {
      "inputs": [
        {
          "internalType": "bytes32",
          "name": "platformId",
          "type": "bytes32"
        }
      ],
      "name": "getPledgedAmountForPlatformCrypto",
      "outputs": [
        {
          "internalType": "uint256",
          "name": "",
          "type": "uint256"
        }
      ],
      "stateMutability": "view",
      "type": "function"
    },
    {
      "inputs": [],
      "name": "getTotalPledgedAmount",
      "outputs": [
        {
          "internalType": "uint256",
          "name": "",
          "type": "uint256"
        }
      ],
      "stateMutability": "view",
      "type": "function"
    },
    {
      "inputs": [],
      "name": "getTotalPledgedAmountCrypto",
      "outputs": [
        {
          "internalType": "uint256",
          "name": "",
          "type": "uint256"
        }
      ],
      "stateMutability": "view",
      "type": "function"
    },
    {
      "inputs": [
        {
          "internalType": "bytes32",
          "name": "platformId",
          "type": "bytes32"
        }
      ],
      "name": "getTreasuryAddress",
      "outputs": [
        {
          "internalType": "address",
          "name": "",
          "type": "address"
        }
      ],
      "stateMutability": "view",
      "type": "function"
    },
    {
      "inputs": [],
      "name": "owner",
      "outputs": [
        {
          "internalType": "address",
          "name": "",
          "type": "address"
        }
      ],
      "stateMutability": "view",
      "type": "function"
    },
    {
      "inputs": [],
      "name": "pause",
      "outputs": [],
      "stateMutability": "nonpayable",
      "type": "function"
    },
    {
      "inputs": [],
      "name": "paused",
      "outputs": [
        {
          "internalType": "bool",
          "name": "",
          "type": "bool"
        }
      ],
      "stateMutability": "view",
      "type": "function"
    },
    {
      "inputs": [
        {
          "internalType": "bytes32",
          "name": "platformId",
          "type": "bytes32"
        },
        {
          "internalType": "address",
          "name": "backer",
          "type": "address"
        },
        {
          "internalType": "uint256",
          "name": "amount",
          "type": "uint256"
        }
      ],
      "name": "pledgeThroughPlatform",
      "outputs": [],
      "stateMutability": "nonpayable",
      "type": "function"
    },
    {
      "inputs": [],
      "name": "renounceOwnership",
      "outputs": [],
      "stateMutability": "nonpayable",
      "type": "function"
    },
    {
      "inputs": [
        {
          "internalType": "bytes32",
          "name": "_platformId",
          "type": "bytes32"
        },
        {
          "internalType": "address",
          "name": "_platformWallet",
          "type": "address"
        },
        {
          "internalType": "address",
          "name": "_treasury",
          "type": "address"
        },
        {
          "internalType": "address",
          "name": "_token",
          "type": "address"
        }
      ],
      "name": "setplatformInfo",
      "outputs": [],
      "stateMutability": "nonpayable",
      "type": "function"
    },
    {
      "inputs": [],
      "name": "splitFeeWithRewards",
      "outputs": [],
      "stateMutability": "nonpayable",
      "type": "function"
    },
    {
      "inputs": [],
      "name": "splitFeeWithVelocityOfFundraising",
      "outputs": [],
      "stateMutability": "nonpayable",
      "type": "function"
    },
    {
      "inputs": [],
      "name": "splitFeesProportionately",
      "outputs": [],
      "stateMutability": "nonpayable",
      "type": "function"
    },
    {
      "inputs": [
        {
          "internalType": "address",
          "name": "newOwner",
          "type": "address"
        }
      ],
      "name": "transferOwnership",
      "outputs": [],
      "stateMutability": "nonpayable",
      "type": "function"
    },
    {
      "inputs": [],
      "name": "unpause",
      "outputs": [],
      "stateMutability": "nonpayable",
      "type": "function"
    }
  ],
  "bytecode": "0x60806040526002600b553480156200001657600080fd5b50604051620049e7380380620049e783398181016040528101906200003c9190620006f5565b6200005c62000050620001b560201b60201c565b620001bd60201b60201c565b60008060146101000a81548160ff02191690831515021790555085600a548862000087919062000877565b10620000ca576040517f08c379a0000000000000000000000000000000000000000000000000000000008152600401620000c1906200095b565b60405180910390fd5b8960016000019080519060200190620000e592919062000281565b508860018001819055508760016002018190555086600160030181905550426001600401819055508560016005018190555082600160060190805190602001906200013292919062000281565b5081600160070190805190602001906200014e92919062000312565b5080600960006101000a81548173ffffffffffffffffffffffffffffffffffffffff021916908373ffffffffffffffffffffffffffffffffffffffff16021790555042600f8190555084600d8190555083600e8190555050505050505050505050620009e2565b600033905090565b60008060009054906101000a900473ffffffffffffffffffffffffffffffffffffffff169050816000806101000a81548173ffffffffffffffffffffffffffffffffffffffff021916908373ffffffffffffffffffffffffffffffffffffffff1602179055508173ffffffffffffffffffffffffffffffffffffffff168173ffffffffffffffffffffffffffffffffffffffff167f8be0079c531659141344cd1fd0a4f28419497f9722a3daafe3b4186f6b6457e060405160405180910390a35050565b8280546200028f90620009ac565b90600052602060002090601f016020900481019282620002b35760008555620002ff565b82601f10620002ce57805160ff1916838001178555620002ff565b82800160010185558215620002ff579182015b82811115620002fe578251825591602001919060010190620002e1565b5b5090506200030e919062000364565b5090565b82805482825590600052602060002090810192821562000351579160200282015b828111156200035057825182559160200191906001019062000333565b5b50905062000360919062000383565b5090565b5b808211156200037f57600081600090555060010162000365565b5090565b5b808211156200039e57600081600090555060010162000384565b5090565b6000604051905090565b600080fd5b600080fd5b600080fd5b600080fd5b6000601f19601f8301169050919050565b7f4e487b7100000000000000000000000000000000000000000000000000000000600052604160045260246000fd5b6200040b82620003c0565b810181811067ffffffffffffffff821117156200042d576200042c620003d1565b5b80604052505050565b600062000442620003a2565b905062000450828262000400565b919050565b600067ffffffffffffffff821115620004735762000472620003d1565b5b6200047e82620003c0565b9050602081019050919050565b60005b83811015620004ab5780820151818401526020810190506200048e565b83811115620004bb576000848401525b50505050565b6000620004d8620004d28462000455565b62000436565b905082815260208101848484011115620004f757620004f6620003bb565b5b620005048482856200048b565b509392505050565b600082601f830112620005245762000523620003b6565b5b815162000536848260208601620004c1565b91505092915050565b6000819050919050565b62000554816200053f565b81146200056057600080fd5b50565b600081519050620005748162000549565b92915050565b6000819050919050565b6200058f816200057a565b81146200059b57600080fd5b50565b600081519050620005af8162000584565b92915050565b600067ffffffffffffffff821115620005d357620005d2620003d1565b5b602082029050602081019050919050565b600080fd5b600062000600620005fa84620005b5565b62000436565b90508083825260208201905060208402830185811115620006265762000625620005e4565b5b835b818110156200065357806200063e888262000563565b84526020840193505060208101905062000628565b5050509392505050565b600082601f830112620006755762000674620003b6565b5b815162000687848260208601620005e9565b91505092915050565b600073ffffffffffffffffffffffffffffffffffffffff82169050919050565b6000620006bd8262000690565b9050919050565b620006cf81620006b0565b8114620006db57600080fd5b50565b600081519050620006ef81620006c4565b92915050565b6000806000806000806000806000806101408b8d0312156200071c576200071b620003ac565b5b60008b015167ffffffffffffffff8111156200073d576200073c620003b1565b5b6200074b8d828e016200050c565b9a505060206200075e8d828e0162000563565b9950506040620007718d828e016200059e565b9850506060620007848d828e016200059e565b9750506080620007978d828e016200059e565b96505060a0620007aa8d828e016200059e565b95505060c0620007bd8d828e016200059e565b94505060e08b015167ffffffffffffffff811115620007e157620007e0620003b1565b5b620007ef8d828e016200050c565b9350506101008b015167ffffffffffffffff811115620008145762000813620003b1565b5b620008228d828e016200065d565b925050610120620008368d828e01620006de565b9150509295989b9194979a5092959850565b7f4e487b7100000000000000000000000000000000000000000000000000000000600052601160045260246000fd5b600062000884826200057a565b915062000891836200057a565b9250827fffffffffffffffffffffffffffffffffffffffffffffffffffffffffffffffff03821115620008c957620008c862000848565b5b828201905092915050565b600082825260208201905092915050565b7f43616d706169676e496e666f3a204d696e696d756d2063616d706169676e206460008201527f7561726174696f6e206e6f74206d657400000000000000000000000000000000602082015250565b600062000943603083620008d4565b91506200095082620008e5565b604082019050919050565b60006020820190508181036000830152620009768162000934565b9050919050565b7f4e487b7100000000000000000000000000000000000000000000000000000000600052602260045260246000fd5b60006002820490506001821680620009c557607f821691505b60208210811415620009dc57620009db6200097d565b5b50919050565b613ff580620009f26000396000f3fe608060405234801561001057600080fd5b50600436106101cf5760003560e01c806383d23ab311610104578063c4176338116100a2578063f2fde38b11610071578063f2fde38b1461048a578063f6b854ff146104a6578063f8403676146104c2578063fb7846df146104e0576101cf565b8063c417633814610411578063e12900f214610434578063efbe1c1c14610464578063f18f409f1461046e576101cf565b80638da5cb5b116100de5780638da5cb5b146103af5780639bd4dd3c146103cd578063a0797f75146103e9578063b0e10c6114610407576101cf565b806383d23ab3146103595780638456cb591461037557806384ea5c741461037f576101cf565b806349867312116101715780635c975abb1161014b5780635c975abb1461030b57806360f67bc814610329578063715018a6146103455780637568173b1461034f576101cf565b806349867312146102c95780634da7f432146102e557806355bf311214610301576101cf565b806330c00b00116101ad57806330c00b001461024057806332a8e0341461027057806333a06c81146102a15780633f4ba83a146102bf576101cf565b8063026d7cfd146101d45780632e162db6146101f25780632ee8ebf714610210575b600080fd5b6101dc610510565b6040516101e99190612fa2565b60405180910390f35b6101fa610515565b6040516102079190613085565b60405180910390f35b61022a60048036038101906102259190613240565b610570565b604051610237919061335a565b60405180910390f35b61025a600480360381019061025591906133a8565b610641565b6040516102679190612fa2565b60405180910390f35b61028a600480360381019061028591906133d5565b6107de565b604051610298929190613458565b60405180910390f35b6102a9610852565b6040516102b69190612fa2565b60405180910390f35b6102c7610b1b565b005b6102e360048036038101906102de91906134e6565b610c93565b005b6102ff60048036038101906102fa919061354d565b610efd565b005b610309611096565b005b6103136113c8565b6040516103209190613595565b60405180910390f35b610343600480360381019061033e91906135b0565b6113de565b005b61034d61163a565b005b61035761164e565b005b610373600480360381019061036e91906133a8565b611868565b005b61037d611a05565b005b610399600480360381019061039491906133a8565b611b7d565b6040516103a69190613612565b60405180910390f35b6103b7611c5f565b6040516103c49190613612565b60405180910390f35b6103e760048036038101906103e2919061354d565b611c88565b005b6103f1611e21565b6040516103fe919061363c565b60405180910390f35b61040f611e2d565b005b61041961215f565b60405161042b969594939291906136df565b60405180910390f35b61044e6004803603810190610449919061374e565b6122b7565b60405161045b9190612fa2565b60405180910390f35b61046c612312565b005b6104886004803603810190610483919061354d565b61249d565b005b6104a4600480360381019061049f919061378e565b612618565b005b6104c060048036038101906104bb91906137bb565b61269c565b005b6104ca61281e565b6040516104d79190612fa2565b60405180910390f35b6104fa60048036038101906104f591906133a8565b612b87565b6040516105079190612fa2565b60405180910390f35b600090565b6060600160070180548060200260200160405190810160405280929190818152602001828054801561056657602002820191906000526020600020905b815481526020019060010190808311610552575b5050505050905090565b606060008251905060008167ffffffffffffffff811115610594576105936130fd565b5b6040519080825280602002602001820160405280156105c25781602001602082028036833780820191505090505b50905060005b8281101561063557612710868683815181106105e7576105e66137fb565b5b60200260200101516105f99190613859565b61060391906138e2565b828281518110610616576106156137fb565b5b602002602001018181525050808061062d90613913565b9150506105c8565b50809250505092915050565b600081600073ffffffffffffffffffffffffffffffffffffffff166010600083815260200190815260200160002060009054906101000a900473ffffffffffffffffffffffffffffffffffffffff1673ffffffffffffffffffffffffffffffffffffffff1614156106e7576040517f08c379a00000000000000000000000000000000000000000000000000000000081526004016106de906139ce565b60405180910390fd5b6011600084815260200190815260200160002060009054906101000a900473ffffffffffffffffffffffffffffffffffffffff1673ffffffffffffffffffffffffffffffffffffffff166370a082316010600086815260200190815260200160002060009054906101000a900473ffffffffffffffffffffffffffffffffffffffff166040518263ffffffff1660e01b81526004016107869190613612565b60206040518083038186803b15801561079e57600080fd5b505afa1580156107b2573d6000803e3d6000fd5b505050506040513d601f19601f820116820180604052508101906107d69190613a03565b915050919050565b6000606060008351905060006001826107f79190613a30565b87896108039190613a86565b61080d91906138e2565b9050600061271082896108209190613a30565b8861082b9190613859565b61083591906138e2565b9050806108428388610570565b9450945050505094509492505050565b600080601060006001800154815260200190815260200160002060009054906101000a900473ffffffffffffffffffffffffffffffffffffffff169050600073ffffffffffffffffffffffffffffffffffffffff168173ffffffffffffffffffffffffffffffffffffffff1614156108ff576040517f08c379a00000000000000000000000000000000000000000000000000000000081526004016108f690613b2c565b60405180910390fd5b6000600160070180548060200260200160405190810160405280929190818152602001828054801561095057602002820191906000526020600020905b81548152602001906001019080831161093c575b5050505050905060008151905060008373ffffffffffffffffffffffffffffffffffffffff1663186bc5496040518163ffffffff1660e01b815260040160206040518083038186803b1580156109a557600080fd5b505afa1580156109b9573d6000803e3d6000fd5b505050506040513d601f19601f820116820180604052508101906109dd9190613a03565b905060005b82811015610b1057600060106000868481518110610a0357610a026137fb565b5b6020026020010151815260200190815260200160002060009054906101000a900473ffffffffffffffffffffffffffffffffffffffff169050600073ffffffffffffffffffffffffffffffffffffffff168173ffffffffffffffffffffffffffffffffffffffff1614610afc578073ffffffffffffffffffffffffffffffffffffffff1663186bc5496040518163ffffffff1660e01b815260040160206040518083038186803b158015610ab657600080fd5b505afa158015610aca573d6000803e3d6000fd5b505050506040513d601f19601f82011682018060405250810190610aee9190613a03565b83610af99190613a30565b92505b508080610b0890613913565b9150506109e2565b508094505050505090565b600960159054906101000a900460ff1615610b6b576040517f08c379a0000000000000000000000000000000000000000000000000000000008152600401610b6290613b98565b60405180910390fd5b6001600501544210610bb2576040517f08c379a0000000000000000000000000000000000000000000000000000000008152600401610ba990613c04565b60405180910390fd5b600960009054906101000a900473ffffffffffffffffffffffffffffffffffffffff1673ffffffffffffffffffffffffffffffffffffffff16638da5cb5b6040518163ffffffff1660e01b815260040160206040518083038186803b158015610c1a57600080fd5b505afa158015610c2e573d6000803e3d6000fd5b505050506040513d601f19601f82011682018060405250810190610c529190613c39565b73ffffffffffffffffffffffffffffffffffffffff163373ffffffffffffffffffffffffffffffffffffffff1614610c8957600080fd5b610c91612c7f565b565b600960159054906101000a900460ff1615610ce3576040517f08c379a0000000000000000000000000000000000000000000000000000000008152600401610cda90613b98565b60405180910390fd5b6001600501544210610d2a576040517f08c379a0000000000000000000000000000000000000000000000000000000008152600401610d2190613c04565b60405180910390fd5b600960009054906101000a900473ffffffffffffffffffffffffffffffffffffffff1673ffffffffffffffffffffffffffffffffffffffff16638da5cb5b6040518163ffffffff1660e01b815260040160206040518083038186803b158015610d9257600080fd5b505afa158015610da6573d6000803e3d6000fd5b505050506040513d601f19601f82011682018060405250810190610dca9190613c39565b73ffffffffffffffffffffffffffffffffffffffff163373ffffffffffffffffffffffffffffffffffffffff1614610e0157600080fd5b826012600086815260200190815260200160002060006101000a81548173ffffffffffffffffffffffffffffffffffffffff021916908373ffffffffffffffffffffffffffffffffffffffff160217905550816010600086815260200190815260200160002060006101000a81548173ffffffffffffffffffffffffffffffffffffffff021916908373ffffffffffffffffffffffffffffffffffffffff160217905550806011600086815260200190815260200160002060006101000a81548173ffffffffffffffffffffffffffffffffffffffff021916908373ffffffffffffffffffffffffffffffffffffffff16021790555050505050565b600960159054906101000a900460ff1615610f4d576040517f08c379a0000000000000000000000000000000000000000000000000000000008152600401610f4490613b98565b60405180910390fd5b6001600501544210610f94576040517f08c379a0000000000000000000000000000000000000000000000000000000008152600401610f8b90613c04565b60405180910390fd5b600960009054906101000a900473ffffffffffffffffffffffffffffffffffffffff1673ffffffffffffffffffffffffffffffffffffffff16638da5cb5b6040518163ffffffff1660e01b815260040160206040518083038186803b158015610ffc57600080fd5b505afa158015611010573d6000803e3d6000fd5b505050506040513d601f19601f820116820180604052508101906110349190613c39565b73ffffffffffffffffffffffffffffffffffffffff163373ffffffffffffffffffffffffffffffffffffffff161461106b57600080fd5b600160050154600a548261107f9190613a30565b1061108957600080fd5b8060016003018190555050565b600960149054906101000a900460ff166110e5576040517f08c379a00000000000000000000000000000000000000000000000000000000081526004016110dc90613cd8565b60405180910390fd5b6000600d5490506000600e5490506000611100600c54610641565b90506000600160070180548060200260200160405190810160405280929190818152602001828054801561115357602002820191906000526020600020905b81548152602001906001019080831161113f575b505050505090506000815167ffffffffffffffff811115611177576111766130fd565b5b6040519080825280602002602001820160405280156111a55781602001602082028036833780820191505090505b5090506000600180015490506000835167ffffffffffffffff8111156111ce576111cd6130fd565b5b6040519080825280602002602001820160405280156111fc5781602001602082028036833780820191505090505b50905081600c5414156112705760005b845181101561126a5761123885828151811061122b5761122a6137fb565b5b6020026020010151610641565b84828151811061124b5761124a6137fb565b5b602002602001018181525050808061126290613913565b91505061120c565b50611394565b600061127b83610641565b84828151811061128e5761128d6137fb565b5b602002602001018181525050828282815181106112ae576112ad6137fb565b5b602002602001018181525050600190505b8451811161139257600c54856001836112d89190613a86565b815181106112e9576112e86137fb565b5b60200260200101511461137f57846001826113049190613a86565b81518110611315576113146137fb565b5b60200260200101518282815181106113305761132f6137fb565b5b60200260200101818152505061135f858281518110611352576113516137fb565b5b6020026020010151610641565b848281518110611372576113716137fb565b5b6020026020010181815250505b808061138a90613913565b9150506112bf565b505b6000806113a3898989886107de565b915091506113b3600c548361269c565b6113bd8382612ce1565b505050505050505050565b60008060149054906101000a900460ff16905090565b600960159054906101000a900460ff161561142e576040517f08c379a000000000000000000000000000000000000000000000000000000000815260040161142590613b98565b60405180910390fd5b6001600501544210611475576040517f08c379a000000000000000000000000000000000000000000000000000000000815260040161146c90613c04565b60405180910390fd5b61147d612d49565b600960149054906101000a900460ff161580156114b45750600b546001600201546114a891906138e2565b6114b184610641565b10155b80156114c25750600f544210155b156114ea576001600960146101000a81548160ff02191690831515021790555082600c819055505b6011600084815260200190815260200160002060009054906101000a900473ffffffffffffffffffffffffffffffffffffffff1673ffffffffffffffffffffffffffffffffffffffff166323b872dd836010600087815260200190815260200160002060009054906101000a900473ffffffffffffffffffffffffffffffffffffffff16846040518463ffffffff1660e01b815260040161158d93929190613cf8565b602060405180830381600087803b1580156115a757600080fd5b505af11580156115bb573d6000803e3d6000fd5b505050506040513d601f19601f820116820180604052508101906115df9190613d5b565b5080601360008473ffffffffffffffffffffffffffffffffffffffff1673ffffffffffffffffffffffffffffffffffffffff168152602001908152602001600020600085815260200190815260200160002081905550505050565b611642612d93565b61164c6000612e11565b565b6000600160070180548060200260200160405190810160405280929190818152602001828054801561169f57602002820191906000526020600020905b81548152602001906001019080831161168b575b505050505090506000600182516116b69190613a30565b67ffffffffffffffff8111156116cf576116ce6130fd565b5b6040519080825280602002602001820160405280156116fd5781602001602082028036833780820191505090505b5090506000600183516117109190613a30565b67ffffffffffffffff811115611729576117286130fd565b5b6040519080825280602002602001820160405280156117575781602001602082028036833780820191505090505b50905060005b83518110156117f557838181518110611779576117786137fb565b5b6020026020010151838281518110611794576117936137fb565b5b6020026020010181815250506117c38482815181106117b6576117b56137fb565b5b6020026020010151610641565b8282815181106117d6576117d56137fb565b5b60200260200101818152505080806117ed90613913565b91505061175d565b5060018001548284518151811061180f5761180e6137fb565b5b6020026020010181815250506118286001800154610641565b8184518151811061183c5761183b6137fb565b5b6020026020010181815250506000611856600d5483610570565b90506118628382612ce1565b50505050565b600960159054906101000a900460ff16156118b8576040517f08c379a00000000000000000000000000000000000000000000000000000000081526004016118af90613b98565b60405180910390fd5b60016005015442106118ff576040517f08c379a00000000000000000000000000000000000000000000000000000000081526004016118f690613c04565b60405180910390fd5b600960009054906101000a900473ffffffffffffffffffffffffffffffffffffffff1673ffffffffffffffffffffffffffffffffffffffff16638da5cb5b6040518163ffffffff1660e01b815260040160206040518083038186803b15801561196757600080fd5b505afa15801561197b573d6000803e3d6000fd5b505050506040513d601f19601f8201168201806040525081019061199f9190613c39565b73ffffffffffffffffffffffffffffffffffffffff163373ffffffffffffffffffffffffffffffffffffffff16146119d657600080fd5b600160070181908060018154018082558091505060019003906000526020600020016000909190919091505550565b600960159054906101000a900460ff1615611a55576040517f08c379a0000000000000000000000000000000000000000000000000000000008152600401611a4c90613b98565b60405180910390fd5b6001600501544210611a9c576040517f08c379a0000000000000000000000000000000000000000000000000000000008152600401611a9390613c04565b60405180910390fd5b600960009054906101000a900473ffffffffffffffffffffffffffffffffffffffff1673ffffffffffffffffffffffffffffffffffffffff16638da5cb5b6040518163ffffffff1660e01b815260040160206040518083038186803b158015611b0457600080fd5b505afa158015611b18573d6000803e3d6000fd5b505050506040513d601f19601f82011682018060405250810190611b3c9190613c39565b73ffffffffffffffffffffffffffffffffffffffff163373ffffffffffffffffffffffffffffffffffffffff1614611b7357600080fd5b611b7b612ed5565b565b600081600073ffffffffffffffffffffffffffffffffffffffff166010600083815260200190815260200160002060009054906101000a900473ffffffffffffffffffffffffffffffffffffffff1673ffffffffffffffffffffffffffffffffffffffff161415611c23576040517f08c379a0000000000000000000000000000000000000000000000000000000008152600401611c1a906139ce565b60405180910390fd5b6010600084815260200190815260200160002060009054906101000a900473ffffffffffffffffffffffffffffffffffffffff16915050919050565b60008060009054906101000a900473ffffffffffffffffffffffffffffffffffffffff16905090565b600960159054906101000a900460ff1615611cd8576040517f08c379a0000000000000000000000000000000000000000000000000000000008152600401611ccf90613b98565b60405180910390fd5b6001600501544210611d1f576040517f08c379a0000000000000000000000000000000000000000000000000000000008152600401611d1690613c04565b60405180910390fd5b600960009054906101000a900473ffffffffffffffffffffffffffffffffffffffff1673ffffffffffffffffffffffffffffffffffffffff16638da5cb5b6040518163ffffffff1660e01b815260040160206040518083038186803b158015611d8757600080fd5b505afa158015611d9b573d6000803e3d6000fd5b505050506040513d601f19601f82011682018060405250810190611dbf9190613c39565b73ffffffffffffffffffffffffffffffffffffffff163373ffffffffffffffffffffffffffffffffffffffff1614611df657600080fd5b80600a54600160030154611e0a9190613a30565b10611e1457600080fd5b8060016005018190555050565b60006001800154905090565b600960149054906101000a900460ff16611e7c576040517f08c379a0000000000000000000000000000000000000000000000000000000008152600401611e7390613cd8565b60405180910390fd5b6000600d5490506000600e5490506000611e97600c54610641565b905060006001600701805480602002602001604051908101604052809291908181526020018280548015611eea57602002820191906000526020600020905b815481526020019060010190808311611ed6575b505050505090506000815167ffffffffffffffff811115611f0e57611f0d6130fd565b5b604051908082528060200260200182016040528015611f3c5781602001602082028036833780820191505090505b5090506000600180015490506000835167ffffffffffffffff811115611f6557611f646130fd565b5b604051908082528060200260200182016040528015611f935781602001602082028036833780820191505090505b50905081600c5414156120075760005b845181101561200157611fcf858281518110611fc257611fc16137fb565b5b6020026020010151610641565b848281518110611fe257611fe16137fb565b5b6020026020010181815250508080611ff990613913565b915050611fa3565b5061212b565b600061201283610641565b848281518110612025576120246137fb565b5b60200260200101818152505082828281518110612045576120446137fb565b5b602002602001018181525050600190505b8451811161212957600c548560018361206f9190613a86565b815181106120805761207f6137fb565b5b602002602001015114612116578460018261209b9190613a86565b815181106120ac576120ab6137fb565b5b60200260200101518282815181106120c7576120c66137fb565b5b6020026020010181815250506120f68582815181106120e9576120e86137fb565b5b6020026020010151610641565b848281518110612109576121086137fb565b5b6020026020010181815250505b808061212190613913565b915050612056565b505b60008061213a898989886107de565b9150915061214a600c548361269c565b6121548382612ce1565b505050505050505050565b606060008060008060606001600001600160020154600160030154600160040154600160050154600160060185805461219790613db7565b80601f01602080910402602001604051908101604052809291908181526020018280546121c390613db7565b80156122105780601f106121e557610100808354040283529160200191612210565b820191906000526020600020905b8154815290600101906020018083116121f357829003601f168201915b5050505050955080805461222390613db7565b80601f016020809104026020016040519081016040528092919081815260200182805461224f90613db7565b801561229c5780601f106122715761010080835404028352916020019161229c565b820191906000526020600020905b81548152906001019060200180831161227f57829003601f168201915b50505050509050955095509550955095509550909192939495565b6000601360008473ffffffffffffffffffffffffffffffffffffffff1673ffffffffffffffffffffffffffffffffffffffff168152602001908152602001600020600083815260200190815260200160002054905092915050565b600960159054906101000a900460ff1615612362576040517f08c379a000000000000000000000000000000000000000000000000000000000815260040161235990613b98565b60405180910390fd5b60016005015442106123a9576040517f08c379a00000000000000000000000000000000000000000000000000000000081526004016123a090613c04565b60405180910390fd5b600960009054906101000a900473ffffffffffffffffffffffffffffffffffffffff1673ffffffffffffffffffffffffffffffffffffffff16638da5cb5b6040518163ffffffff1660e01b815260040160206040518083038186803b15801561241157600080fd5b505afa158015612425573d6000803e3d6000fd5b505050506040513d601f19601f820116820180604052508101906124499190613c39565b73ffffffffffffffffffffffffffffffffffffffff163373ffffffffffffffffffffffffffffffffffffffff161461248057600080fd5b6001600960156101000a81548160ff021916908315150217905550565b600960159054906101000a900460ff16156124ed576040517f08c379a00000000000000000000000000000000000000000000000000000000081526004016124e490613b98565b60405180910390fd5b6001600501544210612534576040517f08c379a000000000000000000000000000000000000000000000000000000000815260040161252b90613c04565b60405180910390fd5b600960009054906101000a900473ffffffffffffffffffffffffffffffffffffffff1673ffffffffffffffffffffffffffffffffffffffff16638da5cb5b6040518163ffffffff1660e01b815260040160206040518083038186803b15801561259c57600080fd5b505afa1580156125b0573d6000803e3d6000fd5b505050506040513d601f19601f820116820180604052508101906125d49190613c39565b73ffffffffffffffffffffffffffffffffffffffff163373ffffffffffffffffffffffffffffffffffffffff161461260b57600080fd5b8060016002018190555050565b612620612d93565b600073ffffffffffffffffffffffffffffffffffffffff168173ffffffffffffffffffffffffffffffffffffffff161415612690576040517f08c379a000000000000000000000000000000000000000000000000000000000815260040161268790613e5b565b60405180910390fd5b61269981612e11565b50565b60008111801561270c5750600073ffffffffffffffffffffffffffffffffffffffff166010600084815260200190815260200160002060009054906101000a900473ffffffffffffffffffffffffffffffffffffffff1673ffffffffffffffffffffffffffffffffffffffff1614155b1561281a576010600083815260200190815260200160002060009054906101000a900473ffffffffffffffffffffffffffffffffffffffff1673ffffffffffffffffffffffffffffffffffffffff166360a56b3a6012600085815260200190815260200160002060009054906101000a900473ffffffffffffffffffffffffffffffffffffffff166011600086815260200190815260200160002060009054906101000a900473ffffffffffffffffffffffffffffffffffffffff16846040518463ffffffff1660e01b81526004016127e793929190613cf8565b600060405180830381600087803b15801561280157600080fd5b505af1158015612815573d6000803e3d6000fd5b505050505b5050565b600080601060006001800154815260200190815260200160002060009054906101000a900473ffffffffffffffffffffffffffffffffffffffff169050600073ffffffffffffffffffffffffffffffffffffffff168173ffffffffffffffffffffffffffffffffffffffff1614156128cb576040517f08c379a00000000000000000000000000000000000000000000000000000000081526004016128c290613b2c565b60405180910390fd5b6000600160070180548060200260200160405190810160405280929190818152602001828054801561291c57602002820191906000526020600020905b815481526020019060010190808311612908575b505050505090506000815190506000601160006001800154815260200190815260200160002060009054906101000a900473ffffffffffffffffffffffffffffffffffffffff1673ffffffffffffffffffffffffffffffffffffffff166370a08231856040518263ffffffff1660e01b815260040161299b9190613612565b60206040518083038186803b1580156129b357600080fd5b505afa1580156129c7573d6000803e3d6000fd5b505050506040513d601f19601f820116820180604052508101906129eb9190613a03565b905060005b82811015612b7c57600060106000868481518110612a1157612a106137fb565b5b6020026020010151815260200190815260200160002060009054906101000a900473ffffffffffffffffffffffffffffffffffffffff169050600060116000878581518110612a6357612a626137fb565b5b6020026020010151815260200190815260200160002060009054906101000a900473ffffffffffffffffffffffffffffffffffffffff169050600073ffffffffffffffffffffffffffffffffffffffff168273ffffffffffffffffffffffffffffffffffffffff1614612b67578073ffffffffffffffffffffffffffffffffffffffff166370a08231836040518263ffffffff1660e01b8152600401612b099190613612565b60206040518083038186803b158015612b2157600080fd5b505afa158015612b35573d6000803e3d6000fd5b505050506040513d601f19601f82011682018060405250810190612b599190613a03565b84612b649190613a30565b93505b50508080612b7490613913565b9150506129f0565b508094505050505090565b60006011600083815260200190815260200160002060009054906101000a900473ffffffffffffffffffffffffffffffffffffffff1673ffffffffffffffffffffffffffffffffffffffff166370a082316010600085815260200190815260200160002060009054906101000a900473ffffffffffffffffffffffffffffffffffffffff166040518263ffffffff1660e01b8152600401612c289190613612565b60206040518083038186803b158015612c4057600080fd5b505afa158015612c54573d6000803e3d6000fd5b505050506040513d601f19601f82011682018060405250810190612c789190613a03565b9050919050565b612c87612f38565b60008060146101000a81548160ff0219169083151502179055507f5db9ee0a495bf2e6ff9c91a7834c1ba4fdd244a5e8aa4e537bd38aeae4b073aa612cca612f81565b604051612cd79190613612565b60405180910390a1565b60008251905060005b81811015612d4357612d30848281518110612d0857612d076137fb565b5b6020026020010151848381518110612d2357612d226137fb565b5b602002602001015161269c565b8080612d3b90613913565b915050612cea565b50505050565b612d516113c8565b15612d91576040517f08c379a0000000000000000000000000000000000000000000000000000000008152600401612d8890613ec7565b60405180910390fd5b565b612d9b612f81565b73ffffffffffffffffffffffffffffffffffffffff16612db9611c5f565b73ffffffffffffffffffffffffffffffffffffffff1614612e0f576040517f08c379a0000000000000000000000000000000000000000000000000000000008152600401612e0690613f33565b60405180910390fd5b565b60008060009054906101000a900473ffffffffffffffffffffffffffffffffffffffff169050816000806101000a81548173ffffffffffffffffffffffffffffffffffffffff021916908373ffffffffffffffffffffffffffffffffffffffff1602179055508173ffffffffffffffffffffffffffffffffffffffff168173ffffffffffffffffffffffffffffffffffffffff167f8be0079c531659141344cd1fd0a4f28419497f9722a3daafe3b4186f6b6457e060405160405180910390a35050565b612edd612d49565b6001600060146101000a81548160ff0219169083151502179055507f62e78cea01bee320cd4e420270b5ea74000d11b0c9f74754ebdbfc544b05a258612f21612f81565b604051612f2e9190613612565b60405180910390a1565b612f406113c8565b612f7f576040517f08c379a0000000000000000000000000000000000000000000000000000000008152600401612f7690613f9f565b60405180910390fd5b565b600033905090565b6000819050919050565b612f9c81612f89565b82525050565b6000602082019050612fb76000830184612f93565b92915050565b600081519050919050565b600082825260208201905092915050565b6000819050602082019050919050565b6000819050919050565b612ffc81612fe9565b82525050565b600061300e8383612ff3565b60208301905092915050565b6000602082019050919050565b600061303282612fbd565b61303c8185612fc8565b935061304783612fd9565b8060005b8381101561307857815161305f8882613002565b975061306a8361301a565b92505060018101905061304b565b5085935050505092915050565b6000602082019050818103600083015261309f8184613027565b905092915050565b6000604051905090565b600080fd5b600080fd5b6130c481612f89565b81146130cf57600080fd5b50565b6000813590506130e1816130bb565b92915050565b600080fd5b6000601f19601f8301169050919050565b7f4e487b7100000000000000000000000000000000000000000000000000000000600052604160045260246000fd5b613135826130ec565b810181811067ffffffffffffffff82111715613154576131536130fd565b5b80604052505050565b60006131676130a7565b9050613173828261312c565b919050565b600067ffffffffffffffff821115613193576131926130fd565b5b602082029050602081019050919050565b600080fd5b60006131bc6131b784613178565b61315d565b905080838252602082019050602084028301858111156131df576131de6131a4565b5b835b8181101561320857806131f488826130d2565b8452602084019350506020810190506131e1565b5050509392505050565b600082601f830112613227576132266130e7565b5b81356132378482602086016131a9565b91505092915050565b60008060408385031215613257576132566130b1565b5b6000613265858286016130d2565b925050602083013567ffffffffffffffff811115613286576132856130b6565b5b61329285828601613212565b9150509250929050565b600081519050919050565b600082825260208201905092915050565b6000819050602082019050919050565b6132d181612f89565b82525050565b60006132e383836132c8565b60208301905092915050565b6000602082019050919050565b60006133078261329c565b61331181856132a7565b935061331c836132b8565b8060005b8381101561334d57815161333488826132d7565b975061333f836132ef565b925050600181019050613320565b5085935050505092915050565b6000602082019050818103600083015261337481846132fc565b905092915050565b61338581612fe9565b811461339057600080fd5b50565b6000813590506133a28161337c565b92915050565b6000602082840312156133be576133bd6130b1565b5b60006133cc84828501613393565b91505092915050565b600080600080608085870312156133ef576133ee6130b1565b5b60006133fd878288016130d2565b945050602061340e878288016130d2565b935050604061341f878288016130d2565b925050606085013567ffffffffffffffff8111156134405761343f6130b6565b5b61344c87828801613212565b91505092959194509250565b600060408201905061346d6000830185612f93565b818103602083015261347f81846132fc565b90509392505050565b600073ffffffffffffffffffffffffffffffffffffffff82169050919050565b60006134b382613488565b9050919050565b6134c3816134a8565b81146134ce57600080fd5b50565b6000813590506134e0816134ba565b92915050565b60008060008060808587031215613500576134ff6130b1565b5b600061350e87828801613393565b945050602061351f878288016134d1565b9350506040613530878288016134d1565b9250506060613541878288016134d1565b91505092959194509250565b600060208284031215613563576135626130b1565b5b6000613571848285016130d2565b91505092915050565b60008115159050919050565b61358f8161357a565b82525050565b60006020820190506135aa6000830184613586565b92915050565b6000806000606084860312156135c9576135c86130b1565b5b60006135d786828701613393565b93505060206135e8868287016134d1565b92505060406135f9868287016130d2565b9150509250925092565b61360c816134a8565b82525050565b60006020820190506136276000830184613603565b92915050565b61363681612fe9565b82525050565b6000602082019050613651600083018461362d565b92915050565b600081519050919050565b600082825260208201905092915050565b60005b83811015613691578082015181840152602081019050613676565b838111156136a0576000848401525b50505050565b60006136b182613657565b6136bb8185613662565b93506136cb818560208601613673565b6136d4816130ec565b840191505092915050565b600060c08201905081810360008301526136f981896136a6565b90506137086020830188612f93565b6137156040830187612f93565b6137226060830186612f93565b61372f6080830185612f93565b81810360a083015261374181846136a6565b9050979650505050505050565b60008060408385031215613765576137646130b1565b5b6000613773858286016134d1565b925050602061378485828601613393565b9150509250929050565b6000602082840312156137a4576137a36130b1565b5b60006137b2848285016134d1565b91505092915050565b600080604083850312156137d2576137d16130b1565b5b60006137e085828601613393565b92505060206137f1858286016130d2565b9150509250929050565b7f4e487b7100000000000000000000000000000000000000000000000000000000600052603260045260246000fd5b7f4e487b7100000000000000000000000000000000000000000000000000000000600052601160045260246000fd5b600061386482612f89565b915061386f83612f89565b9250817fffffffffffffffffffffffffffffffffffffffffffffffffffffffffffffffff04831182151516156138a8576138a761382a565b5b828202905092915050565b7f4e487b7100000000000000000000000000000000000000000000000000000000600052601260045260246000fd5b60006138ed82612f89565b91506138f883612f89565b925082613908576139076138b3565b5b828204905092915050565b600061391e82612f89565b91507fffffffffffffffffffffffffffffffffffffffffffffffffffffffffffffffff8214156139515761395061382a565b5b600182019050919050565b7f43616d706169676e496e666f3a2054726561737572792061646472657373206660008201527f6f7220706c6174666f726d206973206e6f742073657400000000000000000000602082015250565b60006139b8603683613662565b91506139c38261395c565b604082019050919050565b600060208201905081810360008301526139e7816139ab565b9050919050565b6000815190506139fd816130bb565b92915050565b600060208284031215613a1957613a186130b1565b5b6000613a27848285016139ee565b91505092915050565b6000613a3b82612f89565b9150613a4683612f89565b9250827fffffffffffffffffffffffffffffffffffffffffffffffffffffffffffffffff03821115613a7b57613a7a61382a565b5b828201905092915050565b6000613a9182612f89565b9150613a9c83612f89565b925082821015613aaf57613aae61382a565b5b828203905092915050565b7f43616d706169676e496e666f3a204f726967696e20706c6174666f726d20747260008201527f656173757279206e6f7420736574207965740000000000000000000000000000602082015250565b6000613b16603283613662565b9150613b2182613aba565b604082019050919050565b60006020820190508181036000830152613b4581613b09565b9050919050565b7f43616d706169676e496e666f3a2043616d706169676e20656e64656400000000600082015250565b6000613b82601c83613662565b9150613b8d82613b4c565b602082019050919050565b60006020820190508181036000830152613bb181613b75565b9050919050565b7f43616d706169676e496e666f3a2043616d706169676e206f7665720000000000600082015250565b6000613bee601b83613662565b9150613bf982613bb8565b602082019050919050565b60006020820190508181036000830152613c1d81613be1565b9050919050565b600081519050613c33816134ba565b92915050565b600060208284031215613c4f57613c4e6130b1565b5b6000613c5d84828501613c24565b91505092915050565b7f43616d706169676e496e666f3a2052657761726420706c6174666f726d206e6f60008201527f7420736574207965740000000000000000000000000000000000000000000000602082015250565b6000613cc2602983613662565b9150613ccd82613c66565b604082019050919050565b60006020820190508181036000830152613cf181613cb5565b9050919050565b6000606082019050613d0d6000830186613603565b613d1a6020830185613603565b613d276040830184612f93565b949350505050565b613d388161357a565b8114613d4357600080fd5b50565b600081519050613d5581613d2f565b92915050565b600060208284031215613d7157613d706130b1565b5b6000613d7f84828501613d46565b91505092915050565b7f4e487b7100000000000000000000000000000000000000000000000000000000600052602260045260246000fd5b60006002820490506001821680613dcf57607f821691505b60208210811415613de357613de2613d88565b5b50919050565b7f4f776e61626c653a206e6577206f776e657220697320746865207a65726f206160008201527f6464726573730000000000000000000000000000000000000000000000000000602082015250565b6000613e45602683613662565b9150613e5082613de9565b604082019050919050565b60006020820190508181036000830152613e7481613e38565b9050919050565b7f5061757361626c653a2070617573656400000000000000000000000000000000600082015250565b6000613eb1601083613662565b9150613ebc82613e7b565b602082019050919050565b60006020820190508181036000830152613ee081613ea4565b9050919050565b7f4f776e61626c653a2063616c6c6572206973206e6f7420746865206f776e6572600082015250565b6000613f1d602083613662565b9150613f2882613ee7565b602082019050919050565b60006020820190508181036000830152613f4c81613f10565b9050919050565b7f5061757361626c653a206e6f7420706175736564000000000000000000000000600082015250565b6000613f89601483613662565b9150613f9482613f53565b602082019050919050565b60006020820190508181036000830152613fb881613f7c565b905091905056fea26469706673582212208357ebab835ed81f4e933ca932799a5fca13b6bafdb6779ab6e8a3411c2bce5b64736f6c63430008090033",
  "linkReferences": {},
  "deployedLinkReferences": {}
}