{
  "_format": "hh-sol-artifact-1",
  "contractName": "CampaignTreasury",
  "sourceName": "contracts/CampaignTreasury.sol",
  "abi": [
    {
      "inputs": [
        {
          "internalType": "address",
          "name": "_registryAddress",
          "type": "address"
        },
        {
          "internalType": "address",
          "name": "_infoAddress",
          "type": "address"
        },
        {
          "internalType": "bytes32",
          "name": "_platformId",
          "type": "bytes32"
        }
      ],
      "stateMutability": "nonpayable",
      "type": "constructor"
    },
    {
      "inputs": [
        {
          "internalType": "address",
          "name": "_platform",
          "type": "address"
        },
        {
          "internalType": "address",
          "name": "_token",
          "type": "address"
        },
        {
          "internalType": "uint256",
          "name": "_amount",
          "type": "uint256"
        }
      ],
      "name": "disburseFeeToPlatform",
      "outputs": [],
      "stateMutability": "nonpayable",
      "type": "function"
    },
    {
      "inputs": [],
      "name": "getPledgedAmount",
      "outputs": [
        {
          "internalType": "uint256",
          "name": "",
          "type": "uint256"
        }
      ],
      "stateMutability": "view",
      "type": "function"
    },
    {
      "inputs": [],
      "name": "getTotalCollectableByCreator",
      "outputs": [
        {
          "internalType": "uint256",
          "name": "",
          "type": "uint256"
        }
      ],
      "stateMutability": "view",
      "type": "function"
    },
    {
      "inputs": [],
      "name": "getplatformFee",
      "outputs": [
        {
          "internalType": "uint256",
          "name": "",
          "type": "uint256"
        }
      ],
      "stateMutability": "view",
      "type": "function"
    },
    {
      "inputs": [],
      "name": "getplatformFeePercent",
      "outputs": [
        {
          "internalType": "uint256",
          "name": "",
          "type": "uint256"
        }
      ],
      "stateMutability": "view",
      "type": "function"
    },
    {
      "inputs": [],
      "name": "getplatformId",
      "outputs": [
        {
          "internalType": "bytes32",
          "name": "",
          "type": "bytes32"
        }
      ],
      "stateMutability": "view",
      "type": "function"
    },
    {
      "inputs": [
        {
          "internalType": "uint256",
          "name": "_platformFeePercent",
          "type": "uint256"
        }
      ],
      "name": "setplatformFeePercent",
      "outputs": [],
      "stateMutability": "nonpayable",
      "type": "function"
    }
  ],
  "bytecode": "0x608060405234801561001057600080fd5b506040516108a23803806108a28339818101604052810190610032919061015b565b826000806101000a81548173ffffffffffffffffffffffffffffffffffffffff021916908373ffffffffffffffffffffffffffffffffffffffff16021790555081600160006101000a81548173ffffffffffffffffffffffffffffffffffffffff021916908373ffffffffffffffffffffffffffffffffffffffff160217905550806002819055505050506101ae565b600080fd5b600073ffffffffffffffffffffffffffffffffffffffff82169050919050565b60006100f2826100c7565b9050919050565b610102816100e7565b811461010d57600080fd5b50565b60008151905061011f816100f9565b92915050565b6000819050919050565b61013881610125565b811461014357600080fd5b50565b6000815190506101558161012f565b92915050565b600080600060608486031215610174576101736100c2565b5b600061018286828701610110565b935050602061019386828701610110565b92505060406101a486828701610146565b9150509250925092565b6106e5806101bd6000396000f3fe608060405234801561001057600080fd5b506004361061007d5760003560e01c80634f15fc061161005b5780634f15fc06146100dc57806360a56b3a146100fa5780636cccbe5e146101165780638f94b8c2146101345761007d565b8063186bc549146100825780634575d5c5146100a05780634b1d123b146100be575b600080fd5b61008a610150565b60405161009791906102f4565b60405180910390f35b6100a861015a565b6040516100b59190610328565b60405180910390f35b6100c6610164565b6040516100d391906102f4565b60405180910390f35b6100e4610180565b6040516100f191906102f4565b60405180910390f35b610114600480360381019061010f91906103d2565b61018a565b005b61011e6102ad565b60405161012b91906102f4565b60405180910390f35b61014e60048036038101906101499190610425565b6102d1565b005b6000600354905090565b6000600254905090565b600061016e6102ad565b60035461017b9190610481565b905090565b6000600454905090565b600160009054906101000a900473ffffffffffffffffffffffffffffffffffffffff1673ffffffffffffffffffffffffffffffffffffffff163373ffffffffffffffffffffffffffffffffffffffff161461021a576040517f08c379a000000000000000000000000000000000000000000000000000000000815260040161021190610538565b60405180910390fd5b8173ffffffffffffffffffffffffffffffffffffffff1663a9059cbb84836040518363ffffffff1660e01b8152600401610255929190610567565b602060405180830381600087803b15801561026f57600080fd5b505af1158015610283573d6000803e3d6000fd5b505050506040513d601f19601f820116820180604052508101906102a791906105c8565b50505050565b60006127106004546003546102c291906105f5565b6102cc919061067e565b905090565b8060048190555050565b6000819050919050565b6102ee816102db565b82525050565b600060208201905061030960008301846102e5565b92915050565b6000819050919050565b6103228161030f565b82525050565b600060208201905061033d6000830184610319565b92915050565b600080fd5b600073ffffffffffffffffffffffffffffffffffffffff82169050919050565b600061037382610348565b9050919050565b61038381610368565b811461038e57600080fd5b50565b6000813590506103a08161037a565b92915050565b6103af816102db565b81146103ba57600080fd5b50565b6000813590506103cc816103a6565b92915050565b6000806000606084860312156103eb576103ea610343565b5b60006103f986828701610391565b935050602061040a86828701610391565b925050604061041b868287016103bd565b9150509250925092565b60006020828403121561043b5761043a610343565b5b6000610449848285016103bd565b91505092915050565b7f4e487b7100000000000000000000000000000000000000000000000000000000600052601160045260246000fd5b600061048c826102db565b9150610497836102db565b9250828210156104aa576104a9610452565b5b828203905092915050565b600082825260208201905092915050565b7f43616d706169676e54726561737572793a2043616c6c6572206973206e6f742060008201527f43616d706169676e496e666f20636f6e74726163740000000000000000000000602082015250565b60006105226035836104b5565b915061052d826104c6565b604082019050919050565b6000602082019050818103600083015261055181610515565b9050919050565b61056181610368565b82525050565b600060408201905061057c6000830185610558565b61058960208301846102e5565b9392505050565b60008115159050919050565b6105a581610590565b81146105b057600080fd5b50565b6000815190506105c28161059c565b92915050565b6000602082840312156105de576105dd610343565b5b60006105ec848285016105b3565b91505092915050565b6000610600826102db565b915061060b836102db565b9250817fffffffffffffffffffffffffffffffffffffffffffffffffffffffffffffffff048311821515161561064457610643610452565b5b828202905092915050565b7f4e487b7100000000000000000000000000000000000000000000000000000000600052601260045260246000fd5b6000610689826102db565b9150610694836102db565b9250826106a4576106a361064f565b5b82820490509291505056fea26469706673582212209e7db28041eac162e010b439fe16fd6e620338acafdc302d9d6e09aca8a15a2664736f6c63430008090033",
  "linkReferences": {},
  "deployedLinkReferences": {}
}