{
  "_format": "hh-sol-artifact-1",
  "contractName": "CampaignTreasury",
  "sourceName": "contracts/CampaignTreasury.sol",
  "abi": [
    {
      "inputs": [
        {
          "internalType": "address",
          "name": "_registryAddress",
          "type": "address"
        },
        {
          "internalType": "address",
          "name": "_infoAddress",
          "type": "address"
        },
        {
          "internalType": "bytes32",
          "name": "_clientId",
          "type": "bytes32"
        }
      ],
      "stateMutability": "nonpayable",
      "type": "constructor"
    },
    {
      "inputs": [
        {
          "internalType": "address",
          "name": "_client",
          "type": "address"
        },
        {
          "internalType": "address",
          "name": "_token",
          "type": "address"
        },
        {
          "internalType": "uint256",
          "name": "_amount",
          "type": "uint256"
        }
      ],
      "name": "disburseFeeToClient",
      "outputs": [],
      "stateMutability": "nonpayable",
      "type": "function"
    },
    {
      "inputs": [],
      "name": "getClientFee",
      "outputs": [
        {
          "internalType": "uint256",
          "name": "",
          "type": "uint256"
        }
      ],
      "stateMutability": "view",
      "type": "function"
    },
    {
      "inputs": [],
      "name": "getClientFeePercent",
      "outputs": [
        {
          "internalType": "uint256",
          "name": "",
          "type": "uint256"
        }
      ],
      "stateMutability": "view",
      "type": "function"
    },
    {
      "inputs": [],
      "name": "getClientId",
      "outputs": [
        {
          "internalType": "bytes32",
          "name": "",
          "type": "bytes32"
        }
      ],
      "stateMutability": "view",
      "type": "function"
    },
    {
      "inputs": [],
      "name": "getPledgedAmount",
      "outputs": [
        {
          "internalType": "uint256",
          "name": "",
          "type": "uint256"
        }
      ],
      "stateMutability": "view",
      "type": "function"
    },
    {
      "inputs": [],
      "name": "getTotalCollectableByCreator",
      "outputs": [
        {
          "internalType": "uint256",
          "name": "",
          "type": "uint256"
        }
      ],
      "stateMutability": "view",
      "type": "function"
    },
    {
      "inputs": [
        {
          "internalType": "uint256",
          "name": "_clientFeePercent",
          "type": "uint256"
        }
      ],
      "name": "setClientFeePercent",
      "outputs": [],
      "stateMutability": "nonpayable",
      "type": "function"
    },
    {
      "inputs": [
        {
          "internalType": "uint256",
          "name": "_pledgedAmount",
          "type": "uint256"
        }
      ],
      "name": "setPledgedAmount",
      "outputs": [],
      "stateMutability": "nonpayable",
      "type": "function"
    }
  ],
  "bytecode": "0x608060405234801561001057600080fd5b506040516109ea3803806109ea8339818101604052810190610032919061015b565b826000806101000a81548173ffffffffffffffffffffffffffffffffffffffff021916908373ffffffffffffffffffffffffffffffffffffffff16021790555081600160006101000a81548173ffffffffffffffffffffffffffffffffffffffff021916908373ffffffffffffffffffffffffffffffffffffffff160217905550806002819055505050506101ae565b600080fd5b600073ffffffffffffffffffffffffffffffffffffffff82169050919050565b60006100f2826100c7565b9050919050565b610102816100e7565b811461010d57600080fd5b50565b60008151905061011f816100f9565b92915050565b6000819050919050565b61013881610125565b811461014357600080fd5b50565b6000815190506101558161012f565b92915050565b600080600060608486031215610174576101736100c2565b5b600061018286828701610110565b935050602061019386828701610110565b92505060406101a486828701610146565b9150509250925092565b61082d806101bd6000396000f3fe608060405234801561001057600080fd5b50600436106100885760003560e01c8063527fe4131161005b578063527fe41314610101578063695c9cff1461011f5780639e5911d01461013d578063a680e8b01461015b57610088565b8063186bc5491461008d57806319bbca80146100ab5780632b1645b7146100c75780634b1d123b146100e3575b600080fd5b610095610177565b6040516100a291906103fa565b60405180910390f35b6100c560048036038101906100c09190610446565b610181565b005b6100e160048036038101906100dc91906104d1565b61018b565b005b6100eb6102ae565b6040516100f891906103fa565b60405180910390f35b6101096102ca565b604051610116919061053d565b60405180910390f35b6101276102d4565b60405161013491906103fa565b60405180910390f35b6101456102de565b60405161015291906103fa565b60405180910390f35b61017560048036038101906101709190610446565b610302565b005b6000600354905090565b8060048190555050565b600160009054906101000a900473ffffffffffffffffffffffffffffffffffffffff1673ffffffffffffffffffffffffffffffffffffffff163373ffffffffffffffffffffffffffffffffffffffff161461021b576040517f08c379a0000000000000000000000000000000000000000000000000000000008152600401610212906105db565b60405180910390fd5b8173ffffffffffffffffffffffffffffffffffffffff1663a9059cbb84836040518363ffffffff1660e01b815260040161025692919061060a565b602060405180830381600087803b15801561027057600080fd5b505af1158015610284573d6000803e3d6000fd5b505050506040513d601f19601f820116820180604052508101906102a8919061066b565b50505050565b60006102b86102de565b6003546102c591906106c7565b905090565b6000600254905090565b6000600454905090565b60006127106004546003546102f391906106fb565b6102fd9190610784565b905090565b3373ffffffffffffffffffffffffffffffffffffffff1660008054906101000a900473ffffffffffffffffffffffffffffffffffffffff1673ffffffffffffffffffffffffffffffffffffffff1663b18b78dd6040518163ffffffff1660e01b815260040160206040518083038186803b15801561037f57600080fd5b505afa158015610393573d6000803e3d6000fd5b505050506040513d601f19601f820116820180604052508101906103b791906107ca565b73ffffffffffffffffffffffffffffffffffffffff16146103d757600080fd5b8060038190555050565b6000819050919050565b6103f4816103e1565b82525050565b600060208201905061040f60008301846103eb565b92915050565b600080fd5b610423816103e1565b811461042e57600080fd5b50565b6000813590506104408161041a565b92915050565b60006020828403121561045c5761045b610415565b5b600061046a84828501610431565b91505092915050565b600073ffffffffffffffffffffffffffffffffffffffff82169050919050565b600061049e82610473565b9050919050565b6104ae81610493565b81146104b957600080fd5b50565b6000813590506104cb816104a5565b92915050565b6000806000606084860312156104ea576104e9610415565b5b60006104f8868287016104bc565b9350506020610509868287016104bc565b925050604061051a86828701610431565b9150509250925092565b6000819050919050565b61053781610524565b82525050565b6000602082019050610552600083018461052e565b92915050565b600082825260208201905092915050565b7f43616d706169676e54726561737572793a2043616c6c6572206973206e6f742060008201527f43616d706169676e496e666f20636f6e74726163740000000000000000000000602082015250565b60006105c5603583610558565b91506105d082610569565b604082019050919050565b600060208201905081810360008301526105f4816105b8565b9050919050565b61060481610493565b82525050565b600060408201905061061f60008301856105fb565b61062c60208301846103eb565b9392505050565b60008115159050919050565b61064881610633565b811461065357600080fd5b50565b6000815190506106658161063f565b92915050565b60006020828403121561068157610680610415565b5b600061068f84828501610656565b91505092915050565b7f4e487b7100000000000000000000000000000000000000000000000000000000600052601160045260246000fd5b60006106d2826103e1565b91506106dd836103e1565b9250828210156106f0576106ef610698565b5b828203905092915050565b6000610706826103e1565b9150610711836103e1565b9250817fffffffffffffffffffffffffffffffffffffffffffffffffffffffffffffffff048311821515161561074a57610749610698565b5b828202905092915050565b7f4e487b7100000000000000000000000000000000000000000000000000000000600052601260045260246000fd5b600061078f826103e1565b915061079a836103e1565b9250826107aa576107a9610755565b5b828204905092915050565b6000815190506107c4816104a5565b92915050565b6000602082840312156107e0576107df610415565b5b60006107ee848285016107b5565b9150509291505056fea2646970667358221220823e31121aa889e47930ebc345bcb96042a49ffa0dbbb494a8793a9f9668ca9364736f6c63430008090033",
  "linkReferences": {},
  "deployedLinkReferences": {}
}