{
  "_format": "hh-sol-artifact-1",
  "contractName": "CampaignTreasury",
  "sourceName": "contracts/CampaignTreasury.sol",
  "abi": [
    {
      "inputs": [
        {
          "internalType": "address",
          "name": "_registryAddress",
          "type": "address"
        },
        {
          "internalType": "address",
          "name": "_infoAddress",
          "type": "address"
        },
        {
          "internalType": "bytes32",
          "name": "_platformId",
          "type": "bytes32"
        }
      ],
      "stateMutability": "nonpayable",
      "type": "constructor"
    },
    {
      "inputs": [
        {
          "internalType": "address",
          "name": "_platform",
          "type": "address"
        },
        {
          "internalType": "address",
          "name": "_token",
          "type": "address"
        },
        {
          "internalType": "uint256",
          "name": "_amount",
          "type": "uint256"
        }
      ],
      "name": "disburseFeeToPlatform",
      "outputs": [],
      "stateMutability": "nonpayable",
      "type": "function"
    },
    {
      "inputs": [],
      "name": "getPledgedAmount",
      "outputs": [
        {
          "internalType": "uint256",
          "name": "",
          "type": "uint256"
        }
      ],
      "stateMutability": "view",
      "type": "function"
    },
    {
      "inputs": [],
      "name": "getTotalCollectableByCreator",
      "outputs": [
        {
          "internalType": "uint256",
          "name": "",
          "type": "uint256"
        }
      ],
      "stateMutability": "view",
      "type": "function"
    },
    {
      "inputs": [],
      "name": "getplatformFee",
      "outputs": [
        {
          "internalType": "uint256",
          "name": "",
          "type": "uint256"
        }
      ],
      "stateMutability": "view",
      "type": "function"
    },
    {
      "inputs": [],
      "name": "getplatformFeePercent",
      "outputs": [
        {
          "internalType": "uint256",
          "name": "",
          "type": "uint256"
        }
      ],
      "stateMutability": "view",
      "type": "function"
    },
    {
      "inputs": [],
      "name": "getplatformId",
      "outputs": [
        {
          "internalType": "bytes32",
          "name": "",
          "type": "bytes32"
        }
      ],
      "stateMutability": "view",
      "type": "function"
    },
    {
      "inputs": [
        {
          "internalType": "uint256",
          "name": "_pledgedAmount",
          "type": "uint256"
        }
      ],
      "name": "setPledgedAmount",
      "outputs": [],
      "stateMutability": "nonpayable",
      "type": "function"
    },
    {
      "inputs": [
        {
          "internalType": "uint256",
          "name": "_platformFeePercent",
          "type": "uint256"
        }
      ],
      "name": "setplatformFeePercent",
      "outputs": [],
      "stateMutability": "nonpayable",
      "type": "function"
    }
  ],
  "bytecode": "0x608060405234801561001057600080fd5b506040516109ea3803806109ea8339818101604052810190610032919061015b565b826000806101000a81548173ffffffffffffffffffffffffffffffffffffffff021916908373ffffffffffffffffffffffffffffffffffffffff16021790555081600160006101000a81548173ffffffffffffffffffffffffffffffffffffffff021916908373ffffffffffffffffffffffffffffffffffffffff160217905550806002819055505050506101ae565b600080fd5b600073ffffffffffffffffffffffffffffffffffffffff82169050919050565b60006100f2826100c7565b9050919050565b610102816100e7565b811461010d57600080fd5b50565b60008151905061011f816100f9565b92915050565b6000819050919050565b61013881610125565b811461014357600080fd5b50565b6000815190506101558161012f565b92915050565b600080600060608486031215610174576101736100c2565b5b600061018286828701610110565b935050602061019386828701610110565b92505060406101a486828701610146565b9150509250925092565b61082d806101bd6000396000f3fe608060405234801561001057600080fd5b50600436106100885760003560e01c806360a56b3a1161005b57806360a56b3a146101055780636cccbe5e146101215780638f94b8c21461013f578063a680e8b01461015b57610088565b8063186bc5491461008d5780634575d5c5146100ab5780634b1d123b146100c95780634f15fc06146100e7575b600080fd5b610095610177565b6040516100a291906103fa565b60405180910390f35b6100b3610181565b6040516100c0919061042e565b60405180910390f35b6100d161018b565b6040516100de91906103fa565b60405180910390f35b6100ef6101a7565b6040516100fc91906103fa565b60405180910390f35b61011f600480360381019061011a91906104d8565b6101b1565b005b6101296102d4565b60405161013691906103fa565b60405180910390f35b6101596004803603810190610154919061052b565b6102f8565b005b6101756004803603810190610170919061052b565b610302565b005b6000600354905090565b6000600254905090565b60006101956102d4565b6003546101a29190610587565b905090565b6000600454905090565b600160009054906101000a900473ffffffffffffffffffffffffffffffffffffffff1673ffffffffffffffffffffffffffffffffffffffff163373ffffffffffffffffffffffffffffffffffffffff1614610241576040517f08c379a00000000000000000000000000000000000000000000000000000000081526004016102389061063e565b60405180910390fd5b8173ffffffffffffffffffffffffffffffffffffffff1663a9059cbb84836040518363ffffffff1660e01b815260040161027c92919061066d565b602060405180830381600087803b15801561029657600080fd5b505af11580156102aa573d6000803e3d6000fd5b505050506040513d601f19601f820116820180604052508101906102ce91906106ce565b50505050565b60006127106004546003546102e991906106fb565b6102f39190610784565b905090565b8060048190555050565b3373ffffffffffffffffffffffffffffffffffffffff1660008054906101000a900473ffffffffffffffffffffffffffffffffffffffff1673ffffffffffffffffffffffffffffffffffffffff1663b18b78dd6040518163ffffffff1660e01b815260040160206040518083038186803b15801561037f57600080fd5b505afa158015610393573d6000803e3d6000fd5b505050506040513d601f19601f820116820180604052508101906103b791906107ca565b73ffffffffffffffffffffffffffffffffffffffff16146103d757600080fd5b8060038190555050565b6000819050919050565b6103f4816103e1565b82525050565b600060208201905061040f60008301846103eb565b92915050565b6000819050919050565b61042881610415565b82525050565b6000602082019050610443600083018461041f565b92915050565b600080fd5b600073ffffffffffffffffffffffffffffffffffffffff82169050919050565b60006104798261044e565b9050919050565b6104898161046e565b811461049457600080fd5b50565b6000813590506104a681610480565b92915050565b6104b5816103e1565b81146104c057600080fd5b50565b6000813590506104d2816104ac565b92915050565b6000806000606084860312156104f1576104f0610449565b5b60006104ff86828701610497565b935050602061051086828701610497565b9250506040610521868287016104c3565b9150509250925092565b60006020828403121561054157610540610449565b5b600061054f848285016104c3565b91505092915050565b7f4e487b7100000000000000000000000000000000000000000000000000000000600052601160045260246000fd5b6000610592826103e1565b915061059d836103e1565b9250828210156105b0576105af610558565b5b828203905092915050565b600082825260208201905092915050565b7f43616d706169676e54726561737572793a2043616c6c6572206973206e6f742060008201527f43616d706169676e496e666f20636f6e74726163740000000000000000000000602082015250565b60006106286035836105bb565b9150610633826105cc565b604082019050919050565b600060208201905081810360008301526106578161061b565b9050919050565b6106678161046e565b82525050565b6000604082019050610682600083018561065e565b61068f60208301846103eb565b9392505050565b60008115159050919050565b6106ab81610696565b81146106b657600080fd5b50565b6000815190506106c8816106a2565b92915050565b6000602082840312156106e4576106e3610449565b5b60006106f2848285016106b9565b91505092915050565b6000610706826103e1565b9150610711836103e1565b9250817fffffffffffffffffffffffffffffffffffffffffffffffffffffffffffffffff048311821515161561074a57610749610558565b5b828202905092915050565b7f4e487b7100000000000000000000000000000000000000000000000000000000600052601260045260246000fd5b600061078f826103e1565b915061079a836103e1565b9250826107aa576107a9610755565b5b828204905092915050565b6000815190506107c481610480565b92915050565b6000602082840312156107e0576107df610449565b5b60006107ee848285016107b5565b9150509291505056fea2646970667358221220b32c6295b16287cfbc0936857efd72d2a81c0a7a2c05c45a1956a7df8d36b69864736f6c63430008090033",
  "linkReferences": {},
  "deployedLinkReferences": {}
}