{
  "_format": "hh-sol-artifact-1",
  "contractName": "Aggregator",
  "sourceName": "contracts/Aggregator/Aggregator.sol",
  "abi": [
    {
      "inputs": [
        {
          "internalType": "address",
          "name": "campaignInfo",
          "type": "address"
        },
        {
          "internalType": "string",
          "name": "_itemId",
          "type": "string"
        },
        {
          "internalType": "string",
          "name": "_description",
          "type": "string"
        }
      ],
      "name": "addItem",
      "outputs": [],
      "stateMutability": "nonpayable",
      "type": "function"
    },
    {
      "inputs": [
        {
          "internalType": "address",
          "name": "campaignInfo",
          "type": "address"
        },
        {
          "internalType": "string",
          "name": "itemId",
          "type": "string"
        },
        {
          "internalType": "string",
          "name": "description",
          "type": "string"
        },
        {
          "internalType": "string",
          "name": "name",
          "type": "string"
        },
        {
          "internalType": "uint256",
          "name": "rewardValue",
          "type": "uint256"
        },
        {
          "internalType": "string[]",
          "name": "itemName",
          "type": "string[]"
        },
        {
          "internalType": "uint256[]",
          "name": "itemQuantity",
          "type": "uint256[]"
        }
      ],
      "name": "addItemAndReward",
      "outputs": [],
      "stateMutability": "nonpayable",
      "type": "function"
    },
    {
      "inputs": [
        {
          "internalType": "address",
          "name": "campaignInfo",
          "type": "address"
        },
        {
          "internalType": "string",
          "name": "name",
          "type": "string"
        },
        {
          "internalType": "uint256",
          "name": "rewardValue",
          "type": "uint256"
        },
        {
          "internalType": "string[]",
          "name": "itemName",
          "type": "string[]"
        },
        {
          "internalType": "uint256[]",
          "name": "itemQuantity",
          "type": "uint256[]"
        }
      ],
      "name": "addReward",
      "outputs": [],
      "stateMutability": "nonpayable",
      "type": "function"
    },
    {
      "inputs": [
        {
          "internalType": "address",
          "name": "_creator",
          "type": "address"
        },
        {
          "internalType": "string",
          "name": "_identifier",
          "type": "string"
        },
        {
          "internalType": "bytes32",
          "name": "_originPlatform",
          "type": "bytes32"
        },
        {
          "internalType": "string",
          "name": "_creatorUrl",
          "type": "string"
        },
        {
          "internalType": "bytes32[]",
          "name": "_reachPlatform",
          "type": "bytes32[]"
        },
        {
          "internalType": "uint256",
          "name": "_earlyPledgeAmount",
          "type": "uint256"
        }
      ],
      "name": "createCampaign",
      "outputs": [],
      "stateMutability": "nonpayable",
      "type": "function"
    },
    {
      "inputs": [
        {
          "internalType": "address",
          "name": "_campaignInfoFactory",
          "type": "address"
        },
        {
          "internalType": "address",
          "name": "_campaignRegisty",
          "type": "address"
        }
      ],
      "name": "initialize",
      "outputs": [],
      "stateMutability": "nonpayable",
      "type": "function"
    },
    {
      "inputs": [
        {
          "internalType": "address",
          "name": "campaignInfo",
          "type": "address"
        },
        {
          "internalType": "uint256",
          "name": "launchTime",
          "type": "uint256"
        },
        {
          "internalType": "uint256",
          "name": "deadline",
          "type": "uint256"
        },
        {
          "internalType": "uint256",
          "name": "goalAmount",
          "type": "uint256"
        },
        {
          "internalType": "bool",
          "name": "enableLatePledge",
          "type": "bool"
        }
      ],
      "name": "setLaunch",
      "outputs": [],
      "stateMutability": "nonpayable",
      "type": "function"
    },
    {
      "inputs": [
        {
          "internalType": "address",
          "name": "campaignInfo",
          "type": "address"
        },
        {
          "internalType": "bytes32",
          "name": "platform",
          "type": "bytes32"
        },
        {
          "internalType": "address",
          "name": "platformWallet",
          "type": "address"
        },
        {
          "internalType": "address",
          "name": "token",
          "type": "address"
        }
      ],
      "name": "setTreasury",
      "outputs": [],
      "stateMutability": "nonpayable",
      "type": "function"
    }
  ],
  "bytecode": "0x608060405234801561001057600080fd5b50612449806100206000396000f3fe60806040523480156200001157600080fd5b5060043610620000885760003560e01c8063ab4d9b5f1162000063578063ab4d9b5f14620000ed578063c77e6f65146200010d578063d3caea4f146200012d578063fbe121fa146200014d5762000088565b806333d556d7146200008d578063485cc95514620000ad578063a909bb3314620000cd575b600080fd5b620000ab6004803603810190620000a5919062000b39565b6200016d565b005b620000cb6004803603810190620000c5919062000bab565b62000348565b005b620000eb6004803603810190620000e5919062000fc5565b620003ce565b005b6200010b600480360381019062000105919062001120565b6200055f565b005b6200012b6004803603810190620001259190620012de565b62000677565b005b6200014b6004803603810190620001459190620013d7565b6200084d565b005b6200016b6004803603810190620001659190620014b8565b62000962565b005b833373ffffffffffffffffffffffffffffffffffffffff166000808373ffffffffffffffffffffffffffffffffffffffff1673ffffffffffffffffffffffffffffffffffffffff16815260200190815260200160002060009054906101000a900473ffffffffffffffffffffffffffffffffffffffff1673ffffffffffffffffffffffffffffffffffffffff16146200020557600080fd5b600260009054906101000a900473ffffffffffffffffffffffffffffffffffffffff168585604051620002389062000a77565b620002469392919062001562565b604051809103906000f08015801562000263573d6000803e3d6000fd5b50600360006101000a81548173ffffffffffffffffffffffffffffffffffffffff021916908373ffffffffffffffffffffffffffffffffffffffff1602179055506000600360009054906101000a900473ffffffffffffffffffffffffffffffffffffffff1690508573ffffffffffffffffffffffffffffffffffffffff1663deaaf241868684876040518563ffffffff1660e01b81526004016200030c94939291906200159f565b600060405180830381600087803b1580156200032757600080fd5b505af11580156200033c573d6000803e3d6000fd5b50505050505050505050565b81600160006101000a81548173ffffffffffffffffffffffffffffffffffffffff021916908373ffffffffffffffffffffffffffffffffffffffff16021790555080600260006101000a81548173ffffffffffffffffffffffffffffffffffffffff021916908373ffffffffffffffffffffffffffffffffffffffff1602179055505050565b893373ffffffffffffffffffffffffffffffffffffffff166000808373ffffffffffffffffffffffffffffffffffffffff1673ffffffffffffffffffffffffffffffffffffffff16815260200190815260200160002060009054906101000a900473ffffffffffffffffffffffffffffffffffffffff1673ffffffffffffffffffffffffffffffffffffffff16146200046657600080fd5b8a73ffffffffffffffffffffffffffffffffffffffff16637ed8a7198b8b8b8b6040518563ffffffff1660e01b8152600401620004a7949392919062001630565b600060405180830381600087803b158015620004c257600080fd5b505af1158015620004d7573d6000803e3d6000fd5b505050508a73ffffffffffffffffffffffffffffffffffffffff166319188bd887878787876040518663ffffffff1660e01b81526004016200051e959493929190620018b1565b600060405180830381600087803b1580156200053957600080fd5b505af11580156200054e573d6000803e3d6000fd5b505050505050505050505050505050565b853373ffffffffffffffffffffffffffffffffffffffff166000808373ffffffffffffffffffffffffffffffffffffffff1673ffffffffffffffffffffffffffffffffffffffff16815260200190815260200160002060009054906101000a900473ffffffffffffffffffffffffffffffffffffffff1673ffffffffffffffffffffffffffffffffffffffff1614620005f757600080fd5b8673ffffffffffffffffffffffffffffffffffffffff166319188bd887878787876040518663ffffffff1660e01b81526004016200063a959493929190620018b1565b600060405180830381600087803b1580156200065557600080fd5b505af11580156200066a573d6000803e3d6000fd5b5050505050505050505050565b600160009054906101000a900473ffffffffffffffffffffffffffffffffffffffff1673ffffffffffffffffffffffffffffffffffffffff1663c77e6f653087878787876040518763ffffffff1660e01b8152600401620006de9695949392919062001a24565b600060405180830381600087803b158015620006f957600080fd5b505af11580156200070e573d6000803e3d6000fd5b505050506000600260009054906101000a900473ffffffffffffffffffffffffffffffffffffffff1673ffffffffffffffffffffffffffffffffffffffff1663939f3130876040518263ffffffff1660e01b815260040162000771919062001aa6565b60206040518083038186803b1580156200078a57600080fd5b505afa1580156200079f573d6000803e3d6000fd5b505050506040513d601f19601f82011682018060405250810190620007c5919062001ae1565b9050866000808373ffffffffffffffffffffffffffffffffffffffff1673ffffffffffffffffffffffffffffffffffffffff16815260200190815260200160002060006101000a81548173ffffffffffffffffffffffffffffffffffffffff021916908373ffffffffffffffffffffffffffffffffffffffff16021790555050505050505050565b843373ffffffffffffffffffffffffffffffffffffffff166000808373ffffffffffffffffffffffffffffffffffffffff1673ffffffffffffffffffffffffffffffffffffffff16815260200190815260200160002060009054906101000a900473ffffffffffffffffffffffffffffffffffffffff1673ffffffffffffffffffffffffffffffffffffffff1614620008e557600080fd5b8573ffffffffffffffffffffffffffffffffffffffff16637ed8a719868686866040518563ffffffff1660e01b815260040162000926949392919062001630565b600060405180830381600087803b1580156200094157600080fd5b505af115801562000956573d6000803e3d6000fd5b50505050505050505050565b843373ffffffffffffffffffffffffffffffffffffffff166000808373ffffffffffffffffffffffffffffffffffffffff1673ffffffffffffffffffffffffffffffffffffffff16815260200190815260200160002060009054906101000a900473ffffffffffffffffffffffffffffffffffffffff1673ffffffffffffffffffffffffffffffffffffffff1614620009fa57600080fd5b8573ffffffffffffffffffffffffffffffffffffffff1663695c27c2868686866040518563ffffffff1660e01b815260040162000a3b949392919062001b24565b600060405180830381600087803b15801562000a5657600080fd5b505af115801562000a6b573d6000803e3d6000fd5b50505050505050505050565b6108a28062001b7283390190565b6000604051905090565b600080fd5b600080fd5b600073ffffffffffffffffffffffffffffffffffffffff82169050919050565b600062000ac68262000a99565b9050919050565b62000ad88162000ab9565b811462000ae457600080fd5b50565b60008135905062000af88162000acd565b92915050565b6000819050919050565b62000b138162000afe565b811462000b1f57600080fd5b50565b60008135905062000b338162000b08565b92915050565b6000806000806080858703121562000b565762000b5562000a8f565b5b600062000b668782880162000ae7565b945050602062000b798782880162000b22565b935050604062000b8c8782880162000ae7565b925050606062000b9f8782880162000ae7565b91505092959194509250565b6000806040838503121562000bc55762000bc462000a8f565b5b600062000bd58582860162000ae7565b925050602062000be88582860162000ae7565b9150509250929050565b600080fd5b600080fd5b600080fd5b60008083601f84011262000c1a5762000c1962000bf2565b5b8235905067ffffffffffffffff81111562000c3a5762000c3962000bf7565b5b60208301915083600182028301111562000c595762000c5862000bfc565b5b9250929050565b6000819050919050565b62000c758162000c60565b811462000c8157600080fd5b50565b60008135905062000c958162000c6a565b92915050565b6000601f19601f8301169050919050565b7f4e487b7100000000000000000000000000000000000000000000000000000000600052604160045260246000fd5b62000ce68262000c9b565b810181811067ffffffffffffffff8211171562000d085762000d0762000cac565b5b80604052505050565b600062000d1d62000a85565b905062000d2b828262000cdb565b919050565b600067ffffffffffffffff82111562000d4e5762000d4d62000cac565b5b602082029050602081019050919050565b600080fd5b600067ffffffffffffffff82111562000d825762000d8162000cac565b5b62000d8d8262000c9b565b9050602081019050919050565b82818337600083830152505050565b600062000dc062000dba8462000d64565b62000d11565b90508281526020810184848401111562000ddf5762000dde62000d5f565b5b62000dec84828562000d9a565b509392505050565b600082601f83011262000e0c5762000e0b62000bf2565b5b813562000e1e84826020860162000da9565b91505092915050565b600062000e3e62000e388462000d30565b62000d11565b9050808382526020820190506020840283018581111562000e645762000e6362000bfc565b5b835b8181101562000eb257803567ffffffffffffffff81111562000e8d5762000e8c62000bf2565b5b80860162000e9c898262000df4565b8552602085019450505060208101905062000e66565b5050509392505050565b600082601f83011262000ed45762000ed362000bf2565b5b813562000ee684826020860162000e27565b91505092915050565b600067ffffffffffffffff82111562000f0d5762000f0c62000cac565b5b602082029050602081019050919050565b600062000f3562000f2f8462000eef565b62000d11565b9050808382526020820190506020840283018581111562000f5b5762000f5a62000bfc565b5b835b8181101562000f88578062000f73888262000c84565b84526020840193505060208101905062000f5d565b5050509392505050565b600082601f83011262000faa5762000fa962000bf2565b5b813562000fbc84826020860162000f1e565b91505092915050565b60008060008060008060008060008060e08b8d03121562000feb5762000fea62000a8f565b5b600062000ffb8d828e0162000ae7565b9a505060208b013567ffffffffffffffff8111156200101f576200101e62000a94565b5b6200102d8d828e0162000c01565b995099505060408b013567ffffffffffffffff81111562001053576200105262000a94565b5b620010618d828e0162000c01565b975097505060608b013567ffffffffffffffff81111562001087576200108662000a94565b5b620010958d828e0162000c01565b95509550506080620010aa8d828e0162000c84565b93505060a08b013567ffffffffffffffff811115620010ce57620010cd62000a94565b5b620010dc8d828e0162000ebc565b92505060c08b013567ffffffffffffffff8111156200110057620010ff62000a94565b5b6200110e8d828e0162000f92565b9150509295989b9194979a5092959850565b60008060008060008060a0878903121562001140576200113f62000a8f565b5b60006200115089828a0162000ae7565b965050602087013567ffffffffffffffff81111562001174576200117362000a94565b5b6200118289828a0162000c01565b955095505060406200119789828a0162000c84565b935050606087013567ffffffffffffffff811115620011bb57620011ba62000a94565b5b620011c989828a0162000ebc565b925050608087013567ffffffffffffffff811115620011ed57620011ec62000a94565b5b620011fb89828a0162000f92565b9150509295509295509295565b600067ffffffffffffffff82111562001226576200122562000cac565b5b602082029050602081019050919050565b60006200124e620012488462001208565b62000d11565b9050808382526020820190506020840283018581111562001274576200127362000bfc565b5b835b81811015620012a157806200128c888262000b22565b84526020840193505060208101905062001276565b5050509392505050565b600082601f830112620012c357620012c262000bf2565b5b8135620012d584826020860162001237565b91505092915050565b60008060008060008060c08789031215620012fe57620012fd62000a8f565b5b60006200130e89828a0162000ae7565b965050602087013567ffffffffffffffff81111562001332576200133162000a94565b5b6200134089828a0162000df4565b95505060406200135389828a0162000b22565b945050606087013567ffffffffffffffff81111562001377576200137662000a94565b5b6200138589828a0162000df4565b935050608087013567ffffffffffffffff811115620013a957620013a862000a94565b5b620013b789828a01620012ab565b92505060a0620013ca89828a0162000c84565b9150509295509295509295565b600080600080600060608688031215620013f657620013f562000a8f565b5b6000620014068882890162000ae7565b955050602086013567ffffffffffffffff8111156200142a576200142962000a94565b5b620014388882890162000c01565b9450945050604086013567ffffffffffffffff8111156200145e576200145d62000a94565b5b6200146c8882890162000c01565b92509250509295509295909350565b60008115159050919050565b62001492816200147b565b81146200149e57600080fd5b50565b600081359050620014b28162001487565b92915050565b600080600080600060a08688031215620014d757620014d662000a8f565b5b6000620014e78882890162000ae7565b9550506020620014fa8882890162000c84565b94505060406200150d8882890162000c84565b9350506060620015208882890162000c84565b92505060806200153388828901620014a1565b9150509295509295909350565b6200154b8162000ab9565b82525050565b6200155c8162000afe565b82525050565b600060608201905062001579600083018662001540565b62001588602083018562001540565b62001597604083018462001551565b949350505050565b6000608082019050620015b6600083018762001551565b620015c5602083018662001540565b620015d4604083018562001540565b620015e3606083018462001540565b95945050505050565b600082825260208201905092915050565b60006200160b8385620015ec565b93506200161a83858462000d9a565b620016258362000c9b565b840190509392505050565b600060408201905081810360008301526200164d818688620015fd565b9050818103602083015262001664818486620015fd565b905095945050505050565b6200167a8162000c60565b82525050565b600081519050919050565b600082825260208201905092915050565b6000819050602082019050919050565b600081519050919050565b600082825260208201905092915050565b60005b83811015620016e8578082015181840152602081019050620016cb565b83811115620016f8576000848401525b50505050565b60006200170b82620016ac565b620017178185620016b7565b935062001729818560208601620016c8565b620017348162000c9b565b840191505092915050565b60006200174d8383620016fe565b905092915050565b6000602082019050919050565b60006200176f8262001680565b6200177b81856200168b565b9350836020820285016200178f856200169c565b8060005b85811015620017d15784840389528151620017af85826200173f565b9450620017bc8362001755565b925060208a0199505060018101905062001793565b50829750879550505050505092915050565b600081519050919050565b600082825260208201905092915050565b6000819050602082019050919050565b6200181a8162000c60565b82525050565b60006200182e83836200180f565b60208301905092915050565b6000602082019050919050565b60006200185482620017e3565b620018608185620017ee565b93506200186d83620017ff565b8060005b83811015620018a457815162001888888262001820565b975062001895836200183a565b92505060018101905062001871565b5085935050505092915050565b60006080820190508181036000830152620018ce818789620015fd565b9050620018df60208301866200166f565b8181036040830152620018f3818562001762565b9050818103606083015262001909818462001847565b90509695505050505050565b60006200192282620016ac565b6200192e8185620015ec565b935062001940818560208601620016c8565b6200194b8162000c9b565b840191505092915050565b600081519050919050565b600082825260208201905092915050565b6000819050602082019050919050565b6200198d8162000afe565b82525050565b6000620019a1838362001982565b60208301905092915050565b6000602082019050919050565b6000620019c78262001956565b620019d3818562001961565b9350620019e08362001972565b8060005b8381101562001a17578151620019fb888262001993565b975062001a0883620019ad565b925050600181019050620019e4565b5085935050505092915050565b600060c08201905062001a3b600083018962001540565b818103602083015262001a4f818862001915565b905062001a60604083018762001551565b818103606083015262001a74818662001915565b9050818103608083015262001a8a8185620019ba565b905062001a9b60a08301846200166f565b979650505050505050565b6000602082019050818103600083015262001ac2818462001915565b905092915050565b60008151905062001adb8162000acd565b92915050565b60006020828403121562001afa5762001af962000a8f565b5b600062001b0a8482850162001aca565b91505092915050565b62001b1e816200147b565b82525050565b600060808201905062001b3b60008301876200166f565b62001b4a60208301866200166f565b62001b5960408301856200166f565b62001b68606083018462001b13565b9594505050505056fe608060405234801561001057600080fd5b506040516108a23803806108a28339818101604052810190610032919061015b565b826000806101000a81548173ffffffffffffffffffffffffffffffffffffffff021916908373ffffffffffffffffffffffffffffffffffffffff16021790555081600160006101000a81548173ffffffffffffffffffffffffffffffffffffffff021916908373ffffffffffffffffffffffffffffffffffffffff160217905550806002819055505050506101ae565b600080fd5b600073ffffffffffffffffffffffffffffffffffffffff82169050919050565b60006100f2826100c7565b9050919050565b610102816100e7565b811461010d57600080fd5b50565b60008151905061011f816100f9565b92915050565b6000819050919050565b61013881610125565b811461014357600080fd5b50565b6000815190506101558161012f565b92915050565b600080600060608486031215610174576101736100c2565b5b600061018286828701610110565b935050602061019386828701610110565b92505060406101a486828701610146565b9150509250925092565b6106e5806101bd6000396000f3fe608060405234801561001057600080fd5b506004361061007d5760003560e01c80634f15fc061161005b5780634f15fc06146100dc57806360a56b3a146100fa5780636cccbe5e146101165780638f94b8c2146101345761007d565b8063186bc549146100825780634575d5c5146100a05780634b1d123b146100be575b600080fd5b61008a610150565b60405161009791906102f4565b60405180910390f35b6100a861015a565b6040516100b59190610328565b60405180910390f35b6100c6610164565b6040516100d391906102f4565b60405180910390f35b6100e4610180565b6040516100f191906102f4565b60405180910390f35b610114600480360381019061010f91906103d2565b61018a565b005b61011e6102ad565b60405161012b91906102f4565b60405180910390f35b61014e60048036038101906101499190610425565b6102d1565b005b6000600354905090565b6000600254905090565b600061016e6102ad565b60035461017b9190610481565b905090565b6000600454905090565b600160009054906101000a900473ffffffffffffffffffffffffffffffffffffffff1673ffffffffffffffffffffffffffffffffffffffff163373ffffffffffffffffffffffffffffffffffffffff161461021a576040517f08c379a000000000000000000000000000000000000000000000000000000000815260040161021190610538565b60405180910390fd5b8173ffffffffffffffffffffffffffffffffffffffff1663a9059cbb84836040518363ffffffff1660e01b8152600401610255929190610567565b602060405180830381600087803b15801561026f57600080fd5b505af1158015610283573d6000803e3d6000fd5b505050506040513d601f19601f820116820180604052508101906102a791906105c8565b50505050565b60006127106004546003546102c291906105f5565b6102cc919061067e565b905090565b8060048190555050565b6000819050919050565b6102ee816102db565b82525050565b600060208201905061030960008301846102e5565b92915050565b6000819050919050565b6103228161030f565b82525050565b600060208201905061033d6000830184610319565b92915050565b600080fd5b600073ffffffffffffffffffffffffffffffffffffffff82169050919050565b600061037382610348565b9050919050565b61038381610368565b811461038e57600080fd5b50565b6000813590506103a08161037a565b92915050565b6103af816102db565b81146103ba57600080fd5b50565b6000813590506103cc816103a6565b92915050565b6000806000606084860312156103eb576103ea610343565b5b60006103f986828701610391565b935050602061040a86828701610391565b925050604061041b868287016103bd565b9150509250925092565b60006020828403121561043b5761043a610343565b5b6000610449848285016103bd565b91505092915050565b7f4e487b7100000000000000000000000000000000000000000000000000000000600052601160045260246000fd5b600061048c826102db565b9150610497836102db565b9250828210156104aa576104a9610452565b5b828203905092915050565b600082825260208201905092915050565b7f43616d706169676e54726561737572793a2043616c6c6572206973206e6f742060008201527f43616d706169676e496e666f20636f6e74726163740000000000000000000000602082015250565b60006105226035836104b5565b915061052d826104c6565b604082019050919050565b6000602082019050818103600083015261055181610515565b9050919050565b61056181610368565b82525050565b600060408201905061057c6000830185610558565b61058960208301846102e5565b9392505050565b60008115159050919050565b6105a581610590565b81146105b057600080fd5b50565b6000815190506105c28161059c565b92915050565b6000602082840312156105de576105dd610343565b5b60006105ec848285016105b3565b91505092915050565b6000610600826102db565b915061060b836102db565b9250817fffffffffffffffffffffffffffffffffffffffffffffffffffffffffffffffff048311821515161561064457610643610452565b5b828202905092915050565b7f4e487b7100000000000000000000000000000000000000000000000000000000600052601260045260246000fd5b6000610689826102db565b9150610694836102db565b9250826106a4576106a361064f565b5b82820490509291505056fea2646970667358221220d9ac9e43927bae7cc90a0fbddeebe859351f54203e5f4f5bcbeb43a454538c8164736f6c63430008090033a264697066735822122023e2deb9cbb0f3977f35d56a749fe2e90da9bed31554553c2a055b9a56cd988c64736f6c63430008090033",
  "linkReferences": {},
  "deployedLinkReferences": {}
}