{
  "_format": "hh-sol-artifact-1",
  "contractName": "Aggregator",
  "sourceName": "contracts/Aggregator/Aggregator.sol",
  "abi": [
    {
      "inputs": [
        {
          "internalType": "address",
          "name": "campaignInfo",
          "type": "address"
        },
        {
          "internalType": "string",
          "name": "_itemId",
          "type": "string"
        },
        {
          "internalType": "string",
          "name": "_description",
          "type": "string"
        }
      ],
      "name": "addItem",
      "outputs": [],
      "stateMutability": "nonpayable",
      "type": "function"
    },
    {
      "inputs": [
        {
          "internalType": "address",
          "name": "campaignInfo",
          "type": "address"
        },
        {
          "internalType": "string[]",
          "name": "_itemId",
          "type": "string[]"
        },
        {
          "internalType": "string[]",
          "name": "_description",
          "type": "string[]"
        }
      ],
      "name": "addItems",
      "outputs": [],
      "stateMutability": "nonpayable",
      "type": "function"
    },
    {
      "inputs": [
        {
          "internalType": "address",
          "name": "campaignInfo",
          "type": "address"
        },
        {
          "internalType": "bool",
          "name": "isAddOn",
          "type": "bool"
        },
        {
          "internalType": "uint256",
          "name": "rewardValue",
          "type": "uint256"
        },
        {
          "internalType": "string",
          "name": "name",
          "type": "string"
        },
        {
          "internalType": "string[]",
          "name": "itemName",
          "type": "string[]"
        },
        {
          "internalType": "uint256[]",
          "name": "itemQuantity",
          "type": "uint256[]"
        }
      ],
      "name": "addReward",
      "outputs": [],
      "stateMutability": "nonpayable",
      "type": "function"
    },
    {
      "inputs": [
        {
          "internalType": "address",
          "name": "campaignInfo",
          "type": "address"
        },
        {
          "internalType": "bool",
          "name": "isAddOn",
          "type": "bool"
        },
        {
          "internalType": "uint256",
          "name": "rewardValue",
          "type": "uint256"
        },
        {
          "internalType": "string",
          "name": "rewardName",
          "type": "string"
        },
        {
          "internalType": "string[]",
          "name": "itemName",
          "type": "string[]"
        },
        {
          "internalType": "string[]",
          "name": "description",
          "type": "string[]"
        },
        {
          "internalType": "uint256[]",
          "name": "itemQuantity",
          "type": "uint256[]"
        }
      ],
      "name": "addRewardAndItems",
      "outputs": [],
      "stateMutability": "nonpayable",
      "type": "function"
    },
    {
      "inputs": [
        {
          "internalType": "address",
          "name": "_creator",
          "type": "address"
        },
        {
          "internalType": "address",
          "name": "_originPlatformAddress",
          "type": "address"
        },
        {
          "internalType": "address",
          "name": "_originPlatformToken",
          "type": "address"
        },
        {
          "internalType": "uint256",
          "name": "_earlyPledgeAmount",
          "type": "uint256"
        },
        {
          "internalType": "bytes32",
          "name": "_originPlatformHex",
          "type": "bytes32"
        },
        {
          "internalType": "string",
          "name": "_identifier",
          "type": "string"
        },
        {
          "internalType": "string",
          "name": "_creatorUrl",
          "type": "string"
        },
        {
          "internalType": "bytes32[]",
          "name": "_reachPlatform",
          "type": "bytes32[]"
        }
      ],
      "name": "createCampaign",
      "outputs": [],
      "stateMutability": "nonpayable",
      "type": "function"
    },
    {
      "inputs": [
        {
          "internalType": "address",
          "name": "_campaignInfoFactory",
          "type": "address"
        },
        {
          "internalType": "address",
          "name": "_campaignRegisty",
          "type": "address"
        }
      ],
      "name": "initialize",
      "outputs": [],
      "stateMutability": "nonpayable",
      "type": "function"
    },
    {
      "inputs": [
        {
          "internalType": "address",
          "name": "campaignInfo",
          "type": "address"
        },
        {
          "internalType": "uint256",
          "name": "launchTime",
          "type": "uint256"
        },
        {
          "internalType": "uint256",
          "name": "deadline",
          "type": "uint256"
        },
        {
          "internalType": "uint256",
          "name": "goalAmount",
          "type": "uint256"
        },
        {
          "internalType": "bool",
          "name": "enableLatePledge",
          "type": "bool"
        }
      ],
      "name": "setLaunch",
      "outputs": [],
      "stateMutability": "nonpayable",
      "type": "function"
    },
    {
      "inputs": [
        {
          "internalType": "address",
          "name": "campaignInfo",
          "type": "address"
        },
        {
          "internalType": "bytes32",
          "name": "platform",
          "type": "bytes32"
        },
        {
          "internalType": "address",
          "name": "platformWallet",
          "type": "address"
        },
        {
          "internalType": "address",
          "name": "token",
          "type": "address"
        }
      ],
      "name": "setTreasury",
      "outputs": [],
      "stateMutability": "nonpayable",
      "type": "function"
    }
  ],
  "bytecode": "0x608060405234801561001057600080fd5b50612cb4806100206000396000f3fe60806040523480156200001157600080fd5b5060043610620000945760003560e01c806389eb5458116200006357806389eb54581462000119578063bf776f0f1462000139578063d3caea4f1462000159578063fbe121fa14620001795762000094565b8063291a52a214620000995780632c6ba15214620000b957806333d556d714620000d9578063485cc95514620000f9575b600080fd5b620000b76004803603810190620000b19190620012ac565b62000199565b005b620000d76004803603810190620000d191906200140a565b620002b4565b005b620000f76004803603810190620000f19190620014e9565b62000455565b005b6200011760048036038101906200011191906200155b565b62000630565b005b62000137600480360381019062000131919062001678565b620006b6565b005b6200015760048036038101906200015191906200179e565b620009ca565b005b620001776004803603810190620001719190620018da565b62000beb565b005b6200019760048036038101906200019191906200197e565b62000d00565b005b863373ffffffffffffffffffffffffffffffffffffffff166000808373ffffffffffffffffffffffffffffffffffffffff1673ffffffffffffffffffffffffffffffffffffffff16815260200190815260200160002060009054906101000a900473ffffffffffffffffffffffffffffffffffffffff1673ffffffffffffffffffffffffffffffffffffffff16146200023157600080fd5b8773ffffffffffffffffffffffffffffffffffffffff166318b90a948888888888886040518763ffffffff1660e01b8152600401620002769695949392919062001c9d565b600060405180830381600087803b1580156200029157600080fd5b505af1158015620002a6573d6000803e3d6000fd5b505050505050505050505050565b843373ffffffffffffffffffffffffffffffffffffffff166000808373ffffffffffffffffffffffffffffffffffffffff1673ffffffffffffffffffffffffffffffffffffffff16815260200190815260200160002060009054906101000a900473ffffffffffffffffffffffffffffffffffffffff1673ffffffffffffffffffffffffffffffffffffffff16146200034c57600080fd5b60008585905090508084849050146200036457600080fd5b60005b818110156200044b578773ffffffffffffffffffffffffffffffffffffffff16637ed8a719888884818110620003a257620003a162001d11565b5b9050602002810190620003b6919062001d4f565b888886818110620003cc57620003cb62001d11565b5b9050602002810190620003e0919062001d4f565b6040518563ffffffff1660e01b815260040162000401949392919062001dbb565b600060405180830381600087803b1580156200041c57600080fd5b505af115801562000431573d6000803e3d6000fd5b505050508080620004429062001e29565b91505062000367565b5050505050505050565b833373ffffffffffffffffffffffffffffffffffffffff166000808373ffffffffffffffffffffffffffffffffffffffff1673ffffffffffffffffffffffffffffffffffffffff16815260200190815260200160002060009054906101000a900473ffffffffffffffffffffffffffffffffffffffff1673ffffffffffffffffffffffffffffffffffffffff1614620004ed57600080fd5b600260009054906101000a900473ffffffffffffffffffffffffffffffffffffffff168585604051620005209062000e15565b6200052e9392919062001e99565b604051809103906000f0801580156200054b573d6000803e3d6000fd5b50600360006101000a81548173ffffffffffffffffffffffffffffffffffffffff021916908373ffffffffffffffffffffffffffffffffffffffff1602179055506000600360009054906101000a900473ffffffffffffffffffffffffffffffffffffffff1690508573ffffffffffffffffffffffffffffffffffffffff1663deaaf241868684876040518563ffffffff1660e01b8152600401620005f4949392919062001ed6565b600060405180830381600087803b1580156200060f57600080fd5b505af115801562000624573d6000803e3d6000fd5b50505050505050505050565b81600160006101000a81548173ffffffffffffffffffffffffffffffffffffffff021916908373ffffffffffffffffffffffffffffffffffffffff16021790555080600260006101000a81548173ffffffffffffffffffffffffffffffffffffffff021916908373ffffffffffffffffffffffffffffffffffffffff1602179055505050565b600160009054906101000a900473ffffffffffffffffffffffffffffffffffffffff1673ffffffffffffffffffffffffffffffffffffffff1663c77e6f6530858786868b6040518763ffffffff1660e01b81526004016200071d9695949392919062002032565b600060405180830381600087803b1580156200073857600080fd5b505af11580156200074d573d6000803e3d6000fd5b505050506000600260009054906101000a900473ffffffffffffffffffffffffffffffffffffffff1673ffffffffffffffffffffffffffffffffffffffff1663939f3130856040518263ffffffff1660e01b8152600401620007b09190620020b4565b60206040518083038186803b158015620007c957600080fd5b505afa158015620007de573d6000803e3d6000fd5b505050506040513d601f19601f82011682018060405250810190620008049190620020ef565b9050886000808373ffffffffffffffffffffffffffffffffffffffff1673ffffffffffffffffffffffffffffffffffffffff16815260200190815260200160002060006101000a81548173ffffffffffffffffffffffffffffffffffffffff021916908373ffffffffffffffffffffffffffffffffffffffff160217905550600260009054906101000a900473ffffffffffffffffffffffffffffffffffffffff168186604051620008b69062000e15565b620008c49392919062001e99565b604051809103906000f080158015620008e1573d6000803e3d6000fd5b50600360006101000a81548173ffffffffffffffffffffffffffffffffffffffff021916908373ffffffffffffffffffffffffffffffffffffffff1602179055506000600360009054906101000a900473ffffffffffffffffffffffffffffffffffffffff1690508173ffffffffffffffffffffffffffffffffffffffff1663deaaf241878b848c6040518563ffffffff1660e01b81526004016200098a949392919062001ed6565b600060405180830381600087803b158015620009a557600080fd5b505af1158015620009ba573d6000803e3d6000fd5b5050505050505050505050505050565b893373ffffffffffffffffffffffffffffffffffffffff166000808373ffffffffffffffffffffffffffffffffffffffff1673ffffffffffffffffffffffffffffffffffffffff16815260200190815260200160002060009054906101000a900473ffffffffffffffffffffffffffffffffffffffff1673ffffffffffffffffffffffffffffffffffffffff161462000a6257600080fd5b600086869050905080858590501462000a7a57600080fd5b60005b8181101562000b61578c73ffffffffffffffffffffffffffffffffffffffff16637ed8a71989898481811062000ab85762000ab762001d11565b5b905060200281019062000acc919062001d4f565b89898681811062000ae25762000ae162001d11565b5b905060200281019062000af6919062001d4f565b6040518563ffffffff1660e01b815260040162000b17949392919062001dbb565b600060405180830381600087803b15801562000b3257600080fd5b505af115801562000b47573d6000803e3d6000fd5b50505050808062000b589062001e29565b91505062000a7d565b508b73ffffffffffffffffffffffffffffffffffffffff166318b90a948c8c8c8c8c8c8a6040518863ffffffff1660e01b815260040162000ba9979695949392919062002280565b600060405180830381600087803b15801562000bc457600080fd5b505af115801562000bd9573d6000803e3d6000fd5b50505050505050505050505050505050565b843373ffffffffffffffffffffffffffffffffffffffff166000808373ffffffffffffffffffffffffffffffffffffffff1673ffffffffffffffffffffffffffffffffffffffff16815260200190815260200160002060009054906101000a900473ffffffffffffffffffffffffffffffffffffffff1673ffffffffffffffffffffffffffffffffffffffff161462000c8357600080fd5b8573ffffffffffffffffffffffffffffffffffffffff16637ed8a719868686866040518563ffffffff1660e01b815260040162000cc4949392919062001dbb565b600060405180830381600087803b15801562000cdf57600080fd5b505af115801562000cf4573d6000803e3d6000fd5b50505050505050505050565b843373ffffffffffffffffffffffffffffffffffffffff166000808373ffffffffffffffffffffffffffffffffffffffff1673ffffffffffffffffffffffffffffffffffffffff16815260200190815260200160002060009054906101000a900473ffffffffffffffffffffffffffffffffffffffff1673ffffffffffffffffffffffffffffffffffffffff161462000d9857600080fd5b8573ffffffffffffffffffffffffffffffffffffffff1663695c27c2868686866040518563ffffffff1660e01b815260040162000dd99493929190620022f6565b600060405180830381600087803b15801562000df457600080fd5b505af115801562000e09573d6000803e3d6000fd5b50505050505050505050565b61093b806200234483390190565b6000604051905090565b600080fd5b600080fd5b600073ffffffffffffffffffffffffffffffffffffffff82169050919050565b600062000e648262000e37565b9050919050565b62000e768162000e57565b811462000e8257600080fd5b50565b60008135905062000e968162000e6b565b92915050565b60008115159050919050565b62000eb38162000e9c565b811462000ebf57600080fd5b50565b60008135905062000ed38162000ea8565b92915050565b6000819050919050565b62000eee8162000ed9565b811462000efa57600080fd5b50565b60008135905062000f0e8162000ee3565b92915050565b600080fd5b600080fd5b600080fd5b60008083601f84011262000f3c5762000f3b62000f14565b5b8235905067ffffffffffffffff81111562000f5c5762000f5b62000f19565b5b60208301915083600182028301111562000f7b5762000f7a62000f1e565b5b9250929050565b6000601f19601f8301169050919050565b7f4e487b7100000000000000000000000000000000000000000000000000000000600052604160045260246000fd5b62000fcd8262000f82565b810181811067ffffffffffffffff8211171562000fef5762000fee62000f93565b5b80604052505050565b60006200100462000e23565b905062001012828262000fc2565b919050565b600067ffffffffffffffff82111562001035576200103462000f93565b5b602082029050602081019050919050565b600080fd5b600067ffffffffffffffff82111562001069576200106862000f93565b5b620010748262000f82565b9050602081019050919050565b82818337600083830152505050565b6000620010a7620010a1846200104b565b62000ff8565b905082815260208101848484011115620010c657620010c562001046565b5b620010d384828562001081565b509392505050565b600082601f830112620010f357620010f262000f14565b5b81356200110584826020860162001090565b91505092915050565b6000620011256200111f8462001017565b62000ff8565b905080838252602082019050602084028301858111156200114b576200114a62000f1e565b5b835b818110156200119957803567ffffffffffffffff81111562001174576200117362000f14565b5b808601620011838982620010db565b855260208501945050506020810190506200114d565b5050509392505050565b600082601f830112620011bb57620011ba62000f14565b5b8135620011cd8482602086016200110e565b91505092915050565b600067ffffffffffffffff821115620011f457620011f362000f93565b5b602082029050602081019050919050565b60006200121c6200121684620011d6565b62000ff8565b9050808382526020820190506020840283018581111562001242576200124162000f1e565b5b835b818110156200126f57806200125a888262000efd565b84526020840193505060208101905062001244565b5050509392505050565b600082601f83011262001291576200129062000f14565b5b8135620012a384826020860162001205565b91505092915050565b600080600080600080600060c0888a031215620012ce57620012cd62000e2d565b5b6000620012de8a828b0162000e85565b9750506020620012f18a828b0162000ec2565b9650506040620013048a828b0162000efd565b955050606088013567ffffffffffffffff81111562001328576200132762000e32565b5b620013368a828b0162000f23565b9450945050608088013567ffffffffffffffff8111156200135c576200135b62000e32565b5b6200136a8a828b01620011a3565b92505060a088013567ffffffffffffffff8111156200138e576200138d62000e32565b5b6200139c8a828b0162001279565b91505092959891949750929550565b60008083601f840112620013c457620013c362000f14565b5b8235905067ffffffffffffffff811115620013e457620013e362000f19565b5b60208301915083602082028301111562001403576200140262000f1e565b5b9250929050565b60008060008060006060868803121562001429576200142862000e2d565b5b6000620014398882890162000e85565b955050602086013567ffffffffffffffff8111156200145d576200145c62000e32565b5b6200146b88828901620013ab565b9450945050604086013567ffffffffffffffff81111562001491576200149062000e32565b5b6200149f88828901620013ab565b92509250509295509295909350565b6000819050919050565b620014c381620014ae565b8114620014cf57600080fd5b50565b600081359050620014e381620014b8565b92915050565b6000806000806080858703121562001506576200150562000e2d565b5b6000620015168782880162000e85565b94505060206200152987828801620014d2565b93505060406200153c8782880162000e85565b92505060606200154f8782880162000e85565b91505092959194509250565b6000806040838503121562001575576200157462000e2d565b5b6000620015858582860162000e85565b9250506020620015988582860162000e85565b9150509250929050565b600067ffffffffffffffff821115620015c057620015bf62000f93565b5b602082029050602081019050919050565b6000620015e8620015e284620015a2565b62000ff8565b905080838252602082019050602084028301858111156200160e576200160d62000f1e565b5b835b818110156200163b5780620016268882620014d2565b84526020840193505060208101905062001610565b5050509392505050565b600082601f8301126200165d576200165c62000f14565b5b81356200166f848260208601620015d1565b91505092915050565b600080600080600080600080610100898b0312156200169c576200169b62000e2d565b5b6000620016ac8b828c0162000e85565b9850506020620016bf8b828c0162000e85565b9750506040620016d28b828c0162000e85565b9650506060620016e58b828c0162000efd565b9550506080620016f88b828c01620014d2565b94505060a089013567ffffffffffffffff8111156200171c576200171b62000e32565b5b6200172a8b828c01620010db565b93505060c089013567ffffffffffffffff8111156200174e576200174d62000e32565b5b6200175c8b828c01620010db565b92505060e089013567ffffffffffffffff81111562001780576200177f62000e32565b5b6200178e8b828c0162001645565b9150509295985092959890939650565b60008060008060008060008060008060e08b8d031215620017c457620017c362000e2d565b5b6000620017d48d828e0162000e85565b9a50506020620017e78d828e0162000ec2565b9950506040620017fa8d828e0162000efd565b98505060608b013567ffffffffffffffff8111156200181e576200181d62000e32565b5b6200182c8d828e0162000f23565b975097505060808b013567ffffffffffffffff81111562001852576200185162000e32565b5b620018608d828e01620013ab565b955095505060a08b013567ffffffffffffffff81111562001886576200188562000e32565b5b620018948d828e01620013ab565b935093505060c08b013567ffffffffffffffff811115620018ba57620018b962000e32565b5b620018c88d828e0162001279565b9150509295989b9194979a5092959850565b600080600080600060608688031215620018f957620018f862000e2d565b5b6000620019098882890162000e85565b955050602086013567ffffffffffffffff8111156200192d576200192c62000e32565b5b6200193b8882890162000f23565b9450945050604086013567ffffffffffffffff81111562001961576200196062000e32565b5b6200196f8882890162000f23565b92509250509295509295909350565b600080600080600060a086880312156200199d576200199c62000e2d565b5b6000620019ad8882890162000e85565b9550506020620019c08882890162000efd565b9450506040620019d38882890162000efd565b9350506060620019e68882890162000efd565b9250506080620019f98882890162000ec2565b9150509295509295909350565b62001a118162000e9c565b82525050565b62001a228162000ed9565b82525050565b600082825260208201905092915050565b600062001a47838562001a28565b935062001a5683858462001081565b62001a618362000f82565b840190509392505050565b600081519050919050565b600082825260208201905092915050565b6000819050602082019050919050565b600081519050919050565b600082825260208201905092915050565b60005b8381101562001ad457808201518184015260208101905062001ab7565b8381111562001ae4576000848401525b50505050565b600062001af78262001a98565b62001b03818562001aa3565b935062001b1581856020860162001ab4565b62001b208162000f82565b840191505092915050565b600062001b39838362001aea565b905092915050565b6000602082019050919050565b600062001b5b8262001a6c565b62001b67818562001a77565b93508360208202850162001b7b8562001a88565b8060005b8581101562001bbd578484038952815162001b9b858262001b2b565b945062001ba88362001b41565b925060208a0199505060018101905062001b7f565b50829750879550505050505092915050565b600081519050919050565b600082825260208201905092915050565b6000819050602082019050919050565b62001c068162000ed9565b82525050565b600062001c1a838362001bfb565b60208301905092915050565b6000602082019050919050565b600062001c408262001bcf565b62001c4c818562001bda565b935062001c598362001beb565b8060005b8381101562001c9057815162001c74888262001c0c565b975062001c818362001c26565b92505060018101905062001c5d565b5085935050505092915050565b600060a08201905062001cb4600083018962001a06565b62001cc3602083018862001a17565b818103604083015262001cd881868862001a39565b9050818103606083015262001cee818562001b4e565b9050818103608083015262001d04818462001c33565b9050979650505050505050565b7f4e487b7100000000000000000000000000000000000000000000000000000000600052603260045260246000fd5b600080fd5b600080fd5b600080fd5b6000808335600160200384360303811262001d6f5762001d6e62001d40565b5b80840192508235915067ffffffffffffffff82111562001d945762001d9362001d45565b5b60208301925060018202360383131562001db35762001db262001d4a565b5b509250929050565b6000604082019050818103600083015262001dd881868862001a39565b9050818103602083015262001def81848662001a39565b905095945050505050565b7f4e487b7100000000000000000000000000000000000000000000000000000000600052601160045260246000fd5b600062001e368262000ed9565b91507fffffffffffffffffffffffffffffffffffffffffffffffffffffffffffffffff82141562001e6c5762001e6b62001dfa565b5b600182019050919050565b62001e828162000e57565b82525050565b62001e9381620014ae565b82525050565b600060608201905062001eb0600083018662001e77565b62001ebf602083018562001e77565b62001ece604083018462001e88565b949350505050565b600060808201905062001eed600083018762001e88565b62001efc602083018662001e77565b62001f0b604083018562001e77565b62001f1a606083018462001e77565b95945050505050565b600062001f308262001a98565b62001f3c818562001a28565b935062001f4e81856020860162001ab4565b62001f598162000f82565b840191505092915050565b600081519050919050565b600082825260208201905092915050565b6000819050602082019050919050565b62001f9b81620014ae565b82525050565b600062001faf838362001f90565b60208301905092915050565b6000602082019050919050565b600062001fd58262001f64565b62001fe1818562001f6f565b935062001fee8362001f80565b8060005b838110156200202557815162002009888262001fa1565b9750620020168362001fbb565b92505060018101905062001ff2565b5085935050505092915050565b600060c08201905062002049600083018962001e77565b81810360208301526200205d818862001f23565b90506200206e604083018762001e88565b818103606083015262002082818662001f23565b9050818103608083015262002098818562001fc8565b9050620020a960a083018462001a17565b979650505050505050565b60006020820190508181036000830152620020d0818462001f23565b905092915050565b600081519050620020e98162000e6b565b92915050565b60006020828403121562002108576200210762000e2d565b5b60006200211884828501620020d8565b91505092915050565b6000819050919050565b600062002139838562001aa3565b93506200214883858462001081565b620021538362000f82565b840190509392505050565b60006200216d8484846200212b565b90509392505050565b600080fd5b600080fd5b600080fd5b60008083356001602003843603038112620021a557620021a462002180565b5b83810192508235915060208301925067ffffffffffffffff821115620021d057620021cf62002176565b5b600182023603841315620021e957620021e86200217b565b5b509250929050565b6000602082019050919050565b60006200220c838562001a77565b935083602084028501620022208462002121565b8060005b878110156200226e5784840389526200223e828462002185565b6200224b8682846200215e565b95506200225884620021f1565b935060208b019a50505060018101905062002224565b50829750879450505050509392505050565b600060a08201905062002297600083018a62001a06565b620022a6602083018962001a17565b8181036040830152620022bb81878962001a39565b90508181036060830152620022d2818587620021fe565b90508181036080830152620022e8818462001c33565b905098975050505050505050565b60006080820190506200230d600083018762001a17565b6200231c602083018662001a17565b6200232b604083018562001a17565b6200233a606083018462001a06565b9594505050505056fe608060405234801561001057600080fd5b5060405161093b38038061093b8339818101604052810190610032919061015b565b826000806101000a81548173ffffffffffffffffffffffffffffffffffffffff021916908373ffffffffffffffffffffffffffffffffffffffff16021790555081600160006101000a81548173ffffffffffffffffffffffffffffffffffffffff021916908373ffffffffffffffffffffffffffffffffffffffff160217905550806002819055505050506101ae565b600080fd5b600073ffffffffffffffffffffffffffffffffffffffff82169050919050565b60006100f2826100c7565b9050919050565b610102816100e7565b811461010d57600080fd5b50565b60008151905061011f816100f9565b92915050565b6000819050919050565b61013881610125565b811461014357600080fd5b50565b6000815190506101558161012f565b92915050565b600080600060608486031215610174576101736100c2565b5b600061018286828701610110565b935050602061019386828701610110565b92505060406101a486828701610146565b9150509250925092565b61077e806101bd6000396000f3fe608060405234801561001057600080fd5b50600436106100885760003560e01c806360a56b3a1161005b57806360a56b3a146101055780636cccbe5e146101215780638f94b8c21461013f578063bf85f2631461015b57610088565b8063186bc5491461008d5780634575d5c5146100ab5780634b1d123b146100c95780634f15fc06146100e7575b600080fd5b610095610177565b6040516100a29190610337565b60405180910390f35b6100b3610181565b6040516100c0919061036b565b60405180910390f35b6100d161018b565b6040516100de9190610337565b60405180910390f35b6100ef6101a7565b6040516100fc9190610337565b60405180910390f35b61011f600480360381019061011a9190610415565b6101b1565b005b6101296102d4565b6040516101369190610337565b60405180910390f35b61015960048036038101906101549190610468565b6102f8565b005b61017560048036038101906101709190610468565b610302565b005b6000600354905090565b6000600254905090565b60006101956102d4565b6003546101a291906104c4565b905090565b6000600454905090565b600160009054906101000a900473ffffffffffffffffffffffffffffffffffffffff1673ffffffffffffffffffffffffffffffffffffffff163373ffffffffffffffffffffffffffffffffffffffff1614610241576040517f08c379a00000000000000000000000000000000000000000000000000000000081526004016102389061057b565b60405180910390fd5b8173ffffffffffffffffffffffffffffffffffffffff1663a9059cbb84836040518363ffffffff1660e01b815260040161027c9291906105aa565b602060405180830381600087803b15801561029657600080fd5b505af11580156102aa573d6000803e3d6000fd5b505050506040513d601f19601f820116820180604052508101906102ce919061060b565b50505050565b60006127106004546003546102e99190610638565b6102f391906106c1565b905090565b8060048190555050565b806003600082825461031491906106f2565b9250508190555050565b6000819050919050565b6103318161031e565b82525050565b600060208201905061034c6000830184610328565b92915050565b6000819050919050565b61036581610352565b82525050565b6000602082019050610380600083018461035c565b92915050565b600080fd5b600073ffffffffffffffffffffffffffffffffffffffff82169050919050565b60006103b68261038b565b9050919050565b6103c6816103ab565b81146103d157600080fd5b50565b6000813590506103e3816103bd565b92915050565b6103f28161031e565b81146103fd57600080fd5b50565b60008135905061040f816103e9565b92915050565b60008060006060848603121561042e5761042d610386565b5b600061043c868287016103d4565b935050602061044d868287016103d4565b925050604061045e86828701610400565b9150509250925092565b60006020828403121561047e5761047d610386565b5b600061048c84828501610400565b91505092915050565b7f4e487b7100000000000000000000000000000000000000000000000000000000600052601160045260246000fd5b60006104cf8261031e565b91506104da8361031e565b9250828210156104ed576104ec610495565b5b828203905092915050565b600082825260208201905092915050565b7f43616d706169676e54726561737572793a2043616c6c6572206973206e6f742060008201527f43616d706169676e496e666f20636f6e74726163740000000000000000000000602082015250565b60006105656035836104f8565b915061057082610509565b604082019050919050565b6000602082019050818103600083015261059481610558565b9050919050565b6105a4816103ab565b82525050565b60006040820190506105bf600083018561059b565b6105cc6020830184610328565b9392505050565b60008115159050919050565b6105e8816105d3565b81146105f357600080fd5b50565b600081519050610605816105df565b92915050565b60006020828403121561062157610620610386565b5b600061062f848285016105f6565b91505092915050565b60006106438261031e565b915061064e8361031e565b9250817fffffffffffffffffffffffffffffffffffffffffffffffffffffffffffffffff048311821515161561068757610686610495565b5b828202905092915050565b7f4e487b7100000000000000000000000000000000000000000000000000000000600052601260045260246000fd5b60006106cc8261031e565b91506106d78361031e565b9250826106e7576106e6610692565b5b828204905092915050565b60006106fd8261031e565b91506107088361031e565b9250827fffffffffffffffffffffffffffffffffffffffffffffffffffffffffffffffff0382111561073d5761073c610495565b5b82820190509291505056fea26469706673582212202a5583371f5732342cce0a1dce02a04f0483e302138cfaba5d4c9b05ad34fddc64736f6c63430008090033a2646970667358221220a0ae1964793a737a617d739aa2340a7d40139465ca40793009c1dee2e894d37264736f6c63430008090033",
  "linkReferences": {},
  "deployedLinkReferences": {}
}