{
  "_format": "hh-sol-artifact-1",
  "contractName": "Aggregator",
  "sourceName": "contracts/Aggregator/Aggregator.sol",
  "abi": [
    {
      "inputs": [
        {
          "internalType": "address",
          "name": "campaignInfo",
          "type": "address"
        },
        {
          "internalType": "string",
          "name": "_itemId",
          "type": "string"
        },
        {
          "internalType": "string",
          "name": "_description",
          "type": "string"
        }
      ],
      "name": "addItem",
      "outputs": [],
      "stateMutability": "nonpayable",
      "type": "function"
    },
    {
      "inputs": [
        {
          "internalType": "address",
          "name": "campaignInfo",
          "type": "address"
        },
        {
          "internalType": "string[]",
          "name": "_itemId",
          "type": "string[]"
        },
        {
          "internalType": "string[]",
          "name": "_description",
          "type": "string[]"
        }
      ],
      "name": "addItems",
      "outputs": [],
      "stateMutability": "nonpayable",
      "type": "function"
    },
    {
      "inputs": [
        {
          "internalType": "address",
          "name": "campaignInfo",
          "type": "address"
        },
        {
          "internalType": "string",
          "name": "name",
          "type": "string"
        },
        {
          "internalType": "uint256",
          "name": "rewardValue",
          "type": "uint256"
        },
        {
          "internalType": "string[]",
          "name": "itemName",
          "type": "string[]"
        },
        {
          "internalType": "uint256[]",
          "name": "itemQuantity",
          "type": "uint256[]"
        }
      ],
      "name": "addReward",
      "outputs": [],
      "stateMutability": "nonpayable",
      "type": "function"
    },
    {
      "inputs": [
        {
          "internalType": "address",
          "name": "campaignInfo",
          "type": "address"
        },
        {
          "internalType": "string[]",
          "name": "itemName",
          "type": "string[]"
        },
        {
          "internalType": "string[]",
          "name": "description",
          "type": "string[]"
        },
        {
          "internalType": "string",
          "name": "rewardName",
          "type": "string"
        },
        {
          "internalType": "uint256",
          "name": "rewardValue",
          "type": "uint256"
        },
        {
          "internalType": "uint256[]",
          "name": "itemQuantity",
          "type": "uint256[]"
        }
      ],
      "name": "addRewardAndItems",
      "outputs": [],
      "stateMutability": "nonpayable",
      "type": "function"
    },
    {
      "inputs": [
        {
          "internalType": "address",
          "name": "_creator",
          "type": "address"
        },
        {
          "internalType": "string",
          "name": "_identifier",
          "type": "string"
        },
        {
          "internalType": "bytes32",
          "name": "_originPlatform",
          "type": "bytes32"
        },
        {
          "internalType": "string",
          "name": "_creatorUrl",
          "type": "string"
        },
        {
          "internalType": "bytes32[]",
          "name": "_reachPlatform",
          "type": "bytes32[]"
        },
        {
          "internalType": "uint256",
          "name": "_earlyPledgeAmount",
          "type": "uint256"
        }
      ],
      "name": "createCampaign",
      "outputs": [],
      "stateMutability": "nonpayable",
      "type": "function"
    },
    {
      "inputs": [
        {
          "internalType": "address",
          "name": "_campaignInfoFactory",
          "type": "address"
        },
        {
          "internalType": "address",
          "name": "_campaignRegisty",
          "type": "address"
        }
      ],
      "name": "initialize",
      "outputs": [],
      "stateMutability": "nonpayable",
      "type": "function"
    },
    {
      "inputs": [
        {
          "internalType": "address",
          "name": "campaignInfo",
          "type": "address"
        },
        {
          "internalType": "uint256",
          "name": "launchTime",
          "type": "uint256"
        },
        {
          "internalType": "uint256",
          "name": "deadline",
          "type": "uint256"
        },
        {
          "internalType": "uint256",
          "name": "goalAmount",
          "type": "uint256"
        },
        {
          "internalType": "bool",
          "name": "enableLatePledge",
          "type": "bool"
        }
      ],
      "name": "setLaunch",
      "outputs": [],
      "stateMutability": "nonpayable",
      "type": "function"
    },
    {
      "inputs": [
        {
          "internalType": "address",
          "name": "campaignInfo",
          "type": "address"
        },
        {
          "internalType": "bytes32",
          "name": "platform",
          "type": "bytes32"
        },
        {
          "internalType": "address",
          "name": "platformWallet",
          "type": "address"
        },
        {
          "internalType": "address",
          "name": "token",
          "type": "address"
        }
      ],
      "name": "setTreasury",
      "outputs": [],
      "stateMutability": "nonpayable",
      "type": "function"
    }
  ],
  "bytecode": "0x608060405234801561001057600080fd5b50612a5d806100206000396000f3fe60806040523480156200001157600080fd5b5060043610620000945760003560e01c8063ab4d9b5f1162000063578063ab4d9b5f1462000119578063c77e6f651462000139578063d3caea4f1462000159578063fbe121fa14620001795762000094565b80632c6ba152146200009957806333d556d714620000b957806338d6590e14620000d9578063485cc95514620000f9575b600080fd5b620000b76004803603810190620000b1919062000dc6565b62000199565b005b620000d76004803603810190620000d1919062000ea5565b6200033a565b005b620000f76004803603810190620000f191906200111c565b62000515565b005b62000117600480360381019062000111919062001242565b62000733565b005b62000137600480360381019062000131919062001448565b620007b9565b005b62000157600480360381019062000151919062001606565b620008d1565b005b620001776004803603810190620001719190620016ff565b62000aa7565b005b620001976004803603810190620001919190620017e0565b62000bbc565b005b843373ffffffffffffffffffffffffffffffffffffffff166000808373ffffffffffffffffffffffffffffffffffffffff1673ffffffffffffffffffffffffffffffffffffffff16815260200190815260200160002060009054906101000a900473ffffffffffffffffffffffffffffffffffffffff1673ffffffffffffffffffffffffffffffffffffffff16146200023157600080fd5b60008585905090508084849050146200024957600080fd5b60005b8181101562000330578773ffffffffffffffffffffffffffffffffffffffff16637ed8a71988888481811062000287576200028662001868565b5b90506020028101906200029b9190620018a6565b888886818110620002b157620002b062001868565b5b9050602002810190620002c59190620018a6565b6040518563ffffffff1660e01b8152600401620002e6949392919062001956565b600060405180830381600087803b1580156200030157600080fd5b505af115801562000316573d6000803e3d6000fd5b5050505080806200032790620019c4565b9150506200024c565b5050505050505050565b833373ffffffffffffffffffffffffffffffffffffffff166000808373ffffffffffffffffffffffffffffffffffffffff1673ffffffffffffffffffffffffffffffffffffffff16815260200190815260200160002060009054906101000a900473ffffffffffffffffffffffffffffffffffffffff1673ffffffffffffffffffffffffffffffffffffffff1614620003d257600080fd5b600260009054906101000a900473ffffffffffffffffffffffffffffffffffffffff168585604051620004059062000cd1565b620004139392919062001a34565b604051809103906000f08015801562000430573d6000803e3d6000fd5b50600360006101000a81548173ffffffffffffffffffffffffffffffffffffffff021916908373ffffffffffffffffffffffffffffffffffffffff1602179055506000600360009054906101000a900473ffffffffffffffffffffffffffffffffffffffff1690508573ffffffffffffffffffffffffffffffffffffffff1663deaaf241868684876040518563ffffffff1660e01b8152600401620004d9949392919062001a71565b600060405180830381600087803b158015620004f457600080fd5b505af115801562000509573d6000803e3d6000fd5b50505050505050505050565b883373ffffffffffffffffffffffffffffffffffffffff166000808373ffffffffffffffffffffffffffffffffffffffff1673ffffffffffffffffffffffffffffffffffffffff16815260200190815260200160002060009054906101000a900473ffffffffffffffffffffffffffffffffffffffff1673ffffffffffffffffffffffffffffffffffffffff1614620005ad57600080fd5b6000898990509050808888905014620005c557600080fd5b60005b81811015620006ac578b73ffffffffffffffffffffffffffffffffffffffff16637ed8a7198c8c8481811062000603576200060262001868565b5b9050602002810190620006179190620018a6565b8c8c868181106200062d576200062c62001868565b5b9050602002810190620006419190620018a6565b6040518563ffffffff1660e01b815260040162000662949392919062001956565b600060405180830381600087803b1580156200067d57600080fd5b505af115801562000692573d6000803e3d6000fd5b505050508080620006a390620019c4565b915050620005c8565b508a73ffffffffffffffffffffffffffffffffffffffff166319188bd88787878e8e896040518763ffffffff1660e01b8152600401620006f29695949392919062001d1e565b600060405180830381600087803b1580156200070d57600080fd5b505af115801562000722573d6000803e3d6000fd5b505050505050505050505050505050565b81600160006101000a81548173ffffffffffffffffffffffffffffffffffffffff021916908373ffffffffffffffffffffffffffffffffffffffff16021790555080600260006101000a81548173ffffffffffffffffffffffffffffffffffffffff021916908373ffffffffffffffffffffffffffffffffffffffff1602179055505050565b853373ffffffffffffffffffffffffffffffffffffffff166000808373ffffffffffffffffffffffffffffffffffffffff1673ffffffffffffffffffffffffffffffffffffffff16815260200190815260200160002060009054906101000a900473ffffffffffffffffffffffffffffffffffffffff1673ffffffffffffffffffffffffffffffffffffffff16146200085157600080fd5b8673ffffffffffffffffffffffffffffffffffffffff166319188bd887878787876040518663ffffffff1660e01b81526004016200089495949392919062001ec5565b600060405180830381600087803b158015620008af57600080fd5b505af1158015620008c4573d6000803e3d6000fd5b5050505050505050505050565b600160009054906101000a900473ffffffffffffffffffffffffffffffffffffffff1673ffffffffffffffffffffffffffffffffffffffff1663c77e6f653087878787876040518763ffffffff1660e01b8152600401620009389695949392919062002038565b600060405180830381600087803b1580156200095357600080fd5b505af115801562000968573d6000803e3d6000fd5b505050506000600260009054906101000a900473ffffffffffffffffffffffffffffffffffffffff1673ffffffffffffffffffffffffffffffffffffffff1663939f3130876040518263ffffffff1660e01b8152600401620009cb9190620020ba565b60206040518083038186803b158015620009e457600080fd5b505afa158015620009f9573d6000803e3d6000fd5b505050506040513d601f19601f8201168201806040525081019062000a1f9190620020f5565b9050866000808373ffffffffffffffffffffffffffffffffffffffff1673ffffffffffffffffffffffffffffffffffffffff16815260200190815260200160002060006101000a81548173ffffffffffffffffffffffffffffffffffffffff021916908373ffffffffffffffffffffffffffffffffffffffff16021790555050505050505050565b843373ffffffffffffffffffffffffffffffffffffffff166000808373ffffffffffffffffffffffffffffffffffffffff1673ffffffffffffffffffffffffffffffffffffffff16815260200190815260200160002060009054906101000a900473ffffffffffffffffffffffffffffffffffffffff1673ffffffffffffffffffffffffffffffffffffffff161462000b3f57600080fd5b8573ffffffffffffffffffffffffffffffffffffffff16637ed8a719868686866040518563ffffffff1660e01b815260040162000b80949392919062001956565b600060405180830381600087803b15801562000b9b57600080fd5b505af115801562000bb0573d6000803e3d6000fd5b50505050505050505050565b843373ffffffffffffffffffffffffffffffffffffffff166000808373ffffffffffffffffffffffffffffffffffffffff1673ffffffffffffffffffffffffffffffffffffffff16815260200190815260200160002060009054906101000a900473ffffffffffffffffffffffffffffffffffffffff1673ffffffffffffffffffffffffffffffffffffffff161462000c5457600080fd5b8573ffffffffffffffffffffffffffffffffffffffff1663695c27c2868686866040518563ffffffff1660e01b815260040162000c95949392919062002138565b600060405180830381600087803b15801562000cb057600080fd5b505af115801562000cc5573d6000803e3d6000fd5b50505050505050505050565b6108a2806200218683390190565b6000604051905090565b600080fd5b600080fd5b600073ffffffffffffffffffffffffffffffffffffffff82169050919050565b600062000d208262000cf3565b9050919050565b62000d328162000d13565b811462000d3e57600080fd5b50565b60008135905062000d528162000d27565b92915050565b600080fd5b600080fd5b600080fd5b60008083601f84011262000d805762000d7f62000d58565b5b8235905067ffffffffffffffff81111562000da05762000d9f62000d5d565b5b60208301915083602082028301111562000dbf5762000dbe62000d62565b5b9250929050565b60008060008060006060868803121562000de55762000de462000ce9565b5b600062000df58882890162000d41565b955050602086013567ffffffffffffffff81111562000e195762000e1862000cee565b5b62000e278882890162000d67565b9450945050604086013567ffffffffffffffff81111562000e4d5762000e4c62000cee565b5b62000e5b8882890162000d67565b92509250509295509295909350565b6000819050919050565b62000e7f8162000e6a565b811462000e8b57600080fd5b50565b60008135905062000e9f8162000e74565b92915050565b6000806000806080858703121562000ec25762000ec162000ce9565b5b600062000ed28782880162000d41565b945050602062000ee58782880162000e8e565b935050604062000ef88782880162000d41565b925050606062000f0b8782880162000d41565b91505092959194509250565b60008083601f84011262000f305762000f2f62000d58565b5b8235905067ffffffffffffffff81111562000f505762000f4f62000d5d565b5b60208301915083600182028301111562000f6f5762000f6e62000d62565b5b9250929050565b6000819050919050565b62000f8b8162000f76565b811462000f9757600080fd5b50565b60008135905062000fab8162000f80565b92915050565b6000601f19601f8301169050919050565b7f4e487b7100000000000000000000000000000000000000000000000000000000600052604160045260246000fd5b62000ffc8262000fb1565b810181811067ffffffffffffffff821117156200101e576200101d62000fc2565b5b80604052505050565b60006200103362000cdf565b905062001041828262000ff1565b919050565b600067ffffffffffffffff82111562001064576200106362000fc2565b5b602082029050602081019050919050565b60006200108c620010868462001046565b62001027565b90508083825260208201905060208402830185811115620010b257620010b162000d62565b5b835b81811015620010df5780620010ca888262000f9a565b845260208401935050602081019050620010b4565b5050509392505050565b600082601f83011262001101576200110062000d58565b5b81356200111384826020860162001075565b91505092915050565b600080600080600080600080600060c08a8c03121562001141576200114062000ce9565b5b6000620011518c828d0162000d41565b99505060208a013567ffffffffffffffff81111562001175576200117462000cee565b5b620011838c828d0162000d67565b985098505060408a013567ffffffffffffffff811115620011a957620011a862000cee565b5b620011b78c828d0162000d67565b965096505060608a013567ffffffffffffffff811115620011dd57620011dc62000cee565b5b620011eb8c828d0162000f17565b94509450506080620012008c828d0162000f9a565b92505060a08a013567ffffffffffffffff81111562001224576200122362000cee565b5b620012328c828d01620010e9565b9150509295985092959850929598565b600080604083850312156200125c576200125b62000ce9565b5b60006200126c8582860162000d41565b92505060206200127f8582860162000d41565b9150509250929050565b600067ffffffffffffffff821115620012a757620012a662000fc2565b5b602082029050602081019050919050565b600080fd5b600067ffffffffffffffff821115620012db57620012da62000fc2565b5b620012e68262000fb1565b9050602081019050919050565b82818337600083830152505050565b6000620013196200131384620012bd565b62001027565b905082815260208101848484011115620013385762001337620012b8565b5b62001345848285620012f3565b509392505050565b600082601f83011262001365576200136462000d58565b5b81356200137784826020860162001302565b91505092915050565b600062001397620013918462001289565b62001027565b90508083825260208201905060208402830185811115620013bd57620013bc62000d62565b5b835b818110156200140b57803567ffffffffffffffff811115620013e657620013e562000d58565b5b808601620013f589826200134d565b85526020850194505050602081019050620013bf565b5050509392505050565b600082601f8301126200142d576200142c62000d58565b5b81356200143f84826020860162001380565b91505092915050565b60008060008060008060a0878903121562001468576200146762000ce9565b5b60006200147889828a0162000d41565b965050602087013567ffffffffffffffff8111156200149c576200149b62000cee565b5b620014aa89828a0162000f17565b95509550506040620014bf89828a0162000f9a565b935050606087013567ffffffffffffffff811115620014e357620014e262000cee565b5b620014f189828a0162001415565b925050608087013567ffffffffffffffff81111562001515576200151462000cee565b5b6200152389828a01620010e9565b9150509295509295509295565b600067ffffffffffffffff8211156200154e576200154d62000fc2565b5b602082029050602081019050919050565b600062001576620015708462001530565b62001027565b905080838252602082019050602084028301858111156200159c576200159b62000d62565b5b835b81811015620015c95780620015b4888262000e8e565b8452602084019350506020810190506200159e565b5050509392505050565b600082601f830112620015eb57620015ea62000d58565b5b8135620015fd8482602086016200155f565b91505092915050565b60008060008060008060c0878903121562001626576200162562000ce9565b5b60006200163689828a0162000d41565b965050602087013567ffffffffffffffff8111156200165a576200165962000cee565b5b6200166889828a016200134d565b95505060406200167b89828a0162000e8e565b945050606087013567ffffffffffffffff8111156200169f576200169e62000cee565b5b620016ad89828a016200134d565b935050608087013567ffffffffffffffff811115620016d157620016d062000cee565b5b620016df89828a01620015d3565b92505060a0620016f289828a0162000f9a565b9150509295509295509295565b6000806000806000606086880312156200171e576200171d62000ce9565b5b60006200172e8882890162000d41565b955050602086013567ffffffffffffffff81111562001752576200175162000cee565b5b620017608882890162000f17565b9450945050604086013567ffffffffffffffff81111562001786576200178562000cee565b5b620017948882890162000f17565b92509250509295509295909350565b60008115159050919050565b620017ba81620017a3565b8114620017c657600080fd5b50565b600081359050620017da81620017af565b92915050565b600080600080600060a08688031215620017ff57620017fe62000ce9565b5b60006200180f8882890162000d41565b9550506020620018228882890162000f9a565b9450506040620018358882890162000f9a565b9350506060620018488882890162000f9a565b92505060806200185b88828901620017c9565b9150509295509295909350565b7f4e487b7100000000000000000000000000000000000000000000000000000000600052603260045260246000fd5b600080fd5b600080fd5b600080fd5b60008083356001602003843603038112620018c657620018c562001897565b5b80840192508235915067ffffffffffffffff821115620018eb57620018ea6200189c565b5b6020830192506001820236038313156200190a5762001909620018a1565b5b509250929050565b600082825260208201905092915050565b600062001931838562001912565b935062001940838584620012f3565b6200194b8362000fb1565b840190509392505050565b600060408201905081810360008301526200197381868862001923565b905081810360208301526200198a81848662001923565b905095945050505050565b7f4e487b7100000000000000000000000000000000000000000000000000000000600052601160045260246000fd5b6000620019d18262000f76565b91507fffffffffffffffffffffffffffffffffffffffffffffffffffffffffffffffff82141562001a075762001a0662001995565b5b600182019050919050565b62001a1d8162000d13565b82525050565b62001a2e8162000e6a565b82525050565b600060608201905062001a4b600083018662001a12565b62001a5a602083018562001a12565b62001a69604083018462001a23565b949350505050565b600060808201905062001a88600083018762001a23565b62001a97602083018662001a12565b62001aa6604083018562001a12565b62001ab5606083018462001a12565b95945050505050565b62001ac98162000f76565b82525050565b600082825260208201905092915050565b6000819050919050565b600082825260208201905092915050565b600062001b09838562001aea565b935062001b18838584620012f3565b62001b238362000fb1565b840190509392505050565b600062001b3d84848462001afb565b90509392505050565b600080fd5b600080fd5b600080fd5b6000808335600160200384360303811262001b755762001b7462001b50565b5b83810192508235915060208301925067ffffffffffffffff82111562001ba05762001b9f62001b46565b5b60018202360384131562001bb95762001bb862001b4b565b5b509250929050565b6000602082019050919050565b600062001bdc838562001acf565b93508360208402850162001bf08462001ae0565b8060005b8781101562001c3e57848403895262001c0e828462001b55565b62001c1b86828462001b2e565b955062001c288462001bc1565b935060208b019a50505060018101905062001bf4565b50829750879450505050509392505050565b600081519050919050565b600082825260208201905092915050565b6000819050602082019050919050565b62001c878162000f76565b82525050565b600062001c9b838362001c7c565b60208301905092915050565b6000602082019050919050565b600062001cc18262001c50565b62001ccd818562001c5b565b935062001cda8362001c6c565b8060005b8381101562001d1157815162001cf5888262001c8d565b975062001d028362001ca7565b92505060018101905062001cde565b5085935050505092915050565b6000608082019050818103600083015262001d3b81888a62001923565b905062001d4c602083018762001abe565b818103604083015262001d6181858762001bce565b9050818103606083015262001d77818462001cb4565b9050979650505050505050565b600081519050919050565b6000819050602082019050919050565b600081519050919050565b60005b8381101562001dca57808201518184015260208101905062001dad565b8381111562001dda576000848401525b50505050565b600062001ded8262001d9f565b62001df9818562001aea565b935062001e0b81856020860162001daa565b62001e168162000fb1565b840191505092915050565b600062001e2f838362001de0565b905092915050565b6000602082019050919050565b600062001e518262001d84565b62001e5d818562001acf565b93508360208202850162001e718562001d8f565b8060005b8581101562001eb3578484038952815162001e91858262001e21565b945062001e9e8362001e37565b925060208a0199505060018101905062001e75565b50829750879550505050505092915050565b6000608082019050818103600083015262001ee281878962001923565b905062001ef3602083018662001abe565b818103604083015262001f07818562001e44565b9050818103606083015262001f1d818462001cb4565b90509695505050505050565b600062001f368262001d9f565b62001f42818562001912565b935062001f5481856020860162001daa565b62001f5f8162000fb1565b840191505092915050565b600081519050919050565b600082825260208201905092915050565b6000819050602082019050919050565b62001fa18162000e6a565b82525050565b600062001fb5838362001f96565b60208301905092915050565b6000602082019050919050565b600062001fdb8262001f6a565b62001fe7818562001f75565b935062001ff48362001f86565b8060005b838110156200202b5781516200200f888262001fa7565b97506200201c8362001fc1565b92505060018101905062001ff8565b5085935050505092915050565b600060c0820190506200204f600083018962001a12565b818103602083015262002063818862001f29565b905062002074604083018762001a23565b818103606083015262002088818662001f29565b905081810360808301526200209e818562001fce565b9050620020af60a083018462001abe565b979650505050505050565b60006020820190508181036000830152620020d6818462001f29565b905092915050565b600081519050620020ef8162000d27565b92915050565b6000602082840312156200210e576200210d62000ce9565b5b60006200211e84828501620020de565b91505092915050565b6200213281620017a3565b82525050565b60006080820190506200214f600083018762001abe565b6200215e602083018662001abe565b6200216d604083018562001abe565b6200217c606083018462002127565b9594505050505056fe608060405234801561001057600080fd5b506040516108a23803806108a28339818101604052810190610032919061015b565b826000806101000a81548173ffffffffffffffffffffffffffffffffffffffff021916908373ffffffffffffffffffffffffffffffffffffffff16021790555081600160006101000a81548173ffffffffffffffffffffffffffffffffffffffff021916908373ffffffffffffffffffffffffffffffffffffffff160217905550806002819055505050506101ae565b600080fd5b600073ffffffffffffffffffffffffffffffffffffffff82169050919050565b60006100f2826100c7565b9050919050565b610102816100e7565b811461010d57600080fd5b50565b60008151905061011f816100f9565b92915050565b6000819050919050565b61013881610125565b811461014357600080fd5b50565b6000815190506101558161012f565b92915050565b600080600060608486031215610174576101736100c2565b5b600061018286828701610110565b935050602061019386828701610110565b92505060406101a486828701610146565b9150509250925092565b6106e5806101bd6000396000f3fe608060405234801561001057600080fd5b506004361061007d5760003560e01c80634f15fc061161005b5780634f15fc06146100dc57806360a56b3a146100fa5780636cccbe5e146101165780638f94b8c2146101345761007d565b8063186bc549146100825780634575d5c5146100a05780634b1d123b146100be575b600080fd5b61008a610150565b60405161009791906102f4565b60405180910390f35b6100a861015a565b6040516100b59190610328565b60405180910390f35b6100c6610164565b6040516100d391906102f4565b60405180910390f35b6100e4610180565b6040516100f191906102f4565b60405180910390f35b610114600480360381019061010f91906103d2565b61018a565b005b61011e6102ad565b60405161012b91906102f4565b60405180910390f35b61014e60048036038101906101499190610425565b6102d1565b005b6000600354905090565b6000600254905090565b600061016e6102ad565b60035461017b9190610481565b905090565b6000600454905090565b600160009054906101000a900473ffffffffffffffffffffffffffffffffffffffff1673ffffffffffffffffffffffffffffffffffffffff163373ffffffffffffffffffffffffffffffffffffffff161461021a576040517f08c379a000000000000000000000000000000000000000000000000000000000815260040161021190610538565b60405180910390fd5b8173ffffffffffffffffffffffffffffffffffffffff1663a9059cbb84836040518363ffffffff1660e01b8152600401610255929190610567565b602060405180830381600087803b15801561026f57600080fd5b505af1158015610283573d6000803e3d6000fd5b505050506040513d601f19601f820116820180604052508101906102a791906105c8565b50505050565b60006127106004546003546102c291906105f5565b6102cc919061067e565b905090565b8060048190555050565b6000819050919050565b6102ee816102db565b82525050565b600060208201905061030960008301846102e5565b92915050565b6000819050919050565b6103228161030f565b82525050565b600060208201905061033d6000830184610319565b92915050565b600080fd5b600073ffffffffffffffffffffffffffffffffffffffff82169050919050565b600061037382610348565b9050919050565b61038381610368565b811461038e57600080fd5b50565b6000813590506103a08161037a565b92915050565b6103af816102db565b81146103ba57600080fd5b50565b6000813590506103cc816103a6565b92915050565b6000806000606084860312156103eb576103ea610343565b5b60006103f986828701610391565b935050602061040a86828701610391565b925050604061041b868287016103bd565b9150509250925092565b60006020828403121561043b5761043a610343565b5b6000610449848285016103bd565b91505092915050565b7f4e487b7100000000000000000000000000000000000000000000000000000000600052601160045260246000fd5b600061048c826102db565b9150610497836102db565b9250828210156104aa576104a9610452565b5b828203905092915050565b600082825260208201905092915050565b7f43616d706169676e54726561737572793a2043616c6c6572206973206e6f742060008201527f43616d706169676e496e666f20636f6e74726163740000000000000000000000602082015250565b60006105226035836104b5565b915061052d826104c6565b604082019050919050565b6000602082019050818103600083015261055181610515565b9050919050565b61056181610368565b82525050565b600060408201905061057c6000830185610558565b61058960208301846102e5565b9392505050565b60008115159050919050565b6105a581610590565b81146105b057600080fd5b50565b6000815190506105c28161059c565b92915050565b6000602082840312156105de576105dd610343565b5b60006105ec848285016105b3565b91505092915050565b6000610600826102db565b915061060b836102db565b9250817fffffffffffffffffffffffffffffffffffffffffffffffffffffffffffffffff048311821515161561064457610643610452565b5b828202905092915050565b7f4e487b7100000000000000000000000000000000000000000000000000000000600052601260045260246000fd5b6000610689826102db565b9150610694836102db565b9250826106a4576106a361064f565b5b82820490509291505056fea2646970667358221220d9ac9e43927bae7cc90a0fbddeebe859351f54203e5f4f5bcbeb43a454538c8164736f6c63430008090033a264697066735822122085c37ddacad7c77d47a763e7bbf0c29d96d7950a7c108dc118f8b7dd97a8ff7b64736f6c63430008090033",
  "linkReferences": {},
  "deployedLinkReferences": {}
}