{
  "_format": "hh-sol-artifact-1",
  "contractName": "Aggregator",
  "sourceName": "contracts/Aggregator/Aggregator.sol",
  "abi": [
    {
      "inputs": [
        {
          "internalType": "address",
          "name": "campaignInfo",
          "type": "address"
        },
        {
          "internalType": "address",
          "name": "creator",
          "type": "address"
        },
        {
          "internalType": "bytes32[]",
          "name": "id",
          "type": "bytes32[]"
        },
        {
          "components": [
            {
              "internalType": "uint256[]",
              "name": "items",
              "type": "uint256[]"
            },
            {
              "internalType": "uint256[]",
              "name": "itemQuantity",
              "type": "uint256[]"
            },
            {
              "internalType": "uint256",
              "name": "value",
              "type": "uint256"
            },
            {
              "internalType": "bool",
              "name": "isRewardTier",
              "type": "bool"
            }
          ],
          "internalType": "struct ICampaignContainers.Container[]",
          "name": "container",
          "type": "tuple[]"
        }
      ],
      "name": "addContainers",
      "outputs": [],
      "stateMutability": "nonpayable",
      "type": "function"
    },
    {
      "inputs": [
        {
          "internalType": "address",
          "name": "_creator",
          "type": "address"
        },
        {
          "internalType": "address",
          "name": "_originPlatformAddress",
          "type": "address"
        },
        {
          "internalType": "address",
          "name": "_originPlatformToken",
          "type": "address"
        },
        {
          "internalType": "uint256",
          "name": "_earlyPledgeAmount",
          "type": "uint256"
        },
        {
          "internalType": "bytes32",
          "name": "_originPlatformHex",
          "type": "bytes32"
        },
        {
          "internalType": "string",
          "name": "_identifier",
          "type": "string"
        },
        {
          "internalType": "string",
          "name": "_creatorUrl",
          "type": "string"
        },
        {
          "internalType": "bytes32[]",
          "name": "_reachPlatform",
          "type": "bytes32[]"
        }
      ],
      "name": "createCampaign",
      "outputs": [],
      "stateMutability": "nonpayable",
      "type": "function"
    },
    {
      "inputs": [
        {
          "internalType": "address",
          "name": "_campaignInfoFactory",
          "type": "address"
        },
        {
          "internalType": "address",
          "name": "_campaignRegisty",
          "type": "address"
        }
      ],
      "name": "initialize",
      "outputs": [],
      "stateMutability": "nonpayable",
      "type": "function"
    },
    {
      "inputs": [
        {
          "internalType": "address",
          "name": "campaignInfo",
          "type": "address"
        },
        {
          "internalType": "uint256",
          "name": "launchTime",
          "type": "uint256"
        },
        {
          "internalType": "uint256",
          "name": "deadline",
          "type": "uint256"
        },
        {
          "internalType": "uint256",
          "name": "goalAmount",
          "type": "uint256"
        },
        {
          "internalType": "bool",
          "name": "enableLatePledge",
          "type": "bool"
        }
      ],
      "name": "setLaunch",
      "outputs": [],
      "stateMutability": "nonpayable",
      "type": "function"
    },
    {
      "inputs": [
        {
          "internalType": "address",
          "name": "campaignInfo",
          "type": "address"
        },
        {
          "internalType": "bytes32",
          "name": "platform",
          "type": "bytes32"
        },
        {
          "internalType": "address",
          "name": "platformWallet",
          "type": "address"
        },
        {
          "internalType": "address",
          "name": "token",
          "type": "address"
        }
      ],
      "name": "setTreasury",
      "outputs": [],
      "stateMutability": "nonpayable",
      "type": "function"
    },
    {
      "inputs": [
        {
          "internalType": "address",
          "name": "campaignInfo",
          "type": "address"
        },
        {
          "internalType": "uint256",
          "name": "_deadline",
          "type": "uint256"
        }
      ],
      "name": "updateDeadline",
      "outputs": [],
      "stateMutability": "nonpayable",
      "type": "function"
    },
    {
      "inputs": [
        {
          "internalType": "address",
          "name": "campaignInfo",
          "type": "address"
        },
        {
          "internalType": "uint256",
          "name": "_goalAmount",
          "type": "uint256"
        }
      ],
      "name": "updateGoal",
      "outputs": [],
      "stateMutability": "nonpayable",
      "type": "function"
    },
    {
      "inputs": [
        {
          "internalType": "address",
          "name": "campaignInfo",
          "type": "address"
        },
        {
          "internalType": "uint256",
          "name": "_launchTime",
          "type": "uint256"
        }
      ],
      "name": "updateLaunchTime",
      "outputs": [],
      "stateMutability": "nonpayable",
      "type": "function"
    }
  ],
  "bytecode": "0x608060405234801561001057600080fd5b5061230e806100206000396000f3fe60806040523480156200001157600080fd5b5060043610620000945760003560e01c8063592f98221162000063578063592f9822146200011957806389eb54581462000139578063fbe121fa1462000159578063fd38eaf114620001795762000094565b8063153f5afe146200009957806333d556d714620000b95780633be42fb514620000d9578063485cc95514620000f9575b600080fd5b620000b76004803603810190620000b1919062000c31565b62000199565b005b620000d76004803603810190620000d1919062000cb3565b6200025b565b005b620000f76004803603810190620000f1919062000c31565b620003ec565b005b62000117600480360381019062000111919062000d25565b620004ae565b005b62000137600480360381019062000131919062000e39565b62000534565b005b62000157600480360381019062000151919062001124565b6200067f565b005b62000177600480360381019062000171919062001287565b620009e2565b005b62000197600480360381019062000191919062000c31565b62000aad565b005b813373ffffffffffffffffffffffffffffffffffffffff16739aee2bb8906d3f3b1bb957765eb76a880bc4778873ffffffffffffffffffffffffffffffffffffffff1614620001e757600080fd5b8273ffffffffffffffffffffffffffffffffffffffff166342af1884836040518263ffffffff1660e01b815260040162000222919062001320565b600060405180830381600087803b1580156200023d57600080fd5b505af115801562000252573d6000803e3d6000fd5b50505050505050565b833373ffffffffffffffffffffffffffffffffffffffff16739aee2bb8906d3f3b1bb957765eb76a880bc4778873ffffffffffffffffffffffffffffffffffffffff1614620002a957600080fd5b600260009054906101000a900473ffffffffffffffffffffffffffffffffffffffff168585604051620002dc9062000b6f565b620002ea939291906200135f565b604051809103906000f08015801562000307573d6000803e3d6000fd5b50600360006101000a81548173ffffffffffffffffffffffffffffffffffffffff021916908373ffffffffffffffffffffffffffffffffffffffff1602179055506000600360009054906101000a900473ffffffffffffffffffffffffffffffffffffffff1690508573ffffffffffffffffffffffffffffffffffffffff1663deaaf241868684876040518563ffffffff1660e01b8152600401620003b094939291906200139c565b600060405180830381600087803b158015620003cb57600080fd5b505af1158015620003e0573d6000803e3d6000fd5b50505050505050505050565b813373ffffffffffffffffffffffffffffffffffffffff16739aee2bb8906d3f3b1bb957765eb76a880bc4778873ffffffffffffffffffffffffffffffffffffffff16146200043a57600080fd5b8273ffffffffffffffffffffffffffffffffffffffff166368027e43836040518263ffffffff1660e01b815260040162000475919062001320565b600060405180830381600087803b1580156200049057600080fd5b505af1158015620004a5573d6000803e3d6000fd5b50505050505050565b81600160006101000a81548173ffffffffffffffffffffffffffffffffffffffff021916908373ffffffffffffffffffffffffffffffffffffffff16021790555080600260006101000a81548173ffffffffffffffffffffffffffffffffffffffff021916908373ffffffffffffffffffffffffffffffffffffffff1602179055505050565b853373ffffffffffffffffffffffffffffffffffffffff16739aee2bb8906d3f3b1bb957765eb76a880bc4778873ffffffffffffffffffffffffffffffffffffffff16146200058257600080fd5b60008585905090508383905081146200059a57600080fd5b60005b8181101562000674578873ffffffffffffffffffffffffffffffffffffffff1663259bd58a89898985818110620005d957620005d8620013e9565b5b90506020020135888886818110620005f657620005f5620013e9565b5b90506020028101906200060a91906200141d565b6040518463ffffffff1660e01b81526004016200062a939291906200162e565b600060405180830381600087803b1580156200064557600080fd5b505af11580156200065a573d6000803e3d6000fd5b5050505080806200066b90620016a1565b9150506200059d565b505050505050505050565b873373ffffffffffffffffffffffffffffffffffffffff16739aee2bb8906d3f3b1bb957765eb76a880bc4778873ffffffffffffffffffffffffffffffffffffffff1614620006cd57600080fd5b600160009054906101000a900473ffffffffffffffffffffffffffffffffffffffff1673ffffffffffffffffffffffffffffffffffffffff1663c77e6f6530868887878c6040518763ffffffff1660e01b8152600401620007349695949392919062001850565b600060405180830381600087803b1580156200074f57600080fd5b505af115801562000764573d6000803e3d6000fd5b505050506000600260009054906101000a900473ffffffffffffffffffffffffffffffffffffffff1673ffffffffffffffffffffffffffffffffffffffff1663939f3130866040518263ffffffff1660e01b8152600401620007c79190620018d2565b60206040518083038186803b158015620007e057600080fd5b505afa158015620007f5573d6000803e3d6000fd5b505050506040513d601f19601f820116820180604052508101906200081b91906200190d565b9050896000808373ffffffffffffffffffffffffffffffffffffffff1673ffffffffffffffffffffffffffffffffffffffff16815260200190815260200160002060006101000a81548173ffffffffffffffffffffffffffffffffffffffff021916908373ffffffffffffffffffffffffffffffffffffffff160217905550600260009054906101000a900473ffffffffffffffffffffffffffffffffffffffff168187604051620008cd9062000b6f565b620008db939291906200135f565b604051809103906000f080158015620008f8573d6000803e3d6000fd5b50600360006101000a81548173ffffffffffffffffffffffffffffffffffffffff021916908373ffffffffffffffffffffffffffffffffffffffff1602179055506000600360009054906101000a900473ffffffffffffffffffffffffffffffffffffffff1690508173ffffffffffffffffffffffffffffffffffffffff1663deaaf241888c848d6040518563ffffffff1660e01b8152600401620009a194939291906200139c565b600060405180830381600087803b158015620009bc57600080fd5b505af1158015620009d1573d6000803e3d6000fd5b505050505050505050505050505050565b843373ffffffffffffffffffffffffffffffffffffffff16739aee2bb8906d3f3b1bb957765eb76a880bc4778873ffffffffffffffffffffffffffffffffffffffff161462000a3057600080fd5b8573ffffffffffffffffffffffffffffffffffffffff1663695c27c2868686866040518563ffffffff1660e01b815260040162000a71949392919062001950565b600060405180830381600087803b15801562000a8c57600080fd5b505af115801562000aa1573d6000803e3d6000fd5b50505050505050505050565b813373ffffffffffffffffffffffffffffffffffffffff16739aee2bb8906d3f3b1bb957765eb76a880bc4778873ffffffffffffffffffffffffffffffffffffffff161462000afb57600080fd5b8273ffffffffffffffffffffffffffffffffffffffff166342af1884836040518263ffffffff1660e01b815260040162000b36919062001320565b600060405180830381600087803b15801562000b5157600080fd5b505af115801562000b66573d6000803e3d6000fd5b50505050505050565b61093b806200199e83390190565b6000604051905090565b600080fd5b600080fd5b600073ffffffffffffffffffffffffffffffffffffffff82169050919050565b600062000bbe8262000b91565b9050919050565b62000bd08162000bb1565b811462000bdc57600080fd5b50565b60008135905062000bf08162000bc5565b92915050565b6000819050919050565b62000c0b8162000bf6565b811462000c1757600080fd5b50565b60008135905062000c2b8162000c00565b92915050565b6000806040838503121562000c4b5762000c4a62000b87565b5b600062000c5b8582860162000bdf565b925050602062000c6e8582860162000c1a565b9150509250929050565b6000819050919050565b62000c8d8162000c78565b811462000c9957600080fd5b50565b60008135905062000cad8162000c82565b92915050565b6000806000806080858703121562000cd05762000ccf62000b87565b5b600062000ce08782880162000bdf565b945050602062000cf38782880162000c9c565b935050604062000d068782880162000bdf565b925050606062000d198782880162000bdf565b91505092959194509250565b6000806040838503121562000d3f5762000d3e62000b87565b5b600062000d4f8582860162000bdf565b925050602062000d628582860162000bdf565b9150509250929050565b600080fd5b600080fd5b600080fd5b60008083601f84011262000d945762000d9362000d6c565b5b8235905067ffffffffffffffff81111562000db45762000db362000d71565b5b60208301915083602082028301111562000dd35762000dd262000d76565b5b9250929050565b60008083601f84011262000df35762000df262000d6c565b5b8235905067ffffffffffffffff81111562000e135762000e1262000d71565b5b60208301915083602082028301111562000e325762000e3162000d76565b5b9250929050565b6000806000806000806080878903121562000e595762000e5862000b87565b5b600062000e6989828a0162000bdf565b965050602062000e7c89828a0162000bdf565b955050604087013567ffffffffffffffff81111562000ea05762000e9f62000b8c565b5b62000eae89828a0162000d7b565b9450945050606087013567ffffffffffffffff81111562000ed45762000ed362000b8c565b5b62000ee289828a0162000dda565b92509250509295509295509295565b600080fd5b6000601f19601f8301169050919050565b7f4e487b7100000000000000000000000000000000000000000000000000000000600052604160045260246000fd5b62000f418262000ef6565b810181811067ffffffffffffffff8211171562000f635762000f6262000f07565b5b80604052505050565b600062000f7862000b7d565b905062000f86828262000f36565b919050565b600067ffffffffffffffff82111562000fa95762000fa862000f07565b5b62000fb48262000ef6565b9050602081019050919050565b82818337600083830152505050565b600062000fe762000fe18462000f8b565b62000f6c565b90508281526020810184848401111562001006576200100562000ef1565b5b6200101384828562000fc1565b509392505050565b600082601f83011262001033576200103262000d6c565b5b81356200104584826020860162000fd0565b91505092915050565b600067ffffffffffffffff8211156200106c576200106b62000f07565b5b602082029050602081019050919050565b6000620010946200108e846200104e565b62000f6c565b90508083825260208201905060208402830185811115620010ba57620010b962000d76565b5b835b81811015620010e75780620010d2888262000c9c565b845260208401935050602081019050620010bc565b5050509392505050565b600082601f83011262001109576200110862000d6c565b5b81356200111b8482602086016200107d565b91505092915050565b600080600080600080600080610100898b03121562001148576200114762000b87565b5b6000620011588b828c0162000bdf565b98505060206200116b8b828c0162000bdf565b97505060406200117e8b828c0162000bdf565b9650506060620011918b828c0162000c1a565b9550506080620011a48b828c0162000c9c565b94505060a089013567ffffffffffffffff811115620011c857620011c762000b8c565b5b620011d68b828c016200101b565b93505060c089013567ffffffffffffffff811115620011fa57620011f962000b8c565b5b620012088b828c016200101b565b92505060e089013567ffffffffffffffff8111156200122c576200122b62000b8c565b5b6200123a8b828c01620010f1565b9150509295985092959890939650565b60008115159050919050565b62001261816200124a565b81146200126d57600080fd5b50565b600081359050620012818162001256565b92915050565b600080600080600060a08688031215620012a657620012a562000b87565b5b6000620012b68882890162000bdf565b9550506020620012c98882890162000c1a565b9450506040620012dc8882890162000c1a565b9350506060620012ef8882890162000c1a565b9250506080620013028882890162001270565b9150509295509295909350565b6200131a8162000bf6565b82525050565b60006020820190506200133760008301846200130f565b92915050565b620013488162000bb1565b82525050565b620013598162000c78565b82525050565b60006060820190506200137660008301866200133d565b6200138560208301856200133d565b6200139460408301846200134e565b949350505050565b6000608082019050620013b360008301876200134e565b620013c260208301866200133d565b620013d160408301856200133d565b620013e060608301846200133d565b95945050505050565b7f4e487b7100000000000000000000000000000000000000000000000000000000600052603260045260246000fd5b600080fd5b6000823560016080038336030381126200143c576200143b62001418565b5b80830191505092915050565b600080fd5b600080fd5b600080fd5b6000808335600160200384360303811262001477576200147662001452565b5b83810192508235915060208301925067ffffffffffffffff821115620014a257620014a162001448565b5b602082023603841315620014bb57620014ba6200144d565b5b509250929050565b600082825260208201905092915050565b600080fd5b6000620014e78385620014c3565b93507f07ffffffffffffffffffffffffffffffffffffffffffffffffffffffffffffff8311156200151d576200151c620014d4565b5b6020830292506200153083858462000fc1565b82840190509392505050565b60006200154d602084018462000c1a565b905092915050565b620015608162000bf6565b82525050565b600062001577602084018462001270565b905092915050565b6200158a816200124a565b82525050565b600060808301620015a5600084018462001457565b8583036000870152620015ba838284620014d9565b92505050620015cd602084018462001457565b8583036020870152620015e2838284620014d9565b92505050620015f560408401846200153c565b62001604604086018262001555565b5062001614606084018462001566565b6200162360608601826200157f565b508091505092915050565b60006060820190506200164560008301866200133d565b6200165460208301856200134e565b818103604083015262001668818462001590565b9050949350505050565b7f4e487b7100000000000000000000000000000000000000000000000000000000600052601160045260246000fd5b6000620016ae8262000bf6565b91507fffffffffffffffffffffffffffffffffffffffffffffffffffffffffffffffff821415620016e457620016e362001672565b5b600182019050919050565b600081519050919050565b600082825260208201905092915050565b60005b838110156200172b5780820151818401526020810190506200170e565b838111156200173b576000848401525b50505050565b60006200174e82620016ef565b6200175a8185620016fa565b93506200176c8185602086016200170b565b620017778162000ef6565b840191505092915050565b600081519050919050565b600082825260208201905092915050565b6000819050602082019050919050565b620017b98162000c78565b82525050565b6000620017cd8383620017ae565b60208301905092915050565b6000602082019050919050565b6000620017f38262001782565b620017ff81856200178d565b93506200180c836200179e565b8060005b8381101562001843578151620018278882620017bf565b97506200183483620017d9565b92505060018101905062001810565b5085935050505092915050565b600060c0820190506200186760008301896200133d565b81810360208301526200187b818862001741565b90506200188c60408301876200134e565b8181036060830152620018a0818662001741565b90508181036080830152620018b68185620017e6565b9050620018c760a08301846200130f565b979650505050505050565b60006020820190508181036000830152620018ee818462001741565b905092915050565b600081519050620019078162000bc5565b92915050565b60006020828403121562001926576200192562000b87565b5b60006200193684828501620018f6565b91505092915050565b6200194a816200124a565b82525050565b60006080820190506200196760008301876200130f565b6200197660208301866200130f565b6200198560408301856200130f565b6200199460608301846200193f565b9594505050505056fe608060405234801561001057600080fd5b5060405161093b38038061093b8339818101604052810190610032919061015b565b826000806101000a81548173ffffffffffffffffffffffffffffffffffffffff021916908373ffffffffffffffffffffffffffffffffffffffff16021790555081600160006101000a81548173ffffffffffffffffffffffffffffffffffffffff021916908373ffffffffffffffffffffffffffffffffffffffff160217905550806002819055505050506101ae565b600080fd5b600073ffffffffffffffffffffffffffffffffffffffff82169050919050565b60006100f2826100c7565b9050919050565b610102816100e7565b811461010d57600080fd5b50565b60008151905061011f816100f9565b92915050565b6000819050919050565b61013881610125565b811461014357600080fd5b50565b6000815190506101558161012f565b92915050565b600080600060608486031215610174576101736100c2565b5b600061018286828701610110565b935050602061019386828701610110565b92505060406101a486828701610146565b9150509250925092565b61077e806101bd6000396000f3fe608060405234801561001057600080fd5b50600436106100885760003560e01c806360a56b3a1161005b57806360a56b3a146101055780636cccbe5e146101215780638f94b8c21461013f578063bf85f2631461015b57610088565b8063186bc5491461008d5780634575d5c5146100ab5780634b1d123b146100c95780634f15fc06146100e7575b600080fd5b610095610177565b6040516100a29190610337565b60405180910390f35b6100b3610181565b6040516100c0919061036b565b60405180910390f35b6100d161018b565b6040516100de9190610337565b60405180910390f35b6100ef6101a7565b6040516100fc9190610337565b60405180910390f35b61011f600480360381019061011a9190610415565b6101b1565b005b6101296102d4565b6040516101369190610337565b60405180910390f35b61015960048036038101906101549190610468565b6102f8565b005b61017560048036038101906101709190610468565b610302565b005b6000600354905090565b6000600254905090565b60006101956102d4565b6003546101a291906104c4565b905090565b6000600454905090565b600160009054906101000a900473ffffffffffffffffffffffffffffffffffffffff1673ffffffffffffffffffffffffffffffffffffffff163373ffffffffffffffffffffffffffffffffffffffff1614610241576040517f08c379a00000000000000000000000000000000000000000000000000000000081526004016102389061057b565b60405180910390fd5b8173ffffffffffffffffffffffffffffffffffffffff1663a9059cbb84836040518363ffffffff1660e01b815260040161027c9291906105aa565b602060405180830381600087803b15801561029657600080fd5b505af11580156102aa573d6000803e3d6000fd5b505050506040513d601f19601f820116820180604052508101906102ce919061060b565b50505050565b60006127106004546003546102e99190610638565b6102f391906106c1565b905090565b8060048190555050565b806003600082825461031491906106f2565b9250508190555050565b6000819050919050565b6103318161031e565b82525050565b600060208201905061034c6000830184610328565b92915050565b6000819050919050565b61036581610352565b82525050565b6000602082019050610380600083018461035c565b92915050565b600080fd5b600073ffffffffffffffffffffffffffffffffffffffff82169050919050565b60006103b68261038b565b9050919050565b6103c6816103ab565b81146103d157600080fd5b50565b6000813590506103e3816103bd565b92915050565b6103f28161031e565b81146103fd57600080fd5b50565b60008135905061040f816103e9565b92915050565b60008060006060848603121561042e5761042d610386565b5b600061043c868287016103d4565b935050602061044d868287016103d4565b925050604061045e86828701610400565b9150509250925092565b60006020828403121561047e5761047d610386565b5b600061048c84828501610400565b91505092915050565b7f4e487b7100000000000000000000000000000000000000000000000000000000600052601160045260246000fd5b60006104cf8261031e565b91506104da8361031e565b9250828210156104ed576104ec610495565b5b828203905092915050565b600082825260208201905092915050565b7f43616d706169676e54726561737572793a2043616c6c6572206973206e6f742060008201527f43616d706169676e496e666f20636f6e74726163740000000000000000000000602082015250565b60006105656035836104f8565b915061057082610509565b604082019050919050565b6000602082019050818103600083015261059481610558565b9050919050565b6105a4816103ab565b82525050565b60006040820190506105bf600083018561059b565b6105cc6020830184610328565b9392505050565b60008115159050919050565b6105e8816105d3565b81146105f357600080fd5b50565b600081519050610605816105df565b92915050565b60006020828403121561062157610620610386565b5b600061062f848285016105f6565b91505092915050565b60006106438261031e565b915061064e8361031e565b9250817fffffffffffffffffffffffffffffffffffffffffffffffffffffffffffffffff048311821515161561068757610686610495565b5b828202905092915050565b7f4e487b7100000000000000000000000000000000000000000000000000000000600052601260045260246000fd5b60006106cc8261031e565b91506106d78361031e565b9250826106e7576106e6610692565b5b828204905092915050565b60006106fd8261031e565b91506107088361031e565b9250827fffffffffffffffffffffffffffffffffffffffffffffffffffffffffffffffff0382111561073d5761073c610495565b5b82820190509291505056fea26469706673582212202a5583371f5732342cce0a1dce02a04f0483e302138cfaba5d4c9b05ad34fddc64736f6c63430008090033a264697066735822122082e8cc3efe9e7375e666300c85aa95e7cfdd9e96529d1e3a77a572fab5d5228864736f6c63430008090033",
  "linkReferences": {},
  "deployedLinkReferences": {}
}