{
  "_format": "hh-sol-artifact-1",
  "contractName": "Aggregator",
  "sourceName": "contracts/Aggregator/Aggregator.sol",
  "abi": [
    {
      "inputs": [
        {
          "internalType": "address",
          "name": "campaignInfo",
          "type": "address"
        },
        {
          "internalType": "address",
          "name": "creator",
          "type": "address"
        },
        {
          "internalType": "bytes32[]",
          "name": "id",
          "type": "bytes32[]"
        },
        {
          "components": [
            {
              "internalType": "uint256[]",
              "name": "items",
              "type": "uint256[]"
            },
            {
              "internalType": "uint256[]",
              "name": "itemQuantity",
              "type": "uint256[]"
            },
            {
              "internalType": "uint256",
              "name": "value",
              "type": "uint256"
            },
            {
              "internalType": "bool",
              "name": "isRewardTier",
              "type": "bool"
            }
          ],
          "internalType": "struct ICampaignContainers.Container[]",
          "name": "container",
          "type": "tuple[]"
        }
      ],
      "name": "addContainers",
      "outputs": [],
      "stateMutability": "nonpayable",
      "type": "function"
    },
    {
      "inputs": [
        {
          "internalType": "address",
          "name": "campaignInfo",
          "type": "address"
        },
        {
          "internalType": "string",
          "name": "_itemId",
          "type": "string"
        },
        {
          "internalType": "string",
          "name": "_description",
          "type": "string"
        }
      ],
      "name": "addItem",
      "outputs": [],
      "stateMutability": "nonpayable",
      "type": "function"
    },
    {
      "inputs": [
        {
          "internalType": "address",
          "name": "_creator",
          "type": "address"
        },
        {
          "internalType": "address",
          "name": "_originPlatformAddress",
          "type": "address"
        },
        {
          "internalType": "address",
          "name": "_originPlatformToken",
          "type": "address"
        },
        {
          "internalType": "uint256",
          "name": "_earlyPledgeAmount",
          "type": "uint256"
        },
        {
          "internalType": "bytes32",
          "name": "_originPlatformHex",
          "type": "bytes32"
        },
        {
          "internalType": "string",
          "name": "_identifier",
          "type": "string"
        },
        {
          "internalType": "string",
          "name": "_creatorUrl",
          "type": "string"
        },
        {
          "internalType": "bytes32[]",
          "name": "_reachPlatform",
          "type": "bytes32[]"
        }
      ],
      "name": "createCampaign",
      "outputs": [],
      "stateMutability": "nonpayable",
      "type": "function"
    },
    {
      "inputs": [
        {
          "internalType": "address",
          "name": "_campaignInfoFactory",
          "type": "address"
        },
        {
          "internalType": "address",
          "name": "_campaignRegisty",
          "type": "address"
        }
      ],
      "name": "initialize",
      "outputs": [],
      "stateMutability": "nonpayable",
      "type": "function"
    },
    {
      "inputs": [
        {
          "internalType": "address",
          "name": "campaignInfo",
          "type": "address"
        },
        {
          "internalType": "uint256",
          "name": "launchTime",
          "type": "uint256"
        },
        {
          "internalType": "uint256",
          "name": "deadline",
          "type": "uint256"
        },
        {
          "internalType": "uint256",
          "name": "goalAmount",
          "type": "uint256"
        },
        {
          "internalType": "bool",
          "name": "enableLatePledge",
          "type": "bool"
        }
      ],
      "name": "setLaunch",
      "outputs": [],
      "stateMutability": "nonpayable",
      "type": "function"
    },
    {
      "inputs": [
        {
          "internalType": "address",
          "name": "campaignInfo",
          "type": "address"
        },
        {
          "internalType": "bytes32",
          "name": "platform",
          "type": "bytes32"
        },
        {
          "internalType": "address",
          "name": "platformWallet",
          "type": "address"
        },
        {
          "internalType": "address",
          "name": "token",
          "type": "address"
        }
      ],
      "name": "setTreasury",
      "outputs": [],
      "stateMutability": "nonpayable",
      "type": "function"
    }
  ],
  "bytecode": "0x608060405234801561001057600080fd5b50612239806100206000396000f3fe60806040523480156200001157600080fd5b50600436106200006a5760003560e01c806333d556d7146200006f578063485cc955146200008f578063592f982214620000af57806389eb545814620000cf578063d3caea4f14620000ef578063fbe121fa146200010f575b600080fd5b6200008d600480360381019062000087919062000a4b565b6200012f565b005b620000ad6004803603810190620000a7919062000abd565b620002c0565b005b620000cd6004803603810190620000c7919062000bd1565b62000346565b005b620000ed6004803603810190620000e7919062000ef7565b62000490565b005b6200010d60048036038101906200010791906200107c565b620007f3565b005b6200012d60048036038101906200012791906200115d565b620008be565b005b833373ffffffffffffffffffffffffffffffffffffffff16739aee2bb8906d3f3b1bb957765eb76a880bc4778873ffffffffffffffffffffffffffffffffffffffff16146200017d57600080fd5b600260009054906101000a900473ffffffffffffffffffffffffffffffffffffffff168585604051620001b09062000989565b620001be9392919062001207565b604051809103906000f080158015620001db573d6000803e3d6000fd5b50600360006101000a81548173ffffffffffffffffffffffffffffffffffffffff021916908373ffffffffffffffffffffffffffffffffffffffff1602179055506000600360009054906101000a900473ffffffffffffffffffffffffffffffffffffffff1690508573ffffffffffffffffffffffffffffffffffffffff1663deaaf241868684876040518563ffffffff1660e01b815260040162000284949392919062001244565b600060405180830381600087803b1580156200029f57600080fd5b505af1158015620002b4573d6000803e3d6000fd5b50505050505050505050565b81600160006101000a81548173ffffffffffffffffffffffffffffffffffffffff021916908373ffffffffffffffffffffffffffffffffffffffff16021790555080600260006101000a81548173ffffffffffffffffffffffffffffffffffffffff021916908373ffffffffffffffffffffffffffffffffffffffff1602179055505050565b853373ffffffffffffffffffffffffffffffffffffffff16739aee2bb8906d3f3b1bb957765eb76a880bc4778873ffffffffffffffffffffffffffffffffffffffff16146200039457600080fd5b6000858590509050838390508114620003ac57600080fd5b60005b81811162000485578873ffffffffffffffffffffffffffffffffffffffff1663259bd58a89898985818110620003ea57620003e962001291565b5b9050602002013588888681811062000407576200040662001291565b5b90506020028101906200041b9190620012c5565b6040518463ffffffff1660e01b81526004016200043b93929190620014d6565b600060405180830381600087803b1580156200045657600080fd5b505af11580156200046b573d6000803e3d6000fd5b5050505080806200047c9062001549565b915050620003af565b505050505050505050565b873373ffffffffffffffffffffffffffffffffffffffff16739aee2bb8906d3f3b1bb957765eb76a880bc4778873ffffffffffffffffffffffffffffffffffffffff1614620004de57600080fd5b600160009054906101000a900473ffffffffffffffffffffffffffffffffffffffff1673ffffffffffffffffffffffffffffffffffffffff1663c77e6f6530868887878c6040518763ffffffff1660e01b8152600401620005459695949392919062001709565b600060405180830381600087803b1580156200056057600080fd5b505af115801562000575573d6000803e3d6000fd5b505050506000600260009054906101000a900473ffffffffffffffffffffffffffffffffffffffff1673ffffffffffffffffffffffffffffffffffffffff1663939f3130866040518263ffffffff1660e01b8152600401620005d891906200178b565b60206040518083038186803b158015620005f157600080fd5b505afa15801562000606573d6000803e3d6000fd5b505050506040513d601f19601f820116820180604052508101906200062c9190620017c6565b9050896000808373ffffffffffffffffffffffffffffffffffffffff1673ffffffffffffffffffffffffffffffffffffffff16815260200190815260200160002060006101000a81548173ffffffffffffffffffffffffffffffffffffffff021916908373ffffffffffffffffffffffffffffffffffffffff160217905550600260009054906101000a900473ffffffffffffffffffffffffffffffffffffffff168187604051620006de9062000989565b620006ec9392919062001207565b604051809103906000f08015801562000709573d6000803e3d6000fd5b50600360006101000a81548173ffffffffffffffffffffffffffffffffffffffff021916908373ffffffffffffffffffffffffffffffffffffffff1602179055506000600360009054906101000a900473ffffffffffffffffffffffffffffffffffffffff1690508173ffffffffffffffffffffffffffffffffffffffff1663deaaf241888c848d6040518563ffffffff1660e01b8152600401620007b2949392919062001244565b600060405180830381600087803b158015620007cd57600080fd5b505af1158015620007e2573d6000803e3d6000fd5b505050505050505050505050505050565b843373ffffffffffffffffffffffffffffffffffffffff16739aee2bb8906d3f3b1bb957765eb76a880bc4778873ffffffffffffffffffffffffffffffffffffffff16146200084157600080fd5b8573ffffffffffffffffffffffffffffffffffffffff16637ed8a719868686866040518563ffffffff1660e01b81526004016200088294939291906200182b565b600060405180830381600087803b1580156200089d57600080fd5b505af1158015620008b2573d6000803e3d6000fd5b50505050505050505050565b843373ffffffffffffffffffffffffffffffffffffffff16739aee2bb8906d3f3b1bb957765eb76a880bc4778873ffffffffffffffffffffffffffffffffffffffff16146200090c57600080fd5b8573ffffffffffffffffffffffffffffffffffffffff1663695c27c2868686866040518563ffffffff1660e01b81526004016200094d94939291906200187b565b600060405180830381600087803b1580156200096857600080fd5b505af11580156200097d573d6000803e3d6000fd5b50505050505050505050565b61093b80620018c983390190565b6000604051905090565b600080fd5b600080fd5b600073ffffffffffffffffffffffffffffffffffffffff82169050919050565b6000620009d882620009ab565b9050919050565b620009ea81620009cb565b8114620009f657600080fd5b50565b60008135905062000a0a81620009df565b92915050565b6000819050919050565b62000a258162000a10565b811462000a3157600080fd5b50565b60008135905062000a458162000a1a565b92915050565b6000806000806080858703121562000a685762000a67620009a1565b5b600062000a7887828801620009f9565b945050602062000a8b8782880162000a34565b935050604062000a9e87828801620009f9565b925050606062000ab187828801620009f9565b91505092959194509250565b6000806040838503121562000ad75762000ad6620009a1565b5b600062000ae785828601620009f9565b925050602062000afa85828601620009f9565b9150509250929050565b600080fd5b600080fd5b600080fd5b60008083601f84011262000b2c5762000b2b62000b04565b5b8235905067ffffffffffffffff81111562000b4c5762000b4b62000b09565b5b60208301915083602082028301111562000b6b5762000b6a62000b0e565b5b9250929050565b60008083601f84011262000b8b5762000b8a62000b04565b5b8235905067ffffffffffffffff81111562000bab5762000baa62000b09565b5b60208301915083602082028301111562000bca5762000bc962000b0e565b5b9250929050565b6000806000806000806080878903121562000bf15762000bf0620009a1565b5b600062000c0189828a01620009f9565b965050602062000c1489828a01620009f9565b955050604087013567ffffffffffffffff81111562000c385762000c37620009a6565b5b62000c4689828a0162000b13565b9450945050606087013567ffffffffffffffff81111562000c6c5762000c6b620009a6565b5b62000c7a89828a0162000b72565b92509250509295509295509295565b6000819050919050565b62000c9e8162000c89565b811462000caa57600080fd5b50565b60008135905062000cbe8162000c93565b92915050565b600080fd5b6000601f19601f8301169050919050565b7f4e487b7100000000000000000000000000000000000000000000000000000000600052604160045260246000fd5b62000d148262000cc9565b810181811067ffffffffffffffff8211171562000d365762000d3562000cda565b5b80604052505050565b600062000d4b62000997565b905062000d59828262000d09565b919050565b600067ffffffffffffffff82111562000d7c5762000d7b62000cda565b5b62000d878262000cc9565b9050602081019050919050565b82818337600083830152505050565b600062000dba62000db48462000d5e565b62000d3f565b90508281526020810184848401111562000dd95762000dd862000cc4565b5b62000de684828562000d94565b509392505050565b600082601f83011262000e065762000e0562000b04565b5b813562000e1884826020860162000da3565b91505092915050565b600067ffffffffffffffff82111562000e3f5762000e3e62000cda565b5b602082029050602081019050919050565b600062000e6762000e618462000e21565b62000d3f565b9050808382526020820190506020840283018581111562000e8d5762000e8c62000b0e565b5b835b8181101562000eba578062000ea5888262000a34565b84526020840193505060208101905062000e8f565b5050509392505050565b600082601f83011262000edc5762000edb62000b04565b5b813562000eee84826020860162000e50565b91505092915050565b600080600080600080600080610100898b03121562000f1b5762000f1a620009a1565b5b600062000f2b8b828c01620009f9565b985050602062000f3e8b828c01620009f9565b975050604062000f518b828c01620009f9565b965050606062000f648b828c0162000cad565b955050608062000f778b828c0162000a34565b94505060a089013567ffffffffffffffff81111562000f9b5762000f9a620009a6565b5b62000fa98b828c0162000dee565b93505060c089013567ffffffffffffffff81111562000fcd5762000fcc620009a6565b5b62000fdb8b828c0162000dee565b92505060e089013567ffffffffffffffff81111562000fff5762000ffe620009a6565b5b6200100d8b828c0162000ec4565b9150509295985092959890939650565b60008083601f84011262001036576200103562000b04565b5b8235905067ffffffffffffffff81111562001056576200105562000b09565b5b60208301915083600182028301111562001075576200107462000b0e565b5b9250929050565b6000806000806000606086880312156200109b576200109a620009a1565b5b6000620010ab88828901620009f9565b955050602086013567ffffffffffffffff811115620010cf57620010ce620009a6565b5b620010dd888289016200101d565b9450945050604086013567ffffffffffffffff811115620011035762001102620009a6565b5b62001111888289016200101d565b92509250509295509295909350565b60008115159050919050565b620011378162001120565b81146200114357600080fd5b50565b60008135905062001157816200112c565b92915050565b600080600080600060a086880312156200117c576200117b620009a1565b5b60006200118c88828901620009f9565b95505060206200119f8882890162000cad565b9450506040620011b28882890162000cad565b9350506060620011c58882890162000cad565b9250506080620011d88882890162001146565b9150509295509295909350565b620011f081620009cb565b82525050565b620012018162000a10565b82525050565b60006060820190506200121e6000830186620011e5565b6200122d6020830185620011e5565b6200123c6040830184620011f6565b949350505050565b60006080820190506200125b6000830187620011f6565b6200126a6020830186620011e5565b620012796040830185620011e5565b620012886060830184620011e5565b95945050505050565b7f4e487b7100000000000000000000000000000000000000000000000000000000600052603260045260246000fd5b600080fd5b600082356001608003833603038112620012e457620012e3620012c0565b5b80830191505092915050565b600080fd5b600080fd5b600080fd5b600080833560016020038436030381126200131f576200131e620012fa565b5b83810192508235915060208301925067ffffffffffffffff8211156200134a5762001349620012f0565b5b602082023603841315620013635762001362620012f5565b5b509250929050565b600082825260208201905092915050565b600080fd5b60006200138f83856200136b565b93507f07ffffffffffffffffffffffffffffffffffffffffffffffffffffffffffffff831115620013c557620013c46200137c565b5b602083029250620013d883858462000d94565b82840190509392505050565b6000620013f5602084018462000cad565b905092915050565b620014088162000c89565b82525050565b60006200141f602084018462001146565b905092915050565b620014328162001120565b82525050565b6000608083016200144d6000840184620012ff565b85830360008701526200146283828462001381565b92505050620014756020840184620012ff565b85830360208701526200148a83828462001381565b925050506200149d6040840184620013e4565b620014ac6040860182620013fd565b50620014bc60608401846200140e565b620014cb606086018262001427565b508091505092915050565b6000606082019050620014ed6000830186620011e5565b620014fc6020830185620011f6565b818103604083015262001510818462001438565b9050949350505050565b7f4e487b7100000000000000000000000000000000000000000000000000000000600052601160045260246000fd5b6000620015568262000c89565b91507fffffffffffffffffffffffffffffffffffffffffffffffffffffffffffffffff8214156200158c576200158b6200151a565b5b600182019050919050565b600081519050919050565b600082825260208201905092915050565b60005b83811015620015d3578082015181840152602081019050620015b6565b83811115620015e3576000848401525b50505050565b6000620015f68262001597565b620016028185620015a2565b935062001614818560208601620015b3565b6200161f8162000cc9565b840191505092915050565b600081519050919050565b600082825260208201905092915050565b6000819050602082019050919050565b620016618162000a10565b82525050565b600062001675838362001656565b60208301905092915050565b6000602082019050919050565b60006200169b826200162a565b620016a7818562001635565b9350620016b48362001646565b8060005b83811015620016eb578151620016cf888262001667565b9750620016dc8362001681565b925050600181019050620016b8565b5085935050505092915050565b620017038162000c89565b82525050565b600060c082019050620017206000830189620011e5565b8181036020830152620017348188620015e9565b9050620017456040830187620011f6565b8181036060830152620017598186620015e9565b905081810360808301526200176f81856200168e565b90506200178060a0830184620016f8565b979650505050505050565b60006020820190508181036000830152620017a78184620015e9565b905092915050565b600081519050620017c081620009df565b92915050565b600060208284031215620017df57620017de620009a1565b5b6000620017ef84828501620017af565b91505092915050565b6000620018068385620015a2565b93506200181583858462000d94565b620018208362000cc9565b840190509392505050565b6000604082019050818103600083015262001848818688620017f8565b905081810360208301526200185f818486620017f8565b905095945050505050565b620018758162001120565b82525050565b6000608082019050620018926000830187620016f8565b620018a16020830186620016f8565b620018b06040830185620016f8565b620018bf60608301846200186a565b9594505050505056fe608060405234801561001057600080fd5b5060405161093b38038061093b8339818101604052810190610032919061015b565b826000806101000a81548173ffffffffffffffffffffffffffffffffffffffff021916908373ffffffffffffffffffffffffffffffffffffffff16021790555081600160006101000a81548173ffffffffffffffffffffffffffffffffffffffff021916908373ffffffffffffffffffffffffffffffffffffffff160217905550806002819055505050506101ae565b600080fd5b600073ffffffffffffffffffffffffffffffffffffffff82169050919050565b60006100f2826100c7565b9050919050565b610102816100e7565b811461010d57600080fd5b50565b60008151905061011f816100f9565b92915050565b6000819050919050565b61013881610125565b811461014357600080fd5b50565b6000815190506101558161012f565b92915050565b600080600060608486031215610174576101736100c2565b5b600061018286828701610110565b935050602061019386828701610110565b92505060406101a486828701610146565b9150509250925092565b61077e806101bd6000396000f3fe608060405234801561001057600080fd5b50600436106100885760003560e01c806360a56b3a1161005b57806360a56b3a146101055780636cccbe5e146101215780638f94b8c21461013f578063bf85f2631461015b57610088565b8063186bc5491461008d5780634575d5c5146100ab5780634b1d123b146100c95780634f15fc06146100e7575b600080fd5b610095610177565b6040516100a29190610337565b60405180910390f35b6100b3610181565b6040516100c0919061036b565b60405180910390f35b6100d161018b565b6040516100de9190610337565b60405180910390f35b6100ef6101a7565b6040516100fc9190610337565b60405180910390f35b61011f600480360381019061011a9190610415565b6101b1565b005b6101296102d4565b6040516101369190610337565b60405180910390f35b61015960048036038101906101549190610468565b6102f8565b005b61017560048036038101906101709190610468565b610302565b005b6000600354905090565b6000600254905090565b60006101956102d4565b6003546101a291906104c4565b905090565b6000600454905090565b600160009054906101000a900473ffffffffffffffffffffffffffffffffffffffff1673ffffffffffffffffffffffffffffffffffffffff163373ffffffffffffffffffffffffffffffffffffffff1614610241576040517f08c379a00000000000000000000000000000000000000000000000000000000081526004016102389061057b565b60405180910390fd5b8173ffffffffffffffffffffffffffffffffffffffff1663a9059cbb84836040518363ffffffff1660e01b815260040161027c9291906105aa565b602060405180830381600087803b15801561029657600080fd5b505af11580156102aa573d6000803e3d6000fd5b505050506040513d601f19601f820116820180604052508101906102ce919061060b565b50505050565b60006127106004546003546102e99190610638565b6102f391906106c1565b905090565b8060048190555050565b806003600082825461031491906106f2565b9250508190555050565b6000819050919050565b6103318161031e565b82525050565b600060208201905061034c6000830184610328565b92915050565b6000819050919050565b61036581610352565b82525050565b6000602082019050610380600083018461035c565b92915050565b600080fd5b600073ffffffffffffffffffffffffffffffffffffffff82169050919050565b60006103b68261038b565b9050919050565b6103c6816103ab565b81146103d157600080fd5b50565b6000813590506103e3816103bd565b92915050565b6103f28161031e565b81146103fd57600080fd5b50565b60008135905061040f816103e9565b92915050565b60008060006060848603121561042e5761042d610386565b5b600061043c868287016103d4565b935050602061044d868287016103d4565b925050604061045e86828701610400565b9150509250925092565b60006020828403121561047e5761047d610386565b5b600061048c84828501610400565b91505092915050565b7f4e487b7100000000000000000000000000000000000000000000000000000000600052601160045260246000fd5b60006104cf8261031e565b91506104da8361031e565b9250828210156104ed576104ec610495565b5b828203905092915050565b600082825260208201905092915050565b7f43616d706169676e54726561737572793a2043616c6c6572206973206e6f742060008201527f43616d706169676e496e666f20636f6e74726163740000000000000000000000602082015250565b60006105656035836104f8565b915061057082610509565b604082019050919050565b6000602082019050818103600083015261059481610558565b9050919050565b6105a4816103ab565b82525050565b60006040820190506105bf600083018561059b565b6105cc6020830184610328565b9392505050565b60008115159050919050565b6105e8816105d3565b81146105f357600080fd5b50565b600081519050610605816105df565b92915050565b60006020828403121561062157610620610386565b5b600061062f848285016105f6565b91505092915050565b60006106438261031e565b915061064e8361031e565b9250817fffffffffffffffffffffffffffffffffffffffffffffffffffffffffffffffff048311821515161561068757610686610495565b5b828202905092915050565b7f4e487b7100000000000000000000000000000000000000000000000000000000600052601260045260246000fd5b60006106cc8261031e565b91506106d78361031e565b9250826106e7576106e6610692565b5b828204905092915050565b60006106fd8261031e565b91506107088361031e565b9250827fffffffffffffffffffffffffffffffffffffffffffffffffffffffffffffffff0382111561073d5761073c610495565b5b82820190509291505056fea26469706673582212202a5583371f5732342cce0a1dce02a04f0483e302138cfaba5d4c9b05ad34fddc64736f6c63430008090033a26469706673582212202cf7e0bfd1bb3616ef7e64c4d20cc3682a18482df8fdd5c48794c952b89dac2564736f6c63430008090033",
  "linkReferences": {},
  "deployedLinkReferences": {}
}